{
	"contracts/distribution/TombGenesisRewardPool.sol": {
		"PolyGenesisRewardPool": {
			"abi": [
				{
					"anonymous": false,
					"inputs": [
						{
							"indexed": true,
							"internalType": "address",
							"name": "user",
							"type": "address"
						},
						{
							"indexed": true,
							"internalType": "uint256",
							"name": "pid",
							"type": "uint256"
						},
						{
							"indexed": false,
							"internalType": "uint256",
							"name": "amount",
							"type": "uint256"
						}
					],
					"name": "Deposit",
					"type": "event"
				},
				{
					"anonymous": false,
					"inputs": [
						{
							"indexed": true,
							"internalType": "address",
							"name": "user",
							"type": "address"
						},
						{
							"indexed": true,
							"internalType": "uint256",
							"name": "pid",
							"type": "uint256"
						},
						{
							"indexed": false,
							"internalType": "uint256",
							"name": "amount",
							"type": "uint256"
						}
					],
					"name": "EmergencyWithdraw",
					"type": "event"
				},
				{
					"anonymous": false,
					"inputs": [
						{
							"indexed": true,
							"internalType": "address",
							"name": "previousOperator",
							"type": "address"
						},
						{
							"indexed": true,
							"internalType": "address",
							"name": "newOperator",
							"type": "address"
						}
					],
					"name": "OperatorTransferred",
					"type": "event"
				},
				{
					"anonymous": false,
					"inputs": [
						{
							"indexed": true,
							"internalType": "address",
							"name": "previousOwner",
							"type": "address"
						},
						{
							"indexed": true,
							"internalType": "address",
							"name": "newOwner",
							"type": "address"
						}
					],
					"name": "OwnershipTransferred",
					"type": "event"
				},
				{
					"anonymous": false,
					"inputs": [
						{
							"indexed": true,
							"internalType": "address",
							"name": "user",
							"type": "address"
						},
						{
							"indexed": false,
							"internalType": "uint256",
							"name": "amount",
							"type": "uint256"
						}
					],
					"name": "RewardPaid",
					"type": "event"
				},
				{
					"anonymous": false,
					"inputs": [
						{
							"indexed": true,
							"internalType": "address",
							"name": "user",
							"type": "address"
						},
						{
							"indexed": true,
							"internalType": "uint256",
							"name": "pid",
							"type": "uint256"
						},
						{
							"indexed": false,
							"internalType": "uint256",
							"name": "amount",
							"type": "uint256"
						}
					],
					"name": "Withdraw",
					"type": "event"
				},
				{
					"inputs": [],
					"name": "Poly",
					"outputs": [
						{
							"internalType": "contract IERC20",
							"name": "",
							"type": "address"
						}
					],
					"stateMutability": "view",
					"type": "function"
				},
				{
					"inputs": [],
					"name": "PolyPerSecond",
					"outputs": [
						{
							"internalType": "uint256",
							"name": "",
							"type": "uint256"
						}
					],
					"stateMutability": "view",
					"type": "function"
				},
				{
					"inputs": [],
					"name": "TOTAL_REWARDS",
					"outputs": [
						{
							"internalType": "uint256",
							"name": "",
							"type": "uint256"
						}
					],
					"stateMutability": "view",
					"type": "function"
				},
				{
					"inputs": [],
					"name": "_fees",
					"outputs": [
						{
							"internalType": "uint256",
							"name": "",
							"type": "uint256"
						}
					],
					"stateMutability": "view",
					"type": "function"
				},
				{
					"inputs": [
						{
							"internalType": "uint256",
							"name": "_allocPoint",
							"type": "uint256"
						},
						{
							"internalType": "contract IERC20",
							"name": "_token",
							"type": "address"
						},
						{
							"internalType": "bool",
							"name": "_withUpdate",
							"type": "bool"
						},
						{
							"internalType": "uint256",
							"name": "_lastRewardTime",
							"type": "uint256"
						}
					],
					"name": "add",
					"outputs": [],
					"stateMutability": "nonpayable",
					"type": "function"
				},
				{
					"inputs": [
						{
							"internalType": "uint256",
							"name": "_pid",
							"type": "uint256"
						},
						{
							"internalType": "uint256",
							"name": "_amount",
							"type": "uint256"
						}
					],
					"name": "deposit",
					"outputs": [],
					"stateMutability": "nonpayable",
					"type": "function"
				},
				{
					"inputs": [
						{
							"internalType": "uint256",
							"name": "_pid",
							"type": "uint256"
						}
					],
					"name": "emergencyWithdraw",
					"outputs": [],
					"stateMutability": "nonpayable",
					"type": "function"
				},
				{
					"inputs": [
						{
							"internalType": "uint256",
							"name": "_fromTime",
							"type": "uint256"
						},
						{
							"internalType": "uint256",
							"name": "_toTime",
							"type": "uint256"
						}
					],
					"name": "getGeneratedReward",
					"outputs": [
						{
							"internalType": "uint256",
							"name": "",
							"type": "uint256"
						}
					],
					"stateMutability": "view",
					"type": "function"
				},
				{
					"inputs": [
						{
							"internalType": "contract IERC20",
							"name": "_token",
							"type": "address"
						},
						{
							"internalType": "uint256",
							"name": "amount",
							"type": "uint256"
						},
						{
							"internalType": "address",
							"name": "to",
							"type": "address"
						}
					],
					"name": "governanceRecoverUnsupported",
					"outputs": [],
					"stateMutability": "nonpayable",
					"type": "function"
				},
				{
					"inputs": [
						{
							"internalType": "address",
							"name": "_Poly",
							"type": "address"
						},
						{
							"internalType": "uint256",
							"name": "_poolStartTime",
							"type": "uint256"
						}
					],
					"name": "initialize",
					"outputs": [],
					"stateMutability": "nonpayable",
					"type": "function"
				},
				{
					"inputs": [],
					"name": "initialized",
					"outputs": [
						{
							"internalType": "bool",
							"name": "",
							"type": "bool"
						}
					],
					"stateMutability": "view",
					"type": "function"
				},
				{
					"inputs": [],
					"name": "isInitialized",
					"outputs": [
						{
							"internalType": "bool",
							"name": "",
							"type": "bool"
						}
					],
					"stateMutability": "view",
					"type": "function"
				},
				{
					"inputs": [],
					"name": "isOperator",
					"outputs": [
						{
							"internalType": "bool",
							"name": "",
							"type": "bool"
						}
					],
					"stateMutability": "view",
					"type": "function"
				},
				{
					"inputs": [],
					"name": "massUpdatePools",
					"outputs": [],
					"stateMutability": "nonpayable",
					"type": "function"
				},
				{
					"inputs": [],
					"name": "operator",
					"outputs": [
						{
							"internalType": "address",
							"name": "",
							"type": "address"
						}
					],
					"stateMutability": "view",
					"type": "function"
				},
				{
					"inputs": [],
					"name": "owner",
					"outputs": [
						{
							"internalType": "address",
							"name": "",
							"type": "address"
						}
					],
					"stateMutability": "view",
					"type": "function"
				},
				{
					"inputs": [
						{
							"internalType": "uint256",
							"name": "_pid",
							"type": "uint256"
						},
						{
							"internalType": "address",
							"name": "_user",
							"type": "address"
						}
					],
					"name": "pendingStone",
					"outputs": [
						{
							"internalType": "uint256",
							"name": "",
							"type": "uint256"
						}
					],
					"stateMutability": "view",
					"type": "function"
				},
				{
					"inputs": [],
					"name": "poolEndTime",
					"outputs": [
						{
							"internalType": "uint256",
							"name": "",
							"type": "uint256"
						}
					],
					"stateMutability": "view",
					"type": "function"
				},
				{
					"inputs": [
						{
							"internalType": "uint256",
							"name": "",
							"type": "uint256"
						}
					],
					"name": "poolInfo",
					"outputs": [
						{
							"internalType": "contract IERC20",
							"name": "token",
							"type": "address"
						},
						{
							"internalType": "uint256",
							"name": "allocPoint",
							"type": "uint256"
						},
						{
							"internalType": "uint256",
							"name": "lastRewardTime",
							"type": "uint256"
						},
						{
							"internalType": "uint256",
							"name": "accPolyPerShare",
							"type": "uint256"
						},
						{
							"internalType": "bool",
							"name": "isStarted",
							"type": "bool"
						}
					],
					"stateMutability": "view",
					"type": "function"
				},
				{
					"inputs": [],
					"name": "poolStartTime",
					"outputs": [
						{
							"internalType": "uint256",
							"name": "",
							"type": "uint256"
						}
					],
					"stateMutability": "view",
					"type": "function"
				},
				{
					"inputs": [],
					"name": "renounceOwnership",
					"outputs": [],
					"stateMutability": "nonpayable",
					"type": "function"
				},
				{
					"inputs": [],
					"name": "runningTime",
					"outputs": [
						{
							"internalType": "uint256",
							"name": "",
							"type": "uint256"
						}
					],
					"stateMutability": "view",
					"type": "function"
				},
				{
					"inputs": [
						{
							"internalType": "uint256",
							"name": "_pid",
							"type": "uint256"
						},
						{
							"internalType": "uint256",
							"name": "_allocPoint",
							"type": "uint256"
						}
					],
					"name": "set",
					"outputs": [],
					"stateMutability": "nonpayable",
					"type": "function"
				},
				{
					"inputs": [
						{
							"internalType": "address",
							"name": "_Newoperator",
							"type": "address"
						}
					],
					"name": "setOperator",
					"outputs": [],
					"stateMutability": "nonpayable",
					"type": "function"
				},
				{
					"inputs": [],
					"name": "totalAllocPoint",
					"outputs": [
						{
							"internalType": "uint256",
							"name": "",
							"type": "uint256"
						}
					],
					"stateMutability": "view",
					"type": "function"
				},
				{
					"inputs": [
						{
							"internalType": "address",
							"name": "newOperator_",
							"type": "address"
						}
					],
					"name": "transferOperator",
					"outputs": [],
					"stateMutability": "nonpayable",
					"type": "function"
				},
				{
					"inputs": [
						{
							"internalType": "address",
							"name": "newOwner",
							"type": "address"
						}
					],
					"name": "transferOwnership",
					"outputs": [],
					"stateMutability": "nonpayable",
					"type": "function"
				},
				{
					"inputs": [
						{
							"internalType": "uint256",
							"name": "_pid",
							"type": "uint256"
						}
					],
					"name": "updatePool",
					"outputs": [],
					"stateMutability": "nonpayable",
					"type": "function"
				},
				{
					"inputs": [
						{
							"internalType": "uint256",
							"name": "",
							"type": "uint256"
						},
						{
							"internalType": "address",
							"name": "",
							"type": "address"
						}
					],
					"name": "userInfo",
					"outputs": [
						{
							"internalType": "uint256",
							"name": "amount",
							"type": "uint256"
						},
						{
							"internalType": "uint256",
							"name": "rewardDebt",
							"type": "uint256"
						}
					],
					"stateMutability": "view",
					"type": "function"
				},
				{
					"inputs": [
						{
							"internalType": "uint256",
							"name": "_pid",
							"type": "uint256"
						},
						{
							"internalType": "uint256",
							"name": "_amount",
							"type": "uint256"
						}
					],
					"name": "withdraw",
					"outputs": [],
					"stateMutability": "nonpayable",
					"type": "function"
				}
			],
			"devdoc": {
				"kind": "dev",
				"methods": {
					"owner()": {
						"details": "Returns the address of the current owner."
					},
					"renounceOwnership()": {
						"details": "Leaves the contract without owner. It will not be possible to call `onlyOwner` functions anymore. Can only be called by the current owner. NOTE: Renouncing ownership will leave the contract without an owner, thereby removing any functionality that is only available to the owner."
					},
					"transferOwnership(address)": {
						"details": "Transfers ownership of the contract to a new account (`newOwner`). Can only be called by the current owner."
					}
				},
				"version": 1
			},
			"evm": {
				"assembly": "    /* \"contracts/distribution/TombGenesisRewardPool.sol\":464:11506  contract PolyGenesisRewardPool is Operator {\r... */\n  mstore(0x40, 0x80)\n    /* \"contracts/distribution/TombGenesisRewardPool.sol\":1386:1391  false */\n  0x00\n    /* \"contracts/distribution/TombGenesisRewardPool.sol\":1360:1391  bool public initialized = false */\n  0x05\n  exp(0x0100, 0x00)\n  dup2\n  sload\n  dup2\n  0xff\n  mul\n  not\n  and\n  swap1\n  dup4\n  iszero\n  iszero\n  mul\n  or\n  swap1\n  sstore\n  pop\n    /* \"contracts/distribution/TombGenesisRewardPool.sol\":1643:1644  0 */\n  0x00\n    /* \"contracts/distribution/TombGenesisRewardPool.sol\":1610:1644  uint256 public totalAllocPoint = 0 */\n  0x07\n  sstore\n    /* \"contracts/distribution/TombGenesisRewardPool.sol\":1854:1867  0.09645 ether */\n  0x0156a8c394962000\n    /* \"contracts/distribution/TombGenesisRewardPool.sol\":1823:1867  uint256 public PolyPerSecond = 0.09645 ether */\n  0x0a\n  sstore\n    /* \"contracts/distribution/TombGenesisRewardPool.sol\":1939:1945  3 days */\n  0x03f480\n    /* \"contracts/distribution/TombGenesisRewardPool.sol\":1910:1945  uint256 public runningTime = 3 days */\n  0x0b\n  sstore\n    /* \"contracts/distribution/TombGenesisRewardPool.sol\":464:11506  contract PolyGenesisRewardPool is Operator {\r... */\n  callvalue\n  dup1\n  iszero\n  tag_1\n  jumpi\n  0x00\n  dup1\n  revert\ntag_1:\n  pop\n    /* \"@openzeppelin/contracts/access/Ownable.sol\":938:955  address msgSender */\n  0x00\n    /* \"@openzeppelin/contracts/access/Ownable.sol\":958:970  _msgSender() */\n  tag_5\n    /* \"@openzeppelin/contracts/access/Ownable.sol\":958:968  _msgSender */\n  shl(0x20, tag_6)\n    /* \"@openzeppelin/contracts/access/Ownable.sol\":958:970  _msgSender() */\n  0x20\n  shr\n  jump\t// in\ntag_5:\n    /* \"@openzeppelin/contracts/access/Ownable.sol\":938:970  address msgSender = _msgSender() */\n  swap1\n  pop\n    /* \"@openzeppelin/contracts/access/Ownable.sol\":989:998  msgSender */\n  dup1\n    /* \"@openzeppelin/contracts/access/Ownable.sol\":980:986  _owner */\n  0x00\n  dup1\n    /* \"@openzeppelin/contracts/access/Ownable.sol\":980:998  _owner = msgSender */\n  0x0100\n  exp\n  dup2\n  sload\n  dup2\n  0xffffffffffffffffffffffffffffffffffffffff\n  mul\n  not\n  and\n  swap1\n  dup4\n  0xffffffffffffffffffffffffffffffffffffffff\n  and\n  mul\n  or\n  swap1\n  sstore\n  pop\n    /* \"@openzeppelin/contracts/access/Ownable.sol\":1046:1055  msgSender */\n  dup1\n    /* \"@openzeppelin/contracts/access/Ownable.sol\":1013:1056  OwnershipTransferred(address(0), msgSender) */\n  0xffffffffffffffffffffffffffffffffffffffff\n  and\n    /* \"@openzeppelin/contracts/access/Ownable.sol\":1042:1043  0 */\n  0x00\n    /* \"@openzeppelin/contracts/access/Ownable.sol\":1013:1056  OwnershipTransferred(address(0), msgSender) */\n  0xffffffffffffffffffffffffffffffffffffffff\n  and\n  0x8be0079c531659141344cd1fd0a4f28419497f9722a3daafe3b4186f6b6457e0\n  mload(0x40)\n  mload(0x40)\n  dup1\n  swap2\n  sub\n  swap1\n  log3\n    /* \"@openzeppelin/contracts/access/Ownable.sol\":904:1063  constructor () internal {... */\n  pop\n    /* \"contracts/owner/Operator.sol\":435:447  _msgSender() */\n  tag_8\n    /* \"contracts/owner/Operator.sol\":435:445  _msgSender */\n  shl(0x20, tag_6)\n    /* \"contracts/owner/Operator.sol\":435:447  _msgSender() */\n  0x20\n  shr\n  jump\t// in\ntag_8:\n    /* \"contracts/owner/Operator.sol\":423:432  _operator */\n  0x01\n  0x00\n    /* \"contracts/owner/Operator.sol\":423:447  _operator = _msgSender() */\n  0x0100\n  exp\n  dup2\n  sload\n  dup2\n  0xffffffffffffffffffffffffffffffffffffffff\n  mul\n  not\n  and\n  swap1\n  dup4\n  0xffffffffffffffffffffffffffffffffffffffff\n  and\n  mul\n  or\n  swap1\n  sstore\n  pop\n    /* \"contracts/owner/Operator.sol\":495:504  _operator */\n  0x01\n  0x00\n  swap1\n  sload\n  swap1\n  0x0100\n  exp\n  swap1\n  div\n  0xffffffffffffffffffffffffffffffffffffffff\n  and\n    /* \"contracts/owner/Operator.sol\":463:505  OperatorTransferred(address(0), _operator) */\n  0xffffffffffffffffffffffffffffffffffffffff\n  and\n    /* \"contracts/owner/Operator.sol\":491:492  0 */\n  0x00\n    /* \"contracts/owner/Operator.sol\":463:505  OperatorTransferred(address(0), _operator) */\n  0xffffffffffffffffffffffffffffffffffffffff\n  and\n  0x74da04524d50c64947f5dd5381ef1a4dca5cba8ed1d816243f9e48aa0b5617ed\n  mload(0x40)\n  mload(0x40)\n  dup1\n  swap2\n  sub\n  swap1\n  log3\n    /* \"contracts/distribution/TombGenesisRewardPool.sol\":464:11506  contract PolyGenesisRewardPool is Operator {\r... */\n  jump(tag_9)\n    /* \"@openzeppelin/contracts/utils/Context.sol\":596:692  function _msgSender() internal view virtual returns (address) {... */\ntag_6:\n    /* \"@openzeppelin/contracts/utils/Context.sol\":649:656  address */\n  0x00\n    /* \"@openzeppelin/contracts/utils/Context.sol\":675:685  msg.sender */\n  caller\n    /* \"@openzeppelin/contracts/utils/Context.sol\":668:685  return msg.sender */\n  swap1\n  pop\n    /* \"@openzeppelin/contracts/utils/Context.sol\":596:692  function _msgSender() internal view virtual returns (address) {... */\n  swap1\n  jump\t// out\n    /* \"contracts/distribution/TombGenesisRewardPool.sol\":464:11506  contract PolyGenesisRewardPool is Operator {\r... */\ntag_9:\n  dataSize(sub_0)\n  dup1\n  dataOffset(sub_0)\n  0x00\n  codecopy\n  0x00\n  return\nstop\n\nsub_0: assembly {\n        /* \"contracts/distribution/TombGenesisRewardPool.sol\":464:11506  contract PolyGenesisRewardPool is Operator {\r... */\n      mstore(0x40, 0x80)\n      callvalue\n      dup1\n      iszero\n      tag_1\n      jumpi\n      0x00\n      dup1\n      revert\n    tag_1:\n      pop\n      jumpi(tag_2, lt(calldatasize, 0x04))\n      shr(0xe0, calldataload(0x00))\n      dup1\n      0x5f96dc11\n      gt\n      tag_33\n      jumpi\n      dup1\n      0x96805e54\n      gt\n      tag_34\n      jumpi\n      dup1\n      0xe177bb38\n      gt\n      tag_35\n      jumpi\n      dup1\n      0xe177bb38\n      eq\n      tag_29\n      jumpi\n      dup1\n      0xe2bbb158\n      eq\n      tag_30\n      jumpi\n      dup1\n      0xecf4deb9\n      eq\n      tag_31\n      jumpi\n      dup1\n      0xf2fde38b\n      eq\n      tag_32\n      jumpi\n      jump(tag_2)\n    tag_35:\n      dup1\n      0x96805e54\n      eq\n      tag_25\n      jumpi\n      dup1\n      0xb3ab15fb\n      eq\n      tag_26\n      jumpi\n      dup1\n      0xcd6dc687\n      eq\n      tag_27\n      jumpi\n      dup1\n      0xd212a69a\n      eq\n      tag_28\n      jumpi\n      jump(tag_2)\n    tag_34:\n      dup1\n      0x715018a6\n      gt\n      tag_36\n      jumpi\n      dup1\n      0x715018a6\n      eq\n      tag_21\n      jumpi\n      dup1\n      0x8da5cb5b\n      eq\n      tag_22\n      jumpi\n      dup1\n      0x93f1a40b\n      eq\n      tag_23\n      jumpi\n      dup1\n      0x943f013d\n      eq\n      tag_24\n      jumpi\n      jump(tag_2)\n    tag_36:\n      dup1\n      0x5f96dc11\n      eq\n      tag_18\n      jumpi\n      dup1\n      0x630b5ba1\n      eq\n      tag_19\n      jumpi\n      dup1\n      0x6e271dd5\n      eq\n      tag_20\n      jumpi\n      jump(tag_2)\n    tag_33:\n      dup1\n      0x392e53cd\n      gt\n      tag_37\n      jumpi\n      dup1\n      0x51eb05a6\n      gt\n      tag_38\n      jumpi\n      dup1\n      0x51eb05a6\n      eq\n      tag_14\n      jumpi\n      dup1\n      0x5312ea8e\n      eq\n      tag_15\n      jumpi\n      dup1\n      0x54575af4\n      eq\n      tag_16\n      jumpi\n      dup1\n      0x570ca735\n      eq\n      tag_17\n      jumpi\n      jump(tag_2)\n    tag_38:\n      dup1\n      0x392e53cd\n      eq\n      tag_10\n      jumpi\n      dup1\n      0x3f7caf52\n      eq\n      tag_11\n      jumpi\n      dup1\n      0x441a3e70\n      eq\n      tag_12\n      jumpi\n      dup1\n      0x4456eda2\n      eq\n      tag_13\n      jumpi\n      jump(tag_2)\n    tag_37:\n      dup1\n      0x17caf6f1\n      gt\n      tag_39\n      jumpi\n      dup1\n      0x17caf6f1\n      eq\n      tag_6\n      jumpi\n      dup1\n      0x1ab06ee5\n      eq\n      tag_7\n      jumpi\n      dup1\n      0x231f0c6a\n      eq\n      tag_8\n      jumpi\n      dup1\n      0x29605e77\n      eq\n      tag_9\n      jumpi\n      jump(tag_2)\n    tag_39:\n      dup1\n      0x09cf6091\n      eq\n      tag_3\n      jumpi\n      dup1\n      0x1526fe27\n      eq\n      tag_4\n      jumpi\n      dup1\n      0x158ef93e\n      eq\n      tag_5\n      jumpi\n    tag_2:\n      0x00\n      dup1\n      revert\n        /* \"contracts/distribution/TombGenesisRewardPool.sol\":1962:2013  uint256 public constant TOTAL_REWARDS = 25000 ether */\n    tag_3:\n      tag_40\n      tag_41\n      jump\t// in\n    tag_40:\n      mload(0x40)\n      dup1\n      dup3\n      dup2\n      mstore\n      0x20\n      add\n      swap2\n      pop\n      pop\n      mload(0x40)\n      dup1\n      swap2\n      sub\n      swap1\n      return\n        /* \"contracts/distribution/TombGenesisRewardPool.sol\":1311:1337  PoolInfo[] public poolInfo */\n    tag_4:\n      tag_42\n      0x04\n      dup1\n      calldatasize\n      sub\n      0x20\n      dup2\n      lt\n      iszero\n      tag_43\n      jumpi\n      0x00\n      dup1\n      revert\n    tag_43:\n      dup2\n      add\n      swap1\n      dup1\n      dup1\n      calldataload\n      swap1\n      0x20\n      add\n      swap1\n      swap3\n      swap2\n      swap1\n      pop\n      pop\n      pop\n      tag_44\n      jump\t// in\n    tag_42:\n      mload(0x40)\n      dup1\n      dup7\n      0xffffffffffffffffffffffffffffffffffffffff\n      and\n      dup2\n      mstore\n      0x20\n      add\n      dup6\n      dup2\n      mstore\n      0x20\n      add\n      dup5\n      dup2\n      mstore\n      0x20\n      add\n      dup4\n      dup2\n      mstore\n      0x20\n      add\n      dup3\n      iszero\n      iszero\n      dup2\n      mstore\n      0x20\n      add\n      swap6\n      pop\n      pop\n      pop\n      pop\n      pop\n      pop\n      mload(0x40)\n      dup1\n      swap2\n      sub\n      swap1\n      return\n        /* \"contracts/distribution/TombGenesisRewardPool.sol\":1360:1391  bool public initialized = false */\n    tag_5:\n      tag_45\n      tag_46\n      jump\t// in\n    tag_45:\n      mload(0x40)\n      dup1\n      dup3\n      iszero\n      iszero\n      dup2\n      mstore\n      0x20\n      add\n      swap2\n      pop\n      pop\n      mload(0x40)\n      dup1\n      swap2\n      sub\n      swap1\n      return\n        /* \"contracts/distribution/TombGenesisRewardPool.sol\":1610:1644  uint256 public totalAllocPoint = 0 */\n    tag_6:\n      tag_47\n      tag_48\n      jump\t// in\n    tag_47:\n      mload(0x40)\n      dup1\n      dup3\n      dup2\n      mstore\n      0x20\n      add\n      swap2\n      pop\n      pop\n      mload(0x40)\n      dup1\n      swap2\n      sub\n      swap1\n      return\n        /* \"contracts/distribution/TombGenesisRewardPool.sol\":4727:5080  function set(uint256 _pid, uint256 _allocPoint) public onlyOperator {\r... */\n    tag_7:\n      tag_49\n      0x04\n      dup1\n      calldatasize\n      sub\n      0x40\n      dup2\n      lt\n      iszero\n      tag_50\n      jumpi\n      0x00\n      dup1\n      revert\n    tag_50:\n      dup2\n      add\n      swap1\n      dup1\n      dup1\n      calldataload\n      swap1\n      0x20\n      add\n      swap1\n      swap3\n      swap2\n      swap1\n      dup1\n      calldataload\n      swap1\n      0x20\n      add\n      swap1\n      swap3\n      swap2\n      swap1\n      pop\n      pop\n      pop\n      tag_51\n      jump\t// in\n    tag_49:\n      stop\n        /* \"contracts/distribution/TombGenesisRewardPool.sol\":5157:5810  function getGeneratedReward(uint256 _fromTime, uint256 _toTime) public view returns (uint256) {\r... */\n    tag_8:\n      tag_52\n      0x04\n      dup1\n      calldatasize\n      sub\n      0x40\n      dup2\n      lt\n      iszero\n      tag_53\n      jumpi\n      0x00\n      dup1\n      revert\n    tag_53:\n      dup2\n      add\n      swap1\n      dup1\n      dup1\n      calldataload\n      swap1\n      0x20\n      add\n      swap1\n      swap3\n      swap2\n      swap1\n      dup1\n      calldataload\n      swap1\n      0x20\n      add\n      swap1\n      swap3\n      swap2\n      swap1\n      pop\n      pop\n      pop\n      tag_54\n      jump\t// in\n    tag_52:\n      mload(0x40)\n      dup1\n      dup3\n      dup2\n      mstore\n      0x20\n      add\n      swap2\n      pop\n      pop\n      mload(0x40)\n      dup1\n      swap2\n      sub\n      swap1\n      return\n        /* \"contracts/owner/Operator.sol\":894:1009  function transferOperator(address newOperator_) public onlyOwner {\r... */\n    tag_9:\n      tag_55\n      0x04\n      dup1\n      calldatasize\n      sub\n      0x20\n      dup2\n      lt\n      iszero\n      tag_56\n      jumpi\n      0x00\n      dup1\n      revert\n    tag_56:\n      dup2\n      add\n      swap1\n      dup1\n      dup1\n      calldataload\n      0xffffffffffffffffffffffffffffffffffffffff\n      and\n      swap1\n      0x20\n      add\n      swap1\n      swap3\n      swap2\n      swap1\n      pop\n      pop\n      pop\n      tag_57\n      jump\t// in\n    tag_55:\n      stop\n        /* \"contracts/distribution/TombGenesisRewardPool.sol\":2521:2610  function isInitialized() public view returns (bool) {\r... */\n    tag_10:\n      tag_58\n      tag_59\n      jump\t// in\n    tag_58:\n      mload(0x40)\n      dup1\n      dup3\n      iszero\n      iszero\n      dup2\n      mstore\n      0x20\n      add\n      swap2\n      pop\n      pop\n      mload(0x40)\n      dup1\n      swap2\n      sub\n      swap1\n      return\n        /* \"contracts/distribution/TombGenesisRewardPool.sol\":1823:1867  uint256 public PolyPerSecond = 0.09645 ether */\n    tag_11:\n      tag_60\n      tag_61\n      jump\t// in\n    tag_60:\n      mload(0x40)\n      dup1\n      dup3\n      dup2\n      mstore\n      0x20\n      add\n      swap2\n      pop\n      pop\n      mload(0x40)\n      dup1\n      swap2\n      sub\n      swap1\n      return\n        /* \"contracts/distribution/TombGenesisRewardPool.sol\":9032:9842  function withdraw(uint256 _pid, uint256 _amount) public {\r... */\n    tag_12:\n      tag_62\n      0x04\n      dup1\n      calldatasize\n      sub\n      0x40\n      dup2\n      lt\n      iszero\n      tag_63\n      jumpi\n      0x00\n      dup1\n      revert\n    tag_63:\n      dup2\n      add\n      swap1\n      dup1\n      dup1\n      calldataload\n      swap1\n      0x20\n      add\n      swap1\n      swap3\n      swap2\n      swap1\n      dup1\n      calldataload\n      swap1\n      0x20\n      add\n      swap1\n      swap3\n      swap2\n      swap1\n      pop\n      pop\n      pop\n      tag_64\n      jump\t// in\n    tag_62:\n      stop\n        /* \"contracts/owner/Operator.sol\":786:886  function isOperator() public view returns (bool) {\r... */\n    tag_13:\n      tag_65\n      tag_66\n      jump\t// in\n    tag_65:\n      mload(0x40)\n      dup1\n      dup3\n      iszero\n      iszero\n      dup2\n      mstore\n      0x20\n      add\n      swap2\n      pop\n      pop\n      mload(0x40)\n      dup1\n      swap2\n      sub\n      swap1\n      return\n        /* \"contracts/distribution/TombGenesisRewardPool.sol\":6984:7892  function updatePool(uint256 _pid) public {\r... */\n    tag_14:\n      tag_67\n      0x04\n      dup1\n      calldatasize\n      sub\n      0x20\n      dup2\n      lt\n      iszero\n      tag_68\n      jumpi\n      0x00\n      dup1\n      revert\n    tag_68:\n      dup2\n      add\n      swap1\n      dup1\n      dup1\n      calldataload\n      swap1\n      0x20\n      add\n      swap1\n      swap3\n      swap2\n      swap1\n      pop\n      pop\n      pop\n      tag_69\n      jump\t// in\n    tag_67:\n      stop\n        /* \"contracts/distribution/TombGenesisRewardPool.sol\":9913:10290  function emergencyWithdraw(uint256 _pid) public {\r... */\n    tag_15:\n      tag_70\n      0x04\n      dup1\n      calldatasize\n      sub\n      0x20\n      dup2\n      lt\n      iszero\n      tag_71\n      jumpi\n      0x00\n      dup1\n      revert\n    tag_71:\n      dup2\n      add\n      swap1\n      dup1\n      dup1\n      calldataload\n      swap1\n      0x20\n      add\n      swap1\n      swap3\n      swap2\n      swap1\n      pop\n      pop\n      pop\n      tag_72\n      jump\t// in\n    tag_70:\n      stop\n        /* \"contracts/distribution/TombGenesisRewardPool.sol\":10899:11503  function governanceRecoverUnsupported(IERC20 _token, uint256 amount, address to) external onlyOperator {\r... */\n    tag_16:\n      tag_73\n      0x04\n      dup1\n      calldatasize\n      sub\n      0x60\n      dup2\n      lt\n      iszero\n      tag_74\n      jumpi\n      0x00\n      dup1\n      revert\n    tag_74:\n      dup2\n      add\n      swap1\n      dup1\n      dup1\n      calldataload\n      0xffffffffffffffffffffffffffffffffffffffff\n      and\n      swap1\n      0x20\n      add\n      swap1\n      swap3\n      swap2\n      swap1\n      dup1\n      calldataload\n      swap1\n      0x20\n      add\n      swap1\n      swap3\n      swap2\n      swap1\n      dup1\n      calldataload\n      0xffffffffffffffffffffffffffffffffffffffff\n      and\n      swap1\n      0x20\n      add\n      swap1\n      swap3\n      swap2\n      swap1\n      pop\n      pop\n      pop\n      tag_75\n      jump\t// in\n    tag_73:\n      stop\n        /* \"contracts/owner/Operator.sol\":521:606  function operator() public view returns (address) {\r... */\n    tag_17:\n      tag_76\n      tag_77\n      jump\t// in\n    tag_76:\n      mload(0x40)\n      dup1\n      dup3\n      0xffffffffffffffffffffffffffffffffffffffff\n      and\n      dup2\n      mstore\n      0x20\n      add\n      swap2\n      pop\n      pop\n      mload(0x40)\n      dup1\n      swap2\n      sub\n      swap1\n      return\n        /* \"contracts/distribution/TombGenesisRewardPool.sol\":1695:1723  uint256 public poolStartTime */\n    tag_18:\n      tag_78\n      tag_79\n      jump\t// in\n    tag_78:\n      mload(0x40)\n      dup1\n      dup3\n      dup2\n      mstore\n      0x20\n      add\n      swap2\n      pop\n      pop\n      mload(0x40)\n      dup1\n      swap2\n      sub\n      swap1\n      return\n        /* \"contracts/distribution/TombGenesisRewardPool.sol\":6728:6908  function massUpdatePools() public {\r... */\n    tag_19:\n      tag_80\n      tag_81\n      jump\t// in\n    tag_80:\n      stop\n        /* \"contracts/distribution/TombGenesisRewardPool.sol\":1772:1798  uint256 public poolEndTime */\n    tag_20:\n      tag_82\n      tag_83\n      jump\t// in\n    tag_82:\n      mload(0x40)\n      dup1\n      dup3\n      dup2\n      mstore\n      0x20\n      add\n      swap2\n      pop\n      pop\n      mload(0x40)\n      dup1\n      swap2\n      sub\n      swap1\n      return\n        /* \"@openzeppelin/contracts/access/Ownable.sol\":1771:1916  function renounceOwnership() public virtual onlyOwner {... */\n    tag_21:\n      tag_84\n      tag_85\n      jump\t// in\n    tag_84:\n      stop\n        /* \"@openzeppelin/contracts/access/Ownable.sol\":1139:1224  function owner() public view virtual returns (address) {... */\n    tag_22:\n      tag_86\n      tag_87\n      jump\t// in\n    tag_86:\n      mload(0x40)\n      dup1\n      dup3\n      0xffffffffffffffffffffffffffffffffffffffff\n      and\n      dup2\n      mstore\n      0x20\n      add\n      swap2\n      pop\n      pop\n      mload(0x40)\n      dup1\n      swap2\n      sub\n      swap1\n      return\n        /* \"contracts/distribution/TombGenesisRewardPool.sol\":1449:1513  mapping(uint256 => mapping(address => UserInfo)) public userInfo */\n    tag_23:\n      tag_88\n      0x04\n      dup1\n      calldatasize\n      sub\n      0x40\n      dup2\n      lt\n      iszero\n      tag_89\n      jumpi\n      0x00\n      dup1\n      revert\n    tag_89:\n      dup2\n      add\n      swap1\n      dup1\n      dup1\n      calldataload\n      swap1\n      0x20\n      add\n      swap1\n      swap3\n      swap2\n      swap1\n      dup1\n      calldataload\n      0xffffffffffffffffffffffffffffffffffffffff\n      and\n      swap1\n      0x20\n      add\n      swap1\n      swap3\n      swap2\n      swap1\n      pop\n      pop\n      pop\n      tag_90\n      jump\t// in\n    tag_88:\n      mload(0x40)\n      dup1\n      dup4\n      dup2\n      mstore\n      0x20\n      add\n      dup3\n      dup2\n      mstore\n      0x20\n      add\n      swap3\n      pop\n      pop\n      pop\n      mload(0x40)\n      dup1\n      swap2\n      sub\n      swap1\n      return\n        /* \"contracts/distribution/TombGenesisRewardPool.sol\":1910:1945  uint256 public runningTime = 3 days */\n    tag_24:\n      tag_91\n      tag_92\n      jump\t// in\n    tag_91:\n      mload(0x40)\n      dup1\n      dup3\n      dup2\n      mstore\n      0x20\n      add\n      swap2\n      pop\n      pop\n      mload(0x40)\n      dup1\n      swap2\n      sub\n      swap1\n      return\n        /* \"contracts/distribution/TombGenesisRewardPool.sol\":3355:4631  function add(\r... */\n    tag_25:\n      tag_93\n      0x04\n      dup1\n      calldatasize\n      sub\n      0x80\n      dup2\n      lt\n      iszero\n      tag_94\n      jumpi\n      0x00\n      dup1\n      revert\n    tag_94:\n      dup2\n      add\n      swap1\n      dup1\n      dup1\n      calldataload\n      swap1\n      0x20\n      add\n      swap1\n      swap3\n      swap2\n      swap1\n      dup1\n      calldataload\n      0xffffffffffffffffffffffffffffffffffffffff\n      and\n      swap1\n      0x20\n      add\n      swap1\n      swap3\n      swap2\n      swap1\n      dup1\n      calldataload\n      iszero\n      iszero\n      swap1\n      0x20\n      add\n      swap1\n      swap3\n      swap2\n      swap1\n      dup1\n      calldataload\n      swap1\n      0x20\n      add\n      swap1\n      swap3\n      swap2\n      swap1\n      pop\n      pop\n      pop\n      tag_95\n      jump\t// in\n    tag_93:\n      stop\n        /* \"contracts/distribution/TombGenesisRewardPool.sol\":10777:10891  function setOperator(address _Newoperator) external onlyOperator {\r... */\n    tag_26:\n      tag_96\n      0x04\n      dup1\n      calldatasize\n      sub\n      0x20\n      dup2\n      lt\n      iszero\n      tag_97\n      jumpi\n      0x00\n      dup1\n      revert\n    tag_97:\n      dup2\n      add\n      swap1\n      dup1\n      dup1\n      calldataload\n      0xffffffffffffffffffffffffffffffffffffffff\n      and\n      swap1\n      0x20\n      add\n      swap1\n      swap3\n      swap2\n      swap1\n      pop\n      pop\n      pop\n      tag_98\n      jump\t// in\n    tag_96:\n      stop\n        /* \"contracts/distribution/TombGenesisRewardPool.sol\":2618:3006  function initialize (\r... */\n    tag_27:\n      tag_99\n      0x04\n      dup1\n      calldatasize\n      sub\n      0x40\n      dup2\n      lt\n      iszero\n      tag_100\n      jumpi\n      0x00\n      dup1\n      revert\n    tag_100:\n      dup2\n      add\n      swap1\n      dup1\n      dup1\n      calldataload\n      0xffffffffffffffffffffffffffffffffffffffff\n      and\n      swap1\n      0x20\n      add\n      swap1\n      swap3\n      swap2\n      swap1\n      dup1\n      calldataload\n      swap1\n      0x20\n      add\n      swap1\n      swap3\n      swap2\n      swap1\n      pop\n      pop\n      pop\n      tag_101\n      jump\t// in\n    tag_99:\n      stop\n        /* \"contracts/distribution/TombGenesisRewardPool.sol\":1255:1275  uint256 public _fees */\n    tag_28:\n      tag_102\n      tag_103\n      jump\t// in\n    tag_102:\n      mload(0x40)\n      dup1\n      dup3\n      dup2\n      mstore\n      0x20\n      add\n      swap2\n      pop\n      pop\n      mload(0x40)\n      dup1\n      swap2\n      sub\n      swap1\n      return\n        /* \"contracts/distribution/TombGenesisRewardPool.sol\":1216:1234  IERC20 public Poly */\n    tag_29:\n      tag_104\n      tag_105\n      jump\t// in\n    tag_104:\n      mload(0x40)\n      dup1\n      dup3\n      0xffffffffffffffffffffffffffffffffffffffff\n      and\n      dup2\n      mstore\n      0x20\n      add\n      swap2\n      pop\n      pop\n      mload(0x40)\n      dup1\n      swap2\n      sub\n      swap1\n      return\n        /* \"contracts/distribution/TombGenesisRewardPool.sol\":7929:8996  function deposit(uint256 _pid, uint256 _amount) public {\r... */\n    tag_30:\n      tag_106\n      0x04\n      dup1\n      calldatasize\n      sub\n      0x40\n      dup2\n      lt\n      iszero\n      tag_107\n      jumpi\n      0x00\n      dup1\n      revert\n    tag_107:\n      dup2\n      add\n      swap1\n      dup1\n      dup1\n      calldataload\n      swap1\n      0x20\n      add\n      swap1\n      swap3\n      swap2\n      swap1\n      dup1\n      calldataload\n      swap1\n      0x20\n      add\n      swap1\n      swap3\n      swap2\n      swap1\n      pop\n      pop\n      pop\n      tag_108\n      jump\t// in\n    tag_106:\n      stop\n        /* \"contracts/distribution/TombGenesisRewardPool.sol\":5873:6645  function pendingStone(uint256 _pid, address _user) external view returns (uint256) {\r... */\n    tag_31:\n      tag_109\n      0x04\n      dup1\n      calldatasize\n      sub\n      0x40\n      dup2\n      lt\n      iszero\n      tag_110\n      jumpi\n      0x00\n      dup1\n      revert\n    tag_110:\n      dup2\n      add\n      swap1\n      dup1\n      dup1\n      calldataload\n      swap1\n      0x20\n      add\n      swap1\n      swap3\n      swap2\n      swap1\n      dup1\n      calldataload\n      0xffffffffffffffffffffffffffffffffffffffff\n      and\n      swap1\n      0x20\n      add\n      swap1\n      swap3\n      swap2\n      swap1\n      pop\n      pop\n      pop\n      tag_111\n      jump\t// in\n    tag_109:\n      mload(0x40)\n      dup1\n      dup3\n      dup2\n      mstore\n      0x20\n      add\n      swap2\n      pop\n      pop\n      mload(0x40)\n      dup1\n      swap2\n      sub\n      swap1\n      return\n        /* \"@openzeppelin/contracts/access/Ownable.sol\":2065:2305  function transferOwnership(address newOwner) public virtual onlyOwner {... */\n    tag_32:\n      tag_112\n      0x04\n      dup1\n      calldatasize\n      sub\n      0x20\n      dup2\n      lt\n      iszero\n      tag_113\n      jumpi\n      0x00\n      dup1\n      revert\n    tag_113:\n      dup2\n      add\n      swap1\n      dup1\n      dup1\n      calldataload\n      0xffffffffffffffffffffffffffffffffffffffff\n      and\n      swap1\n      0x20\n      add\n      swap1\n      swap3\n      swap2\n      swap1\n      pop\n      pop\n      pop\n      tag_114\n      jump\t// in\n    tag_112:\n      stop\n        /* \"contracts/distribution/TombGenesisRewardPool.sol\":1962:2013  uint256 public constant TOTAL_REWARDS = 25000 ether */\n    tag_41:\n        /* \"contracts/distribution/TombGenesisRewardPool.sol\":2002:2013  25000 ether */\n      0x054b40b1f852bda00000\n        /* \"contracts/distribution/TombGenesisRewardPool.sol\":1962:2013  uint256 public constant TOTAL_REWARDS = 25000 ether */\n      dup2\n      jump\t// out\n        /* \"contracts/distribution/TombGenesisRewardPool.sol\":1311:1337  PoolInfo[] public poolInfo */\n    tag_44:\n      0x04\n      dup2\n      dup2\n      sload\n      dup2\n      lt\n      tag_115\n      jumpi\n      invalid\n    tag_115:\n      swap1\n      0x00\n      mstore\n      keccak256(0x00, 0x20)\n      swap1\n      0x05\n      mul\n      add\n      0x00\n      swap2\n      pop\n      swap1\n      pop\n      dup1\n      0x00\n      add\n      0x00\n      swap1\n      sload\n      swap1\n      0x0100\n      exp\n      swap1\n      div\n      0xffffffffffffffffffffffffffffffffffffffff\n      and\n      swap1\n      dup1\n      0x01\n      add\n      sload\n      swap1\n      dup1\n      0x02\n      add\n      sload\n      swap1\n      dup1\n      0x03\n      add\n      sload\n      swap1\n      dup1\n      0x04\n      add\n      0x00\n      swap1\n      sload\n      swap1\n      0x0100\n      exp\n      swap1\n      div\n      0xff\n      and\n      swap1\n      pop\n      dup6\n      jump\t// out\n        /* \"contracts/distribution/TombGenesisRewardPool.sol\":1360:1391  bool public initialized = false */\n    tag_46:\n      0x05\n      0x00\n      swap1\n      sload\n      swap1\n      0x0100\n      exp\n      swap1\n      div\n      0xff\n      and\n      dup2\n      jump\t// out\n        /* \"contracts/distribution/TombGenesisRewardPool.sol\":1610:1644  uint256 public totalAllocPoint = 0 */\n    tag_48:\n      sload(0x07)\n      dup2\n      jump\t// out\n        /* \"contracts/distribution/TombGenesisRewardPool.sol\":4727:5080  function set(uint256 _pid, uint256 _allocPoint) public onlyOperator {\r... */\n    tag_51:\n        /* \"contracts/owner/Operator.sol\":684:694  msg.sender */\n      caller\n        /* \"contracts/owner/Operator.sol\":671:694  _operator == msg.sender */\n      0xffffffffffffffffffffffffffffffffffffffff\n      and\n        /* \"contracts/owner/Operator.sol\":671:680  _operator */\n      0x01\n      0x00\n      swap1\n      sload\n      swap1\n      0x0100\n      exp\n      swap1\n      div\n      0xffffffffffffffffffffffffffffffffffffffff\n      and\n        /* \"contracts/owner/Operator.sol\":671:694  _operator == msg.sender */\n      0xffffffffffffffffffffffffffffffffffffffff\n      and\n      eq\n        /* \"contracts/owner/Operator.sol\":649:758  require(\r... */\n      tag_118\n      jumpi\n      mload(0x40)\n      0x08c379a000000000000000000000000000000000000000000000000000000000\n      dup2\n      mstore\n      0x04\n      add\n      dup1\n      dup1\n      0x20\n      add\n      dup3\n      dup2\n      sub\n      dup3\n      mstore\n      0x24\n      dup2\n      mstore\n      0x20\n      add\n      dup1\n      data_a62bfdba5053072911b63b0f6325b0e83fcd28b5a847d97efdd966feb4daaafb\n      0x24\n      swap2\n      codecopy\n      0x40\n      add\n      swap2\n      pop\n      pop\n      mload(0x40)\n      dup1\n      swap2\n      sub\n      swap1\n      revert\n    tag_118:\n        /* \"contracts/distribution/TombGenesisRewardPool.sol\":4806:4823  massUpdatePools() */\n      tag_120\n        /* \"contracts/distribution/TombGenesisRewardPool.sol\":4806:4821  massUpdatePools */\n      tag_81\n        /* \"contracts/distribution/TombGenesisRewardPool.sol\":4806:4823  massUpdatePools() */\n      jump\t// in\n    tag_120:\n        /* \"contracts/distribution/TombGenesisRewardPool.sol\":4834:4855  PoolInfo storage pool */\n      0x00\n        /* \"contracts/distribution/TombGenesisRewardPool.sol\":4858:4866  poolInfo */\n      0x04\n        /* \"contracts/distribution/TombGenesisRewardPool.sol\":4867:4871  _pid */\n      dup4\n        /* \"contracts/distribution/TombGenesisRewardPool.sol\":4858:4872  poolInfo[_pid] */\n      dup2\n      sload\n      dup2\n      lt\n      tag_121\n      jumpi\n      invalid\n    tag_121:\n      swap1\n      0x00\n      mstore\n      keccak256(0x00, 0x20)\n      swap1\n      0x05\n      mul\n      add\n        /* \"contracts/distribution/TombGenesisRewardPool.sol\":4834:4872  PoolInfo storage pool = poolInfo[_pid] */\n      swap1\n      pop\n        /* \"contracts/distribution/TombGenesisRewardPool.sol\":4887:4891  pool */\n      dup1\n        /* \"contracts/distribution/TombGenesisRewardPool.sol\":4887:4901  pool.isStarted */\n      0x04\n      add\n      0x00\n      swap1\n      sload\n      swap1\n      0x0100\n      exp\n      swap1\n      div\n      0xff\n      and\n        /* \"contracts/distribution/TombGenesisRewardPool.sol\":4883:5033  if (pool.isStarted) {\r... */\n      iszero\n      tag_123\n      jumpi\n        /* \"contracts/distribution/TombGenesisRewardPool.sol\":4936:5021  totalAllocPoint.sub(pool.allocPoint).add(\r... */\n      tag_124\n        /* \"contracts/distribution/TombGenesisRewardPool.sol\":4995:5006  _allocPoint */\n      dup3\n        /* \"contracts/distribution/TombGenesisRewardPool.sol\":4936:4972  totalAllocPoint.sub(pool.allocPoint) */\n      tag_125\n        /* \"contracts/distribution/TombGenesisRewardPool.sol\":4956:4960  pool */\n      dup4\n        /* \"contracts/distribution/TombGenesisRewardPool.sol\":4956:4971  pool.allocPoint */\n      0x01\n      add\n      sload\n        /* \"contracts/distribution/TombGenesisRewardPool.sol\":4936:4951  totalAllocPoint */\n      sload(0x07)\n        /* \"contracts/distribution/TombGenesisRewardPool.sol\":4936:4955  totalAllocPoint.sub */\n      tag_126\n      swap1\n        /* \"contracts/distribution/TombGenesisRewardPool.sol\":4936:4972  totalAllocPoint.sub(pool.allocPoint) */\n      swap2\n      swap1\n      0xffffffff\n      and\n      jump\t// in\n    tag_125:\n        /* \"contracts/distribution/TombGenesisRewardPool.sol\":4936:4976  totalAllocPoint.sub(pool.allocPoint).add */\n      tag_127\n      swap1\n        /* \"contracts/distribution/TombGenesisRewardPool.sol\":4936:5021  totalAllocPoint.sub(pool.allocPoint).add(\r... */\n      swap2\n      swap1\n      0xffffffff\n      and\n      jump\t// in\n    tag_124:\n        /* \"contracts/distribution/TombGenesisRewardPool.sol\":4918:4933  totalAllocPoint */\n      0x07\n        /* \"contracts/distribution/TombGenesisRewardPool.sol\":4918:5021  totalAllocPoint = totalAllocPoint.sub(pool.allocPoint).add(\r... */\n      dup2\n      swap1\n      sstore\n      pop\n        /* \"contracts/distribution/TombGenesisRewardPool.sol\":4883:5033  if (pool.isStarted) {\r... */\n    tag_123:\n        /* \"contracts/distribution/TombGenesisRewardPool.sol\":5061:5072  _allocPoint */\n      dup2\n        /* \"contracts/distribution/TombGenesisRewardPool.sol\":5043:5047  pool */\n      dup2\n        /* \"contracts/distribution/TombGenesisRewardPool.sol\":5043:5058  pool.allocPoint */\n      0x01\n      add\n        /* \"contracts/distribution/TombGenesisRewardPool.sol\":5043:5072  pool.allocPoint = _allocPoint */\n      dup2\n      swap1\n      sstore\n      pop\n        /* \"contracts/owner/Operator.sol\":769:770  _ */\n      pop\n        /* \"contracts/distribution/TombGenesisRewardPool.sol\":4727:5080  function set(uint256 _pid, uint256 _allocPoint) public onlyOperator {\r... */\n      pop\n      pop\n      jump\t// out\n        /* \"contracts/distribution/TombGenesisRewardPool.sol\":5157:5810  function getGeneratedReward(uint256 _fromTime, uint256 _toTime) public view returns (uint256) {\r... */\n    tag_54:\n        /* \"contracts/distribution/TombGenesisRewardPool.sol\":5242:5249  uint256 */\n      0x00\n        /* \"contracts/distribution/TombGenesisRewardPool.sol\":5279:5286  _toTime */\n      dup2\n        /* \"contracts/distribution/TombGenesisRewardPool.sol\":5266:5275  _fromTime */\n      dup4\n        /* \"contracts/distribution/TombGenesisRewardPool.sol\":5266:5286  _fromTime >= _toTime */\n      lt\n        /* \"contracts/distribution/TombGenesisRewardPool.sol\":5262:5296  if (_fromTime >= _toTime) return 0 */\n      tag_129\n      jumpi\n        /* \"contracts/distribution/TombGenesisRewardPool.sol\":5295:5296  0 */\n      0x00\n        /* \"contracts/distribution/TombGenesisRewardPool.sol\":5288:5296  return 0 */\n      swap1\n      pop\n      jump(tag_128)\n        /* \"contracts/distribution/TombGenesisRewardPool.sol\":5262:5296  if (_fromTime >= _toTime) return 0 */\n    tag_129:\n        /* \"contracts/distribution/TombGenesisRewardPool.sol\":5322:5333  poolEndTime */\n      sload(0x09)\n        /* \"contracts/distribution/TombGenesisRewardPool.sol\":5311:5318  _toTime */\n      dup3\n        /* \"contracts/distribution/TombGenesisRewardPool.sol\":5311:5333  _toTime >= poolEndTime */\n      lt\n        /* \"contracts/distribution/TombGenesisRewardPool.sol\":5307:5803  if (_toTime >= poolEndTime) {\r... */\n      tag_130\n      jumpi\n        /* \"contracts/distribution/TombGenesisRewardPool.sol\":5367:5378  poolEndTime */\n      sload(0x09)\n        /* \"contracts/distribution/TombGenesisRewardPool.sol\":5354:5363  _fromTime */\n      dup4\n        /* \"contracts/distribution/TombGenesisRewardPool.sol\":5354:5378  _fromTime >= poolEndTime */\n      lt\n        /* \"contracts/distribution/TombGenesisRewardPool.sol\":5350:5388  if (_fromTime >= poolEndTime) return 0 */\n      tag_131\n      jumpi\n        /* \"contracts/distribution/TombGenesisRewardPool.sol\":5387:5388  0 */\n      0x00\n        /* \"contracts/distribution/TombGenesisRewardPool.sol\":5380:5388  return 0 */\n      swap1\n      pop\n      jump(tag_128)\n        /* \"contracts/distribution/TombGenesisRewardPool.sol\":5350:5388  if (_fromTime >= poolEndTime) return 0 */\n    tag_131:\n        /* \"contracts/distribution/TombGenesisRewardPool.sol\":5420:5433  poolStartTime */\n      sload(0x08)\n        /* \"contracts/distribution/TombGenesisRewardPool.sol\":5407:5416  _fromTime */\n      dup4\n        /* \"contracts/distribution/TombGenesisRewardPool.sol\":5407:5433  _fromTime <= poolStartTime */\n      gt\n        /* \"contracts/distribution/TombGenesisRewardPool.sol\":5403:5491  if (_fromTime <= poolStartTime) return poolEndTime.sub(poolStartTime).mul(PolyPerSecond) */\n      tag_132\n      jumpi\n        /* \"contracts/distribution/TombGenesisRewardPool.sol\":5442:5491  poolEndTime.sub(poolStartTime).mul(PolyPerSecond) */\n      tag_133\n        /* \"contracts/distribution/TombGenesisRewardPool.sol\":5477:5490  PolyPerSecond */\n      sload(0x0a)\n        /* \"contracts/distribution/TombGenesisRewardPool.sol\":5442:5472  poolEndTime.sub(poolStartTime) */\n      tag_134\n        /* \"contracts/distribution/TombGenesisRewardPool.sol\":5458:5471  poolStartTime */\n      sload(0x08)\n        /* \"contracts/distribution/TombGenesisRewardPool.sol\":5442:5453  poolEndTime */\n      sload(0x09)\n        /* \"contracts/distribution/TombGenesisRewardPool.sol\":5442:5457  poolEndTime.sub */\n      tag_126\n      swap1\n        /* \"contracts/distribution/TombGenesisRewardPool.sol\":5442:5472  poolEndTime.sub(poolStartTime) */\n      swap2\n      swap1\n      0xffffffff\n      and\n      jump\t// in\n    tag_134:\n        /* \"contracts/distribution/TombGenesisRewardPool.sol\":5442:5476  poolEndTime.sub(poolStartTime).mul */\n      tag_135\n      swap1\n        /* \"contracts/distribution/TombGenesisRewardPool.sol\":5442:5491  poolEndTime.sub(poolStartTime).mul(PolyPerSecond) */\n      swap2\n      swap1\n      0xffffffff\n      and\n      jump\t// in\n    tag_133:\n        /* \"contracts/distribution/TombGenesisRewardPool.sol\":5435:5491  return poolEndTime.sub(poolStartTime).mul(PolyPerSecond) */\n      swap1\n      pop\n      jump(tag_128)\n        /* \"contracts/distribution/TombGenesisRewardPool.sol\":5403:5491  if (_fromTime <= poolStartTime) return poolEndTime.sub(poolStartTime).mul(PolyPerSecond) */\n    tag_132:\n        /* \"contracts/distribution/TombGenesisRewardPool.sol\":5513:5558  poolEndTime.sub(_fromTime).mul(PolyPerSecond) */\n      tag_136\n        /* \"contracts/distribution/TombGenesisRewardPool.sol\":5544:5557  PolyPerSecond */\n      sload(0x0a)\n        /* \"contracts/distribution/TombGenesisRewardPool.sol\":5513:5539  poolEndTime.sub(_fromTime) */\n      tag_137\n        /* \"contracts/distribution/TombGenesisRewardPool.sol\":5529:5538  _fromTime */\n      dup6\n        /* \"contracts/distribution/TombGenesisRewardPool.sol\":5513:5524  poolEndTime */\n      sload(0x09)\n        /* \"contracts/distribution/TombGenesisRewardPool.sol\":5513:5528  poolEndTime.sub */\n      tag_126\n      swap1\n        /* \"contracts/distribution/TombGenesisRewardPool.sol\":5513:5539  poolEndTime.sub(_fromTime) */\n      swap2\n      swap1\n      0xffffffff\n      and\n      jump\t// in\n    tag_137:\n        /* \"contracts/distribution/TombGenesisRewardPool.sol\":5513:5543  poolEndTime.sub(_fromTime).mul */\n      tag_135\n      swap1\n        /* \"contracts/distribution/TombGenesisRewardPool.sol\":5513:5558  poolEndTime.sub(_fromTime).mul(PolyPerSecond) */\n      swap2\n      swap1\n      0xffffffff\n      and\n      jump\t// in\n    tag_136:\n        /* \"contracts/distribution/TombGenesisRewardPool.sol\":5506:5558  return poolEndTime.sub(_fromTime).mul(PolyPerSecond) */\n      swap1\n      pop\n      jump(tag_128)\n        /* \"contracts/distribution/TombGenesisRewardPool.sol\":5307:5803  if (_toTime >= poolEndTime) {\r... */\n    tag_130:\n        /* \"contracts/distribution/TombGenesisRewardPool.sol\":5606:5619  poolStartTime */\n      sload(0x08)\n        /* \"contracts/distribution/TombGenesisRewardPool.sol\":5595:5602  _toTime */\n      dup3\n        /* \"contracts/distribution/TombGenesisRewardPool.sol\":5595:5619  _toTime <= poolStartTime */\n      gt\n        /* \"contracts/distribution/TombGenesisRewardPool.sol\":5591:5629  if (_toTime <= poolStartTime) return 0 */\n      tag_139\n      jumpi\n        /* \"contracts/distribution/TombGenesisRewardPool.sol\":5628:5629  0 */\n      0x00\n        /* \"contracts/distribution/TombGenesisRewardPool.sol\":5621:5629  return 0 */\n      swap1\n      pop\n      jump(tag_128)\n        /* \"contracts/distribution/TombGenesisRewardPool.sol\":5591:5629  if (_toTime <= poolStartTime) return 0 */\n    tag_139:\n        /* \"contracts/distribution/TombGenesisRewardPool.sol\":5661:5674  poolStartTime */\n      sload(0x08)\n        /* \"contracts/distribution/TombGenesisRewardPool.sol\":5648:5657  _fromTime */\n      dup4\n        /* \"contracts/distribution/TombGenesisRewardPool.sol\":5648:5674  _fromTime <= poolStartTime */\n      gt\n        /* \"contracts/distribution/TombGenesisRewardPool.sol\":5644:5728  if (_fromTime <= poolStartTime) return _toTime.sub(poolStartTime).mul(PolyPerSecond) */\n      tag_140\n      jumpi\n        /* \"contracts/distribution/TombGenesisRewardPool.sol\":5683:5728  _toTime.sub(poolStartTime).mul(PolyPerSecond) */\n      tag_141\n        /* \"contracts/distribution/TombGenesisRewardPool.sol\":5714:5727  PolyPerSecond */\n      sload(0x0a)\n        /* \"contracts/distribution/TombGenesisRewardPool.sol\":5683:5709  _toTime.sub(poolStartTime) */\n      tag_142\n        /* \"contracts/distribution/TombGenesisRewardPool.sol\":5695:5708  poolStartTime */\n      sload(0x08)\n        /* \"contracts/distribution/TombGenesisRewardPool.sol\":5683:5690  _toTime */\n      dup6\n        /* \"contracts/distribution/TombGenesisRewardPool.sol\":5683:5694  _toTime.sub */\n      tag_126\n      swap1\n        /* \"contracts/distribution/TombGenesisRewardPool.sol\":5683:5709  _toTime.sub(poolStartTime) */\n      swap2\n      swap1\n      0xffffffff\n      and\n      jump\t// in\n    tag_142:\n        /* \"contracts/distribution/TombGenesisRewardPool.sol\":5683:5713  _toTime.sub(poolStartTime).mul */\n      tag_135\n      swap1\n        /* \"contracts/distribution/TombGenesisRewardPool.sol\":5683:5728  _toTime.sub(poolStartTime).mul(PolyPerSecond) */\n      swap2\n      swap1\n      0xffffffff\n      and\n      jump\t// in\n    tag_141:\n        /* \"contracts/distribution/TombGenesisRewardPool.sol\":5676:5728  return _toTime.sub(poolStartTime).mul(PolyPerSecond) */\n      swap1\n      pop\n      jump(tag_128)\n        /* \"contracts/distribution/TombGenesisRewardPool.sol\":5644:5728  if (_fromTime <= poolStartTime) return _toTime.sub(poolStartTime).mul(PolyPerSecond) */\n    tag_140:\n        /* \"contracts/distribution/TombGenesisRewardPool.sol\":5750:5791  _toTime.sub(_fromTime).mul(PolyPerSecond) */\n      tag_143\n        /* \"contracts/distribution/TombGenesisRewardPool.sol\":5777:5790  PolyPerSecond */\n      sload(0x0a)\n        /* \"contracts/distribution/TombGenesisRewardPool.sol\":5750:5772  _toTime.sub(_fromTime) */\n      tag_144\n        /* \"contracts/distribution/TombGenesisRewardPool.sol\":5762:5771  _fromTime */\n      dup6\n        /* \"contracts/distribution/TombGenesisRewardPool.sol\":5750:5757  _toTime */\n      dup6\n        /* \"contracts/distribution/TombGenesisRewardPool.sol\":5750:5761  _toTime.sub */\n      tag_126\n      swap1\n        /* \"contracts/distribution/TombGenesisRewardPool.sol\":5750:5772  _toTime.sub(_fromTime) */\n      swap2\n      swap1\n      0xffffffff\n      and\n      jump\t// in\n    tag_144:\n        /* \"contracts/distribution/TombGenesisRewardPool.sol\":5750:5776  _toTime.sub(_fromTime).mul */\n      tag_135\n      swap1\n        /* \"contracts/distribution/TombGenesisRewardPool.sol\":5750:5791  _toTime.sub(_fromTime).mul(PolyPerSecond) */\n      swap2\n      swap1\n      0xffffffff\n      and\n      jump\t// in\n    tag_143:\n        /* \"contracts/distribution/TombGenesisRewardPool.sol\":5743:5791  return _toTime.sub(_fromTime).mul(PolyPerSecond) */\n      swap1\n      pop\n        /* \"contracts/distribution/TombGenesisRewardPool.sol\":5157:5810  function getGeneratedReward(uint256 _fromTime, uint256 _toTime) public view returns (uint256) {\r... */\n    tag_128:\n      swap3\n      swap2\n      pop\n      pop\n      jump\t// out\n        /* \"contracts/owner/Operator.sol\":894:1009  function transferOperator(address newOperator_) public onlyOwner {\r... */\n    tag_57:\n        /* \"@openzeppelin/contracts/access/Ownable.sol\":1362:1374  _msgSender() */\n      tag_146\n        /* \"@openzeppelin/contracts/access/Ownable.sol\":1362:1372  _msgSender */\n      tag_147\n        /* \"@openzeppelin/contracts/access/Ownable.sol\":1362:1374  _msgSender() */\n      jump\t// in\n    tag_146:\n        /* \"@openzeppelin/contracts/access/Ownable.sol\":1351:1374  owner() == _msgSender() */\n      0xffffffffffffffffffffffffffffffffffffffff\n      and\n        /* \"@openzeppelin/contracts/access/Ownable.sol\":1351:1358  owner() */\n      tag_148\n        /* \"@openzeppelin/contracts/access/Ownable.sol\":1351:1356  owner */\n      tag_87\n        /* \"@openzeppelin/contracts/access/Ownable.sol\":1351:1358  owner() */\n      jump\t// in\n    tag_148:\n        /* \"@openzeppelin/contracts/access/Ownable.sol\":1351:1374  owner() == _msgSender() */\n      0xffffffffffffffffffffffffffffffffffffffff\n      and\n      eq\n        /* \"@openzeppelin/contracts/access/Ownable.sol\":1343:1411  require(owner() == _msgSender(), \"Ownable: caller is not the owner\") */\n      tag_149\n      jumpi\n      mload(0x40)\n      0x08c379a000000000000000000000000000000000000000000000000000000000\n      dup2\n      mstore\n      0x04\n      add\n      dup1\n      dup1\n      0x20\n      add\n      dup3\n      dup2\n      sub\n      dup3\n      mstore\n      0x20\n      dup2\n      mstore\n      0x20\n      add\n      dup1\n      0x4f776e61626c653a2063616c6c6572206973206e6f7420746865206f776e6572\n      dup2\n      mstore\n      pop\n      0x20\n      add\n      swap2\n      pop\n      pop\n      mload(0x40)\n      dup1\n      swap2\n      sub\n      swap1\n      revert\n    tag_149:\n        /* \"contracts/owner/Operator.sol\":970:1001  _transferOperator(newOperator_) */\n      tag_151\n        /* \"contracts/owner/Operator.sol\":988:1000  newOperator_ */\n      dup2\n        /* \"contracts/owner/Operator.sol\":970:987  _transferOperator */\n      tag_152\n        /* \"contracts/owner/Operator.sol\":970:1001  _transferOperator(newOperator_) */\n      jump\t// in\n    tag_151:\n        /* \"contracts/owner/Operator.sol\":894:1009  function transferOperator(address newOperator_) public onlyOwner {\r... */\n      pop\n      jump\t// out\n        /* \"contracts/distribution/TombGenesisRewardPool.sol\":2521:2610  function isInitialized() public view returns (bool) {\r... */\n    tag_59:\n        /* \"contracts/distribution/TombGenesisRewardPool.sol\":2567:2571  bool */\n      0x00\n        /* \"contracts/distribution/TombGenesisRewardPool.sol\":2591:2602  initialized */\n      0x05\n      0x00\n      swap1\n      sload\n      swap1\n      0x0100\n      exp\n      swap1\n      div\n      0xff\n      and\n        /* \"contracts/distribution/TombGenesisRewardPool.sol\":2584:2602  return initialized */\n      swap1\n      pop\n        /* \"contracts/distribution/TombGenesisRewardPool.sol\":2521:2610  function isInitialized() public view returns (bool) {\r... */\n      swap1\n      jump\t// out\n        /* \"contracts/distribution/TombGenesisRewardPool.sol\":1823:1867  uint256 public PolyPerSecond = 0.09645 ether */\n    tag_61:\n      sload(0x0a)\n      dup2\n      jump\t// out\n        /* \"contracts/distribution/TombGenesisRewardPool.sol\":9032:9842  function withdraw(uint256 _pid, uint256 _amount) public {\r... */\n    tag_64:\n        /* \"contracts/distribution/TombGenesisRewardPool.sol\":9099:9114  address _sender */\n      0x00\n        /* \"contracts/distribution/TombGenesisRewardPool.sol\":9117:9127  msg.sender */\n      caller\n        /* \"contracts/distribution/TombGenesisRewardPool.sol\":9099:9127  address _sender = msg.sender */\n      swap1\n      pop\n        /* \"contracts/distribution/TombGenesisRewardPool.sol\":9138:9159  PoolInfo storage pool */\n      0x00\n        /* \"contracts/distribution/TombGenesisRewardPool.sol\":9162:9170  poolInfo */\n      0x04\n        /* \"contracts/distribution/TombGenesisRewardPool.sol\":9171:9175  _pid */\n      dup5\n        /* \"contracts/distribution/TombGenesisRewardPool.sol\":9162:9176  poolInfo[_pid] */\n      dup2\n      sload\n      dup2\n      lt\n      tag_155\n      jumpi\n      invalid\n    tag_155:\n      swap1\n      0x00\n      mstore\n      keccak256(0x00, 0x20)\n      swap1\n      0x05\n      mul\n      add\n        /* \"contracts/distribution/TombGenesisRewardPool.sol\":9138:9176  PoolInfo storage pool = poolInfo[_pid] */\n      swap1\n      pop\n        /* \"contracts/distribution/TombGenesisRewardPool.sol\":9187:9208  UserInfo storage user */\n      0x00\n        /* \"contracts/distribution/TombGenesisRewardPool.sol\":9211:9219  userInfo */\n      0x06\n        /* \"contracts/distribution/TombGenesisRewardPool.sol\":9211:9225  userInfo[_pid] */\n      0x00\n        /* \"contracts/distribution/TombGenesisRewardPool.sol\":9220:9224  _pid */\n      dup7\n        /* \"contracts/distribution/TombGenesisRewardPool.sol\":9211:9225  userInfo[_pid] */\n      dup2\n      mstore\n      0x20\n      add\n      swap1\n      dup2\n      mstore\n      0x20\n      add\n      0x00\n      keccak256\n        /* \"contracts/distribution/TombGenesisRewardPool.sol\":9211:9234  userInfo[_pid][_sender] */\n      0x00\n        /* \"contracts/distribution/TombGenesisRewardPool.sol\":9226:9233  _sender */\n      dup5\n        /* \"contracts/distribution/TombGenesisRewardPool.sol\":9211:9234  userInfo[_pid][_sender] */\n      0xffffffffffffffffffffffffffffffffffffffff\n      and\n      0xffffffffffffffffffffffffffffffffffffffff\n      and\n      dup2\n      mstore\n      0x20\n      add\n      swap1\n      dup2\n      mstore\n      0x20\n      add\n      0x00\n      keccak256\n        /* \"contracts/distribution/TombGenesisRewardPool.sol\":9187:9234  UserInfo storage user = userInfo[_pid][_sender] */\n      swap1\n      pop\n        /* \"contracts/distribution/TombGenesisRewardPool.sol\":9268:9275  _amount */\n      dup4\n        /* \"contracts/distribution/TombGenesisRewardPool.sol\":9253:9257  user */\n      dup2\n        /* \"contracts/distribution/TombGenesisRewardPool.sol\":9253:9264  user.amount */\n      0x00\n      add\n      sload\n        /* \"contracts/distribution/TombGenesisRewardPool.sol\":9253:9275  user.amount >= _amount */\n      lt\n      iszero\n        /* \"contracts/distribution/TombGenesisRewardPool.sol\":9245:9298  require(user.amount >= _amount, \"withdraw: not good\") */\n      tag_157\n      jumpi\n      mload(0x40)\n      0x08c379a000000000000000000000000000000000000000000000000000000000\n      dup2\n      mstore\n      0x04\n      add\n      dup1\n      dup1\n      0x20\n      add\n      dup3\n      dup2\n      sub\n      dup3\n      mstore\n      0x12\n      dup2\n      mstore\n      0x20\n      add\n      dup1\n      0x77697468647261773a206e6f7420676f6f640000000000000000000000000000\n      dup2\n      mstore\n      pop\n      0x20\n      add\n      swap2\n      pop\n      pop\n      mload(0x40)\n      dup1\n      swap2\n      sub\n      swap1\n      revert\n    tag_157:\n        /* \"contracts/distribution/TombGenesisRewardPool.sol\":9309:9325  updatePool(_pid) */\n      tag_158\n        /* \"contracts/distribution/TombGenesisRewardPool.sol\":9320:9324  _pid */\n      dup6\n        /* \"contracts/distribution/TombGenesisRewardPool.sol\":9309:9319  updatePool */\n      tag_69\n        /* \"contracts/distribution/TombGenesisRewardPool.sol\":9309:9325  updatePool(_pid) */\n      jump\t// in\n    tag_158:\n        /* \"contracts/distribution/TombGenesisRewardPool.sol\":9336:9352  uint256 _pending */\n      0x00\n        /* \"contracts/distribution/TombGenesisRewardPool.sol\":9355:9423  user.amount.mul(pool.accPolyPerShare).div(1e18).sub(user.rewardDebt) */\n      tag_159\n        /* \"contracts/distribution/TombGenesisRewardPool.sol\":9407:9411  user */\n      dup3\n        /* \"contracts/distribution/TombGenesisRewardPool.sol\":9407:9422  user.rewardDebt */\n      0x01\n      add\n      sload\n        /* \"contracts/distribution/TombGenesisRewardPool.sol\":9355:9402  user.amount.mul(pool.accPolyPerShare).div(1e18) */\n      tag_160\n        /* \"contracts/distribution/TombGenesisRewardPool.sol\":9397:9401  1e18 */\n      0x0de0b6b3a7640000\n        /* \"contracts/distribution/TombGenesisRewardPool.sol\":9355:9392  user.amount.mul(pool.accPolyPerShare) */\n      tag_161\n        /* \"contracts/distribution/TombGenesisRewardPool.sol\":9371:9375  pool */\n      dup8\n        /* \"contracts/distribution/TombGenesisRewardPool.sol\":9371:9391  pool.accPolyPerShare */\n      0x03\n      add\n      sload\n        /* \"contracts/distribution/TombGenesisRewardPool.sol\":9355:9359  user */\n      dup8\n        /* \"contracts/distribution/TombGenesisRewardPool.sol\":9355:9366  user.amount */\n      0x00\n      add\n      sload\n        /* \"contracts/distribution/TombGenesisRewardPool.sol\":9355:9370  user.amount.mul */\n      tag_135\n      swap1\n        /* \"contracts/distribution/TombGenesisRewardPool.sol\":9355:9392  user.amount.mul(pool.accPolyPerShare) */\n      swap2\n      swap1\n      0xffffffff\n      and\n      jump\t// in\n    tag_161:\n        /* \"contracts/distribution/TombGenesisRewardPool.sol\":9355:9396  user.amount.mul(pool.accPolyPerShare).div */\n      tag_162\n      swap1\n        /* \"contracts/distribution/TombGenesisRewardPool.sol\":9355:9402  user.amount.mul(pool.accPolyPerShare).div(1e18) */\n      swap2\n      swap1\n      0xffffffff\n      and\n      jump\t// in\n    tag_160:\n        /* \"contracts/distribution/TombGenesisRewardPool.sol\":9355:9406  user.amount.mul(pool.accPolyPerShare).div(1e18).sub */\n      tag_126\n      swap1\n        /* \"contracts/distribution/TombGenesisRewardPool.sol\":9355:9423  user.amount.mul(pool.accPolyPerShare).div(1e18).sub(user.rewardDebt) */\n      swap2\n      swap1\n      0xffffffff\n      and\n      jump\t// in\n    tag_159:\n        /* \"contracts/distribution/TombGenesisRewardPool.sol\":9336:9423  uint256 _pending = user.amount.mul(pool.accPolyPerShare).div(1e18).sub(user.rewardDebt) */\n      swap1\n      pop\n        /* \"contracts/distribution/TombGenesisRewardPool.sol\":9449:9450  0 */\n      0x00\n        /* \"contracts/distribution/TombGenesisRewardPool.sol\":9438:9446  _pending */\n      dup2\n        /* \"contracts/distribution/TombGenesisRewardPool.sol\":9438:9450  _pending > 0 */\n      gt\n        /* \"contracts/distribution/TombGenesisRewardPool.sol\":9434:9563  if (_pending > 0) {\r... */\n      iszero\n      tag_163\n      jumpi\n        /* \"contracts/distribution/TombGenesisRewardPool.sol\":9467:9502  safePolyTransfer(_sender, _pending) */\n      tag_164\n        /* \"contracts/distribution/TombGenesisRewardPool.sol\":9484:9491  _sender */\n      dup5\n        /* \"contracts/distribution/TombGenesisRewardPool.sol\":9493:9501  _pending */\n      dup3\n        /* \"contracts/distribution/TombGenesisRewardPool.sol\":9467:9483  safePolyTransfer */\n      tag_165\n        /* \"contracts/distribution/TombGenesisRewardPool.sol\":9467:9502  safePolyTransfer(_sender, _pending) */\n      jump\t// in\n    tag_164:\n        /* \"contracts/distribution/TombGenesisRewardPool.sol\":9533:9540  _sender */\n      dup4\n        /* \"contracts/distribution/TombGenesisRewardPool.sol\":9522:9551  RewardPaid(_sender, _pending) */\n      0xffffffffffffffffffffffffffffffffffffffff\n      and\n      0xe2403640ba68fed3a2f88b7557551d1993f84b99bb10ff833f0cf8db0c5e0486\n        /* \"contracts/distribution/TombGenesisRewardPool.sol\":9542:9550  _pending */\n      dup3\n        /* \"contracts/distribution/TombGenesisRewardPool.sol\":9522:9551  RewardPaid(_sender, _pending) */\n      mload(0x40)\n      dup1\n      dup3\n      dup2\n      mstore\n      0x20\n      add\n      swap2\n      pop\n      pop\n      mload(0x40)\n      dup1\n      swap2\n      sub\n      swap1\n      log2\n        /* \"contracts/distribution/TombGenesisRewardPool.sol\":9434:9563  if (_pending > 0) {\r... */\n    tag_163:\n        /* \"contracts/distribution/TombGenesisRewardPool.sol\":9587:9588  0 */\n      0x00\n        /* \"contracts/distribution/TombGenesisRewardPool.sol\":9577:9584  _amount */\n      dup6\n        /* \"contracts/distribution/TombGenesisRewardPool.sol\":9577:9588  _amount > 0 */\n      gt\n        /* \"contracts/distribution/TombGenesisRewardPool.sol\":9573:9711  if (_amount > 0) {\r... */\n      iszero\n      tag_166\n      jumpi\n        /* \"contracts/distribution/TombGenesisRewardPool.sol\":9619:9643  user.amount.sub(_amount) */\n      tag_167\n        /* \"contracts/distribution/TombGenesisRewardPool.sol\":9635:9642  _amount */\n      dup6\n        /* \"contracts/distribution/TombGenesisRewardPool.sol\":9619:9623  user */\n      dup4\n        /* \"contracts/distribution/TombGenesisRewardPool.sol\":9619:9630  user.amount */\n      0x00\n      add\n      sload\n        /* \"contracts/distribution/TombGenesisRewardPool.sol\":9619:9634  user.amount.sub */\n      tag_126\n      swap1\n        /* \"contracts/distribution/TombGenesisRewardPool.sol\":9619:9643  user.amount.sub(_amount) */\n      swap2\n      swap1\n      0xffffffff\n      and\n      jump\t// in\n    tag_167:\n        /* \"contracts/distribution/TombGenesisRewardPool.sol\":9605:9609  user */\n      dup3\n        /* \"contracts/distribution/TombGenesisRewardPool.sol\":9605:9616  user.amount */\n      0x00\n      add\n        /* \"contracts/distribution/TombGenesisRewardPool.sol\":9605:9643  user.amount = user.amount.sub(_amount) */\n      dup2\n      swap1\n      sstore\n      pop\n        /* \"contracts/distribution/TombGenesisRewardPool.sol\":9658:9699  pool.token.safeTransfer(_sender, _amount) */\n      tag_168\n        /* \"contracts/distribution/TombGenesisRewardPool.sol\":9682:9689  _sender */\n      dup5\n        /* \"contracts/distribution/TombGenesisRewardPool.sol\":9691:9698  _amount */\n      dup7\n        /* \"contracts/distribution/TombGenesisRewardPool.sol\":9658:9662  pool */\n      dup6\n        /* \"contracts/distribution/TombGenesisRewardPool.sol\":9658:9668  pool.token */\n      0x00\n      add\n      0x00\n      swap1\n      sload\n      swap1\n      0x0100\n      exp\n      swap1\n      div\n      0xffffffffffffffffffffffffffffffffffffffff\n      and\n        /* \"contracts/distribution/TombGenesisRewardPool.sol\":9658:9681  pool.token.safeTransfer */\n      0xffffffffffffffffffffffffffffffffffffffff\n      and\n      tag_169\n      swap1\n        /* \"contracts/distribution/TombGenesisRewardPool.sol\":9658:9699  pool.token.safeTransfer(_sender, _amount) */\n      swap3\n      swap2\n      swap1\n      0xffffffff\n      and\n      jump\t// in\n    tag_168:\n        /* \"contracts/distribution/TombGenesisRewardPool.sol\":9573:9711  if (_amount > 0) {\r... */\n    tag_166:\n        /* \"contracts/distribution/TombGenesisRewardPool.sol\":9739:9786  user.amount.mul(pool.accPolyPerShare).div(1e18) */\n      tag_170\n        /* \"contracts/distribution/TombGenesisRewardPool.sol\":9781:9785  1e18 */\n      0x0de0b6b3a7640000\n        /* \"contracts/distribution/TombGenesisRewardPool.sol\":9739:9776  user.amount.mul(pool.accPolyPerShare) */\n      tag_171\n        /* \"contracts/distribution/TombGenesisRewardPool.sol\":9755:9759  pool */\n      dup6\n        /* \"contracts/distribution/TombGenesisRewardPool.sol\":9755:9775  pool.accPolyPerShare */\n      0x03\n      add\n      sload\n        /* \"contracts/distribution/TombGenesisRewardPool.sol\":9739:9743  user */\n      dup6\n        /* \"contracts/distribution/TombGenesisRewardPool.sol\":9739:9750  user.amount */\n      0x00\n      add\n      sload\n        /* \"contracts/distribution/TombGenesisRewardPool.sol\":9739:9754  user.amount.mul */\n      tag_135\n      swap1\n        /* \"contracts/distribution/TombGenesisRewardPool.sol\":9739:9776  user.amount.mul(pool.accPolyPerShare) */\n      swap2\n      swap1\n      0xffffffff\n      and\n      jump\t// in\n    tag_171:\n        /* \"contracts/distribution/TombGenesisRewardPool.sol\":9739:9780  user.amount.mul(pool.accPolyPerShare).div */\n      tag_162\n      swap1\n        /* \"contracts/distribution/TombGenesisRewardPool.sol\":9739:9786  user.amount.mul(pool.accPolyPerShare).div(1e18) */\n      swap2\n      swap1\n      0xffffffff\n      and\n      jump\t// in\n    tag_170:\n        /* \"contracts/distribution/TombGenesisRewardPool.sol\":9721:9725  user */\n      dup3\n        /* \"contracts/distribution/TombGenesisRewardPool.sol\":9721:9736  user.rewardDebt */\n      0x01\n      add\n        /* \"contracts/distribution/TombGenesisRewardPool.sol\":9721:9786  user.rewardDebt = user.amount.mul(pool.accPolyPerShare).div(1e18) */\n      dup2\n      swap1\n      sstore\n      pop\n        /* \"contracts/distribution/TombGenesisRewardPool.sol\":9820:9824  _pid */\n      dup6\n        /* \"contracts/distribution/TombGenesisRewardPool.sol\":9811:9818  _sender */\n      dup5\n        /* \"contracts/distribution/TombGenesisRewardPool.sol\":9802:9834  Withdraw(_sender, _pid, _amount) */\n      0xffffffffffffffffffffffffffffffffffffffff\n      and\n      0xf279e6a1f5e320cca91135676d9cb6e44ca8a08c0b88342bcdb1144f6511b568\n        /* \"contracts/distribution/TombGenesisRewardPool.sol\":9826:9833  _amount */\n      dup8\n        /* \"contracts/distribution/TombGenesisRewardPool.sol\":9802:9834  Withdraw(_sender, _pid, _amount) */\n      mload(0x40)\n      dup1\n      dup3\n      dup2\n      mstore\n      0x20\n      add\n      swap2\n      pop\n      pop\n      mload(0x40)\n      dup1\n      swap2\n      sub\n      swap1\n      log3\n        /* \"contracts/distribution/TombGenesisRewardPool.sol\":9032:9842  function withdraw(uint256 _pid, uint256 _amount) public {\r... */\n      pop\n      pop\n      pop\n      pop\n      pop\n      pop\n      jump\t// out\n        /* \"contracts/owner/Operator.sol\":786:886  function isOperator() public view returns (bool) {\r... */\n    tag_66:\n        /* \"contracts/owner/Operator.sol\":829:833  bool */\n      0x00\n        /* \"contracts/owner/Operator.sol\":869:878  _operator */\n      0x01\n      0x00\n      swap1\n      sload\n      swap1\n      0x0100\n      exp\n      swap1\n      div\n      0xffffffffffffffffffffffffffffffffffffffff\n      and\n        /* \"contracts/owner/Operator.sol\":853:878  _msgSender() == _operator */\n      0xffffffffffffffffffffffffffffffffffffffff\n      and\n        /* \"contracts/owner/Operator.sol\":853:865  _msgSender() */\n      tag_173\n        /* \"contracts/owner/Operator.sol\":853:863  _msgSender */\n      tag_147\n        /* \"contracts/owner/Operator.sol\":853:865  _msgSender() */\n      jump\t// in\n    tag_173:\n        /* \"contracts/owner/Operator.sol\":853:878  _msgSender() == _operator */\n      0xffffffffffffffffffffffffffffffffffffffff\n      and\n      eq\n        /* \"contracts/owner/Operator.sol\":846:878  return _msgSender() == _operator */\n      swap1\n      pop\n        /* \"contracts/owner/Operator.sol\":786:886  function isOperator() public view returns (bool) {\r... */\n      swap1\n      jump\t// out\n        /* \"contracts/distribution/TombGenesisRewardPool.sol\":6984:7892  function updatePool(uint256 _pid) public {\r... */\n    tag_69:\n        /* \"contracts/distribution/TombGenesisRewardPool.sol\":7036:7057  PoolInfo storage pool */\n      0x00\n        /* \"contracts/distribution/TombGenesisRewardPool.sol\":7060:7068  poolInfo */\n      0x04\n        /* \"contracts/distribution/TombGenesisRewardPool.sol\":7069:7073  _pid */\n      dup3\n        /* \"contracts/distribution/TombGenesisRewardPool.sol\":7060:7074  poolInfo[_pid] */\n      dup2\n      sload\n      dup2\n      lt\n      tag_175\n      jumpi\n      invalid\n    tag_175:\n      swap1\n      0x00\n      mstore\n      keccak256(0x00, 0x20)\n      swap1\n      0x05\n      mul\n      add\n        /* \"contracts/distribution/TombGenesisRewardPool.sol\":7036:7074  PoolInfo storage pool = poolInfo[_pid] */\n      swap1\n      pop\n        /* \"contracts/distribution/TombGenesisRewardPool.sol\":7108:7112  pool */\n      dup1\n        /* \"contracts/distribution/TombGenesisRewardPool.sol\":7108:7127  pool.lastRewardTime */\n      0x02\n      add\n      sload\n        /* \"contracts/distribution/TombGenesisRewardPool.sol\":7089:7104  block.timestamp */\n      timestamp\n        /* \"contracts/distribution/TombGenesisRewardPool.sol\":7089:7127  block.timestamp <= pool.lastRewardTime */\n      gt\n        /* \"contracts/distribution/TombGenesisRewardPool.sol\":7085:7162  if (block.timestamp <= pool.lastRewardTime) {\r... */\n      tag_177\n      jumpi\n        /* \"contracts/distribution/TombGenesisRewardPool.sol\":7144:7151  return; */\n      pop\n      jump(tag_174)\n        /* \"contracts/distribution/TombGenesisRewardPool.sol\":7085:7162  if (block.timestamp <= pool.lastRewardTime) {\r... */\n    tag_177:\n        /* \"contracts/distribution/TombGenesisRewardPool.sol\":7172:7191  uint256 tokenSupply */\n      0x00\n        /* \"contracts/distribution/TombGenesisRewardPool.sol\":7194:7198  pool */\n      dup2\n        /* \"contracts/distribution/TombGenesisRewardPool.sol\":7194:7204  pool.token */\n      0x00\n      add\n      0x00\n      swap1\n      sload\n      swap1\n      0x0100\n      exp\n      swap1\n      div\n      0xffffffffffffffffffffffffffffffffffffffff\n      and\n        /* \"contracts/distribution/TombGenesisRewardPool.sol\":7194:7214  pool.token.balanceOf */\n      0xffffffffffffffffffffffffffffffffffffffff\n      and\n      0x70a08231\n        /* \"contracts/distribution/TombGenesisRewardPool.sol\":7223:7227  this */\n      address\n        /* \"contracts/distribution/TombGenesisRewardPool.sol\":7194:7229  pool.token.balanceOf(address(this)) */\n      mload(0x40)\n      dup3\n      0xffffffff\n      and\n      0xe0\n      shl\n      dup2\n      mstore\n      0x04\n      add\n      dup1\n      dup3\n      0xffffffffffffffffffffffffffffffffffffffff\n      and\n      dup2\n      mstore\n      0x20\n      add\n      swap2\n      pop\n      pop\n      0x20\n      mload(0x40)\n      dup1\n      dup4\n      sub\n      dup2\n      dup7\n      dup1\n      extcodesize\n      iszero\n      dup1\n      iszero\n      tag_178\n      jumpi\n      0x00\n      dup1\n      revert\n    tag_178:\n      pop\n      gas\n      staticcall\n      iszero\n      dup1\n      iszero\n      tag_180\n      jumpi\n      returndatasize\n      0x00\n      dup1\n      returndatacopy\n      revert(0x00, returndatasize)\n    tag_180:\n      pop\n      pop\n      pop\n      pop\n      mload(0x40)\n      returndatasize\n      0x20\n      dup2\n      lt\n      iszero\n      tag_181\n      jumpi\n      0x00\n      dup1\n      revert\n    tag_181:\n      dup2\n      add\n      swap1\n      dup1\n      dup1\n      mload\n      swap1\n      0x20\n      add\n      swap1\n      swap3\n      swap2\n      swap1\n      pop\n      pop\n      pop\n        /* \"contracts/distribution/TombGenesisRewardPool.sol\":7172:7229  uint256 tokenSupply = pool.token.balanceOf(address(this)) */\n      swap1\n      pop\n        /* \"contracts/distribution/TombGenesisRewardPool.sol\":7259:7260  0 */\n      0x00\n        /* \"contracts/distribution/TombGenesisRewardPool.sol\":7244:7255  tokenSupply */\n      dup2\n        /* \"contracts/distribution/TombGenesisRewardPool.sol\":7244:7260  tokenSupply == 0 */\n      eq\n        /* \"contracts/distribution/TombGenesisRewardPool.sol\":7240:7347  if (tokenSupply == 0) {\r... */\n      iszero\n      tag_182\n      jumpi\n        /* \"contracts/distribution/TombGenesisRewardPool.sol\":7299:7314  block.timestamp */\n      timestamp\n        /* \"contracts/distribution/TombGenesisRewardPool.sol\":7277:7281  pool */\n      dup3\n        /* \"contracts/distribution/TombGenesisRewardPool.sol\":7277:7296  pool.lastRewardTime */\n      0x02\n      add\n        /* \"contracts/distribution/TombGenesisRewardPool.sol\":7277:7314  pool.lastRewardTime = block.timestamp */\n      dup2\n      swap1\n      sstore\n      pop\n        /* \"contracts/distribution/TombGenesisRewardPool.sol\":7329:7336  return; */\n      pop\n      pop\n      jump(tag_174)\n        /* \"contracts/distribution/TombGenesisRewardPool.sol\":7240:7347  if (tokenSupply == 0) {\r... */\n    tag_182:\n        /* \"contracts/distribution/TombGenesisRewardPool.sol\":7362:7366  pool */\n      dup2\n        /* \"contracts/distribution/TombGenesisRewardPool.sol\":7362:7376  pool.isStarted */\n      0x04\n      add\n      0x00\n      swap1\n      sload\n      swap1\n      0x0100\n      exp\n      swap1\n      div\n      0xff\n      and\n        /* \"contracts/distribution/TombGenesisRewardPool.sol\":7357:7495  if (!pool.isStarted) {\r... */\n      tag_183\n      jumpi\n        /* \"contracts/distribution/TombGenesisRewardPool.sol\":7410:7414  true */\n      0x01\n        /* \"contracts/distribution/TombGenesisRewardPool.sol\":7393:7397  pool */\n      dup3\n        /* \"contracts/distribution/TombGenesisRewardPool.sol\":7393:7407  pool.isStarted */\n      0x04\n      add\n      0x00\n        /* \"contracts/distribution/TombGenesisRewardPool.sol\":7393:7414  pool.isStarted = true */\n      0x0100\n      exp\n      dup2\n      sload\n      dup2\n      0xff\n      mul\n      not\n      and\n      swap1\n      dup4\n      iszero\n      iszero\n      mul\n      or\n      swap1\n      sstore\n      pop\n        /* \"contracts/distribution/TombGenesisRewardPool.sol\":7447:7483  totalAllocPoint.add(pool.allocPoint) */\n      tag_184\n        /* \"contracts/distribution/TombGenesisRewardPool.sol\":7467:7471  pool */\n      dup3\n        /* \"contracts/distribution/TombGenesisRewardPool.sol\":7467:7482  pool.allocPoint */\n      0x01\n      add\n      sload\n        /* \"contracts/distribution/TombGenesisRewardPool.sol\":7447:7462  totalAllocPoint */\n      sload(0x07)\n        /* \"contracts/distribution/TombGenesisRewardPool.sol\":7447:7466  totalAllocPoint.add */\n      tag_127\n      swap1\n        /* \"contracts/distribution/TombGenesisRewardPool.sol\":7447:7483  totalAllocPoint.add(pool.allocPoint) */\n      swap2\n      swap1\n      0xffffffff\n      and\n      jump\t// in\n    tag_184:\n        /* \"contracts/distribution/TombGenesisRewardPool.sol\":7429:7444  totalAllocPoint */\n      0x07\n        /* \"contracts/distribution/TombGenesisRewardPool.sol\":7429:7483  totalAllocPoint = totalAllocPoint.add(pool.allocPoint) */\n      dup2\n      swap1\n      sstore\n      pop\n        /* \"contracts/distribution/TombGenesisRewardPool.sol\":7357:7495  if (!pool.isStarted) {\r... */\n    tag_183:\n        /* \"contracts/distribution/TombGenesisRewardPool.sol\":7527:7528  0 */\n      0x00\n        /* \"contracts/distribution/TombGenesisRewardPool.sol\":7509:7524  totalAllocPoint */\n      sload(0x07)\n        /* \"contracts/distribution/TombGenesisRewardPool.sol\":7509:7528  totalAllocPoint > 0 */\n      gt\n        /* \"contracts/distribution/TombGenesisRewardPool.sol\":7505:7837  if (totalAllocPoint > 0) {\r... */\n      iszero\n      tag_185\n      jumpi\n        /* \"contracts/distribution/TombGenesisRewardPool.sol\":7545:7569  uint256 _generatedReward */\n      0x00\n        /* \"contracts/distribution/TombGenesisRewardPool.sol\":7572:7628  getGeneratedReward(pool.lastRewardTime, block.timestamp) */\n      tag_186\n        /* \"contracts/distribution/TombGenesisRewardPool.sol\":7591:7595  pool */\n      dup4\n        /* \"contracts/distribution/TombGenesisRewardPool.sol\":7591:7610  pool.lastRewardTime */\n      0x02\n      add\n      sload\n        /* \"contracts/distribution/TombGenesisRewardPool.sol\":7612:7627  block.timestamp */\n      timestamp\n        /* \"contracts/distribution/TombGenesisRewardPool.sol\":7572:7590  getGeneratedReward */\n      tag_54\n        /* \"contracts/distribution/TombGenesisRewardPool.sol\":7572:7628  getGeneratedReward(pool.lastRewardTime, block.timestamp) */\n      jump\t// in\n    tag_186:\n        /* \"contracts/distribution/TombGenesisRewardPool.sol\":7545:7628  uint256 _generatedReward = getGeneratedReward(pool.lastRewardTime, block.timestamp) */\n      swap1\n      pop\n        /* \"contracts/distribution/TombGenesisRewardPool.sol\":7643:7662  uint256 _PolyReward */\n      0x00\n        /* \"contracts/distribution/TombGenesisRewardPool.sol\":7665:7723  _generatedReward.mul(pool.allocPoint).div(totalAllocPoint) */\n      tag_187\n        /* \"contracts/distribution/TombGenesisRewardPool.sol\":7707:7722  totalAllocPoint */\n      sload(0x07)\n        /* \"contracts/distribution/TombGenesisRewardPool.sol\":7665:7702  _generatedReward.mul(pool.allocPoint) */\n      tag_188\n        /* \"contracts/distribution/TombGenesisRewardPool.sol\":7686:7690  pool */\n      dup7\n        /* \"contracts/distribution/TombGenesisRewardPool.sol\":7686:7701  pool.allocPoint */\n      0x01\n      add\n      sload\n        /* \"contracts/distribution/TombGenesisRewardPool.sol\":7665:7681  _generatedReward */\n      dup6\n        /* \"contracts/distribution/TombGenesisRewardPool.sol\":7665:7685  _generatedReward.mul */\n      tag_135\n      swap1\n        /* \"contracts/distribution/TombGenesisRewardPool.sol\":7665:7702  _generatedReward.mul(pool.allocPoint) */\n      swap2\n      swap1\n      0xffffffff\n      and\n      jump\t// in\n    tag_188:\n        /* \"contracts/distribution/TombGenesisRewardPool.sol\":7665:7706  _generatedReward.mul(pool.allocPoint).div */\n      tag_162\n      swap1\n        /* \"contracts/distribution/TombGenesisRewardPool.sol\":7665:7723  _generatedReward.mul(pool.allocPoint).div(totalAllocPoint) */\n      swap2\n      swap1\n      0xffffffff\n      and\n      jump\t// in\n    tag_187:\n        /* \"contracts/distribution/TombGenesisRewardPool.sol\":7643:7723  uint256 _PolyReward = _generatedReward.mul(pool.allocPoint).div(totalAllocPoint) */\n      swap1\n      pop\n        /* \"contracts/distribution/TombGenesisRewardPool.sol\":7761:7825  pool.accPolyPerShare.add(_PolyReward.mul(1e18).div(tokenSupply)) */\n      tag_189\n        /* \"contracts/distribution/TombGenesisRewardPool.sol\":7786:7824  _PolyReward.mul(1e18).div(tokenSupply) */\n      tag_190\n        /* \"contracts/distribution/TombGenesisRewardPool.sol\":7812:7823  tokenSupply */\n      dup5\n        /* \"contracts/distribution/TombGenesisRewardPool.sol\":7786:7807  _PolyReward.mul(1e18) */\n      tag_191\n        /* \"contracts/distribution/TombGenesisRewardPool.sol\":7802:7806  1e18 */\n      0x0de0b6b3a7640000\n        /* \"contracts/distribution/TombGenesisRewardPool.sol\":7786:7797  _PolyReward */\n      dup6\n        /* \"contracts/distribution/TombGenesisRewardPool.sol\":7786:7801  _PolyReward.mul */\n      tag_135\n      swap1\n        /* \"contracts/distribution/TombGenesisRewardPool.sol\":7786:7807  _PolyReward.mul(1e18) */\n      swap2\n      swap1\n      0xffffffff\n      and\n      jump\t// in\n    tag_191:\n        /* \"contracts/distribution/TombGenesisRewardPool.sol\":7786:7811  _PolyReward.mul(1e18).div */\n      tag_162\n      swap1\n        /* \"contracts/distribution/TombGenesisRewardPool.sol\":7786:7824  _PolyReward.mul(1e18).div(tokenSupply) */\n      swap2\n      swap1\n      0xffffffff\n      and\n      jump\t// in\n    tag_190:\n        /* \"contracts/distribution/TombGenesisRewardPool.sol\":7761:7765  pool */\n      dup6\n        /* \"contracts/distribution/TombGenesisRewardPool.sol\":7761:7781  pool.accPolyPerShare */\n      0x03\n      add\n      sload\n        /* \"contracts/distribution/TombGenesisRewardPool.sol\":7761:7785  pool.accPolyPerShare.add */\n      tag_127\n      swap1\n        /* \"contracts/distribution/TombGenesisRewardPool.sol\":7761:7825  pool.accPolyPerShare.add(_PolyReward.mul(1e18).div(tokenSupply)) */\n      swap2\n      swap1\n      0xffffffff\n      and\n      jump\t// in\n    tag_189:\n        /* \"contracts/distribution/TombGenesisRewardPool.sol\":7738:7742  pool */\n      dup5\n        /* \"contracts/distribution/TombGenesisRewardPool.sol\":7738:7758  pool.accPolyPerShare */\n      0x03\n      add\n        /* \"contracts/distribution/TombGenesisRewardPool.sol\":7738:7825  pool.accPolyPerShare = pool.accPolyPerShare.add(_PolyReward.mul(1e18).div(tokenSupply)) */\n      dup2\n      swap1\n      sstore\n      pop\n        /* \"contracts/distribution/TombGenesisRewardPool.sol\":7505:7837  if (totalAllocPoint > 0) {\r... */\n      pop\n      pop\n    tag_185:\n        /* \"contracts/distribution/TombGenesisRewardPool.sol\":7869:7884  block.timestamp */\n      timestamp\n        /* \"contracts/distribution/TombGenesisRewardPool.sol\":7847:7851  pool */\n      dup3\n        /* \"contracts/distribution/TombGenesisRewardPool.sol\":7847:7866  pool.lastRewardTime */\n      0x02\n      add\n        /* \"contracts/distribution/TombGenesisRewardPool.sol\":7847:7884  pool.lastRewardTime = block.timestamp */\n      dup2\n      swap1\n      sstore\n      pop\n        /* \"contracts/distribution/TombGenesisRewardPool.sol\":6984:7892  function updatePool(uint256 _pid) public {\r... */\n      pop\n      pop\n    tag_174:\n      pop\n      jump\t// out\n        /* \"contracts/distribution/TombGenesisRewardPool.sol\":9913:10290  function emergencyWithdraw(uint256 _pid) public {\r... */\n    tag_72:\n        /* \"contracts/distribution/TombGenesisRewardPool.sol\":9972:9993  PoolInfo storage pool */\n      0x00\n        /* \"contracts/distribution/TombGenesisRewardPool.sol\":9996:10004  poolInfo */\n      0x04\n        /* \"contracts/distribution/TombGenesisRewardPool.sol\":10005:10009  _pid */\n      dup3\n        /* \"contracts/distribution/TombGenesisRewardPool.sol\":9996:10010  poolInfo[_pid] */\n      dup2\n      sload\n      dup2\n      lt\n      tag_193\n      jumpi\n      invalid\n    tag_193:\n      swap1\n      0x00\n      mstore\n      keccak256(0x00, 0x20)\n      swap1\n      0x05\n      mul\n      add\n        /* \"contracts/distribution/TombGenesisRewardPool.sol\":9972:10010  PoolInfo storage pool = poolInfo[_pid] */\n      swap1\n      pop\n        /* \"contracts/distribution/TombGenesisRewardPool.sol\":10021:10042  UserInfo storage user */\n      0x00\n        /* \"contracts/distribution/TombGenesisRewardPool.sol\":10045:10053  userInfo */\n      0x06\n        /* \"contracts/distribution/TombGenesisRewardPool.sol\":10045:10059  userInfo[_pid] */\n      0x00\n        /* \"contracts/distribution/TombGenesisRewardPool.sol\":10054:10058  _pid */\n      dup5\n        /* \"contracts/distribution/TombGenesisRewardPool.sol\":10045:10059  userInfo[_pid] */\n      dup2\n      mstore\n      0x20\n      add\n      swap1\n      dup2\n      mstore\n      0x20\n      add\n      0x00\n      keccak256\n        /* \"contracts/distribution/TombGenesisRewardPool.sol\":10045:10071  userInfo[_pid][msg.sender] */\n      0x00\n        /* \"contracts/distribution/TombGenesisRewardPool.sol\":10060:10070  msg.sender */\n      caller\n        /* \"contracts/distribution/TombGenesisRewardPool.sol\":10045:10071  userInfo[_pid][msg.sender] */\n      0xffffffffffffffffffffffffffffffffffffffff\n      and\n      0xffffffffffffffffffffffffffffffffffffffff\n      and\n      dup2\n      mstore\n      0x20\n      add\n      swap1\n      dup2\n      mstore\n      0x20\n      add\n      0x00\n      keccak256\n        /* \"contracts/distribution/TombGenesisRewardPool.sol\":10021:10071  UserInfo storage user = userInfo[_pid][msg.sender] */\n      swap1\n      pop\n        /* \"contracts/distribution/TombGenesisRewardPool.sol\":10082:10097  uint256 _amount */\n      0x00\n        /* \"contracts/distribution/TombGenesisRewardPool.sol\":10100:10104  user */\n      dup2\n        /* \"contracts/distribution/TombGenesisRewardPool.sol\":10100:10111  user.amount */\n      0x00\n      add\n      sload\n        /* \"contracts/distribution/TombGenesisRewardPool.sol\":10082:10111  uint256 _amount = user.amount */\n      swap1\n      pop\n        /* \"contracts/distribution/TombGenesisRewardPool.sol\":10136:10137  0 */\n      0x00\n        /* \"contracts/distribution/TombGenesisRewardPool.sol\":10122:10126  user */\n      dup3\n        /* \"contracts/distribution/TombGenesisRewardPool.sol\":10122:10133  user.amount */\n      0x00\n      add\n        /* \"contracts/distribution/TombGenesisRewardPool.sol\":10122:10137  user.amount = 0 */\n      dup2\n      swap1\n      sstore\n      pop\n        /* \"contracts/distribution/TombGenesisRewardPool.sol\":10166:10167  0 */\n      0x00\n        /* \"contracts/distribution/TombGenesisRewardPool.sol\":10148:10152  user */\n      dup3\n        /* \"contracts/distribution/TombGenesisRewardPool.sol\":10148:10163  user.rewardDebt */\n      0x01\n      add\n        /* \"contracts/distribution/TombGenesisRewardPool.sol\":10148:10167  user.rewardDebt = 0 */\n      dup2\n      swap1\n      sstore\n      pop\n        /* \"contracts/distribution/TombGenesisRewardPool.sol\":10178:10222  pool.token.safeTransfer(msg.sender, _amount) */\n      tag_195\n        /* \"contracts/distribution/TombGenesisRewardPool.sol\":10202:10212  msg.sender */\n      caller\n        /* \"contracts/distribution/TombGenesisRewardPool.sol\":10214:10221  _amount */\n      dup3\n        /* \"contracts/distribution/TombGenesisRewardPool.sol\":10178:10182  pool */\n      dup6\n        /* \"contracts/distribution/TombGenesisRewardPool.sol\":10178:10188  pool.token */\n      0x00\n      add\n      0x00\n      swap1\n      sload\n      swap1\n      0x0100\n      exp\n      swap1\n      div\n      0xffffffffffffffffffffffffffffffffffffffff\n      and\n        /* \"contracts/distribution/TombGenesisRewardPool.sol\":10178:10201  pool.token.safeTransfer */\n      0xffffffffffffffffffffffffffffffffffffffff\n      and\n      tag_169\n      swap1\n        /* \"contracts/distribution/TombGenesisRewardPool.sol\":10178:10222  pool.token.safeTransfer(msg.sender, _amount) */\n      swap3\n      swap2\n      swap1\n      0xffffffff\n      and\n      jump\t// in\n    tag_195:\n        /* \"contracts/distribution/TombGenesisRewardPool.sol\":10268:10272  _pid */\n      dup4\n        /* \"contracts/distribution/TombGenesisRewardPool.sol\":10256:10266  msg.sender */\n      caller\n        /* \"contracts/distribution/TombGenesisRewardPool.sol\":10238:10282  EmergencyWithdraw(msg.sender, _pid, _amount) */\n      0xffffffffffffffffffffffffffffffffffffffff\n      and\n      0xbb757047c2b5f3974fe26b7c10f732e7bce710b0952a71082702781e62ae0595\n        /* \"contracts/distribution/TombGenesisRewardPool.sol\":10274:10281  _amount */\n      dup4\n        /* \"contracts/distribution/TombGenesisRewardPool.sol\":10238:10282  EmergencyWithdraw(msg.sender, _pid, _amount) */\n      mload(0x40)\n      dup1\n      dup3\n      dup2\n      mstore\n      0x20\n      add\n      swap2\n      pop\n      pop\n      mload(0x40)\n      dup1\n      swap2\n      sub\n      swap1\n      log3\n        /* \"contracts/distribution/TombGenesisRewardPool.sol\":9913:10290  function emergencyWithdraw(uint256 _pid) public {\r... */\n      pop\n      pop\n      pop\n      pop\n      jump\t// out\n        /* \"contracts/distribution/TombGenesisRewardPool.sol\":10899:11503  function governanceRecoverUnsupported(IERC20 _token, uint256 amount, address to) external onlyOperator {\r... */\n    tag_75:\n        /* \"contracts/owner/Operator.sol\":684:694  msg.sender */\n      caller\n        /* \"contracts/owner/Operator.sol\":671:694  _operator == msg.sender */\n      0xffffffffffffffffffffffffffffffffffffffff\n      and\n        /* \"contracts/owner/Operator.sol\":671:680  _operator */\n      0x01\n      0x00\n      swap1\n      sload\n      swap1\n      0x0100\n      exp\n      swap1\n      div\n      0xffffffffffffffffffffffffffffffffffffffff\n      and\n        /* \"contracts/owner/Operator.sol\":671:694  _operator == msg.sender */\n      0xffffffffffffffffffffffffffffffffffffffff\n      and\n      eq\n        /* \"contracts/owner/Operator.sol\":649:758  require(\r... */\n      tag_197\n      jumpi\n      mload(0x40)\n      0x08c379a000000000000000000000000000000000000000000000000000000000\n      dup2\n      mstore\n      0x04\n      add\n      dup1\n      dup1\n      0x20\n      add\n      dup3\n      dup2\n      sub\n      dup3\n      mstore\n      0x24\n      dup2\n      mstore\n      0x20\n      add\n      dup1\n      data_a62bfdba5053072911b63b0f6325b0e83fcd28b5a847d97efdd966feb4daaafb\n      0x24\n      swap2\n      codecopy\n      0x40\n      add\n      swap2\n      pop\n      pop\n      mload(0x40)\n      dup1\n      swap2\n      sub\n      swap1\n      revert\n    tag_197:\n        /* \"contracts/distribution/TombGenesisRewardPool.sol\":11049:11056  90 days */\n      0x76a700\n        /* \"contracts/distribution/TombGenesisRewardPool.sol\":11035:11046  poolEndTime */\n      sload(0x09)\n        /* \"contracts/distribution/TombGenesisRewardPool.sol\":11035:11056  poolEndTime + 90 days */\n      add\n        /* \"contracts/distribution/TombGenesisRewardPool.sol\":11017:11032  block.timestamp */\n      timestamp\n        /* \"contracts/distribution/TombGenesisRewardPool.sol\":11017:11056  block.timestamp < poolEndTime + 90 days */\n      lt\n        /* \"contracts/distribution/TombGenesisRewardPool.sol\":11013:11454  if (block.timestamp < poolEndTime + 90 days) {\r... */\n      iszero\n      tag_199\n      jumpi\n        /* \"contracts/distribution/TombGenesisRewardPool.sol\":11191:11195  Poly */\n      0x02\n      0x00\n      swap1\n      sload\n      swap1\n      0x0100\n      exp\n      swap1\n      div\n      0xffffffffffffffffffffffffffffffffffffffff\n      and\n        /* \"contracts/distribution/TombGenesisRewardPool.sol\":11181:11195  _token != Poly */\n      0xffffffffffffffffffffffffffffffffffffffff\n      and\n        /* \"contracts/distribution/TombGenesisRewardPool.sol\":11181:11187  _token */\n      dup4\n        /* \"contracts/distribution/TombGenesisRewardPool.sol\":11181:11195  _token != Poly */\n      0xffffffffffffffffffffffffffffffffffffffff\n      and\n      eq\n      iszero\n        /* \"contracts/distribution/TombGenesisRewardPool.sol\":11173:11204  require(_token != Poly, \"Poly\") */\n      tag_200\n      jumpi\n      mload(0x40)\n      0x08c379a000000000000000000000000000000000000000000000000000000000\n      dup2\n      mstore\n      0x04\n      add\n      dup1\n      dup1\n      0x20\n      add\n      dup3\n      dup2\n      sub\n      dup3\n      mstore\n      0x04\n      dup2\n      mstore\n      0x20\n      add\n      dup1\n      0x506f6c7900000000000000000000000000000000000000000000000000000000\n      dup2\n      mstore\n      pop\n      0x20\n      add\n      swap2\n      pop\n      pop\n      mload(0x40)\n      dup1\n      swap2\n      sub\n      swap1\n      revert\n    tag_200:\n        /* \"contracts/distribution/TombGenesisRewardPool.sol\":11219:11233  uint256 length */\n      0x00\n        /* \"contracts/distribution/TombGenesisRewardPool.sol\":11236:11244  poolInfo */\n      0x04\n        /* \"contracts/distribution/TombGenesisRewardPool.sol\":11236:11251  poolInfo.length */\n      dup1\n      sload\n      swap1\n      pop\n        /* \"contracts/distribution/TombGenesisRewardPool.sol\":11219:11251  uint256 length = poolInfo.length */\n      swap1\n      pop\n        /* \"contracts/distribution/TombGenesisRewardPool.sol\":11271:11282  uint256 pid */\n      0x00\n        /* \"contracts/distribution/TombGenesisRewardPool.sol\":11266:11443  for (uint256 pid = 0; pid < length; ++pid) {\r... */\n    tag_201:\n        /* \"contracts/distribution/TombGenesisRewardPool.sol\":11294:11300  length */\n      dup2\n        /* \"contracts/distribution/TombGenesisRewardPool.sol\":11288:11291  pid */\n      dup2\n        /* \"contracts/distribution/TombGenesisRewardPool.sol\":11288:11300  pid < length */\n      lt\n        /* \"contracts/distribution/TombGenesisRewardPool.sol\":11266:11443  for (uint256 pid = 0; pid < length; ++pid) {\r... */\n      iszero\n      tag_202\n      jumpi\n        /* \"contracts/distribution/TombGenesisRewardPool.sol\":11328:11349  PoolInfo storage pool */\n      0x00\n        /* \"contracts/distribution/TombGenesisRewardPool.sol\":11352:11360  poolInfo */\n      0x04\n        /* \"contracts/distribution/TombGenesisRewardPool.sol\":11361:11364  pid */\n      dup3\n        /* \"contracts/distribution/TombGenesisRewardPool.sol\":11352:11365  poolInfo[pid] */\n      dup2\n      sload\n      dup2\n      lt\n      tag_204\n      jumpi\n      invalid\n    tag_204:\n      swap1\n      0x00\n      mstore\n      keccak256(0x00, 0x20)\n      swap1\n      0x05\n      mul\n      add\n        /* \"contracts/distribution/TombGenesisRewardPool.sol\":11328:11365  PoolInfo storage pool = poolInfo[pid] */\n      swap1\n      pop\n        /* \"contracts/distribution/TombGenesisRewardPool.sol\":11402:11406  pool */\n      dup1\n        /* \"contracts/distribution/TombGenesisRewardPool.sol\":11402:11412  pool.token */\n      0x00\n      add\n      0x00\n      swap1\n      sload\n      swap1\n      0x0100\n      exp\n      swap1\n      div\n      0xffffffffffffffffffffffffffffffffffffffff\n      and\n        /* \"contracts/distribution/TombGenesisRewardPool.sol\":11392:11412  _token != pool.token */\n      0xffffffffffffffffffffffffffffffffffffffff\n      and\n        /* \"contracts/distribution/TombGenesisRewardPool.sol\":11392:11398  _token */\n      dup7\n        /* \"contracts/distribution/TombGenesisRewardPool.sol\":11392:11412  _token != pool.token */\n      0xffffffffffffffffffffffffffffffffffffffff\n      and\n      eq\n      iszero\n        /* \"contracts/distribution/TombGenesisRewardPool.sol\":11384:11427  require(_token != pool.token, \"pool.token\") */\n      tag_206\n      jumpi\n      mload(0x40)\n      0x08c379a000000000000000000000000000000000000000000000000000000000\n      dup2\n      mstore\n      0x04\n      add\n      dup1\n      dup1\n      0x20\n      add\n      dup3\n      dup2\n      sub\n      dup3\n      mstore\n      0x0a\n      dup2\n      mstore\n      0x20\n      add\n      dup1\n      0x706f6f6c2e746f6b656e00000000000000000000000000000000000000000000\n      dup2\n      mstore\n      pop\n      0x20\n      add\n      swap2\n      pop\n      pop\n      mload(0x40)\n      dup1\n      swap2\n      sub\n      swap1\n      revert\n    tag_206:\n        /* \"contracts/distribution/TombGenesisRewardPool.sol\":11266:11443  for (uint256 pid = 0; pid < length; ++pid) {\r... */\n      pop\n        /* \"contracts/distribution/TombGenesisRewardPool.sol\":11302:11307  ++pid */\n      dup1\n      0x01\n      add\n      swap1\n      pop\n        /* \"contracts/distribution/TombGenesisRewardPool.sol\":11266:11443  for (uint256 pid = 0; pid < length; ++pid) {\r... */\n      jump(tag_201)\n    tag_202:\n      pop\n        /* \"contracts/distribution/TombGenesisRewardPool.sol\":11013:11454  if (block.timestamp < poolEndTime + 90 days) {\r... */\n      pop\n    tag_199:\n        /* \"contracts/distribution/TombGenesisRewardPool.sol\":11464:11495  _token.safeTransfer(to, amount) */\n      tag_207\n        /* \"contracts/distribution/TombGenesisRewardPool.sol\":11484:11486  to */\n      dup2\n        /* \"contracts/distribution/TombGenesisRewardPool.sol\":11488:11494  amount */\n      dup4\n        /* \"contracts/distribution/TombGenesisRewardPool.sol\":11464:11470  _token */\n      dup6\n        /* \"contracts/distribution/TombGenesisRewardPool.sol\":11464:11483  _token.safeTransfer */\n      0xffffffffffffffffffffffffffffffffffffffff\n      and\n      tag_169\n      swap1\n        /* \"contracts/distribution/TombGenesisRewardPool.sol\":11464:11495  _token.safeTransfer(to, amount) */\n      swap3\n      swap2\n      swap1\n      0xffffffff\n      and\n      jump\t// in\n    tag_207:\n        /* \"contracts/distribution/TombGenesisRewardPool.sol\":10899:11503  function governanceRecoverUnsupported(IERC20 _token, uint256 amount, address to) external onlyOperator {\r... */\n      pop\n      pop\n      pop\n      jump\t// out\n        /* \"contracts/owner/Operator.sol\":521:606  function operator() public view returns (address) {\r... */\n    tag_77:\n        /* \"contracts/owner/Operator.sol\":562:569  address */\n      0x00\n        /* \"contracts/owner/Operator.sol\":589:598  _operator */\n      0x01\n      0x00\n      swap1\n      sload\n      swap1\n      0x0100\n      exp\n      swap1\n      div\n      0xffffffffffffffffffffffffffffffffffffffff\n      and\n        /* \"contracts/owner/Operator.sol\":582:598  return _operator */\n      swap1\n      pop\n        /* \"contracts/owner/Operator.sol\":521:606  function operator() public view returns (address) {\r... */\n      swap1\n      jump\t// out\n        /* \"contracts/distribution/TombGenesisRewardPool.sol\":1695:1723  uint256 public poolStartTime */\n    tag_79:\n      sload(0x08)\n      dup2\n      jump\t// out\n        /* \"contracts/distribution/TombGenesisRewardPool.sol\":6728:6908  function massUpdatePools() public {\r... */\n    tag_81:\n        /* \"contracts/distribution/TombGenesisRewardPool.sol\":6773:6787  uint256 length */\n      0x00\n        /* \"contracts/distribution/TombGenesisRewardPool.sol\":6790:6798  poolInfo */\n      0x04\n        /* \"contracts/distribution/TombGenesisRewardPool.sol\":6790:6805  poolInfo.length */\n      dup1\n      sload\n      swap1\n      pop\n        /* \"contracts/distribution/TombGenesisRewardPool.sol\":6773:6805  uint256 length = poolInfo.length */\n      swap1\n      pop\n        /* \"contracts/distribution/TombGenesisRewardPool.sol\":6821:6832  uint256 pid */\n      0x00\n        /* \"contracts/distribution/TombGenesisRewardPool.sol\":6816:6901  for (uint256 pid = 0; pid < length; ++pid) {\r... */\n    tag_210:\n        /* \"contracts/distribution/TombGenesisRewardPool.sol\":6844:6850  length */\n      dup2\n        /* \"contracts/distribution/TombGenesisRewardPool.sol\":6838:6841  pid */\n      dup2\n        /* \"contracts/distribution/TombGenesisRewardPool.sol\":6838:6850  pid < length */\n      lt\n        /* \"contracts/distribution/TombGenesisRewardPool.sol\":6816:6901  for (uint256 pid = 0; pid < length; ++pid) {\r... */\n      iszero\n      tag_211\n      jumpi\n        /* \"contracts/distribution/TombGenesisRewardPool.sol\":6874:6889  updatePool(pid) */\n      tag_213\n        /* \"contracts/distribution/TombGenesisRewardPool.sol\":6885:6888  pid */\n      dup2\n        /* \"contracts/distribution/TombGenesisRewardPool.sol\":6874:6884  updatePool */\n      tag_69\n        /* \"contracts/distribution/TombGenesisRewardPool.sol\":6874:6889  updatePool(pid) */\n      jump\t// in\n    tag_213:\n        /* \"contracts/distribution/TombGenesisRewardPool.sol\":6852:6857  ++pid */\n      dup1\n      0x01\n      add\n      swap1\n      pop\n        /* \"contracts/distribution/TombGenesisRewardPool.sol\":6816:6901  for (uint256 pid = 0; pid < length; ++pid) {\r... */\n      jump(tag_210)\n    tag_211:\n      pop\n        /* \"contracts/distribution/TombGenesisRewardPool.sol\":6728:6908  function massUpdatePools() public {\r... */\n      pop\n      jump\t// out\n        /* \"contracts/distribution/TombGenesisRewardPool.sol\":1772:1798  uint256 public poolEndTime */\n    tag_83:\n      sload(0x09)\n      dup2\n      jump\t// out\n        /* \"@openzeppelin/contracts/access/Ownable.sol\":1771:1916  function renounceOwnership() public virtual onlyOwner {... */\n    tag_85:\n        /* \"@openzeppelin/contracts/access/Ownable.sol\":1362:1374  _msgSender() */\n      tag_215\n        /* \"@openzeppelin/contracts/access/Ownable.sol\":1362:1372  _msgSender */\n      tag_147\n        /* \"@openzeppelin/contracts/access/Ownable.sol\":1362:1374  _msgSender() */\n      jump\t// in\n    tag_215:\n        /* \"@openzeppelin/contracts/access/Ownable.sol\":1351:1374  owner() == _msgSender() */\n      0xffffffffffffffffffffffffffffffffffffffff\n      and\n        /* \"@openzeppelin/contracts/access/Ownable.sol\":1351:1358  owner() */\n      tag_216\n        /* \"@openzeppelin/contracts/access/Ownable.sol\":1351:1356  owner */\n      tag_87\n        /* \"@openzeppelin/contracts/access/Ownable.sol\":1351:1358  owner() */\n      jump\t// in\n    tag_216:\n        /* \"@openzeppelin/contracts/access/Ownable.sol\":1351:1374  owner() == _msgSender() */\n      0xffffffffffffffffffffffffffffffffffffffff\n      and\n      eq\n        /* \"@openzeppelin/contracts/access/Ownable.sol\":1343:1411  require(owner() == _msgSender(), \"Ownable: caller is not the owner\") */\n      tag_217\n      jumpi\n      mload(0x40)\n      0x08c379a000000000000000000000000000000000000000000000000000000000\n      dup2\n      mstore\n      0x04\n      add\n      dup1\n      dup1\n      0x20\n      add\n      dup3\n      dup2\n      sub\n      dup3\n      mstore\n      0x20\n      dup2\n      mstore\n      0x20\n      add\n      dup1\n      0x4f776e61626c653a2063616c6c6572206973206e6f7420746865206f776e6572\n      dup2\n      mstore\n      pop\n      0x20\n      add\n      swap2\n      pop\n      pop\n      mload(0x40)\n      dup1\n      swap2\n      sub\n      swap1\n      revert\n    tag_217:\n        /* \"@openzeppelin/contracts/access/Ownable.sol\":1877:1878  0 */\n      0x00\n        /* \"@openzeppelin/contracts/access/Ownable.sol\":1840:1880  OwnershipTransferred(_owner, address(0)) */\n      0xffffffffffffffffffffffffffffffffffffffff\n      and\n        /* \"@openzeppelin/contracts/access/Ownable.sol\":1861:1867  _owner */\n      0x00\n      dup1\n      sload\n      swap1\n      0x0100\n      exp\n      swap1\n      div\n      0xffffffffffffffffffffffffffffffffffffffff\n      and\n        /* \"@openzeppelin/contracts/access/Ownable.sol\":1840:1880  OwnershipTransferred(_owner, address(0)) */\n      0xffffffffffffffffffffffffffffffffffffffff\n      and\n      0x8be0079c531659141344cd1fd0a4f28419497f9722a3daafe3b4186f6b6457e0\n      mload(0x40)\n      mload(0x40)\n      dup1\n      swap2\n      sub\n      swap1\n      log3\n        /* \"@openzeppelin/contracts/access/Ownable.sol\":1907:1908  0 */\n      0x00\n        /* \"@openzeppelin/contracts/access/Ownable.sol\":1890:1896  _owner */\n      dup1\n      0x00\n        /* \"@openzeppelin/contracts/access/Ownable.sol\":1890:1909  _owner = address(0) */\n      0x0100\n      exp\n      dup2\n      sload\n      dup2\n      0xffffffffffffffffffffffffffffffffffffffff\n      mul\n      not\n      and\n      swap1\n      dup4\n      0xffffffffffffffffffffffffffffffffffffffff\n      and\n      mul\n      or\n      swap1\n      sstore\n      pop\n        /* \"@openzeppelin/contracts/access/Ownable.sol\":1771:1916  function renounceOwnership() public virtual onlyOwner {... */\n      jump\t// out\n        /* \"@openzeppelin/contracts/access/Ownable.sol\":1139:1224  function owner() public view virtual returns (address) {... */\n    tag_87:\n        /* \"@openzeppelin/contracts/access/Ownable.sol\":1185:1192  address */\n      0x00\n        /* \"@openzeppelin/contracts/access/Ownable.sol\":1211:1217  _owner */\n      dup1\n      0x00\n      swap1\n      sload\n      swap1\n      0x0100\n      exp\n      swap1\n      div\n      0xffffffffffffffffffffffffffffffffffffffff\n      and\n        /* \"@openzeppelin/contracts/access/Ownable.sol\":1204:1217  return _owner */\n      swap1\n      pop\n        /* \"@openzeppelin/contracts/access/Ownable.sol\":1139:1224  function owner() public view virtual returns (address) {... */\n      swap1\n      jump\t// out\n        /* \"contracts/distribution/TombGenesisRewardPool.sol\":1449:1513  mapping(uint256 => mapping(address => UserInfo)) public userInfo */\n    tag_90:\n      mstore(0x20, 0x06)\n      dup2\n      0x00\n      mstore\n      mstore(0x20, keccak256(0x00, 0x40))\n      dup1\n      0x00\n      mstore\n      keccak256(0x00, 0x40)\n      0x00\n      swap2\n      pop\n      swap2\n      pop\n      pop\n      dup1\n      0x00\n      add\n      sload\n      swap1\n      dup1\n      0x01\n      add\n      sload\n      swap1\n      pop\n      dup3\n      jump\t// out\n        /* \"contracts/distribution/TombGenesisRewardPool.sol\":1910:1945  uint256 public runningTime = 3 days */\n    tag_92:\n      sload(0x0b)\n      dup2\n      jump\t// out\n        /* \"contracts/distribution/TombGenesisRewardPool.sol\":3355:4631  function add(\r... */\n    tag_95:\n        /* \"contracts/owner/Operator.sol\":684:694  msg.sender */\n      caller\n        /* \"contracts/owner/Operator.sol\":671:694  _operator == msg.sender */\n      0xffffffffffffffffffffffffffffffffffffffff\n      and\n        /* \"contracts/owner/Operator.sol\":671:680  _operator */\n      0x01\n      0x00\n      swap1\n      sload\n      swap1\n      0x0100\n      exp\n      swap1\n      div\n      0xffffffffffffffffffffffffffffffffffffffff\n      and\n        /* \"contracts/owner/Operator.sol\":671:694  _operator == msg.sender */\n      0xffffffffffffffffffffffffffffffffffffffff\n      and\n      eq\n        /* \"contracts/owner/Operator.sol\":649:758  require(\r... */\n      tag_221\n      jumpi\n      mload(0x40)\n      0x08c379a000000000000000000000000000000000000000000000000000000000\n      dup2\n      mstore\n      0x04\n      add\n      dup1\n      dup1\n      0x20\n      add\n      dup3\n      dup2\n      sub\n      dup3\n      mstore\n      0x24\n      dup2\n      mstore\n      0x20\n      add\n      dup1\n      data_a62bfdba5053072911b63b0f6325b0e83fcd28b5a847d97efdd966feb4daaafb\n      0x24\n      swap2\n      codecopy\n      0x40\n      add\n      swap2\n      pop\n      pop\n      mload(0x40)\n      dup1\n      swap2\n      sub\n      swap1\n      revert\n    tag_221:\n        /* \"contracts/distribution/TombGenesisRewardPool.sol\":3521:3547  checkPoolDuplicate(_token) */\n      tag_223\n        /* \"contracts/distribution/TombGenesisRewardPool.sol\":3540:3546  _token */\n      dup4\n        /* \"contracts/distribution/TombGenesisRewardPool.sol\":3521:3539  checkPoolDuplicate */\n      tag_224\n        /* \"contracts/distribution/TombGenesisRewardPool.sol\":3521:3547  checkPoolDuplicate(_token) */\n      jump\t// in\n    tag_223:\n        /* \"contracts/distribution/TombGenesisRewardPool.sol\":3562:3573  _withUpdate */\n      dup2\n        /* \"contracts/distribution/TombGenesisRewardPool.sol\":3558:3619  if (_withUpdate) {\r... */\n      iszero\n      tag_225\n      jumpi\n        /* \"contracts/distribution/TombGenesisRewardPool.sol\":3590:3607  massUpdatePools() */\n      tag_226\n        /* \"contracts/distribution/TombGenesisRewardPool.sol\":3590:3605  massUpdatePools */\n      tag_81\n        /* \"contracts/distribution/TombGenesisRewardPool.sol\":3590:3607  massUpdatePools() */\n      jump\t// in\n    tag_226:\n        /* \"contracts/distribution/TombGenesisRewardPool.sol\":3558:3619  if (_withUpdate) {\r... */\n    tag_225:\n        /* \"contracts/distribution/TombGenesisRewardPool.sol\":3651:3664  poolStartTime */\n      sload(0x08)\n        /* \"contracts/distribution/TombGenesisRewardPool.sol\":3633:3648  block.timestamp */\n      timestamp\n        /* \"contracts/distribution/TombGenesisRewardPool.sol\":3633:3664  block.timestamp < poolStartTime */\n      lt\n        /* \"contracts/distribution/TombGenesisRewardPool.sol\":3629:4163  if (block.timestamp < poolStartTime) {\r... */\n      iszero\n      tag_227\n      jumpi\n        /* \"contracts/distribution/TombGenesisRewardPool.sol\":3737:3738  0 */\n      0x00\n        /* \"contracts/distribution/TombGenesisRewardPool.sol\":3718:3733  _lastRewardTime */\n      dup2\n        /* \"contracts/distribution/TombGenesisRewardPool.sol\":3718:3738  _lastRewardTime == 0 */\n      eq\n        /* \"contracts/distribution/TombGenesisRewardPool.sol\":3714:3957  if (_lastRewardTime == 0) {\r... */\n      iszero\n      tag_228\n      jumpi\n        /* \"contracts/distribution/TombGenesisRewardPool.sol\":3777:3790  poolStartTime */\n      sload(0x08)\n        /* \"contracts/distribution/TombGenesisRewardPool.sol\":3759:3790  _lastRewardTime = poolStartTime */\n      swap1\n      pop\n        /* \"contracts/distribution/TombGenesisRewardPool.sol\":3714:3957  if (_lastRewardTime == 0) {\r... */\n      jump(tag_229)\n    tag_228:\n        /* \"contracts/distribution/TombGenesisRewardPool.sol\":3853:3866  poolStartTime */\n      sload(0x08)\n        /* \"contracts/distribution/TombGenesisRewardPool.sol\":3835:3850  _lastRewardTime */\n      dup2\n        /* \"contracts/distribution/TombGenesisRewardPool.sol\":3835:3866  _lastRewardTime < poolStartTime */\n      lt\n        /* \"contracts/distribution/TombGenesisRewardPool.sol\":3831:3942  if (_lastRewardTime < poolStartTime) {\r... */\n      iszero\n      tag_230\n      jumpi\n        /* \"contracts/distribution/TombGenesisRewardPool.sol\":3909:3922  poolStartTime */\n      sload(0x08)\n        /* \"contracts/distribution/TombGenesisRewardPool.sol\":3891:3922  _lastRewardTime = poolStartTime */\n      swap1\n      pop\n        /* \"contracts/distribution/TombGenesisRewardPool.sol\":3831:3942  if (_lastRewardTime < poolStartTime) {\r... */\n    tag_230:\n        /* \"contracts/distribution/TombGenesisRewardPool.sol\":3714:3957  if (_lastRewardTime == 0) {\r... */\n    tag_229:\n        /* \"contracts/distribution/TombGenesisRewardPool.sol\":3629:4163  if (block.timestamp < poolStartTime) {\r... */\n      jump(tag_231)\n    tag_227:\n        /* \"contracts/distribution/TombGenesisRewardPool.sol\":4044:4045  0 */\n      0x00\n        /* \"contracts/distribution/TombGenesisRewardPool.sol\":4025:4040  _lastRewardTime */\n      dup2\n        /* \"contracts/distribution/TombGenesisRewardPool.sol\":4025:4045  _lastRewardTime == 0 */\n      eq\n        /* \"contracts/distribution/TombGenesisRewardPool.sol\":4025:4082  _lastRewardTime == 0 || _lastRewardTime < block.timestamp */\n      dup1\n      tag_232\n      jumpi\n      pop\n        /* \"contracts/distribution/TombGenesisRewardPool.sol\":4067:4082  block.timestamp */\n      timestamp\n        /* \"contracts/distribution/TombGenesisRewardPool.sol\":4049:4064  _lastRewardTime */\n      dup2\n        /* \"contracts/distribution/TombGenesisRewardPool.sol\":4049:4082  _lastRewardTime < block.timestamp */\n      lt\n        /* \"contracts/distribution/TombGenesisRewardPool.sol\":4025:4082  _lastRewardTime == 0 || _lastRewardTime < block.timestamp */\n    tag_232:\n        /* \"contracts/distribution/TombGenesisRewardPool.sol\":4021:4152  if (_lastRewardTime == 0 || _lastRewardTime < block.timestamp) {\r... */\n      iszero\n      tag_233\n      jumpi\n        /* \"contracts/distribution/TombGenesisRewardPool.sol\":4121:4136  block.timestamp */\n      timestamp\n        /* \"contracts/distribution/TombGenesisRewardPool.sol\":4103:4136  _lastRewardTime = block.timestamp */\n      swap1\n      pop\n        /* \"contracts/distribution/TombGenesisRewardPool.sol\":4021:4152  if (_lastRewardTime == 0 || _lastRewardTime < block.timestamp) {\r... */\n    tag_233:\n        /* \"contracts/distribution/TombGenesisRewardPool.sol\":3629:4163  if (block.timestamp < poolStartTime) {\r... */\n    tag_231:\n        /* \"contracts/distribution/TombGenesisRewardPool.sol\":4173:4188  bool _isStarted */\n      0x00\n        /* \"contracts/distribution/TombGenesisRewardPool.sol\":4220:4233  poolStartTime */\n      sload(0x08)\n        /* \"contracts/distribution/TombGenesisRewardPool.sol\":4201:4216  _lastRewardTime */\n      dup3\n        /* \"contracts/distribution/TombGenesisRewardPool.sol\":4201:4233  _lastRewardTime <= poolStartTime */\n      gt\n      iszero\n        /* \"contracts/distribution/TombGenesisRewardPool.sol\":4200:4283  (_lastRewardTime <= poolStartTime) ||\r... */\n      dup1\n      tag_234\n      jumpi\n      pop\n        /* \"contracts/distribution/TombGenesisRewardPool.sol\":4267:4282  block.timestamp */\n      timestamp\n        /* \"contracts/distribution/TombGenesisRewardPool.sol\":4248:4263  _lastRewardTime */\n      dup3\n        /* \"contracts/distribution/TombGenesisRewardPool.sol\":4248:4282  _lastRewardTime <= block.timestamp */\n      gt\n      iszero\n        /* \"contracts/distribution/TombGenesisRewardPool.sol\":4200:4283  (_lastRewardTime <= poolStartTime) ||\r... */\n    tag_234:\n        /* \"contracts/distribution/TombGenesisRewardPool.sol\":4173:4283  bool _isStarted =\r... */\n      swap1\n      pop\n        /* \"contracts/distribution/TombGenesisRewardPool.sol\":4294:4302  poolInfo */\n      0x04\n        /* \"contracts/distribution/TombGenesisRewardPool.sol\":4308:4519  PoolInfo({\r... */\n      mload(0x40)\n      dup1\n      0xa0\n      add\n      0x40\n      mstore\n      dup1\n        /* \"contracts/distribution/TombGenesisRewardPool.sol\":4340:4346  _token */\n      dup7\n        /* \"contracts/distribution/TombGenesisRewardPool.sol\":4308:4519  PoolInfo({\r... */\n      0xffffffffffffffffffffffffffffffffffffffff\n      and\n      dup2\n      mstore\n      0x20\n      add\n        /* \"contracts/distribution/TombGenesisRewardPool.sol\":4374:4385  _allocPoint */\n      dup8\n        /* \"contracts/distribution/TombGenesisRewardPool.sol\":4308:4519  PoolInfo({\r... */\n      dup2\n      mstore\n      0x20\n      add\n        /* \"contracts/distribution/TombGenesisRewardPool.sol\":4417:4432  _lastRewardTime */\n      dup5\n        /* \"contracts/distribution/TombGenesisRewardPool.sol\":4308:4519  PoolInfo({\r... */\n      dup2\n      mstore\n      0x20\n      add\n        /* \"contracts/distribution/TombGenesisRewardPool.sol\":4465:4466  0 */\n      0x00\n        /* \"contracts/distribution/TombGenesisRewardPool.sol\":4308:4519  PoolInfo({\r... */\n      dup2\n      mstore\n      0x20\n      add\n        /* \"contracts/distribution/TombGenesisRewardPool.sol\":4493:4503  _isStarted */\n      dup4\n        /* \"contracts/distribution/TombGenesisRewardPool.sol\":4308:4519  PoolInfo({\r... */\n      iszero\n      iszero\n      dup2\n      mstore\n      pop\n        /* \"contracts/distribution/TombGenesisRewardPool.sol\":4294:4520  poolInfo.push(PoolInfo({\r... */\n      swap1\n      dup1\n      0x01\n      dup2\n      sload\n      add\n      dup1\n      dup3\n      sstore\n      dup1\n      swap2\n      pop\n      pop\n      0x01\n      swap1\n      sub\n      swap1\n      0x00\n      mstore\n      keccak256(0x00, 0x20)\n      swap1\n      0x05\n      mul\n      add\n      0x00\n      swap1\n      swap2\n      swap1\n      swap2\n      swap1\n      swap2\n      pop\n      0x00\n      dup3\n      add\n      mload\n      dup2\n      0x00\n      add\n      exp(0x0100, 0x00)\n      dup2\n      sload\n      dup2\n      0xffffffffffffffffffffffffffffffffffffffff\n      mul\n      not\n      and\n      swap1\n      dup4\n      0xffffffffffffffffffffffffffffffffffffffff\n      and\n      mul\n      or\n      swap1\n      sstore\n      pop\n      0x20\n      dup3\n      add\n      mload\n      dup2\n      0x01\n      add\n      sstore\n      0x40\n      dup3\n      add\n      mload\n      dup2\n      0x02\n      add\n      sstore\n      0x60\n      dup3\n      add\n      mload\n      dup2\n      0x03\n      add\n      sstore\n      0x80\n      dup3\n      add\n      mload\n      dup2\n      0x04\n      add\n      exp(0x0100, 0x00)\n      dup2\n      sload\n      dup2\n      0xff\n      mul\n      not\n      and\n      swap1\n      dup4\n      iszero\n      iszero\n      mul\n      or\n      swap1\n      sstore\n      pop\n      pop\n      pop\n        /* \"contracts/distribution/TombGenesisRewardPool.sol\":4535:4545  _isStarted */\n      dup1\n        /* \"contracts/distribution/TombGenesisRewardPool.sol\":4531:4624  if (_isStarted) {\r... */\n      iszero\n      tag_236\n      jumpi\n        /* \"contracts/distribution/TombGenesisRewardPool.sol\":4580:4612  totalAllocPoint.add(_allocPoint) */\n      tag_237\n        /* \"contracts/distribution/TombGenesisRewardPool.sol\":4600:4611  _allocPoint */\n      dup6\n        /* \"contracts/distribution/TombGenesisRewardPool.sol\":4580:4595  totalAllocPoint */\n      sload(0x07)\n        /* \"contracts/distribution/TombGenesisRewardPool.sol\":4580:4599  totalAllocPoint.add */\n      tag_127\n      swap1\n        /* \"contracts/distribution/TombGenesisRewardPool.sol\":4580:4612  totalAllocPoint.add(_allocPoint) */\n      swap2\n      swap1\n      0xffffffff\n      and\n      jump\t// in\n    tag_237:\n        /* \"contracts/distribution/TombGenesisRewardPool.sol\":4562:4577  totalAllocPoint */\n      0x07\n        /* \"contracts/distribution/TombGenesisRewardPool.sol\":4562:4612  totalAllocPoint = totalAllocPoint.add(_allocPoint) */\n      dup2\n      swap1\n      sstore\n      pop\n        /* \"contracts/distribution/TombGenesisRewardPool.sol\":4531:4624  if (_isStarted) {\r... */\n    tag_236:\n        /* \"contracts/owner/Operator.sol\":769:770  _ */\n      pop\n        /* \"contracts/distribution/TombGenesisRewardPool.sol\":3355:4631  function add(\r... */\n      pop\n      pop\n      pop\n      pop\n      jump\t// out\n        /* \"contracts/distribution/TombGenesisRewardPool.sol\":10777:10891  function setOperator(address _Newoperator) external onlyOperator {\r... */\n    tag_98:\n        /* \"contracts/owner/Operator.sol\":684:694  msg.sender */\n      caller\n        /* \"contracts/owner/Operator.sol\":671:694  _operator == msg.sender */\n      0xffffffffffffffffffffffffffffffffffffffff\n      and\n        /* \"contracts/owner/Operator.sol\":671:680  _operator */\n      0x01\n      0x00\n      swap1\n      sload\n      swap1\n      0x0100\n      exp\n      swap1\n      div\n      0xffffffffffffffffffffffffffffffffffffffff\n      and\n        /* \"contracts/owner/Operator.sol\":671:694  _operator == msg.sender */\n      0xffffffffffffffffffffffffffffffffffffffff\n      and\n      eq\n        /* \"contracts/owner/Operator.sol\":649:758  require(\r... */\n      tag_239\n      jumpi\n      mload(0x40)\n      0x08c379a000000000000000000000000000000000000000000000000000000000\n      dup2\n      mstore\n      0x04\n      add\n      dup1\n      dup1\n      0x20\n      add\n      dup3\n      dup2\n      sub\n      dup3\n      mstore\n      0x24\n      dup2\n      mstore\n      0x20\n      add\n      dup1\n      data_a62bfdba5053072911b63b0f6325b0e83fcd28b5a847d97efdd966feb4daaafb\n      0x24\n      swap2\n      codecopy\n      0x40\n      add\n      swap2\n      pop\n      pop\n      mload(0x40)\n      dup1\n      swap2\n      sub\n      swap1\n      revert\n    tag_239:\n        /* \"contracts/distribution/TombGenesisRewardPool.sol\":10853:10883  transferOperator(_Newoperator) */\n      tag_241\n        /* \"contracts/distribution/TombGenesisRewardPool.sol\":10870:10882  _Newoperator */\n      dup2\n        /* \"contracts/distribution/TombGenesisRewardPool.sol\":10853:10869  transferOperator */\n      tag_57\n        /* \"contracts/distribution/TombGenesisRewardPool.sol\":10853:10883  transferOperator(_Newoperator) */\n      jump\t// in\n    tag_241:\n        /* \"contracts/distribution/TombGenesisRewardPool.sol\":10777:10891  function setOperator(address _Newoperator) external onlyOperator {\r... */\n      pop\n      jump\t// out\n        /* \"contracts/distribution/TombGenesisRewardPool.sol\":2618:3006  function initialize (\r... */\n    tag_101:\n        /* \"contracts/distribution/TombGenesisRewardPool.sol\":2397:2408  initialized */\n      0x05\n      0x00\n      swap1\n      sload\n      swap1\n      0x0100\n      exp\n      swap1\n      div\n      0xff\n      and\n        /* \"contracts/distribution/TombGenesisRewardPool.sol\":2396:2408  !initialized */\n      iszero\n        /* \"contracts/distribution/TombGenesisRewardPool.sol\":2388:2441  require(!initialized, \"Genesis: already initialized\") */\n      tag_243\n      jumpi\n      mload(0x40)\n      0x08c379a000000000000000000000000000000000000000000000000000000000\n      dup2\n      mstore\n      0x04\n      add\n      dup1\n      dup1\n      0x20\n      add\n      dup3\n      dup2\n      sub\n      dup3\n      mstore\n      0x1c\n      dup2\n      mstore\n      0x20\n      add\n      dup1\n      0x47656e657369733a20616c726561647920696e697469616c697a656400000000\n      dup2\n      mstore\n      pop\n      0x20\n      add\n      swap2\n      pop\n      pop\n      mload(0x40)\n      dup1\n      swap2\n      sub\n      swap1\n      revert\n    tag_243:\n        /* \"contracts/owner/Operator.sol\":684:694  msg.sender */\n      caller\n        /* \"contracts/owner/Operator.sol\":671:694  _operator == msg.sender */\n      0xffffffffffffffffffffffffffffffffffffffff\n      and\n        /* \"contracts/owner/Operator.sol\":671:680  _operator */\n      0x01\n      0x00\n      swap1\n      sload\n      swap1\n      0x0100\n      exp\n      swap1\n      div\n      0xffffffffffffffffffffffffffffffffffffffff\n      and\n        /* \"contracts/owner/Operator.sol\":671:694  _operator == msg.sender */\n      0xffffffffffffffffffffffffffffffffffffffff\n      and\n      eq\n        /* \"contracts/owner/Operator.sol\":649:758  require(\r... */\n      tag_245\n      jumpi\n      mload(0x40)\n      0x08c379a000000000000000000000000000000000000000000000000000000000\n      dup2\n      mstore\n      0x04\n      add\n      dup1\n      dup1\n      0x20\n      add\n      dup3\n      dup2\n      sub\n      dup3\n      mstore\n      0x24\n      dup2\n      mstore\n      0x20\n      add\n      dup1\n      data_a62bfdba5053072911b63b0f6325b0e83fcd28b5a847d97efdd966feb4daaafb\n      0x24\n      swap2\n      codecopy\n      0x40\n      add\n      swap2\n      pop\n      pop\n      mload(0x40)\n      dup1\n      swap2\n      sub\n      swap1\n      revert\n    tag_245:\n        /* \"contracts/distribution/TombGenesisRewardPool.sol\":2775:2789  _poolStartTime */\n      dup1\n        /* \"contracts/distribution/TombGenesisRewardPool.sol\":2757:2772  block.timestamp */\n      timestamp\n        /* \"contracts/distribution/TombGenesisRewardPool.sol\":2757:2789  block.timestamp < _poolStartTime */\n      lt\n        /* \"contracts/distribution/TombGenesisRewardPool.sol\":2749:2798  require(block.timestamp < _poolStartTime, \"late\") */\n      tag_247\n      jumpi\n      mload(0x40)\n      0x08c379a000000000000000000000000000000000000000000000000000000000\n      dup2\n      mstore\n      0x04\n      add\n      dup1\n      dup1\n      0x20\n      add\n      dup3\n      dup2\n      sub\n      dup3\n      mstore\n      0x04\n      dup2\n      mstore\n      0x20\n      add\n      dup1\n      0x6c61746500000000000000000000000000000000000000000000000000000000\n      dup2\n      mstore\n      pop\n      0x20\n      add\n      swap2\n      pop\n      pop\n      mload(0x40)\n      dup1\n      swap2\n      sub\n      swap1\n      revert\n    tag_247:\n        /* \"contracts/distribution/TombGenesisRewardPool.sol\":2830:2831  0 */\n      0x00\n        /* \"contracts/distribution/TombGenesisRewardPool.sol\":2813:2832  _Poly != address(0) */\n      0xffffffffffffffffffffffffffffffffffffffff\n      and\n        /* \"contracts/distribution/TombGenesisRewardPool.sol\":2813:2818  _Poly */\n      dup3\n        /* \"contracts/distribution/TombGenesisRewardPool.sol\":2813:2832  _Poly != address(0) */\n      0xffffffffffffffffffffffffffffffffffffffff\n      and\n      eq\n        /* \"contracts/distribution/TombGenesisRewardPool.sol\":2809:2854  if (_Poly != address(0)) Poly = IERC20(_Poly) */\n      tag_248\n      jumpi\n        /* \"contracts/distribution/TombGenesisRewardPool.sol\":2848:2853  _Poly */\n      dup2\n        /* \"contracts/distribution/TombGenesisRewardPool.sol\":2834:2838  Poly */\n      0x02\n      0x00\n        /* \"contracts/distribution/TombGenesisRewardPool.sol\":2834:2854  Poly = IERC20(_Poly) */\n      0x0100\n      exp\n      dup2\n      sload\n      dup2\n      0xffffffffffffffffffffffffffffffffffffffff\n      mul\n      not\n      and\n      swap1\n      dup4\n      0xffffffffffffffffffffffffffffffffffffffff\n      and\n      mul\n      or\n      swap1\n      sstore\n      pop\n        /* \"contracts/distribution/TombGenesisRewardPool.sol\":2809:2854  if (_Poly != address(0)) Poly = IERC20(_Poly) */\n    tag_248:\n        /* \"contracts/distribution/TombGenesisRewardPool.sol\":2881:2895  _poolStartTime */\n      dup1\n        /* \"contracts/distribution/TombGenesisRewardPool.sol\":2865:2878  poolStartTime */\n      0x08\n        /* \"contracts/distribution/TombGenesisRewardPool.sol\":2865:2895  poolStartTime = _poolStartTime */\n      dup2\n      swap1\n      sstore\n      pop\n        /* \"contracts/distribution/TombGenesisRewardPool.sol\":2936:2947  runningTime */\n      sload(0x0b)\n        /* \"contracts/distribution/TombGenesisRewardPool.sol\":2920:2933  poolStartTime */\n      sload(0x08)\n        /* \"contracts/distribution/TombGenesisRewardPool.sol\":2920:2947  poolStartTime + runningTime */\n      add\n        /* \"contracts/distribution/TombGenesisRewardPool.sol\":2906:2917  poolEndTime */\n      0x09\n        /* \"contracts/distribution/TombGenesisRewardPool.sol\":2906:2947  poolEndTime = poolStartTime + runningTime */\n      dup2\n      swap1\n      sstore\n      pop\n        /* \"contracts/distribution/TombGenesisRewardPool.sol\":2966:2969  200 */\n      0xc8\n        /* \"contracts/distribution/TombGenesisRewardPool.sol\":2958:2963  _fees */\n      0x03\n        /* \"contracts/distribution/TombGenesisRewardPool.sol\":2958:2969  _fees = 200 */\n      dup2\n      swap1\n      sstore\n      pop\n        /* \"contracts/distribution/TombGenesisRewardPool.sol\":2994:2998  true */\n      0x01\n        /* \"contracts/distribution/TombGenesisRewardPool.sol\":2980:2991  initialized */\n      0x05\n      0x00\n        /* \"contracts/distribution/TombGenesisRewardPool.sol\":2980:2998  initialized = true */\n      0x0100\n      exp\n      dup2\n      sload\n      dup2\n      0xff\n      mul\n      not\n      and\n      swap1\n      dup4\n      iszero\n      iszero\n      mul\n      or\n      swap1\n      sstore\n      pop\n        /* \"contracts/distribution/TombGenesisRewardPool.sol\":2618:3006  function initialize (\r... */\n      pop\n      pop\n      jump\t// out\n        /* \"contracts/distribution/TombGenesisRewardPool.sol\":1255:1275  uint256 public _fees */\n    tag_103:\n      sload(0x03)\n      dup2\n      jump\t// out\n        /* \"contracts/distribution/TombGenesisRewardPool.sol\":1216:1234  IERC20 public Poly */\n    tag_105:\n      0x02\n      0x00\n      swap1\n      sload\n      swap1\n      0x0100\n      exp\n      swap1\n      div\n      0xffffffffffffffffffffffffffffffffffffffff\n      and\n      dup2\n      jump\t// out\n        /* \"contracts/distribution/TombGenesisRewardPool.sol\":7929:8996  function deposit(uint256 _pid, uint256 _amount) public {\r... */\n    tag_108:\n        /* \"contracts/distribution/TombGenesisRewardPool.sol\":7995:8010  address _sender */\n      0x00\n        /* \"contracts/distribution/TombGenesisRewardPool.sol\":8013:8023  msg.sender */\n      caller\n        /* \"contracts/distribution/TombGenesisRewardPool.sol\":7995:8023  address _sender = msg.sender */\n      swap1\n      pop\n        /* \"contracts/distribution/TombGenesisRewardPool.sol\":8034:8046  uint256 _fee */\n      0x00\n        /* \"contracts/distribution/TombGenesisRewardPool.sol\":8049:8068  _amount.ceil(_fees) */\n      tag_250\n        /* \"contracts/distribution/TombGenesisRewardPool.sol\":8062:8067  _fees */\n      sload(0x03)\n        /* \"contracts/distribution/TombGenesisRewardPool.sol\":8049:8056  _amount */\n      dup5\n        /* \"contracts/distribution/TombGenesisRewardPool.sol\":8049:8061  _amount.ceil */\n      tag_251\n      swap1\n        /* \"contracts/distribution/TombGenesisRewardPool.sol\":8049:8068  _amount.ceil(_fees) */\n      swap2\n      swap1\n      0xffffffff\n      and\n      jump\t// in\n    tag_250:\n        /* \"contracts/distribution/TombGenesisRewardPool.sol\":8034:8068  uint256 _fee = _amount.ceil(_fees) */\n      swap1\n      pop\n        /* \"contracts/distribution/TombGenesisRewardPool.sol\":8079:8091  uint256 _new */\n      0x00\n        /* \"contracts/distribution/TombGenesisRewardPool.sol\":8094:8120  _fee.mul(_fees).div(10000) */\n      tag_252\n        /* \"contracts/distribution/TombGenesisRewardPool.sol\":8114:8119  10000 */\n      0x2710\n        /* \"contracts/distribution/TombGenesisRewardPool.sol\":8094:8109  _fee.mul(_fees) */\n      tag_253\n        /* \"contracts/distribution/TombGenesisRewardPool.sol\":8103:8108  _fees */\n      sload(0x03)\n        /* \"contracts/distribution/TombGenesisRewardPool.sol\":8094:8098  _fee */\n      dup6\n        /* \"contracts/distribution/TombGenesisRewardPool.sol\":8094:8102  _fee.mul */\n      tag_135\n      swap1\n        /* \"contracts/distribution/TombGenesisRewardPool.sol\":8094:8109  _fee.mul(_fees) */\n      swap2\n      swap1\n      0xffffffff\n      and\n      jump\t// in\n    tag_253:\n        /* \"contracts/distribution/TombGenesisRewardPool.sol\":8094:8113  _fee.mul(_fees).div */\n      tag_162\n      swap1\n        /* \"contracts/distribution/TombGenesisRewardPool.sol\":8094:8120  _fee.mul(_fees).div(10000) */\n      swap2\n      swap1\n      0xffffffff\n      and\n      jump\t// in\n    tag_252:\n        /* \"contracts/distribution/TombGenesisRewardPool.sol\":8079:8120  uint256 _new = _fee.mul(_fees).div(10000) */\n      swap1\n      pop\n        /* \"contracts/distribution/TombGenesisRewardPool.sol\":8131:8149  uint256 _newAmount */\n      0x00\n        /* \"contracts/distribution/TombGenesisRewardPool.sol\":8152:8169  _amount.sub(_new) */\n      tag_254\n        /* \"contracts/distribution/TombGenesisRewardPool.sol\":8164:8168  _new */\n      dup3\n        /* \"contracts/distribution/TombGenesisRewardPool.sol\":8152:8159  _amount */\n      dup7\n        /* \"contracts/distribution/TombGenesisRewardPool.sol\":8152:8163  _amount.sub */\n      tag_126\n      swap1\n        /* \"contracts/distribution/TombGenesisRewardPool.sol\":8152:8169  _amount.sub(_new) */\n      swap2\n      swap1\n      0xffffffff\n      and\n      jump\t// in\n    tag_254:\n        /* \"contracts/distribution/TombGenesisRewardPool.sol\":8131:8169  uint256 _newAmount = _amount.sub(_new) */\n      swap1\n      pop\n        /* \"contracts/distribution/TombGenesisRewardPool.sol\":8182:8203  PoolInfo storage pool */\n      0x00\n        /* \"contracts/distribution/TombGenesisRewardPool.sol\":8206:8214  poolInfo */\n      0x04\n        /* \"contracts/distribution/TombGenesisRewardPool.sol\":8215:8219  _pid */\n      dup8\n        /* \"contracts/distribution/TombGenesisRewardPool.sol\":8206:8220  poolInfo[_pid] */\n      dup2\n      sload\n      dup2\n      lt\n      tag_255\n      jumpi\n      invalid\n    tag_255:\n      swap1\n      0x00\n      mstore\n      keccak256(0x00, 0x20)\n      swap1\n      0x05\n      mul\n      add\n        /* \"contracts/distribution/TombGenesisRewardPool.sol\":8182:8220  PoolInfo storage pool = poolInfo[_pid] */\n      swap1\n      pop\n        /* \"contracts/distribution/TombGenesisRewardPool.sol\":8231:8252  UserInfo storage user */\n      0x00\n        /* \"contracts/distribution/TombGenesisRewardPool.sol\":8255:8263  userInfo */\n      0x06\n        /* \"contracts/distribution/TombGenesisRewardPool.sol\":8255:8269  userInfo[_pid] */\n      0x00\n        /* \"contracts/distribution/TombGenesisRewardPool.sol\":8264:8268  _pid */\n      dup10\n        /* \"contracts/distribution/TombGenesisRewardPool.sol\":8255:8269  userInfo[_pid] */\n      dup2\n      mstore\n      0x20\n      add\n      swap1\n      dup2\n      mstore\n      0x20\n      add\n      0x00\n      keccak256\n        /* \"contracts/distribution/TombGenesisRewardPool.sol\":8255:8278  userInfo[_pid][_sender] */\n      0x00\n        /* \"contracts/distribution/TombGenesisRewardPool.sol\":8270:8277  _sender */\n      dup8\n        /* \"contracts/distribution/TombGenesisRewardPool.sol\":8255:8278  userInfo[_pid][_sender] */\n      0xffffffffffffffffffffffffffffffffffffffff\n      and\n      0xffffffffffffffffffffffffffffffffffffffff\n      and\n      dup2\n      mstore\n      0x20\n      add\n      swap1\n      dup2\n      mstore\n      0x20\n      add\n      0x00\n      keccak256\n        /* \"contracts/distribution/TombGenesisRewardPool.sol\":8231:8278  UserInfo storage user = userInfo[_pid][_sender] */\n      swap1\n      pop\n        /* \"contracts/distribution/TombGenesisRewardPool.sol\":8289:8305  updatePool(_pid) */\n      tag_257\n        /* \"contracts/distribution/TombGenesisRewardPool.sol\":8300:8304  _pid */\n      dup9\n        /* \"contracts/distribution/TombGenesisRewardPool.sol\":8289:8299  updatePool */\n      tag_69\n        /* \"contracts/distribution/TombGenesisRewardPool.sol\":8289:8305  updatePool(_pid) */\n      jump\t// in\n    tag_257:\n        /* \"contracts/distribution/TombGenesisRewardPool.sol\":8336:8337  0 */\n      0x00\n        /* \"contracts/distribution/TombGenesisRewardPool.sol\":8322:8326  user */\n      dup2\n        /* \"contracts/distribution/TombGenesisRewardPool.sol\":8322:8333  user.amount */\n      0x00\n      add\n      sload\n        /* \"contracts/distribution/TombGenesisRewardPool.sol\":8322:8337  user.amount > 0 */\n      gt\n        /* \"contracts/distribution/TombGenesisRewardPool.sol\":8318:8608  if (user.amount > 0) {\r... */\n      iszero\n      tag_258\n      jumpi\n        /* \"contracts/distribution/TombGenesisRewardPool.sol\":8354:8370  uint256 _pending */\n      0x00\n        /* \"contracts/distribution/TombGenesisRewardPool.sol\":8373:8441  user.amount.mul(pool.accPolyPerShare).div(1e18).sub(user.rewardDebt) */\n      tag_259\n        /* \"contracts/distribution/TombGenesisRewardPool.sol\":8425:8429  user */\n      dup3\n        /* \"contracts/distribution/TombGenesisRewardPool.sol\":8425:8440  user.rewardDebt */\n      0x01\n      add\n      sload\n        /* \"contracts/distribution/TombGenesisRewardPool.sol\":8373:8420  user.amount.mul(pool.accPolyPerShare).div(1e18) */\n      tag_260\n        /* \"contracts/distribution/TombGenesisRewardPool.sol\":8415:8419  1e18 */\n      0x0de0b6b3a7640000\n        /* \"contracts/distribution/TombGenesisRewardPool.sol\":8373:8410  user.amount.mul(pool.accPolyPerShare) */\n      tag_261\n        /* \"contracts/distribution/TombGenesisRewardPool.sol\":8389:8393  pool */\n      dup8\n        /* \"contracts/distribution/TombGenesisRewardPool.sol\":8389:8409  pool.accPolyPerShare */\n      0x03\n      add\n      sload\n        /* \"contracts/distribution/TombGenesisRewardPool.sol\":8373:8377  user */\n      dup8\n        /* \"contracts/distribution/TombGenesisRewardPool.sol\":8373:8384  user.amount */\n      0x00\n      add\n      sload\n        /* \"contracts/distribution/TombGenesisRewardPool.sol\":8373:8388  user.amount.mul */\n      tag_135\n      swap1\n        /* \"contracts/distribution/TombGenesisRewardPool.sol\":8373:8410  user.amount.mul(pool.accPolyPerShare) */\n      swap2\n      swap1\n      0xffffffff\n      and\n      jump\t// in\n    tag_261:\n        /* \"contracts/distribution/TombGenesisRewardPool.sol\":8373:8414  user.amount.mul(pool.accPolyPerShare).div */\n      tag_162\n      swap1\n        /* \"contracts/distribution/TombGenesisRewardPool.sol\":8373:8420  user.amount.mul(pool.accPolyPerShare).div(1e18) */\n      swap2\n      swap1\n      0xffffffff\n      and\n      jump\t// in\n    tag_260:\n        /* \"contracts/distribution/TombGenesisRewardPool.sol\":8373:8424  user.amount.mul(pool.accPolyPerShare).div(1e18).sub */\n      tag_126\n      swap1\n        /* \"contracts/distribution/TombGenesisRewardPool.sol\":8373:8441  user.amount.mul(pool.accPolyPerShare).div(1e18).sub(user.rewardDebt) */\n      swap2\n      swap1\n      0xffffffff\n      and\n      jump\t// in\n    tag_259:\n        /* \"contracts/distribution/TombGenesisRewardPool.sol\":8354:8441  uint256 _pending = user.amount.mul(pool.accPolyPerShare).div(1e18).sub(user.rewardDebt) */\n      swap1\n      pop\n        /* \"contracts/distribution/TombGenesisRewardPool.sol\":8471:8472  0 */\n      0x00\n        /* \"contracts/distribution/TombGenesisRewardPool.sol\":8460:8468  _pending */\n      dup2\n        /* \"contracts/distribution/TombGenesisRewardPool.sol\":8460:8472  _pending > 0 */\n      gt\n        /* \"contracts/distribution/TombGenesisRewardPool.sol\":8456:8597  if (_pending > 0) {\r... */\n      iszero\n      tag_262\n      jumpi\n        /* \"contracts/distribution/TombGenesisRewardPool.sol\":8493:8528  safePolyTransfer(_sender, _pending) */\n      tag_263\n        /* \"contracts/distribution/TombGenesisRewardPool.sol\":8510:8517  _sender */\n      dup8\n        /* \"contracts/distribution/TombGenesisRewardPool.sol\":8519:8527  _pending */\n      dup3\n        /* \"contracts/distribution/TombGenesisRewardPool.sol\":8493:8509  safePolyTransfer */\n      tag_165\n        /* \"contracts/distribution/TombGenesisRewardPool.sol\":8493:8528  safePolyTransfer(_sender, _pending) */\n      jump\t// in\n    tag_263:\n        /* \"contracts/distribution/TombGenesisRewardPool.sol\":8563:8570  _sender */\n      dup7\n        /* \"contracts/distribution/TombGenesisRewardPool.sol\":8552:8581  RewardPaid(_sender, _pending) */\n      0xffffffffffffffffffffffffffffffffffffffff\n      and\n      0xe2403640ba68fed3a2f88b7557551d1993f84b99bb10ff833f0cf8db0c5e0486\n        /* \"contracts/distribution/TombGenesisRewardPool.sol\":8572:8580  _pending */\n      dup3\n        /* \"contracts/distribution/TombGenesisRewardPool.sol\":8552:8581  RewardPaid(_sender, _pending) */\n      mload(0x40)\n      dup1\n      dup3\n      dup2\n      mstore\n      0x20\n      add\n      swap2\n      pop\n      pop\n      mload(0x40)\n      dup1\n      swap2\n      sub\n      swap1\n      log2\n        /* \"contracts/distribution/TombGenesisRewardPool.sol\":8456:8597  if (_pending > 0) {\r... */\n    tag_262:\n        /* \"contracts/distribution/TombGenesisRewardPool.sol\":8318:8608  if (user.amount > 0) {\r... */\n      pop\n    tag_258:\n        /* \"contracts/distribution/TombGenesisRewardPool.sol\":8632:8633  0 */\n      0x00\n        /* \"contracts/distribution/TombGenesisRewardPool.sol\":8622:8629  _amount */\n      dup8\n        /* \"contracts/distribution/TombGenesisRewardPool.sol\":8622:8633  _amount > 0 */\n      gt\n        /* \"contracts/distribution/TombGenesisRewardPool.sol\":8618:8866  if (_amount > 0) {\r... */\n      iszero\n      tag_264\n      jumpi\n        /* \"contracts/distribution/TombGenesisRewardPool.sol\":8650:8710  pool.token.safeTransferFrom(_sender, address(this), _amount) */\n      tag_265\n        /* \"contracts/distribution/TombGenesisRewardPool.sol\":8678:8685  _sender */\n      dup7\n        /* \"contracts/distribution/TombGenesisRewardPool.sol\":8695:8699  this */\n      address\n        /* \"contracts/distribution/TombGenesisRewardPool.sol\":8702:8709  _amount */\n      dup10\n        /* \"contracts/distribution/TombGenesisRewardPool.sol\":8650:8654  pool */\n      dup6\n        /* \"contracts/distribution/TombGenesisRewardPool.sol\":8650:8660  pool.token */\n      0x00\n      add\n      0x00\n      swap1\n      sload\n      swap1\n      0x0100\n      exp\n      swap1\n      div\n      0xffffffffffffffffffffffffffffffffffffffff\n      and\n        /* \"contracts/distribution/TombGenesisRewardPool.sol\":8650:8677  pool.token.safeTransferFrom */\n      0xffffffffffffffffffffffffffffffffffffffff\n      and\n      tag_266\n      swap1\n        /* \"contracts/distribution/TombGenesisRewardPool.sol\":8650:8710  pool.token.safeTransferFrom(_sender, address(this), _amount) */\n      swap4\n      swap3\n      swap2\n      swap1\n      0xffffffff\n      and\n      jump\t// in\n    tag_265:\n        /* \"contracts/distribution/TombGenesisRewardPool.sol\":8739:8766  user.amount.add(_newAmount) */\n      tag_267\n        /* \"contracts/distribution/TombGenesisRewardPool.sol\":8755:8765  _newAmount */\n      dup4\n        /* \"contracts/distribution/TombGenesisRewardPool.sol\":8739:8743  user */\n      dup3\n        /* \"contracts/distribution/TombGenesisRewardPool.sol\":8739:8750  user.amount */\n      0x00\n      add\n      sload\n        /* \"contracts/distribution/TombGenesisRewardPool.sol\":8739:8754  user.amount.add */\n      tag_127\n      swap1\n        /* \"contracts/distribution/TombGenesisRewardPool.sol\":8739:8766  user.amount.add(_newAmount) */\n      swap2\n      swap1\n      0xffffffff\n      and\n      jump\t// in\n    tag_267:\n        /* \"contracts/distribution/TombGenesisRewardPool.sol\":8725:8729  user */\n      dup2\n        /* \"contracts/distribution/TombGenesisRewardPool.sol\":8725:8736  user.amount */\n      0x00\n      add\n        /* \"contracts/distribution/TombGenesisRewardPool.sol\":8725:8766  user.amount = user.amount.add(_newAmount) */\n      dup2\n      swap1\n      sstore\n      pop\n        /* \"contracts/distribution/TombGenesisRewardPool.sol\":8781:8854  pool.token.safeTransfer(0x01fC7f2C81acD9D38ed4D509b1F17555E549EF1D, _fee) */\n      tag_268\n        /* \"contracts/distribution/TombGenesisRewardPool.sol\":8805:8847  0x01fC7f2C81acD9D38ed4D509b1F17555E549EF1D */\n      0x01fc7f2c81acd9d38ed4d509b1f17555e549ef1d\n        /* \"contracts/distribution/TombGenesisRewardPool.sol\":8849:8853  _fee */\n      dup7\n        /* \"contracts/distribution/TombGenesisRewardPool.sol\":8781:8785  pool */\n      dup5\n        /* \"contracts/distribution/TombGenesisRewardPool.sol\":8781:8791  pool.token */\n      0x00\n      add\n      0x00\n      swap1\n      sload\n      swap1\n      0x0100\n      exp\n      swap1\n      div\n      0xffffffffffffffffffffffffffffffffffffffff\n      and\n        /* \"contracts/distribution/TombGenesisRewardPool.sol\":8781:8804  pool.token.safeTransfer */\n      0xffffffffffffffffffffffffffffffffffffffff\n      and\n      tag_169\n      swap1\n        /* \"contracts/distribution/TombGenesisRewardPool.sol\":8781:8854  pool.token.safeTransfer(0x01fC7f2C81acD9D38ed4D509b1F17555E549EF1D, _fee) */\n      swap3\n      swap2\n      swap1\n      0xffffffff\n      and\n      jump\t// in\n    tag_268:\n        /* \"contracts/distribution/TombGenesisRewardPool.sol\":8618:8866  if (_amount > 0) {\r... */\n    tag_264:\n        /* \"contracts/distribution/TombGenesisRewardPool.sol\":8894:8941  user.amount.mul(pool.accPolyPerShare).div(1e18) */\n      tag_269\n        /* \"contracts/distribution/TombGenesisRewardPool.sol\":8936:8940  1e18 */\n      0x0de0b6b3a7640000\n        /* \"contracts/distribution/TombGenesisRewardPool.sol\":8894:8931  user.amount.mul(pool.accPolyPerShare) */\n      tag_270\n        /* \"contracts/distribution/TombGenesisRewardPool.sol\":8910:8914  pool */\n      dup5\n        /* \"contracts/distribution/TombGenesisRewardPool.sol\":8910:8930  pool.accPolyPerShare */\n      0x03\n      add\n      sload\n        /* \"contracts/distribution/TombGenesisRewardPool.sol\":8894:8898  user */\n      dup5\n        /* \"contracts/distribution/TombGenesisRewardPool.sol\":8894:8905  user.amount */\n      0x00\n      add\n      sload\n        /* \"contracts/distribution/TombGenesisRewardPool.sol\":8894:8909  user.amount.mul */\n      tag_135\n      swap1\n        /* \"contracts/distribution/TombGenesisRewardPool.sol\":8894:8931  user.amount.mul(pool.accPolyPerShare) */\n      swap2\n      swap1\n      0xffffffff\n      and\n      jump\t// in\n    tag_270:\n        /* \"contracts/distribution/TombGenesisRewardPool.sol\":8894:8935  user.amount.mul(pool.accPolyPerShare).div */\n      tag_162\n      swap1\n        /* \"contracts/distribution/TombGenesisRewardPool.sol\":8894:8941  user.amount.mul(pool.accPolyPerShare).div(1e18) */\n      swap2\n      swap1\n      0xffffffff\n      and\n      jump\t// in\n    tag_269:\n        /* \"contracts/distribution/TombGenesisRewardPool.sol\":8876:8880  user */\n      dup2\n        /* \"contracts/distribution/TombGenesisRewardPool.sol\":8876:8891  user.rewardDebt */\n      0x01\n      add\n        /* \"contracts/distribution/TombGenesisRewardPool.sol\":8876:8941  user.rewardDebt = user.amount.mul(pool.accPolyPerShare).div(1e18) */\n      dup2\n      swap1\n      sstore\n      pop\n        /* \"contracts/distribution/TombGenesisRewardPool.sol\":8974:8978  _pid */\n      dup8\n        /* \"contracts/distribution/TombGenesisRewardPool.sol\":8965:8972  _sender */\n      dup7\n        /* \"contracts/distribution/TombGenesisRewardPool.sol\":8957:8988  Deposit(_sender, _pid, _amount) */\n      0xffffffffffffffffffffffffffffffffffffffff\n      and\n      0x90890809c654f11d6e72a28fa60149770a0d11ec6c92319d6ceb2bb0a4ea1a15\n        /* \"contracts/distribution/TombGenesisRewardPool.sol\":8980:8987  _amount */\n      dup10\n        /* \"contracts/distribution/TombGenesisRewardPool.sol\":8957:8988  Deposit(_sender, _pid, _amount) */\n      mload(0x40)\n      dup1\n      dup3\n      dup2\n      mstore\n      0x20\n      add\n      swap2\n      pop\n      pop\n      mload(0x40)\n      dup1\n      swap2\n      sub\n      swap1\n      log3\n        /* \"contracts/distribution/TombGenesisRewardPool.sol\":7929:8996  function deposit(uint256 _pid, uint256 _amount) public {\r... */\n      pop\n      pop\n      pop\n      pop\n      pop\n      pop\n      pop\n      pop\n      jump\t// out\n        /* \"contracts/distribution/TombGenesisRewardPool.sol\":5873:6645  function pendingStone(uint256 _pid, address _user) external view returns (uint256) {\r... */\n    tag_111:\n        /* \"contracts/distribution/TombGenesisRewardPool.sol\":5947:5954  uint256 */\n      0x00\n        /* \"contracts/distribution/TombGenesisRewardPool.sol\":5967:5988  PoolInfo storage pool */\n      dup1\n        /* \"contracts/distribution/TombGenesisRewardPool.sol\":5991:5999  poolInfo */\n      0x04\n        /* \"contracts/distribution/TombGenesisRewardPool.sol\":6000:6004  _pid */\n      dup5\n        /* \"contracts/distribution/TombGenesisRewardPool.sol\":5991:6005  poolInfo[_pid] */\n      dup2\n      sload\n      dup2\n      lt\n      tag_272\n      jumpi\n      invalid\n    tag_272:\n      swap1\n      0x00\n      mstore\n      keccak256(0x00, 0x20)\n      swap1\n      0x05\n      mul\n      add\n        /* \"contracts/distribution/TombGenesisRewardPool.sol\":5967:6005  PoolInfo storage pool = poolInfo[_pid] */\n      swap1\n      pop\n        /* \"contracts/distribution/TombGenesisRewardPool.sol\":6016:6037  UserInfo storage user */\n      0x00\n        /* \"contracts/distribution/TombGenesisRewardPool.sol\":6040:6048  userInfo */\n      0x06\n        /* \"contracts/distribution/TombGenesisRewardPool.sol\":6040:6054  userInfo[_pid] */\n      0x00\n        /* \"contracts/distribution/TombGenesisRewardPool.sol\":6049:6053  _pid */\n      dup7\n        /* \"contracts/distribution/TombGenesisRewardPool.sol\":6040:6054  userInfo[_pid] */\n      dup2\n      mstore\n      0x20\n      add\n      swap1\n      dup2\n      mstore\n      0x20\n      add\n      0x00\n      keccak256\n        /* \"contracts/distribution/TombGenesisRewardPool.sol\":6040:6061  userInfo[_pid][_user] */\n      0x00\n        /* \"contracts/distribution/TombGenesisRewardPool.sol\":6055:6060  _user */\n      dup6\n        /* \"contracts/distribution/TombGenesisRewardPool.sol\":6040:6061  userInfo[_pid][_user] */\n      0xffffffffffffffffffffffffffffffffffffffff\n      and\n      0xffffffffffffffffffffffffffffffffffffffff\n      and\n      dup2\n      mstore\n      0x20\n      add\n      swap1\n      dup2\n      mstore\n      0x20\n      add\n      0x00\n      keccak256\n        /* \"contracts/distribution/TombGenesisRewardPool.sol\":6016:6061  UserInfo storage user = userInfo[_pid][_user] */\n      swap1\n      pop\n        /* \"contracts/distribution/TombGenesisRewardPool.sol\":6072:6095  uint256 accPolyPerShare */\n      0x00\n        /* \"contracts/distribution/TombGenesisRewardPool.sol\":6098:6102  pool */\n      dup3\n        /* \"contracts/distribution/TombGenesisRewardPool.sol\":6098:6118  pool.accPolyPerShare */\n      0x03\n      add\n      sload\n        /* \"contracts/distribution/TombGenesisRewardPool.sol\":6072:6118  uint256 accPolyPerShare = pool.accPolyPerShare */\n      swap1\n      pop\n        /* \"contracts/distribution/TombGenesisRewardPool.sol\":6129:6148  uint256 tokenSupply */\n      0x00\n        /* \"contracts/distribution/TombGenesisRewardPool.sol\":6151:6155  pool */\n      dup4\n        /* \"contracts/distribution/TombGenesisRewardPool.sol\":6151:6161  pool.token */\n      0x00\n      add\n      0x00\n      swap1\n      sload\n      swap1\n      0x0100\n      exp\n      swap1\n      div\n      0xffffffffffffffffffffffffffffffffffffffff\n      and\n        /* \"contracts/distribution/TombGenesisRewardPool.sol\":6151:6171  pool.token.balanceOf */\n      0xffffffffffffffffffffffffffffffffffffffff\n      and\n      0x70a08231\n        /* \"contracts/distribution/TombGenesisRewardPool.sol\":6180:6184  this */\n      address\n        /* \"contracts/distribution/TombGenesisRewardPool.sol\":6151:6186  pool.token.balanceOf(address(this)) */\n      mload(0x40)\n      dup3\n      0xffffffff\n      and\n      0xe0\n      shl\n      dup2\n      mstore\n      0x04\n      add\n      dup1\n      dup3\n      0xffffffffffffffffffffffffffffffffffffffff\n      and\n      dup2\n      mstore\n      0x20\n      add\n      swap2\n      pop\n      pop\n      0x20\n      mload(0x40)\n      dup1\n      dup4\n      sub\n      dup2\n      dup7\n      dup1\n      extcodesize\n      iszero\n      dup1\n      iszero\n      tag_274\n      jumpi\n      0x00\n      dup1\n      revert\n    tag_274:\n      pop\n      gas\n      staticcall\n      iszero\n      dup1\n      iszero\n      tag_276\n      jumpi\n      returndatasize\n      0x00\n      dup1\n      returndatacopy\n      revert(0x00, returndatasize)\n    tag_276:\n      pop\n      pop\n      pop\n      pop\n      mload(0x40)\n      returndatasize\n      0x20\n      dup2\n      lt\n      iszero\n      tag_277\n      jumpi\n      0x00\n      dup1\n      revert\n    tag_277:\n      dup2\n      add\n      swap1\n      dup1\n      dup1\n      mload\n      swap1\n      0x20\n      add\n      swap1\n      swap3\n      swap2\n      swap1\n      pop\n      pop\n      pop\n        /* \"contracts/distribution/TombGenesisRewardPool.sol\":6129:6186  uint256 tokenSupply = pool.token.balanceOf(address(this)) */\n      swap1\n      pop\n        /* \"contracts/distribution/TombGenesisRewardPool.sol\":6219:6223  pool */\n      dup4\n        /* \"contracts/distribution/TombGenesisRewardPool.sol\":6219:6238  pool.lastRewardTime */\n      0x02\n      add\n      sload\n        /* \"contracts/distribution/TombGenesisRewardPool.sol\":6201:6216  block.timestamp */\n      timestamp\n        /* \"contracts/distribution/TombGenesisRewardPool.sol\":6201:6238  block.timestamp > pool.lastRewardTime */\n      gt\n        /* \"contracts/distribution/TombGenesisRewardPool.sol\":6201:6258  block.timestamp > pool.lastRewardTime && tokenSupply != 0 */\n      dup1\n      iszero\n      tag_278\n      jumpi\n      pop\n        /* \"contracts/distribution/TombGenesisRewardPool.sol\":6257:6258  0 */\n      0x00\n        /* \"contracts/distribution/TombGenesisRewardPool.sol\":6242:6253  tokenSupply */\n      dup2\n        /* \"contracts/distribution/TombGenesisRewardPool.sol\":6242:6258  tokenSupply != 0 */\n      eq\n      iszero\n        /* \"contracts/distribution/TombGenesisRewardPool.sol\":6201:6258  block.timestamp > pool.lastRewardTime && tokenSupply != 0 */\n    tag_278:\n        /* \"contracts/distribution/TombGenesisRewardPool.sol\":6197:6557  if (block.timestamp > pool.lastRewardTime && tokenSupply != 0) {\r... */\n      iszero\n      tag_279\n      jumpi\n        /* \"contracts/distribution/TombGenesisRewardPool.sol\":6275:6299  uint256 _generatedReward */\n      0x00\n        /* \"contracts/distribution/TombGenesisRewardPool.sol\":6302:6358  getGeneratedReward(pool.lastRewardTime, block.timestamp) */\n      tag_280\n        /* \"contracts/distribution/TombGenesisRewardPool.sol\":6321:6325  pool */\n      dup6\n        /* \"contracts/distribution/TombGenesisRewardPool.sol\":6321:6340  pool.lastRewardTime */\n      0x02\n      add\n      sload\n        /* \"contracts/distribution/TombGenesisRewardPool.sol\":6342:6357  block.timestamp */\n      timestamp\n        /* \"contracts/distribution/TombGenesisRewardPool.sol\":6302:6320  getGeneratedReward */\n      tag_54\n        /* \"contracts/distribution/TombGenesisRewardPool.sol\":6302:6358  getGeneratedReward(pool.lastRewardTime, block.timestamp) */\n      jump\t// in\n    tag_280:\n        /* \"contracts/distribution/TombGenesisRewardPool.sol\":6275:6358  uint256 _generatedReward = getGeneratedReward(pool.lastRewardTime, block.timestamp) */\n      swap1\n      pop\n        /* \"contracts/distribution/TombGenesisRewardPool.sol\":6373:6392  uint256 _PolyReward */\n      0x00\n        /* \"contracts/distribution/TombGenesisRewardPool.sol\":6395:6453  _generatedReward.mul(pool.allocPoint).div(totalAllocPoint) */\n      tag_281\n        /* \"contracts/distribution/TombGenesisRewardPool.sol\":6437:6452  totalAllocPoint */\n      sload(0x07)\n        /* \"contracts/distribution/TombGenesisRewardPool.sol\":6395:6432  _generatedReward.mul(pool.allocPoint) */\n      tag_282\n        /* \"contracts/distribution/TombGenesisRewardPool.sol\":6416:6420  pool */\n      dup9\n        /* \"contracts/distribution/TombGenesisRewardPool.sol\":6416:6431  pool.allocPoint */\n      0x01\n      add\n      sload\n        /* \"contracts/distribution/TombGenesisRewardPool.sol\":6395:6411  _generatedReward */\n      dup6\n        /* \"contracts/distribution/TombGenesisRewardPool.sol\":6395:6415  _generatedReward.mul */\n      tag_135\n      swap1\n        /* \"contracts/distribution/TombGenesisRewardPool.sol\":6395:6432  _generatedReward.mul(pool.allocPoint) */\n      swap2\n      swap1\n      0xffffffff\n      and\n      jump\t// in\n    tag_282:\n        /* \"contracts/distribution/TombGenesisRewardPool.sol\":6395:6436  _generatedReward.mul(pool.allocPoint).div */\n      tag_162\n      swap1\n        /* \"contracts/distribution/TombGenesisRewardPool.sol\":6395:6453  _generatedReward.mul(pool.allocPoint).div(totalAllocPoint) */\n      swap2\n      swap1\n      0xffffffff\n      and\n      jump\t// in\n    tag_281:\n        /* \"contracts/distribution/TombGenesisRewardPool.sol\":6373:6453  uint256 _PolyReward = _generatedReward.mul(pool.allocPoint).div(totalAllocPoint) */\n      swap1\n      pop\n        /* \"contracts/distribution/TombGenesisRewardPool.sol\":6486:6545  accPolyPerShare.add(_PolyReward.mul(1e18).div(tokenSupply)) */\n      tag_283\n        /* \"contracts/distribution/TombGenesisRewardPool.sol\":6506:6544  _PolyReward.mul(1e18).div(tokenSupply) */\n      tag_284\n        /* \"contracts/distribution/TombGenesisRewardPool.sol\":6532:6543  tokenSupply */\n      dup5\n        /* \"contracts/distribution/TombGenesisRewardPool.sol\":6506:6527  _PolyReward.mul(1e18) */\n      tag_285\n        /* \"contracts/distribution/TombGenesisRewardPool.sol\":6522:6526  1e18 */\n      0x0de0b6b3a7640000\n        /* \"contracts/distribution/TombGenesisRewardPool.sol\":6506:6517  _PolyReward */\n      dup6\n        /* \"contracts/distribution/TombGenesisRewardPool.sol\":6506:6521  _PolyReward.mul */\n      tag_135\n      swap1\n        /* \"contracts/distribution/TombGenesisRewardPool.sol\":6506:6527  _PolyReward.mul(1e18) */\n      swap2\n      swap1\n      0xffffffff\n      and\n      jump\t// in\n    tag_285:\n        /* \"contracts/distribution/TombGenesisRewardPool.sol\":6506:6531  _PolyReward.mul(1e18).div */\n      tag_162\n      swap1\n        /* \"contracts/distribution/TombGenesisRewardPool.sol\":6506:6544  _PolyReward.mul(1e18).div(tokenSupply) */\n      swap2\n      swap1\n      0xffffffff\n      and\n      jump\t// in\n    tag_284:\n        /* \"contracts/distribution/TombGenesisRewardPool.sol\":6486:6501  accPolyPerShare */\n      dup6\n        /* \"contracts/distribution/TombGenesisRewardPool.sol\":6486:6505  accPolyPerShare.add */\n      tag_127\n      swap1\n        /* \"contracts/distribution/TombGenesisRewardPool.sol\":6486:6545  accPolyPerShare.add(_PolyReward.mul(1e18).div(tokenSupply)) */\n      swap2\n      swap1\n      0xffffffff\n      and\n      jump\t// in\n    tag_283:\n        /* \"contracts/distribution/TombGenesisRewardPool.sol\":6468:6545  accPolyPerShare = accPolyPerShare.add(_PolyReward.mul(1e18).div(tokenSupply)) */\n      swap4\n      pop\n        /* \"contracts/distribution/TombGenesisRewardPool.sol\":6197:6557  if (block.timestamp > pool.lastRewardTime && tokenSupply != 0) {\r... */\n      pop\n      pop\n    tag_279:\n        /* \"contracts/distribution/TombGenesisRewardPool.sol\":6574:6637  user.amount.mul(accPolyPerShare).div(1e18).sub(user.rewardDebt) */\n      tag_286\n        /* \"contracts/distribution/TombGenesisRewardPool.sol\":6621:6625  user */\n      dup4\n        /* \"contracts/distribution/TombGenesisRewardPool.sol\":6621:6636  user.rewardDebt */\n      0x01\n      add\n      sload\n        /* \"contracts/distribution/TombGenesisRewardPool.sol\":6574:6616  user.amount.mul(accPolyPerShare).div(1e18) */\n      tag_287\n        /* \"contracts/distribution/TombGenesisRewardPool.sol\":6611:6615  1e18 */\n      0x0de0b6b3a7640000\n        /* \"contracts/distribution/TombGenesisRewardPool.sol\":6574:6606  user.amount.mul(accPolyPerShare) */\n      tag_288\n        /* \"contracts/distribution/TombGenesisRewardPool.sol\":6590:6605  accPolyPerShare */\n      dup7\n        /* \"contracts/distribution/TombGenesisRewardPool.sol\":6574:6578  user */\n      dup9\n        /* \"contracts/distribution/TombGenesisRewardPool.sol\":6574:6585  user.amount */\n      0x00\n      add\n      sload\n        /* \"contracts/distribution/TombGenesisRewardPool.sol\":6574:6589  user.amount.mul */\n      tag_135\n      swap1\n        /* \"contracts/distribution/TombGenesisRewardPool.sol\":6574:6606  user.amount.mul(accPolyPerShare) */\n      swap2\n      swap1\n      0xffffffff\n      and\n      jump\t// in\n    tag_288:\n        /* \"contracts/distribution/TombGenesisRewardPool.sol\":6574:6610  user.amount.mul(accPolyPerShare).div */\n      tag_162\n      swap1\n        /* \"contracts/distribution/TombGenesisRewardPool.sol\":6574:6616  user.amount.mul(accPolyPerShare).div(1e18) */\n      swap2\n      swap1\n      0xffffffff\n      and\n      jump\t// in\n    tag_287:\n        /* \"contracts/distribution/TombGenesisRewardPool.sol\":6574:6620  user.amount.mul(accPolyPerShare).div(1e18).sub */\n      tag_126\n      swap1\n        /* \"contracts/distribution/TombGenesisRewardPool.sol\":6574:6637  user.amount.mul(accPolyPerShare).div(1e18).sub(user.rewardDebt) */\n      swap2\n      swap1\n      0xffffffff\n      and\n      jump\t// in\n    tag_286:\n        /* \"contracts/distribution/TombGenesisRewardPool.sol\":6567:6637  return user.amount.mul(accPolyPerShare).div(1e18).sub(user.rewardDebt) */\n      swap5\n      pop\n      pop\n      pop\n      pop\n      pop\n        /* \"contracts/distribution/TombGenesisRewardPool.sol\":5873:6645  function pendingStone(uint256 _pid, address _user) external view returns (uint256) {\r... */\n      swap3\n      swap2\n      pop\n      pop\n      jump\t// out\n        /* \"@openzeppelin/contracts/access/Ownable.sol\":2065:2305  function transferOwnership(address newOwner) public virtual onlyOwner {... */\n    tag_114:\n        /* \"@openzeppelin/contracts/access/Ownable.sol\":1362:1374  _msgSender() */\n      tag_290\n        /* \"@openzeppelin/contracts/access/Ownable.sol\":1362:1372  _msgSender */\n      tag_147\n        /* \"@openzeppelin/contracts/access/Ownable.sol\":1362:1374  _msgSender() */\n      jump\t// in\n    tag_290:\n        /* \"@openzeppelin/contracts/access/Ownable.sol\":1351:1374  owner() == _msgSender() */\n      0xffffffffffffffffffffffffffffffffffffffff\n      and\n        /* \"@openzeppelin/contracts/access/Ownable.sol\":1351:1358  owner() */\n      tag_291\n        /* \"@openzeppelin/contracts/access/Ownable.sol\":1351:1356  owner */\n      tag_87\n        /* \"@openzeppelin/contracts/access/Ownable.sol\":1351:1358  owner() */\n      jump\t// in\n    tag_291:\n        /* \"@openzeppelin/contracts/access/Ownable.sol\":1351:1374  owner() == _msgSender() */\n      0xffffffffffffffffffffffffffffffffffffffff\n      and\n      eq\n        /* \"@openzeppelin/contracts/access/Ownable.sol\":1343:1411  require(owner() == _msgSender(), \"Ownable: caller is not the owner\") */\n      tag_292\n      jumpi\n      mload(0x40)\n      0x08c379a000000000000000000000000000000000000000000000000000000000\n      dup2\n      mstore\n      0x04\n      add\n      dup1\n      dup1\n      0x20\n      add\n      dup3\n      dup2\n      sub\n      dup3\n      mstore\n      0x20\n      dup2\n      mstore\n      0x20\n      add\n      dup1\n      0x4f776e61626c653a2063616c6c6572206973206e6f7420746865206f776e6572\n      dup2\n      mstore\n      pop\n      0x20\n      add\n      swap2\n      pop\n      pop\n      mload(0x40)\n      dup1\n      swap2\n      sub\n      swap1\n      revert\n    tag_292:\n        /* \"@openzeppelin/contracts/access/Ownable.sol\":2173:2174  0 */\n      0x00\n        /* \"@openzeppelin/contracts/access/Ownable.sol\":2153:2175  newOwner != address(0) */\n      0xffffffffffffffffffffffffffffffffffffffff\n      and\n        /* \"@openzeppelin/contracts/access/Ownable.sol\":2153:2161  newOwner */\n      dup2\n        /* \"@openzeppelin/contracts/access/Ownable.sol\":2153:2175  newOwner != address(0) */\n      0xffffffffffffffffffffffffffffffffffffffff\n      and\n      eq\n      iszero\n        /* \"@openzeppelin/contracts/access/Ownable.sol\":2145:2218  require(newOwner != address(0), \"Ownable: new owner is the zero address\") */\n      tag_294\n      jumpi\n      mload(0x40)\n      0x08c379a000000000000000000000000000000000000000000000000000000000\n      dup2\n      mstore\n      0x04\n      add\n      dup1\n      dup1\n      0x20\n      add\n      dup3\n      dup2\n      sub\n      dup3\n      mstore\n      0x26\n      dup2\n      mstore\n      0x20\n      add\n      dup1\n      data_245f15ff17f551913a7a18385165551503906a406f905ac1c2437281a7cd0cfe\n      0x26\n      swap2\n      codecopy\n      0x40\n      add\n      swap2\n      pop\n      pop\n      mload(0x40)\n      dup1\n      swap2\n      sub\n      swap1\n      revert\n    tag_294:\n        /* \"@openzeppelin/contracts/access/Ownable.sol\":2262:2270  newOwner */\n      dup1\n        /* \"@openzeppelin/contracts/access/Ownable.sol\":2233:2271  OwnershipTransferred(_owner, newOwner) */\n      0xffffffffffffffffffffffffffffffffffffffff\n      and\n        /* \"@openzeppelin/contracts/access/Ownable.sol\":2254:2260  _owner */\n      0x00\n      dup1\n      sload\n      swap1\n      0x0100\n      exp\n      swap1\n      div\n      0xffffffffffffffffffffffffffffffffffffffff\n      and\n        /* \"@openzeppelin/contracts/access/Ownable.sol\":2233:2271  OwnershipTransferred(_owner, newOwner) */\n      0xffffffffffffffffffffffffffffffffffffffff\n      and\n      0x8be0079c531659141344cd1fd0a4f28419497f9722a3daafe3b4186f6b6457e0\n      mload(0x40)\n      mload(0x40)\n      dup1\n      swap2\n      sub\n      swap1\n      log3\n        /* \"@openzeppelin/contracts/access/Ownable.sol\":2290:2298  newOwner */\n      dup1\n        /* \"@openzeppelin/contracts/access/Ownable.sol\":2281:2287  _owner */\n      0x00\n      dup1\n        /* \"@openzeppelin/contracts/access/Ownable.sol\":2281:2298  _owner = newOwner */\n      0x0100\n      exp\n      dup2\n      sload\n      dup2\n      0xffffffffffffffffffffffffffffffffffffffff\n      mul\n      not\n      and\n      swap1\n      dup4\n      0xffffffffffffffffffffffffffffffffffffffff\n      and\n      mul\n      or\n      swap1\n      sstore\n      pop\n        /* \"@openzeppelin/contracts/access/Ownable.sol\":2065:2305  function transferOwnership(address newOwner) public virtual onlyOwner {... */\n      pop\n      jump\t// out\n        /* \"@openzeppelin/contracts/utils/math/SafeMath.sol\":3136:3291  function sub(uint256 a, uint256 b) internal pure returns (uint256) {... */\n    tag_126:\n        /* \"@openzeppelin/contracts/utils/math/SafeMath.sol\":3194:3201  uint256 */\n      0x00\n        /* \"@openzeppelin/contracts/utils/math/SafeMath.sol\":3226:3227  a */\n      dup3\n        /* \"@openzeppelin/contracts/utils/math/SafeMath.sol\":3221:3222  b */\n      dup3\n        /* \"@openzeppelin/contracts/utils/math/SafeMath.sol\":3221:3227  b <= a */\n      gt\n      iszero\n        /* \"@openzeppelin/contracts/utils/math/SafeMath.sol\":3213:3262  require(b <= a, \"SafeMath: subtraction overflow\") */\n      tag_296\n      jumpi\n      mload(0x40)\n      0x08c379a000000000000000000000000000000000000000000000000000000000\n      dup2\n      mstore\n      0x04\n      add\n      dup1\n      dup1\n      0x20\n      add\n      dup3\n      dup2\n      sub\n      dup3\n      mstore\n      0x1e\n      dup2\n      mstore\n      0x20\n      add\n      dup1\n      0x536166654d6174683a207375627472616374696f6e206f766572666c6f770000\n      dup2\n      mstore\n      pop\n      0x20\n      add\n      swap2\n      pop\n      pop\n      mload(0x40)\n      dup1\n      swap2\n      sub\n      swap1\n      revert\n    tag_296:\n        /* \"@openzeppelin/contracts/utils/math/SafeMath.sol\":3283:3284  b */\n      dup2\n        /* \"@openzeppelin/contracts/utils/math/SafeMath.sol\":3279:3280  a */\n      dup4\n        /* \"@openzeppelin/contracts/utils/math/SafeMath.sol\":3279:3284  a - b */\n      sub\n        /* \"@openzeppelin/contracts/utils/math/SafeMath.sol\":3272:3284  return a - b */\n      swap1\n      pop\n        /* \"@openzeppelin/contracts/utils/math/SafeMath.sol\":3136:3291  function sub(uint256 a, uint256 b) internal pure returns (uint256) {... */\n      swap3\n      swap2\n      pop\n      pop\n      jump\t// out\n        /* \"@openzeppelin/contracts/utils/math/SafeMath.sol\":2690:2865  function add(uint256 a, uint256 b) internal pure returns (uint256) {... */\n    tag_127:\n        /* \"@openzeppelin/contracts/utils/math/SafeMath.sol\":2748:2755  uint256 */\n      0x00\n        /* \"@openzeppelin/contracts/utils/math/SafeMath.sol\":2767:2776  uint256 c */\n      dup1\n        /* \"@openzeppelin/contracts/utils/math/SafeMath.sol\":2783:2784  b */\n      dup3\n        /* \"@openzeppelin/contracts/utils/math/SafeMath.sol\":2779:2780  a */\n      dup5\n        /* \"@openzeppelin/contracts/utils/math/SafeMath.sol\":2779:2784  a + b */\n      add\n        /* \"@openzeppelin/contracts/utils/math/SafeMath.sol\":2767:2784  uint256 c = a + b */\n      swap1\n      pop\n        /* \"@openzeppelin/contracts/utils/math/SafeMath.sol\":2807:2808  a */\n      dup4\n        /* \"@openzeppelin/contracts/utils/math/SafeMath.sol\":2802:2803  c */\n      dup2\n        /* \"@openzeppelin/contracts/utils/math/SafeMath.sol\":2802:2808  c >= a */\n      lt\n      iszero\n        /* \"@openzeppelin/contracts/utils/math/SafeMath.sol\":2794:2840  require(c >= a, \"SafeMath: addition overflow\") */\n      tag_298\n      jumpi\n      mload(0x40)\n      0x08c379a000000000000000000000000000000000000000000000000000000000\n      dup2\n      mstore\n      0x04\n      add\n      dup1\n      dup1\n      0x20\n      add\n      dup3\n      dup2\n      sub\n      dup3\n      mstore\n      0x1b\n      dup2\n      mstore\n      0x20\n      add\n      dup1\n      0x536166654d6174683a206164646974696f6e206f766572666c6f770000000000\n      dup2\n      mstore\n      pop\n      0x20\n      add\n      swap2\n      pop\n      pop\n      mload(0x40)\n      dup1\n      swap2\n      sub\n      swap1\n      revert\n    tag_298:\n        /* \"@openzeppelin/contracts/utils/math/SafeMath.sol\":2857:2858  c */\n      dup1\n        /* \"@openzeppelin/contracts/utils/math/SafeMath.sol\":2850:2858  return c */\n      swap2\n      pop\n      pop\n        /* \"@openzeppelin/contracts/utils/math/SafeMath.sol\":2690:2865  function add(uint256 a, uint256 b) internal pure returns (uint256) {... */\n      swap3\n      swap2\n      pop\n      pop\n      jump\t// out\n        /* \"@openzeppelin/contracts/utils/math/SafeMath.sol\":3538:3753  function mul(uint256 a, uint256 b) internal pure returns (uint256) {... */\n    tag_135:\n        /* \"@openzeppelin/contracts/utils/math/SafeMath.sol\":3596:3603  uint256 */\n      0x00\n        /* \"@openzeppelin/contracts/utils/math/SafeMath.sol\":3624:3625  0 */\n      dup1\n        /* \"@openzeppelin/contracts/utils/math/SafeMath.sol\":3619:3620  a */\n      dup4\n        /* \"@openzeppelin/contracts/utils/math/SafeMath.sol\":3619:3625  a == 0 */\n      eq\n        /* \"@openzeppelin/contracts/utils/math/SafeMath.sol\":3615:3635  if (a == 0) return 0 */\n      iszero\n      tag_300\n      jumpi\n        /* \"@openzeppelin/contracts/utils/math/SafeMath.sol\":3634:3635  0 */\n      0x00\n        /* \"@openzeppelin/contracts/utils/math/SafeMath.sol\":3627:3635  return 0 */\n      swap1\n      pop\n      jump(tag_299)\n        /* \"@openzeppelin/contracts/utils/math/SafeMath.sol\":3615:3635  if (a == 0) return 0 */\n    tag_300:\n        /* \"@openzeppelin/contracts/utils/math/SafeMath.sol\":3645:3654  uint256 c */\n      0x00\n        /* \"@openzeppelin/contracts/utils/math/SafeMath.sol\":3661:3662  b */\n      dup3\n        /* \"@openzeppelin/contracts/utils/math/SafeMath.sol\":3657:3658  a */\n      dup5\n        /* \"@openzeppelin/contracts/utils/math/SafeMath.sol\":3657:3662  a * b */\n      mul\n        /* \"@openzeppelin/contracts/utils/math/SafeMath.sol\":3645:3662  uint256 c = a * b */\n      swap1\n      pop\n        /* \"@openzeppelin/contracts/utils/math/SafeMath.sol\":3689:3690  b */\n      dup3\n        /* \"@openzeppelin/contracts/utils/math/SafeMath.sol\":3684:3685  a */\n      dup5\n        /* \"@openzeppelin/contracts/utils/math/SafeMath.sol\":3680:3681  c */\n      dup3\n        /* \"@openzeppelin/contracts/utils/math/SafeMath.sol\":3680:3685  c / a */\n      dup2\n      tag_301\n      jumpi\n      invalid\n    tag_301:\n      div\n        /* \"@openzeppelin/contracts/utils/math/SafeMath.sol\":3680:3690  c / a == b */\n      eq\n        /* \"@openzeppelin/contracts/utils/math/SafeMath.sol\":3672:3728  require(c / a == b, \"SafeMath: multiplication overflow\") */\n      tag_302\n      jumpi\n      mload(0x40)\n      0x08c379a000000000000000000000000000000000000000000000000000000000\n      dup2\n      mstore\n      0x04\n      add\n      dup1\n      dup1\n      0x20\n      add\n      dup3\n      dup2\n      sub\n      dup3\n      mstore\n      0x21\n      dup2\n      mstore\n      0x20\n      add\n      dup1\n      data_9113bb53c2876a3805b2c9242029423fc540a728243ce887ab24c82cf119fba3\n      0x21\n      swap2\n      codecopy\n      0x40\n      add\n      swap2\n      pop\n      pop\n      mload(0x40)\n      dup1\n      swap2\n      sub\n      swap1\n      revert\n    tag_302:\n        /* \"@openzeppelin/contracts/utils/math/SafeMath.sol\":3745:3746  c */\n      dup1\n        /* \"@openzeppelin/contracts/utils/math/SafeMath.sol\":3738:3746  return c */\n      swap2\n      pop\n      pop\n        /* \"@openzeppelin/contracts/utils/math/SafeMath.sol\":3538:3753  function mul(uint256 a, uint256 b) internal pure returns (uint256) {... */\n    tag_299:\n      swap3\n      swap2\n      pop\n      pop\n      jump\t// out\n        /* \"@openzeppelin/contracts/utils/Context.sol\":596:692  function _msgSender() internal view virtual returns (address) {... */\n    tag_147:\n        /* \"@openzeppelin/contracts/utils/Context.sol\":649:656  address */\n      0x00\n        /* \"@openzeppelin/contracts/utils/Context.sol\":675:685  msg.sender */\n      caller\n        /* \"@openzeppelin/contracts/utils/Context.sol\":668:685  return msg.sender */\n      swap1\n      pop\n        /* \"@openzeppelin/contracts/utils/Context.sol\":596:692  function _msgSender() internal view virtual returns (address) {... */\n      swap1\n      jump\t// out\n        /* \"contracts/owner/Operator.sol\":1017:1361  function _transferOperator(address newOperator_) internal {\r... */\n    tag_152:\n        /* \"contracts/owner/Operator.sol\":1132:1133  0 */\n      0x00\n        /* \"contracts/owner/Operator.sol\":1108:1134  newOperator_ != address(0) */\n      0xffffffffffffffffffffffffffffffffffffffff\n      and\n        /* \"contracts/owner/Operator.sol\":1108:1120  newOperator_ */\n      dup2\n        /* \"contracts/owner/Operator.sol\":1108:1134  newOperator_ != address(0) */\n      0xffffffffffffffffffffffffffffffffffffffff\n      and\n      eq\n      iszero\n        /* \"contracts/owner/Operator.sol\":1086:1207  require(\r... */\n      tag_305\n      jumpi\n      mload(0x40)\n      0x08c379a000000000000000000000000000000000000000000000000000000000\n      dup2\n      mstore\n      0x04\n      add\n      dup1\n      dup1\n      0x20\n      add\n      dup3\n      dup2\n      sub\n      dup3\n      mstore\n      0x2d\n      dup2\n      mstore\n      0x20\n      add\n      dup1\n      data_756508c1c0554725dd91ce0028667672a5318d736a5e4bcd98b6bc8fe98c3dc7\n      0x2d\n      swap2\n      codecopy\n      0x40\n      add\n      swap2\n      pop\n      pop\n      mload(0x40)\n      dup1\n      swap2\n      sub\n      swap1\n      revert\n    tag_305:\n        /* \"contracts/owner/Operator.sol\":1255:1267  newOperator_ */\n      dup1\n        /* \"contracts/owner/Operator.sol\":1223:1268  OperatorTransferred(address(0), newOperator_) */\n      0xffffffffffffffffffffffffffffffffffffffff\n      and\n        /* \"contracts/owner/Operator.sol\":1251:1252  0 */\n      0x00\n        /* \"contracts/owner/Operator.sol\":1223:1268  OperatorTransferred(address(0), newOperator_) */\n      0xffffffffffffffffffffffffffffffffffffffff\n      and\n      0x74da04524d50c64947f5dd5381ef1a4dca5cba8ed1d816243f9e48aa0b5617ed\n      mload(0x40)\n      mload(0x40)\n      dup1\n      swap2\n      sub\n      swap1\n      log3\n        /* \"contracts/owner/Operator.sol\":1279:1318  Ownable.transferOwnership(newOperator_) */\n      tag_306\n        /* \"contracts/owner/Operator.sol\":1305:1317  newOperator_ */\n      dup2\n        /* \"contracts/owner/Operator.sol\":1279:1304  Ownable.transferOwnership */\n      tag_114\n        /* \"contracts/owner/Operator.sol\":1279:1318  Ownable.transferOwnership(newOperator_) */\n      jump\t// in\n    tag_306:\n        /* \"contracts/owner/Operator.sol\":1341:1353  newOperator_ */\n      dup1\n        /* \"contracts/owner/Operator.sol\":1329:1338  _operator */\n      0x01\n      0x00\n        /* \"contracts/owner/Operator.sol\":1329:1353  _operator = newOperator_ */\n      0x0100\n      exp\n      dup2\n      sload\n      dup2\n      0xffffffffffffffffffffffffffffffffffffffff\n      mul\n      not\n      and\n      swap1\n      dup4\n      0xffffffffffffffffffffffffffffffffffffffff\n      and\n      mul\n      or\n      swap1\n      sstore\n      pop\n        /* \"contracts/owner/Operator.sol\":1017:1361  function _transferOperator(address newOperator_) internal {\r... */\n      pop\n      jump\t// out\n        /* \"@openzeppelin/contracts/utils/math/SafeMath.sol\":4217:4367  function div(uint256 a, uint256 b) internal pure returns (uint256) {... */\n    tag_162:\n        /* \"@openzeppelin/contracts/utils/math/SafeMath.sol\":4275:4282  uint256 */\n      0x00\n        /* \"@openzeppelin/contracts/utils/math/SafeMath.sol\":4306:4307  0 */\n      dup1\n        /* \"@openzeppelin/contracts/utils/math/SafeMath.sol\":4302:4303  b */\n      dup3\n        /* \"@openzeppelin/contracts/utils/math/SafeMath.sol\":4302:4307  b > 0 */\n      gt\n        /* \"@openzeppelin/contracts/utils/math/SafeMath.sol\":4294:4338  require(b > 0, \"SafeMath: division by zero\") */\n      tag_308\n      jumpi\n      mload(0x40)\n      0x08c379a000000000000000000000000000000000000000000000000000000000\n      dup2\n      mstore\n      0x04\n      add\n      dup1\n      dup1\n      0x20\n      add\n      dup3\n      dup2\n      sub\n      dup3\n      mstore\n      0x1a\n      dup2\n      mstore\n      0x20\n      add\n      dup1\n      0x536166654d6174683a206469766973696f6e206279207a65726f000000000000\n      dup2\n      mstore\n      pop\n      0x20\n      add\n      swap2\n      pop\n      pop\n      mload(0x40)\n      dup1\n      swap2\n      sub\n      swap1\n      revert\n    tag_308:\n        /* \"@openzeppelin/contracts/utils/math/SafeMath.sol\":4359:4360  b */\n      dup2\n        /* \"@openzeppelin/contracts/utils/math/SafeMath.sol\":4355:4356  a */\n      dup4\n        /* \"@openzeppelin/contracts/utils/math/SafeMath.sol\":4355:4360  a / b */\n      dup2\n      tag_309\n      jumpi\n      invalid\n    tag_309:\n      div\n        /* \"@openzeppelin/contracts/utils/math/SafeMath.sol\":4348:4360  return a / b */\n      swap1\n      pop\n        /* \"@openzeppelin/contracts/utils/math/SafeMath.sol\":4217:4367  function div(uint256 a, uint256 b) internal pure returns (uint256) {... */\n      swap3\n      swap2\n      pop\n      pop\n      jump\t// out\n        /* \"contracts/distribution/TombGenesisRewardPool.sol\":10404:10769  function safePolyTransfer(address _to, uint256 _amount) internal {\r... */\n    tag_165:\n        /* \"contracts/distribution/TombGenesisRewardPool.sol\":10480:10500  uint256 _PolyBalance */\n      0x00\n        /* \"contracts/distribution/TombGenesisRewardPool.sol\":10503:10507  Poly */\n      0x02\n      0x00\n      swap1\n      sload\n      swap1\n      0x0100\n      exp\n      swap1\n      div\n      0xffffffffffffffffffffffffffffffffffffffff\n      and\n        /* \"contracts/distribution/TombGenesisRewardPool.sol\":10503:10517  Poly.balanceOf */\n      0xffffffffffffffffffffffffffffffffffffffff\n      and\n      0x70a08231\n        /* \"contracts/distribution/TombGenesisRewardPool.sol\":10526:10530  this */\n      address\n        /* \"contracts/distribution/TombGenesisRewardPool.sol\":10503:10532  Poly.balanceOf(address(this)) */\n      mload(0x40)\n      dup3\n      0xffffffff\n      and\n      0xe0\n      shl\n      dup2\n      mstore\n      0x04\n      add\n      dup1\n      dup3\n      0xffffffffffffffffffffffffffffffffffffffff\n      and\n      dup2\n      mstore\n      0x20\n      add\n      swap2\n      pop\n      pop\n      0x20\n      mload(0x40)\n      dup1\n      dup4\n      sub\n      dup2\n      dup7\n      dup1\n      extcodesize\n      iszero\n      dup1\n      iszero\n      tag_311\n      jumpi\n      0x00\n      dup1\n      revert\n    tag_311:\n      pop\n      gas\n      staticcall\n      iszero\n      dup1\n      iszero\n      tag_313\n      jumpi\n      returndatasize\n      0x00\n      dup1\n      returndatacopy\n      revert(0x00, returndatasize)\n    tag_313:\n      pop\n      pop\n      pop\n      pop\n      mload(0x40)\n      returndatasize\n      0x20\n      dup2\n      lt\n      iszero\n      tag_314\n      jumpi\n      0x00\n      dup1\n      revert\n    tag_314:\n      dup2\n      add\n      swap1\n      dup1\n      dup1\n      mload\n      swap1\n      0x20\n      add\n      swap1\n      swap3\n      swap2\n      swap1\n      pop\n      pop\n      pop\n        /* \"contracts/distribution/TombGenesisRewardPool.sol\":10480:10532  uint256 _PolyBalance = Poly.balanceOf(address(this)) */\n      swap1\n      pop\n        /* \"contracts/distribution/TombGenesisRewardPool.sol\":10562:10563  0 */\n      0x00\n        /* \"contracts/distribution/TombGenesisRewardPool.sol\":10547:10559  _PolyBalance */\n      dup2\n        /* \"contracts/distribution/TombGenesisRewardPool.sol\":10547:10563  _PolyBalance > 0 */\n      gt\n        /* \"contracts/distribution/TombGenesisRewardPool.sol\":10543:10762  if (_PolyBalance > 0) {\r... */\n      iszero\n      tag_315\n      jumpi\n        /* \"contracts/distribution/TombGenesisRewardPool.sol\":10594:10606  _PolyBalance */\n      dup1\n        /* \"contracts/distribution/TombGenesisRewardPool.sol\":10584:10591  _amount */\n      dup3\n        /* \"contracts/distribution/TombGenesisRewardPool.sol\":10584:10606  _amount > _PolyBalance */\n      gt\n        /* \"contracts/distribution/TombGenesisRewardPool.sol\":10580:10751  if (_amount > _PolyBalance) {\r... */\n      iszero\n      tag_316\n      jumpi\n        /* \"contracts/distribution/TombGenesisRewardPool.sol\":10627:10663  Poly.safeTransfer(_to, _PolyBalance) */\n      tag_317\n        /* \"contracts/distribution/TombGenesisRewardPool.sol\":10645:10648  _to */\n      dup4\n        /* \"contracts/distribution/TombGenesisRewardPool.sol\":10650:10662  _PolyBalance */\n      dup3\n        /* \"contracts/distribution/TombGenesisRewardPool.sol\":10627:10631  Poly */\n      0x02\n      0x00\n      swap1\n      sload\n      swap1\n      0x0100\n      exp\n      swap1\n      div\n      0xffffffffffffffffffffffffffffffffffffffff\n      and\n        /* \"contracts/distribution/TombGenesisRewardPool.sol\":10627:10644  Poly.safeTransfer */\n      0xffffffffffffffffffffffffffffffffffffffff\n      and\n      tag_169\n      swap1\n        /* \"contracts/distribution/TombGenesisRewardPool.sol\":10627:10663  Poly.safeTransfer(_to, _PolyBalance) */\n      swap3\n      swap2\n      swap1\n      0xffffffff\n      and\n      jump\t// in\n    tag_317:\n        /* \"contracts/distribution/TombGenesisRewardPool.sol\":10580:10751  if (_amount > _PolyBalance) {\r... */\n      jump(tag_318)\n    tag_316:\n        /* \"contracts/distribution/TombGenesisRewardPool.sol\":10704:10735  Poly.safeTransfer(_to, _amount) */\n      tag_319\n        /* \"contracts/distribution/TombGenesisRewardPool.sol\":10722:10725  _to */\n      dup4\n        /* \"contracts/distribution/TombGenesisRewardPool.sol\":10727:10734  _amount */\n      dup4\n        /* \"contracts/distribution/TombGenesisRewardPool.sol\":10704:10708  Poly */\n      0x02\n      0x00\n      swap1\n      sload\n      swap1\n      0x0100\n      exp\n      swap1\n      div\n      0xffffffffffffffffffffffffffffffffffffffff\n      and\n        /* \"contracts/distribution/TombGenesisRewardPool.sol\":10704:10721  Poly.safeTransfer */\n      0xffffffffffffffffffffffffffffffffffffffff\n      and\n      tag_169\n      swap1\n        /* \"contracts/distribution/TombGenesisRewardPool.sol\":10704:10735  Poly.safeTransfer(_to, _amount) */\n      swap3\n      swap2\n      swap1\n      0xffffffff\n      and\n      jump\t// in\n    tag_319:\n        /* \"contracts/distribution/TombGenesisRewardPool.sol\":10580:10751  if (_amount > _PolyBalance) {\r... */\n    tag_318:\n        /* \"contracts/distribution/TombGenesisRewardPool.sol\":10543:10762  if (_PolyBalance > 0) {\r... */\n    tag_315:\n        /* \"contracts/distribution/TombGenesisRewardPool.sol\":10404:10769  function safePolyTransfer(address _to, uint256 _amount) internal {\r... */\n      pop\n      pop\n      pop\n      jump\t// out\n        /* \"@openzeppelin/contracts/token/ERC20/utils/SafeERC20.sol\":717:892  function safeTransfer(IERC20 token, address to, uint256 value) internal {... */\n    tag_169:\n        /* \"@openzeppelin/contracts/token/ERC20/utils/SafeERC20.sol\":799:885  _callOptionalReturn(token, abi.encodeWithSelector(token.transfer.selector, to, value)) */\n      tag_321\n        /* \"@openzeppelin/contracts/token/ERC20/utils/SafeERC20.sol\":819:824  token */\n      dup4\n        /* \"@openzeppelin/contracts/token/ERC20/utils/SafeERC20.sol\":849:872  token.transfer.selector */\n      shl(0xe0, 0xa9059cbb)\n        /* \"@openzeppelin/contracts/token/ERC20/utils/SafeERC20.sol\":874:876  to */\n      dup5\n        /* \"@openzeppelin/contracts/token/ERC20/utils/SafeERC20.sol\":878:883  value */\n      dup5\n        /* \"@openzeppelin/contracts/token/ERC20/utils/SafeERC20.sol\":826:884  abi.encodeWithSelector(token.transfer.selector, to, value) */\n      add(0x24, mload(0x40))\n      dup1\n      dup4\n      0xffffffffffffffffffffffffffffffffffffffff\n      and\n      dup2\n      mstore\n      0x20\n      add\n      dup3\n      dup2\n      mstore\n      0x20\n      add\n      swap3\n      pop\n      pop\n      pop\n      mload(0x40)\n      0x20\n      dup2\n      dup4\n      sub\n      sub\n      dup2\n      mstore\n      swap1\n      0x40\n      mstore\n      swap1\n      not(0xffffffffffffffffffffffffffffffffffffffffffffffffffffffff)\n      and\n      0x20\n      dup3\n      add\n      dup1\n      mload\n      0xffffffffffffffffffffffffffffffffffffffffffffffffffffffff\n      dup4\n      dup2\n      dup4\n      and\n      or\n      dup4\n      mstore\n      pop\n      pop\n      pop\n      pop\n        /* \"@openzeppelin/contracts/token/ERC20/utils/SafeERC20.sol\":799:818  _callOptionalReturn */\n      tag_322\n        /* \"@openzeppelin/contracts/token/ERC20/utils/SafeERC20.sol\":799:885  _callOptionalReturn(token, abi.encodeWithSelector(token.transfer.selector, to, value)) */\n      jump\t// in\n    tag_321:\n        /* \"@openzeppelin/contracts/token/ERC20/utils/SafeERC20.sol\":717:892  function safeTransfer(IERC20 token, address to, uint256 value) internal {... */\n      pop\n      pop\n      pop\n      jump\t// out\n        /* \"contracts/distribution/TombGenesisRewardPool.sol\":3016:3277  function checkPoolDuplicate(IERC20 _token) internal view {\r... */\n    tag_224:\n        /* \"contracts/distribution/TombGenesisRewardPool.sol\":3084:3098  uint256 length */\n      0x00\n        /* \"contracts/distribution/TombGenesisRewardPool.sol\":3101:3109  poolInfo */\n      0x04\n        /* \"contracts/distribution/TombGenesisRewardPool.sol\":3101:3116  poolInfo.length */\n      dup1\n      sload\n      swap1\n      pop\n        /* \"contracts/distribution/TombGenesisRewardPool.sol\":3084:3116  uint256 length = poolInfo.length */\n      swap1\n      pop\n        /* \"contracts/distribution/TombGenesisRewardPool.sol\":3132:3143  uint256 pid */\n      0x00\n        /* \"contracts/distribution/TombGenesisRewardPool.sol\":3127:3270  for (uint256 pid = 0; pid < length; ++pid) {\r... */\n    tag_324:\n        /* \"contracts/distribution/TombGenesisRewardPool.sol\":3155:3161  length */\n      dup2\n        /* \"contracts/distribution/TombGenesisRewardPool.sol\":3149:3152  pid */\n      dup2\n        /* \"contracts/distribution/TombGenesisRewardPool.sol\":3149:3161  pid < length */\n      lt\n        /* \"contracts/distribution/TombGenesisRewardPool.sol\":3127:3270  for (uint256 pid = 0; pid < length; ++pid) {\r... */\n      iszero\n      tag_325\n      jumpi\n        /* \"contracts/distribution/TombGenesisRewardPool.sol\":3216:3222  _token */\n      dup3\n        /* \"contracts/distribution/TombGenesisRewardPool.sol\":3193:3222  poolInfo[pid].token != _token */\n      0xffffffffffffffffffffffffffffffffffffffff\n      and\n        /* \"contracts/distribution/TombGenesisRewardPool.sol\":3193:3201  poolInfo */\n      0x04\n        /* \"contracts/distribution/TombGenesisRewardPool.sol\":3202:3205  pid */\n      dup3\n        /* \"contracts/distribution/TombGenesisRewardPool.sol\":3193:3206  poolInfo[pid] */\n      dup2\n      sload\n      dup2\n      lt\n      tag_327\n      jumpi\n      invalid\n    tag_327:\n      swap1\n      0x00\n      mstore\n      keccak256(0x00, 0x20)\n      swap1\n      0x05\n      mul\n      add\n        /* \"contracts/distribution/TombGenesisRewardPool.sol\":3193:3212  poolInfo[pid].token */\n      0x00\n      add\n      0x00\n      swap1\n      sload\n      swap1\n      0x0100\n      exp\n      swap1\n      div\n      0xffffffffffffffffffffffffffffffffffffffff\n      and\n        /* \"contracts/distribution/TombGenesisRewardPool.sol\":3193:3222  poolInfo[pid].token != _token */\n      0xffffffffffffffffffffffffffffffffffffffff\n      and\n      eq\n      iszero\n        /* \"contracts/distribution/TombGenesisRewardPool.sol\":3185:3258  require(poolInfo[pid].token != _token, \"PolyGenesisPool: existing pool?\") */\n      tag_329\n      jumpi\n      mload(0x40)\n      0x08c379a000000000000000000000000000000000000000000000000000000000\n      dup2\n      mstore\n      0x04\n      add\n      dup1\n      dup1\n      0x20\n      add\n      dup3\n      dup2\n      sub\n      dup3\n      mstore\n      0x1f\n      dup2\n      mstore\n      0x20\n      add\n      dup1\n      0x506f6c7947656e65736973506f6f6c3a206578697374696e6720706f6f6c3f00\n      dup2\n      mstore\n      pop\n      0x20\n      add\n      swap2\n      pop\n      pop\n      mload(0x40)\n      dup1\n      swap2\n      sub\n      swap1\n      revert\n    tag_329:\n        /* \"contracts/distribution/TombGenesisRewardPool.sol\":3163:3168  ++pid */\n      dup1\n      0x01\n      add\n      swap1\n      pop\n        /* \"contracts/distribution/TombGenesisRewardPool.sol\":3127:3270  for (uint256 pid = 0; pid < length; ++pid) {\r... */\n      jump(tag_324)\n    tag_325:\n      pop\n        /* \"contracts/distribution/TombGenesisRewardPool.sol\":3016:3277  function checkPoolDuplicate(IERC20 _token) internal view {\r... */\n      pop\n      pop\n      jump\t// out\n        /* \"@openzeppelin/contracts/utils/math/SafeMath.sol\":5601:5772  function ceil(uint256 a, uint256 m) internal pure returns (uint256) {... */\n    tag_251:\n        /* \"@openzeppelin/contracts/utils/math/SafeMath.sol\":5660:5667  uint256 */\n      0x00\n        /* \"@openzeppelin/contracts/utils/math/SafeMath.sol\":5679:5688  uint256 c */\n      dup1\n        /* \"@openzeppelin/contracts/utils/math/SafeMath.sol\":5691:5700  add(a, m) */\n      tag_331\n        /* \"@openzeppelin/contracts/utils/math/SafeMath.sol\":5695:5696  a */\n      dup5\n        /* \"@openzeppelin/contracts/utils/math/SafeMath.sol\":5698:5699  m */\n      dup5\n        /* \"@openzeppelin/contracts/utils/math/SafeMath.sol\":5691:5694  add */\n      tag_127\n        /* \"@openzeppelin/contracts/utils/math/SafeMath.sol\":5691:5700  add(a, m) */\n      jump\t// in\n    tag_331:\n        /* \"@openzeppelin/contracts/utils/math/SafeMath.sol\":5679:5700  uint256 c = add(a, m) */\n      swap1\n      pop\n        /* \"@openzeppelin/contracts/utils/math/SafeMath.sol\":5710:5719  uint256 d */\n      0x00\n        /* \"@openzeppelin/contracts/utils/math/SafeMath.sol\":5722:5731  sub(c, 1) */\n      tag_332\n        /* \"@openzeppelin/contracts/utils/math/SafeMath.sol\":5726:5727  c */\n      dup3\n        /* \"@openzeppelin/contracts/utils/math/SafeMath.sol\":5729:5730  1 */\n      0x01\n        /* \"@openzeppelin/contracts/utils/math/SafeMath.sol\":5722:5725  sub */\n      tag_126\n        /* \"@openzeppelin/contracts/utils/math/SafeMath.sol\":5722:5731  sub(c, 1) */\n      jump\t// in\n    tag_332:\n        /* \"@openzeppelin/contracts/utils/math/SafeMath.sol\":5710:5731  uint256 d = sub(c, 1) */\n      swap1\n      pop\n        /* \"@openzeppelin/contracts/utils/math/SafeMath.sol\":5748:5765  mul(div(d, m), m) */\n      tag_333\n        /* \"@openzeppelin/contracts/utils/math/SafeMath.sol\":5752:5761  div(d, m) */\n      tag_334\n        /* \"@openzeppelin/contracts/utils/math/SafeMath.sol\":5756:5757  d */\n      dup3\n        /* \"@openzeppelin/contracts/utils/math/SafeMath.sol\":5759:5760  m */\n      dup7\n        /* \"@openzeppelin/contracts/utils/math/SafeMath.sol\":5752:5755  div */\n      tag_162\n        /* \"@openzeppelin/contracts/utils/math/SafeMath.sol\":5752:5761  div(d, m) */\n      jump\t// in\n    tag_334:\n        /* \"@openzeppelin/contracts/utils/math/SafeMath.sol\":5763:5764  m */\n      dup6\n        /* \"@openzeppelin/contracts/utils/math/SafeMath.sol\":5748:5751  mul */\n      tag_135\n        /* \"@openzeppelin/contracts/utils/math/SafeMath.sol\":5748:5765  mul(div(d, m), m) */\n      jump\t// in\n    tag_333:\n        /* \"@openzeppelin/contracts/utils/math/SafeMath.sol\":5741:5765  return mul(div(d, m), m) */\n      swap3\n      pop\n      pop\n      pop\n        /* \"@openzeppelin/contracts/utils/math/SafeMath.sol\":5601:5772  function ceil(uint256 a, uint256 m) internal pure returns (uint256) {... */\n      swap3\n      swap2\n      pop\n      pop\n      jump\t// out\n        /* \"@openzeppelin/contracts/token/ERC20/utils/SafeERC20.sol\":898:1101  function safeTransferFrom(IERC20 token, address from, address to, uint256 value) internal {... */\n    tag_266:\n        /* \"@openzeppelin/contracts/token/ERC20/utils/SafeERC20.sol\":998:1094  _callOptionalReturn(token, abi.encodeWithSelector(token.transferFrom.selector, from, to, value)) */\n      tag_336\n        /* \"@openzeppelin/contracts/token/ERC20/utils/SafeERC20.sol\":1018:1023  token */\n      dup5\n        /* \"@openzeppelin/contracts/token/ERC20/utils/SafeERC20.sol\":1048:1075  token.transferFrom.selector */\n      shl(0xe0, 0x23b872dd)\n        /* \"@openzeppelin/contracts/token/ERC20/utils/SafeERC20.sol\":1077:1081  from */\n      dup6\n        /* \"@openzeppelin/contracts/token/ERC20/utils/SafeERC20.sol\":1083:1085  to */\n      dup6\n        /* \"@openzeppelin/contracts/token/ERC20/utils/SafeERC20.sol\":1087:1092  value */\n      dup6\n        /* \"@openzeppelin/contracts/token/ERC20/utils/SafeERC20.sol\":1025:1093  abi.encodeWithSelector(token.transferFrom.selector, from, to, value) */\n      add(0x24, mload(0x40))\n      dup1\n      dup5\n      0xffffffffffffffffffffffffffffffffffffffff\n      and\n      dup2\n      mstore\n      0x20\n      add\n      dup4\n      0xffffffffffffffffffffffffffffffffffffffff\n      and\n      dup2\n      mstore\n      0x20\n      add\n      dup3\n      dup2\n      mstore\n      0x20\n      add\n      swap4\n      pop\n      pop\n      pop\n      pop\n      mload(0x40)\n      0x20\n      dup2\n      dup4\n      sub\n      sub\n      dup2\n      mstore\n      swap1\n      0x40\n      mstore\n      swap1\n      not(0xffffffffffffffffffffffffffffffffffffffffffffffffffffffff)\n      and\n      0x20\n      dup3\n      add\n      dup1\n      mload\n      0xffffffffffffffffffffffffffffffffffffffffffffffffffffffff\n      dup4\n      dup2\n      dup4\n      and\n      or\n      dup4\n      mstore\n      pop\n      pop\n      pop\n      pop\n        /* \"@openzeppelin/contracts/token/ERC20/utils/SafeERC20.sol\":998:1017  _callOptionalReturn */\n      tag_322\n        /* \"@openzeppelin/contracts/token/ERC20/utils/SafeERC20.sol\":998:1094  _callOptionalReturn(token, abi.encodeWithSelector(token.transferFrom.selector, from, to, value)) */\n      jump\t// in\n    tag_336:\n        /* \"@openzeppelin/contracts/token/ERC20/utils/SafeERC20.sol\":898:1101  function safeTransferFrom(IERC20 token, address from, address to, uint256 value) internal {... */\n      pop\n      pop\n      pop\n      pop\n      jump\t// out\n        /* \"@openzeppelin/contracts/token/ERC20/utils/SafeERC20.sol\":2980:3731  function _callOptionalReturn(IERC20 token, bytes memory data) private {... */\n    tag_322:\n        /* \"@openzeppelin/contracts/token/ERC20/utils/SafeERC20.sol\":3399:3422  bytes memory returndata */\n      0x60\n        /* \"@openzeppelin/contracts/token/ERC20/utils/SafeERC20.sol\":3425:3494  address(token).functionCall(data, \"SafeERC20: low-level call failed\") */\n      tag_338\n        /* \"@openzeppelin/contracts/token/ERC20/utils/SafeERC20.sol\":3453:3457  data */\n      dup3\n        /* \"@openzeppelin/contracts/token/ERC20/utils/SafeERC20.sol\":3425:3494  address(token).functionCall(data, \"SafeERC20: low-level call failed\") */\n      mload(0x40)\n      dup1\n      0x40\n      add\n      0x40\n      mstore\n      dup1\n      0x20\n      dup2\n      mstore\n      0x20\n      add\n      0x5361666545524332303a206c6f772d6c6576656c2063616c6c206661696c6564\n      dup2\n      mstore\n      pop\n        /* \"@openzeppelin/contracts/token/ERC20/utils/SafeERC20.sol\":3433:3438  token */\n      dup6\n        /* \"@openzeppelin/contracts/token/ERC20/utils/SafeERC20.sol\":3425:3452  address(token).functionCall */\n      0xffffffffffffffffffffffffffffffffffffffff\n      and\n      tag_339\n      swap1\n        /* \"@openzeppelin/contracts/token/ERC20/utils/SafeERC20.sol\":3425:3494  address(token).functionCall(data, \"SafeERC20: low-level call failed\") */\n      swap3\n      swap2\n      swap1\n      0xffffffff\n      and\n      jump\t// in\n    tag_338:\n        /* \"@openzeppelin/contracts/token/ERC20/utils/SafeERC20.sol\":3399:3494  bytes memory returndata = address(token).functionCall(data, \"SafeERC20: low-level call failed\") */\n      swap1\n      pop\n        /* \"@openzeppelin/contracts/token/ERC20/utils/SafeERC20.sol\":3528:3529  0 */\n      0x00\n        /* \"@openzeppelin/contracts/token/ERC20/utils/SafeERC20.sol\":3508:3518  returndata */\n      dup2\n        /* \"@openzeppelin/contracts/token/ERC20/utils/SafeERC20.sol\":3508:3525  returndata.length */\n      mload\n        /* \"@openzeppelin/contracts/token/ERC20/utils/SafeERC20.sol\":3508:3529  returndata.length > 0 */\n      gt\n        /* \"@openzeppelin/contracts/token/ERC20/utils/SafeERC20.sol\":3504:3725  if (returndata.length > 0) { // Return data is optional... */\n      iszero\n      tag_340\n      jumpi\n        /* \"@openzeppelin/contracts/token/ERC20/utils/SafeERC20.sol\":3648:3658  returndata */\n      dup1\n        /* \"@openzeppelin/contracts/token/ERC20/utils/SafeERC20.sol\":3637:3667  abi.decode(returndata, (bool)) */\n      dup1\n      0x20\n      add\n      swap1\n      mload\n      0x20\n      dup2\n      lt\n      iszero\n      tag_341\n      jumpi\n      0x00\n      dup1\n      revert\n    tag_341:\n      dup2\n      add\n      swap1\n      dup1\n      dup1\n      mload\n      swap1\n      0x20\n      add\n      swap1\n      swap3\n      swap2\n      swap1\n      pop\n      pop\n      pop\n        /* \"@openzeppelin/contracts/token/ERC20/utils/SafeERC20.sol\":3629:3714  require(abi.decode(returndata, (bool)), \"SafeERC20: ERC20 operation did not succeed\") */\n      tag_342\n      jumpi\n      mload(0x40)\n      0x08c379a000000000000000000000000000000000000000000000000000000000\n      dup2\n      mstore\n      0x04\n      add\n      dup1\n      dup1\n      0x20\n      add\n      dup3\n      dup2\n      sub\n      dup3\n      mstore\n      0x2a\n      dup2\n      mstore\n      0x20\n      add\n      dup1\n      data_e11ad79d1e4a7f2e5f376964cb99e8e8f7904e3fc16a109f7a7ecb9aa7956dcd\n      0x2a\n      swap2\n      codecopy\n      0x40\n      add\n      swap2\n      pop\n      pop\n      mload(0x40)\n      dup1\n      swap2\n      sub\n      swap1\n      revert\n    tag_342:\n        /* \"@openzeppelin/contracts/token/ERC20/utils/SafeERC20.sol\":3504:3725  if (returndata.length > 0) { // Return data is optional... */\n    tag_340:\n        /* \"@openzeppelin/contracts/token/ERC20/utils/SafeERC20.sol\":2980:3731  function _callOptionalReturn(IERC20 token, bytes memory data) private {... */\n      pop\n      pop\n      pop\n      jump\t// out\n        /* \"@openzeppelin/contracts/utils/Address.sol\":3470:3693  function functionCall(... */\n    tag_339:\n        /* \"@openzeppelin/contracts/utils/Address.sol\":3603:3615  bytes memory */\n      0x60\n        /* \"@openzeppelin/contracts/utils/Address.sol\":3634:3686  functionCallWithValue(target, data, 0, errorMessage) */\n      tag_344\n        /* \"@openzeppelin/contracts/utils/Address.sol\":3656:3662  target */\n      dup5\n        /* \"@openzeppelin/contracts/utils/Address.sol\":3664:3668  data */\n      dup5\n        /* \"@openzeppelin/contracts/utils/Address.sol\":3670:3671  0 */\n      0x00\n        /* \"@openzeppelin/contracts/utils/Address.sol\":3673:3685  errorMessage */\n      dup6\n        /* \"@openzeppelin/contracts/utils/Address.sol\":3634:3655  functionCallWithValue */\n      tag_345\n        /* \"@openzeppelin/contracts/utils/Address.sol\":3634:3686  functionCallWithValue(target, data, 0, errorMessage) */\n      jump\t// in\n    tag_344:\n        /* \"@openzeppelin/contracts/utils/Address.sol\":3627:3686  return functionCallWithValue(target, data, 0, errorMessage) */\n      swap1\n      pop\n        /* \"@openzeppelin/contracts/utils/Address.sol\":3470:3693  function functionCall(... */\n      swap4\n      swap3\n      pop\n      pop\n      pop\n      jump\t// out\n        /* \"@openzeppelin/contracts/utils/Address.sol\":4557:5056  function functionCallWithValue(... */\n    tag_345:\n        /* \"@openzeppelin/contracts/utils/Address.sol\":4722:4734  bytes memory */\n      0x60\n        /* \"@openzeppelin/contracts/utils/Address.sol\":4779:4784  value */\n      dup3\n        /* \"@openzeppelin/contracts/utils/Address.sol\":4754:4775  address(this).balance */\n      selfbalance\n        /* \"@openzeppelin/contracts/utils/Address.sol\":4754:4784  address(this).balance >= value */\n      lt\n      iszero\n        /* \"@openzeppelin/contracts/utils/Address.sol\":4746:4827  require(address(this).balance >= value, \"Address: insufficient balance for call\") */\n      tag_347\n      jumpi\n      mload(0x40)\n      0x08c379a000000000000000000000000000000000000000000000000000000000\n      dup2\n      mstore\n      0x04\n      add\n      dup1\n      dup1\n      0x20\n      add\n      dup3\n      dup2\n      sub\n      dup3\n      mstore\n      0x26\n      dup2\n      mstore\n      0x20\n      add\n      dup1\n      data_565f1a77334fc4792800921178c71e4521acffab18ff9e7885b49377ee80ab4c\n      0x26\n      swap2\n      codecopy\n      0x40\n      add\n      swap2\n      pop\n      pop\n      mload(0x40)\n      dup1\n      swap2\n      sub\n      swap1\n      revert\n    tag_347:\n        /* \"@openzeppelin/contracts/utils/Address.sol\":4845:4863  isContract(target) */\n      tag_348\n        /* \"@openzeppelin/contracts/utils/Address.sol\":4856:4862  target */\n      dup6\n        /* \"@openzeppelin/contracts/utils/Address.sol\":4845:4855  isContract */\n      tag_349\n        /* \"@openzeppelin/contracts/utils/Address.sol\":4845:4863  isContract(target) */\n      jump\t// in\n    tag_348:\n        /* \"@openzeppelin/contracts/utils/Address.sol\":4837:4897  require(isContract(target), \"Address: call to non-contract\") */\n      tag_350\n      jumpi\n      mload(0x40)\n      0x08c379a000000000000000000000000000000000000000000000000000000000\n      dup2\n      mstore\n      0x04\n      add\n      dup1\n      dup1\n      0x20\n      add\n      dup3\n      dup2\n      sub\n      dup3\n      mstore\n      0x1d\n      dup2\n      mstore\n      0x20\n      add\n      dup1\n      0x416464726573733a2063616c6c20746f206e6f6e2d636f6e7472616374000000\n      dup2\n      mstore\n      pop\n      0x20\n      add\n      swap2\n      pop\n      pop\n      mload(0x40)\n      dup1\n      swap2\n      sub\n      swap1\n      revert\n    tag_350:\n        /* \"@openzeppelin/contracts/utils/Address.sol\":4909:4921  bool success */\n      0x00\n        /* \"@openzeppelin/contracts/utils/Address.sol\":4923:4946  bytes memory returndata */\n      0x60\n        /* \"@openzeppelin/contracts/utils/Address.sol\":4950:4956  target */\n      dup7\n        /* \"@openzeppelin/contracts/utils/Address.sol\":4950:4961  target.call */\n      0xffffffffffffffffffffffffffffffffffffffff\n      and\n        /* \"@openzeppelin/contracts/utils/Address.sol\":4969:4974  value */\n      dup6\n        /* \"@openzeppelin/contracts/utils/Address.sol\":4976:4980  data */\n      dup8\n        /* \"@openzeppelin/contracts/utils/Address.sol\":4950:4981  target.call{value: value}(data) */\n      mload(0x40)\n      dup1\n      dup3\n      dup1\n      mload\n      swap1\n      0x20\n      add\n      swap1\n      dup1\n      dup4\n      dup4\n    tag_351:\n      0x20\n      dup4\n      lt\n      tag_353\n      jumpi\n      dup1\n      mload\n      dup3\n      mstore\n      0x20\n      dup3\n      add\n      swap2\n      pop\n      0x20\n      dup2\n      add\n      swap1\n      pop\n      0x20\n      dup4\n      sub\n      swap3\n      pop\n      jump(tag_351)\n    tag_353:\n      0x01\n      dup4\n      0x20\n      sub\n      0x0100\n      exp\n      sub\n      dup1\n      not\n      dup3\n      mload\n      and\n      dup2\n      dup5\n      mload\n      and\n      dup1\n      dup3\n      or\n      dup6\n      mstore\n      pop\n      pop\n      pop\n      pop\n      pop\n      pop\n      swap1\n      pop\n      add\n      swap2\n      pop\n      pop\n      0x00\n      mload(0x40)\n      dup1\n      dup4\n      sub\n      dup2\n      dup6\n      dup8\n      gas\n      call\n      swap3\n      pop\n      pop\n      pop\n      returndatasize\n      dup1\n      0x00\n      dup2\n      eq\n      tag_356\n      jumpi\n      mload(0x40)\n      swap2\n      pop\n      and(add(returndatasize, 0x3f), not(0x1f))\n      dup3\n      add\n      0x40\n      mstore\n      returndatasize\n      dup3\n      mstore\n      returndatasize\n      0x00\n      0x20\n      dup5\n      add\n      returndatacopy\n      jump(tag_355)\n    tag_356:\n      0x60\n      swap2\n      pop\n    tag_355:\n      pop\n        /* \"@openzeppelin/contracts/utils/Address.sol\":4908:4981  (bool success, bytes memory returndata) = target.call{value: value}(data) */\n      swap2\n      pop\n      swap2\n      pop\n        /* \"@openzeppelin/contracts/utils/Address.sol\":4998:5049  verifyCallResult(success, returndata, errorMessage) */\n      tag_357\n        /* \"@openzeppelin/contracts/utils/Address.sol\":5015:5022  success */\n      dup3\n        /* \"@openzeppelin/contracts/utils/Address.sol\":5024:5034  returndata */\n      dup3\n        /* \"@openzeppelin/contracts/utils/Address.sol\":5036:5048  errorMessage */\n      dup7\n        /* \"@openzeppelin/contracts/utils/Address.sol\":4998:5014  verifyCallResult */\n      tag_358\n        /* \"@openzeppelin/contracts/utils/Address.sol\":4998:5049  verifyCallResult(success, returndata, errorMessage) */\n      jump\t// in\n    tag_357:\n        /* \"@openzeppelin/contracts/utils/Address.sol\":4991:5049  return verifyCallResult(success, returndata, errorMessage) */\n      swap3\n      pop\n      pop\n      pop\n        /* \"@openzeppelin/contracts/utils/Address.sol\":4557:5056  function functionCallWithValue(... */\n      swap5\n      swap4\n      pop\n      pop\n      pop\n      pop\n      jump\t// out\n        /* \"@openzeppelin/contracts/utils/Address.sol\":727:1104  function isContract(address account) internal view returns (bool) {... */\n    tag_349:\n        /* \"@openzeppelin/contracts/utils/Address.sol\":787:791  bool */\n      0x00\n        /* \"@openzeppelin/contracts/utils/Address.sol\":990:1002  uint256 size */\n      dup1\n        /* \"@openzeppelin/contracts/utils/Address.sol\":1055:1062  account */\n      dup3\n        /* \"@openzeppelin/contracts/utils/Address.sol\":1043:1063  extcodesize(account) */\n      extcodesize\n        /* \"@openzeppelin/contracts/utils/Address.sol\":1035:1063  size := extcodesize(account) */\n      swap1\n      pop\n        /* \"@openzeppelin/contracts/utils/Address.sol\":1096:1097  0 */\n      0x00\n        /* \"@openzeppelin/contracts/utils/Address.sol\":1089:1093  size */\n      dup2\n        /* \"@openzeppelin/contracts/utils/Address.sol\":1089:1097  size > 0 */\n      gt\n        /* \"@openzeppelin/contracts/utils/Address.sol\":1082:1097  return size > 0 */\n      swap2\n      pop\n      pop\n        /* \"@openzeppelin/contracts/utils/Address.sol\":727:1104  function isContract(address account) internal view returns (bool) {... */\n      swap2\n      swap1\n      pop\n      jump\t// out\n        /* \"@openzeppelin/contracts/utils/Address.sol\":7170:7862  function verifyCallResult(... */\n    tag_358:\n        /* \"@openzeppelin/contracts/utils/Address.sol\":7316:7328  bytes memory */\n      0x60\n        /* \"@openzeppelin/contracts/utils/Address.sol\":7344:7351  success */\n      dup4\n        /* \"@openzeppelin/contracts/utils/Address.sol\":7340:7856  if (success) {... */\n      iszero\n      tag_361\n      jumpi\n        /* \"@openzeppelin/contracts/utils/Address.sol\":7374:7384  returndata */\n      dup3\n        /* \"@openzeppelin/contracts/utils/Address.sol\":7367:7384  return returndata */\n      swap1\n      pop\n      jump(tag_360)\n        /* \"@openzeppelin/contracts/utils/Address.sol\":7340:7856  if (success) {... */\n    tag_361:\n        /* \"@openzeppelin/contracts/utils/Address.sol\":7505:7506  0 */\n      0x00\n        /* \"@openzeppelin/contracts/utils/Address.sol\":7485:7495  returndata */\n      dup4\n        /* \"@openzeppelin/contracts/utils/Address.sol\":7485:7502  returndata.length */\n      mload\n        /* \"@openzeppelin/contracts/utils/Address.sol\":7485:7506  returndata.length > 0 */\n      gt\n        /* \"@openzeppelin/contracts/utils/Address.sol\":7481:7846  if (returndata.length > 0) {... */\n      iszero\n      tag_363\n      jumpi\n        /* \"@openzeppelin/contracts/utils/Address.sol\":7679:7689  returndata */\n      dup3\n        /* \"@openzeppelin/contracts/utils/Address.sol\":7673:7690  mload(returndata) */\n      mload\n        /* \"@openzeppelin/contracts/utils/Address.sol\":7739:7754  returndata_size */\n      dup1\n        /* \"@openzeppelin/contracts/utils/Address.sol\":7726:7736  returndata */\n      dup5\n        /* \"@openzeppelin/contracts/utils/Address.sol\":7722:7724  32 */\n      0x20\n        /* \"@openzeppelin/contracts/utils/Address.sol\":7718:7737  add(32, returndata) */\n      add\n        /* \"@openzeppelin/contracts/utils/Address.sol\":7711:7755  revert(add(32, returndata), returndata_size) */\n      revert\n        /* \"@openzeppelin/contracts/utils/Address.sol\":7628:7773  {... */\n    tag_363:\n        /* \"@openzeppelin/contracts/utils/Address.sol\":7818:7830  errorMessage */\n      dup2\n        /* \"@openzeppelin/contracts/utils/Address.sol\":7811:7831  revert(errorMessage) */\n      mload(0x40)\n      0x08c379a000000000000000000000000000000000000000000000000000000000\n      dup2\n      mstore\n      0x04\n      add\n      dup1\n      dup1\n      0x20\n      add\n      dup3\n      dup2\n      sub\n      dup3\n      mstore\n      dup4\n      dup2\n      dup2\n      mload\n      dup2\n      mstore\n      0x20\n      add\n      swap2\n      pop\n      dup1\n      mload\n      swap1\n      0x20\n      add\n      swap1\n      dup1\n      dup4\n      dup4\n      0x00\n    tag_365:\n      dup4\n      dup2\n      lt\n      iszero\n      tag_367\n      jumpi\n      dup1\n      dup3\n      add\n      mload\n      dup2\n      dup5\n      add\n      mstore\n      0x20\n      dup2\n      add\n      swap1\n      pop\n      jump(tag_365)\n    tag_367:\n      pop\n      pop\n      pop\n      pop\n      swap1\n      pop\n      swap1\n      dup2\n      add\n      swap1\n      0x1f\n      and\n      dup1\n      iszero\n      tag_368\n      jumpi\n      dup1\n      dup3\n      sub\n      dup1\n      mload\n      0x01\n      dup4\n      0x20\n      sub\n      0x0100\n      exp\n      sub\n      not\n      and\n      dup2\n      mstore\n      0x20\n      add\n      swap2\n      pop\n    tag_368:\n      pop\n      swap3\n      pop\n      pop\n      pop\n      mload(0x40)\n      dup1\n      swap2\n      sub\n      swap1\n      revert\n        /* \"@openzeppelin/contracts/utils/Address.sol\":7170:7862  function verifyCallResult(... */\n    tag_360:\n      swap4\n      swap3\n      pop\n      pop\n      pop\n      jump\t// out\n    stop\n    data_245f15ff17f551913a7a18385165551503906a406f905ac1c2437281a7cd0cfe 4f776e61626c653a206e6577206f776e657220697320746865207a65726f2061646472657373\n    data_565f1a77334fc4792800921178c71e4521acffab18ff9e7885b49377ee80ab4c 416464726573733a20696e73756666696369656e742062616c616e636520666f722063616c6c\n    data_756508c1c0554725dd91ce0028667672a5318d736a5e4bcd98b6bc8fe98c3dc7 6f70657261746f723a207a65726f206164647265737320676976656e20666f72206e6577206f70657261746f72\n    data_9113bb53c2876a3805b2c9242029423fc540a728243ce887ab24c82cf119fba3 536166654d6174683a206d756c7469706c69636174696f6e206f766572666c6f77\n    data_a62bfdba5053072911b63b0f6325b0e83fcd28b5a847d97efdd966feb4daaafb 6f70657261746f723a2063616c6c6572206973206e6f7420746865206f70657261746f72\n    data_e11ad79d1e4a7f2e5f376964cb99e8e8f7904e3fc16a109f7a7ecb9aa7956dcd 5361666545524332303a204552433230206f7065726174696f6e20646964206e6f742073756363656564\n\n    auxdata: 0xa264697066735822122011da50da5fe50690d8695c6880b53a2b3c0bbaf9b8360700bd171dc7654153f164736f6c634300060c0033\n}\n",
				"bytecode": {
					"linkReferences": {},
					"object": "60806040526000600560006101000a81548160ff0219169083151502179055506000600755670156a8c394962000600a556203f480600b553480156200004457600080fd5b50600062000057620001c860201b60201c565b9050806000806101000a81548173ffffffffffffffffffffffffffffffffffffffff021916908373ffffffffffffffffffffffffffffffffffffffff1602179055508073ffffffffffffffffffffffffffffffffffffffff16600073ffffffffffffffffffffffffffffffffffffffff167f8be0079c531659141344cd1fd0a4f28419497f9722a3daafe3b4186f6b6457e060405160405180910390a35062000105620001c860201b60201c565b600160006101000a81548173ffffffffffffffffffffffffffffffffffffffff021916908373ffffffffffffffffffffffffffffffffffffffff160217905550600160009054906101000a900473ffffffffffffffffffffffffffffffffffffffff1673ffffffffffffffffffffffffffffffffffffffff16600073ffffffffffffffffffffffffffffffffffffffff167f74da04524d50c64947f5dd5381ef1a4dca5cba8ed1d816243f9e48aa0b5617ed60405160405180910390a3620001d0565b600033905090565b612fe080620001e06000396000f3fe608060405234801561001057600080fd5b50600436106101da5760003560e01c80635f96dc111161010457806396805e54116100a2578063e177bb3811610071578063e177bb381461072c578063e2bbb15814610760578063ecf4deb914610798578063f2fde38b146107fa576101da565b806396805e5414610618578063b3ab15fb1461067c578063cd6dc687146106c0578063d212a69a1461070e576101da565b8063715018a6116100de578063715018a6146105535780638da5cb5b1461055d57806393f1a40b14610591578063943f013d146105fa576101da565b80635f96dc111461050d578063630b5ba11461052b5780636e271dd514610535576101da565b8063392e53cd1161017c57806351eb05a61161014b57806351eb05a61461040f5780635312ea8e1461043d57806354575af41461046b578063570ca735146104d9576101da565b8063392e53cd146103795780633f7caf5214610399578063441a3e70146103b75780634456eda2146103ef576101da565b806317caf6f1116101b857806317caf6f1146102935780631ab06ee5146102b1578063231f0c6a146102e957806329605e7714610335576101da565b806309cf6091146101df5780631526fe27146101fd578063158ef93e14610273575b600080fd5b6101e761083e565b6040518082815260200191505060405180910390f35b6102296004803603602081101561021357600080fd5b810190808035906020019092919050505061084c565b604051808673ffffffffffffffffffffffffffffffffffffffff16815260200185815260200184815260200183815260200182151581526020019550505050505060405180910390f35b61027b6108bc565b60405180821515815260200191505060405180910390f35b61029b6108cf565b6040518082815260200191505060405180910390f35b6102e7600480360360408110156102c757600080fd5b8101908080359060200190929190803590602001909291905050506108d5565b005b61031f600480360360408110156102ff57600080fd5b8101908080359060200190929190803590602001909291905050506109f9565b6040518082815260200191505060405180910390f35b6103776004803603602081101561034b57600080fd5b81019080803573ffffffffffffffffffffffffffffffffffffffff169060200190929190505050610b0c565b005b610381610bc7565b60405180821515815260200191505060405180910390f35b6103a1610bde565b6040518082815260200191505060405180910390f35b6103ed600480360360408110156103cd57600080fd5b810190808035906020019092919080359060200190929190505050610be4565b005b6103f7610e9c565b60405180821515815260200191505060405180910390f35b61043b6004803603602081101561042557600080fd5b8101908080359060200190929190505050610efb565b005b6104696004803603602081101561045357600080fd5b810190808035906020019092919050505061110a565b005b6104d76004803603606081101561048157600080fd5b81019080803573ffffffffffffffffffffffffffffffffffffffff16906020019092919080359060200190929190803573ffffffffffffffffffffffffffffffffffffffff16906020019092919050505061123e565b005b6104e16114f0565b604051808273ffffffffffffffffffffffffffffffffffffffff16815260200191505060405180910390f35b61051561151a565b6040518082815260200191505060405180910390f35b610533611520565b005b61053d61154d565b6040518082815260200191505060405180910390f35b61055b611553565b005b6105656116c0565b604051808273ffffffffffffffffffffffffffffffffffffffff16815260200191505060405180910390f35b6105dd600480360360408110156105a757600080fd5b8101908080359060200190929190803573ffffffffffffffffffffffffffffffffffffffff1690602001909291905050506116e9565b604051808381526020018281526020019250505060405180910390f35b61060261171a565b6040518082815260200191505060405180910390f35b61067a6004803603608081101561062e57600080fd5b8101908080359060200190929190803573ffffffffffffffffffffffffffffffffffffffff16906020019092919080351515906020019092919080359060200190929190505050611720565b005b6106be6004803603602081101561069257600080fd5b81019080803573ffffffffffffffffffffffffffffffffffffffff169060200190929190505050611959565b005b61070c600480360360408110156106d657600080fd5b81019080803573ffffffffffffffffffffffffffffffffffffffff16906020019092919080359060200190929190505050611a0b565b005b610716611c5a565b6040518082815260200191505060405180910390f35b610734611c60565b604051808273ffffffffffffffffffffffffffffffffffffffff16815260200191505060405180910390f35b6107966004803603604081101561077657600080fd5b810190808035906020019092919080359060200190929190505050611c86565b005b6107e4600480360360408110156107ae57600080fd5b8101908080359060200190929190803573ffffffffffffffffffffffffffffffffffffffff169060200190929190505050611f97565b6040518082815260200191505060405180910390f35b61083c6004803603602081101561081057600080fd5b81019080803573ffffffffffffffffffffffffffffffffffffffff1690602001909291905050506121cf565b005b69054b40b1f852bda0000081565b6004818154811061085957fe5b90600052602060002090600502016000915090508060000160009054906101000a900473ffffffffffffffffffffffffffffffffffffffff16908060010154908060020154908060030154908060040160009054906101000a900460ff16905085565b600560009054906101000a900460ff1681565b60075481565b3373ffffffffffffffffffffffffffffffffffffffff16600160009054906101000a900473ffffffffffffffffffffffffffffffffffffffff1673ffffffffffffffffffffffffffffffffffffffff161461097b576040517f08c379a0000000000000000000000000000000000000000000000000000000008152600401808060200182810382526024815260200180612f5d6024913960400191505060405180910390fd5b610983611520565b60006004838154811061099257fe5b906000526020600020906005020190508060040160009054906101000a900460ff16156109eb576109e4826109d683600101546007546123c190919063ffffffff16565b61244490919063ffffffff16565b6007819055505b818160010181905550505050565b6000818310610a0b5760009050610b06565b6009548210610a91576009548310610a265760009050610b06565b6008548311610a6157610a5a600a54610a4c6008546009546123c190919063ffffffff16565b6124cc90919063ffffffff16565b9050610b06565b610a8a600a54610a7c856009546123c190919063ffffffff16565b6124cc90919063ffffffff16565b9050610b06565b6008548211610aa35760009050610b06565b6008548311610adc57610ad5600a54610ac7600854856123c190919063ffffffff16565b6124cc90919063ffffffff16565b9050610b06565b610b03600a54610af585856123c190919063ffffffff16565b6124cc90919063ffffffff16565b90505b92915050565b610b14612552565b73ffffffffffffffffffffffffffffffffffffffff16610b326116c0565b73ffffffffffffffffffffffffffffffffffffffff1614610bbb576040517f08c379a00000000000000000000000000000000000000000000000000000000081526004018080602001828103825260208152602001807f4f776e61626c653a2063616c6c6572206973206e6f7420746865206f776e657281525060200191505060405180910390fd5b610bc48161255a565b50565b6000600560009054906101000a900460ff16905090565b600a5481565b6000339050600060048481548110610bf857fe5b9060005260206000209060050201905060006006600086815260200190815260200160002060008473ffffffffffffffffffffffffffffffffffffffff1673ffffffffffffffffffffffffffffffffffffffff16815260200190815260200160002090508381600001541015610cd6576040517f08c379a00000000000000000000000000000000000000000000000000000000081526004018080602001828103825260128152602001807f77697468647261773a206e6f7420676f6f64000000000000000000000000000081525060200191505060405180910390fd5b610cdf85610efb565b6000610d2c8260010154610d1e670de0b6b3a7640000610d10876003015487600001546124cc90919063ffffffff16565b61268890919063ffffffff16565b6123c190919063ffffffff16565b90506000811115610d9057610d418482612711565b8373ffffffffffffffffffffffffffffffffffffffff167fe2403640ba68fed3a2f88b7557551d1993f84b99bb10ff833f0cf8db0c5e0486826040518082815260200191505060405180910390a25b6000851115610e0857610db08583600001546123c190919063ffffffff16565b8260000181905550610e0784868560000160009054906101000a900473ffffffffffffffffffffffffffffffffffffffff1673ffffffffffffffffffffffffffffffffffffffff166128909092919063ffffffff16565b5b610e3d670de0b6b3a7640000610e2f856003015485600001546124cc90919063ffffffff16565b61268890919063ffffffff16565b8260010181905550858473ffffffffffffffffffffffffffffffffffffffff167ff279e6a1f5e320cca91135676d9cb6e44ca8a08c0b88342bcdb1144f6511b568876040518082815260200191505060405180910390a3505050505050565b6000600160009054906101000a900473ffffffffffffffffffffffffffffffffffffffff1673ffffffffffffffffffffffffffffffffffffffff16610edf612552565b73ffffffffffffffffffffffffffffffffffffffff1614905090565b600060048281548110610f0a57fe5b9060005260206000209060050201905080600201544211610f2b5750611107565b60008160000160009054906101000a900473ffffffffffffffffffffffffffffffffffffffff1673ffffffffffffffffffffffffffffffffffffffff166370a08231306040518263ffffffff1660e01b8152600401808273ffffffffffffffffffffffffffffffffffffffff16815260200191505060206040518083038186803b158015610fb857600080fd5b505afa158015610fcc573d6000803e3d6000fd5b505050506040513d6020811015610fe257600080fd5b81019080805190602001909291905050509050600081141561100e574282600201819055505050611107565b8160040160009054906101000a900460ff166110615760018260040160006101000a81548160ff02191690831515021790555061105a826001015460075461244490919063ffffffff16565b6007819055505b600060075411156110fb57600061107c8360020154426109f9565b905060006110ab60075461109d8660010154856124cc90919063ffffffff16565b61268890919063ffffffff16565b90506110f06110dd846110cf670de0b6b3a7640000856124cc90919063ffffffff16565b61268890919063ffffffff16565b856003015461244490919063ffffffff16565b846003018190555050505b42826002018190555050505b50565b60006004828154811061111957fe5b9060005260206000209060050201905060006006600084815260200190815260200160002060003373ffffffffffffffffffffffffffffffffffffffff1673ffffffffffffffffffffffffffffffffffffffff168152602001908152602001600020905060008160000154905060008260000181905550600082600101819055506111e933828560000160009054906101000a900473ffffffffffffffffffffffffffffffffffffffff1673ffffffffffffffffffffffffffffffffffffffff166128909092919063ffffffff16565b833373ffffffffffffffffffffffffffffffffffffffff167fbb757047c2b5f3974fe26b7c10f732e7bce710b0952a71082702781e62ae0595836040518082815260200191505060405180910390a350505050565b3373ffffffffffffffffffffffffffffffffffffffff16600160009054906101000a900473ffffffffffffffffffffffffffffffffffffffff1673ffffffffffffffffffffffffffffffffffffffff16146112e4576040517f08c379a0000000000000000000000000000000000000000000000000000000008152600401808060200182810382526024815260200180612f5d6024913960400191505060405180910390fd5b6276a700600954014210156114c057600260009054906101000a900473ffffffffffffffffffffffffffffffffffffffff1673ffffffffffffffffffffffffffffffffffffffff168373ffffffffffffffffffffffffffffffffffffffff1614156113b7576040517f08c379a00000000000000000000000000000000000000000000000000000000081526004018080602001828103825260048152602001807f506f6c790000000000000000000000000000000000000000000000000000000081525060200191505060405180910390fd5b6000600480549050905060005b818110156114bd576000600482815481106113db57fe5b906000526020600020906005020190508060000160009054906101000a900473ffffffffffffffffffffffffffffffffffffffff1673ffffffffffffffffffffffffffffffffffffffff168673ffffffffffffffffffffffffffffffffffffffff1614156114b1576040517f08c379a000000000000000000000000000000000000000000000000000000000815260040180806020018281038252600a8152602001807f706f6f6c2e746f6b656e0000000000000000000000000000000000000000000081525060200191505060405180910390fd5b508060010190506113c4565b50505b6114eb81838573ffffffffffffffffffffffffffffffffffffffff166128909092919063ffffffff16565b505050565b6000600160009054906101000a900473ffffffffffffffffffffffffffffffffffffffff16905090565b60085481565b6000600480549050905060005b818110156115495761153e81610efb565b80600101905061152d565b5050565b60095481565b61155b612552565b73ffffffffffffffffffffffffffffffffffffffff166115796116c0565b73ffffffffffffffffffffffffffffffffffffffff1614611602576040517f08c379a00000000000000000000000000000000000000000000000000000000081526004018080602001828103825260208152602001807f4f776e61626c653a2063616c6c6572206973206e6f7420746865206f776e657281525060200191505060405180910390fd5b600073ffffffffffffffffffffffffffffffffffffffff1660008054906101000a900473ffffffffffffffffffffffffffffffffffffffff1673ffffffffffffffffffffffffffffffffffffffff167f8be0079c531659141344cd1fd0a4f28419497f9722a3daafe3b4186f6b6457e060405160405180910390a360008060006101000a81548173ffffffffffffffffffffffffffffffffffffffff021916908373ffffffffffffffffffffffffffffffffffffffff160217905550565b60008060009054906101000a900473ffffffffffffffffffffffffffffffffffffffff16905090565b6006602052816000526040600020602052806000526040600020600091509150508060000154908060010154905082565b600b5481565b3373ffffffffffffffffffffffffffffffffffffffff16600160009054906101000a900473ffffffffffffffffffffffffffffffffffffffff1673ffffffffffffffffffffffffffffffffffffffff16146117c6576040517f08c379a0000000000000000000000000000000000000000000000000000000008152600401808060200182810382526024815260200180612f5d6024913960400191505060405180910390fd5b6117cf83612932565b81156117de576117dd611520565b5b6008544210156118115760008114156117fb57600854905061180c565b60085481101561180b5760085490505b5b611829565b600081148061181f57504281105b15611828574290505b5b60006008548211158061183c5750428211155b905060046040518060a001604052808673ffffffffffffffffffffffffffffffffffffffff16815260200187815260200184815260200160008152602001831515815250908060018154018082558091505060019003906000526020600020906005020160009091909190915060008201518160000160006101000a81548173ffffffffffffffffffffffffffffffffffffffff021916908373ffffffffffffffffffffffffffffffffffffffff16021790555060208201518160010155604082015181600201556060820151816003015560808201518160040160006101000a81548160ff021916908315150217905550505080156119525761194b8560075461244490919063ffffffff16565b6007819055505b5050505050565b3373ffffffffffffffffffffffffffffffffffffffff16600160009054906101000a900473ffffffffffffffffffffffffffffffffffffffff1673ffffffffffffffffffffffffffffffffffffffff16146119ff576040517f08c379a0000000000000000000000000000000000000000000000000000000008152600401808060200182810382526024815260200180612f5d6024913960400191505060405180910390fd5b611a0881610b0c565b50565b600560009054906101000a900460ff1615611a8e576040517f08c379a000000000000000000000000000000000000000000000000000000000815260040180806020018281038252601c8152602001807f47656e657369733a20616c726561647920696e697469616c697a65640000000081525060200191505060405180910390fd5b3373ffffffffffffffffffffffffffffffffffffffff16600160009054906101000a900473ffffffffffffffffffffffffffffffffffffffff1673ffffffffffffffffffffffffffffffffffffffff1614611b34576040517f08c379a0000000000000000000000000000000000000000000000000000000008152600401808060200182810382526024815260200180612f5d6024913960400191505060405180910390fd5b804210611ba9576040517f08c379a00000000000000000000000000000000000000000000000000000000081526004018080602001828103825260048152602001807f6c6174650000000000000000000000000000000000000000000000000000000081525060200191505060405180910390fd5b600073ffffffffffffffffffffffffffffffffffffffff168273ffffffffffffffffffffffffffffffffffffffff1614611c1f5781600260006101000a81548173ffffffffffffffffffffffffffffffffffffffff021916908373ffffffffffffffffffffffffffffffffffffffff1602179055505b80600881905550600b546008540160098190555060c86003819055506001600560006101000a81548160ff0219169083151502179055505050565b60035481565b600260009054906101000a900473ffffffffffffffffffffffffffffffffffffffff1681565b60003390506000611ca260035484612a3790919063ffffffff16565b90506000611ccf612710611cc1600354856124cc90919063ffffffff16565b61268890919063ffffffff16565b90506000611ce682866123c190919063ffffffff16565b9050600060048781548110611cf757fe5b9060005260206000209060050201905060006006600089815260200190815260200160002060008773ffffffffffffffffffffffffffffffffffffffff1673ffffffffffffffffffffffffffffffffffffffff1681526020019081526020016000209050611d6488610efb565b600081600001541115611e24576000611dbe8260010154611db0670de0b6b3a7640000611da2876003015487600001546124cc90919063ffffffff16565b61268890919063ffffffff16565b6123c190919063ffffffff16565b90506000811115611e2257611dd38782612711565b8673ffffffffffffffffffffffffffffffffffffffff167fe2403640ba68fed3a2f88b7557551d1993f84b99bb10ff833f0cf8db0c5e0486826040518082815260200191505060405180910390a25b505b6000871115611f0157611e7e8630898560000160009054906101000a900473ffffffffffffffffffffffffffffffffffffffff1673ffffffffffffffffffffffffffffffffffffffff16612a72909392919063ffffffff16565b611e9583826000015461244490919063ffffffff16565b8160000181905550611f007301fc7f2c81acd9d38ed4d509b1f17555e549ef1d868460000160009054906101000a900473ffffffffffffffffffffffffffffffffffffffff1673ffffffffffffffffffffffffffffffffffffffff166128909092919063ffffffff16565b5b611f36670de0b6b3a7640000611f28846003015484600001546124cc90919063ffffffff16565b61268890919063ffffffff16565b8160010181905550878673ffffffffffffffffffffffffffffffffffffffff167f90890809c654f11d6e72a28fa60149770a0d11ec6c92319d6ceb2bb0a4ea1a15896040518082815260200191505060405180910390a35050505050505050565b60008060048481548110611fa757fe5b9060005260206000209060050201905060006006600086815260200190815260200160002060008573ffffffffffffffffffffffffffffffffffffffff1673ffffffffffffffffffffffffffffffffffffffff168152602001908152602001600020905060008260030154905060008360000160009054906101000a900473ffffffffffffffffffffffffffffffffffffffff1673ffffffffffffffffffffffffffffffffffffffff166370a08231306040518263ffffffff1660e01b8152600401808273ffffffffffffffffffffffffffffffffffffffff16815260200191505060206040518083038186803b1580156120a157600080fd5b505afa1580156120b5573d6000803e3d6000fd5b505050506040513d60208110156120cb57600080fd5b810190808051906020019092919050505090508360020154421180156120f2575060008114155b1561217c5760006121078560020154426109f9565b905060006121366007546121288860010154856124cc90919063ffffffff16565b61268890919063ffffffff16565b90506121776121688461215a670de0b6b3a7640000856124cc90919063ffffffff16565b61268890919063ffffffff16565b8561244490919063ffffffff16565b935050505b6121c383600101546121b5670de0b6b3a76400006121a78688600001546124cc90919063ffffffff16565b61268890919063ffffffff16565b6123c190919063ffffffff16565b94505050505092915050565b6121d7612552565b73ffffffffffffffffffffffffffffffffffffffff166121f56116c0565b73ffffffffffffffffffffffffffffffffffffffff161461227e576040517f08c379a00000000000000000000000000000000000000000000000000000000081526004018080602001828103825260208152602001807f4f776e61626c653a2063616c6c6572206973206e6f7420746865206f776e657281525060200191505060405180910390fd5b600073ffffffffffffffffffffffffffffffffffffffff168173ffffffffffffffffffffffffffffffffffffffff161415612304576040517f08c379a0000000000000000000000000000000000000000000000000000000008152600401808060200182810382526026815260200180612ec36026913960400191505060405180910390fd5b8073ffffffffffffffffffffffffffffffffffffffff1660008054906101000a900473ffffffffffffffffffffffffffffffffffffffff1673ffffffffffffffffffffffffffffffffffffffff167f8be0079c531659141344cd1fd0a4f28419497f9722a3daafe3b4186f6b6457e060405160405180910390a3806000806101000a81548173ffffffffffffffffffffffffffffffffffffffff021916908373ffffffffffffffffffffffffffffffffffffffff16021790555050565b600082821115612439576040517f08c379a000000000000000000000000000000000000000000000000000000000815260040180806020018281038252601e8152602001807f536166654d6174683a207375627472616374696f6e206f766572666c6f77000081525060200191505060405180910390fd5b818303905092915050565b6000808284019050838110156124c2576040517f08c379a000000000000000000000000000000000000000000000000000000000815260040180806020018281038252601b8152602001807f536166654d6174683a206164646974696f6e206f766572666c6f77000000000081525060200191505060405180910390fd5b8091505092915050565b6000808314156124df576000905061254c565b60008284029050828482816124f057fe5b0414612547576040517f08c379a0000000000000000000000000000000000000000000000000000000008152600401808060200182810382526021815260200180612f3c6021913960400191505060405180910390fd5b809150505b92915050565b600033905090565b600073ffffffffffffffffffffffffffffffffffffffff168173ffffffffffffffffffffffffffffffffffffffff1614156125e0576040517f08c379a000000000000000000000000000000000000000000000000000000000815260040180806020018281038252602d815260200180612f0f602d913960400191505060405180910390fd5b8073ffffffffffffffffffffffffffffffffffffffff16600073ffffffffffffffffffffffffffffffffffffffff167f74da04524d50c64947f5dd5381ef1a4dca5cba8ed1d816243f9e48aa0b5617ed60405160405180910390a3612644816121cf565b80600160006101000a81548173ffffffffffffffffffffffffffffffffffffffff021916908373ffffffffffffffffffffffffffffffffffffffff16021790555050565b60008082116126ff576040517f08c379a000000000000000000000000000000000000000000000000000000000815260040180806020018281038252601a8152602001807f536166654d6174683a206469766973696f6e206279207a65726f00000000000081525060200191505060405180910390fd5b81838161270857fe5b04905092915050565b6000600260009054906101000a900473ffffffffffffffffffffffffffffffffffffffff1673ffffffffffffffffffffffffffffffffffffffff166370a08231306040518263ffffffff1660e01b8152600401808273ffffffffffffffffffffffffffffffffffffffff16815260200191505060206040518083038186803b15801561279c57600080fd5b505afa1580156127b0573d6000803e3d6000fd5b505050506040513d60208110156127c657600080fd5b81019080805190602001909291905050509050600081111561288b578082111561283c576128378382600260009054906101000a900473ffffffffffffffffffffffffffffffffffffffff1673ffffffffffffffffffffffffffffffffffffffff166128909092919063ffffffff16565b61288a565b6128898383600260009054906101000a900473ffffffffffffffffffffffffffffffffffffffff1673ffffffffffffffffffffffffffffffffffffffff166128909092919063ffffffff16565b5b5b505050565b61292d8363a9059cbb60e01b8484604051602401808373ffffffffffffffffffffffffffffffffffffffff16815260200182815260200192505050604051602081830303815290604052907bffffffffffffffffffffffffffffffffffffffffffffffffffffffff19166020820180517bffffffffffffffffffffffffffffffffffffffffffffffffffffffff8381831617835250505050612b33565b505050565b6000600480549050905060005b81811015612a32578273ffffffffffffffffffffffffffffffffffffffff166004828154811061296b57fe5b906000526020600020906005020160000160009054906101000a900473ffffffffffffffffffffffffffffffffffffffff1673ffffffffffffffffffffffffffffffffffffffff161415612a27576040517f08c379a000000000000000000000000000000000000000000000000000000000815260040180806020018281038252601f8152602001807f506f6c7947656e65736973506f6f6c3a206578697374696e6720706f6f6c3f0081525060200191505060405180910390fd5b80600101905061293f565b505050565b600080612a448484612444565b90506000612a538260016123c1565b9050612a68612a628286612688565b856124cc565b9250505092915050565b612b2d846323b872dd60e01b858585604051602401808473ffffffffffffffffffffffffffffffffffffffff1681526020018373ffffffffffffffffffffffffffffffffffffffff1681526020018281526020019350505050604051602081830303815290604052907bffffffffffffffffffffffffffffffffffffffffffffffffffffffff19166020820180517bffffffffffffffffffffffffffffffffffffffffffffffffffffffff8381831617835250505050612b33565b50505050565b6060612b95826040518060400160405280602081526020017f5361666545524332303a206c6f772d6c6576656c2063616c6c206661696c65648152508573ffffffffffffffffffffffffffffffffffffffff16612c229092919063ffffffff16565b9050600081511115612c1d57808060200190516020811015612bb657600080fd5b8101908080519060200190929190505050612c1c576040517f08c379a000000000000000000000000000000000000000000000000000000000815260040180806020018281038252602a815260200180612f81602a913960400191505060405180910390fd5b5b505050565b6060612c318484600085612c3a565b90509392505050565b606082471015612c95576040517f08c379a0000000000000000000000000000000000000000000000000000000008152600401808060200182810382526026815260200180612ee96026913960400191505060405180910390fd5b612c9e85612de3565b612d10576040517f08c379a000000000000000000000000000000000000000000000000000000000815260040180806020018281038252601d8152602001807f416464726573733a2063616c6c20746f206e6f6e2d636f6e747261637400000081525060200191505060405180910390fd5b600060608673ffffffffffffffffffffffffffffffffffffffff1685876040518082805190602001908083835b60208310612d605780518252602082019150602081019050602083039250612d3d565b6001836020036101000a03801982511681845116808217855250505050505090500191505060006040518083038185875af1925050503d8060008114612dc2576040519150601f19603f3d011682016040523d82523d6000602084013e612dc7565b606091505b5091509150612dd7828286612df6565b92505050949350505050565b600080823b905060008111915050919050565b60608315612e0657829050612ebb565b600083511115612e195782518084602001fd5b816040517f08c379a00000000000000000000000000000000000000000000000000000000081526004018080602001828103825283818151815260200191508051906020019080838360005b83811015612e80578082015181840152602081019050612e65565b50505050905090810190601f168015612ead5780820380516001836020036101000a031916815260200191505b509250505060405180910390fd5b939250505056fe4f776e61626c653a206e6577206f776e657220697320746865207a65726f2061646472657373416464726573733a20696e73756666696369656e742062616c616e636520666f722063616c6c6f70657261746f723a207a65726f206164647265737320676976656e20666f72206e6577206f70657261746f72536166654d6174683a206d756c7469706c69636174696f6e206f766572666c6f776f70657261746f723a2063616c6c6572206973206e6f7420746865206f70657261746f725361666545524332303a204552433230206f7065726174696f6e20646964206e6f742073756363656564a264697066735822122011da50da5fe50690d8695c6880b53a2b3c0bbaf9b8360700bd171dc7654153f164736f6c634300060c0033",
					"opcodes": "PUSH1 0x80 PUSH1 0x40 MSTORE PUSH1 0x0 PUSH1 0x5 PUSH1 0x0 PUSH2 0x100 EXP DUP2 SLOAD DUP2 PUSH1 0xFF MUL NOT AND SWAP1 DUP4 ISZERO ISZERO MUL OR SWAP1 SSTORE POP PUSH1 0x0 PUSH1 0x7 SSTORE PUSH8 0x156A8C394962000 PUSH1 0xA SSTORE PUSH3 0x3F480 PUSH1 0xB SSTORE CALLVALUE DUP1 ISZERO PUSH3 0x44 JUMPI PUSH1 0x0 DUP1 REVERT JUMPDEST POP PUSH1 0x0 PUSH3 0x57 PUSH3 0x1C8 PUSH1 0x20 SHL PUSH1 0x20 SHR JUMP JUMPDEST SWAP1 POP DUP1 PUSH1 0x0 DUP1 PUSH2 0x100 EXP DUP2 SLOAD DUP2 PUSH20 0xFFFFFFFFFFFFFFFFFFFFFFFFFFFFFFFFFFFFFFFF MUL NOT AND SWAP1 DUP4 PUSH20 0xFFFFFFFFFFFFFFFFFFFFFFFFFFFFFFFFFFFFFFFF AND MUL OR SWAP1 SSTORE POP DUP1 PUSH20 0xFFFFFFFFFFFFFFFFFFFFFFFFFFFFFFFFFFFFFFFF AND PUSH1 0x0 PUSH20 0xFFFFFFFFFFFFFFFFFFFFFFFFFFFFFFFFFFFFFFFF AND PUSH32 0x8BE0079C531659141344CD1FD0A4F28419497F9722A3DAAFE3B4186F6B6457E0 PUSH1 0x40 MLOAD PUSH1 0x40 MLOAD DUP1 SWAP2 SUB SWAP1 LOG3 POP PUSH3 0x105 PUSH3 0x1C8 PUSH1 0x20 SHL PUSH1 0x20 SHR JUMP JUMPDEST PUSH1 0x1 PUSH1 0x0 PUSH2 0x100 EXP DUP2 SLOAD DUP2 PUSH20 0xFFFFFFFFFFFFFFFFFFFFFFFFFFFFFFFFFFFFFFFF MUL NOT AND SWAP1 DUP4 PUSH20 0xFFFFFFFFFFFFFFFFFFFFFFFFFFFFFFFFFFFFFFFF AND MUL OR SWAP1 SSTORE POP PUSH1 0x1 PUSH1 0x0 SWAP1 SLOAD SWAP1 PUSH2 0x100 EXP SWAP1 DIV PUSH20 0xFFFFFFFFFFFFFFFFFFFFFFFFFFFFFFFFFFFFFFFF AND PUSH20 0xFFFFFFFFFFFFFFFFFFFFFFFFFFFFFFFFFFFFFFFF AND PUSH1 0x0 PUSH20 0xFFFFFFFFFFFFFFFFFFFFFFFFFFFFFFFFFFFFFFFF AND PUSH32 0x74DA04524D50C64947F5DD5381EF1A4DCA5CBA8ED1D816243F9E48AA0B5617ED PUSH1 0x40 MLOAD PUSH1 0x40 MLOAD DUP1 SWAP2 SUB SWAP1 LOG3 PUSH3 0x1D0 JUMP JUMPDEST PUSH1 0x0 CALLER SWAP1 POP SWAP1 JUMP JUMPDEST PUSH2 0x2FE0 DUP1 PUSH3 0x1E0 PUSH1 0x0 CODECOPY PUSH1 0x0 RETURN INVALID PUSH1 0x80 PUSH1 0x40 MSTORE CALLVALUE DUP1 ISZERO PUSH2 0x10 JUMPI PUSH1 0x0 DUP1 REVERT JUMPDEST POP PUSH1 0x4 CALLDATASIZE LT PUSH2 0x1DA JUMPI PUSH1 0x0 CALLDATALOAD PUSH1 0xE0 SHR DUP1 PUSH4 0x5F96DC11 GT PUSH2 0x104 JUMPI DUP1 PUSH4 0x96805E54 GT PUSH2 0xA2 JUMPI DUP1 PUSH4 0xE177BB38 GT PUSH2 0x71 JUMPI DUP1 PUSH4 0xE177BB38 EQ PUSH2 0x72C JUMPI DUP1 PUSH4 0xE2BBB158 EQ PUSH2 0x760 JUMPI DUP1 PUSH4 0xECF4DEB9 EQ PUSH2 0x798 JUMPI DUP1 PUSH4 0xF2FDE38B EQ PUSH2 0x7FA JUMPI PUSH2 0x1DA JUMP JUMPDEST DUP1 PUSH4 0x96805E54 EQ PUSH2 0x618 JUMPI DUP1 PUSH4 0xB3AB15FB EQ PUSH2 0x67C JUMPI DUP1 PUSH4 0xCD6DC687 EQ PUSH2 0x6C0 JUMPI DUP1 PUSH4 0xD212A69A EQ PUSH2 0x70E JUMPI PUSH2 0x1DA JUMP JUMPDEST DUP1 PUSH4 0x715018A6 GT PUSH2 0xDE JUMPI DUP1 PUSH4 0x715018A6 EQ PUSH2 0x553 JUMPI DUP1 PUSH4 0x8DA5CB5B EQ PUSH2 0x55D JUMPI DUP1 PUSH4 0x93F1A40B EQ PUSH2 0x591 JUMPI DUP1 PUSH4 0x943F013D EQ PUSH2 0x5FA JUMPI PUSH2 0x1DA JUMP JUMPDEST DUP1 PUSH4 0x5F96DC11 EQ PUSH2 0x50D JUMPI DUP1 PUSH4 0x630B5BA1 EQ PUSH2 0x52B JUMPI DUP1 PUSH4 0x6E271DD5 EQ PUSH2 0x535 JUMPI PUSH2 0x1DA JUMP JUMPDEST DUP1 PUSH4 0x392E53CD GT PUSH2 0x17C JUMPI DUP1 PUSH4 0x51EB05A6 GT PUSH2 0x14B JUMPI DUP1 PUSH4 0x51EB05A6 EQ PUSH2 0x40F JUMPI DUP1 PUSH4 0x5312EA8E EQ PUSH2 0x43D JUMPI DUP1 PUSH4 0x54575AF4 EQ PUSH2 0x46B JUMPI DUP1 PUSH4 0x570CA735 EQ PUSH2 0x4D9 JUMPI PUSH2 0x1DA JUMP JUMPDEST DUP1 PUSH4 0x392E53CD EQ PUSH2 0x379 JUMPI DUP1 PUSH4 0x3F7CAF52 EQ PUSH2 0x399 JUMPI DUP1 PUSH4 0x441A3E70 EQ PUSH2 0x3B7 JUMPI DUP1 PUSH4 0x4456EDA2 EQ PUSH2 0x3EF JUMPI PUSH2 0x1DA JUMP JUMPDEST DUP1 PUSH4 0x17CAF6F1 GT PUSH2 0x1B8 JUMPI DUP1 PUSH4 0x17CAF6F1 EQ PUSH2 0x293 JUMPI DUP1 PUSH4 0x1AB06EE5 EQ PUSH2 0x2B1 JUMPI DUP1 PUSH4 0x231F0C6A EQ PUSH2 0x2E9 JUMPI DUP1 PUSH4 0x29605E77 EQ PUSH2 0x335 JUMPI PUSH2 0x1DA JUMP JUMPDEST DUP1 PUSH4 0x9CF6091 EQ PUSH2 0x1DF JUMPI DUP1 PUSH4 0x1526FE27 EQ PUSH2 0x1FD JUMPI DUP1 PUSH4 0x158EF93E EQ PUSH2 0x273 JUMPI JUMPDEST PUSH1 0x0 DUP1 REVERT JUMPDEST PUSH2 0x1E7 PUSH2 0x83E JUMP JUMPDEST PUSH1 0x40 MLOAD DUP1 DUP3 DUP2 MSTORE PUSH1 0x20 ADD SWAP2 POP POP PUSH1 0x40 MLOAD DUP1 SWAP2 SUB SWAP1 RETURN JUMPDEST PUSH2 0x229 PUSH1 0x4 DUP1 CALLDATASIZE SUB PUSH1 0x20 DUP2 LT ISZERO PUSH2 0x213 JUMPI PUSH1 0x0 DUP1 REVERT JUMPDEST DUP2 ADD SWAP1 DUP1 DUP1 CALLDATALOAD SWAP1 PUSH1 0x20 ADD SWAP1 SWAP3 SWAP2 SWAP1 POP POP POP PUSH2 0x84C JUMP JUMPDEST PUSH1 0x40 MLOAD DUP1 DUP7 PUSH20 0xFFFFFFFFFFFFFFFFFFFFFFFFFFFFFFFFFFFFFFFF AND DUP2 MSTORE PUSH1 0x20 ADD DUP6 DUP2 MSTORE PUSH1 0x20 ADD DUP5 DUP2 MSTORE PUSH1 0x20 ADD DUP4 DUP2 MSTORE PUSH1 0x20 ADD DUP3 ISZERO ISZERO DUP2 MSTORE PUSH1 0x20 ADD SWAP6 POP POP POP POP POP POP PUSH1 0x40 MLOAD DUP1 SWAP2 SUB SWAP1 RETURN JUMPDEST PUSH2 0x27B PUSH2 0x8BC JUMP JUMPDEST PUSH1 0x40 MLOAD DUP1 DUP3 ISZERO ISZERO DUP2 MSTORE PUSH1 0x20 ADD SWAP2 POP POP PUSH1 0x40 MLOAD DUP1 SWAP2 SUB SWAP1 RETURN JUMPDEST PUSH2 0x29B PUSH2 0x8CF JUMP JUMPDEST PUSH1 0x40 MLOAD DUP1 DUP3 DUP2 MSTORE PUSH1 0x20 ADD SWAP2 POP POP PUSH1 0x40 MLOAD DUP1 SWAP2 SUB SWAP1 RETURN JUMPDEST PUSH2 0x2E7 PUSH1 0x4 DUP1 CALLDATASIZE SUB PUSH1 0x40 DUP2 LT ISZERO PUSH2 0x2C7 JUMPI PUSH1 0x0 DUP1 REVERT JUMPDEST DUP2 ADD SWAP1 DUP1 DUP1 CALLDATALOAD SWAP1 PUSH1 0x20 ADD SWAP1 SWAP3 SWAP2 SWAP1 DUP1 CALLDATALOAD SWAP1 PUSH1 0x20 ADD SWAP1 SWAP3 SWAP2 SWAP1 POP POP POP PUSH2 0x8D5 JUMP JUMPDEST STOP JUMPDEST PUSH2 0x31F PUSH1 0x4 DUP1 CALLDATASIZE SUB PUSH1 0x40 DUP2 LT ISZERO PUSH2 0x2FF JUMPI PUSH1 0x0 DUP1 REVERT JUMPDEST DUP2 ADD SWAP1 DUP1 DUP1 CALLDATALOAD SWAP1 PUSH1 0x20 ADD SWAP1 SWAP3 SWAP2 SWAP1 DUP1 CALLDATALOAD SWAP1 PUSH1 0x20 ADD SWAP1 SWAP3 SWAP2 SWAP1 POP POP POP PUSH2 0x9F9 JUMP JUMPDEST PUSH1 0x40 MLOAD DUP1 DUP3 DUP2 MSTORE PUSH1 0x20 ADD SWAP2 POP POP PUSH1 0x40 MLOAD DUP1 SWAP2 SUB SWAP1 RETURN JUMPDEST PUSH2 0x377 PUSH1 0x4 DUP1 CALLDATASIZE SUB PUSH1 0x20 DUP2 LT ISZERO PUSH2 0x34B JUMPI PUSH1 0x0 DUP1 REVERT JUMPDEST DUP2 ADD SWAP1 DUP1 DUP1 CALLDATALOAD PUSH20 0xFFFFFFFFFFFFFFFFFFFFFFFFFFFFFFFFFFFFFFFF AND SWAP1 PUSH1 0x20 ADD SWAP1 SWAP3 SWAP2 SWAP1 POP POP POP PUSH2 0xB0C JUMP JUMPDEST STOP JUMPDEST PUSH2 0x381 PUSH2 0xBC7 JUMP JUMPDEST PUSH1 0x40 MLOAD DUP1 DUP3 ISZERO ISZERO DUP2 MSTORE PUSH1 0x20 ADD SWAP2 POP POP PUSH1 0x40 MLOAD DUP1 SWAP2 SUB SWAP1 RETURN JUMPDEST PUSH2 0x3A1 PUSH2 0xBDE JUMP JUMPDEST PUSH1 0x40 MLOAD DUP1 DUP3 DUP2 MSTORE PUSH1 0x20 ADD SWAP2 POP POP PUSH1 0x40 MLOAD DUP1 SWAP2 SUB SWAP1 RETURN JUMPDEST PUSH2 0x3ED PUSH1 0x4 DUP1 CALLDATASIZE SUB PUSH1 0x40 DUP2 LT ISZERO PUSH2 0x3CD JUMPI PUSH1 0x0 DUP1 REVERT JUMPDEST DUP2 ADD SWAP1 DUP1 DUP1 CALLDATALOAD SWAP1 PUSH1 0x20 ADD SWAP1 SWAP3 SWAP2 SWAP1 DUP1 CALLDATALOAD SWAP1 PUSH1 0x20 ADD SWAP1 SWAP3 SWAP2 SWAP1 POP POP POP PUSH2 0xBE4 JUMP JUMPDEST STOP JUMPDEST PUSH2 0x3F7 PUSH2 0xE9C JUMP JUMPDEST PUSH1 0x40 MLOAD DUP1 DUP3 ISZERO ISZERO DUP2 MSTORE PUSH1 0x20 ADD SWAP2 POP POP PUSH1 0x40 MLOAD DUP1 SWAP2 SUB SWAP1 RETURN JUMPDEST PUSH2 0x43B PUSH1 0x4 DUP1 CALLDATASIZE SUB PUSH1 0x20 DUP2 LT ISZERO PUSH2 0x425 JUMPI PUSH1 0x0 DUP1 REVERT JUMPDEST DUP2 ADD SWAP1 DUP1 DUP1 CALLDATALOAD SWAP1 PUSH1 0x20 ADD SWAP1 SWAP3 SWAP2 SWAP1 POP POP POP PUSH2 0xEFB JUMP JUMPDEST STOP JUMPDEST PUSH2 0x469 PUSH1 0x4 DUP1 CALLDATASIZE SUB PUSH1 0x20 DUP2 LT ISZERO PUSH2 0x453 JUMPI PUSH1 0x0 DUP1 REVERT JUMPDEST DUP2 ADD SWAP1 DUP1 DUP1 CALLDATALOAD SWAP1 PUSH1 0x20 ADD SWAP1 SWAP3 SWAP2 SWAP1 POP POP POP PUSH2 0x110A JUMP JUMPDEST STOP JUMPDEST PUSH2 0x4D7 PUSH1 0x4 DUP1 CALLDATASIZE SUB PUSH1 0x60 DUP2 LT ISZERO PUSH2 0x481 JUMPI PUSH1 0x0 DUP1 REVERT JUMPDEST DUP2 ADD SWAP1 DUP1 DUP1 CALLDATALOAD PUSH20 0xFFFFFFFFFFFFFFFFFFFFFFFFFFFFFFFFFFFFFFFF AND SWAP1 PUSH1 0x20 ADD SWAP1 SWAP3 SWAP2 SWAP1 DUP1 CALLDATALOAD SWAP1 PUSH1 0x20 ADD SWAP1 SWAP3 SWAP2 SWAP1 DUP1 CALLDATALOAD PUSH20 0xFFFFFFFFFFFFFFFFFFFFFFFFFFFFFFFFFFFFFFFF AND SWAP1 PUSH1 0x20 ADD SWAP1 SWAP3 SWAP2 SWAP1 POP POP POP PUSH2 0x123E JUMP JUMPDEST STOP JUMPDEST PUSH2 0x4E1 PUSH2 0x14F0 JUMP JUMPDEST PUSH1 0x40 MLOAD DUP1 DUP3 PUSH20 0xFFFFFFFFFFFFFFFFFFFFFFFFFFFFFFFFFFFFFFFF AND DUP2 MSTORE PUSH1 0x20 ADD SWAP2 POP POP PUSH1 0x40 MLOAD DUP1 SWAP2 SUB SWAP1 RETURN JUMPDEST PUSH2 0x515 PUSH2 0x151A JUMP JUMPDEST PUSH1 0x40 MLOAD DUP1 DUP3 DUP2 MSTORE PUSH1 0x20 ADD SWAP2 POP POP PUSH1 0x40 MLOAD DUP1 SWAP2 SUB SWAP1 RETURN JUMPDEST PUSH2 0x533 PUSH2 0x1520 JUMP JUMPDEST STOP JUMPDEST PUSH2 0x53D PUSH2 0x154D JUMP JUMPDEST PUSH1 0x40 MLOAD DUP1 DUP3 DUP2 MSTORE PUSH1 0x20 ADD SWAP2 POP POP PUSH1 0x40 MLOAD DUP1 SWAP2 SUB SWAP1 RETURN JUMPDEST PUSH2 0x55B PUSH2 0x1553 JUMP JUMPDEST STOP JUMPDEST PUSH2 0x565 PUSH2 0x16C0 JUMP JUMPDEST PUSH1 0x40 MLOAD DUP1 DUP3 PUSH20 0xFFFFFFFFFFFFFFFFFFFFFFFFFFFFFFFFFFFFFFFF AND DUP2 MSTORE PUSH1 0x20 ADD SWAP2 POP POP PUSH1 0x40 MLOAD DUP1 SWAP2 SUB SWAP1 RETURN JUMPDEST PUSH2 0x5DD PUSH1 0x4 DUP1 CALLDATASIZE SUB PUSH1 0x40 DUP2 LT ISZERO PUSH2 0x5A7 JUMPI PUSH1 0x0 DUP1 REVERT JUMPDEST DUP2 ADD SWAP1 DUP1 DUP1 CALLDATALOAD SWAP1 PUSH1 0x20 ADD SWAP1 SWAP3 SWAP2 SWAP1 DUP1 CALLDATALOAD PUSH20 0xFFFFFFFFFFFFFFFFFFFFFFFFFFFFFFFFFFFFFFFF AND SWAP1 PUSH1 0x20 ADD SWAP1 SWAP3 SWAP2 SWAP1 POP POP POP PUSH2 0x16E9 JUMP JUMPDEST PUSH1 0x40 MLOAD DUP1 DUP4 DUP2 MSTORE PUSH1 0x20 ADD DUP3 DUP2 MSTORE PUSH1 0x20 ADD SWAP3 POP POP POP PUSH1 0x40 MLOAD DUP1 SWAP2 SUB SWAP1 RETURN JUMPDEST PUSH2 0x602 PUSH2 0x171A JUMP JUMPDEST PUSH1 0x40 MLOAD DUP1 DUP3 DUP2 MSTORE PUSH1 0x20 ADD SWAP2 POP POP PUSH1 0x40 MLOAD DUP1 SWAP2 SUB SWAP1 RETURN JUMPDEST PUSH2 0x67A PUSH1 0x4 DUP1 CALLDATASIZE SUB PUSH1 0x80 DUP2 LT ISZERO PUSH2 0x62E JUMPI PUSH1 0x0 DUP1 REVERT JUMPDEST DUP2 ADD SWAP1 DUP1 DUP1 CALLDATALOAD SWAP1 PUSH1 0x20 ADD SWAP1 SWAP3 SWAP2 SWAP1 DUP1 CALLDATALOAD PUSH20 0xFFFFFFFFFFFFFFFFFFFFFFFFFFFFFFFFFFFFFFFF AND SWAP1 PUSH1 0x20 ADD SWAP1 SWAP3 SWAP2 SWAP1 DUP1 CALLDATALOAD ISZERO ISZERO SWAP1 PUSH1 0x20 ADD SWAP1 SWAP3 SWAP2 SWAP1 DUP1 CALLDATALOAD SWAP1 PUSH1 0x20 ADD SWAP1 SWAP3 SWAP2 SWAP1 POP POP POP PUSH2 0x1720 JUMP JUMPDEST STOP JUMPDEST PUSH2 0x6BE PUSH1 0x4 DUP1 CALLDATASIZE SUB PUSH1 0x20 DUP2 LT ISZERO PUSH2 0x692 JUMPI PUSH1 0x0 DUP1 REVERT JUMPDEST DUP2 ADD SWAP1 DUP1 DUP1 CALLDATALOAD PUSH20 0xFFFFFFFFFFFFFFFFFFFFFFFFFFFFFFFFFFFFFFFF AND SWAP1 PUSH1 0x20 ADD SWAP1 SWAP3 SWAP2 SWAP1 POP POP POP PUSH2 0x1959 JUMP JUMPDEST STOP JUMPDEST PUSH2 0x70C PUSH1 0x4 DUP1 CALLDATASIZE SUB PUSH1 0x40 DUP2 LT ISZERO PUSH2 0x6D6 JUMPI PUSH1 0x0 DUP1 REVERT JUMPDEST DUP2 ADD SWAP1 DUP1 DUP1 CALLDATALOAD PUSH20 0xFFFFFFFFFFFFFFFFFFFFFFFFFFFFFFFFFFFFFFFF AND SWAP1 PUSH1 0x20 ADD SWAP1 SWAP3 SWAP2 SWAP1 DUP1 CALLDATALOAD SWAP1 PUSH1 0x20 ADD SWAP1 SWAP3 SWAP2 SWAP1 POP POP POP PUSH2 0x1A0B JUMP JUMPDEST STOP JUMPDEST PUSH2 0x716 PUSH2 0x1C5A JUMP JUMPDEST PUSH1 0x40 MLOAD DUP1 DUP3 DUP2 MSTORE PUSH1 0x20 ADD SWAP2 POP POP PUSH1 0x40 MLOAD DUP1 SWAP2 SUB SWAP1 RETURN JUMPDEST PUSH2 0x734 PUSH2 0x1C60 JUMP JUMPDEST PUSH1 0x40 MLOAD DUP1 DUP3 PUSH20 0xFFFFFFFFFFFFFFFFFFFFFFFFFFFFFFFFFFFFFFFF AND DUP2 MSTORE PUSH1 0x20 ADD SWAP2 POP POP PUSH1 0x40 MLOAD DUP1 SWAP2 SUB SWAP1 RETURN JUMPDEST PUSH2 0x796 PUSH1 0x4 DUP1 CALLDATASIZE SUB PUSH1 0x40 DUP2 LT ISZERO PUSH2 0x776 JUMPI PUSH1 0x0 DUP1 REVERT JUMPDEST DUP2 ADD SWAP1 DUP1 DUP1 CALLDATALOAD SWAP1 PUSH1 0x20 ADD SWAP1 SWAP3 SWAP2 SWAP1 DUP1 CALLDATALOAD SWAP1 PUSH1 0x20 ADD SWAP1 SWAP3 SWAP2 SWAP1 POP POP POP PUSH2 0x1C86 JUMP JUMPDEST STOP JUMPDEST PUSH2 0x7E4 PUSH1 0x4 DUP1 CALLDATASIZE SUB PUSH1 0x40 DUP2 LT ISZERO PUSH2 0x7AE JUMPI PUSH1 0x0 DUP1 REVERT JUMPDEST DUP2 ADD SWAP1 DUP1 DUP1 CALLDATALOAD SWAP1 PUSH1 0x20 ADD SWAP1 SWAP3 SWAP2 SWAP1 DUP1 CALLDATALOAD PUSH20 0xFFFFFFFFFFFFFFFFFFFFFFFFFFFFFFFFFFFFFFFF AND SWAP1 PUSH1 0x20 ADD SWAP1 SWAP3 SWAP2 SWAP1 POP POP POP PUSH2 0x1F97 JUMP JUMPDEST PUSH1 0x40 MLOAD DUP1 DUP3 DUP2 MSTORE PUSH1 0x20 ADD SWAP2 POP POP PUSH1 0x40 MLOAD DUP1 SWAP2 SUB SWAP1 RETURN JUMPDEST PUSH2 0x83C PUSH1 0x4 DUP1 CALLDATASIZE SUB PUSH1 0x20 DUP2 LT ISZERO PUSH2 0x810 JUMPI PUSH1 0x0 DUP1 REVERT JUMPDEST DUP2 ADD SWAP1 DUP1 DUP1 CALLDATALOAD PUSH20 0xFFFFFFFFFFFFFFFFFFFFFFFFFFFFFFFFFFFFFFFF AND SWAP1 PUSH1 0x20 ADD SWAP1 SWAP3 SWAP2 SWAP1 POP POP POP PUSH2 0x21CF JUMP JUMPDEST STOP JUMPDEST PUSH10 0x54B40B1F852BDA00000 DUP2 JUMP JUMPDEST PUSH1 0x4 DUP2 DUP2 SLOAD DUP2 LT PUSH2 0x859 JUMPI INVALID JUMPDEST SWAP1 PUSH1 0x0 MSTORE PUSH1 0x20 PUSH1 0x0 KECCAK256 SWAP1 PUSH1 0x5 MUL ADD PUSH1 0x0 SWAP2 POP SWAP1 POP DUP1 PUSH1 0x0 ADD PUSH1 0x0 SWAP1 SLOAD SWAP1 PUSH2 0x100 EXP SWAP1 DIV PUSH20 0xFFFFFFFFFFFFFFFFFFFFFFFFFFFFFFFFFFFFFFFF AND SWAP1 DUP1 PUSH1 0x1 ADD SLOAD SWAP1 DUP1 PUSH1 0x2 ADD SLOAD SWAP1 DUP1 PUSH1 0x3 ADD SLOAD SWAP1 DUP1 PUSH1 0x4 ADD PUSH1 0x0 SWAP1 SLOAD SWAP1 PUSH2 0x100 EXP SWAP1 DIV PUSH1 0xFF AND SWAP1 POP DUP6 JUMP JUMPDEST PUSH1 0x5 PUSH1 0x0 SWAP1 SLOAD SWAP1 PUSH2 0x100 EXP SWAP1 DIV PUSH1 0xFF AND DUP2 JUMP JUMPDEST PUSH1 0x7 SLOAD DUP2 JUMP JUMPDEST CALLER PUSH20 0xFFFFFFFFFFFFFFFFFFFFFFFFFFFFFFFFFFFFFFFF AND PUSH1 0x1 PUSH1 0x0 SWAP1 SLOAD SWAP1 PUSH2 0x100 EXP SWAP1 DIV PUSH20 0xFFFFFFFFFFFFFFFFFFFFFFFFFFFFFFFFFFFFFFFF AND PUSH20 0xFFFFFFFFFFFFFFFFFFFFFFFFFFFFFFFFFFFFFFFF AND EQ PUSH2 0x97B JUMPI PUSH1 0x40 MLOAD PUSH32 0x8C379A000000000000000000000000000000000000000000000000000000000 DUP2 MSTORE PUSH1 0x4 ADD DUP1 DUP1 PUSH1 0x20 ADD DUP3 DUP2 SUB DUP3 MSTORE PUSH1 0x24 DUP2 MSTORE PUSH1 0x20 ADD DUP1 PUSH2 0x2F5D PUSH1 0x24 SWAP2 CODECOPY PUSH1 0x40 ADD SWAP2 POP POP PUSH1 0x40 MLOAD DUP1 SWAP2 SUB SWAP1 REVERT JUMPDEST PUSH2 0x983 PUSH2 0x1520 JUMP JUMPDEST PUSH1 0x0 PUSH1 0x4 DUP4 DUP2 SLOAD DUP2 LT PUSH2 0x992 JUMPI INVALID JUMPDEST SWAP1 PUSH1 0x0 MSTORE PUSH1 0x20 PUSH1 0x0 KECCAK256 SWAP1 PUSH1 0x5 MUL ADD SWAP1 POP DUP1 PUSH1 0x4 ADD PUSH1 0x0 SWAP1 SLOAD SWAP1 PUSH2 0x100 EXP SWAP1 DIV PUSH1 0xFF AND ISZERO PUSH2 0x9EB JUMPI PUSH2 0x9E4 DUP3 PUSH2 0x9D6 DUP4 PUSH1 0x1 ADD SLOAD PUSH1 0x7 SLOAD PUSH2 0x23C1 SWAP1 SWAP2 SWAP1 PUSH4 0xFFFFFFFF AND JUMP JUMPDEST PUSH2 0x2444 SWAP1 SWAP2 SWAP1 PUSH4 0xFFFFFFFF AND JUMP JUMPDEST PUSH1 0x7 DUP2 SWAP1 SSTORE POP JUMPDEST DUP2 DUP2 PUSH1 0x1 ADD DUP2 SWAP1 SSTORE POP POP POP POP JUMP JUMPDEST PUSH1 0x0 DUP2 DUP4 LT PUSH2 0xA0B JUMPI PUSH1 0x0 SWAP1 POP PUSH2 0xB06 JUMP JUMPDEST PUSH1 0x9 SLOAD DUP3 LT PUSH2 0xA91 JUMPI PUSH1 0x9 SLOAD DUP4 LT PUSH2 0xA26 JUMPI PUSH1 0x0 SWAP1 POP PUSH2 0xB06 JUMP JUMPDEST PUSH1 0x8 SLOAD DUP4 GT PUSH2 0xA61 JUMPI PUSH2 0xA5A PUSH1 0xA SLOAD PUSH2 0xA4C PUSH1 0x8 SLOAD PUSH1 0x9 SLOAD PUSH2 0x23C1 SWAP1 SWAP2 SWAP1 PUSH4 0xFFFFFFFF AND JUMP JUMPDEST PUSH2 0x24CC SWAP1 SWAP2 SWAP1 PUSH4 0xFFFFFFFF AND JUMP JUMPDEST SWAP1 POP PUSH2 0xB06 JUMP JUMPDEST PUSH2 0xA8A PUSH1 0xA SLOAD PUSH2 0xA7C DUP6 PUSH1 0x9 SLOAD PUSH2 0x23C1 SWAP1 SWAP2 SWAP1 PUSH4 0xFFFFFFFF AND JUMP JUMPDEST PUSH2 0x24CC SWAP1 SWAP2 SWAP1 PUSH4 0xFFFFFFFF AND JUMP JUMPDEST SWAP1 POP PUSH2 0xB06 JUMP JUMPDEST PUSH1 0x8 SLOAD DUP3 GT PUSH2 0xAA3 JUMPI PUSH1 0x0 SWAP1 POP PUSH2 0xB06 JUMP JUMPDEST PUSH1 0x8 SLOAD DUP4 GT PUSH2 0xADC JUMPI PUSH2 0xAD5 PUSH1 0xA SLOAD PUSH2 0xAC7 PUSH1 0x8 SLOAD DUP6 PUSH2 0x23C1 SWAP1 SWAP2 SWAP1 PUSH4 0xFFFFFFFF AND JUMP JUMPDEST PUSH2 0x24CC SWAP1 SWAP2 SWAP1 PUSH4 0xFFFFFFFF AND JUMP JUMPDEST SWAP1 POP PUSH2 0xB06 JUMP JUMPDEST PUSH2 0xB03 PUSH1 0xA SLOAD PUSH2 0xAF5 DUP6 DUP6 PUSH2 0x23C1 SWAP1 SWAP2 SWAP1 PUSH4 0xFFFFFFFF AND JUMP JUMPDEST PUSH2 0x24CC SWAP1 SWAP2 SWAP1 PUSH4 0xFFFFFFFF AND JUMP JUMPDEST SWAP1 POP JUMPDEST SWAP3 SWAP2 POP POP JUMP JUMPDEST PUSH2 0xB14 PUSH2 0x2552 JUMP JUMPDEST PUSH20 0xFFFFFFFFFFFFFFFFFFFFFFFFFFFFFFFFFFFFFFFF AND PUSH2 0xB32 PUSH2 0x16C0 JUMP JUMPDEST PUSH20 0xFFFFFFFFFFFFFFFFFFFFFFFFFFFFFFFFFFFFFFFF AND EQ PUSH2 0xBBB JUMPI PUSH1 0x40 MLOAD PUSH32 0x8C379A000000000000000000000000000000000000000000000000000000000 DUP2 MSTORE PUSH1 0x4 ADD DUP1 DUP1 PUSH1 0x20 ADD DUP3 DUP2 SUB DUP3 MSTORE PUSH1 0x20 DUP2 MSTORE PUSH1 0x20 ADD DUP1 PUSH32 0x4F776E61626C653A2063616C6C6572206973206E6F7420746865206F776E6572 DUP2 MSTORE POP PUSH1 0x20 ADD SWAP2 POP POP PUSH1 0x40 MLOAD DUP1 SWAP2 SUB SWAP1 REVERT JUMPDEST PUSH2 0xBC4 DUP2 PUSH2 0x255A JUMP JUMPDEST POP JUMP JUMPDEST PUSH1 0x0 PUSH1 0x5 PUSH1 0x0 SWAP1 SLOAD SWAP1 PUSH2 0x100 EXP SWAP1 DIV PUSH1 0xFF AND SWAP1 POP SWAP1 JUMP JUMPDEST PUSH1 0xA SLOAD DUP2 JUMP JUMPDEST PUSH1 0x0 CALLER SWAP1 POP PUSH1 0x0 PUSH1 0x4 DUP5 DUP2 SLOAD DUP2 LT PUSH2 0xBF8 JUMPI INVALID JUMPDEST SWAP1 PUSH1 0x0 MSTORE PUSH1 0x20 PUSH1 0x0 KECCAK256 SWAP1 PUSH1 0x5 MUL ADD SWAP1 POP PUSH1 0x0 PUSH1 0x6 PUSH1 0x0 DUP7 DUP2 MSTORE PUSH1 0x20 ADD SWAP1 DUP2 MSTORE PUSH1 0x20 ADD PUSH1 0x0 KECCAK256 PUSH1 0x0 DUP5 PUSH20 0xFFFFFFFFFFFFFFFFFFFFFFFFFFFFFFFFFFFFFFFF AND PUSH20 0xFFFFFFFFFFFFFFFFFFFFFFFFFFFFFFFFFFFFFFFF AND DUP2 MSTORE PUSH1 0x20 ADD SWAP1 DUP2 MSTORE PUSH1 0x20 ADD PUSH1 0x0 KECCAK256 SWAP1 POP DUP4 DUP2 PUSH1 0x0 ADD SLOAD LT ISZERO PUSH2 0xCD6 JUMPI PUSH1 0x40 MLOAD PUSH32 0x8C379A000000000000000000000000000000000000000000000000000000000 DUP2 MSTORE PUSH1 0x4 ADD DUP1 DUP1 PUSH1 0x20 ADD DUP3 DUP2 SUB DUP3 MSTORE PUSH1 0x12 DUP2 MSTORE PUSH1 0x20 ADD DUP1 PUSH32 0x77697468647261773A206E6F7420676F6F640000000000000000000000000000 DUP2 MSTORE POP PUSH1 0x20 ADD SWAP2 POP POP PUSH1 0x40 MLOAD DUP1 SWAP2 SUB SWAP1 REVERT JUMPDEST PUSH2 0xCDF DUP6 PUSH2 0xEFB JUMP JUMPDEST PUSH1 0x0 PUSH2 0xD2C DUP3 PUSH1 0x1 ADD SLOAD PUSH2 0xD1E PUSH8 0xDE0B6B3A7640000 PUSH2 0xD10 DUP8 PUSH1 0x3 ADD SLOAD DUP8 PUSH1 0x0 ADD SLOAD PUSH2 0x24CC SWAP1 SWAP2 SWAP1 PUSH4 0xFFFFFFFF AND JUMP JUMPDEST PUSH2 0x2688 SWAP1 SWAP2 SWAP1 PUSH4 0xFFFFFFFF AND JUMP JUMPDEST PUSH2 0x23C1 SWAP1 SWAP2 SWAP1 PUSH4 0xFFFFFFFF AND JUMP JUMPDEST SWAP1 POP PUSH1 0x0 DUP2 GT ISZERO PUSH2 0xD90 JUMPI PUSH2 0xD41 DUP5 DUP3 PUSH2 0x2711 JUMP JUMPDEST DUP4 PUSH20 0xFFFFFFFFFFFFFFFFFFFFFFFFFFFFFFFFFFFFFFFF AND PUSH32 0xE2403640BA68FED3A2F88B7557551D1993F84B99BB10FF833F0CF8DB0C5E0486 DUP3 PUSH1 0x40 MLOAD DUP1 DUP3 DUP2 MSTORE PUSH1 0x20 ADD SWAP2 POP POP PUSH1 0x40 MLOAD DUP1 SWAP2 SUB SWAP1 LOG2 JUMPDEST PUSH1 0x0 DUP6 GT ISZERO PUSH2 0xE08 JUMPI PUSH2 0xDB0 DUP6 DUP4 PUSH1 0x0 ADD SLOAD PUSH2 0x23C1 SWAP1 SWAP2 SWAP1 PUSH4 0xFFFFFFFF AND JUMP JUMPDEST DUP3 PUSH1 0x0 ADD DUP2 SWAP1 SSTORE POP PUSH2 0xE07 DUP5 DUP7 DUP6 PUSH1 0x0 ADD PUSH1 0x0 SWAP1 SLOAD SWAP1 PUSH2 0x100 EXP SWAP1 DIV PUSH20 0xFFFFFFFFFFFFFFFFFFFFFFFFFFFFFFFFFFFFFFFF AND PUSH20 0xFFFFFFFFFFFFFFFFFFFFFFFFFFFFFFFFFFFFFFFF AND PUSH2 0x2890 SWAP1 SWAP3 SWAP2 SWAP1 PUSH4 0xFFFFFFFF AND JUMP JUMPDEST JUMPDEST PUSH2 0xE3D PUSH8 0xDE0B6B3A7640000 PUSH2 0xE2F DUP6 PUSH1 0x3 ADD SLOAD DUP6 PUSH1 0x0 ADD SLOAD PUSH2 0x24CC SWAP1 SWAP2 SWAP1 PUSH4 0xFFFFFFFF AND JUMP JUMPDEST PUSH2 0x2688 SWAP1 SWAP2 SWAP1 PUSH4 0xFFFFFFFF AND JUMP JUMPDEST DUP3 PUSH1 0x1 ADD DUP2 SWAP1 SSTORE POP DUP6 DUP5 PUSH20 0xFFFFFFFFFFFFFFFFFFFFFFFFFFFFFFFFFFFFFFFF AND PUSH32 0xF279E6A1F5E320CCA91135676D9CB6E44CA8A08C0B88342BCDB1144F6511B568 DUP8 PUSH1 0x40 MLOAD DUP1 DUP3 DUP2 MSTORE PUSH1 0x20 ADD SWAP2 POP POP PUSH1 0x40 MLOAD DUP1 SWAP2 SUB SWAP1 LOG3 POP POP POP POP POP POP JUMP JUMPDEST PUSH1 0x0 PUSH1 0x1 PUSH1 0x0 SWAP1 SLOAD SWAP1 PUSH2 0x100 EXP SWAP1 DIV PUSH20 0xFFFFFFFFFFFFFFFFFFFFFFFFFFFFFFFFFFFFFFFF AND PUSH20 0xFFFFFFFFFFFFFFFFFFFFFFFFFFFFFFFFFFFFFFFF AND PUSH2 0xEDF PUSH2 0x2552 JUMP JUMPDEST PUSH20 0xFFFFFFFFFFFFFFFFFFFFFFFFFFFFFFFFFFFFFFFF AND EQ SWAP1 POP SWAP1 JUMP JUMPDEST PUSH1 0x0 PUSH1 0x4 DUP3 DUP2 SLOAD DUP2 LT PUSH2 0xF0A JUMPI INVALID JUMPDEST SWAP1 PUSH1 0x0 MSTORE PUSH1 0x20 PUSH1 0x0 KECCAK256 SWAP1 PUSH1 0x5 MUL ADD SWAP1 POP DUP1 PUSH1 0x2 ADD SLOAD TIMESTAMP GT PUSH2 0xF2B JUMPI POP PUSH2 0x1107 JUMP JUMPDEST PUSH1 0x0 DUP2 PUSH1 0x0 ADD PUSH1 0x0 SWAP1 SLOAD SWAP1 PUSH2 0x100 EXP SWAP1 DIV PUSH20 0xFFFFFFFFFFFFFFFFFFFFFFFFFFFFFFFFFFFFFFFF AND PUSH20 0xFFFFFFFFFFFFFFFFFFFFFFFFFFFFFFFFFFFFFFFF AND PUSH4 0x70A08231 ADDRESS PUSH1 0x40 MLOAD DUP3 PUSH4 0xFFFFFFFF AND PUSH1 0xE0 SHL DUP2 MSTORE PUSH1 0x4 ADD DUP1 DUP3 PUSH20 0xFFFFFFFFFFFFFFFFFFFFFFFFFFFFFFFFFFFFFFFF AND DUP2 MSTORE PUSH1 0x20 ADD SWAP2 POP POP PUSH1 0x20 PUSH1 0x40 MLOAD DUP1 DUP4 SUB DUP2 DUP7 DUP1 EXTCODESIZE ISZERO DUP1 ISZERO PUSH2 0xFB8 JUMPI PUSH1 0x0 DUP1 REVERT JUMPDEST POP GAS STATICCALL ISZERO DUP1 ISZERO PUSH2 0xFCC JUMPI RETURNDATASIZE PUSH1 0x0 DUP1 RETURNDATACOPY RETURNDATASIZE PUSH1 0x0 REVERT JUMPDEST POP POP POP POP PUSH1 0x40 MLOAD RETURNDATASIZE PUSH1 0x20 DUP2 LT ISZERO PUSH2 0xFE2 JUMPI PUSH1 0x0 DUP1 REVERT JUMPDEST DUP2 ADD SWAP1 DUP1 DUP1 MLOAD SWAP1 PUSH1 0x20 ADD SWAP1 SWAP3 SWAP2 SWAP1 POP POP POP SWAP1 POP PUSH1 0x0 DUP2 EQ ISZERO PUSH2 0x100E JUMPI TIMESTAMP DUP3 PUSH1 0x2 ADD DUP2 SWAP1 SSTORE POP POP POP PUSH2 0x1107 JUMP JUMPDEST DUP2 PUSH1 0x4 ADD PUSH1 0x0 SWAP1 SLOAD SWAP1 PUSH2 0x100 EXP SWAP1 DIV PUSH1 0xFF AND PUSH2 0x1061 JUMPI PUSH1 0x1 DUP3 PUSH1 0x4 ADD PUSH1 0x0 PUSH2 0x100 EXP DUP2 SLOAD DUP2 PUSH1 0xFF MUL NOT AND SWAP1 DUP4 ISZERO ISZERO MUL OR SWAP1 SSTORE POP PUSH2 0x105A DUP3 PUSH1 0x1 ADD SLOAD PUSH1 0x7 SLOAD PUSH2 0x2444 SWAP1 SWAP2 SWAP1 PUSH4 0xFFFFFFFF AND JUMP JUMPDEST PUSH1 0x7 DUP2 SWAP1 SSTORE POP JUMPDEST PUSH1 0x0 PUSH1 0x7 SLOAD GT ISZERO PUSH2 0x10FB JUMPI PUSH1 0x0 PUSH2 0x107C DUP4 PUSH1 0x2 ADD SLOAD TIMESTAMP PUSH2 0x9F9 JUMP JUMPDEST SWAP1 POP PUSH1 0x0 PUSH2 0x10AB PUSH1 0x7 SLOAD PUSH2 0x109D DUP7 PUSH1 0x1 ADD SLOAD DUP6 PUSH2 0x24CC SWAP1 SWAP2 SWAP1 PUSH4 0xFFFFFFFF AND JUMP JUMPDEST PUSH2 0x2688 SWAP1 SWAP2 SWAP1 PUSH4 0xFFFFFFFF AND JUMP JUMPDEST SWAP1 POP PUSH2 0x10F0 PUSH2 0x10DD DUP5 PUSH2 0x10CF PUSH8 0xDE0B6B3A7640000 DUP6 PUSH2 0x24CC SWAP1 SWAP2 SWAP1 PUSH4 0xFFFFFFFF AND JUMP JUMPDEST PUSH2 0x2688 SWAP1 SWAP2 SWAP1 PUSH4 0xFFFFFFFF AND JUMP JUMPDEST DUP6 PUSH1 0x3 ADD SLOAD PUSH2 0x2444 SWAP1 SWAP2 SWAP1 PUSH4 0xFFFFFFFF AND JUMP JUMPDEST DUP5 PUSH1 0x3 ADD DUP2 SWAP1 SSTORE POP POP POP JUMPDEST TIMESTAMP DUP3 PUSH1 0x2 ADD DUP2 SWAP1 SSTORE POP POP POP JUMPDEST POP JUMP JUMPDEST PUSH1 0x0 PUSH1 0x4 DUP3 DUP2 SLOAD DUP2 LT PUSH2 0x1119 JUMPI INVALID JUMPDEST SWAP1 PUSH1 0x0 MSTORE PUSH1 0x20 PUSH1 0x0 KECCAK256 SWAP1 PUSH1 0x5 MUL ADD SWAP1 POP PUSH1 0x0 PUSH1 0x6 PUSH1 0x0 DUP5 DUP2 MSTORE PUSH1 0x20 ADD SWAP1 DUP2 MSTORE PUSH1 0x20 ADD PUSH1 0x0 KECCAK256 PUSH1 0x0 CALLER PUSH20 0xFFFFFFFFFFFFFFFFFFFFFFFFFFFFFFFFFFFFFFFF AND PUSH20 0xFFFFFFFFFFFFFFFFFFFFFFFFFFFFFFFFFFFFFFFF AND DUP2 MSTORE PUSH1 0x20 ADD SWAP1 DUP2 MSTORE PUSH1 0x20 ADD PUSH1 0x0 KECCAK256 SWAP1 POP PUSH1 0x0 DUP2 PUSH1 0x0 ADD SLOAD SWAP1 POP PUSH1 0x0 DUP3 PUSH1 0x0 ADD DUP2 SWAP1 SSTORE POP PUSH1 0x0 DUP3 PUSH1 0x1 ADD DUP2 SWAP1 SSTORE POP PUSH2 0x11E9 CALLER DUP3 DUP6 PUSH1 0x0 ADD PUSH1 0x0 SWAP1 SLOAD SWAP1 PUSH2 0x100 EXP SWAP1 DIV PUSH20 0xFFFFFFFFFFFFFFFFFFFFFFFFFFFFFFFFFFFFFFFF AND PUSH20 0xFFFFFFFFFFFFFFFFFFFFFFFFFFFFFFFFFFFFFFFF AND PUSH2 0x2890 SWAP1 SWAP3 SWAP2 SWAP1 PUSH4 0xFFFFFFFF AND JUMP JUMPDEST DUP4 CALLER PUSH20 0xFFFFFFFFFFFFFFFFFFFFFFFFFFFFFFFFFFFFFFFF AND PUSH32 0xBB757047C2B5F3974FE26B7C10F732E7BCE710B0952A71082702781E62AE0595 DUP4 PUSH1 0x40 MLOAD DUP1 DUP3 DUP2 MSTORE PUSH1 0x20 ADD SWAP2 POP POP PUSH1 0x40 MLOAD DUP1 SWAP2 SUB SWAP1 LOG3 POP POP POP POP JUMP JUMPDEST CALLER PUSH20 0xFFFFFFFFFFFFFFFFFFFFFFFFFFFFFFFFFFFFFFFF AND PUSH1 0x1 PUSH1 0x0 SWAP1 SLOAD SWAP1 PUSH2 0x100 EXP SWAP1 DIV PUSH20 0xFFFFFFFFFFFFFFFFFFFFFFFFFFFFFFFFFFFFFFFF AND PUSH20 0xFFFFFFFFFFFFFFFFFFFFFFFFFFFFFFFFFFFFFFFF AND EQ PUSH2 0x12E4 JUMPI PUSH1 0x40 MLOAD PUSH32 0x8C379A000000000000000000000000000000000000000000000000000000000 DUP2 MSTORE PUSH1 0x4 ADD DUP1 DUP1 PUSH1 0x20 ADD DUP3 DUP2 SUB DUP3 MSTORE PUSH1 0x24 DUP2 MSTORE PUSH1 0x20 ADD DUP1 PUSH2 0x2F5D PUSH1 0x24 SWAP2 CODECOPY PUSH1 0x40 ADD SWAP2 POP POP PUSH1 0x40 MLOAD DUP1 SWAP2 SUB SWAP1 REVERT JUMPDEST PUSH3 0x76A700 PUSH1 0x9 SLOAD ADD TIMESTAMP LT ISZERO PUSH2 0x14C0 JUMPI PUSH1 0x2 PUSH1 0x0 SWAP1 SLOAD SWAP1 PUSH2 0x100 EXP SWAP1 DIV PUSH20 0xFFFFFFFFFFFFFFFFFFFFFFFFFFFFFFFFFFFFFFFF AND PUSH20 0xFFFFFFFFFFFFFFFFFFFFFFFFFFFFFFFFFFFFFFFF AND DUP4 PUSH20 0xFFFFFFFFFFFFFFFFFFFFFFFFFFFFFFFFFFFFFFFF AND EQ ISZERO PUSH2 0x13B7 JUMPI PUSH1 0x40 MLOAD PUSH32 0x8C379A000000000000000000000000000000000000000000000000000000000 DUP2 MSTORE PUSH1 0x4 ADD DUP1 DUP1 PUSH1 0x20 ADD DUP3 DUP2 SUB DUP3 MSTORE PUSH1 0x4 DUP2 MSTORE PUSH1 0x20 ADD DUP1 PUSH32 0x506F6C7900000000000000000000000000000000000000000000000000000000 DUP2 MSTORE POP PUSH1 0x20 ADD SWAP2 POP POP PUSH1 0x40 MLOAD DUP1 SWAP2 SUB SWAP1 REVERT JUMPDEST PUSH1 0x0 PUSH1 0x4 DUP1 SLOAD SWAP1 POP SWAP1 POP PUSH1 0x0 JUMPDEST DUP2 DUP2 LT ISZERO PUSH2 0x14BD JUMPI PUSH1 0x0 PUSH1 0x4 DUP3 DUP2 SLOAD DUP2 LT PUSH2 0x13DB JUMPI INVALID JUMPDEST SWAP1 PUSH1 0x0 MSTORE PUSH1 0x20 PUSH1 0x0 KECCAK256 SWAP1 PUSH1 0x5 MUL ADD SWAP1 POP DUP1 PUSH1 0x0 ADD PUSH1 0x0 SWAP1 SLOAD SWAP1 PUSH2 0x100 EXP SWAP1 DIV PUSH20 0xFFFFFFFFFFFFFFFFFFFFFFFFFFFFFFFFFFFFFFFF AND PUSH20 0xFFFFFFFFFFFFFFFFFFFFFFFFFFFFFFFFFFFFFFFF AND DUP7 PUSH20 0xFFFFFFFFFFFFFFFFFFFFFFFFFFFFFFFFFFFFFFFF AND EQ ISZERO PUSH2 0x14B1 JUMPI PUSH1 0x40 MLOAD PUSH32 0x8C379A000000000000000000000000000000000000000000000000000000000 DUP2 MSTORE PUSH1 0x4 ADD DUP1 DUP1 PUSH1 0x20 ADD DUP3 DUP2 SUB DUP3 MSTORE PUSH1 0xA DUP2 MSTORE PUSH1 0x20 ADD DUP1 PUSH32 0x706F6F6C2E746F6B656E00000000000000000000000000000000000000000000 DUP2 MSTORE POP PUSH1 0x20 ADD SWAP2 POP POP PUSH1 0x40 MLOAD DUP1 SWAP2 SUB SWAP1 REVERT JUMPDEST POP DUP1 PUSH1 0x1 ADD SWAP1 POP PUSH2 0x13C4 JUMP JUMPDEST POP POP JUMPDEST PUSH2 0x14EB DUP2 DUP4 DUP6 PUSH20 0xFFFFFFFFFFFFFFFFFFFFFFFFFFFFFFFFFFFFFFFF AND PUSH2 0x2890 SWAP1 SWAP3 SWAP2 SWAP1 PUSH4 0xFFFFFFFF AND JUMP JUMPDEST POP POP POP JUMP JUMPDEST PUSH1 0x0 PUSH1 0x1 PUSH1 0x0 SWAP1 SLOAD SWAP1 PUSH2 0x100 EXP SWAP1 DIV PUSH20 0xFFFFFFFFFFFFFFFFFFFFFFFFFFFFFFFFFFFFFFFF AND SWAP1 POP SWAP1 JUMP JUMPDEST PUSH1 0x8 SLOAD DUP2 JUMP JUMPDEST PUSH1 0x0 PUSH1 0x4 DUP1 SLOAD SWAP1 POP SWAP1 POP PUSH1 0x0 JUMPDEST DUP2 DUP2 LT ISZERO PUSH2 0x1549 JUMPI PUSH2 0x153E DUP2 PUSH2 0xEFB JUMP JUMPDEST DUP1 PUSH1 0x1 ADD SWAP1 POP PUSH2 0x152D JUMP JUMPDEST POP POP JUMP JUMPDEST PUSH1 0x9 SLOAD DUP2 JUMP JUMPDEST PUSH2 0x155B PUSH2 0x2552 JUMP JUMPDEST PUSH20 0xFFFFFFFFFFFFFFFFFFFFFFFFFFFFFFFFFFFFFFFF AND PUSH2 0x1579 PUSH2 0x16C0 JUMP JUMPDEST PUSH20 0xFFFFFFFFFFFFFFFFFFFFFFFFFFFFFFFFFFFFFFFF AND EQ PUSH2 0x1602 JUMPI PUSH1 0x40 MLOAD PUSH32 0x8C379A000000000000000000000000000000000000000000000000000000000 DUP2 MSTORE PUSH1 0x4 ADD DUP1 DUP1 PUSH1 0x20 ADD DUP3 DUP2 SUB DUP3 MSTORE PUSH1 0x20 DUP2 MSTORE PUSH1 0x20 ADD DUP1 PUSH32 0x4F776E61626C653A2063616C6C6572206973206E6F7420746865206F776E6572 DUP2 MSTORE POP PUSH1 0x20 ADD SWAP2 POP POP PUSH1 0x40 MLOAD DUP1 SWAP2 SUB SWAP1 REVERT JUMPDEST PUSH1 0x0 PUSH20 0xFFFFFFFFFFFFFFFFFFFFFFFFFFFFFFFFFFFFFFFF AND PUSH1 0x0 DUP1 SLOAD SWAP1 PUSH2 0x100 EXP SWAP1 DIV PUSH20 0xFFFFFFFFFFFFFFFFFFFFFFFFFFFFFFFFFFFFFFFF AND PUSH20 0xFFFFFFFFFFFFFFFFFFFFFFFFFFFFFFFFFFFFFFFF AND PUSH32 0x8BE0079C531659141344CD1FD0A4F28419497F9722A3DAAFE3B4186F6B6457E0 PUSH1 0x40 MLOAD PUSH1 0x40 MLOAD DUP1 SWAP2 SUB SWAP1 LOG3 PUSH1 0x0 DUP1 PUSH1 0x0 PUSH2 0x100 EXP DUP2 SLOAD DUP2 PUSH20 0xFFFFFFFFFFFFFFFFFFFFFFFFFFFFFFFFFFFFFFFF MUL NOT AND SWAP1 DUP4 PUSH20 0xFFFFFFFFFFFFFFFFFFFFFFFFFFFFFFFFFFFFFFFF AND MUL OR SWAP1 SSTORE POP JUMP JUMPDEST PUSH1 0x0 DUP1 PUSH1 0x0 SWAP1 SLOAD SWAP1 PUSH2 0x100 EXP SWAP1 DIV PUSH20 0xFFFFFFFFFFFFFFFFFFFFFFFFFFFFFFFFFFFFFFFF AND SWAP1 POP SWAP1 JUMP JUMPDEST PUSH1 0x6 PUSH1 0x20 MSTORE DUP2 PUSH1 0x0 MSTORE PUSH1 0x40 PUSH1 0x0 KECCAK256 PUSH1 0x20 MSTORE DUP1 PUSH1 0x0 MSTORE PUSH1 0x40 PUSH1 0x0 KECCAK256 PUSH1 0x0 SWAP2 POP SWAP2 POP POP DUP1 PUSH1 0x0 ADD SLOAD SWAP1 DUP1 PUSH1 0x1 ADD SLOAD SWAP1 POP DUP3 JUMP JUMPDEST PUSH1 0xB SLOAD DUP2 JUMP JUMPDEST CALLER PUSH20 0xFFFFFFFFFFFFFFFFFFFFFFFFFFFFFFFFFFFFFFFF AND PUSH1 0x1 PUSH1 0x0 SWAP1 SLOAD SWAP1 PUSH2 0x100 EXP SWAP1 DIV PUSH20 0xFFFFFFFFFFFFFFFFFFFFFFFFFFFFFFFFFFFFFFFF AND PUSH20 0xFFFFFFFFFFFFFFFFFFFFFFFFFFFFFFFFFFFFFFFF AND EQ PUSH2 0x17C6 JUMPI PUSH1 0x40 MLOAD PUSH32 0x8C379A000000000000000000000000000000000000000000000000000000000 DUP2 MSTORE PUSH1 0x4 ADD DUP1 DUP1 PUSH1 0x20 ADD DUP3 DUP2 SUB DUP3 MSTORE PUSH1 0x24 DUP2 MSTORE PUSH1 0x20 ADD DUP1 PUSH2 0x2F5D PUSH1 0x24 SWAP2 CODECOPY PUSH1 0x40 ADD SWAP2 POP POP PUSH1 0x40 MLOAD DUP1 SWAP2 SUB SWAP1 REVERT JUMPDEST PUSH2 0x17CF DUP4 PUSH2 0x2932 JUMP JUMPDEST DUP2 ISZERO PUSH2 0x17DE JUMPI PUSH2 0x17DD PUSH2 0x1520 JUMP JUMPDEST JUMPDEST PUSH1 0x8 SLOAD TIMESTAMP LT ISZERO PUSH2 0x1811 JUMPI PUSH1 0x0 DUP2 EQ ISZERO PUSH2 0x17FB JUMPI PUSH1 0x8 SLOAD SWAP1 POP PUSH2 0x180C JUMP JUMPDEST PUSH1 0x8 SLOAD DUP2 LT ISZERO PUSH2 0x180B JUMPI PUSH1 0x8 SLOAD SWAP1 POP JUMPDEST JUMPDEST PUSH2 0x1829 JUMP JUMPDEST PUSH1 0x0 DUP2 EQ DUP1 PUSH2 0x181F JUMPI POP TIMESTAMP DUP2 LT JUMPDEST ISZERO PUSH2 0x1828 JUMPI TIMESTAMP SWAP1 POP JUMPDEST JUMPDEST PUSH1 0x0 PUSH1 0x8 SLOAD DUP3 GT ISZERO DUP1 PUSH2 0x183C JUMPI POP TIMESTAMP DUP3 GT ISZERO JUMPDEST SWAP1 POP PUSH1 0x4 PUSH1 0x40 MLOAD DUP1 PUSH1 0xA0 ADD PUSH1 0x40 MSTORE DUP1 DUP7 PUSH20 0xFFFFFFFFFFFFFFFFFFFFFFFFFFFFFFFFFFFFFFFF AND DUP2 MSTORE PUSH1 0x20 ADD DUP8 DUP2 MSTORE PUSH1 0x20 ADD DUP5 DUP2 MSTORE PUSH1 0x20 ADD PUSH1 0x0 DUP2 MSTORE PUSH1 0x20 ADD DUP4 ISZERO ISZERO DUP2 MSTORE POP SWAP1 DUP1 PUSH1 0x1 DUP2 SLOAD ADD DUP1 DUP3 SSTORE DUP1 SWAP2 POP POP PUSH1 0x1 SWAP1 SUB SWAP1 PUSH1 0x0 MSTORE PUSH1 0x20 PUSH1 0x0 KECCAK256 SWAP1 PUSH1 0x5 MUL ADD PUSH1 0x0 SWAP1 SWAP2 SWAP1 SWAP2 SWAP1 SWAP2 POP PUSH1 0x0 DUP3 ADD MLOAD DUP2 PUSH1 0x0 ADD PUSH1 0x0 PUSH2 0x100 EXP DUP2 SLOAD DUP2 PUSH20 0xFFFFFFFFFFFFFFFFFFFFFFFFFFFFFFFFFFFFFFFF MUL NOT AND SWAP1 DUP4 PUSH20 0xFFFFFFFFFFFFFFFFFFFFFFFFFFFFFFFFFFFFFFFF AND MUL OR SWAP1 SSTORE POP PUSH1 0x20 DUP3 ADD MLOAD DUP2 PUSH1 0x1 ADD SSTORE PUSH1 0x40 DUP3 ADD MLOAD DUP2 PUSH1 0x2 ADD SSTORE PUSH1 0x60 DUP3 ADD MLOAD DUP2 PUSH1 0x3 ADD SSTORE PUSH1 0x80 DUP3 ADD MLOAD DUP2 PUSH1 0x4 ADD PUSH1 0x0 PUSH2 0x100 EXP DUP2 SLOAD DUP2 PUSH1 0xFF MUL NOT AND SWAP1 DUP4 ISZERO ISZERO MUL OR SWAP1 SSTORE POP POP POP DUP1 ISZERO PUSH2 0x1952 JUMPI PUSH2 0x194B DUP6 PUSH1 0x7 SLOAD PUSH2 0x2444 SWAP1 SWAP2 SWAP1 PUSH4 0xFFFFFFFF AND JUMP JUMPDEST PUSH1 0x7 DUP2 SWAP1 SSTORE POP JUMPDEST POP POP POP POP POP JUMP JUMPDEST CALLER PUSH20 0xFFFFFFFFFFFFFFFFFFFFFFFFFFFFFFFFFFFFFFFF AND PUSH1 0x1 PUSH1 0x0 SWAP1 SLOAD SWAP1 PUSH2 0x100 EXP SWAP1 DIV PUSH20 0xFFFFFFFFFFFFFFFFFFFFFFFFFFFFFFFFFFFFFFFF AND PUSH20 0xFFFFFFFFFFFFFFFFFFFFFFFFFFFFFFFFFFFFFFFF AND EQ PUSH2 0x19FF JUMPI PUSH1 0x40 MLOAD PUSH32 0x8C379A000000000000000000000000000000000000000000000000000000000 DUP2 MSTORE PUSH1 0x4 ADD DUP1 DUP1 PUSH1 0x20 ADD DUP3 DUP2 SUB DUP3 MSTORE PUSH1 0x24 DUP2 MSTORE PUSH1 0x20 ADD DUP1 PUSH2 0x2F5D PUSH1 0x24 SWAP2 CODECOPY PUSH1 0x40 ADD SWAP2 POP POP PUSH1 0x40 MLOAD DUP1 SWAP2 SUB SWAP1 REVERT JUMPDEST PUSH2 0x1A08 DUP2 PUSH2 0xB0C JUMP JUMPDEST POP JUMP JUMPDEST PUSH1 0x5 PUSH1 0x0 SWAP1 SLOAD SWAP1 PUSH2 0x100 EXP SWAP1 DIV PUSH1 0xFF AND ISZERO PUSH2 0x1A8E JUMPI PUSH1 0x40 MLOAD PUSH32 0x8C379A000000000000000000000000000000000000000000000000000000000 DUP2 MSTORE PUSH1 0x4 ADD DUP1 DUP1 PUSH1 0x20 ADD DUP3 DUP2 SUB DUP3 MSTORE PUSH1 0x1C DUP2 MSTORE PUSH1 0x20 ADD DUP1 PUSH32 0x47656E657369733A20616C726561647920696E697469616C697A656400000000 DUP2 MSTORE POP PUSH1 0x20 ADD SWAP2 POP POP PUSH1 0x40 MLOAD DUP1 SWAP2 SUB SWAP1 REVERT JUMPDEST CALLER PUSH20 0xFFFFFFFFFFFFFFFFFFFFFFFFFFFFFFFFFFFFFFFF AND PUSH1 0x1 PUSH1 0x0 SWAP1 SLOAD SWAP1 PUSH2 0x100 EXP SWAP1 DIV PUSH20 0xFFFFFFFFFFFFFFFFFFFFFFFFFFFFFFFFFFFFFFFF AND PUSH20 0xFFFFFFFFFFFFFFFFFFFFFFFFFFFFFFFFFFFFFFFF AND EQ PUSH2 0x1B34 JUMPI PUSH1 0x40 MLOAD PUSH32 0x8C379A000000000000000000000000000000000000000000000000000000000 DUP2 MSTORE PUSH1 0x4 ADD DUP1 DUP1 PUSH1 0x20 ADD DUP3 DUP2 SUB DUP3 MSTORE PUSH1 0x24 DUP2 MSTORE PUSH1 0x20 ADD DUP1 PUSH2 0x2F5D PUSH1 0x24 SWAP2 CODECOPY PUSH1 0x40 ADD SWAP2 POP POP PUSH1 0x40 MLOAD DUP1 SWAP2 SUB SWAP1 REVERT JUMPDEST DUP1 TIMESTAMP LT PUSH2 0x1BA9 JUMPI PUSH1 0x40 MLOAD PUSH32 0x8C379A000000000000000000000000000000000000000000000000000000000 DUP2 MSTORE PUSH1 0x4 ADD DUP1 DUP1 PUSH1 0x20 ADD DUP3 DUP2 SUB DUP3 MSTORE PUSH1 0x4 DUP2 MSTORE PUSH1 0x20 ADD DUP1 PUSH32 0x6C61746500000000000000000000000000000000000000000000000000000000 DUP2 MSTORE POP PUSH1 0x20 ADD SWAP2 POP POP PUSH1 0x40 MLOAD DUP1 SWAP2 SUB SWAP1 REVERT JUMPDEST PUSH1 0x0 PUSH20 0xFFFFFFFFFFFFFFFFFFFFFFFFFFFFFFFFFFFFFFFF AND DUP3 PUSH20 0xFFFFFFFFFFFFFFFFFFFFFFFFFFFFFFFFFFFFFFFF AND EQ PUSH2 0x1C1F JUMPI DUP2 PUSH1 0x2 PUSH1 0x0 PUSH2 0x100 EXP DUP2 SLOAD DUP2 PUSH20 0xFFFFFFFFFFFFFFFFFFFFFFFFFFFFFFFFFFFFFFFF MUL NOT AND SWAP1 DUP4 PUSH20 0xFFFFFFFFFFFFFFFFFFFFFFFFFFFFFFFFFFFFFFFF AND MUL OR SWAP1 SSTORE POP JUMPDEST DUP1 PUSH1 0x8 DUP2 SWAP1 SSTORE POP PUSH1 0xB SLOAD PUSH1 0x8 SLOAD ADD PUSH1 0x9 DUP2 SWAP1 SSTORE POP PUSH1 0xC8 PUSH1 0x3 DUP2 SWAP1 SSTORE POP PUSH1 0x1 PUSH1 0x5 PUSH1 0x0 PUSH2 0x100 EXP DUP2 SLOAD DUP2 PUSH1 0xFF MUL NOT AND SWAP1 DUP4 ISZERO ISZERO MUL OR SWAP1 SSTORE POP POP POP JUMP JUMPDEST PUSH1 0x3 SLOAD DUP2 JUMP JUMPDEST PUSH1 0x2 PUSH1 0x0 SWAP1 SLOAD SWAP1 PUSH2 0x100 EXP SWAP1 DIV PUSH20 0xFFFFFFFFFFFFFFFFFFFFFFFFFFFFFFFFFFFFFFFF AND DUP2 JUMP JUMPDEST PUSH1 0x0 CALLER SWAP1 POP PUSH1 0x0 PUSH2 0x1CA2 PUSH1 0x3 SLOAD DUP5 PUSH2 0x2A37 SWAP1 SWAP2 SWAP1 PUSH4 0xFFFFFFFF AND JUMP JUMPDEST SWAP1 POP PUSH1 0x0 PUSH2 0x1CCF PUSH2 0x2710 PUSH2 0x1CC1 PUSH1 0x3 SLOAD DUP6 PUSH2 0x24CC SWAP1 SWAP2 SWAP1 PUSH4 0xFFFFFFFF AND JUMP JUMPDEST PUSH2 0x2688 SWAP1 SWAP2 SWAP1 PUSH4 0xFFFFFFFF AND JUMP JUMPDEST SWAP1 POP PUSH1 0x0 PUSH2 0x1CE6 DUP3 DUP7 PUSH2 0x23C1 SWAP1 SWAP2 SWAP1 PUSH4 0xFFFFFFFF AND JUMP JUMPDEST SWAP1 POP PUSH1 0x0 PUSH1 0x4 DUP8 DUP2 SLOAD DUP2 LT PUSH2 0x1CF7 JUMPI INVALID JUMPDEST SWAP1 PUSH1 0x0 MSTORE PUSH1 0x20 PUSH1 0x0 KECCAK256 SWAP1 PUSH1 0x5 MUL ADD SWAP1 POP PUSH1 0x0 PUSH1 0x6 PUSH1 0x0 DUP10 DUP2 MSTORE PUSH1 0x20 ADD SWAP1 DUP2 MSTORE PUSH1 0x20 ADD PUSH1 0x0 KECCAK256 PUSH1 0x0 DUP8 PUSH20 0xFFFFFFFFFFFFFFFFFFFFFFFFFFFFFFFFFFFFFFFF AND PUSH20 0xFFFFFFFFFFFFFFFFFFFFFFFFFFFFFFFFFFFFFFFF AND DUP2 MSTORE PUSH1 0x20 ADD SWAP1 DUP2 MSTORE PUSH1 0x20 ADD PUSH1 0x0 KECCAK256 SWAP1 POP PUSH2 0x1D64 DUP9 PUSH2 0xEFB JUMP JUMPDEST PUSH1 0x0 DUP2 PUSH1 0x0 ADD SLOAD GT ISZERO PUSH2 0x1E24 JUMPI PUSH1 0x0 PUSH2 0x1DBE DUP3 PUSH1 0x1 ADD SLOAD PUSH2 0x1DB0 PUSH8 0xDE0B6B3A7640000 PUSH2 0x1DA2 DUP8 PUSH1 0x3 ADD SLOAD DUP8 PUSH1 0x0 ADD SLOAD PUSH2 0x24CC SWAP1 SWAP2 SWAP1 PUSH4 0xFFFFFFFF AND JUMP JUMPDEST PUSH2 0x2688 SWAP1 SWAP2 SWAP1 PUSH4 0xFFFFFFFF AND JUMP JUMPDEST PUSH2 0x23C1 SWAP1 SWAP2 SWAP1 PUSH4 0xFFFFFFFF AND JUMP JUMPDEST SWAP1 POP PUSH1 0x0 DUP2 GT ISZERO PUSH2 0x1E22 JUMPI PUSH2 0x1DD3 DUP8 DUP3 PUSH2 0x2711 JUMP JUMPDEST DUP7 PUSH20 0xFFFFFFFFFFFFFFFFFFFFFFFFFFFFFFFFFFFFFFFF AND PUSH32 0xE2403640BA68FED3A2F88B7557551D1993F84B99BB10FF833F0CF8DB0C5E0486 DUP3 PUSH1 0x40 MLOAD DUP1 DUP3 DUP2 MSTORE PUSH1 0x20 ADD SWAP2 POP POP PUSH1 0x40 MLOAD DUP1 SWAP2 SUB SWAP1 LOG2 JUMPDEST POP JUMPDEST PUSH1 0x0 DUP8 GT ISZERO PUSH2 0x1F01 JUMPI PUSH2 0x1E7E DUP7 ADDRESS DUP10 DUP6 PUSH1 0x0 ADD PUSH1 0x0 SWAP1 SLOAD SWAP1 PUSH2 0x100 EXP SWAP1 DIV PUSH20 0xFFFFFFFFFFFFFFFFFFFFFFFFFFFFFFFFFFFFFFFF AND PUSH20 0xFFFFFFFFFFFFFFFFFFFFFFFFFFFFFFFFFFFFFFFF AND PUSH2 0x2A72 SWAP1 SWAP4 SWAP3 SWAP2 SWAP1 PUSH4 0xFFFFFFFF AND JUMP JUMPDEST PUSH2 0x1E95 DUP4 DUP3 PUSH1 0x0 ADD SLOAD PUSH2 0x2444 SWAP1 SWAP2 SWAP1 PUSH4 0xFFFFFFFF AND JUMP JUMPDEST DUP2 PUSH1 0x0 ADD DUP2 SWAP1 SSTORE POP PUSH2 0x1F00 PUSH20 0x1FC7F2C81ACD9D38ED4D509B1F17555E549EF1D DUP7 DUP5 PUSH1 0x0 ADD PUSH1 0x0 SWAP1 SLOAD SWAP1 PUSH2 0x100 EXP SWAP1 DIV PUSH20 0xFFFFFFFFFFFFFFFFFFFFFFFFFFFFFFFFFFFFFFFF AND PUSH20 0xFFFFFFFFFFFFFFFFFFFFFFFFFFFFFFFFFFFFFFFF AND PUSH2 0x2890 SWAP1 SWAP3 SWAP2 SWAP1 PUSH4 0xFFFFFFFF AND JUMP JUMPDEST JUMPDEST PUSH2 0x1F36 PUSH8 0xDE0B6B3A7640000 PUSH2 0x1F28 DUP5 PUSH1 0x3 ADD SLOAD DUP5 PUSH1 0x0 ADD SLOAD PUSH2 0x24CC SWAP1 SWAP2 SWAP1 PUSH4 0xFFFFFFFF AND JUMP JUMPDEST PUSH2 0x2688 SWAP1 SWAP2 SWAP1 PUSH4 0xFFFFFFFF AND JUMP JUMPDEST DUP2 PUSH1 0x1 ADD DUP2 SWAP1 SSTORE POP DUP8 DUP7 PUSH20 0xFFFFFFFFFFFFFFFFFFFFFFFFFFFFFFFFFFFFFFFF AND PUSH32 0x90890809C654F11D6E72A28FA60149770A0D11EC6C92319D6CEB2BB0A4EA1A15 DUP10 PUSH1 0x40 MLOAD DUP1 DUP3 DUP2 MSTORE PUSH1 0x20 ADD SWAP2 POP POP PUSH1 0x40 MLOAD DUP1 SWAP2 SUB SWAP1 LOG3 POP POP POP POP POP POP POP POP JUMP JUMPDEST PUSH1 0x0 DUP1 PUSH1 0x4 DUP5 DUP2 SLOAD DUP2 LT PUSH2 0x1FA7 JUMPI INVALID JUMPDEST SWAP1 PUSH1 0x0 MSTORE PUSH1 0x20 PUSH1 0x0 KECCAK256 SWAP1 PUSH1 0x5 MUL ADD SWAP1 POP PUSH1 0x0 PUSH1 0x6 PUSH1 0x0 DUP7 DUP2 MSTORE PUSH1 0x20 ADD SWAP1 DUP2 MSTORE PUSH1 0x20 ADD PUSH1 0x0 KECCAK256 PUSH1 0x0 DUP6 PUSH20 0xFFFFFFFFFFFFFFFFFFFFFFFFFFFFFFFFFFFFFFFF AND PUSH20 0xFFFFFFFFFFFFFFFFFFFFFFFFFFFFFFFFFFFFFFFF AND DUP2 MSTORE PUSH1 0x20 ADD SWAP1 DUP2 MSTORE PUSH1 0x20 ADD PUSH1 0x0 KECCAK256 SWAP1 POP PUSH1 0x0 DUP3 PUSH1 0x3 ADD SLOAD SWAP1 POP PUSH1 0x0 DUP4 PUSH1 0x0 ADD PUSH1 0x0 SWAP1 SLOAD SWAP1 PUSH2 0x100 EXP SWAP1 DIV PUSH20 0xFFFFFFFFFFFFFFFFFFFFFFFFFFFFFFFFFFFFFFFF AND PUSH20 0xFFFFFFFFFFFFFFFFFFFFFFFFFFFFFFFFFFFFFFFF AND PUSH4 0x70A08231 ADDRESS PUSH1 0x40 MLOAD DUP3 PUSH4 0xFFFFFFFF AND PUSH1 0xE0 SHL DUP2 MSTORE PUSH1 0x4 ADD DUP1 DUP3 PUSH20 0xFFFFFFFFFFFFFFFFFFFFFFFFFFFFFFFFFFFFFFFF AND DUP2 MSTORE PUSH1 0x20 ADD SWAP2 POP POP PUSH1 0x20 PUSH1 0x40 MLOAD DUP1 DUP4 SUB DUP2 DUP7 DUP1 EXTCODESIZE ISZERO DUP1 ISZERO PUSH2 0x20A1 JUMPI PUSH1 0x0 DUP1 REVERT JUMPDEST POP GAS STATICCALL ISZERO DUP1 ISZERO PUSH2 0x20B5 JUMPI RETURNDATASIZE PUSH1 0x0 DUP1 RETURNDATACOPY RETURNDATASIZE PUSH1 0x0 REVERT JUMPDEST POP POP POP POP PUSH1 0x40 MLOAD RETURNDATASIZE PUSH1 0x20 DUP2 LT ISZERO PUSH2 0x20CB JUMPI PUSH1 0x0 DUP1 REVERT JUMPDEST DUP2 ADD SWAP1 DUP1 DUP1 MLOAD SWAP1 PUSH1 0x20 ADD SWAP1 SWAP3 SWAP2 SWAP1 POP POP POP SWAP1 POP DUP4 PUSH1 0x2 ADD SLOAD TIMESTAMP GT DUP1 ISZERO PUSH2 0x20F2 JUMPI POP PUSH1 0x0 DUP2 EQ ISZERO JUMPDEST ISZERO PUSH2 0x217C JUMPI PUSH1 0x0 PUSH2 0x2107 DUP6 PUSH1 0x2 ADD SLOAD TIMESTAMP PUSH2 0x9F9 JUMP JUMPDEST SWAP1 POP PUSH1 0x0 PUSH2 0x2136 PUSH1 0x7 SLOAD PUSH2 0x2128 DUP9 PUSH1 0x1 ADD SLOAD DUP6 PUSH2 0x24CC SWAP1 SWAP2 SWAP1 PUSH4 0xFFFFFFFF AND JUMP JUMPDEST PUSH2 0x2688 SWAP1 SWAP2 SWAP1 PUSH4 0xFFFFFFFF AND JUMP JUMPDEST SWAP1 POP PUSH2 0x2177 PUSH2 0x2168 DUP5 PUSH2 0x215A PUSH8 0xDE0B6B3A7640000 DUP6 PUSH2 0x24CC SWAP1 SWAP2 SWAP1 PUSH4 0xFFFFFFFF AND JUMP JUMPDEST PUSH2 0x2688 SWAP1 SWAP2 SWAP1 PUSH4 0xFFFFFFFF AND JUMP JUMPDEST DUP6 PUSH2 0x2444 SWAP1 SWAP2 SWAP1 PUSH4 0xFFFFFFFF AND JUMP JUMPDEST SWAP4 POP POP POP JUMPDEST PUSH2 0x21C3 DUP4 PUSH1 0x1 ADD SLOAD PUSH2 0x21B5 PUSH8 0xDE0B6B3A7640000 PUSH2 0x21A7 DUP7 DUP9 PUSH1 0x0 ADD SLOAD PUSH2 0x24CC SWAP1 SWAP2 SWAP1 PUSH4 0xFFFFFFFF AND JUMP JUMPDEST PUSH2 0x2688 SWAP1 SWAP2 SWAP1 PUSH4 0xFFFFFFFF AND JUMP JUMPDEST PUSH2 0x23C1 SWAP1 SWAP2 SWAP1 PUSH4 0xFFFFFFFF AND JUMP JUMPDEST SWAP5 POP POP POP POP POP SWAP3 SWAP2 POP POP JUMP JUMPDEST PUSH2 0x21D7 PUSH2 0x2552 JUMP JUMPDEST PUSH20 0xFFFFFFFFFFFFFFFFFFFFFFFFFFFFFFFFFFFFFFFF AND PUSH2 0x21F5 PUSH2 0x16C0 JUMP JUMPDEST PUSH20 0xFFFFFFFFFFFFFFFFFFFFFFFFFFFFFFFFFFFFFFFF AND EQ PUSH2 0x227E JUMPI PUSH1 0x40 MLOAD PUSH32 0x8C379A000000000000000000000000000000000000000000000000000000000 DUP2 MSTORE PUSH1 0x4 ADD DUP1 DUP1 PUSH1 0x20 ADD DUP3 DUP2 SUB DUP3 MSTORE PUSH1 0x20 DUP2 MSTORE PUSH1 0x20 ADD DUP1 PUSH32 0x4F776E61626C653A2063616C6C6572206973206E6F7420746865206F776E6572 DUP2 MSTORE POP PUSH1 0x20 ADD SWAP2 POP POP PUSH1 0x40 MLOAD DUP1 SWAP2 SUB SWAP1 REVERT JUMPDEST PUSH1 0x0 PUSH20 0xFFFFFFFFFFFFFFFFFFFFFFFFFFFFFFFFFFFFFFFF AND DUP2 PUSH20 0xFFFFFFFFFFFFFFFFFFFFFFFFFFFFFFFFFFFFFFFF AND EQ ISZERO PUSH2 0x2304 JUMPI PUSH1 0x40 MLOAD PUSH32 0x8C379A000000000000000000000000000000000000000000000000000000000 DUP2 MSTORE PUSH1 0x4 ADD DUP1 DUP1 PUSH1 0x20 ADD DUP3 DUP2 SUB DUP3 MSTORE PUSH1 0x26 DUP2 MSTORE PUSH1 0x20 ADD DUP1 PUSH2 0x2EC3 PUSH1 0x26 SWAP2 CODECOPY PUSH1 0x40 ADD SWAP2 POP POP PUSH1 0x40 MLOAD DUP1 SWAP2 SUB SWAP1 REVERT JUMPDEST DUP1 PUSH20 0xFFFFFFFFFFFFFFFFFFFFFFFFFFFFFFFFFFFFFFFF AND PUSH1 0x0 DUP1 SLOAD SWAP1 PUSH2 0x100 EXP SWAP1 DIV PUSH20 0xFFFFFFFFFFFFFFFFFFFFFFFFFFFFFFFFFFFFFFFF AND PUSH20 0xFFFFFFFFFFFFFFFFFFFFFFFFFFFFFFFFFFFFFFFF AND PUSH32 0x8BE0079C531659141344CD1FD0A4F28419497F9722A3DAAFE3B4186F6B6457E0 PUSH1 0x40 MLOAD PUSH1 0x40 MLOAD DUP1 SWAP2 SUB SWAP1 LOG3 DUP1 PUSH1 0x0 DUP1 PUSH2 0x100 EXP DUP2 SLOAD DUP2 PUSH20 0xFFFFFFFFFFFFFFFFFFFFFFFFFFFFFFFFFFFFFFFF MUL NOT AND SWAP1 DUP4 PUSH20 0xFFFFFFFFFFFFFFFFFFFFFFFFFFFFFFFFFFFFFFFF AND MUL OR SWAP1 SSTORE POP POP JUMP JUMPDEST PUSH1 0x0 DUP3 DUP3 GT ISZERO PUSH2 0x2439 JUMPI PUSH1 0x40 MLOAD PUSH32 0x8C379A000000000000000000000000000000000000000000000000000000000 DUP2 MSTORE PUSH1 0x4 ADD DUP1 DUP1 PUSH1 0x20 ADD DUP3 DUP2 SUB DUP3 MSTORE PUSH1 0x1E DUP2 MSTORE PUSH1 0x20 ADD DUP1 PUSH32 0x536166654D6174683A207375627472616374696F6E206F766572666C6F770000 DUP2 MSTORE POP PUSH1 0x20 ADD SWAP2 POP POP PUSH1 0x40 MLOAD DUP1 SWAP2 SUB SWAP1 REVERT JUMPDEST DUP2 DUP4 SUB SWAP1 POP SWAP3 SWAP2 POP POP JUMP JUMPDEST PUSH1 0x0 DUP1 DUP3 DUP5 ADD SWAP1 POP DUP4 DUP2 LT ISZERO PUSH2 0x24C2 JUMPI PUSH1 0x40 MLOAD PUSH32 0x8C379A000000000000000000000000000000000000000000000000000000000 DUP2 MSTORE PUSH1 0x4 ADD DUP1 DUP1 PUSH1 0x20 ADD DUP3 DUP2 SUB DUP3 MSTORE PUSH1 0x1B DUP2 MSTORE PUSH1 0x20 ADD DUP1 PUSH32 0x536166654D6174683A206164646974696F6E206F766572666C6F770000000000 DUP2 MSTORE POP PUSH1 0x20 ADD SWAP2 POP POP PUSH1 0x40 MLOAD DUP1 SWAP2 SUB SWAP1 REVERT JUMPDEST DUP1 SWAP2 POP POP SWAP3 SWAP2 POP POP JUMP JUMPDEST PUSH1 0x0 DUP1 DUP4 EQ ISZERO PUSH2 0x24DF JUMPI PUSH1 0x0 SWAP1 POP PUSH2 0x254C JUMP JUMPDEST PUSH1 0x0 DUP3 DUP5 MUL SWAP1 POP DUP3 DUP5 DUP3 DUP2 PUSH2 0x24F0 JUMPI INVALID JUMPDEST DIV EQ PUSH2 0x2547 JUMPI PUSH1 0x40 MLOAD PUSH32 0x8C379A000000000000000000000000000000000000000000000000000000000 DUP2 MSTORE PUSH1 0x4 ADD DUP1 DUP1 PUSH1 0x20 ADD DUP3 DUP2 SUB DUP3 MSTORE PUSH1 0x21 DUP2 MSTORE PUSH1 0x20 ADD DUP1 PUSH2 0x2F3C PUSH1 0x21 SWAP2 CODECOPY PUSH1 0x40 ADD SWAP2 POP POP PUSH1 0x40 MLOAD DUP1 SWAP2 SUB SWAP1 REVERT JUMPDEST DUP1 SWAP2 POP POP JUMPDEST SWAP3 SWAP2 POP POP JUMP JUMPDEST PUSH1 0x0 CALLER SWAP1 POP SWAP1 JUMP JUMPDEST PUSH1 0x0 PUSH20 0xFFFFFFFFFFFFFFFFFFFFFFFFFFFFFFFFFFFFFFFF AND DUP2 PUSH20 0xFFFFFFFFFFFFFFFFFFFFFFFFFFFFFFFFFFFFFFFF AND EQ ISZERO PUSH2 0x25E0 JUMPI PUSH1 0x40 MLOAD PUSH32 0x8C379A000000000000000000000000000000000000000000000000000000000 DUP2 MSTORE PUSH1 0x4 ADD DUP1 DUP1 PUSH1 0x20 ADD DUP3 DUP2 SUB DUP3 MSTORE PUSH1 0x2D DUP2 MSTORE PUSH1 0x20 ADD DUP1 PUSH2 0x2F0F PUSH1 0x2D SWAP2 CODECOPY PUSH1 0x40 ADD SWAP2 POP POP PUSH1 0x40 MLOAD DUP1 SWAP2 SUB SWAP1 REVERT JUMPDEST DUP1 PUSH20 0xFFFFFFFFFFFFFFFFFFFFFFFFFFFFFFFFFFFFFFFF AND PUSH1 0x0 PUSH20 0xFFFFFFFFFFFFFFFFFFFFFFFFFFFFFFFFFFFFFFFF AND PUSH32 0x74DA04524D50C64947F5DD5381EF1A4DCA5CBA8ED1D816243F9E48AA0B5617ED PUSH1 0x40 MLOAD PUSH1 0x40 MLOAD DUP1 SWAP2 SUB SWAP1 LOG3 PUSH2 0x2644 DUP2 PUSH2 0x21CF JUMP JUMPDEST DUP1 PUSH1 0x1 PUSH1 0x0 PUSH2 0x100 EXP DUP2 SLOAD DUP2 PUSH20 0xFFFFFFFFFFFFFFFFFFFFFFFFFFFFFFFFFFFFFFFF MUL NOT AND SWAP1 DUP4 PUSH20 0xFFFFFFFFFFFFFFFFFFFFFFFFFFFFFFFFFFFFFFFF AND MUL OR SWAP1 SSTORE POP POP JUMP JUMPDEST PUSH1 0x0 DUP1 DUP3 GT PUSH2 0x26FF JUMPI PUSH1 0x40 MLOAD PUSH32 0x8C379A000000000000000000000000000000000000000000000000000000000 DUP2 MSTORE PUSH1 0x4 ADD DUP1 DUP1 PUSH1 0x20 ADD DUP3 DUP2 SUB DUP3 MSTORE PUSH1 0x1A DUP2 MSTORE PUSH1 0x20 ADD DUP1 PUSH32 0x536166654D6174683A206469766973696F6E206279207A65726F000000000000 DUP2 MSTORE POP PUSH1 0x20 ADD SWAP2 POP POP PUSH1 0x40 MLOAD DUP1 SWAP2 SUB SWAP1 REVERT JUMPDEST DUP2 DUP4 DUP2 PUSH2 0x2708 JUMPI INVALID JUMPDEST DIV SWAP1 POP SWAP3 SWAP2 POP POP JUMP JUMPDEST PUSH1 0x0 PUSH1 0x2 PUSH1 0x0 SWAP1 SLOAD SWAP1 PUSH2 0x100 EXP SWAP1 DIV PUSH20 0xFFFFFFFFFFFFFFFFFFFFFFFFFFFFFFFFFFFFFFFF AND PUSH20 0xFFFFFFFFFFFFFFFFFFFFFFFFFFFFFFFFFFFFFFFF AND PUSH4 0x70A08231 ADDRESS PUSH1 0x40 MLOAD DUP3 PUSH4 0xFFFFFFFF AND PUSH1 0xE0 SHL DUP2 MSTORE PUSH1 0x4 ADD DUP1 DUP3 PUSH20 0xFFFFFFFFFFFFFFFFFFFFFFFFFFFFFFFFFFFFFFFF AND DUP2 MSTORE PUSH1 0x20 ADD SWAP2 POP POP PUSH1 0x20 PUSH1 0x40 MLOAD DUP1 DUP4 SUB DUP2 DUP7 DUP1 EXTCODESIZE ISZERO DUP1 ISZERO PUSH2 0x279C JUMPI PUSH1 0x0 DUP1 REVERT JUMPDEST POP GAS STATICCALL ISZERO DUP1 ISZERO PUSH2 0x27B0 JUMPI RETURNDATASIZE PUSH1 0x0 DUP1 RETURNDATACOPY RETURNDATASIZE PUSH1 0x0 REVERT JUMPDEST POP POP POP POP PUSH1 0x40 MLOAD RETURNDATASIZE PUSH1 0x20 DUP2 LT ISZERO PUSH2 0x27C6 JUMPI PUSH1 0x0 DUP1 REVERT JUMPDEST DUP2 ADD SWAP1 DUP1 DUP1 MLOAD SWAP1 PUSH1 0x20 ADD SWAP1 SWAP3 SWAP2 SWAP1 POP POP POP SWAP1 POP PUSH1 0x0 DUP2 GT ISZERO PUSH2 0x288B JUMPI DUP1 DUP3 GT ISZERO PUSH2 0x283C JUMPI PUSH2 0x2837 DUP4 DUP3 PUSH1 0x2 PUSH1 0x0 SWAP1 SLOAD SWAP1 PUSH2 0x100 EXP SWAP1 DIV PUSH20 0xFFFFFFFFFFFFFFFFFFFFFFFFFFFFFFFFFFFFFFFF AND PUSH20 0xFFFFFFFFFFFFFFFFFFFFFFFFFFFFFFFFFFFFFFFF AND PUSH2 0x2890 SWAP1 SWAP3 SWAP2 SWAP1 PUSH4 0xFFFFFFFF AND JUMP JUMPDEST PUSH2 0x288A JUMP JUMPDEST PUSH2 0x2889 DUP4 DUP4 PUSH1 0x2 PUSH1 0x0 SWAP1 SLOAD SWAP1 PUSH2 0x100 EXP SWAP1 DIV PUSH20 0xFFFFFFFFFFFFFFFFFFFFFFFFFFFFFFFFFFFFFFFF AND PUSH20 0xFFFFFFFFFFFFFFFFFFFFFFFFFFFFFFFFFFFFFFFF AND PUSH2 0x2890 SWAP1 SWAP3 SWAP2 SWAP1 PUSH4 0xFFFFFFFF AND JUMP JUMPDEST JUMPDEST JUMPDEST POP POP POP JUMP JUMPDEST PUSH2 0x292D DUP4 PUSH4 0xA9059CBB PUSH1 0xE0 SHL DUP5 DUP5 PUSH1 0x40 MLOAD PUSH1 0x24 ADD DUP1 DUP4 PUSH20 0xFFFFFFFFFFFFFFFFFFFFFFFFFFFFFFFFFFFFFFFF AND DUP2 MSTORE PUSH1 0x20 ADD DUP3 DUP2 MSTORE PUSH1 0x20 ADD SWAP3 POP POP POP PUSH1 0x40 MLOAD PUSH1 0x20 DUP2 DUP4 SUB SUB DUP2 MSTORE SWAP1 PUSH1 0x40 MSTORE SWAP1 PUSH28 0xFFFFFFFFFFFFFFFFFFFFFFFFFFFFFFFFFFFFFFFFFFFFFFFFFFFFFFFF NOT AND PUSH1 0x20 DUP3 ADD DUP1 MLOAD PUSH28 0xFFFFFFFFFFFFFFFFFFFFFFFFFFFFFFFFFFFFFFFFFFFFFFFFFFFFFFFF DUP4 DUP2 DUP4 AND OR DUP4 MSTORE POP POP POP POP PUSH2 0x2B33 JUMP JUMPDEST POP POP POP JUMP JUMPDEST PUSH1 0x0 PUSH1 0x4 DUP1 SLOAD SWAP1 POP SWAP1 POP PUSH1 0x0 JUMPDEST DUP2 DUP2 LT ISZERO PUSH2 0x2A32 JUMPI DUP3 PUSH20 0xFFFFFFFFFFFFFFFFFFFFFFFFFFFFFFFFFFFFFFFF AND PUSH1 0x4 DUP3 DUP2 SLOAD DUP2 LT PUSH2 0x296B JUMPI INVALID JUMPDEST SWAP1 PUSH1 0x0 MSTORE PUSH1 0x20 PUSH1 0x0 KECCAK256 SWAP1 PUSH1 0x5 MUL ADD PUSH1 0x0 ADD PUSH1 0x0 SWAP1 SLOAD SWAP1 PUSH2 0x100 EXP SWAP1 DIV PUSH20 0xFFFFFFFFFFFFFFFFFFFFFFFFFFFFFFFFFFFFFFFF AND PUSH20 0xFFFFFFFFFFFFFFFFFFFFFFFFFFFFFFFFFFFFFFFF AND EQ ISZERO PUSH2 0x2A27 JUMPI PUSH1 0x40 MLOAD PUSH32 0x8C379A000000000000000000000000000000000000000000000000000000000 DUP2 MSTORE PUSH1 0x4 ADD DUP1 DUP1 PUSH1 0x20 ADD DUP3 DUP2 SUB DUP3 MSTORE PUSH1 0x1F DUP2 MSTORE PUSH1 0x20 ADD DUP1 PUSH32 0x506F6C7947656E65736973506F6F6C3A206578697374696E6720706F6F6C3F00 DUP2 MSTORE POP PUSH1 0x20 ADD SWAP2 POP POP PUSH1 0x40 MLOAD DUP1 SWAP2 SUB SWAP1 REVERT JUMPDEST DUP1 PUSH1 0x1 ADD SWAP1 POP PUSH2 0x293F JUMP JUMPDEST POP POP POP JUMP JUMPDEST PUSH1 0x0 DUP1 PUSH2 0x2A44 DUP5 DUP5 PUSH2 0x2444 JUMP JUMPDEST SWAP1 POP PUSH1 0x0 PUSH2 0x2A53 DUP3 PUSH1 0x1 PUSH2 0x23C1 JUMP JUMPDEST SWAP1 POP PUSH2 0x2A68 PUSH2 0x2A62 DUP3 DUP7 PUSH2 0x2688 JUMP JUMPDEST DUP6 PUSH2 0x24CC JUMP JUMPDEST SWAP3 POP POP POP SWAP3 SWAP2 POP POP JUMP JUMPDEST PUSH2 0x2B2D DUP5 PUSH4 0x23B872DD PUSH1 0xE0 SHL DUP6 DUP6 DUP6 PUSH1 0x40 MLOAD PUSH1 0x24 ADD DUP1 DUP5 PUSH20 0xFFFFFFFFFFFFFFFFFFFFFFFFFFFFFFFFFFFFFFFF AND DUP2 MSTORE PUSH1 0x20 ADD DUP4 PUSH20 0xFFFFFFFFFFFFFFFFFFFFFFFFFFFFFFFFFFFFFFFF AND DUP2 MSTORE PUSH1 0x20 ADD DUP3 DUP2 MSTORE PUSH1 0x20 ADD SWAP4 POP POP POP POP PUSH1 0x40 MLOAD PUSH1 0x20 DUP2 DUP4 SUB SUB DUP2 MSTORE SWAP1 PUSH1 0x40 MSTORE SWAP1 PUSH28 0xFFFFFFFFFFFFFFFFFFFFFFFFFFFFFFFFFFFFFFFFFFFFFFFFFFFFFFFF NOT AND PUSH1 0x20 DUP3 ADD DUP1 MLOAD PUSH28 0xFFFFFFFFFFFFFFFFFFFFFFFFFFFFFFFFFFFFFFFFFFFFFFFFFFFFFFFF DUP4 DUP2 DUP4 AND OR DUP4 MSTORE POP POP POP POP PUSH2 0x2B33 JUMP JUMPDEST POP POP POP POP JUMP JUMPDEST PUSH1 0x60 PUSH2 0x2B95 DUP3 PUSH1 0x40 MLOAD DUP1 PUSH1 0x40 ADD PUSH1 0x40 MSTORE DUP1 PUSH1 0x20 DUP2 MSTORE PUSH1 0x20 ADD PUSH32 0x5361666545524332303A206C6F772D6C6576656C2063616C6C206661696C6564 DUP2 MSTORE POP DUP6 PUSH20 0xFFFFFFFFFFFFFFFFFFFFFFFFFFFFFFFFFFFFFFFF AND PUSH2 0x2C22 SWAP1 SWAP3 SWAP2 SWAP1 PUSH4 0xFFFFFFFF AND JUMP JUMPDEST SWAP1 POP PUSH1 0x0 DUP2 MLOAD GT ISZERO PUSH2 0x2C1D JUMPI DUP1 DUP1 PUSH1 0x20 ADD SWAP1 MLOAD PUSH1 0x20 DUP2 LT ISZERO PUSH2 0x2BB6 JUMPI PUSH1 0x0 DUP1 REVERT JUMPDEST DUP2 ADD SWAP1 DUP1 DUP1 MLOAD SWAP1 PUSH1 0x20 ADD SWAP1 SWAP3 SWAP2 SWAP1 POP POP POP PUSH2 0x2C1C JUMPI PUSH1 0x40 MLOAD PUSH32 0x8C379A000000000000000000000000000000000000000000000000000000000 DUP2 MSTORE PUSH1 0x4 ADD DUP1 DUP1 PUSH1 0x20 ADD DUP3 DUP2 SUB DUP3 MSTORE PUSH1 0x2A DUP2 MSTORE PUSH1 0x20 ADD DUP1 PUSH2 0x2F81 PUSH1 0x2A SWAP2 CODECOPY PUSH1 0x40 ADD SWAP2 POP POP PUSH1 0x40 MLOAD DUP1 SWAP2 SUB SWAP1 REVERT JUMPDEST JUMPDEST POP POP POP JUMP JUMPDEST PUSH1 0x60 PUSH2 0x2C31 DUP5 DUP5 PUSH1 0x0 DUP6 PUSH2 0x2C3A JUMP JUMPDEST SWAP1 POP SWAP4 SWAP3 POP POP POP JUMP JUMPDEST PUSH1 0x60 DUP3 SELFBALANCE LT ISZERO PUSH2 0x2C95 JUMPI PUSH1 0x40 MLOAD PUSH32 0x8C379A000000000000000000000000000000000000000000000000000000000 DUP2 MSTORE PUSH1 0x4 ADD DUP1 DUP1 PUSH1 0x20 ADD DUP3 DUP2 SUB DUP3 MSTORE PUSH1 0x26 DUP2 MSTORE PUSH1 0x20 ADD DUP1 PUSH2 0x2EE9 PUSH1 0x26 SWAP2 CODECOPY PUSH1 0x40 ADD SWAP2 POP POP PUSH1 0x40 MLOAD DUP1 SWAP2 SUB SWAP1 REVERT JUMPDEST PUSH2 0x2C9E DUP6 PUSH2 0x2DE3 JUMP JUMPDEST PUSH2 0x2D10 JUMPI PUSH1 0x40 MLOAD PUSH32 0x8C379A000000000000000000000000000000000000000000000000000000000 DUP2 MSTORE PUSH1 0x4 ADD DUP1 DUP1 PUSH1 0x20 ADD DUP3 DUP2 SUB DUP3 MSTORE PUSH1 0x1D DUP2 MSTORE PUSH1 0x20 ADD DUP1 PUSH32 0x416464726573733A2063616C6C20746F206E6F6E2D636F6E7472616374000000 DUP2 MSTORE POP PUSH1 0x20 ADD SWAP2 POP POP PUSH1 0x40 MLOAD DUP1 SWAP2 SUB SWAP1 REVERT JUMPDEST PUSH1 0x0 PUSH1 0x60 DUP7 PUSH20 0xFFFFFFFFFFFFFFFFFFFFFFFFFFFFFFFFFFFFFFFF AND DUP6 DUP8 PUSH1 0x40 MLOAD DUP1 DUP3 DUP1 MLOAD SWAP1 PUSH1 0x20 ADD SWAP1 DUP1 DUP4 DUP4 JUMPDEST PUSH1 0x20 DUP4 LT PUSH2 0x2D60 JUMPI DUP1 MLOAD DUP3 MSTORE PUSH1 0x20 DUP3 ADD SWAP2 POP PUSH1 0x20 DUP2 ADD SWAP1 POP PUSH1 0x20 DUP4 SUB SWAP3 POP PUSH2 0x2D3D JUMP JUMPDEST PUSH1 0x1 DUP4 PUSH1 0x20 SUB PUSH2 0x100 EXP SUB DUP1 NOT DUP3 MLOAD AND DUP2 DUP5 MLOAD AND DUP1 DUP3 OR DUP6 MSTORE POP POP POP POP POP POP SWAP1 POP ADD SWAP2 POP POP PUSH1 0x0 PUSH1 0x40 MLOAD DUP1 DUP4 SUB DUP2 DUP6 DUP8 GAS CALL SWAP3 POP POP POP RETURNDATASIZE DUP1 PUSH1 0x0 DUP2 EQ PUSH2 0x2DC2 JUMPI PUSH1 0x40 MLOAD SWAP2 POP PUSH1 0x1F NOT PUSH1 0x3F RETURNDATASIZE ADD AND DUP3 ADD PUSH1 0x40 MSTORE RETURNDATASIZE DUP3 MSTORE RETURNDATASIZE PUSH1 0x0 PUSH1 0x20 DUP5 ADD RETURNDATACOPY PUSH2 0x2DC7 JUMP JUMPDEST PUSH1 0x60 SWAP2 POP JUMPDEST POP SWAP2 POP SWAP2 POP PUSH2 0x2DD7 DUP3 DUP3 DUP7 PUSH2 0x2DF6 JUMP JUMPDEST SWAP3 POP POP POP SWAP5 SWAP4 POP POP POP POP JUMP JUMPDEST PUSH1 0x0 DUP1 DUP3 EXTCODESIZE SWAP1 POP PUSH1 0x0 DUP2 GT SWAP2 POP POP SWAP2 SWAP1 POP JUMP JUMPDEST PUSH1 0x60 DUP4 ISZERO PUSH2 0x2E06 JUMPI DUP3 SWAP1 POP PUSH2 0x2EBB JUMP JUMPDEST PUSH1 0x0 DUP4 MLOAD GT ISZERO PUSH2 0x2E19 JUMPI DUP3 MLOAD DUP1 DUP5 PUSH1 0x20 ADD REVERT JUMPDEST DUP2 PUSH1 0x40 MLOAD PUSH32 0x8C379A000000000000000000000000000000000000000000000000000000000 DUP2 MSTORE PUSH1 0x4 ADD DUP1 DUP1 PUSH1 0x20 ADD DUP3 DUP2 SUB DUP3 MSTORE DUP4 DUP2 DUP2 MLOAD DUP2 MSTORE PUSH1 0x20 ADD SWAP2 POP DUP1 MLOAD SWAP1 PUSH1 0x20 ADD SWAP1 DUP1 DUP4 DUP4 PUSH1 0x0 JUMPDEST DUP4 DUP2 LT ISZERO PUSH2 0x2E80 JUMPI DUP1 DUP3 ADD MLOAD DUP2 DUP5 ADD MSTORE PUSH1 0x20 DUP2 ADD SWAP1 POP PUSH2 0x2E65 JUMP JUMPDEST POP POP POP POP SWAP1 POP SWAP1 DUP2 ADD SWAP1 PUSH1 0x1F AND DUP1 ISZERO PUSH2 0x2EAD JUMPI DUP1 DUP3 SUB DUP1 MLOAD PUSH1 0x1 DUP4 PUSH1 0x20 SUB PUSH2 0x100 EXP SUB NOT AND DUP2 MSTORE PUSH1 0x20 ADD SWAP2 POP JUMPDEST POP SWAP3 POP POP POP PUSH1 0x40 MLOAD DUP1 SWAP2 SUB SWAP1 REVERT JUMPDEST SWAP4 SWAP3 POP POP POP JUMP INVALID 0x4F PUSH24 0x6E61626C653A206E6577206F776E65722069732074686520 PUSH27 0x65726F2061646472657373416464726573733A20696E7375666669 PUSH4 0x69656E74 KECCAK256 PUSH3 0x616C61 PUSH15 0x636520666F722063616C6C6F706572 PUSH2 0x746F PUSH19 0x3A207A65726F20616464726573732067697665 PUSH15 0x20666F72206E6577206F7065726174 PUSH16 0x72536166654D6174683A206D756C7469 PUSH17 0x6C69636174696F6E206F766572666C6F77 PUSH16 0x70657261746F723A2063616C6C657220 PUSH10 0x73206E6F742074686520 PUSH16 0x70657261746F72536166654552433230 GASPRICE KECCAK256 GASLIMIT MSTORE NUMBER ORIGIN ADDRESS KECCAK256 PUSH16 0x7065726174696F6E20646964206E6F74 KECCAK256 PUSH20 0x756363656564A264697066735822122011DA50DA 0x5F 0xE5 MOD SWAP1 0xD8 PUSH10 0x5C6880B53A2B3C0BBAF9 0xB8 CALLDATASIZE SMOD STOP 0xBD OR SAR 0xC7 PUSH6 0x4153F164736F PUSH13 0x634300060C0033000000000000 "
				},
				"gasEstimates": {
					"creation": {
						"codeDepositCost": "2451200",
						"executionCost": "infinite",
						"totalCost": "infinite"
					},
					"external": {
						"Poly()": "1091",
						"PolyPerSecond()": "1073",
						"TOTAL_REWARDS()": "252",
						"_fees()": "1116",
						"add(uint256,address,bool,uint256)": "infinite",
						"deposit(uint256,uint256)": "infinite",
						"emergencyWithdraw(uint256)": "infinite",
						"getGeneratedReward(uint256,uint256)": "infinite",
						"governanceRecoverUnsupported(address,uint256,address)": "infinite",
						"initialize(address,uint256)": "infinite",
						"initialized()": "1138",
						"isInitialized()": "1101",
						"isOperator()": "1219",
						"massUpdatePools()": "infinite",
						"operator()": "1166",
						"owner()": "1122",
						"pendingStone(uint256,address)": "infinite",
						"poolEndTime()": "1095",
						"poolInfo(uint256)": "5486",
						"poolStartTime()": "1051",
						"renounceOwnership()": "24374",
						"runningTime()": "1116",
						"set(uint256,uint256)": "infinite",
						"setOperator(address)": "infinite",
						"totalAllocPoint()": "1051",
						"transferOperator(address)": "infinite",
						"transferOwnership(address)": "infinite",
						"updatePool(uint256)": "infinite",
						"userInfo(uint256,address)": "2196",
						"withdraw(uint256,uint256)": "infinite"
					},
					"internal": {
						"checkPoolDuplicate(contract IERC20)": "infinite",
						"safePolyTransfer(address,uint256)": "infinite"
					}
				},
				"methodIdentifiers": {
					"Poly()": "e177bb38",
					"PolyPerSecond()": "3f7caf52",
					"TOTAL_REWARDS()": "09cf6091",
					"_fees()": "d212a69a",
					"add(uint256,address,bool,uint256)": "96805e54",
					"deposit(uint256,uint256)": "e2bbb158",
					"emergencyWithdraw(uint256)": "5312ea8e",
					"getGeneratedReward(uint256,uint256)": "231f0c6a",
					"governanceRecoverUnsupported(address,uint256,address)": "54575af4",
					"initialize(address,uint256)": "cd6dc687",
					"initialized()": "158ef93e",
					"isInitialized()": "392e53cd",
					"isOperator()": "4456eda2",
					"massUpdatePools()": "630b5ba1",
					"operator()": "570ca735",
					"owner()": "8da5cb5b",
					"pendingStone(uint256,address)": "ecf4deb9",
					"poolEndTime()": "6e271dd5",
					"poolInfo(uint256)": "1526fe27",
					"poolStartTime()": "5f96dc11",
					"renounceOwnership()": "715018a6",
					"runningTime()": "943f013d",
					"set(uint256,uint256)": "1ab06ee5",
					"setOperator(address)": "b3ab15fb",
					"totalAllocPoint()": "17caf6f1",
					"transferOperator(address)": "29605e77",
					"transferOwnership(address)": "f2fde38b",
					"updatePool(uint256)": "51eb05a6",
					"userInfo(uint256,address)": "93f1a40b",
					"withdraw(uint256,uint256)": "441a3e70"
				}
			},
			"storageLayout": {
				"storage": [
					{
						"astId": 7,
						"contract": "contracts/distribution/TombGenesisRewardPool.sol:PolyGenesisRewardPool",
						"label": "_owner",
						"offset": 0,
						"slot": "0",
						"type": "t_address"
					},
					{
						"astId": 2196,
						"contract": "contracts/distribution/TombGenesisRewardPool.sol:PolyGenesisRewardPool",
						"label": "_operator",
						"offset": 0,
						"slot": "1",
						"type": "t_address"
					},
					{
						"astId": 1138,
						"contract": "contracts/distribution/TombGenesisRewardPool.sol:PolyGenesisRewardPool",
						"label": "Poly",
						"offset": 0,
						"slot": "2",
						"type": "t_contract(IERC20)187"
					},
					{
						"astId": 1140,
						"contract": "contracts/distribution/TombGenesisRewardPool.sol:PolyGenesisRewardPool",
						"label": "_fees",
						"offset": 0,
						"slot": "3",
						"type": "t_uint256"
					},
					{
						"astId": 1143,
						"contract": "contracts/distribution/TombGenesisRewardPool.sol:PolyGenesisRewardPool",
						"label": "poolInfo",
						"offset": 0,
						"slot": "4",
						"type": "t_array(t_struct(PoolInfo)1136_storage)dyn_storage"
					},
					{
						"astId": 1146,
						"contract": "contracts/distribution/TombGenesisRewardPool.sol:PolyGenesisRewardPool",
						"label": "initialized",
						"offset": 0,
						"slot": "5",
						"type": "t_bool"
					},
					{
						"astId": 1152,
						"contract": "contracts/distribution/TombGenesisRewardPool.sol:PolyGenesisRewardPool",
						"label": "userInfo",
						"offset": 0,
						"slot": "6",
						"type": "t_mapping(t_uint256,t_mapping(t_address,t_struct(UserInfo)1125_storage))"
					},
					{
						"astId": 1155,
						"contract": "contracts/distribution/TombGenesisRewardPool.sol:PolyGenesisRewardPool",
						"label": "totalAllocPoint",
						"offset": 0,
						"slot": "7",
						"type": "t_uint256"
					},
					{
						"astId": 1157,
						"contract": "contracts/distribution/TombGenesisRewardPool.sol:PolyGenesisRewardPool",
						"label": "poolStartTime",
						"offset": 0,
						"slot": "8",
						"type": "t_uint256"
					},
					{
						"astId": 1159,
						"contract": "contracts/distribution/TombGenesisRewardPool.sol:PolyGenesisRewardPool",
						"label": "poolEndTime",
						"offset": 0,
						"slot": "9",
						"type": "t_uint256"
					},
					{
						"astId": 1162,
						"contract": "contracts/distribution/TombGenesisRewardPool.sol:PolyGenesisRewardPool",
						"label": "PolyPerSecond",
						"offset": 0,
						"slot": "10",
						"type": "t_uint256"
					},
					{
						"astId": 1165,
						"contract": "contracts/distribution/TombGenesisRewardPool.sol:PolyGenesisRewardPool",
						"label": "runningTime",
						"offset": 0,
						"slot": "11",
						"type": "t_uint256"
					}
				],
				"types": {
					"t_address": {
						"encoding": "inplace",
						"label": "address",
						"numberOfBytes": "20"
					},
					"t_array(t_struct(PoolInfo)1136_storage)dyn_storage": {
						"base": "t_struct(PoolInfo)1136_storage",
						"encoding": "dynamic_array",
						"label": "struct PolyGenesisRewardPool.PoolInfo[]",
						"numberOfBytes": "32"
					},
					"t_bool": {
						"encoding": "inplace",
						"label": "bool",
						"numberOfBytes": "1"
					},
					"t_contract(IERC20)187": {
						"encoding": "inplace",
						"label": "contract IERC20",
						"numberOfBytes": "20"
					},
					"t_mapping(t_address,t_struct(UserInfo)1125_storage)": {
						"encoding": "mapping",
						"key": "t_address",
						"label": "mapping(address => struct PolyGenesisRewardPool.UserInfo)",
						"numberOfBytes": "32",
						"value": "t_struct(UserInfo)1125_storage"
					},
					"t_mapping(t_uint256,t_mapping(t_address,t_struct(UserInfo)1125_storage))": {
						"encoding": "mapping",
						"key": "t_uint256",
						"label": "mapping(uint256 => mapping(address => struct PolyGenesisRewardPool.UserInfo))",
						"numberOfBytes": "32",
						"value": "t_mapping(t_address,t_struct(UserInfo)1125_storage)"
					},
					"t_struct(PoolInfo)1136_storage": {
						"encoding": "inplace",
						"label": "struct PolyGenesisRewardPool.PoolInfo",
						"members": [
							{
								"astId": 1127,
								"contract": "contracts/distribution/TombGenesisRewardPool.sol:PolyGenesisRewardPool",
								"label": "token",
								"offset": 0,
								"slot": "0",
								"type": "t_contract(IERC20)187"
							},
							{
								"astId": 1129,
								"contract": "contracts/distribution/TombGenesisRewardPool.sol:PolyGenesisRewardPool",
								"label": "allocPoint",
								"offset": 0,
								"slot": "1",
								"type": "t_uint256"
							},
							{
								"astId": 1131,
								"contract": "contracts/distribution/TombGenesisRewardPool.sol:PolyGenesisRewardPool",
								"label": "lastRewardTime",
								"offset": 0,
								"slot": "2",
								"type": "t_uint256"
							},
							{
								"astId": 1133,
								"contract": "contracts/distribution/TombGenesisRewardPool.sol:PolyGenesisRewardPool",
								"label": "accPolyPerShare",
								"offset": 0,
								"slot": "3",
								"type": "t_uint256"
							},
							{
								"astId": 1135,
								"contract": "contracts/distribution/TombGenesisRewardPool.sol:PolyGenesisRewardPool",
								"label": "isStarted",
								"offset": 0,
								"slot": "4",
								"type": "t_bool"
							}
						],
						"numberOfBytes": "160"
					},
					"t_struct(UserInfo)1125_storage": {
						"encoding": "inplace",
						"label": "struct PolyGenesisRewardPool.UserInfo",
						"members": [
							{
								"astId": 1122,
								"contract": "contracts/distribution/TombGenesisRewardPool.sol:PolyGenesisRewardPool",
								"label": "amount",
								"offset": 0,
								"slot": "0",
								"type": "t_uint256"
							},
							{
								"astId": 1124,
								"contract": "contracts/distribution/TombGenesisRewardPool.sol:PolyGenesisRewardPool",
								"label": "rewardDebt",
								"offset": 0,
								"slot": "1",
								"type": "t_uint256"
							}
						],
						"numberOfBytes": "64"
					},
					"t_uint256": {
						"encoding": "inplace",
						"label": "uint256",
						"numberOfBytes": "32"
					}
				}
			},
			"userdoc": {
				"kind": "user",
				"methods": {},
				"version": 1
			}
		}
	}
}