{
	"contracts/distribution/TombRewardPool.sol": {
		"PolyRewardPool": {
			"abi": [
				{
					"inputs": [
						{
							"internalType": "address",
							"name": "_Poly",
							"type": "address"
						},
						{
							"internalType": "uint256",
							"name": "_poolStartTime",
							"type": "uint256"
						}
					],
					"stateMutability": "nonpayable",
					"type": "constructor"
				},
				{
					"anonymous": false,
					"inputs": [
						{
							"indexed": true,
							"internalType": "address",
							"name": "user",
							"type": "address"
						},
						{
							"indexed": true,
							"internalType": "uint256",
							"name": "pid",
							"type": "uint256"
						},
						{
							"indexed": false,
							"internalType": "uint256",
							"name": "amount",
							"type": "uint256"
						}
					],
					"name": "Deposit",
					"type": "event"
				},
				{
					"anonymous": false,
					"inputs": [
						{
							"indexed": true,
							"internalType": "address",
							"name": "user",
							"type": "address"
						},
						{
							"indexed": true,
							"internalType": "uint256",
							"name": "pid",
							"type": "uint256"
						},
						{
							"indexed": false,
							"internalType": "uint256",
							"name": "amount",
							"type": "uint256"
						}
					],
					"name": "EmergencyWithdraw",
					"type": "event"
				},
				{
					"anonymous": false,
					"inputs": [
						{
							"indexed": true,
							"internalType": "address",
							"name": "previousOperator",
							"type": "address"
						},
						{
							"indexed": true,
							"internalType": "address",
							"name": "newOperator",
							"type": "address"
						}
					],
					"name": "OperatorTransferred",
					"type": "event"
				},
				{
					"anonymous": false,
					"inputs": [
						{
							"indexed": true,
							"internalType": "address",
							"name": "previousOwner",
							"type": "address"
						},
						{
							"indexed": true,
							"internalType": "address",
							"name": "newOwner",
							"type": "address"
						}
					],
					"name": "OwnershipTransferred",
					"type": "event"
				},
				{
					"anonymous": false,
					"inputs": [
						{
							"indexed": true,
							"internalType": "address",
							"name": "user",
							"type": "address"
						},
						{
							"indexed": false,
							"internalType": "uint256",
							"name": "amount",
							"type": "uint256"
						}
					],
					"name": "RewardPaid",
					"type": "event"
				},
				{
					"anonymous": false,
					"inputs": [
						{
							"indexed": true,
							"internalType": "address",
							"name": "user",
							"type": "address"
						},
						{
							"indexed": true,
							"internalType": "uint256",
							"name": "pid",
							"type": "uint256"
						},
						{
							"indexed": false,
							"internalType": "uint256",
							"name": "amount",
							"type": "uint256"
						}
					],
					"name": "Withdraw",
					"type": "event"
				},
				{
					"inputs": [],
					"name": "Poly",
					"outputs": [
						{
							"internalType": "contract IERC20",
							"name": "",
							"type": "address"
						}
					],
					"stateMutability": "view",
					"type": "function"
				},
				{
					"inputs": [
						{
							"internalType": "uint256",
							"name": "_allocPoint",
							"type": "uint256"
						},
						{
							"internalType": "contract IERC20",
							"name": "_token",
							"type": "address"
						},
						{
							"internalType": "bool",
							"name": "_withUpdate",
							"type": "bool"
						},
						{
							"internalType": "uint256",
							"name": "_lastRewardTime",
							"type": "uint256"
						}
					],
					"name": "add",
					"outputs": [],
					"stateMutability": "nonpayable",
					"type": "function"
				},
				{
					"inputs": [
						{
							"internalType": "uint256",
							"name": "_pid",
							"type": "uint256"
						},
						{
							"internalType": "uint256",
							"name": "_amount",
							"type": "uint256"
						}
					],
					"name": "deposit",
					"outputs": [],
					"stateMutability": "nonpayable",
					"type": "function"
				},
				{
					"inputs": [
						{
							"internalType": "uint256",
							"name": "_pid",
							"type": "uint256"
						}
					],
					"name": "emergencyWithdraw",
					"outputs": [],
					"stateMutability": "nonpayable",
					"type": "function"
				},
				{
					"inputs": [
						{
							"internalType": "uint256",
							"name": "",
							"type": "uint256"
						}
					],
					"name": "epochEndTimes",
					"outputs": [
						{
							"internalType": "uint256",
							"name": "",
							"type": "uint256"
						}
					],
					"stateMutability": "view",
					"type": "function"
				},
				{
					"inputs": [
						{
							"internalType": "uint256",
							"name": "",
							"type": "uint256"
						}
					],
					"name": "epochPolyPerSecond",
					"outputs": [
						{
							"internalType": "uint256",
							"name": "",
							"type": "uint256"
						}
					],
					"stateMutability": "view",
					"type": "function"
				},
				{
					"inputs": [
						{
							"internalType": "uint256",
							"name": "",
							"type": "uint256"
						}
					],
					"name": "epochTotalRewards",
					"outputs": [
						{
							"internalType": "uint256",
							"name": "",
							"type": "uint256"
						}
					],
					"stateMutability": "view",
					"type": "function"
				},
				{
					"inputs": [
						{
							"internalType": "uint256",
							"name": "_fromTime",
							"type": "uint256"
						},
						{
							"internalType": "uint256",
							"name": "_toTime",
							"type": "uint256"
						}
					],
					"name": "getGeneratedReward",
					"outputs": [
						{
							"internalType": "uint256",
							"name": "",
							"type": "uint256"
						}
					],
					"stateMutability": "view",
					"type": "function"
				},
				{
					"inputs": [
						{
							"internalType": "contract IERC20",
							"name": "_token",
							"type": "address"
						},
						{
							"internalType": "uint256",
							"name": "amount",
							"type": "uint256"
						},
						{
							"internalType": "address",
							"name": "to",
							"type": "address"
						}
					],
					"name": "governanceRecoverUnsupported",
					"outputs": [],
					"stateMutability": "nonpayable",
					"type": "function"
				},
				{
					"inputs": [],
					"name": "isOperator",
					"outputs": [
						{
							"internalType": "bool",
							"name": "",
							"type": "bool"
						}
					],
					"stateMutability": "view",
					"type": "function"
				},
				{
					"inputs": [],
					"name": "massUpdatePools",
					"outputs": [],
					"stateMutability": "nonpayable",
					"type": "function"
				},
				{
					"inputs": [],
					"name": "operator",
					"outputs": [
						{
							"internalType": "address",
							"name": "",
							"type": "address"
						}
					],
					"stateMutability": "view",
					"type": "function"
				},
				{
					"inputs": [],
					"name": "owner",
					"outputs": [
						{
							"internalType": "address",
							"name": "",
							"type": "address"
						}
					],
					"stateMutability": "view",
					"type": "function"
				},
				{
					"inputs": [
						{
							"internalType": "uint256",
							"name": "_pid",
							"type": "uint256"
						},
						{
							"internalType": "address",
							"name": "_user",
							"type": "address"
						}
					],
					"name": "pendingPoly",
					"outputs": [
						{
							"internalType": "uint256",
							"name": "",
							"type": "uint256"
						}
					],
					"stateMutability": "view",
					"type": "function"
				},
				{
					"inputs": [
						{
							"internalType": "uint256",
							"name": "",
							"type": "uint256"
						}
					],
					"name": "poolInfo",
					"outputs": [
						{
							"internalType": "contract IERC20",
							"name": "token",
							"type": "address"
						},
						{
							"internalType": "uint256",
							"name": "allocPoint",
							"type": "uint256"
						},
						{
							"internalType": "uint256",
							"name": "lastRewardTime",
							"type": "uint256"
						},
						{
							"internalType": "uint256",
							"name": "accPolyPerShare",
							"type": "uint256"
						},
						{
							"internalType": "bool",
							"name": "isStarted",
							"type": "bool"
						}
					],
					"stateMutability": "view",
					"type": "function"
				},
				{
					"inputs": [],
					"name": "poolStartTime",
					"outputs": [
						{
							"internalType": "uint256",
							"name": "",
							"type": "uint256"
						}
					],
					"stateMutability": "view",
					"type": "function"
				},
				{
					"inputs": [],
					"name": "renounceOwnership",
					"outputs": [],
					"stateMutability": "nonpayable",
					"type": "function"
				},
				{
					"inputs": [
						{
							"internalType": "uint256",
							"name": "_pid",
							"type": "uint256"
						},
						{
							"internalType": "uint256",
							"name": "_allocPoint",
							"type": "uint256"
						}
					],
					"name": "set",
					"outputs": [],
					"stateMutability": "nonpayable",
					"type": "function"
				},
				{
					"inputs": [],
					"name": "totalAllocPoint",
					"outputs": [
						{
							"internalType": "uint256",
							"name": "",
							"type": "uint256"
						}
					],
					"stateMutability": "view",
					"type": "function"
				},
				{
					"inputs": [
						{
							"internalType": "address",
							"name": "newOperator_",
							"type": "address"
						}
					],
					"name": "transferOperator",
					"outputs": [],
					"stateMutability": "nonpayable",
					"type": "function"
				},
				{
					"inputs": [
						{
							"internalType": "address",
							"name": "newOwner",
							"type": "address"
						}
					],
					"name": "transferOwnership",
					"outputs": [],
					"stateMutability": "nonpayable",
					"type": "function"
				},
				{
					"inputs": [
						{
							"internalType": "uint256",
							"name": "_pid",
							"type": "uint256"
						}
					],
					"name": "updatePool",
					"outputs": [],
					"stateMutability": "nonpayable",
					"type": "function"
				},
				{
					"inputs": [
						{
							"internalType": "uint256",
							"name": "",
							"type": "uint256"
						},
						{
							"internalType": "address",
							"name": "",
							"type": "address"
						}
					],
					"name": "userInfo",
					"outputs": [
						{
							"internalType": "uint256",
							"name": "amount",
							"type": "uint256"
						},
						{
							"internalType": "uint256",
							"name": "rewardDebt",
							"type": "uint256"
						}
					],
					"stateMutability": "view",
					"type": "function"
				},
				{
					"inputs": [
						{
							"internalType": "uint256",
							"name": "_pid",
							"type": "uint256"
						},
						{
							"internalType": "uint256",
							"name": "_amount",
							"type": "uint256"
						}
					],
					"name": "withdraw",
					"outputs": [],
					"stateMutability": "nonpayable",
					"type": "function"
				}
			],
			"devdoc": {
				"kind": "dev",
				"methods": {
					"owner()": {
						"details": "Returns the address of the current owner."
					},
					"renounceOwnership()": {
						"details": "Leaves the contract without owner. It will not be possible to call `onlyOwner` functions anymore. Can only be called by the current owner. NOTE: Renouncing ownership will leave the contract without an owner, thereby removing any functionality that is only available to the owner."
					},
					"transferOwnership(address)": {
						"details": "Transfers ownership of the contract to a new account (`newOwner`). Can only be called by the current owner."
					}
				},
				"version": 1
			},
			"evm": {
				"assembly": "    /* \"contracts/distribution/TombRewardPool.sol\":464:11477  contract PolyRewardPool is Operator {\r... */\n  mstore(0x40, 0x80)\n    /* \"contracts/distribution/TombRewardPool.sol\":1583:1584  0 */\n  0x00\n    /* \"contracts/distribution/TombRewardPool.sol\":1550:1584  uint256 public totalAllocPoint = 0 */\n  0x05\n  sstore\n    /* \"contracts/distribution/TombRewardPool.sol\":1672:1735  uint256[] public epochTotalRewards = [80000 ether, 60000 ether] */\n  mload(0x40)\n  dup1\n  0x40\n  add\n  0x40\n  mstore\n  dup1\n    /* \"contracts/distribution/TombRewardPool.sol\":1710:1721  80000 ether */\n  0x10f0cf064dd592000000\n    /* \"contracts/distribution/TombRewardPool.sol\":1672:1735  uint256[] public epochTotalRewards = [80000 ether, 60000 ether] */\n  0xffffffffffffffffffff\n  and\n  dup2\n  mstore\n  0x20\n  add\n    /* \"contracts/distribution/TombRewardPool.sol\":1723:1734  60000 ether */\n  0x0cb49b44ba602d800000\n    /* \"contracts/distribution/TombRewardPool.sol\":1672:1735  uint256[] public epochTotalRewards = [80000 ether, 60000 ether] */\n  0xffffffffffffffffffff\n  and\n  dup2\n  mstore\n  pop\n  0x07\n  swap1\n  0x02\n  tag_1\n  swap3\n  swap2\n  swap1\n  tag_2\n  jump\t// in\ntag_1:\n  pop\n    /* \"contracts/distribution/TombRewardPool.sol\":2262:2795  constructor(address _Poly, uint256 _poolStartTime) public {\r... */\n  callvalue\n  dup1\n  iszero\n  tag_3\n  jumpi\n  0x00\n  dup1\n  revert\ntag_3:\n  pop\n  mload(0x40)\n  sub(codesize, bytecodeSize)\n  dup1\n  bytecodeSize\n  dup4\n  codecopy\n  dup2\n  dup2\n  add\n  0x40\n  mstore\n  0x40\n  dup2\n  lt\n  iszero\n  tag_4\n  jumpi\n  0x00\n  dup1\n  revert\ntag_4:\n  dup2\n  add\n  swap1\n  dup1\n  dup1\n  mload\n  swap1\n  0x20\n  add\n  swap1\n  swap3\n  swap2\n  swap1\n  dup1\n  mload\n  swap1\n  0x20\n  add\n  swap1\n  swap3\n  swap2\n  swap1\n  pop\n  pop\n  pop\n    /* \"@openzeppelin/contracts/access/Ownable.sol\":938:955  address msgSender */\n  0x00\n    /* \"@openzeppelin/contracts/access/Ownable.sol\":958:970  _msgSender() */\n  tag_9\n    /* \"@openzeppelin/contracts/access/Ownable.sol\":958:968  _msgSender */\n  shl(0x20, tag_10)\n    /* \"@openzeppelin/contracts/access/Ownable.sol\":958:970  _msgSender() */\n  0x20\n  shr\n  jump\t// in\ntag_9:\n    /* \"@openzeppelin/contracts/access/Ownable.sol\":938:970  address msgSender = _msgSender() */\n  swap1\n  pop\n    /* \"@openzeppelin/contracts/access/Ownable.sol\":989:998  msgSender */\n  dup1\n    /* \"@openzeppelin/contracts/access/Ownable.sol\":980:986  _owner */\n  0x00\n  dup1\n    /* \"@openzeppelin/contracts/access/Ownable.sol\":980:998  _owner = msgSender */\n  0x0100\n  exp\n  dup2\n  sload\n  dup2\n  0xffffffffffffffffffffffffffffffffffffffff\n  mul\n  not\n  and\n  swap1\n  dup4\n  0xffffffffffffffffffffffffffffffffffffffff\n  and\n  mul\n  or\n  swap1\n  sstore\n  pop\n    /* \"@openzeppelin/contracts/access/Ownable.sol\":1046:1055  msgSender */\n  dup1\n    /* \"@openzeppelin/contracts/access/Ownable.sol\":1013:1056  OwnershipTransferred(address(0), msgSender) */\n  0xffffffffffffffffffffffffffffffffffffffff\n  and\n    /* \"@openzeppelin/contracts/access/Ownable.sol\":1042:1043  0 */\n  0x00\n    /* \"@openzeppelin/contracts/access/Ownable.sol\":1013:1056  OwnershipTransferred(address(0), msgSender) */\n  0xffffffffffffffffffffffffffffffffffffffff\n  and\n  0x8be0079c531659141344cd1fd0a4f28419497f9722a3daafe3b4186f6b6457e0\n  mload(0x40)\n  mload(0x40)\n  dup1\n  swap2\n  sub\n  swap1\n  log3\n    /* \"@openzeppelin/contracts/access/Ownable.sol\":904:1063  constructor () internal {... */\n  pop\n    /* \"contracts/owner/Operator.sol\":435:447  _msgSender() */\n  tag_12\n    /* \"contracts/owner/Operator.sol\":435:445  _msgSender */\n  shl(0x20, tag_10)\n    /* \"contracts/owner/Operator.sol\":435:447  _msgSender() */\n  0x20\n  shr\n  jump\t// in\ntag_12:\n    /* \"contracts/owner/Operator.sol\":423:432  _operator */\n  0x01\n  0x00\n    /* \"contracts/owner/Operator.sol\":423:447  _operator = _msgSender() */\n  0x0100\n  exp\n  dup2\n  sload\n  dup2\n  0xffffffffffffffffffffffffffffffffffffffff\n  mul\n  not\n  and\n  swap1\n  dup4\n  0xffffffffffffffffffffffffffffffffffffffff\n  and\n  mul\n  or\n  swap1\n  sstore\n  pop\n    /* \"contracts/owner/Operator.sol\":495:504  _operator */\n  0x01\n  0x00\n  swap1\n  sload\n  swap1\n  0x0100\n  exp\n  swap1\n  div\n  0xffffffffffffffffffffffffffffffffffffffff\n  and\n    /* \"contracts/owner/Operator.sol\":463:505  OperatorTransferred(address(0), _operator) */\n  0xffffffffffffffffffffffffffffffffffffffff\n  and\n    /* \"contracts/owner/Operator.sol\":491:492  0 */\n  0x00\n    /* \"contracts/owner/Operator.sol\":463:505  OperatorTransferred(address(0), _operator) */\n  0xffffffffffffffffffffffffffffffffffffffff\n  and\n  0x74da04524d50c64947f5dd5381ef1a4dca5cba8ed1d816243f9e48aa0b5617ed\n  mload(0x40)\n  mload(0x40)\n  dup1\n  swap2\n  sub\n  swap1\n  log3\n    /* \"contracts/distribution/TombRewardPool.sol\":2357:2371  _poolStartTime */\n  dup1\n    /* \"contracts/distribution/TombRewardPool.sol\":2339:2354  block.timestamp */\n  timestamp\n    /* \"contracts/distribution/TombRewardPool.sol\":2339:2371  block.timestamp < _poolStartTime */\n  lt\n    /* \"contracts/distribution/TombRewardPool.sol\":2331:2380  require(block.timestamp < _poolStartTime, \"late\") */\n  tag_14\n  jumpi\n  mload(0x40)\n  0x08c379a000000000000000000000000000000000000000000000000000000000\n  dup2\n  mstore\n  0x04\n  add\n  dup1\n  dup1\n  0x20\n  add\n  dup3\n  dup2\n  sub\n  dup3\n  mstore\n  0x04\n  dup2\n  mstore\n  0x20\n  add\n  dup1\n  0x6c61746500000000000000000000000000000000000000000000000000000000\n  dup2\n  mstore\n  pop\n  0x20\n  add\n  swap2\n  pop\n  pop\n  mload(0x40)\n  dup1\n  swap2\n  sub\n  swap1\n  revert\ntag_14:\n    /* \"contracts/distribution/TombRewardPool.sol\":2412:2413  0 */\n  0x00\n    /* \"contracts/distribution/TombRewardPool.sol\":2395:2414  _Poly != address(0) */\n  0xffffffffffffffffffffffffffffffffffffffff\n  and\n    /* \"contracts/distribution/TombRewardPool.sol\":2395:2400  _Poly */\n  dup3\n    /* \"contracts/distribution/TombRewardPool.sol\":2395:2414  _Poly != address(0) */\n  0xffffffffffffffffffffffffffffffffffffffff\n  and\n  eq\n    /* \"contracts/distribution/TombRewardPool.sol\":2391:2436  if (_Poly != address(0)) Poly = IERC20(_Poly) */\n  tag_15\n  jumpi\n    /* \"contracts/distribution/TombRewardPool.sol\":2430:2435  _Poly */\n  dup2\n    /* \"contracts/distribution/TombRewardPool.sol\":2416:2420  Poly */\n  0x02\n  0x00\n    /* \"contracts/distribution/TombRewardPool.sol\":2416:2436  Poly = IERC20(_Poly) */\n  0x0100\n  exp\n  dup2\n  sload\n  dup2\n  0xffffffffffffffffffffffffffffffffffffffff\n  mul\n  not\n  and\n  swap1\n  dup4\n  0xffffffffffffffffffffffffffffffffffffffff\n  and\n  mul\n  or\n  swap1\n  sstore\n  pop\n    /* \"contracts/distribution/TombRewardPool.sol\":2391:2436  if (_Poly != address(0)) Poly = IERC20(_Poly) */\ntag_15:\n    /* \"contracts/distribution/TombRewardPool.sol\":2465:2479  _poolStartTime */\n  dup1\n    /* \"contracts/distribution/TombRewardPool.sol\":2449:2462  poolStartTime */\n  0x06\n    /* \"contracts/distribution/TombRewardPool.sol\":2449:2479  poolStartTime = _poolStartTime */\n  dup2\n  swap1\n  sstore\n  pop\n    /* \"contracts/distribution/TombRewardPool.sol\":2527:2533  4 days */\n  0x054600\n    /* \"contracts/distribution/TombRewardPool.sol\":2511:2524  poolStartTime */\n  sload(0x06)\n    /* \"contracts/distribution/TombRewardPool.sol\":2511:2533  poolStartTime + 4 days */\n  add\n    /* \"contracts/distribution/TombRewardPool.sol\":2492:2505  epochEndTimes */\n  0x08\n    /* \"contracts/distribution/TombRewardPool.sol\":2506:2507  0 */\n  0x00\n    /* \"contracts/distribution/TombRewardPool.sol\":2492:2508  epochEndTimes[0] */\n  0x03\n  dup2\n  lt\n  tag_16\n  jumpi\n  invalid\ntag_16:\n  add\n    /* \"contracts/distribution/TombRewardPool.sol\":2492:2533  epochEndTimes[0] = poolStartTime + 4 days */\n  dup2\n  swap1\n  sstore\n  pop\n    /* \"contracts/distribution/TombRewardPool.sol\":2593:2599  5 days */\n  0x069780\n    /* \"contracts/distribution/TombRewardPool.sol\":2574:2587  epochEndTimes */\n  0x08\n    /* \"contracts/distribution/TombRewardPool.sol\":2588:2589  0 */\n  0x00\n    /* \"contracts/distribution/TombRewardPool.sol\":2574:2590  epochEndTimes[0] */\n  0x03\n  dup2\n  lt\n  tag_18\n  jumpi\n  invalid\ntag_18:\n  add\n  sload\n    /* \"contracts/distribution/TombRewardPool.sol\":2574:2599  epochEndTimes[0] + 5 days */\n  add\n    /* \"contracts/distribution/TombRewardPool.sol\":2555:2568  epochEndTimes */\n  0x08\n    /* \"contracts/distribution/TombRewardPool.sol\":2569:2570  1 */\n  0x01\n    /* \"contracts/distribution/TombRewardPool.sol\":2555:2571  epochEndTimes[1] */\n  0x03\n  dup2\n  lt\n  tag_20\n  jumpi\n  invalid\ntag_20:\n  add\n    /* \"contracts/distribution/TombRewardPool.sol\":2555:2599  epochEndTimes[1] = epochEndTimes[0] + 5 days */\n  dup2\n  swap1\n  sstore\n  pop\n    /* \"contracts/distribution/TombRewardPool.sol\":2648:2680  epochTotalRewards[0].div(4 days) */\n  tag_22\n    /* \"contracts/distribution/TombRewardPool.sol\":2673:2679  4 days */\n  0x054600\n    /* \"contracts/distribution/TombRewardPool.sol\":2648:2665  epochTotalRewards */\n  0x07\n    /* \"contracts/distribution/TombRewardPool.sol\":2666:2667  0 */\n  0x00\n    /* \"contracts/distribution/TombRewardPool.sol\":2648:2668  epochTotalRewards[0] */\n  dup2\n  sload\n  dup2\n  lt\n  tag_23\n  jumpi\n  invalid\ntag_23:\n  swap1\n  0x00\n  mstore\n  keccak256(0x00, 0x20)\n  add\n  sload\n    /* \"contracts/distribution/TombRewardPool.sol\":2648:2672  epochTotalRewards[0].div */\n  or(tag_0_94, shl(0x20, tag_25))\n  swap1\n    /* \"contracts/distribution/TombRewardPool.sol\":2648:2680  epochTotalRewards[0].div(4 days) */\n  swap2\n  swap1\n  0x20\n  shr\n  jump\t// in\ntag_22:\n    /* \"contracts/distribution/TombRewardPool.sol\":2624:2642  epochPolyPerSecond */\n  0x0b\n    /* \"contracts/distribution/TombRewardPool.sol\":2643:2644  0 */\n  0x00\n    /* \"contracts/distribution/TombRewardPool.sol\":2624:2645  epochPolyPerSecond[0] */\n  0x03\n  dup2\n  lt\n  tag_26\n  jumpi\n  invalid\ntag_26:\n  add\n    /* \"contracts/distribution/TombRewardPool.sol\":2624:2680  epochPolyPerSecond[0] = epochTotalRewards[0].div(4 days) */\n  dup2\n  swap1\n  sstore\n  pop\n    /* \"contracts/distribution/TombRewardPool.sol\":2715:2747  epochTotalRewards[1].div(5 days) */\n  tag_28\n    /* \"contracts/distribution/TombRewardPool.sol\":2740:2746  5 days */\n  0x069780\n    /* \"contracts/distribution/TombRewardPool.sol\":2715:2732  epochTotalRewards */\n  0x07\n    /* \"contracts/distribution/TombRewardPool.sol\":2733:2734  1 */\n  0x01\n    /* \"contracts/distribution/TombRewardPool.sol\":2715:2735  epochTotalRewards[1] */\n  dup2\n  sload\n  dup2\n  lt\n  tag_29\n  jumpi\n  invalid\ntag_29:\n  swap1\n  0x00\n  mstore\n  keccak256(0x00, 0x20)\n  add\n  sload\n    /* \"contracts/distribution/TombRewardPool.sol\":2715:2739  epochTotalRewards[1].div */\n  or(tag_0_94, shl(0x20, tag_25))\n  swap1\n    /* \"contracts/distribution/TombRewardPool.sol\":2715:2747  epochTotalRewards[1].div(5 days) */\n  swap2\n  swap1\n  0x20\n  shr\n  jump\t// in\ntag_28:\n    /* \"contracts/distribution/TombRewardPool.sol\":2691:2709  epochPolyPerSecond */\n  0x0b\n    /* \"contracts/distribution/TombRewardPool.sol\":2710:2711  1 */\n  0x01\n    /* \"contracts/distribution/TombRewardPool.sol\":2691:2712  epochPolyPerSecond[1] */\n  0x03\n  dup2\n  lt\n  tag_31\n  jumpi\n  invalid\ntag_31:\n  add\n    /* \"contracts/distribution/TombRewardPool.sol\":2691:2747  epochPolyPerSecond[1] = epochTotalRewards[1].div(5 days) */\n  dup2\n  swap1\n  sstore\n  pop\n    /* \"contracts/distribution/TombRewardPool.sol\":2784:2785  0 */\n  0x00\n    /* \"contracts/distribution/TombRewardPool.sol\":2760:2778  epochPolyPerSecond */\n  0x0b\n    /* \"contracts/distribution/TombRewardPool.sol\":2779:2780  2 */\n  0x02\n    /* \"contracts/distribution/TombRewardPool.sol\":2760:2781  epochPolyPerSecond[2] */\n  0x03\n  dup2\n  lt\n  tag_33\n  jumpi\n  invalid\ntag_33:\n  add\n    /* \"contracts/distribution/TombRewardPool.sol\":2760:2785  epochPolyPerSecond[2] = 0 */\n  dup2\n  swap1\n  sstore\n  pop\n    /* \"contracts/distribution/TombRewardPool.sol\":2262:2795  constructor(address _Poly, uint256 _poolStartTime) public {\r... */\n  pop\n  pop\n    /* \"contracts/distribution/TombRewardPool.sol\":464:11477  contract PolyRewardPool is Operator {\r... */\n  jump(tag_35)\n    /* \"@openzeppelin/contracts/utils/Context.sol\":596:692  function _msgSender() internal view virtual returns (address) {... */\ntag_10:\n    /* \"@openzeppelin/contracts/utils/Context.sol\":649:656  address */\n  0x00\n    /* \"@openzeppelin/contracts/utils/Context.sol\":675:685  msg.sender */\n  caller\n    /* \"@openzeppelin/contracts/utils/Context.sol\":668:685  return msg.sender */\n  swap1\n  pop\n    /* \"@openzeppelin/contracts/utils/Context.sol\":596:692  function _msgSender() internal view virtual returns (address) {... */\n  swap1\n  jump\t// out\n    /* \"@openzeppelin/contracts/utils/math/SafeMath.sol\":4217:4367  function div(uint256 a, uint256 b) internal pure returns (uint256) {... */\ntag_25:\n    /* \"@openzeppelin/contracts/utils/math/SafeMath.sol\":4275:4282  uint256 */\n  0x00\n    /* \"@openzeppelin/contracts/utils/math/SafeMath.sol\":4306:4307  0 */\n  dup1\n    /* \"@openzeppelin/contracts/utils/math/SafeMath.sol\":4302:4303  b */\n  dup3\n    /* \"@openzeppelin/contracts/utils/math/SafeMath.sol\":4302:4307  b > 0 */\n  gt\n    /* \"@openzeppelin/contracts/utils/math/SafeMath.sol\":4294:4338  require(b > 0, \"SafeMath: division by zero\") */\n  tag_38\n  jumpi\n  mload(0x40)\n  0x08c379a000000000000000000000000000000000000000000000000000000000\n  dup2\n  mstore\n  0x04\n  add\n  dup1\n  dup1\n  0x20\n  add\n  dup3\n  dup2\n  sub\n  dup3\n  mstore\n  0x1a\n  dup2\n  mstore\n  0x20\n  add\n  dup1\n  0x536166654d6174683a206469766973696f6e206279207a65726f000000000000\n  dup2\n  mstore\n  pop\n  0x20\n  add\n  swap2\n  pop\n  pop\n  mload(0x40)\n  dup1\n  swap2\n  sub\n  swap1\n  revert\ntag_38:\n    /* \"@openzeppelin/contracts/utils/math/SafeMath.sol\":4359:4360  b */\n  dup2\n    /* \"@openzeppelin/contracts/utils/math/SafeMath.sol\":4355:4356  a */\n  dup4\n    /* \"@openzeppelin/contracts/utils/math/SafeMath.sol\":4355:4360  a / b */\n  dup2\n  tag_39\n  jumpi\n  invalid\ntag_39:\n  div\n    /* \"@openzeppelin/contracts/utils/math/SafeMath.sol\":4348:4360  return a / b */\n  swap1\n  pop\n    /* \"@openzeppelin/contracts/utils/math/SafeMath.sol\":4217:4367  function div(uint256 a, uint256 b) internal pure returns (uint256) {... */\n  swap3\n  swap2\n  pop\n  pop\n  jump\t// out\n    /* \"contracts/distribution/TombRewardPool.sol\":464:11477  contract PolyRewardPool is Operator {\r... */\ntag_2:\n  dup3\n  dup1\n  sload\n  dup3\n  dup3\n  sstore\n  swap1\n  0x00\n  mstore\n  keccak256(0x00, 0x20)\n  swap1\n  dup2\n  add\n  swap3\n  dup3\n  iszero\n  tag_40\n  jumpi\n  swap2\n  0x20\n  mul\n  dup3\n  add\ntag_41:\n  dup3\n  dup2\n  gt\n  iszero\n  tag_42\n  jumpi\n  dup3\n  mload\n  dup3\n  swap1\n  0xffffffffffffffffffff\n  and\n  swap1\n  sstore\n  swap2\n  0x20\n  add\n  swap2\n  swap1\n  0x01\n  add\n  swap1\n  jump(tag_41)\ntag_42:\ntag_40:\n  pop\n  swap1\n  pop\n  tag_43\n  swap2\n  swap1\n  tag_44\n  jump\t// in\ntag_43:\n  pop\n  swap1\n  jump\t// out\ntag_44:\ntag_45:\n  dup1\n  dup3\n  gt\n  iszero\n  tag_46\n  jumpi\n  0x00\n  dup2\n  0x00\n  swap1\n  sstore\n  pop\n  0x01\n  add\n  jump(tag_45)\ntag_46:\n  pop\n  swap1\n  jump\t// out\ntag_35:\n  dataSize(sub_0)\n  dup1\n  dataOffset(sub_0)\n  0x00\n  codecopy\n  0x00\n  return\nstop\n\nsub_0: assembly {\n        /* \"contracts/distribution/TombRewardPool.sol\":464:11477  contract PolyRewardPool is Operator {\r... */\n      mstore(0x40, 0x80)\n      callvalue\n      dup1\n      iszero\n      tag_1\n      jumpi\n      0x00\n      dup1\n      revert\n    tag_1:\n      pop\n      jumpi(tag_2, lt(calldatasize, 0x04))\n      shr(0xe0, calldataload(0x00))\n      dup1\n      0x5f96dc11\n      gt\n      tag_27\n      jumpi\n      dup1\n      0x9a25cefc\n      gt\n      tag_28\n      jumpi\n      dup1\n      0x9a25cefc\n      eq\n      tag_21\n      jumpi\n      dup1\n      0xb89e73c1\n      eq\n      tag_22\n      jumpi\n      dup1\n      0xe177bb38\n      eq\n      tag_23\n      jumpi\n      dup1\n      0xe2bbb158\n      eq\n      tag_24\n      jumpi\n      dup1\n      0xf2fde38b\n      eq\n      tag_25\n      jumpi\n      dup1\n      0xf8d936b3\n      eq\n      tag_26\n      jumpi\n      jump(tag_2)\n    tag_28:\n      dup1\n      0x5f96dc11\n      eq\n      tag_15\n      jumpi\n      dup1\n      0x630b5ba1\n      eq\n      tag_16\n      jumpi\n      dup1\n      0x715018a6\n      eq\n      tag_17\n      jumpi\n      dup1\n      0x8da5cb5b\n      eq\n      tag_18\n      jumpi\n      dup1\n      0x93f1a40b\n      eq\n      tag_19\n      jumpi\n      dup1\n      0x96805e54\n      eq\n      tag_20\n      jumpi\n      jump(tag_2)\n    tag_27:\n      dup1\n      0x4456eda2\n      gt\n      tag_29\n      jumpi\n      dup1\n      0x4456eda2\n      eq\n      tag_9\n      jumpi\n      dup1\n      0x4d1e4f42\n      eq\n      tag_10\n      jumpi\n      dup1\n      0x51eb05a6\n      eq\n      tag_11\n      jumpi\n      dup1\n      0x5312ea8e\n      eq\n      tag_12\n      jumpi\n      dup1\n      0x54575af4\n      eq\n      tag_13\n      jumpi\n      dup1\n      0x570ca735\n      eq\n      tag_14\n      jumpi\n      jump(tag_2)\n    tag_29:\n      dup1\n      0x1526fe27\n      eq\n      tag_3\n      jumpi\n      dup1\n      0x17caf6f1\n      eq\n      tag_4\n      jumpi\n      dup1\n      0x1ab06ee5\n      eq\n      tag_5\n      jumpi\n      dup1\n      0x231f0c6a\n      eq\n      tag_6\n      jumpi\n      dup1\n      0x29605e77\n      eq\n      tag_7\n      jumpi\n      dup1\n      0x441a3e70\n      eq\n      tag_8\n      jumpi\n    tag_2:\n      0x00\n      dup1\n      revert\n        /* \"contracts/distribution/TombRewardPool.sol\":1305:1331  PoolInfo[] public poolInfo */\n    tag_3:\n      tag_30\n      0x04\n      dup1\n      calldatasize\n      sub\n      0x20\n      dup2\n      lt\n      iszero\n      tag_31\n      jumpi\n      0x00\n      dup1\n      revert\n    tag_31:\n      dup2\n      add\n      swap1\n      dup1\n      dup1\n      calldataload\n      swap1\n      0x20\n      add\n      swap1\n      swap3\n      swap2\n      swap1\n      pop\n      pop\n      pop\n      tag_32\n      jump\t// in\n    tag_30:\n      mload(0x40)\n      dup1\n      dup7\n      0xffffffffffffffffffffffffffffffffffffffff\n      and\n      dup2\n      mstore\n      0x20\n      add\n      dup6\n      dup2\n      mstore\n      0x20\n      add\n      dup5\n      dup2\n      mstore\n      0x20\n      add\n      dup4\n      dup2\n      mstore\n      0x20\n      add\n      dup3\n      iszero\n      iszero\n      dup2\n      mstore\n      0x20\n      add\n      swap6\n      pop\n      pop\n      pop\n      pop\n      pop\n      pop\n      mload(0x40)\n      dup1\n      swap2\n      sub\n      swap1\n      return\n        /* \"contracts/distribution/TombRewardPool.sol\":1550:1584  uint256 public totalAllocPoint = 0 */\n    tag_4:\n      tag_33\n      tag_34\n      jump\t// in\n    tag_33:\n      mload(0x40)\n      dup1\n      dup3\n      dup2\n      mstore\n      0x20\n      add\n      swap2\n      pop\n      pop\n      mload(0x40)\n      dup1\n      swap2\n      sub\n      swap1\n      return\n        /* \"contracts/distribution/TombRewardPool.sol\":4410:4731  function set(uint256 _pid, uint256 _allocPoint) public onlyOperator {\r... */\n    tag_5:\n      tag_35\n      0x04\n      dup1\n      calldatasize\n      sub\n      0x40\n      dup2\n      lt\n      iszero\n      tag_36\n      jumpi\n      0x00\n      dup1\n      revert\n    tag_36:\n      dup2\n      add\n      swap1\n      dup1\n      dup1\n      calldataload\n      swap1\n      0x20\n      add\n      swap1\n      swap3\n      swap2\n      swap1\n      dup1\n      calldataload\n      swap1\n      0x20\n      add\n      swap1\n      swap3\n      swap2\n      swap1\n      pop\n      pop\n      pop\n      tag_37\n      jump\t// in\n    tag_35:\n      stop\n        /* \"contracts/distribution/TombRewardPool.sol\":4810:6142  function getGeneratedReward(uint256 _fromTime, uint256 _toTime) public view returns (uint256) {\r... */\n    tag_6:\n      tag_38\n      0x04\n      dup1\n      calldatasize\n      sub\n      0x40\n      dup2\n      lt\n      iszero\n      tag_39\n      jumpi\n      0x00\n      dup1\n      revert\n    tag_39:\n      dup2\n      add\n      swap1\n      dup1\n      dup1\n      calldataload\n      swap1\n      0x20\n      add\n      swap1\n      swap3\n      swap2\n      swap1\n      dup1\n      calldataload\n      swap1\n      0x20\n      add\n      swap1\n      swap3\n      swap2\n      swap1\n      pop\n      pop\n      pop\n      tag_40\n      jump\t// in\n    tag_38:\n      mload(0x40)\n      dup1\n      dup3\n      dup2\n      mstore\n      0x20\n      add\n      swap2\n      pop\n      pop\n      mload(0x40)\n      dup1\n      swap2\n      sub\n      swap1\n      return\n        /* \"contracts/owner/Operator.sol\":894:1009  function transferOperator(address newOperator_) public onlyOwner {\r... */\n    tag_7:\n      tag_41\n      0x04\n      dup1\n      calldatasize\n      sub\n      0x20\n      dup2\n      lt\n      iszero\n      tag_42\n      jumpi\n      0x00\n      dup1\n      revert\n    tag_42:\n      dup2\n      add\n      swap1\n      dup1\n      dup1\n      calldataload\n      0xffffffffffffffffffffffffffffffffffffffff\n      and\n      swap1\n      0x20\n      add\n      swap1\n      swap3\n      swap2\n      swap1\n      pop\n      pop\n      pop\n      tag_43\n      jump\t// in\n    tag_41:\n      stop\n        /* \"contracts/distribution/TombRewardPool.sol\":9121:9931  function withdraw(uint256 _pid, uint256 _amount) public {\r... */\n    tag_8:\n      tag_44\n      0x04\n      dup1\n      calldatasize\n      sub\n      0x40\n      dup2\n      lt\n      iszero\n      tag_45\n      jumpi\n      0x00\n      dup1\n      revert\n    tag_45:\n      dup2\n      add\n      swap1\n      dup1\n      dup1\n      calldataload\n      swap1\n      0x20\n      add\n      swap1\n      swap3\n      swap2\n      swap1\n      dup1\n      calldataload\n      swap1\n      0x20\n      add\n      swap1\n      swap3\n      swap2\n      swap1\n      pop\n      pop\n      pop\n      tag_46\n      jump\t// in\n    tag_44:\n      stop\n        /* \"contracts/owner/Operator.sol\":786:886  function isOperator() public view returns (bool) {\r... */\n    tag_9:\n      tag_47\n      tag_48\n      jump\t// in\n    tag_47:\n      mload(0x40)\n      dup1\n      dup3\n      iszero\n      iszero\n      dup2\n      mstore\n      0x20\n      add\n      swap2\n      pop\n      pop\n      mload(0x40)\n      dup1\n      swap2\n      sub\n      swap1\n      return\n        /* \"contracts/distribution/TombRewardPool.sol\":6206:6977  function pendingPoly(uint256 _pid, address _user) external view returns (uint256) {\r... */\n    tag_10:\n      tag_49\n      0x04\n      dup1\n      calldatasize\n      sub\n      0x40\n      dup2\n      lt\n      iszero\n      tag_50\n      jumpi\n      0x00\n      dup1\n      revert\n    tag_50:\n      dup2\n      add\n      swap1\n      dup1\n      dup1\n      calldataload\n      swap1\n      0x20\n      add\n      swap1\n      swap3\n      swap2\n      swap1\n      dup1\n      calldataload\n      0xffffffffffffffffffffffffffffffffffffffff\n      and\n      swap1\n      0x20\n      add\n      swap1\n      swap3\n      swap2\n      swap1\n      pop\n      pop\n      pop\n      tag_51\n      jump\t// in\n    tag_49:\n      mload(0x40)\n      dup1\n      dup3\n      dup2\n      mstore\n      0x20\n      add\n      swap2\n      pop\n      pop\n      mload(0x40)\n      dup1\n      swap2\n      sub\n      swap1\n      return\n        /* \"contracts/distribution/TombRewardPool.sol\":7316:8224  function updatePool(uint256 _pid) public {\r... */\n    tag_11:\n      tag_52\n      0x04\n      dup1\n      calldatasize\n      sub\n      0x20\n      dup2\n      lt\n      iszero\n      tag_53\n      jumpi\n      0x00\n      dup1\n      revert\n    tag_53:\n      dup2\n      add\n      swap1\n      dup1\n      dup1\n      calldataload\n      swap1\n      0x20\n      add\n      swap1\n      swap3\n      swap2\n      swap1\n      pop\n      pop\n      pop\n      tag_54\n      jump\t// in\n    tag_52:\n      stop\n        /* \"contracts/distribution/TombRewardPool.sol\":10002:10379  function emergencyWithdraw(uint256 _pid) public {\r... */\n    tag_12:\n      tag_55\n      0x04\n      dup1\n      calldatasize\n      sub\n      0x20\n      dup2\n      lt\n      iszero\n      tag_56\n      jumpi\n      0x00\n      dup1\n      revert\n    tag_56:\n      dup2\n      add\n      swap1\n      dup1\n      dup1\n      calldataload\n      swap1\n      0x20\n      add\n      swap1\n      swap3\n      swap2\n      swap1\n      pop\n      pop\n      pop\n      tag_57\n      jump\t// in\n    tag_55:\n      stop\n        /* \"contracts/distribution/TombRewardPool.sol\":10850:11474  function governanceRecoverUnsupported(\r... */\n    tag_13:\n      tag_58\n      0x04\n      dup1\n      calldatasize\n      sub\n      0x60\n      dup2\n      lt\n      iszero\n      tag_59\n      jumpi\n      0x00\n      dup1\n      revert\n    tag_59:\n      dup2\n      add\n      swap1\n      dup1\n      dup1\n      calldataload\n      0xffffffffffffffffffffffffffffffffffffffff\n      and\n      swap1\n      0x20\n      add\n      swap1\n      swap3\n      swap2\n      swap1\n      dup1\n      calldataload\n      swap1\n      0x20\n      add\n      swap1\n      swap3\n      swap2\n      swap1\n      dup1\n      calldataload\n      0xffffffffffffffffffffffffffffffffffffffff\n      and\n      swap1\n      0x20\n      add\n      swap1\n      swap3\n      swap2\n      swap1\n      pop\n      pop\n      pop\n      tag_60\n      jump\t// in\n    tag_58:\n      stop\n        /* \"contracts/owner/Operator.sol\":521:606  function operator() public view returns (address) {\r... */\n    tag_14:\n      tag_61\n      tag_62\n      jump\t// in\n    tag_61:\n      mload(0x40)\n      dup1\n      dup3\n      0xffffffffffffffffffffffffffffffffffffffff\n      and\n      dup2\n      mstore\n      0x20\n      add\n      swap2\n      pop\n      pop\n      mload(0x40)\n      dup1\n      swap2\n      sub\n      swap1\n      return\n        /* \"contracts/distribution/TombRewardPool.sol\":1635:1663  uint256 public poolStartTime */\n    tag_15:\n      tag_63\n      tag_64\n      jump\t// in\n    tag_63:\n      mload(0x40)\n      dup1\n      dup3\n      dup2\n      mstore\n      0x20\n      add\n      swap2\n      pop\n      pop\n      mload(0x40)\n      dup1\n      swap2\n      sub\n      swap1\n      return\n        /* \"contracts/distribution/TombRewardPool.sol\":7060:7240  function massUpdatePools() public {\r... */\n    tag_16:\n      tag_65\n      tag_66\n      jump\t// in\n    tag_65:\n      stop\n        /* \"@openzeppelin/contracts/access/Ownable.sol\":1771:1916  function renounceOwnership() public virtual onlyOwner {... */\n    tag_17:\n      tag_67\n      tag_68\n      jump\t// in\n    tag_67:\n      stop\n        /* \"@openzeppelin/contracts/access/Ownable.sol\":1139:1224  function owner() public view virtual returns (address) {... */\n    tag_18:\n      tag_69\n      tag_70\n      jump\t// in\n    tag_69:\n      mload(0x40)\n      dup1\n      dup3\n      0xffffffffffffffffffffffffffffffffffffffff\n      and\n      dup2\n      mstore\n      0x20\n      add\n      swap2\n      pop\n      pop\n      mload(0x40)\n      dup1\n      swap2\n      sub\n      swap1\n      return\n        /* \"contracts/distribution/TombRewardPool.sol\":1389:1453  mapping(uint256 => mapping(address => UserInfo)) public userInfo */\n    tag_19:\n      tag_71\n      0x04\n      dup1\n      calldatasize\n      sub\n      0x40\n      dup2\n      lt\n      iszero\n      tag_72\n      jumpi\n      0x00\n      dup1\n      revert\n    tag_72:\n      dup2\n      add\n      swap1\n      dup1\n      dup1\n      calldataload\n      swap1\n      0x20\n      add\n      swap1\n      swap3\n      swap2\n      swap1\n      dup1\n      calldataload\n      0xffffffffffffffffffffffffffffffffffffffff\n      and\n      swap1\n      0x20\n      add\n      swap1\n      swap3\n      swap2\n      swap1\n      pop\n      pop\n      pop\n      tag_73\n      jump\t// in\n    tag_71:\n      mload(0x40)\n      dup1\n      dup4\n      dup2\n      mstore\n      0x20\n      add\n      dup3\n      dup2\n      mstore\n      0x20\n      add\n      swap3\n      pop\n      pop\n      pop\n      mload(0x40)\n      dup1\n      swap2\n      sub\n      swap1\n      return\n        /* \"contracts/distribution/TombRewardPool.sol\":3141:4314  function add(\r... */\n    tag_20:\n      tag_74\n      0x04\n      dup1\n      calldatasize\n      sub\n      0x80\n      dup2\n      lt\n      iszero\n      tag_75\n      jumpi\n      0x00\n      dup1\n      revert\n    tag_75:\n      dup2\n      add\n      swap1\n      dup1\n      dup1\n      calldataload\n      swap1\n      0x20\n      add\n      swap1\n      swap3\n      swap2\n      swap1\n      dup1\n      calldataload\n      0xffffffffffffffffffffffffffffffffffffffff\n      and\n      swap1\n      0x20\n      add\n      swap1\n      swap3\n      swap2\n      swap1\n      dup1\n      calldataload\n      iszero\n      iszero\n      swap1\n      0x20\n      add\n      swap1\n      swap3\n      swap2\n      swap1\n      dup1\n      calldataload\n      swap1\n      0x20\n      add\n      swap1\n      swap3\n      swap2\n      swap1\n      pop\n      pop\n      pop\n      tag_76\n      jump\t// in\n    tag_74:\n      stop\n        /* \"contracts/distribution/TombRewardPool.sol\":1672:1735  uint256[] public epochTotalRewards = [80000 ether, 60000 ether] */\n    tag_21:\n      tag_77\n      0x04\n      dup1\n      calldatasize\n      sub\n      0x20\n      dup2\n      lt\n      iszero\n      tag_78\n      jumpi\n      0x00\n      dup1\n      revert\n    tag_78:\n      dup2\n      add\n      swap1\n      dup1\n      dup1\n      calldataload\n      swap1\n      0x20\n      add\n      swap1\n      swap3\n      swap2\n      swap1\n      pop\n      pop\n      pop\n      tag_79\n      jump\t// in\n    tag_77:\n      mload(0x40)\n      dup1\n      dup3\n      dup2\n      mstore\n      0x20\n      add\n      swap2\n      pop\n      pop\n      mload(0x40)\n      dup1\n      swap2\n      sub\n      swap1\n      return\n        /* \"contracts/distribution/TombRewardPool.sol\":1779:1810  uint256[3] public epochEndTimes */\n    tag_22:\n      tag_80\n      0x04\n      dup1\n      calldatasize\n      sub\n      0x20\n      dup2\n      lt\n      iszero\n      tag_81\n      jumpi\n      0x00\n      dup1\n      revert\n    tag_81:\n      dup2\n      add\n      swap1\n      dup1\n      dup1\n      calldataload\n      swap1\n      0x20\n      add\n      swap1\n      swap3\n      swap2\n      swap1\n      pop\n      pop\n      pop\n      tag_82\n      jump\t// in\n    tag_80:\n      mload(0x40)\n      dup1\n      dup3\n      dup2\n      mstore\n      0x20\n      add\n      swap2\n      pop\n      pop\n      mload(0x40)\n      dup1\n      swap2\n      sub\n      swap1\n      return\n        /* \"contracts/distribution/TombRewardPool.sol\":1251:1269  IERC20 public Poly */\n    tag_23:\n      tag_83\n      tag_84\n      jump\t// in\n    tag_83:\n      mload(0x40)\n      dup1\n      dup3\n      0xffffffffffffffffffffffffffffffffffffffff\n      and\n      dup2\n      mstore\n      0x20\n      add\n      swap2\n      pop\n      pop\n      mload(0x40)\n      dup1\n      swap2\n      sub\n      swap1\n      return\n        /* \"contracts/distribution/TombRewardPool.sol\":8259:9085  function deposit(uint256 _pid, uint256 _amount) public {\r... */\n    tag_24:\n      tag_85\n      0x04\n      dup1\n      calldatasize\n      sub\n      0x40\n      dup2\n      lt\n      iszero\n      tag_86\n      jumpi\n      0x00\n      dup1\n      revert\n    tag_86:\n      dup2\n      add\n      swap1\n      dup1\n      dup1\n      calldataload\n      swap1\n      0x20\n      add\n      swap1\n      swap3\n      swap2\n      swap1\n      dup1\n      calldataload\n      swap1\n      0x20\n      add\n      swap1\n      swap3\n      swap2\n      swap1\n      pop\n      pop\n      pop\n      tag_87\n      jump\t// in\n    tag_85:\n      stop\n        /* \"@openzeppelin/contracts/access/Ownable.sol\":2065:2305  function transferOwnership(address newOwner) public virtual onlyOwner {... */\n    tag_25:\n      tag_88\n      0x04\n      dup1\n      calldatasize\n      sub\n      0x20\n      dup2\n      lt\n      iszero\n      tag_89\n      jumpi\n      0x00\n      dup1\n      revert\n    tag_89:\n      dup2\n      add\n      swap1\n      dup1\n      dup1\n      calldataload\n      0xffffffffffffffffffffffffffffffffffffffff\n      and\n      swap1\n      0x20\n      add\n      swap1\n      swap3\n      swap2\n      swap1\n      pop\n      pop\n      pop\n      tag_90\n      jump\t// in\n    tag_88:\n      stop\n        /* \"contracts/distribution/TombRewardPool.sol\":1906:1942  uint256[3] public epochPolyPerSecond */\n    tag_26:\n      tag_91\n      0x04\n      dup1\n      calldatasize\n      sub\n      0x20\n      dup2\n      lt\n      iszero\n      tag_92\n      jumpi\n      0x00\n      dup1\n      revert\n    tag_92:\n      dup2\n      add\n      swap1\n      dup1\n      dup1\n      calldataload\n      swap1\n      0x20\n      add\n      swap1\n      swap3\n      swap2\n      swap1\n      pop\n      pop\n      pop\n      tag_93\n      jump\t// in\n    tag_91:\n      mload(0x40)\n      dup1\n      dup3\n      dup2\n      mstore\n      0x20\n      add\n      swap2\n      pop\n      pop\n      mload(0x40)\n      dup1\n      swap2\n      sub\n      swap1\n      return\n        /* \"contracts/distribution/TombRewardPool.sol\":1305:1331  PoolInfo[] public poolInfo */\n    tag_32:\n      0x03\n      dup2\n      dup2\n      sload\n      dup2\n      lt\n      tag_95\n      jumpi\n      0x00\n      dup1\n      revert\n    tag_95:\n      swap1\n      0x00\n      mstore\n      keccak256(0x00, 0x20)\n      swap1\n      0x05\n      mul\n      add\n      0x00\n      swap2\n      pop\n      swap1\n      pop\n      dup1\n      0x00\n      add\n      0x00\n      swap1\n      sload\n      swap1\n      0x0100\n      exp\n      swap1\n      div\n      0xffffffffffffffffffffffffffffffffffffffff\n      and\n      swap1\n      dup1\n      0x01\n      add\n      sload\n      swap1\n      dup1\n      0x02\n      add\n      sload\n      swap1\n      dup1\n      0x03\n      add\n      sload\n      swap1\n      dup1\n      0x04\n      add\n      0x00\n      swap1\n      sload\n      swap1\n      0x0100\n      exp\n      swap1\n      div\n      0xff\n      and\n      swap1\n      pop\n      dup6\n      jump\t// out\n        /* \"contracts/distribution/TombRewardPool.sol\":1550:1584  uint256 public totalAllocPoint = 0 */\n    tag_34:\n      sload(0x05)\n      dup2\n      jump\t// out\n        /* \"contracts/distribution/TombRewardPool.sol\":4410:4731  function set(uint256 _pid, uint256 _allocPoint) public onlyOperator {\r... */\n    tag_37:\n        /* \"contracts/owner/Operator.sol\":684:694  msg.sender */\n      caller\n        /* \"contracts/owner/Operator.sol\":671:694  _operator == msg.sender */\n      0xffffffffffffffffffffffffffffffffffffffff\n      and\n        /* \"contracts/owner/Operator.sol\":671:680  _operator */\n      0x01\n      0x00\n      swap1\n      sload\n      swap1\n      0x0100\n      exp\n      swap1\n      div\n      0xffffffffffffffffffffffffffffffffffffffff\n      and\n        /* \"contracts/owner/Operator.sol\":671:694  _operator == msg.sender */\n      0xffffffffffffffffffffffffffffffffffffffff\n      and\n      eq\n        /* \"contracts/owner/Operator.sol\":649:758  require(\r... */\n      tag_98\n      jumpi\n      mload(0x40)\n      0x08c379a000000000000000000000000000000000000000000000000000000000\n      dup2\n      mstore\n      0x04\n      add\n      dup1\n      dup1\n      0x20\n      add\n      dup3\n      dup2\n      sub\n      dup3\n      mstore\n      0x24\n      dup2\n      mstore\n      0x20\n      add\n      dup1\n      data_a62bfdba5053072911b63b0f6325b0e83fcd28b5a847d97efdd966feb4daaafb\n      0x24\n      swap2\n      codecopy\n      0x40\n      add\n      swap2\n      pop\n      pop\n      mload(0x40)\n      dup1\n      swap2\n      sub\n      swap1\n      revert\n    tag_98:\n        /* \"contracts/distribution/TombRewardPool.sol\":4489:4506  massUpdatePools() */\n      tag_100\n        /* \"contracts/distribution/TombRewardPool.sol\":4489:4504  massUpdatePools */\n      tag_66\n        /* \"contracts/distribution/TombRewardPool.sol\":4489:4506  massUpdatePools() */\n      jump\t// in\n    tag_100:\n        /* \"contracts/distribution/TombRewardPool.sol\":4517:4538  PoolInfo storage pool */\n      0x00\n        /* \"contracts/distribution/TombRewardPool.sol\":4541:4549  poolInfo */\n      0x03\n        /* \"contracts/distribution/TombRewardPool.sol\":4550:4554  _pid */\n      dup4\n        /* \"contracts/distribution/TombRewardPool.sol\":4541:4555  poolInfo[_pid] */\n      dup2\n      sload\n      dup2\n      lt\n      tag_101\n      jumpi\n      invalid\n    tag_101:\n      swap1\n      0x00\n      mstore\n      keccak256(0x00, 0x20)\n      swap1\n      0x05\n      mul\n      add\n        /* \"contracts/distribution/TombRewardPool.sol\":4517:4555  PoolInfo storage pool = poolInfo[_pid] */\n      swap1\n      pop\n        /* \"contracts/distribution/TombRewardPool.sol\":4570:4574  pool */\n      dup1\n        /* \"contracts/distribution/TombRewardPool.sol\":4570:4584  pool.isStarted */\n      0x04\n      add\n      0x00\n      swap1\n      sload\n      swap1\n      0x0100\n      exp\n      swap1\n      div\n      0xff\n      and\n        /* \"contracts/distribution/TombRewardPool.sol\":4566:4684  if (pool.isStarted) {\r... */\n      iszero\n      tag_103\n      jumpi\n        /* \"contracts/distribution/TombRewardPool.sol\":4619:4672  totalAllocPoint.sub(pool.allocPoint).add(_allocPoint) */\n      tag_104\n        /* \"contracts/distribution/TombRewardPool.sol\":4660:4671  _allocPoint */\n      dup3\n        /* \"contracts/distribution/TombRewardPool.sol\":4619:4655  totalAllocPoint.sub(pool.allocPoint) */\n      tag_105\n        /* \"contracts/distribution/TombRewardPool.sol\":4639:4643  pool */\n      dup4\n        /* \"contracts/distribution/TombRewardPool.sol\":4639:4654  pool.allocPoint */\n      0x01\n      add\n      sload\n        /* \"contracts/distribution/TombRewardPool.sol\":4619:4634  totalAllocPoint */\n      sload(0x05)\n        /* \"contracts/distribution/TombRewardPool.sol\":4619:4638  totalAllocPoint.sub */\n      tag_106\n      swap1\n        /* \"contracts/distribution/TombRewardPool.sol\":4619:4655  totalAllocPoint.sub(pool.allocPoint) */\n      swap2\n      swap1\n      0xffffffff\n      and\n      jump\t// in\n    tag_105:\n        /* \"contracts/distribution/TombRewardPool.sol\":4619:4659  totalAllocPoint.sub(pool.allocPoint).add */\n      tag_107\n      swap1\n        /* \"contracts/distribution/TombRewardPool.sol\":4619:4672  totalAllocPoint.sub(pool.allocPoint).add(_allocPoint) */\n      swap2\n      swap1\n      0xffffffff\n      and\n      jump\t// in\n    tag_104:\n        /* \"contracts/distribution/TombRewardPool.sol\":4601:4616  totalAllocPoint */\n      0x05\n        /* \"contracts/distribution/TombRewardPool.sol\":4601:4672  totalAllocPoint = totalAllocPoint.sub(pool.allocPoint).add(_allocPoint) */\n      dup2\n      swap1\n      sstore\n      pop\n        /* \"contracts/distribution/TombRewardPool.sol\":4566:4684  if (pool.isStarted) {\r... */\n    tag_103:\n        /* \"contracts/distribution/TombRewardPool.sol\":4712:4723  _allocPoint */\n      dup2\n        /* \"contracts/distribution/TombRewardPool.sol\":4694:4698  pool */\n      dup2\n        /* \"contracts/distribution/TombRewardPool.sol\":4694:4709  pool.allocPoint */\n      0x01\n      add\n        /* \"contracts/distribution/TombRewardPool.sol\":4694:4723  pool.allocPoint = _allocPoint */\n      dup2\n      swap1\n      sstore\n      pop\n        /* \"contracts/owner/Operator.sol\":769:770  _ */\n      pop\n        /* \"contracts/distribution/TombRewardPool.sol\":4410:4731  function set(uint256 _pid, uint256 _allocPoint) public onlyOperator {\r... */\n      pop\n      pop\n      jump\t// out\n        /* \"contracts/distribution/TombRewardPool.sol\":4810:6142  function getGeneratedReward(uint256 _fromTime, uint256 _toTime) public view returns (uint256) {\r... */\n    tag_40:\n        /* \"contracts/distribution/TombRewardPool.sol\":4895:4902  uint256 */\n      0x00\n        /* \"contracts/distribution/TombRewardPool.sol\":4920:4933  uint8 epochId */\n      dup1\n        /* \"contracts/distribution/TombRewardPool.sol\":4936:4937  2 */\n      0x02\n        /* \"contracts/distribution/TombRewardPool.sol\":4920:4937  uint8 epochId = 2 */\n      swap1\n      pop\n        /* \"contracts/distribution/TombRewardPool.sol\":4915:6068  for (uint8 epochId = 2; epochId >= 1; --epochId) {\r... */\n    tag_109:\n        /* \"contracts/distribution/TombRewardPool.sol\":4950:4951  1 */\n      0x01\n        /* \"contracts/distribution/TombRewardPool.sol\":4939:4946  epochId */\n      dup2\n        /* \"contracts/distribution/TombRewardPool.sol\":4939:4951  epochId >= 1 */\n      0xff\n      and\n      lt\n        /* \"contracts/distribution/TombRewardPool.sol\":4915:6068  for (uint8 epochId = 2; epochId >= 1; --epochId) {\r... */\n      tag_110\n      jumpi\n        /* \"contracts/distribution/TombRewardPool.sol\":4994:5007  epochEndTimes */\n      0x08\n        /* \"contracts/distribution/TombRewardPool.sol\":5018:5019  1 */\n      0x01\n        /* \"contracts/distribution/TombRewardPool.sol\":5008:5015  epochId */\n      dup3\n        /* \"contracts/distribution/TombRewardPool.sol\":5008:5019  epochId - 1 */\n      sub\n        /* \"contracts/distribution/TombRewardPool.sol\":4994:5020  epochEndTimes[epochId - 1] */\n      0xff\n      and\n      0x03\n      dup2\n      lt\n      tag_112\n      jumpi\n      invalid\n    tag_112:\n      add\n      sload\n        /* \"contracts/distribution/TombRewardPool.sol\":4983:4990  _toTime */\n      dup4\n        /* \"contracts/distribution/TombRewardPool.sol\":4983:5020  _toTime >= epochEndTimes[epochId - 1] */\n      lt\n        /* \"contracts/distribution/TombRewardPool.sol\":4979:6057  if (_toTime >= epochEndTimes[epochId - 1]) {\r... */\n      tag_114\n      jumpi\n        /* \"contracts/distribution/TombRewardPool.sol\":5058:5071  epochEndTimes */\n      0x08\n        /* \"contracts/distribution/TombRewardPool.sol\":5082:5083  1 */\n      0x01\n        /* \"contracts/distribution/TombRewardPool.sol\":5072:5079  epochId */\n      dup3\n        /* \"contracts/distribution/TombRewardPool.sol\":5072:5083  epochId - 1 */\n      sub\n        /* \"contracts/distribution/TombRewardPool.sol\":5058:5084  epochEndTimes[epochId - 1] */\n      0xff\n      and\n      0x03\n      dup2\n      lt\n      tag_115\n      jumpi\n      invalid\n    tag_115:\n      add\n      sload\n        /* \"contracts/distribution/TombRewardPool.sol\":5045:5054  _fromTime */\n      dup5\n        /* \"contracts/distribution/TombRewardPool.sol\":5045:5084  _fromTime >= epochEndTimes[epochId - 1] */\n      lt\n        /* \"contracts/distribution/TombRewardPool.sol\":5041:5191  if (_fromTime >= epochEndTimes[epochId - 1]) {\r... */\n      tag_117\n      jumpi\n        /* \"contracts/distribution/TombRewardPool.sol\":5116:5171  _toTime.sub(_fromTime).mul(epochPolyPerSecond[epochId]) */\n      tag_118\n        /* \"contracts/distribution/TombRewardPool.sol\":5143:5161  epochPolyPerSecond */\n      0x0b\n        /* \"contracts/distribution/TombRewardPool.sol\":5162:5169  epochId */\n      dup3\n        /* \"contracts/distribution/TombRewardPool.sol\":5143:5170  epochPolyPerSecond[epochId] */\n      0xff\n      and\n      0x03\n      dup2\n      lt\n      tag_119\n      jumpi\n      invalid\n    tag_119:\n      add\n      sload\n        /* \"contracts/distribution/TombRewardPool.sol\":5116:5138  _toTime.sub(_fromTime) */\n      tag_121\n        /* \"contracts/distribution/TombRewardPool.sol\":5128:5137  _fromTime */\n      dup7\n        /* \"contracts/distribution/TombRewardPool.sol\":5116:5123  _toTime */\n      dup7\n        /* \"contracts/distribution/TombRewardPool.sol\":5116:5127  _toTime.sub */\n      tag_106\n      swap1\n        /* \"contracts/distribution/TombRewardPool.sol\":5116:5138  _toTime.sub(_fromTime) */\n      swap2\n      swap1\n      0xffffffff\n      and\n      jump\t// in\n    tag_121:\n        /* \"contracts/distribution/TombRewardPool.sol\":5116:5142  _toTime.sub(_fromTime).mul */\n      tag_122\n      swap1\n        /* \"contracts/distribution/TombRewardPool.sol\":5116:5171  _toTime.sub(_fromTime).mul(epochPolyPerSecond[epochId]) */\n      swap2\n      swap1\n      0xffffffff\n      and\n      jump\t// in\n    tag_118:\n        /* \"contracts/distribution/TombRewardPool.sol\":5109:5171  return _toTime.sub(_fromTime).mul(epochPolyPerSecond[epochId]) */\n      swap2\n      pop\n      pop\n      jump(tag_108)\n        /* \"contracts/distribution/TombRewardPool.sol\":5041:5191  if (_fromTime >= epochEndTimes[epochId - 1]) {\r... */\n    tag_117:\n        /* \"contracts/distribution/TombRewardPool.sol\":5211:5235  uint256 _generatedReward */\n      0x00\n        /* \"contracts/distribution/TombRewardPool.sol\":5238:5310  _toTime.sub(epochEndTimes[epochId - 1]).mul(epochPolyPerSecond[epochId]) */\n      tag_123\n        /* \"contracts/distribution/TombRewardPool.sol\":5282:5300  epochPolyPerSecond */\n      0x0b\n        /* \"contracts/distribution/TombRewardPool.sol\":5301:5308  epochId */\n      dup4\n        /* \"contracts/distribution/TombRewardPool.sol\":5282:5309  epochPolyPerSecond[epochId] */\n      0xff\n      and\n      0x03\n      dup2\n      lt\n      tag_124\n      jumpi\n      invalid\n    tag_124:\n      add\n      sload\n        /* \"contracts/distribution/TombRewardPool.sol\":5238:5277  _toTime.sub(epochEndTimes[epochId - 1]) */\n      tag_126\n        /* \"contracts/distribution/TombRewardPool.sol\":5250:5263  epochEndTimes */\n      0x08\n        /* \"contracts/distribution/TombRewardPool.sol\":5274:5275  1 */\n      0x01\n        /* \"contracts/distribution/TombRewardPool.sol\":5264:5271  epochId */\n      dup7\n        /* \"contracts/distribution/TombRewardPool.sol\":5264:5275  epochId - 1 */\n      sub\n        /* \"contracts/distribution/TombRewardPool.sol\":5250:5276  epochEndTimes[epochId - 1] */\n      0xff\n      and\n      0x03\n      dup2\n      lt\n      tag_127\n      jumpi\n      invalid\n    tag_127:\n      add\n      sload\n        /* \"contracts/distribution/TombRewardPool.sol\":5238:5245  _toTime */\n      dup8\n        /* \"contracts/distribution/TombRewardPool.sol\":5238:5249  _toTime.sub */\n      tag_106\n      swap1\n        /* \"contracts/distribution/TombRewardPool.sol\":5238:5277  _toTime.sub(epochEndTimes[epochId - 1]) */\n      swap2\n      swap1\n      0xffffffff\n      and\n      jump\t// in\n    tag_126:\n        /* \"contracts/distribution/TombRewardPool.sol\":5238:5281  _toTime.sub(epochEndTimes[epochId - 1]).mul */\n      tag_122\n      swap1\n        /* \"contracts/distribution/TombRewardPool.sol\":5238:5310  _toTime.sub(epochEndTimes[epochId - 1]).mul(epochPolyPerSecond[epochId]) */\n      swap2\n      swap1\n      0xffffffff\n      and\n      jump\t// in\n    tag_123:\n        /* \"contracts/distribution/TombRewardPool.sol\":5211:5310  uint256 _generatedReward = _toTime.sub(epochEndTimes[epochId - 1]).mul(epochPolyPerSecond[epochId]) */\n      swap1\n      pop\n        /* \"contracts/distribution/TombRewardPool.sol\":5344:5345  1 */\n      0x01\n        /* \"contracts/distribution/TombRewardPool.sol\":5333:5340  epochId */\n      dup3\n        /* \"contracts/distribution/TombRewardPool.sol\":5333:5345  epochId == 1 */\n      0xff\n      and\n      eq\n        /* \"contracts/distribution/TombRewardPool.sol\":5329:5477  if (epochId == 1) {\r... */\n      iszero\n      tag_129\n      jumpi\n        /* \"contracts/distribution/TombRewardPool.sol\":5377:5457  _generatedReward.add(epochEndTimes[0].sub(_fromTime).mul(epochPolyPerSecond[0])) */\n      tag_130\n        /* \"contracts/distribution/TombRewardPool.sol\":5398:5456  epochEndTimes[0].sub(_fromTime).mul(epochPolyPerSecond[0]) */\n      tag_131\n        /* \"contracts/distribution/TombRewardPool.sol\":5434:5452  epochPolyPerSecond */\n      0x0b\n        /* \"contracts/distribution/TombRewardPool.sol\":5453:5454  0 */\n      0x00\n        /* \"contracts/distribution/TombRewardPool.sol\":5434:5455  epochPolyPerSecond[0] */\n      0x03\n      dup2\n      lt\n      tag_132\n      jumpi\n      invalid\n    tag_132:\n      add\n      sload\n        /* \"contracts/distribution/TombRewardPool.sol\":5398:5429  epochEndTimes[0].sub(_fromTime) */\n      tag_134\n        /* \"contracts/distribution/TombRewardPool.sol\":5419:5428  _fromTime */\n      dup9\n        /* \"contracts/distribution/TombRewardPool.sol\":5398:5411  epochEndTimes */\n      0x08\n        /* \"contracts/distribution/TombRewardPool.sol\":5412:5413  0 */\n      0x00\n        /* \"contracts/distribution/TombRewardPool.sol\":5398:5414  epochEndTimes[0] */\n      0x03\n      dup2\n      lt\n      tag_135\n      jumpi\n      invalid\n    tag_135:\n      add\n      sload\n        /* \"contracts/distribution/TombRewardPool.sol\":5398:5418  epochEndTimes[0].sub */\n      tag_106\n      swap1\n        /* \"contracts/distribution/TombRewardPool.sol\":5398:5429  epochEndTimes[0].sub(_fromTime) */\n      swap2\n      swap1\n      0xffffffff\n      and\n      jump\t// in\n    tag_134:\n        /* \"contracts/distribution/TombRewardPool.sol\":5398:5433  epochEndTimes[0].sub(_fromTime).mul */\n      tag_122\n      swap1\n        /* \"contracts/distribution/TombRewardPool.sol\":5398:5456  epochEndTimes[0].sub(_fromTime).mul(epochPolyPerSecond[0]) */\n      swap2\n      swap1\n      0xffffffff\n      and\n      jump\t// in\n    tag_131:\n        /* \"contracts/distribution/TombRewardPool.sol\":5377:5393  _generatedReward */\n      dup3\n        /* \"contracts/distribution/TombRewardPool.sol\":5377:5397  _generatedReward.add */\n      tag_107\n      swap1\n        /* \"contracts/distribution/TombRewardPool.sol\":5377:5457  _generatedReward.add(epochEndTimes[0].sub(_fromTime).mul(epochPolyPerSecond[0])) */\n      swap2\n      swap1\n      0xffffffff\n      and\n      jump\t// in\n    tag_130:\n        /* \"contracts/distribution/TombRewardPool.sol\":5370:5457  return _generatedReward.add(epochEndTimes[0].sub(_fromTime).mul(epochPolyPerSecond[0])) */\n      swap3\n      pop\n      pop\n      pop\n      jump(tag_108)\n        /* \"contracts/distribution/TombRewardPool.sol\":5329:5477  if (epochId == 1) {\r... */\n    tag_129:\n        /* \"contracts/distribution/TombRewardPool.sol\":5520:5521  1 */\n      0x01\n        /* \"contracts/distribution/TombRewardPool.sol\":5510:5517  epochId */\n      dup3\n        /* \"contracts/distribution/TombRewardPool.sol\":5510:5521  epochId - 1 */\n      sub\n        /* \"contracts/distribution/TombRewardPool.sol\":5500:5521  epochId = epochId - 1 */\n      swap2\n      pop\n        /* \"contracts/distribution/TombRewardPool.sol\":5495:5936  for (epochId = epochId - 1; epochId >= 1; --epochId) {\r... */\n    tag_137:\n        /* \"contracts/distribution/TombRewardPool.sol\":5534:5535  1 */\n      0x01\n        /* \"contracts/distribution/TombRewardPool.sol\":5523:5530  epochId */\n      dup3\n        /* \"contracts/distribution/TombRewardPool.sol\":5523:5535  epochId >= 1 */\n      0xff\n      and\n      lt\n        /* \"contracts/distribution/TombRewardPool.sol\":5495:5936  for (epochId = epochId - 1; epochId >= 1; --epochId) {\r... */\n      tag_138\n      jumpi\n        /* \"contracts/distribution/TombRewardPool.sol\":5588:5601  epochEndTimes */\n      0x08\n        /* \"contracts/distribution/TombRewardPool.sol\":5612:5613  1 */\n      0x01\n        /* \"contracts/distribution/TombRewardPool.sol\":5602:5609  epochId */\n      dup4\n        /* \"contracts/distribution/TombRewardPool.sol\":5602:5613  epochId - 1 */\n      sub\n        /* \"contracts/distribution/TombRewardPool.sol\":5588:5614  epochEndTimes[epochId - 1] */\n      0xff\n      and\n      0x03\n      dup2\n      lt\n      tag_140\n      jumpi\n      invalid\n    tag_140:\n      add\n      sload\n        /* \"contracts/distribution/TombRewardPool.sol\":5575:5584  _fromTime */\n      dup6\n        /* \"contracts/distribution/TombRewardPool.sol\":5575:5614  _fromTime >= epochEndTimes[epochId - 1] */\n      lt\n        /* \"contracts/distribution/TombRewardPool.sol\":5571:5766  if (_fromTime >= epochEndTimes[epochId - 1]) {\r... */\n      tag_142\n      jumpi\n        /* \"contracts/distribution/TombRewardPool.sol\":5650:5742  _generatedReward.add(epochEndTimes[epochId].sub(_fromTime).mul(epochPolyPerSecond[epochId])) */\n      tag_143\n        /* \"contracts/distribution/TombRewardPool.sol\":5671:5741  epochEndTimes[epochId].sub(_fromTime).mul(epochPolyPerSecond[epochId]) */\n      tag_144\n        /* \"contracts/distribution/TombRewardPool.sol\":5713:5731  epochPolyPerSecond */\n      0x0b\n        /* \"contracts/distribution/TombRewardPool.sol\":5732:5739  epochId */\n      dup5\n        /* \"contracts/distribution/TombRewardPool.sol\":5713:5740  epochPolyPerSecond[epochId] */\n      0xff\n      and\n      0x03\n      dup2\n      lt\n      tag_145\n      jumpi\n      invalid\n    tag_145:\n      add\n      sload\n        /* \"contracts/distribution/TombRewardPool.sol\":5671:5708  epochEndTimes[epochId].sub(_fromTime) */\n      tag_147\n        /* \"contracts/distribution/TombRewardPool.sol\":5698:5707  _fromTime */\n      dup9\n        /* \"contracts/distribution/TombRewardPool.sol\":5671:5684  epochEndTimes */\n      0x08\n        /* \"contracts/distribution/TombRewardPool.sol\":5685:5692  epochId */\n      dup8\n        /* \"contracts/distribution/TombRewardPool.sol\":5671:5693  epochEndTimes[epochId] */\n      0xff\n      and\n      0x03\n      dup2\n      lt\n      tag_148\n      jumpi\n      invalid\n    tag_148:\n      add\n      sload\n        /* \"contracts/distribution/TombRewardPool.sol\":5671:5697  epochEndTimes[epochId].sub */\n      tag_106\n      swap1\n        /* \"contracts/distribution/TombRewardPool.sol\":5671:5708  epochEndTimes[epochId].sub(_fromTime) */\n      swap2\n      swap1\n      0xffffffff\n      and\n      jump\t// in\n    tag_147:\n        /* \"contracts/distribution/TombRewardPool.sol\":5671:5712  epochEndTimes[epochId].sub(_fromTime).mul */\n      tag_122\n      swap1\n        /* \"contracts/distribution/TombRewardPool.sol\":5671:5741  epochEndTimes[epochId].sub(_fromTime).mul(epochPolyPerSecond[epochId]) */\n      swap2\n      swap1\n      0xffffffff\n      and\n      jump\t// in\n    tag_144:\n        /* \"contracts/distribution/TombRewardPool.sol\":5650:5666  _generatedReward */\n      dup3\n        /* \"contracts/distribution/TombRewardPool.sol\":5650:5670  _generatedReward.add */\n      tag_107\n      swap1\n        /* \"contracts/distribution/TombRewardPool.sol\":5650:5742  _generatedReward.add(epochEndTimes[epochId].sub(_fromTime).mul(epochPolyPerSecond[epochId])) */\n      swap2\n      swap1\n      0xffffffff\n      and\n      jump\t// in\n    tag_143:\n        /* \"contracts/distribution/TombRewardPool.sol\":5643:5742  return _generatedReward.add(epochEndTimes[epochId].sub(_fromTime).mul(epochPolyPerSecond[epochId])) */\n      swap3\n      pop\n      pop\n      pop\n      jump(tag_108)\n        /* \"contracts/distribution/TombRewardPool.sol\":5571:5766  if (_fromTime >= epochEndTimes[epochId - 1]) {\r... */\n    tag_142:\n        /* \"contracts/distribution/TombRewardPool.sol\":5807:5916  _generatedReward.add(epochEndTimes[epochId].sub(epochEndTimes[epochId - 1]).mul(epochPolyPerSecond[epochId])) */\n      tag_150\n        /* \"contracts/distribution/TombRewardPool.sol\":5828:5915  epochEndTimes[epochId].sub(epochEndTimes[epochId - 1]).mul(epochPolyPerSecond[epochId]) */\n      tag_151\n        /* \"contracts/distribution/TombRewardPool.sol\":5887:5905  epochPolyPerSecond */\n      0x0b\n        /* \"contracts/distribution/TombRewardPool.sol\":5906:5913  epochId */\n      dup5\n        /* \"contracts/distribution/TombRewardPool.sol\":5887:5914  epochPolyPerSecond[epochId] */\n      0xff\n      and\n      0x03\n      dup2\n      lt\n      tag_152\n      jumpi\n      invalid\n    tag_152:\n      add\n      sload\n        /* \"contracts/distribution/TombRewardPool.sol\":5828:5882  epochEndTimes[epochId].sub(epochEndTimes[epochId - 1]) */\n      tag_154\n        /* \"contracts/distribution/TombRewardPool.sol\":5855:5868  epochEndTimes */\n      0x08\n        /* \"contracts/distribution/TombRewardPool.sol\":5879:5880  1 */\n      0x01\n        /* \"contracts/distribution/TombRewardPool.sol\":5869:5876  epochId */\n      dup8\n        /* \"contracts/distribution/TombRewardPool.sol\":5869:5880  epochId - 1 */\n      sub\n        /* \"contracts/distribution/TombRewardPool.sol\":5855:5881  epochEndTimes[epochId - 1] */\n      0xff\n      and\n      0x03\n      dup2\n      lt\n      tag_155\n      jumpi\n      invalid\n    tag_155:\n      add\n      sload\n        /* \"contracts/distribution/TombRewardPool.sol\":5828:5841  epochEndTimes */\n      0x08\n        /* \"contracts/distribution/TombRewardPool.sol\":5842:5849  epochId */\n      dup8\n        /* \"contracts/distribution/TombRewardPool.sol\":5828:5850  epochEndTimes[epochId] */\n      0xff\n      and\n      0x03\n      dup2\n      lt\n      tag_157\n      jumpi\n      invalid\n    tag_157:\n      add\n      sload\n        /* \"contracts/distribution/TombRewardPool.sol\":5828:5854  epochEndTimes[epochId].sub */\n      tag_106\n      swap1\n        /* \"contracts/distribution/TombRewardPool.sol\":5828:5882  epochEndTimes[epochId].sub(epochEndTimes[epochId - 1]) */\n      swap2\n      swap1\n      0xffffffff\n      and\n      jump\t// in\n    tag_154:\n        /* \"contracts/distribution/TombRewardPool.sol\":5828:5886  epochEndTimes[epochId].sub(epochEndTimes[epochId - 1]).mul */\n      tag_122\n      swap1\n        /* \"contracts/distribution/TombRewardPool.sol\":5828:5915  epochEndTimes[epochId].sub(epochEndTimes[epochId - 1]).mul(epochPolyPerSecond[epochId]) */\n      swap2\n      swap1\n      0xffffffff\n      and\n      jump\t// in\n    tag_151:\n        /* \"contracts/distribution/TombRewardPool.sol\":5807:5823  _generatedReward */\n      dup3\n        /* \"contracts/distribution/TombRewardPool.sol\":5807:5827  _generatedReward.add */\n      tag_107\n      swap1\n        /* \"contracts/distribution/TombRewardPool.sol\":5807:5916  _generatedReward.add(epochEndTimes[epochId].sub(epochEndTimes[epochId - 1]).mul(epochPolyPerSecond[epochId])) */\n      swap2\n      swap1\n      0xffffffff\n      and\n      jump\t// in\n    tag_150:\n        /* \"contracts/distribution/TombRewardPool.sol\":5788:5916  _generatedReward = _generatedReward.add(epochEndTimes[epochId].sub(epochEndTimes[epochId - 1]).mul(epochPolyPerSecond[epochId])) */\n      swap1\n      pop\n        /* \"contracts/distribution/TombRewardPool.sol\":5537:5546  --epochId */\n      dup2\n      0x01\n      swap1\n      sub\n      swap2\n      pop\n        /* \"contracts/distribution/TombRewardPool.sol\":5495:5936  for (epochId = epochId - 1; epochId >= 1; --epochId) {\r... */\n      jump(tag_137)\n    tag_138:\n        /* \"contracts/distribution/TombRewardPool.sol\":5961:6041  _generatedReward.add(epochEndTimes[0].sub(_fromTime).mul(epochPolyPerSecond[0])) */\n      tag_159\n        /* \"contracts/distribution/TombRewardPool.sol\":5982:6040  epochEndTimes[0].sub(_fromTime).mul(epochPolyPerSecond[0]) */\n      tag_160\n        /* \"contracts/distribution/TombRewardPool.sol\":6018:6036  epochPolyPerSecond */\n      0x0b\n        /* \"contracts/distribution/TombRewardPool.sol\":6037:6038  0 */\n      0x00\n        /* \"contracts/distribution/TombRewardPool.sol\":6018:6039  epochPolyPerSecond[0] */\n      0x03\n      dup2\n      lt\n      tag_161\n      jumpi\n      invalid\n    tag_161:\n      add\n      sload\n        /* \"contracts/distribution/TombRewardPool.sol\":5982:6013  epochEndTimes[0].sub(_fromTime) */\n      tag_163\n        /* \"contracts/distribution/TombRewardPool.sol\":6003:6012  _fromTime */\n      dup9\n        /* \"contracts/distribution/TombRewardPool.sol\":5982:5995  epochEndTimes */\n      0x08\n        /* \"contracts/distribution/TombRewardPool.sol\":5996:5997  0 */\n      0x00\n        /* \"contracts/distribution/TombRewardPool.sol\":5982:5998  epochEndTimes[0] */\n      0x03\n      dup2\n      lt\n      tag_164\n      jumpi\n      invalid\n    tag_164:\n      add\n      sload\n        /* \"contracts/distribution/TombRewardPool.sol\":5982:6002  epochEndTimes[0].sub */\n      tag_106\n      swap1\n        /* \"contracts/distribution/TombRewardPool.sol\":5982:6013  epochEndTimes[0].sub(_fromTime) */\n      swap2\n      swap1\n      0xffffffff\n      and\n      jump\t// in\n    tag_163:\n        /* \"contracts/distribution/TombRewardPool.sol\":5982:6017  epochEndTimes[0].sub(_fromTime).mul */\n      tag_122\n      swap1\n        /* \"contracts/distribution/TombRewardPool.sol\":5982:6040  epochEndTimes[0].sub(_fromTime).mul(epochPolyPerSecond[0]) */\n      swap2\n      swap1\n      0xffffffff\n      and\n      jump\t// in\n    tag_160:\n        /* \"contracts/distribution/TombRewardPool.sol\":5961:5977  _generatedReward */\n      dup3\n        /* \"contracts/distribution/TombRewardPool.sol\":5961:5981  _generatedReward.add */\n      tag_107\n      swap1\n        /* \"contracts/distribution/TombRewardPool.sol\":5961:6041  _generatedReward.add(epochEndTimes[0].sub(_fromTime).mul(epochPolyPerSecond[0])) */\n      swap2\n      swap1\n      0xffffffff\n      and\n      jump\t// in\n    tag_159:\n        /* \"contracts/distribution/TombRewardPool.sol\":5954:6041  return _generatedReward.add(epochEndTimes[0].sub(_fromTime).mul(epochPolyPerSecond[0])) */\n      swap3\n      pop\n      pop\n      pop\n      jump(tag_108)\n        /* \"contracts/distribution/TombRewardPool.sol\":4979:6057  if (_toTime >= epochEndTimes[epochId - 1]) {\r... */\n    tag_114:\n        /* \"contracts/distribution/TombRewardPool.sol\":4953:4962  --epochId */\n      dup1\n      0x01\n      swap1\n      sub\n      swap1\n      pop\n        /* \"contracts/distribution/TombRewardPool.sol\":4915:6068  for (uint8 epochId = 2; epochId >= 1; --epochId) {\r... */\n      jump(tag_109)\n    tag_110:\n      pop\n        /* \"contracts/distribution/TombRewardPool.sol\":6085:6134  _toTime.sub(_fromTime).mul(epochPolyPerSecond[0]) */\n      tag_166\n        /* \"contracts/distribution/TombRewardPool.sol\":6112:6130  epochPolyPerSecond */\n      0x0b\n        /* \"contracts/distribution/TombRewardPool.sol\":6131:6132  0 */\n      0x00\n        /* \"contracts/distribution/TombRewardPool.sol\":6112:6133  epochPolyPerSecond[0] */\n      0x03\n      dup2\n      lt\n      tag_167\n      jumpi\n      invalid\n    tag_167:\n      add\n      sload\n        /* \"contracts/distribution/TombRewardPool.sol\":6085:6107  _toTime.sub(_fromTime) */\n      tag_169\n        /* \"contracts/distribution/TombRewardPool.sol\":6097:6106  _fromTime */\n      dup6\n        /* \"contracts/distribution/TombRewardPool.sol\":6085:6092  _toTime */\n      dup6\n        /* \"contracts/distribution/TombRewardPool.sol\":6085:6096  _toTime.sub */\n      tag_106\n      swap1\n        /* \"contracts/distribution/TombRewardPool.sol\":6085:6107  _toTime.sub(_fromTime) */\n      swap2\n      swap1\n      0xffffffff\n      and\n      jump\t// in\n    tag_169:\n        /* \"contracts/distribution/TombRewardPool.sol\":6085:6111  _toTime.sub(_fromTime).mul */\n      tag_122\n      swap1\n        /* \"contracts/distribution/TombRewardPool.sol\":6085:6134  _toTime.sub(_fromTime).mul(epochPolyPerSecond[0]) */\n      swap2\n      swap1\n      0xffffffff\n      and\n      jump\t// in\n    tag_166:\n        /* \"contracts/distribution/TombRewardPool.sol\":6078:6134  return _toTime.sub(_fromTime).mul(epochPolyPerSecond[0]) */\n      swap1\n      pop\n        /* \"contracts/distribution/TombRewardPool.sol\":4810:6142  function getGeneratedReward(uint256 _fromTime, uint256 _toTime) public view returns (uint256) {\r... */\n    tag_108:\n      swap3\n      swap2\n      pop\n      pop\n      jump\t// out\n        /* \"contracts/owner/Operator.sol\":894:1009  function transferOperator(address newOperator_) public onlyOwner {\r... */\n    tag_43:\n        /* \"@openzeppelin/contracts/access/Ownable.sol\":1362:1374  _msgSender() */\n      tag_171\n        /* \"@openzeppelin/contracts/access/Ownable.sol\":1362:1372  _msgSender */\n      tag_172\n        /* \"@openzeppelin/contracts/access/Ownable.sol\":1362:1374  _msgSender() */\n      jump\t// in\n    tag_171:\n        /* \"@openzeppelin/contracts/access/Ownable.sol\":1351:1374  owner() == _msgSender() */\n      0xffffffffffffffffffffffffffffffffffffffff\n      and\n        /* \"@openzeppelin/contracts/access/Ownable.sol\":1351:1358  owner() */\n      tag_173\n        /* \"@openzeppelin/contracts/access/Ownable.sol\":1351:1356  owner */\n      tag_70\n        /* \"@openzeppelin/contracts/access/Ownable.sol\":1351:1358  owner() */\n      jump\t// in\n    tag_173:\n        /* \"@openzeppelin/contracts/access/Ownable.sol\":1351:1374  owner() == _msgSender() */\n      0xffffffffffffffffffffffffffffffffffffffff\n      and\n      eq\n        /* \"@openzeppelin/contracts/access/Ownable.sol\":1343:1411  require(owner() == _msgSender(), \"Ownable: caller is not the owner\") */\n      tag_174\n      jumpi\n      mload(0x40)\n      0x08c379a000000000000000000000000000000000000000000000000000000000\n      dup2\n      mstore\n      0x04\n      add\n      dup1\n      dup1\n      0x20\n      add\n      dup3\n      dup2\n      sub\n      dup3\n      mstore\n      0x20\n      dup2\n      mstore\n      0x20\n      add\n      dup1\n      0x4f776e61626c653a2063616c6c6572206973206e6f7420746865206f776e6572\n      dup2\n      mstore\n      pop\n      0x20\n      add\n      swap2\n      pop\n      pop\n      mload(0x40)\n      dup1\n      swap2\n      sub\n      swap1\n      revert\n    tag_174:\n        /* \"contracts/owner/Operator.sol\":970:1001  _transferOperator(newOperator_) */\n      tag_176\n        /* \"contracts/owner/Operator.sol\":988:1000  newOperator_ */\n      dup2\n        /* \"contracts/owner/Operator.sol\":970:987  _transferOperator */\n      tag_177\n        /* \"contracts/owner/Operator.sol\":970:1001  _transferOperator(newOperator_) */\n      jump\t// in\n    tag_176:\n        /* \"contracts/owner/Operator.sol\":894:1009  function transferOperator(address newOperator_) public onlyOwner {\r... */\n      pop\n      jump\t// out\n        /* \"contracts/distribution/TombRewardPool.sol\":9121:9931  function withdraw(uint256 _pid, uint256 _amount) public {\r... */\n    tag_46:\n        /* \"contracts/distribution/TombRewardPool.sol\":9188:9203  address _sender */\n      0x00\n        /* \"contracts/distribution/TombRewardPool.sol\":9206:9216  msg.sender */\n      caller\n        /* \"contracts/distribution/TombRewardPool.sol\":9188:9216  address _sender = msg.sender */\n      swap1\n      pop\n        /* \"contracts/distribution/TombRewardPool.sol\":9227:9248  PoolInfo storage pool */\n      0x00\n        /* \"contracts/distribution/TombRewardPool.sol\":9251:9259  poolInfo */\n      0x03\n        /* \"contracts/distribution/TombRewardPool.sol\":9260:9264  _pid */\n      dup5\n        /* \"contracts/distribution/TombRewardPool.sol\":9251:9265  poolInfo[_pid] */\n      dup2\n      sload\n      dup2\n      lt\n      tag_179\n      jumpi\n      invalid\n    tag_179:\n      swap1\n      0x00\n      mstore\n      keccak256(0x00, 0x20)\n      swap1\n      0x05\n      mul\n      add\n        /* \"contracts/distribution/TombRewardPool.sol\":9227:9265  PoolInfo storage pool = poolInfo[_pid] */\n      swap1\n      pop\n        /* \"contracts/distribution/TombRewardPool.sol\":9276:9297  UserInfo storage user */\n      0x00\n        /* \"contracts/distribution/TombRewardPool.sol\":9300:9308  userInfo */\n      0x04\n        /* \"contracts/distribution/TombRewardPool.sol\":9300:9314  userInfo[_pid] */\n      0x00\n        /* \"contracts/distribution/TombRewardPool.sol\":9309:9313  _pid */\n      dup7\n        /* \"contracts/distribution/TombRewardPool.sol\":9300:9314  userInfo[_pid] */\n      dup2\n      mstore\n      0x20\n      add\n      swap1\n      dup2\n      mstore\n      0x20\n      add\n      0x00\n      keccak256\n        /* \"contracts/distribution/TombRewardPool.sol\":9300:9323  userInfo[_pid][_sender] */\n      0x00\n        /* \"contracts/distribution/TombRewardPool.sol\":9315:9322  _sender */\n      dup5\n        /* \"contracts/distribution/TombRewardPool.sol\":9300:9323  userInfo[_pid][_sender] */\n      0xffffffffffffffffffffffffffffffffffffffff\n      and\n      0xffffffffffffffffffffffffffffffffffffffff\n      and\n      dup2\n      mstore\n      0x20\n      add\n      swap1\n      dup2\n      mstore\n      0x20\n      add\n      0x00\n      keccak256\n        /* \"contracts/distribution/TombRewardPool.sol\":9276:9323  UserInfo storage user = userInfo[_pid][_sender] */\n      swap1\n      pop\n        /* \"contracts/distribution/TombRewardPool.sol\":9357:9364  _amount */\n      dup4\n        /* \"contracts/distribution/TombRewardPool.sol\":9342:9346  user */\n      dup2\n        /* \"contracts/distribution/TombRewardPool.sol\":9342:9353  user.amount */\n      0x00\n      add\n      sload\n        /* \"contracts/distribution/TombRewardPool.sol\":9342:9364  user.amount >= _amount */\n      lt\n      iszero\n        /* \"contracts/distribution/TombRewardPool.sol\":9334:9387  require(user.amount >= _amount, \"withdraw: not good\") */\n      tag_181\n      jumpi\n      mload(0x40)\n      0x08c379a000000000000000000000000000000000000000000000000000000000\n      dup2\n      mstore\n      0x04\n      add\n      dup1\n      dup1\n      0x20\n      add\n      dup3\n      dup2\n      sub\n      dup3\n      mstore\n      0x12\n      dup2\n      mstore\n      0x20\n      add\n      dup1\n      0x77697468647261773a206e6f7420676f6f640000000000000000000000000000\n      dup2\n      mstore\n      pop\n      0x20\n      add\n      swap2\n      pop\n      pop\n      mload(0x40)\n      dup1\n      swap2\n      sub\n      swap1\n      revert\n    tag_181:\n        /* \"contracts/distribution/TombRewardPool.sol\":9398:9414  updatePool(_pid) */\n      tag_182\n        /* \"contracts/distribution/TombRewardPool.sol\":9409:9413  _pid */\n      dup6\n        /* \"contracts/distribution/TombRewardPool.sol\":9398:9408  updatePool */\n      tag_54\n        /* \"contracts/distribution/TombRewardPool.sol\":9398:9414  updatePool(_pid) */\n      jump\t// in\n    tag_182:\n        /* \"contracts/distribution/TombRewardPool.sol\":9425:9441  uint256 _pending */\n      0x00\n        /* \"contracts/distribution/TombRewardPool.sol\":9444:9512  user.amount.mul(pool.accPolyPerShare).div(1e18).sub(user.rewardDebt) */\n      tag_183\n        /* \"contracts/distribution/TombRewardPool.sol\":9496:9500  user */\n      dup3\n        /* \"contracts/distribution/TombRewardPool.sol\":9496:9511  user.rewardDebt */\n      0x01\n      add\n      sload\n        /* \"contracts/distribution/TombRewardPool.sol\":9444:9491  user.amount.mul(pool.accPolyPerShare).div(1e18) */\n      tag_184\n        /* \"contracts/distribution/TombRewardPool.sol\":9486:9490  1e18 */\n      0x0de0b6b3a7640000\n        /* \"contracts/distribution/TombRewardPool.sol\":9444:9481  user.amount.mul(pool.accPolyPerShare) */\n      tag_185\n        /* \"contracts/distribution/TombRewardPool.sol\":9460:9464  pool */\n      dup8\n        /* \"contracts/distribution/TombRewardPool.sol\":9460:9480  pool.accPolyPerShare */\n      0x03\n      add\n      sload\n        /* \"contracts/distribution/TombRewardPool.sol\":9444:9448  user */\n      dup8\n        /* \"contracts/distribution/TombRewardPool.sol\":9444:9455  user.amount */\n      0x00\n      add\n      sload\n        /* \"contracts/distribution/TombRewardPool.sol\":9444:9459  user.amount.mul */\n      tag_122\n      swap1\n        /* \"contracts/distribution/TombRewardPool.sol\":9444:9481  user.amount.mul(pool.accPolyPerShare) */\n      swap2\n      swap1\n      0xffffffff\n      and\n      jump\t// in\n    tag_185:\n        /* \"contracts/distribution/TombRewardPool.sol\":9444:9485  user.amount.mul(pool.accPolyPerShare).div */\n      tag_94\n      swap1\n        /* \"contracts/distribution/TombRewardPool.sol\":9444:9491  user.amount.mul(pool.accPolyPerShare).div(1e18) */\n      swap2\n      swap1\n      0xffffffff\n      and\n      jump\t// in\n    tag_184:\n        /* \"contracts/distribution/TombRewardPool.sol\":9444:9495  user.amount.mul(pool.accPolyPerShare).div(1e18).sub */\n      tag_106\n      swap1\n        /* \"contracts/distribution/TombRewardPool.sol\":9444:9512  user.amount.mul(pool.accPolyPerShare).div(1e18).sub(user.rewardDebt) */\n      swap2\n      swap1\n      0xffffffff\n      and\n      jump\t// in\n    tag_183:\n        /* \"contracts/distribution/TombRewardPool.sol\":9425:9512  uint256 _pending = user.amount.mul(pool.accPolyPerShare).div(1e18).sub(user.rewardDebt) */\n      swap1\n      pop\n        /* \"contracts/distribution/TombRewardPool.sol\":9538:9539  0 */\n      0x00\n        /* \"contracts/distribution/TombRewardPool.sol\":9527:9535  _pending */\n      dup2\n        /* \"contracts/distribution/TombRewardPool.sol\":9527:9539  _pending > 0 */\n      gt\n        /* \"contracts/distribution/TombRewardPool.sol\":9523:9652  if (_pending > 0) {\r... */\n      iszero\n      tag_186\n      jumpi\n        /* \"contracts/distribution/TombRewardPool.sol\":9556:9591  safePolyTransfer(_sender, _pending) */\n      tag_187\n        /* \"contracts/distribution/TombRewardPool.sol\":9573:9580  _sender */\n      dup5\n        /* \"contracts/distribution/TombRewardPool.sol\":9582:9590  _pending */\n      dup3\n        /* \"contracts/distribution/TombRewardPool.sol\":9556:9572  safePolyTransfer */\n      tag_188\n        /* \"contracts/distribution/TombRewardPool.sol\":9556:9591  safePolyTransfer(_sender, _pending) */\n      jump\t// in\n    tag_187:\n        /* \"contracts/distribution/TombRewardPool.sol\":9622:9629  _sender */\n      dup4\n        /* \"contracts/distribution/TombRewardPool.sol\":9611:9640  RewardPaid(_sender, _pending) */\n      0xffffffffffffffffffffffffffffffffffffffff\n      and\n      0xe2403640ba68fed3a2f88b7557551d1993f84b99bb10ff833f0cf8db0c5e0486\n        /* \"contracts/distribution/TombRewardPool.sol\":9631:9639  _pending */\n      dup3\n        /* \"contracts/distribution/TombRewardPool.sol\":9611:9640  RewardPaid(_sender, _pending) */\n      mload(0x40)\n      dup1\n      dup3\n      dup2\n      mstore\n      0x20\n      add\n      swap2\n      pop\n      pop\n      mload(0x40)\n      dup1\n      swap2\n      sub\n      swap1\n      log2\n        /* \"contracts/distribution/TombRewardPool.sol\":9523:9652  if (_pending > 0) {\r... */\n    tag_186:\n        /* \"contracts/distribution/TombRewardPool.sol\":9676:9677  0 */\n      0x00\n        /* \"contracts/distribution/TombRewardPool.sol\":9666:9673  _amount */\n      dup6\n        /* \"contracts/distribution/TombRewardPool.sol\":9666:9677  _amount > 0 */\n      gt\n        /* \"contracts/distribution/TombRewardPool.sol\":9662:9800  if (_amount > 0) {\r... */\n      iszero\n      tag_189\n      jumpi\n        /* \"contracts/distribution/TombRewardPool.sol\":9708:9732  user.amount.sub(_amount) */\n      tag_190\n        /* \"contracts/distribution/TombRewardPool.sol\":9724:9731  _amount */\n      dup6\n        /* \"contracts/distribution/TombRewardPool.sol\":9708:9712  user */\n      dup4\n        /* \"contracts/distribution/TombRewardPool.sol\":9708:9719  user.amount */\n      0x00\n      add\n      sload\n        /* \"contracts/distribution/TombRewardPool.sol\":9708:9723  user.amount.sub */\n      tag_106\n      swap1\n        /* \"contracts/distribution/TombRewardPool.sol\":9708:9732  user.amount.sub(_amount) */\n      swap2\n      swap1\n      0xffffffff\n      and\n      jump\t// in\n    tag_190:\n        /* \"contracts/distribution/TombRewardPool.sol\":9694:9698  user */\n      dup3\n        /* \"contracts/distribution/TombRewardPool.sol\":9694:9705  user.amount */\n      0x00\n      add\n        /* \"contracts/distribution/TombRewardPool.sol\":9694:9732  user.amount = user.amount.sub(_amount) */\n      dup2\n      swap1\n      sstore\n      pop\n        /* \"contracts/distribution/TombRewardPool.sol\":9747:9788  pool.token.safeTransfer(_sender, _amount) */\n      tag_191\n        /* \"contracts/distribution/TombRewardPool.sol\":9771:9778  _sender */\n      dup5\n        /* \"contracts/distribution/TombRewardPool.sol\":9780:9787  _amount */\n      dup7\n        /* \"contracts/distribution/TombRewardPool.sol\":9747:9751  pool */\n      dup6\n        /* \"contracts/distribution/TombRewardPool.sol\":9747:9757  pool.token */\n      0x00\n      add\n      0x00\n      swap1\n      sload\n      swap1\n      0x0100\n      exp\n      swap1\n      div\n      0xffffffffffffffffffffffffffffffffffffffff\n      and\n        /* \"contracts/distribution/TombRewardPool.sol\":9747:9770  pool.token.safeTransfer */\n      0xffffffffffffffffffffffffffffffffffffffff\n      and\n      tag_192\n      swap1\n        /* \"contracts/distribution/TombRewardPool.sol\":9747:9788  pool.token.safeTransfer(_sender, _amount) */\n      swap3\n      swap2\n      swap1\n      0xffffffff\n      and\n      jump\t// in\n    tag_191:\n        /* \"contracts/distribution/TombRewardPool.sol\":9662:9800  if (_amount > 0) {\r... */\n    tag_189:\n        /* \"contracts/distribution/TombRewardPool.sol\":9828:9875  user.amount.mul(pool.accPolyPerShare).div(1e18) */\n      tag_193\n        /* \"contracts/distribution/TombRewardPool.sol\":9870:9874  1e18 */\n      0x0de0b6b3a7640000\n        /* \"contracts/distribution/TombRewardPool.sol\":9828:9865  user.amount.mul(pool.accPolyPerShare) */\n      tag_194\n        /* \"contracts/distribution/TombRewardPool.sol\":9844:9848  pool */\n      dup6\n        /* \"contracts/distribution/TombRewardPool.sol\":9844:9864  pool.accPolyPerShare */\n      0x03\n      add\n      sload\n        /* \"contracts/distribution/TombRewardPool.sol\":9828:9832  user */\n      dup6\n        /* \"contracts/distribution/TombRewardPool.sol\":9828:9839  user.amount */\n      0x00\n      add\n      sload\n        /* \"contracts/distribution/TombRewardPool.sol\":9828:9843  user.amount.mul */\n      tag_122\n      swap1\n        /* \"contracts/distribution/TombRewardPool.sol\":9828:9865  user.amount.mul(pool.accPolyPerShare) */\n      swap2\n      swap1\n      0xffffffff\n      and\n      jump\t// in\n    tag_194:\n        /* \"contracts/distribution/TombRewardPool.sol\":9828:9869  user.amount.mul(pool.accPolyPerShare).div */\n      tag_94\n      swap1\n        /* \"contracts/distribution/TombRewardPool.sol\":9828:9875  user.amount.mul(pool.accPolyPerShare).div(1e18) */\n      swap2\n      swap1\n      0xffffffff\n      and\n      jump\t// in\n    tag_193:\n        /* \"contracts/distribution/TombRewardPool.sol\":9810:9814  user */\n      dup3\n        /* \"contracts/distribution/TombRewardPool.sol\":9810:9825  user.rewardDebt */\n      0x01\n      add\n        /* \"contracts/distribution/TombRewardPool.sol\":9810:9875  user.rewardDebt = user.amount.mul(pool.accPolyPerShare).div(1e18) */\n      dup2\n      swap1\n      sstore\n      pop\n        /* \"contracts/distribution/TombRewardPool.sol\":9909:9913  _pid */\n      dup6\n        /* \"contracts/distribution/TombRewardPool.sol\":9900:9907  _sender */\n      dup5\n        /* \"contracts/distribution/TombRewardPool.sol\":9891:9923  Withdraw(_sender, _pid, _amount) */\n      0xffffffffffffffffffffffffffffffffffffffff\n      and\n      0xf279e6a1f5e320cca91135676d9cb6e44ca8a08c0b88342bcdb1144f6511b568\n        /* \"contracts/distribution/TombRewardPool.sol\":9915:9922  _amount */\n      dup8\n        /* \"contracts/distribution/TombRewardPool.sol\":9891:9923  Withdraw(_sender, _pid, _amount) */\n      mload(0x40)\n      dup1\n      dup3\n      dup2\n      mstore\n      0x20\n      add\n      swap2\n      pop\n      pop\n      mload(0x40)\n      dup1\n      swap2\n      sub\n      swap1\n      log3\n        /* \"contracts/distribution/TombRewardPool.sol\":9121:9931  function withdraw(uint256 _pid, uint256 _amount) public {\r... */\n      pop\n      pop\n      pop\n      pop\n      pop\n      pop\n      jump\t// out\n        /* \"contracts/owner/Operator.sol\":786:886  function isOperator() public view returns (bool) {\r... */\n    tag_48:\n        /* \"contracts/owner/Operator.sol\":829:833  bool */\n      0x00\n        /* \"contracts/owner/Operator.sol\":869:878  _operator */\n      0x01\n      0x00\n      swap1\n      sload\n      swap1\n      0x0100\n      exp\n      swap1\n      div\n      0xffffffffffffffffffffffffffffffffffffffff\n      and\n        /* \"contracts/owner/Operator.sol\":853:878  _msgSender() == _operator */\n      0xffffffffffffffffffffffffffffffffffffffff\n      and\n        /* \"contracts/owner/Operator.sol\":853:865  _msgSender() */\n      tag_196\n        /* \"contracts/owner/Operator.sol\":853:863  _msgSender */\n      tag_172\n        /* \"contracts/owner/Operator.sol\":853:865  _msgSender() */\n      jump\t// in\n    tag_196:\n        /* \"contracts/owner/Operator.sol\":853:878  _msgSender() == _operator */\n      0xffffffffffffffffffffffffffffffffffffffff\n      and\n      eq\n        /* \"contracts/owner/Operator.sol\":846:878  return _msgSender() == _operator */\n      swap1\n      pop\n        /* \"contracts/owner/Operator.sol\":786:886  function isOperator() public view returns (bool) {\r... */\n      swap1\n      jump\t// out\n        /* \"contracts/distribution/TombRewardPool.sol\":6206:6977  function pendingPoly(uint256 _pid, address _user) external view returns (uint256) {\r... */\n    tag_51:\n        /* \"contracts/distribution/TombRewardPool.sol\":6279:6286  uint256 */\n      0x00\n        /* \"contracts/distribution/TombRewardPool.sol\":6299:6320  PoolInfo storage pool */\n      dup1\n        /* \"contracts/distribution/TombRewardPool.sol\":6323:6331  poolInfo */\n      0x03\n        /* \"contracts/distribution/TombRewardPool.sol\":6332:6336  _pid */\n      dup5\n        /* \"contracts/distribution/TombRewardPool.sol\":6323:6337  poolInfo[_pid] */\n      dup2\n      sload\n      dup2\n      lt\n      tag_198\n      jumpi\n      invalid\n    tag_198:\n      swap1\n      0x00\n      mstore\n      keccak256(0x00, 0x20)\n      swap1\n      0x05\n      mul\n      add\n        /* \"contracts/distribution/TombRewardPool.sol\":6299:6337  PoolInfo storage pool = poolInfo[_pid] */\n      swap1\n      pop\n        /* \"contracts/distribution/TombRewardPool.sol\":6348:6369  UserInfo storage user */\n      0x00\n        /* \"contracts/distribution/TombRewardPool.sol\":6372:6380  userInfo */\n      0x04\n        /* \"contracts/distribution/TombRewardPool.sol\":6372:6386  userInfo[_pid] */\n      0x00\n        /* \"contracts/distribution/TombRewardPool.sol\":6381:6385  _pid */\n      dup7\n        /* \"contracts/distribution/TombRewardPool.sol\":6372:6386  userInfo[_pid] */\n      dup2\n      mstore\n      0x20\n      add\n      swap1\n      dup2\n      mstore\n      0x20\n      add\n      0x00\n      keccak256\n        /* \"contracts/distribution/TombRewardPool.sol\":6372:6393  userInfo[_pid][_user] */\n      0x00\n        /* \"contracts/distribution/TombRewardPool.sol\":6387:6392  _user */\n      dup6\n        /* \"contracts/distribution/TombRewardPool.sol\":6372:6393  userInfo[_pid][_user] */\n      0xffffffffffffffffffffffffffffffffffffffff\n      and\n      0xffffffffffffffffffffffffffffffffffffffff\n      and\n      dup2\n      mstore\n      0x20\n      add\n      swap1\n      dup2\n      mstore\n      0x20\n      add\n      0x00\n      keccak256\n        /* \"contracts/distribution/TombRewardPool.sol\":6348:6393  UserInfo storage user = userInfo[_pid][_user] */\n      swap1\n      pop\n        /* \"contracts/distribution/TombRewardPool.sol\":6404:6427  uint256 accPolyPerShare */\n      0x00\n        /* \"contracts/distribution/TombRewardPool.sol\":6430:6434  pool */\n      dup3\n        /* \"contracts/distribution/TombRewardPool.sol\":6430:6450  pool.accPolyPerShare */\n      0x03\n      add\n      sload\n        /* \"contracts/distribution/TombRewardPool.sol\":6404:6450  uint256 accPolyPerShare = pool.accPolyPerShare */\n      swap1\n      pop\n        /* \"contracts/distribution/TombRewardPool.sol\":6461:6480  uint256 tokenSupply */\n      0x00\n        /* \"contracts/distribution/TombRewardPool.sol\":6483:6487  pool */\n      dup4\n        /* \"contracts/distribution/TombRewardPool.sol\":6483:6493  pool.token */\n      0x00\n      add\n      0x00\n      swap1\n      sload\n      swap1\n      0x0100\n      exp\n      swap1\n      div\n      0xffffffffffffffffffffffffffffffffffffffff\n      and\n        /* \"contracts/distribution/TombRewardPool.sol\":6483:6503  pool.token.balanceOf */\n      0xffffffffffffffffffffffffffffffffffffffff\n      and\n      0x70a08231\n        /* \"contracts/distribution/TombRewardPool.sol\":6512:6516  this */\n      address\n        /* \"contracts/distribution/TombRewardPool.sol\":6483:6518  pool.token.balanceOf(address(this)) */\n      mload(0x40)\n      dup3\n      0xffffffff\n      and\n      0xe0\n      shl\n      dup2\n      mstore\n      0x04\n      add\n      dup1\n      dup3\n      0xffffffffffffffffffffffffffffffffffffffff\n      and\n      dup2\n      mstore\n      0x20\n      add\n      swap2\n      pop\n      pop\n      0x20\n      mload(0x40)\n      dup1\n      dup4\n      sub\n      dup2\n      dup7\n      dup1\n      extcodesize\n      iszero\n      dup1\n      iszero\n      tag_200\n      jumpi\n      0x00\n      dup1\n      revert\n    tag_200:\n      pop\n      gas\n      staticcall\n      iszero\n      dup1\n      iszero\n      tag_202\n      jumpi\n      returndatasize\n      0x00\n      dup1\n      returndatacopy\n      revert(0x00, returndatasize)\n    tag_202:\n      pop\n      pop\n      pop\n      pop\n      mload(0x40)\n      returndatasize\n      0x20\n      dup2\n      lt\n      iszero\n      tag_203\n      jumpi\n      0x00\n      dup1\n      revert\n    tag_203:\n      dup2\n      add\n      swap1\n      dup1\n      dup1\n      mload\n      swap1\n      0x20\n      add\n      swap1\n      swap3\n      swap2\n      swap1\n      pop\n      pop\n      pop\n        /* \"contracts/distribution/TombRewardPool.sol\":6461:6518  uint256 tokenSupply = pool.token.balanceOf(address(this)) */\n      swap1\n      pop\n        /* \"contracts/distribution/TombRewardPool.sol\":6551:6555  pool */\n      dup4\n        /* \"contracts/distribution/TombRewardPool.sol\":6551:6570  pool.lastRewardTime */\n      0x02\n      add\n      sload\n        /* \"contracts/distribution/TombRewardPool.sol\":6533:6548  block.timestamp */\n      timestamp\n        /* \"contracts/distribution/TombRewardPool.sol\":6533:6570  block.timestamp > pool.lastRewardTime */\n      gt\n        /* \"contracts/distribution/TombRewardPool.sol\":6533:6590  block.timestamp > pool.lastRewardTime && tokenSupply != 0 */\n      dup1\n      iszero\n      tag_204\n      jumpi\n      pop\n        /* \"contracts/distribution/TombRewardPool.sol\":6589:6590  0 */\n      0x00\n        /* \"contracts/distribution/TombRewardPool.sol\":6574:6585  tokenSupply */\n      dup2\n        /* \"contracts/distribution/TombRewardPool.sol\":6574:6590  tokenSupply != 0 */\n      eq\n      iszero\n        /* \"contracts/distribution/TombRewardPool.sol\":6533:6590  block.timestamp > pool.lastRewardTime && tokenSupply != 0 */\n    tag_204:\n        /* \"contracts/distribution/TombRewardPool.sol\":6529:6889  if (block.timestamp > pool.lastRewardTime && tokenSupply != 0) {\r... */\n      iszero\n      tag_205\n      jumpi\n        /* \"contracts/distribution/TombRewardPool.sol\":6607:6631  uint256 _generatedReward */\n      0x00\n        /* \"contracts/distribution/TombRewardPool.sol\":6634:6690  getGeneratedReward(pool.lastRewardTime, block.timestamp) */\n      tag_206\n        /* \"contracts/distribution/TombRewardPool.sol\":6653:6657  pool */\n      dup6\n        /* \"contracts/distribution/TombRewardPool.sol\":6653:6672  pool.lastRewardTime */\n      0x02\n      add\n      sload\n        /* \"contracts/distribution/TombRewardPool.sol\":6674:6689  block.timestamp */\n      timestamp\n        /* \"contracts/distribution/TombRewardPool.sol\":6634:6652  getGeneratedReward */\n      tag_40\n        /* \"contracts/distribution/TombRewardPool.sol\":6634:6690  getGeneratedReward(pool.lastRewardTime, block.timestamp) */\n      jump\t// in\n    tag_206:\n        /* \"contracts/distribution/TombRewardPool.sol\":6607:6690  uint256 _generatedReward = getGeneratedReward(pool.lastRewardTime, block.timestamp) */\n      swap1\n      pop\n        /* \"contracts/distribution/TombRewardPool.sol\":6705:6724  uint256 _PolyReward */\n      0x00\n        /* \"contracts/distribution/TombRewardPool.sol\":6727:6785  _generatedReward.mul(pool.allocPoint).div(totalAllocPoint) */\n      tag_207\n        /* \"contracts/distribution/TombRewardPool.sol\":6769:6784  totalAllocPoint */\n      sload(0x05)\n        /* \"contracts/distribution/TombRewardPool.sol\":6727:6764  _generatedReward.mul(pool.allocPoint) */\n      tag_208\n        /* \"contracts/distribution/TombRewardPool.sol\":6748:6752  pool */\n      dup9\n        /* \"contracts/distribution/TombRewardPool.sol\":6748:6763  pool.allocPoint */\n      0x01\n      add\n      sload\n        /* \"contracts/distribution/TombRewardPool.sol\":6727:6743  _generatedReward */\n      dup6\n        /* \"contracts/distribution/TombRewardPool.sol\":6727:6747  _generatedReward.mul */\n      tag_122\n      swap1\n        /* \"contracts/distribution/TombRewardPool.sol\":6727:6764  _generatedReward.mul(pool.allocPoint) */\n      swap2\n      swap1\n      0xffffffff\n      and\n      jump\t// in\n    tag_208:\n        /* \"contracts/distribution/TombRewardPool.sol\":6727:6768  _generatedReward.mul(pool.allocPoint).div */\n      tag_94\n      swap1\n        /* \"contracts/distribution/TombRewardPool.sol\":6727:6785  _generatedReward.mul(pool.allocPoint).div(totalAllocPoint) */\n      swap2\n      swap1\n      0xffffffff\n      and\n      jump\t// in\n    tag_207:\n        /* \"contracts/distribution/TombRewardPool.sol\":6705:6785  uint256 _PolyReward = _generatedReward.mul(pool.allocPoint).div(totalAllocPoint) */\n      swap1\n      pop\n        /* \"contracts/distribution/TombRewardPool.sol\":6818:6877  accPolyPerShare.add(_PolyReward.mul(1e18).div(tokenSupply)) */\n      tag_209\n        /* \"contracts/distribution/TombRewardPool.sol\":6838:6876  _PolyReward.mul(1e18).div(tokenSupply) */\n      tag_210\n        /* \"contracts/distribution/TombRewardPool.sol\":6864:6875  tokenSupply */\n      dup5\n        /* \"contracts/distribution/TombRewardPool.sol\":6838:6859  _PolyReward.mul(1e18) */\n      tag_211\n        /* \"contracts/distribution/TombRewardPool.sol\":6854:6858  1e18 */\n      0x0de0b6b3a7640000\n        /* \"contracts/distribution/TombRewardPool.sol\":6838:6849  _PolyReward */\n      dup6\n        /* \"contracts/distribution/TombRewardPool.sol\":6838:6853  _PolyReward.mul */\n      tag_122\n      swap1\n        /* \"contracts/distribution/TombRewardPool.sol\":6838:6859  _PolyReward.mul(1e18) */\n      swap2\n      swap1\n      0xffffffff\n      and\n      jump\t// in\n    tag_211:\n        /* \"contracts/distribution/TombRewardPool.sol\":6838:6863  _PolyReward.mul(1e18).div */\n      tag_94\n      swap1\n        /* \"contracts/distribution/TombRewardPool.sol\":6838:6876  _PolyReward.mul(1e18).div(tokenSupply) */\n      swap2\n      swap1\n      0xffffffff\n      and\n      jump\t// in\n    tag_210:\n        /* \"contracts/distribution/TombRewardPool.sol\":6818:6833  accPolyPerShare */\n      dup6\n        /* \"contracts/distribution/TombRewardPool.sol\":6818:6837  accPolyPerShare.add */\n      tag_107\n      swap1\n        /* \"contracts/distribution/TombRewardPool.sol\":6818:6877  accPolyPerShare.add(_PolyReward.mul(1e18).div(tokenSupply)) */\n      swap2\n      swap1\n      0xffffffff\n      and\n      jump\t// in\n    tag_209:\n        /* \"contracts/distribution/TombRewardPool.sol\":6800:6877  accPolyPerShare = accPolyPerShare.add(_PolyReward.mul(1e18).div(tokenSupply)) */\n      swap4\n      pop\n        /* \"contracts/distribution/TombRewardPool.sol\":6529:6889  if (block.timestamp > pool.lastRewardTime && tokenSupply != 0) {\r... */\n      pop\n      pop\n    tag_205:\n        /* \"contracts/distribution/TombRewardPool.sol\":6906:6969  user.amount.mul(accPolyPerShare).div(1e18).sub(user.rewardDebt) */\n      tag_212\n        /* \"contracts/distribution/TombRewardPool.sol\":6953:6957  user */\n      dup4\n        /* \"contracts/distribution/TombRewardPool.sol\":6953:6968  user.rewardDebt */\n      0x01\n      add\n      sload\n        /* \"contracts/distribution/TombRewardPool.sol\":6906:6948  user.amount.mul(accPolyPerShare).div(1e18) */\n      tag_213\n        /* \"contracts/distribution/TombRewardPool.sol\":6943:6947  1e18 */\n      0x0de0b6b3a7640000\n        /* \"contracts/distribution/TombRewardPool.sol\":6906:6938  user.amount.mul(accPolyPerShare) */\n      tag_214\n        /* \"contracts/distribution/TombRewardPool.sol\":6922:6937  accPolyPerShare */\n      dup7\n        /* \"contracts/distribution/TombRewardPool.sol\":6906:6910  user */\n      dup9\n        /* \"contracts/distribution/TombRewardPool.sol\":6906:6917  user.amount */\n      0x00\n      add\n      sload\n        /* \"contracts/distribution/TombRewardPool.sol\":6906:6921  user.amount.mul */\n      tag_122\n      swap1\n        /* \"contracts/distribution/TombRewardPool.sol\":6906:6938  user.amount.mul(accPolyPerShare) */\n      swap2\n      swap1\n      0xffffffff\n      and\n      jump\t// in\n    tag_214:\n        /* \"contracts/distribution/TombRewardPool.sol\":6906:6942  user.amount.mul(accPolyPerShare).div */\n      tag_94\n      swap1\n        /* \"contracts/distribution/TombRewardPool.sol\":6906:6948  user.amount.mul(accPolyPerShare).div(1e18) */\n      swap2\n      swap1\n      0xffffffff\n      and\n      jump\t// in\n    tag_213:\n        /* \"contracts/distribution/TombRewardPool.sol\":6906:6952  user.amount.mul(accPolyPerShare).div(1e18).sub */\n      tag_106\n      swap1\n        /* \"contracts/distribution/TombRewardPool.sol\":6906:6969  user.amount.mul(accPolyPerShare).div(1e18).sub(user.rewardDebt) */\n      swap2\n      swap1\n      0xffffffff\n      and\n      jump\t// in\n    tag_212:\n        /* \"contracts/distribution/TombRewardPool.sol\":6899:6969  return user.amount.mul(accPolyPerShare).div(1e18).sub(user.rewardDebt) */\n      swap5\n      pop\n      pop\n      pop\n      pop\n      pop\n        /* \"contracts/distribution/TombRewardPool.sol\":6206:6977  function pendingPoly(uint256 _pid, address _user) external view returns (uint256) {\r... */\n      swap3\n      swap2\n      pop\n      pop\n      jump\t// out\n        /* \"contracts/distribution/TombRewardPool.sol\":7316:8224  function updatePool(uint256 _pid) public {\r... */\n    tag_54:\n        /* \"contracts/distribution/TombRewardPool.sol\":7368:7389  PoolInfo storage pool */\n      0x00\n        /* \"contracts/distribution/TombRewardPool.sol\":7392:7400  poolInfo */\n      0x03\n        /* \"contracts/distribution/TombRewardPool.sol\":7401:7405  _pid */\n      dup3\n        /* \"contracts/distribution/TombRewardPool.sol\":7392:7406  poolInfo[_pid] */\n      dup2\n      sload\n      dup2\n      lt\n      tag_216\n      jumpi\n      invalid\n    tag_216:\n      swap1\n      0x00\n      mstore\n      keccak256(0x00, 0x20)\n      swap1\n      0x05\n      mul\n      add\n        /* \"contracts/distribution/TombRewardPool.sol\":7368:7406  PoolInfo storage pool = poolInfo[_pid] */\n      swap1\n      pop\n        /* \"contracts/distribution/TombRewardPool.sol\":7440:7444  pool */\n      dup1\n        /* \"contracts/distribution/TombRewardPool.sol\":7440:7459  pool.lastRewardTime */\n      0x02\n      add\n      sload\n        /* \"contracts/distribution/TombRewardPool.sol\":7421:7436  block.timestamp */\n      timestamp\n        /* \"contracts/distribution/TombRewardPool.sol\":7421:7459  block.timestamp <= pool.lastRewardTime */\n      gt\n        /* \"contracts/distribution/TombRewardPool.sol\":7417:7494  if (block.timestamp <= pool.lastRewardTime) {\r... */\n      tag_218\n      jumpi\n        /* \"contracts/distribution/TombRewardPool.sol\":7476:7483  return; */\n      pop\n      jump(tag_215)\n        /* \"contracts/distribution/TombRewardPool.sol\":7417:7494  if (block.timestamp <= pool.lastRewardTime) {\r... */\n    tag_218:\n        /* \"contracts/distribution/TombRewardPool.sol\":7504:7523  uint256 tokenSupply */\n      0x00\n        /* \"contracts/distribution/TombRewardPool.sol\":7526:7530  pool */\n      dup2\n        /* \"contracts/distribution/TombRewardPool.sol\":7526:7536  pool.token */\n      0x00\n      add\n      0x00\n      swap1\n      sload\n      swap1\n      0x0100\n      exp\n      swap1\n      div\n      0xffffffffffffffffffffffffffffffffffffffff\n      and\n        /* \"contracts/distribution/TombRewardPool.sol\":7526:7546  pool.token.balanceOf */\n      0xffffffffffffffffffffffffffffffffffffffff\n      and\n      0x70a08231\n        /* \"contracts/distribution/TombRewardPool.sol\":7555:7559  this */\n      address\n        /* \"contracts/distribution/TombRewardPool.sol\":7526:7561  pool.token.balanceOf(address(this)) */\n      mload(0x40)\n      dup3\n      0xffffffff\n      and\n      0xe0\n      shl\n      dup2\n      mstore\n      0x04\n      add\n      dup1\n      dup3\n      0xffffffffffffffffffffffffffffffffffffffff\n      and\n      dup2\n      mstore\n      0x20\n      add\n      swap2\n      pop\n      pop\n      0x20\n      mload(0x40)\n      dup1\n      dup4\n      sub\n      dup2\n      dup7\n      dup1\n      extcodesize\n      iszero\n      dup1\n      iszero\n      tag_219\n      jumpi\n      0x00\n      dup1\n      revert\n    tag_219:\n      pop\n      gas\n      staticcall\n      iszero\n      dup1\n      iszero\n      tag_221\n      jumpi\n      returndatasize\n      0x00\n      dup1\n      returndatacopy\n      revert(0x00, returndatasize)\n    tag_221:\n      pop\n      pop\n      pop\n      pop\n      mload(0x40)\n      returndatasize\n      0x20\n      dup2\n      lt\n      iszero\n      tag_222\n      jumpi\n      0x00\n      dup1\n      revert\n    tag_222:\n      dup2\n      add\n      swap1\n      dup1\n      dup1\n      mload\n      swap1\n      0x20\n      add\n      swap1\n      swap3\n      swap2\n      swap1\n      pop\n      pop\n      pop\n        /* \"contracts/distribution/TombRewardPool.sol\":7504:7561  uint256 tokenSupply = pool.token.balanceOf(address(this)) */\n      swap1\n      pop\n        /* \"contracts/distribution/TombRewardPool.sol\":7591:7592  0 */\n      0x00\n        /* \"contracts/distribution/TombRewardPool.sol\":7576:7587  tokenSupply */\n      dup2\n        /* \"contracts/distribution/TombRewardPool.sol\":7576:7592  tokenSupply == 0 */\n      eq\n        /* \"contracts/distribution/TombRewardPool.sol\":7572:7679  if (tokenSupply == 0) {\r... */\n      iszero\n      tag_223\n      jumpi\n        /* \"contracts/distribution/TombRewardPool.sol\":7631:7646  block.timestamp */\n      timestamp\n        /* \"contracts/distribution/TombRewardPool.sol\":7609:7613  pool */\n      dup3\n        /* \"contracts/distribution/TombRewardPool.sol\":7609:7628  pool.lastRewardTime */\n      0x02\n      add\n        /* \"contracts/distribution/TombRewardPool.sol\":7609:7646  pool.lastRewardTime = block.timestamp */\n      dup2\n      swap1\n      sstore\n      pop\n        /* \"contracts/distribution/TombRewardPool.sol\":7661:7668  return; */\n      pop\n      pop\n      jump(tag_215)\n        /* \"contracts/distribution/TombRewardPool.sol\":7572:7679  if (tokenSupply == 0) {\r... */\n    tag_223:\n        /* \"contracts/distribution/TombRewardPool.sol\":7694:7698  pool */\n      dup2\n        /* \"contracts/distribution/TombRewardPool.sol\":7694:7708  pool.isStarted */\n      0x04\n      add\n      0x00\n      swap1\n      sload\n      swap1\n      0x0100\n      exp\n      swap1\n      div\n      0xff\n      and\n        /* \"contracts/distribution/TombRewardPool.sol\":7689:7827  if (!pool.isStarted) {\r... */\n      tag_224\n      jumpi\n        /* \"contracts/distribution/TombRewardPool.sol\":7742:7746  true */\n      0x01\n        /* \"contracts/distribution/TombRewardPool.sol\":7725:7729  pool */\n      dup3\n        /* \"contracts/distribution/TombRewardPool.sol\":7725:7739  pool.isStarted */\n      0x04\n      add\n      0x00\n        /* \"contracts/distribution/TombRewardPool.sol\":7725:7746  pool.isStarted = true */\n      0x0100\n      exp\n      dup2\n      sload\n      dup2\n      0xff\n      mul\n      not\n      and\n      swap1\n      dup4\n      iszero\n      iszero\n      mul\n      or\n      swap1\n      sstore\n      pop\n        /* \"contracts/distribution/TombRewardPool.sol\":7779:7815  totalAllocPoint.add(pool.allocPoint) */\n      tag_225\n        /* \"contracts/distribution/TombRewardPool.sol\":7799:7803  pool */\n      dup3\n        /* \"contracts/distribution/TombRewardPool.sol\":7799:7814  pool.allocPoint */\n      0x01\n      add\n      sload\n        /* \"contracts/distribution/TombRewardPool.sol\":7779:7794  totalAllocPoint */\n      sload(0x05)\n        /* \"contracts/distribution/TombRewardPool.sol\":7779:7798  totalAllocPoint.add */\n      tag_107\n      swap1\n        /* \"contracts/distribution/TombRewardPool.sol\":7779:7815  totalAllocPoint.add(pool.allocPoint) */\n      swap2\n      swap1\n      0xffffffff\n      and\n      jump\t// in\n    tag_225:\n        /* \"contracts/distribution/TombRewardPool.sol\":7761:7776  totalAllocPoint */\n      0x05\n        /* \"contracts/distribution/TombRewardPool.sol\":7761:7815  totalAllocPoint = totalAllocPoint.add(pool.allocPoint) */\n      dup2\n      swap1\n      sstore\n      pop\n        /* \"contracts/distribution/TombRewardPool.sol\":7689:7827  if (!pool.isStarted) {\r... */\n    tag_224:\n        /* \"contracts/distribution/TombRewardPool.sol\":7859:7860  0 */\n      0x00\n        /* \"contracts/distribution/TombRewardPool.sol\":7841:7856  totalAllocPoint */\n      sload(0x05)\n        /* \"contracts/distribution/TombRewardPool.sol\":7841:7860  totalAllocPoint > 0 */\n      gt\n        /* \"contracts/distribution/TombRewardPool.sol\":7837:8169  if (totalAllocPoint > 0) {\r... */\n      iszero\n      tag_226\n      jumpi\n        /* \"contracts/distribution/TombRewardPool.sol\":7877:7901  uint256 _generatedReward */\n      0x00\n        /* \"contracts/distribution/TombRewardPool.sol\":7904:7960  getGeneratedReward(pool.lastRewardTime, block.timestamp) */\n      tag_227\n        /* \"contracts/distribution/TombRewardPool.sol\":7923:7927  pool */\n      dup4\n        /* \"contracts/distribution/TombRewardPool.sol\":7923:7942  pool.lastRewardTime */\n      0x02\n      add\n      sload\n        /* \"contracts/distribution/TombRewardPool.sol\":7944:7959  block.timestamp */\n      timestamp\n        /* \"contracts/distribution/TombRewardPool.sol\":7904:7922  getGeneratedReward */\n      tag_40\n        /* \"contracts/distribution/TombRewardPool.sol\":7904:7960  getGeneratedReward(pool.lastRewardTime, block.timestamp) */\n      jump\t// in\n    tag_227:\n        /* \"contracts/distribution/TombRewardPool.sol\":7877:7960  uint256 _generatedReward = getGeneratedReward(pool.lastRewardTime, block.timestamp) */\n      swap1\n      pop\n        /* \"contracts/distribution/TombRewardPool.sol\":7975:7994  uint256 _PolyReward */\n      0x00\n        /* \"contracts/distribution/TombRewardPool.sol\":7997:8055  _generatedReward.mul(pool.allocPoint).div(totalAllocPoint) */\n      tag_228\n        /* \"contracts/distribution/TombRewardPool.sol\":8039:8054  totalAllocPoint */\n      sload(0x05)\n        /* \"contracts/distribution/TombRewardPool.sol\":7997:8034  _generatedReward.mul(pool.allocPoint) */\n      tag_229\n        /* \"contracts/distribution/TombRewardPool.sol\":8018:8022  pool */\n      dup7\n        /* \"contracts/distribution/TombRewardPool.sol\":8018:8033  pool.allocPoint */\n      0x01\n      add\n      sload\n        /* \"contracts/distribution/TombRewardPool.sol\":7997:8013  _generatedReward */\n      dup6\n        /* \"contracts/distribution/TombRewardPool.sol\":7997:8017  _generatedReward.mul */\n      tag_122\n      swap1\n        /* \"contracts/distribution/TombRewardPool.sol\":7997:8034  _generatedReward.mul(pool.allocPoint) */\n      swap2\n      swap1\n      0xffffffff\n      and\n      jump\t// in\n    tag_229:\n        /* \"contracts/distribution/TombRewardPool.sol\":7997:8038  _generatedReward.mul(pool.allocPoint).div */\n      tag_94\n      swap1\n        /* \"contracts/distribution/TombRewardPool.sol\":7997:8055  _generatedReward.mul(pool.allocPoint).div(totalAllocPoint) */\n      swap2\n      swap1\n      0xffffffff\n      and\n      jump\t// in\n    tag_228:\n        /* \"contracts/distribution/TombRewardPool.sol\":7975:8055  uint256 _PolyReward = _generatedReward.mul(pool.allocPoint).div(totalAllocPoint) */\n      swap1\n      pop\n        /* \"contracts/distribution/TombRewardPool.sol\":8093:8157  pool.accPolyPerShare.add(_PolyReward.mul(1e18).div(tokenSupply)) */\n      tag_230\n        /* \"contracts/distribution/TombRewardPool.sol\":8118:8156  _PolyReward.mul(1e18).div(tokenSupply) */\n      tag_231\n        /* \"contracts/distribution/TombRewardPool.sol\":8144:8155  tokenSupply */\n      dup5\n        /* \"contracts/distribution/TombRewardPool.sol\":8118:8139  _PolyReward.mul(1e18) */\n      tag_232\n        /* \"contracts/distribution/TombRewardPool.sol\":8134:8138  1e18 */\n      0x0de0b6b3a7640000\n        /* \"contracts/distribution/TombRewardPool.sol\":8118:8129  _PolyReward */\n      dup6\n        /* \"contracts/distribution/TombRewardPool.sol\":8118:8133  _PolyReward.mul */\n      tag_122\n      swap1\n        /* \"contracts/distribution/TombRewardPool.sol\":8118:8139  _PolyReward.mul(1e18) */\n      swap2\n      swap1\n      0xffffffff\n      and\n      jump\t// in\n    tag_232:\n        /* \"contracts/distribution/TombRewardPool.sol\":8118:8143  _PolyReward.mul(1e18).div */\n      tag_94\n      swap1\n        /* \"contracts/distribution/TombRewardPool.sol\":8118:8156  _PolyReward.mul(1e18).div(tokenSupply) */\n      swap2\n      swap1\n      0xffffffff\n      and\n      jump\t// in\n    tag_231:\n        /* \"contracts/distribution/TombRewardPool.sol\":8093:8097  pool */\n      dup6\n        /* \"contracts/distribution/TombRewardPool.sol\":8093:8113  pool.accPolyPerShare */\n      0x03\n      add\n      sload\n        /* \"contracts/distribution/TombRewardPool.sol\":8093:8117  pool.accPolyPerShare.add */\n      tag_107\n      swap1\n        /* \"contracts/distribution/TombRewardPool.sol\":8093:8157  pool.accPolyPerShare.add(_PolyReward.mul(1e18).div(tokenSupply)) */\n      swap2\n      swap1\n      0xffffffff\n      and\n      jump\t// in\n    tag_230:\n        /* \"contracts/distribution/TombRewardPool.sol\":8070:8074  pool */\n      dup5\n        /* \"contracts/distribution/TombRewardPool.sol\":8070:8090  pool.accPolyPerShare */\n      0x03\n      add\n        /* \"contracts/distribution/TombRewardPool.sol\":8070:8157  pool.accPolyPerShare = pool.accPolyPerShare.add(_PolyReward.mul(1e18).div(tokenSupply)) */\n      dup2\n      swap1\n      sstore\n      pop\n        /* \"contracts/distribution/TombRewardPool.sol\":7837:8169  if (totalAllocPoint > 0) {\r... */\n      pop\n      pop\n    tag_226:\n        /* \"contracts/distribution/TombRewardPool.sol\":8201:8216  block.timestamp */\n      timestamp\n        /* \"contracts/distribution/TombRewardPool.sol\":8179:8183  pool */\n      dup3\n        /* \"contracts/distribution/TombRewardPool.sol\":8179:8198  pool.lastRewardTime */\n      0x02\n      add\n        /* \"contracts/distribution/TombRewardPool.sol\":8179:8216  pool.lastRewardTime = block.timestamp */\n      dup2\n      swap1\n      sstore\n      pop\n        /* \"contracts/distribution/TombRewardPool.sol\":7316:8224  function updatePool(uint256 _pid) public {\r... */\n      pop\n      pop\n    tag_215:\n      pop\n      jump\t// out\n        /* \"contracts/distribution/TombRewardPool.sol\":10002:10379  function emergencyWithdraw(uint256 _pid) public {\r... */\n    tag_57:\n        /* \"contracts/distribution/TombRewardPool.sol\":10061:10082  PoolInfo storage pool */\n      0x00\n        /* \"contracts/distribution/TombRewardPool.sol\":10085:10093  poolInfo */\n      0x03\n        /* \"contracts/distribution/TombRewardPool.sol\":10094:10098  _pid */\n      dup3\n        /* \"contracts/distribution/TombRewardPool.sol\":10085:10099  poolInfo[_pid] */\n      dup2\n      sload\n      dup2\n      lt\n      tag_234\n      jumpi\n      invalid\n    tag_234:\n      swap1\n      0x00\n      mstore\n      keccak256(0x00, 0x20)\n      swap1\n      0x05\n      mul\n      add\n        /* \"contracts/distribution/TombRewardPool.sol\":10061:10099  PoolInfo storage pool = poolInfo[_pid] */\n      swap1\n      pop\n        /* \"contracts/distribution/TombRewardPool.sol\":10110:10131  UserInfo storage user */\n      0x00\n        /* \"contracts/distribution/TombRewardPool.sol\":10134:10142  userInfo */\n      0x04\n        /* \"contracts/distribution/TombRewardPool.sol\":10134:10148  userInfo[_pid] */\n      0x00\n        /* \"contracts/distribution/TombRewardPool.sol\":10143:10147  _pid */\n      dup5\n        /* \"contracts/distribution/TombRewardPool.sol\":10134:10148  userInfo[_pid] */\n      dup2\n      mstore\n      0x20\n      add\n      swap1\n      dup2\n      mstore\n      0x20\n      add\n      0x00\n      keccak256\n        /* \"contracts/distribution/TombRewardPool.sol\":10134:10160  userInfo[_pid][msg.sender] */\n      0x00\n        /* \"contracts/distribution/TombRewardPool.sol\":10149:10159  msg.sender */\n      caller\n        /* \"contracts/distribution/TombRewardPool.sol\":10134:10160  userInfo[_pid][msg.sender] */\n      0xffffffffffffffffffffffffffffffffffffffff\n      and\n      0xffffffffffffffffffffffffffffffffffffffff\n      and\n      dup2\n      mstore\n      0x20\n      add\n      swap1\n      dup2\n      mstore\n      0x20\n      add\n      0x00\n      keccak256\n        /* \"contracts/distribution/TombRewardPool.sol\":10110:10160  UserInfo storage user = userInfo[_pid][msg.sender] */\n      swap1\n      pop\n        /* \"contracts/distribution/TombRewardPool.sol\":10171:10186  uint256 _amount */\n      0x00\n        /* \"contracts/distribution/TombRewardPool.sol\":10189:10193  user */\n      dup2\n        /* \"contracts/distribution/TombRewardPool.sol\":10189:10200  user.amount */\n      0x00\n      add\n      sload\n        /* \"contracts/distribution/TombRewardPool.sol\":10171:10200  uint256 _amount = user.amount */\n      swap1\n      pop\n        /* \"contracts/distribution/TombRewardPool.sol\":10225:10226  0 */\n      0x00\n        /* \"contracts/distribution/TombRewardPool.sol\":10211:10215  user */\n      dup3\n        /* \"contracts/distribution/TombRewardPool.sol\":10211:10222  user.amount */\n      0x00\n      add\n        /* \"contracts/distribution/TombRewardPool.sol\":10211:10226  user.amount = 0 */\n      dup2\n      swap1\n      sstore\n      pop\n        /* \"contracts/distribution/TombRewardPool.sol\":10255:10256  0 */\n      0x00\n        /* \"contracts/distribution/TombRewardPool.sol\":10237:10241  user */\n      dup3\n        /* \"contracts/distribution/TombRewardPool.sol\":10237:10252  user.rewardDebt */\n      0x01\n      add\n        /* \"contracts/distribution/TombRewardPool.sol\":10237:10256  user.rewardDebt = 0 */\n      dup2\n      swap1\n      sstore\n      pop\n        /* \"contracts/distribution/TombRewardPool.sol\":10267:10311  pool.token.safeTransfer(msg.sender, _amount) */\n      tag_236\n        /* \"contracts/distribution/TombRewardPool.sol\":10291:10301  msg.sender */\n      caller\n        /* \"contracts/distribution/TombRewardPool.sol\":10303:10310  _amount */\n      dup3\n        /* \"contracts/distribution/TombRewardPool.sol\":10267:10271  pool */\n      dup6\n        /* \"contracts/distribution/TombRewardPool.sol\":10267:10277  pool.token */\n      0x00\n      add\n      0x00\n      swap1\n      sload\n      swap1\n      0x0100\n      exp\n      swap1\n      div\n      0xffffffffffffffffffffffffffffffffffffffff\n      and\n        /* \"contracts/distribution/TombRewardPool.sol\":10267:10290  pool.token.safeTransfer */\n      0xffffffffffffffffffffffffffffffffffffffff\n      and\n      tag_192\n      swap1\n        /* \"contracts/distribution/TombRewardPool.sol\":10267:10311  pool.token.safeTransfer(msg.sender, _amount) */\n      swap3\n      swap2\n      swap1\n      0xffffffff\n      and\n      jump\t// in\n    tag_236:\n        /* \"contracts/distribution/TombRewardPool.sol\":10357:10361  _pid */\n      dup4\n        /* \"contracts/distribution/TombRewardPool.sol\":10345:10355  msg.sender */\n      caller\n        /* \"contracts/distribution/TombRewardPool.sol\":10327:10371  EmergencyWithdraw(msg.sender, _pid, _amount) */\n      0xffffffffffffffffffffffffffffffffffffffff\n      and\n      0xbb757047c2b5f3974fe26b7c10f732e7bce710b0952a71082702781e62ae0595\n        /* \"contracts/distribution/TombRewardPool.sol\":10363:10370  _amount */\n      dup4\n        /* \"contracts/distribution/TombRewardPool.sol\":10327:10371  EmergencyWithdraw(msg.sender, _pid, _amount) */\n      mload(0x40)\n      dup1\n      dup3\n      dup2\n      mstore\n      0x20\n      add\n      swap2\n      pop\n      pop\n      mload(0x40)\n      dup1\n      swap2\n      sub\n      swap1\n      log3\n        /* \"contracts/distribution/TombRewardPool.sol\":10002:10379  function emergencyWithdraw(uint256 _pid) public {\r... */\n      pop\n      pop\n      pop\n      pop\n      jump\t// out\n        /* \"contracts/distribution/TombRewardPool.sol\":10850:11474  function governanceRecoverUnsupported(\r... */\n    tag_60:\n        /* \"contracts/owner/Operator.sol\":684:694  msg.sender */\n      caller\n        /* \"contracts/owner/Operator.sol\":671:694  _operator == msg.sender */\n      0xffffffffffffffffffffffffffffffffffffffff\n      and\n        /* \"contracts/owner/Operator.sol\":671:680  _operator */\n      0x01\n      0x00\n      swap1\n      sload\n      swap1\n      0x0100\n      exp\n      swap1\n      div\n      0xffffffffffffffffffffffffffffffffffffffff\n      and\n        /* \"contracts/owner/Operator.sol\":671:694  _operator == msg.sender */\n      0xffffffffffffffffffffffffffffffffffffffff\n      and\n      eq\n        /* \"contracts/owner/Operator.sol\":649:758  require(\r... */\n      tag_238\n      jumpi\n      mload(0x40)\n      0x08c379a000000000000000000000000000000000000000000000000000000000\n      dup2\n      mstore\n      0x04\n      add\n      dup1\n      dup1\n      0x20\n      add\n      dup3\n      dup2\n      sub\n      dup3\n      mstore\n      0x24\n      dup2\n      mstore\n      0x20\n      add\n      dup1\n      data_a62bfdba5053072911b63b0f6325b0e83fcd28b5a847d97efdd966feb4daaafb\n      0x24\n      swap2\n      codecopy\n      0x40\n      add\n      swap2\n      pop\n      pop\n      mload(0x40)\n      dup1\n      swap2\n      sub\n      swap1\n      revert\n    tag_238:\n        /* \"contracts/distribution/TombRewardPool.sol\":11039:11046  30 days */\n      0x278d00\n        /* \"contracts/distribution/TombRewardPool.sol\":11020:11033  epochEndTimes */\n      0x08\n        /* \"contracts/distribution/TombRewardPool.sol\":11034:11035  1 */\n      0x01\n        /* \"contracts/distribution/TombRewardPool.sol\":11020:11036  epochEndTimes[1] */\n      0x03\n      dup2\n      lt\n      tag_240\n      jumpi\n      invalid\n    tag_240:\n      add\n      sload\n        /* \"contracts/distribution/TombRewardPool.sol\":11020:11046  epochEndTimes[1] + 30 days */\n      add\n        /* \"contracts/distribution/TombRewardPool.sol\":11002:11017  block.timestamp */\n      timestamp\n        /* \"contracts/distribution/TombRewardPool.sol\":11002:11046  block.timestamp < epochEndTimes[1] + 30 days */\n      lt\n        /* \"contracts/distribution/TombRewardPool.sol\":10998:11425  if (block.timestamp < epochEndTimes[1] + 30 days) {\r... */\n      iszero\n      tag_242\n      jumpi\n        /* \"contracts/distribution/TombRewardPool.sol\":11160:11164  Poly */\n      0x02\n      0x00\n      swap1\n      sload\n      swap1\n      0x0100\n      exp\n      swap1\n      div\n      0xffffffffffffffffffffffffffffffffffffffff\n      and\n        /* \"contracts/distribution/TombRewardPool.sol\":11150:11164  _token != Poly */\n      0xffffffffffffffffffffffffffffffffffffffff\n      and\n        /* \"contracts/distribution/TombRewardPool.sol\":11150:11156  _token */\n      dup4\n        /* \"contracts/distribution/TombRewardPool.sol\":11150:11164  _token != Poly */\n      0xffffffffffffffffffffffffffffffffffffffff\n      and\n      eq\n      iszero\n        /* \"contracts/distribution/TombRewardPool.sol\":11142:11174  require(_token != Poly, \"!Poly\") */\n      tag_243\n      jumpi\n      mload(0x40)\n      0x08c379a000000000000000000000000000000000000000000000000000000000\n      dup2\n      mstore\n      0x04\n      add\n      dup1\n      dup1\n      0x20\n      add\n      dup3\n      dup2\n      sub\n      dup3\n      mstore\n      0x05\n      dup2\n      mstore\n      0x20\n      add\n      dup1\n      0x21506f6c79000000000000000000000000000000000000000000000000000000\n      dup2\n      mstore\n      pop\n      0x20\n      add\n      swap2\n      pop\n      pop\n      mload(0x40)\n      dup1\n      swap2\n      sub\n      swap1\n      revert\n    tag_243:\n        /* \"contracts/distribution/TombRewardPool.sol\":11189:11203  uint256 length */\n      0x00\n        /* \"contracts/distribution/TombRewardPool.sol\":11206:11214  poolInfo */\n      0x03\n        /* \"contracts/distribution/TombRewardPool.sol\":11206:11221  poolInfo.length */\n      dup1\n      sload\n      swap1\n      pop\n        /* \"contracts/distribution/TombRewardPool.sol\":11189:11221  uint256 length = poolInfo.length */\n      swap1\n      pop\n        /* \"contracts/distribution/TombRewardPool.sol\":11241:11252  uint256 pid */\n      0x00\n        /* \"contracts/distribution/TombRewardPool.sol\":11236:11414  for (uint256 pid = 0; pid < length; ++pid) {\r... */\n    tag_244:\n        /* \"contracts/distribution/TombRewardPool.sol\":11264:11270  length */\n      dup2\n        /* \"contracts/distribution/TombRewardPool.sol\":11258:11261  pid */\n      dup2\n        /* \"contracts/distribution/TombRewardPool.sol\":11258:11270  pid < length */\n      lt\n        /* \"contracts/distribution/TombRewardPool.sol\":11236:11414  for (uint256 pid = 0; pid < length; ++pid) {\r... */\n      iszero\n      tag_245\n      jumpi\n        /* \"contracts/distribution/TombRewardPool.sol\":11298:11319  PoolInfo storage pool */\n      0x00\n        /* \"contracts/distribution/TombRewardPool.sol\":11322:11330  poolInfo */\n      0x03\n        /* \"contracts/distribution/TombRewardPool.sol\":11331:11334  pid */\n      dup3\n        /* \"contracts/distribution/TombRewardPool.sol\":11322:11335  poolInfo[pid] */\n      dup2\n      sload\n      dup2\n      lt\n      tag_247\n      jumpi\n      invalid\n    tag_247:\n      swap1\n      0x00\n      mstore\n      keccak256(0x00, 0x20)\n      swap1\n      0x05\n      mul\n      add\n        /* \"contracts/distribution/TombRewardPool.sol\":11298:11335  PoolInfo storage pool = poolInfo[pid] */\n      swap1\n      pop\n        /* \"contracts/distribution/TombRewardPool.sol\":11372:11376  pool */\n      dup1\n        /* \"contracts/distribution/TombRewardPool.sol\":11372:11382  pool.token */\n      0x00\n      add\n      0x00\n      swap1\n      sload\n      swap1\n      0x0100\n      exp\n      swap1\n      div\n      0xffffffffffffffffffffffffffffffffffffffff\n      and\n        /* \"contracts/distribution/TombRewardPool.sol\":11362:11382  _token != pool.token */\n      0xffffffffffffffffffffffffffffffffffffffff\n      and\n        /* \"contracts/distribution/TombRewardPool.sol\":11362:11368  _token */\n      dup7\n        /* \"contracts/distribution/TombRewardPool.sol\":11362:11382  _token != pool.token */\n      0xffffffffffffffffffffffffffffffffffffffff\n      and\n      eq\n      iszero\n        /* \"contracts/distribution/TombRewardPool.sol\":11354:11398  require(_token != pool.token, \"!pool.token\") */\n      tag_249\n      jumpi\n      mload(0x40)\n      0x08c379a000000000000000000000000000000000000000000000000000000000\n      dup2\n      mstore\n      0x04\n      add\n      dup1\n      dup1\n      0x20\n      add\n      dup3\n      dup2\n      sub\n      dup3\n      mstore\n      0x0b\n      dup2\n      mstore\n      0x20\n      add\n      dup1\n      0x21706f6f6c2e746f6b656e000000000000000000000000000000000000000000\n      dup2\n      mstore\n      pop\n      0x20\n      add\n      swap2\n      pop\n      pop\n      mload(0x40)\n      dup1\n      swap2\n      sub\n      swap1\n      revert\n    tag_249:\n        /* \"contracts/distribution/TombRewardPool.sol\":11236:11414  for (uint256 pid = 0; pid < length; ++pid) {\r... */\n      pop\n        /* \"contracts/distribution/TombRewardPool.sol\":11272:11277  ++pid */\n      dup1\n      0x01\n      add\n      swap1\n      pop\n        /* \"contracts/distribution/TombRewardPool.sol\":11236:11414  for (uint256 pid = 0; pid < length; ++pid) {\r... */\n      jump(tag_244)\n    tag_245:\n      pop\n        /* \"contracts/distribution/TombRewardPool.sol\":10998:11425  if (block.timestamp < epochEndTimes[1] + 30 days) {\r... */\n      pop\n    tag_242:\n        /* \"contracts/distribution/TombRewardPool.sol\":11435:11466  _token.safeTransfer(to, amount) */\n      tag_250\n        /* \"contracts/distribution/TombRewardPool.sol\":11455:11457  to */\n      dup2\n        /* \"contracts/distribution/TombRewardPool.sol\":11459:11465  amount */\n      dup4\n        /* \"contracts/distribution/TombRewardPool.sol\":11435:11441  _token */\n      dup6\n        /* \"contracts/distribution/TombRewardPool.sol\":11435:11454  _token.safeTransfer */\n      0xffffffffffffffffffffffffffffffffffffffff\n      and\n      tag_192\n      swap1\n        /* \"contracts/distribution/TombRewardPool.sol\":11435:11466  _token.safeTransfer(to, amount) */\n      swap3\n      swap2\n      swap1\n      0xffffffff\n      and\n      jump\t// in\n    tag_250:\n        /* \"contracts/distribution/TombRewardPool.sol\":10850:11474  function governanceRecoverUnsupported(\r... */\n      pop\n      pop\n      pop\n      jump\t// out\n        /* \"contracts/owner/Operator.sol\":521:606  function operator() public view returns (address) {\r... */\n    tag_62:\n        /* \"contracts/owner/Operator.sol\":562:569  address */\n      0x00\n        /* \"contracts/owner/Operator.sol\":589:598  _operator */\n      0x01\n      0x00\n      swap1\n      sload\n      swap1\n      0x0100\n      exp\n      swap1\n      div\n      0xffffffffffffffffffffffffffffffffffffffff\n      and\n        /* \"contracts/owner/Operator.sol\":582:598  return _operator */\n      swap1\n      pop\n        /* \"contracts/owner/Operator.sol\":521:606  function operator() public view returns (address) {\r... */\n      swap1\n      jump\t// out\n        /* \"contracts/distribution/TombRewardPool.sol\":1635:1663  uint256 public poolStartTime */\n    tag_64:\n      sload(0x06)\n      dup2\n      jump\t// out\n        /* \"contracts/distribution/TombRewardPool.sol\":7060:7240  function massUpdatePools() public {\r... */\n    tag_66:\n        /* \"contracts/distribution/TombRewardPool.sol\":7105:7119  uint256 length */\n      0x00\n        /* \"contracts/distribution/TombRewardPool.sol\":7122:7130  poolInfo */\n      0x03\n        /* \"contracts/distribution/TombRewardPool.sol\":7122:7137  poolInfo.length */\n      dup1\n      sload\n      swap1\n      pop\n        /* \"contracts/distribution/TombRewardPool.sol\":7105:7137  uint256 length = poolInfo.length */\n      swap1\n      pop\n        /* \"contracts/distribution/TombRewardPool.sol\":7153:7164  uint256 pid */\n      0x00\n        /* \"contracts/distribution/TombRewardPool.sol\":7148:7233  for (uint256 pid = 0; pid < length; ++pid) {\r... */\n    tag_253:\n        /* \"contracts/distribution/TombRewardPool.sol\":7176:7182  length */\n      dup2\n        /* \"contracts/distribution/TombRewardPool.sol\":7170:7173  pid */\n      dup2\n        /* \"contracts/distribution/TombRewardPool.sol\":7170:7182  pid < length */\n      lt\n        /* \"contracts/distribution/TombRewardPool.sol\":7148:7233  for (uint256 pid = 0; pid < length; ++pid) {\r... */\n      iszero\n      tag_254\n      jumpi\n        /* \"contracts/distribution/TombRewardPool.sol\":7206:7221  updatePool(pid) */\n      tag_256\n        /* \"contracts/distribution/TombRewardPool.sol\":7217:7220  pid */\n      dup2\n        /* \"contracts/distribution/TombRewardPool.sol\":7206:7216  updatePool */\n      tag_54\n        /* \"contracts/distribution/TombRewardPool.sol\":7206:7221  updatePool(pid) */\n      jump\t// in\n    tag_256:\n        /* \"contracts/distribution/TombRewardPool.sol\":7184:7189  ++pid */\n      dup1\n      0x01\n      add\n      swap1\n      pop\n        /* \"contracts/distribution/TombRewardPool.sol\":7148:7233  for (uint256 pid = 0; pid < length; ++pid) {\r... */\n      jump(tag_253)\n    tag_254:\n      pop\n        /* \"contracts/distribution/TombRewardPool.sol\":7060:7240  function massUpdatePools() public {\r... */\n      pop\n      jump\t// out\n        /* \"@openzeppelin/contracts/access/Ownable.sol\":1771:1916  function renounceOwnership() public virtual onlyOwner {... */\n    tag_68:\n        /* \"@openzeppelin/contracts/access/Ownable.sol\":1362:1374  _msgSender() */\n      tag_258\n        /* \"@openzeppelin/contracts/access/Ownable.sol\":1362:1372  _msgSender */\n      tag_172\n        /* \"@openzeppelin/contracts/access/Ownable.sol\":1362:1374  _msgSender() */\n      jump\t// in\n    tag_258:\n        /* \"@openzeppelin/contracts/access/Ownable.sol\":1351:1374  owner() == _msgSender() */\n      0xffffffffffffffffffffffffffffffffffffffff\n      and\n        /* \"@openzeppelin/contracts/access/Ownable.sol\":1351:1358  owner() */\n      tag_259\n        /* \"@openzeppelin/contracts/access/Ownable.sol\":1351:1356  owner */\n      tag_70\n        /* \"@openzeppelin/contracts/access/Ownable.sol\":1351:1358  owner() */\n      jump\t// in\n    tag_259:\n        /* \"@openzeppelin/contracts/access/Ownable.sol\":1351:1374  owner() == _msgSender() */\n      0xffffffffffffffffffffffffffffffffffffffff\n      and\n      eq\n        /* \"@openzeppelin/contracts/access/Ownable.sol\":1343:1411  require(owner() == _msgSender(), \"Ownable: caller is not the owner\") */\n      tag_260\n      jumpi\n      mload(0x40)\n      0x08c379a000000000000000000000000000000000000000000000000000000000\n      dup2\n      mstore\n      0x04\n      add\n      dup1\n      dup1\n      0x20\n      add\n      dup3\n      dup2\n      sub\n      dup3\n      mstore\n      0x20\n      dup2\n      mstore\n      0x20\n      add\n      dup1\n      0x4f776e61626c653a2063616c6c6572206973206e6f7420746865206f776e6572\n      dup2\n      mstore\n      pop\n      0x20\n      add\n      swap2\n      pop\n      pop\n      mload(0x40)\n      dup1\n      swap2\n      sub\n      swap1\n      revert\n    tag_260:\n        /* \"@openzeppelin/contracts/access/Ownable.sol\":1877:1878  0 */\n      0x00\n        /* \"@openzeppelin/contracts/access/Ownable.sol\":1840:1880  OwnershipTransferred(_owner, address(0)) */\n      0xffffffffffffffffffffffffffffffffffffffff\n      and\n        /* \"@openzeppelin/contracts/access/Ownable.sol\":1861:1867  _owner */\n      0x00\n      dup1\n      sload\n      swap1\n      0x0100\n      exp\n      swap1\n      div\n      0xffffffffffffffffffffffffffffffffffffffff\n      and\n        /* \"@openzeppelin/contracts/access/Ownable.sol\":1840:1880  OwnershipTransferred(_owner, address(0)) */\n      0xffffffffffffffffffffffffffffffffffffffff\n      and\n      0x8be0079c531659141344cd1fd0a4f28419497f9722a3daafe3b4186f6b6457e0\n      mload(0x40)\n      mload(0x40)\n      dup1\n      swap2\n      sub\n      swap1\n      log3\n        /* \"@openzeppelin/contracts/access/Ownable.sol\":1907:1908  0 */\n      0x00\n        /* \"@openzeppelin/contracts/access/Ownable.sol\":1890:1896  _owner */\n      dup1\n      0x00\n        /* \"@openzeppelin/contracts/access/Ownable.sol\":1890:1909  _owner = address(0) */\n      0x0100\n      exp\n      dup2\n      sload\n      dup2\n      0xffffffffffffffffffffffffffffffffffffffff\n      mul\n      not\n      and\n      swap1\n      dup4\n      0xffffffffffffffffffffffffffffffffffffffff\n      and\n      mul\n      or\n      swap1\n      sstore\n      pop\n        /* \"@openzeppelin/contracts/access/Ownable.sol\":1771:1916  function renounceOwnership() public virtual onlyOwner {... */\n      jump\t// out\n        /* \"@openzeppelin/contracts/access/Ownable.sol\":1139:1224  function owner() public view virtual returns (address) {... */\n    tag_70:\n        /* \"@openzeppelin/contracts/access/Ownable.sol\":1185:1192  address */\n      0x00\n        /* \"@openzeppelin/contracts/access/Ownable.sol\":1211:1217  _owner */\n      dup1\n      0x00\n      swap1\n      sload\n      swap1\n      0x0100\n      exp\n      swap1\n      div\n      0xffffffffffffffffffffffffffffffffffffffff\n      and\n        /* \"@openzeppelin/contracts/access/Ownable.sol\":1204:1217  return _owner */\n      swap1\n      pop\n        /* \"@openzeppelin/contracts/access/Ownable.sol\":1139:1224  function owner() public view virtual returns (address) {... */\n      swap1\n      jump\t// out\n        /* \"contracts/distribution/TombRewardPool.sol\":1389:1453  mapping(uint256 => mapping(address => UserInfo)) public userInfo */\n    tag_73:\n      mstore(0x20, 0x04)\n      dup2\n      0x00\n      mstore\n      mstore(0x20, keccak256(0x00, 0x40))\n      dup1\n      0x00\n      mstore\n      keccak256(0x00, 0x40)\n      0x00\n      swap2\n      pop\n      swap2\n      pop\n      pop\n      dup1\n      0x00\n      add\n      sload\n      swap1\n      dup1\n      0x01\n      add\n      sload\n      swap1\n      pop\n      dup3\n      jump\t// out\n        /* \"contracts/distribution/TombRewardPool.sol\":3141:4314  function add(\r... */\n    tag_76:\n        /* \"contracts/owner/Operator.sol\":684:694  msg.sender */\n      caller\n        /* \"contracts/owner/Operator.sol\":671:694  _operator == msg.sender */\n      0xffffffffffffffffffffffffffffffffffffffff\n      and\n        /* \"contracts/owner/Operator.sol\":671:680  _operator */\n      0x01\n      0x00\n      swap1\n      sload\n      swap1\n      0x0100\n      exp\n      swap1\n      div\n      0xffffffffffffffffffffffffffffffffffffffff\n      and\n        /* \"contracts/owner/Operator.sol\":671:694  _operator == msg.sender */\n      0xffffffffffffffffffffffffffffffffffffffff\n      and\n      eq\n        /* \"contracts/owner/Operator.sol\":649:758  require(\r... */\n      tag_264\n      jumpi\n      mload(0x40)\n      0x08c379a000000000000000000000000000000000000000000000000000000000\n      dup2\n      mstore\n      0x04\n      add\n      dup1\n      dup1\n      0x20\n      add\n      dup3\n      dup2\n      sub\n      dup3\n      mstore\n      0x24\n      dup2\n      mstore\n      0x20\n      add\n      dup1\n      data_a62bfdba5053072911b63b0f6325b0e83fcd28b5a847d97efdd966feb4daaafb\n      0x24\n      swap2\n      codecopy\n      0x40\n      add\n      swap2\n      pop\n      pop\n      mload(0x40)\n      dup1\n      swap2\n      sub\n      swap1\n      revert\n    tag_264:\n        /* \"contracts/distribution/TombRewardPool.sol\":3307:3333  checkPoolDuplicate(_token) */\n      tag_266\n        /* \"contracts/distribution/TombRewardPool.sol\":3326:3332  _token */\n      dup4\n        /* \"contracts/distribution/TombRewardPool.sol\":3307:3325  checkPoolDuplicate */\n      tag_267\n        /* \"contracts/distribution/TombRewardPool.sol\":3307:3333  checkPoolDuplicate(_token) */\n      jump\t// in\n    tag_266:\n        /* \"contracts/distribution/TombRewardPool.sol\":3348:3359  _withUpdate */\n      dup2\n        /* \"contracts/distribution/TombRewardPool.sol\":3344:3405  if (_withUpdate) {\r... */\n      iszero\n      tag_268\n      jumpi\n        /* \"contracts/distribution/TombRewardPool.sol\":3376:3393  massUpdatePools() */\n      tag_269\n        /* \"contracts/distribution/TombRewardPool.sol\":3376:3391  massUpdatePools */\n      tag_66\n        /* \"contracts/distribution/TombRewardPool.sol\":3376:3393  massUpdatePools() */\n      jump\t// in\n    tag_269:\n        /* \"contracts/distribution/TombRewardPool.sol\":3344:3405  if (_withUpdate) {\r... */\n    tag_268:\n        /* \"contracts/distribution/TombRewardPool.sol\":3437:3450  poolStartTime */\n      sload(0x06)\n        /* \"contracts/distribution/TombRewardPool.sol\":3419:3434  block.timestamp */\n      timestamp\n        /* \"contracts/distribution/TombRewardPool.sol\":3419:3450  block.timestamp < poolStartTime */\n      lt\n        /* \"contracts/distribution/TombRewardPool.sol\":3415:3949  if (block.timestamp < poolStartTime) {\r... */\n      iszero\n      tag_270\n      jumpi\n        /* \"contracts/distribution/TombRewardPool.sol\":3523:3524  0 */\n      0x00\n        /* \"contracts/distribution/TombRewardPool.sol\":3504:3519  _lastRewardTime */\n      dup2\n        /* \"contracts/distribution/TombRewardPool.sol\":3504:3524  _lastRewardTime == 0 */\n      eq\n        /* \"contracts/distribution/TombRewardPool.sol\":3500:3743  if (_lastRewardTime == 0) {\r... */\n      iszero\n      tag_271\n      jumpi\n        /* \"contracts/distribution/TombRewardPool.sol\":3563:3576  poolStartTime */\n      sload(0x06)\n        /* \"contracts/distribution/TombRewardPool.sol\":3545:3576  _lastRewardTime = poolStartTime */\n      swap1\n      pop\n        /* \"contracts/distribution/TombRewardPool.sol\":3500:3743  if (_lastRewardTime == 0) {\r... */\n      jump(tag_272)\n    tag_271:\n        /* \"contracts/distribution/TombRewardPool.sol\":3639:3652  poolStartTime */\n      sload(0x06)\n        /* \"contracts/distribution/TombRewardPool.sol\":3621:3636  _lastRewardTime */\n      dup2\n        /* \"contracts/distribution/TombRewardPool.sol\":3621:3652  _lastRewardTime < poolStartTime */\n      lt\n        /* \"contracts/distribution/TombRewardPool.sol\":3617:3728  if (_lastRewardTime < poolStartTime) {\r... */\n      iszero\n      tag_273\n      jumpi\n        /* \"contracts/distribution/TombRewardPool.sol\":3695:3708  poolStartTime */\n      sload(0x06)\n        /* \"contracts/distribution/TombRewardPool.sol\":3677:3708  _lastRewardTime = poolStartTime */\n      swap1\n      pop\n        /* \"contracts/distribution/TombRewardPool.sol\":3617:3728  if (_lastRewardTime < poolStartTime) {\r... */\n    tag_273:\n        /* \"contracts/distribution/TombRewardPool.sol\":3500:3743  if (_lastRewardTime == 0) {\r... */\n    tag_272:\n        /* \"contracts/distribution/TombRewardPool.sol\":3415:3949  if (block.timestamp < poolStartTime) {\r... */\n      jump(tag_274)\n    tag_270:\n        /* \"contracts/distribution/TombRewardPool.sol\":3830:3831  0 */\n      0x00\n        /* \"contracts/distribution/TombRewardPool.sol\":3811:3826  _lastRewardTime */\n      dup2\n        /* \"contracts/distribution/TombRewardPool.sol\":3811:3831  _lastRewardTime == 0 */\n      eq\n        /* \"contracts/distribution/TombRewardPool.sol\":3811:3868  _lastRewardTime == 0 || _lastRewardTime < block.timestamp */\n      dup1\n      tag_275\n      jumpi\n      pop\n        /* \"contracts/distribution/TombRewardPool.sol\":3853:3868  block.timestamp */\n      timestamp\n        /* \"contracts/distribution/TombRewardPool.sol\":3835:3850  _lastRewardTime */\n      dup2\n        /* \"contracts/distribution/TombRewardPool.sol\":3835:3868  _lastRewardTime < block.timestamp */\n      lt\n        /* \"contracts/distribution/TombRewardPool.sol\":3811:3868  _lastRewardTime == 0 || _lastRewardTime < block.timestamp */\n    tag_275:\n        /* \"contracts/distribution/TombRewardPool.sol\":3807:3938  if (_lastRewardTime == 0 || _lastRewardTime < block.timestamp) {\r... */\n      iszero\n      tag_276\n      jumpi\n        /* \"contracts/distribution/TombRewardPool.sol\":3907:3922  block.timestamp */\n      timestamp\n        /* \"contracts/distribution/TombRewardPool.sol\":3889:3922  _lastRewardTime = block.timestamp */\n      swap1\n      pop\n        /* \"contracts/distribution/TombRewardPool.sol\":3807:3938  if (_lastRewardTime == 0 || _lastRewardTime < block.timestamp) {\r... */\n    tag_276:\n        /* \"contracts/distribution/TombRewardPool.sol\":3415:3949  if (block.timestamp < poolStartTime) {\r... */\n    tag_274:\n        /* \"contracts/distribution/TombRewardPool.sol\":3959:3974  bool _isStarted */\n      0x00\n        /* \"contracts/distribution/TombRewardPool.sol\":3997:4010  poolStartTime */\n      sload(0x06)\n        /* \"contracts/distribution/TombRewardPool.sol\":3978:3993  _lastRewardTime */\n      dup3\n        /* \"contracts/distribution/TombRewardPool.sol\":3978:4010  _lastRewardTime <= poolStartTime */\n      gt\n      iszero\n        /* \"contracts/distribution/TombRewardPool.sol\":3977:4051  (_lastRewardTime <= poolStartTime) || (_lastRewardTime <= block.timestamp) */\n      dup1\n      tag_277\n      jumpi\n      pop\n        /* \"contracts/distribution/TombRewardPool.sol\":4035:4050  block.timestamp */\n      timestamp\n        /* \"contracts/distribution/TombRewardPool.sol\":4016:4031  _lastRewardTime */\n      dup3\n        /* \"contracts/distribution/TombRewardPool.sol\":4016:4050  _lastRewardTime <= block.timestamp */\n      gt\n      iszero\n        /* \"contracts/distribution/TombRewardPool.sol\":3977:4051  (_lastRewardTime <= poolStartTime) || (_lastRewardTime <= block.timestamp) */\n    tag_277:\n        /* \"contracts/distribution/TombRewardPool.sol\":3959:4051  bool _isStarted = (_lastRewardTime <= poolStartTime) || (_lastRewardTime <= block.timestamp) */\n      swap1\n      pop\n        /* \"contracts/distribution/TombRewardPool.sol\":4062:4070  poolInfo */\n      0x03\n        /* \"contracts/distribution/TombRewardPool.sol\":4076:4202  PoolInfo({token: _token, allocPoint: _allocPoint, lastRewardTime: _lastRewardTime, accPolyPerShare: 0, isStarted: _isStarted}) */\n      mload(0x40)\n      dup1\n      0xa0\n      add\n      0x40\n      mstore\n      dup1\n        /* \"contracts/distribution/TombRewardPool.sol\":4093:4099  _token */\n      dup7\n        /* \"contracts/distribution/TombRewardPool.sol\":4076:4202  PoolInfo({token: _token, allocPoint: _allocPoint, lastRewardTime: _lastRewardTime, accPolyPerShare: 0, isStarted: _isStarted}) */\n      0xffffffffffffffffffffffffffffffffffffffff\n      and\n      dup2\n      mstore\n      0x20\n      add\n        /* \"contracts/distribution/TombRewardPool.sol\":4113:4124  _allocPoint */\n      dup8\n        /* \"contracts/distribution/TombRewardPool.sol\":4076:4202  PoolInfo({token: _token, allocPoint: _allocPoint, lastRewardTime: _lastRewardTime, accPolyPerShare: 0, isStarted: _isStarted}) */\n      dup2\n      mstore\n      0x20\n      add\n        /* \"contracts/distribution/TombRewardPool.sol\":4142:4157  _lastRewardTime */\n      dup5\n        /* \"contracts/distribution/TombRewardPool.sol\":4076:4202  PoolInfo({token: _token, allocPoint: _allocPoint, lastRewardTime: _lastRewardTime, accPolyPerShare: 0, isStarted: _isStarted}) */\n      dup2\n      mstore\n      0x20\n      add\n        /* \"contracts/distribution/TombRewardPool.sol\":4176:4177  0 */\n      0x00\n        /* \"contracts/distribution/TombRewardPool.sol\":4076:4202  PoolInfo({token: _token, allocPoint: _allocPoint, lastRewardTime: _lastRewardTime, accPolyPerShare: 0, isStarted: _isStarted}) */\n      dup2\n      mstore\n      0x20\n      add\n        /* \"contracts/distribution/TombRewardPool.sol\":4190:4200  _isStarted */\n      dup4\n        /* \"contracts/distribution/TombRewardPool.sol\":4076:4202  PoolInfo({token: _token, allocPoint: _allocPoint, lastRewardTime: _lastRewardTime, accPolyPerShare: 0, isStarted: _isStarted}) */\n      iszero\n      iszero\n      dup2\n      mstore\n      pop\n        /* \"contracts/distribution/TombRewardPool.sol\":4062:4203  poolInfo.push(PoolInfo({token: _token, allocPoint: _allocPoint, lastRewardTime: _lastRewardTime, accPolyPerShare: 0, isStarted: _isStarted})) */\n      swap1\n      dup1\n      0x01\n      dup2\n      sload\n      add\n      dup1\n      dup3\n      sstore\n      dup1\n      swap2\n      pop\n      pop\n      0x01\n      swap1\n      sub\n      swap1\n      0x00\n      mstore\n      keccak256(0x00, 0x20)\n      swap1\n      0x05\n      mul\n      add\n      0x00\n      swap1\n      swap2\n      swap1\n      swap2\n      swap1\n      swap2\n      pop\n      0x00\n      dup3\n      add\n      mload\n      dup2\n      0x00\n      add\n      exp(0x0100, 0x00)\n      dup2\n      sload\n      dup2\n      0xffffffffffffffffffffffffffffffffffffffff\n      mul\n      not\n      and\n      swap1\n      dup4\n      0xffffffffffffffffffffffffffffffffffffffff\n      and\n      mul\n      or\n      swap1\n      sstore\n      pop\n      0x20\n      dup3\n      add\n      mload\n      dup2\n      0x01\n      add\n      sstore\n      0x40\n      dup3\n      add\n      mload\n      dup2\n      0x02\n      add\n      sstore\n      0x60\n      dup3\n      add\n      mload\n      dup2\n      0x03\n      add\n      sstore\n      0x80\n      dup3\n      add\n      mload\n      dup2\n      0x04\n      add\n      exp(0x0100, 0x00)\n      dup2\n      sload\n      dup2\n      0xff\n      mul\n      not\n      and\n      swap1\n      dup4\n      iszero\n      iszero\n      mul\n      or\n      swap1\n      sstore\n      pop\n      pop\n      pop\n        /* \"contracts/distribution/TombRewardPool.sol\":4218:4228  _isStarted */\n      dup1\n        /* \"contracts/distribution/TombRewardPool.sol\":4214:4307  if (_isStarted) {\r... */\n      iszero\n      tag_279\n      jumpi\n        /* \"contracts/distribution/TombRewardPool.sol\":4263:4295  totalAllocPoint.add(_allocPoint) */\n      tag_280\n        /* \"contracts/distribution/TombRewardPool.sol\":4283:4294  _allocPoint */\n      dup6\n        /* \"contracts/distribution/TombRewardPool.sol\":4263:4278  totalAllocPoint */\n      sload(0x05)\n        /* \"contracts/distribution/TombRewardPool.sol\":4263:4282  totalAllocPoint.add */\n      tag_107\n      swap1\n        /* \"contracts/distribution/TombRewardPool.sol\":4263:4295  totalAllocPoint.add(_allocPoint) */\n      swap2\n      swap1\n      0xffffffff\n      and\n      jump\t// in\n    tag_280:\n        /* \"contracts/distribution/TombRewardPool.sol\":4245:4260  totalAllocPoint */\n      0x05\n        /* \"contracts/distribution/TombRewardPool.sol\":4245:4295  totalAllocPoint = totalAllocPoint.add(_allocPoint) */\n      dup2\n      swap1\n      sstore\n      pop\n        /* \"contracts/distribution/TombRewardPool.sol\":4214:4307  if (_isStarted) {\r... */\n    tag_279:\n        /* \"contracts/owner/Operator.sol\":769:770  _ */\n      pop\n        /* \"contracts/distribution/TombRewardPool.sol\":3141:4314  function add(\r... */\n      pop\n      pop\n      pop\n      pop\n      jump\t// out\n        /* \"contracts/distribution/TombRewardPool.sol\":1672:1735  uint256[] public epochTotalRewards = [80000 ether, 60000 ether] */\n    tag_79:\n      0x07\n      dup2\n      dup2\n      sload\n      dup2\n      lt\n      tag_281\n      jumpi\n      0x00\n      dup1\n      revert\n    tag_281:\n      swap1\n      0x00\n      mstore\n      keccak256(0x00, 0x20)\n      add\n      0x00\n      swap2\n      pop\n      swap1\n      pop\n      sload\n      dup2\n      jump\t// out\n        /* \"contracts/distribution/TombRewardPool.sol\":1779:1810  uint256[3] public epochEndTimes */\n    tag_82:\n      0x08\n      dup2\n      0x03\n      dup2\n      lt\n      tag_283\n      jumpi\n      0x00\n      dup1\n      revert\n    tag_283:\n      add\n      0x00\n      swap2\n      pop\n      swap1\n      pop\n      sload\n      dup2\n      jump\t// out\n        /* \"contracts/distribution/TombRewardPool.sol\":1251:1269  IERC20 public Poly */\n    tag_84:\n      0x02\n      0x00\n      swap1\n      sload\n      swap1\n      0x0100\n      exp\n      swap1\n      div\n      0xffffffffffffffffffffffffffffffffffffffff\n      and\n      dup2\n      jump\t// out\n        /* \"contracts/distribution/TombRewardPool.sol\":8259:9085  function deposit(uint256 _pid, uint256 _amount) public {\r... */\n    tag_87:\n        /* \"contracts/distribution/TombRewardPool.sol\":8325:8340  address _sender */\n      0x00\n        /* \"contracts/distribution/TombRewardPool.sol\":8343:8353  msg.sender */\n      caller\n        /* \"contracts/distribution/TombRewardPool.sol\":8325:8353  address _sender = msg.sender */\n      swap1\n      pop\n        /* \"contracts/distribution/TombRewardPool.sol\":8364:8385  PoolInfo storage pool */\n      0x00\n        /* \"contracts/distribution/TombRewardPool.sol\":8388:8396  poolInfo */\n      0x03\n        /* \"contracts/distribution/TombRewardPool.sol\":8397:8401  _pid */\n      dup5\n        /* \"contracts/distribution/TombRewardPool.sol\":8388:8402  poolInfo[_pid] */\n      dup2\n      sload\n      dup2\n      lt\n      tag_286\n      jumpi\n      invalid\n    tag_286:\n      swap1\n      0x00\n      mstore\n      keccak256(0x00, 0x20)\n      swap1\n      0x05\n      mul\n      add\n        /* \"contracts/distribution/TombRewardPool.sol\":8364:8402  PoolInfo storage pool = poolInfo[_pid] */\n      swap1\n      pop\n        /* \"contracts/distribution/TombRewardPool.sol\":8413:8434  UserInfo storage user */\n      0x00\n        /* \"contracts/distribution/TombRewardPool.sol\":8437:8445  userInfo */\n      0x04\n        /* \"contracts/distribution/TombRewardPool.sol\":8437:8451  userInfo[_pid] */\n      0x00\n        /* \"contracts/distribution/TombRewardPool.sol\":8446:8450  _pid */\n      dup7\n        /* \"contracts/distribution/TombRewardPool.sol\":8437:8451  userInfo[_pid] */\n      dup2\n      mstore\n      0x20\n      add\n      swap1\n      dup2\n      mstore\n      0x20\n      add\n      0x00\n      keccak256\n        /* \"contracts/distribution/TombRewardPool.sol\":8437:8460  userInfo[_pid][_sender] */\n      0x00\n        /* \"contracts/distribution/TombRewardPool.sol\":8452:8459  _sender */\n      dup5\n        /* \"contracts/distribution/TombRewardPool.sol\":8437:8460  userInfo[_pid][_sender] */\n      0xffffffffffffffffffffffffffffffffffffffff\n      and\n      0xffffffffffffffffffffffffffffffffffffffff\n      and\n      dup2\n      mstore\n      0x20\n      add\n      swap1\n      dup2\n      mstore\n      0x20\n      add\n      0x00\n      keccak256\n        /* \"contracts/distribution/TombRewardPool.sol\":8413:8460  UserInfo storage user = userInfo[_pid][_sender] */\n      swap1\n      pop\n        /* \"contracts/distribution/TombRewardPool.sol\":8471:8487  updatePool(_pid) */\n      tag_288\n        /* \"contracts/distribution/TombRewardPool.sol\":8482:8486  _pid */\n      dup6\n        /* \"contracts/distribution/TombRewardPool.sol\":8471:8481  updatePool */\n      tag_54\n        /* \"contracts/distribution/TombRewardPool.sol\":8471:8487  updatePool(_pid) */\n      jump\t// in\n    tag_288:\n        /* \"contracts/distribution/TombRewardPool.sol\":8516:8517  0 */\n      0x00\n        /* \"contracts/distribution/TombRewardPool.sol\":8502:8506  user */\n      dup2\n        /* \"contracts/distribution/TombRewardPool.sol\":8502:8513  user.amount */\n      0x00\n      add\n      sload\n        /* \"contracts/distribution/TombRewardPool.sol\":8502:8517  user.amount > 0 */\n      gt\n        /* \"contracts/distribution/TombRewardPool.sol\":8498:8788  if (user.amount > 0) {\r... */\n      iszero\n      tag_289\n      jumpi\n        /* \"contracts/distribution/TombRewardPool.sol\":8534:8550  uint256 _pending */\n      0x00\n        /* \"contracts/distribution/TombRewardPool.sol\":8553:8621  user.amount.mul(pool.accPolyPerShare).div(1e18).sub(user.rewardDebt) */\n      tag_290\n        /* \"contracts/distribution/TombRewardPool.sol\":8605:8609  user */\n      dup3\n        /* \"contracts/distribution/TombRewardPool.sol\":8605:8620  user.rewardDebt */\n      0x01\n      add\n      sload\n        /* \"contracts/distribution/TombRewardPool.sol\":8553:8600  user.amount.mul(pool.accPolyPerShare).div(1e18) */\n      tag_291\n        /* \"contracts/distribution/TombRewardPool.sol\":8595:8599  1e18 */\n      0x0de0b6b3a7640000\n        /* \"contracts/distribution/TombRewardPool.sol\":8553:8590  user.amount.mul(pool.accPolyPerShare) */\n      tag_292\n        /* \"contracts/distribution/TombRewardPool.sol\":8569:8573  pool */\n      dup8\n        /* \"contracts/distribution/TombRewardPool.sol\":8569:8589  pool.accPolyPerShare */\n      0x03\n      add\n      sload\n        /* \"contracts/distribution/TombRewardPool.sol\":8553:8557  user */\n      dup8\n        /* \"contracts/distribution/TombRewardPool.sol\":8553:8564  user.amount */\n      0x00\n      add\n      sload\n        /* \"contracts/distribution/TombRewardPool.sol\":8553:8568  user.amount.mul */\n      tag_122\n      swap1\n        /* \"contracts/distribution/TombRewardPool.sol\":8553:8590  user.amount.mul(pool.accPolyPerShare) */\n      swap2\n      swap1\n      0xffffffff\n      and\n      jump\t// in\n    tag_292:\n        /* \"contracts/distribution/TombRewardPool.sol\":8553:8594  user.amount.mul(pool.accPolyPerShare).div */\n      tag_94\n      swap1\n        /* \"contracts/distribution/TombRewardPool.sol\":8553:8600  user.amount.mul(pool.accPolyPerShare).div(1e18) */\n      swap2\n      swap1\n      0xffffffff\n      and\n      jump\t// in\n    tag_291:\n        /* \"contracts/distribution/TombRewardPool.sol\":8553:8604  user.amount.mul(pool.accPolyPerShare).div(1e18).sub */\n      tag_106\n      swap1\n        /* \"contracts/distribution/TombRewardPool.sol\":8553:8621  user.amount.mul(pool.accPolyPerShare).div(1e18).sub(user.rewardDebt) */\n      swap2\n      swap1\n      0xffffffff\n      and\n      jump\t// in\n    tag_290:\n        /* \"contracts/distribution/TombRewardPool.sol\":8534:8621  uint256 _pending = user.amount.mul(pool.accPolyPerShare).div(1e18).sub(user.rewardDebt) */\n      swap1\n      pop\n        /* \"contracts/distribution/TombRewardPool.sol\":8651:8652  0 */\n      0x00\n        /* \"contracts/distribution/TombRewardPool.sol\":8640:8648  _pending */\n      dup2\n        /* \"contracts/distribution/TombRewardPool.sol\":8640:8652  _pending > 0 */\n      gt\n        /* \"contracts/distribution/TombRewardPool.sol\":8636:8777  if (_pending > 0) {\r... */\n      iszero\n      tag_293\n      jumpi\n        /* \"contracts/distribution/TombRewardPool.sol\":8673:8708  safePolyTransfer(_sender, _pending) */\n      tag_294\n        /* \"contracts/distribution/TombRewardPool.sol\":8690:8697  _sender */\n      dup5\n        /* \"contracts/distribution/TombRewardPool.sol\":8699:8707  _pending */\n      dup3\n        /* \"contracts/distribution/TombRewardPool.sol\":8673:8689  safePolyTransfer */\n      tag_188\n        /* \"contracts/distribution/TombRewardPool.sol\":8673:8708  safePolyTransfer(_sender, _pending) */\n      jump\t// in\n    tag_294:\n        /* \"contracts/distribution/TombRewardPool.sol\":8743:8750  _sender */\n      dup4\n        /* \"contracts/distribution/TombRewardPool.sol\":8732:8761  RewardPaid(_sender, _pending) */\n      0xffffffffffffffffffffffffffffffffffffffff\n      and\n      0xe2403640ba68fed3a2f88b7557551d1993f84b99bb10ff833f0cf8db0c5e0486\n        /* \"contracts/distribution/TombRewardPool.sol\":8752:8760  _pending */\n      dup3\n        /* \"contracts/distribution/TombRewardPool.sol\":8732:8761  RewardPaid(_sender, _pending) */\n      mload(0x40)\n      dup1\n      dup3\n      dup2\n      mstore\n      0x20\n      add\n      swap2\n      pop\n      pop\n      mload(0x40)\n      dup1\n      swap2\n      sub\n      swap1\n      log2\n        /* \"contracts/distribution/TombRewardPool.sol\":8636:8777  if (_pending > 0) {\r... */\n    tag_293:\n        /* \"contracts/distribution/TombRewardPool.sol\":8498:8788  if (user.amount > 0) {\r... */\n      pop\n    tag_289:\n        /* \"contracts/distribution/TombRewardPool.sol\":8812:8813  0 */\n      0x00\n        /* \"contracts/distribution/TombRewardPool.sol\":8802:8809  _amount */\n      dup5\n        /* \"contracts/distribution/TombRewardPool.sol\":8802:8813  _amount > 0 */\n      gt\n        /* \"contracts/distribution/TombRewardPool.sol\":8798:8955  if (_amount > 0) {\r... */\n      iszero\n      tag_295\n      jumpi\n        /* \"contracts/distribution/TombRewardPool.sol\":8830:8890  pool.token.safeTransferFrom(_sender, address(this), _amount) */\n      tag_296\n        /* \"contracts/distribution/TombRewardPool.sol\":8858:8865  _sender */\n      dup4\n        /* \"contracts/distribution/TombRewardPool.sol\":8875:8879  this */\n      address\n        /* \"contracts/distribution/TombRewardPool.sol\":8882:8889  _amount */\n      dup7\n        /* \"contracts/distribution/TombRewardPool.sol\":8830:8834  pool */\n      dup6\n        /* \"contracts/distribution/TombRewardPool.sol\":8830:8840  pool.token */\n      0x00\n      add\n      0x00\n      swap1\n      sload\n      swap1\n      0x0100\n      exp\n      swap1\n      div\n      0xffffffffffffffffffffffffffffffffffffffff\n      and\n        /* \"contracts/distribution/TombRewardPool.sol\":8830:8857  pool.token.safeTransferFrom */\n      0xffffffffffffffffffffffffffffffffffffffff\n      and\n      tag_297\n      swap1\n        /* \"contracts/distribution/TombRewardPool.sol\":8830:8890  pool.token.safeTransferFrom(_sender, address(this), _amount) */\n      swap4\n      swap3\n      swap2\n      swap1\n      0xffffffff\n      and\n      jump\t// in\n    tag_296:\n        /* \"contracts/distribution/TombRewardPool.sol\":8919:8943  user.amount.add(_amount) */\n      tag_298\n        /* \"contracts/distribution/TombRewardPool.sol\":8935:8942  _amount */\n      dup5\n        /* \"contracts/distribution/TombRewardPool.sol\":8919:8923  user */\n      dup3\n        /* \"contracts/distribution/TombRewardPool.sol\":8919:8930  user.amount */\n      0x00\n      add\n      sload\n        /* \"contracts/distribution/TombRewardPool.sol\":8919:8934  user.amount.add */\n      tag_107\n      swap1\n        /* \"contracts/distribution/TombRewardPool.sol\":8919:8943  user.amount.add(_amount) */\n      swap2\n      swap1\n      0xffffffff\n      and\n      jump\t// in\n    tag_298:\n        /* \"contracts/distribution/TombRewardPool.sol\":8905:8909  user */\n      dup2\n        /* \"contracts/distribution/TombRewardPool.sol\":8905:8916  user.amount */\n      0x00\n      add\n        /* \"contracts/distribution/TombRewardPool.sol\":8905:8943  user.amount = user.amount.add(_amount) */\n      dup2\n      swap1\n      sstore\n      pop\n        /* \"contracts/distribution/TombRewardPool.sol\":8798:8955  if (_amount > 0) {\r... */\n    tag_295:\n        /* \"contracts/distribution/TombRewardPool.sol\":8983:9030  user.amount.mul(pool.accPolyPerShare).div(1e18) */\n      tag_299\n        /* \"contracts/distribution/TombRewardPool.sol\":9025:9029  1e18 */\n      0x0de0b6b3a7640000\n        /* \"contracts/distribution/TombRewardPool.sol\":8983:9020  user.amount.mul(pool.accPolyPerShare) */\n      tag_300\n        /* \"contracts/distribution/TombRewardPool.sol\":8999:9003  pool */\n      dup5\n        /* \"contracts/distribution/TombRewardPool.sol\":8999:9019  pool.accPolyPerShare */\n      0x03\n      add\n      sload\n        /* \"contracts/distribution/TombRewardPool.sol\":8983:8987  user */\n      dup5\n        /* \"contracts/distribution/TombRewardPool.sol\":8983:8994  user.amount */\n      0x00\n      add\n      sload\n        /* \"contracts/distribution/TombRewardPool.sol\":8983:8998  user.amount.mul */\n      tag_122\n      swap1\n        /* \"contracts/distribution/TombRewardPool.sol\":8983:9020  user.amount.mul(pool.accPolyPerShare) */\n      swap2\n      swap1\n      0xffffffff\n      and\n      jump\t// in\n    tag_300:\n        /* \"contracts/distribution/TombRewardPool.sol\":8983:9024  user.amount.mul(pool.accPolyPerShare).div */\n      tag_94\n      swap1\n        /* \"contracts/distribution/TombRewardPool.sol\":8983:9030  user.amount.mul(pool.accPolyPerShare).div(1e18) */\n      swap2\n      swap1\n      0xffffffff\n      and\n      jump\t// in\n    tag_299:\n        /* \"contracts/distribution/TombRewardPool.sol\":8965:8969  user */\n      dup2\n        /* \"contracts/distribution/TombRewardPool.sol\":8965:8980  user.rewardDebt */\n      0x01\n      add\n        /* \"contracts/distribution/TombRewardPool.sol\":8965:9030  user.rewardDebt = user.amount.mul(pool.accPolyPerShare).div(1e18) */\n      dup2\n      swap1\n      sstore\n      pop\n        /* \"contracts/distribution/TombRewardPool.sol\":9063:9067  _pid */\n      dup5\n        /* \"contracts/distribution/TombRewardPool.sol\":9054:9061  _sender */\n      dup4\n        /* \"contracts/distribution/TombRewardPool.sol\":9046:9077  Deposit(_sender, _pid, _amount) */\n      0xffffffffffffffffffffffffffffffffffffffff\n      and\n      0x90890809c654f11d6e72a28fa60149770a0d11ec6c92319d6ceb2bb0a4ea1a15\n        /* \"contracts/distribution/TombRewardPool.sol\":9069:9076  _amount */\n      dup7\n        /* \"contracts/distribution/TombRewardPool.sol\":9046:9077  Deposit(_sender, _pid, _amount) */\n      mload(0x40)\n      dup1\n      dup3\n      dup2\n      mstore\n      0x20\n      add\n      swap2\n      pop\n      pop\n      mload(0x40)\n      dup1\n      swap2\n      sub\n      swap1\n      log3\n        /* \"contracts/distribution/TombRewardPool.sol\":8259:9085  function deposit(uint256 _pid, uint256 _amount) public {\r... */\n      pop\n      pop\n      pop\n      pop\n      pop\n      jump\t// out\n        /* \"@openzeppelin/contracts/access/Ownable.sol\":2065:2305  function transferOwnership(address newOwner) public virtual onlyOwner {... */\n    tag_90:\n        /* \"@openzeppelin/contracts/access/Ownable.sol\":1362:1374  _msgSender() */\n      tag_302\n        /* \"@openzeppelin/contracts/access/Ownable.sol\":1362:1372  _msgSender */\n      tag_172\n        /* \"@openzeppelin/contracts/access/Ownable.sol\":1362:1374  _msgSender() */\n      jump\t// in\n    tag_302:\n        /* \"@openzeppelin/contracts/access/Ownable.sol\":1351:1374  owner() == _msgSender() */\n      0xffffffffffffffffffffffffffffffffffffffff\n      and\n        /* \"@openzeppelin/contracts/access/Ownable.sol\":1351:1358  owner() */\n      tag_303\n        /* \"@openzeppelin/contracts/access/Ownable.sol\":1351:1356  owner */\n      tag_70\n        /* \"@openzeppelin/contracts/access/Ownable.sol\":1351:1358  owner() */\n      jump\t// in\n    tag_303:\n        /* \"@openzeppelin/contracts/access/Ownable.sol\":1351:1374  owner() == _msgSender() */\n      0xffffffffffffffffffffffffffffffffffffffff\n      and\n      eq\n        /* \"@openzeppelin/contracts/access/Ownable.sol\":1343:1411  require(owner() == _msgSender(), \"Ownable: caller is not the owner\") */\n      tag_304\n      jumpi\n      mload(0x40)\n      0x08c379a000000000000000000000000000000000000000000000000000000000\n      dup2\n      mstore\n      0x04\n      add\n      dup1\n      dup1\n      0x20\n      add\n      dup3\n      dup2\n      sub\n      dup3\n      mstore\n      0x20\n      dup2\n      mstore\n      0x20\n      add\n      dup1\n      0x4f776e61626c653a2063616c6c6572206973206e6f7420746865206f776e6572\n      dup2\n      mstore\n      pop\n      0x20\n      add\n      swap2\n      pop\n      pop\n      mload(0x40)\n      dup1\n      swap2\n      sub\n      swap1\n      revert\n    tag_304:\n        /* \"@openzeppelin/contracts/access/Ownable.sol\":2173:2174  0 */\n      0x00\n        /* \"@openzeppelin/contracts/access/Ownable.sol\":2153:2175  newOwner != address(0) */\n      0xffffffffffffffffffffffffffffffffffffffff\n      and\n        /* \"@openzeppelin/contracts/access/Ownable.sol\":2153:2161  newOwner */\n      dup2\n        /* \"@openzeppelin/contracts/access/Ownable.sol\":2153:2175  newOwner != address(0) */\n      0xffffffffffffffffffffffffffffffffffffffff\n      and\n      eq\n      iszero\n        /* \"@openzeppelin/contracts/access/Ownable.sol\":2145:2218  require(newOwner != address(0), \"Ownable: new owner is the zero address\") */\n      tag_306\n      jumpi\n      mload(0x40)\n      0x08c379a000000000000000000000000000000000000000000000000000000000\n      dup2\n      mstore\n      0x04\n      add\n      dup1\n      dup1\n      0x20\n      add\n      dup3\n      dup2\n      sub\n      dup3\n      mstore\n      0x26\n      dup2\n      mstore\n      0x20\n      add\n      dup1\n      data_245f15ff17f551913a7a18385165551503906a406f905ac1c2437281a7cd0cfe\n      0x26\n      swap2\n      codecopy\n      0x40\n      add\n      swap2\n      pop\n      pop\n      mload(0x40)\n      dup1\n      swap2\n      sub\n      swap1\n      revert\n    tag_306:\n        /* \"@openzeppelin/contracts/access/Ownable.sol\":2262:2270  newOwner */\n      dup1\n        /* \"@openzeppelin/contracts/access/Ownable.sol\":2233:2271  OwnershipTransferred(_owner, newOwner) */\n      0xffffffffffffffffffffffffffffffffffffffff\n      and\n        /* \"@openzeppelin/contracts/access/Ownable.sol\":2254:2260  _owner */\n      0x00\n      dup1\n      sload\n      swap1\n      0x0100\n      exp\n      swap1\n      div\n      0xffffffffffffffffffffffffffffffffffffffff\n      and\n        /* \"@openzeppelin/contracts/access/Ownable.sol\":2233:2271  OwnershipTransferred(_owner, newOwner) */\n      0xffffffffffffffffffffffffffffffffffffffff\n      and\n      0x8be0079c531659141344cd1fd0a4f28419497f9722a3daafe3b4186f6b6457e0\n      mload(0x40)\n      mload(0x40)\n      dup1\n      swap2\n      sub\n      swap1\n      log3\n        /* \"@openzeppelin/contracts/access/Ownable.sol\":2290:2298  newOwner */\n      dup1\n        /* \"@openzeppelin/contracts/access/Ownable.sol\":2281:2287  _owner */\n      0x00\n      dup1\n        /* \"@openzeppelin/contracts/access/Ownable.sol\":2281:2298  _owner = newOwner */\n      0x0100\n      exp\n      dup2\n      sload\n      dup2\n      0xffffffffffffffffffffffffffffffffffffffff\n      mul\n      not\n      and\n      swap1\n      dup4\n      0xffffffffffffffffffffffffffffffffffffffff\n      and\n      mul\n      or\n      swap1\n      sstore\n      pop\n        /* \"@openzeppelin/contracts/access/Ownable.sol\":2065:2305  function transferOwnership(address newOwner) public virtual onlyOwner {... */\n      pop\n      jump\t// out\n        /* \"contracts/distribution/TombRewardPool.sol\":1906:1942  uint256[3] public epochPolyPerSecond */\n    tag_93:\n      0x0b\n      dup2\n      0x03\n      dup2\n      lt\n      tag_307\n      jumpi\n      0x00\n      dup1\n      revert\n    tag_307:\n      add\n      0x00\n      swap2\n      pop\n      swap1\n      pop\n      sload\n      dup2\n      jump\t// out\n        /* \"@openzeppelin/contracts/utils/math/SafeMath.sol\":4217:4367  function div(uint256 a, uint256 b) internal pure returns (uint256) {... */\n    tag_94:\n        /* \"@openzeppelin/contracts/utils/math/SafeMath.sol\":4275:4282  uint256 */\n      0x00\n        /* \"@openzeppelin/contracts/utils/math/SafeMath.sol\":4306:4307  0 */\n      dup1\n        /* \"@openzeppelin/contracts/utils/math/SafeMath.sol\":4302:4303  b */\n      dup3\n        /* \"@openzeppelin/contracts/utils/math/SafeMath.sol\":4302:4307  b > 0 */\n      gt\n        /* \"@openzeppelin/contracts/utils/math/SafeMath.sol\":4294:4338  require(b > 0, \"SafeMath: division by zero\") */\n      tag_310\n      jumpi\n      mload(0x40)\n      0x08c379a000000000000000000000000000000000000000000000000000000000\n      dup2\n      mstore\n      0x04\n      add\n      dup1\n      dup1\n      0x20\n      add\n      dup3\n      dup2\n      sub\n      dup3\n      mstore\n      0x1a\n      dup2\n      mstore\n      0x20\n      add\n      dup1\n      0x536166654d6174683a206469766973696f6e206279207a65726f000000000000\n      dup2\n      mstore\n      pop\n      0x20\n      add\n      swap2\n      pop\n      pop\n      mload(0x40)\n      dup1\n      swap2\n      sub\n      swap1\n      revert\n    tag_310:\n        /* \"@openzeppelin/contracts/utils/math/SafeMath.sol\":4359:4360  b */\n      dup2\n        /* \"@openzeppelin/contracts/utils/math/SafeMath.sol\":4355:4356  a */\n      dup4\n        /* \"@openzeppelin/contracts/utils/math/SafeMath.sol\":4355:4360  a / b */\n      dup2\n      tag_311\n      jumpi\n      invalid\n    tag_311:\n      div\n        /* \"@openzeppelin/contracts/utils/math/SafeMath.sol\":4348:4360  return a / b */\n      swap1\n      pop\n        /* \"@openzeppelin/contracts/utils/math/SafeMath.sol\":4217:4367  function div(uint256 a, uint256 b) internal pure returns (uint256) {... */\n      swap3\n      swap2\n      pop\n      pop\n      jump\t// out\n        /* \"@openzeppelin/contracts/utils/math/SafeMath.sol\":3136:3291  function sub(uint256 a, uint256 b) internal pure returns (uint256) {... */\n    tag_106:\n        /* \"@openzeppelin/contracts/utils/math/SafeMath.sol\":3194:3201  uint256 */\n      0x00\n        /* \"@openzeppelin/contracts/utils/math/SafeMath.sol\":3226:3227  a */\n      dup3\n        /* \"@openzeppelin/contracts/utils/math/SafeMath.sol\":3221:3222  b */\n      dup3\n        /* \"@openzeppelin/contracts/utils/math/SafeMath.sol\":3221:3227  b <= a */\n      gt\n      iszero\n        /* \"@openzeppelin/contracts/utils/math/SafeMath.sol\":3213:3262  require(b <= a, \"SafeMath: subtraction overflow\") */\n      tag_313\n      jumpi\n      mload(0x40)\n      0x08c379a000000000000000000000000000000000000000000000000000000000\n      dup2\n      mstore\n      0x04\n      add\n      dup1\n      dup1\n      0x20\n      add\n      dup3\n      dup2\n      sub\n      dup3\n      mstore\n      0x1e\n      dup2\n      mstore\n      0x20\n      add\n      dup1\n      0x536166654d6174683a207375627472616374696f6e206f766572666c6f770000\n      dup2\n      mstore\n      pop\n      0x20\n      add\n      swap2\n      pop\n      pop\n      mload(0x40)\n      dup1\n      swap2\n      sub\n      swap1\n      revert\n    tag_313:\n        /* \"@openzeppelin/contracts/utils/math/SafeMath.sol\":3283:3284  b */\n      dup2\n        /* \"@openzeppelin/contracts/utils/math/SafeMath.sol\":3279:3280  a */\n      dup4\n        /* \"@openzeppelin/contracts/utils/math/SafeMath.sol\":3279:3284  a - b */\n      sub\n        /* \"@openzeppelin/contracts/utils/math/SafeMath.sol\":3272:3284  return a - b */\n      swap1\n      pop\n        /* \"@openzeppelin/contracts/utils/math/SafeMath.sol\":3136:3291  function sub(uint256 a, uint256 b) internal pure returns (uint256) {... */\n      swap3\n      swap2\n      pop\n      pop\n      jump\t// out\n        /* \"@openzeppelin/contracts/utils/math/SafeMath.sol\":2690:2865  function add(uint256 a, uint256 b) internal pure returns (uint256) {... */\n    tag_107:\n        /* \"@openzeppelin/contracts/utils/math/SafeMath.sol\":2748:2755  uint256 */\n      0x00\n        /* \"@openzeppelin/contracts/utils/math/SafeMath.sol\":2767:2776  uint256 c */\n      dup1\n        /* \"@openzeppelin/contracts/utils/math/SafeMath.sol\":2783:2784  b */\n      dup3\n        /* \"@openzeppelin/contracts/utils/math/SafeMath.sol\":2779:2780  a */\n      dup5\n        /* \"@openzeppelin/contracts/utils/math/SafeMath.sol\":2779:2784  a + b */\n      add\n        /* \"@openzeppelin/contracts/utils/math/SafeMath.sol\":2767:2784  uint256 c = a + b */\n      swap1\n      pop\n        /* \"@openzeppelin/contracts/utils/math/SafeMath.sol\":2807:2808  a */\n      dup4\n        /* \"@openzeppelin/contracts/utils/math/SafeMath.sol\":2802:2803  c */\n      dup2\n        /* \"@openzeppelin/contracts/utils/math/SafeMath.sol\":2802:2808  c >= a */\n      lt\n      iszero\n        /* \"@openzeppelin/contracts/utils/math/SafeMath.sol\":2794:2840  require(c >= a, \"SafeMath: addition overflow\") */\n      tag_315\n      jumpi\n      mload(0x40)\n      0x08c379a000000000000000000000000000000000000000000000000000000000\n      dup2\n      mstore\n      0x04\n      add\n      dup1\n      dup1\n      0x20\n      add\n      dup3\n      dup2\n      sub\n      dup3\n      mstore\n      0x1b\n      dup2\n      mstore\n      0x20\n      add\n      dup1\n      0x536166654d6174683a206164646974696f6e206f766572666c6f770000000000\n      dup2\n      mstore\n      pop\n      0x20\n      add\n      swap2\n      pop\n      pop\n      mload(0x40)\n      dup1\n      swap2\n      sub\n      swap1\n      revert\n    tag_315:\n        /* \"@openzeppelin/contracts/utils/math/SafeMath.sol\":2857:2858  c */\n      dup1\n        /* \"@openzeppelin/contracts/utils/math/SafeMath.sol\":2850:2858  return c */\n      swap2\n      pop\n      pop\n        /* \"@openzeppelin/contracts/utils/math/SafeMath.sol\":2690:2865  function add(uint256 a, uint256 b) internal pure returns (uint256) {... */\n      swap3\n      swap2\n      pop\n      pop\n      jump\t// out\n        /* \"@openzeppelin/contracts/utils/math/SafeMath.sol\":3538:3753  function mul(uint256 a, uint256 b) internal pure returns (uint256) {... */\n    tag_122:\n        /* \"@openzeppelin/contracts/utils/math/SafeMath.sol\":3596:3603  uint256 */\n      0x00\n        /* \"@openzeppelin/contracts/utils/math/SafeMath.sol\":3624:3625  0 */\n      dup1\n        /* \"@openzeppelin/contracts/utils/math/SafeMath.sol\":3619:3620  a */\n      dup4\n        /* \"@openzeppelin/contracts/utils/math/SafeMath.sol\":3619:3625  a == 0 */\n      eq\n        /* \"@openzeppelin/contracts/utils/math/SafeMath.sol\":3615:3635  if (a == 0) return 0 */\n      iszero\n      tag_317\n      jumpi\n        /* \"@openzeppelin/contracts/utils/math/SafeMath.sol\":3634:3635  0 */\n      0x00\n        /* \"@openzeppelin/contracts/utils/math/SafeMath.sol\":3627:3635  return 0 */\n      swap1\n      pop\n      jump(tag_316)\n        /* \"@openzeppelin/contracts/utils/math/SafeMath.sol\":3615:3635  if (a == 0) return 0 */\n    tag_317:\n        /* \"@openzeppelin/contracts/utils/math/SafeMath.sol\":3645:3654  uint256 c */\n      0x00\n        /* \"@openzeppelin/contracts/utils/math/SafeMath.sol\":3661:3662  b */\n      dup3\n        /* \"@openzeppelin/contracts/utils/math/SafeMath.sol\":3657:3658  a */\n      dup5\n        /* \"@openzeppelin/contracts/utils/math/SafeMath.sol\":3657:3662  a * b */\n      mul\n        /* \"@openzeppelin/contracts/utils/math/SafeMath.sol\":3645:3662  uint256 c = a * b */\n      swap1\n      pop\n        /* \"@openzeppelin/contracts/utils/math/SafeMath.sol\":3689:3690  b */\n      dup3\n        /* \"@openzeppelin/contracts/utils/math/SafeMath.sol\":3684:3685  a */\n      dup5\n        /* \"@openzeppelin/contracts/utils/math/SafeMath.sol\":3680:3681  c */\n      dup3\n        /* \"@openzeppelin/contracts/utils/math/SafeMath.sol\":3680:3685  c / a */\n      dup2\n      tag_318\n      jumpi\n      invalid\n    tag_318:\n      div\n        /* \"@openzeppelin/contracts/utils/math/SafeMath.sol\":3680:3690  c / a == b */\n      eq\n        /* \"@openzeppelin/contracts/utils/math/SafeMath.sol\":3672:3728  require(c / a == b, \"SafeMath: multiplication overflow\") */\n      tag_319\n      jumpi\n      mload(0x40)\n      0x08c379a000000000000000000000000000000000000000000000000000000000\n      dup2\n      mstore\n      0x04\n      add\n      dup1\n      dup1\n      0x20\n      add\n      dup3\n      dup2\n      sub\n      dup3\n      mstore\n      0x21\n      dup2\n      mstore\n      0x20\n      add\n      dup1\n      data_9113bb53c2876a3805b2c9242029423fc540a728243ce887ab24c82cf119fba3\n      0x21\n      swap2\n      codecopy\n      0x40\n      add\n      swap2\n      pop\n      pop\n      mload(0x40)\n      dup1\n      swap2\n      sub\n      swap1\n      revert\n    tag_319:\n        /* \"@openzeppelin/contracts/utils/math/SafeMath.sol\":3745:3746  c */\n      dup1\n        /* \"@openzeppelin/contracts/utils/math/SafeMath.sol\":3738:3746  return c */\n      swap2\n      pop\n      pop\n        /* \"@openzeppelin/contracts/utils/math/SafeMath.sol\":3538:3753  function mul(uint256 a, uint256 b) internal pure returns (uint256) {... */\n    tag_316:\n      swap3\n      swap2\n      pop\n      pop\n      jump\t// out\n        /* \"@openzeppelin/contracts/utils/Context.sol\":596:692  function _msgSender() internal view virtual returns (address) {... */\n    tag_172:\n        /* \"@openzeppelin/contracts/utils/Context.sol\":649:656  address */\n      0x00\n        /* \"@openzeppelin/contracts/utils/Context.sol\":675:685  msg.sender */\n      caller\n        /* \"@openzeppelin/contracts/utils/Context.sol\":668:685  return msg.sender */\n      swap1\n      pop\n        /* \"@openzeppelin/contracts/utils/Context.sol\":596:692  function _msgSender() internal view virtual returns (address) {... */\n      swap1\n      jump\t// out\n        /* \"contracts/owner/Operator.sol\":1017:1361  function _transferOperator(address newOperator_) internal {\r... */\n    tag_177:\n        /* \"contracts/owner/Operator.sol\":1132:1133  0 */\n      0x00\n        /* \"contracts/owner/Operator.sol\":1108:1134  newOperator_ != address(0) */\n      0xffffffffffffffffffffffffffffffffffffffff\n      and\n        /* \"contracts/owner/Operator.sol\":1108:1120  newOperator_ */\n      dup2\n        /* \"contracts/owner/Operator.sol\":1108:1134  newOperator_ != address(0) */\n      0xffffffffffffffffffffffffffffffffffffffff\n      and\n      eq\n      iszero\n        /* \"contracts/owner/Operator.sol\":1086:1207  require(\r... */\n      tag_322\n      jumpi\n      mload(0x40)\n      0x08c379a000000000000000000000000000000000000000000000000000000000\n      dup2\n      mstore\n      0x04\n      add\n      dup1\n      dup1\n      0x20\n      add\n      dup3\n      dup2\n      sub\n      dup3\n      mstore\n      0x2d\n      dup2\n      mstore\n      0x20\n      add\n      dup1\n      data_756508c1c0554725dd91ce0028667672a5318d736a5e4bcd98b6bc8fe98c3dc7\n      0x2d\n      swap2\n      codecopy\n      0x40\n      add\n      swap2\n      pop\n      pop\n      mload(0x40)\n      dup1\n      swap2\n      sub\n      swap1\n      revert\n    tag_322:\n        /* \"contracts/owner/Operator.sol\":1255:1267  newOperator_ */\n      dup1\n        /* \"contracts/owner/Operator.sol\":1223:1268  OperatorTransferred(address(0), newOperator_) */\n      0xffffffffffffffffffffffffffffffffffffffff\n      and\n        /* \"contracts/owner/Operator.sol\":1251:1252  0 */\n      0x00\n        /* \"contracts/owner/Operator.sol\":1223:1268  OperatorTransferred(address(0), newOperator_) */\n      0xffffffffffffffffffffffffffffffffffffffff\n      and\n      0x74da04524d50c64947f5dd5381ef1a4dca5cba8ed1d816243f9e48aa0b5617ed\n      mload(0x40)\n      mload(0x40)\n      dup1\n      swap2\n      sub\n      swap1\n      log3\n        /* \"contracts/owner/Operator.sol\":1279:1318  Ownable.transferOwnership(newOperator_) */\n      tag_323\n        /* \"contracts/owner/Operator.sol\":1305:1317  newOperator_ */\n      dup2\n        /* \"contracts/owner/Operator.sol\":1279:1304  Ownable.transferOwnership */\n      tag_90\n        /* \"contracts/owner/Operator.sol\":1279:1318  Ownable.transferOwnership(newOperator_) */\n      jump\t// in\n    tag_323:\n        /* \"contracts/owner/Operator.sol\":1341:1353  newOperator_ */\n      dup1\n        /* \"contracts/owner/Operator.sol\":1329:1338  _operator */\n      0x01\n      0x00\n        /* \"contracts/owner/Operator.sol\":1329:1353  _operator = newOperator_ */\n      0x0100\n      exp\n      dup2\n      sload\n      dup2\n      0xffffffffffffffffffffffffffffffffffffffff\n      mul\n      not\n      and\n      swap1\n      dup4\n      0xffffffffffffffffffffffffffffffffffffffff\n      and\n      mul\n      or\n      swap1\n      sstore\n      pop\n        /* \"contracts/owner/Operator.sol\":1017:1361  function _transferOperator(address newOperator_) internal {\r... */\n      pop\n      jump\t// out\n        /* \"contracts/distribution/TombRewardPool.sol\":10493:10842  function safePolyTransfer(address _to, uint256 _amount) internal {\r... */\n    tag_188:\n        /* \"contracts/distribution/TombRewardPool.sol\":10569:10585  uint256 _PolyBal */\n      0x00\n        /* \"contracts/distribution/TombRewardPool.sol\":10588:10592  Poly */\n      0x02\n      0x00\n      swap1\n      sload\n      swap1\n      0x0100\n      exp\n      swap1\n      div\n      0xffffffffffffffffffffffffffffffffffffffff\n      and\n        /* \"contracts/distribution/TombRewardPool.sol\":10588:10602  Poly.balanceOf */\n      0xffffffffffffffffffffffffffffffffffffffff\n      and\n      0x70a08231\n        /* \"contracts/distribution/TombRewardPool.sol\":10611:10615  this */\n      address\n        /* \"contracts/distribution/TombRewardPool.sol\":10588:10617  Poly.balanceOf(address(this)) */\n      mload(0x40)\n      dup3\n      0xffffffff\n      and\n      0xe0\n      shl\n      dup2\n      mstore\n      0x04\n      add\n      dup1\n      dup3\n      0xffffffffffffffffffffffffffffffffffffffff\n      and\n      dup2\n      mstore\n      0x20\n      add\n      swap2\n      pop\n      pop\n      0x20\n      mload(0x40)\n      dup1\n      dup4\n      sub\n      dup2\n      dup7\n      dup1\n      extcodesize\n      iszero\n      dup1\n      iszero\n      tag_325\n      jumpi\n      0x00\n      dup1\n      revert\n    tag_325:\n      pop\n      gas\n      staticcall\n      iszero\n      dup1\n      iszero\n      tag_327\n      jumpi\n      returndatasize\n      0x00\n      dup1\n      returndatacopy\n      revert(0x00, returndatasize)\n    tag_327:\n      pop\n      pop\n      pop\n      pop\n      mload(0x40)\n      returndatasize\n      0x20\n      dup2\n      lt\n      iszero\n      tag_328\n      jumpi\n      0x00\n      dup1\n      revert\n    tag_328:\n      dup2\n      add\n      swap1\n      dup1\n      dup1\n      mload\n      swap1\n      0x20\n      add\n      swap1\n      swap3\n      swap2\n      swap1\n      pop\n      pop\n      pop\n        /* \"contracts/distribution/TombRewardPool.sol\":10569:10617  uint256 _PolyBal = Poly.balanceOf(address(this)) */\n      swap1\n      pop\n        /* \"contracts/distribution/TombRewardPool.sol\":10643:10644  0 */\n      0x00\n        /* \"contracts/distribution/TombRewardPool.sol\":10632:10640  _PolyBal */\n      dup2\n        /* \"contracts/distribution/TombRewardPool.sol\":10632:10644  _PolyBal > 0 */\n      gt\n        /* \"contracts/distribution/TombRewardPool.sol\":10628:10835  if (_PolyBal > 0) {\r... */\n      iszero\n      tag_329\n      jumpi\n        /* \"contracts/distribution/TombRewardPool.sol\":10675:10683  _PolyBal */\n      dup1\n        /* \"contracts/distribution/TombRewardPool.sol\":10665:10672  _amount */\n      dup3\n        /* \"contracts/distribution/TombRewardPool.sol\":10665:10683  _amount > _PolyBal */\n      gt\n        /* \"contracts/distribution/TombRewardPool.sol\":10661:10824  if (_amount > _PolyBal) {\r... */\n      iszero\n      tag_330\n      jumpi\n        /* \"contracts/distribution/TombRewardPool.sol\":10704:10736  Poly.safeTransfer(_to, _PolyBal) */\n      tag_331\n        /* \"contracts/distribution/TombRewardPool.sol\":10722:10725  _to */\n      dup4\n        /* \"contracts/distribution/TombRewardPool.sol\":10727:10735  _PolyBal */\n      dup3\n        /* \"contracts/distribution/TombRewardPool.sol\":10704:10708  Poly */\n      0x02\n      0x00\n      swap1\n      sload\n      swap1\n      0x0100\n      exp\n      swap1\n      div\n      0xffffffffffffffffffffffffffffffffffffffff\n      and\n        /* \"contracts/distribution/TombRewardPool.sol\":10704:10721  Poly.safeTransfer */\n      0xffffffffffffffffffffffffffffffffffffffff\n      and\n      tag_192\n      swap1\n        /* \"contracts/distribution/TombRewardPool.sol\":10704:10736  Poly.safeTransfer(_to, _PolyBal) */\n      swap3\n      swap2\n      swap1\n      0xffffffff\n      and\n      jump\t// in\n    tag_331:\n        /* \"contracts/distribution/TombRewardPool.sol\":10661:10824  if (_amount > _PolyBal) {\r... */\n      jump(tag_332)\n    tag_330:\n        /* \"contracts/distribution/TombRewardPool.sol\":10777:10808  Poly.safeTransfer(_to, _amount) */\n      tag_333\n        /* \"contracts/distribution/TombRewardPool.sol\":10795:10798  _to */\n      dup4\n        /* \"contracts/distribution/TombRewardPool.sol\":10800:10807  _amount */\n      dup4\n        /* \"contracts/distribution/TombRewardPool.sol\":10777:10781  Poly */\n      0x02\n      0x00\n      swap1\n      sload\n      swap1\n      0x0100\n      exp\n      swap1\n      div\n      0xffffffffffffffffffffffffffffffffffffffff\n      and\n        /* \"contracts/distribution/TombRewardPool.sol\":10777:10794  Poly.safeTransfer */\n      0xffffffffffffffffffffffffffffffffffffffff\n      and\n      tag_192\n      swap1\n        /* \"contracts/distribution/TombRewardPool.sol\":10777:10808  Poly.safeTransfer(_to, _amount) */\n      swap3\n      swap2\n      swap1\n      0xffffffff\n      and\n      jump\t// in\n    tag_333:\n        /* \"contracts/distribution/TombRewardPool.sol\":10661:10824  if (_amount > _PolyBal) {\r... */\n    tag_332:\n        /* \"contracts/distribution/TombRewardPool.sol\":10628:10835  if (_PolyBal > 0) {\r... */\n    tag_329:\n        /* \"contracts/distribution/TombRewardPool.sol\":10493:10842  function safePolyTransfer(address _to, uint256 _amount) internal {\r... */\n      pop\n      pop\n      pop\n      jump\t// out\n        /* \"@openzeppelin/contracts/token/ERC20/utils/SafeERC20.sol\":717:892  function safeTransfer(IERC20 token, address to, uint256 value) internal {... */\n    tag_192:\n        /* \"@openzeppelin/contracts/token/ERC20/utils/SafeERC20.sol\":799:885  _callOptionalReturn(token, abi.encodeWithSelector(token.transfer.selector, to, value)) */\n      tag_335\n        /* \"@openzeppelin/contracts/token/ERC20/utils/SafeERC20.sol\":819:824  token */\n      dup4\n        /* \"@openzeppelin/contracts/token/ERC20/utils/SafeERC20.sol\":849:872  token.transfer.selector */\n      shl(0xe0, 0xa9059cbb)\n        /* \"@openzeppelin/contracts/token/ERC20/utils/SafeERC20.sol\":874:876  to */\n      dup5\n        /* \"@openzeppelin/contracts/token/ERC20/utils/SafeERC20.sol\":878:883  value */\n      dup5\n        /* \"@openzeppelin/contracts/token/ERC20/utils/SafeERC20.sol\":826:884  abi.encodeWithSelector(token.transfer.selector, to, value) */\n      add(0x24, mload(0x40))\n      dup1\n      dup4\n      0xffffffffffffffffffffffffffffffffffffffff\n      and\n      dup2\n      mstore\n      0x20\n      add\n      dup3\n      dup2\n      mstore\n      0x20\n      add\n      swap3\n      pop\n      pop\n      pop\n      mload(0x40)\n      0x20\n      dup2\n      dup4\n      sub\n      sub\n      dup2\n      mstore\n      swap1\n      0x40\n      mstore\n      swap1\n      not(0xffffffffffffffffffffffffffffffffffffffffffffffffffffffff)\n      and\n      0x20\n      dup3\n      add\n      dup1\n      mload\n      0xffffffffffffffffffffffffffffffffffffffffffffffffffffffff\n      dup4\n      dup2\n      dup4\n      and\n      or\n      dup4\n      mstore\n      pop\n      pop\n      pop\n      pop\n        /* \"@openzeppelin/contracts/token/ERC20/utils/SafeERC20.sol\":799:818  _callOptionalReturn */\n      tag_336\n        /* \"@openzeppelin/contracts/token/ERC20/utils/SafeERC20.sol\":799:885  _callOptionalReturn(token, abi.encodeWithSelector(token.transfer.selector, to, value)) */\n      jump\t// in\n    tag_335:\n        /* \"@openzeppelin/contracts/token/ERC20/utils/SafeERC20.sol\":717:892  function safeTransfer(IERC20 token, address to, uint256 value) internal {... */\n      pop\n      pop\n      pop\n      jump\t// out\n        /* \"contracts/distribution/TombRewardPool.sol\":2803:3063  function checkPoolDuplicate(IERC20 _token) internal view {\r... */\n    tag_267:\n        /* \"contracts/distribution/TombRewardPool.sol\":2871:2885  uint256 length */\n      0x00\n        /* \"contracts/distribution/TombRewardPool.sol\":2888:2896  poolInfo */\n      0x03\n        /* \"contracts/distribution/TombRewardPool.sol\":2888:2903  poolInfo.length */\n      dup1\n      sload\n      swap1\n      pop\n        /* \"contracts/distribution/TombRewardPool.sol\":2871:2903  uint256 length = poolInfo.length */\n      swap1\n      pop\n        /* \"contracts/distribution/TombRewardPool.sol\":2919:2930  uint256 pid */\n      0x00\n        /* \"contracts/distribution/TombRewardPool.sol\":2914:3056  for (uint256 pid = 0; pid < length; ++pid) {\r... */\n    tag_338:\n        /* \"contracts/distribution/TombRewardPool.sol\":2942:2948  length */\n      dup2\n        /* \"contracts/distribution/TombRewardPool.sol\":2936:2939  pid */\n      dup2\n        /* \"contracts/distribution/TombRewardPool.sol\":2936:2948  pid < length */\n      lt\n        /* \"contracts/distribution/TombRewardPool.sol\":2914:3056  for (uint256 pid = 0; pid < length; ++pid) {\r... */\n      iszero\n      tag_339\n      jumpi\n        /* \"contracts/distribution/TombRewardPool.sol\":3003:3009  _token */\n      dup3\n        /* \"contracts/distribution/TombRewardPool.sol\":2980:3009  poolInfo[pid].token != _token */\n      0xffffffffffffffffffffffffffffffffffffffff\n      and\n        /* \"contracts/distribution/TombRewardPool.sol\":2980:2988  poolInfo */\n      0x03\n        /* \"contracts/distribution/TombRewardPool.sol\":2989:2992  pid */\n      dup3\n        /* \"contracts/distribution/TombRewardPool.sol\":2980:2993  poolInfo[pid] */\n      dup2\n      sload\n      dup2\n      lt\n      tag_341\n      jumpi\n      invalid\n    tag_341:\n      swap1\n      0x00\n      mstore\n      keccak256(0x00, 0x20)\n      swap1\n      0x05\n      mul\n      add\n        /* \"contracts/distribution/TombRewardPool.sol\":2980:2999  poolInfo[pid].token */\n      0x00\n      add\n      0x00\n      swap1\n      sload\n      swap1\n      0x0100\n      exp\n      swap1\n      div\n      0xffffffffffffffffffffffffffffffffffffffff\n      and\n        /* \"contracts/distribution/TombRewardPool.sol\":2980:3009  poolInfo[pid].token != _token */\n      0xffffffffffffffffffffffffffffffffffffffff\n      and\n      eq\n      iszero\n        /* \"contracts/distribution/TombRewardPool.sol\":2972:3044  require(poolInfo[pid].token != _token, \"PolyRewardPool: existing pool?\") */\n      tag_343\n      jumpi\n      mload(0x40)\n      0x08c379a000000000000000000000000000000000000000000000000000000000\n      dup2\n      mstore\n      0x04\n      add\n      dup1\n      dup1\n      0x20\n      add\n      dup3\n      dup2\n      sub\n      dup3\n      mstore\n      0x1e\n      dup2\n      mstore\n      0x20\n      add\n      dup1\n      0x506f6c79526577617264506f6f6c3a206578697374696e6720706f6f6c3f0000\n      dup2\n      mstore\n      pop\n      0x20\n      add\n      swap2\n      pop\n      pop\n      mload(0x40)\n      dup1\n      swap2\n      sub\n      swap1\n      revert\n    tag_343:\n        /* \"contracts/distribution/TombRewardPool.sol\":2950:2955  ++pid */\n      dup1\n      0x01\n      add\n      swap1\n      pop\n        /* \"contracts/distribution/TombRewardPool.sol\":2914:3056  for (uint256 pid = 0; pid < length; ++pid) {\r... */\n      jump(tag_338)\n    tag_339:\n      pop\n        /* \"contracts/distribution/TombRewardPool.sol\":2803:3063  function checkPoolDuplicate(IERC20 _token) internal view {\r... */\n      pop\n      pop\n      jump\t// out\n        /* \"@openzeppelin/contracts/token/ERC20/utils/SafeERC20.sol\":898:1101  function safeTransferFrom(IERC20 token, address from, address to, uint256 value) internal {... */\n    tag_297:\n        /* \"@openzeppelin/contracts/token/ERC20/utils/SafeERC20.sol\":998:1094  _callOptionalReturn(token, abi.encodeWithSelector(token.transferFrom.selector, from, to, value)) */\n      tag_345\n        /* \"@openzeppelin/contracts/token/ERC20/utils/SafeERC20.sol\":1018:1023  token */\n      dup5\n        /* \"@openzeppelin/contracts/token/ERC20/utils/SafeERC20.sol\":1048:1075  token.transferFrom.selector */\n      shl(0xe0, 0x23b872dd)\n        /* \"@openzeppelin/contracts/token/ERC20/utils/SafeERC20.sol\":1077:1081  from */\n      dup6\n        /* \"@openzeppelin/contracts/token/ERC20/utils/SafeERC20.sol\":1083:1085  to */\n      dup6\n        /* \"@openzeppelin/contracts/token/ERC20/utils/SafeERC20.sol\":1087:1092  value */\n      dup6\n        /* \"@openzeppelin/contracts/token/ERC20/utils/SafeERC20.sol\":1025:1093  abi.encodeWithSelector(token.transferFrom.selector, from, to, value) */\n      add(0x24, mload(0x40))\n      dup1\n      dup5\n      0xffffffffffffffffffffffffffffffffffffffff\n      and\n      dup2\n      mstore\n      0x20\n      add\n      dup4\n      0xffffffffffffffffffffffffffffffffffffffff\n      and\n      dup2\n      mstore\n      0x20\n      add\n      dup3\n      dup2\n      mstore\n      0x20\n      add\n      swap4\n      pop\n      pop\n      pop\n      pop\n      mload(0x40)\n      0x20\n      dup2\n      dup4\n      sub\n      sub\n      dup2\n      mstore\n      swap1\n      0x40\n      mstore\n      swap1\n      not(0xffffffffffffffffffffffffffffffffffffffffffffffffffffffff)\n      and\n      0x20\n      dup3\n      add\n      dup1\n      mload\n      0xffffffffffffffffffffffffffffffffffffffffffffffffffffffff\n      dup4\n      dup2\n      dup4\n      and\n      or\n      dup4\n      mstore\n      pop\n      pop\n      pop\n      pop\n        /* \"@openzeppelin/contracts/token/ERC20/utils/SafeERC20.sol\":998:1017  _callOptionalReturn */\n      tag_336\n        /* \"@openzeppelin/contracts/token/ERC20/utils/SafeERC20.sol\":998:1094  _callOptionalReturn(token, abi.encodeWithSelector(token.transferFrom.selector, from, to, value)) */\n      jump\t// in\n    tag_345:\n        /* \"@openzeppelin/contracts/token/ERC20/utils/SafeERC20.sol\":898:1101  function safeTransferFrom(IERC20 token, address from, address to, uint256 value) internal {... */\n      pop\n      pop\n      pop\n      pop\n      jump\t// out\n        /* \"@openzeppelin/contracts/token/ERC20/utils/SafeERC20.sol\":2980:3731  function _callOptionalReturn(IERC20 token, bytes memory data) private {... */\n    tag_336:\n        /* \"@openzeppelin/contracts/token/ERC20/utils/SafeERC20.sol\":3399:3422  bytes memory returndata */\n      0x00\n        /* \"@openzeppelin/contracts/token/ERC20/utils/SafeERC20.sol\":3425:3494  address(token).functionCall(data, \"SafeERC20: low-level call failed\") */\n      tag_347\n        /* \"@openzeppelin/contracts/token/ERC20/utils/SafeERC20.sol\":3453:3457  data */\n      dup3\n        /* \"@openzeppelin/contracts/token/ERC20/utils/SafeERC20.sol\":3425:3494  address(token).functionCall(data, \"SafeERC20: low-level call failed\") */\n      mload(0x40)\n      dup1\n      0x40\n      add\n      0x40\n      mstore\n      dup1\n      0x20\n      dup2\n      mstore\n      0x20\n      add\n      0x5361666545524332303a206c6f772d6c6576656c2063616c6c206661696c6564\n      dup2\n      mstore\n      pop\n        /* \"@openzeppelin/contracts/token/ERC20/utils/SafeERC20.sol\":3433:3438  token */\n      dup6\n        /* \"@openzeppelin/contracts/token/ERC20/utils/SafeERC20.sol\":3425:3452  address(token).functionCall */\n      0xffffffffffffffffffffffffffffffffffffffff\n      and\n      tag_348\n      swap1\n        /* \"@openzeppelin/contracts/token/ERC20/utils/SafeERC20.sol\":3425:3494  address(token).functionCall(data, \"SafeERC20: low-level call failed\") */\n      swap3\n      swap2\n      swap1\n      0xffffffff\n      and\n      jump\t// in\n    tag_347:\n        /* \"@openzeppelin/contracts/token/ERC20/utils/SafeERC20.sol\":3399:3494  bytes memory returndata = address(token).functionCall(data, \"SafeERC20: low-level call failed\") */\n      swap1\n      pop\n        /* \"@openzeppelin/contracts/token/ERC20/utils/SafeERC20.sol\":3528:3529  0 */\n      0x00\n        /* \"@openzeppelin/contracts/token/ERC20/utils/SafeERC20.sol\":3508:3518  returndata */\n      dup2\n        /* \"@openzeppelin/contracts/token/ERC20/utils/SafeERC20.sol\":3508:3525  returndata.length */\n      mload\n        /* \"@openzeppelin/contracts/token/ERC20/utils/SafeERC20.sol\":3508:3529  returndata.length > 0 */\n      gt\n        /* \"@openzeppelin/contracts/token/ERC20/utils/SafeERC20.sol\":3504:3725  if (returndata.length > 0) { // Return data is optional... */\n      iszero\n      tag_349\n      jumpi\n        /* \"@openzeppelin/contracts/token/ERC20/utils/SafeERC20.sol\":3648:3658  returndata */\n      dup1\n        /* \"@openzeppelin/contracts/token/ERC20/utils/SafeERC20.sol\":3637:3667  abi.decode(returndata, (bool)) */\n      dup1\n      0x20\n      add\n      swap1\n      mload\n      0x20\n      dup2\n      lt\n      iszero\n      tag_350\n      jumpi\n      0x00\n      dup1\n      revert\n    tag_350:\n      dup2\n      add\n      swap1\n      dup1\n      dup1\n      mload\n      swap1\n      0x20\n      add\n      swap1\n      swap3\n      swap2\n      swap1\n      pop\n      pop\n      pop\n        /* \"@openzeppelin/contracts/token/ERC20/utils/SafeERC20.sol\":3629:3714  require(abi.decode(returndata, (bool)), \"SafeERC20: ERC20 operation did not succeed\") */\n      tag_351\n      jumpi\n      mload(0x40)\n      0x08c379a000000000000000000000000000000000000000000000000000000000\n      dup2\n      mstore\n      0x04\n      add\n      dup1\n      dup1\n      0x20\n      add\n      dup3\n      dup2\n      sub\n      dup3\n      mstore\n      0x2a\n      dup2\n      mstore\n      0x20\n      add\n      dup1\n      data_e11ad79d1e4a7f2e5f376964cb99e8e8f7904e3fc16a109f7a7ecb9aa7956dcd\n      0x2a\n      swap2\n      codecopy\n      0x40\n      add\n      swap2\n      pop\n      pop\n      mload(0x40)\n      dup1\n      swap2\n      sub\n      swap1\n      revert\n    tag_351:\n        /* \"@openzeppelin/contracts/token/ERC20/utils/SafeERC20.sol\":3504:3725  if (returndata.length > 0) { // Return data is optional... */\n    tag_349:\n        /* \"@openzeppelin/contracts/token/ERC20/utils/SafeERC20.sol\":2980:3731  function _callOptionalReturn(IERC20 token, bytes memory data) private {... */\n      pop\n      pop\n      pop\n      jump\t// out\n        /* \"@openzeppelin/contracts/utils/Address.sol\":3470:3693  function functionCall(... */\n    tag_348:\n        /* \"@openzeppelin/contracts/utils/Address.sol\":3603:3615  bytes memory */\n      0x60\n        /* \"@openzeppelin/contracts/utils/Address.sol\":3634:3686  functionCallWithValue(target, data, 0, errorMessage) */\n      tag_353\n        /* \"@openzeppelin/contracts/utils/Address.sol\":3656:3662  target */\n      dup5\n        /* \"@openzeppelin/contracts/utils/Address.sol\":3664:3668  data */\n      dup5\n        /* \"@openzeppelin/contracts/utils/Address.sol\":3670:3671  0 */\n      0x00\n        /* \"@openzeppelin/contracts/utils/Address.sol\":3673:3685  errorMessage */\n      dup6\n        /* \"@openzeppelin/contracts/utils/Address.sol\":3634:3655  functionCallWithValue */\n      tag_354\n        /* \"@openzeppelin/contracts/utils/Address.sol\":3634:3686  functionCallWithValue(target, data, 0, errorMessage) */\n      jump\t// in\n    tag_353:\n        /* \"@openzeppelin/contracts/utils/Address.sol\":3627:3686  return functionCallWithValue(target, data, 0, errorMessage) */\n      swap1\n      pop\n        /* \"@openzeppelin/contracts/utils/Address.sol\":3470:3693  function functionCall(... */\n      swap4\n      swap3\n      pop\n      pop\n      pop\n      jump\t// out\n        /* \"@openzeppelin/contracts/utils/Address.sol\":4557:5056  function functionCallWithValue(... */\n    tag_354:\n        /* \"@openzeppelin/contracts/utils/Address.sol\":4722:4734  bytes memory */\n      0x60\n        /* \"@openzeppelin/contracts/utils/Address.sol\":4779:4784  value */\n      dup3\n        /* \"@openzeppelin/contracts/utils/Address.sol\":4754:4775  address(this).balance */\n      selfbalance\n        /* \"@openzeppelin/contracts/utils/Address.sol\":4754:4784  address(this).balance >= value */\n      lt\n      iszero\n        /* \"@openzeppelin/contracts/utils/Address.sol\":4746:4827  require(address(this).balance >= value, \"Address: insufficient balance for call\") */\n      tag_356\n      jumpi\n      mload(0x40)\n      0x08c379a000000000000000000000000000000000000000000000000000000000\n      dup2\n      mstore\n      0x04\n      add\n      dup1\n      dup1\n      0x20\n      add\n      dup3\n      dup2\n      sub\n      dup3\n      mstore\n      0x26\n      dup2\n      mstore\n      0x20\n      add\n      dup1\n      data_565f1a77334fc4792800921178c71e4521acffab18ff9e7885b49377ee80ab4c\n      0x26\n      swap2\n      codecopy\n      0x40\n      add\n      swap2\n      pop\n      pop\n      mload(0x40)\n      dup1\n      swap2\n      sub\n      swap1\n      revert\n    tag_356:\n        /* \"@openzeppelin/contracts/utils/Address.sol\":4845:4863  isContract(target) */\n      tag_357\n        /* \"@openzeppelin/contracts/utils/Address.sol\":4856:4862  target */\n      dup6\n        /* \"@openzeppelin/contracts/utils/Address.sol\":4845:4855  isContract */\n      tag_358\n        /* \"@openzeppelin/contracts/utils/Address.sol\":4845:4863  isContract(target) */\n      jump\t// in\n    tag_357:\n        /* \"@openzeppelin/contracts/utils/Address.sol\":4837:4897  require(isContract(target), \"Address: call to non-contract\") */\n      tag_359\n      jumpi\n      mload(0x40)\n      0x08c379a000000000000000000000000000000000000000000000000000000000\n      dup2\n      mstore\n      0x04\n      add\n      dup1\n      dup1\n      0x20\n      add\n      dup3\n      dup2\n      sub\n      dup3\n      mstore\n      0x1d\n      dup2\n      mstore\n      0x20\n      add\n      dup1\n      0x416464726573733a2063616c6c20746f206e6f6e2d636f6e7472616374000000\n      dup2\n      mstore\n      pop\n      0x20\n      add\n      swap2\n      pop\n      pop\n      mload(0x40)\n      dup1\n      swap2\n      sub\n      swap1\n      revert\n    tag_359:\n        /* \"@openzeppelin/contracts/utils/Address.sol\":4909:4921  bool success */\n      0x00\n        /* \"@openzeppelin/contracts/utils/Address.sol\":4923:4946  bytes memory returndata */\n      dup1\n        /* \"@openzeppelin/contracts/utils/Address.sol\":4950:4956  target */\n      dup7\n        /* \"@openzeppelin/contracts/utils/Address.sol\":4950:4961  target.call */\n      0xffffffffffffffffffffffffffffffffffffffff\n      and\n        /* \"@openzeppelin/contracts/utils/Address.sol\":4969:4974  value */\n      dup6\n        /* \"@openzeppelin/contracts/utils/Address.sol\":4976:4980  data */\n      dup8\n        /* \"@openzeppelin/contracts/utils/Address.sol\":4950:4981  target.call{value: value}(data) */\n      mload(0x40)\n      dup1\n      dup3\n      dup1\n      mload\n      swap1\n      0x20\n      add\n      swap1\n      dup1\n      dup4\n      dup4\n    tag_360:\n      0x20\n      dup4\n      lt\n      tag_362\n      jumpi\n      dup1\n      mload\n      dup3\n      mstore\n      0x20\n      dup3\n      add\n      swap2\n      pop\n      0x20\n      dup2\n      add\n      swap1\n      pop\n      0x20\n      dup4\n      sub\n      swap3\n      pop\n      jump(tag_360)\n    tag_362:\n      0x01\n      dup4\n      0x20\n      sub\n      0x0100\n      exp\n      sub\n      dup1\n      not\n      dup3\n      mload\n      and\n      dup2\n      dup5\n      mload\n      and\n      dup1\n      dup3\n      or\n      dup6\n      mstore\n      pop\n      pop\n      pop\n      pop\n      pop\n      pop\n      swap1\n      pop\n      add\n      swap2\n      pop\n      pop\n      0x00\n      mload(0x40)\n      dup1\n      dup4\n      sub\n      dup2\n      dup6\n      dup8\n      gas\n      call\n      swap3\n      pop\n      pop\n      pop\n      returndatasize\n      dup1\n      0x00\n      dup2\n      eq\n      tag_365\n      jumpi\n      mload(0x40)\n      swap2\n      pop\n      and(add(returndatasize, 0x3f), not(0x1f))\n      dup3\n      add\n      0x40\n      mstore\n      returndatasize\n      dup3\n      mstore\n      returndatasize\n      0x00\n      0x20\n      dup5\n      add\n      returndatacopy\n      jump(tag_364)\n    tag_365:\n      0x60\n      swap2\n      pop\n    tag_364:\n      pop\n        /* \"@openzeppelin/contracts/utils/Address.sol\":4908:4981  (bool success, bytes memory returndata) = target.call{value: value}(data) */\n      swap2\n      pop\n      swap2\n      pop\n        /* \"@openzeppelin/contracts/utils/Address.sol\":4998:5049  verifyCallResult(success, returndata, errorMessage) */\n      tag_366\n        /* \"@openzeppelin/contracts/utils/Address.sol\":5015:5022  success */\n      dup3\n        /* \"@openzeppelin/contracts/utils/Address.sol\":5024:5034  returndata */\n      dup3\n        /* \"@openzeppelin/contracts/utils/Address.sol\":5036:5048  errorMessage */\n      dup7\n        /* \"@openzeppelin/contracts/utils/Address.sol\":4998:5014  verifyCallResult */\n      tag_367\n        /* \"@openzeppelin/contracts/utils/Address.sol\":4998:5049  verifyCallResult(success, returndata, errorMessage) */\n      jump\t// in\n    tag_366:\n        /* \"@openzeppelin/contracts/utils/Address.sol\":4991:5049  return verifyCallResult(success, returndata, errorMessage) */\n      swap3\n      pop\n      pop\n      pop\n        /* \"@openzeppelin/contracts/utils/Address.sol\":4557:5056  function functionCallWithValue(... */\n      swap5\n      swap4\n      pop\n      pop\n      pop\n      pop\n      jump\t// out\n        /* \"@openzeppelin/contracts/utils/Address.sol\":727:1104  function isContract(address account) internal view returns (bool) {... */\n    tag_358:\n        /* \"@openzeppelin/contracts/utils/Address.sol\":787:791  bool */\n      0x00\n        /* \"@openzeppelin/contracts/utils/Address.sol\":990:1002  uint256 size */\n      dup1\n        /* \"@openzeppelin/contracts/utils/Address.sol\":1055:1062  account */\n      dup3\n        /* \"@openzeppelin/contracts/utils/Address.sol\":1043:1063  extcodesize(account) */\n      extcodesize\n        /* \"@openzeppelin/contracts/utils/Address.sol\":1035:1063  size := extcodesize(account) */\n      swap1\n      pop\n        /* \"@openzeppelin/contracts/utils/Address.sol\":1096:1097  0 */\n      0x00\n        /* \"@openzeppelin/contracts/utils/Address.sol\":1089:1093  size */\n      dup2\n        /* \"@openzeppelin/contracts/utils/Address.sol\":1089:1097  size > 0 */\n      gt\n        /* \"@openzeppelin/contracts/utils/Address.sol\":1082:1097  return size > 0 */\n      swap2\n      pop\n      pop\n        /* \"@openzeppelin/contracts/utils/Address.sol\":727:1104  function isContract(address account) internal view returns (bool) {... */\n      swap2\n      swap1\n      pop\n      jump\t// out\n        /* \"@openzeppelin/contracts/utils/Address.sol\":7170:7862  function verifyCallResult(... */\n    tag_367:\n        /* \"@openzeppelin/contracts/utils/Address.sol\":7316:7328  bytes memory */\n      0x60\n        /* \"@openzeppelin/contracts/utils/Address.sol\":7344:7351  success */\n      dup4\n        /* \"@openzeppelin/contracts/utils/Address.sol\":7340:7856  if (success) {... */\n      iszero\n      tag_370\n      jumpi\n        /* \"@openzeppelin/contracts/utils/Address.sol\":7374:7384  returndata */\n      dup3\n        /* \"@openzeppelin/contracts/utils/Address.sol\":7367:7384  return returndata */\n      swap1\n      pop\n      jump(tag_369)\n        /* \"@openzeppelin/contracts/utils/Address.sol\":7340:7856  if (success) {... */\n    tag_370:\n        /* \"@openzeppelin/contracts/utils/Address.sol\":7505:7506  0 */\n      0x00\n        /* \"@openzeppelin/contracts/utils/Address.sol\":7485:7495  returndata */\n      dup4\n        /* \"@openzeppelin/contracts/utils/Address.sol\":7485:7502  returndata.length */\n      mload\n        /* \"@openzeppelin/contracts/utils/Address.sol\":7485:7506  returndata.length > 0 */\n      gt\n        /* \"@openzeppelin/contracts/utils/Address.sol\":7481:7846  if (returndata.length > 0) {... */\n      iszero\n      tag_372\n      jumpi\n        /* \"@openzeppelin/contracts/utils/Address.sol\":7679:7689  returndata */\n      dup3\n        /* \"@openzeppelin/contracts/utils/Address.sol\":7673:7690  mload(returndata) */\n      mload\n        /* \"@openzeppelin/contracts/utils/Address.sol\":7739:7754  returndata_size */\n      dup1\n        /* \"@openzeppelin/contracts/utils/Address.sol\":7726:7736  returndata */\n      dup5\n        /* \"@openzeppelin/contracts/utils/Address.sol\":7722:7724  32 */\n      0x20\n        /* \"@openzeppelin/contracts/utils/Address.sol\":7718:7737  add(32, returndata) */\n      add\n        /* \"@openzeppelin/contracts/utils/Address.sol\":7711:7755  revert(add(32, returndata), returndata_size) */\n      revert\n        /* \"@openzeppelin/contracts/utils/Address.sol\":7628:7773  {... */\n    tag_372:\n        /* \"@openzeppelin/contracts/utils/Address.sol\":7818:7830  errorMessage */\n      dup2\n        /* \"@openzeppelin/contracts/utils/Address.sol\":7811:7831  revert(errorMessage) */\n      mload(0x40)\n      0x08c379a000000000000000000000000000000000000000000000000000000000\n      dup2\n      mstore\n      0x04\n      add\n      dup1\n      dup1\n      0x20\n      add\n      dup3\n      dup2\n      sub\n      dup3\n      mstore\n      dup4\n      dup2\n      dup2\n      mload\n      dup2\n      mstore\n      0x20\n      add\n      swap2\n      pop\n      dup1\n      mload\n      swap1\n      0x20\n      add\n      swap1\n      dup1\n      dup4\n      dup4\n      0x00\n    tag_374:\n      dup4\n      dup2\n      lt\n      iszero\n      tag_376\n      jumpi\n      dup1\n      dup3\n      add\n      mload\n      dup2\n      dup5\n      add\n      mstore\n      0x20\n      dup2\n      add\n      swap1\n      pop\n      jump(tag_374)\n    tag_376:\n      pop\n      pop\n      pop\n      pop\n      swap1\n      pop\n      swap1\n      dup2\n      add\n      swap1\n      0x1f\n      and\n      dup1\n      iszero\n      tag_377\n      jumpi\n      dup1\n      dup3\n      sub\n      dup1\n      mload\n      0x01\n      dup4\n      0x20\n      sub\n      0x0100\n      exp\n      sub\n      not\n      and\n      dup2\n      mstore\n      0x20\n      add\n      swap2\n      pop\n    tag_377:\n      pop\n      swap3\n      pop\n      pop\n      pop\n      mload(0x40)\n      dup1\n      swap2\n      sub\n      swap1\n      revert\n        /* \"@openzeppelin/contracts/utils/Address.sol\":7170:7862  function verifyCallResult(... */\n    tag_369:\n      swap4\n      swap3\n      pop\n      pop\n      pop\n      jump\t// out\n    stop\n    data_245f15ff17f551913a7a18385165551503906a406f905ac1c2437281a7cd0cfe 4f776e61626c653a206e6577206f776e657220697320746865207a65726f2061646472657373\n    data_565f1a77334fc4792800921178c71e4521acffab18ff9e7885b49377ee80ab4c 416464726573733a20696e73756666696369656e742062616c616e636520666f722063616c6c\n    data_756508c1c0554725dd91ce0028667672a5318d736a5e4bcd98b6bc8fe98c3dc7 6f70657261746f723a207a65726f206164647265737320676976656e20666f72206e6577206f70657261746f72\n    data_9113bb53c2876a3805b2c9242029423fc540a728243ce887ab24c82cf119fba3 536166654d6174683a206d756c7469706c69636174696f6e206f766572666c6f77\n    data_a62bfdba5053072911b63b0f6325b0e83fcd28b5a847d97efdd966feb4daaafb 6f70657261746f723a2063616c6c6572206973206e6f7420746865206f70657261746f72\n    data_e11ad79d1e4a7f2e5f376964cb99e8e8f7904e3fc16a109f7a7ecb9aa7956dcd 5361666545524332303a204552433230206f7065726174696f6e20646964206e6f742073756363656564\n\n    auxdata: 0xa26469706673582212209f8aec96aeb2611380f2b796adaa964d304e39a4f119426cbfe2a8c096f680fa64736f6c63430007060033\n}\n",
				"bytecode": {
					"linkReferences": {},
					"object": "6080604052600060055560405180604001604052806910f0cf064dd59200000069ffffffffffffffffffff168152602001690cb49b44ba602d80000069ffffffffffffffffffff1681525060079060026200005c929190620004a7565b503480156200006a57600080fd5b50604051620031ea380380620031ea833981810160405260408110156200009057600080fd5b8101908080519060200190929190805190602001909291905050506000620000bd6200041460201b60201c565b9050806000806101000a81548173ffffffffffffffffffffffffffffffffffffffff021916908373ffffffffffffffffffffffffffffffffffffffff1602179055508073ffffffffffffffffffffffffffffffffffffffff16600073ffffffffffffffffffffffffffffffffffffffff167f8be0079c531659141344cd1fd0a4f28419497f9722a3daafe3b4186f6b6457e060405160405180910390a3506200016b6200041460201b60201c565b600160006101000a81548173ffffffffffffffffffffffffffffffffffffffff021916908373ffffffffffffffffffffffffffffffffffffffff160217905550600160009054906101000a900473ffffffffffffffffffffffffffffffffffffffff1673ffffffffffffffffffffffffffffffffffffffff16600073ffffffffffffffffffffffffffffffffffffffff167f74da04524d50c64947f5dd5381ef1a4dca5cba8ed1d816243f9e48aa0b5617ed60405160405180910390a38042106200029e576040517f08c379a00000000000000000000000000000000000000000000000000000000081526004018080602001828103825260048152602001807f6c6174650000000000000000000000000000000000000000000000000000000081525060200191505060405180910390fd5b600073ffffffffffffffffffffffffffffffffffffffff168273ffffffffffffffffffffffffffffffffffffffff1614620003155781600260006101000a81548173ffffffffffffffffffffffffffffffffffffffff021916908373ffffffffffffffffffffffffffffffffffffffff1602179055505b80600681905550620546006006540160086000600381106200033357fe5b01819055506206978060086000600381106200034b57fe5b01540160086001600381106200035d57fe5b0181905550620003986205460060076000815481106200037957fe5b90600052602060002001546200041c60201b620020d11790919060201c565b600b600060038110620003a757fe5b0181905550620003e2620697806007600181548110620003c357fe5b90600052602060002001546200041c60201b620020d11790919060201c565b600b600160038110620003f157fe5b01819055506000600b6002600381106200040757fe5b0181905550505062000526565b600033905090565b600080821162000494576040517f08c379a000000000000000000000000000000000000000000000000000000000815260040180806020018281038252601a8152602001807f536166654d6174683a206469766973696f6e206279207a65726f00000000000081525060200191505060405180910390fd5b8183816200049e57fe5b04905092915050565b828054828255906000526020600020908101928215620004f4579160200282015b82811115620004f3578251829069ffffffffffffffffffff16905591602001919060010190620004c8565b5b50905062000503919062000507565b5090565b5b808211156200052257600081600090555060010162000508565b5090565b612cb480620005366000396000f3fe608060405234801561001057600080fd5b50600436106101585760003560e01c80635f96dc11116100c35780639a25cefc1161007c5780639a25cefc146105a4578063b89e73c1146105e6578063e177bb3814610628578063e2bbb1581461065c578063f2fde38b14610694578063f8d936b3146106d857610158565b80635f96dc1114610471578063630b5ba11461048f578063715018a6146104995780638da5cb5b146104a357806393f1a40b146104d757806396805e541461054057610158565b80634456eda2116101155780634456eda2146102f15780634d1e4f421461031157806351eb05a6146103735780635312ea8e146103a157806354575af4146103cf578063570ca7351461043d57610158565b80631526fe271461015d57806317caf6f1146101d35780631ab06ee5146101f1578063231f0c6a1461022957806329605e7714610275578063441a3e70146102b9575b600080fd5b6101896004803603602081101561017357600080fd5b810190808035906020019092919050505061071a565b604051808673ffffffffffffffffffffffffffffffffffffffff16815260200185815260200184815260200183815260200182151581526020019550505050505060405180910390f35b6101db61078d565b6040518082815260200191505060405180910390f35b6102276004803603604081101561020757600080fd5b810190808035906020019092919080359060200190929190505050610793565b005b61025f6004803603604081101561023f57600080fd5b8101908080359060200190929190803590602001909291905050506108b7565b6040518082815260200191505060405180910390f35b6102b76004803603602081101561028b57600080fd5b81019080803573ffffffffffffffffffffffffffffffffffffffff169060200190929190505050610ba8565b005b6102ef600480360360408110156102cf57600080fd5b810190808035906020019092919080359060200190929190505050610c63565b005b6102f9610f1b565b60405180821515815260200191505060405180910390f35b61035d6004803603604081101561032757600080fd5b8101908080359060200190929190803573ffffffffffffffffffffffffffffffffffffffff169060200190929190505050610f7a565b6040518082815260200191505060405180910390f35b61039f6004803603602081101561038957600080fd5b81019080803590602001909291905050506111b2565b005b6103cd600480360360208110156103b757600080fd5b81019080803590602001909291905050506113c1565b005b61043b600480360360608110156103e557600080fd5b81019080803573ffffffffffffffffffffffffffffffffffffffff16906020019092919080359060200190929190803573ffffffffffffffffffffffffffffffffffffffff1690602001909291905050506114f5565b005b6104456117b4565b604051808273ffffffffffffffffffffffffffffffffffffffff16815260200191505060405180910390f35b6104796117de565b6040518082815260200191505060405180910390f35b6104976117e4565b005b6104a1611811565b005b6104ab61197e565b604051808273ffffffffffffffffffffffffffffffffffffffff16815260200191505060405180910390f35b610523600480360360408110156104ed57600080fd5b8101908080359060200190929190803573ffffffffffffffffffffffffffffffffffffffff1690602001909291905050506119a7565b604051808381526020018281526020019250505060405180910390f35b6105a26004803603608081101561055657600080fd5b8101908080359060200190929190803573ffffffffffffffffffffffffffffffffffffffff169060200190929190803515159060200190929190803590602001909291905050506119d8565b005b6105d0600480360360208110156105ba57600080fd5b8101908080359060200190929190505050611c11565b6040518082815260200191505060405180910390f35b610612600480360360208110156105fc57600080fd5b8101908080359060200190929190505050611c35565b6040518082815260200191505060405180910390f35b610630611c50565b604051808273ffffffffffffffffffffffffffffffffffffffff16815260200191505060405180910390f35b6106926004803603604081101561067257600080fd5b810190808035906020019092919080359060200190929190505050611c76565b005b6106d6600480360360208110156106aa57600080fd5b81019080803573ffffffffffffffffffffffffffffffffffffffff169060200190929190505050611ec4565b005b610704600480360360208110156106ee57600080fd5b81019080803590602001909291905050506120b6565b6040518082815260200191505060405180910390f35b6003818154811061072a57600080fd5b90600052602060002090600502016000915090508060000160009054906101000a900473ffffffffffffffffffffffffffffffffffffffff16908060010154908060020154908060030154908060040160009054906101000a900460ff16905085565b60055481565b3373ffffffffffffffffffffffffffffffffffffffff16600160009054906101000a900473ffffffffffffffffffffffffffffffffffffffff1673ffffffffffffffffffffffffffffffffffffffff1614610839576040517f08c379a0000000000000000000000000000000000000000000000000000000008152600401808060200182810382526024815260200180612c316024913960400191505060405180910390fd5b6108416117e4565b60006003838154811061085057fe5b906000526020600020906005020190508060040160009054906101000a900460ff16156108a9576108a282610894836001015460055461215a90919063ffffffff16565b6121dd90919063ffffffff16565b6005819055505b818160010181905550505050565b600080600290505b60018160ff1610610b6a5760086001820360ff16600381106108dd57fe5b01548310610b5e5760086001820360ff16600381106108f857fe5b0154841061093e57610936600b8260ff166003811061091357fe5b0154610928868661215a90919063ffffffff16565b61226590919063ffffffff16565b915050610ba2565b600061098a600b8360ff166003811061095357fe5b015461097c60086001860360ff166003811061096b57fe5b01548761215a90919063ffffffff16565b61226590919063ffffffff16565b905060018260ff1614156109f6576109ed6109de600b6000600381106109ac57fe5b01546109d08860086000600381106109c057fe5b015461215a90919063ffffffff16565b61226590919063ffffffff16565b826121dd90919063ffffffff16565b92505050610ba2565b6001820391505b60018260ff1610610b005760086001830360ff1660038110610a1b57fe5b01548510610a8557610a7c610a6d600b8460ff1660038110610a3957fe5b0154610a5f8860088760ff1660038110610a4f57fe5b015461215a90919063ffffffff16565b61226590919063ffffffff16565b826121dd90919063ffffffff16565b92505050610ba2565b610af2610ae3600b8460ff1660038110610a9b57fe5b0154610ad560086001870360ff1660038110610ab357fe5b015460088760ff1660038110610ac557fe5b015461215a90919063ffffffff16565b61226590919063ffffffff16565b826121dd90919063ffffffff16565b9050816001900391506109fd565b610b55610b46600b600060038110610b1457fe5b0154610b38886008600060038110610b2857fe5b015461215a90919063ffffffff16565b61226590919063ffffffff16565b826121dd90919063ffffffff16565b92505050610ba2565b806001900390506108bf565b50610b9f600b600060038110610b7c57fe5b0154610b91858561215a90919063ffffffff16565b61226590919063ffffffff16565b90505b92915050565b610bb06122eb565b73ffffffffffffffffffffffffffffffffffffffff16610bce61197e565b73ffffffffffffffffffffffffffffffffffffffff1614610c57576040517f08c379a00000000000000000000000000000000000000000000000000000000081526004018080602001828103825260208152602001807f4f776e61626c653a2063616c6c6572206973206e6f7420746865206f776e657281525060200191505060405180910390fd5b610c60816122f3565b50565b6000339050600060038481548110610c7757fe5b9060005260206000209060050201905060006004600086815260200190815260200160002060008473ffffffffffffffffffffffffffffffffffffffff1673ffffffffffffffffffffffffffffffffffffffff16815260200190815260200160002090508381600001541015610d55576040517f08c379a00000000000000000000000000000000000000000000000000000000081526004018080602001828103825260128152602001807f77697468647261773a206e6f7420676f6f64000000000000000000000000000081525060200191505060405180910390fd5b610d5e856111b2565b6000610dab8260010154610d9d670de0b6b3a7640000610d8f8760030154876000015461226590919063ffffffff16565b6120d190919063ffffffff16565b61215a90919063ffffffff16565b90506000811115610e0f57610dc08482612421565b8373ffffffffffffffffffffffffffffffffffffffff167fe2403640ba68fed3a2f88b7557551d1993f84b99bb10ff833f0cf8db0c5e0486826040518082815260200191505060405180910390a25b6000851115610e8757610e2f85836000015461215a90919063ffffffff16565b8260000181905550610e8684868560000160009054906101000a900473ffffffffffffffffffffffffffffffffffffffff1673ffffffffffffffffffffffffffffffffffffffff166125a09092919063ffffffff16565b5b610ebc670de0b6b3a7640000610eae8560030154856000015461226590919063ffffffff16565b6120d190919063ffffffff16565b8260010181905550858473ffffffffffffffffffffffffffffffffffffffff167ff279e6a1f5e320cca91135676d9cb6e44ca8a08c0b88342bcdb1144f6511b568876040518082815260200191505060405180910390a3505050505050565b6000600160009054906101000a900473ffffffffffffffffffffffffffffffffffffffff1673ffffffffffffffffffffffffffffffffffffffff16610f5e6122eb565b73ffffffffffffffffffffffffffffffffffffffff1614905090565b60008060038481548110610f8a57fe5b9060005260206000209060050201905060006004600086815260200190815260200160002060008573ffffffffffffffffffffffffffffffffffffffff1673ffffffffffffffffffffffffffffffffffffffff168152602001908152602001600020905060008260030154905060008360000160009054906101000a900473ffffffffffffffffffffffffffffffffffffffff1673ffffffffffffffffffffffffffffffffffffffff166370a08231306040518263ffffffff1660e01b8152600401808273ffffffffffffffffffffffffffffffffffffffff16815260200191505060206040518083038186803b15801561108457600080fd5b505afa158015611098573d6000803e3d6000fd5b505050506040513d60208110156110ae57600080fd5b810190808051906020019092919050505090508360020154421180156110d5575060008114155b1561115f5760006110ea8560020154426108b7565b9050600061111960055461110b88600101548561226590919063ffffffff16565b6120d190919063ffffffff16565b905061115a61114b8461113d670de0b6b3a76400008561226590919063ffffffff16565b6120d190919063ffffffff16565b856121dd90919063ffffffff16565b935050505b6111a68360010154611198670de0b6b3a764000061118a86886000015461226590919063ffffffff16565b6120d190919063ffffffff16565b61215a90919063ffffffff16565b94505050505092915050565b6000600382815481106111c157fe5b90600052602060002090600502019050806002015442116111e257506113be565b60008160000160009054906101000a900473ffffffffffffffffffffffffffffffffffffffff1673ffffffffffffffffffffffffffffffffffffffff166370a08231306040518263ffffffff1660e01b8152600401808273ffffffffffffffffffffffffffffffffffffffff16815260200191505060206040518083038186803b15801561126f57600080fd5b505afa158015611283573d6000803e3d6000fd5b505050506040513d602081101561129957600080fd5b8101908080519060200190929190505050905060008114156112c55742826002018190555050506113be565b8160040160009054906101000a900460ff166113185760018260040160006101000a81548160ff02191690831515021790555061131182600101546005546121dd90919063ffffffff16565b6005819055505b600060055411156113b25760006113338360020154426108b7565b9050600061136260055461135486600101548561226590919063ffffffff16565b6120d190919063ffffffff16565b90506113a761139484611386670de0b6b3a76400008561226590919063ffffffff16565b6120d190919063ffffffff16565b85600301546121dd90919063ffffffff16565b846003018190555050505b42826002018190555050505b50565b6000600382815481106113d057fe5b9060005260206000209060050201905060006004600084815260200190815260200160002060003373ffffffffffffffffffffffffffffffffffffffff1673ffffffffffffffffffffffffffffffffffffffff168152602001908152602001600020905060008160000154905060008260000181905550600082600101819055506114a033828560000160009054906101000a900473ffffffffffffffffffffffffffffffffffffffff1673ffffffffffffffffffffffffffffffffffffffff166125a09092919063ffffffff16565b833373ffffffffffffffffffffffffffffffffffffffff167fbb757047c2b5f3974fe26b7c10f732e7bce710b0952a71082702781e62ae0595836040518082815260200191505060405180910390a350505050565b3373ffffffffffffffffffffffffffffffffffffffff16600160009054906101000a900473ffffffffffffffffffffffffffffffffffffffff1673ffffffffffffffffffffffffffffffffffffffff161461159b576040517f08c379a0000000000000000000000000000000000000000000000000000000008152600401808060200182810382526024815260200180612c316024913960400191505060405180910390fd5b62278d0060086001600381106115ad57fe5b01540142101561178457600260009054906101000a900473ffffffffffffffffffffffffffffffffffffffff1673ffffffffffffffffffffffffffffffffffffffff168373ffffffffffffffffffffffffffffffffffffffff16141561167b576040517f08c379a00000000000000000000000000000000000000000000000000000000081526004018080602001828103825260058152602001807f21506f6c7900000000000000000000000000000000000000000000000000000081525060200191505060405180910390fd5b6000600380549050905060005b818110156117815760006003828154811061169f57fe5b906000526020600020906005020190508060000160009054906101000a900473ffffffffffffffffffffffffffffffffffffffff1673ffffffffffffffffffffffffffffffffffffffff168673ffffffffffffffffffffffffffffffffffffffff161415611775576040517f08c379a000000000000000000000000000000000000000000000000000000000815260040180806020018281038252600b8152602001807f21706f6f6c2e746f6b656e00000000000000000000000000000000000000000081525060200191505060405180910390fd5b50806001019050611688565b50505b6117af81838573ffffffffffffffffffffffffffffffffffffffff166125a09092919063ffffffff16565b505050565b6000600160009054906101000a900473ffffffffffffffffffffffffffffffffffffffff16905090565b60065481565b6000600380549050905060005b8181101561180d57611802816111b2565b8060010190506117f1565b5050565b6118196122eb565b73ffffffffffffffffffffffffffffffffffffffff1661183761197e565b73ffffffffffffffffffffffffffffffffffffffff16146118c0576040517f08c379a00000000000000000000000000000000000000000000000000000000081526004018080602001828103825260208152602001807f4f776e61626c653a2063616c6c6572206973206e6f7420746865206f776e657281525060200191505060405180910390fd5b600073ffffffffffffffffffffffffffffffffffffffff1660008054906101000a900473ffffffffffffffffffffffffffffffffffffffff1673ffffffffffffffffffffffffffffffffffffffff167f8be0079c531659141344cd1fd0a4f28419497f9722a3daafe3b4186f6b6457e060405160405180910390a360008060006101000a81548173ffffffffffffffffffffffffffffffffffffffff021916908373ffffffffffffffffffffffffffffffffffffffff160217905550565b60008060009054906101000a900473ffffffffffffffffffffffffffffffffffffffff16905090565b6004602052816000526040600020602052806000526040600020600091509150508060000154908060010154905082565b3373ffffffffffffffffffffffffffffffffffffffff16600160009054906101000a900473ffffffffffffffffffffffffffffffffffffffff1673ffffffffffffffffffffffffffffffffffffffff1614611a7e576040517f08c379a0000000000000000000000000000000000000000000000000000000008152600401808060200182810382526024815260200180612c316024913960400191505060405180910390fd5b611a8783612642565b8115611a9657611a956117e4565b5b600654421015611ac9576000811415611ab3576006549050611ac4565b600654811015611ac35760065490505b5b611ae1565b6000811480611ad757504281105b15611ae0574290505b5b600060065482111580611af45750428211155b905060036040518060a001604052808673ffffffffffffffffffffffffffffffffffffffff16815260200187815260200184815260200160008152602001831515815250908060018154018082558091505060019003906000526020600020906005020160009091909190915060008201518160000160006101000a81548173ffffffffffffffffffffffffffffffffffffffff021916908373ffffffffffffffffffffffffffffffffffffffff16021790555060208201518160010155604082015181600201556060820151816003015560808201518160040160006101000a81548160ff02191690831515021790555050508015611c0a57611c03856005546121dd90919063ffffffff16565b6005819055505b5050505050565b60078181548110611c2157600080fd5b906000526020600020016000915090505481565b60088160038110611c4557600080fd5b016000915090505481565b600260009054906101000a900473ffffffffffffffffffffffffffffffffffffffff1681565b6000339050600060038481548110611c8a57fe5b9060005260206000209060050201905060006004600086815260200190815260200160002060008473ffffffffffffffffffffffffffffffffffffffff1673ffffffffffffffffffffffffffffffffffffffff1681526020019081526020016000209050611cf7856111b2565b600081600001541115611db7576000611d518260010154611d43670de0b6b3a7640000611d358760030154876000015461226590919063ffffffff16565b6120d190919063ffffffff16565b61215a90919063ffffffff16565b90506000811115611db557611d668482612421565b8373ffffffffffffffffffffffffffffffffffffffff167fe2403640ba68fed3a2f88b7557551d1993f84b99bb10ff833f0cf8db0c5e0486826040518082815260200191505060405180910390a25b505b6000841115611e3157611e118330868560000160009054906101000a900473ffffffffffffffffffffffffffffffffffffffff1673ffffffffffffffffffffffffffffffffffffffff16612747909392919063ffffffff16565b611e288482600001546121dd90919063ffffffff16565b81600001819055505b611e66670de0b6b3a7640000611e588460030154846000015461226590919063ffffffff16565b6120d190919063ffffffff16565b8160010181905550848373ffffffffffffffffffffffffffffffffffffffff167f90890809c654f11d6e72a28fa60149770a0d11ec6c92319d6ceb2bb0a4ea1a15866040518082815260200191505060405180910390a35050505050565b611ecc6122eb565b73ffffffffffffffffffffffffffffffffffffffff16611eea61197e565b73ffffffffffffffffffffffffffffffffffffffff1614611f73576040517f08c379a00000000000000000000000000000000000000000000000000000000081526004018080602001828103825260208152602001807f4f776e61626c653a2063616c6c6572206973206e6f7420746865206f776e657281525060200191505060405180910390fd5b600073ffffffffffffffffffffffffffffffffffffffff168173ffffffffffffffffffffffffffffffffffffffff161415611ff9576040517f08c379a0000000000000000000000000000000000000000000000000000000008152600401808060200182810382526026815260200180612b976026913960400191505060405180910390fd5b8073ffffffffffffffffffffffffffffffffffffffff1660008054906101000a900473ffffffffffffffffffffffffffffffffffffffff1673ffffffffffffffffffffffffffffffffffffffff167f8be0079c531659141344cd1fd0a4f28419497f9722a3daafe3b4186f6b6457e060405160405180910390a3806000806101000a81548173ffffffffffffffffffffffffffffffffffffffff021916908373ffffffffffffffffffffffffffffffffffffffff16021790555050565b600b81600381106120c657600080fd5b016000915090505481565b6000808211612148576040517f08c379a000000000000000000000000000000000000000000000000000000000815260040180806020018281038252601a8152602001807f536166654d6174683a206469766973696f6e206279207a65726f00000000000081525060200191505060405180910390fd5b81838161215157fe5b04905092915050565b6000828211156121d2576040517f08c379a000000000000000000000000000000000000000000000000000000000815260040180806020018281038252601e8152602001807f536166654d6174683a207375627472616374696f6e206f766572666c6f77000081525060200191505060405180910390fd5b818303905092915050565b60008082840190508381101561225b576040517f08c379a000000000000000000000000000000000000000000000000000000000815260040180806020018281038252601b8152602001807f536166654d6174683a206164646974696f6e206f766572666c6f77000000000081525060200191505060405180910390fd5b8091505092915050565b60008083141561227857600090506122e5565b600082840290508284828161228957fe5b04146122e0576040517f08c379a0000000000000000000000000000000000000000000000000000000008152600401808060200182810382526021815260200180612c106021913960400191505060405180910390fd5b809150505b92915050565b600033905090565b600073ffffffffffffffffffffffffffffffffffffffff168173ffffffffffffffffffffffffffffffffffffffff161415612379576040517f08c379a000000000000000000000000000000000000000000000000000000000815260040180806020018281038252602d815260200180612be3602d913960400191505060405180910390fd5b8073ffffffffffffffffffffffffffffffffffffffff16600073ffffffffffffffffffffffffffffffffffffffff167f74da04524d50c64947f5dd5381ef1a4dca5cba8ed1d816243f9e48aa0b5617ed60405160405180910390a36123dd81611ec4565b80600160006101000a81548173ffffffffffffffffffffffffffffffffffffffff021916908373ffffffffffffffffffffffffffffffffffffffff16021790555050565b6000600260009054906101000a900473ffffffffffffffffffffffffffffffffffffffff1673ffffffffffffffffffffffffffffffffffffffff166370a08231306040518263ffffffff1660e01b8152600401808273ffffffffffffffffffffffffffffffffffffffff16815260200191505060206040518083038186803b1580156124ac57600080fd5b505afa1580156124c0573d6000803e3d6000fd5b505050506040513d60208110156124d657600080fd5b81019080805190602001909291905050509050600081111561259b578082111561254c576125478382600260009054906101000a900473ffffffffffffffffffffffffffffffffffffffff1673ffffffffffffffffffffffffffffffffffffffff166125a09092919063ffffffff16565b61259a565b6125998383600260009054906101000a900473ffffffffffffffffffffffffffffffffffffffff1673ffffffffffffffffffffffffffffffffffffffff166125a09092919063ffffffff16565b5b5b505050565b61263d8363a9059cbb60e01b8484604051602401808373ffffffffffffffffffffffffffffffffffffffff16815260200182815260200192505050604051602081830303815290604052907bffffffffffffffffffffffffffffffffffffffffffffffffffffffff19166020820180517bffffffffffffffffffffffffffffffffffffffffffffffffffffffff8381831617835250505050612808565b505050565b6000600380549050905060005b81811015612742578273ffffffffffffffffffffffffffffffffffffffff166003828154811061267b57fe5b906000526020600020906005020160000160009054906101000a900473ffffffffffffffffffffffffffffffffffffffff1673ffffffffffffffffffffffffffffffffffffffff161415612737576040517f08c379a000000000000000000000000000000000000000000000000000000000815260040180806020018281038252601e8152602001807f506f6c79526577617264506f6f6c3a206578697374696e6720706f6f6c3f000081525060200191505060405180910390fd5b80600101905061264f565b505050565b612802846323b872dd60e01b858585604051602401808473ffffffffffffffffffffffffffffffffffffffff1681526020018373ffffffffffffffffffffffffffffffffffffffff1681526020018281526020019350505050604051602081830303815290604052907bffffffffffffffffffffffffffffffffffffffffffffffffffffffff19166020820180517bffffffffffffffffffffffffffffffffffffffffffffffffffffffff8381831617835250505050612808565b50505050565b600061286a826040518060400160405280602081526020017f5361666545524332303a206c6f772d6c6576656c2063616c6c206661696c65648152508573ffffffffffffffffffffffffffffffffffffffff166128f79092919063ffffffff16565b90506000815111156128f25780806020019051602081101561288b57600080fd5b81019080805190602001909291905050506128f1576040517f08c379a000000000000000000000000000000000000000000000000000000000815260040180806020018281038252602a815260200180612c55602a913960400191505060405180910390fd5b5b505050565b6060612906848460008561290f565b90509392505050565b60608247101561296a576040517f08c379a0000000000000000000000000000000000000000000000000000000008152600401808060200182810382526026815260200180612bbd6026913960400191505060405180910390fd5b61297385612ab7565b6129e5576040517f08c379a000000000000000000000000000000000000000000000000000000000815260040180806020018281038252601d8152602001807f416464726573733a2063616c6c20746f206e6f6e2d636f6e747261637400000081525060200191505060405180910390fd5b6000808673ffffffffffffffffffffffffffffffffffffffff1685876040518082805190602001908083835b60208310612a345780518252602082019150602081019050602083039250612a11565b6001836020036101000a03801982511681845116808217855250505050505090500191505060006040518083038185875af1925050503d8060008114612a96576040519150601f19603f3d011682016040523d82523d6000602084013e612a9b565b606091505b5091509150612aab828286612aca565b92505050949350505050565b600080823b905060008111915050919050565b60608315612ada57829050612b8f565b600083511115612aed5782518084602001fd5b816040517f08c379a00000000000000000000000000000000000000000000000000000000081526004018080602001828103825283818151815260200191508051906020019080838360005b83811015612b54578082015181840152602081019050612b39565b50505050905090810190601f168015612b815780820380516001836020036101000a031916815260200191505b509250505060405180910390fd5b939250505056fe4f776e61626c653a206e6577206f776e657220697320746865207a65726f2061646472657373416464726573733a20696e73756666696369656e742062616c616e636520666f722063616c6c6f70657261746f723a207a65726f206164647265737320676976656e20666f72206e6577206f70657261746f72536166654d6174683a206d756c7469706c69636174696f6e206f766572666c6f776f70657261746f723a2063616c6c6572206973206e6f7420746865206f70657261746f725361666545524332303a204552433230206f7065726174696f6e20646964206e6f742073756363656564a26469706673582212209f8aec96aeb2611380f2b796adaa964d304e39a4f119426cbfe2a8c096f680fa64736f6c63430007060033",
					"opcodes": "PUSH1 0x80 PUSH1 0x40 MSTORE PUSH1 0x0 PUSH1 0x5 SSTORE PUSH1 0x40 MLOAD DUP1 PUSH1 0x40 ADD PUSH1 0x40 MSTORE DUP1 PUSH10 0x10F0CF064DD592000000 PUSH10 0xFFFFFFFFFFFFFFFFFFFF AND DUP2 MSTORE PUSH1 0x20 ADD PUSH10 0xCB49B44BA602D800000 PUSH10 0xFFFFFFFFFFFFFFFFFFFF AND DUP2 MSTORE POP PUSH1 0x7 SWAP1 PUSH1 0x2 PUSH3 0x5C SWAP3 SWAP2 SWAP1 PUSH3 0x4A7 JUMP JUMPDEST POP CALLVALUE DUP1 ISZERO PUSH3 0x6A JUMPI PUSH1 0x0 DUP1 REVERT JUMPDEST POP PUSH1 0x40 MLOAD PUSH3 0x31EA CODESIZE SUB DUP1 PUSH3 0x31EA DUP4 CODECOPY DUP2 DUP2 ADD PUSH1 0x40 MSTORE PUSH1 0x40 DUP2 LT ISZERO PUSH3 0x90 JUMPI PUSH1 0x0 DUP1 REVERT JUMPDEST DUP2 ADD SWAP1 DUP1 DUP1 MLOAD SWAP1 PUSH1 0x20 ADD SWAP1 SWAP3 SWAP2 SWAP1 DUP1 MLOAD SWAP1 PUSH1 0x20 ADD SWAP1 SWAP3 SWAP2 SWAP1 POP POP POP PUSH1 0x0 PUSH3 0xBD PUSH3 0x414 PUSH1 0x20 SHL PUSH1 0x20 SHR JUMP JUMPDEST SWAP1 POP DUP1 PUSH1 0x0 DUP1 PUSH2 0x100 EXP DUP2 SLOAD DUP2 PUSH20 0xFFFFFFFFFFFFFFFFFFFFFFFFFFFFFFFFFFFFFFFF MUL NOT AND SWAP1 DUP4 PUSH20 0xFFFFFFFFFFFFFFFFFFFFFFFFFFFFFFFFFFFFFFFF AND MUL OR SWAP1 SSTORE POP DUP1 PUSH20 0xFFFFFFFFFFFFFFFFFFFFFFFFFFFFFFFFFFFFFFFF AND PUSH1 0x0 PUSH20 0xFFFFFFFFFFFFFFFFFFFFFFFFFFFFFFFFFFFFFFFF AND PUSH32 0x8BE0079C531659141344CD1FD0A4F28419497F9722A3DAAFE3B4186F6B6457E0 PUSH1 0x40 MLOAD PUSH1 0x40 MLOAD DUP1 SWAP2 SUB SWAP1 LOG3 POP PUSH3 0x16B PUSH3 0x414 PUSH1 0x20 SHL PUSH1 0x20 SHR JUMP JUMPDEST PUSH1 0x1 PUSH1 0x0 PUSH2 0x100 EXP DUP2 SLOAD DUP2 PUSH20 0xFFFFFFFFFFFFFFFFFFFFFFFFFFFFFFFFFFFFFFFF MUL NOT AND SWAP1 DUP4 PUSH20 0xFFFFFFFFFFFFFFFFFFFFFFFFFFFFFFFFFFFFFFFF AND MUL OR SWAP1 SSTORE POP PUSH1 0x1 PUSH1 0x0 SWAP1 SLOAD SWAP1 PUSH2 0x100 EXP SWAP1 DIV PUSH20 0xFFFFFFFFFFFFFFFFFFFFFFFFFFFFFFFFFFFFFFFF AND PUSH20 0xFFFFFFFFFFFFFFFFFFFFFFFFFFFFFFFFFFFFFFFF AND PUSH1 0x0 PUSH20 0xFFFFFFFFFFFFFFFFFFFFFFFFFFFFFFFFFFFFFFFF AND PUSH32 0x74DA04524D50C64947F5DD5381EF1A4DCA5CBA8ED1D816243F9E48AA0B5617ED PUSH1 0x40 MLOAD PUSH1 0x40 MLOAD DUP1 SWAP2 SUB SWAP1 LOG3 DUP1 TIMESTAMP LT PUSH3 0x29E JUMPI PUSH1 0x40 MLOAD PUSH32 0x8C379A000000000000000000000000000000000000000000000000000000000 DUP2 MSTORE PUSH1 0x4 ADD DUP1 DUP1 PUSH1 0x20 ADD DUP3 DUP2 SUB DUP3 MSTORE PUSH1 0x4 DUP2 MSTORE PUSH1 0x20 ADD DUP1 PUSH32 0x6C61746500000000000000000000000000000000000000000000000000000000 DUP2 MSTORE POP PUSH1 0x20 ADD SWAP2 POP POP PUSH1 0x40 MLOAD DUP1 SWAP2 SUB SWAP1 REVERT JUMPDEST PUSH1 0x0 PUSH20 0xFFFFFFFFFFFFFFFFFFFFFFFFFFFFFFFFFFFFFFFF AND DUP3 PUSH20 0xFFFFFFFFFFFFFFFFFFFFFFFFFFFFFFFFFFFFFFFF AND EQ PUSH3 0x315 JUMPI DUP2 PUSH1 0x2 PUSH1 0x0 PUSH2 0x100 EXP DUP2 SLOAD DUP2 PUSH20 0xFFFFFFFFFFFFFFFFFFFFFFFFFFFFFFFFFFFFFFFF MUL NOT AND SWAP1 DUP4 PUSH20 0xFFFFFFFFFFFFFFFFFFFFFFFFFFFFFFFFFFFFFFFF AND MUL OR SWAP1 SSTORE POP JUMPDEST DUP1 PUSH1 0x6 DUP2 SWAP1 SSTORE POP PUSH3 0x54600 PUSH1 0x6 SLOAD ADD PUSH1 0x8 PUSH1 0x0 PUSH1 0x3 DUP2 LT PUSH3 0x333 JUMPI INVALID JUMPDEST ADD DUP2 SWAP1 SSTORE POP PUSH3 0x69780 PUSH1 0x8 PUSH1 0x0 PUSH1 0x3 DUP2 LT PUSH3 0x34B JUMPI INVALID JUMPDEST ADD SLOAD ADD PUSH1 0x8 PUSH1 0x1 PUSH1 0x3 DUP2 LT PUSH3 0x35D JUMPI INVALID JUMPDEST ADD DUP2 SWAP1 SSTORE POP PUSH3 0x398 PUSH3 0x54600 PUSH1 0x7 PUSH1 0x0 DUP2 SLOAD DUP2 LT PUSH3 0x379 JUMPI INVALID JUMPDEST SWAP1 PUSH1 0x0 MSTORE PUSH1 0x20 PUSH1 0x0 KECCAK256 ADD SLOAD PUSH3 0x41C PUSH1 0x20 SHL PUSH3 0x20D1 OR SWAP1 SWAP2 SWAP1 PUSH1 0x20 SHR JUMP JUMPDEST PUSH1 0xB PUSH1 0x0 PUSH1 0x3 DUP2 LT PUSH3 0x3A7 JUMPI INVALID JUMPDEST ADD DUP2 SWAP1 SSTORE POP PUSH3 0x3E2 PUSH3 0x69780 PUSH1 0x7 PUSH1 0x1 DUP2 SLOAD DUP2 LT PUSH3 0x3C3 JUMPI INVALID JUMPDEST SWAP1 PUSH1 0x0 MSTORE PUSH1 0x20 PUSH1 0x0 KECCAK256 ADD SLOAD PUSH3 0x41C PUSH1 0x20 SHL PUSH3 0x20D1 OR SWAP1 SWAP2 SWAP1 PUSH1 0x20 SHR JUMP JUMPDEST PUSH1 0xB PUSH1 0x1 PUSH1 0x3 DUP2 LT PUSH3 0x3F1 JUMPI INVALID JUMPDEST ADD DUP2 SWAP1 SSTORE POP PUSH1 0x0 PUSH1 0xB PUSH1 0x2 PUSH1 0x3 DUP2 LT PUSH3 0x407 JUMPI INVALID JUMPDEST ADD DUP2 SWAP1 SSTORE POP POP POP PUSH3 0x526 JUMP JUMPDEST PUSH1 0x0 CALLER SWAP1 POP SWAP1 JUMP JUMPDEST PUSH1 0x0 DUP1 DUP3 GT PUSH3 0x494 JUMPI PUSH1 0x40 MLOAD PUSH32 0x8C379A000000000000000000000000000000000000000000000000000000000 DUP2 MSTORE PUSH1 0x4 ADD DUP1 DUP1 PUSH1 0x20 ADD DUP3 DUP2 SUB DUP3 MSTORE PUSH1 0x1A DUP2 MSTORE PUSH1 0x20 ADD DUP1 PUSH32 0x536166654D6174683A206469766973696F6E206279207A65726F000000000000 DUP2 MSTORE POP PUSH1 0x20 ADD SWAP2 POP POP PUSH1 0x40 MLOAD DUP1 SWAP2 SUB SWAP1 REVERT JUMPDEST DUP2 DUP4 DUP2 PUSH3 0x49E JUMPI INVALID JUMPDEST DIV SWAP1 POP SWAP3 SWAP2 POP POP JUMP JUMPDEST DUP3 DUP1 SLOAD DUP3 DUP3 SSTORE SWAP1 PUSH1 0x0 MSTORE PUSH1 0x20 PUSH1 0x0 KECCAK256 SWAP1 DUP2 ADD SWAP3 DUP3 ISZERO PUSH3 0x4F4 JUMPI SWAP2 PUSH1 0x20 MUL DUP3 ADD JUMPDEST DUP3 DUP2 GT ISZERO PUSH3 0x4F3 JUMPI DUP3 MLOAD DUP3 SWAP1 PUSH10 0xFFFFFFFFFFFFFFFFFFFF AND SWAP1 SSTORE SWAP2 PUSH1 0x20 ADD SWAP2 SWAP1 PUSH1 0x1 ADD SWAP1 PUSH3 0x4C8 JUMP JUMPDEST JUMPDEST POP SWAP1 POP PUSH3 0x503 SWAP2 SWAP1 PUSH3 0x507 JUMP JUMPDEST POP SWAP1 JUMP JUMPDEST JUMPDEST DUP1 DUP3 GT ISZERO PUSH3 0x522 JUMPI PUSH1 0x0 DUP2 PUSH1 0x0 SWAP1 SSTORE POP PUSH1 0x1 ADD PUSH3 0x508 JUMP JUMPDEST POP SWAP1 JUMP JUMPDEST PUSH2 0x2CB4 DUP1 PUSH3 0x536 PUSH1 0x0 CODECOPY PUSH1 0x0 RETURN INVALID PUSH1 0x80 PUSH1 0x40 MSTORE CALLVALUE DUP1 ISZERO PUSH2 0x10 JUMPI PUSH1 0x0 DUP1 REVERT JUMPDEST POP PUSH1 0x4 CALLDATASIZE LT PUSH2 0x158 JUMPI PUSH1 0x0 CALLDATALOAD PUSH1 0xE0 SHR DUP1 PUSH4 0x5F96DC11 GT PUSH2 0xC3 JUMPI DUP1 PUSH4 0x9A25CEFC GT PUSH2 0x7C JUMPI DUP1 PUSH4 0x9A25CEFC EQ PUSH2 0x5A4 JUMPI DUP1 PUSH4 0xB89E73C1 EQ PUSH2 0x5E6 JUMPI DUP1 PUSH4 0xE177BB38 EQ PUSH2 0x628 JUMPI DUP1 PUSH4 0xE2BBB158 EQ PUSH2 0x65C JUMPI DUP1 PUSH4 0xF2FDE38B EQ PUSH2 0x694 JUMPI DUP1 PUSH4 0xF8D936B3 EQ PUSH2 0x6D8 JUMPI PUSH2 0x158 JUMP JUMPDEST DUP1 PUSH4 0x5F96DC11 EQ PUSH2 0x471 JUMPI DUP1 PUSH4 0x630B5BA1 EQ PUSH2 0x48F JUMPI DUP1 PUSH4 0x715018A6 EQ PUSH2 0x499 JUMPI DUP1 PUSH4 0x8DA5CB5B EQ PUSH2 0x4A3 JUMPI DUP1 PUSH4 0x93F1A40B EQ PUSH2 0x4D7 JUMPI DUP1 PUSH4 0x96805E54 EQ PUSH2 0x540 JUMPI PUSH2 0x158 JUMP JUMPDEST DUP1 PUSH4 0x4456EDA2 GT PUSH2 0x115 JUMPI DUP1 PUSH4 0x4456EDA2 EQ PUSH2 0x2F1 JUMPI DUP1 PUSH4 0x4D1E4F42 EQ PUSH2 0x311 JUMPI DUP1 PUSH4 0x51EB05A6 EQ PUSH2 0x373 JUMPI DUP1 PUSH4 0x5312EA8E EQ PUSH2 0x3A1 JUMPI DUP1 PUSH4 0x54575AF4 EQ PUSH2 0x3CF JUMPI DUP1 PUSH4 0x570CA735 EQ PUSH2 0x43D JUMPI PUSH2 0x158 JUMP JUMPDEST DUP1 PUSH4 0x1526FE27 EQ PUSH2 0x15D JUMPI DUP1 PUSH4 0x17CAF6F1 EQ PUSH2 0x1D3 JUMPI DUP1 PUSH4 0x1AB06EE5 EQ PUSH2 0x1F1 JUMPI DUP1 PUSH4 0x231F0C6A EQ PUSH2 0x229 JUMPI DUP1 PUSH4 0x29605E77 EQ PUSH2 0x275 JUMPI DUP1 PUSH4 0x441A3E70 EQ PUSH2 0x2B9 JUMPI JUMPDEST PUSH1 0x0 DUP1 REVERT JUMPDEST PUSH2 0x189 PUSH1 0x4 DUP1 CALLDATASIZE SUB PUSH1 0x20 DUP2 LT ISZERO PUSH2 0x173 JUMPI PUSH1 0x0 DUP1 REVERT JUMPDEST DUP2 ADD SWAP1 DUP1 DUP1 CALLDATALOAD SWAP1 PUSH1 0x20 ADD SWAP1 SWAP3 SWAP2 SWAP1 POP POP POP PUSH2 0x71A JUMP JUMPDEST PUSH1 0x40 MLOAD DUP1 DUP7 PUSH20 0xFFFFFFFFFFFFFFFFFFFFFFFFFFFFFFFFFFFFFFFF AND DUP2 MSTORE PUSH1 0x20 ADD DUP6 DUP2 MSTORE PUSH1 0x20 ADD DUP5 DUP2 MSTORE PUSH1 0x20 ADD DUP4 DUP2 MSTORE PUSH1 0x20 ADD DUP3 ISZERO ISZERO DUP2 MSTORE PUSH1 0x20 ADD SWAP6 POP POP POP POP POP POP PUSH1 0x40 MLOAD DUP1 SWAP2 SUB SWAP1 RETURN JUMPDEST PUSH2 0x1DB PUSH2 0x78D JUMP JUMPDEST PUSH1 0x40 MLOAD DUP1 DUP3 DUP2 MSTORE PUSH1 0x20 ADD SWAP2 POP POP PUSH1 0x40 MLOAD DUP1 SWAP2 SUB SWAP1 RETURN JUMPDEST PUSH2 0x227 PUSH1 0x4 DUP1 CALLDATASIZE SUB PUSH1 0x40 DUP2 LT ISZERO PUSH2 0x207 JUMPI PUSH1 0x0 DUP1 REVERT JUMPDEST DUP2 ADD SWAP1 DUP1 DUP1 CALLDATALOAD SWAP1 PUSH1 0x20 ADD SWAP1 SWAP3 SWAP2 SWAP1 DUP1 CALLDATALOAD SWAP1 PUSH1 0x20 ADD SWAP1 SWAP3 SWAP2 SWAP1 POP POP POP PUSH2 0x793 JUMP JUMPDEST STOP JUMPDEST PUSH2 0x25F PUSH1 0x4 DUP1 CALLDATASIZE SUB PUSH1 0x40 DUP2 LT ISZERO PUSH2 0x23F JUMPI PUSH1 0x0 DUP1 REVERT JUMPDEST DUP2 ADD SWAP1 DUP1 DUP1 CALLDATALOAD SWAP1 PUSH1 0x20 ADD SWAP1 SWAP3 SWAP2 SWAP1 DUP1 CALLDATALOAD SWAP1 PUSH1 0x20 ADD SWAP1 SWAP3 SWAP2 SWAP1 POP POP POP PUSH2 0x8B7 JUMP JUMPDEST PUSH1 0x40 MLOAD DUP1 DUP3 DUP2 MSTORE PUSH1 0x20 ADD SWAP2 POP POP PUSH1 0x40 MLOAD DUP1 SWAP2 SUB SWAP1 RETURN JUMPDEST PUSH2 0x2B7 PUSH1 0x4 DUP1 CALLDATASIZE SUB PUSH1 0x20 DUP2 LT ISZERO PUSH2 0x28B JUMPI PUSH1 0x0 DUP1 REVERT JUMPDEST DUP2 ADD SWAP1 DUP1 DUP1 CALLDATALOAD PUSH20 0xFFFFFFFFFFFFFFFFFFFFFFFFFFFFFFFFFFFFFFFF AND SWAP1 PUSH1 0x20 ADD SWAP1 SWAP3 SWAP2 SWAP1 POP POP POP PUSH2 0xBA8 JUMP JUMPDEST STOP JUMPDEST PUSH2 0x2EF PUSH1 0x4 DUP1 CALLDATASIZE SUB PUSH1 0x40 DUP2 LT ISZERO PUSH2 0x2CF JUMPI PUSH1 0x0 DUP1 REVERT JUMPDEST DUP2 ADD SWAP1 DUP1 DUP1 CALLDATALOAD SWAP1 PUSH1 0x20 ADD SWAP1 SWAP3 SWAP2 SWAP1 DUP1 CALLDATALOAD SWAP1 PUSH1 0x20 ADD SWAP1 SWAP3 SWAP2 SWAP1 POP POP POP PUSH2 0xC63 JUMP JUMPDEST STOP JUMPDEST PUSH2 0x2F9 PUSH2 0xF1B JUMP JUMPDEST PUSH1 0x40 MLOAD DUP1 DUP3 ISZERO ISZERO DUP2 MSTORE PUSH1 0x20 ADD SWAP2 POP POP PUSH1 0x40 MLOAD DUP1 SWAP2 SUB SWAP1 RETURN JUMPDEST PUSH2 0x35D PUSH1 0x4 DUP1 CALLDATASIZE SUB PUSH1 0x40 DUP2 LT ISZERO PUSH2 0x327 JUMPI PUSH1 0x0 DUP1 REVERT JUMPDEST DUP2 ADD SWAP1 DUP1 DUP1 CALLDATALOAD SWAP1 PUSH1 0x20 ADD SWAP1 SWAP3 SWAP2 SWAP1 DUP1 CALLDATALOAD PUSH20 0xFFFFFFFFFFFFFFFFFFFFFFFFFFFFFFFFFFFFFFFF AND SWAP1 PUSH1 0x20 ADD SWAP1 SWAP3 SWAP2 SWAP1 POP POP POP PUSH2 0xF7A JUMP JUMPDEST PUSH1 0x40 MLOAD DUP1 DUP3 DUP2 MSTORE PUSH1 0x20 ADD SWAP2 POP POP PUSH1 0x40 MLOAD DUP1 SWAP2 SUB SWAP1 RETURN JUMPDEST PUSH2 0x39F PUSH1 0x4 DUP1 CALLDATASIZE SUB PUSH1 0x20 DUP2 LT ISZERO PUSH2 0x389 JUMPI PUSH1 0x0 DUP1 REVERT JUMPDEST DUP2 ADD SWAP1 DUP1 DUP1 CALLDATALOAD SWAP1 PUSH1 0x20 ADD SWAP1 SWAP3 SWAP2 SWAP1 POP POP POP PUSH2 0x11B2 JUMP JUMPDEST STOP JUMPDEST PUSH2 0x3CD PUSH1 0x4 DUP1 CALLDATASIZE SUB PUSH1 0x20 DUP2 LT ISZERO PUSH2 0x3B7 JUMPI PUSH1 0x0 DUP1 REVERT JUMPDEST DUP2 ADD SWAP1 DUP1 DUP1 CALLDATALOAD SWAP1 PUSH1 0x20 ADD SWAP1 SWAP3 SWAP2 SWAP1 POP POP POP PUSH2 0x13C1 JUMP JUMPDEST STOP JUMPDEST PUSH2 0x43B PUSH1 0x4 DUP1 CALLDATASIZE SUB PUSH1 0x60 DUP2 LT ISZERO PUSH2 0x3E5 JUMPI PUSH1 0x0 DUP1 REVERT JUMPDEST DUP2 ADD SWAP1 DUP1 DUP1 CALLDATALOAD PUSH20 0xFFFFFFFFFFFFFFFFFFFFFFFFFFFFFFFFFFFFFFFF AND SWAP1 PUSH1 0x20 ADD SWAP1 SWAP3 SWAP2 SWAP1 DUP1 CALLDATALOAD SWAP1 PUSH1 0x20 ADD SWAP1 SWAP3 SWAP2 SWAP1 DUP1 CALLDATALOAD PUSH20 0xFFFFFFFFFFFFFFFFFFFFFFFFFFFFFFFFFFFFFFFF AND SWAP1 PUSH1 0x20 ADD SWAP1 SWAP3 SWAP2 SWAP1 POP POP POP PUSH2 0x14F5 JUMP JUMPDEST STOP JUMPDEST PUSH2 0x445 PUSH2 0x17B4 JUMP JUMPDEST PUSH1 0x40 MLOAD DUP1 DUP3 PUSH20 0xFFFFFFFFFFFFFFFFFFFFFFFFFFFFFFFFFFFFFFFF AND DUP2 MSTORE PUSH1 0x20 ADD SWAP2 POP POP PUSH1 0x40 MLOAD DUP1 SWAP2 SUB SWAP1 RETURN JUMPDEST PUSH2 0x479 PUSH2 0x17DE JUMP JUMPDEST PUSH1 0x40 MLOAD DUP1 DUP3 DUP2 MSTORE PUSH1 0x20 ADD SWAP2 POP POP PUSH1 0x40 MLOAD DUP1 SWAP2 SUB SWAP1 RETURN JUMPDEST PUSH2 0x497 PUSH2 0x17E4 JUMP JUMPDEST STOP JUMPDEST PUSH2 0x4A1 PUSH2 0x1811 JUMP JUMPDEST STOP JUMPDEST PUSH2 0x4AB PUSH2 0x197E JUMP JUMPDEST PUSH1 0x40 MLOAD DUP1 DUP3 PUSH20 0xFFFFFFFFFFFFFFFFFFFFFFFFFFFFFFFFFFFFFFFF AND DUP2 MSTORE PUSH1 0x20 ADD SWAP2 POP POP PUSH1 0x40 MLOAD DUP1 SWAP2 SUB SWAP1 RETURN JUMPDEST PUSH2 0x523 PUSH1 0x4 DUP1 CALLDATASIZE SUB PUSH1 0x40 DUP2 LT ISZERO PUSH2 0x4ED JUMPI PUSH1 0x0 DUP1 REVERT JUMPDEST DUP2 ADD SWAP1 DUP1 DUP1 CALLDATALOAD SWAP1 PUSH1 0x20 ADD SWAP1 SWAP3 SWAP2 SWAP1 DUP1 CALLDATALOAD PUSH20 0xFFFFFFFFFFFFFFFFFFFFFFFFFFFFFFFFFFFFFFFF AND SWAP1 PUSH1 0x20 ADD SWAP1 SWAP3 SWAP2 SWAP1 POP POP POP PUSH2 0x19A7 JUMP JUMPDEST PUSH1 0x40 MLOAD DUP1 DUP4 DUP2 MSTORE PUSH1 0x20 ADD DUP3 DUP2 MSTORE PUSH1 0x20 ADD SWAP3 POP POP POP PUSH1 0x40 MLOAD DUP1 SWAP2 SUB SWAP1 RETURN JUMPDEST PUSH2 0x5A2 PUSH1 0x4 DUP1 CALLDATASIZE SUB PUSH1 0x80 DUP2 LT ISZERO PUSH2 0x556 JUMPI PUSH1 0x0 DUP1 REVERT JUMPDEST DUP2 ADD SWAP1 DUP1 DUP1 CALLDATALOAD SWAP1 PUSH1 0x20 ADD SWAP1 SWAP3 SWAP2 SWAP1 DUP1 CALLDATALOAD PUSH20 0xFFFFFFFFFFFFFFFFFFFFFFFFFFFFFFFFFFFFFFFF AND SWAP1 PUSH1 0x20 ADD SWAP1 SWAP3 SWAP2 SWAP1 DUP1 CALLDATALOAD ISZERO ISZERO SWAP1 PUSH1 0x20 ADD SWAP1 SWAP3 SWAP2 SWAP1 DUP1 CALLDATALOAD SWAP1 PUSH1 0x20 ADD SWAP1 SWAP3 SWAP2 SWAP1 POP POP POP PUSH2 0x19D8 JUMP JUMPDEST STOP JUMPDEST PUSH2 0x5D0 PUSH1 0x4 DUP1 CALLDATASIZE SUB PUSH1 0x20 DUP2 LT ISZERO PUSH2 0x5BA JUMPI PUSH1 0x0 DUP1 REVERT JUMPDEST DUP2 ADD SWAP1 DUP1 DUP1 CALLDATALOAD SWAP1 PUSH1 0x20 ADD SWAP1 SWAP3 SWAP2 SWAP1 POP POP POP PUSH2 0x1C11 JUMP JUMPDEST PUSH1 0x40 MLOAD DUP1 DUP3 DUP2 MSTORE PUSH1 0x20 ADD SWAP2 POP POP PUSH1 0x40 MLOAD DUP1 SWAP2 SUB SWAP1 RETURN JUMPDEST PUSH2 0x612 PUSH1 0x4 DUP1 CALLDATASIZE SUB PUSH1 0x20 DUP2 LT ISZERO PUSH2 0x5FC JUMPI PUSH1 0x0 DUP1 REVERT JUMPDEST DUP2 ADD SWAP1 DUP1 DUP1 CALLDATALOAD SWAP1 PUSH1 0x20 ADD SWAP1 SWAP3 SWAP2 SWAP1 POP POP POP PUSH2 0x1C35 JUMP JUMPDEST PUSH1 0x40 MLOAD DUP1 DUP3 DUP2 MSTORE PUSH1 0x20 ADD SWAP2 POP POP PUSH1 0x40 MLOAD DUP1 SWAP2 SUB SWAP1 RETURN JUMPDEST PUSH2 0x630 PUSH2 0x1C50 JUMP JUMPDEST PUSH1 0x40 MLOAD DUP1 DUP3 PUSH20 0xFFFFFFFFFFFFFFFFFFFFFFFFFFFFFFFFFFFFFFFF AND DUP2 MSTORE PUSH1 0x20 ADD SWAP2 POP POP PUSH1 0x40 MLOAD DUP1 SWAP2 SUB SWAP1 RETURN JUMPDEST PUSH2 0x692 PUSH1 0x4 DUP1 CALLDATASIZE SUB PUSH1 0x40 DUP2 LT ISZERO PUSH2 0x672 JUMPI PUSH1 0x0 DUP1 REVERT JUMPDEST DUP2 ADD SWAP1 DUP1 DUP1 CALLDATALOAD SWAP1 PUSH1 0x20 ADD SWAP1 SWAP3 SWAP2 SWAP1 DUP1 CALLDATALOAD SWAP1 PUSH1 0x20 ADD SWAP1 SWAP3 SWAP2 SWAP1 POP POP POP PUSH2 0x1C76 JUMP JUMPDEST STOP JUMPDEST PUSH2 0x6D6 PUSH1 0x4 DUP1 CALLDATASIZE SUB PUSH1 0x20 DUP2 LT ISZERO PUSH2 0x6AA JUMPI PUSH1 0x0 DUP1 REVERT JUMPDEST DUP2 ADD SWAP1 DUP1 DUP1 CALLDATALOAD PUSH20 0xFFFFFFFFFFFFFFFFFFFFFFFFFFFFFFFFFFFFFFFF AND SWAP1 PUSH1 0x20 ADD SWAP1 SWAP3 SWAP2 SWAP1 POP POP POP PUSH2 0x1EC4 JUMP JUMPDEST STOP JUMPDEST PUSH2 0x704 PUSH1 0x4 DUP1 CALLDATASIZE SUB PUSH1 0x20 DUP2 LT ISZERO PUSH2 0x6EE JUMPI PUSH1 0x0 DUP1 REVERT JUMPDEST DUP2 ADD SWAP1 DUP1 DUP1 CALLDATALOAD SWAP1 PUSH1 0x20 ADD SWAP1 SWAP3 SWAP2 SWAP1 POP POP POP PUSH2 0x20B6 JUMP JUMPDEST PUSH1 0x40 MLOAD DUP1 DUP3 DUP2 MSTORE PUSH1 0x20 ADD SWAP2 POP POP PUSH1 0x40 MLOAD DUP1 SWAP2 SUB SWAP1 RETURN JUMPDEST PUSH1 0x3 DUP2 DUP2 SLOAD DUP2 LT PUSH2 0x72A JUMPI PUSH1 0x0 DUP1 REVERT JUMPDEST SWAP1 PUSH1 0x0 MSTORE PUSH1 0x20 PUSH1 0x0 KECCAK256 SWAP1 PUSH1 0x5 MUL ADD PUSH1 0x0 SWAP2 POP SWAP1 POP DUP1 PUSH1 0x0 ADD PUSH1 0x0 SWAP1 SLOAD SWAP1 PUSH2 0x100 EXP SWAP1 DIV PUSH20 0xFFFFFFFFFFFFFFFFFFFFFFFFFFFFFFFFFFFFFFFF AND SWAP1 DUP1 PUSH1 0x1 ADD SLOAD SWAP1 DUP1 PUSH1 0x2 ADD SLOAD SWAP1 DUP1 PUSH1 0x3 ADD SLOAD SWAP1 DUP1 PUSH1 0x4 ADD PUSH1 0x0 SWAP1 SLOAD SWAP1 PUSH2 0x100 EXP SWAP1 DIV PUSH1 0xFF AND SWAP1 POP DUP6 JUMP JUMPDEST PUSH1 0x5 SLOAD DUP2 JUMP JUMPDEST CALLER PUSH20 0xFFFFFFFFFFFFFFFFFFFFFFFFFFFFFFFFFFFFFFFF AND PUSH1 0x1 PUSH1 0x0 SWAP1 SLOAD SWAP1 PUSH2 0x100 EXP SWAP1 DIV PUSH20 0xFFFFFFFFFFFFFFFFFFFFFFFFFFFFFFFFFFFFFFFF AND PUSH20 0xFFFFFFFFFFFFFFFFFFFFFFFFFFFFFFFFFFFFFFFF AND EQ PUSH2 0x839 JUMPI PUSH1 0x40 MLOAD PUSH32 0x8C379A000000000000000000000000000000000000000000000000000000000 DUP2 MSTORE PUSH1 0x4 ADD DUP1 DUP1 PUSH1 0x20 ADD DUP3 DUP2 SUB DUP3 MSTORE PUSH1 0x24 DUP2 MSTORE PUSH1 0x20 ADD DUP1 PUSH2 0x2C31 PUSH1 0x24 SWAP2 CODECOPY PUSH1 0x40 ADD SWAP2 POP POP PUSH1 0x40 MLOAD DUP1 SWAP2 SUB SWAP1 REVERT JUMPDEST PUSH2 0x841 PUSH2 0x17E4 JUMP JUMPDEST PUSH1 0x0 PUSH1 0x3 DUP4 DUP2 SLOAD DUP2 LT PUSH2 0x850 JUMPI INVALID JUMPDEST SWAP1 PUSH1 0x0 MSTORE PUSH1 0x20 PUSH1 0x0 KECCAK256 SWAP1 PUSH1 0x5 MUL ADD SWAP1 POP DUP1 PUSH1 0x4 ADD PUSH1 0x0 SWAP1 SLOAD SWAP1 PUSH2 0x100 EXP SWAP1 DIV PUSH1 0xFF AND ISZERO PUSH2 0x8A9 JUMPI PUSH2 0x8A2 DUP3 PUSH2 0x894 DUP4 PUSH1 0x1 ADD SLOAD PUSH1 0x5 SLOAD PUSH2 0x215A SWAP1 SWAP2 SWAP1 PUSH4 0xFFFFFFFF AND JUMP JUMPDEST PUSH2 0x21DD SWAP1 SWAP2 SWAP1 PUSH4 0xFFFFFFFF AND JUMP JUMPDEST PUSH1 0x5 DUP2 SWAP1 SSTORE POP JUMPDEST DUP2 DUP2 PUSH1 0x1 ADD DUP2 SWAP1 SSTORE POP POP POP POP JUMP JUMPDEST PUSH1 0x0 DUP1 PUSH1 0x2 SWAP1 POP JUMPDEST PUSH1 0x1 DUP2 PUSH1 0xFF AND LT PUSH2 0xB6A JUMPI PUSH1 0x8 PUSH1 0x1 DUP3 SUB PUSH1 0xFF AND PUSH1 0x3 DUP2 LT PUSH2 0x8DD JUMPI INVALID JUMPDEST ADD SLOAD DUP4 LT PUSH2 0xB5E JUMPI PUSH1 0x8 PUSH1 0x1 DUP3 SUB PUSH1 0xFF AND PUSH1 0x3 DUP2 LT PUSH2 0x8F8 JUMPI INVALID JUMPDEST ADD SLOAD DUP5 LT PUSH2 0x93E JUMPI PUSH2 0x936 PUSH1 0xB DUP3 PUSH1 0xFF AND PUSH1 0x3 DUP2 LT PUSH2 0x913 JUMPI INVALID JUMPDEST ADD SLOAD PUSH2 0x928 DUP7 DUP7 PUSH2 0x215A SWAP1 SWAP2 SWAP1 PUSH4 0xFFFFFFFF AND JUMP JUMPDEST PUSH2 0x2265 SWAP1 SWAP2 SWAP1 PUSH4 0xFFFFFFFF AND JUMP JUMPDEST SWAP2 POP POP PUSH2 0xBA2 JUMP JUMPDEST PUSH1 0x0 PUSH2 0x98A PUSH1 0xB DUP4 PUSH1 0xFF AND PUSH1 0x3 DUP2 LT PUSH2 0x953 JUMPI INVALID JUMPDEST ADD SLOAD PUSH2 0x97C PUSH1 0x8 PUSH1 0x1 DUP7 SUB PUSH1 0xFF AND PUSH1 0x3 DUP2 LT PUSH2 0x96B JUMPI INVALID JUMPDEST ADD SLOAD DUP8 PUSH2 0x215A SWAP1 SWAP2 SWAP1 PUSH4 0xFFFFFFFF AND JUMP JUMPDEST PUSH2 0x2265 SWAP1 SWAP2 SWAP1 PUSH4 0xFFFFFFFF AND JUMP JUMPDEST SWAP1 POP PUSH1 0x1 DUP3 PUSH1 0xFF AND EQ ISZERO PUSH2 0x9F6 JUMPI PUSH2 0x9ED PUSH2 0x9DE PUSH1 0xB PUSH1 0x0 PUSH1 0x3 DUP2 LT PUSH2 0x9AC JUMPI INVALID JUMPDEST ADD SLOAD PUSH2 0x9D0 DUP9 PUSH1 0x8 PUSH1 0x0 PUSH1 0x3 DUP2 LT PUSH2 0x9C0 JUMPI INVALID JUMPDEST ADD SLOAD PUSH2 0x215A SWAP1 SWAP2 SWAP1 PUSH4 0xFFFFFFFF AND JUMP JUMPDEST PUSH2 0x2265 SWAP1 SWAP2 SWAP1 PUSH4 0xFFFFFFFF AND JUMP JUMPDEST DUP3 PUSH2 0x21DD SWAP1 SWAP2 SWAP1 PUSH4 0xFFFFFFFF AND JUMP JUMPDEST SWAP3 POP POP POP PUSH2 0xBA2 JUMP JUMPDEST PUSH1 0x1 DUP3 SUB SWAP2 POP JUMPDEST PUSH1 0x1 DUP3 PUSH1 0xFF AND LT PUSH2 0xB00 JUMPI PUSH1 0x8 PUSH1 0x1 DUP4 SUB PUSH1 0xFF AND PUSH1 0x3 DUP2 LT PUSH2 0xA1B JUMPI INVALID JUMPDEST ADD SLOAD DUP6 LT PUSH2 0xA85 JUMPI PUSH2 0xA7C PUSH2 0xA6D PUSH1 0xB DUP5 PUSH1 0xFF AND PUSH1 0x3 DUP2 LT PUSH2 0xA39 JUMPI INVALID JUMPDEST ADD SLOAD PUSH2 0xA5F DUP9 PUSH1 0x8 DUP8 PUSH1 0xFF AND PUSH1 0x3 DUP2 LT PUSH2 0xA4F JUMPI INVALID JUMPDEST ADD SLOAD PUSH2 0x215A SWAP1 SWAP2 SWAP1 PUSH4 0xFFFFFFFF AND JUMP JUMPDEST PUSH2 0x2265 SWAP1 SWAP2 SWAP1 PUSH4 0xFFFFFFFF AND JUMP JUMPDEST DUP3 PUSH2 0x21DD SWAP1 SWAP2 SWAP1 PUSH4 0xFFFFFFFF AND JUMP JUMPDEST SWAP3 POP POP POP PUSH2 0xBA2 JUMP JUMPDEST PUSH2 0xAF2 PUSH2 0xAE3 PUSH1 0xB DUP5 PUSH1 0xFF AND PUSH1 0x3 DUP2 LT PUSH2 0xA9B JUMPI INVALID JUMPDEST ADD SLOAD PUSH2 0xAD5 PUSH1 0x8 PUSH1 0x1 DUP8 SUB PUSH1 0xFF AND PUSH1 0x3 DUP2 LT PUSH2 0xAB3 JUMPI INVALID JUMPDEST ADD SLOAD PUSH1 0x8 DUP8 PUSH1 0xFF AND PUSH1 0x3 DUP2 LT PUSH2 0xAC5 JUMPI INVALID JUMPDEST ADD SLOAD PUSH2 0x215A SWAP1 SWAP2 SWAP1 PUSH4 0xFFFFFFFF AND JUMP JUMPDEST PUSH2 0x2265 SWAP1 SWAP2 SWAP1 PUSH4 0xFFFFFFFF AND JUMP JUMPDEST DUP3 PUSH2 0x21DD SWAP1 SWAP2 SWAP1 PUSH4 0xFFFFFFFF AND JUMP JUMPDEST SWAP1 POP DUP2 PUSH1 0x1 SWAP1 SUB SWAP2 POP PUSH2 0x9FD JUMP JUMPDEST PUSH2 0xB55 PUSH2 0xB46 PUSH1 0xB PUSH1 0x0 PUSH1 0x3 DUP2 LT PUSH2 0xB14 JUMPI INVALID JUMPDEST ADD SLOAD PUSH2 0xB38 DUP9 PUSH1 0x8 PUSH1 0x0 PUSH1 0x3 DUP2 LT PUSH2 0xB28 JUMPI INVALID JUMPDEST ADD SLOAD PUSH2 0x215A SWAP1 SWAP2 SWAP1 PUSH4 0xFFFFFFFF AND JUMP JUMPDEST PUSH2 0x2265 SWAP1 SWAP2 SWAP1 PUSH4 0xFFFFFFFF AND JUMP JUMPDEST DUP3 PUSH2 0x21DD SWAP1 SWAP2 SWAP1 PUSH4 0xFFFFFFFF AND JUMP JUMPDEST SWAP3 POP POP POP PUSH2 0xBA2 JUMP JUMPDEST DUP1 PUSH1 0x1 SWAP1 SUB SWAP1 POP PUSH2 0x8BF JUMP JUMPDEST POP PUSH2 0xB9F PUSH1 0xB PUSH1 0x0 PUSH1 0x3 DUP2 LT PUSH2 0xB7C JUMPI INVALID JUMPDEST ADD SLOAD PUSH2 0xB91 DUP6 DUP6 PUSH2 0x215A SWAP1 SWAP2 SWAP1 PUSH4 0xFFFFFFFF AND JUMP JUMPDEST PUSH2 0x2265 SWAP1 SWAP2 SWAP1 PUSH4 0xFFFFFFFF AND JUMP JUMPDEST SWAP1 POP JUMPDEST SWAP3 SWAP2 POP POP JUMP JUMPDEST PUSH2 0xBB0 PUSH2 0x22EB JUMP JUMPDEST PUSH20 0xFFFFFFFFFFFFFFFFFFFFFFFFFFFFFFFFFFFFFFFF AND PUSH2 0xBCE PUSH2 0x197E JUMP JUMPDEST PUSH20 0xFFFFFFFFFFFFFFFFFFFFFFFFFFFFFFFFFFFFFFFF AND EQ PUSH2 0xC57 JUMPI PUSH1 0x40 MLOAD PUSH32 0x8C379A000000000000000000000000000000000000000000000000000000000 DUP2 MSTORE PUSH1 0x4 ADD DUP1 DUP1 PUSH1 0x20 ADD DUP3 DUP2 SUB DUP3 MSTORE PUSH1 0x20 DUP2 MSTORE PUSH1 0x20 ADD DUP1 PUSH32 0x4F776E61626C653A2063616C6C6572206973206E6F7420746865206F776E6572 DUP2 MSTORE POP PUSH1 0x20 ADD SWAP2 POP POP PUSH1 0x40 MLOAD DUP1 SWAP2 SUB SWAP1 REVERT JUMPDEST PUSH2 0xC60 DUP2 PUSH2 0x22F3 JUMP JUMPDEST POP JUMP JUMPDEST PUSH1 0x0 CALLER SWAP1 POP PUSH1 0x0 PUSH1 0x3 DUP5 DUP2 SLOAD DUP2 LT PUSH2 0xC77 JUMPI INVALID JUMPDEST SWAP1 PUSH1 0x0 MSTORE PUSH1 0x20 PUSH1 0x0 KECCAK256 SWAP1 PUSH1 0x5 MUL ADD SWAP1 POP PUSH1 0x0 PUSH1 0x4 PUSH1 0x0 DUP7 DUP2 MSTORE PUSH1 0x20 ADD SWAP1 DUP2 MSTORE PUSH1 0x20 ADD PUSH1 0x0 KECCAK256 PUSH1 0x0 DUP5 PUSH20 0xFFFFFFFFFFFFFFFFFFFFFFFFFFFFFFFFFFFFFFFF AND PUSH20 0xFFFFFFFFFFFFFFFFFFFFFFFFFFFFFFFFFFFFFFFF AND DUP2 MSTORE PUSH1 0x20 ADD SWAP1 DUP2 MSTORE PUSH1 0x20 ADD PUSH1 0x0 KECCAK256 SWAP1 POP DUP4 DUP2 PUSH1 0x0 ADD SLOAD LT ISZERO PUSH2 0xD55 JUMPI PUSH1 0x40 MLOAD PUSH32 0x8C379A000000000000000000000000000000000000000000000000000000000 DUP2 MSTORE PUSH1 0x4 ADD DUP1 DUP1 PUSH1 0x20 ADD DUP3 DUP2 SUB DUP3 MSTORE PUSH1 0x12 DUP2 MSTORE PUSH1 0x20 ADD DUP1 PUSH32 0x77697468647261773A206E6F7420676F6F640000000000000000000000000000 DUP2 MSTORE POP PUSH1 0x20 ADD SWAP2 POP POP PUSH1 0x40 MLOAD DUP1 SWAP2 SUB SWAP1 REVERT JUMPDEST PUSH2 0xD5E DUP6 PUSH2 0x11B2 JUMP JUMPDEST PUSH1 0x0 PUSH2 0xDAB DUP3 PUSH1 0x1 ADD SLOAD PUSH2 0xD9D PUSH8 0xDE0B6B3A7640000 PUSH2 0xD8F DUP8 PUSH1 0x3 ADD SLOAD DUP8 PUSH1 0x0 ADD SLOAD PUSH2 0x2265 SWAP1 SWAP2 SWAP1 PUSH4 0xFFFFFFFF AND JUMP JUMPDEST PUSH2 0x20D1 SWAP1 SWAP2 SWAP1 PUSH4 0xFFFFFFFF AND JUMP JUMPDEST PUSH2 0x215A SWAP1 SWAP2 SWAP1 PUSH4 0xFFFFFFFF AND JUMP JUMPDEST SWAP1 POP PUSH1 0x0 DUP2 GT ISZERO PUSH2 0xE0F JUMPI PUSH2 0xDC0 DUP5 DUP3 PUSH2 0x2421 JUMP JUMPDEST DUP4 PUSH20 0xFFFFFFFFFFFFFFFFFFFFFFFFFFFFFFFFFFFFFFFF AND PUSH32 0xE2403640BA68FED3A2F88B7557551D1993F84B99BB10FF833F0CF8DB0C5E0486 DUP3 PUSH1 0x40 MLOAD DUP1 DUP3 DUP2 MSTORE PUSH1 0x20 ADD SWAP2 POP POP PUSH1 0x40 MLOAD DUP1 SWAP2 SUB SWAP1 LOG2 JUMPDEST PUSH1 0x0 DUP6 GT ISZERO PUSH2 0xE87 JUMPI PUSH2 0xE2F DUP6 DUP4 PUSH1 0x0 ADD SLOAD PUSH2 0x215A SWAP1 SWAP2 SWAP1 PUSH4 0xFFFFFFFF AND JUMP JUMPDEST DUP3 PUSH1 0x0 ADD DUP2 SWAP1 SSTORE POP PUSH2 0xE86 DUP5 DUP7 DUP6 PUSH1 0x0 ADD PUSH1 0x0 SWAP1 SLOAD SWAP1 PUSH2 0x100 EXP SWAP1 DIV PUSH20 0xFFFFFFFFFFFFFFFFFFFFFFFFFFFFFFFFFFFFFFFF AND PUSH20 0xFFFFFFFFFFFFFFFFFFFFFFFFFFFFFFFFFFFFFFFF AND PUSH2 0x25A0 SWAP1 SWAP3 SWAP2 SWAP1 PUSH4 0xFFFFFFFF AND JUMP JUMPDEST JUMPDEST PUSH2 0xEBC PUSH8 0xDE0B6B3A7640000 PUSH2 0xEAE DUP6 PUSH1 0x3 ADD SLOAD DUP6 PUSH1 0x0 ADD SLOAD PUSH2 0x2265 SWAP1 SWAP2 SWAP1 PUSH4 0xFFFFFFFF AND JUMP JUMPDEST PUSH2 0x20D1 SWAP1 SWAP2 SWAP1 PUSH4 0xFFFFFFFF AND JUMP JUMPDEST DUP3 PUSH1 0x1 ADD DUP2 SWAP1 SSTORE POP DUP6 DUP5 PUSH20 0xFFFFFFFFFFFFFFFFFFFFFFFFFFFFFFFFFFFFFFFF AND PUSH32 0xF279E6A1F5E320CCA91135676D9CB6E44CA8A08C0B88342BCDB1144F6511B568 DUP8 PUSH1 0x40 MLOAD DUP1 DUP3 DUP2 MSTORE PUSH1 0x20 ADD SWAP2 POP POP PUSH1 0x40 MLOAD DUP1 SWAP2 SUB SWAP1 LOG3 POP POP POP POP POP POP JUMP JUMPDEST PUSH1 0x0 PUSH1 0x1 PUSH1 0x0 SWAP1 SLOAD SWAP1 PUSH2 0x100 EXP SWAP1 DIV PUSH20 0xFFFFFFFFFFFFFFFFFFFFFFFFFFFFFFFFFFFFFFFF AND PUSH20 0xFFFFFFFFFFFFFFFFFFFFFFFFFFFFFFFFFFFFFFFF AND PUSH2 0xF5E PUSH2 0x22EB JUMP JUMPDEST PUSH20 0xFFFFFFFFFFFFFFFFFFFFFFFFFFFFFFFFFFFFFFFF AND EQ SWAP1 POP SWAP1 JUMP JUMPDEST PUSH1 0x0 DUP1 PUSH1 0x3 DUP5 DUP2 SLOAD DUP2 LT PUSH2 0xF8A JUMPI INVALID JUMPDEST SWAP1 PUSH1 0x0 MSTORE PUSH1 0x20 PUSH1 0x0 KECCAK256 SWAP1 PUSH1 0x5 MUL ADD SWAP1 POP PUSH1 0x0 PUSH1 0x4 PUSH1 0x0 DUP7 DUP2 MSTORE PUSH1 0x20 ADD SWAP1 DUP2 MSTORE PUSH1 0x20 ADD PUSH1 0x0 KECCAK256 PUSH1 0x0 DUP6 PUSH20 0xFFFFFFFFFFFFFFFFFFFFFFFFFFFFFFFFFFFFFFFF AND PUSH20 0xFFFFFFFFFFFFFFFFFFFFFFFFFFFFFFFFFFFFFFFF AND DUP2 MSTORE PUSH1 0x20 ADD SWAP1 DUP2 MSTORE PUSH1 0x20 ADD PUSH1 0x0 KECCAK256 SWAP1 POP PUSH1 0x0 DUP3 PUSH1 0x3 ADD SLOAD SWAP1 POP PUSH1 0x0 DUP4 PUSH1 0x0 ADD PUSH1 0x0 SWAP1 SLOAD SWAP1 PUSH2 0x100 EXP SWAP1 DIV PUSH20 0xFFFFFFFFFFFFFFFFFFFFFFFFFFFFFFFFFFFFFFFF AND PUSH20 0xFFFFFFFFFFFFFFFFFFFFFFFFFFFFFFFFFFFFFFFF AND PUSH4 0x70A08231 ADDRESS PUSH1 0x40 MLOAD DUP3 PUSH4 0xFFFFFFFF AND PUSH1 0xE0 SHL DUP2 MSTORE PUSH1 0x4 ADD DUP1 DUP3 PUSH20 0xFFFFFFFFFFFFFFFFFFFFFFFFFFFFFFFFFFFFFFFF AND DUP2 MSTORE PUSH1 0x20 ADD SWAP2 POP POP PUSH1 0x20 PUSH1 0x40 MLOAD DUP1 DUP4 SUB DUP2 DUP7 DUP1 EXTCODESIZE ISZERO DUP1 ISZERO PUSH2 0x1084 JUMPI PUSH1 0x0 DUP1 REVERT JUMPDEST POP GAS STATICCALL ISZERO DUP1 ISZERO PUSH2 0x1098 JUMPI RETURNDATASIZE PUSH1 0x0 DUP1 RETURNDATACOPY RETURNDATASIZE PUSH1 0x0 REVERT JUMPDEST POP POP POP POP PUSH1 0x40 MLOAD RETURNDATASIZE PUSH1 0x20 DUP2 LT ISZERO PUSH2 0x10AE JUMPI PUSH1 0x0 DUP1 REVERT JUMPDEST DUP2 ADD SWAP1 DUP1 DUP1 MLOAD SWAP1 PUSH1 0x20 ADD SWAP1 SWAP3 SWAP2 SWAP1 POP POP POP SWAP1 POP DUP4 PUSH1 0x2 ADD SLOAD TIMESTAMP GT DUP1 ISZERO PUSH2 0x10D5 JUMPI POP PUSH1 0x0 DUP2 EQ ISZERO JUMPDEST ISZERO PUSH2 0x115F JUMPI PUSH1 0x0 PUSH2 0x10EA DUP6 PUSH1 0x2 ADD SLOAD TIMESTAMP PUSH2 0x8B7 JUMP JUMPDEST SWAP1 POP PUSH1 0x0 PUSH2 0x1119 PUSH1 0x5 SLOAD PUSH2 0x110B DUP9 PUSH1 0x1 ADD SLOAD DUP6 PUSH2 0x2265 SWAP1 SWAP2 SWAP1 PUSH4 0xFFFFFFFF AND JUMP JUMPDEST PUSH2 0x20D1 SWAP1 SWAP2 SWAP1 PUSH4 0xFFFFFFFF AND JUMP JUMPDEST SWAP1 POP PUSH2 0x115A PUSH2 0x114B DUP5 PUSH2 0x113D PUSH8 0xDE0B6B3A7640000 DUP6 PUSH2 0x2265 SWAP1 SWAP2 SWAP1 PUSH4 0xFFFFFFFF AND JUMP JUMPDEST PUSH2 0x20D1 SWAP1 SWAP2 SWAP1 PUSH4 0xFFFFFFFF AND JUMP JUMPDEST DUP6 PUSH2 0x21DD SWAP1 SWAP2 SWAP1 PUSH4 0xFFFFFFFF AND JUMP JUMPDEST SWAP4 POP POP POP JUMPDEST PUSH2 0x11A6 DUP4 PUSH1 0x1 ADD SLOAD PUSH2 0x1198 PUSH8 0xDE0B6B3A7640000 PUSH2 0x118A DUP7 DUP9 PUSH1 0x0 ADD SLOAD PUSH2 0x2265 SWAP1 SWAP2 SWAP1 PUSH4 0xFFFFFFFF AND JUMP JUMPDEST PUSH2 0x20D1 SWAP1 SWAP2 SWAP1 PUSH4 0xFFFFFFFF AND JUMP JUMPDEST PUSH2 0x215A SWAP1 SWAP2 SWAP1 PUSH4 0xFFFFFFFF AND JUMP JUMPDEST SWAP5 POP POP POP POP POP SWAP3 SWAP2 POP POP JUMP JUMPDEST PUSH1 0x0 PUSH1 0x3 DUP3 DUP2 SLOAD DUP2 LT PUSH2 0x11C1 JUMPI INVALID JUMPDEST SWAP1 PUSH1 0x0 MSTORE PUSH1 0x20 PUSH1 0x0 KECCAK256 SWAP1 PUSH1 0x5 MUL ADD SWAP1 POP DUP1 PUSH1 0x2 ADD SLOAD TIMESTAMP GT PUSH2 0x11E2 JUMPI POP PUSH2 0x13BE JUMP JUMPDEST PUSH1 0x0 DUP2 PUSH1 0x0 ADD PUSH1 0x0 SWAP1 SLOAD SWAP1 PUSH2 0x100 EXP SWAP1 DIV PUSH20 0xFFFFFFFFFFFFFFFFFFFFFFFFFFFFFFFFFFFFFFFF AND PUSH20 0xFFFFFFFFFFFFFFFFFFFFFFFFFFFFFFFFFFFFFFFF AND PUSH4 0x70A08231 ADDRESS PUSH1 0x40 MLOAD DUP3 PUSH4 0xFFFFFFFF AND PUSH1 0xE0 SHL DUP2 MSTORE PUSH1 0x4 ADD DUP1 DUP3 PUSH20 0xFFFFFFFFFFFFFFFFFFFFFFFFFFFFFFFFFFFFFFFF AND DUP2 MSTORE PUSH1 0x20 ADD SWAP2 POP POP PUSH1 0x20 PUSH1 0x40 MLOAD DUP1 DUP4 SUB DUP2 DUP7 DUP1 EXTCODESIZE ISZERO DUP1 ISZERO PUSH2 0x126F JUMPI PUSH1 0x0 DUP1 REVERT JUMPDEST POP GAS STATICCALL ISZERO DUP1 ISZERO PUSH2 0x1283 JUMPI RETURNDATASIZE PUSH1 0x0 DUP1 RETURNDATACOPY RETURNDATASIZE PUSH1 0x0 REVERT JUMPDEST POP POP POP POP PUSH1 0x40 MLOAD RETURNDATASIZE PUSH1 0x20 DUP2 LT ISZERO PUSH2 0x1299 JUMPI PUSH1 0x0 DUP1 REVERT JUMPDEST DUP2 ADD SWAP1 DUP1 DUP1 MLOAD SWAP1 PUSH1 0x20 ADD SWAP1 SWAP3 SWAP2 SWAP1 POP POP POP SWAP1 POP PUSH1 0x0 DUP2 EQ ISZERO PUSH2 0x12C5 JUMPI TIMESTAMP DUP3 PUSH1 0x2 ADD DUP2 SWAP1 SSTORE POP POP POP PUSH2 0x13BE JUMP JUMPDEST DUP2 PUSH1 0x4 ADD PUSH1 0x0 SWAP1 SLOAD SWAP1 PUSH2 0x100 EXP SWAP1 DIV PUSH1 0xFF AND PUSH2 0x1318 JUMPI PUSH1 0x1 DUP3 PUSH1 0x4 ADD PUSH1 0x0 PUSH2 0x100 EXP DUP2 SLOAD DUP2 PUSH1 0xFF MUL NOT AND SWAP1 DUP4 ISZERO ISZERO MUL OR SWAP1 SSTORE POP PUSH2 0x1311 DUP3 PUSH1 0x1 ADD SLOAD PUSH1 0x5 SLOAD PUSH2 0x21DD SWAP1 SWAP2 SWAP1 PUSH4 0xFFFFFFFF AND JUMP JUMPDEST PUSH1 0x5 DUP2 SWAP1 SSTORE POP JUMPDEST PUSH1 0x0 PUSH1 0x5 SLOAD GT ISZERO PUSH2 0x13B2 JUMPI PUSH1 0x0 PUSH2 0x1333 DUP4 PUSH1 0x2 ADD SLOAD TIMESTAMP PUSH2 0x8B7 JUMP JUMPDEST SWAP1 POP PUSH1 0x0 PUSH2 0x1362 PUSH1 0x5 SLOAD PUSH2 0x1354 DUP7 PUSH1 0x1 ADD SLOAD DUP6 PUSH2 0x2265 SWAP1 SWAP2 SWAP1 PUSH4 0xFFFFFFFF AND JUMP JUMPDEST PUSH2 0x20D1 SWAP1 SWAP2 SWAP1 PUSH4 0xFFFFFFFF AND JUMP JUMPDEST SWAP1 POP PUSH2 0x13A7 PUSH2 0x1394 DUP5 PUSH2 0x1386 PUSH8 0xDE0B6B3A7640000 DUP6 PUSH2 0x2265 SWAP1 SWAP2 SWAP1 PUSH4 0xFFFFFFFF AND JUMP JUMPDEST PUSH2 0x20D1 SWAP1 SWAP2 SWAP1 PUSH4 0xFFFFFFFF AND JUMP JUMPDEST DUP6 PUSH1 0x3 ADD SLOAD PUSH2 0x21DD SWAP1 SWAP2 SWAP1 PUSH4 0xFFFFFFFF AND JUMP JUMPDEST DUP5 PUSH1 0x3 ADD DUP2 SWAP1 SSTORE POP POP POP JUMPDEST TIMESTAMP DUP3 PUSH1 0x2 ADD DUP2 SWAP1 SSTORE POP POP POP JUMPDEST POP JUMP JUMPDEST PUSH1 0x0 PUSH1 0x3 DUP3 DUP2 SLOAD DUP2 LT PUSH2 0x13D0 JUMPI INVALID JUMPDEST SWAP1 PUSH1 0x0 MSTORE PUSH1 0x20 PUSH1 0x0 KECCAK256 SWAP1 PUSH1 0x5 MUL ADD SWAP1 POP PUSH1 0x0 PUSH1 0x4 PUSH1 0x0 DUP5 DUP2 MSTORE PUSH1 0x20 ADD SWAP1 DUP2 MSTORE PUSH1 0x20 ADD PUSH1 0x0 KECCAK256 PUSH1 0x0 CALLER PUSH20 0xFFFFFFFFFFFFFFFFFFFFFFFFFFFFFFFFFFFFFFFF AND PUSH20 0xFFFFFFFFFFFFFFFFFFFFFFFFFFFFFFFFFFFFFFFF AND DUP2 MSTORE PUSH1 0x20 ADD SWAP1 DUP2 MSTORE PUSH1 0x20 ADD PUSH1 0x0 KECCAK256 SWAP1 POP PUSH1 0x0 DUP2 PUSH1 0x0 ADD SLOAD SWAP1 POP PUSH1 0x0 DUP3 PUSH1 0x0 ADD DUP2 SWAP1 SSTORE POP PUSH1 0x0 DUP3 PUSH1 0x1 ADD DUP2 SWAP1 SSTORE POP PUSH2 0x14A0 CALLER DUP3 DUP6 PUSH1 0x0 ADD PUSH1 0x0 SWAP1 SLOAD SWAP1 PUSH2 0x100 EXP SWAP1 DIV PUSH20 0xFFFFFFFFFFFFFFFFFFFFFFFFFFFFFFFFFFFFFFFF AND PUSH20 0xFFFFFFFFFFFFFFFFFFFFFFFFFFFFFFFFFFFFFFFF AND PUSH2 0x25A0 SWAP1 SWAP3 SWAP2 SWAP1 PUSH4 0xFFFFFFFF AND JUMP JUMPDEST DUP4 CALLER PUSH20 0xFFFFFFFFFFFFFFFFFFFFFFFFFFFFFFFFFFFFFFFF AND PUSH32 0xBB757047C2B5F3974FE26B7C10F732E7BCE710B0952A71082702781E62AE0595 DUP4 PUSH1 0x40 MLOAD DUP1 DUP3 DUP2 MSTORE PUSH1 0x20 ADD SWAP2 POP POP PUSH1 0x40 MLOAD DUP1 SWAP2 SUB SWAP1 LOG3 POP POP POP POP JUMP JUMPDEST CALLER PUSH20 0xFFFFFFFFFFFFFFFFFFFFFFFFFFFFFFFFFFFFFFFF AND PUSH1 0x1 PUSH1 0x0 SWAP1 SLOAD SWAP1 PUSH2 0x100 EXP SWAP1 DIV PUSH20 0xFFFFFFFFFFFFFFFFFFFFFFFFFFFFFFFFFFFFFFFF AND PUSH20 0xFFFFFFFFFFFFFFFFFFFFFFFFFFFFFFFFFFFFFFFF AND EQ PUSH2 0x159B JUMPI PUSH1 0x40 MLOAD PUSH32 0x8C379A000000000000000000000000000000000000000000000000000000000 DUP2 MSTORE PUSH1 0x4 ADD DUP1 DUP1 PUSH1 0x20 ADD DUP3 DUP2 SUB DUP3 MSTORE PUSH1 0x24 DUP2 MSTORE PUSH1 0x20 ADD DUP1 PUSH2 0x2C31 PUSH1 0x24 SWAP2 CODECOPY PUSH1 0x40 ADD SWAP2 POP POP PUSH1 0x40 MLOAD DUP1 SWAP2 SUB SWAP1 REVERT JUMPDEST PUSH3 0x278D00 PUSH1 0x8 PUSH1 0x1 PUSH1 0x3 DUP2 LT PUSH2 0x15AD JUMPI INVALID JUMPDEST ADD SLOAD ADD TIMESTAMP LT ISZERO PUSH2 0x1784 JUMPI PUSH1 0x2 PUSH1 0x0 SWAP1 SLOAD SWAP1 PUSH2 0x100 EXP SWAP1 DIV PUSH20 0xFFFFFFFFFFFFFFFFFFFFFFFFFFFFFFFFFFFFFFFF AND PUSH20 0xFFFFFFFFFFFFFFFFFFFFFFFFFFFFFFFFFFFFFFFF AND DUP4 PUSH20 0xFFFFFFFFFFFFFFFFFFFFFFFFFFFFFFFFFFFFFFFF AND EQ ISZERO PUSH2 0x167B JUMPI PUSH1 0x40 MLOAD PUSH32 0x8C379A000000000000000000000000000000000000000000000000000000000 DUP2 MSTORE PUSH1 0x4 ADD DUP1 DUP1 PUSH1 0x20 ADD DUP3 DUP2 SUB DUP3 MSTORE PUSH1 0x5 DUP2 MSTORE PUSH1 0x20 ADD DUP1 PUSH32 0x21506F6C79000000000000000000000000000000000000000000000000000000 DUP2 MSTORE POP PUSH1 0x20 ADD SWAP2 POP POP PUSH1 0x40 MLOAD DUP1 SWAP2 SUB SWAP1 REVERT JUMPDEST PUSH1 0x0 PUSH1 0x3 DUP1 SLOAD SWAP1 POP SWAP1 POP PUSH1 0x0 JUMPDEST DUP2 DUP2 LT ISZERO PUSH2 0x1781 JUMPI PUSH1 0x0 PUSH1 0x3 DUP3 DUP2 SLOAD DUP2 LT PUSH2 0x169F JUMPI INVALID JUMPDEST SWAP1 PUSH1 0x0 MSTORE PUSH1 0x20 PUSH1 0x0 KECCAK256 SWAP1 PUSH1 0x5 MUL ADD SWAP1 POP DUP1 PUSH1 0x0 ADD PUSH1 0x0 SWAP1 SLOAD SWAP1 PUSH2 0x100 EXP SWAP1 DIV PUSH20 0xFFFFFFFFFFFFFFFFFFFFFFFFFFFFFFFFFFFFFFFF AND PUSH20 0xFFFFFFFFFFFFFFFFFFFFFFFFFFFFFFFFFFFFFFFF AND DUP7 PUSH20 0xFFFFFFFFFFFFFFFFFFFFFFFFFFFFFFFFFFFFFFFF AND EQ ISZERO PUSH2 0x1775 JUMPI PUSH1 0x40 MLOAD PUSH32 0x8C379A000000000000000000000000000000000000000000000000000000000 DUP2 MSTORE PUSH1 0x4 ADD DUP1 DUP1 PUSH1 0x20 ADD DUP3 DUP2 SUB DUP3 MSTORE PUSH1 0xB DUP2 MSTORE PUSH1 0x20 ADD DUP1 PUSH32 0x21706F6F6C2E746F6B656E000000000000000000000000000000000000000000 DUP2 MSTORE POP PUSH1 0x20 ADD SWAP2 POP POP PUSH1 0x40 MLOAD DUP1 SWAP2 SUB SWAP1 REVERT JUMPDEST POP DUP1 PUSH1 0x1 ADD SWAP1 POP PUSH2 0x1688 JUMP JUMPDEST POP POP JUMPDEST PUSH2 0x17AF DUP2 DUP4 DUP6 PUSH20 0xFFFFFFFFFFFFFFFFFFFFFFFFFFFFFFFFFFFFFFFF AND PUSH2 0x25A0 SWAP1 SWAP3 SWAP2 SWAP1 PUSH4 0xFFFFFFFF AND JUMP JUMPDEST POP POP POP JUMP JUMPDEST PUSH1 0x0 PUSH1 0x1 PUSH1 0x0 SWAP1 SLOAD SWAP1 PUSH2 0x100 EXP SWAP1 DIV PUSH20 0xFFFFFFFFFFFFFFFFFFFFFFFFFFFFFFFFFFFFFFFF AND SWAP1 POP SWAP1 JUMP JUMPDEST PUSH1 0x6 SLOAD DUP2 JUMP JUMPDEST PUSH1 0x0 PUSH1 0x3 DUP1 SLOAD SWAP1 POP SWAP1 POP PUSH1 0x0 JUMPDEST DUP2 DUP2 LT ISZERO PUSH2 0x180D JUMPI PUSH2 0x1802 DUP2 PUSH2 0x11B2 JUMP JUMPDEST DUP1 PUSH1 0x1 ADD SWAP1 POP PUSH2 0x17F1 JUMP JUMPDEST POP POP JUMP JUMPDEST PUSH2 0x1819 PUSH2 0x22EB JUMP JUMPDEST PUSH20 0xFFFFFFFFFFFFFFFFFFFFFFFFFFFFFFFFFFFFFFFF AND PUSH2 0x1837 PUSH2 0x197E JUMP JUMPDEST PUSH20 0xFFFFFFFFFFFFFFFFFFFFFFFFFFFFFFFFFFFFFFFF AND EQ PUSH2 0x18C0 JUMPI PUSH1 0x40 MLOAD PUSH32 0x8C379A000000000000000000000000000000000000000000000000000000000 DUP2 MSTORE PUSH1 0x4 ADD DUP1 DUP1 PUSH1 0x20 ADD DUP3 DUP2 SUB DUP3 MSTORE PUSH1 0x20 DUP2 MSTORE PUSH1 0x20 ADD DUP1 PUSH32 0x4F776E61626C653A2063616C6C6572206973206E6F7420746865206F776E6572 DUP2 MSTORE POP PUSH1 0x20 ADD SWAP2 POP POP PUSH1 0x40 MLOAD DUP1 SWAP2 SUB SWAP1 REVERT JUMPDEST PUSH1 0x0 PUSH20 0xFFFFFFFFFFFFFFFFFFFFFFFFFFFFFFFFFFFFFFFF AND PUSH1 0x0 DUP1 SLOAD SWAP1 PUSH2 0x100 EXP SWAP1 DIV PUSH20 0xFFFFFFFFFFFFFFFFFFFFFFFFFFFFFFFFFFFFFFFF AND PUSH20 0xFFFFFFFFFFFFFFFFFFFFFFFFFFFFFFFFFFFFFFFF AND PUSH32 0x8BE0079C531659141344CD1FD0A4F28419497F9722A3DAAFE3B4186F6B6457E0 PUSH1 0x40 MLOAD PUSH1 0x40 MLOAD DUP1 SWAP2 SUB SWAP1 LOG3 PUSH1 0x0 DUP1 PUSH1 0x0 PUSH2 0x100 EXP DUP2 SLOAD DUP2 PUSH20 0xFFFFFFFFFFFFFFFFFFFFFFFFFFFFFFFFFFFFFFFF MUL NOT AND SWAP1 DUP4 PUSH20 0xFFFFFFFFFFFFFFFFFFFFFFFFFFFFFFFFFFFFFFFF AND MUL OR SWAP1 SSTORE POP JUMP JUMPDEST PUSH1 0x0 DUP1 PUSH1 0x0 SWAP1 SLOAD SWAP1 PUSH2 0x100 EXP SWAP1 DIV PUSH20 0xFFFFFFFFFFFFFFFFFFFFFFFFFFFFFFFFFFFFFFFF AND SWAP1 POP SWAP1 JUMP JUMPDEST PUSH1 0x4 PUSH1 0x20 MSTORE DUP2 PUSH1 0x0 MSTORE PUSH1 0x40 PUSH1 0x0 KECCAK256 PUSH1 0x20 MSTORE DUP1 PUSH1 0x0 MSTORE PUSH1 0x40 PUSH1 0x0 KECCAK256 PUSH1 0x0 SWAP2 POP SWAP2 POP POP DUP1 PUSH1 0x0 ADD SLOAD SWAP1 DUP1 PUSH1 0x1 ADD SLOAD SWAP1 POP DUP3 JUMP JUMPDEST CALLER PUSH20 0xFFFFFFFFFFFFFFFFFFFFFFFFFFFFFFFFFFFFFFFF AND PUSH1 0x1 PUSH1 0x0 SWAP1 SLOAD SWAP1 PUSH2 0x100 EXP SWAP1 DIV PUSH20 0xFFFFFFFFFFFFFFFFFFFFFFFFFFFFFFFFFFFFFFFF AND PUSH20 0xFFFFFFFFFFFFFFFFFFFFFFFFFFFFFFFFFFFFFFFF AND EQ PUSH2 0x1A7E JUMPI PUSH1 0x40 MLOAD PUSH32 0x8C379A000000000000000000000000000000000000000000000000000000000 DUP2 MSTORE PUSH1 0x4 ADD DUP1 DUP1 PUSH1 0x20 ADD DUP3 DUP2 SUB DUP3 MSTORE PUSH1 0x24 DUP2 MSTORE PUSH1 0x20 ADD DUP1 PUSH2 0x2C31 PUSH1 0x24 SWAP2 CODECOPY PUSH1 0x40 ADD SWAP2 POP POP PUSH1 0x40 MLOAD DUP1 SWAP2 SUB SWAP1 REVERT JUMPDEST PUSH2 0x1A87 DUP4 PUSH2 0x2642 JUMP JUMPDEST DUP2 ISZERO PUSH2 0x1A96 JUMPI PUSH2 0x1A95 PUSH2 0x17E4 JUMP JUMPDEST JUMPDEST PUSH1 0x6 SLOAD TIMESTAMP LT ISZERO PUSH2 0x1AC9 JUMPI PUSH1 0x0 DUP2 EQ ISZERO PUSH2 0x1AB3 JUMPI PUSH1 0x6 SLOAD SWAP1 POP PUSH2 0x1AC4 JUMP JUMPDEST PUSH1 0x6 SLOAD DUP2 LT ISZERO PUSH2 0x1AC3 JUMPI PUSH1 0x6 SLOAD SWAP1 POP JUMPDEST JUMPDEST PUSH2 0x1AE1 JUMP JUMPDEST PUSH1 0x0 DUP2 EQ DUP1 PUSH2 0x1AD7 JUMPI POP TIMESTAMP DUP2 LT JUMPDEST ISZERO PUSH2 0x1AE0 JUMPI TIMESTAMP SWAP1 POP JUMPDEST JUMPDEST PUSH1 0x0 PUSH1 0x6 SLOAD DUP3 GT ISZERO DUP1 PUSH2 0x1AF4 JUMPI POP TIMESTAMP DUP3 GT ISZERO JUMPDEST SWAP1 POP PUSH1 0x3 PUSH1 0x40 MLOAD DUP1 PUSH1 0xA0 ADD PUSH1 0x40 MSTORE DUP1 DUP7 PUSH20 0xFFFFFFFFFFFFFFFFFFFFFFFFFFFFFFFFFFFFFFFF AND DUP2 MSTORE PUSH1 0x20 ADD DUP8 DUP2 MSTORE PUSH1 0x20 ADD DUP5 DUP2 MSTORE PUSH1 0x20 ADD PUSH1 0x0 DUP2 MSTORE PUSH1 0x20 ADD DUP4 ISZERO ISZERO DUP2 MSTORE POP SWAP1 DUP1 PUSH1 0x1 DUP2 SLOAD ADD DUP1 DUP3 SSTORE DUP1 SWAP2 POP POP PUSH1 0x1 SWAP1 SUB SWAP1 PUSH1 0x0 MSTORE PUSH1 0x20 PUSH1 0x0 KECCAK256 SWAP1 PUSH1 0x5 MUL ADD PUSH1 0x0 SWAP1 SWAP2 SWAP1 SWAP2 SWAP1 SWAP2 POP PUSH1 0x0 DUP3 ADD MLOAD DUP2 PUSH1 0x0 ADD PUSH1 0x0 PUSH2 0x100 EXP DUP2 SLOAD DUP2 PUSH20 0xFFFFFFFFFFFFFFFFFFFFFFFFFFFFFFFFFFFFFFFF MUL NOT AND SWAP1 DUP4 PUSH20 0xFFFFFFFFFFFFFFFFFFFFFFFFFFFFFFFFFFFFFFFF AND MUL OR SWAP1 SSTORE POP PUSH1 0x20 DUP3 ADD MLOAD DUP2 PUSH1 0x1 ADD SSTORE PUSH1 0x40 DUP3 ADD MLOAD DUP2 PUSH1 0x2 ADD SSTORE PUSH1 0x60 DUP3 ADD MLOAD DUP2 PUSH1 0x3 ADD SSTORE PUSH1 0x80 DUP3 ADD MLOAD DUP2 PUSH1 0x4 ADD PUSH1 0x0 PUSH2 0x100 EXP DUP2 SLOAD DUP2 PUSH1 0xFF MUL NOT AND SWAP1 DUP4 ISZERO ISZERO MUL OR SWAP1 SSTORE POP POP POP DUP1 ISZERO PUSH2 0x1C0A JUMPI PUSH2 0x1C03 DUP6 PUSH1 0x5 SLOAD PUSH2 0x21DD SWAP1 SWAP2 SWAP1 PUSH4 0xFFFFFFFF AND JUMP JUMPDEST PUSH1 0x5 DUP2 SWAP1 SSTORE POP JUMPDEST POP POP POP POP POP JUMP JUMPDEST PUSH1 0x7 DUP2 DUP2 SLOAD DUP2 LT PUSH2 0x1C21 JUMPI PUSH1 0x0 DUP1 REVERT JUMPDEST SWAP1 PUSH1 0x0 MSTORE PUSH1 0x20 PUSH1 0x0 KECCAK256 ADD PUSH1 0x0 SWAP2 POP SWAP1 POP SLOAD DUP2 JUMP JUMPDEST PUSH1 0x8 DUP2 PUSH1 0x3 DUP2 LT PUSH2 0x1C45 JUMPI PUSH1 0x0 DUP1 REVERT JUMPDEST ADD PUSH1 0x0 SWAP2 POP SWAP1 POP SLOAD DUP2 JUMP JUMPDEST PUSH1 0x2 PUSH1 0x0 SWAP1 SLOAD SWAP1 PUSH2 0x100 EXP SWAP1 DIV PUSH20 0xFFFFFFFFFFFFFFFFFFFFFFFFFFFFFFFFFFFFFFFF AND DUP2 JUMP JUMPDEST PUSH1 0x0 CALLER SWAP1 POP PUSH1 0x0 PUSH1 0x3 DUP5 DUP2 SLOAD DUP2 LT PUSH2 0x1C8A JUMPI INVALID JUMPDEST SWAP1 PUSH1 0x0 MSTORE PUSH1 0x20 PUSH1 0x0 KECCAK256 SWAP1 PUSH1 0x5 MUL ADD SWAP1 POP PUSH1 0x0 PUSH1 0x4 PUSH1 0x0 DUP7 DUP2 MSTORE PUSH1 0x20 ADD SWAP1 DUP2 MSTORE PUSH1 0x20 ADD PUSH1 0x0 KECCAK256 PUSH1 0x0 DUP5 PUSH20 0xFFFFFFFFFFFFFFFFFFFFFFFFFFFFFFFFFFFFFFFF AND PUSH20 0xFFFFFFFFFFFFFFFFFFFFFFFFFFFFFFFFFFFFFFFF AND DUP2 MSTORE PUSH1 0x20 ADD SWAP1 DUP2 MSTORE PUSH1 0x20 ADD PUSH1 0x0 KECCAK256 SWAP1 POP PUSH2 0x1CF7 DUP6 PUSH2 0x11B2 JUMP JUMPDEST PUSH1 0x0 DUP2 PUSH1 0x0 ADD SLOAD GT ISZERO PUSH2 0x1DB7 JUMPI PUSH1 0x0 PUSH2 0x1D51 DUP3 PUSH1 0x1 ADD SLOAD PUSH2 0x1D43 PUSH8 0xDE0B6B3A7640000 PUSH2 0x1D35 DUP8 PUSH1 0x3 ADD SLOAD DUP8 PUSH1 0x0 ADD SLOAD PUSH2 0x2265 SWAP1 SWAP2 SWAP1 PUSH4 0xFFFFFFFF AND JUMP JUMPDEST PUSH2 0x20D1 SWAP1 SWAP2 SWAP1 PUSH4 0xFFFFFFFF AND JUMP JUMPDEST PUSH2 0x215A SWAP1 SWAP2 SWAP1 PUSH4 0xFFFFFFFF AND JUMP JUMPDEST SWAP1 POP PUSH1 0x0 DUP2 GT ISZERO PUSH2 0x1DB5 JUMPI PUSH2 0x1D66 DUP5 DUP3 PUSH2 0x2421 JUMP JUMPDEST DUP4 PUSH20 0xFFFFFFFFFFFFFFFFFFFFFFFFFFFFFFFFFFFFFFFF AND PUSH32 0xE2403640BA68FED3A2F88B7557551D1993F84B99BB10FF833F0CF8DB0C5E0486 DUP3 PUSH1 0x40 MLOAD DUP1 DUP3 DUP2 MSTORE PUSH1 0x20 ADD SWAP2 POP POP PUSH1 0x40 MLOAD DUP1 SWAP2 SUB SWAP1 LOG2 JUMPDEST POP JUMPDEST PUSH1 0x0 DUP5 GT ISZERO PUSH2 0x1E31 JUMPI PUSH2 0x1E11 DUP4 ADDRESS DUP7 DUP6 PUSH1 0x0 ADD PUSH1 0x0 SWAP1 SLOAD SWAP1 PUSH2 0x100 EXP SWAP1 DIV PUSH20 0xFFFFFFFFFFFFFFFFFFFFFFFFFFFFFFFFFFFFFFFF AND PUSH20 0xFFFFFFFFFFFFFFFFFFFFFFFFFFFFFFFFFFFFFFFF AND PUSH2 0x2747 SWAP1 SWAP4 SWAP3 SWAP2 SWAP1 PUSH4 0xFFFFFFFF AND JUMP JUMPDEST PUSH2 0x1E28 DUP5 DUP3 PUSH1 0x0 ADD SLOAD PUSH2 0x21DD SWAP1 SWAP2 SWAP1 PUSH4 0xFFFFFFFF AND JUMP JUMPDEST DUP2 PUSH1 0x0 ADD DUP2 SWAP1 SSTORE POP JUMPDEST PUSH2 0x1E66 PUSH8 0xDE0B6B3A7640000 PUSH2 0x1E58 DUP5 PUSH1 0x3 ADD SLOAD DUP5 PUSH1 0x0 ADD SLOAD PUSH2 0x2265 SWAP1 SWAP2 SWAP1 PUSH4 0xFFFFFFFF AND JUMP JUMPDEST PUSH2 0x20D1 SWAP1 SWAP2 SWAP1 PUSH4 0xFFFFFFFF AND JUMP JUMPDEST DUP2 PUSH1 0x1 ADD DUP2 SWAP1 SSTORE POP DUP5 DUP4 PUSH20 0xFFFFFFFFFFFFFFFFFFFFFFFFFFFFFFFFFFFFFFFF AND PUSH32 0x90890809C654F11D6E72A28FA60149770A0D11EC6C92319D6CEB2BB0A4EA1A15 DUP7 PUSH1 0x40 MLOAD DUP1 DUP3 DUP2 MSTORE PUSH1 0x20 ADD SWAP2 POP POP PUSH1 0x40 MLOAD DUP1 SWAP2 SUB SWAP1 LOG3 POP POP POP POP POP JUMP JUMPDEST PUSH2 0x1ECC PUSH2 0x22EB JUMP JUMPDEST PUSH20 0xFFFFFFFFFFFFFFFFFFFFFFFFFFFFFFFFFFFFFFFF AND PUSH2 0x1EEA PUSH2 0x197E JUMP JUMPDEST PUSH20 0xFFFFFFFFFFFFFFFFFFFFFFFFFFFFFFFFFFFFFFFF AND EQ PUSH2 0x1F73 JUMPI PUSH1 0x40 MLOAD PUSH32 0x8C379A000000000000000000000000000000000000000000000000000000000 DUP2 MSTORE PUSH1 0x4 ADD DUP1 DUP1 PUSH1 0x20 ADD DUP3 DUP2 SUB DUP3 MSTORE PUSH1 0x20 DUP2 MSTORE PUSH1 0x20 ADD DUP1 PUSH32 0x4F776E61626C653A2063616C6C6572206973206E6F7420746865206F776E6572 DUP2 MSTORE POP PUSH1 0x20 ADD SWAP2 POP POP PUSH1 0x40 MLOAD DUP1 SWAP2 SUB SWAP1 REVERT JUMPDEST PUSH1 0x0 PUSH20 0xFFFFFFFFFFFFFFFFFFFFFFFFFFFFFFFFFFFFFFFF AND DUP2 PUSH20 0xFFFFFFFFFFFFFFFFFFFFFFFFFFFFFFFFFFFFFFFF AND EQ ISZERO PUSH2 0x1FF9 JUMPI PUSH1 0x40 MLOAD PUSH32 0x8C379A000000000000000000000000000000000000000000000000000000000 DUP2 MSTORE PUSH1 0x4 ADD DUP1 DUP1 PUSH1 0x20 ADD DUP3 DUP2 SUB DUP3 MSTORE PUSH1 0x26 DUP2 MSTORE PUSH1 0x20 ADD DUP1 PUSH2 0x2B97 PUSH1 0x26 SWAP2 CODECOPY PUSH1 0x40 ADD SWAP2 POP POP PUSH1 0x40 MLOAD DUP1 SWAP2 SUB SWAP1 REVERT JUMPDEST DUP1 PUSH20 0xFFFFFFFFFFFFFFFFFFFFFFFFFFFFFFFFFFFFFFFF AND PUSH1 0x0 DUP1 SLOAD SWAP1 PUSH2 0x100 EXP SWAP1 DIV PUSH20 0xFFFFFFFFFFFFFFFFFFFFFFFFFFFFFFFFFFFFFFFF AND PUSH20 0xFFFFFFFFFFFFFFFFFFFFFFFFFFFFFFFFFFFFFFFF AND PUSH32 0x8BE0079C531659141344CD1FD0A4F28419497F9722A3DAAFE3B4186F6B6457E0 PUSH1 0x40 MLOAD PUSH1 0x40 MLOAD DUP1 SWAP2 SUB SWAP1 LOG3 DUP1 PUSH1 0x0 DUP1 PUSH2 0x100 EXP DUP2 SLOAD DUP2 PUSH20 0xFFFFFFFFFFFFFFFFFFFFFFFFFFFFFFFFFFFFFFFF MUL NOT AND SWAP1 DUP4 PUSH20 0xFFFFFFFFFFFFFFFFFFFFFFFFFFFFFFFFFFFFFFFF AND MUL OR SWAP1 SSTORE POP POP JUMP JUMPDEST PUSH1 0xB DUP2 PUSH1 0x3 DUP2 LT PUSH2 0x20C6 JUMPI PUSH1 0x0 DUP1 REVERT JUMPDEST ADD PUSH1 0x0 SWAP2 POP SWAP1 POP SLOAD DUP2 JUMP JUMPDEST PUSH1 0x0 DUP1 DUP3 GT PUSH2 0x2148 JUMPI PUSH1 0x40 MLOAD PUSH32 0x8C379A000000000000000000000000000000000000000000000000000000000 DUP2 MSTORE PUSH1 0x4 ADD DUP1 DUP1 PUSH1 0x20 ADD DUP3 DUP2 SUB DUP3 MSTORE PUSH1 0x1A DUP2 MSTORE PUSH1 0x20 ADD DUP1 PUSH32 0x536166654D6174683A206469766973696F6E206279207A65726F000000000000 DUP2 MSTORE POP PUSH1 0x20 ADD SWAP2 POP POP PUSH1 0x40 MLOAD DUP1 SWAP2 SUB SWAP1 REVERT JUMPDEST DUP2 DUP4 DUP2 PUSH2 0x2151 JUMPI INVALID JUMPDEST DIV SWAP1 POP SWAP3 SWAP2 POP POP JUMP JUMPDEST PUSH1 0x0 DUP3 DUP3 GT ISZERO PUSH2 0x21D2 JUMPI PUSH1 0x40 MLOAD PUSH32 0x8C379A000000000000000000000000000000000000000000000000000000000 DUP2 MSTORE PUSH1 0x4 ADD DUP1 DUP1 PUSH1 0x20 ADD DUP3 DUP2 SUB DUP3 MSTORE PUSH1 0x1E DUP2 MSTORE PUSH1 0x20 ADD DUP1 PUSH32 0x536166654D6174683A207375627472616374696F6E206F766572666C6F770000 DUP2 MSTORE POP PUSH1 0x20 ADD SWAP2 POP POP PUSH1 0x40 MLOAD DUP1 SWAP2 SUB SWAP1 REVERT JUMPDEST DUP2 DUP4 SUB SWAP1 POP SWAP3 SWAP2 POP POP JUMP JUMPDEST PUSH1 0x0 DUP1 DUP3 DUP5 ADD SWAP1 POP DUP4 DUP2 LT ISZERO PUSH2 0x225B JUMPI PUSH1 0x40 MLOAD PUSH32 0x8C379A000000000000000000000000000000000000000000000000000000000 DUP2 MSTORE PUSH1 0x4 ADD DUP1 DUP1 PUSH1 0x20 ADD DUP3 DUP2 SUB DUP3 MSTORE PUSH1 0x1B DUP2 MSTORE PUSH1 0x20 ADD DUP1 PUSH32 0x536166654D6174683A206164646974696F6E206F766572666C6F770000000000 DUP2 MSTORE POP PUSH1 0x20 ADD SWAP2 POP POP PUSH1 0x40 MLOAD DUP1 SWAP2 SUB SWAP1 REVERT JUMPDEST DUP1 SWAP2 POP POP SWAP3 SWAP2 POP POP JUMP JUMPDEST PUSH1 0x0 DUP1 DUP4 EQ ISZERO PUSH2 0x2278 JUMPI PUSH1 0x0 SWAP1 POP PUSH2 0x22E5 JUMP JUMPDEST PUSH1 0x0 DUP3 DUP5 MUL SWAP1 POP DUP3 DUP5 DUP3 DUP2 PUSH2 0x2289 JUMPI INVALID JUMPDEST DIV EQ PUSH2 0x22E0 JUMPI PUSH1 0x40 MLOAD PUSH32 0x8C379A000000000000000000000000000000000000000000000000000000000 DUP2 MSTORE PUSH1 0x4 ADD DUP1 DUP1 PUSH1 0x20 ADD DUP3 DUP2 SUB DUP3 MSTORE PUSH1 0x21 DUP2 MSTORE PUSH1 0x20 ADD DUP1 PUSH2 0x2C10 PUSH1 0x21 SWAP2 CODECOPY PUSH1 0x40 ADD SWAP2 POP POP PUSH1 0x40 MLOAD DUP1 SWAP2 SUB SWAP1 REVERT JUMPDEST DUP1 SWAP2 POP POP JUMPDEST SWAP3 SWAP2 POP POP JUMP JUMPDEST PUSH1 0x0 CALLER SWAP1 POP SWAP1 JUMP JUMPDEST PUSH1 0x0 PUSH20 0xFFFFFFFFFFFFFFFFFFFFFFFFFFFFFFFFFFFFFFFF AND DUP2 PUSH20 0xFFFFFFFFFFFFFFFFFFFFFFFFFFFFFFFFFFFFFFFF AND EQ ISZERO PUSH2 0x2379 JUMPI PUSH1 0x40 MLOAD PUSH32 0x8C379A000000000000000000000000000000000000000000000000000000000 DUP2 MSTORE PUSH1 0x4 ADD DUP1 DUP1 PUSH1 0x20 ADD DUP3 DUP2 SUB DUP3 MSTORE PUSH1 0x2D DUP2 MSTORE PUSH1 0x20 ADD DUP1 PUSH2 0x2BE3 PUSH1 0x2D SWAP2 CODECOPY PUSH1 0x40 ADD SWAP2 POP POP PUSH1 0x40 MLOAD DUP1 SWAP2 SUB SWAP1 REVERT JUMPDEST DUP1 PUSH20 0xFFFFFFFFFFFFFFFFFFFFFFFFFFFFFFFFFFFFFFFF AND PUSH1 0x0 PUSH20 0xFFFFFFFFFFFFFFFFFFFFFFFFFFFFFFFFFFFFFFFF AND PUSH32 0x74DA04524D50C64947F5DD5381EF1A4DCA5CBA8ED1D816243F9E48AA0B5617ED PUSH1 0x40 MLOAD PUSH1 0x40 MLOAD DUP1 SWAP2 SUB SWAP1 LOG3 PUSH2 0x23DD DUP2 PUSH2 0x1EC4 JUMP JUMPDEST DUP1 PUSH1 0x1 PUSH1 0x0 PUSH2 0x100 EXP DUP2 SLOAD DUP2 PUSH20 0xFFFFFFFFFFFFFFFFFFFFFFFFFFFFFFFFFFFFFFFF MUL NOT AND SWAP1 DUP4 PUSH20 0xFFFFFFFFFFFFFFFFFFFFFFFFFFFFFFFFFFFFFFFF AND MUL OR SWAP1 SSTORE POP POP JUMP JUMPDEST PUSH1 0x0 PUSH1 0x2 PUSH1 0x0 SWAP1 SLOAD SWAP1 PUSH2 0x100 EXP SWAP1 DIV PUSH20 0xFFFFFFFFFFFFFFFFFFFFFFFFFFFFFFFFFFFFFFFF AND PUSH20 0xFFFFFFFFFFFFFFFFFFFFFFFFFFFFFFFFFFFFFFFF AND PUSH4 0x70A08231 ADDRESS PUSH1 0x40 MLOAD DUP3 PUSH4 0xFFFFFFFF AND PUSH1 0xE0 SHL DUP2 MSTORE PUSH1 0x4 ADD DUP1 DUP3 PUSH20 0xFFFFFFFFFFFFFFFFFFFFFFFFFFFFFFFFFFFFFFFF AND DUP2 MSTORE PUSH1 0x20 ADD SWAP2 POP POP PUSH1 0x20 PUSH1 0x40 MLOAD DUP1 DUP4 SUB DUP2 DUP7 DUP1 EXTCODESIZE ISZERO DUP1 ISZERO PUSH2 0x24AC JUMPI PUSH1 0x0 DUP1 REVERT JUMPDEST POP GAS STATICCALL ISZERO DUP1 ISZERO PUSH2 0x24C0 JUMPI RETURNDATASIZE PUSH1 0x0 DUP1 RETURNDATACOPY RETURNDATASIZE PUSH1 0x0 REVERT JUMPDEST POP POP POP POP PUSH1 0x40 MLOAD RETURNDATASIZE PUSH1 0x20 DUP2 LT ISZERO PUSH2 0x24D6 JUMPI PUSH1 0x0 DUP1 REVERT JUMPDEST DUP2 ADD SWAP1 DUP1 DUP1 MLOAD SWAP1 PUSH1 0x20 ADD SWAP1 SWAP3 SWAP2 SWAP1 POP POP POP SWAP1 POP PUSH1 0x0 DUP2 GT ISZERO PUSH2 0x259B JUMPI DUP1 DUP3 GT ISZERO PUSH2 0x254C JUMPI PUSH2 0x2547 DUP4 DUP3 PUSH1 0x2 PUSH1 0x0 SWAP1 SLOAD SWAP1 PUSH2 0x100 EXP SWAP1 DIV PUSH20 0xFFFFFFFFFFFFFFFFFFFFFFFFFFFFFFFFFFFFFFFF AND PUSH20 0xFFFFFFFFFFFFFFFFFFFFFFFFFFFFFFFFFFFFFFFF AND PUSH2 0x25A0 SWAP1 SWAP3 SWAP2 SWAP1 PUSH4 0xFFFFFFFF AND JUMP JUMPDEST PUSH2 0x259A JUMP JUMPDEST PUSH2 0x2599 DUP4 DUP4 PUSH1 0x2 PUSH1 0x0 SWAP1 SLOAD SWAP1 PUSH2 0x100 EXP SWAP1 DIV PUSH20 0xFFFFFFFFFFFFFFFFFFFFFFFFFFFFFFFFFFFFFFFF AND PUSH20 0xFFFFFFFFFFFFFFFFFFFFFFFFFFFFFFFFFFFFFFFF AND PUSH2 0x25A0 SWAP1 SWAP3 SWAP2 SWAP1 PUSH4 0xFFFFFFFF AND JUMP JUMPDEST JUMPDEST JUMPDEST POP POP POP JUMP JUMPDEST PUSH2 0x263D DUP4 PUSH4 0xA9059CBB PUSH1 0xE0 SHL DUP5 DUP5 PUSH1 0x40 MLOAD PUSH1 0x24 ADD DUP1 DUP4 PUSH20 0xFFFFFFFFFFFFFFFFFFFFFFFFFFFFFFFFFFFFFFFF AND DUP2 MSTORE PUSH1 0x20 ADD DUP3 DUP2 MSTORE PUSH1 0x20 ADD SWAP3 POP POP POP PUSH1 0x40 MLOAD PUSH1 0x20 DUP2 DUP4 SUB SUB DUP2 MSTORE SWAP1 PUSH1 0x40 MSTORE SWAP1 PUSH28 0xFFFFFFFFFFFFFFFFFFFFFFFFFFFFFFFFFFFFFFFFFFFFFFFFFFFFFFFF NOT AND PUSH1 0x20 DUP3 ADD DUP1 MLOAD PUSH28 0xFFFFFFFFFFFFFFFFFFFFFFFFFFFFFFFFFFFFFFFFFFFFFFFFFFFFFFFF DUP4 DUP2 DUP4 AND OR DUP4 MSTORE POP POP POP POP PUSH2 0x2808 JUMP JUMPDEST POP POP POP JUMP JUMPDEST PUSH1 0x0 PUSH1 0x3 DUP1 SLOAD SWAP1 POP SWAP1 POP PUSH1 0x0 JUMPDEST DUP2 DUP2 LT ISZERO PUSH2 0x2742 JUMPI DUP3 PUSH20 0xFFFFFFFFFFFFFFFFFFFFFFFFFFFFFFFFFFFFFFFF AND PUSH1 0x3 DUP3 DUP2 SLOAD DUP2 LT PUSH2 0x267B JUMPI INVALID JUMPDEST SWAP1 PUSH1 0x0 MSTORE PUSH1 0x20 PUSH1 0x0 KECCAK256 SWAP1 PUSH1 0x5 MUL ADD PUSH1 0x0 ADD PUSH1 0x0 SWAP1 SLOAD SWAP1 PUSH2 0x100 EXP SWAP1 DIV PUSH20 0xFFFFFFFFFFFFFFFFFFFFFFFFFFFFFFFFFFFFFFFF AND PUSH20 0xFFFFFFFFFFFFFFFFFFFFFFFFFFFFFFFFFFFFFFFF AND EQ ISZERO PUSH2 0x2737 JUMPI PUSH1 0x40 MLOAD PUSH32 0x8C379A000000000000000000000000000000000000000000000000000000000 DUP2 MSTORE PUSH1 0x4 ADD DUP1 DUP1 PUSH1 0x20 ADD DUP3 DUP2 SUB DUP3 MSTORE PUSH1 0x1E DUP2 MSTORE PUSH1 0x20 ADD DUP1 PUSH32 0x506F6C79526577617264506F6F6C3A206578697374696E6720706F6F6C3F0000 DUP2 MSTORE POP PUSH1 0x20 ADD SWAP2 POP POP PUSH1 0x40 MLOAD DUP1 SWAP2 SUB SWAP1 REVERT JUMPDEST DUP1 PUSH1 0x1 ADD SWAP1 POP PUSH2 0x264F JUMP JUMPDEST POP POP POP JUMP JUMPDEST PUSH2 0x2802 DUP5 PUSH4 0x23B872DD PUSH1 0xE0 SHL DUP6 DUP6 DUP6 PUSH1 0x40 MLOAD PUSH1 0x24 ADD DUP1 DUP5 PUSH20 0xFFFFFFFFFFFFFFFFFFFFFFFFFFFFFFFFFFFFFFFF AND DUP2 MSTORE PUSH1 0x20 ADD DUP4 PUSH20 0xFFFFFFFFFFFFFFFFFFFFFFFFFFFFFFFFFFFFFFFF AND DUP2 MSTORE PUSH1 0x20 ADD DUP3 DUP2 MSTORE PUSH1 0x20 ADD SWAP4 POP POP POP POP PUSH1 0x40 MLOAD PUSH1 0x20 DUP2 DUP4 SUB SUB DUP2 MSTORE SWAP1 PUSH1 0x40 MSTORE SWAP1 PUSH28 0xFFFFFFFFFFFFFFFFFFFFFFFFFFFFFFFFFFFFFFFFFFFFFFFFFFFFFFFF NOT AND PUSH1 0x20 DUP3 ADD DUP1 MLOAD PUSH28 0xFFFFFFFFFFFFFFFFFFFFFFFFFFFFFFFFFFFFFFFFFFFFFFFFFFFFFFFF DUP4 DUP2 DUP4 AND OR DUP4 MSTORE POP POP POP POP PUSH2 0x2808 JUMP JUMPDEST POP POP POP POP JUMP JUMPDEST PUSH1 0x0 PUSH2 0x286A DUP3 PUSH1 0x40 MLOAD DUP1 PUSH1 0x40 ADD PUSH1 0x40 MSTORE DUP1 PUSH1 0x20 DUP2 MSTORE PUSH1 0x20 ADD PUSH32 0x5361666545524332303A206C6F772D6C6576656C2063616C6C206661696C6564 DUP2 MSTORE POP DUP6 PUSH20 0xFFFFFFFFFFFFFFFFFFFFFFFFFFFFFFFFFFFFFFFF AND PUSH2 0x28F7 SWAP1 SWAP3 SWAP2 SWAP1 PUSH4 0xFFFFFFFF AND JUMP JUMPDEST SWAP1 POP PUSH1 0x0 DUP2 MLOAD GT ISZERO PUSH2 0x28F2 JUMPI DUP1 DUP1 PUSH1 0x20 ADD SWAP1 MLOAD PUSH1 0x20 DUP2 LT ISZERO PUSH2 0x288B JUMPI PUSH1 0x0 DUP1 REVERT JUMPDEST DUP2 ADD SWAP1 DUP1 DUP1 MLOAD SWAP1 PUSH1 0x20 ADD SWAP1 SWAP3 SWAP2 SWAP1 POP POP POP PUSH2 0x28F1 JUMPI PUSH1 0x40 MLOAD PUSH32 0x8C379A000000000000000000000000000000000000000000000000000000000 DUP2 MSTORE PUSH1 0x4 ADD DUP1 DUP1 PUSH1 0x20 ADD DUP3 DUP2 SUB DUP3 MSTORE PUSH1 0x2A DUP2 MSTORE PUSH1 0x20 ADD DUP1 PUSH2 0x2C55 PUSH1 0x2A SWAP2 CODECOPY PUSH1 0x40 ADD SWAP2 POP POP PUSH1 0x40 MLOAD DUP1 SWAP2 SUB SWAP1 REVERT JUMPDEST JUMPDEST POP POP POP JUMP JUMPDEST PUSH1 0x60 PUSH2 0x2906 DUP5 DUP5 PUSH1 0x0 DUP6 PUSH2 0x290F JUMP JUMPDEST SWAP1 POP SWAP4 SWAP3 POP POP POP JUMP JUMPDEST PUSH1 0x60 DUP3 SELFBALANCE LT ISZERO PUSH2 0x296A JUMPI PUSH1 0x40 MLOAD PUSH32 0x8C379A000000000000000000000000000000000000000000000000000000000 DUP2 MSTORE PUSH1 0x4 ADD DUP1 DUP1 PUSH1 0x20 ADD DUP3 DUP2 SUB DUP3 MSTORE PUSH1 0x26 DUP2 MSTORE PUSH1 0x20 ADD DUP1 PUSH2 0x2BBD PUSH1 0x26 SWAP2 CODECOPY PUSH1 0x40 ADD SWAP2 POP POP PUSH1 0x40 MLOAD DUP1 SWAP2 SUB SWAP1 REVERT JUMPDEST PUSH2 0x2973 DUP6 PUSH2 0x2AB7 JUMP JUMPDEST PUSH2 0x29E5 JUMPI PUSH1 0x40 MLOAD PUSH32 0x8C379A000000000000000000000000000000000000000000000000000000000 DUP2 MSTORE PUSH1 0x4 ADD DUP1 DUP1 PUSH1 0x20 ADD DUP3 DUP2 SUB DUP3 MSTORE PUSH1 0x1D DUP2 MSTORE PUSH1 0x20 ADD DUP1 PUSH32 0x416464726573733A2063616C6C20746F206E6F6E2D636F6E7472616374000000 DUP2 MSTORE POP PUSH1 0x20 ADD SWAP2 POP POP PUSH1 0x40 MLOAD DUP1 SWAP2 SUB SWAP1 REVERT JUMPDEST PUSH1 0x0 DUP1 DUP7 PUSH20 0xFFFFFFFFFFFFFFFFFFFFFFFFFFFFFFFFFFFFFFFF AND DUP6 DUP8 PUSH1 0x40 MLOAD DUP1 DUP3 DUP1 MLOAD SWAP1 PUSH1 0x20 ADD SWAP1 DUP1 DUP4 DUP4 JUMPDEST PUSH1 0x20 DUP4 LT PUSH2 0x2A34 JUMPI DUP1 MLOAD DUP3 MSTORE PUSH1 0x20 DUP3 ADD SWAP2 POP PUSH1 0x20 DUP2 ADD SWAP1 POP PUSH1 0x20 DUP4 SUB SWAP3 POP PUSH2 0x2A11 JUMP JUMPDEST PUSH1 0x1 DUP4 PUSH1 0x20 SUB PUSH2 0x100 EXP SUB DUP1 NOT DUP3 MLOAD AND DUP2 DUP5 MLOAD AND DUP1 DUP3 OR DUP6 MSTORE POP POP POP POP POP POP SWAP1 POP ADD SWAP2 POP POP PUSH1 0x0 PUSH1 0x40 MLOAD DUP1 DUP4 SUB DUP2 DUP6 DUP8 GAS CALL SWAP3 POP POP POP RETURNDATASIZE DUP1 PUSH1 0x0 DUP2 EQ PUSH2 0x2A96 JUMPI PUSH1 0x40 MLOAD SWAP2 POP PUSH1 0x1F NOT PUSH1 0x3F RETURNDATASIZE ADD AND DUP3 ADD PUSH1 0x40 MSTORE RETURNDATASIZE DUP3 MSTORE RETURNDATASIZE PUSH1 0x0 PUSH1 0x20 DUP5 ADD RETURNDATACOPY PUSH2 0x2A9B JUMP JUMPDEST PUSH1 0x60 SWAP2 POP JUMPDEST POP SWAP2 POP SWAP2 POP PUSH2 0x2AAB DUP3 DUP3 DUP7 PUSH2 0x2ACA JUMP JUMPDEST SWAP3 POP POP POP SWAP5 SWAP4 POP POP POP POP JUMP JUMPDEST PUSH1 0x0 DUP1 DUP3 EXTCODESIZE SWAP1 POP PUSH1 0x0 DUP2 GT SWAP2 POP POP SWAP2 SWAP1 POP JUMP JUMPDEST PUSH1 0x60 DUP4 ISZERO PUSH2 0x2ADA JUMPI DUP3 SWAP1 POP PUSH2 0x2B8F JUMP JUMPDEST PUSH1 0x0 DUP4 MLOAD GT ISZERO PUSH2 0x2AED JUMPI DUP3 MLOAD DUP1 DUP5 PUSH1 0x20 ADD REVERT JUMPDEST DUP2 PUSH1 0x40 MLOAD PUSH32 0x8C379A000000000000000000000000000000000000000000000000000000000 DUP2 MSTORE PUSH1 0x4 ADD DUP1 DUP1 PUSH1 0x20 ADD DUP3 DUP2 SUB DUP3 MSTORE DUP4 DUP2 DUP2 MLOAD DUP2 MSTORE PUSH1 0x20 ADD SWAP2 POP DUP1 MLOAD SWAP1 PUSH1 0x20 ADD SWAP1 DUP1 DUP4 DUP4 PUSH1 0x0 JUMPDEST DUP4 DUP2 LT ISZERO PUSH2 0x2B54 JUMPI DUP1 DUP3 ADD MLOAD DUP2 DUP5 ADD MSTORE PUSH1 0x20 DUP2 ADD SWAP1 POP PUSH2 0x2B39 JUMP JUMPDEST POP POP POP POP SWAP1 POP SWAP1 DUP2 ADD SWAP1 PUSH1 0x1F AND DUP1 ISZERO PUSH2 0x2B81 JUMPI DUP1 DUP3 SUB DUP1 MLOAD PUSH1 0x1 DUP4 PUSH1 0x20 SUB PUSH2 0x100 EXP SUB NOT AND DUP2 MSTORE PUSH1 0x20 ADD SWAP2 POP JUMPDEST POP SWAP3 POP POP POP PUSH1 0x40 MLOAD DUP1 SWAP2 SUB SWAP1 REVERT JUMPDEST SWAP4 SWAP3 POP POP POP JUMP INVALID 0x4F PUSH24 0x6E61626C653A206E6577206F776E65722069732074686520 PUSH27 0x65726F2061646472657373416464726573733A20696E7375666669 PUSH4 0x69656E74 KECCAK256 PUSH3 0x616C61 PUSH15 0x636520666F722063616C6C6F706572 PUSH2 0x746F PUSH19 0x3A207A65726F20616464726573732067697665 PUSH15 0x20666F72206E6577206F7065726174 PUSH16 0x72536166654D6174683A206D756C7469 PUSH17 0x6C69636174696F6E206F766572666C6F77 PUSH16 0x70657261746F723A2063616C6C657220 PUSH10 0x73206E6F742074686520 PUSH16 0x70657261746F72536166654552433230 GASPRICE KECCAK256 GASLIMIT MSTORE NUMBER ORIGIN ADDRESS KECCAK256 PUSH16 0x7065726174696F6E20646964206E6F74 KECCAK256 PUSH20 0x756363656564A26469706673582212209F8AEC96 0xAE 0xB2 PUSH2 0x1380 CALLCODE 0xB7 SWAP7 0xAD 0xAA SWAP7 0x4D ADDRESS 0x4E CODECOPY LOG4 CALL NOT TIMESTAMP PUSH13 0xBFE2A8C096F680FA64736F6C63 NUMBER STOP SMOD MOD STOP CALLER "
				},
				"gasEstimates": {
					"creation": {
						"codeDepositCost": "2288800",
						"executionCost": "infinite",
						"totalCost": "infinite"
					},
					"external": {
						"Poly()": "1113",
						"add(uint256,address,bool,uint256)": "infinite",
						"deposit(uint256,uint256)": "infinite",
						"emergencyWithdraw(uint256)": "infinite",
						"epochEndTimes(uint256)": "1173",
						"epochPolyPerSecond(uint256)": "1261",
						"epochTotalRewards(uint256)": "2002",
						"getGeneratedReward(uint256,uint256)": "infinite",
						"governanceRecoverUnsupported(address,uint256,address)": "infinite",
						"isOperator()": "1130",
						"massUpdatePools()": "infinite",
						"operator()": "1188",
						"owner()": "1144",
						"pendingPoly(uint256,address)": "infinite",
						"poolInfo(uint256)": "5441",
						"poolStartTime()": "1028",
						"renounceOwnership()": "24396",
						"set(uint256,uint256)": "infinite",
						"totalAllocPoint()": "1051",
						"transferOperator(address)": "infinite",
						"transferOwnership(address)": "infinite",
						"updatePool(uint256)": "infinite",
						"userInfo(uint256,address)": "2218",
						"withdraw(uint256,uint256)": "infinite"
					},
					"internal": {
						"checkPoolDuplicate(contract IERC20)": "infinite",
						"safePolyTransfer(address,uint256)": "infinite"
					}
				},
				"methodIdentifiers": {
					"Poly()": "e177bb38",
					"add(uint256,address,bool,uint256)": "96805e54",
					"deposit(uint256,uint256)": "e2bbb158",
					"emergencyWithdraw(uint256)": "5312ea8e",
					"epochEndTimes(uint256)": "b89e73c1",
					"epochPolyPerSecond(uint256)": "f8d936b3",
					"epochTotalRewards(uint256)": "9a25cefc",
					"getGeneratedReward(uint256,uint256)": "231f0c6a",
					"governanceRecoverUnsupported(address,uint256,address)": "54575af4",
					"isOperator()": "4456eda2",
					"massUpdatePools()": "630b5ba1",
					"operator()": "570ca735",
					"owner()": "8da5cb5b",
					"pendingPoly(uint256,address)": "4d1e4f42",
					"poolInfo(uint256)": "1526fe27",
					"poolStartTime()": "5f96dc11",
					"renounceOwnership()": "715018a6",
					"set(uint256,uint256)": "1ab06ee5",
					"totalAllocPoint()": "17caf6f1",
					"transferOperator(address)": "29605e77",
					"transferOwnership(address)": "f2fde38b",
					"updatePool(uint256)": "51eb05a6",
					"userInfo(uint256,address)": "93f1a40b",
					"withdraw(uint256,uint256)": "441a3e70"
				}
			},
			"storageLayout": {
				"storage": [
					{
						"astId": 7,
						"contract": "contracts/distribution/TombRewardPool.sol:PolyRewardPool",
						"label": "_owner",
						"offset": 0,
						"slot": "0",
						"type": "t_address"
					},
					{
						"astId": 2257,
						"contract": "contracts/distribution/TombRewardPool.sol:PolyRewardPool",
						"label": "_operator",
						"offset": 0,
						"slot": "1",
						"type": "t_address"
					},
					{
						"astId": 1138,
						"contract": "contracts/distribution/TombRewardPool.sol:PolyRewardPool",
						"label": "Poly",
						"offset": 0,
						"slot": "2",
						"type": "t_contract(IERC20)187"
					},
					{
						"astId": 1141,
						"contract": "contracts/distribution/TombRewardPool.sol:PolyRewardPool",
						"label": "poolInfo",
						"offset": 0,
						"slot": "3",
						"type": "t_array(t_struct(PoolInfo)1136_storage)dyn_storage"
					},
					{
						"astId": 1147,
						"contract": "contracts/distribution/TombRewardPool.sol:PolyRewardPool",
						"label": "userInfo",
						"offset": 0,
						"slot": "4",
						"type": "t_mapping(t_uint256,t_mapping(t_address,t_struct(UserInfo)1125_storage))"
					},
					{
						"astId": 1150,
						"contract": "contracts/distribution/TombRewardPool.sol:PolyRewardPool",
						"label": "totalAllocPoint",
						"offset": 0,
						"slot": "5",
						"type": "t_uint256"
					},
					{
						"astId": 1152,
						"contract": "contracts/distribution/TombRewardPool.sol:PolyRewardPool",
						"label": "poolStartTime",
						"offset": 0,
						"slot": "6",
						"type": "t_uint256"
					},
					{
						"astId": 1158,
						"contract": "contracts/distribution/TombRewardPool.sol:PolyRewardPool",
						"label": "epochTotalRewards",
						"offset": 0,
						"slot": "7",
						"type": "t_array(t_uint256)dyn_storage"
					},
					{
						"astId": 1162,
						"contract": "contracts/distribution/TombRewardPool.sol:PolyRewardPool",
						"label": "epochEndTimes",
						"offset": 0,
						"slot": "8",
						"type": "t_array(t_uint256)3_storage"
					},
					{
						"astId": 1166,
						"contract": "contracts/distribution/TombRewardPool.sol:PolyRewardPool",
						"label": "epochPolyPerSecond",
						"offset": 0,
						"slot": "11",
						"type": "t_array(t_uint256)3_storage"
					}
				],
				"types": {
					"t_address": {
						"encoding": "inplace",
						"label": "address",
						"numberOfBytes": "20"
					},
					"t_array(t_struct(PoolInfo)1136_storage)dyn_storage": {
						"base": "t_struct(PoolInfo)1136_storage",
						"encoding": "dynamic_array",
						"label": "struct PolyRewardPool.PoolInfo[]",
						"numberOfBytes": "32"
					},
					"t_array(t_uint256)3_storage": {
						"base": "t_uint256",
						"encoding": "inplace",
						"label": "uint256[3]",
						"numberOfBytes": "96"
					},
					"t_array(t_uint256)dyn_storage": {
						"base": "t_uint256",
						"encoding": "dynamic_array",
						"label": "uint256[]",
						"numberOfBytes": "32"
					},
					"t_bool": {
						"encoding": "inplace",
						"label": "bool",
						"numberOfBytes": "1"
					},
					"t_contract(IERC20)187": {
						"encoding": "inplace",
						"label": "contract IERC20",
						"numberOfBytes": "20"
					},
					"t_mapping(t_address,t_struct(UserInfo)1125_storage)": {
						"encoding": "mapping",
						"key": "t_address",
						"label": "mapping(address => struct PolyRewardPool.UserInfo)",
						"numberOfBytes": "32",
						"value": "t_struct(UserInfo)1125_storage"
					},
					"t_mapping(t_uint256,t_mapping(t_address,t_struct(UserInfo)1125_storage))": {
						"encoding": "mapping",
						"key": "t_uint256",
						"label": "mapping(uint256 => mapping(address => struct PolyRewardPool.UserInfo))",
						"numberOfBytes": "32",
						"value": "t_mapping(t_address,t_struct(UserInfo)1125_storage)"
					},
					"t_struct(PoolInfo)1136_storage": {
						"encoding": "inplace",
						"label": "struct PolyRewardPool.PoolInfo",
						"members": [
							{
								"astId": 1127,
								"contract": "contracts/distribution/TombRewardPool.sol:PolyRewardPool",
								"label": "token",
								"offset": 0,
								"slot": "0",
								"type": "t_contract(IERC20)187"
							},
							{
								"astId": 1129,
								"contract": "contracts/distribution/TombRewardPool.sol:PolyRewardPool",
								"label": "allocPoint",
								"offset": 0,
								"slot": "1",
								"type": "t_uint256"
							},
							{
								"astId": 1131,
								"contract": "contracts/distribution/TombRewardPool.sol:PolyRewardPool",
								"label": "lastRewardTime",
								"offset": 0,
								"slot": "2",
								"type": "t_uint256"
							},
							{
								"astId": 1133,
								"contract": "contracts/distribution/TombRewardPool.sol:PolyRewardPool",
								"label": "accPolyPerShare",
								"offset": 0,
								"slot": "3",
								"type": "t_uint256"
							},
							{
								"astId": 1135,
								"contract": "contracts/distribution/TombRewardPool.sol:PolyRewardPool",
								"label": "isStarted",
								"offset": 0,
								"slot": "4",
								"type": "t_bool"
							}
						],
						"numberOfBytes": "160"
					},
					"t_struct(UserInfo)1125_storage": {
						"encoding": "inplace",
						"label": "struct PolyRewardPool.UserInfo",
						"members": [
							{
								"astId": 1122,
								"contract": "contracts/distribution/TombRewardPool.sol:PolyRewardPool",
								"label": "amount",
								"offset": 0,
								"slot": "0",
								"type": "t_uint256"
							},
							{
								"astId": 1124,
								"contract": "contracts/distribution/TombRewardPool.sol:PolyRewardPool",
								"label": "rewardDebt",
								"offset": 0,
								"slot": "1",
								"type": "t_uint256"
							}
						],
						"numberOfBytes": "64"
					},
					"t_uint256": {
						"encoding": "inplace",
						"label": "uint256",
						"numberOfBytes": "32"
					}
				}
			},
			"userdoc": {
				"kind": "user",
				"methods": {},
				"version": 1
			}
		}
	}
}