{
	"contracts-encrypt/distribution/TShareRewardPool.sol": {
		"ecShareRewardPool": {
			"abi": [
				{
					"anonymous": false,
					"inputs": [
						{
							"indexed": true,
							"internalType": "address",
							"name": "user",
							"type": "address"
						},
						{
							"indexed": true,
							"internalType": "uint256",
							"name": "pid",
							"type": "uint256"
						},
						{
							"indexed": false,
							"internalType": "uint256",
							"name": "amount",
							"type": "uint256"
						}
					],
					"name": "Deposit",
					"type": "event"
				},
				{
					"anonymous": false,
					"inputs": [
						{
							"indexed": true,
							"internalType": "address",
							"name": "user",
							"type": "address"
						},
						{
							"indexed": true,
							"internalType": "uint256",
							"name": "pid",
							"type": "uint256"
						},
						{
							"indexed": false,
							"internalType": "uint256",
							"name": "amount",
							"type": "uint256"
						}
					],
					"name": "EmergencyWithdraw",
					"type": "event"
				},
				{
					"anonymous": false,
					"inputs": [
						{
							"indexed": true,
							"internalType": "address",
							"name": "user",
							"type": "address"
						},
						{
							"indexed": false,
							"internalType": "uint256",
							"name": "amount",
							"type": "uint256"
						}
					],
					"name": "RewardPaid",
					"type": "event"
				},
				{
					"anonymous": false,
					"inputs": [
						{
							"indexed": true,
							"internalType": "address",
							"name": "user",
							"type": "address"
						},
						{
							"indexed": true,
							"internalType": "uint256",
							"name": "pid",
							"type": "uint256"
						},
						{
							"indexed": false,
							"internalType": "uint256",
							"name": "amount",
							"type": "uint256"
						}
					],
					"name": "Withdraw",
					"type": "event"
				},
				{
					"inputs": [],
					"name": "EcShare",
					"outputs": [
						{
							"internalType": "contract IERC20",
							"name": "",
							"type": "address"
						}
					],
					"stateMutability": "view",
					"type": "function"
				},
				{
					"inputs": [],
					"name": "EcSharePerSecond",
					"outputs": [
						{
							"internalType": "uint256",
							"name": "",
							"type": "uint256"
						}
					],
					"stateMutability": "view",
					"type": "function"
				},
				{
					"inputs": [],
					"name": "Fee",
					"outputs": [
						{
							"internalType": "uint256",
							"name": "",
							"type": "uint256"
						}
					],
					"stateMutability": "view",
					"type": "function"
				},
				{
					"inputs": [],
					"name": "TOTAL_REWARDS",
					"outputs": [
						{
							"internalType": "uint256",
							"name": "",
							"type": "uint256"
						}
					],
					"stateMutability": "view",
					"type": "function"
				},
				{
					"inputs": [],
					"name": "_feeTo",
					"outputs": [
						{
							"internalType": "address",
							"name": "",
							"type": "address"
						}
					],
					"stateMutability": "view",
					"type": "function"
				},
				{
					"inputs": [
						{
							"internalType": "uint256",
							"name": "_allocPoint",
							"type": "uint256"
						},
						{
							"internalType": "contract IERC20",
							"name": "_token",
							"type": "address"
						},
						{
							"internalType": "bool",
							"name": "_withUpdate",
							"type": "bool"
						},
						{
							"internalType": "uint256",
							"name": "_lastRewardTime",
							"type": "uint256"
						}
					],
					"name": "add",
					"outputs": [],
					"stateMutability": "nonpayable",
					"type": "function"
				},
				{
					"inputs": [
						{
							"internalType": "uint256",
							"name": "_pid",
							"type": "uint256"
						},
						{
							"internalType": "uint256",
							"name": "_amount",
							"type": "uint256"
						}
					],
					"name": "deposit",
					"outputs": [],
					"stateMutability": "nonpayable",
					"type": "function"
				},
				{
					"inputs": [
						{
							"internalType": "uint256",
							"name": "_pid",
							"type": "uint256"
						}
					],
					"name": "emergencyWithdraw",
					"outputs": [],
					"stateMutability": "nonpayable",
					"type": "function"
				},
				{
					"inputs": [
						{
							"internalType": "uint256",
							"name": "_fromTime",
							"type": "uint256"
						},
						{
							"internalType": "uint256",
							"name": "_toTime",
							"type": "uint256"
						}
					],
					"name": "getGeneratedReward",
					"outputs": [
						{
							"internalType": "uint256",
							"name": "",
							"type": "uint256"
						}
					],
					"stateMutability": "view",
					"type": "function"
				},
				{
					"inputs": [
						{
							"internalType": "contract IERC20",
							"name": "_token",
							"type": "address"
						},
						{
							"internalType": "uint256",
							"name": "amount",
							"type": "uint256"
						},
						{
							"internalType": "address",
							"name": "to",
							"type": "address"
						}
					],
					"name": "governanceRecoverUnsupported",
					"outputs": [],
					"stateMutability": "nonpayable",
					"type": "function"
				},
				{
					"inputs": [
						{
							"internalType": "address",
							"name": "_EcShare",
							"type": "address"
						}
					],
					"name": "initialize",
					"outputs": [],
					"stateMutability": "nonpayable",
					"type": "function"
				},
				{
					"inputs": [],
					"name": "initialized",
					"outputs": [
						{
							"internalType": "bool",
							"name": "",
							"type": "bool"
						}
					],
					"stateMutability": "view",
					"type": "function"
				},
				{
					"inputs": [],
					"name": "isInitialized",
					"outputs": [
						{
							"internalType": "bool",
							"name": "",
							"type": "bool"
						}
					],
					"stateMutability": "view",
					"type": "function"
				},
				{
					"inputs": [],
					"name": "massUpdatePools",
					"outputs": [],
					"stateMutability": "nonpayable",
					"type": "function"
				},
				{
					"inputs": [],
					"name": "operator",
					"outputs": [
						{
							"internalType": "address",
							"name": "",
							"type": "address"
						}
					],
					"stateMutability": "view",
					"type": "function"
				},
				{
					"inputs": [
						{
							"internalType": "uint256",
							"name": "_pid",
							"type": "uint256"
						},
						{
							"internalType": "address",
							"name": "_user",
							"type": "address"
						}
					],
					"name": "pendingShare",
					"outputs": [
						{
							"internalType": "uint256",
							"name": "",
							"type": "uint256"
						}
					],
					"stateMutability": "view",
					"type": "function"
				},
				{
					"inputs": [],
					"name": "poolEndTime",
					"outputs": [
						{
							"internalType": "uint256",
							"name": "",
							"type": "uint256"
						}
					],
					"stateMutability": "view",
					"type": "function"
				},
				{
					"inputs": [
						{
							"internalType": "uint256",
							"name": "",
							"type": "uint256"
						}
					],
					"name": "poolInfo",
					"outputs": [
						{
							"internalType": "contract IERC20",
							"name": "token",
							"type": "address"
						},
						{
							"internalType": "uint256",
							"name": "allocPoint",
							"type": "uint256"
						},
						{
							"internalType": "uint256",
							"name": "lastRewardTime",
							"type": "uint256"
						},
						{
							"internalType": "uint256",
							"name": "accEcSharePerShare",
							"type": "uint256"
						},
						{
							"internalType": "bool",
							"name": "isStarted",
							"type": "bool"
						}
					],
					"stateMutability": "view",
					"type": "function"
				},
				{
					"inputs": [],
					"name": "poolStartTime",
					"outputs": [
						{
							"internalType": "uint256",
							"name": "",
							"type": "uint256"
						}
					],
					"stateMutability": "view",
					"type": "function"
				},
				{
					"inputs": [],
					"name": "runningTime",
					"outputs": [
						{
							"internalType": "uint256",
							"name": "",
							"type": "uint256"
						}
					],
					"stateMutability": "view",
					"type": "function"
				},
				{
					"inputs": [
						{
							"internalType": "uint256",
							"name": "_pid",
							"type": "uint256"
						},
						{
							"internalType": "uint256",
							"name": "_allocPoint",
							"type": "uint256"
						}
					],
					"name": "set",
					"outputs": [],
					"stateMutability": "nonpayable",
					"type": "function"
				},
				{
					"inputs": [
						{
							"internalType": "address",
							"name": "_operator",
							"type": "address"
						}
					],
					"name": "setOperator",
					"outputs": [],
					"stateMutability": "nonpayable",
					"type": "function"
				},
				{
					"inputs": [
						{
							"internalType": "uint256",
							"name": "_poolStartTime",
							"type": "uint256"
						}
					],
					"name": "setTime",
					"outputs": [],
					"stateMutability": "nonpayable",
					"type": "function"
				},
				{
					"inputs": [],
					"name": "totalAllocPoint",
					"outputs": [
						{
							"internalType": "uint256",
							"name": "",
							"type": "uint256"
						}
					],
					"stateMutability": "view",
					"type": "function"
				},
				{
					"inputs": [
						{
							"internalType": "uint256",
							"name": "_pid",
							"type": "uint256"
						}
					],
					"name": "updatePool",
					"outputs": [],
					"stateMutability": "nonpayable",
					"type": "function"
				},
				{
					"inputs": [
						{
							"internalType": "uint256",
							"name": "",
							"type": "uint256"
						},
						{
							"internalType": "address",
							"name": "",
							"type": "address"
						}
					],
					"name": "userInfo",
					"outputs": [
						{
							"internalType": "uint256",
							"name": "amount",
							"type": "uint256"
						},
						{
							"internalType": "uint256",
							"name": "rewardDebt",
							"type": "uint256"
						}
					],
					"stateMutability": "view",
					"type": "function"
				},
				{
					"inputs": [
						{
							"internalType": "uint256",
							"name": "_pid",
							"type": "uint256"
						},
						{
							"internalType": "uint256",
							"name": "_amount",
							"type": "uint256"
						}
					],
					"name": "withdraw",
					"outputs": [],
					"stateMutability": "nonpayable",
					"type": "function"
				}
			],
			"devdoc": {
				"kind": "dev",
				"methods": {},
				"version": 1
			},
			"evm": {
				"assembly": "    /* \"contracts-encrypt/distribution/TShareRewardPool.sol\":437:12617  contract ecShareRewardPool {\r... */\n  mstore(0x40, 0x80)\n    /* \"contracts-encrypt/distribution/TShareRewardPool.sol\":1586:1587  0 */\n  0x00\n    /* \"contracts-encrypt/distribution/TShareRewardPool.sol\":1553:1587  uint256 public totalAllocPoint = 0 */\n  0x04\n  sstore\n    /* \"contracts-encrypt/distribution/TShareRewardPool.sol\":1629:1632  200 */\n  0xc8\n    /* \"contracts-encrypt/distribution/TShareRewardPool.sol\":1608:1632  uint256 public Fee = 200 */\n  0x05\n  sstore\n    /* \"contracts-encrypt/distribution/TShareRewardPool.sol\":1709:1714  false */\n  0x00\n    /* \"contracts-encrypt/distribution/TShareRewardPool.sol\":1683:1714  bool public initialized = false */\n  0x06\n  exp(0x0100, 0x14)\n  dup2\n  sload\n  dup2\n  0xff\n  mul\n  not\n  and\n  swap1\n  dup4\n  iszero\n  iszero\n  mul\n  or\n  swap1\n  sstore\n  pop\n    /* \"contracts-encrypt/distribution/TShareRewardPool.sol\":1917:1933  0.00187687 ether */\n  0x06ab00d9a3bc00\n    /* \"contracts-encrypt/distribution/TShareRewardPool.sol\":1883:1933  uint256 public EcSharePerSecond = 0.00187687 ether */\n  0x09\n  sstore\n    /* \"contracts-encrypt/distribution/TShareRewardPool.sol\":2018:2026  370 days */\n  0x01e7cb00\n    /* \"contracts-encrypt/distribution/TShareRewardPool.sol\":1989:2026  uint256 public runningTime = 370 days */\n  0x0a\n  sstore\n    /* \"contracts-encrypt/distribution/TShareRewardPool.sol\":437:12617  contract ecShareRewardPool {\r... */\n  callvalue\n  dup1\n  iszero\n  tag_1\n  jumpi\n  0x00\n  dup1\n  revert\ntag_1:\n  pop\n  dataSize(sub_0)\n  dup1\n  dataOffset(sub_0)\n  0x00\n  codecopy\n  0x00\n  return\nstop\n\nsub_0: assembly {\n        /* \"contracts-encrypt/distribution/TShareRewardPool.sol\":437:12617  contract ecShareRewardPool {\r... */\n      mstore(0x40, 0x80)\n      callvalue\n      dup1\n      iszero\n      tag_1\n      jumpi\n      0x00\n      dup1\n      revert\n    tag_1:\n      pop\n      jumpi(tag_2, lt(calldatasize, 0x04))\n      shr(0xe0, calldataload(0x00))\n      dup1\n      0x570ca735\n      gt\n      tag_30\n      jumpi\n      dup1\n      0x943f013d\n      gt\n      tag_31\n      jumpi\n      dup1\n      0xbef7a2f0\n      gt\n      tag_32\n      jumpi\n      dup1\n      0xbef7a2f0\n      eq\n      tag_26\n      jumpi\n      dup1\n      0xc4d66de8\n      eq\n      tag_27\n      jumpi\n      dup1\n      0xcf4b55cb\n      eq\n      tag_28\n      jumpi\n      dup1\n      0xe2bbb158\n      eq\n      tag_29\n      jumpi\n      jump(tag_2)\n    tag_32:\n      dup1\n      0x943f013d\n      eq\n      tag_23\n      jumpi\n      dup1\n      0x96805e54\n      eq\n      tag_24\n      jumpi\n      dup1\n      0xb3ab15fb\n      eq\n      tag_25\n      jumpi\n      jump(tag_2)\n    tag_31:\n      dup1\n      0x630b5ba1\n      gt\n      tag_33\n      jumpi\n      dup1\n      0x630b5ba1\n      eq\n      tag_19\n      jumpi\n      dup1\n      0x6e271dd5\n      eq\n      tag_20\n      jumpi\n      dup1\n      0x87928951\n      eq\n      tag_21\n      jumpi\n      dup1\n      0x93f1a40b\n      eq\n      tag_22\n      jumpi\n      jump(tag_2)\n    tag_33:\n      dup1\n      0x570ca735\n      eq\n      tag_16\n      jumpi\n      dup1\n      0x5d114dcc\n      eq\n      tag_17\n      jumpi\n      dup1\n      0x5f96dc11\n      eq\n      tag_18\n      jumpi\n      jump(tag_2)\n    tag_30:\n      dup1\n      0x231f0c6a\n      gt\n      tag_34\n      jumpi\n      dup1\n      0x441a3e70\n      gt\n      tag_35\n      jumpi\n      dup1\n      0x441a3e70\n      eq\n      tag_12\n      jumpi\n      dup1\n      0x51eb05a6\n      eq\n      tag_13\n      jumpi\n      dup1\n      0x5312ea8e\n      eq\n      tag_14\n      jumpi\n      dup1\n      0x54575af4\n      eq\n      tag_15\n      jumpi\n      jump(tag_2)\n    tag_35:\n      dup1\n      0x231f0c6a\n      eq\n      tag_9\n      jumpi\n      dup1\n      0x392e53cd\n      eq\n      tag_10\n      jumpi\n      dup1\n      0x3beb26c4\n      eq\n      tag_11\n      jumpi\n      jump(tag_2)\n    tag_34:\n      dup1\n      0x09cf6091\n      eq\n      tag_3\n      jumpi\n      dup1\n      0x14ab2649\n      eq\n      tag_4\n      jumpi\n      dup1\n      0x1526fe27\n      eq\n      tag_5\n      jumpi\n      dup1\n      0x158ef93e\n      eq\n      tag_6\n      jumpi\n      dup1\n      0x17caf6f1\n      eq\n      tag_7\n      jumpi\n      dup1\n      0x1ab06ee5\n      eq\n      tag_8\n      jumpi\n    tag_2:\n      0x00\n      dup1\n      revert\n        /* \"contracts-encrypt/distribution/TShareRewardPool.sol\":2045:2096  uint256 public constant TOTAL_REWARDS = 60000 ether */\n    tag_3:\n      tag_36\n      tag_37\n      jump\t// in\n    tag_36:\n      mload(0x40)\n      dup1\n      dup3\n      dup2\n      mstore\n      0x20\n      add\n      swap2\n      pop\n      pop\n      mload(0x40)\n      dup1\n      swap2\n      sub\n      swap1\n      return\n        /* \"contracts-encrypt/distribution/TShareRewardPool.sol\":1251:1272  IERC20 public EcShare */\n    tag_4:\n      tag_38\n      tag_39\n      jump\t// in\n    tag_38:\n      mload(0x40)\n      dup1\n      dup3\n      0xffffffffffffffffffffffffffffffffffffffff\n      and\n      dup2\n      mstore\n      0x20\n      add\n      swap2\n      pop\n      pop\n      mload(0x40)\n      dup1\n      swap2\n      sub\n      swap1\n      return\n        /* \"contracts-encrypt/distribution/TShareRewardPool.sol\":1308:1334  PoolInfo[] public poolInfo */\n    tag_5:\n      tag_40\n      0x04\n      dup1\n      calldatasize\n      sub\n      0x20\n      dup2\n      lt\n      iszero\n      tag_41\n      jumpi\n      0x00\n      dup1\n      revert\n    tag_41:\n      dup2\n      add\n      swap1\n      dup1\n      dup1\n      calldataload\n      swap1\n      0x20\n      add\n      swap1\n      swap3\n      swap2\n      swap1\n      pop\n      pop\n      pop\n      tag_42\n      jump\t// in\n    tag_40:\n      mload(0x40)\n      dup1\n      dup7\n      0xffffffffffffffffffffffffffffffffffffffff\n      and\n      dup2\n      mstore\n      0x20\n      add\n      dup6\n      dup2\n      mstore\n      0x20\n      add\n      dup5\n      dup2\n      mstore\n      0x20\n      add\n      dup4\n      dup2\n      mstore\n      0x20\n      add\n      dup3\n      iszero\n      iszero\n      dup2\n      mstore\n      0x20\n      add\n      swap6\n      pop\n      pop\n      pop\n      pop\n      pop\n      pop\n      mload(0x40)\n      dup1\n      swap2\n      sub\n      swap1\n      return\n        /* \"contracts-encrypt/distribution/TShareRewardPool.sol\":1683:1714  bool public initialized = false */\n    tag_6:\n      tag_43\n      tag_44\n      jump\t// in\n    tag_43:\n      mload(0x40)\n      dup1\n      dup3\n      iszero\n      iszero\n      dup2\n      mstore\n      0x20\n      add\n      swap2\n      pop\n      pop\n      mload(0x40)\n      dup1\n      swap2\n      sub\n      swap1\n      return\n        /* \"contracts-encrypt/distribution/TShareRewardPool.sol\":1553:1587  uint256 public totalAllocPoint = 0 */\n    tag_7:\n      tag_45\n      tag_46\n      jump\t// in\n    tag_45:\n      mload(0x40)\n      dup1\n      dup3\n      dup2\n      mstore\n      0x20\n      add\n      swap2\n      pop\n      pop\n      mload(0x40)\n      dup1\n      swap2\n      sub\n      swap1\n      return\n        /* \"contracts-encrypt/distribution/TShareRewardPool.sol\":5139:5492  function set(uint256 _pid, uint256 _allocPoint) public onlyOperator {\r... */\n    tag_8:\n      tag_47\n      0x04\n      dup1\n      calldatasize\n      sub\n      0x40\n      dup2\n      lt\n      iszero\n      tag_48\n      jumpi\n      0x00\n      dup1\n      revert\n    tag_48:\n      dup2\n      add\n      swap1\n      dup1\n      dup1\n      calldataload\n      swap1\n      0x20\n      add\n      swap1\n      swap3\n      swap2\n      swap1\n      dup1\n      calldataload\n      swap1\n      0x20\n      add\n      swap1\n      swap3\n      swap2\n      swap1\n      pop\n      pop\n      pop\n      tag_49\n      jump\t// in\n    tag_47:\n      stop\n        /* \"contracts-encrypt/distribution/TShareRewardPool.sol\":5569:6300  function getGeneratedReward(uint256 _fromTime, uint256 _toTime)\r... */\n    tag_9:\n      tag_50\n      0x04\n      dup1\n      calldatasize\n      sub\n      0x40\n      dup2\n      lt\n      iszero\n      tag_51\n      jumpi\n      0x00\n      dup1\n      revert\n    tag_51:\n      dup2\n      add\n      swap1\n      dup1\n      dup1\n      calldataload\n      swap1\n      0x20\n      add\n      swap1\n      swap3\n      swap2\n      swap1\n      dup1\n      calldataload\n      swap1\n      0x20\n      add\n      swap1\n      swap3\n      swap2\n      swap1\n      pop\n      pop\n      pop\n      tag_52\n      jump\t// in\n    tag_50:\n      mload(0x40)\n      dup1\n      dup3\n      dup2\n      mstore\n      0x20\n      add\n      swap2\n      pop\n      pop\n      mload(0x40)\n      dup1\n      swap2\n      sub\n      swap1\n      return\n        /* \"contracts-encrypt/distribution/TShareRewardPool.sol\":2629:2718  function isInitialized() public view returns (bool) {\r... */\n    tag_10:\n      tag_53\n      tag_54\n      jump\t// in\n    tag_53:\n      mload(0x40)\n      dup1\n      dup3\n      iszero\n      iszero\n      dup2\n      mstore\n      0x20\n      add\n      swap2\n      pop\n      pop\n      mload(0x40)\n      dup1\n      swap2\n      sub\n      swap1\n      return\n        /* \"contracts-encrypt/distribution/TShareRewardPool.sol\":2928:3152  function setTime(uint256 _poolStartTime) external onlyOperator {\r... */\n    tag_11:\n      tag_55\n      0x04\n      dup1\n      calldatasize\n      sub\n      0x20\n      dup2\n      lt\n      iszero\n      tag_56\n      jumpi\n      0x00\n      dup1\n      revert\n    tag_56:\n      dup2\n      add\n      swap1\n      dup1\n      dup1\n      calldataload\n      swap1\n      0x20\n      add\n      swap1\n      swap3\n      swap2\n      swap1\n      pop\n      pop\n      pop\n      tag_57\n      jump\t// in\n    tag_55:\n      stop\n        /* \"contracts-encrypt/distribution/TShareRewardPool.sol\":10034:10909  function withdraw(uint256 _pid, uint256 _amount) public {\r... */\n    tag_12:\n      tag_58\n      0x04\n      dup1\n      calldatasize\n      sub\n      0x40\n      dup2\n      lt\n      iszero\n      tag_59\n      jumpi\n      0x00\n      dup1\n      revert\n    tag_59:\n      dup2\n      add\n      swap1\n      dup1\n      dup1\n      calldataload\n      swap1\n      0x20\n      add\n      swap1\n      swap3\n      swap2\n      swap1\n      dup1\n      calldataload\n      swap1\n      0x20\n      add\n      swap1\n      swap3\n      swap2\n      swap1\n      pop\n      pop\n      pop\n      tag_60\n      jump\t// in\n    tag_58:\n      stop\n        /* \"contracts-encrypt/distribution/TShareRewardPool.sol\":7657:8690  function updatePool(uint256 _pid) public {\r... */\n    tag_13:\n      tag_61\n      0x04\n      dup1\n      calldatasize\n      sub\n      0x20\n      dup2\n      lt\n      iszero\n      tag_62\n      jumpi\n      0x00\n      dup1\n      revert\n    tag_62:\n      dup2\n      add\n      swap1\n      dup1\n      dup1\n      calldataload\n      swap1\n      0x20\n      add\n      swap1\n      swap3\n      swap2\n      swap1\n      pop\n      pop\n      pop\n      tag_63\n      jump\t// in\n    tag_61:\n      stop\n        /* \"contracts-encrypt/distribution/TShareRewardPool.sol\":10980:11357  function emergencyWithdraw(uint256 _pid) public {\r... */\n    tag_14:\n      tag_64\n      0x04\n      dup1\n      calldatasize\n      sub\n      0x20\n      dup2\n      lt\n      iszero\n      tag_65\n      jumpi\n      0x00\n      dup1\n      revert\n    tag_65:\n      dup2\n      add\n      swap1\n      dup1\n      dup1\n      calldataload\n      swap1\n      0x20\n      add\n      swap1\n      swap3\n      swap2\n      swap1\n      pop\n      pop\n      pop\n      tag_66\n      jump\t// in\n    tag_64:\n      stop\n        /* \"contracts-encrypt/distribution/TShareRewardPool.sol\":11967:12614  function governanceRecoverUnsupported(\r... */\n    tag_15:\n      tag_67\n      0x04\n      dup1\n      calldatasize\n      sub\n      0x60\n      dup2\n      lt\n      iszero\n      tag_68\n      jumpi\n      0x00\n      dup1\n      revert\n    tag_68:\n      dup2\n      add\n      swap1\n      dup1\n      dup1\n      calldataload\n      0xffffffffffffffffffffffffffffffffffffffff\n      and\n      swap1\n      0x20\n      add\n      swap1\n      swap3\n      swap2\n      swap1\n      dup1\n      calldataload\n      swap1\n      0x20\n      add\n      swap1\n      swap3\n      swap2\n      swap1\n      dup1\n      calldataload\n      0xffffffffffffffffffffffffffffffffffffffff\n      and\n      swap1\n      0x20\n      add\n      swap1\n      swap3\n      swap2\n      swap1\n      pop\n      pop\n      pop\n      tag_69\n      jump\t// in\n    tag_67:\n      stop\n        /* \"contracts-encrypt/distribution/TShareRewardPool.sol\":558:581  address public operator */\n    tag_16:\n      tag_70\n      tag_71\n      jump\t// in\n    tag_70:\n      mload(0x40)\n      dup1\n      dup3\n      0xffffffffffffffffffffffffffffffffffffffff\n      and\n      dup2\n      mstore\n      0x20\n      add\n      swap2\n      pop\n      pop\n      mload(0x40)\n      dup1\n      swap2\n      sub\n      swap1\n      return\n        /* \"contracts-encrypt/distribution/TShareRewardPool.sol\":1639:1660  address public _feeTo */\n    tag_17:\n      tag_72\n      tag_73\n      jump\t// in\n    tag_72:\n      mload(0x40)\n      dup1\n      dup3\n      0xffffffffffffffffffffffffffffffffffffffff\n      and\n      dup2\n      mstore\n      0x20\n      add\n      swap2\n      pop\n      pop\n      mload(0x40)\n      dup1\n      swap2\n      sub\n      swap1\n      return\n        /* \"contracts-encrypt/distribution/TShareRewardPool.sol\":1768:1796  uint256 public poolStartTime */\n    tag_18:\n      tag_74\n      tag_75\n      jump\t// in\n    tag_74:\n      mload(0x40)\n      dup1\n      dup3\n      dup2\n      mstore\n      0x20\n      add\n      swap2\n      pop\n      pop\n      mload(0x40)\n      dup1\n      swap2\n      sub\n      swap1\n      return\n        /* \"contracts-encrypt/distribution/TShareRewardPool.sol\":7401:7581  function massUpdatePools() public {\r... */\n    tag_19:\n      tag_76\n      tag_77\n      jump\t// in\n    tag_76:\n      stop\n        /* \"contracts-encrypt/distribution/TShareRewardPool.sol\":1848:1874  uint256 public poolEndTime */\n    tag_20:\n      tag_78\n      tag_79\n      jump\t// in\n    tag_78:\n      mload(0x40)\n      dup1\n      dup3\n      dup2\n      mstore\n      0x20\n      add\n      swap2\n      pop\n      pop\n      mload(0x40)\n      dup1\n      swap2\n      sub\n      swap1\n      return\n        /* \"contracts-encrypt/distribution/TShareRewardPool.sol\":1883:1933  uint256 public EcSharePerSecond = 0.00187687 ether */\n    tag_21:\n      tag_80\n      tag_81\n      jump\t// in\n    tag_80:\n      mload(0x40)\n      dup1\n      dup3\n      dup2\n      mstore\n      0x20\n      add\n      swap2\n      pop\n      pop\n      mload(0x40)\n      dup1\n      swap2\n      sub\n      swap1\n      return\n        /* \"contracts-encrypt/distribution/TShareRewardPool.sol\":1392:1456  mapping(uint256 => mapping(address => UserInfo)) public userInfo */\n    tag_22:\n      tag_82\n      0x04\n      dup1\n      calldatasize\n      sub\n      0x40\n      dup2\n      lt\n      iszero\n      tag_83\n      jumpi\n      0x00\n      dup1\n      revert\n    tag_83:\n      dup2\n      add\n      swap1\n      dup1\n      dup1\n      calldataload\n      swap1\n      0x20\n      add\n      swap1\n      swap3\n      swap2\n      swap1\n      dup1\n      calldataload\n      0xffffffffffffffffffffffffffffffffffffffff\n      and\n      swap1\n      0x20\n      add\n      swap1\n      swap3\n      swap2\n      swap1\n      pop\n      pop\n      pop\n      tag_84\n      jump\t// in\n    tag_82:\n      mload(0x40)\n      dup1\n      dup4\n      dup2\n      mstore\n      0x20\n      add\n      dup3\n      dup2\n      mstore\n      0x20\n      add\n      swap3\n      pop\n      pop\n      pop\n      mload(0x40)\n      dup1\n      swap2\n      sub\n      swap1\n      return\n        /* \"contracts-encrypt/distribution/TShareRewardPool.sol\":1989:2026  uint256 public runningTime = 370 days */\n    tag_23:\n      tag_85\n      tag_86\n      jump\t// in\n    tag_85:\n      mload(0x40)\n      dup1\n      dup3\n      dup2\n      mstore\n      0x20\n      add\n      swap2\n      pop\n      pop\n      mload(0x40)\n      dup1\n      swap2\n      sub\n      swap1\n      return\n        /* \"contracts-encrypt/distribution/TShareRewardPool.sol\":3727:5040  function add(\r... */\n    tag_24:\n      tag_87\n      0x04\n      dup1\n      calldatasize\n      sub\n      0x80\n      dup2\n      lt\n      iszero\n      tag_88\n      jumpi\n      0x00\n      dup1\n      revert\n    tag_88:\n      dup2\n      add\n      swap1\n      dup1\n      dup1\n      calldataload\n      swap1\n      0x20\n      add\n      swap1\n      swap3\n      swap2\n      swap1\n      dup1\n      calldataload\n      0xffffffffffffffffffffffffffffffffffffffff\n      and\n      swap1\n      0x20\n      add\n      swap1\n      swap3\n      swap2\n      swap1\n      dup1\n      calldataload\n      iszero\n      iszero\n      swap1\n      0x20\n      add\n      swap1\n      swap3\n      swap2\n      swap1\n      dup1\n      calldataload\n      swap1\n      0x20\n      add\n      swap1\n      swap3\n      swap2\n      swap1\n      pop\n      pop\n      pop\n      tag_89\n      jump\t// in\n    tag_87:\n      stop\n        /* \"contracts-encrypt/distribution/TShareRewardPool.sol\":11858:11959  function setOperator(address _operator) external onlyOperator {\r... */\n    tag_25:\n      tag_90\n      0x04\n      dup1\n      calldatasize\n      sub\n      0x20\n      dup2\n      lt\n      iszero\n      tag_91\n      jumpi\n      0x00\n      dup1\n      revert\n    tag_91:\n      dup2\n      add\n      swap1\n      dup1\n      dup1\n      calldataload\n      0xffffffffffffffffffffffffffffffffffffffff\n      and\n      swap1\n      0x20\n      add\n      swap1\n      swap3\n      swap2\n      swap1\n      pop\n      pop\n      pop\n      tag_92\n      jump\t// in\n    tag_90:\n      stop\n        /* \"contracts-encrypt/distribution/TShareRewardPool.sol\":1608:1632  uint256 public Fee = 200 */\n    tag_26:\n      tag_93\n      tag_94\n      jump\t// in\n    tag_93:\n      mload(0x40)\n      dup1\n      dup3\n      dup2\n      mstore\n      0x20\n      add\n      swap2\n      pop\n      pop\n      mload(0x40)\n      dup1\n      swap2\n      sub\n      swap1\n      return\n        /* \"contracts-encrypt/distribution/TShareRewardPool.sol\":2726:2920  function initialize(address _EcShare) public notInitialized {\r... */\n    tag_27:\n      tag_95\n      0x04\n      dup1\n      calldatasize\n      sub\n      0x20\n      dup2\n      lt\n      iszero\n      tag_96\n      jumpi\n      0x00\n      dup1\n      revert\n    tag_96:\n      dup2\n      add\n      swap1\n      dup1\n      dup1\n      calldataload\n      0xffffffffffffffffffffffffffffffffffffffff\n      and\n      swap1\n      0x20\n      add\n      swap1\n      swap3\n      swap2\n      swap1\n      pop\n      pop\n      pop\n      tag_97\n      jump\t// in\n    tag_95:\n      stop\n        /* \"contracts-encrypt/distribution/TShareRewardPool.sol\":6367:7318  function pendingShare(uint256 _pid, address _user)\r... */\n    tag_28:\n      tag_98\n      0x04\n      dup1\n      calldatasize\n      sub\n      0x40\n      dup2\n      lt\n      iszero\n      tag_99\n      jumpi\n      0x00\n      dup1\n      revert\n    tag_99:\n      dup2\n      add\n      swap1\n      dup1\n      dup1\n      calldataload\n      swap1\n      0x20\n      add\n      swap1\n      swap3\n      swap2\n      swap1\n      dup1\n      calldataload\n      0xffffffffffffffffffffffffffffffffffffffff\n      and\n      swap1\n      0x20\n      add\n      swap1\n      swap3\n      swap2\n      swap1\n      pop\n      pop\n      pop\n      tag_100\n      jump\t// in\n    tag_98:\n      mload(0x40)\n      dup1\n      dup3\n      dup2\n      mstore\n      0x20\n      add\n      swap2\n      pop\n      pop\n      mload(0x40)\n      dup1\n      swap2\n      sub\n      swap1\n      return\n        /* \"contracts-encrypt/distribution/TShareRewardPool.sol\":8945:9998  function deposit(uint256 _pid, uint256 _amount) public {\r... */\n    tag_29:\n      tag_101\n      0x04\n      dup1\n      calldatasize\n      sub\n      0x40\n      dup2\n      lt\n      iszero\n      tag_102\n      jumpi\n      0x00\n      dup1\n      revert\n    tag_102:\n      dup2\n      add\n      swap1\n      dup1\n      dup1\n      calldataload\n      swap1\n      0x20\n      add\n      swap1\n      swap3\n      swap2\n      swap1\n      dup1\n      calldataload\n      swap1\n      0x20\n      add\n      swap1\n      swap3\n      swap2\n      swap1\n      pop\n      pop\n      pop\n      tag_103\n      jump\t// in\n    tag_101:\n      stop\n        /* \"contracts-encrypt/distribution/TShareRewardPool.sol\":2045:2096  uint256 public constant TOTAL_REWARDS = 60000 ether */\n    tag_37:\n        /* \"contracts-encrypt/distribution/TShareRewardPool.sol\":2085:2096  60000 ether */\n      0x0cb49b44ba602d800000\n        /* \"contracts-encrypt/distribution/TShareRewardPool.sol\":2045:2096  uint256 public constant TOTAL_REWARDS = 60000 ether */\n      dup2\n      jump\t// out\n        /* \"contracts-encrypt/distribution/TShareRewardPool.sol\":1251:1272  IERC20 public EcShare */\n    tag_39:\n      0x01\n      0x00\n      swap1\n      sload\n      swap1\n      0x0100\n      exp\n      swap1\n      div\n      0xffffffffffffffffffffffffffffffffffffffff\n      and\n      dup2\n      jump\t// out\n        /* \"contracts-encrypt/distribution/TShareRewardPool.sol\":1308:1334  PoolInfo[] public poolInfo */\n    tag_42:\n      0x02\n      dup2\n      dup2\n      sload\n      dup2\n      lt\n      tag_104\n      jumpi\n      invalid\n    tag_104:\n      swap1\n      0x00\n      mstore\n      keccak256(0x00, 0x20)\n      swap1\n      0x05\n      mul\n      add\n      0x00\n      swap2\n      pop\n      swap1\n      pop\n      dup1\n      0x00\n      add\n      0x00\n      swap1\n      sload\n      swap1\n      0x0100\n      exp\n      swap1\n      div\n      0xffffffffffffffffffffffffffffffffffffffff\n      and\n      swap1\n      dup1\n      0x01\n      add\n      sload\n      swap1\n      dup1\n      0x02\n      add\n      sload\n      swap1\n      dup1\n      0x03\n      add\n      sload\n      swap1\n      dup1\n      0x04\n      add\n      0x00\n      swap1\n      sload\n      swap1\n      0x0100\n      exp\n      swap1\n      div\n      0xff\n      and\n      swap1\n      pop\n      dup6\n      jump\t// out\n        /* \"contracts-encrypt/distribution/TShareRewardPool.sol\":1683:1714  bool public initialized = false */\n    tag_44:\n      0x06\n      0x14\n      swap1\n      sload\n      swap1\n      0x0100\n      exp\n      swap1\n      div\n      0xff\n      and\n      dup2\n      jump\t// out\n        /* \"contracts-encrypt/distribution/TShareRewardPool.sol\":1553:1587  uint256 public totalAllocPoint = 0 */\n    tag_46:\n      sload(0x04)\n      dup2\n      jump\t// out\n        /* \"contracts-encrypt/distribution/TShareRewardPool.sol\":5139:5492  function set(uint256 _pid, uint256 _allocPoint) public onlyOperator {\r... */\n    tag_49:\n        /* \"contracts-encrypt/distribution/TShareRewardPool.sol\":3229:3239  msg.sender */\n      caller\n        /* \"contracts-encrypt/distribution/TShareRewardPool.sol\":3217:3239  operator == msg.sender */\n      0xffffffffffffffffffffffffffffffffffffffff\n      and\n        /* \"contracts-encrypt/distribution/TShareRewardPool.sol\":3217:3225  operator */\n      0x00\n      dup1\n      sload\n      swap1\n      0x0100\n      exp\n      swap1\n      div\n      0xffffffffffffffffffffffffffffffffffffffff\n      and\n        /* \"contracts-encrypt/distribution/TShareRewardPool.sol\":3217:3239  operator == msg.sender */\n      0xffffffffffffffffffffffffffffffffffffffff\n      and\n      eq\n        /* \"contracts-encrypt/distribution/TShareRewardPool.sol\":3195:3312  require(\r... */\n      tag_107\n      jumpi\n      mload(0x40)\n      0x08c379a000000000000000000000000000000000000000000000000000000000\n      dup2\n      mstore\n      0x04\n      add\n      dup1\n      dup1\n      0x20\n      add\n      dup3\n      dup2\n      sub\n      dup3\n      mstore\n      0x2d\n      dup2\n      mstore\n      0x20\n      add\n      dup1\n      data_0b8addce3361cf34ccf0fb7aeda2bc3f51b78ff1689b02ed7f2dc0bc1f7df76b\n      0x2d\n      swap2\n      codecopy\n      0x40\n      add\n      swap2\n      pop\n      pop\n      mload(0x40)\n      dup1\n      swap2\n      sub\n      swap1\n      revert\n    tag_107:\n        /* \"contracts-encrypt/distribution/TShareRewardPool.sol\":5218:5235  massUpdatePools() */\n      tag_109\n        /* \"contracts-encrypt/distribution/TShareRewardPool.sol\":5218:5233  massUpdatePools */\n      tag_77\n        /* \"contracts-encrypt/distribution/TShareRewardPool.sol\":5218:5235  massUpdatePools() */\n      jump\t// in\n    tag_109:\n        /* \"contracts-encrypt/distribution/TShareRewardPool.sol\":5246:5267  PoolInfo storage pool */\n      0x00\n        /* \"contracts-encrypt/distribution/TShareRewardPool.sol\":5270:5278  poolInfo */\n      0x02\n        /* \"contracts-encrypt/distribution/TShareRewardPool.sol\":5279:5283  _pid */\n      dup4\n        /* \"contracts-encrypt/distribution/TShareRewardPool.sol\":5270:5284  poolInfo[_pid] */\n      dup2\n      sload\n      dup2\n      lt\n      tag_110\n      jumpi\n      invalid\n    tag_110:\n      swap1\n      0x00\n      mstore\n      keccak256(0x00, 0x20)\n      swap1\n      0x05\n      mul\n      add\n        /* \"contracts-encrypt/distribution/TShareRewardPool.sol\":5246:5284  PoolInfo storage pool = poolInfo[_pid] */\n      swap1\n      pop\n        /* \"contracts-encrypt/distribution/TShareRewardPool.sol\":5299:5303  pool */\n      dup1\n        /* \"contracts-encrypt/distribution/TShareRewardPool.sol\":5299:5313  pool.isStarted */\n      0x04\n      add\n      0x00\n      swap1\n      sload\n      swap1\n      0x0100\n      exp\n      swap1\n      div\n      0xff\n      and\n        /* \"contracts-encrypt/distribution/TShareRewardPool.sol\":5295:5445  if (pool.isStarted) {\r... */\n      iszero\n      tag_112\n      jumpi\n        /* \"contracts-encrypt/distribution/TShareRewardPool.sol\":5348:5433  totalAllocPoint.sub(pool.allocPoint).add(\r... */\n      tag_113\n        /* \"contracts-encrypt/distribution/TShareRewardPool.sol\":5407:5418  _allocPoint */\n      dup3\n        /* \"contracts-encrypt/distribution/TShareRewardPool.sol\":5348:5384  totalAllocPoint.sub(pool.allocPoint) */\n      tag_114\n        /* \"contracts-encrypt/distribution/TShareRewardPool.sol\":5368:5372  pool */\n      dup4\n        /* \"contracts-encrypt/distribution/TShareRewardPool.sol\":5368:5383  pool.allocPoint */\n      0x01\n      add\n      sload\n        /* \"contracts-encrypt/distribution/TShareRewardPool.sol\":5348:5363  totalAllocPoint */\n      sload(0x04)\n        /* \"contracts-encrypt/distribution/TShareRewardPool.sol\":5348:5367  totalAllocPoint.sub */\n      tag_115\n      swap1\n        /* \"contracts-encrypt/distribution/TShareRewardPool.sol\":5348:5384  totalAllocPoint.sub(pool.allocPoint) */\n      swap2\n      swap1\n      0xffffffff\n      and\n      jump\t// in\n    tag_114:\n        /* \"contracts-encrypt/distribution/TShareRewardPool.sol\":5348:5388  totalAllocPoint.sub(pool.allocPoint).add */\n      tag_116\n      swap1\n        /* \"contracts-encrypt/distribution/TShareRewardPool.sol\":5348:5433  totalAllocPoint.sub(pool.allocPoint).add(\r... */\n      swap2\n      swap1\n      0xffffffff\n      and\n      jump\t// in\n    tag_113:\n        /* \"contracts-encrypt/distribution/TShareRewardPool.sol\":5330:5345  totalAllocPoint */\n      0x04\n        /* \"contracts-encrypt/distribution/TShareRewardPool.sol\":5330:5433  totalAllocPoint = totalAllocPoint.sub(pool.allocPoint).add(\r... */\n      dup2\n      swap1\n      sstore\n      pop\n        /* \"contracts-encrypt/distribution/TShareRewardPool.sol\":5295:5445  if (pool.isStarted) {\r... */\n    tag_112:\n        /* \"contracts-encrypt/distribution/TShareRewardPool.sol\":5473:5484  _allocPoint */\n      dup2\n        /* \"contracts-encrypt/distribution/TShareRewardPool.sol\":5455:5459  pool */\n      dup2\n        /* \"contracts-encrypt/distribution/TShareRewardPool.sol\":5455:5470  pool.allocPoint */\n      0x01\n      add\n        /* \"contracts-encrypt/distribution/TShareRewardPool.sol\":5455:5484  pool.allocPoint = _allocPoint */\n      dup2\n      swap1\n      sstore\n      pop\n        /* \"contracts-encrypt/distribution/TShareRewardPool.sol\":3323:3324  _ */\n      pop\n        /* \"contracts-encrypt/distribution/TShareRewardPool.sol\":5139:5492  function set(uint256 _pid, uint256 _allocPoint) public onlyOperator {\r... */\n      pop\n      pop\n      jump\t// out\n        /* \"contracts-encrypt/distribution/TShareRewardPool.sol\":5569:6300  function getGeneratedReward(uint256 _fromTime, uint256 _toTime)\r... */\n    tag_52:\n        /* \"contracts-encrypt/distribution/TShareRewardPool.sol\":5681:5688  uint256 */\n      0x00\n        /* \"contracts-encrypt/distribution/TShareRewardPool.sol\":5723:5730  _toTime */\n      dup2\n        /* \"contracts-encrypt/distribution/TShareRewardPool.sol\":5710:5719  _fromTime */\n      dup4\n        /* \"contracts-encrypt/distribution/TShareRewardPool.sol\":5710:5730  _fromTime >= _toTime */\n      lt\n        /* \"contracts-encrypt/distribution/TShareRewardPool.sol\":5706:5740  if (_fromTime >= _toTime) return 0 */\n      tag_118\n      jumpi\n        /* \"contracts-encrypt/distribution/TShareRewardPool.sol\":5739:5740  0 */\n      0x00\n        /* \"contracts-encrypt/distribution/TShareRewardPool.sol\":5732:5740  return 0 */\n      swap1\n      pop\n      jump(tag_117)\n        /* \"contracts-encrypt/distribution/TShareRewardPool.sol\":5706:5740  if (_fromTime >= _toTime) return 0 */\n    tag_118:\n        /* \"contracts-encrypt/distribution/TShareRewardPool.sol\":5766:5777  poolEndTime */\n      sload(0x08)\n        /* \"contracts-encrypt/distribution/TShareRewardPool.sol\":5755:5762  _toTime */\n      dup3\n        /* \"contracts-encrypt/distribution/TShareRewardPool.sol\":5755:5777  _toTime >= poolEndTime */\n      lt\n        /* \"contracts-encrypt/distribution/TShareRewardPool.sol\":5751:6293  if (_toTime >= poolEndTime) {\r... */\n      tag_119\n      jumpi\n        /* \"contracts-encrypt/distribution/TShareRewardPool.sol\":5811:5822  poolEndTime */\n      sload(0x08)\n        /* \"contracts-encrypt/distribution/TShareRewardPool.sol\":5798:5807  _fromTime */\n      dup4\n        /* \"contracts-encrypt/distribution/TShareRewardPool.sol\":5798:5822  _fromTime >= poolEndTime */\n      lt\n        /* \"contracts-encrypt/distribution/TShareRewardPool.sol\":5794:5832  if (_fromTime >= poolEndTime) return 0 */\n      tag_120\n      jumpi\n        /* \"contracts-encrypt/distribution/TShareRewardPool.sol\":5831:5832  0 */\n      0x00\n        /* \"contracts-encrypt/distribution/TShareRewardPool.sol\":5824:5832  return 0 */\n      swap1\n      pop\n      jump(tag_117)\n        /* \"contracts-encrypt/distribution/TShareRewardPool.sol\":5794:5832  if (_fromTime >= poolEndTime) return 0 */\n    tag_120:\n        /* \"contracts-encrypt/distribution/TShareRewardPool.sol\":5864:5877  poolStartTime */\n      sload(0x07)\n        /* \"contracts-encrypt/distribution/TShareRewardPool.sol\":5851:5860  _fromTime */\n      dup4\n        /* \"contracts-encrypt/distribution/TShareRewardPool.sol\":5851:5877  _fromTime <= poolStartTime */\n      gt\n        /* \"contracts-encrypt/distribution/TShareRewardPool.sol\":5847:5955  if (_fromTime <= poolStartTime)\r... */\n      tag_121\n      jumpi\n        /* \"contracts-encrypt/distribution/TShareRewardPool.sol\":5903:5955  poolEndTime.sub(poolStartTime).mul(EcSharePerSecond) */\n      tag_122\n        /* \"contracts-encrypt/distribution/TShareRewardPool.sol\":5938:5954  EcSharePerSecond */\n      sload(0x09)\n        /* \"contracts-encrypt/distribution/TShareRewardPool.sol\":5903:5933  poolEndTime.sub(poolStartTime) */\n      tag_123\n        /* \"contracts-encrypt/distribution/TShareRewardPool.sol\":5919:5932  poolStartTime */\n      sload(0x07)\n        /* \"contracts-encrypt/distribution/TShareRewardPool.sol\":5903:5914  poolEndTime */\n      sload(0x08)\n        /* \"contracts-encrypt/distribution/TShareRewardPool.sol\":5903:5918  poolEndTime.sub */\n      tag_115\n      swap1\n        /* \"contracts-encrypt/distribution/TShareRewardPool.sol\":5903:5933  poolEndTime.sub(poolStartTime) */\n      swap2\n      swap1\n      0xffffffff\n      and\n      jump\t// in\n    tag_123:\n        /* \"contracts-encrypt/distribution/TShareRewardPool.sol\":5903:5937  poolEndTime.sub(poolStartTime).mul */\n      tag_124\n      swap1\n        /* \"contracts-encrypt/distribution/TShareRewardPool.sol\":5903:5955  poolEndTime.sub(poolStartTime).mul(EcSharePerSecond) */\n      swap2\n      swap1\n      0xffffffff\n      and\n      jump\t// in\n    tag_122:\n        /* \"contracts-encrypt/distribution/TShareRewardPool.sol\":5896:5955  return poolEndTime.sub(poolStartTime).mul(EcSharePerSecond) */\n      swap1\n      pop\n      jump(tag_117)\n        /* \"contracts-encrypt/distribution/TShareRewardPool.sol\":5847:5955  if (_fromTime <= poolStartTime)\r... */\n    tag_121:\n        /* \"contracts-encrypt/distribution/TShareRewardPool.sol\":5977:6025  poolEndTime.sub(_fromTime).mul(EcSharePerSecond) */\n      tag_125\n        /* \"contracts-encrypt/distribution/TShareRewardPool.sol\":6008:6024  EcSharePerSecond */\n      sload(0x09)\n        /* \"contracts-encrypt/distribution/TShareRewardPool.sol\":5977:6003  poolEndTime.sub(_fromTime) */\n      tag_126\n        /* \"contracts-encrypt/distribution/TShareRewardPool.sol\":5993:6002  _fromTime */\n      dup6\n        /* \"contracts-encrypt/distribution/TShareRewardPool.sol\":5977:5988  poolEndTime */\n      sload(0x08)\n        /* \"contracts-encrypt/distribution/TShareRewardPool.sol\":5977:5992  poolEndTime.sub */\n      tag_115\n      swap1\n        /* \"contracts-encrypt/distribution/TShareRewardPool.sol\":5977:6003  poolEndTime.sub(_fromTime) */\n      swap2\n      swap1\n      0xffffffff\n      and\n      jump\t// in\n    tag_126:\n        /* \"contracts-encrypt/distribution/TShareRewardPool.sol\":5977:6007  poolEndTime.sub(_fromTime).mul */\n      tag_124\n      swap1\n        /* \"contracts-encrypt/distribution/TShareRewardPool.sol\":5977:6025  poolEndTime.sub(_fromTime).mul(EcSharePerSecond) */\n      swap2\n      swap1\n      0xffffffff\n      and\n      jump\t// in\n    tag_125:\n        /* \"contracts-encrypt/distribution/TShareRewardPool.sol\":5970:6025  return poolEndTime.sub(_fromTime).mul(EcSharePerSecond) */\n      swap1\n      pop\n      jump(tag_117)\n        /* \"contracts-encrypt/distribution/TShareRewardPool.sol\":5751:6293  if (_toTime >= poolEndTime) {\r... */\n    tag_119:\n        /* \"contracts-encrypt/distribution/TShareRewardPool.sol\":6073:6086  poolStartTime */\n      sload(0x07)\n        /* \"contracts-encrypt/distribution/TShareRewardPool.sol\":6062:6069  _toTime */\n      dup3\n        /* \"contracts-encrypt/distribution/TShareRewardPool.sol\":6062:6086  _toTime <= poolStartTime */\n      gt\n        /* \"contracts-encrypt/distribution/TShareRewardPool.sol\":6058:6096  if (_toTime <= poolStartTime) return 0 */\n      tag_128\n      jumpi\n        /* \"contracts-encrypt/distribution/TShareRewardPool.sol\":6095:6096  0 */\n      0x00\n        /* \"contracts-encrypt/distribution/TShareRewardPool.sol\":6088:6096  return 0 */\n      swap1\n      pop\n      jump(tag_117)\n        /* \"contracts-encrypt/distribution/TShareRewardPool.sol\":6058:6096  if (_toTime <= poolStartTime) return 0 */\n    tag_128:\n        /* \"contracts-encrypt/distribution/TShareRewardPool.sol\":6128:6141  poolStartTime */\n      sload(0x07)\n        /* \"contracts-encrypt/distribution/TShareRewardPool.sol\":6115:6124  _fromTime */\n      dup4\n        /* \"contracts-encrypt/distribution/TShareRewardPool.sol\":6115:6141  _fromTime <= poolStartTime */\n      gt\n        /* \"contracts-encrypt/distribution/TShareRewardPool.sol\":6111:6215  if (_fromTime <= poolStartTime)\r... */\n      tag_129\n      jumpi\n        /* \"contracts-encrypt/distribution/TShareRewardPool.sol\":6167:6215  _toTime.sub(poolStartTime).mul(EcSharePerSecond) */\n      tag_130\n        /* \"contracts-encrypt/distribution/TShareRewardPool.sol\":6198:6214  EcSharePerSecond */\n      sload(0x09)\n        /* \"contracts-encrypt/distribution/TShareRewardPool.sol\":6167:6193  _toTime.sub(poolStartTime) */\n      tag_131\n        /* \"contracts-encrypt/distribution/TShareRewardPool.sol\":6179:6192  poolStartTime */\n      sload(0x07)\n        /* \"contracts-encrypt/distribution/TShareRewardPool.sol\":6167:6174  _toTime */\n      dup6\n        /* \"contracts-encrypt/distribution/TShareRewardPool.sol\":6167:6178  _toTime.sub */\n      tag_115\n      swap1\n        /* \"contracts-encrypt/distribution/TShareRewardPool.sol\":6167:6193  _toTime.sub(poolStartTime) */\n      swap2\n      swap1\n      0xffffffff\n      and\n      jump\t// in\n    tag_131:\n        /* \"contracts-encrypt/distribution/TShareRewardPool.sol\":6167:6197  _toTime.sub(poolStartTime).mul */\n      tag_124\n      swap1\n        /* \"contracts-encrypt/distribution/TShareRewardPool.sol\":6167:6215  _toTime.sub(poolStartTime).mul(EcSharePerSecond) */\n      swap2\n      swap1\n      0xffffffff\n      and\n      jump\t// in\n    tag_130:\n        /* \"contracts-encrypt/distribution/TShareRewardPool.sol\":6160:6215  return _toTime.sub(poolStartTime).mul(EcSharePerSecond) */\n      swap1\n      pop\n      jump(tag_117)\n        /* \"contracts-encrypt/distribution/TShareRewardPool.sol\":6111:6215  if (_fromTime <= poolStartTime)\r... */\n    tag_129:\n        /* \"contracts-encrypt/distribution/TShareRewardPool.sol\":6237:6281  _toTime.sub(_fromTime).mul(EcSharePerSecond) */\n      tag_132\n        /* \"contracts-encrypt/distribution/TShareRewardPool.sol\":6264:6280  EcSharePerSecond */\n      sload(0x09)\n        /* \"contracts-encrypt/distribution/TShareRewardPool.sol\":6237:6259  _toTime.sub(_fromTime) */\n      tag_133\n        /* \"contracts-encrypt/distribution/TShareRewardPool.sol\":6249:6258  _fromTime */\n      dup6\n        /* \"contracts-encrypt/distribution/TShareRewardPool.sol\":6237:6244  _toTime */\n      dup6\n        /* \"contracts-encrypt/distribution/TShareRewardPool.sol\":6237:6248  _toTime.sub */\n      tag_115\n      swap1\n        /* \"contracts-encrypt/distribution/TShareRewardPool.sol\":6237:6259  _toTime.sub(_fromTime) */\n      swap2\n      swap1\n      0xffffffff\n      and\n      jump\t// in\n    tag_133:\n        /* \"contracts-encrypt/distribution/TShareRewardPool.sol\":6237:6263  _toTime.sub(_fromTime).mul */\n      tag_124\n      swap1\n        /* \"contracts-encrypt/distribution/TShareRewardPool.sol\":6237:6281  _toTime.sub(_fromTime).mul(EcSharePerSecond) */\n      swap2\n      swap1\n      0xffffffff\n      and\n      jump\t// in\n    tag_132:\n        /* \"contracts-encrypt/distribution/TShareRewardPool.sol\":6230:6281  return _toTime.sub(_fromTime).mul(EcSharePerSecond) */\n      swap1\n      pop\n        /* \"contracts-encrypt/distribution/TShareRewardPool.sol\":5569:6300  function getGeneratedReward(uint256 _fromTime, uint256 _toTime)\r... */\n    tag_117:\n      swap3\n      swap2\n      pop\n      pop\n      jump\t// out\n        /* \"contracts-encrypt/distribution/TShareRewardPool.sol\":2629:2718  function isInitialized() public view returns (bool) {\r... */\n    tag_54:\n        /* \"contracts-encrypt/distribution/TShareRewardPool.sol\":2675:2679  bool */\n      0x00\n        /* \"contracts-encrypt/distribution/TShareRewardPool.sol\":2699:2710  initialized */\n      0x06\n      0x14\n      swap1\n      sload\n      swap1\n      0x0100\n      exp\n      swap1\n      div\n      0xff\n      and\n        /* \"contracts-encrypt/distribution/TShareRewardPool.sol\":2692:2710  return initialized */\n      swap1\n      pop\n        /* \"contracts-encrypt/distribution/TShareRewardPool.sol\":2629:2718  function isInitialized() public view returns (bool) {\r... */\n      swap1\n      jump\t// out\n        /* \"contracts-encrypt/distribution/TShareRewardPool.sol\":2928:3152  function setTime(uint256 _poolStartTime) external onlyOperator {\r... */\n    tag_57:\n        /* \"contracts-encrypt/distribution/TShareRewardPool.sol\":3229:3239  msg.sender */\n      caller\n        /* \"contracts-encrypt/distribution/TShareRewardPool.sol\":3217:3239  operator == msg.sender */\n      0xffffffffffffffffffffffffffffffffffffffff\n      and\n        /* \"contracts-encrypt/distribution/TShareRewardPool.sol\":3217:3225  operator */\n      0x00\n      dup1\n      sload\n      swap1\n      0x0100\n      exp\n      swap1\n      div\n      0xffffffffffffffffffffffffffffffffffffffff\n      and\n        /* \"contracts-encrypt/distribution/TShareRewardPool.sol\":3217:3239  operator == msg.sender */\n      0xffffffffffffffffffffffffffffffffffffffff\n      and\n      eq\n        /* \"contracts-encrypt/distribution/TShareRewardPool.sol\":3195:3312  require(\r... */\n      tag_136\n      jumpi\n      mload(0x40)\n      0x08c379a000000000000000000000000000000000000000000000000000000000\n      dup2\n      mstore\n      0x04\n      add\n      dup1\n      dup1\n      0x20\n      add\n      dup3\n      dup2\n      sub\n      dup3\n      mstore\n      0x2d\n      dup2\n      mstore\n      0x20\n      add\n      dup1\n      data_0b8addce3361cf34ccf0fb7aeda2bc3f51b78ff1689b02ed7f2dc0bc1f7df76b\n      0x2d\n      swap2\n      codecopy\n      0x40\n      add\n      swap2\n      pop\n      pop\n      mload(0x40)\n      dup1\n      swap2\n      sub\n      swap1\n      revert\n    tag_136:\n        /* \"contracts-encrypt/distribution/TShareRewardPool.sol\":3028:3042  _poolStartTime */\n      dup1\n        /* \"contracts-encrypt/distribution/TShareRewardPool.sol\":3010:3025  block.timestamp */\n      timestamp\n        /* \"contracts-encrypt/distribution/TShareRewardPool.sol\":3010:3042  block.timestamp < _poolStartTime */\n      lt\n        /* \"contracts-encrypt/distribution/TShareRewardPool.sol\":3002:3051  require(block.timestamp < _poolStartTime, \"late\") */\n      tag_138\n      jumpi\n      mload(0x40)\n      0x08c379a000000000000000000000000000000000000000000000000000000000\n      dup2\n      mstore\n      0x04\n      add\n      dup1\n      dup1\n      0x20\n      add\n      dup3\n      dup2\n      sub\n      dup3\n      mstore\n      0x04\n      dup2\n      mstore\n      0x20\n      add\n      dup1\n      0x6c61746500000000000000000000000000000000000000000000000000000000\n      dup2\n      mstore\n      pop\n      0x20\n      add\n      swap2\n      pop\n      pop\n      mload(0x40)\n      dup1\n      swap2\n      sub\n      swap1\n      revert\n    tag_138:\n        /* \"contracts-encrypt/distribution/TShareRewardPool.sol\":3078:3092  _poolStartTime */\n      dup1\n        /* \"contracts-encrypt/distribution/TShareRewardPool.sol\":3062:3075  poolStartTime */\n      0x07\n        /* \"contracts-encrypt/distribution/TShareRewardPool.sol\":3062:3092  poolStartTime = _poolStartTime */\n      dup2\n      swap1\n      sstore\n      pop\n        /* \"contracts-encrypt/distribution/TShareRewardPool.sol\":3133:3144  runningTime */\n      sload(0x0a)\n        /* \"contracts-encrypt/distribution/TShareRewardPool.sol\":3117:3130  poolStartTime */\n      sload(0x07)\n        /* \"contracts-encrypt/distribution/TShareRewardPool.sol\":3117:3144  poolStartTime + runningTime */\n      add\n        /* \"contracts-encrypt/distribution/TShareRewardPool.sol\":3103:3114  poolEndTime */\n      0x08\n        /* \"contracts-encrypt/distribution/TShareRewardPool.sol\":3103:3144  poolEndTime = poolStartTime + runningTime */\n      dup2\n      swap1\n      sstore\n      pop\n        /* \"contracts-encrypt/distribution/TShareRewardPool.sol\":2928:3152  function setTime(uint256 _poolStartTime) external onlyOperator {\r... */\n      pop\n      jump\t// out\n        /* \"contracts-encrypt/distribution/TShareRewardPool.sol\":10034:10909  function withdraw(uint256 _pid, uint256 _amount) public {\r... */\n    tag_60:\n        /* \"contracts-encrypt/distribution/TShareRewardPool.sol\":10101:10116  address _sender */\n      0x00\n        /* \"contracts-encrypt/distribution/TShareRewardPool.sol\":10119:10129  msg.sender */\n      caller\n        /* \"contracts-encrypt/distribution/TShareRewardPool.sol\":10101:10129  address _sender = msg.sender */\n      swap1\n      pop\n        /* \"contracts-encrypt/distribution/TShareRewardPool.sol\":10140:10161  PoolInfo storage pool */\n      0x00\n        /* \"contracts-encrypt/distribution/TShareRewardPool.sol\":10164:10172  poolInfo */\n      0x02\n        /* \"contracts-encrypt/distribution/TShareRewardPool.sol\":10173:10177  _pid */\n      dup5\n        /* \"contracts-encrypt/distribution/TShareRewardPool.sol\":10164:10178  poolInfo[_pid] */\n      dup2\n      sload\n      dup2\n      lt\n      tag_140\n      jumpi\n      invalid\n    tag_140:\n      swap1\n      0x00\n      mstore\n      keccak256(0x00, 0x20)\n      swap1\n      0x05\n      mul\n      add\n        /* \"contracts-encrypt/distribution/TShareRewardPool.sol\":10140:10178  PoolInfo storage pool = poolInfo[_pid] */\n      swap1\n      pop\n        /* \"contracts-encrypt/distribution/TShareRewardPool.sol\":10189:10210  UserInfo storage user */\n      0x00\n        /* \"contracts-encrypt/distribution/TShareRewardPool.sol\":10213:10221  userInfo */\n      0x03\n        /* \"contracts-encrypt/distribution/TShareRewardPool.sol\":10213:10227  userInfo[_pid] */\n      0x00\n        /* \"contracts-encrypt/distribution/TShareRewardPool.sol\":10222:10226  _pid */\n      dup7\n        /* \"contracts-encrypt/distribution/TShareRewardPool.sol\":10213:10227  userInfo[_pid] */\n      dup2\n      mstore\n      0x20\n      add\n      swap1\n      dup2\n      mstore\n      0x20\n      add\n      0x00\n      keccak256\n        /* \"contracts-encrypt/distribution/TShareRewardPool.sol\":10213:10236  userInfo[_pid][_sender] */\n      0x00\n        /* \"contracts-encrypt/distribution/TShareRewardPool.sol\":10228:10235  _sender */\n      dup5\n        /* \"contracts-encrypt/distribution/TShareRewardPool.sol\":10213:10236  userInfo[_pid][_sender] */\n      0xffffffffffffffffffffffffffffffffffffffff\n      and\n      0xffffffffffffffffffffffffffffffffffffffff\n      and\n      dup2\n      mstore\n      0x20\n      add\n      swap1\n      dup2\n      mstore\n      0x20\n      add\n      0x00\n      keccak256\n        /* \"contracts-encrypt/distribution/TShareRewardPool.sol\":10189:10236  UserInfo storage user = userInfo[_pid][_sender] */\n      swap1\n      pop\n        /* \"contracts-encrypt/distribution/TShareRewardPool.sol\":10270:10277  _amount */\n      dup4\n        /* \"contracts-encrypt/distribution/TShareRewardPool.sol\":10255:10259  user */\n      dup2\n        /* \"contracts-encrypt/distribution/TShareRewardPool.sol\":10255:10266  user.amount */\n      0x00\n      add\n      sload\n        /* \"contracts-encrypt/distribution/TShareRewardPool.sol\":10255:10277  user.amount >= _amount */\n      lt\n      iszero\n        /* \"contracts-encrypt/distribution/TShareRewardPool.sol\":10247:10300  require(user.amount >= _amount, \"withdraw: not good\") */\n      tag_142\n      jumpi\n      mload(0x40)\n      0x08c379a000000000000000000000000000000000000000000000000000000000\n      dup2\n      mstore\n      0x04\n      add\n      dup1\n      dup1\n      0x20\n      add\n      dup3\n      dup2\n      sub\n      dup3\n      mstore\n      0x12\n      dup2\n      mstore\n      0x20\n      add\n      dup1\n      0x77697468647261773a206e6f7420676f6f640000000000000000000000000000\n      dup2\n      mstore\n      pop\n      0x20\n      add\n      swap2\n      pop\n      pop\n      mload(0x40)\n      dup1\n      swap2\n      sub\n      swap1\n      revert\n    tag_142:\n        /* \"contracts-encrypt/distribution/TShareRewardPool.sol\":10311:10327  updatePool(_pid) */\n      tag_143\n        /* \"contracts-encrypt/distribution/TShareRewardPool.sol\":10322:10326  _pid */\n      dup6\n        /* \"contracts-encrypt/distribution/TShareRewardPool.sol\":10311:10321  updatePool */\n      tag_63\n        /* \"contracts-encrypt/distribution/TShareRewardPool.sol\":10311:10327  updatePool(_pid) */\n      jump\t// in\n    tag_143:\n        /* \"contracts-encrypt/distribution/TShareRewardPool.sol\":10338:10354  uint256 _pending */\n      0x00\n        /* \"contracts-encrypt/distribution/TShareRewardPool.sol\":10357:10484  user\r... */\n      tag_144\n        /* \"contracts-encrypt/distribution/TShareRewardPool.sol\":10468:10472  user */\n      dup3\n        /* \"contracts-encrypt/distribution/TShareRewardPool.sol\":10468:10483  user.rewardDebt */\n      0x01\n      add\n      sload\n        /* \"contracts-encrypt/distribution/TShareRewardPool.sol\":10357:10449  user\r... */\n      tag_145\n        /* \"contracts-encrypt/distribution/TShareRewardPool.sol\":10444:10448  1e18 */\n      0x0de0b6b3a7640000\n        /* \"contracts-encrypt/distribution/TShareRewardPool.sol\":10357:10425  user\r... */\n      tag_146\n        /* \"contracts-encrypt/distribution/TShareRewardPool.sol\":10401:10405  pool */\n      dup8\n        /* \"contracts-encrypt/distribution/TShareRewardPool.sol\":10401:10424  pool.accEcSharePerShare */\n      0x03\n      add\n      sload\n        /* \"contracts-encrypt/distribution/TShareRewardPool.sol\":10357:10361  user */\n      dup8\n        /* \"contracts-encrypt/distribution/TShareRewardPool.sol\":10357:10382  user\r... */\n      0x00\n      add\n      sload\n        /* \"contracts-encrypt/distribution/TShareRewardPool.sol\":10357:10400  user\r... */\n      tag_124\n      swap1\n        /* \"contracts-encrypt/distribution/TShareRewardPool.sol\":10357:10425  user\r... */\n      swap2\n      swap1\n      0xffffffff\n      and\n      jump\t// in\n    tag_146:\n        /* \"contracts-encrypt/distribution/TShareRewardPool.sol\":10357:10443  user\r... */\n      tag_147\n      swap1\n        /* \"contracts-encrypt/distribution/TShareRewardPool.sol\":10357:10449  user\r... */\n      swap2\n      swap1\n      0xffffffff\n      and\n      jump\t// in\n    tag_145:\n        /* \"contracts-encrypt/distribution/TShareRewardPool.sol\":10357:10467  user\r... */\n      tag_115\n      swap1\n        /* \"contracts-encrypt/distribution/TShareRewardPool.sol\":10357:10484  user\r... */\n      swap2\n      swap1\n      0xffffffff\n      and\n      jump\t// in\n    tag_144:\n        /* \"contracts-encrypt/distribution/TShareRewardPool.sol\":10338:10484  uint256 _pending = user\r... */\n      swap1\n      pop\n        /* \"contracts-encrypt/distribution/TShareRewardPool.sol\":10510:10511  0 */\n      0x00\n        /* \"contracts-encrypt/distribution/TShareRewardPool.sol\":10499:10507  _pending */\n      dup2\n        /* \"contracts-encrypt/distribution/TShareRewardPool.sol\":10499:10511  _pending > 0 */\n      gt\n        /* \"contracts-encrypt/distribution/TShareRewardPool.sol\":10495:10627  if (_pending > 0) {\r... */\n      iszero\n      tag_148\n      jumpi\n        /* \"contracts-encrypt/distribution/TShareRewardPool.sol\":10528:10566  safeEcShareTransfer(_sender, _pending) */\n      tag_149\n        /* \"contracts-encrypt/distribution/TShareRewardPool.sol\":10548:10555  _sender */\n      dup5\n        /* \"contracts-encrypt/distribution/TShareRewardPool.sol\":10557:10565  _pending */\n      dup3\n        /* \"contracts-encrypt/distribution/TShareRewardPool.sol\":10528:10547  safeEcShareTransfer */\n      tag_150\n        /* \"contracts-encrypt/distribution/TShareRewardPool.sol\":10528:10566  safeEcShareTransfer(_sender, _pending) */\n      jump\t// in\n    tag_149:\n        /* \"contracts-encrypt/distribution/TShareRewardPool.sol\":10597:10604  _sender */\n      dup4\n        /* \"contracts-encrypt/distribution/TShareRewardPool.sol\":10586:10615  RewardPaid(_sender, _pending) */\n      0xffffffffffffffffffffffffffffffffffffffff\n      and\n      0xe2403640ba68fed3a2f88b7557551d1993f84b99bb10ff833f0cf8db0c5e0486\n        /* \"contracts-encrypt/distribution/TShareRewardPool.sol\":10606:10614  _pending */\n      dup3\n        /* \"contracts-encrypt/distribution/TShareRewardPool.sol\":10586:10615  RewardPaid(_sender, _pending) */\n      mload(0x40)\n      dup1\n      dup3\n      dup2\n      mstore\n      0x20\n      add\n      swap2\n      pop\n      pop\n      mload(0x40)\n      dup1\n      swap2\n      sub\n      swap1\n      log2\n        /* \"contracts-encrypt/distribution/TShareRewardPool.sol\":10495:10627  if (_pending > 0) {\r... */\n    tag_148:\n        /* \"contracts-encrypt/distribution/TShareRewardPool.sol\":10651:10652  0 */\n      0x00\n        /* \"contracts-encrypt/distribution/TShareRewardPool.sol\":10641:10648  _amount */\n      dup6\n        /* \"contracts-encrypt/distribution/TShareRewardPool.sol\":10641:10652  _amount > 0 */\n      gt\n        /* \"contracts-encrypt/distribution/TShareRewardPool.sol\":10637:10775  if (_amount > 0) {\r... */\n      iszero\n      tag_151\n      jumpi\n        /* \"contracts-encrypt/distribution/TShareRewardPool.sol\":10683:10707  user.amount.sub(_amount) */\n      tag_152\n        /* \"contracts-encrypt/distribution/TShareRewardPool.sol\":10699:10706  _amount */\n      dup6\n        /* \"contracts-encrypt/distribution/TShareRewardPool.sol\":10683:10687  user */\n      dup4\n        /* \"contracts-encrypt/distribution/TShareRewardPool.sol\":10683:10694  user.amount */\n      0x00\n      add\n      sload\n        /* \"contracts-encrypt/distribution/TShareRewardPool.sol\":10683:10698  user.amount.sub */\n      tag_115\n      swap1\n        /* \"contracts-encrypt/distribution/TShareRewardPool.sol\":10683:10707  user.amount.sub(_amount) */\n      swap2\n      swap1\n      0xffffffff\n      and\n      jump\t// in\n    tag_152:\n        /* \"contracts-encrypt/distribution/TShareRewardPool.sol\":10669:10673  user */\n      dup3\n        /* \"contracts-encrypt/distribution/TShareRewardPool.sol\":10669:10680  user.amount */\n      0x00\n      add\n        /* \"contracts-encrypt/distribution/TShareRewardPool.sol\":10669:10707  user.amount = user.amount.sub(_amount) */\n      dup2\n      swap1\n      sstore\n      pop\n        /* \"contracts-encrypt/distribution/TShareRewardPool.sol\":10722:10763  pool.token.safeTransfer(_sender, _amount) */\n      tag_153\n        /* \"contracts-encrypt/distribution/TShareRewardPool.sol\":10746:10753  _sender */\n      dup5\n        /* \"contracts-encrypt/distribution/TShareRewardPool.sol\":10755:10762  _amount */\n      dup7\n        /* \"contracts-encrypt/distribution/TShareRewardPool.sol\":10722:10726  pool */\n      dup6\n        /* \"contracts-encrypt/distribution/TShareRewardPool.sol\":10722:10732  pool.token */\n      0x00\n      add\n      0x00\n      swap1\n      sload\n      swap1\n      0x0100\n      exp\n      swap1\n      div\n      0xffffffffffffffffffffffffffffffffffffffff\n      and\n        /* \"contracts-encrypt/distribution/TShareRewardPool.sol\":10722:10745  pool.token.safeTransfer */\n      0xffffffffffffffffffffffffffffffffffffffff\n      and\n      tag_154\n      swap1\n        /* \"contracts-encrypt/distribution/TShareRewardPool.sol\":10722:10763  pool.token.safeTransfer(_sender, _amount) */\n      swap3\n      swap2\n      swap1\n      0xffffffff\n      and\n      jump\t// in\n    tag_153:\n        /* \"contracts-encrypt/distribution/TShareRewardPool.sol\":10637:10775  if (_amount > 0) {\r... */\n    tag_151:\n        /* \"contracts-encrypt/distribution/TShareRewardPool.sol\":10803:10853  user.amount.mul(pool.accEcSharePerShare).div(1e18) */\n      tag_155\n        /* \"contracts-encrypt/distribution/TShareRewardPool.sol\":10848:10852  1e18 */\n      0x0de0b6b3a7640000\n        /* \"contracts-encrypt/distribution/TShareRewardPool.sol\":10803:10843  user.amount.mul(pool.accEcSharePerShare) */\n      tag_156\n        /* \"contracts-encrypt/distribution/TShareRewardPool.sol\":10819:10823  pool */\n      dup6\n        /* \"contracts-encrypt/distribution/TShareRewardPool.sol\":10819:10842  pool.accEcSharePerShare */\n      0x03\n      add\n      sload\n        /* \"contracts-encrypt/distribution/TShareRewardPool.sol\":10803:10807  user */\n      dup6\n        /* \"contracts-encrypt/distribution/TShareRewardPool.sol\":10803:10814  user.amount */\n      0x00\n      add\n      sload\n        /* \"contracts-encrypt/distribution/TShareRewardPool.sol\":10803:10818  user.amount.mul */\n      tag_124\n      swap1\n        /* \"contracts-encrypt/distribution/TShareRewardPool.sol\":10803:10843  user.amount.mul(pool.accEcSharePerShare) */\n      swap2\n      swap1\n      0xffffffff\n      and\n      jump\t// in\n    tag_156:\n        /* \"contracts-encrypt/distribution/TShareRewardPool.sol\":10803:10847  user.amount.mul(pool.accEcSharePerShare).div */\n      tag_147\n      swap1\n        /* \"contracts-encrypt/distribution/TShareRewardPool.sol\":10803:10853  user.amount.mul(pool.accEcSharePerShare).div(1e18) */\n      swap2\n      swap1\n      0xffffffff\n      and\n      jump\t// in\n    tag_155:\n        /* \"contracts-encrypt/distribution/TShareRewardPool.sol\":10785:10789  user */\n      dup3\n        /* \"contracts-encrypt/distribution/TShareRewardPool.sol\":10785:10800  user.rewardDebt */\n      0x01\n      add\n        /* \"contracts-encrypt/distribution/TShareRewardPool.sol\":10785:10853  user.rewardDebt = user.amount.mul(pool.accEcSharePerShare).div(1e18) */\n      dup2\n      swap1\n      sstore\n      pop\n        /* \"contracts-encrypt/distribution/TShareRewardPool.sol\":10887:10891  _pid */\n      dup6\n        /* \"contracts-encrypt/distribution/TShareRewardPool.sol\":10878:10885  _sender */\n      dup5\n        /* \"contracts-encrypt/distribution/TShareRewardPool.sol\":10869:10901  Withdraw(_sender, _pid, _amount) */\n      0xffffffffffffffffffffffffffffffffffffffff\n      and\n      0xf279e6a1f5e320cca91135676d9cb6e44ca8a08c0b88342bcdb1144f6511b568\n        /* \"contracts-encrypt/distribution/TShareRewardPool.sol\":10893:10900  _amount */\n      dup8\n        /* \"contracts-encrypt/distribution/TShareRewardPool.sol\":10869:10901  Withdraw(_sender, _pid, _amount) */\n      mload(0x40)\n      dup1\n      dup3\n      dup2\n      mstore\n      0x20\n      add\n      swap2\n      pop\n      pop\n      mload(0x40)\n      dup1\n      swap2\n      sub\n      swap1\n      log3\n        /* \"contracts-encrypt/distribution/TShareRewardPool.sol\":10034:10909  function withdraw(uint256 _pid, uint256 _amount) public {\r... */\n      pop\n      pop\n      pop\n      pop\n      pop\n      pop\n      jump\t// out\n        /* \"contracts-encrypt/distribution/TShareRewardPool.sol\":7657:8690  function updatePool(uint256 _pid) public {\r... */\n    tag_63:\n        /* \"contracts-encrypt/distribution/TShareRewardPool.sol\":7709:7730  PoolInfo storage pool */\n      0x00\n        /* \"contracts-encrypt/distribution/TShareRewardPool.sol\":7733:7741  poolInfo */\n      0x02\n        /* \"contracts-encrypt/distribution/TShareRewardPool.sol\":7742:7746  _pid */\n      dup3\n        /* \"contracts-encrypt/distribution/TShareRewardPool.sol\":7733:7747  poolInfo[_pid] */\n      dup2\n      sload\n      dup2\n      lt\n      tag_158\n      jumpi\n      invalid\n    tag_158:\n      swap1\n      0x00\n      mstore\n      keccak256(0x00, 0x20)\n      swap1\n      0x05\n      mul\n      add\n        /* \"contracts-encrypt/distribution/TShareRewardPool.sol\":7709:7747  PoolInfo storage pool = poolInfo[_pid] */\n      swap1\n      pop\n        /* \"contracts-encrypt/distribution/TShareRewardPool.sol\":7781:7785  pool */\n      dup1\n        /* \"contracts-encrypt/distribution/TShareRewardPool.sol\":7781:7800  pool.lastRewardTime */\n      0x02\n      add\n      sload\n        /* \"contracts-encrypt/distribution/TShareRewardPool.sol\":7762:7777  block.timestamp */\n      timestamp\n        /* \"contracts-encrypt/distribution/TShareRewardPool.sol\":7762:7800  block.timestamp <= pool.lastRewardTime */\n      gt\n        /* \"contracts-encrypt/distribution/TShareRewardPool.sol\":7758:7835  if (block.timestamp <= pool.lastRewardTime) {\r... */\n      tag_160\n      jumpi\n        /* \"contracts-encrypt/distribution/TShareRewardPool.sol\":7817:7824  return; */\n      pop\n      jump(tag_157)\n        /* \"contracts-encrypt/distribution/TShareRewardPool.sol\":7758:7835  if (block.timestamp <= pool.lastRewardTime) {\r... */\n    tag_160:\n        /* \"contracts-encrypt/distribution/TShareRewardPool.sol\":7845:7864  uint256 tokenSupply */\n      0x00\n        /* \"contracts-encrypt/distribution/TShareRewardPool.sol\":7867:7871  pool */\n      dup2\n        /* \"contracts-encrypt/distribution/TShareRewardPool.sol\":7867:7877  pool.token */\n      0x00\n      add\n      0x00\n      swap1\n      sload\n      swap1\n      0x0100\n      exp\n      swap1\n      div\n      0xffffffffffffffffffffffffffffffffffffffff\n      and\n        /* \"contracts-encrypt/distribution/TShareRewardPool.sol\":7867:7887  pool.token.balanceOf */\n      0xffffffffffffffffffffffffffffffffffffffff\n      and\n      0x70a08231\n        /* \"contracts-encrypt/distribution/TShareRewardPool.sol\":7896:7900  this */\n      address\n        /* \"contracts-encrypt/distribution/TShareRewardPool.sol\":7867:7902  pool.token.balanceOf(address(this)) */\n      mload(0x40)\n      dup3\n      0xffffffff\n      and\n      0xe0\n      shl\n      dup2\n      mstore\n      0x04\n      add\n      dup1\n      dup3\n      0xffffffffffffffffffffffffffffffffffffffff\n      and\n      dup2\n      mstore\n      0x20\n      add\n      swap2\n      pop\n      pop\n      0x20\n      mload(0x40)\n      dup1\n      dup4\n      sub\n      dup2\n      dup7\n      dup1\n      extcodesize\n      iszero\n      dup1\n      iszero\n      tag_161\n      jumpi\n      0x00\n      dup1\n      revert\n    tag_161:\n      pop\n      gas\n      staticcall\n      iszero\n      dup1\n      iszero\n      tag_163\n      jumpi\n      returndatasize\n      0x00\n      dup1\n      returndatacopy\n      revert(0x00, returndatasize)\n    tag_163:\n      pop\n      pop\n      pop\n      pop\n      mload(0x40)\n      returndatasize\n      0x20\n      dup2\n      lt\n      iszero\n      tag_164\n      jumpi\n      0x00\n      dup1\n      revert\n    tag_164:\n      dup2\n      add\n      swap1\n      dup1\n      dup1\n      mload\n      swap1\n      0x20\n      add\n      swap1\n      swap3\n      swap2\n      swap1\n      pop\n      pop\n      pop\n        /* \"contracts-encrypt/distribution/TShareRewardPool.sol\":7845:7902  uint256 tokenSupply = pool.token.balanceOf(address(this)) */\n      swap1\n      pop\n        /* \"contracts-encrypt/distribution/TShareRewardPool.sol\":7932:7933  0 */\n      0x00\n        /* \"contracts-encrypt/distribution/TShareRewardPool.sol\":7917:7928  tokenSupply */\n      dup2\n        /* \"contracts-encrypt/distribution/TShareRewardPool.sol\":7917:7933  tokenSupply == 0 */\n      eq\n        /* \"contracts-encrypt/distribution/TShareRewardPool.sol\":7913:8020  if (tokenSupply == 0) {\r... */\n      iszero\n      tag_165\n      jumpi\n        /* \"contracts-encrypt/distribution/TShareRewardPool.sol\":7972:7987  block.timestamp */\n      timestamp\n        /* \"contracts-encrypt/distribution/TShareRewardPool.sol\":7950:7954  pool */\n      dup3\n        /* \"contracts-encrypt/distribution/TShareRewardPool.sol\":7950:7969  pool.lastRewardTime */\n      0x02\n      add\n        /* \"contracts-encrypt/distribution/TShareRewardPool.sol\":7950:7987  pool.lastRewardTime = block.timestamp */\n      dup2\n      swap1\n      sstore\n      pop\n        /* \"contracts-encrypt/distribution/TShareRewardPool.sol\":8002:8009  return; */\n      pop\n      pop\n      jump(tag_157)\n        /* \"contracts-encrypt/distribution/TShareRewardPool.sol\":7913:8020  if (tokenSupply == 0) {\r... */\n    tag_165:\n        /* \"contracts-encrypt/distribution/TShareRewardPool.sol\":8035:8039  pool */\n      dup2\n        /* \"contracts-encrypt/distribution/TShareRewardPool.sol\":8035:8049  pool.isStarted */\n      0x04\n      add\n      0x00\n      swap1\n      sload\n      swap1\n      0x0100\n      exp\n      swap1\n      div\n      0xff\n      and\n        /* \"contracts-encrypt/distribution/TShareRewardPool.sol\":8030:8168  if (!pool.isStarted) {\r... */\n      tag_166\n      jumpi\n        /* \"contracts-encrypt/distribution/TShareRewardPool.sol\":8083:8087  true */\n      0x01\n        /* \"contracts-encrypt/distribution/TShareRewardPool.sol\":8066:8070  pool */\n      dup3\n        /* \"contracts-encrypt/distribution/TShareRewardPool.sol\":8066:8080  pool.isStarted */\n      0x04\n      add\n      0x00\n        /* \"contracts-encrypt/distribution/TShareRewardPool.sol\":8066:8087  pool.isStarted = true */\n      0x0100\n      exp\n      dup2\n      sload\n      dup2\n      0xff\n      mul\n      not\n      and\n      swap1\n      dup4\n      iszero\n      iszero\n      mul\n      or\n      swap1\n      sstore\n      pop\n        /* \"contracts-encrypt/distribution/TShareRewardPool.sol\":8120:8156  totalAllocPoint.add(pool.allocPoint) */\n      tag_167\n        /* \"contracts-encrypt/distribution/TShareRewardPool.sol\":8140:8144  pool */\n      dup3\n        /* \"contracts-encrypt/distribution/TShareRewardPool.sol\":8140:8155  pool.allocPoint */\n      0x01\n      add\n      sload\n        /* \"contracts-encrypt/distribution/TShareRewardPool.sol\":8120:8135  totalAllocPoint */\n      sload(0x04)\n        /* \"contracts-encrypt/distribution/TShareRewardPool.sol\":8120:8139  totalAllocPoint.add */\n      tag_116\n      swap1\n        /* \"contracts-encrypt/distribution/TShareRewardPool.sol\":8120:8156  totalAllocPoint.add(pool.allocPoint) */\n      swap2\n      swap1\n      0xffffffff\n      and\n      jump\t// in\n    tag_167:\n        /* \"contracts-encrypt/distribution/TShareRewardPool.sol\":8102:8117  totalAllocPoint */\n      0x04\n        /* \"contracts-encrypt/distribution/TShareRewardPool.sol\":8102:8156  totalAllocPoint = totalAllocPoint.add(pool.allocPoint) */\n      dup2\n      swap1\n      sstore\n      pop\n        /* \"contracts-encrypt/distribution/TShareRewardPool.sol\":8030:8168  if (!pool.isStarted) {\r... */\n    tag_166:\n        /* \"contracts-encrypt/distribution/TShareRewardPool.sol\":8200:8201  0 */\n      0x00\n        /* \"contracts-encrypt/distribution/TShareRewardPool.sol\":8182:8197  totalAllocPoint */\n      sload(0x04)\n        /* \"contracts-encrypt/distribution/TShareRewardPool.sol\":8182:8201  totalAllocPoint > 0 */\n      gt\n        /* \"contracts-encrypt/distribution/TShareRewardPool.sol\":8178:8635  if (totalAllocPoint > 0) {\r... */\n      iszero\n      tag_168\n      jumpi\n        /* \"contracts-encrypt/distribution/TShareRewardPool.sol\":8218:8242  uint256 _generatedReward */\n      0x00\n        /* \"contracts-encrypt/distribution/TShareRewardPool.sol\":8245:8350  getGeneratedReward(\r... */\n      tag_169\n        /* \"contracts-encrypt/distribution/TShareRewardPool.sol\":8282:8286  pool */\n      dup4\n        /* \"contracts-encrypt/distribution/TShareRewardPool.sol\":8282:8301  pool.lastRewardTime */\n      0x02\n      add\n      sload\n        /* \"contracts-encrypt/distribution/TShareRewardPool.sol\":8320:8335  block.timestamp */\n      timestamp\n        /* \"contracts-encrypt/distribution/TShareRewardPool.sol\":8245:8263  getGeneratedReward */\n      tag_52\n        /* \"contracts-encrypt/distribution/TShareRewardPool.sol\":8245:8350  getGeneratedReward(\r... */\n      jump\t// in\n    tag_169:\n        /* \"contracts-encrypt/distribution/TShareRewardPool.sol\":8218:8350  uint256 _generatedReward = getGeneratedReward(\r... */\n      swap1\n      pop\n        /* \"contracts-encrypt/distribution/TShareRewardPool.sol\":8365:8387  uint256 _EcShareReward */\n      0x00\n        /* \"contracts-encrypt/distribution/TShareRewardPool.sol\":8390:8480  _generatedReward.mul(pool.allocPoint).div(\r... */\n      tag_170\n        /* \"contracts-encrypt/distribution/TShareRewardPool.sol\":8450:8465  totalAllocPoint */\n      sload(0x04)\n        /* \"contracts-encrypt/distribution/TShareRewardPool.sol\":8390:8427  _generatedReward.mul(pool.allocPoint) */\n      tag_171\n        /* \"contracts-encrypt/distribution/TShareRewardPool.sol\":8411:8415  pool */\n      dup7\n        /* \"contracts-encrypt/distribution/TShareRewardPool.sol\":8411:8426  pool.allocPoint */\n      0x01\n      add\n      sload\n        /* \"contracts-encrypt/distribution/TShareRewardPool.sol\":8390:8406  _generatedReward */\n      dup6\n        /* \"contracts-encrypt/distribution/TShareRewardPool.sol\":8390:8410  _generatedReward.mul */\n      tag_124\n      swap1\n        /* \"contracts-encrypt/distribution/TShareRewardPool.sol\":8390:8427  _generatedReward.mul(pool.allocPoint) */\n      swap2\n      swap1\n      0xffffffff\n      and\n      jump\t// in\n    tag_171:\n        /* \"contracts-encrypt/distribution/TShareRewardPool.sol\":8390:8431  _generatedReward.mul(pool.allocPoint).div */\n      tag_147\n      swap1\n        /* \"contracts-encrypt/distribution/TShareRewardPool.sol\":8390:8480  _generatedReward.mul(pool.allocPoint).div(\r... */\n      swap2\n      swap1\n      0xffffffff\n      and\n      jump\t// in\n    tag_170:\n        /* \"contracts-encrypt/distribution/TShareRewardPool.sol\":8365:8480  uint256 _EcShareReward = _generatedReward.mul(pool.allocPoint).div(\r... */\n      swap1\n      pop\n        /* \"contracts-encrypt/distribution/TShareRewardPool.sol\":8521:8623  pool.accEcSharePerShare.add(\r... */\n      tag_172\n        /* \"contracts-encrypt/distribution/TShareRewardPool.sol\":8567:8608  _EcShareReward.mul(1e18).div(tokenSupply) */\n      tag_173\n        /* \"contracts-encrypt/distribution/TShareRewardPool.sol\":8596:8607  tokenSupply */\n      dup5\n        /* \"contracts-encrypt/distribution/TShareRewardPool.sol\":8567:8591  _EcShareReward.mul(1e18) */\n      tag_174\n        /* \"contracts-encrypt/distribution/TShareRewardPool.sol\":8586:8590  1e18 */\n      0x0de0b6b3a7640000\n        /* \"contracts-encrypt/distribution/TShareRewardPool.sol\":8567:8581  _EcShareReward */\n      dup6\n        /* \"contracts-encrypt/distribution/TShareRewardPool.sol\":8567:8585  _EcShareReward.mul */\n      tag_124\n      swap1\n        /* \"contracts-encrypt/distribution/TShareRewardPool.sol\":8567:8591  _EcShareReward.mul(1e18) */\n      swap2\n      swap1\n      0xffffffff\n      and\n      jump\t// in\n    tag_174:\n        /* \"contracts-encrypt/distribution/TShareRewardPool.sol\":8567:8595  _EcShareReward.mul(1e18).div */\n      tag_147\n      swap1\n        /* \"contracts-encrypt/distribution/TShareRewardPool.sol\":8567:8608  _EcShareReward.mul(1e18).div(tokenSupply) */\n      swap2\n      swap1\n      0xffffffff\n      and\n      jump\t// in\n    tag_173:\n        /* \"contracts-encrypt/distribution/TShareRewardPool.sol\":8521:8525  pool */\n      dup6\n        /* \"contracts-encrypt/distribution/TShareRewardPool.sol\":8521:8544  pool.accEcSharePerShare */\n      0x03\n      add\n      sload\n        /* \"contracts-encrypt/distribution/TShareRewardPool.sol\":8521:8548  pool.accEcSharePerShare.add */\n      tag_116\n      swap1\n        /* \"contracts-encrypt/distribution/TShareRewardPool.sol\":8521:8623  pool.accEcSharePerShare.add(\r... */\n      swap2\n      swap1\n      0xffffffff\n      and\n      jump\t// in\n    tag_172:\n        /* \"contracts-encrypt/distribution/TShareRewardPool.sol\":8495:8499  pool */\n      dup5\n        /* \"contracts-encrypt/distribution/TShareRewardPool.sol\":8495:8518  pool.accEcSharePerShare */\n      0x03\n      add\n        /* \"contracts-encrypt/distribution/TShareRewardPool.sol\":8495:8623  pool.accEcSharePerShare = pool.accEcSharePerShare.add(\r... */\n      dup2\n      swap1\n      sstore\n      pop\n        /* \"contracts-encrypt/distribution/TShareRewardPool.sol\":8178:8635  if (totalAllocPoint > 0) {\r... */\n      pop\n      pop\n    tag_168:\n        /* \"contracts-encrypt/distribution/TShareRewardPool.sol\":8667:8682  block.timestamp */\n      timestamp\n        /* \"contracts-encrypt/distribution/TShareRewardPool.sol\":8645:8649  pool */\n      dup3\n        /* \"contracts-encrypt/distribution/TShareRewardPool.sol\":8645:8664  pool.lastRewardTime */\n      0x02\n      add\n        /* \"contracts-encrypt/distribution/TShareRewardPool.sol\":8645:8682  pool.lastRewardTime = block.timestamp */\n      dup2\n      swap1\n      sstore\n      pop\n        /* \"contracts-encrypt/distribution/TShareRewardPool.sol\":7657:8690  function updatePool(uint256 _pid) public {\r... */\n      pop\n      pop\n    tag_157:\n      pop\n      jump\t// out\n        /* \"contracts-encrypt/distribution/TShareRewardPool.sol\":10980:11357  function emergencyWithdraw(uint256 _pid) public {\r... */\n    tag_66:\n        /* \"contracts-encrypt/distribution/TShareRewardPool.sol\":11039:11060  PoolInfo storage pool */\n      0x00\n        /* \"contracts-encrypt/distribution/TShareRewardPool.sol\":11063:11071  poolInfo */\n      0x02\n        /* \"contracts-encrypt/distribution/TShareRewardPool.sol\":11072:11076  _pid */\n      dup3\n        /* \"contracts-encrypt/distribution/TShareRewardPool.sol\":11063:11077  poolInfo[_pid] */\n      dup2\n      sload\n      dup2\n      lt\n      tag_176\n      jumpi\n      invalid\n    tag_176:\n      swap1\n      0x00\n      mstore\n      keccak256(0x00, 0x20)\n      swap1\n      0x05\n      mul\n      add\n        /* \"contracts-encrypt/distribution/TShareRewardPool.sol\":11039:11077  PoolInfo storage pool = poolInfo[_pid] */\n      swap1\n      pop\n        /* \"contracts-encrypt/distribution/TShareRewardPool.sol\":11088:11109  UserInfo storage user */\n      0x00\n        /* \"contracts-encrypt/distribution/TShareRewardPool.sol\":11112:11120  userInfo */\n      0x03\n        /* \"contracts-encrypt/distribution/TShareRewardPool.sol\":11112:11126  userInfo[_pid] */\n      0x00\n        /* \"contracts-encrypt/distribution/TShareRewardPool.sol\":11121:11125  _pid */\n      dup5\n        /* \"contracts-encrypt/distribution/TShareRewardPool.sol\":11112:11126  userInfo[_pid] */\n      dup2\n      mstore\n      0x20\n      add\n      swap1\n      dup2\n      mstore\n      0x20\n      add\n      0x00\n      keccak256\n        /* \"contracts-encrypt/distribution/TShareRewardPool.sol\":11112:11138  userInfo[_pid][msg.sender] */\n      0x00\n        /* \"contracts-encrypt/distribution/TShareRewardPool.sol\":11127:11137  msg.sender */\n      caller\n        /* \"contracts-encrypt/distribution/TShareRewardPool.sol\":11112:11138  userInfo[_pid][msg.sender] */\n      0xffffffffffffffffffffffffffffffffffffffff\n      and\n      0xffffffffffffffffffffffffffffffffffffffff\n      and\n      dup2\n      mstore\n      0x20\n      add\n      swap1\n      dup2\n      mstore\n      0x20\n      add\n      0x00\n      keccak256\n        /* \"contracts-encrypt/distribution/TShareRewardPool.sol\":11088:11138  UserInfo storage user = userInfo[_pid][msg.sender] */\n      swap1\n      pop\n        /* \"contracts-encrypt/distribution/TShareRewardPool.sol\":11149:11164  uint256 _amount */\n      0x00\n        /* \"contracts-encrypt/distribution/TShareRewardPool.sol\":11167:11171  user */\n      dup2\n        /* \"contracts-encrypt/distribution/TShareRewardPool.sol\":11167:11178  user.amount */\n      0x00\n      add\n      sload\n        /* \"contracts-encrypt/distribution/TShareRewardPool.sol\":11149:11178  uint256 _amount = user.amount */\n      swap1\n      pop\n        /* \"contracts-encrypt/distribution/TShareRewardPool.sol\":11203:11204  0 */\n      0x00\n        /* \"contracts-encrypt/distribution/TShareRewardPool.sol\":11189:11193  user */\n      dup3\n        /* \"contracts-encrypt/distribution/TShareRewardPool.sol\":11189:11200  user.amount */\n      0x00\n      add\n        /* \"contracts-encrypt/distribution/TShareRewardPool.sol\":11189:11204  user.amount = 0 */\n      dup2\n      swap1\n      sstore\n      pop\n        /* \"contracts-encrypt/distribution/TShareRewardPool.sol\":11233:11234  0 */\n      0x00\n        /* \"contracts-encrypt/distribution/TShareRewardPool.sol\":11215:11219  user */\n      dup3\n        /* \"contracts-encrypt/distribution/TShareRewardPool.sol\":11215:11230  user.rewardDebt */\n      0x01\n      add\n        /* \"contracts-encrypt/distribution/TShareRewardPool.sol\":11215:11234  user.rewardDebt = 0 */\n      dup2\n      swap1\n      sstore\n      pop\n        /* \"contracts-encrypt/distribution/TShareRewardPool.sol\":11245:11289  pool.token.safeTransfer(msg.sender, _amount) */\n      tag_178\n        /* \"contracts-encrypt/distribution/TShareRewardPool.sol\":11269:11279  msg.sender */\n      caller\n        /* \"contracts-encrypt/distribution/TShareRewardPool.sol\":11281:11288  _amount */\n      dup3\n        /* \"contracts-encrypt/distribution/TShareRewardPool.sol\":11245:11249  pool */\n      dup6\n        /* \"contracts-encrypt/distribution/TShareRewardPool.sol\":11245:11255  pool.token */\n      0x00\n      add\n      0x00\n      swap1\n      sload\n      swap1\n      0x0100\n      exp\n      swap1\n      div\n      0xffffffffffffffffffffffffffffffffffffffff\n      and\n        /* \"contracts-encrypt/distribution/TShareRewardPool.sol\":11245:11268  pool.token.safeTransfer */\n      0xffffffffffffffffffffffffffffffffffffffff\n      and\n      tag_154\n      swap1\n        /* \"contracts-encrypt/distribution/TShareRewardPool.sol\":11245:11289  pool.token.safeTransfer(msg.sender, _amount) */\n      swap3\n      swap2\n      swap1\n      0xffffffff\n      and\n      jump\t// in\n    tag_178:\n        /* \"contracts-encrypt/distribution/TShareRewardPool.sol\":11335:11339  _pid */\n      dup4\n        /* \"contracts-encrypt/distribution/TShareRewardPool.sol\":11323:11333  msg.sender */\n      caller\n        /* \"contracts-encrypt/distribution/TShareRewardPool.sol\":11305:11349  EmergencyWithdraw(msg.sender, _pid, _amount) */\n      0xffffffffffffffffffffffffffffffffffffffff\n      and\n      0xbb757047c2b5f3974fe26b7c10f732e7bce710b0952a71082702781e62ae0595\n        /* \"contracts-encrypt/distribution/TShareRewardPool.sol\":11341:11348  _amount */\n      dup4\n        /* \"contracts-encrypt/distribution/TShareRewardPool.sol\":11305:11349  EmergencyWithdraw(msg.sender, _pid, _amount) */\n      mload(0x40)\n      dup1\n      dup3\n      dup2\n      mstore\n      0x20\n      add\n      swap2\n      pop\n      pop\n      mload(0x40)\n      dup1\n      swap2\n      sub\n      swap1\n      log3\n        /* \"contracts-encrypt/distribution/TShareRewardPool.sol\":10980:11357  function emergencyWithdraw(uint256 _pid) public {\r... */\n      pop\n      pop\n      pop\n      pop\n      jump\t// out\n        /* \"contracts-encrypt/distribution/TShareRewardPool.sol\":11967:12614  function governanceRecoverUnsupported(\r... */\n    tag_69:\n        /* \"contracts-encrypt/distribution/TShareRewardPool.sol\":3229:3239  msg.sender */\n      caller\n        /* \"contracts-encrypt/distribution/TShareRewardPool.sol\":3217:3239  operator == msg.sender */\n      0xffffffffffffffffffffffffffffffffffffffff\n      and\n        /* \"contracts-encrypt/distribution/TShareRewardPool.sol\":3217:3225  operator */\n      0x00\n      dup1\n      sload\n      swap1\n      0x0100\n      exp\n      swap1\n      div\n      0xffffffffffffffffffffffffffffffffffffffff\n      and\n        /* \"contracts-encrypt/distribution/TShareRewardPool.sol\":3217:3239  operator == msg.sender */\n      0xffffffffffffffffffffffffffffffffffffffff\n      and\n      eq\n        /* \"contracts-encrypt/distribution/TShareRewardPool.sol\":3195:3312  require(\r... */\n      tag_180\n      jumpi\n      mload(0x40)\n      0x08c379a000000000000000000000000000000000000000000000000000000000\n      dup2\n      mstore\n      0x04\n      add\n      dup1\n      dup1\n      0x20\n      add\n      dup3\n      dup2\n      sub\n      dup3\n      mstore\n      0x2d\n      dup2\n      mstore\n      0x20\n      add\n      dup1\n      data_0b8addce3361cf34ccf0fb7aeda2bc3f51b78ff1689b02ed7f2dc0bc1f7df76b\n      0x2d\n      swap2\n      codecopy\n      0x40\n      add\n      swap2\n      pop\n      pop\n      mload(0x40)\n      dup1\n      swap2\n      sub\n      swap1\n      revert\n    tag_180:\n        /* \"contracts-encrypt/distribution/TShareRewardPool.sol\":12151:12158  90 days */\n      0x76a700\n        /* \"contracts-encrypt/distribution/TShareRewardPool.sol\":12137:12148  poolEndTime */\n      sload(0x08)\n        /* \"contracts-encrypt/distribution/TShareRewardPool.sol\":12137:12158  poolEndTime + 90 days */\n      add\n        /* \"contracts-encrypt/distribution/TShareRewardPool.sol\":12119:12134  block.timestamp */\n      timestamp\n        /* \"contracts-encrypt/distribution/TShareRewardPool.sol\":12119:12158  block.timestamp < poolEndTime + 90 days */\n      lt\n        /* \"contracts-encrypt/distribution/TShareRewardPool.sol\":12115:12565  if (block.timestamp < poolEndTime + 90 days) {\r... */\n      iszero\n      tag_182\n      jumpi\n        /* \"contracts-encrypt/distribution/TShareRewardPool.sol\":12296:12303  EcShare */\n      0x01\n      0x00\n      swap1\n      sload\n      swap1\n      0x0100\n      exp\n      swap1\n      div\n      0xffffffffffffffffffffffffffffffffffffffff\n      and\n        /* \"contracts-encrypt/distribution/TShareRewardPool.sol\":12286:12303  _token != EcShare */\n      0xffffffffffffffffffffffffffffffffffffffff\n      and\n        /* \"contracts-encrypt/distribution/TShareRewardPool.sol\":12286:12292  _token */\n      dup4\n        /* \"contracts-encrypt/distribution/TShareRewardPool.sol\":12286:12303  _token != EcShare */\n      0xffffffffffffffffffffffffffffffffffffffff\n      and\n      eq\n      iszero\n        /* \"contracts-encrypt/distribution/TShareRewardPool.sol\":12278:12315  require(_token != EcShare, \"EcShare\") */\n      tag_183\n      jumpi\n      mload(0x40)\n      0x08c379a000000000000000000000000000000000000000000000000000000000\n      dup2\n      mstore\n      0x04\n      add\n      dup1\n      dup1\n      0x20\n      add\n      dup3\n      dup2\n      sub\n      dup3\n      mstore\n      0x07\n      dup2\n      mstore\n      0x20\n      add\n      dup1\n      0x4563536861726500000000000000000000000000000000000000000000000000\n      dup2\n      mstore\n      pop\n      0x20\n      add\n      swap2\n      pop\n      pop\n      mload(0x40)\n      dup1\n      swap2\n      sub\n      swap1\n      revert\n    tag_183:\n        /* \"contracts-encrypt/distribution/TShareRewardPool.sol\":12330:12344  uint256 length */\n      0x00\n        /* \"contracts-encrypt/distribution/TShareRewardPool.sol\":12347:12355  poolInfo */\n      0x02\n        /* \"contracts-encrypt/distribution/TShareRewardPool.sol\":12347:12362  poolInfo.length */\n      dup1\n      sload\n      swap1\n      pop\n        /* \"contracts-encrypt/distribution/TShareRewardPool.sol\":12330:12362  uint256 length = poolInfo.length */\n      swap1\n      pop\n        /* \"contracts-encrypt/distribution/TShareRewardPool.sol\":12382:12393  uint256 pid */\n      0x00\n        /* \"contracts-encrypt/distribution/TShareRewardPool.sol\":12377:12554  for (uint256 pid = 0; pid < length; ++pid) {\r... */\n    tag_184:\n        /* \"contracts-encrypt/distribution/TShareRewardPool.sol\":12405:12411  length */\n      dup2\n        /* \"contracts-encrypt/distribution/TShareRewardPool.sol\":12399:12402  pid */\n      dup2\n        /* \"contracts-encrypt/distribution/TShareRewardPool.sol\":12399:12411  pid < length */\n      lt\n        /* \"contracts-encrypt/distribution/TShareRewardPool.sol\":12377:12554  for (uint256 pid = 0; pid < length; ++pid) {\r... */\n      iszero\n      tag_185\n      jumpi\n        /* \"contracts-encrypt/distribution/TShareRewardPool.sol\":12439:12460  PoolInfo storage pool */\n      0x00\n        /* \"contracts-encrypt/distribution/TShareRewardPool.sol\":12463:12471  poolInfo */\n      0x02\n        /* \"contracts-encrypt/distribution/TShareRewardPool.sol\":12472:12475  pid */\n      dup3\n        /* \"contracts-encrypt/distribution/TShareRewardPool.sol\":12463:12476  poolInfo[pid] */\n      dup2\n      sload\n      dup2\n      lt\n      tag_187\n      jumpi\n      invalid\n    tag_187:\n      swap1\n      0x00\n      mstore\n      keccak256(0x00, 0x20)\n      swap1\n      0x05\n      mul\n      add\n        /* \"contracts-encrypt/distribution/TShareRewardPool.sol\":12439:12476  PoolInfo storage pool = poolInfo[pid] */\n      swap1\n      pop\n        /* \"contracts-encrypt/distribution/TShareRewardPool.sol\":12513:12517  pool */\n      dup1\n        /* \"contracts-encrypt/distribution/TShareRewardPool.sol\":12513:12523  pool.token */\n      0x00\n      add\n      0x00\n      swap1\n      sload\n      swap1\n      0x0100\n      exp\n      swap1\n      div\n      0xffffffffffffffffffffffffffffffffffffffff\n      and\n        /* \"contracts-encrypt/distribution/TShareRewardPool.sol\":12503:12523  _token != pool.token */\n      0xffffffffffffffffffffffffffffffffffffffff\n      and\n        /* \"contracts-encrypt/distribution/TShareRewardPool.sol\":12503:12509  _token */\n      dup7\n        /* \"contracts-encrypt/distribution/TShareRewardPool.sol\":12503:12523  _token != pool.token */\n      0xffffffffffffffffffffffffffffffffffffffff\n      and\n      eq\n      iszero\n        /* \"contracts-encrypt/distribution/TShareRewardPool.sol\":12495:12538  require(_token != pool.token, \"pool.token\") */\n      tag_189\n      jumpi\n      mload(0x40)\n      0x08c379a000000000000000000000000000000000000000000000000000000000\n      dup2\n      mstore\n      0x04\n      add\n      dup1\n      dup1\n      0x20\n      add\n      dup3\n      dup2\n      sub\n      dup3\n      mstore\n      0x0a\n      dup2\n      mstore\n      0x20\n      add\n      dup1\n      0x706f6f6c2e746f6b656e00000000000000000000000000000000000000000000\n      dup2\n      mstore\n      pop\n      0x20\n      add\n      swap2\n      pop\n      pop\n      mload(0x40)\n      dup1\n      swap2\n      sub\n      swap1\n      revert\n    tag_189:\n        /* \"contracts-encrypt/distribution/TShareRewardPool.sol\":12377:12554  for (uint256 pid = 0; pid < length; ++pid) {\r... */\n      pop\n        /* \"contracts-encrypt/distribution/TShareRewardPool.sol\":12413:12418  ++pid */\n      dup1\n      0x01\n      add\n      swap1\n      pop\n        /* \"contracts-encrypt/distribution/TShareRewardPool.sol\":12377:12554  for (uint256 pid = 0; pid < length; ++pid) {\r... */\n      jump(tag_184)\n    tag_185:\n      pop\n        /* \"contracts-encrypt/distribution/TShareRewardPool.sol\":12115:12565  if (block.timestamp < poolEndTime + 90 days) {\r... */\n      pop\n    tag_182:\n        /* \"contracts-encrypt/distribution/TShareRewardPool.sol\":12575:12606  _token.safeTransfer(to, amount) */\n      tag_190\n        /* \"contracts-encrypt/distribution/TShareRewardPool.sol\":12595:12597  to */\n      dup2\n        /* \"contracts-encrypt/distribution/TShareRewardPool.sol\":12599:12605  amount */\n      dup4\n        /* \"contracts-encrypt/distribution/TShareRewardPool.sol\":12575:12581  _token */\n      dup6\n        /* \"contracts-encrypt/distribution/TShareRewardPool.sol\":12575:12594  _token.safeTransfer */\n      0xffffffffffffffffffffffffffffffffffffffff\n      and\n      tag_154\n      swap1\n        /* \"contracts-encrypt/distribution/TShareRewardPool.sol\":12575:12606  _token.safeTransfer(to, amount) */\n      swap3\n      swap2\n      swap1\n      0xffffffff\n      and\n      jump\t// in\n    tag_190:\n        /* \"contracts-encrypt/distribution/TShareRewardPool.sol\":11967:12614  function governanceRecoverUnsupported(\r... */\n      pop\n      pop\n      pop\n      jump\t// out\n        /* \"contracts-encrypt/distribution/TShareRewardPool.sol\":558:581  address public operator */\n    tag_71:\n      0x00\n      dup1\n      sload\n      swap1\n      0x0100\n      exp\n      swap1\n      div\n      0xffffffffffffffffffffffffffffffffffffffff\n      and\n      dup2\n      jump\t// out\n        /* \"contracts-encrypt/distribution/TShareRewardPool.sol\":1639:1660  address public _feeTo */\n    tag_73:\n      0x06\n      0x00\n      swap1\n      sload\n      swap1\n      0x0100\n      exp\n      swap1\n      div\n      0xffffffffffffffffffffffffffffffffffffffff\n      and\n      dup2\n      jump\t// out\n        /* \"contracts-encrypt/distribution/TShareRewardPool.sol\":1768:1796  uint256 public poolStartTime */\n    tag_75:\n      sload(0x07)\n      dup2\n      jump\t// out\n        /* \"contracts-encrypt/distribution/TShareRewardPool.sol\":7401:7581  function massUpdatePools() public {\r... */\n    tag_77:\n        /* \"contracts-encrypt/distribution/TShareRewardPool.sol\":7446:7460  uint256 length */\n      0x00\n        /* \"contracts-encrypt/distribution/TShareRewardPool.sol\":7463:7471  poolInfo */\n      0x02\n        /* \"contracts-encrypt/distribution/TShareRewardPool.sol\":7463:7478  poolInfo.length */\n      dup1\n      sload\n      swap1\n      pop\n        /* \"contracts-encrypt/distribution/TShareRewardPool.sol\":7446:7478  uint256 length = poolInfo.length */\n      swap1\n      pop\n        /* \"contracts-encrypt/distribution/TShareRewardPool.sol\":7494:7505  uint256 pid */\n      0x00\n        /* \"contracts-encrypt/distribution/TShareRewardPool.sol\":7489:7574  for (uint256 pid = 0; pid < length; ++pid) {\r... */\n    tag_192:\n        /* \"contracts-encrypt/distribution/TShareRewardPool.sol\":7517:7523  length */\n      dup2\n        /* \"contracts-encrypt/distribution/TShareRewardPool.sol\":7511:7514  pid */\n      dup2\n        /* \"contracts-encrypt/distribution/TShareRewardPool.sol\":7511:7523  pid < length */\n      lt\n        /* \"contracts-encrypt/distribution/TShareRewardPool.sol\":7489:7574  for (uint256 pid = 0; pid < length; ++pid) {\r... */\n      iszero\n      tag_193\n      jumpi\n        /* \"contracts-encrypt/distribution/TShareRewardPool.sol\":7547:7562  updatePool(pid) */\n      tag_195\n        /* \"contracts-encrypt/distribution/TShareRewardPool.sol\":7558:7561  pid */\n      dup2\n        /* \"contracts-encrypt/distribution/TShareRewardPool.sol\":7547:7557  updatePool */\n      tag_63\n        /* \"contracts-encrypt/distribution/TShareRewardPool.sol\":7547:7562  updatePool(pid) */\n      jump\t// in\n    tag_195:\n        /* \"contracts-encrypt/distribution/TShareRewardPool.sol\":7525:7530  ++pid */\n      dup1\n      0x01\n      add\n      swap1\n      pop\n        /* \"contracts-encrypt/distribution/TShareRewardPool.sol\":7489:7574  for (uint256 pid = 0; pid < length; ++pid) {\r... */\n      jump(tag_192)\n    tag_193:\n      pop\n        /* \"contracts-encrypt/distribution/TShareRewardPool.sol\":7401:7581  function massUpdatePools() public {\r... */\n      pop\n      jump\t// out\n        /* \"contracts-encrypt/distribution/TShareRewardPool.sol\":1848:1874  uint256 public poolEndTime */\n    tag_79:\n      sload(0x08)\n      dup2\n      jump\t// out\n        /* \"contracts-encrypt/distribution/TShareRewardPool.sol\":1883:1933  uint256 public EcSharePerSecond = 0.00187687 ether */\n    tag_81:\n      sload(0x09)\n      dup2\n      jump\t// out\n        /* \"contracts-encrypt/distribution/TShareRewardPool.sol\":1392:1456  mapping(uint256 => mapping(address => UserInfo)) public userInfo */\n    tag_84:\n      mstore(0x20, 0x03)\n      dup2\n      0x00\n      mstore\n      mstore(0x20, keccak256(0x00, 0x40))\n      dup1\n      0x00\n      mstore\n      keccak256(0x00, 0x40)\n      0x00\n      swap2\n      pop\n      swap2\n      pop\n      pop\n      dup1\n      0x00\n      add\n      sload\n      swap1\n      dup1\n      0x01\n      add\n      sload\n      swap1\n      pop\n      dup3\n      jump\t// out\n        /* \"contracts-encrypt/distribution/TShareRewardPool.sol\":1989:2026  uint256 public runningTime = 370 days */\n    tag_86:\n      sload(0x0a)\n      dup2\n      jump\t// out\n        /* \"contracts-encrypt/distribution/TShareRewardPool.sol\":3727:5040  function add(\r... */\n    tag_89:\n        /* \"contracts-encrypt/distribution/TShareRewardPool.sol\":3229:3239  msg.sender */\n      caller\n        /* \"contracts-encrypt/distribution/TShareRewardPool.sol\":3217:3239  operator == msg.sender */\n      0xffffffffffffffffffffffffffffffffffffffff\n      and\n        /* \"contracts-encrypt/distribution/TShareRewardPool.sol\":3217:3225  operator */\n      0x00\n      dup1\n      sload\n      swap1\n      0x0100\n      exp\n      swap1\n      div\n      0xffffffffffffffffffffffffffffffffffffffff\n      and\n        /* \"contracts-encrypt/distribution/TShareRewardPool.sol\":3217:3239  operator == msg.sender */\n      0xffffffffffffffffffffffffffffffffffffffff\n      and\n      eq\n        /* \"contracts-encrypt/distribution/TShareRewardPool.sol\":3195:3312  require(\r... */\n      tag_197\n      jumpi\n      mload(0x40)\n      0x08c379a000000000000000000000000000000000000000000000000000000000\n      dup2\n      mstore\n      0x04\n      add\n      dup1\n      dup1\n      0x20\n      add\n      dup3\n      dup2\n      sub\n      dup3\n      mstore\n      0x2d\n      dup2\n      mstore\n      0x20\n      add\n      dup1\n      data_0b8addce3361cf34ccf0fb7aeda2bc3f51b78ff1689b02ed7f2dc0bc1f7df76b\n      0x2d\n      swap2\n      codecopy\n      0x40\n      add\n      swap2\n      pop\n      pop\n      mload(0x40)\n      dup1\n      swap2\n      sub\n      swap1\n      revert\n    tag_197:\n        /* \"contracts-encrypt/distribution/TShareRewardPool.sol\":3893:3919  checkPoolDuplicate(_token) */\n      tag_199\n        /* \"contracts-encrypt/distribution/TShareRewardPool.sol\":3912:3918  _token */\n      dup4\n        /* \"contracts-encrypt/distribution/TShareRewardPool.sol\":3893:3911  checkPoolDuplicate */\n      tag_200\n        /* \"contracts-encrypt/distribution/TShareRewardPool.sol\":3893:3919  checkPoolDuplicate(_token) */\n      jump\t// in\n    tag_199:\n        /* \"contracts-encrypt/distribution/TShareRewardPool.sol\":3934:3945  _withUpdate */\n      dup2\n        /* \"contracts-encrypt/distribution/TShareRewardPool.sol\":3930:3991  if (_withUpdate) {\r... */\n      iszero\n      tag_201\n      jumpi\n        /* \"contracts-encrypt/distribution/TShareRewardPool.sol\":3962:3979  massUpdatePools() */\n      tag_202\n        /* \"contracts-encrypt/distribution/TShareRewardPool.sol\":3962:3977  massUpdatePools */\n      tag_77\n        /* \"contracts-encrypt/distribution/TShareRewardPool.sol\":3962:3979  massUpdatePools() */\n      jump\t// in\n    tag_202:\n        /* \"contracts-encrypt/distribution/TShareRewardPool.sol\":3930:3991  if (_withUpdate) {\r... */\n    tag_201:\n        /* \"contracts-encrypt/distribution/TShareRewardPool.sol\":4023:4036  poolStartTime */\n      sload(0x07)\n        /* \"contracts-encrypt/distribution/TShareRewardPool.sol\":4005:4020  block.timestamp */\n      timestamp\n        /* \"contracts-encrypt/distribution/TShareRewardPool.sol\":4005:4036  block.timestamp < poolStartTime */\n      lt\n        /* \"contracts-encrypt/distribution/TShareRewardPool.sol\":4001:4535  if (block.timestamp < poolStartTime) {\r... */\n      iszero\n      tag_203\n      jumpi\n        /* \"contracts-encrypt/distribution/TShareRewardPool.sol\":4109:4110  0 */\n      0x00\n        /* \"contracts-encrypt/distribution/TShareRewardPool.sol\":4090:4105  _lastRewardTime */\n      dup2\n        /* \"contracts-encrypt/distribution/TShareRewardPool.sol\":4090:4110  _lastRewardTime == 0 */\n      eq\n        /* \"contracts-encrypt/distribution/TShareRewardPool.sol\":4086:4329  if (_lastRewardTime == 0) {\r... */\n      iszero\n      tag_204\n      jumpi\n        /* \"contracts-encrypt/distribution/TShareRewardPool.sol\":4149:4162  poolStartTime */\n      sload(0x07)\n        /* \"contracts-encrypt/distribution/TShareRewardPool.sol\":4131:4162  _lastRewardTime = poolStartTime */\n      swap1\n      pop\n        /* \"contracts-encrypt/distribution/TShareRewardPool.sol\":4086:4329  if (_lastRewardTime == 0) {\r... */\n      jump(tag_205)\n    tag_204:\n        /* \"contracts-encrypt/distribution/TShareRewardPool.sol\":4225:4238  poolStartTime */\n      sload(0x07)\n        /* \"contracts-encrypt/distribution/TShareRewardPool.sol\":4207:4222  _lastRewardTime */\n      dup2\n        /* \"contracts-encrypt/distribution/TShareRewardPool.sol\":4207:4238  _lastRewardTime < poolStartTime */\n      lt\n        /* \"contracts-encrypt/distribution/TShareRewardPool.sol\":4203:4314  if (_lastRewardTime < poolStartTime) {\r... */\n      iszero\n      tag_206\n      jumpi\n        /* \"contracts-encrypt/distribution/TShareRewardPool.sol\":4281:4294  poolStartTime */\n      sload(0x07)\n        /* \"contracts-encrypt/distribution/TShareRewardPool.sol\":4263:4294  _lastRewardTime = poolStartTime */\n      swap1\n      pop\n        /* \"contracts-encrypt/distribution/TShareRewardPool.sol\":4203:4314  if (_lastRewardTime < poolStartTime) {\r... */\n    tag_206:\n        /* \"contracts-encrypt/distribution/TShareRewardPool.sol\":4086:4329  if (_lastRewardTime == 0) {\r... */\n    tag_205:\n        /* \"contracts-encrypt/distribution/TShareRewardPool.sol\":4001:4535  if (block.timestamp < poolStartTime) {\r... */\n      jump(tag_207)\n    tag_203:\n        /* \"contracts-encrypt/distribution/TShareRewardPool.sol\":4416:4417  0 */\n      0x00\n        /* \"contracts-encrypt/distribution/TShareRewardPool.sol\":4397:4412  _lastRewardTime */\n      dup2\n        /* \"contracts-encrypt/distribution/TShareRewardPool.sol\":4397:4417  _lastRewardTime == 0 */\n      eq\n        /* \"contracts-encrypt/distribution/TShareRewardPool.sol\":4397:4454  _lastRewardTime == 0 || _lastRewardTime < block.timestamp */\n      dup1\n      tag_208\n      jumpi\n      pop\n        /* \"contracts-encrypt/distribution/TShareRewardPool.sol\":4439:4454  block.timestamp */\n      timestamp\n        /* \"contracts-encrypt/distribution/TShareRewardPool.sol\":4421:4436  _lastRewardTime */\n      dup2\n        /* \"contracts-encrypt/distribution/TShareRewardPool.sol\":4421:4454  _lastRewardTime < block.timestamp */\n      lt\n        /* \"contracts-encrypt/distribution/TShareRewardPool.sol\":4397:4454  _lastRewardTime == 0 || _lastRewardTime < block.timestamp */\n    tag_208:\n        /* \"contracts-encrypt/distribution/TShareRewardPool.sol\":4393:4524  if (_lastRewardTime == 0 || _lastRewardTime < block.timestamp) {\r... */\n      iszero\n      tag_209\n      jumpi\n        /* \"contracts-encrypt/distribution/TShareRewardPool.sol\":4493:4508  block.timestamp */\n      timestamp\n        /* \"contracts-encrypt/distribution/TShareRewardPool.sol\":4475:4508  _lastRewardTime = block.timestamp */\n      swap1\n      pop\n        /* \"contracts-encrypt/distribution/TShareRewardPool.sol\":4393:4524  if (_lastRewardTime == 0 || _lastRewardTime < block.timestamp) {\r... */\n    tag_209:\n        /* \"contracts-encrypt/distribution/TShareRewardPool.sol\":4001:4535  if (block.timestamp < poolStartTime) {\r... */\n    tag_207:\n        /* \"contracts-encrypt/distribution/TShareRewardPool.sol\":4545:4560  bool _isStarted */\n      0x00\n        /* \"contracts-encrypt/distribution/TShareRewardPool.sol\":4583:4596  poolStartTime */\n      sload(0x07)\n        /* \"contracts-encrypt/distribution/TShareRewardPool.sol\":4564:4579  _lastRewardTime */\n      dup3\n        /* \"contracts-encrypt/distribution/TShareRewardPool.sol\":4564:4596  _lastRewardTime <= poolStartTime */\n      gt\n      iszero\n        /* \"contracts-encrypt/distribution/TShareRewardPool.sol\":4563:4650  (_lastRewardTime <= poolStartTime) ||\r... */\n      dup1\n      tag_210\n      jumpi\n      pop\n        /* \"contracts-encrypt/distribution/TShareRewardPool.sol\":4634:4649  block.timestamp */\n      timestamp\n        /* \"contracts-encrypt/distribution/TShareRewardPool.sol\":4615:4630  _lastRewardTime */\n      dup3\n        /* \"contracts-encrypt/distribution/TShareRewardPool.sol\":4615:4649  _lastRewardTime <= block.timestamp */\n      gt\n      iszero\n        /* \"contracts-encrypt/distribution/TShareRewardPool.sol\":4563:4650  (_lastRewardTime <= poolStartTime) ||\r... */\n    tag_210:\n        /* \"contracts-encrypt/distribution/TShareRewardPool.sol\":4545:4650  bool _isStarted = (_lastRewardTime <= poolStartTime) ||\r... */\n      swap1\n      pop\n        /* \"contracts-encrypt/distribution/TShareRewardPool.sol\":4661:4669  poolInfo */\n      0x02\n        /* \"contracts-encrypt/distribution/TShareRewardPool.sol\":4689:4918  PoolInfo({\r... */\n      mload(0x40)\n      dup1\n      0xa0\n      add\n      0x40\n      mstore\n      dup1\n        /* \"contracts-encrypt/distribution/TShareRewardPool.sol\":4724:4730  _token */\n      dup7\n        /* \"contracts-encrypt/distribution/TShareRewardPool.sol\":4689:4918  PoolInfo({\r... */\n      0xffffffffffffffffffffffffffffffffffffffff\n      and\n      dup2\n      mstore\n      0x20\n      add\n        /* \"contracts-encrypt/distribution/TShareRewardPool.sol\":4761:4772  _allocPoint */\n      dup8\n        /* \"contracts-encrypt/distribution/TShareRewardPool.sol\":4689:4918  PoolInfo({\r... */\n      dup2\n      mstore\n      0x20\n      add\n        /* \"contracts-encrypt/distribution/TShareRewardPool.sol\":4807:4822  _lastRewardTime */\n      dup5\n        /* \"contracts-encrypt/distribution/TShareRewardPool.sol\":4689:4918  PoolInfo({\r... */\n      dup2\n      mstore\n      0x20\n      add\n        /* \"contracts-encrypt/distribution/TShareRewardPool.sol\":4861:4862  0 */\n      0x00\n        /* \"contracts-encrypt/distribution/TShareRewardPool.sol\":4689:4918  PoolInfo({\r... */\n      dup2\n      mstore\n      0x20\n      add\n        /* \"contracts-encrypt/distribution/TShareRewardPool.sol\":4892:4902  _isStarted */\n      dup4\n        /* \"contracts-encrypt/distribution/TShareRewardPool.sol\":4689:4918  PoolInfo({\r... */\n      iszero\n      iszero\n      dup2\n      mstore\n      pop\n        /* \"contracts-encrypt/distribution/TShareRewardPool.sol\":4661:4929  poolInfo.push(\r... */\n      swap1\n      dup1\n      0x01\n      dup2\n      sload\n      add\n      dup1\n      dup3\n      sstore\n      dup1\n      swap2\n      pop\n      pop\n      0x01\n      swap1\n      sub\n      swap1\n      0x00\n      mstore\n      keccak256(0x00, 0x20)\n      swap1\n      0x05\n      mul\n      add\n      0x00\n      swap1\n      swap2\n      swap1\n      swap2\n      swap1\n      swap2\n      pop\n      0x00\n      dup3\n      add\n      mload\n      dup2\n      0x00\n      add\n      exp(0x0100, 0x00)\n      dup2\n      sload\n      dup2\n      0xffffffffffffffffffffffffffffffffffffffff\n      mul\n      not\n      and\n      swap1\n      dup4\n      0xffffffffffffffffffffffffffffffffffffffff\n      and\n      mul\n      or\n      swap1\n      sstore\n      pop\n      0x20\n      dup3\n      add\n      mload\n      dup2\n      0x01\n      add\n      sstore\n      0x40\n      dup3\n      add\n      mload\n      dup2\n      0x02\n      add\n      sstore\n      0x60\n      dup3\n      add\n      mload\n      dup2\n      0x03\n      add\n      sstore\n      0x80\n      dup3\n      add\n      mload\n      dup2\n      0x04\n      add\n      exp(0x0100, 0x00)\n      dup2\n      sload\n      dup2\n      0xff\n      mul\n      not\n      and\n      swap1\n      dup4\n      iszero\n      iszero\n      mul\n      or\n      swap1\n      sstore\n      pop\n      pop\n      pop\n        /* \"contracts-encrypt/distribution/TShareRewardPool.sol\":4944:4954  _isStarted */\n      dup1\n        /* \"contracts-encrypt/distribution/TShareRewardPool.sol\":4940:5033  if (_isStarted) {\r... */\n      iszero\n      tag_212\n      jumpi\n        /* \"contracts-encrypt/distribution/TShareRewardPool.sol\":4989:5021  totalAllocPoint.add(_allocPoint) */\n      tag_213\n        /* \"contracts-encrypt/distribution/TShareRewardPool.sol\":5009:5020  _allocPoint */\n      dup6\n        /* \"contracts-encrypt/distribution/TShareRewardPool.sol\":4989:5004  totalAllocPoint */\n      sload(0x04)\n        /* \"contracts-encrypt/distribution/TShareRewardPool.sol\":4989:5008  totalAllocPoint.add */\n      tag_116\n      swap1\n        /* \"contracts-encrypt/distribution/TShareRewardPool.sol\":4989:5021  totalAllocPoint.add(_allocPoint) */\n      swap2\n      swap1\n      0xffffffff\n      and\n      jump\t// in\n    tag_213:\n        /* \"contracts-encrypt/distribution/TShareRewardPool.sol\":4971:4986  totalAllocPoint */\n      0x04\n        /* \"contracts-encrypt/distribution/TShareRewardPool.sol\":4971:5021  totalAllocPoint = totalAllocPoint.add(_allocPoint) */\n      dup2\n      swap1\n      sstore\n      pop\n        /* \"contracts-encrypt/distribution/TShareRewardPool.sol\":4940:5033  if (_isStarted) {\r... */\n    tag_212:\n        /* \"contracts-encrypt/distribution/TShareRewardPool.sol\":3323:3324  _ */\n      pop\n        /* \"contracts-encrypt/distribution/TShareRewardPool.sol\":3727:5040  function add(\r... */\n      pop\n      pop\n      pop\n      pop\n      jump\t// out\n        /* \"contracts-encrypt/distribution/TShareRewardPool.sol\":11858:11959  function setOperator(address _operator) external onlyOperator {\r... */\n    tag_92:\n        /* \"contracts-encrypt/distribution/TShareRewardPool.sol\":3229:3239  msg.sender */\n      caller\n        /* \"contracts-encrypt/distribution/TShareRewardPool.sol\":3217:3239  operator == msg.sender */\n      0xffffffffffffffffffffffffffffffffffffffff\n      and\n        /* \"contracts-encrypt/distribution/TShareRewardPool.sol\":3217:3225  operator */\n      0x00\n      dup1\n      sload\n      swap1\n      0x0100\n      exp\n      swap1\n      div\n      0xffffffffffffffffffffffffffffffffffffffff\n      and\n        /* \"contracts-encrypt/distribution/TShareRewardPool.sol\":3217:3239  operator == msg.sender */\n      0xffffffffffffffffffffffffffffffffffffffff\n      and\n      eq\n        /* \"contracts-encrypt/distribution/TShareRewardPool.sol\":3195:3312  require(\r... */\n      tag_215\n      jumpi\n      mload(0x40)\n      0x08c379a000000000000000000000000000000000000000000000000000000000\n      dup2\n      mstore\n      0x04\n      add\n      dup1\n      dup1\n      0x20\n      add\n      dup3\n      dup2\n      sub\n      dup3\n      mstore\n      0x2d\n      dup2\n      mstore\n      0x20\n      add\n      dup1\n      data_0b8addce3361cf34ccf0fb7aeda2bc3f51b78ff1689b02ed7f2dc0bc1f7df76b\n      0x2d\n      swap2\n      codecopy\n      0x40\n      add\n      swap2\n      pop\n      pop\n      mload(0x40)\n      dup1\n      swap2\n      sub\n      swap1\n      revert\n    tag_215:\n        /* \"contracts-encrypt/distribution/TShareRewardPool.sol\":11942:11951  _operator */\n      dup1\n        /* \"contracts-encrypt/distribution/TShareRewardPool.sol\":11931:11939  operator */\n      0x00\n      dup1\n        /* \"contracts-encrypt/distribution/TShareRewardPool.sol\":11931:11951  operator = _operator */\n      0x0100\n      exp\n      dup2\n      sload\n      dup2\n      0xffffffffffffffffffffffffffffffffffffffff\n      mul\n      not\n      and\n      swap1\n      dup4\n      0xffffffffffffffffffffffffffffffffffffffff\n      and\n      mul\n      or\n      swap1\n      sstore\n      pop\n        /* \"contracts-encrypt/distribution/TShareRewardPool.sol\":11858:11959  function setOperator(address _operator) external onlyOperator {\r... */\n      pop\n      jump\t// out\n        /* \"contracts-encrypt/distribution/TShareRewardPool.sol\":1608:1632  uint256 public Fee = 200 */\n    tag_94:\n      sload(0x05)\n      dup2\n      jump\t// out\n        /* \"contracts-encrypt/distribution/TShareRewardPool.sol\":2726:2920  function initialize(address _EcShare) public notInitialized {\r... */\n    tag_97:\n        /* \"contracts-encrypt/distribution/TShareRewardPool.sol\":2496:2507  initialized */\n      0x06\n      0x14\n      swap1\n      sload\n      swap1\n      0x0100\n      exp\n      swap1\n      div\n      0xff\n      and\n        /* \"contracts-encrypt/distribution/TShareRewardPool.sol\":2495:2507  !initialized */\n      iszero\n        /* \"contracts-encrypt/distribution/TShareRewardPool.sol\":2487:2549  require(!initialized, \"TShareRewardPool: already initialized\") */\n      tag_218\n      jumpi\n      mload(0x40)\n      0x08c379a000000000000000000000000000000000000000000000000000000000\n      dup2\n      mstore\n      0x04\n      add\n      dup1\n      dup1\n      0x20\n      add\n      dup3\n      dup2\n      sub\n      dup3\n      mstore\n      0x25\n      dup2\n      mstore\n      0x20\n      add\n      dup1\n      data_0a504033bd7d99686ea1ae9273f5b861798bc3a1ad16f392634712986b286757\n      0x25\n      swap2\n      codecopy\n      0x40\n      add\n      swap2\n      pop\n      pop\n      mload(0x40)\n      dup1\n      swap2\n      sub\n      swap1\n      revert\n    tag_218:\n        /* \"contracts-encrypt/distribution/TShareRewardPool.sol\":2821:2822  0 */\n      0x00\n        /* \"contracts-encrypt/distribution/TShareRewardPool.sol\":2801:2823  _EcShare != address(0) */\n      0xffffffffffffffffffffffffffffffffffffffff\n      and\n        /* \"contracts-encrypt/distribution/TShareRewardPool.sol\":2801:2809  _EcShare */\n      dup2\n        /* \"contracts-encrypt/distribution/TShareRewardPool.sol\":2801:2823  _EcShare != address(0) */\n      0xffffffffffffffffffffffffffffffffffffffff\n      and\n      eq\n        /* \"contracts-encrypt/distribution/TShareRewardPool.sol\":2797:2851  if (_EcShare != address(0)) EcShare = IERC20(_EcShare) */\n      tag_220\n      jumpi\n        /* \"contracts-encrypt/distribution/TShareRewardPool.sol\":2842:2850  _EcShare */\n      dup1\n        /* \"contracts-encrypt/distribution/TShareRewardPool.sol\":2825:2832  EcShare */\n      0x01\n      0x00\n        /* \"contracts-encrypt/distribution/TShareRewardPool.sol\":2825:2851  EcShare = IERC20(_EcShare) */\n      0x0100\n      exp\n      dup2\n      sload\n      dup2\n      0xffffffffffffffffffffffffffffffffffffffff\n      mul\n      not\n      and\n      swap1\n      dup4\n      0xffffffffffffffffffffffffffffffffffffffff\n      and\n      mul\n      or\n      swap1\n      sstore\n      pop\n        /* \"contracts-encrypt/distribution/TShareRewardPool.sol\":2797:2851  if (_EcShare != address(0)) EcShare = IERC20(_EcShare) */\n    tag_220:\n        /* \"contracts-encrypt/distribution/TShareRewardPool.sol\":2873:2883  msg.sender */\n      caller\n        /* \"contracts-encrypt/distribution/TShareRewardPool.sol\":2862:2870  operator */\n      0x00\n      dup1\n        /* \"contracts-encrypt/distribution/TShareRewardPool.sol\":2862:2883  operator = msg.sender */\n      0x0100\n      exp\n      dup2\n      sload\n      dup2\n      0xffffffffffffffffffffffffffffffffffffffff\n      mul\n      not\n      and\n      swap1\n      dup4\n      0xffffffffffffffffffffffffffffffffffffffff\n      and\n      mul\n      or\n      swap1\n      sstore\n      pop\n        /* \"contracts-encrypt/distribution/TShareRewardPool.sol\":2908:2912  true */\n      0x01\n        /* \"contracts-encrypt/distribution/TShareRewardPool.sol\":2894:2905  initialized */\n      0x06\n      0x14\n        /* \"contracts-encrypt/distribution/TShareRewardPool.sol\":2894:2912  initialized = true */\n      0x0100\n      exp\n      dup2\n      sload\n      dup2\n      0xff\n      mul\n      not\n      and\n      swap1\n      dup4\n      iszero\n      iszero\n      mul\n      or\n      swap1\n      sstore\n      pop\n        /* \"contracts-encrypt/distribution/TShareRewardPool.sol\":2726:2920  function initialize(address _EcShare) public notInitialized {\r... */\n      pop\n      jump\t// out\n        /* \"contracts-encrypt/distribution/TShareRewardPool.sol\":6367:7318  function pendingShare(uint256 _pid, address _user)\r... */\n    tag_100:\n        /* \"contracts-encrypt/distribution/TShareRewardPool.sol\":6468:6475  uint256 */\n      0x00\n        /* \"contracts-encrypt/distribution/TShareRewardPool.sol\":6493:6514  PoolInfo storage pool */\n      dup1\n        /* \"contracts-encrypt/distribution/TShareRewardPool.sol\":6517:6525  poolInfo */\n      0x02\n        /* \"contracts-encrypt/distribution/TShareRewardPool.sol\":6526:6530  _pid */\n      dup5\n        /* \"contracts-encrypt/distribution/TShareRewardPool.sol\":6517:6531  poolInfo[_pid] */\n      dup2\n      sload\n      dup2\n      lt\n      tag_222\n      jumpi\n      invalid\n    tag_222:\n      swap1\n      0x00\n      mstore\n      keccak256(0x00, 0x20)\n      swap1\n      0x05\n      mul\n      add\n        /* \"contracts-encrypt/distribution/TShareRewardPool.sol\":6493:6531  PoolInfo storage pool = poolInfo[_pid] */\n      swap1\n      pop\n        /* \"contracts-encrypt/distribution/TShareRewardPool.sol\":6542:6563  UserInfo storage user */\n      0x00\n        /* \"contracts-encrypt/distribution/TShareRewardPool.sol\":6566:6574  userInfo */\n      0x03\n        /* \"contracts-encrypt/distribution/TShareRewardPool.sol\":6566:6580  userInfo[_pid] */\n      0x00\n        /* \"contracts-encrypt/distribution/TShareRewardPool.sol\":6575:6579  _pid */\n      dup7\n        /* \"contracts-encrypt/distribution/TShareRewardPool.sol\":6566:6580  userInfo[_pid] */\n      dup2\n      mstore\n      0x20\n      add\n      swap1\n      dup2\n      mstore\n      0x20\n      add\n      0x00\n      keccak256\n        /* \"contracts-encrypt/distribution/TShareRewardPool.sol\":6566:6587  userInfo[_pid][_user] */\n      0x00\n        /* \"contracts-encrypt/distribution/TShareRewardPool.sol\":6581:6586  _user */\n      dup6\n        /* \"contracts-encrypt/distribution/TShareRewardPool.sol\":6566:6587  userInfo[_pid][_user] */\n      0xffffffffffffffffffffffffffffffffffffffff\n      and\n      0xffffffffffffffffffffffffffffffffffffffff\n      and\n      dup2\n      mstore\n      0x20\n      add\n      swap1\n      dup2\n      mstore\n      0x20\n      add\n      0x00\n      keccak256\n        /* \"contracts-encrypt/distribution/TShareRewardPool.sol\":6542:6587  UserInfo storage user = userInfo[_pid][_user] */\n      swap1\n      pop\n        /* \"contracts-encrypt/distribution/TShareRewardPool.sol\":6598:6624  uint256 accEcSharePerShare */\n      0x00\n        /* \"contracts-encrypt/distribution/TShareRewardPool.sol\":6627:6631  pool */\n      dup3\n        /* \"contracts-encrypt/distribution/TShareRewardPool.sol\":6627:6650  pool.accEcSharePerShare */\n      0x03\n      add\n      sload\n        /* \"contracts-encrypt/distribution/TShareRewardPool.sol\":6598:6650  uint256 accEcSharePerShare = pool.accEcSharePerShare */\n      swap1\n      pop\n        /* \"contracts-encrypt/distribution/TShareRewardPool.sol\":6661:6680  uint256 tokenSupply */\n      0x00\n        /* \"contracts-encrypt/distribution/TShareRewardPool.sol\":6683:6687  pool */\n      dup4\n        /* \"contracts-encrypt/distribution/TShareRewardPool.sol\":6683:6693  pool.token */\n      0x00\n      add\n      0x00\n      swap1\n      sload\n      swap1\n      0x0100\n      exp\n      swap1\n      div\n      0xffffffffffffffffffffffffffffffffffffffff\n      and\n        /* \"contracts-encrypt/distribution/TShareRewardPool.sol\":6683:6703  pool.token.balanceOf */\n      0xffffffffffffffffffffffffffffffffffffffff\n      and\n      0x70a08231\n        /* \"contracts-encrypt/distribution/TShareRewardPool.sol\":6712:6716  this */\n      address\n        /* \"contracts-encrypt/distribution/TShareRewardPool.sol\":6683:6718  pool.token.balanceOf(address(this)) */\n      mload(0x40)\n      dup3\n      0xffffffff\n      and\n      0xe0\n      shl\n      dup2\n      mstore\n      0x04\n      add\n      dup1\n      dup3\n      0xffffffffffffffffffffffffffffffffffffffff\n      and\n      dup2\n      mstore\n      0x20\n      add\n      swap2\n      pop\n      pop\n      0x20\n      mload(0x40)\n      dup1\n      dup4\n      sub\n      dup2\n      dup7\n      dup1\n      extcodesize\n      iszero\n      dup1\n      iszero\n      tag_224\n      jumpi\n      0x00\n      dup1\n      revert\n    tag_224:\n      pop\n      gas\n      staticcall\n      iszero\n      dup1\n      iszero\n      tag_226\n      jumpi\n      returndatasize\n      0x00\n      dup1\n      returndatacopy\n      revert(0x00, returndatasize)\n    tag_226:\n      pop\n      pop\n      pop\n      pop\n      mload(0x40)\n      returndatasize\n      0x20\n      dup2\n      lt\n      iszero\n      tag_227\n      jumpi\n      0x00\n      dup1\n      revert\n    tag_227:\n      dup2\n      add\n      swap1\n      dup1\n      dup1\n      mload\n      swap1\n      0x20\n      add\n      swap1\n      swap3\n      swap2\n      swap1\n      pop\n      pop\n      pop\n        /* \"contracts-encrypt/distribution/TShareRewardPool.sol\":6661:6718  uint256 tokenSupply = pool.token.balanceOf(address(this)) */\n      swap1\n      pop\n        /* \"contracts-encrypt/distribution/TShareRewardPool.sol\":6751:6755  pool */\n      dup4\n        /* \"contracts-encrypt/distribution/TShareRewardPool.sol\":6751:6770  pool.lastRewardTime */\n      0x02\n      add\n      sload\n        /* \"contracts-encrypt/distribution/TShareRewardPool.sol\":6733:6748  block.timestamp */\n      timestamp\n        /* \"contracts-encrypt/distribution/TShareRewardPool.sol\":6733:6770  block.timestamp > pool.lastRewardTime */\n      gt\n        /* \"contracts-encrypt/distribution/TShareRewardPool.sol\":6733:6790  block.timestamp > pool.lastRewardTime && tokenSupply != 0 */\n      dup1\n      iszero\n      tag_228\n      jumpi\n      pop\n        /* \"contracts-encrypt/distribution/TShareRewardPool.sol\":6789:6790  0 */\n      0x00\n        /* \"contracts-encrypt/distribution/TShareRewardPool.sol\":6774:6785  tokenSupply */\n      dup2\n        /* \"contracts-encrypt/distribution/TShareRewardPool.sol\":6774:6790  tokenSupply != 0 */\n      eq\n      iszero\n        /* \"contracts-encrypt/distribution/TShareRewardPool.sol\":6733:6790  block.timestamp > pool.lastRewardTime && tokenSupply != 0 */\n    tag_228:\n        /* \"contracts-encrypt/distribution/TShareRewardPool.sol\":6729:7214  if (block.timestamp > pool.lastRewardTime && tokenSupply != 0) {\r... */\n      iszero\n      tag_229\n      jumpi\n        /* \"contracts-encrypt/distribution/TShareRewardPool.sol\":6807:6831  uint256 _generatedReward */\n      0x00\n        /* \"contracts-encrypt/distribution/TShareRewardPool.sol\":6834:6939  getGeneratedReward(\r... */\n      tag_230\n        /* \"contracts-encrypt/distribution/TShareRewardPool.sol\":6871:6875  pool */\n      dup6\n        /* \"contracts-encrypt/distribution/TShareRewardPool.sol\":6871:6890  pool.lastRewardTime */\n      0x02\n      add\n      sload\n        /* \"contracts-encrypt/distribution/TShareRewardPool.sol\":6909:6924  block.timestamp */\n      timestamp\n        /* \"contracts-encrypt/distribution/TShareRewardPool.sol\":6834:6852  getGeneratedReward */\n      tag_52\n        /* \"contracts-encrypt/distribution/TShareRewardPool.sol\":6834:6939  getGeneratedReward(\r... */\n      jump\t// in\n    tag_230:\n        /* \"contracts-encrypt/distribution/TShareRewardPool.sol\":6807:6939  uint256 _generatedReward = getGeneratedReward(\r... */\n      swap1\n      pop\n        /* \"contracts-encrypt/distribution/TShareRewardPool.sol\":6954:6976  uint256 _EcShareReward */\n      0x00\n        /* \"contracts-encrypt/distribution/TShareRewardPool.sol\":6979:7069  _generatedReward.mul(pool.allocPoint).div(\r... */\n      tag_231\n        /* \"contracts-encrypt/distribution/TShareRewardPool.sol\":7039:7054  totalAllocPoint */\n      sload(0x04)\n        /* \"contracts-encrypt/distribution/TShareRewardPool.sol\":6979:7016  _generatedReward.mul(pool.allocPoint) */\n      tag_232\n        /* \"contracts-encrypt/distribution/TShareRewardPool.sol\":7000:7004  pool */\n      dup9\n        /* \"contracts-encrypt/distribution/TShareRewardPool.sol\":7000:7015  pool.allocPoint */\n      0x01\n      add\n      sload\n        /* \"contracts-encrypt/distribution/TShareRewardPool.sol\":6979:6995  _generatedReward */\n      dup6\n        /* \"contracts-encrypt/distribution/TShareRewardPool.sol\":6979:6999  _generatedReward.mul */\n      tag_124\n      swap1\n        /* \"contracts-encrypt/distribution/TShareRewardPool.sol\":6979:7016  _generatedReward.mul(pool.allocPoint) */\n      swap2\n      swap1\n      0xffffffff\n      and\n      jump\t// in\n    tag_232:\n        /* \"contracts-encrypt/distribution/TShareRewardPool.sol\":6979:7020  _generatedReward.mul(pool.allocPoint).div */\n      tag_147\n      swap1\n        /* \"contracts-encrypt/distribution/TShareRewardPool.sol\":6979:7069  _generatedReward.mul(pool.allocPoint).div(\r... */\n      swap2\n      swap1\n      0xffffffff\n      and\n      jump\t// in\n    tag_231:\n        /* \"contracts-encrypt/distribution/TShareRewardPool.sol\":6954:7069  uint256 _EcShareReward = _generatedReward.mul(pool.allocPoint).div(\r... */\n      swap1\n      pop\n        /* \"contracts-encrypt/distribution/TShareRewardPool.sol\":7105:7202  accEcSharePerShare.add(\r... */\n      tag_233\n        /* \"contracts-encrypt/distribution/TShareRewardPool.sol\":7146:7187  _EcShareReward.mul(1e18).div(tokenSupply) */\n      tag_234\n        /* \"contracts-encrypt/distribution/TShareRewardPool.sol\":7175:7186  tokenSupply */\n      dup5\n        /* \"contracts-encrypt/distribution/TShareRewardPool.sol\":7146:7170  _EcShareReward.mul(1e18) */\n      tag_235\n        /* \"contracts-encrypt/distribution/TShareRewardPool.sol\":7165:7169  1e18 */\n      0x0de0b6b3a7640000\n        /* \"contracts-encrypt/distribution/TShareRewardPool.sol\":7146:7160  _EcShareReward */\n      dup6\n        /* \"contracts-encrypt/distribution/TShareRewardPool.sol\":7146:7164  _EcShareReward.mul */\n      tag_124\n      swap1\n        /* \"contracts-encrypt/distribution/TShareRewardPool.sol\":7146:7170  _EcShareReward.mul(1e18) */\n      swap2\n      swap1\n      0xffffffff\n      and\n      jump\t// in\n    tag_235:\n        /* \"contracts-encrypt/distribution/TShareRewardPool.sol\":7146:7174  _EcShareReward.mul(1e18).div */\n      tag_147\n      swap1\n        /* \"contracts-encrypt/distribution/TShareRewardPool.sol\":7146:7187  _EcShareReward.mul(1e18).div(tokenSupply) */\n      swap2\n      swap1\n      0xffffffff\n      and\n      jump\t// in\n    tag_234:\n        /* \"contracts-encrypt/distribution/TShareRewardPool.sol\":7105:7123  accEcSharePerShare */\n      dup6\n        /* \"contracts-encrypt/distribution/TShareRewardPool.sol\":7105:7127  accEcSharePerShare.add */\n      tag_116\n      swap1\n        /* \"contracts-encrypt/distribution/TShareRewardPool.sol\":7105:7202  accEcSharePerShare.add(\r... */\n      swap2\n      swap1\n      0xffffffff\n      and\n      jump\t// in\n    tag_233:\n        /* \"contracts-encrypt/distribution/TShareRewardPool.sol\":7084:7202  accEcSharePerShare = accEcSharePerShare.add(\r... */\n      swap4\n      pop\n        /* \"contracts-encrypt/distribution/TShareRewardPool.sol\":6729:7214  if (block.timestamp > pool.lastRewardTime && tokenSupply != 0) {\r... */\n      pop\n      pop\n    tag_229:\n        /* \"contracts-encrypt/distribution/TShareRewardPool.sol\":7244:7310  user.amount.mul(accEcSharePerShare).div(1e18).sub(user.rewardDebt) */\n      tag_236\n        /* \"contracts-encrypt/distribution/TShareRewardPool.sol\":7294:7298  user */\n      dup4\n        /* \"contracts-encrypt/distribution/TShareRewardPool.sol\":7294:7309  user.rewardDebt */\n      0x01\n      add\n      sload\n        /* \"contracts-encrypt/distribution/TShareRewardPool.sol\":7244:7289  user.amount.mul(accEcSharePerShare).div(1e18) */\n      tag_237\n        /* \"contracts-encrypt/distribution/TShareRewardPool.sol\":7284:7288  1e18 */\n      0x0de0b6b3a7640000\n        /* \"contracts-encrypt/distribution/TShareRewardPool.sol\":7244:7279  user.amount.mul(accEcSharePerShare) */\n      tag_238\n        /* \"contracts-encrypt/distribution/TShareRewardPool.sol\":7260:7278  accEcSharePerShare */\n      dup7\n        /* \"contracts-encrypt/distribution/TShareRewardPool.sol\":7244:7248  user */\n      dup9\n        /* \"contracts-encrypt/distribution/TShareRewardPool.sol\":7244:7255  user.amount */\n      0x00\n      add\n      sload\n        /* \"contracts-encrypt/distribution/TShareRewardPool.sol\":7244:7259  user.amount.mul */\n      tag_124\n      swap1\n        /* \"contracts-encrypt/distribution/TShareRewardPool.sol\":7244:7279  user.amount.mul(accEcSharePerShare) */\n      swap2\n      swap1\n      0xffffffff\n      and\n      jump\t// in\n    tag_238:\n        /* \"contracts-encrypt/distribution/TShareRewardPool.sol\":7244:7283  user.amount.mul(accEcSharePerShare).div */\n      tag_147\n      swap1\n        /* \"contracts-encrypt/distribution/TShareRewardPool.sol\":7244:7289  user.amount.mul(accEcSharePerShare).div(1e18) */\n      swap2\n      swap1\n      0xffffffff\n      and\n      jump\t// in\n    tag_237:\n        /* \"contracts-encrypt/distribution/TShareRewardPool.sol\":7244:7293  user.amount.mul(accEcSharePerShare).div(1e18).sub */\n      tag_115\n      swap1\n        /* \"contracts-encrypt/distribution/TShareRewardPool.sol\":7244:7310  user.amount.mul(accEcSharePerShare).div(1e18).sub(user.rewardDebt) */\n      swap2\n      swap1\n      0xffffffff\n      and\n      jump\t// in\n    tag_236:\n        /* \"contracts-encrypt/distribution/TShareRewardPool.sol\":7224:7310  return\r... */\n      swap5\n      pop\n      pop\n      pop\n      pop\n      pop\n        /* \"contracts-encrypt/distribution/TShareRewardPool.sol\":6367:7318  function pendingShare(uint256 _pid, address _user)\r... */\n      swap3\n      swap2\n      pop\n      pop\n      jump\t// out\n        /* \"contracts-encrypt/distribution/TShareRewardPool.sol\":8945:9998  function deposit(uint256 _pid, uint256 _amount) public {\r... */\n    tag_103:\n        /* \"contracts-encrypt/distribution/TShareRewardPool.sol\":9011:9026  address _sender */\n      0x00\n        /* \"contracts-encrypt/distribution/TShareRewardPool.sol\":9029:9039  msg.sender */\n      caller\n        /* \"contracts-encrypt/distribution/TShareRewardPool.sol\":9011:9039  address _sender = msg.sender */\n      swap1\n      pop\n        /* \"contracts-encrypt/distribution/TShareRewardPool.sol\":9050:9062  uint256 _fee */\n      0x00\n        /* \"contracts-encrypt/distribution/TShareRewardPool.sol\":9065:9079  _fees(_amount) */\n      tag_240\n        /* \"contracts-encrypt/distribution/TShareRewardPool.sol\":9071:9078  _amount */\n      dup4\n        /* \"contracts-encrypt/distribution/TShareRewardPool.sol\":9065:9070  _fees */\n      tag_241\n        /* \"contracts-encrypt/distribution/TShareRewardPool.sol\":9065:9079  _fees(_amount) */\n      jump\t// in\n    tag_240:\n        /* \"contracts-encrypt/distribution/TShareRewardPool.sol\":9050:9079  uint256 _fee = _fees(_amount) */\n      swap1\n      pop\n        /* \"contracts-encrypt/distribution/TShareRewardPool.sol\":9090:9108  uint256 _newAmount */\n      0x00\n        /* \"contracts-encrypt/distribution/TShareRewardPool.sol\":9111:9128  _amount.sub(_fee) */\n      tag_242\n        /* \"contracts-encrypt/distribution/TShareRewardPool.sol\":9123:9127  _fee */\n      dup3\n        /* \"contracts-encrypt/distribution/TShareRewardPool.sol\":9111:9118  _amount */\n      dup6\n        /* \"contracts-encrypt/distribution/TShareRewardPool.sol\":9111:9122  _amount.sub */\n      tag_115\n      swap1\n        /* \"contracts-encrypt/distribution/TShareRewardPool.sol\":9111:9128  _amount.sub(_fee) */\n      swap2\n      swap1\n      0xffffffff\n      and\n      jump\t// in\n    tag_242:\n        /* \"contracts-encrypt/distribution/TShareRewardPool.sol\":9090:9128  uint256 _newAmount = _amount.sub(_fee) */\n      swap1\n      pop\n        /* \"contracts-encrypt/distribution/TShareRewardPool.sol\":9141:9162  PoolInfo storage pool */\n      0x00\n        /* \"contracts-encrypt/distribution/TShareRewardPool.sol\":9165:9173  poolInfo */\n      0x02\n        /* \"contracts-encrypt/distribution/TShareRewardPool.sol\":9174:9178  _pid */\n      dup7\n        /* \"contracts-encrypt/distribution/TShareRewardPool.sol\":9165:9179  poolInfo[_pid] */\n      dup2\n      sload\n      dup2\n      lt\n      tag_243\n      jumpi\n      invalid\n    tag_243:\n      swap1\n      0x00\n      mstore\n      keccak256(0x00, 0x20)\n      swap1\n      0x05\n      mul\n      add\n        /* \"contracts-encrypt/distribution/TShareRewardPool.sol\":9141:9179  PoolInfo storage pool = poolInfo[_pid] */\n      swap1\n      pop\n        /* \"contracts-encrypt/distribution/TShareRewardPool.sol\":9190:9211  UserInfo storage user */\n      0x00\n        /* \"contracts-encrypt/distribution/TShareRewardPool.sol\":9214:9222  userInfo */\n      0x03\n        /* \"contracts-encrypt/distribution/TShareRewardPool.sol\":9214:9228  userInfo[_pid] */\n      0x00\n        /* \"contracts-encrypt/distribution/TShareRewardPool.sol\":9223:9227  _pid */\n      dup9\n        /* \"contracts-encrypt/distribution/TShareRewardPool.sol\":9214:9228  userInfo[_pid] */\n      dup2\n      mstore\n      0x20\n      add\n      swap1\n      dup2\n      mstore\n      0x20\n      add\n      0x00\n      keccak256\n        /* \"contracts-encrypt/distribution/TShareRewardPool.sol\":9214:9237  userInfo[_pid][_sender] */\n      0x00\n        /* \"contracts-encrypt/distribution/TShareRewardPool.sol\":9229:9236  _sender */\n      dup7\n        /* \"contracts-encrypt/distribution/TShareRewardPool.sol\":9214:9237  userInfo[_pid][_sender] */\n      0xffffffffffffffffffffffffffffffffffffffff\n      and\n      0xffffffffffffffffffffffffffffffffffffffff\n      and\n      dup2\n      mstore\n      0x20\n      add\n      swap1\n      dup2\n      mstore\n      0x20\n      add\n      0x00\n      keccak256\n        /* \"contracts-encrypt/distribution/TShareRewardPool.sol\":9190:9237  UserInfo storage user = userInfo[_pid][_sender] */\n      swap1\n      pop\n        /* \"contracts-encrypt/distribution/TShareRewardPool.sol\":9248:9264  updatePool(_pid) */\n      tag_245\n        /* \"contracts-encrypt/distribution/TShareRewardPool.sol\":9259:9263  _pid */\n      dup8\n        /* \"contracts-encrypt/distribution/TShareRewardPool.sol\":9248:9258  updatePool */\n      tag_63\n        /* \"contracts-encrypt/distribution/TShareRewardPool.sol\":9248:9264  updatePool(_pid) */\n      jump\t// in\n    tag_245:\n        /* \"contracts-encrypt/distribution/TShareRewardPool.sol\":9293:9294  0 */\n      0x00\n        /* \"contracts-encrypt/distribution/TShareRewardPool.sol\":9279:9283  user */\n      dup2\n        /* \"contracts-encrypt/distribution/TShareRewardPool.sol\":9279:9290  user.amount */\n      0x00\n      add\n      sload\n        /* \"contracts-encrypt/distribution/TShareRewardPool.sol\":9279:9294  user.amount > 0 */\n      gt\n        /* \"contracts-encrypt/distribution/TShareRewardPool.sol\":9275:9643  if (user.amount > 0) {\r... */\n      iszero\n      tag_246\n      jumpi\n        /* \"contracts-encrypt/distribution/TShareRewardPool.sol\":9311:9327  uint256 _pending */\n      0x00\n        /* \"contracts-encrypt/distribution/TShareRewardPool.sol\":9330:9473  user\r... */\n      tag_247\n        /* \"contracts-encrypt/distribution/TShareRewardPool.sol\":9457:9461  user */\n      dup3\n        /* \"contracts-encrypt/distribution/TShareRewardPool.sol\":9457:9472  user.rewardDebt */\n      0x01\n      add\n      sload\n        /* \"contracts-encrypt/distribution/TShareRewardPool.sol\":9330:9434  user\r... */\n      tag_248\n        /* \"contracts-encrypt/distribution/TShareRewardPool.sol\":9429:9433  1e18 */\n      0x0de0b6b3a7640000\n        /* \"contracts-encrypt/distribution/TShareRewardPool.sol\":9330:9406  user\r... */\n      tag_249\n        /* \"contracts-encrypt/distribution/TShareRewardPool.sol\":9382:9386  pool */\n      dup8\n        /* \"contracts-encrypt/distribution/TShareRewardPool.sol\":9382:9405  pool.accEcSharePerShare */\n      0x03\n      add\n      sload\n        /* \"contracts-encrypt/distribution/TShareRewardPool.sol\":9330:9334  user */\n      dup8\n        /* \"contracts-encrypt/distribution/TShareRewardPool.sol\":9330:9359  user\r... */\n      0x00\n      add\n      sload\n        /* \"contracts-encrypt/distribution/TShareRewardPool.sol\":9330:9381  user\r... */\n      tag_124\n      swap1\n        /* \"contracts-encrypt/distribution/TShareRewardPool.sol\":9330:9406  user\r... */\n      swap2\n      swap1\n      0xffffffff\n      and\n      jump\t// in\n    tag_249:\n        /* \"contracts-encrypt/distribution/TShareRewardPool.sol\":9330:9428  user\r... */\n      tag_147\n      swap1\n        /* \"contracts-encrypt/distribution/TShareRewardPool.sol\":9330:9434  user\r... */\n      swap2\n      swap1\n      0xffffffff\n      and\n      jump\t// in\n    tag_248:\n        /* \"contracts-encrypt/distribution/TShareRewardPool.sol\":9330:9456  user\r... */\n      tag_115\n      swap1\n        /* \"contracts-encrypt/distribution/TShareRewardPool.sol\":9330:9473  user\r... */\n      swap2\n      swap1\n      0xffffffff\n      and\n      jump\t// in\n    tag_247:\n        /* \"contracts-encrypt/distribution/TShareRewardPool.sol\":9311:9473  uint256 _pending = user\r... */\n      swap1\n      pop\n        /* \"contracts-encrypt/distribution/TShareRewardPool.sol\":9503:9504  0 */\n      0x00\n        /* \"contracts-encrypt/distribution/TShareRewardPool.sol\":9492:9500  _pending */\n      dup2\n        /* \"contracts-encrypt/distribution/TShareRewardPool.sol\":9492:9504  _pending > 0 */\n      gt\n        /* \"contracts-encrypt/distribution/TShareRewardPool.sol\":9488:9632  if (_pending > 0) {\r... */\n      iszero\n      tag_250\n      jumpi\n        /* \"contracts-encrypt/distribution/TShareRewardPool.sol\":9525:9563  safeEcShareTransfer(_sender, _pending) */\n      tag_251\n        /* \"contracts-encrypt/distribution/TShareRewardPool.sol\":9545:9552  _sender */\n      dup7\n        /* \"contracts-encrypt/distribution/TShareRewardPool.sol\":9554:9562  _pending */\n      dup3\n        /* \"contracts-encrypt/distribution/TShareRewardPool.sol\":9525:9544  safeEcShareTransfer */\n      tag_150\n        /* \"contracts-encrypt/distribution/TShareRewardPool.sol\":9525:9563  safeEcShareTransfer(_sender, _pending) */\n      jump\t// in\n    tag_251:\n        /* \"contracts-encrypt/distribution/TShareRewardPool.sol\":9598:9605  _sender */\n      dup6\n        /* \"contracts-encrypt/distribution/TShareRewardPool.sol\":9587:9616  RewardPaid(_sender, _pending) */\n      0xffffffffffffffffffffffffffffffffffffffff\n      and\n      0xe2403640ba68fed3a2f88b7557551d1993f84b99bb10ff833f0cf8db0c5e0486\n        /* \"contracts-encrypt/distribution/TShareRewardPool.sol\":9607:9615  _pending */\n      dup3\n        /* \"contracts-encrypt/distribution/TShareRewardPool.sol\":9587:9616  RewardPaid(_sender, _pending) */\n      mload(0x40)\n      dup1\n      dup3\n      dup2\n      mstore\n      0x20\n      add\n      swap2\n      pop\n      pop\n      mload(0x40)\n      dup1\n      swap2\n      sub\n      swap1\n      log2\n        /* \"contracts-encrypt/distribution/TShareRewardPool.sol\":9488:9632  if (_pending > 0) {\r... */\n    tag_250:\n        /* \"contracts-encrypt/distribution/TShareRewardPool.sol\":9275:9643  if (user.amount > 0) {\r... */\n      pop\n    tag_246:\n        /* \"contracts-encrypt/distribution/TShareRewardPool.sol\":9667:9668  0 */\n      0x00\n        /* \"contracts-encrypt/distribution/TShareRewardPool.sol\":9657:9664  _amount */\n      dup7\n        /* \"contracts-encrypt/distribution/TShareRewardPool.sol\":9657:9668  _amount > 0 */\n      gt\n        /* \"contracts-encrypt/distribution/TShareRewardPool.sol\":9653:9865  if (_amount > 0) {\r... */\n      iszero\n      tag_252\n      jumpi\n        /* \"contracts-encrypt/distribution/TShareRewardPool.sol\":9685:9745  pool.token.safeTransferFrom(_sender, address(this), _amount) */\n      tag_253\n        /* \"contracts-encrypt/distribution/TShareRewardPool.sol\":9713:9720  _sender */\n      dup6\n        /* \"contracts-encrypt/distribution/TShareRewardPool.sol\":9730:9734  this */\n      address\n        /* \"contracts-encrypt/distribution/TShareRewardPool.sol\":9737:9744  _amount */\n      dup9\n        /* \"contracts-encrypt/distribution/TShareRewardPool.sol\":9685:9689  pool */\n      dup6\n        /* \"contracts-encrypt/distribution/TShareRewardPool.sol\":9685:9695  pool.token */\n      0x00\n      add\n      0x00\n      swap1\n      sload\n      swap1\n      0x0100\n      exp\n      swap1\n      div\n      0xffffffffffffffffffffffffffffffffffffffff\n      and\n        /* \"contracts-encrypt/distribution/TShareRewardPool.sol\":9685:9712  pool.token.safeTransferFrom */\n      0xffffffffffffffffffffffffffffffffffffffff\n      and\n      tag_254\n      swap1\n        /* \"contracts-encrypt/distribution/TShareRewardPool.sol\":9685:9745  pool.token.safeTransferFrom(_sender, address(this), _amount) */\n      swap4\n      swap3\n      swap2\n      swap1\n      0xffffffff\n      and\n      jump\t// in\n    tag_253:\n        /* \"contracts-encrypt/distribution/TShareRewardPool.sol\":9774:9801  user.amount.add(_newAmount) */\n      tag_255\n        /* \"contracts-encrypt/distribution/TShareRewardPool.sol\":9790:9800  _newAmount */\n      dup4\n        /* \"contracts-encrypt/distribution/TShareRewardPool.sol\":9774:9778  user */\n      dup3\n        /* \"contracts-encrypt/distribution/TShareRewardPool.sol\":9774:9785  user.amount */\n      0x00\n      add\n      sload\n        /* \"contracts-encrypt/distribution/TShareRewardPool.sol\":9774:9789  user.amount.add */\n      tag_116\n      swap1\n        /* \"contracts-encrypt/distribution/TShareRewardPool.sol\":9774:9801  user.amount.add(_newAmount) */\n      swap2\n      swap1\n      0xffffffff\n      and\n      jump\t// in\n    tag_255:\n        /* \"contracts-encrypt/distribution/TShareRewardPool.sol\":9760:9764  user */\n      dup2\n        /* \"contracts-encrypt/distribution/TShareRewardPool.sol\":9760:9771  user.amount */\n      0x00\n      add\n        /* \"contracts-encrypt/distribution/TShareRewardPool.sol\":9760:9801  user.amount = user.amount.add(_newAmount) */\n      dup2\n      swap1\n      sstore\n      pop\n        /* \"contracts-encrypt/distribution/TShareRewardPool.sol\":9816:9853  pool.token.safeTransfer(_feeTo, _fee) */\n      tag_256\n        /* \"contracts-encrypt/distribution/TShareRewardPool.sol\":9840:9846  _feeTo */\n      0x06\n      0x00\n      swap1\n      sload\n      swap1\n      0x0100\n      exp\n      swap1\n      div\n      0xffffffffffffffffffffffffffffffffffffffff\n      and\n        /* \"contracts-encrypt/distribution/TShareRewardPool.sol\":9848:9852  _fee */\n      dup6\n        /* \"contracts-encrypt/distribution/TShareRewardPool.sol\":9816:9820  pool */\n      dup5\n        /* \"contracts-encrypt/distribution/TShareRewardPool.sol\":9816:9826  pool.token */\n      0x00\n      add\n      0x00\n      swap1\n      sload\n      swap1\n      0x0100\n      exp\n      swap1\n      div\n      0xffffffffffffffffffffffffffffffffffffffff\n      and\n        /* \"contracts-encrypt/distribution/TShareRewardPool.sol\":9816:9839  pool.token.safeTransfer */\n      0xffffffffffffffffffffffffffffffffffffffff\n      and\n      tag_154\n      swap1\n        /* \"contracts-encrypt/distribution/TShareRewardPool.sol\":9816:9853  pool.token.safeTransfer(_feeTo, _fee) */\n      swap3\n      swap2\n      swap1\n      0xffffffff\n      and\n      jump\t// in\n    tag_256:\n        /* \"contracts-encrypt/distribution/TShareRewardPool.sol\":9653:9865  if (_amount > 0) {\r... */\n    tag_252:\n        /* \"contracts-encrypt/distribution/TShareRewardPool.sol\":9893:9943  user.amount.mul(pool.accEcSharePerShare).div(1e18) */\n      tag_257\n        /* \"contracts-encrypt/distribution/TShareRewardPool.sol\":9938:9942  1e18 */\n      0x0de0b6b3a7640000\n        /* \"contracts-encrypt/distribution/TShareRewardPool.sol\":9893:9933  user.amount.mul(pool.accEcSharePerShare) */\n      tag_258\n        /* \"contracts-encrypt/distribution/TShareRewardPool.sol\":9909:9913  pool */\n      dup5\n        /* \"contracts-encrypt/distribution/TShareRewardPool.sol\":9909:9932  pool.accEcSharePerShare */\n      0x03\n      add\n      sload\n        /* \"contracts-encrypt/distribution/TShareRewardPool.sol\":9893:9897  user */\n      dup5\n        /* \"contracts-encrypt/distribution/TShareRewardPool.sol\":9893:9904  user.amount */\n      0x00\n      add\n      sload\n        /* \"contracts-encrypt/distribution/TShareRewardPool.sol\":9893:9908  user.amount.mul */\n      tag_124\n      swap1\n        /* \"contracts-encrypt/distribution/TShareRewardPool.sol\":9893:9933  user.amount.mul(pool.accEcSharePerShare) */\n      swap2\n      swap1\n      0xffffffff\n      and\n      jump\t// in\n    tag_258:\n        /* \"contracts-encrypt/distribution/TShareRewardPool.sol\":9893:9937  user.amount.mul(pool.accEcSharePerShare).div */\n      tag_147\n      swap1\n        /* \"contracts-encrypt/distribution/TShareRewardPool.sol\":9893:9943  user.amount.mul(pool.accEcSharePerShare).div(1e18) */\n      swap2\n      swap1\n      0xffffffff\n      and\n      jump\t// in\n    tag_257:\n        /* \"contracts-encrypt/distribution/TShareRewardPool.sol\":9875:9879  user */\n      dup2\n        /* \"contracts-encrypt/distribution/TShareRewardPool.sol\":9875:9890  user.rewardDebt */\n      0x01\n      add\n        /* \"contracts-encrypt/distribution/TShareRewardPool.sol\":9875:9943  user.rewardDebt = user.amount.mul(pool.accEcSharePerShare).div(1e18) */\n      dup2\n      swap1\n      sstore\n      pop\n        /* \"contracts-encrypt/distribution/TShareRewardPool.sol\":9976:9980  _pid */\n      dup7\n        /* \"contracts-encrypt/distribution/TShareRewardPool.sol\":9967:9974  _sender */\n      dup6\n        /* \"contracts-encrypt/distribution/TShareRewardPool.sol\":9959:9990  Deposit(_sender, _pid, _amount) */\n      0xffffffffffffffffffffffffffffffffffffffff\n      and\n      0x90890809c654f11d6e72a28fa60149770a0d11ec6c92319d6ceb2bb0a4ea1a15\n        /* \"contracts-encrypt/distribution/TShareRewardPool.sol\":9982:9989  _amount */\n      dup9\n        /* \"contracts-encrypt/distribution/TShareRewardPool.sol\":9959:9990  Deposit(_sender, _pid, _amount) */\n      mload(0x40)\n      dup1\n      dup3\n      dup2\n      mstore\n      0x20\n      add\n      swap2\n      pop\n      pop\n      mload(0x40)\n      dup1\n      swap2\n      sub\n      swap1\n      log3\n        /* \"contracts-encrypt/distribution/TShareRewardPool.sol\":8945:9998  function deposit(uint256 _pid, uint256 _amount) public {\r... */\n      pop\n      pop\n      pop\n      pop\n      pop\n      pop\n      pop\n      jump\t// out\n        /* \"@openzeppelin/contracts/utils/math/SafeMath.sol\":3136:3291  function sub(uint256 a, uint256 b) internal pure returns (uint256) {... */\n    tag_115:\n        /* \"@openzeppelin/contracts/utils/math/SafeMath.sol\":3194:3201  uint256 */\n      0x00\n        /* \"@openzeppelin/contracts/utils/math/SafeMath.sol\":3226:3227  a */\n      dup3\n        /* \"@openzeppelin/contracts/utils/math/SafeMath.sol\":3221:3222  b */\n      dup3\n        /* \"@openzeppelin/contracts/utils/math/SafeMath.sol\":3221:3227  b <= a */\n      gt\n      iszero\n        /* \"@openzeppelin/contracts/utils/math/SafeMath.sol\":3213:3262  require(b <= a, \"SafeMath: subtraction overflow\") */\n      tag_260\n      jumpi\n      mload(0x40)\n      0x08c379a000000000000000000000000000000000000000000000000000000000\n      dup2\n      mstore\n      0x04\n      add\n      dup1\n      dup1\n      0x20\n      add\n      dup3\n      dup2\n      sub\n      dup3\n      mstore\n      0x1e\n      dup2\n      mstore\n      0x20\n      add\n      dup1\n      0x536166654d6174683a207375627472616374696f6e206f766572666c6f770000\n      dup2\n      mstore\n      pop\n      0x20\n      add\n      swap2\n      pop\n      pop\n      mload(0x40)\n      dup1\n      swap2\n      sub\n      swap1\n      revert\n    tag_260:\n        /* \"@openzeppelin/contracts/utils/math/SafeMath.sol\":3283:3284  b */\n      dup2\n        /* \"@openzeppelin/contracts/utils/math/SafeMath.sol\":3279:3280  a */\n      dup4\n        /* \"@openzeppelin/contracts/utils/math/SafeMath.sol\":3279:3284  a - b */\n      sub\n        /* \"@openzeppelin/contracts/utils/math/SafeMath.sol\":3272:3284  return a - b */\n      swap1\n      pop\n        /* \"@openzeppelin/contracts/utils/math/SafeMath.sol\":3136:3291  function sub(uint256 a, uint256 b) internal pure returns (uint256) {... */\n      swap3\n      swap2\n      pop\n      pop\n      jump\t// out\n        /* \"@openzeppelin/contracts/utils/math/SafeMath.sol\":2690:2865  function add(uint256 a, uint256 b) internal pure returns (uint256) {... */\n    tag_116:\n        /* \"@openzeppelin/contracts/utils/math/SafeMath.sol\":2748:2755  uint256 */\n      0x00\n        /* \"@openzeppelin/contracts/utils/math/SafeMath.sol\":2767:2776  uint256 c */\n      dup1\n        /* \"@openzeppelin/contracts/utils/math/SafeMath.sol\":2783:2784  b */\n      dup3\n        /* \"@openzeppelin/contracts/utils/math/SafeMath.sol\":2779:2780  a */\n      dup5\n        /* \"@openzeppelin/contracts/utils/math/SafeMath.sol\":2779:2784  a + b */\n      add\n        /* \"@openzeppelin/contracts/utils/math/SafeMath.sol\":2767:2784  uint256 c = a + b */\n      swap1\n      pop\n        /* \"@openzeppelin/contracts/utils/math/SafeMath.sol\":2807:2808  a */\n      dup4\n        /* \"@openzeppelin/contracts/utils/math/SafeMath.sol\":2802:2803  c */\n      dup2\n        /* \"@openzeppelin/contracts/utils/math/SafeMath.sol\":2802:2808  c >= a */\n      lt\n      iszero\n        /* \"@openzeppelin/contracts/utils/math/SafeMath.sol\":2794:2840  require(c >= a, \"SafeMath: addition overflow\") */\n      tag_262\n      jumpi\n      mload(0x40)\n      0x08c379a000000000000000000000000000000000000000000000000000000000\n      dup2\n      mstore\n      0x04\n      add\n      dup1\n      dup1\n      0x20\n      add\n      dup3\n      dup2\n      sub\n      dup3\n      mstore\n      0x1b\n      dup2\n      mstore\n      0x20\n      add\n      dup1\n      0x536166654d6174683a206164646974696f6e206f766572666c6f770000000000\n      dup2\n      mstore\n      pop\n      0x20\n      add\n      swap2\n      pop\n      pop\n      mload(0x40)\n      dup1\n      swap2\n      sub\n      swap1\n      revert\n    tag_262:\n        /* \"@openzeppelin/contracts/utils/math/SafeMath.sol\":2857:2858  c */\n      dup1\n        /* \"@openzeppelin/contracts/utils/math/SafeMath.sol\":2850:2858  return c */\n      swap2\n      pop\n      pop\n        /* \"@openzeppelin/contracts/utils/math/SafeMath.sol\":2690:2865  function add(uint256 a, uint256 b) internal pure returns (uint256) {... */\n      swap3\n      swap2\n      pop\n      pop\n      jump\t// out\n        /* \"@openzeppelin/contracts/utils/math/SafeMath.sol\":3538:3753  function mul(uint256 a, uint256 b) internal pure returns (uint256) {... */\n    tag_124:\n        /* \"@openzeppelin/contracts/utils/math/SafeMath.sol\":3596:3603  uint256 */\n      0x00\n        /* \"@openzeppelin/contracts/utils/math/SafeMath.sol\":3624:3625  0 */\n      dup1\n        /* \"@openzeppelin/contracts/utils/math/SafeMath.sol\":3619:3620  a */\n      dup4\n        /* \"@openzeppelin/contracts/utils/math/SafeMath.sol\":3619:3625  a == 0 */\n      eq\n        /* \"@openzeppelin/contracts/utils/math/SafeMath.sol\":3615:3635  if (a == 0) return 0 */\n      iszero\n      tag_264\n      jumpi\n        /* \"@openzeppelin/contracts/utils/math/SafeMath.sol\":3634:3635  0 */\n      0x00\n        /* \"@openzeppelin/contracts/utils/math/SafeMath.sol\":3627:3635  return 0 */\n      swap1\n      pop\n      jump(tag_263)\n        /* \"@openzeppelin/contracts/utils/math/SafeMath.sol\":3615:3635  if (a == 0) return 0 */\n    tag_264:\n        /* \"@openzeppelin/contracts/utils/math/SafeMath.sol\":3645:3654  uint256 c */\n      0x00\n        /* \"@openzeppelin/contracts/utils/math/SafeMath.sol\":3661:3662  b */\n      dup3\n        /* \"@openzeppelin/contracts/utils/math/SafeMath.sol\":3657:3658  a */\n      dup5\n        /* \"@openzeppelin/contracts/utils/math/SafeMath.sol\":3657:3662  a * b */\n      mul\n        /* \"@openzeppelin/contracts/utils/math/SafeMath.sol\":3645:3662  uint256 c = a * b */\n      swap1\n      pop\n        /* \"@openzeppelin/contracts/utils/math/SafeMath.sol\":3689:3690  b */\n      dup3\n        /* \"@openzeppelin/contracts/utils/math/SafeMath.sol\":3684:3685  a */\n      dup5\n        /* \"@openzeppelin/contracts/utils/math/SafeMath.sol\":3680:3681  c */\n      dup3\n        /* \"@openzeppelin/contracts/utils/math/SafeMath.sol\":3680:3685  c / a */\n      dup2\n      tag_265\n      jumpi\n      invalid\n    tag_265:\n      div\n        /* \"@openzeppelin/contracts/utils/math/SafeMath.sol\":3680:3690  c / a == b */\n      eq\n        /* \"@openzeppelin/contracts/utils/math/SafeMath.sol\":3672:3728  require(c / a == b, \"SafeMath: multiplication overflow\") */\n      tag_266\n      jumpi\n      mload(0x40)\n      0x08c379a000000000000000000000000000000000000000000000000000000000\n      dup2\n      mstore\n      0x04\n      add\n      dup1\n      dup1\n      0x20\n      add\n      dup3\n      dup2\n      sub\n      dup3\n      mstore\n      0x21\n      dup2\n      mstore\n      0x20\n      add\n      dup1\n      data_9113bb53c2876a3805b2c9242029423fc540a728243ce887ab24c82cf119fba3\n      0x21\n      swap2\n      codecopy\n      0x40\n      add\n      swap2\n      pop\n      pop\n      mload(0x40)\n      dup1\n      swap2\n      sub\n      swap1\n      revert\n    tag_266:\n        /* \"@openzeppelin/contracts/utils/math/SafeMath.sol\":3745:3746  c */\n      dup1\n        /* \"@openzeppelin/contracts/utils/math/SafeMath.sol\":3738:3746  return c */\n      swap2\n      pop\n      pop\n        /* \"@openzeppelin/contracts/utils/math/SafeMath.sol\":3538:3753  function mul(uint256 a, uint256 b) internal pure returns (uint256) {... */\n    tag_263:\n      swap3\n      swap2\n      pop\n      pop\n      jump\t// out\n        /* \"@openzeppelin/contracts/utils/math/SafeMath.sol\":4217:4367  function div(uint256 a, uint256 b) internal pure returns (uint256) {... */\n    tag_147:\n        /* \"@openzeppelin/contracts/utils/math/SafeMath.sol\":4275:4282  uint256 */\n      0x00\n        /* \"@openzeppelin/contracts/utils/math/SafeMath.sol\":4306:4307  0 */\n      dup1\n        /* \"@openzeppelin/contracts/utils/math/SafeMath.sol\":4302:4303  b */\n      dup3\n        /* \"@openzeppelin/contracts/utils/math/SafeMath.sol\":4302:4307  b > 0 */\n      gt\n        /* \"@openzeppelin/contracts/utils/math/SafeMath.sol\":4294:4338  require(b > 0, \"SafeMath: division by zero\") */\n      tag_268\n      jumpi\n      mload(0x40)\n      0x08c379a000000000000000000000000000000000000000000000000000000000\n      dup2\n      mstore\n      0x04\n      add\n      dup1\n      dup1\n      0x20\n      add\n      dup3\n      dup2\n      sub\n      dup3\n      mstore\n      0x1a\n      dup2\n      mstore\n      0x20\n      add\n      dup1\n      0x536166654d6174683a206469766973696f6e206279207a65726f000000000000\n      dup2\n      mstore\n      pop\n      0x20\n      add\n      swap2\n      pop\n      pop\n      mload(0x40)\n      dup1\n      swap2\n      sub\n      swap1\n      revert\n    tag_268:\n        /* \"@openzeppelin/contracts/utils/math/SafeMath.sol\":4359:4360  b */\n      dup2\n        /* \"@openzeppelin/contracts/utils/math/SafeMath.sol\":4355:4356  a */\n      dup4\n        /* \"@openzeppelin/contracts/utils/math/SafeMath.sol\":4355:4360  a / b */\n      dup2\n      tag_269\n      jumpi\n      invalid\n    tag_269:\n      div\n        /* \"@openzeppelin/contracts/utils/math/SafeMath.sol\":4348:4360  return a / b */\n      swap1\n      pop\n        /* \"@openzeppelin/contracts/utils/math/SafeMath.sol\":4217:4367  function div(uint256 a, uint256 b) internal pure returns (uint256) {... */\n      swap3\n      swap2\n      pop\n      pop\n      jump\t// out\n        /* \"contracts-encrypt/distribution/TShareRewardPool.sol\":11477:11850  function safeEcShareTransfer(address _to, uint256 _amount) internal {\r... */\n    tag_150:\n        /* \"contracts-encrypt/distribution/TShareRewardPool.sol\":11556:11575  uint256 _EcShareBal */\n      0x00\n        /* \"contracts-encrypt/distribution/TShareRewardPool.sol\":11578:11585  EcShare */\n      0x01\n      0x00\n      swap1\n      sload\n      swap1\n      0x0100\n      exp\n      swap1\n      div\n      0xffffffffffffffffffffffffffffffffffffffff\n      and\n        /* \"contracts-encrypt/distribution/TShareRewardPool.sol\":11578:11595  EcShare.balanceOf */\n      0xffffffffffffffffffffffffffffffffffffffff\n      and\n      0x70a08231\n        /* \"contracts-encrypt/distribution/TShareRewardPool.sol\":11604:11608  this */\n      address\n        /* \"contracts-encrypt/distribution/TShareRewardPool.sol\":11578:11610  EcShare.balanceOf(address(this)) */\n      mload(0x40)\n      dup3\n      0xffffffff\n      and\n      0xe0\n      shl\n      dup2\n      mstore\n      0x04\n      add\n      dup1\n      dup3\n      0xffffffffffffffffffffffffffffffffffffffff\n      and\n      dup2\n      mstore\n      0x20\n      add\n      swap2\n      pop\n      pop\n      0x20\n      mload(0x40)\n      dup1\n      dup4\n      sub\n      dup2\n      dup7\n      dup1\n      extcodesize\n      iszero\n      dup1\n      iszero\n      tag_271\n      jumpi\n      0x00\n      dup1\n      revert\n    tag_271:\n      pop\n      gas\n      staticcall\n      iszero\n      dup1\n      iszero\n      tag_273\n      jumpi\n      returndatasize\n      0x00\n      dup1\n      returndatacopy\n      revert(0x00, returndatasize)\n    tag_273:\n      pop\n      pop\n      pop\n      pop\n      mload(0x40)\n      returndatasize\n      0x20\n      dup2\n      lt\n      iszero\n      tag_274\n      jumpi\n      0x00\n      dup1\n      revert\n    tag_274:\n      dup2\n      add\n      swap1\n      dup1\n      dup1\n      mload\n      swap1\n      0x20\n      add\n      swap1\n      swap3\n      swap2\n      swap1\n      pop\n      pop\n      pop\n        /* \"contracts-encrypt/distribution/TShareRewardPool.sol\":11556:11610  uint256 _EcShareBal = EcShare.balanceOf(address(this)) */\n      swap1\n      pop\n        /* \"contracts-encrypt/distribution/TShareRewardPool.sol\":11639:11640  0 */\n      0x00\n        /* \"contracts-encrypt/distribution/TShareRewardPool.sol\":11625:11636  _EcShareBal */\n      dup2\n        /* \"contracts-encrypt/distribution/TShareRewardPool.sol\":11625:11640  _EcShareBal > 0 */\n      gt\n        /* \"contracts-encrypt/distribution/TShareRewardPool.sol\":11621:11843  if (_EcShareBal > 0) {\r... */\n      iszero\n      tag_275\n      jumpi\n        /* \"contracts-encrypt/distribution/TShareRewardPool.sol\":11671:11682  _EcShareBal */\n      dup1\n        /* \"contracts-encrypt/distribution/TShareRewardPool.sol\":11661:11668  _amount */\n      dup3\n        /* \"contracts-encrypt/distribution/TShareRewardPool.sol\":11661:11682  _amount > _EcShareBal */\n      gt\n        /* \"contracts-encrypt/distribution/TShareRewardPool.sol\":11657:11832  if (_amount > _EcShareBal) {\r... */\n      iszero\n      tag_276\n      jumpi\n        /* \"contracts-encrypt/distribution/TShareRewardPool.sol\":11703:11741  EcShare.safeTransfer(_to, _EcShareBal) */\n      tag_277\n        /* \"contracts-encrypt/distribution/TShareRewardPool.sol\":11724:11727  _to */\n      dup4\n        /* \"contracts-encrypt/distribution/TShareRewardPool.sol\":11729:11740  _EcShareBal */\n      dup3\n        /* \"contracts-encrypt/distribution/TShareRewardPool.sol\":11703:11710  EcShare */\n      0x01\n      0x00\n      swap1\n      sload\n      swap1\n      0x0100\n      exp\n      swap1\n      div\n      0xffffffffffffffffffffffffffffffffffffffff\n      and\n        /* \"contracts-encrypt/distribution/TShareRewardPool.sol\":11703:11723  EcShare.safeTransfer */\n      0xffffffffffffffffffffffffffffffffffffffff\n      and\n      tag_154\n      swap1\n        /* \"contracts-encrypt/distribution/TShareRewardPool.sol\":11703:11741  EcShare.safeTransfer(_to, _EcShareBal) */\n      swap3\n      swap2\n      swap1\n      0xffffffff\n      and\n      jump\t// in\n    tag_277:\n        /* \"contracts-encrypt/distribution/TShareRewardPool.sol\":11657:11832  if (_amount > _EcShareBal) {\r... */\n      jump(tag_278)\n    tag_276:\n        /* \"contracts-encrypt/distribution/TShareRewardPool.sol\":11782:11816  EcShare.safeTransfer(_to, _amount) */\n      tag_279\n        /* \"contracts-encrypt/distribution/TShareRewardPool.sol\":11803:11806  _to */\n      dup4\n        /* \"contracts-encrypt/distribution/TShareRewardPool.sol\":11808:11815  _amount */\n      dup4\n        /* \"contracts-encrypt/distribution/TShareRewardPool.sol\":11782:11789  EcShare */\n      0x01\n      0x00\n      swap1\n      sload\n      swap1\n      0x0100\n      exp\n      swap1\n      div\n      0xffffffffffffffffffffffffffffffffffffffff\n      and\n        /* \"contracts-encrypt/distribution/TShareRewardPool.sol\":11782:11802  EcShare.safeTransfer */\n      0xffffffffffffffffffffffffffffffffffffffff\n      and\n      tag_154\n      swap1\n        /* \"contracts-encrypt/distribution/TShareRewardPool.sol\":11782:11816  EcShare.safeTransfer(_to, _amount) */\n      swap3\n      swap2\n      swap1\n      0xffffffff\n      and\n      jump\t// in\n    tag_279:\n        /* \"contracts-encrypt/distribution/TShareRewardPool.sol\":11657:11832  if (_amount > _EcShareBal) {\r... */\n    tag_278:\n        /* \"contracts-encrypt/distribution/TShareRewardPool.sol\":11621:11843  if (_EcShareBal > 0) {\r... */\n    tag_275:\n        /* \"contracts-encrypt/distribution/TShareRewardPool.sol\":11477:11850  function safeEcShareTransfer(address _to, uint256 _amount) internal {\r... */\n      pop\n      pop\n      pop\n      jump\t// out\n        /* \"@openzeppelin/contracts/token/ERC20/utils/SafeERC20.sol\":717:892  function safeTransfer(IERC20 token, address to, uint256 value) internal {... */\n    tag_154:\n        /* \"@openzeppelin/contracts/token/ERC20/utils/SafeERC20.sol\":799:885  _callOptionalReturn(token, abi.encodeWithSelector(token.transfer.selector, to, value)) */\n      tag_281\n        /* \"@openzeppelin/contracts/token/ERC20/utils/SafeERC20.sol\":819:824  token */\n      dup4\n        /* \"@openzeppelin/contracts/token/ERC20/utils/SafeERC20.sol\":849:872  token.transfer.selector */\n      shl(0xe0, 0xa9059cbb)\n        /* \"@openzeppelin/contracts/token/ERC20/utils/SafeERC20.sol\":874:876  to */\n      dup5\n        /* \"@openzeppelin/contracts/token/ERC20/utils/SafeERC20.sol\":878:883  value */\n      dup5\n        /* \"@openzeppelin/contracts/token/ERC20/utils/SafeERC20.sol\":826:884  abi.encodeWithSelector(token.transfer.selector, to, value) */\n      add(0x24, mload(0x40))\n      dup1\n      dup4\n      0xffffffffffffffffffffffffffffffffffffffff\n      and\n      dup2\n      mstore\n      0x20\n      add\n      dup3\n      dup2\n      mstore\n      0x20\n      add\n      swap3\n      pop\n      pop\n      pop\n      mload(0x40)\n      0x20\n      dup2\n      dup4\n      sub\n      sub\n      dup2\n      mstore\n      swap1\n      0x40\n      mstore\n      swap1\n      not(0xffffffffffffffffffffffffffffffffffffffffffffffffffffffff)\n      and\n      0x20\n      dup3\n      add\n      dup1\n      mload\n      0xffffffffffffffffffffffffffffffffffffffffffffffffffffffff\n      dup4\n      dup2\n      dup4\n      and\n      or\n      dup4\n      mstore\n      pop\n      pop\n      pop\n      pop\n        /* \"@openzeppelin/contracts/token/ERC20/utils/SafeERC20.sol\":799:818  _callOptionalReturn */\n      tag_282\n        /* \"@openzeppelin/contracts/token/ERC20/utils/SafeERC20.sol\":799:885  _callOptionalReturn(token, abi.encodeWithSelector(token.transfer.selector, to, value)) */\n      jump\t// in\n    tag_281:\n        /* \"@openzeppelin/contracts/token/ERC20/utils/SafeERC20.sol\":717:892  function safeTransfer(IERC20 token, address to, uint256 value) internal {... */\n      pop\n      pop\n      pop\n      jump\t// out\n        /* \"contracts-encrypt/distribution/TShareRewardPool.sol\":3340:3652  function checkPoolDuplicate(IERC20 _token) internal view {\r... */\n    tag_200:\n        /* \"contracts-encrypt/distribution/TShareRewardPool.sol\":3408:3422  uint256 length */\n      0x00\n        /* \"contracts-encrypt/distribution/TShareRewardPool.sol\":3425:3433  poolInfo */\n      0x02\n        /* \"contracts-encrypt/distribution/TShareRewardPool.sol\":3425:3440  poolInfo.length */\n      dup1\n      sload\n      swap1\n      pop\n        /* \"contracts-encrypt/distribution/TShareRewardPool.sol\":3408:3440  uint256 length = poolInfo.length */\n      swap1\n      pop\n        /* \"contracts-encrypt/distribution/TShareRewardPool.sol\":3456:3467  uint256 pid */\n      0x00\n        /* \"contracts-encrypt/distribution/TShareRewardPool.sol\":3451:3645  for (uint256 pid = 0; pid < length; ++pid) {\r... */\n    tag_284:\n        /* \"contracts-encrypt/distribution/TShareRewardPool.sol\":3479:3485  length */\n      dup2\n        /* \"contracts-encrypt/distribution/TShareRewardPool.sol\":3473:3476  pid */\n      dup2\n        /* \"contracts-encrypt/distribution/TShareRewardPool.sol\":3473:3485  pid < length */\n      lt\n        /* \"contracts-encrypt/distribution/TShareRewardPool.sol\":3451:3645  for (uint256 pid = 0; pid < length; ++pid) {\r... */\n      iszero\n      tag_285\n      jumpi\n        /* \"contracts-encrypt/distribution/TShareRewardPool.sol\":3558:3564  _token */\n      dup3\n        /* \"contracts-encrypt/distribution/TShareRewardPool.sol\":3535:3564  poolInfo[pid].token != _token */\n      0xffffffffffffffffffffffffffffffffffffffff\n      and\n        /* \"contracts-encrypt/distribution/TShareRewardPool.sol\":3535:3543  poolInfo */\n      0x02\n        /* \"contracts-encrypt/distribution/TShareRewardPool.sol\":3544:3547  pid */\n      dup3\n        /* \"contracts-encrypt/distribution/TShareRewardPool.sol\":3535:3548  poolInfo[pid] */\n      dup2\n      sload\n      dup2\n      lt\n      tag_287\n      jumpi\n      invalid\n    tag_287:\n      swap1\n      0x00\n      mstore\n      keccak256(0x00, 0x20)\n      swap1\n      0x05\n      mul\n      add\n        /* \"contracts-encrypt/distribution/TShareRewardPool.sol\":3535:3554  poolInfo[pid].token */\n      0x00\n      add\n      0x00\n      swap1\n      sload\n      swap1\n      0x0100\n      exp\n      swap1\n      div\n      0xffffffffffffffffffffffffffffffffffffffff\n      and\n        /* \"contracts-encrypt/distribution/TShareRewardPool.sol\":3535:3564  poolInfo[pid].token != _token */\n      0xffffffffffffffffffffffffffffffffffffffff\n      and\n      eq\n      iszero\n        /* \"contracts-encrypt/distribution/TShareRewardPool.sol\":3509:3633  require(\r... */\n      tag_289\n      jumpi\n      mload(0x40)\n      0x08c379a000000000000000000000000000000000000000000000000000000000\n      dup2\n      mstore\n      0x04\n      add\n      dup1\n      dup1\n      0x20\n      add\n      dup3\n      dup2\n      sub\n      dup3\n      mstore\n      0x21\n      dup2\n      mstore\n      0x20\n      add\n      dup1\n      data_9f64b7d06dd214aacf2363dfb61fccd88221cd77df32fc9bf1a923bfcb805b88\n      0x21\n      swap2\n      codecopy\n      0x40\n      add\n      swap2\n      pop\n      pop\n      mload(0x40)\n      dup1\n      swap2\n      sub\n      swap1\n      revert\n    tag_289:\n        /* \"contracts-encrypt/distribution/TShareRewardPool.sol\":3487:3492  ++pid */\n      dup1\n      0x01\n      add\n      swap1\n      pop\n        /* \"contracts-encrypt/distribution/TShareRewardPool.sol\":3451:3645  for (uint256 pid = 0; pid < length; ++pid) {\r... */\n      jump(tag_284)\n    tag_285:\n      pop\n        /* \"contracts-encrypt/distribution/TShareRewardPool.sol\":3340:3652  function checkPoolDuplicate(IERC20 _token) internal view {\r... */\n      pop\n      pop\n      jump\t// out\n        /* \"contracts-encrypt/distribution/TShareRewardPool.sol\":8711:8910  function _fees(uint256 _amount) internal view returns (uint256) {\r... */\n    tag_241:\n        /* \"contracts-encrypt/distribution/TShareRewardPool.sol\":8766:8773  uint256 */\n      0x00\n        /* \"contracts-encrypt/distribution/TShareRewardPool.sol\":8786:8798  uint256 _old */\n      dup1\n        /* \"contracts-encrypt/distribution/TShareRewardPool.sol\":8801:8818  _amount.ceil(Fee) */\n      tag_291\n        /* \"contracts-encrypt/distribution/TShareRewardPool.sol\":8814:8817  Fee */\n      sload(0x05)\n        /* \"contracts-encrypt/distribution/TShareRewardPool.sol\":8801:8808  _amount */\n      dup5\n        /* \"contracts-encrypt/distribution/TShareRewardPool.sol\":8801:8813  _amount.ceil */\n      tag_292\n      swap1\n        /* \"contracts-encrypt/distribution/TShareRewardPool.sol\":8801:8818  _amount.ceil(Fee) */\n      swap2\n      swap1\n      0xffffffff\n      and\n      jump\t// in\n    tag_291:\n        /* \"contracts-encrypt/distribution/TShareRewardPool.sol\":8786:8818  uint256 _old = _amount.ceil(Fee) */\n      swap1\n      pop\n        /* \"contracts-encrypt/distribution/TShareRewardPool.sol\":8829:8847  uint256 _newAmount */\n      0x00\n        /* \"contracts-encrypt/distribution/TShareRewardPool.sol\":8850:8874  _old.mul(Fee).div(10000) */\n      tag_293\n        /* \"contracts-encrypt/distribution/TShareRewardPool.sol\":8868:8873  10000 */\n      0x2710\n        /* \"contracts-encrypt/distribution/TShareRewardPool.sol\":8850:8863  _old.mul(Fee) */\n      tag_294\n        /* \"contracts-encrypt/distribution/TShareRewardPool.sol\":8859:8862  Fee */\n      sload(0x05)\n        /* \"contracts-encrypt/distribution/TShareRewardPool.sol\":8850:8854  _old */\n      dup6\n        /* \"contracts-encrypt/distribution/TShareRewardPool.sol\":8850:8858  _old.mul */\n      tag_124\n      swap1\n        /* \"contracts-encrypt/distribution/TShareRewardPool.sol\":8850:8863  _old.mul(Fee) */\n      swap2\n      swap1\n      0xffffffff\n      and\n      jump\t// in\n    tag_294:\n        /* \"contracts-encrypt/distribution/TShareRewardPool.sol\":8850:8867  _old.mul(Fee).div */\n      tag_147\n      swap1\n        /* \"contracts-encrypt/distribution/TShareRewardPool.sol\":8850:8874  _old.mul(Fee).div(10000) */\n      swap2\n      swap1\n      0xffffffff\n      and\n      jump\t// in\n    tag_293:\n        /* \"contracts-encrypt/distribution/TShareRewardPool.sol\":8829:8874  uint256 _newAmount = _old.mul(Fee).div(10000) */\n      swap1\n      pop\n        /* \"contracts-encrypt/distribution/TShareRewardPool.sol\":8892:8902  _newAmount */\n      dup1\n        /* \"contracts-encrypt/distribution/TShareRewardPool.sol\":8885:8902  return _newAmount */\n      swap3\n      pop\n      pop\n      pop\n        /* \"contracts-encrypt/distribution/TShareRewardPool.sol\":8711:8910  function _fees(uint256 _amount) internal view returns (uint256) {\r... */\n      swap2\n      swap1\n      pop\n      jump\t// out\n        /* \"@openzeppelin/contracts/token/ERC20/utils/SafeERC20.sol\":898:1101  function safeTransferFrom(IERC20 token, address from, address to, uint256 value) internal {... */\n    tag_254:\n        /* \"@openzeppelin/contracts/token/ERC20/utils/SafeERC20.sol\":998:1094  _callOptionalReturn(token, abi.encodeWithSelector(token.transferFrom.selector, from, to, value)) */\n      tag_296\n        /* \"@openzeppelin/contracts/token/ERC20/utils/SafeERC20.sol\":1018:1023  token */\n      dup5\n        /* \"@openzeppelin/contracts/token/ERC20/utils/SafeERC20.sol\":1048:1075  token.transferFrom.selector */\n      shl(0xe0, 0x23b872dd)\n        /* \"@openzeppelin/contracts/token/ERC20/utils/SafeERC20.sol\":1077:1081  from */\n      dup6\n        /* \"@openzeppelin/contracts/token/ERC20/utils/SafeERC20.sol\":1083:1085  to */\n      dup6\n        /* \"@openzeppelin/contracts/token/ERC20/utils/SafeERC20.sol\":1087:1092  value */\n      dup6\n        /* \"@openzeppelin/contracts/token/ERC20/utils/SafeERC20.sol\":1025:1093  abi.encodeWithSelector(token.transferFrom.selector, from, to, value) */\n      add(0x24, mload(0x40))\n      dup1\n      dup5\n      0xffffffffffffffffffffffffffffffffffffffff\n      and\n      dup2\n      mstore\n      0x20\n      add\n      dup4\n      0xffffffffffffffffffffffffffffffffffffffff\n      and\n      dup2\n      mstore\n      0x20\n      add\n      dup3\n      dup2\n      mstore\n      0x20\n      add\n      swap4\n      pop\n      pop\n      pop\n      pop\n      mload(0x40)\n      0x20\n      dup2\n      dup4\n      sub\n      sub\n      dup2\n      mstore\n      swap1\n      0x40\n      mstore\n      swap1\n      not(0xffffffffffffffffffffffffffffffffffffffffffffffffffffffff)\n      and\n      0x20\n      dup3\n      add\n      dup1\n      mload\n      0xffffffffffffffffffffffffffffffffffffffffffffffffffffffff\n      dup4\n      dup2\n      dup4\n      and\n      or\n      dup4\n      mstore\n      pop\n      pop\n      pop\n      pop\n        /* \"@openzeppelin/contracts/token/ERC20/utils/SafeERC20.sol\":998:1017  _callOptionalReturn */\n      tag_282\n        /* \"@openzeppelin/contracts/token/ERC20/utils/SafeERC20.sol\":998:1094  _callOptionalReturn(token, abi.encodeWithSelector(token.transferFrom.selector, from, to, value)) */\n      jump\t// in\n    tag_296:\n        /* \"@openzeppelin/contracts/token/ERC20/utils/SafeERC20.sol\":898:1101  function safeTransferFrom(IERC20 token, address from, address to, uint256 value) internal {... */\n      pop\n      pop\n      pop\n      pop\n      jump\t// out\n        /* \"@openzeppelin/contracts/token/ERC20/utils/SafeERC20.sol\":2980:3731  function _callOptionalReturn(IERC20 token, bytes memory data) private {... */\n    tag_282:\n        /* \"@openzeppelin/contracts/token/ERC20/utils/SafeERC20.sol\":3399:3422  bytes memory returndata */\n      0x60\n        /* \"@openzeppelin/contracts/token/ERC20/utils/SafeERC20.sol\":3425:3494  address(token).functionCall(data, \"SafeERC20: low-level call failed\") */\n      tag_298\n        /* \"@openzeppelin/contracts/token/ERC20/utils/SafeERC20.sol\":3453:3457  data */\n      dup3\n        /* \"@openzeppelin/contracts/token/ERC20/utils/SafeERC20.sol\":3425:3494  address(token).functionCall(data, \"SafeERC20: low-level call failed\") */\n      mload(0x40)\n      dup1\n      0x40\n      add\n      0x40\n      mstore\n      dup1\n      0x20\n      dup2\n      mstore\n      0x20\n      add\n      0x5361666545524332303a206c6f772d6c6576656c2063616c6c206661696c6564\n      dup2\n      mstore\n      pop\n        /* \"@openzeppelin/contracts/token/ERC20/utils/SafeERC20.sol\":3433:3438  token */\n      dup6\n        /* \"@openzeppelin/contracts/token/ERC20/utils/SafeERC20.sol\":3425:3452  address(token).functionCall */\n      0xffffffffffffffffffffffffffffffffffffffff\n      and\n      tag_299\n      swap1\n        /* \"@openzeppelin/contracts/token/ERC20/utils/SafeERC20.sol\":3425:3494  address(token).functionCall(data, \"SafeERC20: low-level call failed\") */\n      swap3\n      swap2\n      swap1\n      0xffffffff\n      and\n      jump\t// in\n    tag_298:\n        /* \"@openzeppelin/contracts/token/ERC20/utils/SafeERC20.sol\":3399:3494  bytes memory returndata = address(token).functionCall(data, \"SafeERC20: low-level call failed\") */\n      swap1\n      pop\n        /* \"@openzeppelin/contracts/token/ERC20/utils/SafeERC20.sol\":3528:3529  0 */\n      0x00\n        /* \"@openzeppelin/contracts/token/ERC20/utils/SafeERC20.sol\":3508:3518  returndata */\n      dup2\n        /* \"@openzeppelin/contracts/token/ERC20/utils/SafeERC20.sol\":3508:3525  returndata.length */\n      mload\n        /* \"@openzeppelin/contracts/token/ERC20/utils/SafeERC20.sol\":3508:3529  returndata.length > 0 */\n      gt\n        /* \"@openzeppelin/contracts/token/ERC20/utils/SafeERC20.sol\":3504:3725  if (returndata.length > 0) { // Return data is optional... */\n      iszero\n      tag_300\n      jumpi\n        /* \"@openzeppelin/contracts/token/ERC20/utils/SafeERC20.sol\":3648:3658  returndata */\n      dup1\n        /* \"@openzeppelin/contracts/token/ERC20/utils/SafeERC20.sol\":3637:3667  abi.decode(returndata, (bool)) */\n      dup1\n      0x20\n      add\n      swap1\n      mload\n      0x20\n      dup2\n      lt\n      iszero\n      tag_301\n      jumpi\n      0x00\n      dup1\n      revert\n    tag_301:\n      dup2\n      add\n      swap1\n      dup1\n      dup1\n      mload\n      swap1\n      0x20\n      add\n      swap1\n      swap3\n      swap2\n      swap1\n      pop\n      pop\n      pop\n        /* \"@openzeppelin/contracts/token/ERC20/utils/SafeERC20.sol\":3629:3714  require(abi.decode(returndata, (bool)), \"SafeERC20: ERC20 operation did not succeed\") */\n      tag_302\n      jumpi\n      mload(0x40)\n      0x08c379a000000000000000000000000000000000000000000000000000000000\n      dup2\n      mstore\n      0x04\n      add\n      dup1\n      dup1\n      0x20\n      add\n      dup3\n      dup2\n      sub\n      dup3\n      mstore\n      0x2a\n      dup2\n      mstore\n      0x20\n      add\n      dup1\n      data_e11ad79d1e4a7f2e5f376964cb99e8e8f7904e3fc16a109f7a7ecb9aa7956dcd\n      0x2a\n      swap2\n      codecopy\n      0x40\n      add\n      swap2\n      pop\n      pop\n      mload(0x40)\n      dup1\n      swap2\n      sub\n      swap1\n      revert\n    tag_302:\n        /* \"@openzeppelin/contracts/token/ERC20/utils/SafeERC20.sol\":3504:3725  if (returndata.length > 0) { // Return data is optional... */\n    tag_300:\n        /* \"@openzeppelin/contracts/token/ERC20/utils/SafeERC20.sol\":2980:3731  function _callOptionalReturn(IERC20 token, bytes memory data) private {... */\n      pop\n      pop\n      pop\n      jump\t// out\n        /* \"@openzeppelin/contracts/utils/math/SafeMath.sol\":5601:5772  function ceil(uint256 a, uint256 m) internal pure returns (uint256) {... */\n    tag_292:\n        /* \"@openzeppelin/contracts/utils/math/SafeMath.sol\":5660:5667  uint256 */\n      0x00\n        /* \"@openzeppelin/contracts/utils/math/SafeMath.sol\":5679:5688  uint256 c */\n      dup1\n        /* \"@openzeppelin/contracts/utils/math/SafeMath.sol\":5691:5700  add(a, m) */\n      tag_304\n        /* \"@openzeppelin/contracts/utils/math/SafeMath.sol\":5695:5696  a */\n      dup5\n        /* \"@openzeppelin/contracts/utils/math/SafeMath.sol\":5698:5699  m */\n      dup5\n        /* \"@openzeppelin/contracts/utils/math/SafeMath.sol\":5691:5694  add */\n      tag_116\n        /* \"@openzeppelin/contracts/utils/math/SafeMath.sol\":5691:5700  add(a, m) */\n      jump\t// in\n    tag_304:\n        /* \"@openzeppelin/contracts/utils/math/SafeMath.sol\":5679:5700  uint256 c = add(a, m) */\n      swap1\n      pop\n        /* \"@openzeppelin/contracts/utils/math/SafeMath.sol\":5710:5719  uint256 d */\n      0x00\n        /* \"@openzeppelin/contracts/utils/math/SafeMath.sol\":5722:5731  sub(c, 1) */\n      tag_305\n        /* \"@openzeppelin/contracts/utils/math/SafeMath.sol\":5726:5727  c */\n      dup3\n        /* \"@openzeppelin/contracts/utils/math/SafeMath.sol\":5729:5730  1 */\n      0x01\n        /* \"@openzeppelin/contracts/utils/math/SafeMath.sol\":5722:5725  sub */\n      tag_115\n        /* \"@openzeppelin/contracts/utils/math/SafeMath.sol\":5722:5731  sub(c, 1) */\n      jump\t// in\n    tag_305:\n        /* \"@openzeppelin/contracts/utils/math/SafeMath.sol\":5710:5731  uint256 d = sub(c, 1) */\n      swap1\n      pop\n        /* \"@openzeppelin/contracts/utils/math/SafeMath.sol\":5748:5765  mul(div(d, m), m) */\n      tag_306\n        /* \"@openzeppelin/contracts/utils/math/SafeMath.sol\":5752:5761  div(d, m) */\n      tag_307\n        /* \"@openzeppelin/contracts/utils/math/SafeMath.sol\":5756:5757  d */\n      dup3\n        /* \"@openzeppelin/contracts/utils/math/SafeMath.sol\":5759:5760  m */\n      dup7\n        /* \"@openzeppelin/contracts/utils/math/SafeMath.sol\":5752:5755  div */\n      tag_147\n        /* \"@openzeppelin/contracts/utils/math/SafeMath.sol\":5752:5761  div(d, m) */\n      jump\t// in\n    tag_307:\n        /* \"@openzeppelin/contracts/utils/math/SafeMath.sol\":5763:5764  m */\n      dup6\n        /* \"@openzeppelin/contracts/utils/math/SafeMath.sol\":5748:5751  mul */\n      tag_124\n        /* \"@openzeppelin/contracts/utils/math/SafeMath.sol\":5748:5765  mul(div(d, m), m) */\n      jump\t// in\n    tag_306:\n        /* \"@openzeppelin/contracts/utils/math/SafeMath.sol\":5741:5765  return mul(div(d, m), m) */\n      swap3\n      pop\n      pop\n      pop\n        /* \"@openzeppelin/contracts/utils/math/SafeMath.sol\":5601:5772  function ceil(uint256 a, uint256 m) internal pure returns (uint256) {... */\n      swap3\n      swap2\n      pop\n      pop\n      jump\t// out\n        /* \"@openzeppelin/contracts/utils/Address.sol\":3470:3693  function functionCall(... */\n    tag_299:\n        /* \"@openzeppelin/contracts/utils/Address.sol\":3603:3615  bytes memory */\n      0x60\n        /* \"@openzeppelin/contracts/utils/Address.sol\":3634:3686  functionCallWithValue(target, data, 0, errorMessage) */\n      tag_309\n        /* \"@openzeppelin/contracts/utils/Address.sol\":3656:3662  target */\n      dup5\n        /* \"@openzeppelin/contracts/utils/Address.sol\":3664:3668  data */\n      dup5\n        /* \"@openzeppelin/contracts/utils/Address.sol\":3670:3671  0 */\n      0x00\n        /* \"@openzeppelin/contracts/utils/Address.sol\":3673:3685  errorMessage */\n      dup6\n        /* \"@openzeppelin/contracts/utils/Address.sol\":3634:3655  functionCallWithValue */\n      tag_310\n        /* \"@openzeppelin/contracts/utils/Address.sol\":3634:3686  functionCallWithValue(target, data, 0, errorMessage) */\n      jump\t// in\n    tag_309:\n        /* \"@openzeppelin/contracts/utils/Address.sol\":3627:3686  return functionCallWithValue(target, data, 0, errorMessage) */\n      swap1\n      pop\n        /* \"@openzeppelin/contracts/utils/Address.sol\":3470:3693  function functionCall(... */\n      swap4\n      swap3\n      pop\n      pop\n      pop\n      jump\t// out\n        /* \"@openzeppelin/contracts/utils/Address.sol\":4557:5056  function functionCallWithValue(... */\n    tag_310:\n        /* \"@openzeppelin/contracts/utils/Address.sol\":4722:4734  bytes memory */\n      0x60\n        /* \"@openzeppelin/contracts/utils/Address.sol\":4779:4784  value */\n      dup3\n        /* \"@openzeppelin/contracts/utils/Address.sol\":4754:4775  address(this).balance */\n      selfbalance\n        /* \"@openzeppelin/contracts/utils/Address.sol\":4754:4784  address(this).balance >= value */\n      lt\n      iszero\n        /* \"@openzeppelin/contracts/utils/Address.sol\":4746:4827  require(address(this).balance >= value, \"Address: insufficient balance for call\") */\n      tag_312\n      jumpi\n      mload(0x40)\n      0x08c379a000000000000000000000000000000000000000000000000000000000\n      dup2\n      mstore\n      0x04\n      add\n      dup1\n      dup1\n      0x20\n      add\n      dup3\n      dup2\n      sub\n      dup3\n      mstore\n      0x26\n      dup2\n      mstore\n      0x20\n      add\n      dup1\n      data_565f1a77334fc4792800921178c71e4521acffab18ff9e7885b49377ee80ab4c\n      0x26\n      swap2\n      codecopy\n      0x40\n      add\n      swap2\n      pop\n      pop\n      mload(0x40)\n      dup1\n      swap2\n      sub\n      swap1\n      revert\n    tag_312:\n        /* \"@openzeppelin/contracts/utils/Address.sol\":4845:4863  isContract(target) */\n      tag_313\n        /* \"@openzeppelin/contracts/utils/Address.sol\":4856:4862  target */\n      dup6\n        /* \"@openzeppelin/contracts/utils/Address.sol\":4845:4855  isContract */\n      tag_314\n        /* \"@openzeppelin/contracts/utils/Address.sol\":4845:4863  isContract(target) */\n      jump\t// in\n    tag_313:\n        /* \"@openzeppelin/contracts/utils/Address.sol\":4837:4897  require(isContract(target), \"Address: call to non-contract\") */\n      tag_315\n      jumpi\n      mload(0x40)\n      0x08c379a000000000000000000000000000000000000000000000000000000000\n      dup2\n      mstore\n      0x04\n      add\n      dup1\n      dup1\n      0x20\n      add\n      dup3\n      dup2\n      sub\n      dup3\n      mstore\n      0x1d\n      dup2\n      mstore\n      0x20\n      add\n      dup1\n      0x416464726573733a2063616c6c20746f206e6f6e2d636f6e7472616374000000\n      dup2\n      mstore\n      pop\n      0x20\n      add\n      swap2\n      pop\n      pop\n      mload(0x40)\n      dup1\n      swap2\n      sub\n      swap1\n      revert\n    tag_315:\n        /* \"@openzeppelin/contracts/utils/Address.sol\":4909:4921  bool success */\n      0x00\n        /* \"@openzeppelin/contracts/utils/Address.sol\":4923:4946  bytes memory returndata */\n      0x60\n        /* \"@openzeppelin/contracts/utils/Address.sol\":4950:4956  target */\n      dup7\n        /* \"@openzeppelin/contracts/utils/Address.sol\":4950:4961  target.call */\n      0xffffffffffffffffffffffffffffffffffffffff\n      and\n        /* \"@openzeppelin/contracts/utils/Address.sol\":4969:4974  value */\n      dup6\n        /* \"@openzeppelin/contracts/utils/Address.sol\":4976:4980  data */\n      dup8\n        /* \"@openzeppelin/contracts/utils/Address.sol\":4950:4981  target.call{value: value}(data) */\n      mload(0x40)\n      dup1\n      dup3\n      dup1\n      mload\n      swap1\n      0x20\n      add\n      swap1\n      dup1\n      dup4\n      dup4\n    tag_316:\n      0x20\n      dup4\n      lt\n      tag_318\n      jumpi\n      dup1\n      mload\n      dup3\n      mstore\n      0x20\n      dup3\n      add\n      swap2\n      pop\n      0x20\n      dup2\n      add\n      swap1\n      pop\n      0x20\n      dup4\n      sub\n      swap3\n      pop\n      jump(tag_316)\n    tag_318:\n      0x01\n      dup4\n      0x20\n      sub\n      0x0100\n      exp\n      sub\n      dup1\n      not\n      dup3\n      mload\n      and\n      dup2\n      dup5\n      mload\n      and\n      dup1\n      dup3\n      or\n      dup6\n      mstore\n      pop\n      pop\n      pop\n      pop\n      pop\n      pop\n      swap1\n      pop\n      add\n      swap2\n      pop\n      pop\n      0x00\n      mload(0x40)\n      dup1\n      dup4\n      sub\n      dup2\n      dup6\n      dup8\n      gas\n      call\n      swap3\n      pop\n      pop\n      pop\n      returndatasize\n      dup1\n      0x00\n      dup2\n      eq\n      tag_321\n      jumpi\n      mload(0x40)\n      swap2\n      pop\n      and(add(returndatasize, 0x3f), not(0x1f))\n      dup3\n      add\n      0x40\n      mstore\n      returndatasize\n      dup3\n      mstore\n      returndatasize\n      0x00\n      0x20\n      dup5\n      add\n      returndatacopy\n      jump(tag_320)\n    tag_321:\n      0x60\n      swap2\n      pop\n    tag_320:\n      pop\n        /* \"@openzeppelin/contracts/utils/Address.sol\":4908:4981  (bool success, bytes memory returndata) = target.call{value: value}(data) */\n      swap2\n      pop\n      swap2\n      pop\n        /* \"@openzeppelin/contracts/utils/Address.sol\":4998:5049  verifyCallResult(success, returndata, errorMessage) */\n      tag_322\n        /* \"@openzeppelin/contracts/utils/Address.sol\":5015:5022  success */\n      dup3\n        /* \"@openzeppelin/contracts/utils/Address.sol\":5024:5034  returndata */\n      dup3\n        /* \"@openzeppelin/contracts/utils/Address.sol\":5036:5048  errorMessage */\n      dup7\n        /* \"@openzeppelin/contracts/utils/Address.sol\":4998:5014  verifyCallResult */\n      tag_323\n        /* \"@openzeppelin/contracts/utils/Address.sol\":4998:5049  verifyCallResult(success, returndata, errorMessage) */\n      jump\t// in\n    tag_322:\n        /* \"@openzeppelin/contracts/utils/Address.sol\":4991:5049  return verifyCallResult(success, returndata, errorMessage) */\n      swap3\n      pop\n      pop\n      pop\n        /* \"@openzeppelin/contracts/utils/Address.sol\":4557:5056  function functionCallWithValue(... */\n      swap5\n      swap4\n      pop\n      pop\n      pop\n      pop\n      jump\t// out\n        /* \"@openzeppelin/contracts/utils/Address.sol\":727:1104  function isContract(address account) internal view returns (bool) {... */\n    tag_314:\n        /* \"@openzeppelin/contracts/utils/Address.sol\":787:791  bool */\n      0x00\n        /* \"@openzeppelin/contracts/utils/Address.sol\":990:1002  uint256 size */\n      dup1\n        /* \"@openzeppelin/contracts/utils/Address.sol\":1055:1062  account */\n      dup3\n        /* \"@openzeppelin/contracts/utils/Address.sol\":1043:1063  extcodesize(account) */\n      extcodesize\n        /* \"@openzeppelin/contracts/utils/Address.sol\":1035:1063  size := extcodesize(account) */\n      swap1\n      pop\n        /* \"@openzeppelin/contracts/utils/Address.sol\":1096:1097  0 */\n      0x00\n        /* \"@openzeppelin/contracts/utils/Address.sol\":1089:1093  size */\n      dup2\n        /* \"@openzeppelin/contracts/utils/Address.sol\":1089:1097  size > 0 */\n      gt\n        /* \"@openzeppelin/contracts/utils/Address.sol\":1082:1097  return size > 0 */\n      swap2\n      pop\n      pop\n        /* \"@openzeppelin/contracts/utils/Address.sol\":727:1104  function isContract(address account) internal view returns (bool) {... */\n      swap2\n      swap1\n      pop\n      jump\t// out\n        /* \"@openzeppelin/contracts/utils/Address.sol\":7170:7862  function verifyCallResult(... */\n    tag_323:\n        /* \"@openzeppelin/contracts/utils/Address.sol\":7316:7328  bytes memory */\n      0x60\n        /* \"@openzeppelin/contracts/utils/Address.sol\":7344:7351  success */\n      dup4\n        /* \"@openzeppelin/contracts/utils/Address.sol\":7340:7856  if (success) {... */\n      iszero\n      tag_326\n      jumpi\n        /* \"@openzeppelin/contracts/utils/Address.sol\":7374:7384  returndata */\n      dup3\n        /* \"@openzeppelin/contracts/utils/Address.sol\":7367:7384  return returndata */\n      swap1\n      pop\n      jump(tag_325)\n        /* \"@openzeppelin/contracts/utils/Address.sol\":7340:7856  if (success) {... */\n    tag_326:\n        /* \"@openzeppelin/contracts/utils/Address.sol\":7505:7506  0 */\n      0x00\n        /* \"@openzeppelin/contracts/utils/Address.sol\":7485:7495  returndata */\n      dup4\n        /* \"@openzeppelin/contracts/utils/Address.sol\":7485:7502  returndata.length */\n      mload\n        /* \"@openzeppelin/contracts/utils/Address.sol\":7485:7506  returndata.length > 0 */\n      gt\n        /* \"@openzeppelin/contracts/utils/Address.sol\":7481:7846  if (returndata.length > 0) {... */\n      iszero\n      tag_328\n      jumpi\n        /* \"@openzeppelin/contracts/utils/Address.sol\":7679:7689  returndata */\n      dup3\n        /* \"@openzeppelin/contracts/utils/Address.sol\":7673:7690  mload(returndata) */\n      mload\n        /* \"@openzeppelin/contracts/utils/Address.sol\":7739:7754  returndata_size */\n      dup1\n        /* \"@openzeppelin/contracts/utils/Address.sol\":7726:7736  returndata */\n      dup5\n        /* \"@openzeppelin/contracts/utils/Address.sol\":7722:7724  32 */\n      0x20\n        /* \"@openzeppelin/contracts/utils/Address.sol\":7718:7737  add(32, returndata) */\n      add\n        /* \"@openzeppelin/contracts/utils/Address.sol\":7711:7755  revert(add(32, returndata), returndata_size) */\n      revert\n        /* \"@openzeppelin/contracts/utils/Address.sol\":7628:7773  {... */\n    tag_328:\n        /* \"@openzeppelin/contracts/utils/Address.sol\":7818:7830  errorMessage */\n      dup2\n        /* \"@openzeppelin/contracts/utils/Address.sol\":7811:7831  revert(errorMessage) */\n      mload(0x40)\n      0x08c379a000000000000000000000000000000000000000000000000000000000\n      dup2\n      mstore\n      0x04\n      add\n      dup1\n      dup1\n      0x20\n      add\n      dup3\n      dup2\n      sub\n      dup3\n      mstore\n      dup4\n      dup2\n      dup2\n      mload\n      dup2\n      mstore\n      0x20\n      add\n      swap2\n      pop\n      dup1\n      mload\n      swap1\n      0x20\n      add\n      swap1\n      dup1\n      dup4\n      dup4\n      0x00\n    tag_330:\n      dup4\n      dup2\n      lt\n      iszero\n      tag_332\n      jumpi\n      dup1\n      dup3\n      add\n      mload\n      dup2\n      dup5\n      add\n      mstore\n      0x20\n      dup2\n      add\n      swap1\n      pop\n      jump(tag_330)\n    tag_332:\n      pop\n      pop\n      pop\n      pop\n      swap1\n      pop\n      swap1\n      dup2\n      add\n      swap1\n      0x1f\n      and\n      dup1\n      iszero\n      tag_333\n      jumpi\n      dup1\n      dup3\n      sub\n      dup1\n      mload\n      0x01\n      dup4\n      0x20\n      sub\n      0x0100\n      exp\n      sub\n      not\n      and\n      dup2\n      mstore\n      0x20\n      add\n      swap2\n      pop\n    tag_333:\n      pop\n      swap3\n      pop\n      pop\n      pop\n      mload(0x40)\n      dup1\n      swap2\n      sub\n      swap1\n      revert\n        /* \"@openzeppelin/contracts/utils/Address.sol\":7170:7862  function verifyCallResult(... */\n    tag_325:\n      swap4\n      swap3\n      pop\n      pop\n      pop\n      jump\t// out\n    stop\n    data_0a504033bd7d99686ea1ae9273f5b861798bc3a1ad16f392634712986b286757 545368617265526577617264506f6f6c3a20616c726561647920696e697469616c697a6564\n    data_0b8addce3361cf34ccf0fb7aeda2bc3f51b78ff1689b02ed7f2dc0bc1f7df76b 45635368617265526577617264506f6f6c3a2063616c6c6572206973206e6f7420746865206f70657261746f72\n    data_565f1a77334fc4792800921178c71e4521acffab18ff9e7885b49377ee80ab4c 416464726573733a20696e73756666696369656e742062616c616e636520666f722063616c6c\n    data_9113bb53c2876a3805b2c9242029423fc540a728243ce887ab24c82cf119fba3 536166654d6174683a206d756c7469706c69636174696f6e206f766572666c6f77\n    data_9f64b7d06dd214aacf2363dfb61fccd88221cd77df32fc9bf1a923bfcb805b88 45635368617265526577617264506f6f6c3a206578697374696e6720706f6f6c3f\n    data_e11ad79d1e4a7f2e5f376964cb99e8e8f7904e3fc16a109f7a7ecb9aa7956dcd 5361666545524332303a204552433230206f7065726174696f6e20646964206e6f742073756363656564\n\n    auxdata: 0xa264697066735822122047c9da078025fadb6ae025fdf700ee1743cf4f9afee6e797d163acadf38e001764736f6c634300060c0033\n}\n",
				"bytecode": {
					"linkReferences": {},
					"object": "6080604052600060045560c86005556000600660146101000a81548160ff0219169083151502179055506606ab00d9a3bc006009556301e7cb00600a5534801561004857600080fd5b506129b7806100586000396000f3fe608060405234801561001057600080fd5b50600436106101a95760003560e01c8063570ca735116100f9578063943f013d11610097578063bef7a2f011610071578063bef7a2f014610683578063c4d66de8146106a1578063cf4b55cb146106e5578063e2bbb15814610747576101a9565b8063943f013d146105bd57806396805e54146105db578063b3ab15fb1461063f576101a9565b8063630b5ba1116100d3578063630b5ba11461050e5780636e271dd514610518578063879289511461053657806393f1a40b14610554576101a9565b8063570ca735146104885780635d114dcc146104bc5780635f96dc11146104f0576101a9565b8063231f0c6a11610166578063441a3e7011610140578063441a3e701461038657806351eb05a6146103be5780635312ea8e146103ec57806354575af41461041a576101a9565b8063231f0c6a146102ec578063392e53cd146103385780633beb26c414610358576101a9565b806309cf6091146101ae57806314ab2649146101cc5780631526fe2714610200578063158ef93e1461027657806317caf6f1146102965780631ab06ee5146102b4575b600080fd5b6101b661077f565b6040518082815260200191505060405180910390f35b6101d461078d565b604051808273ffffffffffffffffffffffffffffffffffffffff16815260200191505060405180910390f35b61022c6004803603602081101561021657600080fd5b81019080803590602001909291905050506107b3565b604051808673ffffffffffffffffffffffffffffffffffffffff16815260200185815260200184815260200183815260200182151581526020019550505050505060405180910390f35b61027e610823565b60405180821515815260200191505060405180910390f35b61029e610836565b6040518082815260200191505060405180910390f35b6102ea600480360360408110156102ca57600080fd5b81019080803590602001909291908035906020019092919050505061083c565b005b6103226004803603604081101561030257600080fd5b81019080803590602001909291908035906020019092919050505061095e565b6040518082815260200191505060405180910390f35b610340610a71565b60405180821515815260200191505060405180910390f35b6103846004803603602081101561036e57600080fd5b8101908080359060200190929190505050610a88565b005b6103bc6004803603604081101561039c57600080fd5b810190808035906020019092919080359060200190929190505050610bb8565b005b6103ea600480360360208110156103d457600080fd5b8101908080359060200190929190505050610e70565b005b6104186004803603602081101561040257600080fd5b810190808035906020019092919050505061107f565b005b6104866004803603606081101561043057600080fd5b81019080803573ffffffffffffffffffffffffffffffffffffffff16906020019092919080359060200190929190803573ffffffffffffffffffffffffffffffffffffffff1690602001909291905050506111b3565b005b610490611463565b604051808273ffffffffffffffffffffffffffffffffffffffff16815260200191505060405180910390f35b6104c4611487565b604051808273ffffffffffffffffffffffffffffffffffffffff16815260200191505060405180910390f35b6104f86114ad565b6040518082815260200191505060405180910390f35b6105166114b3565b005b6105206114e0565b6040518082815260200191505060405180910390f35b61053e6114e6565b6040518082815260200191505060405180910390f35b6105a06004803603604081101561056a57600080fd5b8101908080359060200190929190803573ffffffffffffffffffffffffffffffffffffffff1690602001909291905050506114ec565b604051808381526020018281526020019250505060405180910390f35b6105c561151d565b6040518082815260200191505060405180910390f35b61063d600480360360808110156105f157600080fd5b8101908080359060200190929190803573ffffffffffffffffffffffffffffffffffffffff16906020019092919080351515906020019092919080359060200190929190505050611523565b005b6106816004803603602081101561065557600080fd5b81019080803573ffffffffffffffffffffffffffffffffffffffff16906020019092919050505061175a565b005b61068b611841565b6040518082815260200191505060405180910390f35b6106e3600480360360208110156106b757600080fd5b81019080803573ffffffffffffffffffffffffffffffffffffffff169060200190929190505050611847565b005b610731600480360360408110156106fb57600080fd5b8101908080359060200190929190803573ffffffffffffffffffffffffffffffffffffffff169060200190929190505050611981565b6040518082815260200191505060405180910390f35b61077d6004803603604081101561075d57600080fd5b810190808035906020019092919080359060200190929190505050611bb9565b005b690cb49b44ba602d80000081565b600160009054906101000a900473ffffffffffffffffffffffffffffffffffffffff1681565b600281815481106107c057fe5b90600052602060002090600502016000915090508060000160009054906101000a900473ffffffffffffffffffffffffffffffffffffffff16908060010154908060020154908060030154908060040160009054906101000a900460ff16905085565b600660149054906101000a900460ff1681565b60045481565b3373ffffffffffffffffffffffffffffffffffffffff1660008054906101000a900473ffffffffffffffffffffffffffffffffffffffff1673ffffffffffffffffffffffffffffffffffffffff16146108e0576040517f08c379a000000000000000000000000000000000000000000000000000000000815260040180806020018281038252602d8152602001806128c3602d913960400191505060405180910390fd5b6108e86114b3565b6000600283815481106108f757fe5b906000526020600020906005020190508060040160009054906101000a900460ff1615610950576109498261093b8360010154600454611e9e90919063ffffffff16565b611f2190919063ffffffff16565b6004819055505b818160010181905550505050565b60008183106109705760009050610a6b565b60085482106109f657600854831061098b5760009050610a6b565b60075483116109c6576109bf6009546109b1600754600854611e9e90919063ffffffff16565b611fa990919063ffffffff16565b9050610a6b565b6109ef6009546109e185600854611e9e90919063ffffffff16565b611fa990919063ffffffff16565b9050610a6b565b6007548211610a085760009050610a6b565b6007548311610a4157610a3a600954610a2c60075485611e9e90919063ffffffff16565b611fa990919063ffffffff16565b9050610a6b565b610a68600954610a5a8585611e9e90919063ffffffff16565b611fa990919063ffffffff16565b90505b92915050565b6000600660149054906101000a900460ff16905090565b3373ffffffffffffffffffffffffffffffffffffffff1660008054906101000a900473ffffffffffffffffffffffffffffffffffffffff1673ffffffffffffffffffffffffffffffffffffffff1614610b2c576040517f08c379a000000000000000000000000000000000000000000000000000000000815260040180806020018281038252602d8152602001806128c3602d913960400191505060405180910390fd5b804210610ba1576040517f08c379a00000000000000000000000000000000000000000000000000000000081526004018080602001828103825260048152602001807f6c6174650000000000000000000000000000000000000000000000000000000081525060200191505060405180910390fd5b80600781905550600a546007540160088190555050565b6000339050600060028481548110610bcc57fe5b9060005260206000209060050201905060006003600086815260200190815260200160002060008473ffffffffffffffffffffffffffffffffffffffff1673ffffffffffffffffffffffffffffffffffffffff16815260200190815260200160002090508381600001541015610caa576040517f08c379a00000000000000000000000000000000000000000000000000000000081526004018080602001828103825260128152602001807f77697468647261773a206e6f7420676f6f64000000000000000000000000000081525060200191505060405180910390fd5b610cb385610e70565b6000610d008260010154610cf2670de0b6b3a7640000610ce487600301548760000154611fa990919063ffffffff16565b61202f90919063ffffffff16565b611e9e90919063ffffffff16565b90506000811115610d6457610d1584826120b8565b8373ffffffffffffffffffffffffffffffffffffffff167fe2403640ba68fed3a2f88b7557551d1993f84b99bb10ff833f0cf8db0c5e0486826040518082815260200191505060405180910390a25b6000851115610ddc57610d84858360000154611e9e90919063ffffffff16565b8260000181905550610ddb84868560000160009054906101000a900473ffffffffffffffffffffffffffffffffffffffff1673ffffffffffffffffffffffffffffffffffffffff166122379092919063ffffffff16565b5b610e11670de0b6b3a7640000610e0385600301548560000154611fa990919063ffffffff16565b61202f90919063ffffffff16565b8260010181905550858473ffffffffffffffffffffffffffffffffffffffff167ff279e6a1f5e320cca91135676d9cb6e44ca8a08c0b88342bcdb1144f6511b568876040518082815260200191505060405180910390a3505050505050565b600060028281548110610e7f57fe5b9060005260206000209060050201905080600201544211610ea0575061107c565b60008160000160009054906101000a900473ffffffffffffffffffffffffffffffffffffffff1673ffffffffffffffffffffffffffffffffffffffff166370a08231306040518263ffffffff1660e01b8152600401808273ffffffffffffffffffffffffffffffffffffffff16815260200191505060206040518083038186803b158015610f2d57600080fd5b505afa158015610f41573d6000803e3d6000fd5b505050506040513d6020811015610f5757600080fd5b810190808051906020019092919050505090506000811415610f8357428260020181905550505061107c565b8160040160009054906101000a900460ff16610fd65760018260040160006101000a81548160ff021916908315150217905550610fcf8260010154600454611f2190919063ffffffff16565b6004819055505b60006004541115611070576000610ff183600201544261095e565b90506000611020600454611012866001015485611fa990919063ffffffff16565b61202f90919063ffffffff16565b905061106561105284611044670de0b6b3a764000085611fa990919063ffffffff16565b61202f90919063ffffffff16565b8560030154611f2190919063ffffffff16565b846003018190555050505b42826002018190555050505b50565b60006002828154811061108e57fe5b9060005260206000209060050201905060006003600084815260200190815260200160002060003373ffffffffffffffffffffffffffffffffffffffff1673ffffffffffffffffffffffffffffffffffffffff1681526020019081526020016000209050600081600001549050600082600001819055506000826001018190555061115e33828560000160009054906101000a900473ffffffffffffffffffffffffffffffffffffffff1673ffffffffffffffffffffffffffffffffffffffff166122379092919063ffffffff16565b833373ffffffffffffffffffffffffffffffffffffffff167fbb757047c2b5f3974fe26b7c10f732e7bce710b0952a71082702781e62ae0595836040518082815260200191505060405180910390a350505050565b3373ffffffffffffffffffffffffffffffffffffffff1660008054906101000a900473ffffffffffffffffffffffffffffffffffffffff1673ffffffffffffffffffffffffffffffffffffffff1614611257576040517f08c379a000000000000000000000000000000000000000000000000000000000815260040180806020018281038252602d8152602001806128c3602d913960400191505060405180910390fd5b6276a7006008540142101561143357600160009054906101000a900473ffffffffffffffffffffffffffffffffffffffff1673ffffffffffffffffffffffffffffffffffffffff168373ffffffffffffffffffffffffffffffffffffffff16141561132a576040517f08c379a00000000000000000000000000000000000000000000000000000000081526004018080602001828103825260078152602001807f456353686172650000000000000000000000000000000000000000000000000081525060200191505060405180910390fd5b6000600280549050905060005b818110156114305760006002828154811061134e57fe5b906000526020600020906005020190508060000160009054906101000a900473ffffffffffffffffffffffffffffffffffffffff1673ffffffffffffffffffffffffffffffffffffffff168673ffffffffffffffffffffffffffffffffffffffff161415611424576040517f08c379a000000000000000000000000000000000000000000000000000000000815260040180806020018281038252600a8152602001807f706f6f6c2e746f6b656e0000000000000000000000000000000000000000000081525060200191505060405180910390fd5b50806001019050611337565b50505b61145e81838573ffffffffffffffffffffffffffffffffffffffff166122379092919063ffffffff16565b505050565b60008054906101000a900473ffffffffffffffffffffffffffffffffffffffff1681565b600660009054906101000a900473ffffffffffffffffffffffffffffffffffffffff1681565b60075481565b6000600280549050905060005b818110156114dc576114d181610e70565b8060010190506114c0565b5050565b60085481565b60095481565b6003602052816000526040600020602052806000526040600020600091509150508060000154908060010154905082565b600a5481565b3373ffffffffffffffffffffffffffffffffffffffff1660008054906101000a900473ffffffffffffffffffffffffffffffffffffffff1673ffffffffffffffffffffffffffffffffffffffff16146115c7576040517f08c379a000000000000000000000000000000000000000000000000000000000815260040180806020018281038252602d8152602001806128c3602d913960400191505060405180910390fd5b6115d0836122d9565b81156115df576115de6114b3565b5b6007544210156116125760008114156115fc57600754905061160d565b60075481101561160c5760075490505b5b61162a565b600081148061162057504281105b15611629574290505b5b60006007548211158061163d5750428211155b905060026040518060a001604052808673ffffffffffffffffffffffffffffffffffffffff16815260200187815260200184815260200160008152602001831515815250908060018154018082558091505060019003906000526020600020906005020160009091909190915060008201518160000160006101000a81548173ffffffffffffffffffffffffffffffffffffffff021916908373ffffffffffffffffffffffffffffffffffffffff16021790555060208201518160010155604082015181600201556060820151816003015560808201518160040160006101000a81548160ff021916908315150217905550505080156117535761174c85600454611f2190919063ffffffff16565b6004819055505b5050505050565b3373ffffffffffffffffffffffffffffffffffffffff1660008054906101000a900473ffffffffffffffffffffffffffffffffffffffff1673ffffffffffffffffffffffffffffffffffffffff16146117fe576040517f08c379a000000000000000000000000000000000000000000000000000000000815260040180806020018281038252602d8152602001806128c3602d913960400191505060405180910390fd5b806000806101000a81548173ffffffffffffffffffffffffffffffffffffffff021916908373ffffffffffffffffffffffffffffffffffffffff16021790555050565b60055481565b600660149054906101000a900460ff16156118ad576040517f08c379a000000000000000000000000000000000000000000000000000000000815260040180806020018281038252602581526020018061289e6025913960400191505060405180910390fd5b600073ffffffffffffffffffffffffffffffffffffffff168173ffffffffffffffffffffffffffffffffffffffff16146119235780600160006101000a81548173ffffffffffffffffffffffffffffffffffffffff021916908373ffffffffffffffffffffffffffffffffffffffff1602179055505b336000806101000a81548173ffffffffffffffffffffffffffffffffffffffff021916908373ffffffffffffffffffffffffffffffffffffffff1602179055506001600660146101000a81548160ff02191690831515021790555050565b6000806002848154811061199157fe5b9060005260206000209060050201905060006003600086815260200190815260200160002060008573ffffffffffffffffffffffffffffffffffffffff1673ffffffffffffffffffffffffffffffffffffffff168152602001908152602001600020905060008260030154905060008360000160009054906101000a900473ffffffffffffffffffffffffffffffffffffffff1673ffffffffffffffffffffffffffffffffffffffff166370a08231306040518263ffffffff1660e01b8152600401808273ffffffffffffffffffffffffffffffffffffffff16815260200191505060206040518083038186803b158015611a8b57600080fd5b505afa158015611a9f573d6000803e3d6000fd5b505050506040513d6020811015611ab557600080fd5b81019080805190602001909291905050509050836002015442118015611adc575060008114155b15611b66576000611af185600201544261095e565b90506000611b20600454611b12886001015485611fa990919063ffffffff16565b61202f90919063ffffffff16565b9050611b61611b5284611b44670de0b6b3a764000085611fa990919063ffffffff16565b61202f90919063ffffffff16565b85611f2190919063ffffffff16565b935050505b611bad8360010154611b9f670de0b6b3a7640000611b91868860000154611fa990919063ffffffff16565b61202f90919063ffffffff16565b611e9e90919063ffffffff16565b94505050505092915050565b60003390506000611bc9836123c1565b90506000611be08285611e9e90919063ffffffff16565b9050600060028681548110611bf157fe5b9060005260206000209060050201905060006003600088815260200190815260200160002060008673ffffffffffffffffffffffffffffffffffffffff1673ffffffffffffffffffffffffffffffffffffffff1681526020019081526020016000209050611c5e87610e70565b600081600001541115611d1e576000611cb88260010154611caa670de0b6b3a7640000611c9c87600301548760000154611fa990919063ffffffff16565b61202f90919063ffffffff16565b611e9e90919063ffffffff16565b90506000811115611d1c57611ccd86826120b8565b8573ffffffffffffffffffffffffffffffffffffffff167fe2403640ba68fed3a2f88b7557551d1993f84b99bb10ff833f0cf8db0c5e0486826040518082815260200191505060405180910390a25b505b6000861115611e0957611d788530888560000160009054906101000a900473ffffffffffffffffffffffffffffffffffffffff1673ffffffffffffffffffffffffffffffffffffffff16612412909392919063ffffffff16565b611d8f838260000154611f2190919063ffffffff16565b8160000181905550611e08600660009054906101000a900473ffffffffffffffffffffffffffffffffffffffff16858460000160009054906101000a900473ffffffffffffffffffffffffffffffffffffffff1673ffffffffffffffffffffffffffffffffffffffff166122379092919063ffffffff16565b5b611e3e670de0b6b3a7640000611e3084600301548460000154611fa990919063ffffffff16565b61202f90919063ffffffff16565b8160010181905550868573ffffffffffffffffffffffffffffffffffffffff167f90890809c654f11d6e72a28fa60149770a0d11ec6c92319d6ceb2bb0a4ea1a15886040518082815260200191505060405180910390a350505050505050565b600082821115611f16576040517f08c379a000000000000000000000000000000000000000000000000000000000815260040180806020018281038252601e8152602001807f536166654d6174683a207375627472616374696f6e206f766572666c6f77000081525060200191505060405180910390fd5b818303905092915050565b600080828401905083811015611f9f576040517f08c379a000000000000000000000000000000000000000000000000000000000815260040180806020018281038252601b8152602001807f536166654d6174683a206164646974696f6e206f766572666c6f77000000000081525060200191505060405180910390fd5b8091505092915050565b600080831415611fbc5760009050612029565b6000828402905082848281611fcd57fe5b0414612024576040517f08c379a00000000000000000000000000000000000000000000000000000000081526004018080602001828103825260218152602001806129166021913960400191505060405180910390fd5b809150505b92915050565b60008082116120a6576040517f08c379a000000000000000000000000000000000000000000000000000000000815260040180806020018281038252601a8152602001807f536166654d6174683a206469766973696f6e206279207a65726f00000000000081525060200191505060405180910390fd5b8183816120af57fe5b04905092915050565b6000600160009054906101000a900473ffffffffffffffffffffffffffffffffffffffff1673ffffffffffffffffffffffffffffffffffffffff166370a08231306040518263ffffffff1660e01b8152600401808273ffffffffffffffffffffffffffffffffffffffff16815260200191505060206040518083038186803b15801561214357600080fd5b505afa158015612157573d6000803e3d6000fd5b505050506040513d602081101561216d57600080fd5b81019080805190602001909291905050509050600081111561223257808211156121e3576121de8382600160009054906101000a900473ffffffffffffffffffffffffffffffffffffffff1673ffffffffffffffffffffffffffffffffffffffff166122379092919063ffffffff16565b612231565b6122308383600160009054906101000a900473ffffffffffffffffffffffffffffffffffffffff1673ffffffffffffffffffffffffffffffffffffffff166122379092919063ffffffff16565b5b5b505050565b6122d48363a9059cbb60e01b8484604051602401808373ffffffffffffffffffffffffffffffffffffffff16815260200182815260200192505050604051602081830303815290604052907bffffffffffffffffffffffffffffffffffffffffffffffffffffffff19166020820180517bffffffffffffffffffffffffffffffffffffffffffffffffffffffff83818316178352505050506124d3565b505050565b6000600280549050905060005b818110156123bc578273ffffffffffffffffffffffffffffffffffffffff166002828154811061231257fe5b906000526020600020906005020160000160009054906101000a900473ffffffffffffffffffffffffffffffffffffffff1673ffffffffffffffffffffffffffffffffffffffff1614156123b1576040517f08c379a00000000000000000000000000000000000000000000000000000000081526004018080602001828103825260218152602001806129376021913960400191505060405180910390fd5b8060010190506122e6565b505050565b6000806123d9600554846125c290919063ffffffff16565b905060006124066127106123f860055485611fa990919063ffffffff16565b61202f90919063ffffffff16565b90508092505050919050565b6124cd846323b872dd60e01b858585604051602401808473ffffffffffffffffffffffffffffffffffffffff1681526020018373ffffffffffffffffffffffffffffffffffffffff1681526020018281526020019350505050604051602081830303815290604052907bffffffffffffffffffffffffffffffffffffffffffffffffffffffff19166020820180517bffffffffffffffffffffffffffffffffffffffffffffffffffffffff83818316178352505050506124d3565b50505050565b6060612535826040518060400160405280602081526020017f5361666545524332303a206c6f772d6c6576656c2063616c6c206661696c65648152508573ffffffffffffffffffffffffffffffffffffffff166125fd9092919063ffffffff16565b90506000815111156125bd5780806020019051602081101561255657600080fd5b81019080805190602001909291905050506125bc576040517f08c379a000000000000000000000000000000000000000000000000000000000815260040180806020018281038252602a815260200180612958602a913960400191505060405180910390fd5b5b505050565b6000806125cf8484611f21565b905060006125de826001611e9e565b90506125f36125ed828661202f565b85611fa9565b9250505092915050565b606061260c8484600085612615565b90509392505050565b606082471015612670576040517f08c379a00000000000000000000000000000000000000000000000000000000081526004018080602001828103825260268152602001806128f06026913960400191505060405180910390fd5b612679856127be565b6126eb576040517f08c379a000000000000000000000000000000000000000000000000000000000815260040180806020018281038252601d8152602001807f416464726573733a2063616c6c20746f206e6f6e2d636f6e747261637400000081525060200191505060405180910390fd5b600060608673ffffffffffffffffffffffffffffffffffffffff1685876040518082805190602001908083835b6020831061273b5780518252602082019150602081019050602083039250612718565b6001836020036101000a03801982511681845116808217855250505050505090500191505060006040518083038185875af1925050503d806000811461279d576040519150601f19603f3d011682016040523d82523d6000602084013e6127a2565b606091505b50915091506127b28282866127d1565b92505050949350505050565b600080823b905060008111915050919050565b606083156127e157829050612896565b6000835111156127f45782518084602001fd5b816040517f08c379a00000000000000000000000000000000000000000000000000000000081526004018080602001828103825283818151815260200191508051906020019080838360005b8381101561285b578082015181840152602081019050612840565b50505050905090810190601f1680156128885780820380516001836020036101000a031916815260200191505b509250505060405180910390fd5b939250505056fe545368617265526577617264506f6f6c3a20616c726561647920696e697469616c697a656445635368617265526577617264506f6f6c3a2063616c6c6572206973206e6f7420746865206f70657261746f72416464726573733a20696e73756666696369656e742062616c616e636520666f722063616c6c536166654d6174683a206d756c7469706c69636174696f6e206f766572666c6f7745635368617265526577617264506f6f6c3a206578697374696e6720706f6f6c3f5361666545524332303a204552433230206f7065726174696f6e20646964206e6f742073756363656564a264697066735822122047c9da078025fadb6ae025fdf700ee1743cf4f9afee6e797d163acadf38e001764736f6c634300060c0033",
					"opcodes": "PUSH1 0x80 PUSH1 0x40 MSTORE PUSH1 0x0 PUSH1 0x4 SSTORE PUSH1 0xC8 PUSH1 0x5 SSTORE PUSH1 0x0 PUSH1 0x6 PUSH1 0x14 PUSH2 0x100 EXP DUP2 SLOAD DUP2 PUSH1 0xFF MUL NOT AND SWAP1 DUP4 ISZERO ISZERO MUL OR SWAP1 SSTORE POP PUSH7 0x6AB00D9A3BC00 PUSH1 0x9 SSTORE PUSH4 0x1E7CB00 PUSH1 0xA SSTORE CALLVALUE DUP1 ISZERO PUSH2 0x48 JUMPI PUSH1 0x0 DUP1 REVERT JUMPDEST POP PUSH2 0x29B7 DUP1 PUSH2 0x58 PUSH1 0x0 CODECOPY PUSH1 0x0 RETURN INVALID PUSH1 0x80 PUSH1 0x40 MSTORE CALLVALUE DUP1 ISZERO PUSH2 0x10 JUMPI PUSH1 0x0 DUP1 REVERT JUMPDEST POP PUSH1 0x4 CALLDATASIZE LT PUSH2 0x1A9 JUMPI PUSH1 0x0 CALLDATALOAD PUSH1 0xE0 SHR DUP1 PUSH4 0x570CA735 GT PUSH2 0xF9 JUMPI DUP1 PUSH4 0x943F013D GT PUSH2 0x97 JUMPI DUP1 PUSH4 0xBEF7A2F0 GT PUSH2 0x71 JUMPI DUP1 PUSH4 0xBEF7A2F0 EQ PUSH2 0x683 JUMPI DUP1 PUSH4 0xC4D66DE8 EQ PUSH2 0x6A1 JUMPI DUP1 PUSH4 0xCF4B55CB EQ PUSH2 0x6E5 JUMPI DUP1 PUSH4 0xE2BBB158 EQ PUSH2 0x747 JUMPI PUSH2 0x1A9 JUMP JUMPDEST DUP1 PUSH4 0x943F013D EQ PUSH2 0x5BD JUMPI DUP1 PUSH4 0x96805E54 EQ PUSH2 0x5DB JUMPI DUP1 PUSH4 0xB3AB15FB EQ PUSH2 0x63F JUMPI PUSH2 0x1A9 JUMP JUMPDEST DUP1 PUSH4 0x630B5BA1 GT PUSH2 0xD3 JUMPI DUP1 PUSH4 0x630B5BA1 EQ PUSH2 0x50E JUMPI DUP1 PUSH4 0x6E271DD5 EQ PUSH2 0x518 JUMPI DUP1 PUSH4 0x87928951 EQ PUSH2 0x536 JUMPI DUP1 PUSH4 0x93F1A40B EQ PUSH2 0x554 JUMPI PUSH2 0x1A9 JUMP JUMPDEST DUP1 PUSH4 0x570CA735 EQ PUSH2 0x488 JUMPI DUP1 PUSH4 0x5D114DCC EQ PUSH2 0x4BC JUMPI DUP1 PUSH4 0x5F96DC11 EQ PUSH2 0x4F0 JUMPI PUSH2 0x1A9 JUMP JUMPDEST DUP1 PUSH4 0x231F0C6A GT PUSH2 0x166 JUMPI DUP1 PUSH4 0x441A3E70 GT PUSH2 0x140 JUMPI DUP1 PUSH4 0x441A3E70 EQ PUSH2 0x386 JUMPI DUP1 PUSH4 0x51EB05A6 EQ PUSH2 0x3BE JUMPI DUP1 PUSH4 0x5312EA8E EQ PUSH2 0x3EC JUMPI DUP1 PUSH4 0x54575AF4 EQ PUSH2 0x41A JUMPI PUSH2 0x1A9 JUMP JUMPDEST DUP1 PUSH4 0x231F0C6A EQ PUSH2 0x2EC JUMPI DUP1 PUSH4 0x392E53CD EQ PUSH2 0x338 JUMPI DUP1 PUSH4 0x3BEB26C4 EQ PUSH2 0x358 JUMPI PUSH2 0x1A9 JUMP JUMPDEST DUP1 PUSH4 0x9CF6091 EQ PUSH2 0x1AE JUMPI DUP1 PUSH4 0x14AB2649 EQ PUSH2 0x1CC JUMPI DUP1 PUSH4 0x1526FE27 EQ PUSH2 0x200 JUMPI DUP1 PUSH4 0x158EF93E EQ PUSH2 0x276 JUMPI DUP1 PUSH4 0x17CAF6F1 EQ PUSH2 0x296 JUMPI DUP1 PUSH4 0x1AB06EE5 EQ PUSH2 0x2B4 JUMPI JUMPDEST PUSH1 0x0 DUP1 REVERT JUMPDEST PUSH2 0x1B6 PUSH2 0x77F JUMP JUMPDEST PUSH1 0x40 MLOAD DUP1 DUP3 DUP2 MSTORE PUSH1 0x20 ADD SWAP2 POP POP PUSH1 0x40 MLOAD DUP1 SWAP2 SUB SWAP1 RETURN JUMPDEST PUSH2 0x1D4 PUSH2 0x78D JUMP JUMPDEST PUSH1 0x40 MLOAD DUP1 DUP3 PUSH20 0xFFFFFFFFFFFFFFFFFFFFFFFFFFFFFFFFFFFFFFFF AND DUP2 MSTORE PUSH1 0x20 ADD SWAP2 POP POP PUSH1 0x40 MLOAD DUP1 SWAP2 SUB SWAP1 RETURN JUMPDEST PUSH2 0x22C PUSH1 0x4 DUP1 CALLDATASIZE SUB PUSH1 0x20 DUP2 LT ISZERO PUSH2 0x216 JUMPI PUSH1 0x0 DUP1 REVERT JUMPDEST DUP2 ADD SWAP1 DUP1 DUP1 CALLDATALOAD SWAP1 PUSH1 0x20 ADD SWAP1 SWAP3 SWAP2 SWAP1 POP POP POP PUSH2 0x7B3 JUMP JUMPDEST PUSH1 0x40 MLOAD DUP1 DUP7 PUSH20 0xFFFFFFFFFFFFFFFFFFFFFFFFFFFFFFFFFFFFFFFF AND DUP2 MSTORE PUSH1 0x20 ADD DUP6 DUP2 MSTORE PUSH1 0x20 ADD DUP5 DUP2 MSTORE PUSH1 0x20 ADD DUP4 DUP2 MSTORE PUSH1 0x20 ADD DUP3 ISZERO ISZERO DUP2 MSTORE PUSH1 0x20 ADD SWAP6 POP POP POP POP POP POP PUSH1 0x40 MLOAD DUP1 SWAP2 SUB SWAP1 RETURN JUMPDEST PUSH2 0x27E PUSH2 0x823 JUMP JUMPDEST PUSH1 0x40 MLOAD DUP1 DUP3 ISZERO ISZERO DUP2 MSTORE PUSH1 0x20 ADD SWAP2 POP POP PUSH1 0x40 MLOAD DUP1 SWAP2 SUB SWAP1 RETURN JUMPDEST PUSH2 0x29E PUSH2 0x836 JUMP JUMPDEST PUSH1 0x40 MLOAD DUP1 DUP3 DUP2 MSTORE PUSH1 0x20 ADD SWAP2 POP POP PUSH1 0x40 MLOAD DUP1 SWAP2 SUB SWAP1 RETURN JUMPDEST PUSH2 0x2EA PUSH1 0x4 DUP1 CALLDATASIZE SUB PUSH1 0x40 DUP2 LT ISZERO PUSH2 0x2CA JUMPI PUSH1 0x0 DUP1 REVERT JUMPDEST DUP2 ADD SWAP1 DUP1 DUP1 CALLDATALOAD SWAP1 PUSH1 0x20 ADD SWAP1 SWAP3 SWAP2 SWAP1 DUP1 CALLDATALOAD SWAP1 PUSH1 0x20 ADD SWAP1 SWAP3 SWAP2 SWAP1 POP POP POP PUSH2 0x83C JUMP JUMPDEST STOP JUMPDEST PUSH2 0x322 PUSH1 0x4 DUP1 CALLDATASIZE SUB PUSH1 0x40 DUP2 LT ISZERO PUSH2 0x302 JUMPI PUSH1 0x0 DUP1 REVERT JUMPDEST DUP2 ADD SWAP1 DUP1 DUP1 CALLDATALOAD SWAP1 PUSH1 0x20 ADD SWAP1 SWAP3 SWAP2 SWAP1 DUP1 CALLDATALOAD SWAP1 PUSH1 0x20 ADD SWAP1 SWAP3 SWAP2 SWAP1 POP POP POP PUSH2 0x95E JUMP JUMPDEST PUSH1 0x40 MLOAD DUP1 DUP3 DUP2 MSTORE PUSH1 0x20 ADD SWAP2 POP POP PUSH1 0x40 MLOAD DUP1 SWAP2 SUB SWAP1 RETURN JUMPDEST PUSH2 0x340 PUSH2 0xA71 JUMP JUMPDEST PUSH1 0x40 MLOAD DUP1 DUP3 ISZERO ISZERO DUP2 MSTORE PUSH1 0x20 ADD SWAP2 POP POP PUSH1 0x40 MLOAD DUP1 SWAP2 SUB SWAP1 RETURN JUMPDEST PUSH2 0x384 PUSH1 0x4 DUP1 CALLDATASIZE SUB PUSH1 0x20 DUP2 LT ISZERO PUSH2 0x36E JUMPI PUSH1 0x0 DUP1 REVERT JUMPDEST DUP2 ADD SWAP1 DUP1 DUP1 CALLDATALOAD SWAP1 PUSH1 0x20 ADD SWAP1 SWAP3 SWAP2 SWAP1 POP POP POP PUSH2 0xA88 JUMP JUMPDEST STOP JUMPDEST PUSH2 0x3BC PUSH1 0x4 DUP1 CALLDATASIZE SUB PUSH1 0x40 DUP2 LT ISZERO PUSH2 0x39C JUMPI PUSH1 0x0 DUP1 REVERT JUMPDEST DUP2 ADD SWAP1 DUP1 DUP1 CALLDATALOAD SWAP1 PUSH1 0x20 ADD SWAP1 SWAP3 SWAP2 SWAP1 DUP1 CALLDATALOAD SWAP1 PUSH1 0x20 ADD SWAP1 SWAP3 SWAP2 SWAP1 POP POP POP PUSH2 0xBB8 JUMP JUMPDEST STOP JUMPDEST PUSH2 0x3EA PUSH1 0x4 DUP1 CALLDATASIZE SUB PUSH1 0x20 DUP2 LT ISZERO PUSH2 0x3D4 JUMPI PUSH1 0x0 DUP1 REVERT JUMPDEST DUP2 ADD SWAP1 DUP1 DUP1 CALLDATALOAD SWAP1 PUSH1 0x20 ADD SWAP1 SWAP3 SWAP2 SWAP1 POP POP POP PUSH2 0xE70 JUMP JUMPDEST STOP JUMPDEST PUSH2 0x418 PUSH1 0x4 DUP1 CALLDATASIZE SUB PUSH1 0x20 DUP2 LT ISZERO PUSH2 0x402 JUMPI PUSH1 0x0 DUP1 REVERT JUMPDEST DUP2 ADD SWAP1 DUP1 DUP1 CALLDATALOAD SWAP1 PUSH1 0x20 ADD SWAP1 SWAP3 SWAP2 SWAP1 POP POP POP PUSH2 0x107F JUMP JUMPDEST STOP JUMPDEST PUSH2 0x486 PUSH1 0x4 DUP1 CALLDATASIZE SUB PUSH1 0x60 DUP2 LT ISZERO PUSH2 0x430 JUMPI PUSH1 0x0 DUP1 REVERT JUMPDEST DUP2 ADD SWAP1 DUP1 DUP1 CALLDATALOAD PUSH20 0xFFFFFFFFFFFFFFFFFFFFFFFFFFFFFFFFFFFFFFFF AND SWAP1 PUSH1 0x20 ADD SWAP1 SWAP3 SWAP2 SWAP1 DUP1 CALLDATALOAD SWAP1 PUSH1 0x20 ADD SWAP1 SWAP3 SWAP2 SWAP1 DUP1 CALLDATALOAD PUSH20 0xFFFFFFFFFFFFFFFFFFFFFFFFFFFFFFFFFFFFFFFF AND SWAP1 PUSH1 0x20 ADD SWAP1 SWAP3 SWAP2 SWAP1 POP POP POP PUSH2 0x11B3 JUMP JUMPDEST STOP JUMPDEST PUSH2 0x490 PUSH2 0x1463 JUMP JUMPDEST PUSH1 0x40 MLOAD DUP1 DUP3 PUSH20 0xFFFFFFFFFFFFFFFFFFFFFFFFFFFFFFFFFFFFFFFF AND DUP2 MSTORE PUSH1 0x20 ADD SWAP2 POP POP PUSH1 0x40 MLOAD DUP1 SWAP2 SUB SWAP1 RETURN JUMPDEST PUSH2 0x4C4 PUSH2 0x1487 JUMP JUMPDEST PUSH1 0x40 MLOAD DUP1 DUP3 PUSH20 0xFFFFFFFFFFFFFFFFFFFFFFFFFFFFFFFFFFFFFFFF AND DUP2 MSTORE PUSH1 0x20 ADD SWAP2 POP POP PUSH1 0x40 MLOAD DUP1 SWAP2 SUB SWAP1 RETURN JUMPDEST PUSH2 0x4F8 PUSH2 0x14AD JUMP JUMPDEST PUSH1 0x40 MLOAD DUP1 DUP3 DUP2 MSTORE PUSH1 0x20 ADD SWAP2 POP POP PUSH1 0x40 MLOAD DUP1 SWAP2 SUB SWAP1 RETURN JUMPDEST PUSH2 0x516 PUSH2 0x14B3 JUMP JUMPDEST STOP JUMPDEST PUSH2 0x520 PUSH2 0x14E0 JUMP JUMPDEST PUSH1 0x40 MLOAD DUP1 DUP3 DUP2 MSTORE PUSH1 0x20 ADD SWAP2 POP POP PUSH1 0x40 MLOAD DUP1 SWAP2 SUB SWAP1 RETURN JUMPDEST PUSH2 0x53E PUSH2 0x14E6 JUMP JUMPDEST PUSH1 0x40 MLOAD DUP1 DUP3 DUP2 MSTORE PUSH1 0x20 ADD SWAP2 POP POP PUSH1 0x40 MLOAD DUP1 SWAP2 SUB SWAP1 RETURN JUMPDEST PUSH2 0x5A0 PUSH1 0x4 DUP1 CALLDATASIZE SUB PUSH1 0x40 DUP2 LT ISZERO PUSH2 0x56A JUMPI PUSH1 0x0 DUP1 REVERT JUMPDEST DUP2 ADD SWAP1 DUP1 DUP1 CALLDATALOAD SWAP1 PUSH1 0x20 ADD SWAP1 SWAP3 SWAP2 SWAP1 DUP1 CALLDATALOAD PUSH20 0xFFFFFFFFFFFFFFFFFFFFFFFFFFFFFFFFFFFFFFFF AND SWAP1 PUSH1 0x20 ADD SWAP1 SWAP3 SWAP2 SWAP1 POP POP POP PUSH2 0x14EC JUMP JUMPDEST PUSH1 0x40 MLOAD DUP1 DUP4 DUP2 MSTORE PUSH1 0x20 ADD DUP3 DUP2 MSTORE PUSH1 0x20 ADD SWAP3 POP POP POP PUSH1 0x40 MLOAD DUP1 SWAP2 SUB SWAP1 RETURN JUMPDEST PUSH2 0x5C5 PUSH2 0x151D JUMP JUMPDEST PUSH1 0x40 MLOAD DUP1 DUP3 DUP2 MSTORE PUSH1 0x20 ADD SWAP2 POP POP PUSH1 0x40 MLOAD DUP1 SWAP2 SUB SWAP1 RETURN JUMPDEST PUSH2 0x63D PUSH1 0x4 DUP1 CALLDATASIZE SUB PUSH1 0x80 DUP2 LT ISZERO PUSH2 0x5F1 JUMPI PUSH1 0x0 DUP1 REVERT JUMPDEST DUP2 ADD SWAP1 DUP1 DUP1 CALLDATALOAD SWAP1 PUSH1 0x20 ADD SWAP1 SWAP3 SWAP2 SWAP1 DUP1 CALLDATALOAD PUSH20 0xFFFFFFFFFFFFFFFFFFFFFFFFFFFFFFFFFFFFFFFF AND SWAP1 PUSH1 0x20 ADD SWAP1 SWAP3 SWAP2 SWAP1 DUP1 CALLDATALOAD ISZERO ISZERO SWAP1 PUSH1 0x20 ADD SWAP1 SWAP3 SWAP2 SWAP1 DUP1 CALLDATALOAD SWAP1 PUSH1 0x20 ADD SWAP1 SWAP3 SWAP2 SWAP1 POP POP POP PUSH2 0x1523 JUMP JUMPDEST STOP JUMPDEST PUSH2 0x681 PUSH1 0x4 DUP1 CALLDATASIZE SUB PUSH1 0x20 DUP2 LT ISZERO PUSH2 0x655 JUMPI PUSH1 0x0 DUP1 REVERT JUMPDEST DUP2 ADD SWAP1 DUP1 DUP1 CALLDATALOAD PUSH20 0xFFFFFFFFFFFFFFFFFFFFFFFFFFFFFFFFFFFFFFFF AND SWAP1 PUSH1 0x20 ADD SWAP1 SWAP3 SWAP2 SWAP1 POP POP POP PUSH2 0x175A JUMP JUMPDEST STOP JUMPDEST PUSH2 0x68B PUSH2 0x1841 JUMP JUMPDEST PUSH1 0x40 MLOAD DUP1 DUP3 DUP2 MSTORE PUSH1 0x20 ADD SWAP2 POP POP PUSH1 0x40 MLOAD DUP1 SWAP2 SUB SWAP1 RETURN JUMPDEST PUSH2 0x6E3 PUSH1 0x4 DUP1 CALLDATASIZE SUB PUSH1 0x20 DUP2 LT ISZERO PUSH2 0x6B7 JUMPI PUSH1 0x0 DUP1 REVERT JUMPDEST DUP2 ADD SWAP1 DUP1 DUP1 CALLDATALOAD PUSH20 0xFFFFFFFFFFFFFFFFFFFFFFFFFFFFFFFFFFFFFFFF AND SWAP1 PUSH1 0x20 ADD SWAP1 SWAP3 SWAP2 SWAP1 POP POP POP PUSH2 0x1847 JUMP JUMPDEST STOP JUMPDEST PUSH2 0x731 PUSH1 0x4 DUP1 CALLDATASIZE SUB PUSH1 0x40 DUP2 LT ISZERO PUSH2 0x6FB JUMPI PUSH1 0x0 DUP1 REVERT JUMPDEST DUP2 ADD SWAP1 DUP1 DUP1 CALLDATALOAD SWAP1 PUSH1 0x20 ADD SWAP1 SWAP3 SWAP2 SWAP1 DUP1 CALLDATALOAD PUSH20 0xFFFFFFFFFFFFFFFFFFFFFFFFFFFFFFFFFFFFFFFF AND SWAP1 PUSH1 0x20 ADD SWAP1 SWAP3 SWAP2 SWAP1 POP POP POP PUSH2 0x1981 JUMP JUMPDEST PUSH1 0x40 MLOAD DUP1 DUP3 DUP2 MSTORE PUSH1 0x20 ADD SWAP2 POP POP PUSH1 0x40 MLOAD DUP1 SWAP2 SUB SWAP1 RETURN JUMPDEST PUSH2 0x77D PUSH1 0x4 DUP1 CALLDATASIZE SUB PUSH1 0x40 DUP2 LT ISZERO PUSH2 0x75D JUMPI PUSH1 0x0 DUP1 REVERT JUMPDEST DUP2 ADD SWAP1 DUP1 DUP1 CALLDATALOAD SWAP1 PUSH1 0x20 ADD SWAP1 SWAP3 SWAP2 SWAP1 DUP1 CALLDATALOAD SWAP1 PUSH1 0x20 ADD SWAP1 SWAP3 SWAP2 SWAP1 POP POP POP PUSH2 0x1BB9 JUMP JUMPDEST STOP JUMPDEST PUSH10 0xCB49B44BA602D800000 DUP2 JUMP JUMPDEST PUSH1 0x1 PUSH1 0x0 SWAP1 SLOAD SWAP1 PUSH2 0x100 EXP SWAP1 DIV PUSH20 0xFFFFFFFFFFFFFFFFFFFFFFFFFFFFFFFFFFFFFFFF AND DUP2 JUMP JUMPDEST PUSH1 0x2 DUP2 DUP2 SLOAD DUP2 LT PUSH2 0x7C0 JUMPI INVALID JUMPDEST SWAP1 PUSH1 0x0 MSTORE PUSH1 0x20 PUSH1 0x0 KECCAK256 SWAP1 PUSH1 0x5 MUL ADD PUSH1 0x0 SWAP2 POP SWAP1 POP DUP1 PUSH1 0x0 ADD PUSH1 0x0 SWAP1 SLOAD SWAP1 PUSH2 0x100 EXP SWAP1 DIV PUSH20 0xFFFFFFFFFFFFFFFFFFFFFFFFFFFFFFFFFFFFFFFF AND SWAP1 DUP1 PUSH1 0x1 ADD SLOAD SWAP1 DUP1 PUSH1 0x2 ADD SLOAD SWAP1 DUP1 PUSH1 0x3 ADD SLOAD SWAP1 DUP1 PUSH1 0x4 ADD PUSH1 0x0 SWAP1 SLOAD SWAP1 PUSH2 0x100 EXP SWAP1 DIV PUSH1 0xFF AND SWAP1 POP DUP6 JUMP JUMPDEST PUSH1 0x6 PUSH1 0x14 SWAP1 SLOAD SWAP1 PUSH2 0x100 EXP SWAP1 DIV PUSH1 0xFF AND DUP2 JUMP JUMPDEST PUSH1 0x4 SLOAD DUP2 JUMP JUMPDEST CALLER PUSH20 0xFFFFFFFFFFFFFFFFFFFFFFFFFFFFFFFFFFFFFFFF AND PUSH1 0x0 DUP1 SLOAD SWAP1 PUSH2 0x100 EXP SWAP1 DIV PUSH20 0xFFFFFFFFFFFFFFFFFFFFFFFFFFFFFFFFFFFFFFFF AND PUSH20 0xFFFFFFFFFFFFFFFFFFFFFFFFFFFFFFFFFFFFFFFF AND EQ PUSH2 0x8E0 JUMPI PUSH1 0x40 MLOAD PUSH32 0x8C379A000000000000000000000000000000000000000000000000000000000 DUP2 MSTORE PUSH1 0x4 ADD DUP1 DUP1 PUSH1 0x20 ADD DUP3 DUP2 SUB DUP3 MSTORE PUSH1 0x2D DUP2 MSTORE PUSH1 0x20 ADD DUP1 PUSH2 0x28C3 PUSH1 0x2D SWAP2 CODECOPY PUSH1 0x40 ADD SWAP2 POP POP PUSH1 0x40 MLOAD DUP1 SWAP2 SUB SWAP1 REVERT JUMPDEST PUSH2 0x8E8 PUSH2 0x14B3 JUMP JUMPDEST PUSH1 0x0 PUSH1 0x2 DUP4 DUP2 SLOAD DUP2 LT PUSH2 0x8F7 JUMPI INVALID JUMPDEST SWAP1 PUSH1 0x0 MSTORE PUSH1 0x20 PUSH1 0x0 KECCAK256 SWAP1 PUSH1 0x5 MUL ADD SWAP1 POP DUP1 PUSH1 0x4 ADD PUSH1 0x0 SWAP1 SLOAD SWAP1 PUSH2 0x100 EXP SWAP1 DIV PUSH1 0xFF AND ISZERO PUSH2 0x950 JUMPI PUSH2 0x949 DUP3 PUSH2 0x93B DUP4 PUSH1 0x1 ADD SLOAD PUSH1 0x4 SLOAD PUSH2 0x1E9E SWAP1 SWAP2 SWAP1 PUSH4 0xFFFFFFFF AND JUMP JUMPDEST PUSH2 0x1F21 SWAP1 SWAP2 SWAP1 PUSH4 0xFFFFFFFF AND JUMP JUMPDEST PUSH1 0x4 DUP2 SWAP1 SSTORE POP JUMPDEST DUP2 DUP2 PUSH1 0x1 ADD DUP2 SWAP1 SSTORE POP POP POP POP JUMP JUMPDEST PUSH1 0x0 DUP2 DUP4 LT PUSH2 0x970 JUMPI PUSH1 0x0 SWAP1 POP PUSH2 0xA6B JUMP JUMPDEST PUSH1 0x8 SLOAD DUP3 LT PUSH2 0x9F6 JUMPI PUSH1 0x8 SLOAD DUP4 LT PUSH2 0x98B JUMPI PUSH1 0x0 SWAP1 POP PUSH2 0xA6B JUMP JUMPDEST PUSH1 0x7 SLOAD DUP4 GT PUSH2 0x9C6 JUMPI PUSH2 0x9BF PUSH1 0x9 SLOAD PUSH2 0x9B1 PUSH1 0x7 SLOAD PUSH1 0x8 SLOAD PUSH2 0x1E9E SWAP1 SWAP2 SWAP1 PUSH4 0xFFFFFFFF AND JUMP JUMPDEST PUSH2 0x1FA9 SWAP1 SWAP2 SWAP1 PUSH4 0xFFFFFFFF AND JUMP JUMPDEST SWAP1 POP PUSH2 0xA6B JUMP JUMPDEST PUSH2 0x9EF PUSH1 0x9 SLOAD PUSH2 0x9E1 DUP6 PUSH1 0x8 SLOAD PUSH2 0x1E9E SWAP1 SWAP2 SWAP1 PUSH4 0xFFFFFFFF AND JUMP JUMPDEST PUSH2 0x1FA9 SWAP1 SWAP2 SWAP1 PUSH4 0xFFFFFFFF AND JUMP JUMPDEST SWAP1 POP PUSH2 0xA6B JUMP JUMPDEST PUSH1 0x7 SLOAD DUP3 GT PUSH2 0xA08 JUMPI PUSH1 0x0 SWAP1 POP PUSH2 0xA6B JUMP JUMPDEST PUSH1 0x7 SLOAD DUP4 GT PUSH2 0xA41 JUMPI PUSH2 0xA3A PUSH1 0x9 SLOAD PUSH2 0xA2C PUSH1 0x7 SLOAD DUP6 PUSH2 0x1E9E SWAP1 SWAP2 SWAP1 PUSH4 0xFFFFFFFF AND JUMP JUMPDEST PUSH2 0x1FA9 SWAP1 SWAP2 SWAP1 PUSH4 0xFFFFFFFF AND JUMP JUMPDEST SWAP1 POP PUSH2 0xA6B JUMP JUMPDEST PUSH2 0xA68 PUSH1 0x9 SLOAD PUSH2 0xA5A DUP6 DUP6 PUSH2 0x1E9E SWAP1 SWAP2 SWAP1 PUSH4 0xFFFFFFFF AND JUMP JUMPDEST PUSH2 0x1FA9 SWAP1 SWAP2 SWAP1 PUSH4 0xFFFFFFFF AND JUMP JUMPDEST SWAP1 POP JUMPDEST SWAP3 SWAP2 POP POP JUMP JUMPDEST PUSH1 0x0 PUSH1 0x6 PUSH1 0x14 SWAP1 SLOAD SWAP1 PUSH2 0x100 EXP SWAP1 DIV PUSH1 0xFF AND SWAP1 POP SWAP1 JUMP JUMPDEST CALLER PUSH20 0xFFFFFFFFFFFFFFFFFFFFFFFFFFFFFFFFFFFFFFFF AND PUSH1 0x0 DUP1 SLOAD SWAP1 PUSH2 0x100 EXP SWAP1 DIV PUSH20 0xFFFFFFFFFFFFFFFFFFFFFFFFFFFFFFFFFFFFFFFF AND PUSH20 0xFFFFFFFFFFFFFFFFFFFFFFFFFFFFFFFFFFFFFFFF AND EQ PUSH2 0xB2C JUMPI PUSH1 0x40 MLOAD PUSH32 0x8C379A000000000000000000000000000000000000000000000000000000000 DUP2 MSTORE PUSH1 0x4 ADD DUP1 DUP1 PUSH1 0x20 ADD DUP3 DUP2 SUB DUP3 MSTORE PUSH1 0x2D DUP2 MSTORE PUSH1 0x20 ADD DUP1 PUSH2 0x28C3 PUSH1 0x2D SWAP2 CODECOPY PUSH1 0x40 ADD SWAP2 POP POP PUSH1 0x40 MLOAD DUP1 SWAP2 SUB SWAP1 REVERT JUMPDEST DUP1 TIMESTAMP LT PUSH2 0xBA1 JUMPI PUSH1 0x40 MLOAD PUSH32 0x8C379A000000000000000000000000000000000000000000000000000000000 DUP2 MSTORE PUSH1 0x4 ADD DUP1 DUP1 PUSH1 0x20 ADD DUP3 DUP2 SUB DUP3 MSTORE PUSH1 0x4 DUP2 MSTORE PUSH1 0x20 ADD DUP1 PUSH32 0x6C61746500000000000000000000000000000000000000000000000000000000 DUP2 MSTORE POP PUSH1 0x20 ADD SWAP2 POP POP PUSH1 0x40 MLOAD DUP1 SWAP2 SUB SWAP1 REVERT JUMPDEST DUP1 PUSH1 0x7 DUP2 SWAP1 SSTORE POP PUSH1 0xA SLOAD PUSH1 0x7 SLOAD ADD PUSH1 0x8 DUP2 SWAP1 SSTORE POP POP JUMP JUMPDEST PUSH1 0x0 CALLER SWAP1 POP PUSH1 0x0 PUSH1 0x2 DUP5 DUP2 SLOAD DUP2 LT PUSH2 0xBCC JUMPI INVALID JUMPDEST SWAP1 PUSH1 0x0 MSTORE PUSH1 0x20 PUSH1 0x0 KECCAK256 SWAP1 PUSH1 0x5 MUL ADD SWAP1 POP PUSH1 0x0 PUSH1 0x3 PUSH1 0x0 DUP7 DUP2 MSTORE PUSH1 0x20 ADD SWAP1 DUP2 MSTORE PUSH1 0x20 ADD PUSH1 0x0 KECCAK256 PUSH1 0x0 DUP5 PUSH20 0xFFFFFFFFFFFFFFFFFFFFFFFFFFFFFFFFFFFFFFFF AND PUSH20 0xFFFFFFFFFFFFFFFFFFFFFFFFFFFFFFFFFFFFFFFF AND DUP2 MSTORE PUSH1 0x20 ADD SWAP1 DUP2 MSTORE PUSH1 0x20 ADD PUSH1 0x0 KECCAK256 SWAP1 POP DUP4 DUP2 PUSH1 0x0 ADD SLOAD LT ISZERO PUSH2 0xCAA JUMPI PUSH1 0x40 MLOAD PUSH32 0x8C379A000000000000000000000000000000000000000000000000000000000 DUP2 MSTORE PUSH1 0x4 ADD DUP1 DUP1 PUSH1 0x20 ADD DUP3 DUP2 SUB DUP3 MSTORE PUSH1 0x12 DUP2 MSTORE PUSH1 0x20 ADD DUP1 PUSH32 0x77697468647261773A206E6F7420676F6F640000000000000000000000000000 DUP2 MSTORE POP PUSH1 0x20 ADD SWAP2 POP POP PUSH1 0x40 MLOAD DUP1 SWAP2 SUB SWAP1 REVERT JUMPDEST PUSH2 0xCB3 DUP6 PUSH2 0xE70 JUMP JUMPDEST PUSH1 0x0 PUSH2 0xD00 DUP3 PUSH1 0x1 ADD SLOAD PUSH2 0xCF2 PUSH8 0xDE0B6B3A7640000 PUSH2 0xCE4 DUP8 PUSH1 0x3 ADD SLOAD DUP8 PUSH1 0x0 ADD SLOAD PUSH2 0x1FA9 SWAP1 SWAP2 SWAP1 PUSH4 0xFFFFFFFF AND JUMP JUMPDEST PUSH2 0x202F SWAP1 SWAP2 SWAP1 PUSH4 0xFFFFFFFF AND JUMP JUMPDEST PUSH2 0x1E9E SWAP1 SWAP2 SWAP1 PUSH4 0xFFFFFFFF AND JUMP JUMPDEST SWAP1 POP PUSH1 0x0 DUP2 GT ISZERO PUSH2 0xD64 JUMPI PUSH2 0xD15 DUP5 DUP3 PUSH2 0x20B8 JUMP JUMPDEST DUP4 PUSH20 0xFFFFFFFFFFFFFFFFFFFFFFFFFFFFFFFFFFFFFFFF AND PUSH32 0xE2403640BA68FED3A2F88B7557551D1993F84B99BB10FF833F0CF8DB0C5E0486 DUP3 PUSH1 0x40 MLOAD DUP1 DUP3 DUP2 MSTORE PUSH1 0x20 ADD SWAP2 POP POP PUSH1 0x40 MLOAD DUP1 SWAP2 SUB SWAP1 LOG2 JUMPDEST PUSH1 0x0 DUP6 GT ISZERO PUSH2 0xDDC JUMPI PUSH2 0xD84 DUP6 DUP4 PUSH1 0x0 ADD SLOAD PUSH2 0x1E9E SWAP1 SWAP2 SWAP1 PUSH4 0xFFFFFFFF AND JUMP JUMPDEST DUP3 PUSH1 0x0 ADD DUP2 SWAP1 SSTORE POP PUSH2 0xDDB DUP5 DUP7 DUP6 PUSH1 0x0 ADD PUSH1 0x0 SWAP1 SLOAD SWAP1 PUSH2 0x100 EXP SWAP1 DIV PUSH20 0xFFFFFFFFFFFFFFFFFFFFFFFFFFFFFFFFFFFFFFFF AND PUSH20 0xFFFFFFFFFFFFFFFFFFFFFFFFFFFFFFFFFFFFFFFF AND PUSH2 0x2237 SWAP1 SWAP3 SWAP2 SWAP1 PUSH4 0xFFFFFFFF AND JUMP JUMPDEST JUMPDEST PUSH2 0xE11 PUSH8 0xDE0B6B3A7640000 PUSH2 0xE03 DUP6 PUSH1 0x3 ADD SLOAD DUP6 PUSH1 0x0 ADD SLOAD PUSH2 0x1FA9 SWAP1 SWAP2 SWAP1 PUSH4 0xFFFFFFFF AND JUMP JUMPDEST PUSH2 0x202F SWAP1 SWAP2 SWAP1 PUSH4 0xFFFFFFFF AND JUMP JUMPDEST DUP3 PUSH1 0x1 ADD DUP2 SWAP1 SSTORE POP DUP6 DUP5 PUSH20 0xFFFFFFFFFFFFFFFFFFFFFFFFFFFFFFFFFFFFFFFF AND PUSH32 0xF279E6A1F5E320CCA91135676D9CB6E44CA8A08C0B88342BCDB1144F6511B568 DUP8 PUSH1 0x40 MLOAD DUP1 DUP3 DUP2 MSTORE PUSH1 0x20 ADD SWAP2 POP POP PUSH1 0x40 MLOAD DUP1 SWAP2 SUB SWAP1 LOG3 POP POP POP POP POP POP JUMP JUMPDEST PUSH1 0x0 PUSH1 0x2 DUP3 DUP2 SLOAD DUP2 LT PUSH2 0xE7F JUMPI INVALID JUMPDEST SWAP1 PUSH1 0x0 MSTORE PUSH1 0x20 PUSH1 0x0 KECCAK256 SWAP1 PUSH1 0x5 MUL ADD SWAP1 POP DUP1 PUSH1 0x2 ADD SLOAD TIMESTAMP GT PUSH2 0xEA0 JUMPI POP PUSH2 0x107C JUMP JUMPDEST PUSH1 0x0 DUP2 PUSH1 0x0 ADD PUSH1 0x0 SWAP1 SLOAD SWAP1 PUSH2 0x100 EXP SWAP1 DIV PUSH20 0xFFFFFFFFFFFFFFFFFFFFFFFFFFFFFFFFFFFFFFFF AND PUSH20 0xFFFFFFFFFFFFFFFFFFFFFFFFFFFFFFFFFFFFFFFF AND PUSH4 0x70A08231 ADDRESS PUSH1 0x40 MLOAD DUP3 PUSH4 0xFFFFFFFF AND PUSH1 0xE0 SHL DUP2 MSTORE PUSH1 0x4 ADD DUP1 DUP3 PUSH20 0xFFFFFFFFFFFFFFFFFFFFFFFFFFFFFFFFFFFFFFFF AND DUP2 MSTORE PUSH1 0x20 ADD SWAP2 POP POP PUSH1 0x20 PUSH1 0x40 MLOAD DUP1 DUP4 SUB DUP2 DUP7 DUP1 EXTCODESIZE ISZERO DUP1 ISZERO PUSH2 0xF2D JUMPI PUSH1 0x0 DUP1 REVERT JUMPDEST POP GAS STATICCALL ISZERO DUP1 ISZERO PUSH2 0xF41 JUMPI RETURNDATASIZE PUSH1 0x0 DUP1 RETURNDATACOPY RETURNDATASIZE PUSH1 0x0 REVERT JUMPDEST POP POP POP POP PUSH1 0x40 MLOAD RETURNDATASIZE PUSH1 0x20 DUP2 LT ISZERO PUSH2 0xF57 JUMPI PUSH1 0x0 DUP1 REVERT JUMPDEST DUP2 ADD SWAP1 DUP1 DUP1 MLOAD SWAP1 PUSH1 0x20 ADD SWAP1 SWAP3 SWAP2 SWAP1 POP POP POP SWAP1 POP PUSH1 0x0 DUP2 EQ ISZERO PUSH2 0xF83 JUMPI TIMESTAMP DUP3 PUSH1 0x2 ADD DUP2 SWAP1 SSTORE POP POP POP PUSH2 0x107C JUMP JUMPDEST DUP2 PUSH1 0x4 ADD PUSH1 0x0 SWAP1 SLOAD SWAP1 PUSH2 0x100 EXP SWAP1 DIV PUSH1 0xFF AND PUSH2 0xFD6 JUMPI PUSH1 0x1 DUP3 PUSH1 0x4 ADD PUSH1 0x0 PUSH2 0x100 EXP DUP2 SLOAD DUP2 PUSH1 0xFF MUL NOT AND SWAP1 DUP4 ISZERO ISZERO MUL OR SWAP1 SSTORE POP PUSH2 0xFCF DUP3 PUSH1 0x1 ADD SLOAD PUSH1 0x4 SLOAD PUSH2 0x1F21 SWAP1 SWAP2 SWAP1 PUSH4 0xFFFFFFFF AND JUMP JUMPDEST PUSH1 0x4 DUP2 SWAP1 SSTORE POP JUMPDEST PUSH1 0x0 PUSH1 0x4 SLOAD GT ISZERO PUSH2 0x1070 JUMPI PUSH1 0x0 PUSH2 0xFF1 DUP4 PUSH1 0x2 ADD SLOAD TIMESTAMP PUSH2 0x95E JUMP JUMPDEST SWAP1 POP PUSH1 0x0 PUSH2 0x1020 PUSH1 0x4 SLOAD PUSH2 0x1012 DUP7 PUSH1 0x1 ADD SLOAD DUP6 PUSH2 0x1FA9 SWAP1 SWAP2 SWAP1 PUSH4 0xFFFFFFFF AND JUMP JUMPDEST PUSH2 0x202F SWAP1 SWAP2 SWAP1 PUSH4 0xFFFFFFFF AND JUMP JUMPDEST SWAP1 POP PUSH2 0x1065 PUSH2 0x1052 DUP5 PUSH2 0x1044 PUSH8 0xDE0B6B3A7640000 DUP6 PUSH2 0x1FA9 SWAP1 SWAP2 SWAP1 PUSH4 0xFFFFFFFF AND JUMP JUMPDEST PUSH2 0x202F SWAP1 SWAP2 SWAP1 PUSH4 0xFFFFFFFF AND JUMP JUMPDEST DUP6 PUSH1 0x3 ADD SLOAD PUSH2 0x1F21 SWAP1 SWAP2 SWAP1 PUSH4 0xFFFFFFFF AND JUMP JUMPDEST DUP5 PUSH1 0x3 ADD DUP2 SWAP1 SSTORE POP POP POP JUMPDEST TIMESTAMP DUP3 PUSH1 0x2 ADD DUP2 SWAP1 SSTORE POP POP POP JUMPDEST POP JUMP JUMPDEST PUSH1 0x0 PUSH1 0x2 DUP3 DUP2 SLOAD DUP2 LT PUSH2 0x108E JUMPI INVALID JUMPDEST SWAP1 PUSH1 0x0 MSTORE PUSH1 0x20 PUSH1 0x0 KECCAK256 SWAP1 PUSH1 0x5 MUL ADD SWAP1 POP PUSH1 0x0 PUSH1 0x3 PUSH1 0x0 DUP5 DUP2 MSTORE PUSH1 0x20 ADD SWAP1 DUP2 MSTORE PUSH1 0x20 ADD PUSH1 0x0 KECCAK256 PUSH1 0x0 CALLER PUSH20 0xFFFFFFFFFFFFFFFFFFFFFFFFFFFFFFFFFFFFFFFF AND PUSH20 0xFFFFFFFFFFFFFFFFFFFFFFFFFFFFFFFFFFFFFFFF AND DUP2 MSTORE PUSH1 0x20 ADD SWAP1 DUP2 MSTORE PUSH1 0x20 ADD PUSH1 0x0 KECCAK256 SWAP1 POP PUSH1 0x0 DUP2 PUSH1 0x0 ADD SLOAD SWAP1 POP PUSH1 0x0 DUP3 PUSH1 0x0 ADD DUP2 SWAP1 SSTORE POP PUSH1 0x0 DUP3 PUSH1 0x1 ADD DUP2 SWAP1 SSTORE POP PUSH2 0x115E CALLER DUP3 DUP6 PUSH1 0x0 ADD PUSH1 0x0 SWAP1 SLOAD SWAP1 PUSH2 0x100 EXP SWAP1 DIV PUSH20 0xFFFFFFFFFFFFFFFFFFFFFFFFFFFFFFFFFFFFFFFF AND PUSH20 0xFFFFFFFFFFFFFFFFFFFFFFFFFFFFFFFFFFFFFFFF AND PUSH2 0x2237 SWAP1 SWAP3 SWAP2 SWAP1 PUSH4 0xFFFFFFFF AND JUMP JUMPDEST DUP4 CALLER PUSH20 0xFFFFFFFFFFFFFFFFFFFFFFFFFFFFFFFFFFFFFFFF AND PUSH32 0xBB757047C2B5F3974FE26B7C10F732E7BCE710B0952A71082702781E62AE0595 DUP4 PUSH1 0x40 MLOAD DUP1 DUP3 DUP2 MSTORE PUSH1 0x20 ADD SWAP2 POP POP PUSH1 0x40 MLOAD DUP1 SWAP2 SUB SWAP1 LOG3 POP POP POP POP JUMP JUMPDEST CALLER PUSH20 0xFFFFFFFFFFFFFFFFFFFFFFFFFFFFFFFFFFFFFFFF AND PUSH1 0x0 DUP1 SLOAD SWAP1 PUSH2 0x100 EXP SWAP1 DIV PUSH20 0xFFFFFFFFFFFFFFFFFFFFFFFFFFFFFFFFFFFFFFFF AND PUSH20 0xFFFFFFFFFFFFFFFFFFFFFFFFFFFFFFFFFFFFFFFF AND EQ PUSH2 0x1257 JUMPI PUSH1 0x40 MLOAD PUSH32 0x8C379A000000000000000000000000000000000000000000000000000000000 DUP2 MSTORE PUSH1 0x4 ADD DUP1 DUP1 PUSH1 0x20 ADD DUP3 DUP2 SUB DUP3 MSTORE PUSH1 0x2D DUP2 MSTORE PUSH1 0x20 ADD DUP1 PUSH2 0x28C3 PUSH1 0x2D SWAP2 CODECOPY PUSH1 0x40 ADD SWAP2 POP POP PUSH1 0x40 MLOAD DUP1 SWAP2 SUB SWAP1 REVERT JUMPDEST PUSH3 0x76A700 PUSH1 0x8 SLOAD ADD TIMESTAMP LT ISZERO PUSH2 0x1433 JUMPI PUSH1 0x1 PUSH1 0x0 SWAP1 SLOAD SWAP1 PUSH2 0x100 EXP SWAP1 DIV PUSH20 0xFFFFFFFFFFFFFFFFFFFFFFFFFFFFFFFFFFFFFFFF AND PUSH20 0xFFFFFFFFFFFFFFFFFFFFFFFFFFFFFFFFFFFFFFFF AND DUP4 PUSH20 0xFFFFFFFFFFFFFFFFFFFFFFFFFFFFFFFFFFFFFFFF AND EQ ISZERO PUSH2 0x132A JUMPI PUSH1 0x40 MLOAD PUSH32 0x8C379A000000000000000000000000000000000000000000000000000000000 DUP2 MSTORE PUSH1 0x4 ADD DUP1 DUP1 PUSH1 0x20 ADD DUP3 DUP2 SUB DUP3 MSTORE PUSH1 0x7 DUP2 MSTORE PUSH1 0x20 ADD DUP1 PUSH32 0x4563536861726500000000000000000000000000000000000000000000000000 DUP2 MSTORE POP PUSH1 0x20 ADD SWAP2 POP POP PUSH1 0x40 MLOAD DUP1 SWAP2 SUB SWAP1 REVERT JUMPDEST PUSH1 0x0 PUSH1 0x2 DUP1 SLOAD SWAP1 POP SWAP1 POP PUSH1 0x0 JUMPDEST DUP2 DUP2 LT ISZERO PUSH2 0x1430 JUMPI PUSH1 0x0 PUSH1 0x2 DUP3 DUP2 SLOAD DUP2 LT PUSH2 0x134E JUMPI INVALID JUMPDEST SWAP1 PUSH1 0x0 MSTORE PUSH1 0x20 PUSH1 0x0 KECCAK256 SWAP1 PUSH1 0x5 MUL ADD SWAP1 POP DUP1 PUSH1 0x0 ADD PUSH1 0x0 SWAP1 SLOAD SWAP1 PUSH2 0x100 EXP SWAP1 DIV PUSH20 0xFFFFFFFFFFFFFFFFFFFFFFFFFFFFFFFFFFFFFFFF AND PUSH20 0xFFFFFFFFFFFFFFFFFFFFFFFFFFFFFFFFFFFFFFFF AND DUP7 PUSH20 0xFFFFFFFFFFFFFFFFFFFFFFFFFFFFFFFFFFFFFFFF AND EQ ISZERO PUSH2 0x1424 JUMPI PUSH1 0x40 MLOAD PUSH32 0x8C379A000000000000000000000000000000000000000000000000000000000 DUP2 MSTORE PUSH1 0x4 ADD DUP1 DUP1 PUSH1 0x20 ADD DUP3 DUP2 SUB DUP3 MSTORE PUSH1 0xA DUP2 MSTORE PUSH1 0x20 ADD DUP1 PUSH32 0x706F6F6C2E746F6B656E00000000000000000000000000000000000000000000 DUP2 MSTORE POP PUSH1 0x20 ADD SWAP2 POP POP PUSH1 0x40 MLOAD DUP1 SWAP2 SUB SWAP1 REVERT JUMPDEST POP DUP1 PUSH1 0x1 ADD SWAP1 POP PUSH2 0x1337 JUMP JUMPDEST POP POP JUMPDEST PUSH2 0x145E DUP2 DUP4 DUP6 PUSH20 0xFFFFFFFFFFFFFFFFFFFFFFFFFFFFFFFFFFFFFFFF AND PUSH2 0x2237 SWAP1 SWAP3 SWAP2 SWAP1 PUSH4 0xFFFFFFFF AND JUMP JUMPDEST POP POP POP JUMP JUMPDEST PUSH1 0x0 DUP1 SLOAD SWAP1 PUSH2 0x100 EXP SWAP1 DIV PUSH20 0xFFFFFFFFFFFFFFFFFFFFFFFFFFFFFFFFFFFFFFFF AND DUP2 JUMP JUMPDEST PUSH1 0x6 PUSH1 0x0 SWAP1 SLOAD SWAP1 PUSH2 0x100 EXP SWAP1 DIV PUSH20 0xFFFFFFFFFFFFFFFFFFFFFFFFFFFFFFFFFFFFFFFF AND DUP2 JUMP JUMPDEST PUSH1 0x7 SLOAD DUP2 JUMP JUMPDEST PUSH1 0x0 PUSH1 0x2 DUP1 SLOAD SWAP1 POP SWAP1 POP PUSH1 0x0 JUMPDEST DUP2 DUP2 LT ISZERO PUSH2 0x14DC JUMPI PUSH2 0x14D1 DUP2 PUSH2 0xE70 JUMP JUMPDEST DUP1 PUSH1 0x1 ADD SWAP1 POP PUSH2 0x14C0 JUMP JUMPDEST POP POP JUMP JUMPDEST PUSH1 0x8 SLOAD DUP2 JUMP JUMPDEST PUSH1 0x9 SLOAD DUP2 JUMP JUMPDEST PUSH1 0x3 PUSH1 0x20 MSTORE DUP2 PUSH1 0x0 MSTORE PUSH1 0x40 PUSH1 0x0 KECCAK256 PUSH1 0x20 MSTORE DUP1 PUSH1 0x0 MSTORE PUSH1 0x40 PUSH1 0x0 KECCAK256 PUSH1 0x0 SWAP2 POP SWAP2 POP POP DUP1 PUSH1 0x0 ADD SLOAD SWAP1 DUP1 PUSH1 0x1 ADD SLOAD SWAP1 POP DUP3 JUMP JUMPDEST PUSH1 0xA SLOAD DUP2 JUMP JUMPDEST CALLER PUSH20 0xFFFFFFFFFFFFFFFFFFFFFFFFFFFFFFFFFFFFFFFF AND PUSH1 0x0 DUP1 SLOAD SWAP1 PUSH2 0x100 EXP SWAP1 DIV PUSH20 0xFFFFFFFFFFFFFFFFFFFFFFFFFFFFFFFFFFFFFFFF AND PUSH20 0xFFFFFFFFFFFFFFFFFFFFFFFFFFFFFFFFFFFFFFFF AND EQ PUSH2 0x15C7 JUMPI PUSH1 0x40 MLOAD PUSH32 0x8C379A000000000000000000000000000000000000000000000000000000000 DUP2 MSTORE PUSH1 0x4 ADD DUP1 DUP1 PUSH1 0x20 ADD DUP3 DUP2 SUB DUP3 MSTORE PUSH1 0x2D DUP2 MSTORE PUSH1 0x20 ADD DUP1 PUSH2 0x28C3 PUSH1 0x2D SWAP2 CODECOPY PUSH1 0x40 ADD SWAP2 POP POP PUSH1 0x40 MLOAD DUP1 SWAP2 SUB SWAP1 REVERT JUMPDEST PUSH2 0x15D0 DUP4 PUSH2 0x22D9 JUMP JUMPDEST DUP2 ISZERO PUSH2 0x15DF JUMPI PUSH2 0x15DE PUSH2 0x14B3 JUMP JUMPDEST JUMPDEST PUSH1 0x7 SLOAD TIMESTAMP LT ISZERO PUSH2 0x1612 JUMPI PUSH1 0x0 DUP2 EQ ISZERO PUSH2 0x15FC JUMPI PUSH1 0x7 SLOAD SWAP1 POP PUSH2 0x160D JUMP JUMPDEST PUSH1 0x7 SLOAD DUP2 LT ISZERO PUSH2 0x160C JUMPI PUSH1 0x7 SLOAD SWAP1 POP JUMPDEST JUMPDEST PUSH2 0x162A JUMP JUMPDEST PUSH1 0x0 DUP2 EQ DUP1 PUSH2 0x1620 JUMPI POP TIMESTAMP DUP2 LT JUMPDEST ISZERO PUSH2 0x1629 JUMPI TIMESTAMP SWAP1 POP JUMPDEST JUMPDEST PUSH1 0x0 PUSH1 0x7 SLOAD DUP3 GT ISZERO DUP1 PUSH2 0x163D JUMPI POP TIMESTAMP DUP3 GT ISZERO JUMPDEST SWAP1 POP PUSH1 0x2 PUSH1 0x40 MLOAD DUP1 PUSH1 0xA0 ADD PUSH1 0x40 MSTORE DUP1 DUP7 PUSH20 0xFFFFFFFFFFFFFFFFFFFFFFFFFFFFFFFFFFFFFFFF AND DUP2 MSTORE PUSH1 0x20 ADD DUP8 DUP2 MSTORE PUSH1 0x20 ADD DUP5 DUP2 MSTORE PUSH1 0x20 ADD PUSH1 0x0 DUP2 MSTORE PUSH1 0x20 ADD DUP4 ISZERO ISZERO DUP2 MSTORE POP SWAP1 DUP1 PUSH1 0x1 DUP2 SLOAD ADD DUP1 DUP3 SSTORE DUP1 SWAP2 POP POP PUSH1 0x1 SWAP1 SUB SWAP1 PUSH1 0x0 MSTORE PUSH1 0x20 PUSH1 0x0 KECCAK256 SWAP1 PUSH1 0x5 MUL ADD PUSH1 0x0 SWAP1 SWAP2 SWAP1 SWAP2 SWAP1 SWAP2 POP PUSH1 0x0 DUP3 ADD MLOAD DUP2 PUSH1 0x0 ADD PUSH1 0x0 PUSH2 0x100 EXP DUP2 SLOAD DUP2 PUSH20 0xFFFFFFFFFFFFFFFFFFFFFFFFFFFFFFFFFFFFFFFF MUL NOT AND SWAP1 DUP4 PUSH20 0xFFFFFFFFFFFFFFFFFFFFFFFFFFFFFFFFFFFFFFFF AND MUL OR SWAP1 SSTORE POP PUSH1 0x20 DUP3 ADD MLOAD DUP2 PUSH1 0x1 ADD SSTORE PUSH1 0x40 DUP3 ADD MLOAD DUP2 PUSH1 0x2 ADD SSTORE PUSH1 0x60 DUP3 ADD MLOAD DUP2 PUSH1 0x3 ADD SSTORE PUSH1 0x80 DUP3 ADD MLOAD DUP2 PUSH1 0x4 ADD PUSH1 0x0 PUSH2 0x100 EXP DUP2 SLOAD DUP2 PUSH1 0xFF MUL NOT AND SWAP1 DUP4 ISZERO ISZERO MUL OR SWAP1 SSTORE POP POP POP DUP1 ISZERO PUSH2 0x1753 JUMPI PUSH2 0x174C DUP6 PUSH1 0x4 SLOAD PUSH2 0x1F21 SWAP1 SWAP2 SWAP1 PUSH4 0xFFFFFFFF AND JUMP JUMPDEST PUSH1 0x4 DUP2 SWAP1 SSTORE POP JUMPDEST POP POP POP POP POP JUMP JUMPDEST CALLER PUSH20 0xFFFFFFFFFFFFFFFFFFFFFFFFFFFFFFFFFFFFFFFF AND PUSH1 0x0 DUP1 SLOAD SWAP1 PUSH2 0x100 EXP SWAP1 DIV PUSH20 0xFFFFFFFFFFFFFFFFFFFFFFFFFFFFFFFFFFFFFFFF AND PUSH20 0xFFFFFFFFFFFFFFFFFFFFFFFFFFFFFFFFFFFFFFFF AND EQ PUSH2 0x17FE JUMPI PUSH1 0x40 MLOAD PUSH32 0x8C379A000000000000000000000000000000000000000000000000000000000 DUP2 MSTORE PUSH1 0x4 ADD DUP1 DUP1 PUSH1 0x20 ADD DUP3 DUP2 SUB DUP3 MSTORE PUSH1 0x2D DUP2 MSTORE PUSH1 0x20 ADD DUP1 PUSH2 0x28C3 PUSH1 0x2D SWAP2 CODECOPY PUSH1 0x40 ADD SWAP2 POP POP PUSH1 0x40 MLOAD DUP1 SWAP2 SUB SWAP1 REVERT JUMPDEST DUP1 PUSH1 0x0 DUP1 PUSH2 0x100 EXP DUP2 SLOAD DUP2 PUSH20 0xFFFFFFFFFFFFFFFFFFFFFFFFFFFFFFFFFFFFFFFF MUL NOT AND SWAP1 DUP4 PUSH20 0xFFFFFFFFFFFFFFFFFFFFFFFFFFFFFFFFFFFFFFFF AND MUL OR SWAP1 SSTORE POP POP JUMP JUMPDEST PUSH1 0x5 SLOAD DUP2 JUMP JUMPDEST PUSH1 0x6 PUSH1 0x14 SWAP1 SLOAD SWAP1 PUSH2 0x100 EXP SWAP1 DIV PUSH1 0xFF AND ISZERO PUSH2 0x18AD JUMPI PUSH1 0x40 MLOAD PUSH32 0x8C379A000000000000000000000000000000000000000000000000000000000 DUP2 MSTORE PUSH1 0x4 ADD DUP1 DUP1 PUSH1 0x20 ADD DUP3 DUP2 SUB DUP3 MSTORE PUSH1 0x25 DUP2 MSTORE PUSH1 0x20 ADD DUP1 PUSH2 0x289E PUSH1 0x25 SWAP2 CODECOPY PUSH1 0x40 ADD SWAP2 POP POP PUSH1 0x40 MLOAD DUP1 SWAP2 SUB SWAP1 REVERT JUMPDEST PUSH1 0x0 PUSH20 0xFFFFFFFFFFFFFFFFFFFFFFFFFFFFFFFFFFFFFFFF AND DUP2 PUSH20 0xFFFFFFFFFFFFFFFFFFFFFFFFFFFFFFFFFFFFFFFF AND EQ PUSH2 0x1923 JUMPI DUP1 PUSH1 0x1 PUSH1 0x0 PUSH2 0x100 EXP DUP2 SLOAD DUP2 PUSH20 0xFFFFFFFFFFFFFFFFFFFFFFFFFFFFFFFFFFFFFFFF MUL NOT AND SWAP1 DUP4 PUSH20 0xFFFFFFFFFFFFFFFFFFFFFFFFFFFFFFFFFFFFFFFF AND MUL OR SWAP1 SSTORE POP JUMPDEST CALLER PUSH1 0x0 DUP1 PUSH2 0x100 EXP DUP2 SLOAD DUP2 PUSH20 0xFFFFFFFFFFFFFFFFFFFFFFFFFFFFFFFFFFFFFFFF MUL NOT AND SWAP1 DUP4 PUSH20 0xFFFFFFFFFFFFFFFFFFFFFFFFFFFFFFFFFFFFFFFF AND MUL OR SWAP1 SSTORE POP PUSH1 0x1 PUSH1 0x6 PUSH1 0x14 PUSH2 0x100 EXP DUP2 SLOAD DUP2 PUSH1 0xFF MUL NOT AND SWAP1 DUP4 ISZERO ISZERO MUL OR SWAP1 SSTORE POP POP JUMP JUMPDEST PUSH1 0x0 DUP1 PUSH1 0x2 DUP5 DUP2 SLOAD DUP2 LT PUSH2 0x1991 JUMPI INVALID JUMPDEST SWAP1 PUSH1 0x0 MSTORE PUSH1 0x20 PUSH1 0x0 KECCAK256 SWAP1 PUSH1 0x5 MUL ADD SWAP1 POP PUSH1 0x0 PUSH1 0x3 PUSH1 0x0 DUP7 DUP2 MSTORE PUSH1 0x20 ADD SWAP1 DUP2 MSTORE PUSH1 0x20 ADD PUSH1 0x0 KECCAK256 PUSH1 0x0 DUP6 PUSH20 0xFFFFFFFFFFFFFFFFFFFFFFFFFFFFFFFFFFFFFFFF AND PUSH20 0xFFFFFFFFFFFFFFFFFFFFFFFFFFFFFFFFFFFFFFFF AND DUP2 MSTORE PUSH1 0x20 ADD SWAP1 DUP2 MSTORE PUSH1 0x20 ADD PUSH1 0x0 KECCAK256 SWAP1 POP PUSH1 0x0 DUP3 PUSH1 0x3 ADD SLOAD SWAP1 POP PUSH1 0x0 DUP4 PUSH1 0x0 ADD PUSH1 0x0 SWAP1 SLOAD SWAP1 PUSH2 0x100 EXP SWAP1 DIV PUSH20 0xFFFFFFFFFFFFFFFFFFFFFFFFFFFFFFFFFFFFFFFF AND PUSH20 0xFFFFFFFFFFFFFFFFFFFFFFFFFFFFFFFFFFFFFFFF AND PUSH4 0x70A08231 ADDRESS PUSH1 0x40 MLOAD DUP3 PUSH4 0xFFFFFFFF AND PUSH1 0xE0 SHL DUP2 MSTORE PUSH1 0x4 ADD DUP1 DUP3 PUSH20 0xFFFFFFFFFFFFFFFFFFFFFFFFFFFFFFFFFFFFFFFF AND DUP2 MSTORE PUSH1 0x20 ADD SWAP2 POP POP PUSH1 0x20 PUSH1 0x40 MLOAD DUP1 DUP4 SUB DUP2 DUP7 DUP1 EXTCODESIZE ISZERO DUP1 ISZERO PUSH2 0x1A8B JUMPI PUSH1 0x0 DUP1 REVERT JUMPDEST POP GAS STATICCALL ISZERO DUP1 ISZERO PUSH2 0x1A9F JUMPI RETURNDATASIZE PUSH1 0x0 DUP1 RETURNDATACOPY RETURNDATASIZE PUSH1 0x0 REVERT JUMPDEST POP POP POP POP PUSH1 0x40 MLOAD RETURNDATASIZE PUSH1 0x20 DUP2 LT ISZERO PUSH2 0x1AB5 JUMPI PUSH1 0x0 DUP1 REVERT JUMPDEST DUP2 ADD SWAP1 DUP1 DUP1 MLOAD SWAP1 PUSH1 0x20 ADD SWAP1 SWAP3 SWAP2 SWAP1 POP POP POP SWAP1 POP DUP4 PUSH1 0x2 ADD SLOAD TIMESTAMP GT DUP1 ISZERO PUSH2 0x1ADC JUMPI POP PUSH1 0x0 DUP2 EQ ISZERO JUMPDEST ISZERO PUSH2 0x1B66 JUMPI PUSH1 0x0 PUSH2 0x1AF1 DUP6 PUSH1 0x2 ADD SLOAD TIMESTAMP PUSH2 0x95E JUMP JUMPDEST SWAP1 POP PUSH1 0x0 PUSH2 0x1B20 PUSH1 0x4 SLOAD PUSH2 0x1B12 DUP9 PUSH1 0x1 ADD SLOAD DUP6 PUSH2 0x1FA9 SWAP1 SWAP2 SWAP1 PUSH4 0xFFFFFFFF AND JUMP JUMPDEST PUSH2 0x202F SWAP1 SWAP2 SWAP1 PUSH4 0xFFFFFFFF AND JUMP JUMPDEST SWAP1 POP PUSH2 0x1B61 PUSH2 0x1B52 DUP5 PUSH2 0x1B44 PUSH8 0xDE0B6B3A7640000 DUP6 PUSH2 0x1FA9 SWAP1 SWAP2 SWAP1 PUSH4 0xFFFFFFFF AND JUMP JUMPDEST PUSH2 0x202F SWAP1 SWAP2 SWAP1 PUSH4 0xFFFFFFFF AND JUMP JUMPDEST DUP6 PUSH2 0x1F21 SWAP1 SWAP2 SWAP1 PUSH4 0xFFFFFFFF AND JUMP JUMPDEST SWAP4 POP POP POP JUMPDEST PUSH2 0x1BAD DUP4 PUSH1 0x1 ADD SLOAD PUSH2 0x1B9F PUSH8 0xDE0B6B3A7640000 PUSH2 0x1B91 DUP7 DUP9 PUSH1 0x0 ADD SLOAD PUSH2 0x1FA9 SWAP1 SWAP2 SWAP1 PUSH4 0xFFFFFFFF AND JUMP JUMPDEST PUSH2 0x202F SWAP1 SWAP2 SWAP1 PUSH4 0xFFFFFFFF AND JUMP JUMPDEST PUSH2 0x1E9E SWAP1 SWAP2 SWAP1 PUSH4 0xFFFFFFFF AND JUMP JUMPDEST SWAP5 POP POP POP POP POP SWAP3 SWAP2 POP POP JUMP JUMPDEST PUSH1 0x0 CALLER SWAP1 POP PUSH1 0x0 PUSH2 0x1BC9 DUP4 PUSH2 0x23C1 JUMP JUMPDEST SWAP1 POP PUSH1 0x0 PUSH2 0x1BE0 DUP3 DUP6 PUSH2 0x1E9E SWAP1 SWAP2 SWAP1 PUSH4 0xFFFFFFFF AND JUMP JUMPDEST SWAP1 POP PUSH1 0x0 PUSH1 0x2 DUP7 DUP2 SLOAD DUP2 LT PUSH2 0x1BF1 JUMPI INVALID JUMPDEST SWAP1 PUSH1 0x0 MSTORE PUSH1 0x20 PUSH1 0x0 KECCAK256 SWAP1 PUSH1 0x5 MUL ADD SWAP1 POP PUSH1 0x0 PUSH1 0x3 PUSH1 0x0 DUP9 DUP2 MSTORE PUSH1 0x20 ADD SWAP1 DUP2 MSTORE PUSH1 0x20 ADD PUSH1 0x0 KECCAK256 PUSH1 0x0 DUP7 PUSH20 0xFFFFFFFFFFFFFFFFFFFFFFFFFFFFFFFFFFFFFFFF AND PUSH20 0xFFFFFFFFFFFFFFFFFFFFFFFFFFFFFFFFFFFFFFFF AND DUP2 MSTORE PUSH1 0x20 ADD SWAP1 DUP2 MSTORE PUSH1 0x20 ADD PUSH1 0x0 KECCAK256 SWAP1 POP PUSH2 0x1C5E DUP8 PUSH2 0xE70 JUMP JUMPDEST PUSH1 0x0 DUP2 PUSH1 0x0 ADD SLOAD GT ISZERO PUSH2 0x1D1E JUMPI PUSH1 0x0 PUSH2 0x1CB8 DUP3 PUSH1 0x1 ADD SLOAD PUSH2 0x1CAA PUSH8 0xDE0B6B3A7640000 PUSH2 0x1C9C DUP8 PUSH1 0x3 ADD SLOAD DUP8 PUSH1 0x0 ADD SLOAD PUSH2 0x1FA9 SWAP1 SWAP2 SWAP1 PUSH4 0xFFFFFFFF AND JUMP JUMPDEST PUSH2 0x202F SWAP1 SWAP2 SWAP1 PUSH4 0xFFFFFFFF AND JUMP JUMPDEST PUSH2 0x1E9E SWAP1 SWAP2 SWAP1 PUSH4 0xFFFFFFFF AND JUMP JUMPDEST SWAP1 POP PUSH1 0x0 DUP2 GT ISZERO PUSH2 0x1D1C JUMPI PUSH2 0x1CCD DUP7 DUP3 PUSH2 0x20B8 JUMP JUMPDEST DUP6 PUSH20 0xFFFFFFFFFFFFFFFFFFFFFFFFFFFFFFFFFFFFFFFF AND PUSH32 0xE2403640BA68FED3A2F88B7557551D1993F84B99BB10FF833F0CF8DB0C5E0486 DUP3 PUSH1 0x40 MLOAD DUP1 DUP3 DUP2 MSTORE PUSH1 0x20 ADD SWAP2 POP POP PUSH1 0x40 MLOAD DUP1 SWAP2 SUB SWAP1 LOG2 JUMPDEST POP JUMPDEST PUSH1 0x0 DUP7 GT ISZERO PUSH2 0x1E09 JUMPI PUSH2 0x1D78 DUP6 ADDRESS DUP9 DUP6 PUSH1 0x0 ADD PUSH1 0x0 SWAP1 SLOAD SWAP1 PUSH2 0x100 EXP SWAP1 DIV PUSH20 0xFFFFFFFFFFFFFFFFFFFFFFFFFFFFFFFFFFFFFFFF AND PUSH20 0xFFFFFFFFFFFFFFFFFFFFFFFFFFFFFFFFFFFFFFFF AND PUSH2 0x2412 SWAP1 SWAP4 SWAP3 SWAP2 SWAP1 PUSH4 0xFFFFFFFF AND JUMP JUMPDEST PUSH2 0x1D8F DUP4 DUP3 PUSH1 0x0 ADD SLOAD PUSH2 0x1F21 SWAP1 SWAP2 SWAP1 PUSH4 0xFFFFFFFF AND JUMP JUMPDEST DUP2 PUSH1 0x0 ADD DUP2 SWAP1 SSTORE POP PUSH2 0x1E08 PUSH1 0x6 PUSH1 0x0 SWAP1 SLOAD SWAP1 PUSH2 0x100 EXP SWAP1 DIV PUSH20 0xFFFFFFFFFFFFFFFFFFFFFFFFFFFFFFFFFFFFFFFF AND DUP6 DUP5 PUSH1 0x0 ADD PUSH1 0x0 SWAP1 SLOAD SWAP1 PUSH2 0x100 EXP SWAP1 DIV PUSH20 0xFFFFFFFFFFFFFFFFFFFFFFFFFFFFFFFFFFFFFFFF AND PUSH20 0xFFFFFFFFFFFFFFFFFFFFFFFFFFFFFFFFFFFFFFFF AND PUSH2 0x2237 SWAP1 SWAP3 SWAP2 SWAP1 PUSH4 0xFFFFFFFF AND JUMP JUMPDEST JUMPDEST PUSH2 0x1E3E PUSH8 0xDE0B6B3A7640000 PUSH2 0x1E30 DUP5 PUSH1 0x3 ADD SLOAD DUP5 PUSH1 0x0 ADD SLOAD PUSH2 0x1FA9 SWAP1 SWAP2 SWAP1 PUSH4 0xFFFFFFFF AND JUMP JUMPDEST PUSH2 0x202F SWAP1 SWAP2 SWAP1 PUSH4 0xFFFFFFFF AND JUMP JUMPDEST DUP2 PUSH1 0x1 ADD DUP2 SWAP1 SSTORE POP DUP7 DUP6 PUSH20 0xFFFFFFFFFFFFFFFFFFFFFFFFFFFFFFFFFFFFFFFF AND PUSH32 0x90890809C654F11D6E72A28FA60149770A0D11EC6C92319D6CEB2BB0A4EA1A15 DUP9 PUSH1 0x40 MLOAD DUP1 DUP3 DUP2 MSTORE PUSH1 0x20 ADD SWAP2 POP POP PUSH1 0x40 MLOAD DUP1 SWAP2 SUB SWAP1 LOG3 POP POP POP POP POP POP POP JUMP JUMPDEST PUSH1 0x0 DUP3 DUP3 GT ISZERO PUSH2 0x1F16 JUMPI PUSH1 0x40 MLOAD PUSH32 0x8C379A000000000000000000000000000000000000000000000000000000000 DUP2 MSTORE PUSH1 0x4 ADD DUP1 DUP1 PUSH1 0x20 ADD DUP3 DUP2 SUB DUP3 MSTORE PUSH1 0x1E DUP2 MSTORE PUSH1 0x20 ADD DUP1 PUSH32 0x536166654D6174683A207375627472616374696F6E206F766572666C6F770000 DUP2 MSTORE POP PUSH1 0x20 ADD SWAP2 POP POP PUSH1 0x40 MLOAD DUP1 SWAP2 SUB SWAP1 REVERT JUMPDEST DUP2 DUP4 SUB SWAP1 POP SWAP3 SWAP2 POP POP JUMP JUMPDEST PUSH1 0x0 DUP1 DUP3 DUP5 ADD SWAP1 POP DUP4 DUP2 LT ISZERO PUSH2 0x1F9F JUMPI PUSH1 0x40 MLOAD PUSH32 0x8C379A000000000000000000000000000000000000000000000000000000000 DUP2 MSTORE PUSH1 0x4 ADD DUP1 DUP1 PUSH1 0x20 ADD DUP3 DUP2 SUB DUP3 MSTORE PUSH1 0x1B DUP2 MSTORE PUSH1 0x20 ADD DUP1 PUSH32 0x536166654D6174683A206164646974696F6E206F766572666C6F770000000000 DUP2 MSTORE POP PUSH1 0x20 ADD SWAP2 POP POP PUSH1 0x40 MLOAD DUP1 SWAP2 SUB SWAP1 REVERT JUMPDEST DUP1 SWAP2 POP POP SWAP3 SWAP2 POP POP JUMP JUMPDEST PUSH1 0x0 DUP1 DUP4 EQ ISZERO PUSH2 0x1FBC JUMPI PUSH1 0x0 SWAP1 POP PUSH2 0x2029 JUMP JUMPDEST PUSH1 0x0 DUP3 DUP5 MUL SWAP1 POP DUP3 DUP5 DUP3 DUP2 PUSH2 0x1FCD JUMPI INVALID JUMPDEST DIV EQ PUSH2 0x2024 JUMPI PUSH1 0x40 MLOAD PUSH32 0x8C379A000000000000000000000000000000000000000000000000000000000 DUP2 MSTORE PUSH1 0x4 ADD DUP1 DUP1 PUSH1 0x20 ADD DUP3 DUP2 SUB DUP3 MSTORE PUSH1 0x21 DUP2 MSTORE PUSH1 0x20 ADD DUP1 PUSH2 0x2916 PUSH1 0x21 SWAP2 CODECOPY PUSH1 0x40 ADD SWAP2 POP POP PUSH1 0x40 MLOAD DUP1 SWAP2 SUB SWAP1 REVERT JUMPDEST DUP1 SWAP2 POP POP JUMPDEST SWAP3 SWAP2 POP POP JUMP JUMPDEST PUSH1 0x0 DUP1 DUP3 GT PUSH2 0x20A6 JUMPI PUSH1 0x40 MLOAD PUSH32 0x8C379A000000000000000000000000000000000000000000000000000000000 DUP2 MSTORE PUSH1 0x4 ADD DUP1 DUP1 PUSH1 0x20 ADD DUP3 DUP2 SUB DUP3 MSTORE PUSH1 0x1A DUP2 MSTORE PUSH1 0x20 ADD DUP1 PUSH32 0x536166654D6174683A206469766973696F6E206279207A65726F000000000000 DUP2 MSTORE POP PUSH1 0x20 ADD SWAP2 POP POP PUSH1 0x40 MLOAD DUP1 SWAP2 SUB SWAP1 REVERT JUMPDEST DUP2 DUP4 DUP2 PUSH2 0x20AF JUMPI INVALID JUMPDEST DIV SWAP1 POP SWAP3 SWAP2 POP POP JUMP JUMPDEST PUSH1 0x0 PUSH1 0x1 PUSH1 0x0 SWAP1 SLOAD SWAP1 PUSH2 0x100 EXP SWAP1 DIV PUSH20 0xFFFFFFFFFFFFFFFFFFFFFFFFFFFFFFFFFFFFFFFF AND PUSH20 0xFFFFFFFFFFFFFFFFFFFFFFFFFFFFFFFFFFFFFFFF AND PUSH4 0x70A08231 ADDRESS PUSH1 0x40 MLOAD DUP3 PUSH4 0xFFFFFFFF AND PUSH1 0xE0 SHL DUP2 MSTORE PUSH1 0x4 ADD DUP1 DUP3 PUSH20 0xFFFFFFFFFFFFFFFFFFFFFFFFFFFFFFFFFFFFFFFF AND DUP2 MSTORE PUSH1 0x20 ADD SWAP2 POP POP PUSH1 0x20 PUSH1 0x40 MLOAD DUP1 DUP4 SUB DUP2 DUP7 DUP1 EXTCODESIZE ISZERO DUP1 ISZERO PUSH2 0x2143 JUMPI PUSH1 0x0 DUP1 REVERT JUMPDEST POP GAS STATICCALL ISZERO DUP1 ISZERO PUSH2 0x2157 JUMPI RETURNDATASIZE PUSH1 0x0 DUP1 RETURNDATACOPY RETURNDATASIZE PUSH1 0x0 REVERT JUMPDEST POP POP POP POP PUSH1 0x40 MLOAD RETURNDATASIZE PUSH1 0x20 DUP2 LT ISZERO PUSH2 0x216D JUMPI PUSH1 0x0 DUP1 REVERT JUMPDEST DUP2 ADD SWAP1 DUP1 DUP1 MLOAD SWAP1 PUSH1 0x20 ADD SWAP1 SWAP3 SWAP2 SWAP1 POP POP POP SWAP1 POP PUSH1 0x0 DUP2 GT ISZERO PUSH2 0x2232 JUMPI DUP1 DUP3 GT ISZERO PUSH2 0x21E3 JUMPI PUSH2 0x21DE DUP4 DUP3 PUSH1 0x1 PUSH1 0x0 SWAP1 SLOAD SWAP1 PUSH2 0x100 EXP SWAP1 DIV PUSH20 0xFFFFFFFFFFFFFFFFFFFFFFFFFFFFFFFFFFFFFFFF AND PUSH20 0xFFFFFFFFFFFFFFFFFFFFFFFFFFFFFFFFFFFFFFFF AND PUSH2 0x2237 SWAP1 SWAP3 SWAP2 SWAP1 PUSH4 0xFFFFFFFF AND JUMP JUMPDEST PUSH2 0x2231 JUMP JUMPDEST PUSH2 0x2230 DUP4 DUP4 PUSH1 0x1 PUSH1 0x0 SWAP1 SLOAD SWAP1 PUSH2 0x100 EXP SWAP1 DIV PUSH20 0xFFFFFFFFFFFFFFFFFFFFFFFFFFFFFFFFFFFFFFFF AND PUSH20 0xFFFFFFFFFFFFFFFFFFFFFFFFFFFFFFFFFFFFFFFF AND PUSH2 0x2237 SWAP1 SWAP3 SWAP2 SWAP1 PUSH4 0xFFFFFFFF AND JUMP JUMPDEST JUMPDEST JUMPDEST POP POP POP JUMP JUMPDEST PUSH2 0x22D4 DUP4 PUSH4 0xA9059CBB PUSH1 0xE0 SHL DUP5 DUP5 PUSH1 0x40 MLOAD PUSH1 0x24 ADD DUP1 DUP4 PUSH20 0xFFFFFFFFFFFFFFFFFFFFFFFFFFFFFFFFFFFFFFFF AND DUP2 MSTORE PUSH1 0x20 ADD DUP3 DUP2 MSTORE PUSH1 0x20 ADD SWAP3 POP POP POP PUSH1 0x40 MLOAD PUSH1 0x20 DUP2 DUP4 SUB SUB DUP2 MSTORE SWAP1 PUSH1 0x40 MSTORE SWAP1 PUSH28 0xFFFFFFFFFFFFFFFFFFFFFFFFFFFFFFFFFFFFFFFFFFFFFFFFFFFFFFFF NOT AND PUSH1 0x20 DUP3 ADD DUP1 MLOAD PUSH28 0xFFFFFFFFFFFFFFFFFFFFFFFFFFFFFFFFFFFFFFFFFFFFFFFFFFFFFFFF DUP4 DUP2 DUP4 AND OR DUP4 MSTORE POP POP POP POP PUSH2 0x24D3 JUMP JUMPDEST POP POP POP JUMP JUMPDEST PUSH1 0x0 PUSH1 0x2 DUP1 SLOAD SWAP1 POP SWAP1 POP PUSH1 0x0 JUMPDEST DUP2 DUP2 LT ISZERO PUSH2 0x23BC JUMPI DUP3 PUSH20 0xFFFFFFFFFFFFFFFFFFFFFFFFFFFFFFFFFFFFFFFF AND PUSH1 0x2 DUP3 DUP2 SLOAD DUP2 LT PUSH2 0x2312 JUMPI INVALID JUMPDEST SWAP1 PUSH1 0x0 MSTORE PUSH1 0x20 PUSH1 0x0 KECCAK256 SWAP1 PUSH1 0x5 MUL ADD PUSH1 0x0 ADD PUSH1 0x0 SWAP1 SLOAD SWAP1 PUSH2 0x100 EXP SWAP1 DIV PUSH20 0xFFFFFFFFFFFFFFFFFFFFFFFFFFFFFFFFFFFFFFFF AND PUSH20 0xFFFFFFFFFFFFFFFFFFFFFFFFFFFFFFFFFFFFFFFF AND EQ ISZERO PUSH2 0x23B1 JUMPI PUSH1 0x40 MLOAD PUSH32 0x8C379A000000000000000000000000000000000000000000000000000000000 DUP2 MSTORE PUSH1 0x4 ADD DUP1 DUP1 PUSH1 0x20 ADD DUP3 DUP2 SUB DUP3 MSTORE PUSH1 0x21 DUP2 MSTORE PUSH1 0x20 ADD DUP1 PUSH2 0x2937 PUSH1 0x21 SWAP2 CODECOPY PUSH1 0x40 ADD SWAP2 POP POP PUSH1 0x40 MLOAD DUP1 SWAP2 SUB SWAP1 REVERT JUMPDEST DUP1 PUSH1 0x1 ADD SWAP1 POP PUSH2 0x22E6 JUMP JUMPDEST POP POP POP JUMP JUMPDEST PUSH1 0x0 DUP1 PUSH2 0x23D9 PUSH1 0x5 SLOAD DUP5 PUSH2 0x25C2 SWAP1 SWAP2 SWAP1 PUSH4 0xFFFFFFFF AND JUMP JUMPDEST SWAP1 POP PUSH1 0x0 PUSH2 0x2406 PUSH2 0x2710 PUSH2 0x23F8 PUSH1 0x5 SLOAD DUP6 PUSH2 0x1FA9 SWAP1 SWAP2 SWAP1 PUSH4 0xFFFFFFFF AND JUMP JUMPDEST PUSH2 0x202F SWAP1 SWAP2 SWAP1 PUSH4 0xFFFFFFFF AND JUMP JUMPDEST SWAP1 POP DUP1 SWAP3 POP POP POP SWAP2 SWAP1 POP JUMP JUMPDEST PUSH2 0x24CD DUP5 PUSH4 0x23B872DD PUSH1 0xE0 SHL DUP6 DUP6 DUP6 PUSH1 0x40 MLOAD PUSH1 0x24 ADD DUP1 DUP5 PUSH20 0xFFFFFFFFFFFFFFFFFFFFFFFFFFFFFFFFFFFFFFFF AND DUP2 MSTORE PUSH1 0x20 ADD DUP4 PUSH20 0xFFFFFFFFFFFFFFFFFFFFFFFFFFFFFFFFFFFFFFFF AND DUP2 MSTORE PUSH1 0x20 ADD DUP3 DUP2 MSTORE PUSH1 0x20 ADD SWAP4 POP POP POP POP PUSH1 0x40 MLOAD PUSH1 0x20 DUP2 DUP4 SUB SUB DUP2 MSTORE SWAP1 PUSH1 0x40 MSTORE SWAP1 PUSH28 0xFFFFFFFFFFFFFFFFFFFFFFFFFFFFFFFFFFFFFFFFFFFFFFFFFFFFFFFF NOT AND PUSH1 0x20 DUP3 ADD DUP1 MLOAD PUSH28 0xFFFFFFFFFFFFFFFFFFFFFFFFFFFFFFFFFFFFFFFFFFFFFFFFFFFFFFFF DUP4 DUP2 DUP4 AND OR DUP4 MSTORE POP POP POP POP PUSH2 0x24D3 JUMP JUMPDEST POP POP POP POP JUMP JUMPDEST PUSH1 0x60 PUSH2 0x2535 DUP3 PUSH1 0x40 MLOAD DUP1 PUSH1 0x40 ADD PUSH1 0x40 MSTORE DUP1 PUSH1 0x20 DUP2 MSTORE PUSH1 0x20 ADD PUSH32 0x5361666545524332303A206C6F772D6C6576656C2063616C6C206661696C6564 DUP2 MSTORE POP DUP6 PUSH20 0xFFFFFFFFFFFFFFFFFFFFFFFFFFFFFFFFFFFFFFFF AND PUSH2 0x25FD SWAP1 SWAP3 SWAP2 SWAP1 PUSH4 0xFFFFFFFF AND JUMP JUMPDEST SWAP1 POP PUSH1 0x0 DUP2 MLOAD GT ISZERO PUSH2 0x25BD JUMPI DUP1 DUP1 PUSH1 0x20 ADD SWAP1 MLOAD PUSH1 0x20 DUP2 LT ISZERO PUSH2 0x2556 JUMPI PUSH1 0x0 DUP1 REVERT JUMPDEST DUP2 ADD SWAP1 DUP1 DUP1 MLOAD SWAP1 PUSH1 0x20 ADD SWAP1 SWAP3 SWAP2 SWAP1 POP POP POP PUSH2 0x25BC JUMPI PUSH1 0x40 MLOAD PUSH32 0x8C379A000000000000000000000000000000000000000000000000000000000 DUP2 MSTORE PUSH1 0x4 ADD DUP1 DUP1 PUSH1 0x20 ADD DUP3 DUP2 SUB DUP3 MSTORE PUSH1 0x2A DUP2 MSTORE PUSH1 0x20 ADD DUP1 PUSH2 0x2958 PUSH1 0x2A SWAP2 CODECOPY PUSH1 0x40 ADD SWAP2 POP POP PUSH1 0x40 MLOAD DUP1 SWAP2 SUB SWAP1 REVERT JUMPDEST JUMPDEST POP POP POP JUMP JUMPDEST PUSH1 0x0 DUP1 PUSH2 0x25CF DUP5 DUP5 PUSH2 0x1F21 JUMP JUMPDEST SWAP1 POP PUSH1 0x0 PUSH2 0x25DE DUP3 PUSH1 0x1 PUSH2 0x1E9E JUMP JUMPDEST SWAP1 POP PUSH2 0x25F3 PUSH2 0x25ED DUP3 DUP7 PUSH2 0x202F JUMP JUMPDEST DUP6 PUSH2 0x1FA9 JUMP JUMPDEST SWAP3 POP POP POP SWAP3 SWAP2 POP POP JUMP JUMPDEST PUSH1 0x60 PUSH2 0x260C DUP5 DUP5 PUSH1 0x0 DUP6 PUSH2 0x2615 JUMP JUMPDEST SWAP1 POP SWAP4 SWAP3 POP POP POP JUMP JUMPDEST PUSH1 0x60 DUP3 SELFBALANCE LT ISZERO PUSH2 0x2670 JUMPI PUSH1 0x40 MLOAD PUSH32 0x8C379A000000000000000000000000000000000000000000000000000000000 DUP2 MSTORE PUSH1 0x4 ADD DUP1 DUP1 PUSH1 0x20 ADD DUP3 DUP2 SUB DUP3 MSTORE PUSH1 0x26 DUP2 MSTORE PUSH1 0x20 ADD DUP1 PUSH2 0x28F0 PUSH1 0x26 SWAP2 CODECOPY PUSH1 0x40 ADD SWAP2 POP POP PUSH1 0x40 MLOAD DUP1 SWAP2 SUB SWAP1 REVERT JUMPDEST PUSH2 0x2679 DUP6 PUSH2 0x27BE JUMP JUMPDEST PUSH2 0x26EB JUMPI PUSH1 0x40 MLOAD PUSH32 0x8C379A000000000000000000000000000000000000000000000000000000000 DUP2 MSTORE PUSH1 0x4 ADD DUP1 DUP1 PUSH1 0x20 ADD DUP3 DUP2 SUB DUP3 MSTORE PUSH1 0x1D DUP2 MSTORE PUSH1 0x20 ADD DUP1 PUSH32 0x416464726573733A2063616C6C20746F206E6F6E2D636F6E7472616374000000 DUP2 MSTORE POP PUSH1 0x20 ADD SWAP2 POP POP PUSH1 0x40 MLOAD DUP1 SWAP2 SUB SWAP1 REVERT JUMPDEST PUSH1 0x0 PUSH1 0x60 DUP7 PUSH20 0xFFFFFFFFFFFFFFFFFFFFFFFFFFFFFFFFFFFFFFFF AND DUP6 DUP8 PUSH1 0x40 MLOAD DUP1 DUP3 DUP1 MLOAD SWAP1 PUSH1 0x20 ADD SWAP1 DUP1 DUP4 DUP4 JUMPDEST PUSH1 0x20 DUP4 LT PUSH2 0x273B JUMPI DUP1 MLOAD DUP3 MSTORE PUSH1 0x20 DUP3 ADD SWAP2 POP PUSH1 0x20 DUP2 ADD SWAP1 POP PUSH1 0x20 DUP4 SUB SWAP3 POP PUSH2 0x2718 JUMP JUMPDEST PUSH1 0x1 DUP4 PUSH1 0x20 SUB PUSH2 0x100 EXP SUB DUP1 NOT DUP3 MLOAD AND DUP2 DUP5 MLOAD AND DUP1 DUP3 OR DUP6 MSTORE POP POP POP POP POP POP SWAP1 POP ADD SWAP2 POP POP PUSH1 0x0 PUSH1 0x40 MLOAD DUP1 DUP4 SUB DUP2 DUP6 DUP8 GAS CALL SWAP3 POP POP POP RETURNDATASIZE DUP1 PUSH1 0x0 DUP2 EQ PUSH2 0x279D JUMPI PUSH1 0x40 MLOAD SWAP2 POP PUSH1 0x1F NOT PUSH1 0x3F RETURNDATASIZE ADD AND DUP3 ADD PUSH1 0x40 MSTORE RETURNDATASIZE DUP3 MSTORE RETURNDATASIZE PUSH1 0x0 PUSH1 0x20 DUP5 ADD RETURNDATACOPY PUSH2 0x27A2 JUMP JUMPDEST PUSH1 0x60 SWAP2 POP JUMPDEST POP SWAP2 POP SWAP2 POP PUSH2 0x27B2 DUP3 DUP3 DUP7 PUSH2 0x27D1 JUMP JUMPDEST SWAP3 POP POP POP SWAP5 SWAP4 POP POP POP POP JUMP JUMPDEST PUSH1 0x0 DUP1 DUP3 EXTCODESIZE SWAP1 POP PUSH1 0x0 DUP2 GT SWAP2 POP POP SWAP2 SWAP1 POP JUMP JUMPDEST PUSH1 0x60 DUP4 ISZERO PUSH2 0x27E1 JUMPI DUP3 SWAP1 POP PUSH2 0x2896 JUMP JUMPDEST PUSH1 0x0 DUP4 MLOAD GT ISZERO PUSH2 0x27F4 JUMPI DUP3 MLOAD DUP1 DUP5 PUSH1 0x20 ADD REVERT JUMPDEST DUP2 PUSH1 0x40 MLOAD PUSH32 0x8C379A000000000000000000000000000000000000000000000000000000000 DUP2 MSTORE PUSH1 0x4 ADD DUP1 DUP1 PUSH1 0x20 ADD DUP3 DUP2 SUB DUP3 MSTORE DUP4 DUP2 DUP2 MLOAD DUP2 MSTORE PUSH1 0x20 ADD SWAP2 POP DUP1 MLOAD SWAP1 PUSH1 0x20 ADD SWAP1 DUP1 DUP4 DUP4 PUSH1 0x0 JUMPDEST DUP4 DUP2 LT ISZERO PUSH2 0x285B JUMPI DUP1 DUP3 ADD MLOAD DUP2 DUP5 ADD MSTORE PUSH1 0x20 DUP2 ADD SWAP1 POP PUSH2 0x2840 JUMP JUMPDEST POP POP POP POP SWAP1 POP SWAP1 DUP2 ADD SWAP1 PUSH1 0x1F AND DUP1 ISZERO PUSH2 0x2888 JUMPI DUP1 DUP3 SUB DUP1 MLOAD PUSH1 0x1 DUP4 PUSH1 0x20 SUB PUSH2 0x100 EXP SUB NOT AND DUP2 MSTORE PUSH1 0x20 ADD SWAP2 POP JUMPDEST POP SWAP3 POP POP POP PUSH1 0x40 MLOAD DUP1 SWAP2 SUB SWAP1 REVERT JUMPDEST SWAP4 SWAP3 POP POP POP JUMP INVALID SLOAD MSTORE8 PUSH9 0x617265526577617264 POP PUSH16 0x6F6C3A20616C726561647920696E6974 PUSH10 0x616C697A656445635368 PUSH2 0x7265 MSTORE PUSH6 0x77617264506F PUSH16 0x6C3A2063616C6C6572206973206E6F74 KECCAK256 PUSH21 0x6865206F70657261746F72416464726573733A2069 PUSH15 0x73756666696369656E742062616C61 PUSH15 0x636520666F722063616C6C53616665 0x4D PUSH2 0x7468 GASPRICE KECCAK256 PUSH14 0x756C7469706C69636174696F6E20 PUSH16 0x766572666C6F77456353686172655265 PUSH24 0x617264506F6F6C3A206578697374696E6720706F6F6C3F53 PUSH2 0x6665 GASLIMIT MSTORE NUMBER ORIGIN ADDRESS GASPRICE KECCAK256 GASLIMIT MSTORE NUMBER ORIGIN ADDRESS KECCAK256 PUSH16 0x7065726174696F6E20646964206E6F74 KECCAK256 PUSH20 0x756363656564A264697066735822122047C9DA07 DUP1 0x25 STATICCALL 0xDB PUSH11 0xE025FDF700EE1743CF4F9A INVALID 0xE6 0xE7 SWAP8 0xD1 PUSH4 0xACADF38E STOP OR PUSH5 0x736F6C6343 STOP MOD 0xC STOP CALLER "
				},
				"gasEstimates": {
					"creation": {
						"codeDepositCost": "2135800",
						"executionCost": "88213",
						"totalCost": "2224013"
					},
					"external": {
						"EcShare()": "1093",
						"EcSharePerSecond()": "1094",
						"Fee()": "1049",
						"TOTAL_REWARDS()": "229",
						"_feeTo()": "1115",
						"add(uint256,address,bool,uint256)": "infinite",
						"deposit(uint256,uint256)": "infinite",
						"emergencyWithdraw(uint256)": "infinite",
						"getGeneratedReward(uint256,uint256)": "infinite",
						"governanceRecoverUnsupported(address,uint256,address)": "infinite",
						"initialize(address)": "infinite",
						"initialized()": "1187",
						"isInitialized()": "1173",
						"massUpdatePools()": "infinite",
						"operator()": "1090",
						"pendingShare(uint256,address)": "infinite",
						"poolEndTime()": "1072",
						"poolInfo(uint256)": "5485",
						"poolStartTime()": "1095",
						"runningTime()": "1050",
						"set(uint256,uint256)": "infinite",
						"setOperator(address)": "infinite",
						"setTime(uint256)": "infinite",
						"totalAllocPoint()": "1117",
						"updatePool(uint256)": "infinite",
						"userInfo(uint256,address)": "2218",
						"withdraw(uint256,uint256)": "infinite"
					},
					"internal": {
						"_fees(uint256)": "infinite",
						"checkPoolDuplicate(contract IERC20)": "infinite",
						"safeEcShareTransfer(address,uint256)": "infinite"
					}
				},
				"methodIdentifiers": {
					"EcShare()": "14ab2649",
					"EcSharePerSecond()": "87928951",
					"Fee()": "bef7a2f0",
					"TOTAL_REWARDS()": "09cf6091",
					"_feeTo()": "5d114dcc",
					"add(uint256,address,bool,uint256)": "96805e54",
					"deposit(uint256,uint256)": "e2bbb158",
					"emergencyWithdraw(uint256)": "5312ea8e",
					"getGeneratedReward(uint256,uint256)": "231f0c6a",
					"governanceRecoverUnsupported(address,uint256,address)": "54575af4",
					"initialize(address)": "c4d66de8",
					"initialized()": "158ef93e",
					"isInitialized()": "392e53cd",
					"massUpdatePools()": "630b5ba1",
					"operator()": "570ca735",
					"pendingShare(uint256,address)": "cf4b55cb",
					"poolEndTime()": "6e271dd5",
					"poolInfo(uint256)": "1526fe27",
					"poolStartTime()": "5f96dc11",
					"runningTime()": "943f013d",
					"set(uint256,uint256)": "1ab06ee5",
					"setOperator(address)": "b3ab15fb",
					"setTime(uint256)": "3beb26c4",
					"totalAllocPoint()": "17caf6f1",
					"updatePool(uint256)": "51eb05a6",
					"userInfo(uint256,address)": "93f1a40b",
					"withdraw(uint256,uint256)": "441a3e70"
				}
			},
			"storageLayout": {
				"storage": [
					{
						"astId": 987,
						"contract": "contracts-encrypt/distribution/TShareRewardPool.sol:ecShareRewardPool",
						"label": "operator",
						"offset": 0,
						"slot": "0",
						"type": "t_address"
					},
					{
						"astId": 1005,
						"contract": "contracts-encrypt/distribution/TShareRewardPool.sol:ecShareRewardPool",
						"label": "EcShare",
						"offset": 0,
						"slot": "1",
						"type": "t_contract(IERC20)77"
					},
					{
						"astId": 1008,
						"contract": "contracts-encrypt/distribution/TShareRewardPool.sol:ecShareRewardPool",
						"label": "poolInfo",
						"offset": 0,
						"slot": "2",
						"type": "t_array(t_struct(PoolInfo)1003_storage)dyn_storage"
					},
					{
						"astId": 1014,
						"contract": "contracts-encrypt/distribution/TShareRewardPool.sol:ecShareRewardPool",
						"label": "userInfo",
						"offset": 0,
						"slot": "3",
						"type": "t_mapping(t_uint256,t_mapping(t_address,t_struct(UserInfo)992_storage))"
					},
					{
						"astId": 1017,
						"contract": "contracts-encrypt/distribution/TShareRewardPool.sol:ecShareRewardPool",
						"label": "totalAllocPoint",
						"offset": 0,
						"slot": "4",
						"type": "t_uint256"
					},
					{
						"astId": 1020,
						"contract": "contracts-encrypt/distribution/TShareRewardPool.sol:ecShareRewardPool",
						"label": "Fee",
						"offset": 0,
						"slot": "5",
						"type": "t_uint256"
					},
					{
						"astId": 1022,
						"contract": "contracts-encrypt/distribution/TShareRewardPool.sol:ecShareRewardPool",
						"label": "_feeTo",
						"offset": 0,
						"slot": "6",
						"type": "t_address"
					},
					{
						"astId": 1025,
						"contract": "contracts-encrypt/distribution/TShareRewardPool.sol:ecShareRewardPool",
						"label": "initialized",
						"offset": 20,
						"slot": "6",
						"type": "t_bool"
					},
					{
						"astId": 1027,
						"contract": "contracts-encrypt/distribution/TShareRewardPool.sol:ecShareRewardPool",
						"label": "poolStartTime",
						"offset": 0,
						"slot": "7",
						"type": "t_uint256"
					},
					{
						"astId": 1029,
						"contract": "contracts-encrypt/distribution/TShareRewardPool.sol:ecShareRewardPool",
						"label": "poolEndTime",
						"offset": 0,
						"slot": "8",
						"type": "t_uint256"
					},
					{
						"astId": 1032,
						"contract": "contracts-encrypt/distribution/TShareRewardPool.sol:ecShareRewardPool",
						"label": "EcSharePerSecond",
						"offset": 0,
						"slot": "9",
						"type": "t_uint256"
					},
					{
						"astId": 1035,
						"contract": "contracts-encrypt/distribution/TShareRewardPool.sol:ecShareRewardPool",
						"label": "runningTime",
						"offset": 0,
						"slot": "10",
						"type": "t_uint256"
					}
				],
				"types": {
					"t_address": {
						"encoding": "inplace",
						"label": "address",
						"numberOfBytes": "20"
					},
					"t_array(t_struct(PoolInfo)1003_storage)dyn_storage": {
						"base": "t_struct(PoolInfo)1003_storage",
						"encoding": "dynamic_array",
						"label": "struct ecShareRewardPool.PoolInfo[]",
						"numberOfBytes": "32"
					},
					"t_bool": {
						"encoding": "inplace",
						"label": "bool",
						"numberOfBytes": "1"
					},
					"t_contract(IERC20)77": {
						"encoding": "inplace",
						"label": "contract IERC20",
						"numberOfBytes": "20"
					},
					"t_mapping(t_address,t_struct(UserInfo)992_storage)": {
						"encoding": "mapping",
						"key": "t_address",
						"label": "mapping(address => struct ecShareRewardPool.UserInfo)",
						"numberOfBytes": "32",
						"value": "t_struct(UserInfo)992_storage"
					},
					"t_mapping(t_uint256,t_mapping(t_address,t_struct(UserInfo)992_storage))": {
						"encoding": "mapping",
						"key": "t_uint256",
						"label": "mapping(uint256 => mapping(address => struct ecShareRewardPool.UserInfo))",
						"numberOfBytes": "32",
						"value": "t_mapping(t_address,t_struct(UserInfo)992_storage)"
					},
					"t_struct(PoolInfo)1003_storage": {
						"encoding": "inplace",
						"label": "struct ecShareRewardPool.PoolInfo",
						"members": [
							{
								"astId": 994,
								"contract": "contracts-encrypt/distribution/TShareRewardPool.sol:ecShareRewardPool",
								"label": "token",
								"offset": 0,
								"slot": "0",
								"type": "t_contract(IERC20)77"
							},
							{
								"astId": 996,
								"contract": "contracts-encrypt/distribution/TShareRewardPool.sol:ecShareRewardPool",
								"label": "allocPoint",
								"offset": 0,
								"slot": "1",
								"type": "t_uint256"
							},
							{
								"astId": 998,
								"contract": "contracts-encrypt/distribution/TShareRewardPool.sol:ecShareRewardPool",
								"label": "lastRewardTime",
								"offset": 0,
								"slot": "2",
								"type": "t_uint256"
							},
							{
								"astId": 1000,
								"contract": "contracts-encrypt/distribution/TShareRewardPool.sol:ecShareRewardPool",
								"label": "accEcSharePerShare",
								"offset": 0,
								"slot": "3",
								"type": "t_uint256"
							},
							{
								"astId": 1002,
								"contract": "contracts-encrypt/distribution/TShareRewardPool.sol:ecShareRewardPool",
								"label": "isStarted",
								"offset": 0,
								"slot": "4",
								"type": "t_bool"
							}
						],
						"numberOfBytes": "160"
					},
					"t_struct(UserInfo)992_storage": {
						"encoding": "inplace",
						"label": "struct ecShareRewardPool.UserInfo",
						"members": [
							{
								"astId": 989,
								"contract": "contracts-encrypt/distribution/TShareRewardPool.sol:ecShareRewardPool",
								"label": "amount",
								"offset": 0,
								"slot": "0",
								"type": "t_uint256"
							},
							{
								"astId": 991,
								"contract": "contracts-encrypt/distribution/TShareRewardPool.sol:ecShareRewardPool",
								"label": "rewardDebt",
								"offset": 0,
								"slot": "1",
								"type": "t_uint256"
							}
						],
						"numberOfBytes": "64"
					},
					"t_uint256": {
						"encoding": "inplace",
						"label": "uint256",
						"numberOfBytes": "32"
					}
				}
			},
			"userdoc": {
				"kind": "user",
				"methods": {},
				"version": 1
			}
		}
	}
}