{
	"contracts/distribution/TShareRewardPool.sol": {
		"PolRewardPool": {
			"abi": [
				{
					"inputs": [
						{
							"internalType": "address",
							"name": "_tshare",
							"type": "address"
						},
						{
							"internalType": "uint256",
							"name": "_poolStartTime",
							"type": "uint256"
						}
					],
					"stateMutability": "nonpayable",
					"type": "constructor"
				},
				{
					"anonymous": false,
					"inputs": [
						{
							"indexed": true,
							"internalType": "address",
							"name": "user",
							"type": "address"
						},
						{
							"indexed": true,
							"internalType": "uint256",
							"name": "pid",
							"type": "uint256"
						},
						{
							"indexed": false,
							"internalType": "uint256",
							"name": "amount",
							"type": "uint256"
						}
					],
					"name": "Deposit",
					"type": "event"
				},
				{
					"anonymous": false,
					"inputs": [
						{
							"indexed": true,
							"internalType": "address",
							"name": "user",
							"type": "address"
						},
						{
							"indexed": true,
							"internalType": "uint256",
							"name": "pid",
							"type": "uint256"
						},
						{
							"indexed": false,
							"internalType": "uint256",
							"name": "amount",
							"type": "uint256"
						}
					],
					"name": "EmergencyWithdraw",
					"type": "event"
				},
				{
					"anonymous": false,
					"inputs": [
						{
							"indexed": true,
							"internalType": "address",
							"name": "user",
							"type": "address"
						},
						{
							"indexed": false,
							"internalType": "uint256",
							"name": "amount",
							"type": "uint256"
						}
					],
					"name": "RewardPaid",
					"type": "event"
				},
				{
					"anonymous": false,
					"inputs": [
						{
							"indexed": true,
							"internalType": "address",
							"name": "user",
							"type": "address"
						},
						{
							"indexed": true,
							"internalType": "uint256",
							"name": "pid",
							"type": "uint256"
						},
						{
							"indexed": false,
							"internalType": "uint256",
							"name": "amount",
							"type": "uint256"
						}
					],
					"name": "Withdraw",
					"type": "event"
				},
				{
					"inputs": [],
					"name": "TOTAL_REWARDS",
					"outputs": [
						{
							"internalType": "uint256",
							"name": "",
							"type": "uint256"
						}
					],
					"stateMutability": "view",
					"type": "function"
				},
				{
					"inputs": [
						{
							"internalType": "uint256",
							"name": "_allocPoint",
							"type": "uint256"
						},
						{
							"internalType": "contract IERC20",
							"name": "_token",
							"type": "address"
						},
						{
							"internalType": "bool",
							"name": "_withUpdate",
							"type": "bool"
						},
						{
							"internalType": "uint256",
							"name": "_lastRewardTime",
							"type": "uint256"
						}
					],
					"name": "add",
					"outputs": [],
					"stateMutability": "nonpayable",
					"type": "function"
				},
				{
					"inputs": [
						{
							"internalType": "uint256",
							"name": "_pid",
							"type": "uint256"
						},
						{
							"internalType": "uint256",
							"name": "_amount",
							"type": "uint256"
						}
					],
					"name": "deposit",
					"outputs": [],
					"stateMutability": "nonpayable",
					"type": "function"
				},
				{
					"inputs": [
						{
							"internalType": "uint256",
							"name": "_pid",
							"type": "uint256"
						}
					],
					"name": "emergencyWithdraw",
					"outputs": [],
					"stateMutability": "nonpayable",
					"type": "function"
				},
				{
					"inputs": [
						{
							"internalType": "uint256",
							"name": "_fromTime",
							"type": "uint256"
						},
						{
							"internalType": "uint256",
							"name": "_toTime",
							"type": "uint256"
						}
					],
					"name": "getGeneratedReward",
					"outputs": [
						{
							"internalType": "uint256",
							"name": "",
							"type": "uint256"
						}
					],
					"stateMutability": "view",
					"type": "function"
				},
				{
					"inputs": [
						{
							"internalType": "contract IERC20",
							"name": "_token",
							"type": "address"
						},
						{
							"internalType": "uint256",
							"name": "amount",
							"type": "uint256"
						},
						{
							"internalType": "address",
							"name": "to",
							"type": "address"
						}
					],
					"name": "governanceRecoverUnsupported",
					"outputs": [],
					"stateMutability": "nonpayable",
					"type": "function"
				},
				{
					"inputs": [],
					"name": "massUpdatePools",
					"outputs": [],
					"stateMutability": "nonpayable",
					"type": "function"
				},
				{
					"inputs": [],
					"name": "operator",
					"outputs": [
						{
							"internalType": "address",
							"name": "",
							"type": "address"
						}
					],
					"stateMutability": "view",
					"type": "function"
				},
				{
					"inputs": [
						{
							"internalType": "uint256",
							"name": "_pid",
							"type": "uint256"
						},
						{
							"internalType": "address",
							"name": "_user",
							"type": "address"
						}
					],
					"name": "pendingShare",
					"outputs": [
						{
							"internalType": "uint256",
							"name": "",
							"type": "uint256"
						}
					],
					"stateMutability": "view",
					"type": "function"
				},
				{
					"inputs": [],
					"name": "poolEndTime",
					"outputs": [
						{
							"internalType": "uint256",
							"name": "",
							"type": "uint256"
						}
					],
					"stateMutability": "view",
					"type": "function"
				},
				{
					"inputs": [
						{
							"internalType": "uint256",
							"name": "",
							"type": "uint256"
						}
					],
					"name": "poolInfo",
					"outputs": [
						{
							"internalType": "contract IERC20",
							"name": "token",
							"type": "address"
						},
						{
							"internalType": "uint256",
							"name": "allocPoint",
							"type": "uint256"
						},
						{
							"internalType": "uint256",
							"name": "lastRewardTime",
							"type": "uint256"
						},
						{
							"internalType": "uint256",
							"name": "accTSharePerShare",
							"type": "uint256"
						},
						{
							"internalType": "bool",
							"name": "isStarted",
							"type": "bool"
						}
					],
					"stateMutability": "view",
					"type": "function"
				},
				{
					"inputs": [],
					"name": "poolStartTime",
					"outputs": [
						{
							"internalType": "uint256",
							"name": "",
							"type": "uint256"
						}
					],
					"stateMutability": "view",
					"type": "function"
				},
				{
					"inputs": [],
					"name": "runningTime",
					"outputs": [
						{
							"internalType": "uint256",
							"name": "",
							"type": "uint256"
						}
					],
					"stateMutability": "view",
					"type": "function"
				},
				{
					"inputs": [
						{
							"internalType": "uint256",
							"name": "_pid",
							"type": "uint256"
						},
						{
							"internalType": "uint256",
							"name": "_allocPoint",
							"type": "uint256"
						}
					],
					"name": "set",
					"outputs": [],
					"stateMutability": "nonpayable",
					"type": "function"
				},
				{
					"inputs": [
						{
							"internalType": "address",
							"name": "_operator",
							"type": "address"
						}
					],
					"name": "setOperator",
					"outputs": [],
					"stateMutability": "nonpayable",
					"type": "function"
				},
				{
					"inputs": [],
					"name": "tSharePerSecond",
					"outputs": [
						{
							"internalType": "uint256",
							"name": "",
							"type": "uint256"
						}
					],
					"stateMutability": "view",
					"type": "function"
				},
				{
					"inputs": [],
					"name": "totalAllocPoint",
					"outputs": [
						{
							"internalType": "uint256",
							"name": "",
							"type": "uint256"
						}
					],
					"stateMutability": "view",
					"type": "function"
				},
				{
					"inputs": [],
					"name": "tshare",
					"outputs": [
						{
							"internalType": "contract IERC20",
							"name": "",
							"type": "address"
						}
					],
					"stateMutability": "view",
					"type": "function"
				},
				{
					"inputs": [
						{
							"internalType": "uint256",
							"name": "_pid",
							"type": "uint256"
						}
					],
					"name": "updatePool",
					"outputs": [],
					"stateMutability": "nonpayable",
					"type": "function"
				},
				{
					"inputs": [
						{
							"internalType": "uint256",
							"name": "",
							"type": "uint256"
						},
						{
							"internalType": "address",
							"name": "",
							"type": "address"
						}
					],
					"name": "userInfo",
					"outputs": [
						{
							"internalType": "uint256",
							"name": "amount",
							"type": "uint256"
						},
						{
							"internalType": "uint256",
							"name": "rewardDebt",
							"type": "uint256"
						}
					],
					"stateMutability": "view",
					"type": "function"
				},
				{
					"inputs": [
						{
							"internalType": "uint256",
							"name": "_pid",
							"type": "uint256"
						},
						{
							"internalType": "uint256",
							"name": "_amount",
							"type": "uint256"
						}
					],
					"name": "withdraw",
					"outputs": [],
					"stateMutability": "nonpayable",
					"type": "function"
				}
			],
			"devdoc": {
				"kind": "dev",
				"methods": {},
				"version": 1
			},
			"evm": {
				"assembly": "    /* \"contracts/distribution/TShareRewardPool.sol\":435:11056  contract PolRewardPool {\r... */\n  mstore(0x40, 0x80)\n    /* \"contracts/distribution/TShareRewardPool.sol\":1575:1576  0 */\n  0x00\n    /* \"contracts/distribution/TShareRewardPool.sol\":1542:1576  uint256 public totalAllocPoint = 0 */\n  0x04\n  sstore\n    /* \"contracts/distribution/TShareRewardPool.sol\":1776:1792  0.00187687 ether */\n  0x06ab00d9a3bc00\n    /* \"contracts/distribution/TShareRewardPool.sol\":1743:1792  uint256 public tSharePerSecond = 0.00187687 ether */\n  0x07\n  sstore\n    /* \"contracts/distribution/TShareRewardPool.sol\":1877:1885  370 days */\n  0x01e7cb00\n    /* \"contracts/distribution/TShareRewardPool.sol\":1848:1885  uint256 public runningTime = 370 days */\n  0x08\n  sstore\n    /* \"contracts/distribution/TShareRewardPool.sol\":2275:2615  constructor(\r... */\n  callvalue\n  dup1\n  iszero\n  tag_1\n  jumpi\n  0x00\n  dup1\n  revert\ntag_1:\n  pop\n  mload(0x40)\n  sub(codesize, bytecodeSize)\n  dup1\n  bytecodeSize\n  dup4\n  codecopy\n  dup2\n  dup2\n  add\n  0x40\n  mstore\n  0x40\n  dup2\n  lt\n  iszero\n  tag_2\n  jumpi\n  0x00\n  dup1\n  revert\ntag_2:\n  dup2\n  add\n  swap1\n  dup1\n  dup1\n  mload\n  swap1\n  0x20\n  add\n  swap1\n  swap3\n  swap2\n  swap1\n  dup1\n  mload\n  swap1\n  0x20\n  add\n  swap1\n  swap3\n  swap2\n  swap1\n  pop\n  pop\n  pop\n    /* \"contracts/distribution/TShareRewardPool.sol\":2397:2411  _poolStartTime */\n  dup1\n    /* \"contracts/distribution/TShareRewardPool.sol\":2379:2394  block.timestamp */\n  timestamp\n    /* \"contracts/distribution/TShareRewardPool.sol\":2379:2411  block.timestamp < _poolStartTime */\n  lt\n    /* \"contracts/distribution/TShareRewardPool.sol\":2371:2420  require(block.timestamp < _poolStartTime, \"late\") */\n  tag_5\n  jumpi\n  mload(0x40)\n  0x08c379a000000000000000000000000000000000000000000000000000000000\n  dup2\n  mstore\n  0x04\n  add\n  dup1\n  dup1\n  0x20\n  add\n  dup3\n  dup2\n  sub\n  dup3\n  mstore\n  0x04\n  dup2\n  mstore\n  0x20\n  add\n  dup1\n  0x6c61746500000000000000000000000000000000000000000000000000000000\n  dup2\n  mstore\n  pop\n  0x20\n  add\n  swap2\n  pop\n  pop\n  mload(0x40)\n  dup1\n  swap2\n  sub\n  swap1\n  revert\ntag_5:\n    /* \"contracts/distribution/TShareRewardPool.sol\":2454:2455  0 */\n  0x00\n    /* \"contracts/distribution/TShareRewardPool.sol\":2435:2456  _tshare != address(0) */\n  0xffffffffffffffffffffffffffffffffffffffff\n  and\n    /* \"contracts/distribution/TShareRewardPool.sol\":2435:2442  _tshare */\n  dup3\n    /* \"contracts/distribution/TShareRewardPool.sol\":2435:2456  _tshare != address(0) */\n  0xffffffffffffffffffffffffffffffffffffffff\n  and\n  eq\n    /* \"contracts/distribution/TShareRewardPool.sol\":2431:2482  if (_tshare != address(0)) tshare = IERC20(_tshare) */\n  tag_6\n  jumpi\n    /* \"contracts/distribution/TShareRewardPool.sol\":2474:2481  _tshare */\n  dup2\n    /* \"contracts/distribution/TShareRewardPool.sol\":2458:2464  tshare */\n  0x01\n  0x00\n    /* \"contracts/distribution/TShareRewardPool.sol\":2458:2482  tshare = IERC20(_tshare) */\n  0x0100\n  exp\n  dup2\n  sload\n  dup2\n  0xffffffffffffffffffffffffffffffffffffffff\n  mul\n  not\n  and\n  swap1\n  dup4\n  0xffffffffffffffffffffffffffffffffffffffff\n  and\n  mul\n  or\n  swap1\n  sstore\n  pop\n    /* \"contracts/distribution/TShareRewardPool.sol\":2431:2482  if (_tshare != address(0)) tshare = IERC20(_tshare) */\ntag_6:\n    /* \"contracts/distribution/TShareRewardPool.sol\":2509:2523  _poolStartTime */\n  dup1\n    /* \"contracts/distribution/TShareRewardPool.sol\":2493:2506  poolStartTime */\n  0x05\n    /* \"contracts/distribution/TShareRewardPool.sol\":2493:2523  poolStartTime = _poolStartTime */\n  dup2\n  swap1\n  sstore\n  pop\n    /* \"contracts/distribution/TShareRewardPool.sol\":2564:2575  runningTime */\n  sload(0x08)\n    /* \"contracts/distribution/TShareRewardPool.sol\":2548:2561  poolStartTime */\n  sload(0x05)\n    /* \"contracts/distribution/TShareRewardPool.sol\":2548:2575  poolStartTime + runningTime */\n  add\n    /* \"contracts/distribution/TShareRewardPool.sol\":2534:2545  poolEndTime */\n  0x06\n    /* \"contracts/distribution/TShareRewardPool.sol\":2534:2575  poolEndTime = poolStartTime + runningTime */\n  dup2\n  swap1\n  sstore\n  pop\n    /* \"contracts/distribution/TShareRewardPool.sol\":2597:2607  msg.sender */\n  caller\n    /* \"contracts/distribution/TShareRewardPool.sol\":2586:2594  operator */\n  0x00\n  dup1\n    /* \"contracts/distribution/TShareRewardPool.sol\":2586:2607  operator = msg.sender */\n  0x0100\n  exp\n  dup2\n  sload\n  dup2\n  0xffffffffffffffffffffffffffffffffffffffff\n  mul\n  not\n  and\n  swap1\n  dup4\n  0xffffffffffffffffffffffffffffffffffffffff\n  and\n  mul\n  or\n  swap1\n  sstore\n  pop\n    /* \"contracts/distribution/TShareRewardPool.sol\":2275:2615  constructor(\r... */\n  pop\n  pop\n    /* \"contracts/distribution/TShareRewardPool.sol\":435:11056  contract PolRewardPool {\r... */\n  dataSize(sub_0)\n  dup1\n  dataOffset(sub_0)\n  0x00\n  codecopy\n  0x00\n  return\nstop\n\nsub_0: assembly {\n        /* \"contracts/distribution/TShareRewardPool.sol\":435:11056  contract PolRewardPool {\r... */\n      mstore(0x40, 0x80)\n      callvalue\n      dup1\n      iszero\n      tag_1\n      jumpi\n      0x00\n      dup1\n      revert\n    tag_1:\n      pop\n      jumpi(tag_2, lt(calldatasize, 0x04))\n      shr(0xe0, calldataload(0x00))\n      dup1\n      0x5f96dc11\n      gt\n      tag_24\n      jumpi\n      dup1\n      0x96805e54\n      gt\n      tag_25\n      jumpi\n      dup1\n      0x96805e54\n      eq\n      tag_18\n      jumpi\n      dup1\n      0x9e63d261\n      eq\n      tag_19\n      jumpi\n      dup1\n      0xb3ab15fb\n      eq\n      tag_20\n      jumpi\n      dup1\n      0xcf4b55cb\n      eq\n      tag_21\n      jumpi\n      dup1\n      0xe2bbb158\n      eq\n      tag_22\n      jumpi\n      dup1\n      0xee6822a7\n      eq\n      tag_23\n      jumpi\n      jump(tag_2)\n    tag_25:\n      dup1\n      0x5f96dc11\n      eq\n      tag_13\n      jumpi\n      dup1\n      0x630b5ba1\n      eq\n      tag_14\n      jumpi\n      dup1\n      0x6e271dd5\n      eq\n      tag_15\n      jumpi\n      dup1\n      0x93f1a40b\n      eq\n      tag_16\n      jumpi\n      dup1\n      0x943f013d\n      eq\n      tag_17\n      jumpi\n      jump(tag_2)\n    tag_24:\n      dup1\n      0x441a3e70\n      gt\n      tag_26\n      jumpi\n      dup1\n      0x441a3e70\n      eq\n      tag_8\n      jumpi\n      dup1\n      0x51eb05a6\n      eq\n      tag_9\n      jumpi\n      dup1\n      0x5312ea8e\n      eq\n      tag_10\n      jumpi\n      dup1\n      0x54575af4\n      eq\n      tag_11\n      jumpi\n      dup1\n      0x570ca735\n      eq\n      tag_12\n      jumpi\n      jump(tag_2)\n    tag_26:\n      dup1\n      0x09cf6091\n      eq\n      tag_3\n      jumpi\n      dup1\n      0x1526fe27\n      eq\n      tag_4\n      jumpi\n      dup1\n      0x17caf6f1\n      eq\n      tag_5\n      jumpi\n      dup1\n      0x1ab06ee5\n      eq\n      tag_6\n      jumpi\n      dup1\n      0x231f0c6a\n      eq\n      tag_7\n      jumpi\n    tag_2:\n      0x00\n      dup1\n      revert\n        /* \"contracts/distribution/TShareRewardPool.sol\":1904:1955  uint256 public constant TOTAL_REWARDS = 60000 ether */\n    tag_3:\n      tag_27\n      tag_28\n      jump\t// in\n    tag_27:\n      mload(0x40)\n      dup1\n      dup3\n      dup2\n      mstore\n      0x20\n      add\n      swap2\n      pop\n      pop\n      mload(0x40)\n      dup1\n      swap2\n      sub\n      swap1\n      return\n        /* \"contracts/distribution/TShareRewardPool.sol\":1297:1323  PoolInfo[] public poolInfo */\n    tag_4:\n      tag_29\n      0x04\n      dup1\n      calldatasize\n      sub\n      0x20\n      dup2\n      lt\n      iszero\n      tag_30\n      jumpi\n      0x00\n      dup1\n      revert\n    tag_30:\n      dup2\n      add\n      swap1\n      dup1\n      dup1\n      calldataload\n      swap1\n      0x20\n      add\n      swap1\n      swap3\n      swap2\n      swap1\n      pop\n      pop\n      pop\n      tag_31\n      jump\t// in\n    tag_29:\n      mload(0x40)\n      dup1\n      dup7\n      0xffffffffffffffffffffffffffffffffffffffff\n      and\n      dup2\n      mstore\n      0x20\n      add\n      dup6\n      dup2\n      mstore\n      0x20\n      add\n      dup5\n      dup2\n      mstore\n      0x20\n      add\n      dup4\n      dup2\n      mstore\n      0x20\n      add\n      dup3\n      iszero\n      iszero\n      dup2\n      mstore\n      0x20\n      add\n      swap6\n      pop\n      pop\n      pop\n      pop\n      pop\n      pop\n      mload(0x40)\n      dup1\n      swap2\n      sub\n      swap1\n      return\n        /* \"contracts/distribution/TShareRewardPool.sol\":1542:1576  uint256 public totalAllocPoint = 0 */\n    tag_5:\n      tag_32\n      tag_33\n      jump\t// in\n    tag_32:\n      mload(0x40)\n      dup1\n      dup3\n      dup2\n      mstore\n      0x20\n      add\n      swap2\n      pop\n      pop\n      mload(0x40)\n      dup1\n      swap2\n      sub\n      swap1\n      return\n        /* \"contracts/distribution/TShareRewardPool.sol\":4478:4831  function set(uint256 _pid, uint256 _allocPoint) public onlyOperator {\r... */\n    tag_6:\n      tag_34\n      0x04\n      dup1\n      calldatasize\n      sub\n      0x40\n      dup2\n      lt\n      iszero\n      tag_35\n      jumpi\n      0x00\n      dup1\n      revert\n    tag_35:\n      dup2\n      add\n      swap1\n      dup1\n      dup1\n      calldataload\n      swap1\n      0x20\n      add\n      swap1\n      swap3\n      swap2\n      swap1\n      dup1\n      calldataload\n      swap1\n      0x20\n      add\n      swap1\n      swap3\n      swap2\n      swap1\n      pop\n      pop\n      pop\n      tag_36\n      jump\t// in\n    tag_34:\n      stop\n        /* \"contracts/distribution/TShareRewardPool.sol\":4908:5569  function getGeneratedReward(uint256 _fromTime, uint256 _toTime) public view returns (uint256) {\r... */\n    tag_7:\n      tag_37\n      0x04\n      dup1\n      calldatasize\n      sub\n      0x40\n      dup2\n      lt\n      iszero\n      tag_38\n      jumpi\n      0x00\n      dup1\n      revert\n    tag_38:\n      dup2\n      add\n      swap1\n      dup1\n      dup1\n      calldataload\n      swap1\n      0x20\n      add\n      swap1\n      swap3\n      swap2\n      swap1\n      dup1\n      calldataload\n      swap1\n      0x20\n      add\n      swap1\n      swap3\n      swap2\n      swap1\n      pop\n      pop\n      pop\n      tag_39\n      jump\t// in\n    tag_37:\n      mload(0x40)\n      dup1\n      dup3\n      dup2\n      mstore\n      0x20\n      add\n      swap2\n      pop\n      pop\n      mload(0x40)\n      dup1\n      swap2\n      sub\n      swap1\n      return\n        /* \"contracts/distribution/TShareRewardPool.sol\":8579:9395  function withdraw(uint256 _pid, uint256 _amount) public {\r... */\n    tag_8:\n      tag_40\n      0x04\n      dup1\n      calldatasize\n      sub\n      0x40\n      dup2\n      lt\n      iszero\n      tag_41\n      jumpi\n      0x00\n      dup1\n      revert\n    tag_41:\n      dup2\n      add\n      swap1\n      dup1\n      dup1\n      calldataload\n      swap1\n      0x20\n      add\n      swap1\n      swap3\n      swap2\n      swap1\n      dup1\n      calldataload\n      swap1\n      0x20\n      add\n      swap1\n      swap3\n      swap2\n      swap1\n      pop\n      pop\n      pop\n      tag_42\n      jump\t// in\n    tag_40:\n      stop\n        /* \"contracts/distribution/TShareRewardPool.sol\":6760:7676  function updatePool(uint256 _pid) public {\r... */\n    tag_9:\n      tag_43\n      0x04\n      dup1\n      calldatasize\n      sub\n      0x20\n      dup2\n      lt\n      iszero\n      tag_44\n      jumpi\n      0x00\n      dup1\n      revert\n    tag_44:\n      dup2\n      add\n      swap1\n      dup1\n      dup1\n      calldataload\n      swap1\n      0x20\n      add\n      swap1\n      swap3\n      swap2\n      swap1\n      pop\n      pop\n      pop\n      tag_45\n      jump\t// in\n    tag_43:\n      stop\n        /* \"contracts/distribution/TShareRewardPool.sol\":9466:9843  function emergencyWithdraw(uint256 _pid) public {\r... */\n    tag_10:\n      tag_46\n      0x04\n      dup1\n      calldatasize\n      sub\n      0x20\n      dup2\n      lt\n      iszero\n      tag_47\n      jumpi\n      0x00\n      dup1\n      revert\n    tag_47:\n      dup2\n      add\n      swap1\n      dup1\n      dup1\n      calldataload\n      swap1\n      0x20\n      add\n      swap1\n      swap3\n      swap2\n      swap1\n      pop\n      pop\n      pop\n      tag_48\n      jump\t// in\n    tag_46:\n      stop\n        /* \"contracts/distribution/TShareRewardPool.sol\":10443:11053  function governanceRecoverUnsupported(IERC20 _token, uint256 amount, address to) external onlyOperator {\r... */\n    tag_11:\n      tag_49\n      0x04\n      dup1\n      calldatasize\n      sub\n      0x60\n      dup2\n      lt\n      iszero\n      tag_50\n      jumpi\n      0x00\n      dup1\n      revert\n    tag_50:\n      dup2\n      add\n      swap1\n      dup1\n      dup1\n      calldataload\n      0xffffffffffffffffffffffffffffffffffffffff\n      and\n      swap1\n      0x20\n      add\n      swap1\n      swap3\n      swap2\n      swap1\n      dup1\n      calldataload\n      swap1\n      0x20\n      add\n      swap1\n      swap3\n      swap2\n      swap1\n      dup1\n      calldataload\n      0xffffffffffffffffffffffffffffffffffffffff\n      and\n      swap1\n      0x20\n      add\n      swap1\n      swap3\n      swap2\n      swap1\n      pop\n      pop\n      pop\n      tag_51\n      jump\t// in\n    tag_49:\n      stop\n        /* \"contracts/distribution/TShareRewardPool.sol\":552:575  address public operator */\n    tag_12:\n      tag_52\n      tag_53\n      jump\t// in\n    tag_52:\n      mload(0x40)\n      dup1\n      dup3\n      0xffffffffffffffffffffffffffffffffffffffff\n      and\n      dup2\n      mstore\n      0x20\n      add\n      swap2\n      pop\n      pop\n      mload(0x40)\n      dup1\n      swap2\n      sub\n      swap1\n      return\n        /* \"contracts/distribution/TShareRewardPool.sol\":1629:1657  uint256 public poolStartTime */\n    tag_13:\n      tag_54\n      tag_55\n      jump\t// in\n    tag_54:\n      mload(0x40)\n      dup1\n      dup3\n      dup2\n      mstore\n      0x20\n      add\n      swap2\n      pop\n      pop\n      mload(0x40)\n      dup1\n      swap2\n      sub\n      swap1\n      return\n        /* \"contracts/distribution/TShareRewardPool.sol\":6504:6684  function massUpdatePools() public {\r... */\n    tag_14:\n      tag_56\n      tag_57\n      jump\t// in\n    tag_56:\n      stop\n        /* \"contracts/distribution/TShareRewardPool.sol\":1708:1734  uint256 public poolEndTime */\n    tag_15:\n      tag_58\n      tag_59\n      jump\t// in\n    tag_58:\n      mload(0x40)\n      dup1\n      dup3\n      dup2\n      mstore\n      0x20\n      add\n      swap2\n      pop\n      pop\n      mload(0x40)\n      dup1\n      swap2\n      sub\n      swap1\n      return\n        /* \"contracts/distribution/TShareRewardPool.sol\":1381:1445  mapping(uint256 => mapping(address => UserInfo)) public userInfo */\n    tag_16:\n      tag_60\n      0x04\n      dup1\n      calldatasize\n      sub\n      0x40\n      dup2\n      lt\n      iszero\n      tag_61\n      jumpi\n      0x00\n      dup1\n      revert\n    tag_61:\n      dup2\n      add\n      swap1\n      dup1\n      dup1\n      calldataload\n      swap1\n      0x20\n      add\n      swap1\n      swap3\n      swap2\n      swap1\n      dup1\n      calldataload\n      0xffffffffffffffffffffffffffffffffffffffff\n      and\n      swap1\n      0x20\n      add\n      swap1\n      swap3\n      swap2\n      swap1\n      pop\n      pop\n      pop\n      tag_62\n      jump\t// in\n    tag_60:\n      mload(0x40)\n      dup1\n      dup4\n      dup2\n      mstore\n      0x20\n      add\n      dup3\n      dup2\n      mstore\n      0x20\n      add\n      swap3\n      pop\n      pop\n      pop\n      mload(0x40)\n      dup1\n      swap2\n      sub\n      swap1\n      return\n        /* \"contracts/distribution/TShareRewardPool.sol\":1848:1885  uint256 public runningTime = 370 days */\n    tag_17:\n      tag_63\n      tag_64\n      jump\t// in\n    tag_63:\n      mload(0x40)\n      dup1\n      dup3\n      dup2\n      mstore\n      0x20\n      add\n      swap2\n      pop\n      pop\n      mload(0x40)\n      dup1\n      swap2\n      sub\n      swap1\n      return\n        /* \"contracts/distribution/TShareRewardPool.sol\":3102:4380  function add(\r... */\n    tag_18:\n      tag_65\n      0x04\n      dup1\n      calldatasize\n      sub\n      0x80\n      dup2\n      lt\n      iszero\n      tag_66\n      jumpi\n      0x00\n      dup1\n      revert\n    tag_66:\n      dup2\n      add\n      swap1\n      dup1\n      dup1\n      calldataload\n      swap1\n      0x20\n      add\n      swap1\n      swap3\n      swap2\n      swap1\n      dup1\n      calldataload\n      0xffffffffffffffffffffffffffffffffffffffff\n      and\n      swap1\n      0x20\n      add\n      swap1\n      swap3\n      swap2\n      swap1\n      dup1\n      calldataload\n      iszero\n      iszero\n      swap1\n      0x20\n      add\n      swap1\n      swap3\n      swap2\n      swap1\n      dup1\n      calldataload\n      swap1\n      0x20\n      add\n      swap1\n      swap3\n      swap2\n      swap1\n      pop\n      pop\n      pop\n      tag_67\n      jump\t// in\n    tag_65:\n      stop\n        /* \"contracts/distribution/TShareRewardPool.sol\":1743:1792  uint256 public tSharePerSecond = 0.00187687 ether */\n    tag_19:\n      tag_68\n      tag_69\n      jump\t// in\n    tag_68:\n      mload(0x40)\n      dup1\n      dup3\n      dup2\n      mstore\n      0x20\n      add\n      swap2\n      pop\n      pop\n      mload(0x40)\n      dup1\n      swap2\n      sub\n      swap1\n      return\n        /* \"contracts/distribution/TShareRewardPool.sol\":10334:10435  function setOperator(address _operator) external onlyOperator {\r... */\n    tag_20:\n      tag_70\n      0x04\n      dup1\n      calldatasize\n      sub\n      0x20\n      dup2\n      lt\n      iszero\n      tag_71\n      jumpi\n      0x00\n      dup1\n      revert\n    tag_71:\n      dup2\n      add\n      swap1\n      dup1\n      dup1\n      calldataload\n      0xffffffffffffffffffffffffffffffffffffffff\n      and\n      swap1\n      0x20\n      add\n      swap1\n      swap3\n      swap2\n      swap1\n      pop\n      pop\n      pop\n      tag_72\n      jump\t// in\n    tag_70:\n      stop\n        /* \"contracts/distribution/TShareRewardPool.sol\":5635:6421  function pendingShare(uint256 _pid, address _user) external view returns (uint256) {\r... */\n    tag_21:\n      tag_73\n      0x04\n      dup1\n      calldatasize\n      sub\n      0x40\n      dup2\n      lt\n      iszero\n      tag_74\n      jumpi\n      0x00\n      dup1\n      revert\n    tag_74:\n      dup2\n      add\n      swap1\n      dup1\n      dup1\n      calldataload\n      swap1\n      0x20\n      add\n      swap1\n      swap3\n      swap2\n      swap1\n      dup1\n      calldataload\n      0xffffffffffffffffffffffffffffffffffffffff\n      and\n      swap1\n      0x20\n      add\n      swap1\n      swap3\n      swap2\n      swap1\n      pop\n      pop\n      pop\n      tag_75\n      jump\t// in\n    tag_73:\n      mload(0x40)\n      dup1\n      dup3\n      dup2\n      mstore\n      0x20\n      add\n      swap2\n      pop\n      pop\n      mload(0x40)\n      dup1\n      swap2\n      sub\n      swap1\n      return\n        /* \"contracts/distribution/TShareRewardPool.sol\":7711:8543  function deposit(uint256 _pid, uint256 _amount) public {\r... */\n    tag_22:\n      tag_76\n      0x04\n      dup1\n      calldatasize\n      sub\n      0x40\n      dup2\n      lt\n      iszero\n      tag_77\n      jumpi\n      0x00\n      dup1\n      revert\n    tag_77:\n      dup2\n      add\n      swap1\n      dup1\n      dup1\n      calldataload\n      swap1\n      0x20\n      add\n      swap1\n      swap3\n      swap2\n      swap1\n      dup1\n      calldataload\n      swap1\n      0x20\n      add\n      swap1\n      swap3\n      swap2\n      swap1\n      pop\n      pop\n      pop\n      tag_78\n      jump\t// in\n    tag_76:\n      stop\n        /* \"contracts/distribution/TShareRewardPool.sol\":1241:1261  IERC20 public tshare */\n    tag_23:\n      tag_79\n      tag_80\n      jump\t// in\n    tag_79:\n      mload(0x40)\n      dup1\n      dup3\n      0xffffffffffffffffffffffffffffffffffffffff\n      and\n      dup2\n      mstore\n      0x20\n      add\n      swap2\n      pop\n      pop\n      mload(0x40)\n      dup1\n      swap2\n      sub\n      swap1\n      return\n        /* \"contracts/distribution/TShareRewardPool.sol\":1904:1955  uint256 public constant TOTAL_REWARDS = 60000 ether */\n    tag_28:\n        /* \"contracts/distribution/TShareRewardPool.sol\":1944:1955  60000 ether */\n      0x0cb49b44ba602d800000\n        /* \"contracts/distribution/TShareRewardPool.sol\":1904:1955  uint256 public constant TOTAL_REWARDS = 60000 ether */\n      dup2\n      jump\t// out\n        /* \"contracts/distribution/TShareRewardPool.sol\":1297:1323  PoolInfo[] public poolInfo */\n    tag_31:\n      0x02\n      dup2\n      dup2\n      sload\n      dup2\n      lt\n      tag_81\n      jumpi\n      invalid\n    tag_81:\n      swap1\n      0x00\n      mstore\n      keccak256(0x00, 0x20)\n      swap1\n      0x05\n      mul\n      add\n      0x00\n      swap2\n      pop\n      swap1\n      pop\n      dup1\n      0x00\n      add\n      0x00\n      swap1\n      sload\n      swap1\n      0x0100\n      exp\n      swap1\n      div\n      0xffffffffffffffffffffffffffffffffffffffff\n      and\n      swap1\n      dup1\n      0x01\n      add\n      sload\n      swap1\n      dup1\n      0x02\n      add\n      sload\n      swap1\n      dup1\n      0x03\n      add\n      sload\n      swap1\n      dup1\n      0x04\n      add\n      0x00\n      swap1\n      sload\n      swap1\n      0x0100\n      exp\n      swap1\n      div\n      0xff\n      and\n      swap1\n      pop\n      dup6\n      jump\t// out\n        /* \"contracts/distribution/TShareRewardPool.sol\":1542:1576  uint256 public totalAllocPoint = 0 */\n    tag_33:\n      sload(0x04)\n      dup2\n      jump\t// out\n        /* \"contracts/distribution/TShareRewardPool.sol\":4478:4831  function set(uint256 _pid, uint256 _allocPoint) public onlyOperator {\r... */\n    tag_36:\n        /* \"contracts/distribution/TShareRewardPool.sol\":2678:2688  msg.sender */\n      caller\n        /* \"contracts/distribution/TShareRewardPool.sol\":2666:2688  operator == msg.sender */\n      0xffffffffffffffffffffffffffffffffffffffff\n      and\n        /* \"contracts/distribution/TShareRewardPool.sol\":2666:2674  operator */\n      0x00\n      dup1\n      sload\n      swap1\n      0x0100\n      exp\n      swap1\n      div\n      0xffffffffffffffffffffffffffffffffffffffff\n      and\n        /* \"contracts/distribution/TShareRewardPool.sol\":2666:2688  operator == msg.sender */\n      0xffffffffffffffffffffffffffffffffffffffff\n      and\n      eq\n        /* \"contracts/distribution/TShareRewardPool.sol\":2658:2737  require(operator == msg.sender, \"TShareRewardPool: caller is not the operator\") */\n      tag_84\n      jumpi\n      mload(0x40)\n      0x08c379a000000000000000000000000000000000000000000000000000000000\n      dup2\n      mstore\n      0x04\n      add\n      dup1\n      dup1\n      0x20\n      add\n      dup3\n      dup2\n      sub\n      dup3\n      mstore\n      0x2c\n      dup2\n      mstore\n      0x20\n      add\n      dup1\n      data_3c72df8ab4eb3adb53b2d5e3c0dcd6e55e8972bc8360589eb9459e56a713b10e\n      0x2c\n      swap2\n      codecopy\n      0x40\n      add\n      swap2\n      pop\n      pop\n      mload(0x40)\n      dup1\n      swap2\n      sub\n      swap1\n      revert\n    tag_84:\n        /* \"contracts/distribution/TShareRewardPool.sol\":4557:4574  massUpdatePools() */\n      tag_86\n        /* \"contracts/distribution/TShareRewardPool.sol\":4557:4572  massUpdatePools */\n      tag_57\n        /* \"contracts/distribution/TShareRewardPool.sol\":4557:4574  massUpdatePools() */\n      jump\t// in\n    tag_86:\n        /* \"contracts/distribution/TShareRewardPool.sol\":4585:4606  PoolInfo storage pool */\n      0x00\n        /* \"contracts/distribution/TShareRewardPool.sol\":4609:4617  poolInfo */\n      0x02\n        /* \"contracts/distribution/TShareRewardPool.sol\":4618:4622  _pid */\n      dup4\n        /* \"contracts/distribution/TShareRewardPool.sol\":4609:4623  poolInfo[_pid] */\n      dup2\n      sload\n      dup2\n      lt\n      tag_87\n      jumpi\n      invalid\n    tag_87:\n      swap1\n      0x00\n      mstore\n      keccak256(0x00, 0x20)\n      swap1\n      0x05\n      mul\n      add\n        /* \"contracts/distribution/TShareRewardPool.sol\":4585:4623  PoolInfo storage pool = poolInfo[_pid] */\n      swap1\n      pop\n        /* \"contracts/distribution/TShareRewardPool.sol\":4638:4642  pool */\n      dup1\n        /* \"contracts/distribution/TShareRewardPool.sol\":4638:4652  pool.isStarted */\n      0x04\n      add\n      0x00\n      swap1\n      sload\n      swap1\n      0x0100\n      exp\n      swap1\n      div\n      0xff\n      and\n        /* \"contracts/distribution/TShareRewardPool.sol\":4634:4784  if (pool.isStarted) {\r... */\n      iszero\n      tag_89\n      jumpi\n        /* \"contracts/distribution/TShareRewardPool.sol\":4687:4772  totalAllocPoint.sub(pool.allocPoint).add(\r... */\n      tag_90\n        /* \"contracts/distribution/TShareRewardPool.sol\":4746:4757  _allocPoint */\n      dup3\n        /* \"contracts/distribution/TShareRewardPool.sol\":4687:4723  totalAllocPoint.sub(pool.allocPoint) */\n      tag_91\n        /* \"contracts/distribution/TShareRewardPool.sol\":4707:4711  pool */\n      dup4\n        /* \"contracts/distribution/TShareRewardPool.sol\":4707:4722  pool.allocPoint */\n      0x01\n      add\n      sload\n        /* \"contracts/distribution/TShareRewardPool.sol\":4687:4702  totalAllocPoint */\n      sload(0x04)\n        /* \"contracts/distribution/TShareRewardPool.sol\":4687:4706  totalAllocPoint.sub */\n      tag_92\n      swap1\n        /* \"contracts/distribution/TShareRewardPool.sol\":4687:4723  totalAllocPoint.sub(pool.allocPoint) */\n      swap2\n      swap1\n      0xffffffff\n      and\n      jump\t// in\n    tag_91:\n        /* \"contracts/distribution/TShareRewardPool.sol\":4687:4727  totalAllocPoint.sub(pool.allocPoint).add */\n      tag_93\n      swap1\n        /* \"contracts/distribution/TShareRewardPool.sol\":4687:4772  totalAllocPoint.sub(pool.allocPoint).add(\r... */\n      swap2\n      swap1\n      0xffffffff\n      and\n      jump\t// in\n    tag_90:\n        /* \"contracts/distribution/TShareRewardPool.sol\":4669:4684  totalAllocPoint */\n      0x04\n        /* \"contracts/distribution/TShareRewardPool.sol\":4669:4772  totalAllocPoint = totalAllocPoint.sub(pool.allocPoint).add(\r... */\n      dup2\n      swap1\n      sstore\n      pop\n        /* \"contracts/distribution/TShareRewardPool.sol\":4634:4784  if (pool.isStarted) {\r... */\n    tag_89:\n        /* \"contracts/distribution/TShareRewardPool.sol\":4812:4823  _allocPoint */\n      dup2\n        /* \"contracts/distribution/TShareRewardPool.sol\":4794:4798  pool */\n      dup2\n        /* \"contracts/distribution/TShareRewardPool.sol\":4794:4809  pool.allocPoint */\n      0x01\n      add\n        /* \"contracts/distribution/TShareRewardPool.sol\":4794:4823  pool.allocPoint = _allocPoint */\n      dup2\n      swap1\n      sstore\n      pop\n        /* \"contracts/distribution/TShareRewardPool.sol\":2748:2749  _ */\n      pop\n        /* \"contracts/distribution/TShareRewardPool.sol\":4478:4831  function set(uint256 _pid, uint256 _allocPoint) public onlyOperator {\r... */\n      pop\n      pop\n      jump\t// out\n        /* \"contracts/distribution/TShareRewardPool.sol\":4908:5569  function getGeneratedReward(uint256 _fromTime, uint256 _toTime) public view returns (uint256) {\r... */\n    tag_39:\n        /* \"contracts/distribution/TShareRewardPool.sol\":4993:5000  uint256 */\n      0x00\n        /* \"contracts/distribution/TShareRewardPool.sol\":5030:5037  _toTime */\n      dup2\n        /* \"contracts/distribution/TShareRewardPool.sol\":5017:5026  _fromTime */\n      dup4\n        /* \"contracts/distribution/TShareRewardPool.sol\":5017:5037  _fromTime >= _toTime */\n      lt\n        /* \"contracts/distribution/TShareRewardPool.sol\":5013:5047  if (_fromTime >= _toTime) return 0 */\n      tag_95\n      jumpi\n        /* \"contracts/distribution/TShareRewardPool.sol\":5046:5047  0 */\n      0x00\n        /* \"contracts/distribution/TShareRewardPool.sol\":5039:5047  return 0 */\n      swap1\n      pop\n      jump(tag_94)\n        /* \"contracts/distribution/TShareRewardPool.sol\":5013:5047  if (_fromTime >= _toTime) return 0 */\n    tag_95:\n        /* \"contracts/distribution/TShareRewardPool.sol\":5073:5084  poolEndTime */\n      sload(0x06)\n        /* \"contracts/distribution/TShareRewardPool.sol\":5062:5069  _toTime */\n      dup3\n        /* \"contracts/distribution/TShareRewardPool.sol\":5062:5084  _toTime >= poolEndTime */\n      lt\n        /* \"contracts/distribution/TShareRewardPool.sol\":5058:5562  if (_toTime >= poolEndTime) {\r... */\n      tag_96\n      jumpi\n        /* \"contracts/distribution/TShareRewardPool.sol\":5118:5129  poolEndTime */\n      sload(0x06)\n        /* \"contracts/distribution/TShareRewardPool.sol\":5105:5114  _fromTime */\n      dup4\n        /* \"contracts/distribution/TShareRewardPool.sol\":5105:5129  _fromTime >= poolEndTime */\n      lt\n        /* \"contracts/distribution/TShareRewardPool.sol\":5101:5139  if (_fromTime >= poolEndTime) return 0 */\n      tag_97\n      jumpi\n        /* \"contracts/distribution/TShareRewardPool.sol\":5138:5139  0 */\n      0x00\n        /* \"contracts/distribution/TShareRewardPool.sol\":5131:5139  return 0 */\n      swap1\n      pop\n      jump(tag_94)\n        /* \"contracts/distribution/TShareRewardPool.sol\":5101:5139  if (_fromTime >= poolEndTime) return 0 */\n    tag_97:\n        /* \"contracts/distribution/TShareRewardPool.sol\":5171:5184  poolStartTime */\n      sload(0x05)\n        /* \"contracts/distribution/TShareRewardPool.sol\":5158:5167  _fromTime */\n      dup4\n        /* \"contracts/distribution/TShareRewardPool.sol\":5158:5184  _fromTime <= poolStartTime */\n      gt\n        /* \"contracts/distribution/TShareRewardPool.sol\":5154:5244  if (_fromTime <= poolStartTime) return poolEndTime.sub(poolStartTime).mul(tSharePerSecond) */\n      tag_98\n      jumpi\n        /* \"contracts/distribution/TShareRewardPool.sol\":5193:5244  poolEndTime.sub(poolStartTime).mul(tSharePerSecond) */\n      tag_99\n        /* \"contracts/distribution/TShareRewardPool.sol\":5228:5243  tSharePerSecond */\n      sload(0x07)\n        /* \"contracts/distribution/TShareRewardPool.sol\":5193:5223  poolEndTime.sub(poolStartTime) */\n      tag_100\n        /* \"contracts/distribution/TShareRewardPool.sol\":5209:5222  poolStartTime */\n      sload(0x05)\n        /* \"contracts/distribution/TShareRewardPool.sol\":5193:5204  poolEndTime */\n      sload(0x06)\n        /* \"contracts/distribution/TShareRewardPool.sol\":5193:5208  poolEndTime.sub */\n      tag_92\n      swap1\n        /* \"contracts/distribution/TShareRewardPool.sol\":5193:5223  poolEndTime.sub(poolStartTime) */\n      swap2\n      swap1\n      0xffffffff\n      and\n      jump\t// in\n    tag_100:\n        /* \"contracts/distribution/TShareRewardPool.sol\":5193:5227  poolEndTime.sub(poolStartTime).mul */\n      tag_101\n      swap1\n        /* \"contracts/distribution/TShareRewardPool.sol\":5193:5244  poolEndTime.sub(poolStartTime).mul(tSharePerSecond) */\n      swap2\n      swap1\n      0xffffffff\n      and\n      jump\t// in\n    tag_99:\n        /* \"contracts/distribution/TShareRewardPool.sol\":5186:5244  return poolEndTime.sub(poolStartTime).mul(tSharePerSecond) */\n      swap1\n      pop\n      jump(tag_94)\n        /* \"contracts/distribution/TShareRewardPool.sol\":5154:5244  if (_fromTime <= poolStartTime) return poolEndTime.sub(poolStartTime).mul(tSharePerSecond) */\n    tag_98:\n        /* \"contracts/distribution/TShareRewardPool.sol\":5266:5313  poolEndTime.sub(_fromTime).mul(tSharePerSecond) */\n      tag_102\n        /* \"contracts/distribution/TShareRewardPool.sol\":5297:5312  tSharePerSecond */\n      sload(0x07)\n        /* \"contracts/distribution/TShareRewardPool.sol\":5266:5292  poolEndTime.sub(_fromTime) */\n      tag_103\n        /* \"contracts/distribution/TShareRewardPool.sol\":5282:5291  _fromTime */\n      dup6\n        /* \"contracts/distribution/TShareRewardPool.sol\":5266:5277  poolEndTime */\n      sload(0x06)\n        /* \"contracts/distribution/TShareRewardPool.sol\":5266:5281  poolEndTime.sub */\n      tag_92\n      swap1\n        /* \"contracts/distribution/TShareRewardPool.sol\":5266:5292  poolEndTime.sub(_fromTime) */\n      swap2\n      swap1\n      0xffffffff\n      and\n      jump\t// in\n    tag_103:\n        /* \"contracts/distribution/TShareRewardPool.sol\":5266:5296  poolEndTime.sub(_fromTime).mul */\n      tag_101\n      swap1\n        /* \"contracts/distribution/TShareRewardPool.sol\":5266:5313  poolEndTime.sub(_fromTime).mul(tSharePerSecond) */\n      swap2\n      swap1\n      0xffffffff\n      and\n      jump\t// in\n    tag_102:\n        /* \"contracts/distribution/TShareRewardPool.sol\":5259:5313  return poolEndTime.sub(_fromTime).mul(tSharePerSecond) */\n      swap1\n      pop\n      jump(tag_94)\n        /* \"contracts/distribution/TShareRewardPool.sol\":5058:5562  if (_toTime >= poolEndTime) {\r... */\n    tag_96:\n        /* \"contracts/distribution/TShareRewardPool.sol\":5361:5374  poolStartTime */\n      sload(0x05)\n        /* \"contracts/distribution/TShareRewardPool.sol\":5350:5357  _toTime */\n      dup3\n        /* \"contracts/distribution/TShareRewardPool.sol\":5350:5374  _toTime <= poolStartTime */\n      gt\n        /* \"contracts/distribution/TShareRewardPool.sol\":5346:5384  if (_toTime <= poolStartTime) return 0 */\n      tag_105\n      jumpi\n        /* \"contracts/distribution/TShareRewardPool.sol\":5383:5384  0 */\n      0x00\n        /* \"contracts/distribution/TShareRewardPool.sol\":5376:5384  return 0 */\n      swap1\n      pop\n      jump(tag_94)\n        /* \"contracts/distribution/TShareRewardPool.sol\":5346:5384  if (_toTime <= poolStartTime) return 0 */\n    tag_105:\n        /* \"contracts/distribution/TShareRewardPool.sol\":5416:5429  poolStartTime */\n      sload(0x05)\n        /* \"contracts/distribution/TShareRewardPool.sol\":5403:5412  _fromTime */\n      dup4\n        /* \"contracts/distribution/TShareRewardPool.sol\":5403:5429  _fromTime <= poolStartTime */\n      gt\n        /* \"contracts/distribution/TShareRewardPool.sol\":5399:5485  if (_fromTime <= poolStartTime) return _toTime.sub(poolStartTime).mul(tSharePerSecond) */\n      tag_106\n      jumpi\n        /* \"contracts/distribution/TShareRewardPool.sol\":5438:5485  _toTime.sub(poolStartTime).mul(tSharePerSecond) */\n      tag_107\n        /* \"contracts/distribution/TShareRewardPool.sol\":5469:5484  tSharePerSecond */\n      sload(0x07)\n        /* \"contracts/distribution/TShareRewardPool.sol\":5438:5464  _toTime.sub(poolStartTime) */\n      tag_108\n        /* \"contracts/distribution/TShareRewardPool.sol\":5450:5463  poolStartTime */\n      sload(0x05)\n        /* \"contracts/distribution/TShareRewardPool.sol\":5438:5445  _toTime */\n      dup6\n        /* \"contracts/distribution/TShareRewardPool.sol\":5438:5449  _toTime.sub */\n      tag_92\n      swap1\n        /* \"contracts/distribution/TShareRewardPool.sol\":5438:5464  _toTime.sub(poolStartTime) */\n      swap2\n      swap1\n      0xffffffff\n      and\n      jump\t// in\n    tag_108:\n        /* \"contracts/distribution/TShareRewardPool.sol\":5438:5468  _toTime.sub(poolStartTime).mul */\n      tag_101\n      swap1\n        /* \"contracts/distribution/TShareRewardPool.sol\":5438:5485  _toTime.sub(poolStartTime).mul(tSharePerSecond) */\n      swap2\n      swap1\n      0xffffffff\n      and\n      jump\t// in\n    tag_107:\n        /* \"contracts/distribution/TShareRewardPool.sol\":5431:5485  return _toTime.sub(poolStartTime).mul(tSharePerSecond) */\n      swap1\n      pop\n      jump(tag_94)\n        /* \"contracts/distribution/TShareRewardPool.sol\":5399:5485  if (_fromTime <= poolStartTime) return _toTime.sub(poolStartTime).mul(tSharePerSecond) */\n    tag_106:\n        /* \"contracts/distribution/TShareRewardPool.sol\":5507:5550  _toTime.sub(_fromTime).mul(tSharePerSecond) */\n      tag_109\n        /* \"contracts/distribution/TShareRewardPool.sol\":5534:5549  tSharePerSecond */\n      sload(0x07)\n        /* \"contracts/distribution/TShareRewardPool.sol\":5507:5529  _toTime.sub(_fromTime) */\n      tag_110\n        /* \"contracts/distribution/TShareRewardPool.sol\":5519:5528  _fromTime */\n      dup6\n        /* \"contracts/distribution/TShareRewardPool.sol\":5507:5514  _toTime */\n      dup6\n        /* \"contracts/distribution/TShareRewardPool.sol\":5507:5518  _toTime.sub */\n      tag_92\n      swap1\n        /* \"contracts/distribution/TShareRewardPool.sol\":5507:5529  _toTime.sub(_fromTime) */\n      swap2\n      swap1\n      0xffffffff\n      and\n      jump\t// in\n    tag_110:\n        /* \"contracts/distribution/TShareRewardPool.sol\":5507:5533  _toTime.sub(_fromTime).mul */\n      tag_101\n      swap1\n        /* \"contracts/distribution/TShareRewardPool.sol\":5507:5550  _toTime.sub(_fromTime).mul(tSharePerSecond) */\n      swap2\n      swap1\n      0xffffffff\n      and\n      jump\t// in\n    tag_109:\n        /* \"contracts/distribution/TShareRewardPool.sol\":5500:5550  return _toTime.sub(_fromTime).mul(tSharePerSecond) */\n      swap1\n      pop\n        /* \"contracts/distribution/TShareRewardPool.sol\":4908:5569  function getGeneratedReward(uint256 _fromTime, uint256 _toTime) public view returns (uint256) {\r... */\n    tag_94:\n      swap3\n      swap2\n      pop\n      pop\n      jump\t// out\n        /* \"contracts/distribution/TShareRewardPool.sol\":8579:9395  function withdraw(uint256 _pid, uint256 _amount) public {\r... */\n    tag_42:\n        /* \"contracts/distribution/TShareRewardPool.sol\":8646:8661  address _sender */\n      0x00\n        /* \"contracts/distribution/TShareRewardPool.sol\":8664:8674  msg.sender */\n      caller\n        /* \"contracts/distribution/TShareRewardPool.sol\":8646:8674  address _sender = msg.sender */\n      swap1\n      pop\n        /* \"contracts/distribution/TShareRewardPool.sol\":8685:8706  PoolInfo storage pool */\n      0x00\n        /* \"contracts/distribution/TShareRewardPool.sol\":8709:8717  poolInfo */\n      0x02\n        /* \"contracts/distribution/TShareRewardPool.sol\":8718:8722  _pid */\n      dup5\n        /* \"contracts/distribution/TShareRewardPool.sol\":8709:8723  poolInfo[_pid] */\n      dup2\n      sload\n      dup2\n      lt\n      tag_112\n      jumpi\n      invalid\n    tag_112:\n      swap1\n      0x00\n      mstore\n      keccak256(0x00, 0x20)\n      swap1\n      0x05\n      mul\n      add\n        /* \"contracts/distribution/TShareRewardPool.sol\":8685:8723  PoolInfo storage pool = poolInfo[_pid] */\n      swap1\n      pop\n        /* \"contracts/distribution/TShareRewardPool.sol\":8734:8755  UserInfo storage user */\n      0x00\n        /* \"contracts/distribution/TShareRewardPool.sol\":8758:8766  userInfo */\n      0x03\n        /* \"contracts/distribution/TShareRewardPool.sol\":8758:8772  userInfo[_pid] */\n      0x00\n        /* \"contracts/distribution/TShareRewardPool.sol\":8767:8771  _pid */\n      dup7\n        /* \"contracts/distribution/TShareRewardPool.sol\":8758:8772  userInfo[_pid] */\n      dup2\n      mstore\n      0x20\n      add\n      swap1\n      dup2\n      mstore\n      0x20\n      add\n      0x00\n      keccak256\n        /* \"contracts/distribution/TShareRewardPool.sol\":8758:8781  userInfo[_pid][_sender] */\n      0x00\n        /* \"contracts/distribution/TShareRewardPool.sol\":8773:8780  _sender */\n      dup5\n        /* \"contracts/distribution/TShareRewardPool.sol\":8758:8781  userInfo[_pid][_sender] */\n      0xffffffffffffffffffffffffffffffffffffffff\n      and\n      0xffffffffffffffffffffffffffffffffffffffff\n      and\n      dup2\n      mstore\n      0x20\n      add\n      swap1\n      dup2\n      mstore\n      0x20\n      add\n      0x00\n      keccak256\n        /* \"contracts/distribution/TShareRewardPool.sol\":8734:8781  UserInfo storage user = userInfo[_pid][_sender] */\n      swap1\n      pop\n        /* \"contracts/distribution/TShareRewardPool.sol\":8815:8822  _amount */\n      dup4\n        /* \"contracts/distribution/TShareRewardPool.sol\":8800:8804  user */\n      dup2\n        /* \"contracts/distribution/TShareRewardPool.sol\":8800:8811  user.amount */\n      0x00\n      add\n      sload\n        /* \"contracts/distribution/TShareRewardPool.sol\":8800:8822  user.amount >= _amount */\n      lt\n      iszero\n        /* \"contracts/distribution/TShareRewardPool.sol\":8792:8845  require(user.amount >= _amount, \"withdraw: not good\") */\n      tag_114\n      jumpi\n      mload(0x40)\n      0x08c379a000000000000000000000000000000000000000000000000000000000\n      dup2\n      mstore\n      0x04\n      add\n      dup1\n      dup1\n      0x20\n      add\n      dup3\n      dup2\n      sub\n      dup3\n      mstore\n      0x12\n      dup2\n      mstore\n      0x20\n      add\n      dup1\n      0x77697468647261773a206e6f7420676f6f640000000000000000000000000000\n      dup2\n      mstore\n      pop\n      0x20\n      add\n      swap2\n      pop\n      pop\n      mload(0x40)\n      dup1\n      swap2\n      sub\n      swap1\n      revert\n    tag_114:\n        /* \"contracts/distribution/TShareRewardPool.sol\":8856:8872  updatePool(_pid) */\n      tag_115\n        /* \"contracts/distribution/TShareRewardPool.sol\":8867:8871  _pid */\n      dup6\n        /* \"contracts/distribution/TShareRewardPool.sol\":8856:8866  updatePool */\n      tag_45\n        /* \"contracts/distribution/TShareRewardPool.sol\":8856:8872  updatePool(_pid) */\n      jump\t// in\n    tag_115:\n        /* \"contracts/distribution/TShareRewardPool.sol\":8883:8899  uint256 _pending */\n      0x00\n        /* \"contracts/distribution/TShareRewardPool.sol\":8902:8972  user.amount.mul(pool.accTSharePerShare).div(1e18).sub(user.rewardDebt) */\n      tag_116\n        /* \"contracts/distribution/TShareRewardPool.sol\":8956:8960  user */\n      dup3\n        /* \"contracts/distribution/TShareRewardPool.sol\":8956:8971  user.rewardDebt */\n      0x01\n      add\n      sload\n        /* \"contracts/distribution/TShareRewardPool.sol\":8902:8951  user.amount.mul(pool.accTSharePerShare).div(1e18) */\n      tag_117\n        /* \"contracts/distribution/TShareRewardPool.sol\":8946:8950  1e18 */\n      0x0de0b6b3a7640000\n        /* \"contracts/distribution/TShareRewardPool.sol\":8902:8941  user.amount.mul(pool.accTSharePerShare) */\n      tag_118\n        /* \"contracts/distribution/TShareRewardPool.sol\":8918:8922  pool */\n      dup8\n        /* \"contracts/distribution/TShareRewardPool.sol\":8918:8940  pool.accTSharePerShare */\n      0x03\n      add\n      sload\n        /* \"contracts/distribution/TShareRewardPool.sol\":8902:8906  user */\n      dup8\n        /* \"contracts/distribution/TShareRewardPool.sol\":8902:8913  user.amount */\n      0x00\n      add\n      sload\n        /* \"contracts/distribution/TShareRewardPool.sol\":8902:8917  user.amount.mul */\n      tag_101\n      swap1\n        /* \"contracts/distribution/TShareRewardPool.sol\":8902:8941  user.amount.mul(pool.accTSharePerShare) */\n      swap2\n      swap1\n      0xffffffff\n      and\n      jump\t// in\n    tag_118:\n        /* \"contracts/distribution/TShareRewardPool.sol\":8902:8945  user.amount.mul(pool.accTSharePerShare).div */\n      tag_119\n      swap1\n        /* \"contracts/distribution/TShareRewardPool.sol\":8902:8951  user.amount.mul(pool.accTSharePerShare).div(1e18) */\n      swap2\n      swap1\n      0xffffffff\n      and\n      jump\t// in\n    tag_117:\n        /* \"contracts/distribution/TShareRewardPool.sol\":8902:8955  user.amount.mul(pool.accTSharePerShare).div(1e18).sub */\n      tag_92\n      swap1\n        /* \"contracts/distribution/TShareRewardPool.sol\":8902:8972  user.amount.mul(pool.accTSharePerShare).div(1e18).sub(user.rewardDebt) */\n      swap2\n      swap1\n      0xffffffff\n      and\n      jump\t// in\n    tag_116:\n        /* \"contracts/distribution/TShareRewardPool.sol\":8883:8972  uint256 _pending = user.amount.mul(pool.accTSharePerShare).div(1e18).sub(user.rewardDebt) */\n      swap1\n      pop\n        /* \"contracts/distribution/TShareRewardPool.sol\":8998:8999  0 */\n      0x00\n        /* \"contracts/distribution/TShareRewardPool.sol\":8987:8995  _pending */\n      dup2\n        /* \"contracts/distribution/TShareRewardPool.sol\":8987:8999  _pending > 0 */\n      gt\n        /* \"contracts/distribution/TShareRewardPool.sol\":8983:9114  if (_pending > 0) {\r... */\n      iszero\n      tag_120\n      jumpi\n        /* \"contracts/distribution/TShareRewardPool.sol\":9016:9053  safeTShareTransfer(_sender, _pending) */\n      tag_121\n        /* \"contracts/distribution/TShareRewardPool.sol\":9035:9042  _sender */\n      dup5\n        /* \"contracts/distribution/TShareRewardPool.sol\":9044:9052  _pending */\n      dup3\n        /* \"contracts/distribution/TShareRewardPool.sol\":9016:9034  safeTShareTransfer */\n      tag_122\n        /* \"contracts/distribution/TShareRewardPool.sol\":9016:9053  safeTShareTransfer(_sender, _pending) */\n      jump\t// in\n    tag_121:\n        /* \"contracts/distribution/TShareRewardPool.sol\":9084:9091  _sender */\n      dup4\n        /* \"contracts/distribution/TShareRewardPool.sol\":9073:9102  RewardPaid(_sender, _pending) */\n      0xffffffffffffffffffffffffffffffffffffffff\n      and\n      0xe2403640ba68fed3a2f88b7557551d1993f84b99bb10ff833f0cf8db0c5e0486\n        /* \"contracts/distribution/TShareRewardPool.sol\":9093:9101  _pending */\n      dup3\n        /* \"contracts/distribution/TShareRewardPool.sol\":9073:9102  RewardPaid(_sender, _pending) */\n      mload(0x40)\n      dup1\n      dup3\n      dup2\n      mstore\n      0x20\n      add\n      swap2\n      pop\n      pop\n      mload(0x40)\n      dup1\n      swap2\n      sub\n      swap1\n      log2\n        /* \"contracts/distribution/TShareRewardPool.sol\":8983:9114  if (_pending > 0) {\r... */\n    tag_120:\n        /* \"contracts/distribution/TShareRewardPool.sol\":9138:9139  0 */\n      0x00\n        /* \"contracts/distribution/TShareRewardPool.sol\":9128:9135  _amount */\n      dup6\n        /* \"contracts/distribution/TShareRewardPool.sol\":9128:9139  _amount > 0 */\n      gt\n        /* \"contracts/distribution/TShareRewardPool.sol\":9124:9262  if (_amount > 0) {\r... */\n      iszero\n      tag_123\n      jumpi\n        /* \"contracts/distribution/TShareRewardPool.sol\":9170:9194  user.amount.sub(_amount) */\n      tag_124\n        /* \"contracts/distribution/TShareRewardPool.sol\":9186:9193  _amount */\n      dup6\n        /* \"contracts/distribution/TShareRewardPool.sol\":9170:9174  user */\n      dup4\n        /* \"contracts/distribution/TShareRewardPool.sol\":9170:9181  user.amount */\n      0x00\n      add\n      sload\n        /* \"contracts/distribution/TShareRewardPool.sol\":9170:9185  user.amount.sub */\n      tag_92\n      swap1\n        /* \"contracts/distribution/TShareRewardPool.sol\":9170:9194  user.amount.sub(_amount) */\n      swap2\n      swap1\n      0xffffffff\n      and\n      jump\t// in\n    tag_124:\n        /* \"contracts/distribution/TShareRewardPool.sol\":9156:9160  user */\n      dup3\n        /* \"contracts/distribution/TShareRewardPool.sol\":9156:9167  user.amount */\n      0x00\n      add\n        /* \"contracts/distribution/TShareRewardPool.sol\":9156:9194  user.amount = user.amount.sub(_amount) */\n      dup2\n      swap1\n      sstore\n      pop\n        /* \"contracts/distribution/TShareRewardPool.sol\":9209:9250  pool.token.safeTransfer(_sender, _amount) */\n      tag_125\n        /* \"contracts/distribution/TShareRewardPool.sol\":9233:9240  _sender */\n      dup5\n        /* \"contracts/distribution/TShareRewardPool.sol\":9242:9249  _amount */\n      dup7\n        /* \"contracts/distribution/TShareRewardPool.sol\":9209:9213  pool */\n      dup6\n        /* \"contracts/distribution/TShareRewardPool.sol\":9209:9219  pool.token */\n      0x00\n      add\n      0x00\n      swap1\n      sload\n      swap1\n      0x0100\n      exp\n      swap1\n      div\n      0xffffffffffffffffffffffffffffffffffffffff\n      and\n        /* \"contracts/distribution/TShareRewardPool.sol\":9209:9232  pool.token.safeTransfer */\n      0xffffffffffffffffffffffffffffffffffffffff\n      and\n      tag_126\n      swap1\n        /* \"contracts/distribution/TShareRewardPool.sol\":9209:9250  pool.token.safeTransfer(_sender, _amount) */\n      swap3\n      swap2\n      swap1\n      0xffffffff\n      and\n      jump\t// in\n    tag_125:\n        /* \"contracts/distribution/TShareRewardPool.sol\":9124:9262  if (_amount > 0) {\r... */\n    tag_123:\n        /* \"contracts/distribution/TShareRewardPool.sol\":9290:9339  user.amount.mul(pool.accTSharePerShare).div(1e18) */\n      tag_127\n        /* \"contracts/distribution/TShareRewardPool.sol\":9334:9338  1e18 */\n      0x0de0b6b3a7640000\n        /* \"contracts/distribution/TShareRewardPool.sol\":9290:9329  user.amount.mul(pool.accTSharePerShare) */\n      tag_128\n        /* \"contracts/distribution/TShareRewardPool.sol\":9306:9310  pool */\n      dup6\n        /* \"contracts/distribution/TShareRewardPool.sol\":9306:9328  pool.accTSharePerShare */\n      0x03\n      add\n      sload\n        /* \"contracts/distribution/TShareRewardPool.sol\":9290:9294  user */\n      dup6\n        /* \"contracts/distribution/TShareRewardPool.sol\":9290:9301  user.amount */\n      0x00\n      add\n      sload\n        /* \"contracts/distribution/TShareRewardPool.sol\":9290:9305  user.amount.mul */\n      tag_101\n      swap1\n        /* \"contracts/distribution/TShareRewardPool.sol\":9290:9329  user.amount.mul(pool.accTSharePerShare) */\n      swap2\n      swap1\n      0xffffffff\n      and\n      jump\t// in\n    tag_128:\n        /* \"contracts/distribution/TShareRewardPool.sol\":9290:9333  user.amount.mul(pool.accTSharePerShare).div */\n      tag_119\n      swap1\n        /* \"contracts/distribution/TShareRewardPool.sol\":9290:9339  user.amount.mul(pool.accTSharePerShare).div(1e18) */\n      swap2\n      swap1\n      0xffffffff\n      and\n      jump\t// in\n    tag_127:\n        /* \"contracts/distribution/TShareRewardPool.sol\":9272:9276  user */\n      dup3\n        /* \"contracts/distribution/TShareRewardPool.sol\":9272:9287  user.rewardDebt */\n      0x01\n      add\n        /* \"contracts/distribution/TShareRewardPool.sol\":9272:9339  user.rewardDebt = user.amount.mul(pool.accTSharePerShare).div(1e18) */\n      dup2\n      swap1\n      sstore\n      pop\n        /* \"contracts/distribution/TShareRewardPool.sol\":9373:9377  _pid */\n      dup6\n        /* \"contracts/distribution/TShareRewardPool.sol\":9364:9371  _sender */\n      dup5\n        /* \"contracts/distribution/TShareRewardPool.sol\":9355:9387  Withdraw(_sender, _pid, _amount) */\n      0xffffffffffffffffffffffffffffffffffffffff\n      and\n      0xf279e6a1f5e320cca91135676d9cb6e44ca8a08c0b88342bcdb1144f6511b568\n        /* \"contracts/distribution/TShareRewardPool.sol\":9379:9386  _amount */\n      dup8\n        /* \"contracts/distribution/TShareRewardPool.sol\":9355:9387  Withdraw(_sender, _pid, _amount) */\n      mload(0x40)\n      dup1\n      dup3\n      dup2\n      mstore\n      0x20\n      add\n      swap2\n      pop\n      pop\n      mload(0x40)\n      dup1\n      swap2\n      sub\n      swap1\n      log3\n        /* \"contracts/distribution/TShareRewardPool.sol\":8579:9395  function withdraw(uint256 _pid, uint256 _amount) public {\r... */\n      pop\n      pop\n      pop\n      pop\n      pop\n      pop\n      jump\t// out\n        /* \"contracts/distribution/TShareRewardPool.sol\":6760:7676  function updatePool(uint256 _pid) public {\r... */\n    tag_45:\n        /* \"contracts/distribution/TShareRewardPool.sol\":6812:6833  PoolInfo storage pool */\n      0x00\n        /* \"contracts/distribution/TShareRewardPool.sol\":6836:6844  poolInfo */\n      0x02\n        /* \"contracts/distribution/TShareRewardPool.sol\":6845:6849  _pid */\n      dup3\n        /* \"contracts/distribution/TShareRewardPool.sol\":6836:6850  poolInfo[_pid] */\n      dup2\n      sload\n      dup2\n      lt\n      tag_130\n      jumpi\n      invalid\n    tag_130:\n      swap1\n      0x00\n      mstore\n      keccak256(0x00, 0x20)\n      swap1\n      0x05\n      mul\n      add\n        /* \"contracts/distribution/TShareRewardPool.sol\":6812:6850  PoolInfo storage pool = poolInfo[_pid] */\n      swap1\n      pop\n        /* \"contracts/distribution/TShareRewardPool.sol\":6884:6888  pool */\n      dup1\n        /* \"contracts/distribution/TShareRewardPool.sol\":6884:6903  pool.lastRewardTime */\n      0x02\n      add\n      sload\n        /* \"contracts/distribution/TShareRewardPool.sol\":6865:6880  block.timestamp */\n      timestamp\n        /* \"contracts/distribution/TShareRewardPool.sol\":6865:6903  block.timestamp <= pool.lastRewardTime */\n      gt\n        /* \"contracts/distribution/TShareRewardPool.sol\":6861:6938  if (block.timestamp <= pool.lastRewardTime) {\r... */\n      tag_132\n      jumpi\n        /* \"contracts/distribution/TShareRewardPool.sol\":6920:6927  return; */\n      pop\n      jump(tag_129)\n        /* \"contracts/distribution/TShareRewardPool.sol\":6861:6938  if (block.timestamp <= pool.lastRewardTime) {\r... */\n    tag_132:\n        /* \"contracts/distribution/TShareRewardPool.sol\":6948:6967  uint256 tokenSupply */\n      0x00\n        /* \"contracts/distribution/TShareRewardPool.sol\":6970:6974  pool */\n      dup2\n        /* \"contracts/distribution/TShareRewardPool.sol\":6970:6980  pool.token */\n      0x00\n      add\n      0x00\n      swap1\n      sload\n      swap1\n      0x0100\n      exp\n      swap1\n      div\n      0xffffffffffffffffffffffffffffffffffffffff\n      and\n        /* \"contracts/distribution/TShareRewardPool.sol\":6970:6990  pool.token.balanceOf */\n      0xffffffffffffffffffffffffffffffffffffffff\n      and\n      0x70a08231\n        /* \"contracts/distribution/TShareRewardPool.sol\":6999:7003  this */\n      address\n        /* \"contracts/distribution/TShareRewardPool.sol\":6970:7005  pool.token.balanceOf(address(this)) */\n      mload(0x40)\n      dup3\n      0xffffffff\n      and\n      0xe0\n      shl\n      dup2\n      mstore\n      0x04\n      add\n      dup1\n      dup3\n      0xffffffffffffffffffffffffffffffffffffffff\n      and\n      dup2\n      mstore\n      0x20\n      add\n      swap2\n      pop\n      pop\n      0x20\n      mload(0x40)\n      dup1\n      dup4\n      sub\n      dup2\n      dup7\n      dup1\n      extcodesize\n      iszero\n      dup1\n      iszero\n      tag_133\n      jumpi\n      0x00\n      dup1\n      revert\n    tag_133:\n      pop\n      gas\n      staticcall\n      iszero\n      dup1\n      iszero\n      tag_135\n      jumpi\n      returndatasize\n      0x00\n      dup1\n      returndatacopy\n      revert(0x00, returndatasize)\n    tag_135:\n      pop\n      pop\n      pop\n      pop\n      mload(0x40)\n      returndatasize\n      0x20\n      dup2\n      lt\n      iszero\n      tag_136\n      jumpi\n      0x00\n      dup1\n      revert\n    tag_136:\n      dup2\n      add\n      swap1\n      dup1\n      dup1\n      mload\n      swap1\n      0x20\n      add\n      swap1\n      swap3\n      swap2\n      swap1\n      pop\n      pop\n      pop\n        /* \"contracts/distribution/TShareRewardPool.sol\":6948:7005  uint256 tokenSupply = pool.token.balanceOf(address(this)) */\n      swap1\n      pop\n        /* \"contracts/distribution/TShareRewardPool.sol\":7035:7036  0 */\n      0x00\n        /* \"contracts/distribution/TShareRewardPool.sol\":7020:7031  tokenSupply */\n      dup2\n        /* \"contracts/distribution/TShareRewardPool.sol\":7020:7036  tokenSupply == 0 */\n      eq\n        /* \"contracts/distribution/TShareRewardPool.sol\":7016:7123  if (tokenSupply == 0) {\r... */\n      iszero\n      tag_137\n      jumpi\n        /* \"contracts/distribution/TShareRewardPool.sol\":7075:7090  block.timestamp */\n      timestamp\n        /* \"contracts/distribution/TShareRewardPool.sol\":7053:7057  pool */\n      dup3\n        /* \"contracts/distribution/TShareRewardPool.sol\":7053:7072  pool.lastRewardTime */\n      0x02\n      add\n        /* \"contracts/distribution/TShareRewardPool.sol\":7053:7090  pool.lastRewardTime = block.timestamp */\n      dup2\n      swap1\n      sstore\n      pop\n        /* \"contracts/distribution/TShareRewardPool.sol\":7105:7112  return; */\n      pop\n      pop\n      jump(tag_129)\n        /* \"contracts/distribution/TShareRewardPool.sol\":7016:7123  if (tokenSupply == 0) {\r... */\n    tag_137:\n        /* \"contracts/distribution/TShareRewardPool.sol\":7138:7142  pool */\n      dup2\n        /* \"contracts/distribution/TShareRewardPool.sol\":7138:7152  pool.isStarted */\n      0x04\n      add\n      0x00\n      swap1\n      sload\n      swap1\n      0x0100\n      exp\n      swap1\n      div\n      0xff\n      and\n        /* \"contracts/distribution/TShareRewardPool.sol\":7133:7271  if (!pool.isStarted) {\r... */\n      tag_138\n      jumpi\n        /* \"contracts/distribution/TShareRewardPool.sol\":7186:7190  true */\n      0x01\n        /* \"contracts/distribution/TShareRewardPool.sol\":7169:7173  pool */\n      dup3\n        /* \"contracts/distribution/TShareRewardPool.sol\":7169:7183  pool.isStarted */\n      0x04\n      add\n      0x00\n        /* \"contracts/distribution/TShareRewardPool.sol\":7169:7190  pool.isStarted = true */\n      0x0100\n      exp\n      dup2\n      sload\n      dup2\n      0xff\n      mul\n      not\n      and\n      swap1\n      dup4\n      iszero\n      iszero\n      mul\n      or\n      swap1\n      sstore\n      pop\n        /* \"contracts/distribution/TShareRewardPool.sol\":7223:7259  totalAllocPoint.add(pool.allocPoint) */\n      tag_139\n        /* \"contracts/distribution/TShareRewardPool.sol\":7243:7247  pool */\n      dup3\n        /* \"contracts/distribution/TShareRewardPool.sol\":7243:7258  pool.allocPoint */\n      0x01\n      add\n      sload\n        /* \"contracts/distribution/TShareRewardPool.sol\":7223:7238  totalAllocPoint */\n      sload(0x04)\n        /* \"contracts/distribution/TShareRewardPool.sol\":7223:7242  totalAllocPoint.add */\n      tag_93\n      swap1\n        /* \"contracts/distribution/TShareRewardPool.sol\":7223:7259  totalAllocPoint.add(pool.allocPoint) */\n      swap2\n      swap1\n      0xffffffff\n      and\n      jump\t// in\n    tag_139:\n        /* \"contracts/distribution/TShareRewardPool.sol\":7205:7220  totalAllocPoint */\n      0x04\n        /* \"contracts/distribution/TShareRewardPool.sol\":7205:7259  totalAllocPoint = totalAllocPoint.add(pool.allocPoint) */\n      dup2\n      swap1\n      sstore\n      pop\n        /* \"contracts/distribution/TShareRewardPool.sol\":7133:7271  if (!pool.isStarted) {\r... */\n    tag_138:\n        /* \"contracts/distribution/TShareRewardPool.sol\":7303:7304  0 */\n      0x00\n        /* \"contracts/distribution/TShareRewardPool.sol\":7285:7300  totalAllocPoint */\n      sload(0x04)\n        /* \"contracts/distribution/TShareRewardPool.sol\":7285:7304  totalAllocPoint > 0 */\n      gt\n        /* \"contracts/distribution/TShareRewardPool.sol\":7281:7621  if (totalAllocPoint > 0) {\r... */\n      iszero\n      tag_140\n      jumpi\n        /* \"contracts/distribution/TShareRewardPool.sol\":7321:7345  uint256 _generatedReward */\n      0x00\n        /* \"contracts/distribution/TShareRewardPool.sol\":7348:7404  getGeneratedReward(pool.lastRewardTime, block.timestamp) */\n      tag_141\n        /* \"contracts/distribution/TShareRewardPool.sol\":7367:7371  pool */\n      dup4\n        /* \"contracts/distribution/TShareRewardPool.sol\":7367:7386  pool.lastRewardTime */\n      0x02\n      add\n      sload\n        /* \"contracts/distribution/TShareRewardPool.sol\":7388:7403  block.timestamp */\n      timestamp\n        /* \"contracts/distribution/TShareRewardPool.sol\":7348:7366  getGeneratedReward */\n      tag_39\n        /* \"contracts/distribution/TShareRewardPool.sol\":7348:7404  getGeneratedReward(pool.lastRewardTime, block.timestamp) */\n      jump\t// in\n    tag_141:\n        /* \"contracts/distribution/TShareRewardPool.sol\":7321:7404  uint256 _generatedReward = getGeneratedReward(pool.lastRewardTime, block.timestamp) */\n      swap1\n      pop\n        /* \"contracts/distribution/TShareRewardPool.sol\":7419:7440  uint256 _tshareReward */\n      0x00\n        /* \"contracts/distribution/TShareRewardPool.sol\":7443:7501  _generatedReward.mul(pool.allocPoint).div(totalAllocPoint) */\n      tag_142\n        /* \"contracts/distribution/TShareRewardPool.sol\":7485:7500  totalAllocPoint */\n      sload(0x04)\n        /* \"contracts/distribution/TShareRewardPool.sol\":7443:7480  _generatedReward.mul(pool.allocPoint) */\n      tag_143\n        /* \"contracts/distribution/TShareRewardPool.sol\":7464:7468  pool */\n      dup7\n        /* \"contracts/distribution/TShareRewardPool.sol\":7464:7479  pool.allocPoint */\n      0x01\n      add\n      sload\n        /* \"contracts/distribution/TShareRewardPool.sol\":7443:7459  _generatedReward */\n      dup6\n        /* \"contracts/distribution/TShareRewardPool.sol\":7443:7463  _generatedReward.mul */\n      tag_101\n      swap1\n        /* \"contracts/distribution/TShareRewardPool.sol\":7443:7480  _generatedReward.mul(pool.allocPoint) */\n      swap2\n      swap1\n      0xffffffff\n      and\n      jump\t// in\n    tag_143:\n        /* \"contracts/distribution/TShareRewardPool.sol\":7443:7484  _generatedReward.mul(pool.allocPoint).div */\n      tag_119\n      swap1\n        /* \"contracts/distribution/TShareRewardPool.sol\":7443:7501  _generatedReward.mul(pool.allocPoint).div(totalAllocPoint) */\n      swap2\n      swap1\n      0xffffffff\n      and\n      jump\t// in\n    tag_142:\n        /* \"contracts/distribution/TShareRewardPool.sol\":7419:7501  uint256 _tshareReward = _generatedReward.mul(pool.allocPoint).div(totalAllocPoint) */\n      swap1\n      pop\n        /* \"contracts/distribution/TShareRewardPool.sol\":7541:7609  pool.accTSharePerShare.add(_tshareReward.mul(1e18).div(tokenSupply)) */\n      tag_144\n        /* \"contracts/distribution/TShareRewardPool.sol\":7568:7608  _tshareReward.mul(1e18).div(tokenSupply) */\n      tag_145\n        /* \"contracts/distribution/TShareRewardPool.sol\":7596:7607  tokenSupply */\n      dup5\n        /* \"contracts/distribution/TShareRewardPool.sol\":7568:7591  _tshareReward.mul(1e18) */\n      tag_146\n        /* \"contracts/distribution/TShareRewardPool.sol\":7586:7590  1e18 */\n      0x0de0b6b3a7640000\n        /* \"contracts/distribution/TShareRewardPool.sol\":7568:7581  _tshareReward */\n      dup6\n        /* \"contracts/distribution/TShareRewardPool.sol\":7568:7585  _tshareReward.mul */\n      tag_101\n      swap1\n        /* \"contracts/distribution/TShareRewardPool.sol\":7568:7591  _tshareReward.mul(1e18) */\n      swap2\n      swap1\n      0xffffffff\n      and\n      jump\t// in\n    tag_146:\n        /* \"contracts/distribution/TShareRewardPool.sol\":7568:7595  _tshareReward.mul(1e18).div */\n      tag_119\n      swap1\n        /* \"contracts/distribution/TShareRewardPool.sol\":7568:7608  _tshareReward.mul(1e18).div(tokenSupply) */\n      swap2\n      swap1\n      0xffffffff\n      and\n      jump\t// in\n    tag_145:\n        /* \"contracts/distribution/TShareRewardPool.sol\":7541:7545  pool */\n      dup6\n        /* \"contracts/distribution/TShareRewardPool.sol\":7541:7563  pool.accTSharePerShare */\n      0x03\n      add\n      sload\n        /* \"contracts/distribution/TShareRewardPool.sol\":7541:7567  pool.accTSharePerShare.add */\n      tag_93\n      swap1\n        /* \"contracts/distribution/TShareRewardPool.sol\":7541:7609  pool.accTSharePerShare.add(_tshareReward.mul(1e18).div(tokenSupply)) */\n      swap2\n      swap1\n      0xffffffff\n      and\n      jump\t// in\n    tag_144:\n        /* \"contracts/distribution/TShareRewardPool.sol\":7516:7520  pool */\n      dup5\n        /* \"contracts/distribution/TShareRewardPool.sol\":7516:7538  pool.accTSharePerShare */\n      0x03\n      add\n        /* \"contracts/distribution/TShareRewardPool.sol\":7516:7609  pool.accTSharePerShare = pool.accTSharePerShare.add(_tshareReward.mul(1e18).div(tokenSupply)) */\n      dup2\n      swap1\n      sstore\n      pop\n        /* \"contracts/distribution/TShareRewardPool.sol\":7281:7621  if (totalAllocPoint > 0) {\r... */\n      pop\n      pop\n    tag_140:\n        /* \"contracts/distribution/TShareRewardPool.sol\":7653:7668  block.timestamp */\n      timestamp\n        /* \"contracts/distribution/TShareRewardPool.sol\":7631:7635  pool */\n      dup3\n        /* \"contracts/distribution/TShareRewardPool.sol\":7631:7650  pool.lastRewardTime */\n      0x02\n      add\n        /* \"contracts/distribution/TShareRewardPool.sol\":7631:7668  pool.lastRewardTime = block.timestamp */\n      dup2\n      swap1\n      sstore\n      pop\n        /* \"contracts/distribution/TShareRewardPool.sol\":6760:7676  function updatePool(uint256 _pid) public {\r... */\n      pop\n      pop\n    tag_129:\n      pop\n      jump\t// out\n        /* \"contracts/distribution/TShareRewardPool.sol\":9466:9843  function emergencyWithdraw(uint256 _pid) public {\r... */\n    tag_48:\n        /* \"contracts/distribution/TShareRewardPool.sol\":9525:9546  PoolInfo storage pool */\n      0x00\n        /* \"contracts/distribution/TShareRewardPool.sol\":9549:9557  poolInfo */\n      0x02\n        /* \"contracts/distribution/TShareRewardPool.sol\":9558:9562  _pid */\n      dup3\n        /* \"contracts/distribution/TShareRewardPool.sol\":9549:9563  poolInfo[_pid] */\n      dup2\n      sload\n      dup2\n      lt\n      tag_148\n      jumpi\n      invalid\n    tag_148:\n      swap1\n      0x00\n      mstore\n      keccak256(0x00, 0x20)\n      swap1\n      0x05\n      mul\n      add\n        /* \"contracts/distribution/TShareRewardPool.sol\":9525:9563  PoolInfo storage pool = poolInfo[_pid] */\n      swap1\n      pop\n        /* \"contracts/distribution/TShareRewardPool.sol\":9574:9595  UserInfo storage user */\n      0x00\n        /* \"contracts/distribution/TShareRewardPool.sol\":9598:9606  userInfo */\n      0x03\n        /* \"contracts/distribution/TShareRewardPool.sol\":9598:9612  userInfo[_pid] */\n      0x00\n        /* \"contracts/distribution/TShareRewardPool.sol\":9607:9611  _pid */\n      dup5\n        /* \"contracts/distribution/TShareRewardPool.sol\":9598:9612  userInfo[_pid] */\n      dup2\n      mstore\n      0x20\n      add\n      swap1\n      dup2\n      mstore\n      0x20\n      add\n      0x00\n      keccak256\n        /* \"contracts/distribution/TShareRewardPool.sol\":9598:9624  userInfo[_pid][msg.sender] */\n      0x00\n        /* \"contracts/distribution/TShareRewardPool.sol\":9613:9623  msg.sender */\n      caller\n        /* \"contracts/distribution/TShareRewardPool.sol\":9598:9624  userInfo[_pid][msg.sender] */\n      0xffffffffffffffffffffffffffffffffffffffff\n      and\n      0xffffffffffffffffffffffffffffffffffffffff\n      and\n      dup2\n      mstore\n      0x20\n      add\n      swap1\n      dup2\n      mstore\n      0x20\n      add\n      0x00\n      keccak256\n        /* \"contracts/distribution/TShareRewardPool.sol\":9574:9624  UserInfo storage user = userInfo[_pid][msg.sender] */\n      swap1\n      pop\n        /* \"contracts/distribution/TShareRewardPool.sol\":9635:9650  uint256 _amount */\n      0x00\n        /* \"contracts/distribution/TShareRewardPool.sol\":9653:9657  user */\n      dup2\n        /* \"contracts/distribution/TShareRewardPool.sol\":9653:9664  user.amount */\n      0x00\n      add\n      sload\n        /* \"contracts/distribution/TShareRewardPool.sol\":9635:9664  uint256 _amount = user.amount */\n      swap1\n      pop\n        /* \"contracts/distribution/TShareRewardPool.sol\":9689:9690  0 */\n      0x00\n        /* \"contracts/distribution/TShareRewardPool.sol\":9675:9679  user */\n      dup3\n        /* \"contracts/distribution/TShareRewardPool.sol\":9675:9686  user.amount */\n      0x00\n      add\n        /* \"contracts/distribution/TShareRewardPool.sol\":9675:9690  user.amount = 0 */\n      dup2\n      swap1\n      sstore\n      pop\n        /* \"contracts/distribution/TShareRewardPool.sol\":9719:9720  0 */\n      0x00\n        /* \"contracts/distribution/TShareRewardPool.sol\":9701:9705  user */\n      dup3\n        /* \"contracts/distribution/TShareRewardPool.sol\":9701:9716  user.rewardDebt */\n      0x01\n      add\n        /* \"contracts/distribution/TShareRewardPool.sol\":9701:9720  user.rewardDebt = 0 */\n      dup2\n      swap1\n      sstore\n      pop\n        /* \"contracts/distribution/TShareRewardPool.sol\":9731:9775  pool.token.safeTransfer(msg.sender, _amount) */\n      tag_150\n        /* \"contracts/distribution/TShareRewardPool.sol\":9755:9765  msg.sender */\n      caller\n        /* \"contracts/distribution/TShareRewardPool.sol\":9767:9774  _amount */\n      dup3\n        /* \"contracts/distribution/TShareRewardPool.sol\":9731:9735  pool */\n      dup6\n        /* \"contracts/distribution/TShareRewardPool.sol\":9731:9741  pool.token */\n      0x00\n      add\n      0x00\n      swap1\n      sload\n      swap1\n      0x0100\n      exp\n      swap1\n      div\n      0xffffffffffffffffffffffffffffffffffffffff\n      and\n        /* \"contracts/distribution/TShareRewardPool.sol\":9731:9754  pool.token.safeTransfer */\n      0xffffffffffffffffffffffffffffffffffffffff\n      and\n      tag_126\n      swap1\n        /* \"contracts/distribution/TShareRewardPool.sol\":9731:9775  pool.token.safeTransfer(msg.sender, _amount) */\n      swap3\n      swap2\n      swap1\n      0xffffffff\n      and\n      jump\t// in\n    tag_150:\n        /* \"contracts/distribution/TShareRewardPool.sol\":9821:9825  _pid */\n      dup4\n        /* \"contracts/distribution/TShareRewardPool.sol\":9809:9819  msg.sender */\n      caller\n        /* \"contracts/distribution/TShareRewardPool.sol\":9791:9835  EmergencyWithdraw(msg.sender, _pid, _amount) */\n      0xffffffffffffffffffffffffffffffffffffffff\n      and\n      0xbb757047c2b5f3974fe26b7c10f732e7bce710b0952a71082702781e62ae0595\n        /* \"contracts/distribution/TShareRewardPool.sol\":9827:9834  _amount */\n      dup4\n        /* \"contracts/distribution/TShareRewardPool.sol\":9791:9835  EmergencyWithdraw(msg.sender, _pid, _amount) */\n      mload(0x40)\n      dup1\n      dup3\n      dup2\n      mstore\n      0x20\n      add\n      swap2\n      pop\n      pop\n      mload(0x40)\n      dup1\n      swap2\n      sub\n      swap1\n      log3\n        /* \"contracts/distribution/TShareRewardPool.sol\":9466:9843  function emergencyWithdraw(uint256 _pid) public {\r... */\n      pop\n      pop\n      pop\n      pop\n      jump\t// out\n        /* \"contracts/distribution/TShareRewardPool.sol\":10443:11053  function governanceRecoverUnsupported(IERC20 _token, uint256 amount, address to) external onlyOperator {\r... */\n    tag_51:\n        /* \"contracts/distribution/TShareRewardPool.sol\":2678:2688  msg.sender */\n      caller\n        /* \"contracts/distribution/TShareRewardPool.sol\":2666:2688  operator == msg.sender */\n      0xffffffffffffffffffffffffffffffffffffffff\n      and\n        /* \"contracts/distribution/TShareRewardPool.sol\":2666:2674  operator */\n      0x00\n      dup1\n      sload\n      swap1\n      0x0100\n      exp\n      swap1\n      div\n      0xffffffffffffffffffffffffffffffffffffffff\n      and\n        /* \"contracts/distribution/TShareRewardPool.sol\":2666:2688  operator == msg.sender */\n      0xffffffffffffffffffffffffffffffffffffffff\n      and\n      eq\n        /* \"contracts/distribution/TShareRewardPool.sol\":2658:2737  require(operator == msg.sender, \"TShareRewardPool: caller is not the operator\") */\n      tag_152\n      jumpi\n      mload(0x40)\n      0x08c379a000000000000000000000000000000000000000000000000000000000\n      dup2\n      mstore\n      0x04\n      add\n      dup1\n      dup1\n      0x20\n      add\n      dup3\n      dup2\n      sub\n      dup3\n      mstore\n      0x2c\n      dup2\n      mstore\n      0x20\n      add\n      dup1\n      data_3c72df8ab4eb3adb53b2d5e3c0dcd6e55e8972bc8360589eb9459e56a713b10e\n      0x2c\n      swap2\n      codecopy\n      0x40\n      add\n      swap2\n      pop\n      pop\n      mload(0x40)\n      dup1\n      swap2\n      sub\n      swap1\n      revert\n    tag_152:\n        /* \"contracts/distribution/TShareRewardPool.sol\":10593:10600  90 days */\n      0x76a700\n        /* \"contracts/distribution/TShareRewardPool.sol\":10579:10590  poolEndTime */\n      sload(0x06)\n        /* \"contracts/distribution/TShareRewardPool.sol\":10579:10600  poolEndTime + 90 days */\n      add\n        /* \"contracts/distribution/TShareRewardPool.sol\":10561:10576  block.timestamp */\n      timestamp\n        /* \"contracts/distribution/TShareRewardPool.sol\":10561:10600  block.timestamp < poolEndTime + 90 days */\n      lt\n        /* \"contracts/distribution/TShareRewardPool.sol\":10557:11004  if (block.timestamp < poolEndTime + 90 days) {\r... */\n      iszero\n      tag_154\n      jumpi\n        /* \"contracts/distribution/TShareRewardPool.sol\":10737:10743  tshare */\n      0x01\n      0x00\n      swap1\n      sload\n      swap1\n      0x0100\n      exp\n      swap1\n      div\n      0xffffffffffffffffffffffffffffffffffffffff\n      and\n        /* \"contracts/distribution/TShareRewardPool.sol\":10727:10743  _token != tshare */\n      0xffffffffffffffffffffffffffffffffffffffff\n      and\n        /* \"contracts/distribution/TShareRewardPool.sol\":10727:10733  _token */\n      dup4\n        /* \"contracts/distribution/TShareRewardPool.sol\":10727:10743  _token != tshare */\n      0xffffffffffffffffffffffffffffffffffffffff\n      and\n      eq\n      iszero\n        /* \"contracts/distribution/TShareRewardPool.sol\":10719:10754  require(_token != tshare, \"tshare\") */\n      tag_155\n      jumpi\n      mload(0x40)\n      0x08c379a000000000000000000000000000000000000000000000000000000000\n      dup2\n      mstore\n      0x04\n      add\n      dup1\n      dup1\n      0x20\n      add\n      dup3\n      dup2\n      sub\n      dup3\n      mstore\n      0x06\n      dup2\n      mstore\n      0x20\n      add\n      dup1\n      0x7473686172650000000000000000000000000000000000000000000000000000\n      dup2\n      mstore\n      pop\n      0x20\n      add\n      swap2\n      pop\n      pop\n      mload(0x40)\n      dup1\n      swap2\n      sub\n      swap1\n      revert\n    tag_155:\n        /* \"contracts/distribution/TShareRewardPool.sol\":10769:10783  uint256 length */\n      0x00\n        /* \"contracts/distribution/TShareRewardPool.sol\":10786:10794  poolInfo */\n      0x02\n        /* \"contracts/distribution/TShareRewardPool.sol\":10786:10801  poolInfo.length */\n      dup1\n      sload\n      swap1\n      pop\n        /* \"contracts/distribution/TShareRewardPool.sol\":10769:10801  uint256 length = poolInfo.length */\n      swap1\n      pop\n        /* \"contracts/distribution/TShareRewardPool.sol\":10821:10832  uint256 pid */\n      0x00\n        /* \"contracts/distribution/TShareRewardPool.sol\":10816:10993  for (uint256 pid = 0; pid < length; ++pid) {\r... */\n    tag_156:\n        /* \"contracts/distribution/TShareRewardPool.sol\":10844:10850  length */\n      dup2\n        /* \"contracts/distribution/TShareRewardPool.sol\":10838:10841  pid */\n      dup2\n        /* \"contracts/distribution/TShareRewardPool.sol\":10838:10850  pid < length */\n      lt\n        /* \"contracts/distribution/TShareRewardPool.sol\":10816:10993  for (uint256 pid = 0; pid < length; ++pid) {\r... */\n      iszero\n      tag_157\n      jumpi\n        /* \"contracts/distribution/TShareRewardPool.sol\":10878:10899  PoolInfo storage pool */\n      0x00\n        /* \"contracts/distribution/TShareRewardPool.sol\":10902:10910  poolInfo */\n      0x02\n        /* \"contracts/distribution/TShareRewardPool.sol\":10911:10914  pid */\n      dup3\n        /* \"contracts/distribution/TShareRewardPool.sol\":10902:10915  poolInfo[pid] */\n      dup2\n      sload\n      dup2\n      lt\n      tag_159\n      jumpi\n      invalid\n    tag_159:\n      swap1\n      0x00\n      mstore\n      keccak256(0x00, 0x20)\n      swap1\n      0x05\n      mul\n      add\n        /* \"contracts/distribution/TShareRewardPool.sol\":10878:10915  PoolInfo storage pool = poolInfo[pid] */\n      swap1\n      pop\n        /* \"contracts/distribution/TShareRewardPool.sol\":10952:10956  pool */\n      dup1\n        /* \"contracts/distribution/TShareRewardPool.sol\":10952:10962  pool.token */\n      0x00\n      add\n      0x00\n      swap1\n      sload\n      swap1\n      0x0100\n      exp\n      swap1\n      div\n      0xffffffffffffffffffffffffffffffffffffffff\n      and\n        /* \"contracts/distribution/TShareRewardPool.sol\":10942:10962  _token != pool.token */\n      0xffffffffffffffffffffffffffffffffffffffff\n      and\n        /* \"contracts/distribution/TShareRewardPool.sol\":10942:10948  _token */\n      dup7\n        /* \"contracts/distribution/TShareRewardPool.sol\":10942:10962  _token != pool.token */\n      0xffffffffffffffffffffffffffffffffffffffff\n      and\n      eq\n      iszero\n        /* \"contracts/distribution/TShareRewardPool.sol\":10934:10977  require(_token != pool.token, \"pool.token\") */\n      tag_161\n      jumpi\n      mload(0x40)\n      0x08c379a000000000000000000000000000000000000000000000000000000000\n      dup2\n      mstore\n      0x04\n      add\n      dup1\n      dup1\n      0x20\n      add\n      dup3\n      dup2\n      sub\n      dup3\n      mstore\n      0x0a\n      dup2\n      mstore\n      0x20\n      add\n      dup1\n      0x706f6f6c2e746f6b656e00000000000000000000000000000000000000000000\n      dup2\n      mstore\n      pop\n      0x20\n      add\n      swap2\n      pop\n      pop\n      mload(0x40)\n      dup1\n      swap2\n      sub\n      swap1\n      revert\n    tag_161:\n        /* \"contracts/distribution/TShareRewardPool.sol\":10816:10993  for (uint256 pid = 0; pid < length; ++pid) {\r... */\n      pop\n        /* \"contracts/distribution/TShareRewardPool.sol\":10852:10857  ++pid */\n      dup1\n      0x01\n      add\n      swap1\n      pop\n        /* \"contracts/distribution/TShareRewardPool.sol\":10816:10993  for (uint256 pid = 0; pid < length; ++pid) {\r... */\n      jump(tag_156)\n    tag_157:\n      pop\n        /* \"contracts/distribution/TShareRewardPool.sol\":10557:11004  if (block.timestamp < poolEndTime + 90 days) {\r... */\n      pop\n    tag_154:\n        /* \"contracts/distribution/TShareRewardPool.sol\":11014:11045  _token.safeTransfer(to, amount) */\n      tag_162\n        /* \"contracts/distribution/TShareRewardPool.sol\":11034:11036  to */\n      dup2\n        /* \"contracts/distribution/TShareRewardPool.sol\":11038:11044  amount */\n      dup4\n        /* \"contracts/distribution/TShareRewardPool.sol\":11014:11020  _token */\n      dup6\n        /* \"contracts/distribution/TShareRewardPool.sol\":11014:11033  _token.safeTransfer */\n      0xffffffffffffffffffffffffffffffffffffffff\n      and\n      tag_126\n      swap1\n        /* \"contracts/distribution/TShareRewardPool.sol\":11014:11045  _token.safeTransfer(to, amount) */\n      swap3\n      swap2\n      swap1\n      0xffffffff\n      and\n      jump\t// in\n    tag_162:\n        /* \"contracts/distribution/TShareRewardPool.sol\":10443:11053  function governanceRecoverUnsupported(IERC20 _token, uint256 amount, address to) external onlyOperator {\r... */\n      pop\n      pop\n      pop\n      jump\t// out\n        /* \"contracts/distribution/TShareRewardPool.sol\":552:575  address public operator */\n    tag_53:\n      0x00\n      dup1\n      sload\n      swap1\n      0x0100\n      exp\n      swap1\n      div\n      0xffffffffffffffffffffffffffffffffffffffff\n      and\n      dup2\n      jump\t// out\n        /* \"contracts/distribution/TShareRewardPool.sol\":1629:1657  uint256 public poolStartTime */\n    tag_55:\n      sload(0x05)\n      dup2\n      jump\t// out\n        /* \"contracts/distribution/TShareRewardPool.sol\":6504:6684  function massUpdatePools() public {\r... */\n    tag_57:\n        /* \"contracts/distribution/TShareRewardPool.sol\":6549:6563  uint256 length */\n      0x00\n        /* \"contracts/distribution/TShareRewardPool.sol\":6566:6574  poolInfo */\n      0x02\n        /* \"contracts/distribution/TShareRewardPool.sol\":6566:6581  poolInfo.length */\n      dup1\n      sload\n      swap1\n      pop\n        /* \"contracts/distribution/TShareRewardPool.sol\":6549:6581  uint256 length = poolInfo.length */\n      swap1\n      pop\n        /* \"contracts/distribution/TShareRewardPool.sol\":6597:6608  uint256 pid */\n      0x00\n        /* \"contracts/distribution/TShareRewardPool.sol\":6592:6677  for (uint256 pid = 0; pid < length; ++pid) {\r... */\n    tag_164:\n        /* \"contracts/distribution/TShareRewardPool.sol\":6620:6626  length */\n      dup2\n        /* \"contracts/distribution/TShareRewardPool.sol\":6614:6617  pid */\n      dup2\n        /* \"contracts/distribution/TShareRewardPool.sol\":6614:6626  pid < length */\n      lt\n        /* \"contracts/distribution/TShareRewardPool.sol\":6592:6677  for (uint256 pid = 0; pid < length; ++pid) {\r... */\n      iszero\n      tag_165\n      jumpi\n        /* \"contracts/distribution/TShareRewardPool.sol\":6650:6665  updatePool(pid) */\n      tag_167\n        /* \"contracts/distribution/TShareRewardPool.sol\":6661:6664  pid */\n      dup2\n        /* \"contracts/distribution/TShareRewardPool.sol\":6650:6660  updatePool */\n      tag_45\n        /* \"contracts/distribution/TShareRewardPool.sol\":6650:6665  updatePool(pid) */\n      jump\t// in\n    tag_167:\n        /* \"contracts/distribution/TShareRewardPool.sol\":6628:6633  ++pid */\n      dup1\n      0x01\n      add\n      swap1\n      pop\n        /* \"contracts/distribution/TShareRewardPool.sol\":6592:6677  for (uint256 pid = 0; pid < length; ++pid) {\r... */\n      jump(tag_164)\n    tag_165:\n      pop\n        /* \"contracts/distribution/TShareRewardPool.sol\":6504:6684  function massUpdatePools() public {\r... */\n      pop\n      jump\t// out\n        /* \"contracts/distribution/TShareRewardPool.sol\":1708:1734  uint256 public poolEndTime */\n    tag_59:\n      sload(0x06)\n      dup2\n      jump\t// out\n        /* \"contracts/distribution/TShareRewardPool.sol\":1381:1445  mapping(uint256 => mapping(address => UserInfo)) public userInfo */\n    tag_62:\n      mstore(0x20, 0x03)\n      dup2\n      0x00\n      mstore\n      mstore(0x20, keccak256(0x00, 0x40))\n      dup1\n      0x00\n      mstore\n      keccak256(0x00, 0x40)\n      0x00\n      swap2\n      pop\n      swap2\n      pop\n      pop\n      dup1\n      0x00\n      add\n      sload\n      swap1\n      dup1\n      0x01\n      add\n      sload\n      swap1\n      pop\n      dup3\n      jump\t// out\n        /* \"contracts/distribution/TShareRewardPool.sol\":1848:1885  uint256 public runningTime = 370 days */\n    tag_64:\n      sload(0x08)\n      dup2\n      jump\t// out\n        /* \"contracts/distribution/TShareRewardPool.sol\":3102:4380  function add(\r... */\n    tag_67:\n        /* \"contracts/distribution/TShareRewardPool.sol\":2678:2688  msg.sender */\n      caller\n        /* \"contracts/distribution/TShareRewardPool.sol\":2666:2688  operator == msg.sender */\n      0xffffffffffffffffffffffffffffffffffffffff\n      and\n        /* \"contracts/distribution/TShareRewardPool.sol\":2666:2674  operator */\n      0x00\n      dup1\n      sload\n      swap1\n      0x0100\n      exp\n      swap1\n      div\n      0xffffffffffffffffffffffffffffffffffffffff\n      and\n        /* \"contracts/distribution/TShareRewardPool.sol\":2666:2688  operator == msg.sender */\n      0xffffffffffffffffffffffffffffffffffffffff\n      and\n      eq\n        /* \"contracts/distribution/TShareRewardPool.sol\":2658:2737  require(operator == msg.sender, \"TShareRewardPool: caller is not the operator\") */\n      tag_169\n      jumpi\n      mload(0x40)\n      0x08c379a000000000000000000000000000000000000000000000000000000000\n      dup2\n      mstore\n      0x04\n      add\n      dup1\n      dup1\n      0x20\n      add\n      dup3\n      dup2\n      sub\n      dup3\n      mstore\n      0x2c\n      dup2\n      mstore\n      0x20\n      add\n      dup1\n      data_3c72df8ab4eb3adb53b2d5e3c0dcd6e55e8972bc8360589eb9459e56a713b10e\n      0x2c\n      swap2\n      codecopy\n      0x40\n      add\n      swap2\n      pop\n      pop\n      mload(0x40)\n      dup1\n      swap2\n      sub\n      swap1\n      revert\n    tag_169:\n        /* \"contracts/distribution/TShareRewardPool.sol\":3268:3294  checkPoolDuplicate(_token) */\n      tag_171\n        /* \"contracts/distribution/TShareRewardPool.sol\":3287:3293  _token */\n      dup4\n        /* \"contracts/distribution/TShareRewardPool.sol\":3268:3286  checkPoolDuplicate */\n      tag_172\n        /* \"contracts/distribution/TShareRewardPool.sol\":3268:3294  checkPoolDuplicate(_token) */\n      jump\t// in\n    tag_171:\n        /* \"contracts/distribution/TShareRewardPool.sol\":3309:3320  _withUpdate */\n      dup2\n        /* \"contracts/distribution/TShareRewardPool.sol\":3305:3366  if (_withUpdate) {\r... */\n      iszero\n      tag_173\n      jumpi\n        /* \"contracts/distribution/TShareRewardPool.sol\":3337:3354  massUpdatePools() */\n      tag_174\n        /* \"contracts/distribution/TShareRewardPool.sol\":3337:3352  massUpdatePools */\n      tag_57\n        /* \"contracts/distribution/TShareRewardPool.sol\":3337:3354  massUpdatePools() */\n      jump\t// in\n    tag_174:\n        /* \"contracts/distribution/TShareRewardPool.sol\":3305:3366  if (_withUpdate) {\r... */\n    tag_173:\n        /* \"contracts/distribution/TShareRewardPool.sol\":3398:3411  poolStartTime */\n      sload(0x05)\n        /* \"contracts/distribution/TShareRewardPool.sol\":3380:3395  block.timestamp */\n      timestamp\n        /* \"contracts/distribution/TShareRewardPool.sol\":3380:3411  block.timestamp < poolStartTime */\n      lt\n        /* \"contracts/distribution/TShareRewardPool.sol\":3376:3910  if (block.timestamp < poolStartTime) {\r... */\n      iszero\n      tag_175\n      jumpi\n        /* \"contracts/distribution/TShareRewardPool.sol\":3484:3485  0 */\n      0x00\n        /* \"contracts/distribution/TShareRewardPool.sol\":3465:3480  _lastRewardTime */\n      dup2\n        /* \"contracts/distribution/TShareRewardPool.sol\":3465:3485  _lastRewardTime == 0 */\n      eq\n        /* \"contracts/distribution/TShareRewardPool.sol\":3461:3704  if (_lastRewardTime == 0) {\r... */\n      iszero\n      tag_176\n      jumpi\n        /* \"contracts/distribution/TShareRewardPool.sol\":3524:3537  poolStartTime */\n      sload(0x05)\n        /* \"contracts/distribution/TShareRewardPool.sol\":3506:3537  _lastRewardTime = poolStartTime */\n      swap1\n      pop\n        /* \"contracts/distribution/TShareRewardPool.sol\":3461:3704  if (_lastRewardTime == 0) {\r... */\n      jump(tag_177)\n    tag_176:\n        /* \"contracts/distribution/TShareRewardPool.sol\":3600:3613  poolStartTime */\n      sload(0x05)\n        /* \"contracts/distribution/TShareRewardPool.sol\":3582:3597  _lastRewardTime */\n      dup2\n        /* \"contracts/distribution/TShareRewardPool.sol\":3582:3613  _lastRewardTime < poolStartTime */\n      lt\n        /* \"contracts/distribution/TShareRewardPool.sol\":3578:3689  if (_lastRewardTime < poolStartTime) {\r... */\n      iszero\n      tag_178\n      jumpi\n        /* \"contracts/distribution/TShareRewardPool.sol\":3656:3669  poolStartTime */\n      sload(0x05)\n        /* \"contracts/distribution/TShareRewardPool.sol\":3638:3669  _lastRewardTime = poolStartTime */\n      swap1\n      pop\n        /* \"contracts/distribution/TShareRewardPool.sol\":3578:3689  if (_lastRewardTime < poolStartTime) {\r... */\n    tag_178:\n        /* \"contracts/distribution/TShareRewardPool.sol\":3461:3704  if (_lastRewardTime == 0) {\r... */\n    tag_177:\n        /* \"contracts/distribution/TShareRewardPool.sol\":3376:3910  if (block.timestamp < poolStartTime) {\r... */\n      jump(tag_179)\n    tag_175:\n        /* \"contracts/distribution/TShareRewardPool.sol\":3791:3792  0 */\n      0x00\n        /* \"contracts/distribution/TShareRewardPool.sol\":3772:3787  _lastRewardTime */\n      dup2\n        /* \"contracts/distribution/TShareRewardPool.sol\":3772:3792  _lastRewardTime == 0 */\n      eq\n        /* \"contracts/distribution/TShareRewardPool.sol\":3772:3829  _lastRewardTime == 0 || _lastRewardTime < block.timestamp */\n      dup1\n      tag_180\n      jumpi\n      pop\n        /* \"contracts/distribution/TShareRewardPool.sol\":3814:3829  block.timestamp */\n      timestamp\n        /* \"contracts/distribution/TShareRewardPool.sol\":3796:3811  _lastRewardTime */\n      dup2\n        /* \"contracts/distribution/TShareRewardPool.sol\":3796:3829  _lastRewardTime < block.timestamp */\n      lt\n        /* \"contracts/distribution/TShareRewardPool.sol\":3772:3829  _lastRewardTime == 0 || _lastRewardTime < block.timestamp */\n    tag_180:\n        /* \"contracts/distribution/TShareRewardPool.sol\":3768:3899  if (_lastRewardTime == 0 || _lastRewardTime < block.timestamp) {\r... */\n      iszero\n      tag_181\n      jumpi\n        /* \"contracts/distribution/TShareRewardPool.sol\":3868:3883  block.timestamp */\n      timestamp\n        /* \"contracts/distribution/TShareRewardPool.sol\":3850:3883  _lastRewardTime = block.timestamp */\n      swap1\n      pop\n        /* \"contracts/distribution/TShareRewardPool.sol\":3768:3899  if (_lastRewardTime == 0 || _lastRewardTime < block.timestamp) {\r... */\n    tag_181:\n        /* \"contracts/distribution/TShareRewardPool.sol\":3376:3910  if (block.timestamp < poolStartTime) {\r... */\n    tag_179:\n        /* \"contracts/distribution/TShareRewardPool.sol\":3920:3935  bool _isStarted */\n      0x00\n        /* \"contracts/distribution/TShareRewardPool.sol\":3967:3980  poolStartTime */\n      sload(0x05)\n        /* \"contracts/distribution/TShareRewardPool.sol\":3948:3963  _lastRewardTime */\n      dup3\n        /* \"contracts/distribution/TShareRewardPool.sol\":3948:3980  _lastRewardTime <= poolStartTime */\n      gt\n      iszero\n        /* \"contracts/distribution/TShareRewardPool.sol\":3947:4030  (_lastRewardTime <= poolStartTime) ||\r... */\n      dup1\n      tag_182\n      jumpi\n      pop\n        /* \"contracts/distribution/TShareRewardPool.sol\":4014:4029  block.timestamp */\n      timestamp\n        /* \"contracts/distribution/TShareRewardPool.sol\":3995:4010  _lastRewardTime */\n      dup3\n        /* \"contracts/distribution/TShareRewardPool.sol\":3995:4029  _lastRewardTime <= block.timestamp */\n      gt\n      iszero\n        /* \"contracts/distribution/TShareRewardPool.sol\":3947:4030  (_lastRewardTime <= poolStartTime) ||\r... */\n    tag_182:\n        /* \"contracts/distribution/TShareRewardPool.sol\":3920:4030  bool _isStarted =\r... */\n      swap1\n      pop\n        /* \"contracts/distribution/TShareRewardPool.sol\":4041:4049  poolInfo */\n      0x02\n        /* \"contracts/distribution/TShareRewardPool.sol\":4055:4268  PoolInfo({\r... */\n      mload(0x40)\n      dup1\n      0xa0\n      add\n      0x40\n      mstore\n      dup1\n        /* \"contracts/distribution/TShareRewardPool.sol\":4087:4093  _token */\n      dup7\n        /* \"contracts/distribution/TShareRewardPool.sol\":4055:4268  PoolInfo({\r... */\n      0xffffffffffffffffffffffffffffffffffffffff\n      and\n      dup2\n      mstore\n      0x20\n      add\n        /* \"contracts/distribution/TShareRewardPool.sol\":4121:4132  _allocPoint */\n      dup8\n        /* \"contracts/distribution/TShareRewardPool.sol\":4055:4268  PoolInfo({\r... */\n      dup2\n      mstore\n      0x20\n      add\n        /* \"contracts/distribution/TShareRewardPool.sol\":4164:4179  _lastRewardTime */\n      dup5\n        /* \"contracts/distribution/TShareRewardPool.sol\":4055:4268  PoolInfo({\r... */\n      dup2\n      mstore\n      0x20\n      add\n        /* \"contracts/distribution/TShareRewardPool.sol\":4214:4215  0 */\n      0x00\n        /* \"contracts/distribution/TShareRewardPool.sol\":4055:4268  PoolInfo({\r... */\n      dup2\n      mstore\n      0x20\n      add\n        /* \"contracts/distribution/TShareRewardPool.sol\":4242:4252  _isStarted */\n      dup4\n        /* \"contracts/distribution/TShareRewardPool.sol\":4055:4268  PoolInfo({\r... */\n      iszero\n      iszero\n      dup2\n      mstore\n      pop\n        /* \"contracts/distribution/TShareRewardPool.sol\":4041:4269  poolInfo.push(PoolInfo({\r... */\n      swap1\n      dup1\n      0x01\n      dup2\n      sload\n      add\n      dup1\n      dup3\n      sstore\n      dup1\n      swap2\n      pop\n      pop\n      0x01\n      swap1\n      sub\n      swap1\n      0x00\n      mstore\n      keccak256(0x00, 0x20)\n      swap1\n      0x05\n      mul\n      add\n      0x00\n      swap1\n      swap2\n      swap1\n      swap2\n      swap1\n      swap2\n      pop\n      0x00\n      dup3\n      add\n      mload\n      dup2\n      0x00\n      add\n      exp(0x0100, 0x00)\n      dup2\n      sload\n      dup2\n      0xffffffffffffffffffffffffffffffffffffffff\n      mul\n      not\n      and\n      swap1\n      dup4\n      0xffffffffffffffffffffffffffffffffffffffff\n      and\n      mul\n      or\n      swap1\n      sstore\n      pop\n      0x20\n      dup3\n      add\n      mload\n      dup2\n      0x01\n      add\n      sstore\n      0x40\n      dup3\n      add\n      mload\n      dup2\n      0x02\n      add\n      sstore\n      0x60\n      dup3\n      add\n      mload\n      dup2\n      0x03\n      add\n      sstore\n      0x80\n      dup3\n      add\n      mload\n      dup2\n      0x04\n      add\n      exp(0x0100, 0x00)\n      dup2\n      sload\n      dup2\n      0xff\n      mul\n      not\n      and\n      swap1\n      dup4\n      iszero\n      iszero\n      mul\n      or\n      swap1\n      sstore\n      pop\n      pop\n      pop\n        /* \"contracts/distribution/TShareRewardPool.sol\":4284:4294  _isStarted */\n      dup1\n        /* \"contracts/distribution/TShareRewardPool.sol\":4280:4373  if (_isStarted) {\r... */\n      iszero\n      tag_184\n      jumpi\n        /* \"contracts/distribution/TShareRewardPool.sol\":4329:4361  totalAllocPoint.add(_allocPoint) */\n      tag_185\n        /* \"contracts/distribution/TShareRewardPool.sol\":4349:4360  _allocPoint */\n      dup6\n        /* \"contracts/distribution/TShareRewardPool.sol\":4329:4344  totalAllocPoint */\n      sload(0x04)\n        /* \"contracts/distribution/TShareRewardPool.sol\":4329:4348  totalAllocPoint.add */\n      tag_93\n      swap1\n        /* \"contracts/distribution/TShareRewardPool.sol\":4329:4361  totalAllocPoint.add(_allocPoint) */\n      swap2\n      swap1\n      0xffffffff\n      and\n      jump\t// in\n    tag_185:\n        /* \"contracts/distribution/TShareRewardPool.sol\":4311:4326  totalAllocPoint */\n      0x04\n        /* \"contracts/distribution/TShareRewardPool.sol\":4311:4361  totalAllocPoint = totalAllocPoint.add(_allocPoint) */\n      dup2\n      swap1\n      sstore\n      pop\n        /* \"contracts/distribution/TShareRewardPool.sol\":4280:4373  if (_isStarted) {\r... */\n    tag_184:\n        /* \"contracts/distribution/TShareRewardPool.sol\":2748:2749  _ */\n      pop\n        /* \"contracts/distribution/TShareRewardPool.sol\":3102:4380  function add(\r... */\n      pop\n      pop\n      pop\n      pop\n      jump\t// out\n        /* \"contracts/distribution/TShareRewardPool.sol\":1743:1792  uint256 public tSharePerSecond = 0.00187687 ether */\n    tag_69:\n      sload(0x07)\n      dup2\n      jump\t// out\n        /* \"contracts/distribution/TShareRewardPool.sol\":10334:10435  function setOperator(address _operator) external onlyOperator {\r... */\n    tag_72:\n        /* \"contracts/distribution/TShareRewardPool.sol\":2678:2688  msg.sender */\n      caller\n        /* \"contracts/distribution/TShareRewardPool.sol\":2666:2688  operator == msg.sender */\n      0xffffffffffffffffffffffffffffffffffffffff\n      and\n        /* \"contracts/distribution/TShareRewardPool.sol\":2666:2674  operator */\n      0x00\n      dup1\n      sload\n      swap1\n      0x0100\n      exp\n      swap1\n      div\n      0xffffffffffffffffffffffffffffffffffffffff\n      and\n        /* \"contracts/distribution/TShareRewardPool.sol\":2666:2688  operator == msg.sender */\n      0xffffffffffffffffffffffffffffffffffffffff\n      and\n      eq\n        /* \"contracts/distribution/TShareRewardPool.sol\":2658:2737  require(operator == msg.sender, \"TShareRewardPool: caller is not the operator\") */\n      tag_187\n      jumpi\n      mload(0x40)\n      0x08c379a000000000000000000000000000000000000000000000000000000000\n      dup2\n      mstore\n      0x04\n      add\n      dup1\n      dup1\n      0x20\n      add\n      dup3\n      dup2\n      sub\n      dup3\n      mstore\n      0x2c\n      dup2\n      mstore\n      0x20\n      add\n      dup1\n      data_3c72df8ab4eb3adb53b2d5e3c0dcd6e55e8972bc8360589eb9459e56a713b10e\n      0x2c\n      swap2\n      codecopy\n      0x40\n      add\n      swap2\n      pop\n      pop\n      mload(0x40)\n      dup1\n      swap2\n      sub\n      swap1\n      revert\n    tag_187:\n        /* \"contracts/distribution/TShareRewardPool.sol\":10418:10427  _operator */\n      dup1\n        /* \"contracts/distribution/TShareRewardPool.sol\":10407:10415  operator */\n      0x00\n      dup1\n        /* \"contracts/distribution/TShareRewardPool.sol\":10407:10427  operator = _operator */\n      0x0100\n      exp\n      dup2\n      sload\n      dup2\n      0xffffffffffffffffffffffffffffffffffffffff\n      mul\n      not\n      and\n      swap1\n      dup4\n      0xffffffffffffffffffffffffffffffffffffffff\n      and\n      mul\n      or\n      swap1\n      sstore\n      pop\n        /* \"contracts/distribution/TShareRewardPool.sol\":10334:10435  function setOperator(address _operator) external onlyOperator {\r... */\n      pop\n      jump\t// out\n        /* \"contracts/distribution/TShareRewardPool.sol\":5635:6421  function pendingShare(uint256 _pid, address _user) external view returns (uint256) {\r... */\n    tag_75:\n        /* \"contracts/distribution/TShareRewardPool.sol\":5709:5716  uint256 */\n      0x00\n        /* \"contracts/distribution/TShareRewardPool.sol\":5729:5750  PoolInfo storage pool */\n      dup1\n        /* \"contracts/distribution/TShareRewardPool.sol\":5753:5761  poolInfo */\n      0x02\n        /* \"contracts/distribution/TShareRewardPool.sol\":5762:5766  _pid */\n      dup5\n        /* \"contracts/distribution/TShareRewardPool.sol\":5753:5767  poolInfo[_pid] */\n      dup2\n      sload\n      dup2\n      lt\n      tag_190\n      jumpi\n      invalid\n    tag_190:\n      swap1\n      0x00\n      mstore\n      keccak256(0x00, 0x20)\n      swap1\n      0x05\n      mul\n      add\n        /* \"contracts/distribution/TShareRewardPool.sol\":5729:5767  PoolInfo storage pool = poolInfo[_pid] */\n      swap1\n      pop\n        /* \"contracts/distribution/TShareRewardPool.sol\":5778:5799  UserInfo storage user */\n      0x00\n        /* \"contracts/distribution/TShareRewardPool.sol\":5802:5810  userInfo */\n      0x03\n        /* \"contracts/distribution/TShareRewardPool.sol\":5802:5816  userInfo[_pid] */\n      0x00\n        /* \"contracts/distribution/TShareRewardPool.sol\":5811:5815  _pid */\n      dup7\n        /* \"contracts/distribution/TShareRewardPool.sol\":5802:5816  userInfo[_pid] */\n      dup2\n      mstore\n      0x20\n      add\n      swap1\n      dup2\n      mstore\n      0x20\n      add\n      0x00\n      keccak256\n        /* \"contracts/distribution/TShareRewardPool.sol\":5802:5823  userInfo[_pid][_user] */\n      0x00\n        /* \"contracts/distribution/TShareRewardPool.sol\":5817:5822  _user */\n      dup6\n        /* \"contracts/distribution/TShareRewardPool.sol\":5802:5823  userInfo[_pid][_user] */\n      0xffffffffffffffffffffffffffffffffffffffff\n      and\n      0xffffffffffffffffffffffffffffffffffffffff\n      and\n      dup2\n      mstore\n      0x20\n      add\n      swap1\n      dup2\n      mstore\n      0x20\n      add\n      0x00\n      keccak256\n        /* \"contracts/distribution/TShareRewardPool.sol\":5778:5823  UserInfo storage user = userInfo[_pid][_user] */\n      swap1\n      pop\n        /* \"contracts/distribution/TShareRewardPool.sol\":5834:5859  uint256 accTSharePerShare */\n      0x00\n        /* \"contracts/distribution/TShareRewardPool.sol\":5862:5866  pool */\n      dup3\n        /* \"contracts/distribution/TShareRewardPool.sol\":5862:5884  pool.accTSharePerShare */\n      0x03\n      add\n      sload\n        /* \"contracts/distribution/TShareRewardPool.sol\":5834:5884  uint256 accTSharePerShare = pool.accTSharePerShare */\n      swap1\n      pop\n        /* \"contracts/distribution/TShareRewardPool.sol\":5895:5914  uint256 tokenSupply */\n      0x00\n        /* \"contracts/distribution/TShareRewardPool.sol\":5917:5921  pool */\n      dup4\n        /* \"contracts/distribution/TShareRewardPool.sol\":5917:5927  pool.token */\n      0x00\n      add\n      0x00\n      swap1\n      sload\n      swap1\n      0x0100\n      exp\n      swap1\n      div\n      0xffffffffffffffffffffffffffffffffffffffff\n      and\n        /* \"contracts/distribution/TShareRewardPool.sol\":5917:5937  pool.token.balanceOf */\n      0xffffffffffffffffffffffffffffffffffffffff\n      and\n      0x70a08231\n        /* \"contracts/distribution/TShareRewardPool.sol\":5946:5950  this */\n      address\n        /* \"contracts/distribution/TShareRewardPool.sol\":5917:5952  pool.token.balanceOf(address(this)) */\n      mload(0x40)\n      dup3\n      0xffffffff\n      and\n      0xe0\n      shl\n      dup2\n      mstore\n      0x04\n      add\n      dup1\n      dup3\n      0xffffffffffffffffffffffffffffffffffffffff\n      and\n      dup2\n      mstore\n      0x20\n      add\n      swap2\n      pop\n      pop\n      0x20\n      mload(0x40)\n      dup1\n      dup4\n      sub\n      dup2\n      dup7\n      dup1\n      extcodesize\n      iszero\n      dup1\n      iszero\n      tag_192\n      jumpi\n      0x00\n      dup1\n      revert\n    tag_192:\n      pop\n      gas\n      staticcall\n      iszero\n      dup1\n      iszero\n      tag_194\n      jumpi\n      returndatasize\n      0x00\n      dup1\n      returndatacopy\n      revert(0x00, returndatasize)\n    tag_194:\n      pop\n      pop\n      pop\n      pop\n      mload(0x40)\n      returndatasize\n      0x20\n      dup2\n      lt\n      iszero\n      tag_195\n      jumpi\n      0x00\n      dup1\n      revert\n    tag_195:\n      dup2\n      add\n      swap1\n      dup1\n      dup1\n      mload\n      swap1\n      0x20\n      add\n      swap1\n      swap3\n      swap2\n      swap1\n      pop\n      pop\n      pop\n        /* \"contracts/distribution/TShareRewardPool.sol\":5895:5952  uint256 tokenSupply = pool.token.balanceOf(address(this)) */\n      swap1\n      pop\n        /* \"contracts/distribution/TShareRewardPool.sol\":5985:5989  pool */\n      dup4\n        /* \"contracts/distribution/TShareRewardPool.sol\":5985:6004  pool.lastRewardTime */\n      0x02\n      add\n      sload\n        /* \"contracts/distribution/TShareRewardPool.sol\":5967:5982  block.timestamp */\n      timestamp\n        /* \"contracts/distribution/TShareRewardPool.sol\":5967:6004  block.timestamp > pool.lastRewardTime */\n      gt\n        /* \"contracts/distribution/TShareRewardPool.sol\":5967:6024  block.timestamp > pool.lastRewardTime && tokenSupply != 0 */\n      dup1\n      iszero\n      tag_196\n      jumpi\n      pop\n        /* \"contracts/distribution/TShareRewardPool.sol\":6023:6024  0 */\n      0x00\n        /* \"contracts/distribution/TShareRewardPool.sol\":6008:6019  tokenSupply */\n      dup2\n        /* \"contracts/distribution/TShareRewardPool.sol\":6008:6024  tokenSupply != 0 */\n      eq\n      iszero\n        /* \"contracts/distribution/TShareRewardPool.sol\":5967:6024  block.timestamp > pool.lastRewardTime && tokenSupply != 0 */\n    tag_196:\n        /* \"contracts/distribution/TShareRewardPool.sol\":5963:6331  if (block.timestamp > pool.lastRewardTime && tokenSupply != 0) {\r... */\n      iszero\n      tag_197\n      jumpi\n        /* \"contracts/distribution/TShareRewardPool.sol\":6041:6065  uint256 _generatedReward */\n      0x00\n        /* \"contracts/distribution/TShareRewardPool.sol\":6068:6124  getGeneratedReward(pool.lastRewardTime, block.timestamp) */\n      tag_198\n        /* \"contracts/distribution/TShareRewardPool.sol\":6087:6091  pool */\n      dup6\n        /* \"contracts/distribution/TShareRewardPool.sol\":6087:6106  pool.lastRewardTime */\n      0x02\n      add\n      sload\n        /* \"contracts/distribution/TShareRewardPool.sol\":6108:6123  block.timestamp */\n      timestamp\n        /* \"contracts/distribution/TShareRewardPool.sol\":6068:6086  getGeneratedReward */\n      tag_39\n        /* \"contracts/distribution/TShareRewardPool.sol\":6068:6124  getGeneratedReward(pool.lastRewardTime, block.timestamp) */\n      jump\t// in\n    tag_198:\n        /* \"contracts/distribution/TShareRewardPool.sol\":6041:6124  uint256 _generatedReward = getGeneratedReward(pool.lastRewardTime, block.timestamp) */\n      swap1\n      pop\n        /* \"contracts/distribution/TShareRewardPool.sol\":6139:6160  uint256 _tshareReward */\n      0x00\n        /* \"contracts/distribution/TShareRewardPool.sol\":6163:6221  _generatedReward.mul(pool.allocPoint).div(totalAllocPoint) */\n      tag_199\n        /* \"contracts/distribution/TShareRewardPool.sol\":6205:6220  totalAllocPoint */\n      sload(0x04)\n        /* \"contracts/distribution/TShareRewardPool.sol\":6163:6200  _generatedReward.mul(pool.allocPoint) */\n      tag_200\n        /* \"contracts/distribution/TShareRewardPool.sol\":6184:6188  pool */\n      dup9\n        /* \"contracts/distribution/TShareRewardPool.sol\":6184:6199  pool.allocPoint */\n      0x01\n      add\n      sload\n        /* \"contracts/distribution/TShareRewardPool.sol\":6163:6179  _generatedReward */\n      dup6\n        /* \"contracts/distribution/TShareRewardPool.sol\":6163:6183  _generatedReward.mul */\n      tag_101\n      swap1\n        /* \"contracts/distribution/TShareRewardPool.sol\":6163:6200  _generatedReward.mul(pool.allocPoint) */\n      swap2\n      swap1\n      0xffffffff\n      and\n      jump\t// in\n    tag_200:\n        /* \"contracts/distribution/TShareRewardPool.sol\":6163:6204  _generatedReward.mul(pool.allocPoint).div */\n      tag_119\n      swap1\n        /* \"contracts/distribution/TShareRewardPool.sol\":6163:6221  _generatedReward.mul(pool.allocPoint).div(totalAllocPoint) */\n      swap2\n      swap1\n      0xffffffff\n      and\n      jump\t// in\n    tag_199:\n        /* \"contracts/distribution/TShareRewardPool.sol\":6139:6221  uint256 _tshareReward = _generatedReward.mul(pool.allocPoint).div(totalAllocPoint) */\n      swap1\n      pop\n        /* \"contracts/distribution/TShareRewardPool.sol\":6256:6319  accTSharePerShare.add(_tshareReward.mul(1e18).div(tokenSupply)) */\n      tag_201\n        /* \"contracts/distribution/TShareRewardPool.sol\":6278:6318  _tshareReward.mul(1e18).div(tokenSupply) */\n      tag_202\n        /* \"contracts/distribution/TShareRewardPool.sol\":6306:6317  tokenSupply */\n      dup5\n        /* \"contracts/distribution/TShareRewardPool.sol\":6278:6301  _tshareReward.mul(1e18) */\n      tag_203\n        /* \"contracts/distribution/TShareRewardPool.sol\":6296:6300  1e18 */\n      0x0de0b6b3a7640000\n        /* \"contracts/distribution/TShareRewardPool.sol\":6278:6291  _tshareReward */\n      dup6\n        /* \"contracts/distribution/TShareRewardPool.sol\":6278:6295  _tshareReward.mul */\n      tag_101\n      swap1\n        /* \"contracts/distribution/TShareRewardPool.sol\":6278:6301  _tshareReward.mul(1e18) */\n      swap2\n      swap1\n      0xffffffff\n      and\n      jump\t// in\n    tag_203:\n        /* \"contracts/distribution/TShareRewardPool.sol\":6278:6305  _tshareReward.mul(1e18).div */\n      tag_119\n      swap1\n        /* \"contracts/distribution/TShareRewardPool.sol\":6278:6318  _tshareReward.mul(1e18).div(tokenSupply) */\n      swap2\n      swap1\n      0xffffffff\n      and\n      jump\t// in\n    tag_202:\n        /* \"contracts/distribution/TShareRewardPool.sol\":6256:6273  accTSharePerShare */\n      dup6\n        /* \"contracts/distribution/TShareRewardPool.sol\":6256:6277  accTSharePerShare.add */\n      tag_93\n      swap1\n        /* \"contracts/distribution/TShareRewardPool.sol\":6256:6319  accTSharePerShare.add(_tshareReward.mul(1e18).div(tokenSupply)) */\n      swap2\n      swap1\n      0xffffffff\n      and\n      jump\t// in\n    tag_201:\n        /* \"contracts/distribution/TShareRewardPool.sol\":6236:6319  accTSharePerShare = accTSharePerShare.add(_tshareReward.mul(1e18).div(tokenSupply)) */\n      swap4\n      pop\n        /* \"contracts/distribution/TShareRewardPool.sol\":5963:6331  if (block.timestamp > pool.lastRewardTime && tokenSupply != 0) {\r... */\n      pop\n      pop\n    tag_197:\n        /* \"contracts/distribution/TShareRewardPool.sol\":6348:6413  user.amount.mul(accTSharePerShare).div(1e18).sub(user.rewardDebt) */\n      tag_204\n        /* \"contracts/distribution/TShareRewardPool.sol\":6397:6401  user */\n      dup4\n        /* \"contracts/distribution/TShareRewardPool.sol\":6397:6412  user.rewardDebt */\n      0x01\n      add\n      sload\n        /* \"contracts/distribution/TShareRewardPool.sol\":6348:6392  user.amount.mul(accTSharePerShare).div(1e18) */\n      tag_205\n        /* \"contracts/distribution/TShareRewardPool.sol\":6387:6391  1e18 */\n      0x0de0b6b3a7640000\n        /* \"contracts/distribution/TShareRewardPool.sol\":6348:6382  user.amount.mul(accTSharePerShare) */\n      tag_206\n        /* \"contracts/distribution/TShareRewardPool.sol\":6364:6381  accTSharePerShare */\n      dup7\n        /* \"contracts/distribution/TShareRewardPool.sol\":6348:6352  user */\n      dup9\n        /* \"contracts/distribution/TShareRewardPool.sol\":6348:6359  user.amount */\n      0x00\n      add\n      sload\n        /* \"contracts/distribution/TShareRewardPool.sol\":6348:6363  user.amount.mul */\n      tag_101\n      swap1\n        /* \"contracts/distribution/TShareRewardPool.sol\":6348:6382  user.amount.mul(accTSharePerShare) */\n      swap2\n      swap1\n      0xffffffff\n      and\n      jump\t// in\n    tag_206:\n        /* \"contracts/distribution/TShareRewardPool.sol\":6348:6386  user.amount.mul(accTSharePerShare).div */\n      tag_119\n      swap1\n        /* \"contracts/distribution/TShareRewardPool.sol\":6348:6392  user.amount.mul(accTSharePerShare).div(1e18) */\n      swap2\n      swap1\n      0xffffffff\n      and\n      jump\t// in\n    tag_205:\n        /* \"contracts/distribution/TShareRewardPool.sol\":6348:6396  user.amount.mul(accTSharePerShare).div(1e18).sub */\n      tag_92\n      swap1\n        /* \"contracts/distribution/TShareRewardPool.sol\":6348:6413  user.amount.mul(accTSharePerShare).div(1e18).sub(user.rewardDebt) */\n      swap2\n      swap1\n      0xffffffff\n      and\n      jump\t// in\n    tag_204:\n        /* \"contracts/distribution/TShareRewardPool.sol\":6341:6413  return user.amount.mul(accTSharePerShare).div(1e18).sub(user.rewardDebt) */\n      swap5\n      pop\n      pop\n      pop\n      pop\n      pop\n        /* \"contracts/distribution/TShareRewardPool.sol\":5635:6421  function pendingShare(uint256 _pid, address _user) external view returns (uint256) {\r... */\n      swap3\n      swap2\n      pop\n      pop\n      jump\t// out\n        /* \"contracts/distribution/TShareRewardPool.sol\":7711:8543  function deposit(uint256 _pid, uint256 _amount) public {\r... */\n    tag_78:\n        /* \"contracts/distribution/TShareRewardPool.sol\":7777:7792  address _sender */\n      0x00\n        /* \"contracts/distribution/TShareRewardPool.sol\":7795:7805  msg.sender */\n      caller\n        /* \"contracts/distribution/TShareRewardPool.sol\":7777:7805  address _sender = msg.sender */\n      swap1\n      pop\n        /* \"contracts/distribution/TShareRewardPool.sol\":7816:7837  PoolInfo storage pool */\n      0x00\n        /* \"contracts/distribution/TShareRewardPool.sol\":7840:7848  poolInfo */\n      0x02\n        /* \"contracts/distribution/TShareRewardPool.sol\":7849:7853  _pid */\n      dup5\n        /* \"contracts/distribution/TShareRewardPool.sol\":7840:7854  poolInfo[_pid] */\n      dup2\n      sload\n      dup2\n      lt\n      tag_208\n      jumpi\n      invalid\n    tag_208:\n      swap1\n      0x00\n      mstore\n      keccak256(0x00, 0x20)\n      swap1\n      0x05\n      mul\n      add\n        /* \"contracts/distribution/TShareRewardPool.sol\":7816:7854  PoolInfo storage pool = poolInfo[_pid] */\n      swap1\n      pop\n        /* \"contracts/distribution/TShareRewardPool.sol\":7865:7886  UserInfo storage user */\n      0x00\n        /* \"contracts/distribution/TShareRewardPool.sol\":7889:7897  userInfo */\n      0x03\n        /* \"contracts/distribution/TShareRewardPool.sol\":7889:7903  userInfo[_pid] */\n      0x00\n        /* \"contracts/distribution/TShareRewardPool.sol\":7898:7902  _pid */\n      dup7\n        /* \"contracts/distribution/TShareRewardPool.sol\":7889:7903  userInfo[_pid] */\n      dup2\n      mstore\n      0x20\n      add\n      swap1\n      dup2\n      mstore\n      0x20\n      add\n      0x00\n      keccak256\n        /* \"contracts/distribution/TShareRewardPool.sol\":7889:7912  userInfo[_pid][_sender] */\n      0x00\n        /* \"contracts/distribution/TShareRewardPool.sol\":7904:7911  _sender */\n      dup5\n        /* \"contracts/distribution/TShareRewardPool.sol\":7889:7912  userInfo[_pid][_sender] */\n      0xffffffffffffffffffffffffffffffffffffffff\n      and\n      0xffffffffffffffffffffffffffffffffffffffff\n      and\n      dup2\n      mstore\n      0x20\n      add\n      swap1\n      dup2\n      mstore\n      0x20\n      add\n      0x00\n      keccak256\n        /* \"contracts/distribution/TShareRewardPool.sol\":7865:7912  UserInfo storage user = userInfo[_pid][_sender] */\n      swap1\n      pop\n        /* \"contracts/distribution/TShareRewardPool.sol\":7923:7939  updatePool(_pid) */\n      tag_210\n        /* \"contracts/distribution/TShareRewardPool.sol\":7934:7938  _pid */\n      dup6\n        /* \"contracts/distribution/TShareRewardPool.sol\":7923:7933  updatePool */\n      tag_45\n        /* \"contracts/distribution/TShareRewardPool.sol\":7923:7939  updatePool(_pid) */\n      jump\t// in\n    tag_210:\n        /* \"contracts/distribution/TShareRewardPool.sol\":7968:7969  0 */\n      0x00\n        /* \"contracts/distribution/TShareRewardPool.sol\":7954:7958  user */\n      dup2\n        /* \"contracts/distribution/TShareRewardPool.sol\":7954:7965  user.amount */\n      0x00\n      add\n      sload\n        /* \"contracts/distribution/TShareRewardPool.sol\":7954:7969  user.amount > 0 */\n      gt\n        /* \"contracts/distribution/TShareRewardPool.sol\":7950:8244  if (user.amount > 0) {\r... */\n      iszero\n      tag_211\n      jumpi\n        /* \"contracts/distribution/TShareRewardPool.sol\":7986:8002  uint256 _pending */\n      0x00\n        /* \"contracts/distribution/TShareRewardPool.sol\":8005:8075  user.amount.mul(pool.accTSharePerShare).div(1e18).sub(user.rewardDebt) */\n      tag_212\n        /* \"contracts/distribution/TShareRewardPool.sol\":8059:8063  user */\n      dup3\n        /* \"contracts/distribution/TShareRewardPool.sol\":8059:8074  user.rewardDebt */\n      0x01\n      add\n      sload\n        /* \"contracts/distribution/TShareRewardPool.sol\":8005:8054  user.amount.mul(pool.accTSharePerShare).div(1e18) */\n      tag_213\n        /* \"contracts/distribution/TShareRewardPool.sol\":8049:8053  1e18 */\n      0x0de0b6b3a7640000\n        /* \"contracts/distribution/TShareRewardPool.sol\":8005:8044  user.amount.mul(pool.accTSharePerShare) */\n      tag_214\n        /* \"contracts/distribution/TShareRewardPool.sol\":8021:8025  pool */\n      dup8\n        /* \"contracts/distribution/TShareRewardPool.sol\":8021:8043  pool.accTSharePerShare */\n      0x03\n      add\n      sload\n        /* \"contracts/distribution/TShareRewardPool.sol\":8005:8009  user */\n      dup8\n        /* \"contracts/distribution/TShareRewardPool.sol\":8005:8016  user.amount */\n      0x00\n      add\n      sload\n        /* \"contracts/distribution/TShareRewardPool.sol\":8005:8020  user.amount.mul */\n      tag_101\n      swap1\n        /* \"contracts/distribution/TShareRewardPool.sol\":8005:8044  user.amount.mul(pool.accTSharePerShare) */\n      swap2\n      swap1\n      0xffffffff\n      and\n      jump\t// in\n    tag_214:\n        /* \"contracts/distribution/TShareRewardPool.sol\":8005:8048  user.amount.mul(pool.accTSharePerShare).div */\n      tag_119\n      swap1\n        /* \"contracts/distribution/TShareRewardPool.sol\":8005:8054  user.amount.mul(pool.accTSharePerShare).div(1e18) */\n      swap2\n      swap1\n      0xffffffff\n      and\n      jump\t// in\n    tag_213:\n        /* \"contracts/distribution/TShareRewardPool.sol\":8005:8058  user.amount.mul(pool.accTSharePerShare).div(1e18).sub */\n      tag_92\n      swap1\n        /* \"contracts/distribution/TShareRewardPool.sol\":8005:8075  user.amount.mul(pool.accTSharePerShare).div(1e18).sub(user.rewardDebt) */\n      swap2\n      swap1\n      0xffffffff\n      and\n      jump\t// in\n    tag_212:\n        /* \"contracts/distribution/TShareRewardPool.sol\":7986:8075  uint256 _pending = user.amount.mul(pool.accTSharePerShare).div(1e18).sub(user.rewardDebt) */\n      swap1\n      pop\n        /* \"contracts/distribution/TShareRewardPool.sol\":8105:8106  0 */\n      0x00\n        /* \"contracts/distribution/TShareRewardPool.sol\":8094:8102  _pending */\n      dup2\n        /* \"contracts/distribution/TShareRewardPool.sol\":8094:8106  _pending > 0 */\n      gt\n        /* \"contracts/distribution/TShareRewardPool.sol\":8090:8233  if (_pending > 0) {\r... */\n      iszero\n      tag_215\n      jumpi\n        /* \"contracts/distribution/TShareRewardPool.sol\":8127:8164  safeTShareTransfer(_sender, _pending) */\n      tag_216\n        /* \"contracts/distribution/TShareRewardPool.sol\":8146:8153  _sender */\n      dup5\n        /* \"contracts/distribution/TShareRewardPool.sol\":8155:8163  _pending */\n      dup3\n        /* \"contracts/distribution/TShareRewardPool.sol\":8127:8145  safeTShareTransfer */\n      tag_122\n        /* \"contracts/distribution/TShareRewardPool.sol\":8127:8164  safeTShareTransfer(_sender, _pending) */\n      jump\t// in\n    tag_216:\n        /* \"contracts/distribution/TShareRewardPool.sol\":8199:8206  _sender */\n      dup4\n        /* \"contracts/distribution/TShareRewardPool.sol\":8188:8217  RewardPaid(_sender, _pending) */\n      0xffffffffffffffffffffffffffffffffffffffff\n      and\n      0xe2403640ba68fed3a2f88b7557551d1993f84b99bb10ff833f0cf8db0c5e0486\n        /* \"contracts/distribution/TShareRewardPool.sol\":8208:8216  _pending */\n      dup3\n        /* \"contracts/distribution/TShareRewardPool.sol\":8188:8217  RewardPaid(_sender, _pending) */\n      mload(0x40)\n      dup1\n      dup3\n      dup2\n      mstore\n      0x20\n      add\n      swap2\n      pop\n      pop\n      mload(0x40)\n      dup1\n      swap2\n      sub\n      swap1\n      log2\n        /* \"contracts/distribution/TShareRewardPool.sol\":8090:8233  if (_pending > 0) {\r... */\n    tag_215:\n        /* \"contracts/distribution/TShareRewardPool.sol\":7950:8244  if (user.amount > 0) {\r... */\n      pop\n    tag_211:\n        /* \"contracts/distribution/TShareRewardPool.sol\":8268:8269  0 */\n      0x00\n        /* \"contracts/distribution/TShareRewardPool.sol\":8258:8265  _amount */\n      dup5\n        /* \"contracts/distribution/TShareRewardPool.sol\":8258:8269  _amount > 0 */\n      gt\n        /* \"contracts/distribution/TShareRewardPool.sol\":8254:8411  if (_amount > 0) {\r... */\n      iszero\n      tag_217\n      jumpi\n        /* \"contracts/distribution/TShareRewardPool.sol\":8286:8346  pool.token.safeTransferFrom(_sender, address(this), _amount) */\n      tag_218\n        /* \"contracts/distribution/TShareRewardPool.sol\":8314:8321  _sender */\n      dup4\n        /* \"contracts/distribution/TShareRewardPool.sol\":8331:8335  this */\n      address\n        /* \"contracts/distribution/TShareRewardPool.sol\":8338:8345  _amount */\n      dup7\n        /* \"contracts/distribution/TShareRewardPool.sol\":8286:8290  pool */\n      dup6\n        /* \"contracts/distribution/TShareRewardPool.sol\":8286:8296  pool.token */\n      0x00\n      add\n      0x00\n      swap1\n      sload\n      swap1\n      0x0100\n      exp\n      swap1\n      div\n      0xffffffffffffffffffffffffffffffffffffffff\n      and\n        /* \"contracts/distribution/TShareRewardPool.sol\":8286:8313  pool.token.safeTransferFrom */\n      0xffffffffffffffffffffffffffffffffffffffff\n      and\n      tag_219\n      swap1\n        /* \"contracts/distribution/TShareRewardPool.sol\":8286:8346  pool.token.safeTransferFrom(_sender, address(this), _amount) */\n      swap4\n      swap3\n      swap2\n      swap1\n      0xffffffff\n      and\n      jump\t// in\n    tag_218:\n        /* \"contracts/distribution/TShareRewardPool.sol\":8375:8399  user.amount.add(_amount) */\n      tag_220\n        /* \"contracts/distribution/TShareRewardPool.sol\":8391:8398  _amount */\n      dup5\n        /* \"contracts/distribution/TShareRewardPool.sol\":8375:8379  user */\n      dup3\n        /* \"contracts/distribution/TShareRewardPool.sol\":8375:8386  user.amount */\n      0x00\n      add\n      sload\n        /* \"contracts/distribution/TShareRewardPool.sol\":8375:8390  user.amount.add */\n      tag_93\n      swap1\n        /* \"contracts/distribution/TShareRewardPool.sol\":8375:8399  user.amount.add(_amount) */\n      swap2\n      swap1\n      0xffffffff\n      and\n      jump\t// in\n    tag_220:\n        /* \"contracts/distribution/TShareRewardPool.sol\":8361:8365  user */\n      dup2\n        /* \"contracts/distribution/TShareRewardPool.sol\":8361:8372  user.amount */\n      0x00\n      add\n        /* \"contracts/distribution/TShareRewardPool.sol\":8361:8399  user.amount = user.amount.add(_amount) */\n      dup2\n      swap1\n      sstore\n      pop\n        /* \"contracts/distribution/TShareRewardPool.sol\":8254:8411  if (_amount > 0) {\r... */\n    tag_217:\n        /* \"contracts/distribution/TShareRewardPool.sol\":8439:8488  user.amount.mul(pool.accTSharePerShare).div(1e18) */\n      tag_221\n        /* \"contracts/distribution/TShareRewardPool.sol\":8483:8487  1e18 */\n      0x0de0b6b3a7640000\n        /* \"contracts/distribution/TShareRewardPool.sol\":8439:8478  user.amount.mul(pool.accTSharePerShare) */\n      tag_222\n        /* \"contracts/distribution/TShareRewardPool.sol\":8455:8459  pool */\n      dup5\n        /* \"contracts/distribution/TShareRewardPool.sol\":8455:8477  pool.accTSharePerShare */\n      0x03\n      add\n      sload\n        /* \"contracts/distribution/TShareRewardPool.sol\":8439:8443  user */\n      dup5\n        /* \"contracts/distribution/TShareRewardPool.sol\":8439:8450  user.amount */\n      0x00\n      add\n      sload\n        /* \"contracts/distribution/TShareRewardPool.sol\":8439:8454  user.amount.mul */\n      tag_101\n      swap1\n        /* \"contracts/distribution/TShareRewardPool.sol\":8439:8478  user.amount.mul(pool.accTSharePerShare) */\n      swap2\n      swap1\n      0xffffffff\n      and\n      jump\t// in\n    tag_222:\n        /* \"contracts/distribution/TShareRewardPool.sol\":8439:8482  user.amount.mul(pool.accTSharePerShare).div */\n      tag_119\n      swap1\n        /* \"contracts/distribution/TShareRewardPool.sol\":8439:8488  user.amount.mul(pool.accTSharePerShare).div(1e18) */\n      swap2\n      swap1\n      0xffffffff\n      and\n      jump\t// in\n    tag_221:\n        /* \"contracts/distribution/TShareRewardPool.sol\":8421:8425  user */\n      dup2\n        /* \"contracts/distribution/TShareRewardPool.sol\":8421:8436  user.rewardDebt */\n      0x01\n      add\n        /* \"contracts/distribution/TShareRewardPool.sol\":8421:8488  user.rewardDebt = user.amount.mul(pool.accTSharePerShare).div(1e18) */\n      dup2\n      swap1\n      sstore\n      pop\n        /* \"contracts/distribution/TShareRewardPool.sol\":8521:8525  _pid */\n      dup5\n        /* \"contracts/distribution/TShareRewardPool.sol\":8512:8519  _sender */\n      dup4\n        /* \"contracts/distribution/TShareRewardPool.sol\":8504:8535  Deposit(_sender, _pid, _amount) */\n      0xffffffffffffffffffffffffffffffffffffffff\n      and\n      0x90890809c654f11d6e72a28fa60149770a0d11ec6c92319d6ceb2bb0a4ea1a15\n        /* \"contracts/distribution/TShareRewardPool.sol\":8527:8534  _amount */\n      dup7\n        /* \"contracts/distribution/TShareRewardPool.sol\":8504:8535  Deposit(_sender, _pid, _amount) */\n      mload(0x40)\n      dup1\n      dup3\n      dup2\n      mstore\n      0x20\n      add\n      swap2\n      pop\n      pop\n      mload(0x40)\n      dup1\n      swap2\n      sub\n      swap1\n      log3\n        /* \"contracts/distribution/TShareRewardPool.sol\":7711:8543  function deposit(uint256 _pid, uint256 _amount) public {\r... */\n      pop\n      pop\n      pop\n      pop\n      pop\n      jump\t// out\n        /* \"contracts/distribution/TShareRewardPool.sol\":1241:1261  IERC20 public tshare */\n    tag_80:\n      0x01\n      0x00\n      swap1\n      sload\n      swap1\n      0x0100\n      exp\n      swap1\n      div\n      0xffffffffffffffffffffffffffffffffffffffff\n      and\n      dup2\n      jump\t// out\n        /* \"@openzeppelin/contracts/utils/math/SafeMath.sol\":3136:3291  function sub(uint256 a, uint256 b) internal pure returns (uint256) {... */\n    tag_92:\n        /* \"@openzeppelin/contracts/utils/math/SafeMath.sol\":3194:3201  uint256 */\n      0x00\n        /* \"@openzeppelin/contracts/utils/math/SafeMath.sol\":3226:3227  a */\n      dup3\n        /* \"@openzeppelin/contracts/utils/math/SafeMath.sol\":3221:3222  b */\n      dup3\n        /* \"@openzeppelin/contracts/utils/math/SafeMath.sol\":3221:3227  b <= a */\n      gt\n      iszero\n        /* \"@openzeppelin/contracts/utils/math/SafeMath.sol\":3213:3262  require(b <= a, \"SafeMath: subtraction overflow\") */\n      tag_224\n      jumpi\n      mload(0x40)\n      0x08c379a000000000000000000000000000000000000000000000000000000000\n      dup2\n      mstore\n      0x04\n      add\n      dup1\n      dup1\n      0x20\n      add\n      dup3\n      dup2\n      sub\n      dup3\n      mstore\n      0x1e\n      dup2\n      mstore\n      0x20\n      add\n      dup1\n      0x536166654d6174683a207375627472616374696f6e206f766572666c6f770000\n      dup2\n      mstore\n      pop\n      0x20\n      add\n      swap2\n      pop\n      pop\n      mload(0x40)\n      dup1\n      swap2\n      sub\n      swap1\n      revert\n    tag_224:\n        /* \"@openzeppelin/contracts/utils/math/SafeMath.sol\":3283:3284  b */\n      dup2\n        /* \"@openzeppelin/contracts/utils/math/SafeMath.sol\":3279:3280  a */\n      dup4\n        /* \"@openzeppelin/contracts/utils/math/SafeMath.sol\":3279:3284  a - b */\n      sub\n        /* \"@openzeppelin/contracts/utils/math/SafeMath.sol\":3272:3284  return a - b */\n      swap1\n      pop\n        /* \"@openzeppelin/contracts/utils/math/SafeMath.sol\":3136:3291  function sub(uint256 a, uint256 b) internal pure returns (uint256) {... */\n      swap3\n      swap2\n      pop\n      pop\n      jump\t// out\n        /* \"@openzeppelin/contracts/utils/math/SafeMath.sol\":2690:2865  function add(uint256 a, uint256 b) internal pure returns (uint256) {... */\n    tag_93:\n        /* \"@openzeppelin/contracts/utils/math/SafeMath.sol\":2748:2755  uint256 */\n      0x00\n        /* \"@openzeppelin/contracts/utils/math/SafeMath.sol\":2767:2776  uint256 c */\n      dup1\n        /* \"@openzeppelin/contracts/utils/math/SafeMath.sol\":2783:2784  b */\n      dup3\n        /* \"@openzeppelin/contracts/utils/math/SafeMath.sol\":2779:2780  a */\n      dup5\n        /* \"@openzeppelin/contracts/utils/math/SafeMath.sol\":2779:2784  a + b */\n      add\n        /* \"@openzeppelin/contracts/utils/math/SafeMath.sol\":2767:2784  uint256 c = a + b */\n      swap1\n      pop\n        /* \"@openzeppelin/contracts/utils/math/SafeMath.sol\":2807:2808  a */\n      dup4\n        /* \"@openzeppelin/contracts/utils/math/SafeMath.sol\":2802:2803  c */\n      dup2\n        /* \"@openzeppelin/contracts/utils/math/SafeMath.sol\":2802:2808  c >= a */\n      lt\n      iszero\n        /* \"@openzeppelin/contracts/utils/math/SafeMath.sol\":2794:2840  require(c >= a, \"SafeMath: addition overflow\") */\n      tag_226\n      jumpi\n      mload(0x40)\n      0x08c379a000000000000000000000000000000000000000000000000000000000\n      dup2\n      mstore\n      0x04\n      add\n      dup1\n      dup1\n      0x20\n      add\n      dup3\n      dup2\n      sub\n      dup3\n      mstore\n      0x1b\n      dup2\n      mstore\n      0x20\n      add\n      dup1\n      0x536166654d6174683a206164646974696f6e206f766572666c6f770000000000\n      dup2\n      mstore\n      pop\n      0x20\n      add\n      swap2\n      pop\n      pop\n      mload(0x40)\n      dup1\n      swap2\n      sub\n      swap1\n      revert\n    tag_226:\n        /* \"@openzeppelin/contracts/utils/math/SafeMath.sol\":2857:2858  c */\n      dup1\n        /* \"@openzeppelin/contracts/utils/math/SafeMath.sol\":2850:2858  return c */\n      swap2\n      pop\n      pop\n        /* \"@openzeppelin/contracts/utils/math/SafeMath.sol\":2690:2865  function add(uint256 a, uint256 b) internal pure returns (uint256) {... */\n      swap3\n      swap2\n      pop\n      pop\n      jump\t// out\n        /* \"@openzeppelin/contracts/utils/math/SafeMath.sol\":3538:3753  function mul(uint256 a, uint256 b) internal pure returns (uint256) {... */\n    tag_101:\n        /* \"@openzeppelin/contracts/utils/math/SafeMath.sol\":3596:3603  uint256 */\n      0x00\n        /* \"@openzeppelin/contracts/utils/math/SafeMath.sol\":3624:3625  0 */\n      dup1\n        /* \"@openzeppelin/contracts/utils/math/SafeMath.sol\":3619:3620  a */\n      dup4\n        /* \"@openzeppelin/contracts/utils/math/SafeMath.sol\":3619:3625  a == 0 */\n      eq\n        /* \"@openzeppelin/contracts/utils/math/SafeMath.sol\":3615:3635  if (a == 0) return 0 */\n      iszero\n      tag_228\n      jumpi\n        /* \"@openzeppelin/contracts/utils/math/SafeMath.sol\":3634:3635  0 */\n      0x00\n        /* \"@openzeppelin/contracts/utils/math/SafeMath.sol\":3627:3635  return 0 */\n      swap1\n      pop\n      jump(tag_227)\n        /* \"@openzeppelin/contracts/utils/math/SafeMath.sol\":3615:3635  if (a == 0) return 0 */\n    tag_228:\n        /* \"@openzeppelin/contracts/utils/math/SafeMath.sol\":3645:3654  uint256 c */\n      0x00\n        /* \"@openzeppelin/contracts/utils/math/SafeMath.sol\":3661:3662  b */\n      dup3\n        /* \"@openzeppelin/contracts/utils/math/SafeMath.sol\":3657:3658  a */\n      dup5\n        /* \"@openzeppelin/contracts/utils/math/SafeMath.sol\":3657:3662  a * b */\n      mul\n        /* \"@openzeppelin/contracts/utils/math/SafeMath.sol\":3645:3662  uint256 c = a * b */\n      swap1\n      pop\n        /* \"@openzeppelin/contracts/utils/math/SafeMath.sol\":3689:3690  b */\n      dup3\n        /* \"@openzeppelin/contracts/utils/math/SafeMath.sol\":3684:3685  a */\n      dup5\n        /* \"@openzeppelin/contracts/utils/math/SafeMath.sol\":3680:3681  c */\n      dup3\n        /* \"@openzeppelin/contracts/utils/math/SafeMath.sol\":3680:3685  c / a */\n      dup2\n      tag_229\n      jumpi\n      invalid\n    tag_229:\n      div\n        /* \"@openzeppelin/contracts/utils/math/SafeMath.sol\":3680:3690  c / a == b */\n      eq\n        /* \"@openzeppelin/contracts/utils/math/SafeMath.sol\":3672:3728  require(c / a == b, \"SafeMath: multiplication overflow\") */\n      tag_230\n      jumpi\n      mload(0x40)\n      0x08c379a000000000000000000000000000000000000000000000000000000000\n      dup2\n      mstore\n      0x04\n      add\n      dup1\n      dup1\n      0x20\n      add\n      dup3\n      dup2\n      sub\n      dup3\n      mstore\n      0x21\n      dup2\n      mstore\n      0x20\n      add\n      dup1\n      data_9113bb53c2876a3805b2c9242029423fc540a728243ce887ab24c82cf119fba3\n      0x21\n      swap2\n      codecopy\n      0x40\n      add\n      swap2\n      pop\n      pop\n      mload(0x40)\n      dup1\n      swap2\n      sub\n      swap1\n      revert\n    tag_230:\n        /* \"@openzeppelin/contracts/utils/math/SafeMath.sol\":3745:3746  c */\n      dup1\n        /* \"@openzeppelin/contracts/utils/math/SafeMath.sol\":3738:3746  return c */\n      swap2\n      pop\n      pop\n        /* \"@openzeppelin/contracts/utils/math/SafeMath.sol\":3538:3753  function mul(uint256 a, uint256 b) internal pure returns (uint256) {... */\n    tag_227:\n      swap3\n      swap2\n      pop\n      pop\n      jump\t// out\n        /* \"@openzeppelin/contracts/utils/math/SafeMath.sol\":4217:4367  function div(uint256 a, uint256 b) internal pure returns (uint256) {... */\n    tag_119:\n        /* \"@openzeppelin/contracts/utils/math/SafeMath.sol\":4275:4282  uint256 */\n      0x00\n        /* \"@openzeppelin/contracts/utils/math/SafeMath.sol\":4306:4307  0 */\n      dup1\n        /* \"@openzeppelin/contracts/utils/math/SafeMath.sol\":4302:4303  b */\n      dup3\n        /* \"@openzeppelin/contracts/utils/math/SafeMath.sol\":4302:4307  b > 0 */\n      gt\n        /* \"@openzeppelin/contracts/utils/math/SafeMath.sol\":4294:4338  require(b > 0, \"SafeMath: division by zero\") */\n      tag_232\n      jumpi\n      mload(0x40)\n      0x08c379a000000000000000000000000000000000000000000000000000000000\n      dup2\n      mstore\n      0x04\n      add\n      dup1\n      dup1\n      0x20\n      add\n      dup3\n      dup2\n      sub\n      dup3\n      mstore\n      0x1a\n      dup2\n      mstore\n      0x20\n      add\n      dup1\n      0x536166654d6174683a206469766973696f6e206279207a65726f000000000000\n      dup2\n      mstore\n      pop\n      0x20\n      add\n      swap2\n      pop\n      pop\n      mload(0x40)\n      dup1\n      swap2\n      sub\n      swap1\n      revert\n    tag_232:\n        /* \"@openzeppelin/contracts/utils/math/SafeMath.sol\":4359:4360  b */\n      dup2\n        /* \"@openzeppelin/contracts/utils/math/SafeMath.sol\":4355:4356  a */\n      dup4\n        /* \"@openzeppelin/contracts/utils/math/SafeMath.sol\":4355:4360  a / b */\n      dup2\n      tag_233\n      jumpi\n      invalid\n    tag_233:\n      div\n        /* \"@openzeppelin/contracts/utils/math/SafeMath.sol\":4348:4360  return a / b */\n      swap1\n      pop\n        /* \"@openzeppelin/contracts/utils/math/SafeMath.sol\":4217:4367  function div(uint256 a, uint256 b) internal pure returns (uint256) {... */\n      swap3\n      swap2\n      pop\n      pop\n      jump\t// out\n        /* \"contracts/distribution/TShareRewardPool.sol\":9961:10326  function safeTShareTransfer(address _to, uint256 _amount) internal {\r... */\n    tag_122:\n        /* \"contracts/distribution/TShareRewardPool.sol\":10039:10057  uint256 _tshareBal */\n      0x00\n        /* \"contracts/distribution/TShareRewardPool.sol\":10060:10066  tshare */\n      0x01\n      0x00\n      swap1\n      sload\n      swap1\n      0x0100\n      exp\n      swap1\n      div\n      0xffffffffffffffffffffffffffffffffffffffff\n      and\n        /* \"contracts/distribution/TShareRewardPool.sol\":10060:10076  tshare.balanceOf */\n      0xffffffffffffffffffffffffffffffffffffffff\n      and\n      0x70a08231\n        /* \"contracts/distribution/TShareRewardPool.sol\":10085:10089  this */\n      address\n        /* \"contracts/distribution/TShareRewardPool.sol\":10060:10091  tshare.balanceOf(address(this)) */\n      mload(0x40)\n      dup3\n      0xffffffff\n      and\n      0xe0\n      shl\n      dup2\n      mstore\n      0x04\n      add\n      dup1\n      dup3\n      0xffffffffffffffffffffffffffffffffffffffff\n      and\n      dup2\n      mstore\n      0x20\n      add\n      swap2\n      pop\n      pop\n      0x20\n      mload(0x40)\n      dup1\n      dup4\n      sub\n      dup2\n      dup7\n      dup1\n      extcodesize\n      iszero\n      dup1\n      iszero\n      tag_235\n      jumpi\n      0x00\n      dup1\n      revert\n    tag_235:\n      pop\n      gas\n      staticcall\n      iszero\n      dup1\n      iszero\n      tag_237\n      jumpi\n      returndatasize\n      0x00\n      dup1\n      returndatacopy\n      revert(0x00, returndatasize)\n    tag_237:\n      pop\n      pop\n      pop\n      pop\n      mload(0x40)\n      returndatasize\n      0x20\n      dup2\n      lt\n      iszero\n      tag_238\n      jumpi\n      0x00\n      dup1\n      revert\n    tag_238:\n      dup2\n      add\n      swap1\n      dup1\n      dup1\n      mload\n      swap1\n      0x20\n      add\n      swap1\n      swap3\n      swap2\n      swap1\n      pop\n      pop\n      pop\n        /* \"contracts/distribution/TShareRewardPool.sol\":10039:10091  uint256 _tshareBal = tshare.balanceOf(address(this)) */\n      swap1\n      pop\n        /* \"contracts/distribution/TShareRewardPool.sol\":10119:10120  0 */\n      0x00\n        /* \"contracts/distribution/TShareRewardPool.sol\":10106:10116  _tshareBal */\n      dup2\n        /* \"contracts/distribution/TShareRewardPool.sol\":10106:10120  _tshareBal > 0 */\n      gt\n        /* \"contracts/distribution/TShareRewardPool.sol\":10102:10319  if (_tshareBal > 0) {\r... */\n      iszero\n      tag_239\n      jumpi\n        /* \"contracts/distribution/TShareRewardPool.sol\":10151:10161  _tshareBal */\n      dup1\n        /* \"contracts/distribution/TShareRewardPool.sol\":10141:10148  _amount */\n      dup3\n        /* \"contracts/distribution/TShareRewardPool.sol\":10141:10161  _amount > _tshareBal */\n      gt\n        /* \"contracts/distribution/TShareRewardPool.sol\":10137:10308  if (_amount > _tshareBal) {\r... */\n      iszero\n      tag_240\n      jumpi\n        /* \"contracts/distribution/TShareRewardPool.sol\":10182:10218  tshare.safeTransfer(_to, _tshareBal) */\n      tag_241\n        /* \"contracts/distribution/TShareRewardPool.sol\":10202:10205  _to */\n      dup4\n        /* \"contracts/distribution/TShareRewardPool.sol\":10207:10217  _tshareBal */\n      dup3\n        /* \"contracts/distribution/TShareRewardPool.sol\":10182:10188  tshare */\n      0x01\n      0x00\n      swap1\n      sload\n      swap1\n      0x0100\n      exp\n      swap1\n      div\n      0xffffffffffffffffffffffffffffffffffffffff\n      and\n        /* \"contracts/distribution/TShareRewardPool.sol\":10182:10201  tshare.safeTransfer */\n      0xffffffffffffffffffffffffffffffffffffffff\n      and\n      tag_126\n      swap1\n        /* \"contracts/distribution/TShareRewardPool.sol\":10182:10218  tshare.safeTransfer(_to, _tshareBal) */\n      swap3\n      swap2\n      swap1\n      0xffffffff\n      and\n      jump\t// in\n    tag_241:\n        /* \"contracts/distribution/TShareRewardPool.sol\":10137:10308  if (_amount > _tshareBal) {\r... */\n      jump(tag_242)\n    tag_240:\n        /* \"contracts/distribution/TShareRewardPool.sol\":10259:10292  tshare.safeTransfer(_to, _amount) */\n      tag_243\n        /* \"contracts/distribution/TShareRewardPool.sol\":10279:10282  _to */\n      dup4\n        /* \"contracts/distribution/TShareRewardPool.sol\":10284:10291  _amount */\n      dup4\n        /* \"contracts/distribution/TShareRewardPool.sol\":10259:10265  tshare */\n      0x01\n      0x00\n      swap1\n      sload\n      swap1\n      0x0100\n      exp\n      swap1\n      div\n      0xffffffffffffffffffffffffffffffffffffffff\n      and\n        /* \"contracts/distribution/TShareRewardPool.sol\":10259:10278  tshare.safeTransfer */\n      0xffffffffffffffffffffffffffffffffffffffff\n      and\n      tag_126\n      swap1\n        /* \"contracts/distribution/TShareRewardPool.sol\":10259:10292  tshare.safeTransfer(_to, _amount) */\n      swap3\n      swap2\n      swap1\n      0xffffffff\n      and\n      jump\t// in\n    tag_243:\n        /* \"contracts/distribution/TShareRewardPool.sol\":10137:10308  if (_amount > _tshareBal) {\r... */\n    tag_242:\n        /* \"contracts/distribution/TShareRewardPool.sol\":10102:10319  if (_tshareBal > 0) {\r... */\n    tag_239:\n        /* \"contracts/distribution/TShareRewardPool.sol\":9961:10326  function safeTShareTransfer(address _to, uint256 _amount) internal {\r... */\n      pop\n      pop\n      pop\n      jump\t// out\n        /* \"@openzeppelin/contracts/token/ERC20/utils/SafeERC20.sol\":717:892  function safeTransfer(IERC20 token, address to, uint256 value) internal {... */\n    tag_126:\n        /* \"@openzeppelin/contracts/token/ERC20/utils/SafeERC20.sol\":799:885  _callOptionalReturn(token, abi.encodeWithSelector(token.transfer.selector, to, value)) */\n      tag_245\n        /* \"@openzeppelin/contracts/token/ERC20/utils/SafeERC20.sol\":819:824  token */\n      dup4\n        /* \"@openzeppelin/contracts/token/ERC20/utils/SafeERC20.sol\":849:872  token.transfer.selector */\n      shl(0xe0, 0xa9059cbb)\n        /* \"@openzeppelin/contracts/token/ERC20/utils/SafeERC20.sol\":874:876  to */\n      dup5\n        /* \"@openzeppelin/contracts/token/ERC20/utils/SafeERC20.sol\":878:883  value */\n      dup5\n        /* \"@openzeppelin/contracts/token/ERC20/utils/SafeERC20.sol\":826:884  abi.encodeWithSelector(token.transfer.selector, to, value) */\n      add(0x24, mload(0x40))\n      dup1\n      dup4\n      0xffffffffffffffffffffffffffffffffffffffff\n      and\n      dup2\n      mstore\n      0x20\n      add\n      dup3\n      dup2\n      mstore\n      0x20\n      add\n      swap3\n      pop\n      pop\n      pop\n      mload(0x40)\n      0x20\n      dup2\n      dup4\n      sub\n      sub\n      dup2\n      mstore\n      swap1\n      0x40\n      mstore\n      swap1\n      not(0xffffffffffffffffffffffffffffffffffffffffffffffffffffffff)\n      and\n      0x20\n      dup3\n      add\n      dup1\n      mload\n      0xffffffffffffffffffffffffffffffffffffffffffffffffffffffff\n      dup4\n      dup2\n      dup4\n      and\n      or\n      dup4\n      mstore\n      pop\n      pop\n      pop\n      pop\n        /* \"@openzeppelin/contracts/token/ERC20/utils/SafeERC20.sol\":799:818  _callOptionalReturn */\n      tag_246\n        /* \"@openzeppelin/contracts/token/ERC20/utils/SafeERC20.sol\":799:885  _callOptionalReturn(token, abi.encodeWithSelector(token.transfer.selector, to, value)) */\n      jump\t// in\n    tag_245:\n        /* \"@openzeppelin/contracts/token/ERC20/utils/SafeERC20.sol\":717:892  function safeTransfer(IERC20 token, address to, uint256 value) internal {... */\n      pop\n      pop\n      pop\n      jump\t// out\n        /* \"contracts/distribution/TShareRewardPool.sol\":2765:3027  function checkPoolDuplicate(IERC20 _token) internal view {\r... */\n    tag_172:\n        /* \"contracts/distribution/TShareRewardPool.sol\":2833:2847  uint256 length */\n      0x00\n        /* \"contracts/distribution/TShareRewardPool.sol\":2850:2858  poolInfo */\n      0x02\n        /* \"contracts/distribution/TShareRewardPool.sol\":2850:2865  poolInfo.length */\n      dup1\n      sload\n      swap1\n      pop\n        /* \"contracts/distribution/TShareRewardPool.sol\":2833:2865  uint256 length = poolInfo.length */\n      swap1\n      pop\n        /* \"contracts/distribution/TShareRewardPool.sol\":2881:2892  uint256 pid */\n      0x00\n        /* \"contracts/distribution/TShareRewardPool.sol\":2876:3020  for (uint256 pid = 0; pid < length; ++pid) {\r... */\n    tag_248:\n        /* \"contracts/distribution/TShareRewardPool.sol\":2904:2910  length */\n      dup2\n        /* \"contracts/distribution/TShareRewardPool.sol\":2898:2901  pid */\n      dup2\n        /* \"contracts/distribution/TShareRewardPool.sol\":2898:2910  pid < length */\n      lt\n        /* \"contracts/distribution/TShareRewardPool.sol\":2876:3020  for (uint256 pid = 0; pid < length; ++pid) {\r... */\n      iszero\n      tag_249\n      jumpi\n        /* \"contracts/distribution/TShareRewardPool.sol\":2965:2971  _token */\n      dup3\n        /* \"contracts/distribution/TShareRewardPool.sol\":2942:2971  poolInfo[pid].token != _token */\n      0xffffffffffffffffffffffffffffffffffffffff\n      and\n        /* \"contracts/distribution/TShareRewardPool.sol\":2942:2950  poolInfo */\n      0x02\n        /* \"contracts/distribution/TShareRewardPool.sol\":2951:2954  pid */\n      dup3\n        /* \"contracts/distribution/TShareRewardPool.sol\":2942:2955  poolInfo[pid] */\n      dup2\n      sload\n      dup2\n      lt\n      tag_251\n      jumpi\n      invalid\n    tag_251:\n      swap1\n      0x00\n      mstore\n      keccak256(0x00, 0x20)\n      swap1\n      0x05\n      mul\n      add\n        /* \"contracts/distribution/TShareRewardPool.sol\":2942:2961  poolInfo[pid].token */\n      0x00\n      add\n      0x00\n      swap1\n      sload\n      swap1\n      0x0100\n      exp\n      swap1\n      div\n      0xffffffffffffffffffffffffffffffffffffffff\n      and\n        /* \"contracts/distribution/TShareRewardPool.sol\":2942:2971  poolInfo[pid].token != _token */\n      0xffffffffffffffffffffffffffffffffffffffff\n      and\n      eq\n      iszero\n        /* \"contracts/distribution/TShareRewardPool.sol\":2934:3008  require(poolInfo[pid].token != _token, \"TShareRewardPool: existing pool?\") */\n      tag_253\n      jumpi\n      mload(0x40)\n      0x08c379a000000000000000000000000000000000000000000000000000000000\n      dup2\n      mstore\n      0x04\n      add\n      dup1\n      dup1\n      0x20\n      add\n      dup3\n      dup2\n      sub\n      dup3\n      mstore\n      0x20\n      dup2\n      mstore\n      0x20\n      add\n      dup1\n      0x545368617265526577617264506f6f6c3a206578697374696e6720706f6f6c3f\n      dup2\n      mstore\n      pop\n      0x20\n      add\n      swap2\n      pop\n      pop\n      mload(0x40)\n      dup1\n      swap2\n      sub\n      swap1\n      revert\n    tag_253:\n        /* \"contracts/distribution/TShareRewardPool.sol\":2912:2917  ++pid */\n      dup1\n      0x01\n      add\n      swap1\n      pop\n        /* \"contracts/distribution/TShareRewardPool.sol\":2876:3020  for (uint256 pid = 0; pid < length; ++pid) {\r... */\n      jump(tag_248)\n    tag_249:\n      pop\n        /* \"contracts/distribution/TShareRewardPool.sol\":2765:3027  function checkPoolDuplicate(IERC20 _token) internal view {\r... */\n      pop\n      pop\n      jump\t// out\n        /* \"@openzeppelin/contracts/token/ERC20/utils/SafeERC20.sol\":898:1101  function safeTransferFrom(IERC20 token, address from, address to, uint256 value) internal {... */\n    tag_219:\n        /* \"@openzeppelin/contracts/token/ERC20/utils/SafeERC20.sol\":998:1094  _callOptionalReturn(token, abi.encodeWithSelector(token.transferFrom.selector, from, to, value)) */\n      tag_255\n        /* \"@openzeppelin/contracts/token/ERC20/utils/SafeERC20.sol\":1018:1023  token */\n      dup5\n        /* \"@openzeppelin/contracts/token/ERC20/utils/SafeERC20.sol\":1048:1075  token.transferFrom.selector */\n      shl(0xe0, 0x23b872dd)\n        /* \"@openzeppelin/contracts/token/ERC20/utils/SafeERC20.sol\":1077:1081  from */\n      dup6\n        /* \"@openzeppelin/contracts/token/ERC20/utils/SafeERC20.sol\":1083:1085  to */\n      dup6\n        /* \"@openzeppelin/contracts/token/ERC20/utils/SafeERC20.sol\":1087:1092  value */\n      dup6\n        /* \"@openzeppelin/contracts/token/ERC20/utils/SafeERC20.sol\":1025:1093  abi.encodeWithSelector(token.transferFrom.selector, from, to, value) */\n      add(0x24, mload(0x40))\n      dup1\n      dup5\n      0xffffffffffffffffffffffffffffffffffffffff\n      and\n      dup2\n      mstore\n      0x20\n      add\n      dup4\n      0xffffffffffffffffffffffffffffffffffffffff\n      and\n      dup2\n      mstore\n      0x20\n      add\n      dup3\n      dup2\n      mstore\n      0x20\n      add\n      swap4\n      pop\n      pop\n      pop\n      pop\n      mload(0x40)\n      0x20\n      dup2\n      dup4\n      sub\n      sub\n      dup2\n      mstore\n      swap1\n      0x40\n      mstore\n      swap1\n      not(0xffffffffffffffffffffffffffffffffffffffffffffffffffffffff)\n      and\n      0x20\n      dup3\n      add\n      dup1\n      mload\n      0xffffffffffffffffffffffffffffffffffffffffffffffffffffffff\n      dup4\n      dup2\n      dup4\n      and\n      or\n      dup4\n      mstore\n      pop\n      pop\n      pop\n      pop\n        /* \"@openzeppelin/contracts/token/ERC20/utils/SafeERC20.sol\":998:1017  _callOptionalReturn */\n      tag_246\n        /* \"@openzeppelin/contracts/token/ERC20/utils/SafeERC20.sol\":998:1094  _callOptionalReturn(token, abi.encodeWithSelector(token.transferFrom.selector, from, to, value)) */\n      jump\t// in\n    tag_255:\n        /* \"@openzeppelin/contracts/token/ERC20/utils/SafeERC20.sol\":898:1101  function safeTransferFrom(IERC20 token, address from, address to, uint256 value) internal {... */\n      pop\n      pop\n      pop\n      pop\n      jump\t// out\n        /* \"@openzeppelin/contracts/token/ERC20/utils/SafeERC20.sol\":2980:3731  function _callOptionalReturn(IERC20 token, bytes memory data) private {... */\n    tag_246:\n        /* \"@openzeppelin/contracts/token/ERC20/utils/SafeERC20.sol\":3399:3422  bytes memory returndata */\n      0x60\n        /* \"@openzeppelin/contracts/token/ERC20/utils/SafeERC20.sol\":3425:3494  address(token).functionCall(data, \"SafeERC20: low-level call failed\") */\n      tag_257\n        /* \"@openzeppelin/contracts/token/ERC20/utils/SafeERC20.sol\":3453:3457  data */\n      dup3\n        /* \"@openzeppelin/contracts/token/ERC20/utils/SafeERC20.sol\":3425:3494  address(token).functionCall(data, \"SafeERC20: low-level call failed\") */\n      mload(0x40)\n      dup1\n      0x40\n      add\n      0x40\n      mstore\n      dup1\n      0x20\n      dup2\n      mstore\n      0x20\n      add\n      0x5361666545524332303a206c6f772d6c6576656c2063616c6c206661696c6564\n      dup2\n      mstore\n      pop\n        /* \"@openzeppelin/contracts/token/ERC20/utils/SafeERC20.sol\":3433:3438  token */\n      dup6\n        /* \"@openzeppelin/contracts/token/ERC20/utils/SafeERC20.sol\":3425:3452  address(token).functionCall */\n      0xffffffffffffffffffffffffffffffffffffffff\n      and\n      tag_258\n      swap1\n        /* \"@openzeppelin/contracts/token/ERC20/utils/SafeERC20.sol\":3425:3494  address(token).functionCall(data, \"SafeERC20: low-level call failed\") */\n      swap3\n      swap2\n      swap1\n      0xffffffff\n      and\n      jump\t// in\n    tag_257:\n        /* \"@openzeppelin/contracts/token/ERC20/utils/SafeERC20.sol\":3399:3494  bytes memory returndata = address(token).functionCall(data, \"SafeERC20: low-level call failed\") */\n      swap1\n      pop\n        /* \"@openzeppelin/contracts/token/ERC20/utils/SafeERC20.sol\":3528:3529  0 */\n      0x00\n        /* \"@openzeppelin/contracts/token/ERC20/utils/SafeERC20.sol\":3508:3518  returndata */\n      dup2\n        /* \"@openzeppelin/contracts/token/ERC20/utils/SafeERC20.sol\":3508:3525  returndata.length */\n      mload\n        /* \"@openzeppelin/contracts/token/ERC20/utils/SafeERC20.sol\":3508:3529  returndata.length > 0 */\n      gt\n        /* \"@openzeppelin/contracts/token/ERC20/utils/SafeERC20.sol\":3504:3725  if (returndata.length > 0) { // Return data is optional... */\n      iszero\n      tag_259\n      jumpi\n        /* \"@openzeppelin/contracts/token/ERC20/utils/SafeERC20.sol\":3648:3658  returndata */\n      dup1\n        /* \"@openzeppelin/contracts/token/ERC20/utils/SafeERC20.sol\":3637:3667  abi.decode(returndata, (bool)) */\n      dup1\n      0x20\n      add\n      swap1\n      mload\n      0x20\n      dup2\n      lt\n      iszero\n      tag_260\n      jumpi\n      0x00\n      dup1\n      revert\n    tag_260:\n      dup2\n      add\n      swap1\n      dup1\n      dup1\n      mload\n      swap1\n      0x20\n      add\n      swap1\n      swap3\n      swap2\n      swap1\n      pop\n      pop\n      pop\n        /* \"@openzeppelin/contracts/token/ERC20/utils/SafeERC20.sol\":3629:3714  require(abi.decode(returndata, (bool)), \"SafeERC20: ERC20 operation did not succeed\") */\n      tag_261\n      jumpi\n      mload(0x40)\n      0x08c379a000000000000000000000000000000000000000000000000000000000\n      dup2\n      mstore\n      0x04\n      add\n      dup1\n      dup1\n      0x20\n      add\n      dup3\n      dup2\n      sub\n      dup3\n      mstore\n      0x2a\n      dup2\n      mstore\n      0x20\n      add\n      dup1\n      data_e11ad79d1e4a7f2e5f376964cb99e8e8f7904e3fc16a109f7a7ecb9aa7956dcd\n      0x2a\n      swap2\n      codecopy\n      0x40\n      add\n      swap2\n      pop\n      pop\n      mload(0x40)\n      dup1\n      swap2\n      sub\n      swap1\n      revert\n    tag_261:\n        /* \"@openzeppelin/contracts/token/ERC20/utils/SafeERC20.sol\":3504:3725  if (returndata.length > 0) { // Return data is optional... */\n    tag_259:\n        /* \"@openzeppelin/contracts/token/ERC20/utils/SafeERC20.sol\":2980:3731  function _callOptionalReturn(IERC20 token, bytes memory data) private {... */\n      pop\n      pop\n      pop\n      jump\t// out\n        /* \"@openzeppelin/contracts/utils/Address.sol\":3470:3693  function functionCall(... */\n    tag_258:\n        /* \"@openzeppelin/contracts/utils/Address.sol\":3603:3615  bytes memory */\n      0x60\n        /* \"@openzeppelin/contracts/utils/Address.sol\":3634:3686  functionCallWithValue(target, data, 0, errorMessage) */\n      tag_263\n        /* \"@openzeppelin/contracts/utils/Address.sol\":3656:3662  target */\n      dup5\n        /* \"@openzeppelin/contracts/utils/Address.sol\":3664:3668  data */\n      dup5\n        /* \"@openzeppelin/contracts/utils/Address.sol\":3670:3671  0 */\n      0x00\n        /* \"@openzeppelin/contracts/utils/Address.sol\":3673:3685  errorMessage */\n      dup6\n        /* \"@openzeppelin/contracts/utils/Address.sol\":3634:3655  functionCallWithValue */\n      tag_264\n        /* \"@openzeppelin/contracts/utils/Address.sol\":3634:3686  functionCallWithValue(target, data, 0, errorMessage) */\n      jump\t// in\n    tag_263:\n        /* \"@openzeppelin/contracts/utils/Address.sol\":3627:3686  return functionCallWithValue(target, data, 0, errorMessage) */\n      swap1\n      pop\n        /* \"@openzeppelin/contracts/utils/Address.sol\":3470:3693  function functionCall(... */\n      swap4\n      swap3\n      pop\n      pop\n      pop\n      jump\t// out\n        /* \"@openzeppelin/contracts/utils/Address.sol\":4557:5056  function functionCallWithValue(... */\n    tag_264:\n        /* \"@openzeppelin/contracts/utils/Address.sol\":4722:4734  bytes memory */\n      0x60\n        /* \"@openzeppelin/contracts/utils/Address.sol\":4779:4784  value */\n      dup3\n        /* \"@openzeppelin/contracts/utils/Address.sol\":4754:4775  address(this).balance */\n      selfbalance\n        /* \"@openzeppelin/contracts/utils/Address.sol\":4754:4784  address(this).balance >= value */\n      lt\n      iszero\n        /* \"@openzeppelin/contracts/utils/Address.sol\":4746:4827  require(address(this).balance >= value, \"Address: insufficient balance for call\") */\n      tag_266\n      jumpi\n      mload(0x40)\n      0x08c379a000000000000000000000000000000000000000000000000000000000\n      dup2\n      mstore\n      0x04\n      add\n      dup1\n      dup1\n      0x20\n      add\n      dup3\n      dup2\n      sub\n      dup3\n      mstore\n      0x26\n      dup2\n      mstore\n      0x20\n      add\n      dup1\n      data_565f1a77334fc4792800921178c71e4521acffab18ff9e7885b49377ee80ab4c\n      0x26\n      swap2\n      codecopy\n      0x40\n      add\n      swap2\n      pop\n      pop\n      mload(0x40)\n      dup1\n      swap2\n      sub\n      swap1\n      revert\n    tag_266:\n        /* \"@openzeppelin/contracts/utils/Address.sol\":4845:4863  isContract(target) */\n      tag_267\n        /* \"@openzeppelin/contracts/utils/Address.sol\":4856:4862  target */\n      dup6\n        /* \"@openzeppelin/contracts/utils/Address.sol\":4845:4855  isContract */\n      tag_268\n        /* \"@openzeppelin/contracts/utils/Address.sol\":4845:4863  isContract(target) */\n      jump\t// in\n    tag_267:\n        /* \"@openzeppelin/contracts/utils/Address.sol\":4837:4897  require(isContract(target), \"Address: call to non-contract\") */\n      tag_269\n      jumpi\n      mload(0x40)\n      0x08c379a000000000000000000000000000000000000000000000000000000000\n      dup2\n      mstore\n      0x04\n      add\n      dup1\n      dup1\n      0x20\n      add\n      dup3\n      dup2\n      sub\n      dup3\n      mstore\n      0x1d\n      dup2\n      mstore\n      0x20\n      add\n      dup1\n      0x416464726573733a2063616c6c20746f206e6f6e2d636f6e7472616374000000\n      dup2\n      mstore\n      pop\n      0x20\n      add\n      swap2\n      pop\n      pop\n      mload(0x40)\n      dup1\n      swap2\n      sub\n      swap1\n      revert\n    tag_269:\n        /* \"@openzeppelin/contracts/utils/Address.sol\":4909:4921  bool success */\n      0x00\n        /* \"@openzeppelin/contracts/utils/Address.sol\":4923:4946  bytes memory returndata */\n      0x60\n        /* \"@openzeppelin/contracts/utils/Address.sol\":4950:4956  target */\n      dup7\n        /* \"@openzeppelin/contracts/utils/Address.sol\":4950:4961  target.call */\n      0xffffffffffffffffffffffffffffffffffffffff\n      and\n        /* \"@openzeppelin/contracts/utils/Address.sol\":4969:4974  value */\n      dup6\n        /* \"@openzeppelin/contracts/utils/Address.sol\":4976:4980  data */\n      dup8\n        /* \"@openzeppelin/contracts/utils/Address.sol\":4950:4981  target.call{value: value}(data) */\n      mload(0x40)\n      dup1\n      dup3\n      dup1\n      mload\n      swap1\n      0x20\n      add\n      swap1\n      dup1\n      dup4\n      dup4\n    tag_270:\n      0x20\n      dup4\n      lt\n      tag_272\n      jumpi\n      dup1\n      mload\n      dup3\n      mstore\n      0x20\n      dup3\n      add\n      swap2\n      pop\n      0x20\n      dup2\n      add\n      swap1\n      pop\n      0x20\n      dup4\n      sub\n      swap3\n      pop\n      jump(tag_270)\n    tag_272:\n      0x01\n      dup4\n      0x20\n      sub\n      0x0100\n      exp\n      sub\n      dup1\n      not\n      dup3\n      mload\n      and\n      dup2\n      dup5\n      mload\n      and\n      dup1\n      dup3\n      or\n      dup6\n      mstore\n      pop\n      pop\n      pop\n      pop\n      pop\n      pop\n      swap1\n      pop\n      add\n      swap2\n      pop\n      pop\n      0x00\n      mload(0x40)\n      dup1\n      dup4\n      sub\n      dup2\n      dup6\n      dup8\n      gas\n      call\n      swap3\n      pop\n      pop\n      pop\n      returndatasize\n      dup1\n      0x00\n      dup2\n      eq\n      tag_275\n      jumpi\n      mload(0x40)\n      swap2\n      pop\n      and(add(returndatasize, 0x3f), not(0x1f))\n      dup3\n      add\n      0x40\n      mstore\n      returndatasize\n      dup3\n      mstore\n      returndatasize\n      0x00\n      0x20\n      dup5\n      add\n      returndatacopy\n      jump(tag_274)\n    tag_275:\n      0x60\n      swap2\n      pop\n    tag_274:\n      pop\n        /* \"@openzeppelin/contracts/utils/Address.sol\":4908:4981  (bool success, bytes memory returndata) = target.call{value: value}(data) */\n      swap2\n      pop\n      swap2\n      pop\n        /* \"@openzeppelin/contracts/utils/Address.sol\":4998:5049  verifyCallResult(success, returndata, errorMessage) */\n      tag_276\n        /* \"@openzeppelin/contracts/utils/Address.sol\":5015:5022  success */\n      dup3\n        /* \"@openzeppelin/contracts/utils/Address.sol\":5024:5034  returndata */\n      dup3\n        /* \"@openzeppelin/contracts/utils/Address.sol\":5036:5048  errorMessage */\n      dup7\n        /* \"@openzeppelin/contracts/utils/Address.sol\":4998:5014  verifyCallResult */\n      tag_277\n        /* \"@openzeppelin/contracts/utils/Address.sol\":4998:5049  verifyCallResult(success, returndata, errorMessage) */\n      jump\t// in\n    tag_276:\n        /* \"@openzeppelin/contracts/utils/Address.sol\":4991:5049  return verifyCallResult(success, returndata, errorMessage) */\n      swap3\n      pop\n      pop\n      pop\n        /* \"@openzeppelin/contracts/utils/Address.sol\":4557:5056  function functionCallWithValue(... */\n      swap5\n      swap4\n      pop\n      pop\n      pop\n      pop\n      jump\t// out\n        /* \"@openzeppelin/contracts/utils/Address.sol\":727:1104  function isContract(address account) internal view returns (bool) {... */\n    tag_268:\n        /* \"@openzeppelin/contracts/utils/Address.sol\":787:791  bool */\n      0x00\n        /* \"@openzeppelin/contracts/utils/Address.sol\":990:1002  uint256 size */\n      dup1\n        /* \"@openzeppelin/contracts/utils/Address.sol\":1055:1062  account */\n      dup3\n        /* \"@openzeppelin/contracts/utils/Address.sol\":1043:1063  extcodesize(account) */\n      extcodesize\n        /* \"@openzeppelin/contracts/utils/Address.sol\":1035:1063  size := extcodesize(account) */\n      swap1\n      pop\n        /* \"@openzeppelin/contracts/utils/Address.sol\":1096:1097  0 */\n      0x00\n        /* \"@openzeppelin/contracts/utils/Address.sol\":1089:1093  size */\n      dup2\n        /* \"@openzeppelin/contracts/utils/Address.sol\":1089:1097  size > 0 */\n      gt\n        /* \"@openzeppelin/contracts/utils/Address.sol\":1082:1097  return size > 0 */\n      swap2\n      pop\n      pop\n        /* \"@openzeppelin/contracts/utils/Address.sol\":727:1104  function isContract(address account) internal view returns (bool) {... */\n      swap2\n      swap1\n      pop\n      jump\t// out\n        /* \"@openzeppelin/contracts/utils/Address.sol\":7170:7862  function verifyCallResult(... */\n    tag_277:\n        /* \"@openzeppelin/contracts/utils/Address.sol\":7316:7328  bytes memory */\n      0x60\n        /* \"@openzeppelin/contracts/utils/Address.sol\":7344:7351  success */\n      dup4\n        /* \"@openzeppelin/contracts/utils/Address.sol\":7340:7856  if (success) {... */\n      iszero\n      tag_280\n      jumpi\n        /* \"@openzeppelin/contracts/utils/Address.sol\":7374:7384  returndata */\n      dup3\n        /* \"@openzeppelin/contracts/utils/Address.sol\":7367:7384  return returndata */\n      swap1\n      pop\n      jump(tag_279)\n        /* \"@openzeppelin/contracts/utils/Address.sol\":7340:7856  if (success) {... */\n    tag_280:\n        /* \"@openzeppelin/contracts/utils/Address.sol\":7505:7506  0 */\n      0x00\n        /* \"@openzeppelin/contracts/utils/Address.sol\":7485:7495  returndata */\n      dup4\n        /* \"@openzeppelin/contracts/utils/Address.sol\":7485:7502  returndata.length */\n      mload\n        /* \"@openzeppelin/contracts/utils/Address.sol\":7485:7506  returndata.length > 0 */\n      gt\n        /* \"@openzeppelin/contracts/utils/Address.sol\":7481:7846  if (returndata.length > 0) {... */\n      iszero\n      tag_282\n      jumpi\n        /* \"@openzeppelin/contracts/utils/Address.sol\":7679:7689  returndata */\n      dup3\n        /* \"@openzeppelin/contracts/utils/Address.sol\":7673:7690  mload(returndata) */\n      mload\n        /* \"@openzeppelin/contracts/utils/Address.sol\":7739:7754  returndata_size */\n      dup1\n        /* \"@openzeppelin/contracts/utils/Address.sol\":7726:7736  returndata */\n      dup5\n        /* \"@openzeppelin/contracts/utils/Address.sol\":7722:7724  32 */\n      0x20\n        /* \"@openzeppelin/contracts/utils/Address.sol\":7718:7737  add(32, returndata) */\n      add\n        /* \"@openzeppelin/contracts/utils/Address.sol\":7711:7755  revert(add(32, returndata), returndata_size) */\n      revert\n        /* \"@openzeppelin/contracts/utils/Address.sol\":7628:7773  {... */\n    tag_282:\n        /* \"@openzeppelin/contracts/utils/Address.sol\":7818:7830  errorMessage */\n      dup2\n        /* \"@openzeppelin/contracts/utils/Address.sol\":7811:7831  revert(errorMessage) */\n      mload(0x40)\n      0x08c379a000000000000000000000000000000000000000000000000000000000\n      dup2\n      mstore\n      0x04\n      add\n      dup1\n      dup1\n      0x20\n      add\n      dup3\n      dup2\n      sub\n      dup3\n      mstore\n      dup4\n      dup2\n      dup2\n      mload\n      dup2\n      mstore\n      0x20\n      add\n      swap2\n      pop\n      dup1\n      mload\n      swap1\n      0x20\n      add\n      swap1\n      dup1\n      dup4\n      dup4\n      0x00\n    tag_284:\n      dup4\n      dup2\n      lt\n      iszero\n      tag_286\n      jumpi\n      dup1\n      dup3\n      add\n      mload\n      dup2\n      dup5\n      add\n      mstore\n      0x20\n      dup2\n      add\n      swap1\n      pop\n      jump(tag_284)\n    tag_286:\n      pop\n      pop\n      pop\n      pop\n      swap1\n      pop\n      swap1\n      dup2\n      add\n      swap1\n      0x1f\n      and\n      dup1\n      iszero\n      tag_287\n      jumpi\n      dup1\n      dup3\n      sub\n      dup1\n      mload\n      0x01\n      dup4\n      0x20\n      sub\n      0x0100\n      exp\n      sub\n      not\n      and\n      dup2\n      mstore\n      0x20\n      add\n      swap2\n      pop\n    tag_287:\n      pop\n      swap3\n      pop\n      pop\n      pop\n      mload(0x40)\n      dup1\n      swap2\n      sub\n      swap1\n      revert\n        /* \"@openzeppelin/contracts/utils/Address.sol\":7170:7862  function verifyCallResult(... */\n    tag_279:\n      swap4\n      swap3\n      pop\n      pop\n      pop\n      jump\t// out\n    stop\n    data_3c72df8ab4eb3adb53b2d5e3c0dcd6e55e8972bc8360589eb9459e56a713b10e 545368617265526577617264506f6f6c3a2063616c6c6572206973206e6f7420746865206f70657261746f72\n    data_565f1a77334fc4792800921178c71e4521acffab18ff9e7885b49377ee80ab4c 416464726573733a20696e73756666696369656e742062616c616e636520666f722063616c6c\n    data_9113bb53c2876a3805b2c9242029423fc540a728243ce887ab24c82cf119fba3 536166654d6174683a206d756c7469706c69636174696f6e206f766572666c6f77\n    data_e11ad79d1e4a7f2e5f376964cb99e8e8f7904e3fc16a109f7a7ecb9aa7956dcd 5361666545524332303a204552433230206f7065726174696f6e20646964206e6f742073756363656564\n\n    auxdata: 0xa2646970667358221220ff9c4a06eb94a341afdb8f1dd5a21b93e07440b5adbf7141ff9210c62d9a056364736f6c634300060c0033\n}\n",
				"bytecode": {
					"linkReferences": {},
					"object": "608060405260006004556606ab00d9a3bc006007556301e7cb0060085534801561002857600080fd5b506040516125ea3803806125ea8339818101604052604081101561004b57600080fd5b8101908080519060200190929190805190602001909291905050508042106100db576040517f08c379a00000000000000000000000000000000000000000000000000000000081526004018080602001828103825260048152602001807f6c6174650000000000000000000000000000000000000000000000000000000081525060200191505060405180910390fd5b600073ffffffffffffffffffffffffffffffffffffffff168273ffffffffffffffffffffffffffffffffffffffff16146101515781600160006101000a81548173ffffffffffffffffffffffffffffffffffffffff021916908373ffffffffffffffffffffffffffffffffffffffff1602179055505b8060058190555060085460055401600681905550336000806101000a81548173ffffffffffffffffffffffffffffffffffffffff021916908373ffffffffffffffffffffffffffffffffffffffff1602179055505050612434806101b66000396000f3fe608060405234801561001057600080fd5b50600436106101375760003560e01c80635f96dc11116100b857806396805e541161007c57806396805e54146104755780639e63d261146104d9578063b3ab15fb146104f7578063cf4b55cb1461053b578063e2bbb1581461059d578063ee6822a7146105d557610137565b80635f96dc11146103a8578063630b5ba1146103c65780636e271dd5146103d057806393f1a40b146103ee578063943f013d1461045757610137565b8063441a3e70116100ff578063441a3e701461027257806351eb05a6146102aa5780635312ea8e146102d857806354575af414610306578063570ca7351461037457610137565b806309cf60911461013c5780631526fe271461015a57806317caf6f1146101d05780631ab06ee5146101ee578063231f0c6a14610226575b600080fd5b610144610609565b6040518082815260200191505060405180910390f35b6101866004803603602081101561017057600080fd5b8101908080359060200190929190505050610617565b604051808673ffffffffffffffffffffffffffffffffffffffff16815260200185815260200184815260200183815260200182151581526020019550505050505060405180910390f35b6101d8610687565b6040518082815260200191505060405180910390f35b6102246004803603604081101561020457600080fd5b81019080803590602001909291908035906020019092919050505061068d565b005b61025c6004803603604081101561023c57600080fd5b8101908080359060200190929190803590602001909291905050506107af565b6040518082815260200191505060405180910390f35b6102a86004803603604081101561028857600080fd5b8101908080359060200190929190803590602001909291905050506108c2565b005b6102d6600480360360208110156102c057600080fd5b8101908080359060200190929190505050610b7a565b005b610304600480360360208110156102ee57600080fd5b8101908080359060200190929190505050610d89565b005b6103726004803603606081101561031c57600080fd5b81019080803573ffffffffffffffffffffffffffffffffffffffff16906020019092919080359060200190929190803573ffffffffffffffffffffffffffffffffffffffff169060200190929190505050610ebd565b005b61037c61116d565b604051808273ffffffffffffffffffffffffffffffffffffffff16815260200191505060405180910390f35b6103b0611191565b6040518082815260200191505060405180910390f35b6103ce611197565b005b6103d86111c4565b6040518082815260200191505060405180910390f35b61043a6004803603604081101561040457600080fd5b8101908080359060200190929190803573ffffffffffffffffffffffffffffffffffffffff1690602001909291905050506111ca565b604051808381526020018281526020019250505060405180910390f35b61045f6111fb565b6040518082815260200191505060405180910390f35b6104d76004803603608081101561048b57600080fd5b8101908080359060200190929190803573ffffffffffffffffffffffffffffffffffffffff16906020019092919080351515906020019092919080359060200190929190505050611201565b005b6104e1611438565b6040518082815260200191505060405180910390f35b6105396004803603602081101561050d57600080fd5b81019080803573ffffffffffffffffffffffffffffffffffffffff16906020019092919050505061143e565b005b6105876004803603604081101561055157600080fd5b8101908080359060200190929190803573ffffffffffffffffffffffffffffffffffffffff169060200190929190505050611525565b6040518082815260200191505060405180910390f35b6105d3600480360360408110156105b357600080fd5b81019080803590602001909291908035906020019092919050505061175d565b005b6105dd6119ab565b604051808273ffffffffffffffffffffffffffffffffffffffff16815260200191505060405180910390f35b690cb49b44ba602d80000081565b6002818154811061062457fe5b90600052602060002090600502016000915090508060000160009054906101000a900473ffffffffffffffffffffffffffffffffffffffff16908060010154908060020154908060030154908060040160009054906101000a900460ff16905085565b60045481565b3373ffffffffffffffffffffffffffffffffffffffff1660008054906101000a900473ffffffffffffffffffffffffffffffffffffffff1673ffffffffffffffffffffffffffffffffffffffff1614610731576040517f08c379a000000000000000000000000000000000000000000000000000000000815260040180806020018281038252602c815260200180612362602c913960400191505060405180910390fd5b610739611197565b60006002838154811061074857fe5b906000526020600020906005020190508060040160009054906101000a900460ff16156107a15761079a8261078c83600101546004546119d190919063ffffffff16565b611a5490919063ffffffff16565b6004819055505b818160010181905550505050565b60008183106107c157600090506108bc565b60065482106108475760065483106107dc57600090506108bc565b6005548311610817576108106007546108026005546006546119d190919063ffffffff16565b611adc90919063ffffffff16565b90506108bc565b610840600754610832856006546119d190919063ffffffff16565b611adc90919063ffffffff16565b90506108bc565b600554821161085957600090506108bc565b60055483116108925761088b60075461087d600554856119d190919063ffffffff16565b611adc90919063ffffffff16565b90506108bc565b6108b96007546108ab85856119d190919063ffffffff16565b611adc90919063ffffffff16565b90505b92915050565b60003390506000600284815481106108d657fe5b9060005260206000209060050201905060006003600086815260200190815260200160002060008473ffffffffffffffffffffffffffffffffffffffff1673ffffffffffffffffffffffffffffffffffffffff168152602001908152602001600020905083816000015410156109b4576040517f08c379a00000000000000000000000000000000000000000000000000000000081526004018080602001828103825260128152602001807f77697468647261773a206e6f7420676f6f64000000000000000000000000000081525060200191505060405180910390fd5b6109bd85610b7a565b6000610a0a82600101546109fc670de0b6b3a76400006109ee87600301548760000154611adc90919063ffffffff16565b611b6290919063ffffffff16565b6119d190919063ffffffff16565b90506000811115610a6e57610a1f8482611beb565b8373ffffffffffffffffffffffffffffffffffffffff167fe2403640ba68fed3a2f88b7557551d1993f84b99bb10ff833f0cf8db0c5e0486826040518082815260200191505060405180910390a25b6000851115610ae657610a8e8583600001546119d190919063ffffffff16565b8260000181905550610ae584868560000160009054906101000a900473ffffffffffffffffffffffffffffffffffffffff1673ffffffffffffffffffffffffffffffffffffffff16611d6a9092919063ffffffff16565b5b610b1b670de0b6b3a7640000610b0d85600301548560000154611adc90919063ffffffff16565b611b6290919063ffffffff16565b8260010181905550858473ffffffffffffffffffffffffffffffffffffffff167ff279e6a1f5e320cca91135676d9cb6e44ca8a08c0b88342bcdb1144f6511b568876040518082815260200191505060405180910390a3505050505050565b600060028281548110610b8957fe5b9060005260206000209060050201905080600201544211610baa5750610d86565b60008160000160009054906101000a900473ffffffffffffffffffffffffffffffffffffffff1673ffffffffffffffffffffffffffffffffffffffff166370a08231306040518263ffffffff1660e01b8152600401808273ffffffffffffffffffffffffffffffffffffffff16815260200191505060206040518083038186803b158015610c3757600080fd5b505afa158015610c4b573d6000803e3d6000fd5b505050506040513d6020811015610c6157600080fd5b810190808051906020019092919050505090506000811415610c8d574282600201819055505050610d86565b8160040160009054906101000a900460ff16610ce05760018260040160006101000a81548160ff021916908315150217905550610cd98260010154600454611a5490919063ffffffff16565b6004819055505b60006004541115610d7a576000610cfb8360020154426107af565b90506000610d2a600454610d1c866001015485611adc90919063ffffffff16565b611b6290919063ffffffff16565b9050610d6f610d5c84610d4e670de0b6b3a764000085611adc90919063ffffffff16565b611b6290919063ffffffff16565b8560030154611a5490919063ffffffff16565b846003018190555050505b42826002018190555050505b50565b600060028281548110610d9857fe5b9060005260206000209060050201905060006003600084815260200190815260200160002060003373ffffffffffffffffffffffffffffffffffffffff1673ffffffffffffffffffffffffffffffffffffffff16815260200190815260200160002090506000816000015490506000826000018190555060008260010181905550610e6833828560000160009054906101000a900473ffffffffffffffffffffffffffffffffffffffff1673ffffffffffffffffffffffffffffffffffffffff16611d6a9092919063ffffffff16565b833373ffffffffffffffffffffffffffffffffffffffff167fbb757047c2b5f3974fe26b7c10f732e7bce710b0952a71082702781e62ae0595836040518082815260200191505060405180910390a350505050565b3373ffffffffffffffffffffffffffffffffffffffff1660008054906101000a900473ffffffffffffffffffffffffffffffffffffffff1673ffffffffffffffffffffffffffffffffffffffff1614610f61576040517f08c379a000000000000000000000000000000000000000000000000000000000815260040180806020018281038252602c815260200180612362602c913960400191505060405180910390fd5b6276a7006006540142101561113d57600160009054906101000a900473ffffffffffffffffffffffffffffffffffffffff1673ffffffffffffffffffffffffffffffffffffffff168373ffffffffffffffffffffffffffffffffffffffff161415611034576040517f08c379a00000000000000000000000000000000000000000000000000000000081526004018080602001828103825260068152602001807f747368617265000000000000000000000000000000000000000000000000000081525060200191505060405180910390fd5b6000600280549050905060005b8181101561113a5760006002828154811061105857fe5b906000526020600020906005020190508060000160009054906101000a900473ffffffffffffffffffffffffffffffffffffffff1673ffffffffffffffffffffffffffffffffffffffff168673ffffffffffffffffffffffffffffffffffffffff16141561112e576040517f08c379a000000000000000000000000000000000000000000000000000000000815260040180806020018281038252600a8152602001807f706f6f6c2e746f6b656e0000000000000000000000000000000000000000000081525060200191505060405180910390fd5b50806001019050611041565b50505b61116881838573ffffffffffffffffffffffffffffffffffffffff16611d6a9092919063ffffffff16565b505050565b60008054906101000a900473ffffffffffffffffffffffffffffffffffffffff1681565b60055481565b6000600280549050905060005b818110156111c0576111b581610b7a565b8060010190506111a4565b5050565b60065481565b6003602052816000526040600020602052806000526040600020600091509150508060000154908060010154905082565b60085481565b3373ffffffffffffffffffffffffffffffffffffffff1660008054906101000a900473ffffffffffffffffffffffffffffffffffffffff1673ffffffffffffffffffffffffffffffffffffffff16146112a5576040517f08c379a000000000000000000000000000000000000000000000000000000000815260040180806020018281038252602c815260200180612362602c913960400191505060405180910390fd5b6112ae83611e0c565b81156112bd576112bc611197565b5b6005544210156112f05760008114156112da5760055490506112eb565b6005548110156112ea5760055490505b5b611308565b60008114806112fe57504281105b15611307574290505b5b60006005548211158061131b5750428211155b905060026040518060a001604052808673ffffffffffffffffffffffffffffffffffffffff16815260200187815260200184815260200160008152602001831515815250908060018154018082558091505060019003906000526020600020906005020160009091909190915060008201518160000160006101000a81548173ffffffffffffffffffffffffffffffffffffffff021916908373ffffffffffffffffffffffffffffffffffffffff16021790555060208201518160010155604082015181600201556060820151816003015560808201518160040160006101000a81548160ff021916908315150217905550505080156114315761142a85600454611a5490919063ffffffff16565b6004819055505b5050505050565b60075481565b3373ffffffffffffffffffffffffffffffffffffffff1660008054906101000a900473ffffffffffffffffffffffffffffffffffffffff1673ffffffffffffffffffffffffffffffffffffffff16146114e2576040517f08c379a000000000000000000000000000000000000000000000000000000000815260040180806020018281038252602c815260200180612362602c913960400191505060405180910390fd5b806000806101000a81548173ffffffffffffffffffffffffffffffffffffffff021916908373ffffffffffffffffffffffffffffffffffffffff16021790555050565b6000806002848154811061153557fe5b9060005260206000209060050201905060006003600086815260200190815260200160002060008573ffffffffffffffffffffffffffffffffffffffff1673ffffffffffffffffffffffffffffffffffffffff168152602001908152602001600020905060008260030154905060008360000160009054906101000a900473ffffffffffffffffffffffffffffffffffffffff1673ffffffffffffffffffffffffffffffffffffffff166370a08231306040518263ffffffff1660e01b8152600401808273ffffffffffffffffffffffffffffffffffffffff16815260200191505060206040518083038186803b15801561162f57600080fd5b505afa158015611643573d6000803e3d6000fd5b505050506040513d602081101561165957600080fd5b81019080805190602001909291905050509050836002015442118015611680575060008114155b1561170a5760006116958560020154426107af565b905060006116c46004546116b6886001015485611adc90919063ffffffff16565b611b6290919063ffffffff16565b90506117056116f6846116e8670de0b6b3a764000085611adc90919063ffffffff16565b611b6290919063ffffffff16565b85611a5490919063ffffffff16565b935050505b6117518360010154611743670de0b6b3a7640000611735868860000154611adc90919063ffffffff16565b611b6290919063ffffffff16565b6119d190919063ffffffff16565b94505050505092915050565b600033905060006002848154811061177157fe5b9060005260206000209060050201905060006003600086815260200190815260200160002060008473ffffffffffffffffffffffffffffffffffffffff1673ffffffffffffffffffffffffffffffffffffffff16815260200190815260200160002090506117de85610b7a565b60008160000154111561189e576000611838826001015461182a670de0b6b3a764000061181c87600301548760000154611adc90919063ffffffff16565b611b6290919063ffffffff16565b6119d190919063ffffffff16565b9050600081111561189c5761184d8482611beb565b8373ffffffffffffffffffffffffffffffffffffffff167fe2403640ba68fed3a2f88b7557551d1993f84b99bb10ff833f0cf8db0c5e0486826040518082815260200191505060405180910390a25b505b6000841115611918576118f88330868560000160009054906101000a900473ffffffffffffffffffffffffffffffffffffffff1673ffffffffffffffffffffffffffffffffffffffff16611f11909392919063ffffffff16565b61190f848260000154611a5490919063ffffffff16565b81600001819055505b61194d670de0b6b3a764000061193f84600301548460000154611adc90919063ffffffff16565b611b6290919063ffffffff16565b8160010181905550848373ffffffffffffffffffffffffffffffffffffffff167f90890809c654f11d6e72a28fa60149770a0d11ec6c92319d6ceb2bb0a4ea1a15866040518082815260200191505060405180910390a35050505050565b600160009054906101000a900473ffffffffffffffffffffffffffffffffffffffff1681565b600082821115611a49576040517f08c379a000000000000000000000000000000000000000000000000000000000815260040180806020018281038252601e8152602001807f536166654d6174683a207375627472616374696f6e206f766572666c6f77000081525060200191505060405180910390fd5b818303905092915050565b600080828401905083811015611ad2576040517f08c379a000000000000000000000000000000000000000000000000000000000815260040180806020018281038252601b8152602001807f536166654d6174683a206164646974696f6e206f766572666c6f77000000000081525060200191505060405180910390fd5b8091505092915050565b600080831415611aef5760009050611b5c565b6000828402905082848281611b0057fe5b0414611b57576040517f08c379a00000000000000000000000000000000000000000000000000000000081526004018080602001828103825260218152602001806123b46021913960400191505060405180910390fd5b809150505b92915050565b6000808211611bd9576040517f08c379a000000000000000000000000000000000000000000000000000000000815260040180806020018281038252601a8152602001807f536166654d6174683a206469766973696f6e206279207a65726f00000000000081525060200191505060405180910390fd5b818381611be257fe5b04905092915050565b6000600160009054906101000a900473ffffffffffffffffffffffffffffffffffffffff1673ffffffffffffffffffffffffffffffffffffffff166370a08231306040518263ffffffff1660e01b8152600401808273ffffffffffffffffffffffffffffffffffffffff16815260200191505060206040518083038186803b158015611c7657600080fd5b505afa158015611c8a573d6000803e3d6000fd5b505050506040513d6020811015611ca057600080fd5b810190808051906020019092919050505090506000811115611d655780821115611d1657611d118382600160009054906101000a900473ffffffffffffffffffffffffffffffffffffffff1673ffffffffffffffffffffffffffffffffffffffff16611d6a9092919063ffffffff16565b611d64565b611d638383600160009054906101000a900473ffffffffffffffffffffffffffffffffffffffff1673ffffffffffffffffffffffffffffffffffffffff16611d6a9092919063ffffffff16565b5b5b505050565b611e078363a9059cbb60e01b8484604051602401808373ffffffffffffffffffffffffffffffffffffffff16815260200182815260200192505050604051602081830303815290604052907bffffffffffffffffffffffffffffffffffffffffffffffffffffffff19166020820180517bffffffffffffffffffffffffffffffffffffffffffffffffffffffff8381831617835250505050611fd2565b505050565b6000600280549050905060005b81811015611f0c578273ffffffffffffffffffffffffffffffffffffffff1660028281548110611e4557fe5b906000526020600020906005020160000160009054906101000a900473ffffffffffffffffffffffffffffffffffffffff1673ffffffffffffffffffffffffffffffffffffffff161415611f01576040517f08c379a00000000000000000000000000000000000000000000000000000000081526004018080602001828103825260208152602001807f545368617265526577617264506f6f6c3a206578697374696e6720706f6f6c3f81525060200191505060405180910390fd5b806001019050611e19565b505050565b611fcc846323b872dd60e01b858585604051602401808473ffffffffffffffffffffffffffffffffffffffff1681526020018373ffffffffffffffffffffffffffffffffffffffff1681526020018281526020019350505050604051602081830303815290604052907bffffffffffffffffffffffffffffffffffffffffffffffffffffffff19166020820180517bffffffffffffffffffffffffffffffffffffffffffffffffffffffff8381831617835250505050611fd2565b50505050565b6060612034826040518060400160405280602081526020017f5361666545524332303a206c6f772d6c6576656c2063616c6c206661696c65648152508573ffffffffffffffffffffffffffffffffffffffff166120c19092919063ffffffff16565b90506000815111156120bc5780806020019051602081101561205557600080fd5b81019080805190602001909291905050506120bb576040517f08c379a000000000000000000000000000000000000000000000000000000000815260040180806020018281038252602a8152602001806123d5602a913960400191505060405180910390fd5b5b505050565b60606120d084846000856120d9565b90509392505050565b606082471015612134576040517f08c379a000000000000000000000000000000000000000000000000000000000815260040180806020018281038252602681526020018061238e6026913960400191505060405180910390fd5b61213d85612282565b6121af576040517f08c379a000000000000000000000000000000000000000000000000000000000815260040180806020018281038252601d8152602001807f416464726573733a2063616c6c20746f206e6f6e2d636f6e747261637400000081525060200191505060405180910390fd5b600060608673ffffffffffffffffffffffffffffffffffffffff1685876040518082805190602001908083835b602083106121ff57805182526020820191506020810190506020830392506121dc565b6001836020036101000a03801982511681845116808217855250505050505090500191505060006040518083038185875af1925050503d8060008114612261576040519150601f19603f3d011682016040523d82523d6000602084013e612266565b606091505b5091509150612276828286612295565b92505050949350505050565b600080823b905060008111915050919050565b606083156122a55782905061235a565b6000835111156122b85782518084602001fd5b816040517f08c379a00000000000000000000000000000000000000000000000000000000081526004018080602001828103825283818151815260200191508051906020019080838360005b8381101561231f578082015181840152602081019050612304565b50505050905090810190601f16801561234c5780820380516001836020036101000a031916815260200191505b509250505060405180910390fd5b939250505056fe545368617265526577617264506f6f6c3a2063616c6c6572206973206e6f7420746865206f70657261746f72416464726573733a20696e73756666696369656e742062616c616e636520666f722063616c6c536166654d6174683a206d756c7469706c69636174696f6e206f766572666c6f775361666545524332303a204552433230206f7065726174696f6e20646964206e6f742073756363656564a2646970667358221220ff9c4a06eb94a341afdb8f1dd5a21b93e07440b5adbf7141ff9210c62d9a056364736f6c634300060c0033",
					"opcodes": "PUSH1 0x80 PUSH1 0x40 MSTORE PUSH1 0x0 PUSH1 0x4 SSTORE PUSH7 0x6AB00D9A3BC00 PUSH1 0x7 SSTORE PUSH4 0x1E7CB00 PUSH1 0x8 SSTORE CALLVALUE DUP1 ISZERO PUSH2 0x28 JUMPI PUSH1 0x0 DUP1 REVERT JUMPDEST POP PUSH1 0x40 MLOAD PUSH2 0x25EA CODESIZE SUB DUP1 PUSH2 0x25EA DUP4 CODECOPY DUP2 DUP2 ADD PUSH1 0x40 MSTORE PUSH1 0x40 DUP2 LT ISZERO PUSH2 0x4B JUMPI PUSH1 0x0 DUP1 REVERT JUMPDEST DUP2 ADD SWAP1 DUP1 DUP1 MLOAD SWAP1 PUSH1 0x20 ADD SWAP1 SWAP3 SWAP2 SWAP1 DUP1 MLOAD SWAP1 PUSH1 0x20 ADD SWAP1 SWAP3 SWAP2 SWAP1 POP POP POP DUP1 TIMESTAMP LT PUSH2 0xDB JUMPI PUSH1 0x40 MLOAD PUSH32 0x8C379A000000000000000000000000000000000000000000000000000000000 DUP2 MSTORE PUSH1 0x4 ADD DUP1 DUP1 PUSH1 0x20 ADD DUP3 DUP2 SUB DUP3 MSTORE PUSH1 0x4 DUP2 MSTORE PUSH1 0x20 ADD DUP1 PUSH32 0x6C61746500000000000000000000000000000000000000000000000000000000 DUP2 MSTORE POP PUSH1 0x20 ADD SWAP2 POP POP PUSH1 0x40 MLOAD DUP1 SWAP2 SUB SWAP1 REVERT JUMPDEST PUSH1 0x0 PUSH20 0xFFFFFFFFFFFFFFFFFFFFFFFFFFFFFFFFFFFFFFFF AND DUP3 PUSH20 0xFFFFFFFFFFFFFFFFFFFFFFFFFFFFFFFFFFFFFFFF AND EQ PUSH2 0x151 JUMPI DUP2 PUSH1 0x1 PUSH1 0x0 PUSH2 0x100 EXP DUP2 SLOAD DUP2 PUSH20 0xFFFFFFFFFFFFFFFFFFFFFFFFFFFFFFFFFFFFFFFF MUL NOT AND SWAP1 DUP4 PUSH20 0xFFFFFFFFFFFFFFFFFFFFFFFFFFFFFFFFFFFFFFFF AND MUL OR SWAP1 SSTORE POP JUMPDEST DUP1 PUSH1 0x5 DUP2 SWAP1 SSTORE POP PUSH1 0x8 SLOAD PUSH1 0x5 SLOAD ADD PUSH1 0x6 DUP2 SWAP1 SSTORE POP CALLER PUSH1 0x0 DUP1 PUSH2 0x100 EXP DUP2 SLOAD DUP2 PUSH20 0xFFFFFFFFFFFFFFFFFFFFFFFFFFFFFFFFFFFFFFFF MUL NOT AND SWAP1 DUP4 PUSH20 0xFFFFFFFFFFFFFFFFFFFFFFFFFFFFFFFFFFFFFFFF AND MUL OR SWAP1 SSTORE POP POP POP PUSH2 0x2434 DUP1 PUSH2 0x1B6 PUSH1 0x0 CODECOPY PUSH1 0x0 RETURN INVALID PUSH1 0x80 PUSH1 0x40 MSTORE CALLVALUE DUP1 ISZERO PUSH2 0x10 JUMPI PUSH1 0x0 DUP1 REVERT JUMPDEST POP PUSH1 0x4 CALLDATASIZE LT PUSH2 0x137 JUMPI PUSH1 0x0 CALLDATALOAD PUSH1 0xE0 SHR DUP1 PUSH4 0x5F96DC11 GT PUSH2 0xB8 JUMPI DUP1 PUSH4 0x96805E54 GT PUSH2 0x7C JUMPI DUP1 PUSH4 0x96805E54 EQ PUSH2 0x475 JUMPI DUP1 PUSH4 0x9E63D261 EQ PUSH2 0x4D9 JUMPI DUP1 PUSH4 0xB3AB15FB EQ PUSH2 0x4F7 JUMPI DUP1 PUSH4 0xCF4B55CB EQ PUSH2 0x53B JUMPI DUP1 PUSH4 0xE2BBB158 EQ PUSH2 0x59D JUMPI DUP1 PUSH4 0xEE6822A7 EQ PUSH2 0x5D5 JUMPI PUSH2 0x137 JUMP JUMPDEST DUP1 PUSH4 0x5F96DC11 EQ PUSH2 0x3A8 JUMPI DUP1 PUSH4 0x630B5BA1 EQ PUSH2 0x3C6 JUMPI DUP1 PUSH4 0x6E271DD5 EQ PUSH2 0x3D0 JUMPI DUP1 PUSH4 0x93F1A40B EQ PUSH2 0x3EE JUMPI DUP1 PUSH4 0x943F013D EQ PUSH2 0x457 JUMPI PUSH2 0x137 JUMP JUMPDEST DUP1 PUSH4 0x441A3E70 GT PUSH2 0xFF JUMPI DUP1 PUSH4 0x441A3E70 EQ PUSH2 0x272 JUMPI DUP1 PUSH4 0x51EB05A6 EQ PUSH2 0x2AA JUMPI DUP1 PUSH4 0x5312EA8E EQ PUSH2 0x2D8 JUMPI DUP1 PUSH4 0x54575AF4 EQ PUSH2 0x306 JUMPI DUP1 PUSH4 0x570CA735 EQ PUSH2 0x374 JUMPI PUSH2 0x137 JUMP JUMPDEST DUP1 PUSH4 0x9CF6091 EQ PUSH2 0x13C JUMPI DUP1 PUSH4 0x1526FE27 EQ PUSH2 0x15A JUMPI DUP1 PUSH4 0x17CAF6F1 EQ PUSH2 0x1D0 JUMPI DUP1 PUSH4 0x1AB06EE5 EQ PUSH2 0x1EE JUMPI DUP1 PUSH4 0x231F0C6A EQ PUSH2 0x226 JUMPI JUMPDEST PUSH1 0x0 DUP1 REVERT JUMPDEST PUSH2 0x144 PUSH2 0x609 JUMP JUMPDEST PUSH1 0x40 MLOAD DUP1 DUP3 DUP2 MSTORE PUSH1 0x20 ADD SWAP2 POP POP PUSH1 0x40 MLOAD DUP1 SWAP2 SUB SWAP1 RETURN JUMPDEST PUSH2 0x186 PUSH1 0x4 DUP1 CALLDATASIZE SUB PUSH1 0x20 DUP2 LT ISZERO PUSH2 0x170 JUMPI PUSH1 0x0 DUP1 REVERT JUMPDEST DUP2 ADD SWAP1 DUP1 DUP1 CALLDATALOAD SWAP1 PUSH1 0x20 ADD SWAP1 SWAP3 SWAP2 SWAP1 POP POP POP PUSH2 0x617 JUMP JUMPDEST PUSH1 0x40 MLOAD DUP1 DUP7 PUSH20 0xFFFFFFFFFFFFFFFFFFFFFFFFFFFFFFFFFFFFFFFF AND DUP2 MSTORE PUSH1 0x20 ADD DUP6 DUP2 MSTORE PUSH1 0x20 ADD DUP5 DUP2 MSTORE PUSH1 0x20 ADD DUP4 DUP2 MSTORE PUSH1 0x20 ADD DUP3 ISZERO ISZERO DUP2 MSTORE PUSH1 0x20 ADD SWAP6 POP POP POP POP POP POP PUSH1 0x40 MLOAD DUP1 SWAP2 SUB SWAP1 RETURN JUMPDEST PUSH2 0x1D8 PUSH2 0x687 JUMP JUMPDEST PUSH1 0x40 MLOAD DUP1 DUP3 DUP2 MSTORE PUSH1 0x20 ADD SWAP2 POP POP PUSH1 0x40 MLOAD DUP1 SWAP2 SUB SWAP1 RETURN JUMPDEST PUSH2 0x224 PUSH1 0x4 DUP1 CALLDATASIZE SUB PUSH1 0x40 DUP2 LT ISZERO PUSH2 0x204 JUMPI PUSH1 0x0 DUP1 REVERT JUMPDEST DUP2 ADD SWAP1 DUP1 DUP1 CALLDATALOAD SWAP1 PUSH1 0x20 ADD SWAP1 SWAP3 SWAP2 SWAP1 DUP1 CALLDATALOAD SWAP1 PUSH1 0x20 ADD SWAP1 SWAP3 SWAP2 SWAP1 POP POP POP PUSH2 0x68D JUMP JUMPDEST STOP JUMPDEST PUSH2 0x25C PUSH1 0x4 DUP1 CALLDATASIZE SUB PUSH1 0x40 DUP2 LT ISZERO PUSH2 0x23C JUMPI PUSH1 0x0 DUP1 REVERT JUMPDEST DUP2 ADD SWAP1 DUP1 DUP1 CALLDATALOAD SWAP1 PUSH1 0x20 ADD SWAP1 SWAP3 SWAP2 SWAP1 DUP1 CALLDATALOAD SWAP1 PUSH1 0x20 ADD SWAP1 SWAP3 SWAP2 SWAP1 POP POP POP PUSH2 0x7AF JUMP JUMPDEST PUSH1 0x40 MLOAD DUP1 DUP3 DUP2 MSTORE PUSH1 0x20 ADD SWAP2 POP POP PUSH1 0x40 MLOAD DUP1 SWAP2 SUB SWAP1 RETURN JUMPDEST PUSH2 0x2A8 PUSH1 0x4 DUP1 CALLDATASIZE SUB PUSH1 0x40 DUP2 LT ISZERO PUSH2 0x288 JUMPI PUSH1 0x0 DUP1 REVERT JUMPDEST DUP2 ADD SWAP1 DUP1 DUP1 CALLDATALOAD SWAP1 PUSH1 0x20 ADD SWAP1 SWAP3 SWAP2 SWAP1 DUP1 CALLDATALOAD SWAP1 PUSH1 0x20 ADD SWAP1 SWAP3 SWAP2 SWAP1 POP POP POP PUSH2 0x8C2 JUMP JUMPDEST STOP JUMPDEST PUSH2 0x2D6 PUSH1 0x4 DUP1 CALLDATASIZE SUB PUSH1 0x20 DUP2 LT ISZERO PUSH2 0x2C0 JUMPI PUSH1 0x0 DUP1 REVERT JUMPDEST DUP2 ADD SWAP1 DUP1 DUP1 CALLDATALOAD SWAP1 PUSH1 0x20 ADD SWAP1 SWAP3 SWAP2 SWAP1 POP POP POP PUSH2 0xB7A JUMP JUMPDEST STOP JUMPDEST PUSH2 0x304 PUSH1 0x4 DUP1 CALLDATASIZE SUB PUSH1 0x20 DUP2 LT ISZERO PUSH2 0x2EE JUMPI PUSH1 0x0 DUP1 REVERT JUMPDEST DUP2 ADD SWAP1 DUP1 DUP1 CALLDATALOAD SWAP1 PUSH1 0x20 ADD SWAP1 SWAP3 SWAP2 SWAP1 POP POP POP PUSH2 0xD89 JUMP JUMPDEST STOP JUMPDEST PUSH2 0x372 PUSH1 0x4 DUP1 CALLDATASIZE SUB PUSH1 0x60 DUP2 LT ISZERO PUSH2 0x31C JUMPI PUSH1 0x0 DUP1 REVERT JUMPDEST DUP2 ADD SWAP1 DUP1 DUP1 CALLDATALOAD PUSH20 0xFFFFFFFFFFFFFFFFFFFFFFFFFFFFFFFFFFFFFFFF AND SWAP1 PUSH1 0x20 ADD SWAP1 SWAP3 SWAP2 SWAP1 DUP1 CALLDATALOAD SWAP1 PUSH1 0x20 ADD SWAP1 SWAP3 SWAP2 SWAP1 DUP1 CALLDATALOAD PUSH20 0xFFFFFFFFFFFFFFFFFFFFFFFFFFFFFFFFFFFFFFFF AND SWAP1 PUSH1 0x20 ADD SWAP1 SWAP3 SWAP2 SWAP1 POP POP POP PUSH2 0xEBD JUMP JUMPDEST STOP JUMPDEST PUSH2 0x37C PUSH2 0x116D JUMP JUMPDEST PUSH1 0x40 MLOAD DUP1 DUP3 PUSH20 0xFFFFFFFFFFFFFFFFFFFFFFFFFFFFFFFFFFFFFFFF AND DUP2 MSTORE PUSH1 0x20 ADD SWAP2 POP POP PUSH1 0x40 MLOAD DUP1 SWAP2 SUB SWAP1 RETURN JUMPDEST PUSH2 0x3B0 PUSH2 0x1191 JUMP JUMPDEST PUSH1 0x40 MLOAD DUP1 DUP3 DUP2 MSTORE PUSH1 0x20 ADD SWAP2 POP POP PUSH1 0x40 MLOAD DUP1 SWAP2 SUB SWAP1 RETURN JUMPDEST PUSH2 0x3CE PUSH2 0x1197 JUMP JUMPDEST STOP JUMPDEST PUSH2 0x3D8 PUSH2 0x11C4 JUMP JUMPDEST PUSH1 0x40 MLOAD DUP1 DUP3 DUP2 MSTORE PUSH1 0x20 ADD SWAP2 POP POP PUSH1 0x40 MLOAD DUP1 SWAP2 SUB SWAP1 RETURN JUMPDEST PUSH2 0x43A PUSH1 0x4 DUP1 CALLDATASIZE SUB PUSH1 0x40 DUP2 LT ISZERO PUSH2 0x404 JUMPI PUSH1 0x0 DUP1 REVERT JUMPDEST DUP2 ADD SWAP1 DUP1 DUP1 CALLDATALOAD SWAP1 PUSH1 0x20 ADD SWAP1 SWAP3 SWAP2 SWAP1 DUP1 CALLDATALOAD PUSH20 0xFFFFFFFFFFFFFFFFFFFFFFFFFFFFFFFFFFFFFFFF AND SWAP1 PUSH1 0x20 ADD SWAP1 SWAP3 SWAP2 SWAP1 POP POP POP PUSH2 0x11CA JUMP JUMPDEST PUSH1 0x40 MLOAD DUP1 DUP4 DUP2 MSTORE PUSH1 0x20 ADD DUP3 DUP2 MSTORE PUSH1 0x20 ADD SWAP3 POP POP POP PUSH1 0x40 MLOAD DUP1 SWAP2 SUB SWAP1 RETURN JUMPDEST PUSH2 0x45F PUSH2 0x11FB JUMP JUMPDEST PUSH1 0x40 MLOAD DUP1 DUP3 DUP2 MSTORE PUSH1 0x20 ADD SWAP2 POP POP PUSH1 0x40 MLOAD DUP1 SWAP2 SUB SWAP1 RETURN JUMPDEST PUSH2 0x4D7 PUSH1 0x4 DUP1 CALLDATASIZE SUB PUSH1 0x80 DUP2 LT ISZERO PUSH2 0x48B JUMPI PUSH1 0x0 DUP1 REVERT JUMPDEST DUP2 ADD SWAP1 DUP1 DUP1 CALLDATALOAD SWAP1 PUSH1 0x20 ADD SWAP1 SWAP3 SWAP2 SWAP1 DUP1 CALLDATALOAD PUSH20 0xFFFFFFFFFFFFFFFFFFFFFFFFFFFFFFFFFFFFFFFF AND SWAP1 PUSH1 0x20 ADD SWAP1 SWAP3 SWAP2 SWAP1 DUP1 CALLDATALOAD ISZERO ISZERO SWAP1 PUSH1 0x20 ADD SWAP1 SWAP3 SWAP2 SWAP1 DUP1 CALLDATALOAD SWAP1 PUSH1 0x20 ADD SWAP1 SWAP3 SWAP2 SWAP1 POP POP POP PUSH2 0x1201 JUMP JUMPDEST STOP JUMPDEST PUSH2 0x4E1 PUSH2 0x1438 JUMP JUMPDEST PUSH1 0x40 MLOAD DUP1 DUP3 DUP2 MSTORE PUSH1 0x20 ADD SWAP2 POP POP PUSH1 0x40 MLOAD DUP1 SWAP2 SUB SWAP1 RETURN JUMPDEST PUSH2 0x539 PUSH1 0x4 DUP1 CALLDATASIZE SUB PUSH1 0x20 DUP2 LT ISZERO PUSH2 0x50D JUMPI PUSH1 0x0 DUP1 REVERT JUMPDEST DUP2 ADD SWAP1 DUP1 DUP1 CALLDATALOAD PUSH20 0xFFFFFFFFFFFFFFFFFFFFFFFFFFFFFFFFFFFFFFFF AND SWAP1 PUSH1 0x20 ADD SWAP1 SWAP3 SWAP2 SWAP1 POP POP POP PUSH2 0x143E JUMP JUMPDEST STOP JUMPDEST PUSH2 0x587 PUSH1 0x4 DUP1 CALLDATASIZE SUB PUSH1 0x40 DUP2 LT ISZERO PUSH2 0x551 JUMPI PUSH1 0x0 DUP1 REVERT JUMPDEST DUP2 ADD SWAP1 DUP1 DUP1 CALLDATALOAD SWAP1 PUSH1 0x20 ADD SWAP1 SWAP3 SWAP2 SWAP1 DUP1 CALLDATALOAD PUSH20 0xFFFFFFFFFFFFFFFFFFFFFFFFFFFFFFFFFFFFFFFF AND SWAP1 PUSH1 0x20 ADD SWAP1 SWAP3 SWAP2 SWAP1 POP POP POP PUSH2 0x1525 JUMP JUMPDEST PUSH1 0x40 MLOAD DUP1 DUP3 DUP2 MSTORE PUSH1 0x20 ADD SWAP2 POP POP PUSH1 0x40 MLOAD DUP1 SWAP2 SUB SWAP1 RETURN JUMPDEST PUSH2 0x5D3 PUSH1 0x4 DUP1 CALLDATASIZE SUB PUSH1 0x40 DUP2 LT ISZERO PUSH2 0x5B3 JUMPI PUSH1 0x0 DUP1 REVERT JUMPDEST DUP2 ADD SWAP1 DUP1 DUP1 CALLDATALOAD SWAP1 PUSH1 0x20 ADD SWAP1 SWAP3 SWAP2 SWAP1 DUP1 CALLDATALOAD SWAP1 PUSH1 0x20 ADD SWAP1 SWAP3 SWAP2 SWAP1 POP POP POP PUSH2 0x175D JUMP JUMPDEST STOP JUMPDEST PUSH2 0x5DD PUSH2 0x19AB JUMP JUMPDEST PUSH1 0x40 MLOAD DUP1 DUP3 PUSH20 0xFFFFFFFFFFFFFFFFFFFFFFFFFFFFFFFFFFFFFFFF AND DUP2 MSTORE PUSH1 0x20 ADD SWAP2 POP POP PUSH1 0x40 MLOAD DUP1 SWAP2 SUB SWAP1 RETURN JUMPDEST PUSH10 0xCB49B44BA602D800000 DUP2 JUMP JUMPDEST PUSH1 0x2 DUP2 DUP2 SLOAD DUP2 LT PUSH2 0x624 JUMPI INVALID JUMPDEST SWAP1 PUSH1 0x0 MSTORE PUSH1 0x20 PUSH1 0x0 KECCAK256 SWAP1 PUSH1 0x5 MUL ADD PUSH1 0x0 SWAP2 POP SWAP1 POP DUP1 PUSH1 0x0 ADD PUSH1 0x0 SWAP1 SLOAD SWAP1 PUSH2 0x100 EXP SWAP1 DIV PUSH20 0xFFFFFFFFFFFFFFFFFFFFFFFFFFFFFFFFFFFFFFFF AND SWAP1 DUP1 PUSH1 0x1 ADD SLOAD SWAP1 DUP1 PUSH1 0x2 ADD SLOAD SWAP1 DUP1 PUSH1 0x3 ADD SLOAD SWAP1 DUP1 PUSH1 0x4 ADD PUSH1 0x0 SWAP1 SLOAD SWAP1 PUSH2 0x100 EXP SWAP1 DIV PUSH1 0xFF AND SWAP1 POP DUP6 JUMP JUMPDEST PUSH1 0x4 SLOAD DUP2 JUMP JUMPDEST CALLER PUSH20 0xFFFFFFFFFFFFFFFFFFFFFFFFFFFFFFFFFFFFFFFF AND PUSH1 0x0 DUP1 SLOAD SWAP1 PUSH2 0x100 EXP SWAP1 DIV PUSH20 0xFFFFFFFFFFFFFFFFFFFFFFFFFFFFFFFFFFFFFFFF AND PUSH20 0xFFFFFFFFFFFFFFFFFFFFFFFFFFFFFFFFFFFFFFFF AND EQ PUSH2 0x731 JUMPI PUSH1 0x40 MLOAD PUSH32 0x8C379A000000000000000000000000000000000000000000000000000000000 DUP2 MSTORE PUSH1 0x4 ADD DUP1 DUP1 PUSH1 0x20 ADD DUP3 DUP2 SUB DUP3 MSTORE PUSH1 0x2C DUP2 MSTORE PUSH1 0x20 ADD DUP1 PUSH2 0x2362 PUSH1 0x2C SWAP2 CODECOPY PUSH1 0x40 ADD SWAP2 POP POP PUSH1 0x40 MLOAD DUP1 SWAP2 SUB SWAP1 REVERT JUMPDEST PUSH2 0x739 PUSH2 0x1197 JUMP JUMPDEST PUSH1 0x0 PUSH1 0x2 DUP4 DUP2 SLOAD DUP2 LT PUSH2 0x748 JUMPI INVALID JUMPDEST SWAP1 PUSH1 0x0 MSTORE PUSH1 0x20 PUSH1 0x0 KECCAK256 SWAP1 PUSH1 0x5 MUL ADD SWAP1 POP DUP1 PUSH1 0x4 ADD PUSH1 0x0 SWAP1 SLOAD SWAP1 PUSH2 0x100 EXP SWAP1 DIV PUSH1 0xFF AND ISZERO PUSH2 0x7A1 JUMPI PUSH2 0x79A DUP3 PUSH2 0x78C DUP4 PUSH1 0x1 ADD SLOAD PUSH1 0x4 SLOAD PUSH2 0x19D1 SWAP1 SWAP2 SWAP1 PUSH4 0xFFFFFFFF AND JUMP JUMPDEST PUSH2 0x1A54 SWAP1 SWAP2 SWAP1 PUSH4 0xFFFFFFFF AND JUMP JUMPDEST PUSH1 0x4 DUP2 SWAP1 SSTORE POP JUMPDEST DUP2 DUP2 PUSH1 0x1 ADD DUP2 SWAP1 SSTORE POP POP POP POP JUMP JUMPDEST PUSH1 0x0 DUP2 DUP4 LT PUSH2 0x7C1 JUMPI PUSH1 0x0 SWAP1 POP PUSH2 0x8BC JUMP JUMPDEST PUSH1 0x6 SLOAD DUP3 LT PUSH2 0x847 JUMPI PUSH1 0x6 SLOAD DUP4 LT PUSH2 0x7DC JUMPI PUSH1 0x0 SWAP1 POP PUSH2 0x8BC JUMP JUMPDEST PUSH1 0x5 SLOAD DUP4 GT PUSH2 0x817 JUMPI PUSH2 0x810 PUSH1 0x7 SLOAD PUSH2 0x802 PUSH1 0x5 SLOAD PUSH1 0x6 SLOAD PUSH2 0x19D1 SWAP1 SWAP2 SWAP1 PUSH4 0xFFFFFFFF AND JUMP JUMPDEST PUSH2 0x1ADC SWAP1 SWAP2 SWAP1 PUSH4 0xFFFFFFFF AND JUMP JUMPDEST SWAP1 POP PUSH2 0x8BC JUMP JUMPDEST PUSH2 0x840 PUSH1 0x7 SLOAD PUSH2 0x832 DUP6 PUSH1 0x6 SLOAD PUSH2 0x19D1 SWAP1 SWAP2 SWAP1 PUSH4 0xFFFFFFFF AND JUMP JUMPDEST PUSH2 0x1ADC SWAP1 SWAP2 SWAP1 PUSH4 0xFFFFFFFF AND JUMP JUMPDEST SWAP1 POP PUSH2 0x8BC JUMP JUMPDEST PUSH1 0x5 SLOAD DUP3 GT PUSH2 0x859 JUMPI PUSH1 0x0 SWAP1 POP PUSH2 0x8BC JUMP JUMPDEST PUSH1 0x5 SLOAD DUP4 GT PUSH2 0x892 JUMPI PUSH2 0x88B PUSH1 0x7 SLOAD PUSH2 0x87D PUSH1 0x5 SLOAD DUP6 PUSH2 0x19D1 SWAP1 SWAP2 SWAP1 PUSH4 0xFFFFFFFF AND JUMP JUMPDEST PUSH2 0x1ADC SWAP1 SWAP2 SWAP1 PUSH4 0xFFFFFFFF AND JUMP JUMPDEST SWAP1 POP PUSH2 0x8BC JUMP JUMPDEST PUSH2 0x8B9 PUSH1 0x7 SLOAD PUSH2 0x8AB DUP6 DUP6 PUSH2 0x19D1 SWAP1 SWAP2 SWAP1 PUSH4 0xFFFFFFFF AND JUMP JUMPDEST PUSH2 0x1ADC SWAP1 SWAP2 SWAP1 PUSH4 0xFFFFFFFF AND JUMP JUMPDEST SWAP1 POP JUMPDEST SWAP3 SWAP2 POP POP JUMP JUMPDEST PUSH1 0x0 CALLER SWAP1 POP PUSH1 0x0 PUSH1 0x2 DUP5 DUP2 SLOAD DUP2 LT PUSH2 0x8D6 JUMPI INVALID JUMPDEST SWAP1 PUSH1 0x0 MSTORE PUSH1 0x20 PUSH1 0x0 KECCAK256 SWAP1 PUSH1 0x5 MUL ADD SWAP1 POP PUSH1 0x0 PUSH1 0x3 PUSH1 0x0 DUP7 DUP2 MSTORE PUSH1 0x20 ADD SWAP1 DUP2 MSTORE PUSH1 0x20 ADD PUSH1 0x0 KECCAK256 PUSH1 0x0 DUP5 PUSH20 0xFFFFFFFFFFFFFFFFFFFFFFFFFFFFFFFFFFFFFFFF AND PUSH20 0xFFFFFFFFFFFFFFFFFFFFFFFFFFFFFFFFFFFFFFFF AND DUP2 MSTORE PUSH1 0x20 ADD SWAP1 DUP2 MSTORE PUSH1 0x20 ADD PUSH1 0x0 KECCAK256 SWAP1 POP DUP4 DUP2 PUSH1 0x0 ADD SLOAD LT ISZERO PUSH2 0x9B4 JUMPI PUSH1 0x40 MLOAD PUSH32 0x8C379A000000000000000000000000000000000000000000000000000000000 DUP2 MSTORE PUSH1 0x4 ADD DUP1 DUP1 PUSH1 0x20 ADD DUP3 DUP2 SUB DUP3 MSTORE PUSH1 0x12 DUP2 MSTORE PUSH1 0x20 ADD DUP1 PUSH32 0x77697468647261773A206E6F7420676F6F640000000000000000000000000000 DUP2 MSTORE POP PUSH1 0x20 ADD SWAP2 POP POP PUSH1 0x40 MLOAD DUP1 SWAP2 SUB SWAP1 REVERT JUMPDEST PUSH2 0x9BD DUP6 PUSH2 0xB7A JUMP JUMPDEST PUSH1 0x0 PUSH2 0xA0A DUP3 PUSH1 0x1 ADD SLOAD PUSH2 0x9FC PUSH8 0xDE0B6B3A7640000 PUSH2 0x9EE DUP8 PUSH1 0x3 ADD SLOAD DUP8 PUSH1 0x0 ADD SLOAD PUSH2 0x1ADC SWAP1 SWAP2 SWAP1 PUSH4 0xFFFFFFFF AND JUMP JUMPDEST PUSH2 0x1B62 SWAP1 SWAP2 SWAP1 PUSH4 0xFFFFFFFF AND JUMP JUMPDEST PUSH2 0x19D1 SWAP1 SWAP2 SWAP1 PUSH4 0xFFFFFFFF AND JUMP JUMPDEST SWAP1 POP PUSH1 0x0 DUP2 GT ISZERO PUSH2 0xA6E JUMPI PUSH2 0xA1F DUP5 DUP3 PUSH2 0x1BEB JUMP JUMPDEST DUP4 PUSH20 0xFFFFFFFFFFFFFFFFFFFFFFFFFFFFFFFFFFFFFFFF AND PUSH32 0xE2403640BA68FED3A2F88B7557551D1993F84B99BB10FF833F0CF8DB0C5E0486 DUP3 PUSH1 0x40 MLOAD DUP1 DUP3 DUP2 MSTORE PUSH1 0x20 ADD SWAP2 POP POP PUSH1 0x40 MLOAD DUP1 SWAP2 SUB SWAP1 LOG2 JUMPDEST PUSH1 0x0 DUP6 GT ISZERO PUSH2 0xAE6 JUMPI PUSH2 0xA8E DUP6 DUP4 PUSH1 0x0 ADD SLOAD PUSH2 0x19D1 SWAP1 SWAP2 SWAP1 PUSH4 0xFFFFFFFF AND JUMP JUMPDEST DUP3 PUSH1 0x0 ADD DUP2 SWAP1 SSTORE POP PUSH2 0xAE5 DUP5 DUP7 DUP6 PUSH1 0x0 ADD PUSH1 0x0 SWAP1 SLOAD SWAP1 PUSH2 0x100 EXP SWAP1 DIV PUSH20 0xFFFFFFFFFFFFFFFFFFFFFFFFFFFFFFFFFFFFFFFF AND PUSH20 0xFFFFFFFFFFFFFFFFFFFFFFFFFFFFFFFFFFFFFFFF AND PUSH2 0x1D6A SWAP1 SWAP3 SWAP2 SWAP1 PUSH4 0xFFFFFFFF AND JUMP JUMPDEST JUMPDEST PUSH2 0xB1B PUSH8 0xDE0B6B3A7640000 PUSH2 0xB0D DUP6 PUSH1 0x3 ADD SLOAD DUP6 PUSH1 0x0 ADD SLOAD PUSH2 0x1ADC SWAP1 SWAP2 SWAP1 PUSH4 0xFFFFFFFF AND JUMP JUMPDEST PUSH2 0x1B62 SWAP1 SWAP2 SWAP1 PUSH4 0xFFFFFFFF AND JUMP JUMPDEST DUP3 PUSH1 0x1 ADD DUP2 SWAP1 SSTORE POP DUP6 DUP5 PUSH20 0xFFFFFFFFFFFFFFFFFFFFFFFFFFFFFFFFFFFFFFFF AND PUSH32 0xF279E6A1F5E320CCA91135676D9CB6E44CA8A08C0B88342BCDB1144F6511B568 DUP8 PUSH1 0x40 MLOAD DUP1 DUP3 DUP2 MSTORE PUSH1 0x20 ADD SWAP2 POP POP PUSH1 0x40 MLOAD DUP1 SWAP2 SUB SWAP1 LOG3 POP POP POP POP POP POP JUMP JUMPDEST PUSH1 0x0 PUSH1 0x2 DUP3 DUP2 SLOAD DUP2 LT PUSH2 0xB89 JUMPI INVALID JUMPDEST SWAP1 PUSH1 0x0 MSTORE PUSH1 0x20 PUSH1 0x0 KECCAK256 SWAP1 PUSH1 0x5 MUL ADD SWAP1 POP DUP1 PUSH1 0x2 ADD SLOAD TIMESTAMP GT PUSH2 0xBAA JUMPI POP PUSH2 0xD86 JUMP JUMPDEST PUSH1 0x0 DUP2 PUSH1 0x0 ADD PUSH1 0x0 SWAP1 SLOAD SWAP1 PUSH2 0x100 EXP SWAP1 DIV PUSH20 0xFFFFFFFFFFFFFFFFFFFFFFFFFFFFFFFFFFFFFFFF AND PUSH20 0xFFFFFFFFFFFFFFFFFFFFFFFFFFFFFFFFFFFFFFFF AND PUSH4 0x70A08231 ADDRESS PUSH1 0x40 MLOAD DUP3 PUSH4 0xFFFFFFFF AND PUSH1 0xE0 SHL DUP2 MSTORE PUSH1 0x4 ADD DUP1 DUP3 PUSH20 0xFFFFFFFFFFFFFFFFFFFFFFFFFFFFFFFFFFFFFFFF AND DUP2 MSTORE PUSH1 0x20 ADD SWAP2 POP POP PUSH1 0x20 PUSH1 0x40 MLOAD DUP1 DUP4 SUB DUP2 DUP7 DUP1 EXTCODESIZE ISZERO DUP1 ISZERO PUSH2 0xC37 JUMPI PUSH1 0x0 DUP1 REVERT JUMPDEST POP GAS STATICCALL ISZERO DUP1 ISZERO PUSH2 0xC4B JUMPI RETURNDATASIZE PUSH1 0x0 DUP1 RETURNDATACOPY RETURNDATASIZE PUSH1 0x0 REVERT JUMPDEST POP POP POP POP PUSH1 0x40 MLOAD RETURNDATASIZE PUSH1 0x20 DUP2 LT ISZERO PUSH2 0xC61 JUMPI PUSH1 0x0 DUP1 REVERT JUMPDEST DUP2 ADD SWAP1 DUP1 DUP1 MLOAD SWAP1 PUSH1 0x20 ADD SWAP1 SWAP3 SWAP2 SWAP1 POP POP POP SWAP1 POP PUSH1 0x0 DUP2 EQ ISZERO PUSH2 0xC8D JUMPI TIMESTAMP DUP3 PUSH1 0x2 ADD DUP2 SWAP1 SSTORE POP POP POP PUSH2 0xD86 JUMP JUMPDEST DUP2 PUSH1 0x4 ADD PUSH1 0x0 SWAP1 SLOAD SWAP1 PUSH2 0x100 EXP SWAP1 DIV PUSH1 0xFF AND PUSH2 0xCE0 JUMPI PUSH1 0x1 DUP3 PUSH1 0x4 ADD PUSH1 0x0 PUSH2 0x100 EXP DUP2 SLOAD DUP2 PUSH1 0xFF MUL NOT AND SWAP1 DUP4 ISZERO ISZERO MUL OR SWAP1 SSTORE POP PUSH2 0xCD9 DUP3 PUSH1 0x1 ADD SLOAD PUSH1 0x4 SLOAD PUSH2 0x1A54 SWAP1 SWAP2 SWAP1 PUSH4 0xFFFFFFFF AND JUMP JUMPDEST PUSH1 0x4 DUP2 SWAP1 SSTORE POP JUMPDEST PUSH1 0x0 PUSH1 0x4 SLOAD GT ISZERO PUSH2 0xD7A JUMPI PUSH1 0x0 PUSH2 0xCFB DUP4 PUSH1 0x2 ADD SLOAD TIMESTAMP PUSH2 0x7AF JUMP JUMPDEST SWAP1 POP PUSH1 0x0 PUSH2 0xD2A PUSH1 0x4 SLOAD PUSH2 0xD1C DUP7 PUSH1 0x1 ADD SLOAD DUP6 PUSH2 0x1ADC SWAP1 SWAP2 SWAP1 PUSH4 0xFFFFFFFF AND JUMP JUMPDEST PUSH2 0x1B62 SWAP1 SWAP2 SWAP1 PUSH4 0xFFFFFFFF AND JUMP JUMPDEST SWAP1 POP PUSH2 0xD6F PUSH2 0xD5C DUP5 PUSH2 0xD4E PUSH8 0xDE0B6B3A7640000 DUP6 PUSH2 0x1ADC SWAP1 SWAP2 SWAP1 PUSH4 0xFFFFFFFF AND JUMP JUMPDEST PUSH2 0x1B62 SWAP1 SWAP2 SWAP1 PUSH4 0xFFFFFFFF AND JUMP JUMPDEST DUP6 PUSH1 0x3 ADD SLOAD PUSH2 0x1A54 SWAP1 SWAP2 SWAP1 PUSH4 0xFFFFFFFF AND JUMP JUMPDEST DUP5 PUSH1 0x3 ADD DUP2 SWAP1 SSTORE POP POP POP JUMPDEST TIMESTAMP DUP3 PUSH1 0x2 ADD DUP2 SWAP1 SSTORE POP POP POP JUMPDEST POP JUMP JUMPDEST PUSH1 0x0 PUSH1 0x2 DUP3 DUP2 SLOAD DUP2 LT PUSH2 0xD98 JUMPI INVALID JUMPDEST SWAP1 PUSH1 0x0 MSTORE PUSH1 0x20 PUSH1 0x0 KECCAK256 SWAP1 PUSH1 0x5 MUL ADD SWAP1 POP PUSH1 0x0 PUSH1 0x3 PUSH1 0x0 DUP5 DUP2 MSTORE PUSH1 0x20 ADD SWAP1 DUP2 MSTORE PUSH1 0x20 ADD PUSH1 0x0 KECCAK256 PUSH1 0x0 CALLER PUSH20 0xFFFFFFFFFFFFFFFFFFFFFFFFFFFFFFFFFFFFFFFF AND PUSH20 0xFFFFFFFFFFFFFFFFFFFFFFFFFFFFFFFFFFFFFFFF AND DUP2 MSTORE PUSH1 0x20 ADD SWAP1 DUP2 MSTORE PUSH1 0x20 ADD PUSH1 0x0 KECCAK256 SWAP1 POP PUSH1 0x0 DUP2 PUSH1 0x0 ADD SLOAD SWAP1 POP PUSH1 0x0 DUP3 PUSH1 0x0 ADD DUP2 SWAP1 SSTORE POP PUSH1 0x0 DUP3 PUSH1 0x1 ADD DUP2 SWAP1 SSTORE POP PUSH2 0xE68 CALLER DUP3 DUP6 PUSH1 0x0 ADD PUSH1 0x0 SWAP1 SLOAD SWAP1 PUSH2 0x100 EXP SWAP1 DIV PUSH20 0xFFFFFFFFFFFFFFFFFFFFFFFFFFFFFFFFFFFFFFFF AND PUSH20 0xFFFFFFFFFFFFFFFFFFFFFFFFFFFFFFFFFFFFFFFF AND PUSH2 0x1D6A SWAP1 SWAP3 SWAP2 SWAP1 PUSH4 0xFFFFFFFF AND JUMP JUMPDEST DUP4 CALLER PUSH20 0xFFFFFFFFFFFFFFFFFFFFFFFFFFFFFFFFFFFFFFFF AND PUSH32 0xBB757047C2B5F3974FE26B7C10F732E7BCE710B0952A71082702781E62AE0595 DUP4 PUSH1 0x40 MLOAD DUP1 DUP3 DUP2 MSTORE PUSH1 0x20 ADD SWAP2 POP POP PUSH1 0x40 MLOAD DUP1 SWAP2 SUB SWAP1 LOG3 POP POP POP POP JUMP JUMPDEST CALLER PUSH20 0xFFFFFFFFFFFFFFFFFFFFFFFFFFFFFFFFFFFFFFFF AND PUSH1 0x0 DUP1 SLOAD SWAP1 PUSH2 0x100 EXP SWAP1 DIV PUSH20 0xFFFFFFFFFFFFFFFFFFFFFFFFFFFFFFFFFFFFFFFF AND PUSH20 0xFFFFFFFFFFFFFFFFFFFFFFFFFFFFFFFFFFFFFFFF AND EQ PUSH2 0xF61 JUMPI PUSH1 0x40 MLOAD PUSH32 0x8C379A000000000000000000000000000000000000000000000000000000000 DUP2 MSTORE PUSH1 0x4 ADD DUP1 DUP1 PUSH1 0x20 ADD DUP3 DUP2 SUB DUP3 MSTORE PUSH1 0x2C DUP2 MSTORE PUSH1 0x20 ADD DUP1 PUSH2 0x2362 PUSH1 0x2C SWAP2 CODECOPY PUSH1 0x40 ADD SWAP2 POP POP PUSH1 0x40 MLOAD DUP1 SWAP2 SUB SWAP1 REVERT JUMPDEST PUSH3 0x76A700 PUSH1 0x6 SLOAD ADD TIMESTAMP LT ISZERO PUSH2 0x113D JUMPI PUSH1 0x1 PUSH1 0x0 SWAP1 SLOAD SWAP1 PUSH2 0x100 EXP SWAP1 DIV PUSH20 0xFFFFFFFFFFFFFFFFFFFFFFFFFFFFFFFFFFFFFFFF AND PUSH20 0xFFFFFFFFFFFFFFFFFFFFFFFFFFFFFFFFFFFFFFFF AND DUP4 PUSH20 0xFFFFFFFFFFFFFFFFFFFFFFFFFFFFFFFFFFFFFFFF AND EQ ISZERO PUSH2 0x1034 JUMPI PUSH1 0x40 MLOAD PUSH32 0x8C379A000000000000000000000000000000000000000000000000000000000 DUP2 MSTORE PUSH1 0x4 ADD DUP1 DUP1 PUSH1 0x20 ADD DUP3 DUP2 SUB DUP3 MSTORE PUSH1 0x6 DUP2 MSTORE PUSH1 0x20 ADD DUP1 PUSH32 0x7473686172650000000000000000000000000000000000000000000000000000 DUP2 MSTORE POP PUSH1 0x20 ADD SWAP2 POP POP PUSH1 0x40 MLOAD DUP1 SWAP2 SUB SWAP1 REVERT JUMPDEST PUSH1 0x0 PUSH1 0x2 DUP1 SLOAD SWAP1 POP SWAP1 POP PUSH1 0x0 JUMPDEST DUP2 DUP2 LT ISZERO PUSH2 0x113A JUMPI PUSH1 0x0 PUSH1 0x2 DUP3 DUP2 SLOAD DUP2 LT PUSH2 0x1058 JUMPI INVALID JUMPDEST SWAP1 PUSH1 0x0 MSTORE PUSH1 0x20 PUSH1 0x0 KECCAK256 SWAP1 PUSH1 0x5 MUL ADD SWAP1 POP DUP1 PUSH1 0x0 ADD PUSH1 0x0 SWAP1 SLOAD SWAP1 PUSH2 0x100 EXP SWAP1 DIV PUSH20 0xFFFFFFFFFFFFFFFFFFFFFFFFFFFFFFFFFFFFFFFF AND PUSH20 0xFFFFFFFFFFFFFFFFFFFFFFFFFFFFFFFFFFFFFFFF AND DUP7 PUSH20 0xFFFFFFFFFFFFFFFFFFFFFFFFFFFFFFFFFFFFFFFF AND EQ ISZERO PUSH2 0x112E JUMPI PUSH1 0x40 MLOAD PUSH32 0x8C379A000000000000000000000000000000000000000000000000000000000 DUP2 MSTORE PUSH1 0x4 ADD DUP1 DUP1 PUSH1 0x20 ADD DUP3 DUP2 SUB DUP3 MSTORE PUSH1 0xA DUP2 MSTORE PUSH1 0x20 ADD DUP1 PUSH32 0x706F6F6C2E746F6B656E00000000000000000000000000000000000000000000 DUP2 MSTORE POP PUSH1 0x20 ADD SWAP2 POP POP PUSH1 0x40 MLOAD DUP1 SWAP2 SUB SWAP1 REVERT JUMPDEST POP DUP1 PUSH1 0x1 ADD SWAP1 POP PUSH2 0x1041 JUMP JUMPDEST POP POP JUMPDEST PUSH2 0x1168 DUP2 DUP4 DUP6 PUSH20 0xFFFFFFFFFFFFFFFFFFFFFFFFFFFFFFFFFFFFFFFF AND PUSH2 0x1D6A SWAP1 SWAP3 SWAP2 SWAP1 PUSH4 0xFFFFFFFF AND JUMP JUMPDEST POP POP POP JUMP JUMPDEST PUSH1 0x0 DUP1 SLOAD SWAP1 PUSH2 0x100 EXP SWAP1 DIV PUSH20 0xFFFFFFFFFFFFFFFFFFFFFFFFFFFFFFFFFFFFFFFF AND DUP2 JUMP JUMPDEST PUSH1 0x5 SLOAD DUP2 JUMP JUMPDEST PUSH1 0x0 PUSH1 0x2 DUP1 SLOAD SWAP1 POP SWAP1 POP PUSH1 0x0 JUMPDEST DUP2 DUP2 LT ISZERO PUSH2 0x11C0 JUMPI PUSH2 0x11B5 DUP2 PUSH2 0xB7A JUMP JUMPDEST DUP1 PUSH1 0x1 ADD SWAP1 POP PUSH2 0x11A4 JUMP JUMPDEST POP POP JUMP JUMPDEST PUSH1 0x6 SLOAD DUP2 JUMP JUMPDEST PUSH1 0x3 PUSH1 0x20 MSTORE DUP2 PUSH1 0x0 MSTORE PUSH1 0x40 PUSH1 0x0 KECCAK256 PUSH1 0x20 MSTORE DUP1 PUSH1 0x0 MSTORE PUSH1 0x40 PUSH1 0x0 KECCAK256 PUSH1 0x0 SWAP2 POP SWAP2 POP POP DUP1 PUSH1 0x0 ADD SLOAD SWAP1 DUP1 PUSH1 0x1 ADD SLOAD SWAP1 POP DUP3 JUMP JUMPDEST PUSH1 0x8 SLOAD DUP2 JUMP JUMPDEST CALLER PUSH20 0xFFFFFFFFFFFFFFFFFFFFFFFFFFFFFFFFFFFFFFFF AND PUSH1 0x0 DUP1 SLOAD SWAP1 PUSH2 0x100 EXP SWAP1 DIV PUSH20 0xFFFFFFFFFFFFFFFFFFFFFFFFFFFFFFFFFFFFFFFF AND PUSH20 0xFFFFFFFFFFFFFFFFFFFFFFFFFFFFFFFFFFFFFFFF AND EQ PUSH2 0x12A5 JUMPI PUSH1 0x40 MLOAD PUSH32 0x8C379A000000000000000000000000000000000000000000000000000000000 DUP2 MSTORE PUSH1 0x4 ADD DUP1 DUP1 PUSH1 0x20 ADD DUP3 DUP2 SUB DUP3 MSTORE PUSH1 0x2C DUP2 MSTORE PUSH1 0x20 ADD DUP1 PUSH2 0x2362 PUSH1 0x2C SWAP2 CODECOPY PUSH1 0x40 ADD SWAP2 POP POP PUSH1 0x40 MLOAD DUP1 SWAP2 SUB SWAP1 REVERT JUMPDEST PUSH2 0x12AE DUP4 PUSH2 0x1E0C JUMP JUMPDEST DUP2 ISZERO PUSH2 0x12BD JUMPI PUSH2 0x12BC PUSH2 0x1197 JUMP JUMPDEST JUMPDEST PUSH1 0x5 SLOAD TIMESTAMP LT ISZERO PUSH2 0x12F0 JUMPI PUSH1 0x0 DUP2 EQ ISZERO PUSH2 0x12DA JUMPI PUSH1 0x5 SLOAD SWAP1 POP PUSH2 0x12EB JUMP JUMPDEST PUSH1 0x5 SLOAD DUP2 LT ISZERO PUSH2 0x12EA JUMPI PUSH1 0x5 SLOAD SWAP1 POP JUMPDEST JUMPDEST PUSH2 0x1308 JUMP JUMPDEST PUSH1 0x0 DUP2 EQ DUP1 PUSH2 0x12FE JUMPI POP TIMESTAMP DUP2 LT JUMPDEST ISZERO PUSH2 0x1307 JUMPI TIMESTAMP SWAP1 POP JUMPDEST JUMPDEST PUSH1 0x0 PUSH1 0x5 SLOAD DUP3 GT ISZERO DUP1 PUSH2 0x131B JUMPI POP TIMESTAMP DUP3 GT ISZERO JUMPDEST SWAP1 POP PUSH1 0x2 PUSH1 0x40 MLOAD DUP1 PUSH1 0xA0 ADD PUSH1 0x40 MSTORE DUP1 DUP7 PUSH20 0xFFFFFFFFFFFFFFFFFFFFFFFFFFFFFFFFFFFFFFFF AND DUP2 MSTORE PUSH1 0x20 ADD DUP8 DUP2 MSTORE PUSH1 0x20 ADD DUP5 DUP2 MSTORE PUSH1 0x20 ADD PUSH1 0x0 DUP2 MSTORE PUSH1 0x20 ADD DUP4 ISZERO ISZERO DUP2 MSTORE POP SWAP1 DUP1 PUSH1 0x1 DUP2 SLOAD ADD DUP1 DUP3 SSTORE DUP1 SWAP2 POP POP PUSH1 0x1 SWAP1 SUB SWAP1 PUSH1 0x0 MSTORE PUSH1 0x20 PUSH1 0x0 KECCAK256 SWAP1 PUSH1 0x5 MUL ADD PUSH1 0x0 SWAP1 SWAP2 SWAP1 SWAP2 SWAP1 SWAP2 POP PUSH1 0x0 DUP3 ADD MLOAD DUP2 PUSH1 0x0 ADD PUSH1 0x0 PUSH2 0x100 EXP DUP2 SLOAD DUP2 PUSH20 0xFFFFFFFFFFFFFFFFFFFFFFFFFFFFFFFFFFFFFFFF MUL NOT AND SWAP1 DUP4 PUSH20 0xFFFFFFFFFFFFFFFFFFFFFFFFFFFFFFFFFFFFFFFF AND MUL OR SWAP1 SSTORE POP PUSH1 0x20 DUP3 ADD MLOAD DUP2 PUSH1 0x1 ADD SSTORE PUSH1 0x40 DUP3 ADD MLOAD DUP2 PUSH1 0x2 ADD SSTORE PUSH1 0x60 DUP3 ADD MLOAD DUP2 PUSH1 0x3 ADD SSTORE PUSH1 0x80 DUP3 ADD MLOAD DUP2 PUSH1 0x4 ADD PUSH1 0x0 PUSH2 0x100 EXP DUP2 SLOAD DUP2 PUSH1 0xFF MUL NOT AND SWAP1 DUP4 ISZERO ISZERO MUL OR SWAP1 SSTORE POP POP POP DUP1 ISZERO PUSH2 0x1431 JUMPI PUSH2 0x142A DUP6 PUSH1 0x4 SLOAD PUSH2 0x1A54 SWAP1 SWAP2 SWAP1 PUSH4 0xFFFFFFFF AND JUMP JUMPDEST PUSH1 0x4 DUP2 SWAP1 SSTORE POP JUMPDEST POP POP POP POP POP JUMP JUMPDEST PUSH1 0x7 SLOAD DUP2 JUMP JUMPDEST CALLER PUSH20 0xFFFFFFFFFFFFFFFFFFFFFFFFFFFFFFFFFFFFFFFF AND PUSH1 0x0 DUP1 SLOAD SWAP1 PUSH2 0x100 EXP SWAP1 DIV PUSH20 0xFFFFFFFFFFFFFFFFFFFFFFFFFFFFFFFFFFFFFFFF AND PUSH20 0xFFFFFFFFFFFFFFFFFFFFFFFFFFFFFFFFFFFFFFFF AND EQ PUSH2 0x14E2 JUMPI PUSH1 0x40 MLOAD PUSH32 0x8C379A000000000000000000000000000000000000000000000000000000000 DUP2 MSTORE PUSH1 0x4 ADD DUP1 DUP1 PUSH1 0x20 ADD DUP3 DUP2 SUB DUP3 MSTORE PUSH1 0x2C DUP2 MSTORE PUSH1 0x20 ADD DUP1 PUSH2 0x2362 PUSH1 0x2C SWAP2 CODECOPY PUSH1 0x40 ADD SWAP2 POP POP PUSH1 0x40 MLOAD DUP1 SWAP2 SUB SWAP1 REVERT JUMPDEST DUP1 PUSH1 0x0 DUP1 PUSH2 0x100 EXP DUP2 SLOAD DUP2 PUSH20 0xFFFFFFFFFFFFFFFFFFFFFFFFFFFFFFFFFFFFFFFF MUL NOT AND SWAP1 DUP4 PUSH20 0xFFFFFFFFFFFFFFFFFFFFFFFFFFFFFFFFFFFFFFFF AND MUL OR SWAP1 SSTORE POP POP JUMP JUMPDEST PUSH1 0x0 DUP1 PUSH1 0x2 DUP5 DUP2 SLOAD DUP2 LT PUSH2 0x1535 JUMPI INVALID JUMPDEST SWAP1 PUSH1 0x0 MSTORE PUSH1 0x20 PUSH1 0x0 KECCAK256 SWAP1 PUSH1 0x5 MUL ADD SWAP1 POP PUSH1 0x0 PUSH1 0x3 PUSH1 0x0 DUP7 DUP2 MSTORE PUSH1 0x20 ADD SWAP1 DUP2 MSTORE PUSH1 0x20 ADD PUSH1 0x0 KECCAK256 PUSH1 0x0 DUP6 PUSH20 0xFFFFFFFFFFFFFFFFFFFFFFFFFFFFFFFFFFFFFFFF AND PUSH20 0xFFFFFFFFFFFFFFFFFFFFFFFFFFFFFFFFFFFFFFFF AND DUP2 MSTORE PUSH1 0x20 ADD SWAP1 DUP2 MSTORE PUSH1 0x20 ADD PUSH1 0x0 KECCAK256 SWAP1 POP PUSH1 0x0 DUP3 PUSH1 0x3 ADD SLOAD SWAP1 POP PUSH1 0x0 DUP4 PUSH1 0x0 ADD PUSH1 0x0 SWAP1 SLOAD SWAP1 PUSH2 0x100 EXP SWAP1 DIV PUSH20 0xFFFFFFFFFFFFFFFFFFFFFFFFFFFFFFFFFFFFFFFF AND PUSH20 0xFFFFFFFFFFFFFFFFFFFFFFFFFFFFFFFFFFFFFFFF AND PUSH4 0x70A08231 ADDRESS PUSH1 0x40 MLOAD DUP3 PUSH4 0xFFFFFFFF AND PUSH1 0xE0 SHL DUP2 MSTORE PUSH1 0x4 ADD DUP1 DUP3 PUSH20 0xFFFFFFFFFFFFFFFFFFFFFFFFFFFFFFFFFFFFFFFF AND DUP2 MSTORE PUSH1 0x20 ADD SWAP2 POP POP PUSH1 0x20 PUSH1 0x40 MLOAD DUP1 DUP4 SUB DUP2 DUP7 DUP1 EXTCODESIZE ISZERO DUP1 ISZERO PUSH2 0x162F JUMPI PUSH1 0x0 DUP1 REVERT JUMPDEST POP GAS STATICCALL ISZERO DUP1 ISZERO PUSH2 0x1643 JUMPI RETURNDATASIZE PUSH1 0x0 DUP1 RETURNDATACOPY RETURNDATASIZE PUSH1 0x0 REVERT JUMPDEST POP POP POP POP PUSH1 0x40 MLOAD RETURNDATASIZE PUSH1 0x20 DUP2 LT ISZERO PUSH2 0x1659 JUMPI PUSH1 0x0 DUP1 REVERT JUMPDEST DUP2 ADD SWAP1 DUP1 DUP1 MLOAD SWAP1 PUSH1 0x20 ADD SWAP1 SWAP3 SWAP2 SWAP1 POP POP POP SWAP1 POP DUP4 PUSH1 0x2 ADD SLOAD TIMESTAMP GT DUP1 ISZERO PUSH2 0x1680 JUMPI POP PUSH1 0x0 DUP2 EQ ISZERO JUMPDEST ISZERO PUSH2 0x170A JUMPI PUSH1 0x0 PUSH2 0x1695 DUP6 PUSH1 0x2 ADD SLOAD TIMESTAMP PUSH2 0x7AF JUMP JUMPDEST SWAP1 POP PUSH1 0x0 PUSH2 0x16C4 PUSH1 0x4 SLOAD PUSH2 0x16B6 DUP9 PUSH1 0x1 ADD SLOAD DUP6 PUSH2 0x1ADC SWAP1 SWAP2 SWAP1 PUSH4 0xFFFFFFFF AND JUMP JUMPDEST PUSH2 0x1B62 SWAP1 SWAP2 SWAP1 PUSH4 0xFFFFFFFF AND JUMP JUMPDEST SWAP1 POP PUSH2 0x1705 PUSH2 0x16F6 DUP5 PUSH2 0x16E8 PUSH8 0xDE0B6B3A7640000 DUP6 PUSH2 0x1ADC SWAP1 SWAP2 SWAP1 PUSH4 0xFFFFFFFF AND JUMP JUMPDEST PUSH2 0x1B62 SWAP1 SWAP2 SWAP1 PUSH4 0xFFFFFFFF AND JUMP JUMPDEST DUP6 PUSH2 0x1A54 SWAP1 SWAP2 SWAP1 PUSH4 0xFFFFFFFF AND JUMP JUMPDEST SWAP4 POP POP POP JUMPDEST PUSH2 0x1751 DUP4 PUSH1 0x1 ADD SLOAD PUSH2 0x1743 PUSH8 0xDE0B6B3A7640000 PUSH2 0x1735 DUP7 DUP9 PUSH1 0x0 ADD SLOAD PUSH2 0x1ADC SWAP1 SWAP2 SWAP1 PUSH4 0xFFFFFFFF AND JUMP JUMPDEST PUSH2 0x1B62 SWAP1 SWAP2 SWAP1 PUSH4 0xFFFFFFFF AND JUMP JUMPDEST PUSH2 0x19D1 SWAP1 SWAP2 SWAP1 PUSH4 0xFFFFFFFF AND JUMP JUMPDEST SWAP5 POP POP POP POP POP SWAP3 SWAP2 POP POP JUMP JUMPDEST PUSH1 0x0 CALLER SWAP1 POP PUSH1 0x0 PUSH1 0x2 DUP5 DUP2 SLOAD DUP2 LT PUSH2 0x1771 JUMPI INVALID JUMPDEST SWAP1 PUSH1 0x0 MSTORE PUSH1 0x20 PUSH1 0x0 KECCAK256 SWAP1 PUSH1 0x5 MUL ADD SWAP1 POP PUSH1 0x0 PUSH1 0x3 PUSH1 0x0 DUP7 DUP2 MSTORE PUSH1 0x20 ADD SWAP1 DUP2 MSTORE PUSH1 0x20 ADD PUSH1 0x0 KECCAK256 PUSH1 0x0 DUP5 PUSH20 0xFFFFFFFFFFFFFFFFFFFFFFFFFFFFFFFFFFFFFFFF AND PUSH20 0xFFFFFFFFFFFFFFFFFFFFFFFFFFFFFFFFFFFFFFFF AND DUP2 MSTORE PUSH1 0x20 ADD SWAP1 DUP2 MSTORE PUSH1 0x20 ADD PUSH1 0x0 KECCAK256 SWAP1 POP PUSH2 0x17DE DUP6 PUSH2 0xB7A JUMP JUMPDEST PUSH1 0x0 DUP2 PUSH1 0x0 ADD SLOAD GT ISZERO PUSH2 0x189E JUMPI PUSH1 0x0 PUSH2 0x1838 DUP3 PUSH1 0x1 ADD SLOAD PUSH2 0x182A PUSH8 0xDE0B6B3A7640000 PUSH2 0x181C DUP8 PUSH1 0x3 ADD SLOAD DUP8 PUSH1 0x0 ADD SLOAD PUSH2 0x1ADC SWAP1 SWAP2 SWAP1 PUSH4 0xFFFFFFFF AND JUMP JUMPDEST PUSH2 0x1B62 SWAP1 SWAP2 SWAP1 PUSH4 0xFFFFFFFF AND JUMP JUMPDEST PUSH2 0x19D1 SWAP1 SWAP2 SWAP1 PUSH4 0xFFFFFFFF AND JUMP JUMPDEST SWAP1 POP PUSH1 0x0 DUP2 GT ISZERO PUSH2 0x189C JUMPI PUSH2 0x184D DUP5 DUP3 PUSH2 0x1BEB JUMP JUMPDEST DUP4 PUSH20 0xFFFFFFFFFFFFFFFFFFFFFFFFFFFFFFFFFFFFFFFF AND PUSH32 0xE2403640BA68FED3A2F88B7557551D1993F84B99BB10FF833F0CF8DB0C5E0486 DUP3 PUSH1 0x40 MLOAD DUP1 DUP3 DUP2 MSTORE PUSH1 0x20 ADD SWAP2 POP POP PUSH1 0x40 MLOAD DUP1 SWAP2 SUB SWAP1 LOG2 JUMPDEST POP JUMPDEST PUSH1 0x0 DUP5 GT ISZERO PUSH2 0x1918 JUMPI PUSH2 0x18F8 DUP4 ADDRESS DUP7 DUP6 PUSH1 0x0 ADD PUSH1 0x0 SWAP1 SLOAD SWAP1 PUSH2 0x100 EXP SWAP1 DIV PUSH20 0xFFFFFFFFFFFFFFFFFFFFFFFFFFFFFFFFFFFFFFFF AND PUSH20 0xFFFFFFFFFFFFFFFFFFFFFFFFFFFFFFFFFFFFFFFF AND PUSH2 0x1F11 SWAP1 SWAP4 SWAP3 SWAP2 SWAP1 PUSH4 0xFFFFFFFF AND JUMP JUMPDEST PUSH2 0x190F DUP5 DUP3 PUSH1 0x0 ADD SLOAD PUSH2 0x1A54 SWAP1 SWAP2 SWAP1 PUSH4 0xFFFFFFFF AND JUMP JUMPDEST DUP2 PUSH1 0x0 ADD DUP2 SWAP1 SSTORE POP JUMPDEST PUSH2 0x194D PUSH8 0xDE0B6B3A7640000 PUSH2 0x193F DUP5 PUSH1 0x3 ADD SLOAD DUP5 PUSH1 0x0 ADD SLOAD PUSH2 0x1ADC SWAP1 SWAP2 SWAP1 PUSH4 0xFFFFFFFF AND JUMP JUMPDEST PUSH2 0x1B62 SWAP1 SWAP2 SWAP1 PUSH4 0xFFFFFFFF AND JUMP JUMPDEST DUP2 PUSH1 0x1 ADD DUP2 SWAP1 SSTORE POP DUP5 DUP4 PUSH20 0xFFFFFFFFFFFFFFFFFFFFFFFFFFFFFFFFFFFFFFFF AND PUSH32 0x90890809C654F11D6E72A28FA60149770A0D11EC6C92319D6CEB2BB0A4EA1A15 DUP7 PUSH1 0x40 MLOAD DUP1 DUP3 DUP2 MSTORE PUSH1 0x20 ADD SWAP2 POP POP PUSH1 0x40 MLOAD DUP1 SWAP2 SUB SWAP1 LOG3 POP POP POP POP POP JUMP JUMPDEST PUSH1 0x1 PUSH1 0x0 SWAP1 SLOAD SWAP1 PUSH2 0x100 EXP SWAP1 DIV PUSH20 0xFFFFFFFFFFFFFFFFFFFFFFFFFFFFFFFFFFFFFFFF AND DUP2 JUMP JUMPDEST PUSH1 0x0 DUP3 DUP3 GT ISZERO PUSH2 0x1A49 JUMPI PUSH1 0x40 MLOAD PUSH32 0x8C379A000000000000000000000000000000000000000000000000000000000 DUP2 MSTORE PUSH1 0x4 ADD DUP1 DUP1 PUSH1 0x20 ADD DUP3 DUP2 SUB DUP3 MSTORE PUSH1 0x1E DUP2 MSTORE PUSH1 0x20 ADD DUP1 PUSH32 0x536166654D6174683A207375627472616374696F6E206F766572666C6F770000 DUP2 MSTORE POP PUSH1 0x20 ADD SWAP2 POP POP PUSH1 0x40 MLOAD DUP1 SWAP2 SUB SWAP1 REVERT JUMPDEST DUP2 DUP4 SUB SWAP1 POP SWAP3 SWAP2 POP POP JUMP JUMPDEST PUSH1 0x0 DUP1 DUP3 DUP5 ADD SWAP1 POP DUP4 DUP2 LT ISZERO PUSH2 0x1AD2 JUMPI PUSH1 0x40 MLOAD PUSH32 0x8C379A000000000000000000000000000000000000000000000000000000000 DUP2 MSTORE PUSH1 0x4 ADD DUP1 DUP1 PUSH1 0x20 ADD DUP3 DUP2 SUB DUP3 MSTORE PUSH1 0x1B DUP2 MSTORE PUSH1 0x20 ADD DUP1 PUSH32 0x536166654D6174683A206164646974696F6E206F766572666C6F770000000000 DUP2 MSTORE POP PUSH1 0x20 ADD SWAP2 POP POP PUSH1 0x40 MLOAD DUP1 SWAP2 SUB SWAP1 REVERT JUMPDEST DUP1 SWAP2 POP POP SWAP3 SWAP2 POP POP JUMP JUMPDEST PUSH1 0x0 DUP1 DUP4 EQ ISZERO PUSH2 0x1AEF JUMPI PUSH1 0x0 SWAP1 POP PUSH2 0x1B5C JUMP JUMPDEST PUSH1 0x0 DUP3 DUP5 MUL SWAP1 POP DUP3 DUP5 DUP3 DUP2 PUSH2 0x1B00 JUMPI INVALID JUMPDEST DIV EQ PUSH2 0x1B57 JUMPI PUSH1 0x40 MLOAD PUSH32 0x8C379A000000000000000000000000000000000000000000000000000000000 DUP2 MSTORE PUSH1 0x4 ADD DUP1 DUP1 PUSH1 0x20 ADD DUP3 DUP2 SUB DUP3 MSTORE PUSH1 0x21 DUP2 MSTORE PUSH1 0x20 ADD DUP1 PUSH2 0x23B4 PUSH1 0x21 SWAP2 CODECOPY PUSH1 0x40 ADD SWAP2 POP POP PUSH1 0x40 MLOAD DUP1 SWAP2 SUB SWAP1 REVERT JUMPDEST DUP1 SWAP2 POP POP JUMPDEST SWAP3 SWAP2 POP POP JUMP JUMPDEST PUSH1 0x0 DUP1 DUP3 GT PUSH2 0x1BD9 JUMPI PUSH1 0x40 MLOAD PUSH32 0x8C379A000000000000000000000000000000000000000000000000000000000 DUP2 MSTORE PUSH1 0x4 ADD DUP1 DUP1 PUSH1 0x20 ADD DUP3 DUP2 SUB DUP3 MSTORE PUSH1 0x1A DUP2 MSTORE PUSH1 0x20 ADD DUP1 PUSH32 0x536166654D6174683A206469766973696F6E206279207A65726F000000000000 DUP2 MSTORE POP PUSH1 0x20 ADD SWAP2 POP POP PUSH1 0x40 MLOAD DUP1 SWAP2 SUB SWAP1 REVERT JUMPDEST DUP2 DUP4 DUP2 PUSH2 0x1BE2 JUMPI INVALID JUMPDEST DIV SWAP1 POP SWAP3 SWAP2 POP POP JUMP JUMPDEST PUSH1 0x0 PUSH1 0x1 PUSH1 0x0 SWAP1 SLOAD SWAP1 PUSH2 0x100 EXP SWAP1 DIV PUSH20 0xFFFFFFFFFFFFFFFFFFFFFFFFFFFFFFFFFFFFFFFF AND PUSH20 0xFFFFFFFFFFFFFFFFFFFFFFFFFFFFFFFFFFFFFFFF AND PUSH4 0x70A08231 ADDRESS PUSH1 0x40 MLOAD DUP3 PUSH4 0xFFFFFFFF AND PUSH1 0xE0 SHL DUP2 MSTORE PUSH1 0x4 ADD DUP1 DUP3 PUSH20 0xFFFFFFFFFFFFFFFFFFFFFFFFFFFFFFFFFFFFFFFF AND DUP2 MSTORE PUSH1 0x20 ADD SWAP2 POP POP PUSH1 0x20 PUSH1 0x40 MLOAD DUP1 DUP4 SUB DUP2 DUP7 DUP1 EXTCODESIZE ISZERO DUP1 ISZERO PUSH2 0x1C76 JUMPI PUSH1 0x0 DUP1 REVERT JUMPDEST POP GAS STATICCALL ISZERO DUP1 ISZERO PUSH2 0x1C8A JUMPI RETURNDATASIZE PUSH1 0x0 DUP1 RETURNDATACOPY RETURNDATASIZE PUSH1 0x0 REVERT JUMPDEST POP POP POP POP PUSH1 0x40 MLOAD RETURNDATASIZE PUSH1 0x20 DUP2 LT ISZERO PUSH2 0x1CA0 JUMPI PUSH1 0x0 DUP1 REVERT JUMPDEST DUP2 ADD SWAP1 DUP1 DUP1 MLOAD SWAP1 PUSH1 0x20 ADD SWAP1 SWAP3 SWAP2 SWAP1 POP POP POP SWAP1 POP PUSH1 0x0 DUP2 GT ISZERO PUSH2 0x1D65 JUMPI DUP1 DUP3 GT ISZERO PUSH2 0x1D16 JUMPI PUSH2 0x1D11 DUP4 DUP3 PUSH1 0x1 PUSH1 0x0 SWAP1 SLOAD SWAP1 PUSH2 0x100 EXP SWAP1 DIV PUSH20 0xFFFFFFFFFFFFFFFFFFFFFFFFFFFFFFFFFFFFFFFF AND PUSH20 0xFFFFFFFFFFFFFFFFFFFFFFFFFFFFFFFFFFFFFFFF AND PUSH2 0x1D6A SWAP1 SWAP3 SWAP2 SWAP1 PUSH4 0xFFFFFFFF AND JUMP JUMPDEST PUSH2 0x1D64 JUMP JUMPDEST PUSH2 0x1D63 DUP4 DUP4 PUSH1 0x1 PUSH1 0x0 SWAP1 SLOAD SWAP1 PUSH2 0x100 EXP SWAP1 DIV PUSH20 0xFFFFFFFFFFFFFFFFFFFFFFFFFFFFFFFFFFFFFFFF AND PUSH20 0xFFFFFFFFFFFFFFFFFFFFFFFFFFFFFFFFFFFFFFFF AND PUSH2 0x1D6A SWAP1 SWAP3 SWAP2 SWAP1 PUSH4 0xFFFFFFFF AND JUMP JUMPDEST JUMPDEST JUMPDEST POP POP POP JUMP JUMPDEST PUSH2 0x1E07 DUP4 PUSH4 0xA9059CBB PUSH1 0xE0 SHL DUP5 DUP5 PUSH1 0x40 MLOAD PUSH1 0x24 ADD DUP1 DUP4 PUSH20 0xFFFFFFFFFFFFFFFFFFFFFFFFFFFFFFFFFFFFFFFF AND DUP2 MSTORE PUSH1 0x20 ADD DUP3 DUP2 MSTORE PUSH1 0x20 ADD SWAP3 POP POP POP PUSH1 0x40 MLOAD PUSH1 0x20 DUP2 DUP4 SUB SUB DUP2 MSTORE SWAP1 PUSH1 0x40 MSTORE SWAP1 PUSH28 0xFFFFFFFFFFFFFFFFFFFFFFFFFFFFFFFFFFFFFFFFFFFFFFFFFFFFFFFF NOT AND PUSH1 0x20 DUP3 ADD DUP1 MLOAD PUSH28 0xFFFFFFFFFFFFFFFFFFFFFFFFFFFFFFFFFFFFFFFFFFFFFFFFFFFFFFFF DUP4 DUP2 DUP4 AND OR DUP4 MSTORE POP POP POP POP PUSH2 0x1FD2 JUMP JUMPDEST POP POP POP JUMP JUMPDEST PUSH1 0x0 PUSH1 0x2 DUP1 SLOAD SWAP1 POP SWAP1 POP PUSH1 0x0 JUMPDEST DUP2 DUP2 LT ISZERO PUSH2 0x1F0C JUMPI DUP3 PUSH20 0xFFFFFFFFFFFFFFFFFFFFFFFFFFFFFFFFFFFFFFFF AND PUSH1 0x2 DUP3 DUP2 SLOAD DUP2 LT PUSH2 0x1E45 JUMPI INVALID JUMPDEST SWAP1 PUSH1 0x0 MSTORE PUSH1 0x20 PUSH1 0x0 KECCAK256 SWAP1 PUSH1 0x5 MUL ADD PUSH1 0x0 ADD PUSH1 0x0 SWAP1 SLOAD SWAP1 PUSH2 0x100 EXP SWAP1 DIV PUSH20 0xFFFFFFFFFFFFFFFFFFFFFFFFFFFFFFFFFFFFFFFF AND PUSH20 0xFFFFFFFFFFFFFFFFFFFFFFFFFFFFFFFFFFFFFFFF AND EQ ISZERO PUSH2 0x1F01 JUMPI PUSH1 0x40 MLOAD PUSH32 0x8C379A000000000000000000000000000000000000000000000000000000000 DUP2 MSTORE PUSH1 0x4 ADD DUP1 DUP1 PUSH1 0x20 ADD DUP3 DUP2 SUB DUP3 MSTORE PUSH1 0x20 DUP2 MSTORE PUSH1 0x20 ADD DUP1 PUSH32 0x545368617265526577617264506F6F6C3A206578697374696E6720706F6F6C3F DUP2 MSTORE POP PUSH1 0x20 ADD SWAP2 POP POP PUSH1 0x40 MLOAD DUP1 SWAP2 SUB SWAP1 REVERT JUMPDEST DUP1 PUSH1 0x1 ADD SWAP1 POP PUSH2 0x1E19 JUMP JUMPDEST POP POP POP JUMP JUMPDEST PUSH2 0x1FCC DUP5 PUSH4 0x23B872DD PUSH1 0xE0 SHL DUP6 DUP6 DUP6 PUSH1 0x40 MLOAD PUSH1 0x24 ADD DUP1 DUP5 PUSH20 0xFFFFFFFFFFFFFFFFFFFFFFFFFFFFFFFFFFFFFFFF AND DUP2 MSTORE PUSH1 0x20 ADD DUP4 PUSH20 0xFFFFFFFFFFFFFFFFFFFFFFFFFFFFFFFFFFFFFFFF AND DUP2 MSTORE PUSH1 0x20 ADD DUP3 DUP2 MSTORE PUSH1 0x20 ADD SWAP4 POP POP POP POP PUSH1 0x40 MLOAD PUSH1 0x20 DUP2 DUP4 SUB SUB DUP2 MSTORE SWAP1 PUSH1 0x40 MSTORE SWAP1 PUSH28 0xFFFFFFFFFFFFFFFFFFFFFFFFFFFFFFFFFFFFFFFFFFFFFFFFFFFFFFFF NOT AND PUSH1 0x20 DUP3 ADD DUP1 MLOAD PUSH28 0xFFFFFFFFFFFFFFFFFFFFFFFFFFFFFFFFFFFFFFFFFFFFFFFFFFFFFFFF DUP4 DUP2 DUP4 AND OR DUP4 MSTORE POP POP POP POP PUSH2 0x1FD2 JUMP JUMPDEST POP POP POP POP JUMP JUMPDEST PUSH1 0x60 PUSH2 0x2034 DUP3 PUSH1 0x40 MLOAD DUP1 PUSH1 0x40 ADD PUSH1 0x40 MSTORE DUP1 PUSH1 0x20 DUP2 MSTORE PUSH1 0x20 ADD PUSH32 0x5361666545524332303A206C6F772D6C6576656C2063616C6C206661696C6564 DUP2 MSTORE POP DUP6 PUSH20 0xFFFFFFFFFFFFFFFFFFFFFFFFFFFFFFFFFFFFFFFF AND PUSH2 0x20C1 SWAP1 SWAP3 SWAP2 SWAP1 PUSH4 0xFFFFFFFF AND JUMP JUMPDEST SWAP1 POP PUSH1 0x0 DUP2 MLOAD GT ISZERO PUSH2 0x20BC JUMPI DUP1 DUP1 PUSH1 0x20 ADD SWAP1 MLOAD PUSH1 0x20 DUP2 LT ISZERO PUSH2 0x2055 JUMPI PUSH1 0x0 DUP1 REVERT JUMPDEST DUP2 ADD SWAP1 DUP1 DUP1 MLOAD SWAP1 PUSH1 0x20 ADD SWAP1 SWAP3 SWAP2 SWAP1 POP POP POP PUSH2 0x20BB JUMPI PUSH1 0x40 MLOAD PUSH32 0x8C379A000000000000000000000000000000000000000000000000000000000 DUP2 MSTORE PUSH1 0x4 ADD DUP1 DUP1 PUSH1 0x20 ADD DUP3 DUP2 SUB DUP3 MSTORE PUSH1 0x2A DUP2 MSTORE PUSH1 0x20 ADD DUP1 PUSH2 0x23D5 PUSH1 0x2A SWAP2 CODECOPY PUSH1 0x40 ADD SWAP2 POP POP PUSH1 0x40 MLOAD DUP1 SWAP2 SUB SWAP1 REVERT JUMPDEST JUMPDEST POP POP POP JUMP JUMPDEST PUSH1 0x60 PUSH2 0x20D0 DUP5 DUP5 PUSH1 0x0 DUP6 PUSH2 0x20D9 JUMP JUMPDEST SWAP1 POP SWAP4 SWAP3 POP POP POP JUMP JUMPDEST PUSH1 0x60 DUP3 SELFBALANCE LT ISZERO PUSH2 0x2134 JUMPI PUSH1 0x40 MLOAD PUSH32 0x8C379A000000000000000000000000000000000000000000000000000000000 DUP2 MSTORE PUSH1 0x4 ADD DUP1 DUP1 PUSH1 0x20 ADD DUP3 DUP2 SUB DUP3 MSTORE PUSH1 0x26 DUP2 MSTORE PUSH1 0x20 ADD DUP1 PUSH2 0x238E PUSH1 0x26 SWAP2 CODECOPY PUSH1 0x40 ADD SWAP2 POP POP PUSH1 0x40 MLOAD DUP1 SWAP2 SUB SWAP1 REVERT JUMPDEST PUSH2 0x213D DUP6 PUSH2 0x2282 JUMP JUMPDEST PUSH2 0x21AF JUMPI PUSH1 0x40 MLOAD PUSH32 0x8C379A000000000000000000000000000000000000000000000000000000000 DUP2 MSTORE PUSH1 0x4 ADD DUP1 DUP1 PUSH1 0x20 ADD DUP3 DUP2 SUB DUP3 MSTORE PUSH1 0x1D DUP2 MSTORE PUSH1 0x20 ADD DUP1 PUSH32 0x416464726573733A2063616C6C20746F206E6F6E2D636F6E7472616374000000 DUP2 MSTORE POP PUSH1 0x20 ADD SWAP2 POP POP PUSH1 0x40 MLOAD DUP1 SWAP2 SUB SWAP1 REVERT JUMPDEST PUSH1 0x0 PUSH1 0x60 DUP7 PUSH20 0xFFFFFFFFFFFFFFFFFFFFFFFFFFFFFFFFFFFFFFFF AND DUP6 DUP8 PUSH1 0x40 MLOAD DUP1 DUP3 DUP1 MLOAD SWAP1 PUSH1 0x20 ADD SWAP1 DUP1 DUP4 DUP4 JUMPDEST PUSH1 0x20 DUP4 LT PUSH2 0x21FF JUMPI DUP1 MLOAD DUP3 MSTORE PUSH1 0x20 DUP3 ADD SWAP2 POP PUSH1 0x20 DUP2 ADD SWAP1 POP PUSH1 0x20 DUP4 SUB SWAP3 POP PUSH2 0x21DC JUMP JUMPDEST PUSH1 0x1 DUP4 PUSH1 0x20 SUB PUSH2 0x100 EXP SUB DUP1 NOT DUP3 MLOAD AND DUP2 DUP5 MLOAD AND DUP1 DUP3 OR DUP6 MSTORE POP POP POP POP POP POP SWAP1 POP ADD SWAP2 POP POP PUSH1 0x0 PUSH1 0x40 MLOAD DUP1 DUP4 SUB DUP2 DUP6 DUP8 GAS CALL SWAP3 POP POP POP RETURNDATASIZE DUP1 PUSH1 0x0 DUP2 EQ PUSH2 0x2261 JUMPI PUSH1 0x40 MLOAD SWAP2 POP PUSH1 0x1F NOT PUSH1 0x3F RETURNDATASIZE ADD AND DUP3 ADD PUSH1 0x40 MSTORE RETURNDATASIZE DUP3 MSTORE RETURNDATASIZE PUSH1 0x0 PUSH1 0x20 DUP5 ADD RETURNDATACOPY PUSH2 0x2266 JUMP JUMPDEST PUSH1 0x60 SWAP2 POP JUMPDEST POP SWAP2 POP SWAP2 POP PUSH2 0x2276 DUP3 DUP3 DUP7 PUSH2 0x2295 JUMP JUMPDEST SWAP3 POP POP POP SWAP5 SWAP4 POP POP POP POP JUMP JUMPDEST PUSH1 0x0 DUP1 DUP3 EXTCODESIZE SWAP1 POP PUSH1 0x0 DUP2 GT SWAP2 POP POP SWAP2 SWAP1 POP JUMP JUMPDEST PUSH1 0x60 DUP4 ISZERO PUSH2 0x22A5 JUMPI DUP3 SWAP1 POP PUSH2 0x235A JUMP JUMPDEST PUSH1 0x0 DUP4 MLOAD GT ISZERO PUSH2 0x22B8 JUMPI DUP3 MLOAD DUP1 DUP5 PUSH1 0x20 ADD REVERT JUMPDEST DUP2 PUSH1 0x40 MLOAD PUSH32 0x8C379A000000000000000000000000000000000000000000000000000000000 DUP2 MSTORE PUSH1 0x4 ADD DUP1 DUP1 PUSH1 0x20 ADD DUP3 DUP2 SUB DUP3 MSTORE DUP4 DUP2 DUP2 MLOAD DUP2 MSTORE PUSH1 0x20 ADD SWAP2 POP DUP1 MLOAD SWAP1 PUSH1 0x20 ADD SWAP1 DUP1 DUP4 DUP4 PUSH1 0x0 JUMPDEST DUP4 DUP2 LT ISZERO PUSH2 0x231F JUMPI DUP1 DUP3 ADD MLOAD DUP2 DUP5 ADD MSTORE PUSH1 0x20 DUP2 ADD SWAP1 POP PUSH2 0x2304 JUMP JUMPDEST POP POP POP POP SWAP1 POP SWAP1 DUP2 ADD SWAP1 PUSH1 0x1F AND DUP1 ISZERO PUSH2 0x234C JUMPI DUP1 DUP3 SUB DUP1 MLOAD PUSH1 0x1 DUP4 PUSH1 0x20 SUB PUSH2 0x100 EXP SUB NOT AND DUP2 MSTORE PUSH1 0x20 ADD SWAP2 POP JUMPDEST POP SWAP3 POP POP POP PUSH1 0x40 MLOAD DUP1 SWAP2 SUB SWAP1 REVERT JUMPDEST SWAP4 SWAP3 POP POP POP JUMP INVALID SLOAD MSTORE8 PUSH9 0x617265526577617264 POP PUSH16 0x6F6C3A2063616C6C6572206973206E6F PUSH21 0x20746865206F70657261746F72416464726573733A KECCAK256 PUSH10 0x6E73756666696369656E PUSH21 0x2062616C616E636520666F722063616C6C53616665 0x4D PUSH2 0x7468 GASPRICE KECCAK256 PUSH14 0x756C7469706C69636174696F6E20 PUSH16 0x766572666C6F77536166654552433230 GASPRICE KECCAK256 GASLIMIT MSTORE NUMBER ORIGIN ADDRESS KECCAK256 PUSH16 0x7065726174696F6E20646964206E6F74 KECCAK256 PUSH20 0x756363656564A2646970667358221220FF9C4A06 0xEB SWAP5 LOG3 COINBASE 0xAF 0xDB DUP16 SAR 0xD5 LOG2 SHL SWAP4 0xE0 PUSH21 0x40B5ADBF7141FF9210C62D9A056364736F6C634300 MOD 0xC STOP CALLER "
				},
				"gasEstimates": {
					"creation": {
						"codeDepositCost": "1853600",
						"executionCost": "infinite",
						"totalCost": "infinite"
					},
					"external": {
						"TOTAL_REWARDS()": "229",
						"add(uint256,address,bool,uint256)": "infinite",
						"deposit(uint256,uint256)": "infinite",
						"emergencyWithdraw(uint256)": "infinite",
						"getGeneratedReward(uint256,uint256)": "infinite",
						"governanceRecoverUnsupported(address,uint256,address)": "infinite",
						"massUpdatePools()": "infinite",
						"operator()": "1155",
						"pendingShare(uint256,address)": "infinite",
						"poolEndTime()": "1072",
						"poolInfo(uint256)": "5463",
						"poolStartTime()": "1028",
						"runningTime()": "1116",
						"set(uint256,uint256)": "infinite",
						"setOperator(address)": "infinite",
						"tSharePerSecond()": "1049",
						"totalAllocPoint()": "1073",
						"tshare()": "1179",
						"updatePool(uint256)": "infinite",
						"userInfo(uint256,address)": "2196",
						"withdraw(uint256,uint256)": "infinite"
					},
					"internal": {
						"checkPoolDuplicate(contract IERC20)": "infinite",
						"safeTShareTransfer(address,uint256)": "infinite"
					}
				},
				"methodIdentifiers": {
					"TOTAL_REWARDS()": "09cf6091",
					"add(uint256,address,bool,uint256)": "96805e54",
					"deposit(uint256,uint256)": "e2bbb158",
					"emergencyWithdraw(uint256)": "5312ea8e",
					"getGeneratedReward(uint256,uint256)": "231f0c6a",
					"governanceRecoverUnsupported(address,uint256,address)": "54575af4",
					"massUpdatePools()": "630b5ba1",
					"operator()": "570ca735",
					"pendingShare(uint256,address)": "cf4b55cb",
					"poolEndTime()": "6e271dd5",
					"poolInfo(uint256)": "1526fe27",
					"poolStartTime()": "5f96dc11",
					"runningTime()": "943f013d",
					"set(uint256,uint256)": "1ab06ee5",
					"setOperator(address)": "b3ab15fb",
					"tSharePerSecond()": "9e63d261",
					"totalAllocPoint()": "17caf6f1",
					"tshare()": "ee6822a7",
					"updatePool(uint256)": "51eb05a6",
					"userInfo(uint256,address)": "93f1a40b",
					"withdraw(uint256,uint256)": "441a3e70"
				}
			},
			"storageLayout": {
				"storage": [
					{
						"astId": 987,
						"contract": "contracts/distribution/TShareRewardPool.sol:PolRewardPool",
						"label": "operator",
						"offset": 0,
						"slot": "0",
						"type": "t_address"
					},
					{
						"astId": 1005,
						"contract": "contracts/distribution/TShareRewardPool.sol:PolRewardPool",
						"label": "tshare",
						"offset": 0,
						"slot": "1",
						"type": "t_contract(IERC20)77"
					},
					{
						"astId": 1008,
						"contract": "contracts/distribution/TShareRewardPool.sol:PolRewardPool",
						"label": "poolInfo",
						"offset": 0,
						"slot": "2",
						"type": "t_array(t_struct(PoolInfo)1003_storage)dyn_storage"
					},
					{
						"astId": 1014,
						"contract": "contracts/distribution/TShareRewardPool.sol:PolRewardPool",
						"label": "userInfo",
						"offset": 0,
						"slot": "3",
						"type": "t_mapping(t_uint256,t_mapping(t_address,t_struct(UserInfo)992_storage))"
					},
					{
						"astId": 1017,
						"contract": "contracts/distribution/TShareRewardPool.sol:PolRewardPool",
						"label": "totalAllocPoint",
						"offset": 0,
						"slot": "4",
						"type": "t_uint256"
					},
					{
						"astId": 1019,
						"contract": "contracts/distribution/TShareRewardPool.sol:PolRewardPool",
						"label": "poolStartTime",
						"offset": 0,
						"slot": "5",
						"type": "t_uint256"
					},
					{
						"astId": 1021,
						"contract": "contracts/distribution/TShareRewardPool.sol:PolRewardPool",
						"label": "poolEndTime",
						"offset": 0,
						"slot": "6",
						"type": "t_uint256"
					},
					{
						"astId": 1024,
						"contract": "contracts/distribution/TShareRewardPool.sol:PolRewardPool",
						"label": "tSharePerSecond",
						"offset": 0,
						"slot": "7",
						"type": "t_uint256"
					},
					{
						"astId": 1027,
						"contract": "contracts/distribution/TShareRewardPool.sol:PolRewardPool",
						"label": "runningTime",
						"offset": 0,
						"slot": "8",
						"type": "t_uint256"
					}
				],
				"types": {
					"t_address": {
						"encoding": "inplace",
						"label": "address",
						"numberOfBytes": "20"
					},
					"t_array(t_struct(PoolInfo)1003_storage)dyn_storage": {
						"base": "t_struct(PoolInfo)1003_storage",
						"encoding": "dynamic_array",
						"label": "struct PolRewardPool.PoolInfo[]",
						"numberOfBytes": "32"
					},
					"t_bool": {
						"encoding": "inplace",
						"label": "bool",
						"numberOfBytes": "1"
					},
					"t_contract(IERC20)77": {
						"encoding": "inplace",
						"label": "contract IERC20",
						"numberOfBytes": "20"
					},
					"t_mapping(t_address,t_struct(UserInfo)992_storage)": {
						"encoding": "mapping",
						"key": "t_address",
						"label": "mapping(address => struct PolRewardPool.UserInfo)",
						"numberOfBytes": "32",
						"value": "t_struct(UserInfo)992_storage"
					},
					"t_mapping(t_uint256,t_mapping(t_address,t_struct(UserInfo)992_storage))": {
						"encoding": "mapping",
						"key": "t_uint256",
						"label": "mapping(uint256 => mapping(address => struct PolRewardPool.UserInfo))",
						"numberOfBytes": "32",
						"value": "t_mapping(t_address,t_struct(UserInfo)992_storage)"
					},
					"t_struct(PoolInfo)1003_storage": {
						"encoding": "inplace",
						"label": "struct PolRewardPool.PoolInfo",
						"members": [
							{
								"astId": 994,
								"contract": "contracts/distribution/TShareRewardPool.sol:PolRewardPool",
								"label": "token",
								"offset": 0,
								"slot": "0",
								"type": "t_contract(IERC20)77"
							},
							{
								"astId": 996,
								"contract": "contracts/distribution/TShareRewardPool.sol:PolRewardPool",
								"label": "allocPoint",
								"offset": 0,
								"slot": "1",
								"type": "t_uint256"
							},
							{
								"astId": 998,
								"contract": "contracts/distribution/TShareRewardPool.sol:PolRewardPool",
								"label": "lastRewardTime",
								"offset": 0,
								"slot": "2",
								"type": "t_uint256"
							},
							{
								"astId": 1000,
								"contract": "contracts/distribution/TShareRewardPool.sol:PolRewardPool",
								"label": "accTSharePerShare",
								"offset": 0,
								"slot": "3",
								"type": "t_uint256"
							},
							{
								"astId": 1002,
								"contract": "contracts/distribution/TShareRewardPool.sol:PolRewardPool",
								"label": "isStarted",
								"offset": 0,
								"slot": "4",
								"type": "t_bool"
							}
						],
						"numberOfBytes": "160"
					},
					"t_struct(UserInfo)992_storage": {
						"encoding": "inplace",
						"label": "struct PolRewardPool.UserInfo",
						"members": [
							{
								"astId": 989,
								"contract": "contracts/distribution/TShareRewardPool.sol:PolRewardPool",
								"label": "amount",
								"offset": 0,
								"slot": "0",
								"type": "t_uint256"
							},
							{
								"astId": 991,
								"contract": "contracts/distribution/TShareRewardPool.sol:PolRewardPool",
								"label": "rewardDebt",
								"offset": 0,
								"slot": "1",
								"type": "t_uint256"
							}
						],
						"numberOfBytes": "64"
					},
					"t_uint256": {
						"encoding": "inplace",
						"label": "uint256",
						"numberOfBytes": "32"
					}
				}
			},
			"userdoc": {
				"kind": "user",
				"methods": {},
				"version": 1
			}
		}
	}
}