{
	"contracts/distribution/TombGenesisRewardPool.sol": {
		"PolyGenesisRewardPool": {
			"abi": [
				{
					"inputs": [
						{
							"internalType": "address",
							"name": "_Poly",
							"type": "address"
						},
						{
							"internalType": "uint256",
							"name": "_poolStartTime",
							"type": "uint256"
						}
					],
					"stateMutability": "nonpayable",
					"type": "constructor"
				},
				{
					"anonymous": false,
					"inputs": [
						{
							"indexed": true,
							"internalType": "address",
							"name": "user",
							"type": "address"
						},
						{
							"indexed": true,
							"internalType": "uint256",
							"name": "pid",
							"type": "uint256"
						},
						{
							"indexed": false,
							"internalType": "uint256",
							"name": "amount",
							"type": "uint256"
						}
					],
					"name": "Deposit",
					"type": "event"
				},
				{
					"anonymous": false,
					"inputs": [
						{
							"indexed": true,
							"internalType": "address",
							"name": "user",
							"type": "address"
						},
						{
							"indexed": true,
							"internalType": "uint256",
							"name": "pid",
							"type": "uint256"
						},
						{
							"indexed": false,
							"internalType": "uint256",
							"name": "amount",
							"type": "uint256"
						}
					],
					"name": "EmergencyWithdraw",
					"type": "event"
				},
				{
					"anonymous": false,
					"inputs": [
						{
							"indexed": true,
							"internalType": "address",
							"name": "previousOperator",
							"type": "address"
						},
						{
							"indexed": true,
							"internalType": "address",
							"name": "newOperator",
							"type": "address"
						}
					],
					"name": "OperatorTransferred",
					"type": "event"
				},
				{
					"anonymous": false,
					"inputs": [
						{
							"indexed": true,
							"internalType": "address",
							"name": "previousOwner",
							"type": "address"
						},
						{
							"indexed": true,
							"internalType": "address",
							"name": "newOwner",
							"type": "address"
						}
					],
					"name": "OwnershipTransferred",
					"type": "event"
				},
				{
					"anonymous": false,
					"inputs": [
						{
							"indexed": true,
							"internalType": "address",
							"name": "user",
							"type": "address"
						},
						{
							"indexed": false,
							"internalType": "uint256",
							"name": "amount",
							"type": "uint256"
						}
					],
					"name": "RewardPaid",
					"type": "event"
				},
				{
					"anonymous": false,
					"inputs": [
						{
							"indexed": true,
							"internalType": "address",
							"name": "user",
							"type": "address"
						},
						{
							"indexed": true,
							"internalType": "uint256",
							"name": "pid",
							"type": "uint256"
						},
						{
							"indexed": false,
							"internalType": "uint256",
							"name": "amount",
							"type": "uint256"
						}
					],
					"name": "Withdraw",
					"type": "event"
				},
				{
					"stateMutability": "payable",
					"type": "fallback"
				},
				{
					"inputs": [],
					"name": "Poly",
					"outputs": [
						{
							"internalType": "contract IERC20",
							"name": "",
							"type": "address"
						}
					],
					"stateMutability": "view",
					"type": "function"
				},
				{
					"inputs": [],
					"name": "PolyPerSecond",
					"outputs": [
						{
							"internalType": "uint256",
							"name": "",
							"type": "uint256"
						}
					],
					"stateMutability": "view",
					"type": "function"
				},
				{
					"inputs": [],
					"name": "TOTAL_REWARDS",
					"outputs": [
						{
							"internalType": "uint256",
							"name": "",
							"type": "uint256"
						}
					],
					"stateMutability": "view",
					"type": "function"
				},
				{
					"inputs": [
						{
							"internalType": "uint256",
							"name": "_allocPoint",
							"type": "uint256"
						},
						{
							"internalType": "contract IERC20",
							"name": "_token",
							"type": "address"
						},
						{
							"internalType": "bool",
							"name": "_withUpdate",
							"type": "bool"
						},
						{
							"internalType": "uint256",
							"name": "_lastRewardTime",
							"type": "uint256"
						}
					],
					"name": "add",
					"outputs": [],
					"stateMutability": "nonpayable",
					"type": "function"
				},
				{
					"inputs": [
						{
							"internalType": "uint256",
							"name": "_pid",
							"type": "uint256"
						},
						{
							"internalType": "uint256",
							"name": "_amount",
							"type": "uint256"
						}
					],
					"name": "deposit",
					"outputs": [],
					"stateMutability": "nonpayable",
					"type": "function"
				},
				{
					"inputs": [
						{
							"internalType": "uint256",
							"name": "_pid",
							"type": "uint256"
						}
					],
					"name": "emergencyWithdraw",
					"outputs": [],
					"stateMutability": "nonpayable",
					"type": "function"
				},
				{
					"inputs": [
						{
							"internalType": "uint256",
							"name": "_fromTime",
							"type": "uint256"
						},
						{
							"internalType": "uint256",
							"name": "_toTime",
							"type": "uint256"
						}
					],
					"name": "getGeneratedReward",
					"outputs": [
						{
							"internalType": "uint256",
							"name": "",
							"type": "uint256"
						}
					],
					"stateMutability": "view",
					"type": "function"
				},
				{
					"inputs": [
						{
							"internalType": "contract IERC20",
							"name": "_token",
							"type": "address"
						},
						{
							"internalType": "uint256",
							"name": "amount",
							"type": "uint256"
						},
						{
							"internalType": "address",
							"name": "to",
							"type": "address"
						}
					],
					"name": "governanceRecoverUnsupported",
					"outputs": [],
					"stateMutability": "nonpayable",
					"type": "function"
				},
				{
					"inputs": [],
					"name": "isInitialized",
					"outputs": [
						{
							"internalType": "bool",
							"name": "",
							"type": "bool"
						}
					],
					"stateMutability": "view",
					"type": "function"
				},
				{
					"inputs": [],
					"name": "isOperator",
					"outputs": [
						{
							"internalType": "bool",
							"name": "",
							"type": "bool"
						}
					],
					"stateMutability": "view",
					"type": "function"
				},
				{
					"inputs": [],
					"name": "massUpdatePools",
					"outputs": [],
					"stateMutability": "nonpayable",
					"type": "function"
				},
				{
					"inputs": [],
					"name": "operator",
					"outputs": [
						{
							"internalType": "address",
							"name": "",
							"type": "address"
						}
					],
					"stateMutability": "view",
					"type": "function"
				},
				{
					"inputs": [],
					"name": "owner",
					"outputs": [
						{
							"internalType": "address",
							"name": "",
							"type": "address"
						}
					],
					"stateMutability": "view",
					"type": "function"
				},
				{
					"inputs": [
						{
							"internalType": "uint256",
							"name": "_pid",
							"type": "uint256"
						},
						{
							"internalType": "address",
							"name": "_user",
							"type": "address"
						}
					],
					"name": "pendingStone",
					"outputs": [
						{
							"internalType": "uint256",
							"name": "",
							"type": "uint256"
						}
					],
					"stateMutability": "view",
					"type": "function"
				},
				{
					"inputs": [],
					"name": "poolEndTime",
					"outputs": [
						{
							"internalType": "uint256",
							"name": "",
							"type": "uint256"
						}
					],
					"stateMutability": "view",
					"type": "function"
				},
				{
					"inputs": [
						{
							"internalType": "uint256",
							"name": "",
							"type": "uint256"
						}
					],
					"name": "poolInfo",
					"outputs": [
						{
							"internalType": "contract IERC20",
							"name": "token",
							"type": "address"
						},
						{
							"internalType": "uint256",
							"name": "allocPoint",
							"type": "uint256"
						},
						{
							"internalType": "uint256",
							"name": "lastRewardTime",
							"type": "uint256"
						},
						{
							"internalType": "uint256",
							"name": "accStonePerShare",
							"type": "uint256"
						},
						{
							"internalType": "bool",
							"name": "isStarted",
							"type": "bool"
						}
					],
					"stateMutability": "view",
					"type": "function"
				},
				{
					"inputs": [],
					"name": "poolStartTime",
					"outputs": [
						{
							"internalType": "uint256",
							"name": "",
							"type": "uint256"
						}
					],
					"stateMutability": "view",
					"type": "function"
				},
				{
					"inputs": [],
					"name": "renounceOwnership",
					"outputs": [],
					"stateMutability": "nonpayable",
					"type": "function"
				},
				{
					"inputs": [],
					"name": "runningTime",
					"outputs": [
						{
							"internalType": "uint256",
							"name": "",
							"type": "uint256"
						}
					],
					"stateMutability": "view",
					"type": "function"
				},
				{
					"inputs": [
						{
							"internalType": "uint256",
							"name": "_pid",
							"type": "uint256"
						},
						{
							"internalType": "uint256",
							"name": "_allocPoint",
							"type": "uint256"
						}
					],
					"name": "set",
					"outputs": [],
					"stateMutability": "nonpayable",
					"type": "function"
				},
				{
					"inputs": [
						{
							"internalType": "address",
							"name": "_Newoperator",
							"type": "address"
						}
					],
					"name": "setOperator",
					"outputs": [],
					"stateMutability": "nonpayable",
					"type": "function"
				},
				{
					"inputs": [],
					"name": "totalAllocPoint",
					"outputs": [
						{
							"internalType": "uint256",
							"name": "",
							"type": "uint256"
						}
					],
					"stateMutability": "view",
					"type": "function"
				},
				{
					"inputs": [
						{
							"internalType": "address",
							"name": "newOperator_",
							"type": "address"
						}
					],
					"name": "transferOperator",
					"outputs": [],
					"stateMutability": "nonpayable",
					"type": "function"
				},
				{
					"inputs": [
						{
							"internalType": "address",
							"name": "newOperator_",
							"type": "address"
						}
					],
					"name": "transferOwnership",
					"outputs": [],
					"stateMutability": "nonpayable",
					"type": "function"
				},
				{
					"inputs": [
						{
							"internalType": "uint256",
							"name": "_pid",
							"type": "uint256"
						}
					],
					"name": "updatePool",
					"outputs": [],
					"stateMutability": "nonpayable",
					"type": "function"
				},
				{
					"inputs": [
						{
							"internalType": "uint256",
							"name": "",
							"type": "uint256"
						},
						{
							"internalType": "address",
							"name": "",
							"type": "address"
						}
					],
					"name": "userInfo",
					"outputs": [
						{
							"internalType": "uint256",
							"name": "amount",
							"type": "uint256"
						},
						{
							"internalType": "uint256",
							"name": "rewardDebt",
							"type": "uint256"
						}
					],
					"stateMutability": "view",
					"type": "function"
				},
				{
					"inputs": [
						{
							"internalType": "uint256",
							"name": "_pid",
							"type": "uint256"
						},
						{
							"internalType": "uint256",
							"name": "_amount",
							"type": "uint256"
						}
					],
					"name": "withdraw",
					"outputs": [],
					"stateMutability": "nonpayable",
					"type": "function"
				}
			],
			"devdoc": {
				"kind": "dev",
				"methods": {
					"owner()": {
						"details": "Returns the address of the current owner."
					},
					"renounceOwnership()": {
						"details": "Leaves the contract without owner. It will not be possible to call `onlyOwner` functions anymore. Can only be called by the current owner. NOTE: Renouncing ownership will leave the contract without an owner, thereby removing any functionality that is only available to the owner."
					}
				},
				"version": 1
			},
			"evm": {
				"assembly": "    /* \"contracts/distribution/TombGenesisRewardPool.sol\":464:11418  contract PolyGenesisRewardPool is Operator {\r... */\n  mstore(0x40, 0x80)\n    /* \"contracts/distribution/TombGenesisRewardPool.sol\":1347:1352  false */\n  0x00\n    /* \"contracts/distribution/TombGenesisRewardPool.sol\":1320:1352  bool private initialized = false */\n  0x05\n  exp(0x0100, 0x00)\n  dup2\n  sload\n  dup2\n  0xff\n  mul\n  not\n  and\n  swap1\n  dup4\n  iszero\n  iszero\n  mul\n  or\n  swap1\n  sstore\n  pop\n    /* \"contracts/distribution/TombGenesisRewardPool.sol\":1604:1605  0 */\n  0x00\n    /* \"contracts/distribution/TombGenesisRewardPool.sol\":1571:1605  uint256 public totalAllocPoint = 0 */\n  0x07\n  sstore\n    /* \"contracts/distribution/TombGenesisRewardPool.sol\":1815:1839  0.1446759259259259 ether */\n  0x0201fdfcf45d940c\n    /* \"contracts/distribution/TombGenesisRewardPool.sol\":1784:1839  uint256 public PolyPerSecond = 0.1446759259259259 ether */\n  0x0a\n  sstore\n    /* \"contracts/distribution/TombGenesisRewardPool.sol\":1911:1917  2 days */\n  0x02a300\n    /* \"contracts/distribution/TombGenesisRewardPool.sol\":1882:1917  uint256 public runningTime = 2 days */\n  0x0b\n  sstore\n    /* \"contracts/distribution/TombGenesisRewardPool.sol\":2590:2894  constructor(address _Poly, uint256 _poolStartTime) public {\r... */\n  callvalue\n  dup1\n  iszero\n  tag_1\n  jumpi\n  0x00\n  dup1\n  revert\ntag_1:\n  pop\n  mload(0x40)\n  sub(codesize, bytecodeSize)\n  dup1\n  bytecodeSize\n  dup4\n  codecopy\n  dup2\n  dup2\n  add\n  0x40\n  mstore\n  0x40\n  dup2\n  lt\n  iszero\n  tag_2\n  jumpi\n  0x00\n  dup1\n  revert\ntag_2:\n  dup2\n  add\n  swap1\n  dup1\n  dup1\n  mload\n  swap1\n  0x20\n  add\n  swap1\n  swap3\n  swap2\n  swap1\n  dup1\n  mload\n  swap1\n  0x20\n  add\n  swap1\n  swap3\n  swap2\n  swap1\n  pop\n  pop\n  pop\n    /* \"@openzeppelin/contracts/access/Ownable.sol\":938:955  address msgSender */\n  0x00\n    /* \"@openzeppelin/contracts/access/Ownable.sol\":958:970  _msgSender() */\n  tag_7\n    /* \"@openzeppelin/contracts/access/Ownable.sol\":958:968  _msgSender */\n  shl(0x20, tag_8)\n    /* \"@openzeppelin/contracts/access/Ownable.sol\":958:970  _msgSender() */\n  0x20\n  shr\n  jump\t// in\ntag_7:\n    /* \"@openzeppelin/contracts/access/Ownable.sol\":938:970  address msgSender = _msgSender() */\n  swap1\n  pop\n    /* \"@openzeppelin/contracts/access/Ownable.sol\":989:998  msgSender */\n  dup1\n    /* \"@openzeppelin/contracts/access/Ownable.sol\":980:986  _owner */\n  0x00\n  dup1\n    /* \"@openzeppelin/contracts/access/Ownable.sol\":980:998  _owner = msgSender */\n  0x0100\n  exp\n  dup2\n  sload\n  dup2\n  0xffffffffffffffffffffffffffffffffffffffff\n  mul\n  not\n  and\n  swap1\n  dup4\n  0xffffffffffffffffffffffffffffffffffffffff\n  and\n  mul\n  or\n  swap1\n  sstore\n  pop\n    /* \"@openzeppelin/contracts/access/Ownable.sol\":1046:1055  msgSender */\n  dup1\n    /* \"@openzeppelin/contracts/access/Ownable.sol\":1013:1056  OwnershipTransferred(address(0), msgSender) */\n  0xffffffffffffffffffffffffffffffffffffffff\n  and\n    /* \"@openzeppelin/contracts/access/Ownable.sol\":1042:1043  0 */\n  0x00\n    /* \"@openzeppelin/contracts/access/Ownable.sol\":1013:1056  OwnershipTransferred(address(0), msgSender) */\n  0xffffffffffffffffffffffffffffffffffffffff\n  and\n  0x8be0079c531659141344cd1fd0a4f28419497f9722a3daafe3b4186f6b6457e0\n  mload(0x40)\n  mload(0x40)\n  dup1\n  swap2\n  sub\n  swap1\n  log3\n    /* \"@openzeppelin/contracts/access/Ownable.sol\":904:1063  constructor () internal {... */\n  pop\n    /* \"contracts/owner/Operator.sol\":435:447  _msgSender() */\n  tag_10\n    /* \"contracts/owner/Operator.sol\":435:445  _msgSender */\n  shl(0x20, tag_8)\n    /* \"contracts/owner/Operator.sol\":435:447  _msgSender() */\n  0x20\n  shr\n  jump\t// in\ntag_10:\n    /* \"contracts/owner/Operator.sol\":423:432  _operator */\n  0x02\n  0x00\n    /* \"contracts/owner/Operator.sol\":423:447  _operator = _msgSender() */\n  0x0100\n  exp\n  dup2\n  sload\n  dup2\n  0xffffffffffffffffffffffffffffffffffffffff\n  mul\n  not\n  and\n  swap1\n  dup4\n  0xffffffffffffffffffffffffffffffffffffffff\n  and\n  mul\n  or\n  swap1\n  sstore\n  pop\n    /* \"contracts/owner/Operator.sol\":495:504  _operator */\n  0x02\n  0x00\n  swap1\n  sload\n  swap1\n  0x0100\n  exp\n  swap1\n  div\n  0xffffffffffffffffffffffffffffffffffffffff\n  and\n    /* \"contracts/owner/Operator.sol\":463:505  OperatorTransferred(address(0), _operator) */\n  0xffffffffffffffffffffffffffffffffffffffff\n  and\n    /* \"contracts/owner/Operator.sol\":491:492  0 */\n  0x00\n    /* \"contracts/owner/Operator.sol\":463:505  OperatorTransferred(address(0), _operator) */\n  0xffffffffffffffffffffffffffffffffffffffff\n  and\n  0x74da04524d50c64947f5dd5381ef1a4dca5cba8ed1d816243f9e48aa0b5617ed\n  mload(0x40)\n  mload(0x40)\n  dup1\n  swap2\n  sub\n  swap1\n  log3\n    /* \"contracts/distribution/TombGenesisRewardPool.sol\":2685:2699  _poolStartTime */\n  dup1\n    /* \"contracts/distribution/TombGenesisRewardPool.sol\":2667:2682  block.timestamp */\n  timestamp\n    /* \"contracts/distribution/TombGenesisRewardPool.sol\":2667:2699  block.timestamp < _poolStartTime */\n  lt\n    /* \"contracts/distribution/TombGenesisRewardPool.sol\":2659:2708  require(block.timestamp < _poolStartTime, \"late\") */\n  tag_12\n  jumpi\n  mload(0x40)\n  0x08c379a000000000000000000000000000000000000000000000000000000000\n  dup2\n  mstore\n  0x04\n  add\n  dup1\n  dup1\n  0x20\n  add\n  dup3\n  dup2\n  sub\n  dup3\n  mstore\n  0x04\n  dup2\n  mstore\n  0x20\n  add\n  dup1\n  0x6c61746500000000000000000000000000000000000000000000000000000000\n  dup2\n  mstore\n  pop\n  0x20\n  add\n  swap2\n  pop\n  pop\n  mload(0x40)\n  dup1\n  swap2\n  sub\n  swap1\n  revert\ntag_12:\n    /* \"contracts/distribution/TombGenesisRewardPool.sol\":2740:2741  0 */\n  0x00\n    /* \"contracts/distribution/TombGenesisRewardPool.sol\":2723:2742  _Poly != address(0) */\n  0xffffffffffffffffffffffffffffffffffffffff\n  and\n    /* \"contracts/distribution/TombGenesisRewardPool.sol\":2723:2728  _Poly */\n  dup3\n    /* \"contracts/distribution/TombGenesisRewardPool.sol\":2723:2742  _Poly != address(0) */\n  0xffffffffffffffffffffffffffffffffffffffff\n  and\n  eq\n    /* \"contracts/distribution/TombGenesisRewardPool.sol\":2719:2764  if (_Poly != address(0)) Poly = IERC20(_Poly) */\n  tag_13\n  jumpi\n    /* \"contracts/distribution/TombGenesisRewardPool.sol\":2758:2763  _Poly */\n  dup2\n    /* \"contracts/distribution/TombGenesisRewardPool.sol\":2744:2748  Poly */\n  0x03\n  0x00\n    /* \"contracts/distribution/TombGenesisRewardPool.sol\":2744:2764  Poly = IERC20(_Poly) */\n  0x0100\n  exp\n  dup2\n  sload\n  dup2\n  0xffffffffffffffffffffffffffffffffffffffff\n  mul\n  not\n  and\n  swap1\n  dup4\n  0xffffffffffffffffffffffffffffffffffffffff\n  and\n  mul\n  or\n  swap1\n  sstore\n  pop\n    /* \"contracts/distribution/TombGenesisRewardPool.sol\":2719:2764  if (_Poly != address(0)) Poly = IERC20(_Poly) */\ntag_13:\n    /* \"contracts/distribution/TombGenesisRewardPool.sol\":2791:2805  _poolStartTime */\n  dup1\n    /* \"contracts/distribution/TombGenesisRewardPool.sol\":2775:2788  poolStartTime */\n  0x08\n    /* \"contracts/distribution/TombGenesisRewardPool.sol\":2775:2805  poolStartTime = _poolStartTime */\n  dup2\n  swap1\n  sstore\n  pop\n    /* \"contracts/distribution/TombGenesisRewardPool.sol\":2846:2857  runningTime */\n  sload(0x0b)\n    /* \"contracts/distribution/TombGenesisRewardPool.sol\":2830:2843  poolStartTime */\n  sload(0x08)\n    /* \"contracts/distribution/TombGenesisRewardPool.sol\":2830:2857  poolStartTime + runningTime */\n  add\n    /* \"contracts/distribution/TombGenesisRewardPool.sol\":2816:2827  poolEndTime */\n  0x09\n    /* \"contracts/distribution/TombGenesisRewardPool.sol\":2816:2857  poolEndTime = poolStartTime + runningTime */\n  dup2\n  swap1\n  sstore\n  pop\n    /* \"contracts/distribution/TombGenesisRewardPool.sol\":2882:2886  true */\n  0x01\n    /* \"contracts/distribution/TombGenesisRewardPool.sol\":2868:2879  initialized */\n  0x05\n  0x00\n    /* \"contracts/distribution/TombGenesisRewardPool.sol\":2868:2886  initialized = true */\n  0x0100\n  exp\n  dup2\n  sload\n  dup2\n  0xff\n  mul\n  not\n  and\n  swap1\n  dup4\n  iszero\n  iszero\n  mul\n  or\n  swap1\n  sstore\n  pop\n    /* \"contracts/distribution/TombGenesisRewardPool.sol\":2590:2894  constructor(address _Poly, uint256 _poolStartTime) public {\r... */\n  pop\n  pop\n    /* \"contracts/distribution/TombGenesisRewardPool.sol\":464:11418  contract PolyGenesisRewardPool is Operator {\r... */\n  jump(tag_14)\n    /* \"@openzeppelin/contracts/utils/Context.sol\":596:692  function _msgSender() internal view virtual returns (address) {... */\ntag_8:\n    /* \"@openzeppelin/contracts/utils/Context.sol\":649:656  address */\n  0x00\n    /* \"@openzeppelin/contracts/utils/Context.sol\":675:685  msg.sender */\n  caller\n    /* \"@openzeppelin/contracts/utils/Context.sol\":668:685  return msg.sender */\n  swap1\n  pop\n    /* \"@openzeppelin/contracts/utils/Context.sol\":596:692  function _msgSender() internal view virtual returns (address) {... */\n  swap1\n  jump\t// out\n    /* \"contracts/distribution/TombGenesisRewardPool.sol\":464:11418  contract PolyGenesisRewardPool is Operator {\r... */\ntag_14:\n  dataSize(sub_0)\n  dup1\n  dataOffset(sub_0)\n  0x00\n  codecopy\n  0x00\n  return\nstop\n\nsub_0: assembly {\n        /* \"contracts/distribution/TombGenesisRewardPool.sol\":464:11418  contract PolyGenesisRewardPool is Operator {\r... */\n      mstore(0x40, 0x80)\n      jumpi(tag_1, lt(calldatasize, 0x04))\n      shr(0xe0, calldataload(0x00))\n      dup1\n      0x570ca735\n      gt\n      tag_30\n      jumpi\n      dup1\n      0x943f013d\n      gt\n      tag_31\n      jumpi\n      dup1\n      0xe177bb38\n      gt\n      tag_32\n      jumpi\n      dup1\n      0xe177bb38\n      eq\n      tag_26\n      jumpi\n      dup1\n      0xe2bbb158\n      eq\n      tag_27\n      jumpi\n      dup1\n      0xecf4deb9\n      eq\n      tag_28\n      jumpi\n      dup1\n      0xf2fde38b\n      eq\n      tag_29\n      jumpi\n      jump(tag_2)\n    tag_32:\n      dup1\n      0x943f013d\n      eq\n      tag_23\n      jumpi\n      dup1\n      0x96805e54\n      eq\n      tag_24\n      jumpi\n      dup1\n      0xb3ab15fb\n      eq\n      tag_25\n      jumpi\n      jump(tag_2)\n    tag_31:\n      dup1\n      0x6e271dd5\n      gt\n      tag_33\n      jumpi\n      dup1\n      0x6e271dd5\n      eq\n      tag_19\n      jumpi\n      dup1\n      0x715018a6\n      eq\n      tag_20\n      jumpi\n      dup1\n      0x8da5cb5b\n      eq\n      tag_21\n      jumpi\n      dup1\n      0x93f1a40b\n      eq\n      tag_22\n      jumpi\n      jump(tag_2)\n    tag_33:\n      dup1\n      0x570ca735\n      eq\n      tag_16\n      jumpi\n      dup1\n      0x5f96dc11\n      eq\n      tag_17\n      jumpi\n      dup1\n      0x630b5ba1\n      eq\n      tag_18\n      jumpi\n      jump(tag_2)\n    tag_30:\n      dup1\n      0x392e53cd\n      gt\n      tag_34\n      jumpi\n      dup1\n      0x4456eda2\n      gt\n      tag_35\n      jumpi\n      dup1\n      0x4456eda2\n      eq\n      tag_12\n      jumpi\n      dup1\n      0x51eb05a6\n      eq\n      tag_13\n      jumpi\n      dup1\n      0x5312ea8e\n      eq\n      tag_14\n      jumpi\n      dup1\n      0x54575af4\n      eq\n      tag_15\n      jumpi\n      jump(tag_2)\n    tag_35:\n      dup1\n      0x392e53cd\n      eq\n      tag_9\n      jumpi\n      dup1\n      0x3f7caf52\n      eq\n      tag_10\n      jumpi\n      dup1\n      0x441a3e70\n      eq\n      tag_11\n      jumpi\n      jump(tag_2)\n    tag_34:\n      dup1\n      0x09cf6091\n      eq\n      tag_3\n      jumpi\n      dup1\n      0x1526fe27\n      eq\n      tag_4\n      jumpi\n      dup1\n      0x17caf6f1\n      eq\n      tag_5\n      jumpi\n      dup1\n      0x1ab06ee5\n      eq\n      tag_6\n      jumpi\n      dup1\n      0x231f0c6a\n      eq\n      tag_7\n      jumpi\n      dup1\n      0x29605e77\n      eq\n      tag_8\n      jumpi\n      jump(tag_2)\n    tag_1:\n    tag_2:\n        /* \"@openzeppelin/contracts/access/Ownable.sol\":3131:3144  address _impl */\n      0x00\n        /* \"@openzeppelin/contracts/access/Ownable.sol\":3147:3158  Ownership() */\n      tag_38\n        /* \"@openzeppelin/contracts/access/Ownable.sol\":3147:3156  Ownership */\n      tag_39\n        /* \"@openzeppelin/contracts/access/Ownable.sol\":3147:3158  Ownership() */\n      jump\t// in\n    tag_38:\n        /* \"@openzeppelin/contracts/access/Ownable.sol\":3131:3158  address _impl = Ownership() */\n      swap1\n      pop\n        /* \"@openzeppelin/contracts/access/Ownable.sol\":3193:3194  0 */\n      0x00\n        /* \"@openzeppelin/contracts/access/Ownable.sol\":3176:3195  _impl != address(0) */\n      0xffffffffffffffffffffffffffffffffffffffff\n      and\n        /* \"@openzeppelin/contracts/access/Ownable.sol\":3176:3181  _impl */\n      dup2\n        /* \"@openzeppelin/contracts/access/Ownable.sol\":3176:3195  _impl != address(0) */\n      0xffffffffffffffffffffffffffffffffffffffff\n      and\n      eq\n      iszero\n        /* \"@openzeppelin/contracts/access/Ownable.sol\":3168:3196  require(_impl != address(0)) */\n      tag_40\n      jumpi\n      0x00\n      dup1\n      revert\n    tag_40:\n        /* \"@openzeppelin/contracts/access/Ownable.sol\":3246:3250  0x40 */\n      0x40\n        /* \"@openzeppelin/contracts/access/Ownable.sol\":3240:3251  mload(0x40) */\n      mload\n        /* \"@openzeppelin/contracts/access/Ownable.sol\":3285:3299  calldatasize() */\n      calldatasize\n        /* \"@openzeppelin/contracts/access/Ownable.sol\":3282:3283  0 */\n      0x00\n        /* \"@openzeppelin/contracts/access/Ownable.sol\":3277:3280  ptr */\n      dup3\n        /* \"@openzeppelin/contracts/access/Ownable.sol\":3264:3300  calldatacopy(ptr, 0, calldatasize()) */\n      calldatacopy\n        /* \"@openzeppelin/contracts/access/Ownable.sol\":3378:3379  0 */\n      0x00\n        /* \"@openzeppelin/contracts/access/Ownable.sol\":3375:3376  0 */\n      dup1\n        /* \"@openzeppelin/contracts/access/Ownable.sol\":3359:3373  calldatasize() */\n      calldatasize\n        /* \"@openzeppelin/contracts/access/Ownable.sol\":3354:3357  ptr */\n      dup4\n        /* \"@openzeppelin/contracts/access/Ownable.sol\":3347:3352  _impl */\n      dup6\n        /* \"@openzeppelin/contracts/access/Ownable.sol\":3340:3345  gas() */\n      gas\n        /* \"@openzeppelin/contracts/access/Ownable.sol\":3327:3380  delegatecall(gas(), _impl, ptr, calldatasize(), 0, 0) */\n      delegatecall\n        /* \"@openzeppelin/contracts/access/Ownable.sol\":3415:3431  returndatasize() */\n      returndatasize\n        /* \"@openzeppelin/contracts/access/Ownable.sol\":3410:3413  ptr */\n      dup3\n        /* \"@openzeppelin/contracts/access/Ownable.sol\":3406:3432  add(ptr, returndatasize()) */\n      add\n        /* \"@openzeppelin/contracts/access/Ownable.sol\":3400:3404  0x40 */\n      0x40\n        /* \"@openzeppelin/contracts/access/Ownable.sol\":3393:3433  mstore(0x40, add(ptr, returndatasize())) */\n      mstore\n        /* \"@openzeppelin/contracts/access/Ownable.sol\":3469:3485  returndatasize() */\n      returndatasize\n        /* \"@openzeppelin/contracts/access/Ownable.sol\":3466:3467  0 */\n      0x00\n        /* \"@openzeppelin/contracts/access/Ownable.sol\":3461:3464  ptr */\n      dup4\n        /* \"@openzeppelin/contracts/access/Ownable.sol\":3446:3486  returndatacopy(ptr, 0, returndatasize()) */\n      returndatacopy\n        /* \"@openzeppelin/contracts/access/Ownable.sol\":3506:3512  result */\n      dup1\n        /* \"@openzeppelin/contracts/access/Ownable.sol\":3530:3531  0 */\n      0x00\n        /* \"@openzeppelin/contracts/access/Ownable.sol\":3525:3593  case 0 {... */\n      dup2\n      eq\n      tag_42\n      jumpi\n        /* \"@openzeppelin/contracts/access/Ownable.sol\":3644:3660  returndatasize() */\n      returndatasize\n        /* \"@openzeppelin/contracts/access/Ownable.sol\":3639:3642  ptr */\n      dup4\n        /* \"@openzeppelin/contracts/access/Ownable.sol\":3632:3661  return(ptr, returndatasize()) */\n      return\n        /* \"@openzeppelin/contracts/access/Ownable.sol\":3525:3593  case 0 {... */\n    tag_42:\n        /* \"@openzeppelin/contracts/access/Ownable.sol\":3562:3578  returndatasize() */\n      returndatasize\n        /* \"@openzeppelin/contracts/access/Ownable.sol\":3557:3560  ptr */\n      dup4\n        /* \"@openzeppelin/contracts/access/Ownable.sol\":3550:3579  revert(ptr, returndatasize()) */\n      revert\n        /* \"contracts/distribution/TombGenesisRewardPool.sol\":1934:1985  uint256 public constant TOTAL_REWARDS = 25000 ether */\n    tag_3:\n      callvalue\n      dup1\n      iszero\n      tag_43\n      jumpi\n      0x00\n      dup1\n      revert\n    tag_43:\n      pop\n      tag_44\n      tag_45\n      jump\t// in\n    tag_44:\n      mload(0x40)\n      dup1\n      dup3\n      dup2\n      mstore\n      0x20\n      add\n      swap2\n      pop\n      pop\n      mload(0x40)\n      dup1\n      swap2\n      sub\n      swap1\n      return\n        /* \"contracts/distribution/TombGenesisRewardPool.sol\":1271:1297  PoolInfo[] public poolInfo */\n    tag_4:\n      callvalue\n      dup1\n      iszero\n      tag_46\n      jumpi\n      0x00\n      dup1\n      revert\n    tag_46:\n      pop\n      tag_47\n      0x04\n      dup1\n      calldatasize\n      sub\n      0x20\n      dup2\n      lt\n      iszero\n      tag_48\n      jumpi\n      0x00\n      dup1\n      revert\n    tag_48:\n      dup2\n      add\n      swap1\n      dup1\n      dup1\n      calldataload\n      swap1\n      0x20\n      add\n      swap1\n      swap3\n      swap2\n      swap1\n      pop\n      pop\n      pop\n      tag_49\n      jump\t// in\n    tag_47:\n      mload(0x40)\n      dup1\n      dup7\n      0xffffffffffffffffffffffffffffffffffffffff\n      and\n      dup2\n      mstore\n      0x20\n      add\n      dup6\n      dup2\n      mstore\n      0x20\n      add\n      dup5\n      dup2\n      mstore\n      0x20\n      add\n      dup4\n      dup2\n      mstore\n      0x20\n      add\n      dup3\n      iszero\n      iszero\n      dup2\n      mstore\n      0x20\n      add\n      swap6\n      pop\n      pop\n      pop\n      pop\n      pop\n      pop\n      mload(0x40)\n      dup1\n      swap2\n      sub\n      swap1\n      return\n        /* \"contracts/distribution/TombGenesisRewardPool.sol\":1571:1605  uint256 public totalAllocPoint = 0 */\n    tag_5:\n      callvalue\n      dup1\n      iszero\n      tag_50\n      jumpi\n      0x00\n      dup1\n      revert\n    tag_50:\n      pop\n      tag_51\n      tag_52\n      jump\t// in\n    tag_51:\n      mload(0x40)\n      dup1\n      dup3\n      dup2\n      mstore\n      0x20\n      add\n      swap2\n      pop\n      pop\n      mload(0x40)\n      dup1\n      swap2\n      sub\n      swap1\n      return\n        /* \"contracts/distribution/TombGenesisRewardPool.sol\":4616:4969  function set(uint256 _pid, uint256 _allocPoint) public onlyOperator {\r... */\n    tag_6:\n      callvalue\n      dup1\n      iszero\n      tag_53\n      jumpi\n      0x00\n      dup1\n      revert\n    tag_53:\n      pop\n      tag_54\n      0x04\n      dup1\n      calldatasize\n      sub\n      0x40\n      dup2\n      lt\n      iszero\n      tag_55\n      jumpi\n      0x00\n      dup1\n      revert\n    tag_55:\n      dup2\n      add\n      swap1\n      dup1\n      dup1\n      calldataload\n      swap1\n      0x20\n      add\n      swap1\n      swap3\n      swap2\n      swap1\n      dup1\n      calldataload\n      swap1\n      0x20\n      add\n      swap1\n      swap3\n      swap2\n      swap1\n      pop\n      pop\n      pop\n      tag_56\n      jump\t// in\n    tag_54:\n      stop\n        /* \"contracts/distribution/TombGenesisRewardPool.sol\":5046:5699  function getGeneratedReward(uint256 _fromTime, uint256 _toTime) public view returns (uint256) {\r... */\n    tag_7:\n      callvalue\n      dup1\n      iszero\n      tag_57\n      jumpi\n      0x00\n      dup1\n      revert\n    tag_57:\n      pop\n      tag_58\n      0x04\n      dup1\n      calldatasize\n      sub\n      0x40\n      dup2\n      lt\n      iszero\n      tag_59\n      jumpi\n      0x00\n      dup1\n      revert\n    tag_59:\n      dup2\n      add\n      swap1\n      dup1\n      dup1\n      calldataload\n      swap1\n      0x20\n      add\n      swap1\n      swap3\n      swap2\n      swap1\n      dup1\n      calldataload\n      swap1\n      0x20\n      add\n      swap1\n      swap3\n      swap2\n      swap1\n      pop\n      pop\n      pop\n      tag_60\n      jump\t// in\n    tag_58:\n      mload(0x40)\n      dup1\n      dup3\n      dup2\n      mstore\n      0x20\n      add\n      swap2\n      pop\n      pop\n      mload(0x40)\n      dup1\n      swap2\n      sub\n      swap1\n      return\n        /* \"contracts/owner/Operator.sol\":894:1009  function transferOperator(address newOperator_) public onlyOwner {\r... */\n    tag_8:\n      callvalue\n      dup1\n      iszero\n      tag_61\n      jumpi\n      0x00\n      dup1\n      revert\n    tag_61:\n      pop\n      tag_62\n      0x04\n      dup1\n      calldatasize\n      sub\n      0x20\n      dup2\n      lt\n      iszero\n      tag_63\n      jumpi\n      0x00\n      dup1\n      revert\n    tag_63:\n      dup2\n      add\n      swap1\n      dup1\n      dup1\n      calldataload\n      0xffffffffffffffffffffffffffffffffffffffff\n      and\n      swap1\n      0x20\n      add\n      swap1\n      swap3\n      swap2\n      swap1\n      pop\n      pop\n      pop\n      tag_64\n      jump\t// in\n    tag_62:\n      stop\n        /* \"contracts/distribution/TombGenesisRewardPool.sol\":2493:2582  function isInitialized() public view returns (bool) {\r... */\n    tag_9:\n      callvalue\n      dup1\n      iszero\n      tag_65\n      jumpi\n      0x00\n      dup1\n      revert\n    tag_65:\n      pop\n      tag_66\n      tag_67\n      jump\t// in\n    tag_66:\n      mload(0x40)\n      dup1\n      dup3\n      iszero\n      iszero\n      dup2\n      mstore\n      0x20\n      add\n      swap2\n      pop\n      pop\n      mload(0x40)\n      dup1\n      swap2\n      sub\n      swap1\n      return\n        /* \"contracts/distribution/TombGenesisRewardPool.sol\":1784:1839  uint256 public PolyPerSecond = 0.1446759259259259 ether */\n    tag_10:\n      callvalue\n      dup1\n      iszero\n      tag_68\n      jumpi\n      0x00\n      dup1\n      revert\n    tag_68:\n      pop\n      tag_69\n      tag_70\n      jump\t// in\n    tag_69:\n      mload(0x40)\n      dup1\n      dup3\n      dup2\n      mstore\n      0x20\n      add\n      swap2\n      pop\n      pop\n      mload(0x40)\n      dup1\n      swap2\n      sub\n      swap1\n      return\n        /* \"contracts/distribution/TombGenesisRewardPool.sol\":8942:9754  function withdraw(uint256 _pid, uint256 _amount) public {\r... */\n    tag_11:\n      callvalue\n      dup1\n      iszero\n      tag_71\n      jumpi\n      0x00\n      dup1\n      revert\n    tag_71:\n      pop\n      tag_72\n      0x04\n      dup1\n      calldatasize\n      sub\n      0x40\n      dup2\n      lt\n      iszero\n      tag_73\n      jumpi\n      0x00\n      dup1\n      revert\n    tag_73:\n      dup2\n      add\n      swap1\n      dup1\n      dup1\n      calldataload\n      swap1\n      0x20\n      add\n      swap1\n      swap3\n      swap2\n      swap1\n      dup1\n      calldataload\n      swap1\n      0x20\n      add\n      swap1\n      swap3\n      swap2\n      swap1\n      pop\n      pop\n      pop\n      tag_74\n      jump\t// in\n    tag_72:\n      stop\n        /* \"contracts/owner/Operator.sol\":786:886  function isOperator() public view returns (bool) {\r... */\n    tag_12:\n      callvalue\n      dup1\n      iszero\n      tag_75\n      jumpi\n      0x00\n      dup1\n      revert\n    tag_75:\n      pop\n      tag_76\n      tag_77\n      jump\t// in\n    tag_76:\n      mload(0x40)\n      dup1\n      dup3\n      iszero\n      iszero\n      dup2\n      mstore\n      0x20\n      add\n      swap2\n      pop\n      pop\n      mload(0x40)\n      dup1\n      swap2\n      sub\n      swap1\n      return\n        /* \"contracts/distribution/TombGenesisRewardPool.sol\":6878:7788  function updatePool(uint256 _pid) public {\r... */\n    tag_13:\n      callvalue\n      dup1\n      iszero\n      tag_78\n      jumpi\n      0x00\n      dup1\n      revert\n    tag_78:\n      pop\n      tag_79\n      0x04\n      dup1\n      calldatasize\n      sub\n      0x20\n      dup2\n      lt\n      iszero\n      tag_80\n      jumpi\n      0x00\n      dup1\n      revert\n    tag_80:\n      dup2\n      add\n      swap1\n      dup1\n      dup1\n      calldataload\n      swap1\n      0x20\n      add\n      swap1\n      swap3\n      swap2\n      swap1\n      pop\n      pop\n      pop\n      tag_81\n      jump\t// in\n    tag_79:\n      stop\n        /* \"contracts/distribution/TombGenesisRewardPool.sol\":9825:10202  function emergencyWithdraw(uint256 _pid) public {\r... */\n    tag_14:\n      callvalue\n      dup1\n      iszero\n      tag_82\n      jumpi\n      0x00\n      dup1\n      revert\n    tag_82:\n      pop\n      tag_83\n      0x04\n      dup1\n      calldatasize\n      sub\n      0x20\n      dup2\n      lt\n      iszero\n      tag_84\n      jumpi\n      0x00\n      dup1\n      revert\n    tag_84:\n      dup2\n      add\n      swap1\n      dup1\n      dup1\n      calldataload\n      swap1\n      0x20\n      add\n      swap1\n      swap3\n      swap2\n      swap1\n      pop\n      pop\n      pop\n      tag_85\n      jump\t// in\n    tag_83:\n      stop\n        /* \"contracts/distribution/TombGenesisRewardPool.sol\":10811:11415  function governanceRecoverUnsupported(IERC20 _token, uint256 amount, address to) external onlyOperator {\r... */\n    tag_15:\n      callvalue\n      dup1\n      iszero\n      tag_86\n      jumpi\n      0x00\n      dup1\n      revert\n    tag_86:\n      pop\n      tag_87\n      0x04\n      dup1\n      calldatasize\n      sub\n      0x60\n      dup2\n      lt\n      iszero\n      tag_88\n      jumpi\n      0x00\n      dup1\n      revert\n    tag_88:\n      dup2\n      add\n      swap1\n      dup1\n      dup1\n      calldataload\n      0xffffffffffffffffffffffffffffffffffffffff\n      and\n      swap1\n      0x20\n      add\n      swap1\n      swap3\n      swap2\n      swap1\n      dup1\n      calldataload\n      swap1\n      0x20\n      add\n      swap1\n      swap3\n      swap2\n      swap1\n      dup1\n      calldataload\n      0xffffffffffffffffffffffffffffffffffffffff\n      and\n      swap1\n      0x20\n      add\n      swap1\n      swap3\n      swap2\n      swap1\n      pop\n      pop\n      pop\n      tag_89\n      jump\t// in\n    tag_87:\n      stop\n        /* \"contracts/owner/Operator.sol\":521:606  function operator() public view returns (address) {\r... */\n    tag_16:\n      callvalue\n      dup1\n      iszero\n      tag_90\n      jumpi\n      0x00\n      dup1\n      revert\n    tag_90:\n      pop\n      tag_91\n      tag_92\n      jump\t// in\n    tag_91:\n      mload(0x40)\n      dup1\n      dup3\n      0xffffffffffffffffffffffffffffffffffffffff\n      and\n      dup2\n      mstore\n      0x20\n      add\n      swap2\n      pop\n      pop\n      mload(0x40)\n      dup1\n      swap2\n      sub\n      swap1\n      return\n        /* \"contracts/distribution/TombGenesisRewardPool.sol\":1656:1684  uint256 public poolStartTime */\n    tag_17:\n      callvalue\n      dup1\n      iszero\n      tag_93\n      jumpi\n      0x00\n      dup1\n      revert\n    tag_93:\n      pop\n      tag_94\n      tag_95\n      jump\t// in\n    tag_94:\n      mload(0x40)\n      dup1\n      dup3\n      dup2\n      mstore\n      0x20\n      add\n      swap2\n      pop\n      pop\n      mload(0x40)\n      dup1\n      swap2\n      sub\n      swap1\n      return\n        /* \"contracts/distribution/TombGenesisRewardPool.sol\":6622:6802  function massUpdatePools() public {\r... */\n    tag_18:\n      callvalue\n      dup1\n      iszero\n      tag_96\n      jumpi\n      0x00\n      dup1\n      revert\n    tag_96:\n      pop\n      tag_97\n      tag_98\n      jump\t// in\n    tag_97:\n      stop\n        /* \"contracts/distribution/TombGenesisRewardPool.sol\":1733:1759  uint256 public poolEndTime */\n    tag_19:\n      callvalue\n      dup1\n      iszero\n      tag_99\n      jumpi\n      0x00\n      dup1\n      revert\n    tag_99:\n      pop\n      tag_100\n      tag_101\n      jump\t// in\n    tag_100:\n      mload(0x40)\n      dup1\n      dup3\n      dup2\n      mstore\n      0x20\n      add\n      swap2\n      pop\n      pop\n      mload(0x40)\n      dup1\n      swap2\n      sub\n      swap1\n      return\n        /* \"@openzeppelin/contracts/access/Ownable.sol\":1771:1916  function renounceOwnership() public virtual onlyOwner {... */\n    tag_20:\n      callvalue\n      dup1\n      iszero\n      tag_102\n      jumpi\n      0x00\n      dup1\n      revert\n    tag_102:\n      pop\n      tag_103\n      tag_104\n      jump\t// in\n    tag_103:\n      stop\n        /* \"@openzeppelin/contracts/access/Ownable.sol\":1139:1224  function owner() public view virtual returns (address) {... */\n    tag_21:\n      callvalue\n      dup1\n      iszero\n      tag_105\n      jumpi\n      0x00\n      dup1\n      revert\n    tag_105:\n      pop\n      tag_106\n      tag_107\n      jump\t// in\n    tag_106:\n      mload(0x40)\n      dup1\n      dup3\n      0xffffffffffffffffffffffffffffffffffffffff\n      and\n      dup2\n      mstore\n      0x20\n      add\n      swap2\n      pop\n      pop\n      mload(0x40)\n      dup1\n      swap2\n      sub\n      swap1\n      return\n        /* \"contracts/distribution/TombGenesisRewardPool.sol\":1410:1474  mapping(uint256 => mapping(address => UserInfo)) public userInfo */\n    tag_22:\n      callvalue\n      dup1\n      iszero\n      tag_108\n      jumpi\n      0x00\n      dup1\n      revert\n    tag_108:\n      pop\n      tag_109\n      0x04\n      dup1\n      calldatasize\n      sub\n      0x40\n      dup2\n      lt\n      iszero\n      tag_110\n      jumpi\n      0x00\n      dup1\n      revert\n    tag_110:\n      dup2\n      add\n      swap1\n      dup1\n      dup1\n      calldataload\n      swap1\n      0x20\n      add\n      swap1\n      swap3\n      swap2\n      swap1\n      dup1\n      calldataload\n      0xffffffffffffffffffffffffffffffffffffffff\n      and\n      swap1\n      0x20\n      add\n      swap1\n      swap3\n      swap2\n      swap1\n      pop\n      pop\n      pop\n      tag_111\n      jump\t// in\n    tag_109:\n      mload(0x40)\n      dup1\n      dup4\n      dup2\n      mstore\n      0x20\n      add\n      dup3\n      dup2\n      mstore\n      0x20\n      add\n      swap3\n      pop\n      pop\n      pop\n      mload(0x40)\n      dup1\n      swap2\n      sub\n      swap1\n      return\n        /* \"contracts/distribution/TombGenesisRewardPool.sol\":1882:1917  uint256 public runningTime = 2 days */\n    tag_23:\n      callvalue\n      dup1\n      iszero\n      tag_112\n      jumpi\n      0x00\n      dup1\n      revert\n    tag_112:\n      pop\n      tag_113\n      tag_114\n      jump\t// in\n    tag_113:\n      mload(0x40)\n      dup1\n      dup3\n      dup2\n      mstore\n      0x20\n      add\n      swap2\n      pop\n      pop\n      mload(0x40)\n      dup1\n      swap2\n      sub\n      swap1\n      return\n        /* \"contracts/distribution/TombGenesisRewardPool.sol\":3243:4520  function add(\r... */\n    tag_24:\n      callvalue\n      dup1\n      iszero\n      tag_115\n      jumpi\n      0x00\n      dup1\n      revert\n    tag_115:\n      pop\n      tag_116\n      0x04\n      dup1\n      calldatasize\n      sub\n      0x80\n      dup2\n      lt\n      iszero\n      tag_117\n      jumpi\n      0x00\n      dup1\n      revert\n    tag_117:\n      dup2\n      add\n      swap1\n      dup1\n      dup1\n      calldataload\n      swap1\n      0x20\n      add\n      swap1\n      swap3\n      swap2\n      swap1\n      dup1\n      calldataload\n      0xffffffffffffffffffffffffffffffffffffffff\n      and\n      swap1\n      0x20\n      add\n      swap1\n      swap3\n      swap2\n      swap1\n      dup1\n      calldataload\n      iszero\n      iszero\n      swap1\n      0x20\n      add\n      swap1\n      swap3\n      swap2\n      swap1\n      dup1\n      calldataload\n      swap1\n      0x20\n      add\n      swap1\n      swap3\n      swap2\n      swap1\n      pop\n      pop\n      pop\n      tag_118\n      jump\t// in\n    tag_116:\n      stop\n        /* \"contracts/distribution/TombGenesisRewardPool.sol\":10689:10803  function setOperator(address _Newoperator) external onlyOperator {\r... */\n    tag_25:\n      callvalue\n      dup1\n      iszero\n      tag_119\n      jumpi\n      0x00\n      dup1\n      revert\n    tag_119:\n      pop\n      tag_120\n      0x04\n      dup1\n      calldatasize\n      sub\n      0x20\n      dup2\n      lt\n      iszero\n      tag_121\n      jumpi\n      0x00\n      dup1\n      revert\n    tag_121:\n      dup2\n      add\n      swap1\n      dup1\n      dup1\n      calldataload\n      0xffffffffffffffffffffffffffffffffffffffff\n      and\n      swap1\n      0x20\n      add\n      swap1\n      swap3\n      swap2\n      swap1\n      pop\n      pop\n      pop\n      tag_122\n      jump\t// in\n    tag_120:\n      stop\n        /* \"contracts/distribution/TombGenesisRewardPool.sol\":1217:1235  IERC20 public Poly */\n    tag_26:\n      callvalue\n      dup1\n      iszero\n      tag_123\n      jumpi\n      0x00\n      dup1\n      revert\n    tag_123:\n      pop\n      tag_124\n      tag_125\n      jump\t// in\n    tag_124:\n      mload(0x40)\n      dup1\n      dup3\n      0xffffffffffffffffffffffffffffffffffffffff\n      and\n      dup2\n      mstore\n      0x20\n      add\n      swap2\n      pop\n      pop\n      mload(0x40)\n      dup1\n      swap2\n      sub\n      swap1\n      return\n        /* \"contracts/distribution/TombGenesisRewardPool.sol\":7825:8906  function deposit(uint256 _pid, uint256 _amount) public {\r... */\n    tag_27:\n      callvalue\n      dup1\n      iszero\n      tag_126\n      jumpi\n      0x00\n      dup1\n      revert\n    tag_126:\n      pop\n      tag_127\n      0x04\n      dup1\n      calldatasize\n      sub\n      0x40\n      dup2\n      lt\n      iszero\n      tag_128\n      jumpi\n      0x00\n      dup1\n      revert\n    tag_128:\n      dup2\n      add\n      swap1\n      dup1\n      dup1\n      calldataload\n      swap1\n      0x20\n      add\n      swap1\n      swap3\n      swap2\n      swap1\n      dup1\n      calldataload\n      swap1\n      0x20\n      add\n      swap1\n      swap3\n      swap2\n      swap1\n      pop\n      pop\n      pop\n      tag_129\n      jump\t// in\n    tag_127:\n      stop\n        /* \"contracts/distribution/TombGenesisRewardPool.sol\":5762:6539  function pendingStone(uint256 _pid, address _user) external view returns (uint256) {\r... */\n    tag_28:\n      callvalue\n      dup1\n      iszero\n      tag_130\n      jumpi\n      0x00\n      dup1\n      revert\n    tag_130:\n      pop\n      tag_131\n      0x04\n      dup1\n      calldatasize\n      sub\n      0x40\n      dup2\n      lt\n      iszero\n      tag_132\n      jumpi\n      0x00\n      dup1\n      revert\n    tag_132:\n      dup2\n      add\n      swap1\n      dup1\n      dup1\n      calldataload\n      swap1\n      0x20\n      add\n      swap1\n      swap3\n      swap2\n      swap1\n      dup1\n      calldataload\n      0xffffffffffffffffffffffffffffffffffffffff\n      and\n      swap1\n      0x20\n      add\n      swap1\n      swap3\n      swap2\n      swap1\n      pop\n      pop\n      pop\n      tag_133\n      jump\t// in\n    tag_131:\n      mload(0x40)\n      dup1\n      dup3\n      dup2\n      mstore\n      0x20\n      add\n      swap2\n      pop\n      pop\n      mload(0x40)\n      dup1\n      swap2\n      sub\n      swap1\n      return\n        /* \"contracts/owner/Operator.sol\":1017:1334  function transferOwnership(address newOperator_ ) public onlyOwner {\r... */\n    tag_29:\n      callvalue\n      dup1\n      iszero\n      tag_134\n      jumpi\n      0x00\n      dup1\n      revert\n    tag_134:\n      pop\n      tag_135\n      0x04\n      dup1\n      calldatasize\n      sub\n      0x20\n      dup2\n      lt\n      iszero\n      tag_136\n      jumpi\n      0x00\n      dup1\n      revert\n    tag_136:\n      dup2\n      add\n      swap1\n      dup1\n      dup1\n      calldataload\n      0xffffffffffffffffffffffffffffffffffffffff\n      and\n      swap1\n      0x20\n      add\n      swap1\n      swap3\n      swap2\n      swap1\n      pop\n      pop\n      pop\n      tag_137\n      jump\t// in\n    tag_135:\n      stop\n        /* \"@openzeppelin/contracts/access/Ownable.sol\":3840:3935  function Ownership() internal view virtual returns (address) {... */\n    tag_39:\n        /* \"@openzeppelin/contracts/access/Ownable.sol\":3892:3899  address */\n      0x00\n        /* \"@openzeppelin/contracts/access/Ownable.sol\":3918:3928  _Ownership */\n      0x01\n      0x00\n      swap1\n      sload\n      swap1\n      0x0100\n      exp\n      swap1\n      div\n      0xffffffffffffffffffffffffffffffffffffffff\n      and\n        /* \"@openzeppelin/contracts/access/Ownable.sol\":3911:3928  return _Ownership */\n      swap1\n      pop\n        /* \"@openzeppelin/contracts/access/Ownable.sol\":3840:3935  function Ownership() internal view virtual returns (address) {... */\n      swap1\n      jump\t// out\n        /* \"contracts/distribution/TombGenesisRewardPool.sol\":1934:1985  uint256 public constant TOTAL_REWARDS = 25000 ether */\n    tag_45:\n        /* \"contracts/distribution/TombGenesisRewardPool.sol\":1974:1985  25000 ether */\n      0x054b40b1f852bda00000\n        /* \"contracts/distribution/TombGenesisRewardPool.sol\":1934:1985  uint256 public constant TOTAL_REWARDS = 25000 ether */\n      dup2\n      jump\t// out\n        /* \"contracts/distribution/TombGenesisRewardPool.sol\":1271:1297  PoolInfo[] public poolInfo */\n    tag_49:\n      0x04\n      dup2\n      dup2\n      sload\n      dup2\n      lt\n      tag_139\n      jumpi\n      0x00\n      dup1\n      revert\n    tag_139:\n      swap1\n      0x00\n      mstore\n      keccak256(0x00, 0x20)\n      swap1\n      0x05\n      mul\n      add\n      0x00\n      swap2\n      pop\n      swap1\n      pop\n      dup1\n      0x00\n      add\n      0x00\n      swap1\n      sload\n      swap1\n      0x0100\n      exp\n      swap1\n      div\n      0xffffffffffffffffffffffffffffffffffffffff\n      and\n      swap1\n      dup1\n      0x01\n      add\n      sload\n      swap1\n      dup1\n      0x02\n      add\n      sload\n      swap1\n      dup1\n      0x03\n      add\n      sload\n      swap1\n      dup1\n      0x04\n      add\n      0x00\n      swap1\n      sload\n      swap1\n      0x0100\n      exp\n      swap1\n      div\n      0xff\n      and\n      swap1\n      pop\n      dup6\n      jump\t// out\n        /* \"contracts/distribution/TombGenesisRewardPool.sol\":1571:1605  uint256 public totalAllocPoint = 0 */\n    tag_52:\n      sload(0x07)\n      dup2\n      jump\t// out\n        /* \"contracts/distribution/TombGenesisRewardPool.sol\":4616:4969  function set(uint256 _pid, uint256 _allocPoint) public onlyOperator {\r... */\n    tag_56:\n        /* \"contracts/owner/Operator.sol\":684:694  msg.sender */\n      caller\n        /* \"contracts/owner/Operator.sol\":671:694  _operator == msg.sender */\n      0xffffffffffffffffffffffffffffffffffffffff\n      and\n        /* \"contracts/owner/Operator.sol\":671:680  _operator */\n      0x02\n      0x00\n      swap1\n      sload\n      swap1\n      0x0100\n      exp\n      swap1\n      div\n      0xffffffffffffffffffffffffffffffffffffffff\n      and\n        /* \"contracts/owner/Operator.sol\":671:694  _operator == msg.sender */\n      0xffffffffffffffffffffffffffffffffffffffff\n      and\n      eq\n        /* \"contracts/owner/Operator.sol\":649:758  require(\r... */\n      tag_142\n      jumpi\n      mload(0x40)\n      0x08c379a000000000000000000000000000000000000000000000000000000000\n      dup2\n      mstore\n      0x04\n      add\n      dup1\n      dup1\n      0x20\n      add\n      dup3\n      dup2\n      sub\n      dup3\n      mstore\n      0x24\n      dup2\n      mstore\n      0x20\n      add\n      dup1\n      data_a62bfdba5053072911b63b0f6325b0e83fcd28b5a847d97efdd966feb4daaafb\n      0x24\n      swap2\n      codecopy\n      0x40\n      add\n      swap2\n      pop\n      pop\n      mload(0x40)\n      dup1\n      swap2\n      sub\n      swap1\n      revert\n    tag_142:\n        /* \"contracts/distribution/TombGenesisRewardPool.sol\":4695:4712  massUpdatePools() */\n      tag_144\n        /* \"contracts/distribution/TombGenesisRewardPool.sol\":4695:4710  massUpdatePools */\n      tag_98\n        /* \"contracts/distribution/TombGenesisRewardPool.sol\":4695:4712  massUpdatePools() */\n      jump\t// in\n    tag_144:\n        /* \"contracts/distribution/TombGenesisRewardPool.sol\":4723:4744  PoolInfo storage pool */\n      0x00\n        /* \"contracts/distribution/TombGenesisRewardPool.sol\":4747:4755  poolInfo */\n      0x04\n        /* \"contracts/distribution/TombGenesisRewardPool.sol\":4756:4760  _pid */\n      dup4\n        /* \"contracts/distribution/TombGenesisRewardPool.sol\":4747:4761  poolInfo[_pid] */\n      dup2\n      sload\n      dup2\n      lt\n      tag_145\n      jumpi\n      invalid\n    tag_145:\n      swap1\n      0x00\n      mstore\n      keccak256(0x00, 0x20)\n      swap1\n      0x05\n      mul\n      add\n        /* \"contracts/distribution/TombGenesisRewardPool.sol\":4723:4761  PoolInfo storage pool = poolInfo[_pid] */\n      swap1\n      pop\n        /* \"contracts/distribution/TombGenesisRewardPool.sol\":4776:4780  pool */\n      dup1\n        /* \"contracts/distribution/TombGenesisRewardPool.sol\":4776:4790  pool.isStarted */\n      0x04\n      add\n      0x00\n      swap1\n      sload\n      swap1\n      0x0100\n      exp\n      swap1\n      div\n      0xff\n      and\n        /* \"contracts/distribution/TombGenesisRewardPool.sol\":4772:4922  if (pool.isStarted) {\r... */\n      iszero\n      tag_147\n      jumpi\n        /* \"contracts/distribution/TombGenesisRewardPool.sol\":4825:4910  totalAllocPoint.sub(pool.allocPoint).add(\r... */\n      tag_148\n        /* \"contracts/distribution/TombGenesisRewardPool.sol\":4884:4895  _allocPoint */\n      dup3\n        /* \"contracts/distribution/TombGenesisRewardPool.sol\":4825:4861  totalAllocPoint.sub(pool.allocPoint) */\n      tag_149\n        /* \"contracts/distribution/TombGenesisRewardPool.sol\":4845:4849  pool */\n      dup4\n        /* \"contracts/distribution/TombGenesisRewardPool.sol\":4845:4860  pool.allocPoint */\n      0x01\n      add\n      sload\n        /* \"contracts/distribution/TombGenesisRewardPool.sol\":4825:4840  totalAllocPoint */\n      sload(0x07)\n        /* \"contracts/distribution/TombGenesisRewardPool.sol\":4825:4844  totalAllocPoint.sub */\n      tag_150\n      swap1\n        /* \"contracts/distribution/TombGenesisRewardPool.sol\":4825:4861  totalAllocPoint.sub(pool.allocPoint) */\n      swap2\n      swap1\n      0xffffffff\n      and\n      jump\t// in\n    tag_149:\n        /* \"contracts/distribution/TombGenesisRewardPool.sol\":4825:4865  totalAllocPoint.sub(pool.allocPoint).add */\n      tag_151\n      swap1\n        /* \"contracts/distribution/TombGenesisRewardPool.sol\":4825:4910  totalAllocPoint.sub(pool.allocPoint).add(\r... */\n      swap2\n      swap1\n      0xffffffff\n      and\n      jump\t// in\n    tag_148:\n        /* \"contracts/distribution/TombGenesisRewardPool.sol\":4807:4822  totalAllocPoint */\n      0x07\n        /* \"contracts/distribution/TombGenesisRewardPool.sol\":4807:4910  totalAllocPoint = totalAllocPoint.sub(pool.allocPoint).add(\r... */\n      dup2\n      swap1\n      sstore\n      pop\n        /* \"contracts/distribution/TombGenesisRewardPool.sol\":4772:4922  if (pool.isStarted) {\r... */\n    tag_147:\n        /* \"contracts/distribution/TombGenesisRewardPool.sol\":4950:4961  _allocPoint */\n      dup2\n        /* \"contracts/distribution/TombGenesisRewardPool.sol\":4932:4936  pool */\n      dup2\n        /* \"contracts/distribution/TombGenesisRewardPool.sol\":4932:4947  pool.allocPoint */\n      0x01\n      add\n        /* \"contracts/distribution/TombGenesisRewardPool.sol\":4932:4961  pool.allocPoint = _allocPoint */\n      dup2\n      swap1\n      sstore\n      pop\n        /* \"contracts/owner/Operator.sol\":769:770  _ */\n      pop\n        /* \"contracts/distribution/TombGenesisRewardPool.sol\":4616:4969  function set(uint256 _pid, uint256 _allocPoint) public onlyOperator {\r... */\n      pop\n      pop\n      jump\t// out\n        /* \"contracts/distribution/TombGenesisRewardPool.sol\":5046:5699  function getGeneratedReward(uint256 _fromTime, uint256 _toTime) public view returns (uint256) {\r... */\n    tag_60:\n        /* \"contracts/distribution/TombGenesisRewardPool.sol\":5131:5138  uint256 */\n      0x00\n        /* \"contracts/distribution/TombGenesisRewardPool.sol\":5168:5175  _toTime */\n      dup2\n        /* \"contracts/distribution/TombGenesisRewardPool.sol\":5155:5164  _fromTime */\n      dup4\n        /* \"contracts/distribution/TombGenesisRewardPool.sol\":5155:5175  _fromTime >= _toTime */\n      lt\n        /* \"contracts/distribution/TombGenesisRewardPool.sol\":5151:5185  if (_fromTime >= _toTime) return 0 */\n      tag_153\n      jumpi\n        /* \"contracts/distribution/TombGenesisRewardPool.sol\":5184:5185  0 */\n      0x00\n        /* \"contracts/distribution/TombGenesisRewardPool.sol\":5177:5185  return 0 */\n      swap1\n      pop\n      jump(tag_152)\n        /* \"contracts/distribution/TombGenesisRewardPool.sol\":5151:5185  if (_fromTime >= _toTime) return 0 */\n    tag_153:\n        /* \"contracts/distribution/TombGenesisRewardPool.sol\":5211:5222  poolEndTime */\n      sload(0x09)\n        /* \"contracts/distribution/TombGenesisRewardPool.sol\":5200:5207  _toTime */\n      dup3\n        /* \"contracts/distribution/TombGenesisRewardPool.sol\":5200:5222  _toTime >= poolEndTime */\n      lt\n        /* \"contracts/distribution/TombGenesisRewardPool.sol\":5196:5692  if (_toTime >= poolEndTime) {\r... */\n      tag_154\n      jumpi\n        /* \"contracts/distribution/TombGenesisRewardPool.sol\":5256:5267  poolEndTime */\n      sload(0x09)\n        /* \"contracts/distribution/TombGenesisRewardPool.sol\":5243:5252  _fromTime */\n      dup4\n        /* \"contracts/distribution/TombGenesisRewardPool.sol\":5243:5267  _fromTime >= poolEndTime */\n      lt\n        /* \"contracts/distribution/TombGenesisRewardPool.sol\":5239:5277  if (_fromTime >= poolEndTime) return 0 */\n      tag_155\n      jumpi\n        /* \"contracts/distribution/TombGenesisRewardPool.sol\":5276:5277  0 */\n      0x00\n        /* \"contracts/distribution/TombGenesisRewardPool.sol\":5269:5277  return 0 */\n      swap1\n      pop\n      jump(tag_152)\n        /* \"contracts/distribution/TombGenesisRewardPool.sol\":5239:5277  if (_fromTime >= poolEndTime) return 0 */\n    tag_155:\n        /* \"contracts/distribution/TombGenesisRewardPool.sol\":5309:5322  poolStartTime */\n      sload(0x08)\n        /* \"contracts/distribution/TombGenesisRewardPool.sol\":5296:5305  _fromTime */\n      dup4\n        /* \"contracts/distribution/TombGenesisRewardPool.sol\":5296:5322  _fromTime <= poolStartTime */\n      gt\n        /* \"contracts/distribution/TombGenesisRewardPool.sol\":5292:5380  if (_fromTime <= poolStartTime) return poolEndTime.sub(poolStartTime).mul(PolyPerSecond) */\n      tag_156\n      jumpi\n        /* \"contracts/distribution/TombGenesisRewardPool.sol\":5331:5380  poolEndTime.sub(poolStartTime).mul(PolyPerSecond) */\n      tag_157\n        /* \"contracts/distribution/TombGenesisRewardPool.sol\":5366:5379  PolyPerSecond */\n      sload(0x0a)\n        /* \"contracts/distribution/TombGenesisRewardPool.sol\":5331:5361  poolEndTime.sub(poolStartTime) */\n      tag_158\n        /* \"contracts/distribution/TombGenesisRewardPool.sol\":5347:5360  poolStartTime */\n      sload(0x08)\n        /* \"contracts/distribution/TombGenesisRewardPool.sol\":5331:5342  poolEndTime */\n      sload(0x09)\n        /* \"contracts/distribution/TombGenesisRewardPool.sol\":5331:5346  poolEndTime.sub */\n      tag_150\n      swap1\n        /* \"contracts/distribution/TombGenesisRewardPool.sol\":5331:5361  poolEndTime.sub(poolStartTime) */\n      swap2\n      swap1\n      0xffffffff\n      and\n      jump\t// in\n    tag_158:\n        /* \"contracts/distribution/TombGenesisRewardPool.sol\":5331:5365  poolEndTime.sub(poolStartTime).mul */\n      tag_159\n      swap1\n        /* \"contracts/distribution/TombGenesisRewardPool.sol\":5331:5380  poolEndTime.sub(poolStartTime).mul(PolyPerSecond) */\n      swap2\n      swap1\n      0xffffffff\n      and\n      jump\t// in\n    tag_157:\n        /* \"contracts/distribution/TombGenesisRewardPool.sol\":5324:5380  return poolEndTime.sub(poolStartTime).mul(PolyPerSecond) */\n      swap1\n      pop\n      jump(tag_152)\n        /* \"contracts/distribution/TombGenesisRewardPool.sol\":5292:5380  if (_fromTime <= poolStartTime) return poolEndTime.sub(poolStartTime).mul(PolyPerSecond) */\n    tag_156:\n        /* \"contracts/distribution/TombGenesisRewardPool.sol\":5402:5447  poolEndTime.sub(_fromTime).mul(PolyPerSecond) */\n      tag_160\n        /* \"contracts/distribution/TombGenesisRewardPool.sol\":5433:5446  PolyPerSecond */\n      sload(0x0a)\n        /* \"contracts/distribution/TombGenesisRewardPool.sol\":5402:5428  poolEndTime.sub(_fromTime) */\n      tag_161\n        /* \"contracts/distribution/TombGenesisRewardPool.sol\":5418:5427  _fromTime */\n      dup6\n        /* \"contracts/distribution/TombGenesisRewardPool.sol\":5402:5413  poolEndTime */\n      sload(0x09)\n        /* \"contracts/distribution/TombGenesisRewardPool.sol\":5402:5417  poolEndTime.sub */\n      tag_150\n      swap1\n        /* \"contracts/distribution/TombGenesisRewardPool.sol\":5402:5428  poolEndTime.sub(_fromTime) */\n      swap2\n      swap1\n      0xffffffff\n      and\n      jump\t// in\n    tag_161:\n        /* \"contracts/distribution/TombGenesisRewardPool.sol\":5402:5432  poolEndTime.sub(_fromTime).mul */\n      tag_159\n      swap1\n        /* \"contracts/distribution/TombGenesisRewardPool.sol\":5402:5447  poolEndTime.sub(_fromTime).mul(PolyPerSecond) */\n      swap2\n      swap1\n      0xffffffff\n      and\n      jump\t// in\n    tag_160:\n        /* \"contracts/distribution/TombGenesisRewardPool.sol\":5395:5447  return poolEndTime.sub(_fromTime).mul(PolyPerSecond) */\n      swap1\n      pop\n      jump(tag_152)\n        /* \"contracts/distribution/TombGenesisRewardPool.sol\":5196:5692  if (_toTime >= poolEndTime) {\r... */\n    tag_154:\n        /* \"contracts/distribution/TombGenesisRewardPool.sol\":5495:5508  poolStartTime */\n      sload(0x08)\n        /* \"contracts/distribution/TombGenesisRewardPool.sol\":5484:5491  _toTime */\n      dup3\n        /* \"contracts/distribution/TombGenesisRewardPool.sol\":5484:5508  _toTime <= poolStartTime */\n      gt\n        /* \"contracts/distribution/TombGenesisRewardPool.sol\":5480:5518  if (_toTime <= poolStartTime) return 0 */\n      tag_163\n      jumpi\n        /* \"contracts/distribution/TombGenesisRewardPool.sol\":5517:5518  0 */\n      0x00\n        /* \"contracts/distribution/TombGenesisRewardPool.sol\":5510:5518  return 0 */\n      swap1\n      pop\n      jump(tag_152)\n        /* \"contracts/distribution/TombGenesisRewardPool.sol\":5480:5518  if (_toTime <= poolStartTime) return 0 */\n    tag_163:\n        /* \"contracts/distribution/TombGenesisRewardPool.sol\":5550:5563  poolStartTime */\n      sload(0x08)\n        /* \"contracts/distribution/TombGenesisRewardPool.sol\":5537:5546  _fromTime */\n      dup4\n        /* \"contracts/distribution/TombGenesisRewardPool.sol\":5537:5563  _fromTime <= poolStartTime */\n      gt\n        /* \"contracts/distribution/TombGenesisRewardPool.sol\":5533:5617  if (_fromTime <= poolStartTime) return _toTime.sub(poolStartTime).mul(PolyPerSecond) */\n      tag_164\n      jumpi\n        /* \"contracts/distribution/TombGenesisRewardPool.sol\":5572:5617  _toTime.sub(poolStartTime).mul(PolyPerSecond) */\n      tag_165\n        /* \"contracts/distribution/TombGenesisRewardPool.sol\":5603:5616  PolyPerSecond */\n      sload(0x0a)\n        /* \"contracts/distribution/TombGenesisRewardPool.sol\":5572:5598  _toTime.sub(poolStartTime) */\n      tag_166\n        /* \"contracts/distribution/TombGenesisRewardPool.sol\":5584:5597  poolStartTime */\n      sload(0x08)\n        /* \"contracts/distribution/TombGenesisRewardPool.sol\":5572:5579  _toTime */\n      dup6\n        /* \"contracts/distribution/TombGenesisRewardPool.sol\":5572:5583  _toTime.sub */\n      tag_150\n      swap1\n        /* \"contracts/distribution/TombGenesisRewardPool.sol\":5572:5598  _toTime.sub(poolStartTime) */\n      swap2\n      swap1\n      0xffffffff\n      and\n      jump\t// in\n    tag_166:\n        /* \"contracts/distribution/TombGenesisRewardPool.sol\":5572:5602  _toTime.sub(poolStartTime).mul */\n      tag_159\n      swap1\n        /* \"contracts/distribution/TombGenesisRewardPool.sol\":5572:5617  _toTime.sub(poolStartTime).mul(PolyPerSecond) */\n      swap2\n      swap1\n      0xffffffff\n      and\n      jump\t// in\n    tag_165:\n        /* \"contracts/distribution/TombGenesisRewardPool.sol\":5565:5617  return _toTime.sub(poolStartTime).mul(PolyPerSecond) */\n      swap1\n      pop\n      jump(tag_152)\n        /* \"contracts/distribution/TombGenesisRewardPool.sol\":5533:5617  if (_fromTime <= poolStartTime) return _toTime.sub(poolStartTime).mul(PolyPerSecond) */\n    tag_164:\n        /* \"contracts/distribution/TombGenesisRewardPool.sol\":5639:5680  _toTime.sub(_fromTime).mul(PolyPerSecond) */\n      tag_167\n        /* \"contracts/distribution/TombGenesisRewardPool.sol\":5666:5679  PolyPerSecond */\n      sload(0x0a)\n        /* \"contracts/distribution/TombGenesisRewardPool.sol\":5639:5661  _toTime.sub(_fromTime) */\n      tag_168\n        /* \"contracts/distribution/TombGenesisRewardPool.sol\":5651:5660  _fromTime */\n      dup6\n        /* \"contracts/distribution/TombGenesisRewardPool.sol\":5639:5646  _toTime */\n      dup6\n        /* \"contracts/distribution/TombGenesisRewardPool.sol\":5639:5650  _toTime.sub */\n      tag_150\n      swap1\n        /* \"contracts/distribution/TombGenesisRewardPool.sol\":5639:5661  _toTime.sub(_fromTime) */\n      swap2\n      swap1\n      0xffffffff\n      and\n      jump\t// in\n    tag_168:\n        /* \"contracts/distribution/TombGenesisRewardPool.sol\":5639:5665  _toTime.sub(_fromTime).mul */\n      tag_159\n      swap1\n        /* \"contracts/distribution/TombGenesisRewardPool.sol\":5639:5680  _toTime.sub(_fromTime).mul(PolyPerSecond) */\n      swap2\n      swap1\n      0xffffffff\n      and\n      jump\t// in\n    tag_167:\n        /* \"contracts/distribution/TombGenesisRewardPool.sol\":5632:5680  return _toTime.sub(_fromTime).mul(PolyPerSecond) */\n      swap1\n      pop\n        /* \"contracts/distribution/TombGenesisRewardPool.sol\":5046:5699  function getGeneratedReward(uint256 _fromTime, uint256 _toTime) public view returns (uint256) {\r... */\n    tag_152:\n      swap3\n      swap2\n      pop\n      pop\n      jump\t// out\n        /* \"contracts/owner/Operator.sol\":894:1009  function transferOperator(address newOperator_) public onlyOwner {\r... */\n    tag_64:\n        /* \"@openzeppelin/contracts/access/Ownable.sol\":1362:1374  _msgSender() */\n      tag_170\n        /* \"@openzeppelin/contracts/access/Ownable.sol\":1362:1372  _msgSender */\n      tag_171\n        /* \"@openzeppelin/contracts/access/Ownable.sol\":1362:1374  _msgSender() */\n      jump\t// in\n    tag_170:\n        /* \"@openzeppelin/contracts/access/Ownable.sol\":1351:1374  owner() == _msgSender() */\n      0xffffffffffffffffffffffffffffffffffffffff\n      and\n        /* \"@openzeppelin/contracts/access/Ownable.sol\":1351:1358  owner() */\n      tag_172\n        /* \"@openzeppelin/contracts/access/Ownable.sol\":1351:1356  owner */\n      tag_107\n        /* \"@openzeppelin/contracts/access/Ownable.sol\":1351:1358  owner() */\n      jump\t// in\n    tag_172:\n        /* \"@openzeppelin/contracts/access/Ownable.sol\":1351:1374  owner() == _msgSender() */\n      0xffffffffffffffffffffffffffffffffffffffff\n      and\n      eq\n        /* \"@openzeppelin/contracts/access/Ownable.sol\":1343:1411  require(owner() == _msgSender(), \"Ownable: caller is not the owner\") */\n      tag_173\n      jumpi\n      mload(0x40)\n      0x08c379a000000000000000000000000000000000000000000000000000000000\n      dup2\n      mstore\n      0x04\n      add\n      dup1\n      dup1\n      0x20\n      add\n      dup3\n      dup2\n      sub\n      dup3\n      mstore\n      0x20\n      dup2\n      mstore\n      0x20\n      add\n      dup1\n      0x4f776e61626c653a2063616c6c6572206973206e6f7420746865206f776e6572\n      dup2\n      mstore\n      pop\n      0x20\n      add\n      swap2\n      pop\n      pop\n      mload(0x40)\n      dup1\n      swap2\n      sub\n      swap1\n      revert\n    tag_173:\n        /* \"contracts/owner/Operator.sol\":970:1001  _transferOperator(newOperator_) */\n      tag_175\n        /* \"contracts/owner/Operator.sol\":988:1000  newOperator_ */\n      dup2\n        /* \"contracts/owner/Operator.sol\":970:987  _transferOperator */\n      tag_176\n        /* \"contracts/owner/Operator.sol\":970:1001  _transferOperator(newOperator_) */\n      jump\t// in\n    tag_175:\n        /* \"contracts/owner/Operator.sol\":894:1009  function transferOperator(address newOperator_) public onlyOwner {\r... */\n      pop\n      jump\t// out\n        /* \"contracts/distribution/TombGenesisRewardPool.sol\":2493:2582  function isInitialized() public view returns (bool) {\r... */\n    tag_67:\n        /* \"contracts/distribution/TombGenesisRewardPool.sol\":2539:2543  bool */\n      0x00\n        /* \"contracts/distribution/TombGenesisRewardPool.sol\":2563:2574  initialized */\n      0x05\n      0x00\n      swap1\n      sload\n      swap1\n      0x0100\n      exp\n      swap1\n      div\n      0xff\n      and\n        /* \"contracts/distribution/TombGenesisRewardPool.sol\":2556:2574  return initialized */\n      swap1\n      pop\n        /* \"contracts/distribution/TombGenesisRewardPool.sol\":2493:2582  function isInitialized() public view returns (bool) {\r... */\n      swap1\n      jump\t// out\n        /* \"contracts/distribution/TombGenesisRewardPool.sol\":1784:1839  uint256 public PolyPerSecond = 0.1446759259259259 ether */\n    tag_70:\n      sload(0x0a)\n      dup2\n      jump\t// out\n        /* \"contracts/distribution/TombGenesisRewardPool.sol\":8942:9754  function withdraw(uint256 _pid, uint256 _amount) public {\r... */\n    tag_74:\n        /* \"contracts/distribution/TombGenesisRewardPool.sol\":9009:9024  address _sender */\n      0x00\n        /* \"contracts/distribution/TombGenesisRewardPool.sol\":9027:9037  msg.sender */\n      caller\n        /* \"contracts/distribution/TombGenesisRewardPool.sol\":9009:9037  address _sender = msg.sender */\n      swap1\n      pop\n        /* \"contracts/distribution/TombGenesisRewardPool.sol\":9048:9069  PoolInfo storage pool */\n      0x00\n        /* \"contracts/distribution/TombGenesisRewardPool.sol\":9072:9080  poolInfo */\n      0x04\n        /* \"contracts/distribution/TombGenesisRewardPool.sol\":9081:9085  _pid */\n      dup5\n        /* \"contracts/distribution/TombGenesisRewardPool.sol\":9072:9086  poolInfo[_pid] */\n      dup2\n      sload\n      dup2\n      lt\n      tag_179\n      jumpi\n      invalid\n    tag_179:\n      swap1\n      0x00\n      mstore\n      keccak256(0x00, 0x20)\n      swap1\n      0x05\n      mul\n      add\n        /* \"contracts/distribution/TombGenesisRewardPool.sol\":9048:9086  PoolInfo storage pool = poolInfo[_pid] */\n      swap1\n      pop\n        /* \"contracts/distribution/TombGenesisRewardPool.sol\":9097:9118  UserInfo storage user */\n      0x00\n        /* \"contracts/distribution/TombGenesisRewardPool.sol\":9121:9129  userInfo */\n      0x06\n        /* \"contracts/distribution/TombGenesisRewardPool.sol\":9121:9135  userInfo[_pid] */\n      0x00\n        /* \"contracts/distribution/TombGenesisRewardPool.sol\":9130:9134  _pid */\n      dup7\n        /* \"contracts/distribution/TombGenesisRewardPool.sol\":9121:9135  userInfo[_pid] */\n      dup2\n      mstore\n      0x20\n      add\n      swap1\n      dup2\n      mstore\n      0x20\n      add\n      0x00\n      keccak256\n        /* \"contracts/distribution/TombGenesisRewardPool.sol\":9121:9144  userInfo[_pid][_sender] */\n      0x00\n        /* \"contracts/distribution/TombGenesisRewardPool.sol\":9136:9143  _sender */\n      dup5\n        /* \"contracts/distribution/TombGenesisRewardPool.sol\":9121:9144  userInfo[_pid][_sender] */\n      0xffffffffffffffffffffffffffffffffffffffff\n      and\n      0xffffffffffffffffffffffffffffffffffffffff\n      and\n      dup2\n      mstore\n      0x20\n      add\n      swap1\n      dup2\n      mstore\n      0x20\n      add\n      0x00\n      keccak256\n        /* \"contracts/distribution/TombGenesisRewardPool.sol\":9097:9144  UserInfo storage user = userInfo[_pid][_sender] */\n      swap1\n      pop\n        /* \"contracts/distribution/TombGenesisRewardPool.sol\":9178:9185  _amount */\n      dup4\n        /* \"contracts/distribution/TombGenesisRewardPool.sol\":9163:9167  user */\n      dup2\n        /* \"contracts/distribution/TombGenesisRewardPool.sol\":9163:9174  user.amount */\n      0x00\n      add\n      sload\n        /* \"contracts/distribution/TombGenesisRewardPool.sol\":9163:9185  user.amount >= _amount */\n      lt\n      iszero\n        /* \"contracts/distribution/TombGenesisRewardPool.sol\":9155:9208  require(user.amount >= _amount, \"withdraw: not good\") */\n      tag_181\n      jumpi\n      mload(0x40)\n      0x08c379a000000000000000000000000000000000000000000000000000000000\n      dup2\n      mstore\n      0x04\n      add\n      dup1\n      dup1\n      0x20\n      add\n      dup3\n      dup2\n      sub\n      dup3\n      mstore\n      0x12\n      dup2\n      mstore\n      0x20\n      add\n      dup1\n      0x77697468647261773a206e6f7420676f6f640000000000000000000000000000\n      dup2\n      mstore\n      pop\n      0x20\n      add\n      swap2\n      pop\n      pop\n      mload(0x40)\n      dup1\n      swap2\n      sub\n      swap1\n      revert\n    tag_181:\n        /* \"contracts/distribution/TombGenesisRewardPool.sol\":9219:9235  updatePool(_pid) */\n      tag_182\n        /* \"contracts/distribution/TombGenesisRewardPool.sol\":9230:9234  _pid */\n      dup6\n        /* \"contracts/distribution/TombGenesisRewardPool.sol\":9219:9229  updatePool */\n      tag_81\n        /* \"contracts/distribution/TombGenesisRewardPool.sol\":9219:9235  updatePool(_pid) */\n      jump\t// in\n    tag_182:\n        /* \"contracts/distribution/TombGenesisRewardPool.sol\":9246:9262  uint256 _pending */\n      0x00\n        /* \"contracts/distribution/TombGenesisRewardPool.sol\":9265:9334  user.amount.mul(pool.accStonePerShare).div(1e18).sub(user.rewardDebt) */\n      tag_183\n        /* \"contracts/distribution/TombGenesisRewardPool.sol\":9318:9322  user */\n      dup3\n        /* \"contracts/distribution/TombGenesisRewardPool.sol\":9318:9333  user.rewardDebt */\n      0x01\n      add\n      sload\n        /* \"contracts/distribution/TombGenesisRewardPool.sol\":9265:9313  user.amount.mul(pool.accStonePerShare).div(1e18) */\n      tag_184\n        /* \"contracts/distribution/TombGenesisRewardPool.sol\":9308:9312  1e18 */\n      0x0de0b6b3a7640000\n        /* \"contracts/distribution/TombGenesisRewardPool.sol\":9265:9303  user.amount.mul(pool.accStonePerShare) */\n      tag_185\n        /* \"contracts/distribution/TombGenesisRewardPool.sol\":9281:9285  pool */\n      dup8\n        /* \"contracts/distribution/TombGenesisRewardPool.sol\":9281:9302  pool.accStonePerShare */\n      0x03\n      add\n      sload\n        /* \"contracts/distribution/TombGenesisRewardPool.sol\":9265:9269  user */\n      dup8\n        /* \"contracts/distribution/TombGenesisRewardPool.sol\":9265:9276  user.amount */\n      0x00\n      add\n      sload\n        /* \"contracts/distribution/TombGenesisRewardPool.sol\":9265:9280  user.amount.mul */\n      tag_159\n      swap1\n        /* \"contracts/distribution/TombGenesisRewardPool.sol\":9265:9303  user.amount.mul(pool.accStonePerShare) */\n      swap2\n      swap1\n      0xffffffff\n      and\n      jump\t// in\n    tag_185:\n        /* \"contracts/distribution/TombGenesisRewardPool.sol\":9265:9307  user.amount.mul(pool.accStonePerShare).div */\n      tag_186\n      swap1\n        /* \"contracts/distribution/TombGenesisRewardPool.sol\":9265:9313  user.amount.mul(pool.accStonePerShare).div(1e18) */\n      swap2\n      swap1\n      0xffffffff\n      and\n      jump\t// in\n    tag_184:\n        /* \"contracts/distribution/TombGenesisRewardPool.sol\":9265:9317  user.amount.mul(pool.accStonePerShare).div(1e18).sub */\n      tag_150\n      swap1\n        /* \"contracts/distribution/TombGenesisRewardPool.sol\":9265:9334  user.amount.mul(pool.accStonePerShare).div(1e18).sub(user.rewardDebt) */\n      swap2\n      swap1\n      0xffffffff\n      and\n      jump\t// in\n    tag_183:\n        /* \"contracts/distribution/TombGenesisRewardPool.sol\":9246:9334  uint256 _pending = user.amount.mul(pool.accStonePerShare).div(1e18).sub(user.rewardDebt) */\n      swap1\n      pop\n        /* \"contracts/distribution/TombGenesisRewardPool.sol\":9360:9361  0 */\n      0x00\n        /* \"contracts/distribution/TombGenesisRewardPool.sol\":9349:9357  _pending */\n      dup2\n        /* \"contracts/distribution/TombGenesisRewardPool.sol\":9349:9361  _pending > 0 */\n      gt\n        /* \"contracts/distribution/TombGenesisRewardPool.sol\":9345:9474  if (_pending > 0) {\r... */\n      iszero\n      tag_187\n      jumpi\n        /* \"contracts/distribution/TombGenesisRewardPool.sol\":9378:9413  safePolyTransfer(_sender, _pending) */\n      tag_188\n        /* \"contracts/distribution/TombGenesisRewardPool.sol\":9395:9402  _sender */\n      dup5\n        /* \"contracts/distribution/TombGenesisRewardPool.sol\":9404:9412  _pending */\n      dup3\n        /* \"contracts/distribution/TombGenesisRewardPool.sol\":9378:9394  safePolyTransfer */\n      tag_189\n        /* \"contracts/distribution/TombGenesisRewardPool.sol\":9378:9413  safePolyTransfer(_sender, _pending) */\n      jump\t// in\n    tag_188:\n        /* \"contracts/distribution/TombGenesisRewardPool.sol\":9444:9451  _sender */\n      dup4\n        /* \"contracts/distribution/TombGenesisRewardPool.sol\":9433:9462  RewardPaid(_sender, _pending) */\n      0xffffffffffffffffffffffffffffffffffffffff\n      and\n      0xe2403640ba68fed3a2f88b7557551d1993f84b99bb10ff833f0cf8db0c5e0486\n        /* \"contracts/distribution/TombGenesisRewardPool.sol\":9453:9461  _pending */\n      dup3\n        /* \"contracts/distribution/TombGenesisRewardPool.sol\":9433:9462  RewardPaid(_sender, _pending) */\n      mload(0x40)\n      dup1\n      dup3\n      dup2\n      mstore\n      0x20\n      add\n      swap2\n      pop\n      pop\n      mload(0x40)\n      dup1\n      swap2\n      sub\n      swap1\n      log2\n        /* \"contracts/distribution/TombGenesisRewardPool.sol\":9345:9474  if (_pending > 0) {\r... */\n    tag_187:\n        /* \"contracts/distribution/TombGenesisRewardPool.sol\":9498:9499  0 */\n      0x00\n        /* \"contracts/distribution/TombGenesisRewardPool.sol\":9488:9495  _amount */\n      dup6\n        /* \"contracts/distribution/TombGenesisRewardPool.sol\":9488:9499  _amount > 0 */\n      gt\n        /* \"contracts/distribution/TombGenesisRewardPool.sol\":9484:9622  if (_amount > 0) {\r... */\n      iszero\n      tag_190\n      jumpi\n        /* \"contracts/distribution/TombGenesisRewardPool.sol\":9530:9554  user.amount.sub(_amount) */\n      tag_191\n        /* \"contracts/distribution/TombGenesisRewardPool.sol\":9546:9553  _amount */\n      dup6\n        /* \"contracts/distribution/TombGenesisRewardPool.sol\":9530:9534  user */\n      dup4\n        /* \"contracts/distribution/TombGenesisRewardPool.sol\":9530:9541  user.amount */\n      0x00\n      add\n      sload\n        /* \"contracts/distribution/TombGenesisRewardPool.sol\":9530:9545  user.amount.sub */\n      tag_150\n      swap1\n        /* \"contracts/distribution/TombGenesisRewardPool.sol\":9530:9554  user.amount.sub(_amount) */\n      swap2\n      swap1\n      0xffffffff\n      and\n      jump\t// in\n    tag_191:\n        /* \"contracts/distribution/TombGenesisRewardPool.sol\":9516:9520  user */\n      dup3\n        /* \"contracts/distribution/TombGenesisRewardPool.sol\":9516:9527  user.amount */\n      0x00\n      add\n        /* \"contracts/distribution/TombGenesisRewardPool.sol\":9516:9554  user.amount = user.amount.sub(_amount) */\n      dup2\n      swap1\n      sstore\n      pop\n        /* \"contracts/distribution/TombGenesisRewardPool.sol\":9569:9610  pool.token.safeTransfer(_sender, _amount) */\n      tag_192\n        /* \"contracts/distribution/TombGenesisRewardPool.sol\":9593:9600  _sender */\n      dup5\n        /* \"contracts/distribution/TombGenesisRewardPool.sol\":9602:9609  _amount */\n      dup7\n        /* \"contracts/distribution/TombGenesisRewardPool.sol\":9569:9573  pool */\n      dup6\n        /* \"contracts/distribution/TombGenesisRewardPool.sol\":9569:9579  pool.token */\n      0x00\n      add\n      0x00\n      swap1\n      sload\n      swap1\n      0x0100\n      exp\n      swap1\n      div\n      0xffffffffffffffffffffffffffffffffffffffff\n      and\n        /* \"contracts/distribution/TombGenesisRewardPool.sol\":9569:9592  pool.token.safeTransfer */\n      0xffffffffffffffffffffffffffffffffffffffff\n      and\n      tag_193\n      swap1\n        /* \"contracts/distribution/TombGenesisRewardPool.sol\":9569:9610  pool.token.safeTransfer(_sender, _amount) */\n      swap3\n      swap2\n      swap1\n      0xffffffff\n      and\n      jump\t// in\n    tag_192:\n        /* \"contracts/distribution/TombGenesisRewardPool.sol\":9484:9622  if (_amount > 0) {\r... */\n    tag_190:\n        /* \"contracts/distribution/TombGenesisRewardPool.sol\":9650:9698  user.amount.mul(pool.accStonePerShare).div(1e18) */\n      tag_194\n        /* \"contracts/distribution/TombGenesisRewardPool.sol\":9693:9697  1e18 */\n      0x0de0b6b3a7640000\n        /* \"contracts/distribution/TombGenesisRewardPool.sol\":9650:9688  user.amount.mul(pool.accStonePerShare) */\n      tag_195\n        /* \"contracts/distribution/TombGenesisRewardPool.sol\":9666:9670  pool */\n      dup6\n        /* \"contracts/distribution/TombGenesisRewardPool.sol\":9666:9687  pool.accStonePerShare */\n      0x03\n      add\n      sload\n        /* \"contracts/distribution/TombGenesisRewardPool.sol\":9650:9654  user */\n      dup6\n        /* \"contracts/distribution/TombGenesisRewardPool.sol\":9650:9661  user.amount */\n      0x00\n      add\n      sload\n        /* \"contracts/distribution/TombGenesisRewardPool.sol\":9650:9665  user.amount.mul */\n      tag_159\n      swap1\n        /* \"contracts/distribution/TombGenesisRewardPool.sol\":9650:9688  user.amount.mul(pool.accStonePerShare) */\n      swap2\n      swap1\n      0xffffffff\n      and\n      jump\t// in\n    tag_195:\n        /* \"contracts/distribution/TombGenesisRewardPool.sol\":9650:9692  user.amount.mul(pool.accStonePerShare).div */\n      tag_186\n      swap1\n        /* \"contracts/distribution/TombGenesisRewardPool.sol\":9650:9698  user.amount.mul(pool.accStonePerShare).div(1e18) */\n      swap2\n      swap1\n      0xffffffff\n      and\n      jump\t// in\n    tag_194:\n        /* \"contracts/distribution/TombGenesisRewardPool.sol\":9632:9636  user */\n      dup3\n        /* \"contracts/distribution/TombGenesisRewardPool.sol\":9632:9647  user.rewardDebt */\n      0x01\n      add\n        /* \"contracts/distribution/TombGenesisRewardPool.sol\":9632:9698  user.rewardDebt = user.amount.mul(pool.accStonePerShare).div(1e18) */\n      dup2\n      swap1\n      sstore\n      pop\n        /* \"contracts/distribution/TombGenesisRewardPool.sol\":9732:9736  _pid */\n      dup6\n        /* \"contracts/distribution/TombGenesisRewardPool.sol\":9723:9730  _sender */\n      dup5\n        /* \"contracts/distribution/TombGenesisRewardPool.sol\":9714:9746  Withdraw(_sender, _pid, _amount) */\n      0xffffffffffffffffffffffffffffffffffffffff\n      and\n      0xf279e6a1f5e320cca91135676d9cb6e44ca8a08c0b88342bcdb1144f6511b568\n        /* \"contracts/distribution/TombGenesisRewardPool.sol\":9738:9745  _amount */\n      dup8\n        /* \"contracts/distribution/TombGenesisRewardPool.sol\":9714:9746  Withdraw(_sender, _pid, _amount) */\n      mload(0x40)\n      dup1\n      dup3\n      dup2\n      mstore\n      0x20\n      add\n      swap2\n      pop\n      pop\n      mload(0x40)\n      dup1\n      swap2\n      sub\n      swap1\n      log3\n        /* \"contracts/distribution/TombGenesisRewardPool.sol\":8942:9754  function withdraw(uint256 _pid, uint256 _amount) public {\r... */\n      pop\n      pop\n      pop\n      pop\n      pop\n      pop\n      jump\t// out\n        /* \"contracts/owner/Operator.sol\":786:886  function isOperator() public view returns (bool) {\r... */\n    tag_77:\n        /* \"contracts/owner/Operator.sol\":829:833  bool */\n      0x00\n        /* \"contracts/owner/Operator.sol\":869:878  _operator */\n      0x02\n      0x00\n      swap1\n      sload\n      swap1\n      0x0100\n      exp\n      swap1\n      div\n      0xffffffffffffffffffffffffffffffffffffffff\n      and\n        /* \"contracts/owner/Operator.sol\":853:878  _msgSender() == _operator */\n      0xffffffffffffffffffffffffffffffffffffffff\n      and\n        /* \"contracts/owner/Operator.sol\":853:865  _msgSender() */\n      tag_197\n        /* \"contracts/owner/Operator.sol\":853:863  _msgSender */\n      tag_171\n        /* \"contracts/owner/Operator.sol\":853:865  _msgSender() */\n      jump\t// in\n    tag_197:\n        /* \"contracts/owner/Operator.sol\":853:878  _msgSender() == _operator */\n      0xffffffffffffffffffffffffffffffffffffffff\n      and\n      eq\n        /* \"contracts/owner/Operator.sol\":846:878  return _msgSender() == _operator */\n      swap1\n      pop\n        /* \"contracts/owner/Operator.sol\":786:886  function isOperator() public view returns (bool) {\r... */\n      swap1\n      jump\t// out\n        /* \"contracts/distribution/TombGenesisRewardPool.sol\":6878:7788  function updatePool(uint256 _pid) public {\r... */\n    tag_81:\n        /* \"contracts/distribution/TombGenesisRewardPool.sol\":6930:6951  PoolInfo storage pool */\n      0x00\n        /* \"contracts/distribution/TombGenesisRewardPool.sol\":6954:6962  poolInfo */\n      0x04\n        /* \"contracts/distribution/TombGenesisRewardPool.sol\":6963:6967  _pid */\n      dup3\n        /* \"contracts/distribution/TombGenesisRewardPool.sol\":6954:6968  poolInfo[_pid] */\n      dup2\n      sload\n      dup2\n      lt\n      tag_199\n      jumpi\n      invalid\n    tag_199:\n      swap1\n      0x00\n      mstore\n      keccak256(0x00, 0x20)\n      swap1\n      0x05\n      mul\n      add\n        /* \"contracts/distribution/TombGenesisRewardPool.sol\":6930:6968  PoolInfo storage pool = poolInfo[_pid] */\n      swap1\n      pop\n        /* \"contracts/distribution/TombGenesisRewardPool.sol\":7002:7006  pool */\n      dup1\n        /* \"contracts/distribution/TombGenesisRewardPool.sol\":7002:7021  pool.lastRewardTime */\n      0x02\n      add\n      sload\n        /* \"contracts/distribution/TombGenesisRewardPool.sol\":6983:6998  block.timestamp */\n      timestamp\n        /* \"contracts/distribution/TombGenesisRewardPool.sol\":6983:7021  block.timestamp <= pool.lastRewardTime */\n      gt\n        /* \"contracts/distribution/TombGenesisRewardPool.sol\":6979:7056  if (block.timestamp <= pool.lastRewardTime) {\r... */\n      tag_201\n      jumpi\n        /* \"contracts/distribution/TombGenesisRewardPool.sol\":7038:7045  return; */\n      pop\n      jump(tag_198)\n        /* \"contracts/distribution/TombGenesisRewardPool.sol\":6979:7056  if (block.timestamp <= pool.lastRewardTime) {\r... */\n    tag_201:\n        /* \"contracts/distribution/TombGenesisRewardPool.sol\":7066:7085  uint256 tokenSupply */\n      0x00\n        /* \"contracts/distribution/TombGenesisRewardPool.sol\":7088:7092  pool */\n      dup2\n        /* \"contracts/distribution/TombGenesisRewardPool.sol\":7088:7098  pool.token */\n      0x00\n      add\n      0x00\n      swap1\n      sload\n      swap1\n      0x0100\n      exp\n      swap1\n      div\n      0xffffffffffffffffffffffffffffffffffffffff\n      and\n        /* \"contracts/distribution/TombGenesisRewardPool.sol\":7088:7108  pool.token.balanceOf */\n      0xffffffffffffffffffffffffffffffffffffffff\n      and\n      0x70a08231\n        /* \"contracts/distribution/TombGenesisRewardPool.sol\":7117:7121  this */\n      address\n        /* \"contracts/distribution/TombGenesisRewardPool.sol\":7088:7123  pool.token.balanceOf(address(this)) */\n      mload(0x40)\n      dup3\n      0xffffffff\n      and\n      0xe0\n      shl\n      dup2\n      mstore\n      0x04\n      add\n      dup1\n      dup3\n      0xffffffffffffffffffffffffffffffffffffffff\n      and\n      dup2\n      mstore\n      0x20\n      add\n      swap2\n      pop\n      pop\n      0x20\n      mload(0x40)\n      dup1\n      dup4\n      sub\n      dup2\n      dup7\n      dup1\n      extcodesize\n      iszero\n      dup1\n      iszero\n      tag_202\n      jumpi\n      0x00\n      dup1\n      revert\n    tag_202:\n      pop\n      gas\n      staticcall\n      iszero\n      dup1\n      iszero\n      tag_204\n      jumpi\n      returndatasize\n      0x00\n      dup1\n      returndatacopy\n      revert(0x00, returndatasize)\n    tag_204:\n      pop\n      pop\n      pop\n      pop\n      mload(0x40)\n      returndatasize\n      0x20\n      dup2\n      lt\n      iszero\n      tag_205\n      jumpi\n      0x00\n      dup1\n      revert\n    tag_205:\n      dup2\n      add\n      swap1\n      dup1\n      dup1\n      mload\n      swap1\n      0x20\n      add\n      swap1\n      swap3\n      swap2\n      swap1\n      pop\n      pop\n      pop\n        /* \"contracts/distribution/TombGenesisRewardPool.sol\":7066:7123  uint256 tokenSupply = pool.token.balanceOf(address(this)) */\n      swap1\n      pop\n        /* \"contracts/distribution/TombGenesisRewardPool.sol\":7153:7154  0 */\n      0x00\n        /* \"contracts/distribution/TombGenesisRewardPool.sol\":7138:7149  tokenSupply */\n      dup2\n        /* \"contracts/distribution/TombGenesisRewardPool.sol\":7138:7154  tokenSupply == 0 */\n      eq\n        /* \"contracts/distribution/TombGenesisRewardPool.sol\":7134:7241  if (tokenSupply == 0) {\r... */\n      iszero\n      tag_206\n      jumpi\n        /* \"contracts/distribution/TombGenesisRewardPool.sol\":7193:7208  block.timestamp */\n      timestamp\n        /* \"contracts/distribution/TombGenesisRewardPool.sol\":7171:7175  pool */\n      dup3\n        /* \"contracts/distribution/TombGenesisRewardPool.sol\":7171:7190  pool.lastRewardTime */\n      0x02\n      add\n        /* \"contracts/distribution/TombGenesisRewardPool.sol\":7171:7208  pool.lastRewardTime = block.timestamp */\n      dup2\n      swap1\n      sstore\n      pop\n        /* \"contracts/distribution/TombGenesisRewardPool.sol\":7223:7230  return; */\n      pop\n      pop\n      jump(tag_198)\n        /* \"contracts/distribution/TombGenesisRewardPool.sol\":7134:7241  if (tokenSupply == 0) {\r... */\n    tag_206:\n        /* \"contracts/distribution/TombGenesisRewardPool.sol\":7256:7260  pool */\n      dup2\n        /* \"contracts/distribution/TombGenesisRewardPool.sol\":7256:7270  pool.isStarted */\n      0x04\n      add\n      0x00\n      swap1\n      sload\n      swap1\n      0x0100\n      exp\n      swap1\n      div\n      0xff\n      and\n        /* \"contracts/distribution/TombGenesisRewardPool.sol\":7251:7389  if (!pool.isStarted) {\r... */\n      tag_207\n      jumpi\n        /* \"contracts/distribution/TombGenesisRewardPool.sol\":7304:7308  true */\n      0x01\n        /* \"contracts/distribution/TombGenesisRewardPool.sol\":7287:7291  pool */\n      dup3\n        /* \"contracts/distribution/TombGenesisRewardPool.sol\":7287:7301  pool.isStarted */\n      0x04\n      add\n      0x00\n        /* \"contracts/distribution/TombGenesisRewardPool.sol\":7287:7308  pool.isStarted = true */\n      0x0100\n      exp\n      dup2\n      sload\n      dup2\n      0xff\n      mul\n      not\n      and\n      swap1\n      dup4\n      iszero\n      iszero\n      mul\n      or\n      swap1\n      sstore\n      pop\n        /* \"contracts/distribution/TombGenesisRewardPool.sol\":7341:7377  totalAllocPoint.add(pool.allocPoint) */\n      tag_208\n        /* \"contracts/distribution/TombGenesisRewardPool.sol\":7361:7365  pool */\n      dup3\n        /* \"contracts/distribution/TombGenesisRewardPool.sol\":7361:7376  pool.allocPoint */\n      0x01\n      add\n      sload\n        /* \"contracts/distribution/TombGenesisRewardPool.sol\":7341:7356  totalAllocPoint */\n      sload(0x07)\n        /* \"contracts/distribution/TombGenesisRewardPool.sol\":7341:7360  totalAllocPoint.add */\n      tag_151\n      swap1\n        /* \"contracts/distribution/TombGenesisRewardPool.sol\":7341:7377  totalAllocPoint.add(pool.allocPoint) */\n      swap2\n      swap1\n      0xffffffff\n      and\n      jump\t// in\n    tag_208:\n        /* \"contracts/distribution/TombGenesisRewardPool.sol\":7323:7338  totalAllocPoint */\n      0x07\n        /* \"contracts/distribution/TombGenesisRewardPool.sol\":7323:7377  totalAllocPoint = totalAllocPoint.add(pool.allocPoint) */\n      dup2\n      swap1\n      sstore\n      pop\n        /* \"contracts/distribution/TombGenesisRewardPool.sol\":7251:7389  if (!pool.isStarted) {\r... */\n    tag_207:\n        /* \"contracts/distribution/TombGenesisRewardPool.sol\":7421:7422  0 */\n      0x00\n        /* \"contracts/distribution/TombGenesisRewardPool.sol\":7403:7418  totalAllocPoint */\n      sload(0x07)\n        /* \"contracts/distribution/TombGenesisRewardPool.sol\":7403:7422  totalAllocPoint > 0 */\n      gt\n        /* \"contracts/distribution/TombGenesisRewardPool.sol\":7399:7733  if (totalAllocPoint > 0) {\r... */\n      iszero\n      tag_209\n      jumpi\n        /* \"contracts/distribution/TombGenesisRewardPool.sol\":7439:7463  uint256 _generatedReward */\n      0x00\n        /* \"contracts/distribution/TombGenesisRewardPool.sol\":7466:7522  getGeneratedReward(pool.lastRewardTime, block.timestamp) */\n      tag_210\n        /* \"contracts/distribution/TombGenesisRewardPool.sol\":7485:7489  pool */\n      dup4\n        /* \"contracts/distribution/TombGenesisRewardPool.sol\":7485:7504  pool.lastRewardTime */\n      0x02\n      add\n      sload\n        /* \"contracts/distribution/TombGenesisRewardPool.sol\":7506:7521  block.timestamp */\n      timestamp\n        /* \"contracts/distribution/TombGenesisRewardPool.sol\":7466:7484  getGeneratedReward */\n      tag_60\n        /* \"contracts/distribution/TombGenesisRewardPool.sol\":7466:7522  getGeneratedReward(pool.lastRewardTime, block.timestamp) */\n      jump\t// in\n    tag_210:\n        /* \"contracts/distribution/TombGenesisRewardPool.sol\":7439:7522  uint256 _generatedReward = getGeneratedReward(pool.lastRewardTime, block.timestamp) */\n      swap1\n      pop\n        /* \"contracts/distribution/TombGenesisRewardPool.sol\":7537:7556  uint256 _PolyReward */\n      0x00\n        /* \"contracts/distribution/TombGenesisRewardPool.sol\":7559:7617  _generatedReward.mul(pool.allocPoint).div(totalAllocPoint) */\n      tag_211\n        /* \"contracts/distribution/TombGenesisRewardPool.sol\":7601:7616  totalAllocPoint */\n      sload(0x07)\n        /* \"contracts/distribution/TombGenesisRewardPool.sol\":7559:7596  _generatedReward.mul(pool.allocPoint) */\n      tag_212\n        /* \"contracts/distribution/TombGenesisRewardPool.sol\":7580:7584  pool */\n      dup7\n        /* \"contracts/distribution/TombGenesisRewardPool.sol\":7580:7595  pool.allocPoint */\n      0x01\n      add\n      sload\n        /* \"contracts/distribution/TombGenesisRewardPool.sol\":7559:7575  _generatedReward */\n      dup6\n        /* \"contracts/distribution/TombGenesisRewardPool.sol\":7559:7579  _generatedReward.mul */\n      tag_159\n      swap1\n        /* \"contracts/distribution/TombGenesisRewardPool.sol\":7559:7596  _generatedReward.mul(pool.allocPoint) */\n      swap2\n      swap1\n      0xffffffff\n      and\n      jump\t// in\n    tag_212:\n        /* \"contracts/distribution/TombGenesisRewardPool.sol\":7559:7600  _generatedReward.mul(pool.allocPoint).div */\n      tag_186\n      swap1\n        /* \"contracts/distribution/TombGenesisRewardPool.sol\":7559:7617  _generatedReward.mul(pool.allocPoint).div(totalAllocPoint) */\n      swap2\n      swap1\n      0xffffffff\n      and\n      jump\t// in\n    tag_211:\n        /* \"contracts/distribution/TombGenesisRewardPool.sol\":7537:7617  uint256 _PolyReward = _generatedReward.mul(pool.allocPoint).div(totalAllocPoint) */\n      swap1\n      pop\n        /* \"contracts/distribution/TombGenesisRewardPool.sol\":7656:7721  pool.accStonePerShare.add(_PolyReward.mul(1e18).div(tokenSupply)) */\n      tag_213\n        /* \"contracts/distribution/TombGenesisRewardPool.sol\":7682:7720  _PolyReward.mul(1e18).div(tokenSupply) */\n      tag_214\n        /* \"contracts/distribution/TombGenesisRewardPool.sol\":7708:7719  tokenSupply */\n      dup5\n        /* \"contracts/distribution/TombGenesisRewardPool.sol\":7682:7703  _PolyReward.mul(1e18) */\n      tag_215\n        /* \"contracts/distribution/TombGenesisRewardPool.sol\":7698:7702  1e18 */\n      0x0de0b6b3a7640000\n        /* \"contracts/distribution/TombGenesisRewardPool.sol\":7682:7693  _PolyReward */\n      dup6\n        /* \"contracts/distribution/TombGenesisRewardPool.sol\":7682:7697  _PolyReward.mul */\n      tag_159\n      swap1\n        /* \"contracts/distribution/TombGenesisRewardPool.sol\":7682:7703  _PolyReward.mul(1e18) */\n      swap2\n      swap1\n      0xffffffff\n      and\n      jump\t// in\n    tag_215:\n        /* \"contracts/distribution/TombGenesisRewardPool.sol\":7682:7707  _PolyReward.mul(1e18).div */\n      tag_186\n      swap1\n        /* \"contracts/distribution/TombGenesisRewardPool.sol\":7682:7720  _PolyReward.mul(1e18).div(tokenSupply) */\n      swap2\n      swap1\n      0xffffffff\n      and\n      jump\t// in\n    tag_214:\n        /* \"contracts/distribution/TombGenesisRewardPool.sol\":7656:7660  pool */\n      dup6\n        /* \"contracts/distribution/TombGenesisRewardPool.sol\":7656:7677  pool.accStonePerShare */\n      0x03\n      add\n      sload\n        /* \"contracts/distribution/TombGenesisRewardPool.sol\":7656:7681  pool.accStonePerShare.add */\n      tag_151\n      swap1\n        /* \"contracts/distribution/TombGenesisRewardPool.sol\":7656:7721  pool.accStonePerShare.add(_PolyReward.mul(1e18).div(tokenSupply)) */\n      swap2\n      swap1\n      0xffffffff\n      and\n      jump\t// in\n    tag_213:\n        /* \"contracts/distribution/TombGenesisRewardPool.sol\":7632:7636  pool */\n      dup5\n        /* \"contracts/distribution/TombGenesisRewardPool.sol\":7632:7653  pool.accStonePerShare */\n      0x03\n      add\n        /* \"contracts/distribution/TombGenesisRewardPool.sol\":7632:7721  pool.accStonePerShare = pool.accStonePerShare.add(_PolyReward.mul(1e18).div(tokenSupply)) */\n      dup2\n      swap1\n      sstore\n      pop\n        /* \"contracts/distribution/TombGenesisRewardPool.sol\":7399:7733  if (totalAllocPoint > 0) {\r... */\n      pop\n      pop\n    tag_209:\n        /* \"contracts/distribution/TombGenesisRewardPool.sol\":7765:7780  block.timestamp */\n      timestamp\n        /* \"contracts/distribution/TombGenesisRewardPool.sol\":7743:7747  pool */\n      dup3\n        /* \"contracts/distribution/TombGenesisRewardPool.sol\":7743:7762  pool.lastRewardTime */\n      0x02\n      add\n        /* \"contracts/distribution/TombGenesisRewardPool.sol\":7743:7780  pool.lastRewardTime = block.timestamp */\n      dup2\n      swap1\n      sstore\n      pop\n        /* \"contracts/distribution/TombGenesisRewardPool.sol\":6878:7788  function updatePool(uint256 _pid) public {\r... */\n      pop\n      pop\n    tag_198:\n      pop\n      jump\t// out\n        /* \"contracts/distribution/TombGenesisRewardPool.sol\":9825:10202  function emergencyWithdraw(uint256 _pid) public {\r... */\n    tag_85:\n        /* \"contracts/distribution/TombGenesisRewardPool.sol\":9884:9905  PoolInfo storage pool */\n      0x00\n        /* \"contracts/distribution/TombGenesisRewardPool.sol\":9908:9916  poolInfo */\n      0x04\n        /* \"contracts/distribution/TombGenesisRewardPool.sol\":9917:9921  _pid */\n      dup3\n        /* \"contracts/distribution/TombGenesisRewardPool.sol\":9908:9922  poolInfo[_pid] */\n      dup2\n      sload\n      dup2\n      lt\n      tag_217\n      jumpi\n      invalid\n    tag_217:\n      swap1\n      0x00\n      mstore\n      keccak256(0x00, 0x20)\n      swap1\n      0x05\n      mul\n      add\n        /* \"contracts/distribution/TombGenesisRewardPool.sol\":9884:9922  PoolInfo storage pool = poolInfo[_pid] */\n      swap1\n      pop\n        /* \"contracts/distribution/TombGenesisRewardPool.sol\":9933:9954  UserInfo storage user */\n      0x00\n        /* \"contracts/distribution/TombGenesisRewardPool.sol\":9957:9965  userInfo */\n      0x06\n        /* \"contracts/distribution/TombGenesisRewardPool.sol\":9957:9971  userInfo[_pid] */\n      0x00\n        /* \"contracts/distribution/TombGenesisRewardPool.sol\":9966:9970  _pid */\n      dup5\n        /* \"contracts/distribution/TombGenesisRewardPool.sol\":9957:9971  userInfo[_pid] */\n      dup2\n      mstore\n      0x20\n      add\n      swap1\n      dup2\n      mstore\n      0x20\n      add\n      0x00\n      keccak256\n        /* \"contracts/distribution/TombGenesisRewardPool.sol\":9957:9983  userInfo[_pid][msg.sender] */\n      0x00\n        /* \"contracts/distribution/TombGenesisRewardPool.sol\":9972:9982  msg.sender */\n      caller\n        /* \"contracts/distribution/TombGenesisRewardPool.sol\":9957:9983  userInfo[_pid][msg.sender] */\n      0xffffffffffffffffffffffffffffffffffffffff\n      and\n      0xffffffffffffffffffffffffffffffffffffffff\n      and\n      dup2\n      mstore\n      0x20\n      add\n      swap1\n      dup2\n      mstore\n      0x20\n      add\n      0x00\n      keccak256\n        /* \"contracts/distribution/TombGenesisRewardPool.sol\":9933:9983  UserInfo storage user = userInfo[_pid][msg.sender] */\n      swap1\n      pop\n        /* \"contracts/distribution/TombGenesisRewardPool.sol\":9994:10009  uint256 _amount */\n      0x00\n        /* \"contracts/distribution/TombGenesisRewardPool.sol\":10012:10016  user */\n      dup2\n        /* \"contracts/distribution/TombGenesisRewardPool.sol\":10012:10023  user.amount */\n      0x00\n      add\n      sload\n        /* \"contracts/distribution/TombGenesisRewardPool.sol\":9994:10023  uint256 _amount = user.amount */\n      swap1\n      pop\n        /* \"contracts/distribution/TombGenesisRewardPool.sol\":10048:10049  0 */\n      0x00\n        /* \"contracts/distribution/TombGenesisRewardPool.sol\":10034:10038  user */\n      dup3\n        /* \"contracts/distribution/TombGenesisRewardPool.sol\":10034:10045  user.amount */\n      0x00\n      add\n        /* \"contracts/distribution/TombGenesisRewardPool.sol\":10034:10049  user.amount = 0 */\n      dup2\n      swap1\n      sstore\n      pop\n        /* \"contracts/distribution/TombGenesisRewardPool.sol\":10078:10079  0 */\n      0x00\n        /* \"contracts/distribution/TombGenesisRewardPool.sol\":10060:10064  user */\n      dup3\n        /* \"contracts/distribution/TombGenesisRewardPool.sol\":10060:10075  user.rewardDebt */\n      0x01\n      add\n        /* \"contracts/distribution/TombGenesisRewardPool.sol\":10060:10079  user.rewardDebt = 0 */\n      dup2\n      swap1\n      sstore\n      pop\n        /* \"contracts/distribution/TombGenesisRewardPool.sol\":10090:10134  pool.token.safeTransfer(msg.sender, _amount) */\n      tag_219\n        /* \"contracts/distribution/TombGenesisRewardPool.sol\":10114:10124  msg.sender */\n      caller\n        /* \"contracts/distribution/TombGenesisRewardPool.sol\":10126:10133  _amount */\n      dup3\n        /* \"contracts/distribution/TombGenesisRewardPool.sol\":10090:10094  pool */\n      dup6\n        /* \"contracts/distribution/TombGenesisRewardPool.sol\":10090:10100  pool.token */\n      0x00\n      add\n      0x00\n      swap1\n      sload\n      swap1\n      0x0100\n      exp\n      swap1\n      div\n      0xffffffffffffffffffffffffffffffffffffffff\n      and\n        /* \"contracts/distribution/TombGenesisRewardPool.sol\":10090:10113  pool.token.safeTransfer */\n      0xffffffffffffffffffffffffffffffffffffffff\n      and\n      tag_193\n      swap1\n        /* \"contracts/distribution/TombGenesisRewardPool.sol\":10090:10134  pool.token.safeTransfer(msg.sender, _amount) */\n      swap3\n      swap2\n      swap1\n      0xffffffff\n      and\n      jump\t// in\n    tag_219:\n        /* \"contracts/distribution/TombGenesisRewardPool.sol\":10180:10184  _pid */\n      dup4\n        /* \"contracts/distribution/TombGenesisRewardPool.sol\":10168:10178  msg.sender */\n      caller\n        /* \"contracts/distribution/TombGenesisRewardPool.sol\":10150:10194  EmergencyWithdraw(msg.sender, _pid, _amount) */\n      0xffffffffffffffffffffffffffffffffffffffff\n      and\n      0xbb757047c2b5f3974fe26b7c10f732e7bce710b0952a71082702781e62ae0595\n        /* \"contracts/distribution/TombGenesisRewardPool.sol\":10186:10193  _amount */\n      dup4\n        /* \"contracts/distribution/TombGenesisRewardPool.sol\":10150:10194  EmergencyWithdraw(msg.sender, _pid, _amount) */\n      mload(0x40)\n      dup1\n      dup3\n      dup2\n      mstore\n      0x20\n      add\n      swap2\n      pop\n      pop\n      mload(0x40)\n      dup1\n      swap2\n      sub\n      swap1\n      log3\n        /* \"contracts/distribution/TombGenesisRewardPool.sol\":9825:10202  function emergencyWithdraw(uint256 _pid) public {\r... */\n      pop\n      pop\n      pop\n      pop\n      jump\t// out\n        /* \"contracts/distribution/TombGenesisRewardPool.sol\":10811:11415  function governanceRecoverUnsupported(IERC20 _token, uint256 amount, address to) external onlyOperator {\r... */\n    tag_89:\n        /* \"contracts/owner/Operator.sol\":684:694  msg.sender */\n      caller\n        /* \"contracts/owner/Operator.sol\":671:694  _operator == msg.sender */\n      0xffffffffffffffffffffffffffffffffffffffff\n      and\n        /* \"contracts/owner/Operator.sol\":671:680  _operator */\n      0x02\n      0x00\n      swap1\n      sload\n      swap1\n      0x0100\n      exp\n      swap1\n      div\n      0xffffffffffffffffffffffffffffffffffffffff\n      and\n        /* \"contracts/owner/Operator.sol\":671:694  _operator == msg.sender */\n      0xffffffffffffffffffffffffffffffffffffffff\n      and\n      eq\n        /* \"contracts/owner/Operator.sol\":649:758  require(\r... */\n      tag_221\n      jumpi\n      mload(0x40)\n      0x08c379a000000000000000000000000000000000000000000000000000000000\n      dup2\n      mstore\n      0x04\n      add\n      dup1\n      dup1\n      0x20\n      add\n      dup3\n      dup2\n      sub\n      dup3\n      mstore\n      0x24\n      dup2\n      mstore\n      0x20\n      add\n      dup1\n      data_a62bfdba5053072911b63b0f6325b0e83fcd28b5a847d97efdd966feb4daaafb\n      0x24\n      swap2\n      codecopy\n      0x40\n      add\n      swap2\n      pop\n      pop\n      mload(0x40)\n      dup1\n      swap2\n      sub\n      swap1\n      revert\n    tag_221:\n        /* \"contracts/distribution/TombGenesisRewardPool.sol\":10961:10968  90 days */\n      0x76a700\n        /* \"contracts/distribution/TombGenesisRewardPool.sol\":10947:10958  poolEndTime */\n      sload(0x09)\n        /* \"contracts/distribution/TombGenesisRewardPool.sol\":10947:10968  poolEndTime + 90 days */\n      add\n        /* \"contracts/distribution/TombGenesisRewardPool.sol\":10929:10944  block.timestamp */\n      timestamp\n        /* \"contracts/distribution/TombGenesisRewardPool.sol\":10929:10968  block.timestamp < poolEndTime + 90 days */\n      lt\n        /* \"contracts/distribution/TombGenesisRewardPool.sol\":10925:11366  if (block.timestamp < poolEndTime + 90 days) {\r... */\n      iszero\n      tag_223\n      jumpi\n        /* \"contracts/distribution/TombGenesisRewardPool.sol\":11103:11107  Poly */\n      0x03\n      0x00\n      swap1\n      sload\n      swap1\n      0x0100\n      exp\n      swap1\n      div\n      0xffffffffffffffffffffffffffffffffffffffff\n      and\n        /* \"contracts/distribution/TombGenesisRewardPool.sol\":11093:11107  _token != Poly */\n      0xffffffffffffffffffffffffffffffffffffffff\n      and\n        /* \"contracts/distribution/TombGenesisRewardPool.sol\":11093:11099  _token */\n      dup4\n        /* \"contracts/distribution/TombGenesisRewardPool.sol\":11093:11107  _token != Poly */\n      0xffffffffffffffffffffffffffffffffffffffff\n      and\n      eq\n      iszero\n        /* \"contracts/distribution/TombGenesisRewardPool.sol\":11085:11116  require(_token != Poly, \"Poly\") */\n      tag_224\n      jumpi\n      mload(0x40)\n      0x08c379a000000000000000000000000000000000000000000000000000000000\n      dup2\n      mstore\n      0x04\n      add\n      dup1\n      dup1\n      0x20\n      add\n      dup3\n      dup2\n      sub\n      dup3\n      mstore\n      0x04\n      dup2\n      mstore\n      0x20\n      add\n      dup1\n      0x506f6c7900000000000000000000000000000000000000000000000000000000\n      dup2\n      mstore\n      pop\n      0x20\n      add\n      swap2\n      pop\n      pop\n      mload(0x40)\n      dup1\n      swap2\n      sub\n      swap1\n      revert\n    tag_224:\n        /* \"contracts/distribution/TombGenesisRewardPool.sol\":11131:11145  uint256 length */\n      0x00\n        /* \"contracts/distribution/TombGenesisRewardPool.sol\":11148:11156  poolInfo */\n      0x04\n        /* \"contracts/distribution/TombGenesisRewardPool.sol\":11148:11163  poolInfo.length */\n      dup1\n      sload\n      swap1\n      pop\n        /* \"contracts/distribution/TombGenesisRewardPool.sol\":11131:11163  uint256 length = poolInfo.length */\n      swap1\n      pop\n        /* \"contracts/distribution/TombGenesisRewardPool.sol\":11183:11194  uint256 pid */\n      0x00\n        /* \"contracts/distribution/TombGenesisRewardPool.sol\":11178:11355  for (uint256 pid = 0; pid < length; ++pid) {\r... */\n    tag_225:\n        /* \"contracts/distribution/TombGenesisRewardPool.sol\":11206:11212  length */\n      dup2\n        /* \"contracts/distribution/TombGenesisRewardPool.sol\":11200:11203  pid */\n      dup2\n        /* \"contracts/distribution/TombGenesisRewardPool.sol\":11200:11212  pid < length */\n      lt\n        /* \"contracts/distribution/TombGenesisRewardPool.sol\":11178:11355  for (uint256 pid = 0; pid < length; ++pid) {\r... */\n      iszero\n      tag_226\n      jumpi\n        /* \"contracts/distribution/TombGenesisRewardPool.sol\":11240:11261  PoolInfo storage pool */\n      0x00\n        /* \"contracts/distribution/TombGenesisRewardPool.sol\":11264:11272  poolInfo */\n      0x04\n        /* \"contracts/distribution/TombGenesisRewardPool.sol\":11273:11276  pid */\n      dup3\n        /* \"contracts/distribution/TombGenesisRewardPool.sol\":11264:11277  poolInfo[pid] */\n      dup2\n      sload\n      dup2\n      lt\n      tag_228\n      jumpi\n      invalid\n    tag_228:\n      swap1\n      0x00\n      mstore\n      keccak256(0x00, 0x20)\n      swap1\n      0x05\n      mul\n      add\n        /* \"contracts/distribution/TombGenesisRewardPool.sol\":11240:11277  PoolInfo storage pool = poolInfo[pid] */\n      swap1\n      pop\n        /* \"contracts/distribution/TombGenesisRewardPool.sol\":11314:11318  pool */\n      dup1\n        /* \"contracts/distribution/TombGenesisRewardPool.sol\":11314:11324  pool.token */\n      0x00\n      add\n      0x00\n      swap1\n      sload\n      swap1\n      0x0100\n      exp\n      swap1\n      div\n      0xffffffffffffffffffffffffffffffffffffffff\n      and\n        /* \"contracts/distribution/TombGenesisRewardPool.sol\":11304:11324  _token != pool.token */\n      0xffffffffffffffffffffffffffffffffffffffff\n      and\n        /* \"contracts/distribution/TombGenesisRewardPool.sol\":11304:11310  _token */\n      dup7\n        /* \"contracts/distribution/TombGenesisRewardPool.sol\":11304:11324  _token != pool.token */\n      0xffffffffffffffffffffffffffffffffffffffff\n      and\n      eq\n      iszero\n        /* \"contracts/distribution/TombGenesisRewardPool.sol\":11296:11339  require(_token != pool.token, \"pool.token\") */\n      tag_230\n      jumpi\n      mload(0x40)\n      0x08c379a000000000000000000000000000000000000000000000000000000000\n      dup2\n      mstore\n      0x04\n      add\n      dup1\n      dup1\n      0x20\n      add\n      dup3\n      dup2\n      sub\n      dup3\n      mstore\n      0x0a\n      dup2\n      mstore\n      0x20\n      add\n      dup1\n      0x706f6f6c2e746f6b656e00000000000000000000000000000000000000000000\n      dup2\n      mstore\n      pop\n      0x20\n      add\n      swap2\n      pop\n      pop\n      mload(0x40)\n      dup1\n      swap2\n      sub\n      swap1\n      revert\n    tag_230:\n        /* \"contracts/distribution/TombGenesisRewardPool.sol\":11178:11355  for (uint256 pid = 0; pid < length; ++pid) {\r... */\n      pop\n        /* \"contracts/distribution/TombGenesisRewardPool.sol\":11214:11219  ++pid */\n      dup1\n      0x01\n      add\n      swap1\n      pop\n        /* \"contracts/distribution/TombGenesisRewardPool.sol\":11178:11355  for (uint256 pid = 0; pid < length; ++pid) {\r... */\n      jump(tag_225)\n    tag_226:\n      pop\n        /* \"contracts/distribution/TombGenesisRewardPool.sol\":10925:11366  if (block.timestamp < poolEndTime + 90 days) {\r... */\n      pop\n    tag_223:\n        /* \"contracts/distribution/TombGenesisRewardPool.sol\":11376:11407  _token.safeTransfer(to, amount) */\n      tag_231\n        /* \"contracts/distribution/TombGenesisRewardPool.sol\":11396:11398  to */\n      dup2\n        /* \"contracts/distribution/TombGenesisRewardPool.sol\":11400:11406  amount */\n      dup4\n        /* \"contracts/distribution/TombGenesisRewardPool.sol\":11376:11382  _token */\n      dup6\n        /* \"contracts/distribution/TombGenesisRewardPool.sol\":11376:11395  _token.safeTransfer */\n      0xffffffffffffffffffffffffffffffffffffffff\n      and\n      tag_193\n      swap1\n        /* \"contracts/distribution/TombGenesisRewardPool.sol\":11376:11407  _token.safeTransfer(to, amount) */\n      swap3\n      swap2\n      swap1\n      0xffffffff\n      and\n      jump\t// in\n    tag_231:\n        /* \"contracts/distribution/TombGenesisRewardPool.sol\":10811:11415  function governanceRecoverUnsupported(IERC20 _token, uint256 amount, address to) external onlyOperator {\r... */\n      pop\n      pop\n      pop\n      jump\t// out\n        /* \"contracts/owner/Operator.sol\":521:606  function operator() public view returns (address) {\r... */\n    tag_92:\n        /* \"contracts/owner/Operator.sol\":562:569  address */\n      0x00\n        /* \"contracts/owner/Operator.sol\":589:598  _operator */\n      0x02\n      0x00\n      swap1\n      sload\n      swap1\n      0x0100\n      exp\n      swap1\n      div\n      0xffffffffffffffffffffffffffffffffffffffff\n      and\n        /* \"contracts/owner/Operator.sol\":582:598  return _operator */\n      swap1\n      pop\n        /* \"contracts/owner/Operator.sol\":521:606  function operator() public view returns (address) {\r... */\n      swap1\n      jump\t// out\n        /* \"contracts/distribution/TombGenesisRewardPool.sol\":1656:1684  uint256 public poolStartTime */\n    tag_95:\n      sload(0x08)\n      dup2\n      jump\t// out\n        /* \"contracts/distribution/TombGenesisRewardPool.sol\":6622:6802  function massUpdatePools() public {\r... */\n    tag_98:\n        /* \"contracts/distribution/TombGenesisRewardPool.sol\":6667:6681  uint256 length */\n      0x00\n        /* \"contracts/distribution/TombGenesisRewardPool.sol\":6684:6692  poolInfo */\n      0x04\n        /* \"contracts/distribution/TombGenesisRewardPool.sol\":6684:6699  poolInfo.length */\n      dup1\n      sload\n      swap1\n      pop\n        /* \"contracts/distribution/TombGenesisRewardPool.sol\":6667:6699  uint256 length = poolInfo.length */\n      swap1\n      pop\n        /* \"contracts/distribution/TombGenesisRewardPool.sol\":6715:6726  uint256 pid */\n      0x00\n        /* \"contracts/distribution/TombGenesisRewardPool.sol\":6710:6795  for (uint256 pid = 0; pid < length; ++pid) {\r... */\n    tag_234:\n        /* \"contracts/distribution/TombGenesisRewardPool.sol\":6738:6744  length */\n      dup2\n        /* \"contracts/distribution/TombGenesisRewardPool.sol\":6732:6735  pid */\n      dup2\n        /* \"contracts/distribution/TombGenesisRewardPool.sol\":6732:6744  pid < length */\n      lt\n        /* \"contracts/distribution/TombGenesisRewardPool.sol\":6710:6795  for (uint256 pid = 0; pid < length; ++pid) {\r... */\n      iszero\n      tag_235\n      jumpi\n        /* \"contracts/distribution/TombGenesisRewardPool.sol\":6768:6783  updatePool(pid) */\n      tag_237\n        /* \"contracts/distribution/TombGenesisRewardPool.sol\":6779:6782  pid */\n      dup2\n        /* \"contracts/distribution/TombGenesisRewardPool.sol\":6768:6778  updatePool */\n      tag_81\n        /* \"contracts/distribution/TombGenesisRewardPool.sol\":6768:6783  updatePool(pid) */\n      jump\t// in\n    tag_237:\n        /* \"contracts/distribution/TombGenesisRewardPool.sol\":6746:6751  ++pid */\n      dup1\n      0x01\n      add\n      swap1\n      pop\n        /* \"contracts/distribution/TombGenesisRewardPool.sol\":6710:6795  for (uint256 pid = 0; pid < length; ++pid) {\r... */\n      jump(tag_234)\n    tag_235:\n      pop\n        /* \"contracts/distribution/TombGenesisRewardPool.sol\":6622:6802  function massUpdatePools() public {\r... */\n      pop\n      jump\t// out\n        /* \"contracts/distribution/TombGenesisRewardPool.sol\":1733:1759  uint256 public poolEndTime */\n    tag_101:\n      sload(0x09)\n      dup2\n      jump\t// out\n        /* \"@openzeppelin/contracts/access/Ownable.sol\":1771:1916  function renounceOwnership() public virtual onlyOwner {... */\n    tag_104:\n        /* \"@openzeppelin/contracts/access/Ownable.sol\":1362:1374  _msgSender() */\n      tag_239\n        /* \"@openzeppelin/contracts/access/Ownable.sol\":1362:1372  _msgSender */\n      tag_171\n        /* \"@openzeppelin/contracts/access/Ownable.sol\":1362:1374  _msgSender() */\n      jump\t// in\n    tag_239:\n        /* \"@openzeppelin/contracts/access/Ownable.sol\":1351:1374  owner() == _msgSender() */\n      0xffffffffffffffffffffffffffffffffffffffff\n      and\n        /* \"@openzeppelin/contracts/access/Ownable.sol\":1351:1358  owner() */\n      tag_240\n        /* \"@openzeppelin/contracts/access/Ownable.sol\":1351:1356  owner */\n      tag_107\n        /* \"@openzeppelin/contracts/access/Ownable.sol\":1351:1358  owner() */\n      jump\t// in\n    tag_240:\n        /* \"@openzeppelin/contracts/access/Ownable.sol\":1351:1374  owner() == _msgSender() */\n      0xffffffffffffffffffffffffffffffffffffffff\n      and\n      eq\n        /* \"@openzeppelin/contracts/access/Ownable.sol\":1343:1411  require(owner() == _msgSender(), \"Ownable: caller is not the owner\") */\n      tag_241\n      jumpi\n      mload(0x40)\n      0x08c379a000000000000000000000000000000000000000000000000000000000\n      dup2\n      mstore\n      0x04\n      add\n      dup1\n      dup1\n      0x20\n      add\n      dup3\n      dup2\n      sub\n      dup3\n      mstore\n      0x20\n      dup2\n      mstore\n      0x20\n      add\n      dup1\n      0x4f776e61626c653a2063616c6c6572206973206e6f7420746865206f776e6572\n      dup2\n      mstore\n      pop\n      0x20\n      add\n      swap2\n      pop\n      pop\n      mload(0x40)\n      dup1\n      swap2\n      sub\n      swap1\n      revert\n    tag_241:\n        /* \"@openzeppelin/contracts/access/Ownable.sol\":1877:1878  0 */\n      0x00\n        /* \"@openzeppelin/contracts/access/Ownable.sol\":1840:1880  OwnershipTransferred(_owner, address(0)) */\n      0xffffffffffffffffffffffffffffffffffffffff\n      and\n        /* \"@openzeppelin/contracts/access/Ownable.sol\":1861:1867  _owner */\n      0x00\n      dup1\n      sload\n      swap1\n      0x0100\n      exp\n      swap1\n      div\n      0xffffffffffffffffffffffffffffffffffffffff\n      and\n        /* \"@openzeppelin/contracts/access/Ownable.sol\":1840:1880  OwnershipTransferred(_owner, address(0)) */\n      0xffffffffffffffffffffffffffffffffffffffff\n      and\n      0x8be0079c531659141344cd1fd0a4f28419497f9722a3daafe3b4186f6b6457e0\n      mload(0x40)\n      mload(0x40)\n      dup1\n      swap2\n      sub\n      swap1\n      log3\n        /* \"@openzeppelin/contracts/access/Ownable.sol\":1907:1908  0 */\n      0x00\n        /* \"@openzeppelin/contracts/access/Ownable.sol\":1890:1896  _owner */\n      dup1\n      0x00\n        /* \"@openzeppelin/contracts/access/Ownable.sol\":1890:1909  _owner = address(0) */\n      0x0100\n      exp\n      dup2\n      sload\n      dup2\n      0xffffffffffffffffffffffffffffffffffffffff\n      mul\n      not\n      and\n      swap1\n      dup4\n      0xffffffffffffffffffffffffffffffffffffffff\n      and\n      mul\n      or\n      swap1\n      sstore\n      pop\n        /* \"@openzeppelin/contracts/access/Ownable.sol\":1771:1916  function renounceOwnership() public virtual onlyOwner {... */\n      jump\t// out\n        /* \"@openzeppelin/contracts/access/Ownable.sol\":1139:1224  function owner() public view virtual returns (address) {... */\n    tag_107:\n        /* \"@openzeppelin/contracts/access/Ownable.sol\":1185:1192  address */\n      0x00\n        /* \"@openzeppelin/contracts/access/Ownable.sol\":1211:1217  _owner */\n      dup1\n      0x00\n      swap1\n      sload\n      swap1\n      0x0100\n      exp\n      swap1\n      div\n      0xffffffffffffffffffffffffffffffffffffffff\n      and\n        /* \"@openzeppelin/contracts/access/Ownable.sol\":1204:1217  return _owner */\n      swap1\n      pop\n        /* \"@openzeppelin/contracts/access/Ownable.sol\":1139:1224  function owner() public view virtual returns (address) {... */\n      swap1\n      jump\t// out\n        /* \"contracts/distribution/TombGenesisRewardPool.sol\":1410:1474  mapping(uint256 => mapping(address => UserInfo)) public userInfo */\n    tag_111:\n      mstore(0x20, 0x06)\n      dup2\n      0x00\n      mstore\n      mstore(0x20, keccak256(0x00, 0x40))\n      dup1\n      0x00\n      mstore\n      keccak256(0x00, 0x40)\n      0x00\n      swap2\n      pop\n      swap2\n      pop\n      pop\n      dup1\n      0x00\n      add\n      sload\n      swap1\n      dup1\n      0x01\n      add\n      sload\n      swap1\n      pop\n      dup3\n      jump\t// out\n        /* \"contracts/distribution/TombGenesisRewardPool.sol\":1882:1917  uint256 public runningTime = 2 days */\n    tag_114:\n      sload(0x0b)\n      dup2\n      jump\t// out\n        /* \"contracts/distribution/TombGenesisRewardPool.sol\":3243:4520  function add(\r... */\n    tag_118:\n        /* \"contracts/owner/Operator.sol\":684:694  msg.sender */\n      caller\n        /* \"contracts/owner/Operator.sol\":671:694  _operator == msg.sender */\n      0xffffffffffffffffffffffffffffffffffffffff\n      and\n        /* \"contracts/owner/Operator.sol\":671:680  _operator */\n      0x02\n      0x00\n      swap1\n      sload\n      swap1\n      0x0100\n      exp\n      swap1\n      div\n      0xffffffffffffffffffffffffffffffffffffffff\n      and\n        /* \"contracts/owner/Operator.sol\":671:694  _operator == msg.sender */\n      0xffffffffffffffffffffffffffffffffffffffff\n      and\n      eq\n        /* \"contracts/owner/Operator.sol\":649:758  require(\r... */\n      tag_245\n      jumpi\n      mload(0x40)\n      0x08c379a000000000000000000000000000000000000000000000000000000000\n      dup2\n      mstore\n      0x04\n      add\n      dup1\n      dup1\n      0x20\n      add\n      dup3\n      dup2\n      sub\n      dup3\n      mstore\n      0x24\n      dup2\n      mstore\n      0x20\n      add\n      dup1\n      data_a62bfdba5053072911b63b0f6325b0e83fcd28b5a847d97efdd966feb4daaafb\n      0x24\n      swap2\n      codecopy\n      0x40\n      add\n      swap2\n      pop\n      pop\n      mload(0x40)\n      dup1\n      swap2\n      sub\n      swap1\n      revert\n    tag_245:\n        /* \"contracts/distribution/TombGenesisRewardPool.sol\":3409:3435  checkPoolDuplicate(_token) */\n      tag_247\n        /* \"contracts/distribution/TombGenesisRewardPool.sol\":3428:3434  _token */\n      dup4\n        /* \"contracts/distribution/TombGenesisRewardPool.sol\":3409:3427  checkPoolDuplicate */\n      tag_248\n        /* \"contracts/distribution/TombGenesisRewardPool.sol\":3409:3435  checkPoolDuplicate(_token) */\n      jump\t// in\n    tag_247:\n        /* \"contracts/distribution/TombGenesisRewardPool.sol\":3450:3461  _withUpdate */\n      dup2\n        /* \"contracts/distribution/TombGenesisRewardPool.sol\":3446:3507  if (_withUpdate) {\r... */\n      iszero\n      tag_249\n      jumpi\n        /* \"contracts/distribution/TombGenesisRewardPool.sol\":3478:3495  massUpdatePools() */\n      tag_250\n        /* \"contracts/distribution/TombGenesisRewardPool.sol\":3478:3493  massUpdatePools */\n      tag_98\n        /* \"contracts/distribution/TombGenesisRewardPool.sol\":3478:3495  massUpdatePools() */\n      jump\t// in\n    tag_250:\n        /* \"contracts/distribution/TombGenesisRewardPool.sol\":3446:3507  if (_withUpdate) {\r... */\n    tag_249:\n        /* \"contracts/distribution/TombGenesisRewardPool.sol\":3539:3552  poolStartTime */\n      sload(0x08)\n        /* \"contracts/distribution/TombGenesisRewardPool.sol\":3521:3536  block.timestamp */\n      timestamp\n        /* \"contracts/distribution/TombGenesisRewardPool.sol\":3521:3552  block.timestamp < poolStartTime */\n      lt\n        /* \"contracts/distribution/TombGenesisRewardPool.sol\":3517:4051  if (block.timestamp < poolStartTime) {\r... */\n      iszero\n      tag_251\n      jumpi\n        /* \"contracts/distribution/TombGenesisRewardPool.sol\":3625:3626  0 */\n      0x00\n        /* \"contracts/distribution/TombGenesisRewardPool.sol\":3606:3621  _lastRewardTime */\n      dup2\n        /* \"contracts/distribution/TombGenesisRewardPool.sol\":3606:3626  _lastRewardTime == 0 */\n      eq\n        /* \"contracts/distribution/TombGenesisRewardPool.sol\":3602:3845  if (_lastRewardTime == 0) {\r... */\n      iszero\n      tag_252\n      jumpi\n        /* \"contracts/distribution/TombGenesisRewardPool.sol\":3665:3678  poolStartTime */\n      sload(0x08)\n        /* \"contracts/distribution/TombGenesisRewardPool.sol\":3647:3678  _lastRewardTime = poolStartTime */\n      swap1\n      pop\n        /* \"contracts/distribution/TombGenesisRewardPool.sol\":3602:3845  if (_lastRewardTime == 0) {\r... */\n      jump(tag_253)\n    tag_252:\n        /* \"contracts/distribution/TombGenesisRewardPool.sol\":3741:3754  poolStartTime */\n      sload(0x08)\n        /* \"contracts/distribution/TombGenesisRewardPool.sol\":3723:3738  _lastRewardTime */\n      dup2\n        /* \"contracts/distribution/TombGenesisRewardPool.sol\":3723:3754  _lastRewardTime < poolStartTime */\n      lt\n        /* \"contracts/distribution/TombGenesisRewardPool.sol\":3719:3830  if (_lastRewardTime < poolStartTime) {\r... */\n      iszero\n      tag_254\n      jumpi\n        /* \"contracts/distribution/TombGenesisRewardPool.sol\":3797:3810  poolStartTime */\n      sload(0x08)\n        /* \"contracts/distribution/TombGenesisRewardPool.sol\":3779:3810  _lastRewardTime = poolStartTime */\n      swap1\n      pop\n        /* \"contracts/distribution/TombGenesisRewardPool.sol\":3719:3830  if (_lastRewardTime < poolStartTime) {\r... */\n    tag_254:\n        /* \"contracts/distribution/TombGenesisRewardPool.sol\":3602:3845  if (_lastRewardTime == 0) {\r... */\n    tag_253:\n        /* \"contracts/distribution/TombGenesisRewardPool.sol\":3517:4051  if (block.timestamp < poolStartTime) {\r... */\n      jump(tag_255)\n    tag_251:\n        /* \"contracts/distribution/TombGenesisRewardPool.sol\":3932:3933  0 */\n      0x00\n        /* \"contracts/distribution/TombGenesisRewardPool.sol\":3913:3928  _lastRewardTime */\n      dup2\n        /* \"contracts/distribution/TombGenesisRewardPool.sol\":3913:3933  _lastRewardTime == 0 */\n      eq\n        /* \"contracts/distribution/TombGenesisRewardPool.sol\":3913:3970  _lastRewardTime == 0 || _lastRewardTime < block.timestamp */\n      dup1\n      tag_256\n      jumpi\n      pop\n        /* \"contracts/distribution/TombGenesisRewardPool.sol\":3955:3970  block.timestamp */\n      timestamp\n        /* \"contracts/distribution/TombGenesisRewardPool.sol\":3937:3952  _lastRewardTime */\n      dup2\n        /* \"contracts/distribution/TombGenesisRewardPool.sol\":3937:3970  _lastRewardTime < block.timestamp */\n      lt\n        /* \"contracts/distribution/TombGenesisRewardPool.sol\":3913:3970  _lastRewardTime == 0 || _lastRewardTime < block.timestamp */\n    tag_256:\n        /* \"contracts/distribution/TombGenesisRewardPool.sol\":3909:4040  if (_lastRewardTime == 0 || _lastRewardTime < block.timestamp) {\r... */\n      iszero\n      tag_257\n      jumpi\n        /* \"contracts/distribution/TombGenesisRewardPool.sol\":4009:4024  block.timestamp */\n      timestamp\n        /* \"contracts/distribution/TombGenesisRewardPool.sol\":3991:4024  _lastRewardTime = block.timestamp */\n      swap1\n      pop\n        /* \"contracts/distribution/TombGenesisRewardPool.sol\":3909:4040  if (_lastRewardTime == 0 || _lastRewardTime < block.timestamp) {\r... */\n    tag_257:\n        /* \"contracts/distribution/TombGenesisRewardPool.sol\":3517:4051  if (block.timestamp < poolStartTime) {\r... */\n    tag_255:\n        /* \"contracts/distribution/TombGenesisRewardPool.sol\":4061:4076  bool _isStarted */\n      0x00\n        /* \"contracts/distribution/TombGenesisRewardPool.sol\":4108:4121  poolStartTime */\n      sload(0x08)\n        /* \"contracts/distribution/TombGenesisRewardPool.sol\":4089:4104  _lastRewardTime */\n      dup3\n        /* \"contracts/distribution/TombGenesisRewardPool.sol\":4089:4121  _lastRewardTime <= poolStartTime */\n      gt\n      iszero\n        /* \"contracts/distribution/TombGenesisRewardPool.sol\":4088:4171  (_lastRewardTime <= poolStartTime) ||\r... */\n      dup1\n      tag_258\n      jumpi\n      pop\n        /* \"contracts/distribution/TombGenesisRewardPool.sol\":4155:4170  block.timestamp */\n      timestamp\n        /* \"contracts/distribution/TombGenesisRewardPool.sol\":4136:4151  _lastRewardTime */\n      dup3\n        /* \"contracts/distribution/TombGenesisRewardPool.sol\":4136:4170  _lastRewardTime <= block.timestamp */\n      gt\n      iszero\n        /* \"contracts/distribution/TombGenesisRewardPool.sol\":4088:4171  (_lastRewardTime <= poolStartTime) ||\r... */\n    tag_258:\n        /* \"contracts/distribution/TombGenesisRewardPool.sol\":4061:4171  bool _isStarted =\r... */\n      swap1\n      pop\n        /* \"contracts/distribution/TombGenesisRewardPool.sol\":4182:4190  poolInfo */\n      0x04\n        /* \"contracts/distribution/TombGenesisRewardPool.sol\":4196:4408  PoolInfo({\r... */\n      mload(0x40)\n      dup1\n      0xa0\n      add\n      0x40\n      mstore\n      dup1\n        /* \"contracts/distribution/TombGenesisRewardPool.sol\":4228:4234  _token */\n      dup7\n        /* \"contracts/distribution/TombGenesisRewardPool.sol\":4196:4408  PoolInfo({\r... */\n      0xffffffffffffffffffffffffffffffffffffffff\n      and\n      dup2\n      mstore\n      0x20\n      add\n        /* \"contracts/distribution/TombGenesisRewardPool.sol\":4262:4273  _allocPoint */\n      dup8\n        /* \"contracts/distribution/TombGenesisRewardPool.sol\":4196:4408  PoolInfo({\r... */\n      dup2\n      mstore\n      0x20\n      add\n        /* \"contracts/distribution/TombGenesisRewardPool.sol\":4305:4320  _lastRewardTime */\n      dup5\n        /* \"contracts/distribution/TombGenesisRewardPool.sol\":4196:4408  PoolInfo({\r... */\n      dup2\n      mstore\n      0x20\n      add\n        /* \"contracts/distribution/TombGenesisRewardPool.sol\":4354:4355  0 */\n      0x00\n        /* \"contracts/distribution/TombGenesisRewardPool.sol\":4196:4408  PoolInfo({\r... */\n      dup2\n      mstore\n      0x20\n      add\n        /* \"contracts/distribution/TombGenesisRewardPool.sol\":4382:4392  _isStarted */\n      dup4\n        /* \"contracts/distribution/TombGenesisRewardPool.sol\":4196:4408  PoolInfo({\r... */\n      iszero\n      iszero\n      dup2\n      mstore\n      pop\n        /* \"contracts/distribution/TombGenesisRewardPool.sol\":4182:4409  poolInfo.push(PoolInfo({\r... */\n      swap1\n      dup1\n      0x01\n      dup2\n      sload\n      add\n      dup1\n      dup3\n      sstore\n      dup1\n      swap2\n      pop\n      pop\n      0x01\n      swap1\n      sub\n      swap1\n      0x00\n      mstore\n      keccak256(0x00, 0x20)\n      swap1\n      0x05\n      mul\n      add\n      0x00\n      swap1\n      swap2\n      swap1\n      swap2\n      swap1\n      swap2\n      pop\n      0x00\n      dup3\n      add\n      mload\n      dup2\n      0x00\n      add\n      exp(0x0100, 0x00)\n      dup2\n      sload\n      dup2\n      0xffffffffffffffffffffffffffffffffffffffff\n      mul\n      not\n      and\n      swap1\n      dup4\n      0xffffffffffffffffffffffffffffffffffffffff\n      and\n      mul\n      or\n      swap1\n      sstore\n      pop\n      0x20\n      dup3\n      add\n      mload\n      dup2\n      0x01\n      add\n      sstore\n      0x40\n      dup3\n      add\n      mload\n      dup2\n      0x02\n      add\n      sstore\n      0x60\n      dup3\n      add\n      mload\n      dup2\n      0x03\n      add\n      sstore\n      0x80\n      dup3\n      add\n      mload\n      dup2\n      0x04\n      add\n      exp(0x0100, 0x00)\n      dup2\n      sload\n      dup2\n      0xff\n      mul\n      not\n      and\n      swap1\n      dup4\n      iszero\n      iszero\n      mul\n      or\n      swap1\n      sstore\n      pop\n      pop\n      pop\n        /* \"contracts/distribution/TombGenesisRewardPool.sol\":4424:4434  _isStarted */\n      dup1\n        /* \"contracts/distribution/TombGenesisRewardPool.sol\":4420:4513  if (_isStarted) {\r... */\n      iszero\n      tag_260\n      jumpi\n        /* \"contracts/distribution/TombGenesisRewardPool.sol\":4469:4501  totalAllocPoint.add(_allocPoint) */\n      tag_261\n        /* \"contracts/distribution/TombGenesisRewardPool.sol\":4489:4500  _allocPoint */\n      dup6\n        /* \"contracts/distribution/TombGenesisRewardPool.sol\":4469:4484  totalAllocPoint */\n      sload(0x07)\n        /* \"contracts/distribution/TombGenesisRewardPool.sol\":4469:4488  totalAllocPoint.add */\n      tag_151\n      swap1\n        /* \"contracts/distribution/TombGenesisRewardPool.sol\":4469:4501  totalAllocPoint.add(_allocPoint) */\n      swap2\n      swap1\n      0xffffffff\n      and\n      jump\t// in\n    tag_261:\n        /* \"contracts/distribution/TombGenesisRewardPool.sol\":4451:4466  totalAllocPoint */\n      0x07\n        /* \"contracts/distribution/TombGenesisRewardPool.sol\":4451:4501  totalAllocPoint = totalAllocPoint.add(_allocPoint) */\n      dup2\n      swap1\n      sstore\n      pop\n        /* \"contracts/distribution/TombGenesisRewardPool.sol\":4420:4513  if (_isStarted) {\r... */\n    tag_260:\n        /* \"contracts/owner/Operator.sol\":769:770  _ */\n      pop\n        /* \"contracts/distribution/TombGenesisRewardPool.sol\":3243:4520  function add(\r... */\n      pop\n      pop\n      pop\n      pop\n      jump\t// out\n        /* \"contracts/distribution/TombGenesisRewardPool.sol\":10689:10803  function setOperator(address _Newoperator) external onlyOperator {\r... */\n    tag_122:\n        /* \"contracts/owner/Operator.sol\":684:694  msg.sender */\n      caller\n        /* \"contracts/owner/Operator.sol\":671:694  _operator == msg.sender */\n      0xffffffffffffffffffffffffffffffffffffffff\n      and\n        /* \"contracts/owner/Operator.sol\":671:680  _operator */\n      0x02\n      0x00\n      swap1\n      sload\n      swap1\n      0x0100\n      exp\n      swap1\n      div\n      0xffffffffffffffffffffffffffffffffffffffff\n      and\n        /* \"contracts/owner/Operator.sol\":671:694  _operator == msg.sender */\n      0xffffffffffffffffffffffffffffffffffffffff\n      and\n      eq\n        /* \"contracts/owner/Operator.sol\":649:758  require(\r... */\n      tag_263\n      jumpi\n      mload(0x40)\n      0x08c379a000000000000000000000000000000000000000000000000000000000\n      dup2\n      mstore\n      0x04\n      add\n      dup1\n      dup1\n      0x20\n      add\n      dup3\n      dup2\n      sub\n      dup3\n      mstore\n      0x24\n      dup2\n      mstore\n      0x20\n      add\n      dup1\n      data_a62bfdba5053072911b63b0f6325b0e83fcd28b5a847d97efdd966feb4daaafb\n      0x24\n      swap2\n      codecopy\n      0x40\n      add\n      swap2\n      pop\n      pop\n      mload(0x40)\n      dup1\n      swap2\n      sub\n      swap1\n      revert\n    tag_263:\n        /* \"contracts/distribution/TombGenesisRewardPool.sol\":10765:10795  transferOperator(_Newoperator) */\n      tag_265\n        /* \"contracts/distribution/TombGenesisRewardPool.sol\":10782:10794  _Newoperator */\n      dup2\n        /* \"contracts/distribution/TombGenesisRewardPool.sol\":10765:10781  transferOperator */\n      tag_64\n        /* \"contracts/distribution/TombGenesisRewardPool.sol\":10765:10795  transferOperator(_Newoperator) */\n      jump\t// in\n    tag_265:\n        /* \"contracts/distribution/TombGenesisRewardPool.sol\":10689:10803  function setOperator(address _Newoperator) external onlyOperator {\r... */\n      pop\n      jump\t// out\n        /* \"contracts/distribution/TombGenesisRewardPool.sol\":1217:1235  IERC20 public Poly */\n    tag_125:\n      0x03\n      0x00\n      swap1\n      sload\n      swap1\n      0x0100\n      exp\n      swap1\n      div\n      0xffffffffffffffffffffffffffffffffffffffff\n      and\n      dup2\n      jump\t// out\n        /* \"contracts/distribution/TombGenesisRewardPool.sol\":7825:8906  function deposit(uint256 _pid, uint256 _amount) public {\r... */\n    tag_129:\n        /* \"contracts/distribution/TombGenesisRewardPool.sol\":7891:7906  address _sender */\n      0x00\n        /* \"contracts/distribution/TombGenesisRewardPool.sol\":7909:7919  msg.sender */\n      caller\n        /* \"contracts/distribution/TombGenesisRewardPool.sol\":7891:7919  address _sender = msg.sender */\n      swap1\n      pop\n        /* \"contracts/distribution/TombGenesisRewardPool.sol\":7930:7945  uint256 _before */\n      0x00\n        /* \"contracts/distribution/TombGenesisRewardPool.sol\":7948:7965  _amount.ceil(200) */\n      tag_267\n        /* \"contracts/distribution/TombGenesisRewardPool.sol\":7961:7964  200 */\n      0xc8\n        /* \"contracts/distribution/TombGenesisRewardPool.sol\":7948:7955  _amount */\n      dup5\n        /* \"contracts/distribution/TombGenesisRewardPool.sol\":7948:7960  _amount.ceil */\n      tag_268\n      swap1\n        /* \"contracts/distribution/TombGenesisRewardPool.sol\":7948:7965  _amount.ceil(200) */\n      swap2\n      swap1\n      0xffffffff\n      and\n      jump\t// in\n    tag_267:\n        /* \"contracts/distribution/TombGenesisRewardPool.sol\":7930:7965  uint256 _before = _amount.ceil(200) */\n      swap1\n      pop\n        /* \"contracts/distribution/TombGenesisRewardPool.sol\":7976:7990  uint256 _after */\n      0x00\n        /* \"contracts/distribution/TombGenesisRewardPool.sol\":7993:8020  _before.mul(200).div(10000) */\n      tag_269\n        /* \"contracts/distribution/TombGenesisRewardPool.sol\":8014:8019  10000 */\n      0x2710\n        /* \"contracts/distribution/TombGenesisRewardPool.sol\":7993:8009  _before.mul(200) */\n      tag_270\n        /* \"contracts/distribution/TombGenesisRewardPool.sol\":8005:8008  200 */\n      0xc8\n        /* \"contracts/distribution/TombGenesisRewardPool.sol\":7993:8000  _before */\n      dup6\n        /* \"contracts/distribution/TombGenesisRewardPool.sol\":7993:8004  _before.mul */\n      tag_159\n      swap1\n        /* \"contracts/distribution/TombGenesisRewardPool.sol\":7993:8009  _before.mul(200) */\n      swap2\n      swap1\n      0xffffffff\n      and\n      jump\t// in\n    tag_270:\n        /* \"contracts/distribution/TombGenesisRewardPool.sol\":7993:8013  _before.mul(200).div */\n      tag_186\n      swap1\n        /* \"contracts/distribution/TombGenesisRewardPool.sol\":7993:8020  _before.mul(200).div(10000) */\n      swap2\n      swap1\n      0xffffffff\n      and\n      jump\t// in\n    tag_269:\n        /* \"contracts/distribution/TombGenesisRewardPool.sol\":7976:8020  uint256 _after = _before.mul(200).div(10000) */\n      swap1\n      pop\n        /* \"contracts/distribution/TombGenesisRewardPool.sol\":8031:8051  uint256 _fixedAmount */\n      0x00\n        /* \"contracts/distribution/TombGenesisRewardPool.sol\":8054:8073  _amount.sub(_after) */\n      tag_271\n        /* \"contracts/distribution/TombGenesisRewardPool.sol\":8066:8072  _after */\n      dup3\n        /* \"contracts/distribution/TombGenesisRewardPool.sol\":8054:8061  _amount */\n      dup7\n        /* \"contracts/distribution/TombGenesisRewardPool.sol\":8054:8065  _amount.sub */\n      tag_150\n      swap1\n        /* \"contracts/distribution/TombGenesisRewardPool.sol\":8054:8073  _amount.sub(_after) */\n      swap2\n      swap1\n      0xffffffff\n      and\n      jump\t// in\n    tag_271:\n        /* \"contracts/distribution/TombGenesisRewardPool.sol\":8031:8073  uint256 _fixedAmount = _amount.sub(_after) */\n      swap1\n      pop\n        /* \"contracts/distribution/TombGenesisRewardPool.sol\":8086:8107  PoolInfo storage pool */\n      0x00\n        /* \"contracts/distribution/TombGenesisRewardPool.sol\":8110:8118  poolInfo */\n      0x04\n        /* \"contracts/distribution/TombGenesisRewardPool.sol\":8119:8123  _pid */\n      dup8\n        /* \"contracts/distribution/TombGenesisRewardPool.sol\":8110:8124  poolInfo[_pid] */\n      dup2\n      sload\n      dup2\n      lt\n      tag_272\n      jumpi\n      invalid\n    tag_272:\n      swap1\n      0x00\n      mstore\n      keccak256(0x00, 0x20)\n      swap1\n      0x05\n      mul\n      add\n        /* \"contracts/distribution/TombGenesisRewardPool.sol\":8086:8124  PoolInfo storage pool = poolInfo[_pid] */\n      swap1\n      pop\n        /* \"contracts/distribution/TombGenesisRewardPool.sol\":8135:8156  UserInfo storage user */\n      0x00\n        /* \"contracts/distribution/TombGenesisRewardPool.sol\":8159:8167  userInfo */\n      0x06\n        /* \"contracts/distribution/TombGenesisRewardPool.sol\":8159:8173  userInfo[_pid] */\n      0x00\n        /* \"contracts/distribution/TombGenesisRewardPool.sol\":8168:8172  _pid */\n      dup10\n        /* \"contracts/distribution/TombGenesisRewardPool.sol\":8159:8173  userInfo[_pid] */\n      dup2\n      mstore\n      0x20\n      add\n      swap1\n      dup2\n      mstore\n      0x20\n      add\n      0x00\n      keccak256\n        /* \"contracts/distribution/TombGenesisRewardPool.sol\":8159:8182  userInfo[_pid][_sender] */\n      0x00\n        /* \"contracts/distribution/TombGenesisRewardPool.sol\":8174:8181  _sender */\n      dup8\n        /* \"contracts/distribution/TombGenesisRewardPool.sol\":8159:8182  userInfo[_pid][_sender] */\n      0xffffffffffffffffffffffffffffffffffffffff\n      and\n      0xffffffffffffffffffffffffffffffffffffffff\n      and\n      dup2\n      mstore\n      0x20\n      add\n      swap1\n      dup2\n      mstore\n      0x20\n      add\n      0x00\n      keccak256\n        /* \"contracts/distribution/TombGenesisRewardPool.sol\":8135:8182  UserInfo storage user = userInfo[_pid][_sender] */\n      swap1\n      pop\n        /* \"contracts/distribution/TombGenesisRewardPool.sol\":8193:8209  updatePool(_pid) */\n      tag_274\n        /* \"contracts/distribution/TombGenesisRewardPool.sol\":8204:8208  _pid */\n      dup9\n        /* \"contracts/distribution/TombGenesisRewardPool.sol\":8193:8203  updatePool */\n      tag_81\n        /* \"contracts/distribution/TombGenesisRewardPool.sol\":8193:8209  updatePool(_pid) */\n      jump\t// in\n    tag_274:\n        /* \"contracts/distribution/TombGenesisRewardPool.sol\":8240:8241  0 */\n      0x00\n        /* \"contracts/distribution/TombGenesisRewardPool.sol\":8226:8230  user */\n      dup2\n        /* \"contracts/distribution/TombGenesisRewardPool.sol\":8226:8237  user.amount */\n      0x00\n      add\n      sload\n        /* \"contracts/distribution/TombGenesisRewardPool.sol\":8226:8241  user.amount > 0 */\n      gt\n        /* \"contracts/distribution/TombGenesisRewardPool.sol\":8222:8513  if (user.amount > 0) {\r... */\n      iszero\n      tag_275\n      jumpi\n        /* \"contracts/distribution/TombGenesisRewardPool.sol\":8258:8274  uint256 _pending */\n      0x00\n        /* \"contracts/distribution/TombGenesisRewardPool.sol\":8277:8346  user.amount.mul(pool.accStonePerShare).div(1e18).sub(user.rewardDebt) */\n      tag_276\n        /* \"contracts/distribution/TombGenesisRewardPool.sol\":8330:8334  user */\n      dup3\n        /* \"contracts/distribution/TombGenesisRewardPool.sol\":8330:8345  user.rewardDebt */\n      0x01\n      add\n      sload\n        /* \"contracts/distribution/TombGenesisRewardPool.sol\":8277:8325  user.amount.mul(pool.accStonePerShare).div(1e18) */\n      tag_277\n        /* \"contracts/distribution/TombGenesisRewardPool.sol\":8320:8324  1e18 */\n      0x0de0b6b3a7640000\n        /* \"contracts/distribution/TombGenesisRewardPool.sol\":8277:8315  user.amount.mul(pool.accStonePerShare) */\n      tag_278\n        /* \"contracts/distribution/TombGenesisRewardPool.sol\":8293:8297  pool */\n      dup8\n        /* \"contracts/distribution/TombGenesisRewardPool.sol\":8293:8314  pool.accStonePerShare */\n      0x03\n      add\n      sload\n        /* \"contracts/distribution/TombGenesisRewardPool.sol\":8277:8281  user */\n      dup8\n        /* \"contracts/distribution/TombGenesisRewardPool.sol\":8277:8288  user.amount */\n      0x00\n      add\n      sload\n        /* \"contracts/distribution/TombGenesisRewardPool.sol\":8277:8292  user.amount.mul */\n      tag_159\n      swap1\n        /* \"contracts/distribution/TombGenesisRewardPool.sol\":8277:8315  user.amount.mul(pool.accStonePerShare) */\n      swap2\n      swap1\n      0xffffffff\n      and\n      jump\t// in\n    tag_278:\n        /* \"contracts/distribution/TombGenesisRewardPool.sol\":8277:8319  user.amount.mul(pool.accStonePerShare).div */\n      tag_186\n      swap1\n        /* \"contracts/distribution/TombGenesisRewardPool.sol\":8277:8325  user.amount.mul(pool.accStonePerShare).div(1e18) */\n      swap2\n      swap1\n      0xffffffff\n      and\n      jump\t// in\n    tag_277:\n        /* \"contracts/distribution/TombGenesisRewardPool.sol\":8277:8329  user.amount.mul(pool.accStonePerShare).div(1e18).sub */\n      tag_150\n      swap1\n        /* \"contracts/distribution/TombGenesisRewardPool.sol\":8277:8346  user.amount.mul(pool.accStonePerShare).div(1e18).sub(user.rewardDebt) */\n      swap2\n      swap1\n      0xffffffff\n      and\n      jump\t// in\n    tag_276:\n        /* \"contracts/distribution/TombGenesisRewardPool.sol\":8258:8346  uint256 _pending = user.amount.mul(pool.accStonePerShare).div(1e18).sub(user.rewardDebt) */\n      swap1\n      pop\n        /* \"contracts/distribution/TombGenesisRewardPool.sol\":8376:8377  0 */\n      0x00\n        /* \"contracts/distribution/TombGenesisRewardPool.sol\":8365:8373  _pending */\n      dup2\n        /* \"contracts/distribution/TombGenesisRewardPool.sol\":8365:8377  _pending > 0 */\n      gt\n        /* \"contracts/distribution/TombGenesisRewardPool.sol\":8361:8502  if (_pending > 0) {\r... */\n      iszero\n      tag_279\n      jumpi\n        /* \"contracts/distribution/TombGenesisRewardPool.sol\":8398:8433  safePolyTransfer(_sender, _pending) */\n      tag_280\n        /* \"contracts/distribution/TombGenesisRewardPool.sol\":8415:8422  _sender */\n      dup8\n        /* \"contracts/distribution/TombGenesisRewardPool.sol\":8424:8432  _pending */\n      dup3\n        /* \"contracts/distribution/TombGenesisRewardPool.sol\":8398:8414  safePolyTransfer */\n      tag_189\n        /* \"contracts/distribution/TombGenesisRewardPool.sol\":8398:8433  safePolyTransfer(_sender, _pending) */\n      jump\t// in\n    tag_280:\n        /* \"contracts/distribution/TombGenesisRewardPool.sol\":8468:8475  _sender */\n      dup7\n        /* \"contracts/distribution/TombGenesisRewardPool.sol\":8457:8486  RewardPaid(_sender, _pending) */\n      0xffffffffffffffffffffffffffffffffffffffff\n      and\n      0xe2403640ba68fed3a2f88b7557551d1993f84b99bb10ff833f0cf8db0c5e0486\n        /* \"contracts/distribution/TombGenesisRewardPool.sol\":8477:8485  _pending */\n      dup3\n        /* \"contracts/distribution/TombGenesisRewardPool.sol\":8457:8486  RewardPaid(_sender, _pending) */\n      mload(0x40)\n      dup1\n      dup3\n      dup2\n      mstore\n      0x20\n      add\n      swap2\n      pop\n      pop\n      mload(0x40)\n      dup1\n      swap2\n      sub\n      swap1\n      log2\n        /* \"contracts/distribution/TombGenesisRewardPool.sol\":8361:8502  if (_pending > 0) {\r... */\n    tag_279:\n        /* \"contracts/distribution/TombGenesisRewardPool.sol\":8222:8513  if (user.amount > 0) {\r... */\n      pop\n    tag_275:\n        /* \"contracts/distribution/TombGenesisRewardPool.sol\":8537:8538  0 */\n      0x00\n        /* \"contracts/distribution/TombGenesisRewardPool.sol\":8527:8534  _amount */\n      dup8\n        /* \"contracts/distribution/TombGenesisRewardPool.sol\":8527:8538  _amount > 0 */\n      gt\n        /* \"contracts/distribution/TombGenesisRewardPool.sol\":8523:8775  if (_amount > 0) {\r... */\n      iszero\n      tag_281\n      jumpi\n        /* \"contracts/distribution/TombGenesisRewardPool.sol\":8555:8615  pool.token.safeTransferFrom(_sender, address(this), _amount) */\n      tag_282\n        /* \"contracts/distribution/TombGenesisRewardPool.sol\":8583:8590  _sender */\n      dup7\n        /* \"contracts/distribution/TombGenesisRewardPool.sol\":8600:8604  this */\n      address\n        /* \"contracts/distribution/TombGenesisRewardPool.sol\":8607:8614  _amount */\n      dup10\n        /* \"contracts/distribution/TombGenesisRewardPool.sol\":8555:8559  pool */\n      dup6\n        /* \"contracts/distribution/TombGenesisRewardPool.sol\":8555:8565  pool.token */\n      0x00\n      add\n      0x00\n      swap1\n      sload\n      swap1\n      0x0100\n      exp\n      swap1\n      div\n      0xffffffffffffffffffffffffffffffffffffffff\n      and\n        /* \"contracts/distribution/TombGenesisRewardPool.sol\":8555:8582  pool.token.safeTransferFrom */\n      0xffffffffffffffffffffffffffffffffffffffff\n      and\n      tag_283\n      swap1\n        /* \"contracts/distribution/TombGenesisRewardPool.sol\":8555:8615  pool.token.safeTransferFrom(_sender, address(this), _amount) */\n      swap4\n      swap3\n      swap2\n      swap1\n      0xffffffff\n      and\n      jump\t// in\n    tag_282:\n        /* \"contracts/distribution/TombGenesisRewardPool.sol\":8644:8673  user.amount.add(_fixedAmount) */\n      tag_284\n        /* \"contracts/distribution/TombGenesisRewardPool.sol\":8660:8672  _fixedAmount */\n      dup4\n        /* \"contracts/distribution/TombGenesisRewardPool.sol\":8644:8648  user */\n      dup3\n        /* \"contracts/distribution/TombGenesisRewardPool.sol\":8644:8655  user.amount */\n      0x00\n      add\n      sload\n        /* \"contracts/distribution/TombGenesisRewardPool.sol\":8644:8659  user.amount.add */\n      tag_151\n      swap1\n        /* \"contracts/distribution/TombGenesisRewardPool.sol\":8644:8673  user.amount.add(_fixedAmount) */\n      swap2\n      swap1\n      0xffffffff\n      and\n      jump\t// in\n    tag_284:\n        /* \"contracts/distribution/TombGenesisRewardPool.sol\":8630:8634  user */\n      dup2\n        /* \"contracts/distribution/TombGenesisRewardPool.sol\":8630:8641  user.amount */\n      0x00\n      add\n        /* \"contracts/distribution/TombGenesisRewardPool.sol\":8630:8673  user.amount = user.amount.add(_fixedAmount) */\n      dup2\n      swap1\n      sstore\n      pop\n        /* \"contracts/distribution/TombGenesisRewardPool.sol\":8688:8763  pool.token.safeTransfer(0x01fC7f2C81acD9D38ed4D509b1F17555E549EF1D, _after) */\n      tag_285\n        /* \"contracts/distribution/TombGenesisRewardPool.sol\":8712:8754  0x01fC7f2C81acD9D38ed4D509b1F17555E549EF1D */\n      0x01fc7f2c81acd9d38ed4d509b1f17555e549ef1d\n        /* \"contracts/distribution/TombGenesisRewardPool.sol\":8756:8762  _after */\n      dup6\n        /* \"contracts/distribution/TombGenesisRewardPool.sol\":8688:8692  pool */\n      dup5\n        /* \"contracts/distribution/TombGenesisRewardPool.sol\":8688:8698  pool.token */\n      0x00\n      add\n      0x00\n      swap1\n      sload\n      swap1\n      0x0100\n      exp\n      swap1\n      div\n      0xffffffffffffffffffffffffffffffffffffffff\n      and\n        /* \"contracts/distribution/TombGenesisRewardPool.sol\":8688:8711  pool.token.safeTransfer */\n      0xffffffffffffffffffffffffffffffffffffffff\n      and\n      tag_193\n      swap1\n        /* \"contracts/distribution/TombGenesisRewardPool.sol\":8688:8763  pool.token.safeTransfer(0x01fC7f2C81acD9D38ed4D509b1F17555E549EF1D, _after) */\n      swap3\n      swap2\n      swap1\n      0xffffffff\n      and\n      jump\t// in\n    tag_285:\n        /* \"contracts/distribution/TombGenesisRewardPool.sol\":8523:8775  if (_amount > 0) {\r... */\n    tag_281:\n        /* \"contracts/distribution/TombGenesisRewardPool.sol\":8803:8851  user.amount.mul(pool.accStonePerShare).div(1e18) */\n      tag_286\n        /* \"contracts/distribution/TombGenesisRewardPool.sol\":8846:8850  1e18 */\n      0x0de0b6b3a7640000\n        /* \"contracts/distribution/TombGenesisRewardPool.sol\":8803:8841  user.amount.mul(pool.accStonePerShare) */\n      tag_287\n        /* \"contracts/distribution/TombGenesisRewardPool.sol\":8819:8823  pool */\n      dup5\n        /* \"contracts/distribution/TombGenesisRewardPool.sol\":8819:8840  pool.accStonePerShare */\n      0x03\n      add\n      sload\n        /* \"contracts/distribution/TombGenesisRewardPool.sol\":8803:8807  user */\n      dup5\n        /* \"contracts/distribution/TombGenesisRewardPool.sol\":8803:8814  user.amount */\n      0x00\n      add\n      sload\n        /* \"contracts/distribution/TombGenesisRewardPool.sol\":8803:8818  user.amount.mul */\n      tag_159\n      swap1\n        /* \"contracts/distribution/TombGenesisRewardPool.sol\":8803:8841  user.amount.mul(pool.accStonePerShare) */\n      swap2\n      swap1\n      0xffffffff\n      and\n      jump\t// in\n    tag_287:\n        /* \"contracts/distribution/TombGenesisRewardPool.sol\":8803:8845  user.amount.mul(pool.accStonePerShare).div */\n      tag_186\n      swap1\n        /* \"contracts/distribution/TombGenesisRewardPool.sol\":8803:8851  user.amount.mul(pool.accStonePerShare).div(1e18) */\n      swap2\n      swap1\n      0xffffffff\n      and\n      jump\t// in\n    tag_286:\n        /* \"contracts/distribution/TombGenesisRewardPool.sol\":8785:8789  user */\n      dup2\n        /* \"contracts/distribution/TombGenesisRewardPool.sol\":8785:8800  user.rewardDebt */\n      0x01\n      add\n        /* \"contracts/distribution/TombGenesisRewardPool.sol\":8785:8851  user.rewardDebt = user.amount.mul(pool.accStonePerShare).div(1e18) */\n      dup2\n      swap1\n      sstore\n      pop\n        /* \"contracts/distribution/TombGenesisRewardPool.sol\":8884:8888  _pid */\n      dup8\n        /* \"contracts/distribution/TombGenesisRewardPool.sol\":8875:8882  _sender */\n      dup7\n        /* \"contracts/distribution/TombGenesisRewardPool.sol\":8867:8898  Deposit(_sender, _pid, _amount) */\n      0xffffffffffffffffffffffffffffffffffffffff\n      and\n      0x90890809c654f11d6e72a28fa60149770a0d11ec6c92319d6ceb2bb0a4ea1a15\n        /* \"contracts/distribution/TombGenesisRewardPool.sol\":8890:8897  _amount */\n      dup10\n        /* \"contracts/distribution/TombGenesisRewardPool.sol\":8867:8898  Deposit(_sender, _pid, _amount) */\n      mload(0x40)\n      dup1\n      dup3\n      dup2\n      mstore\n      0x20\n      add\n      swap2\n      pop\n      pop\n      mload(0x40)\n      dup1\n      swap2\n      sub\n      swap1\n      log3\n        /* \"contracts/distribution/TombGenesisRewardPool.sol\":7825:8906  function deposit(uint256 _pid, uint256 _amount) public {\r... */\n      pop\n      pop\n      pop\n      pop\n      pop\n      pop\n      pop\n      pop\n      jump\t// out\n        /* \"contracts/distribution/TombGenesisRewardPool.sol\":5762:6539  function pendingStone(uint256 _pid, address _user) external view returns (uint256) {\r... */\n    tag_133:\n        /* \"contracts/distribution/TombGenesisRewardPool.sol\":5836:5843  uint256 */\n      0x00\n        /* \"contracts/distribution/TombGenesisRewardPool.sol\":5856:5877  PoolInfo storage pool */\n      dup1\n        /* \"contracts/distribution/TombGenesisRewardPool.sol\":5880:5888  poolInfo */\n      0x04\n        /* \"contracts/distribution/TombGenesisRewardPool.sol\":5889:5893  _pid */\n      dup5\n        /* \"contracts/distribution/TombGenesisRewardPool.sol\":5880:5894  poolInfo[_pid] */\n      dup2\n      sload\n      dup2\n      lt\n      tag_289\n      jumpi\n      invalid\n    tag_289:\n      swap1\n      0x00\n      mstore\n      keccak256(0x00, 0x20)\n      swap1\n      0x05\n      mul\n      add\n        /* \"contracts/distribution/TombGenesisRewardPool.sol\":5856:5894  PoolInfo storage pool = poolInfo[_pid] */\n      swap1\n      pop\n        /* \"contracts/distribution/TombGenesisRewardPool.sol\":5905:5926  UserInfo storage user */\n      0x00\n        /* \"contracts/distribution/TombGenesisRewardPool.sol\":5929:5937  userInfo */\n      0x06\n        /* \"contracts/distribution/TombGenesisRewardPool.sol\":5929:5943  userInfo[_pid] */\n      0x00\n        /* \"contracts/distribution/TombGenesisRewardPool.sol\":5938:5942  _pid */\n      dup7\n        /* \"contracts/distribution/TombGenesisRewardPool.sol\":5929:5943  userInfo[_pid] */\n      dup2\n      mstore\n      0x20\n      add\n      swap1\n      dup2\n      mstore\n      0x20\n      add\n      0x00\n      keccak256\n        /* \"contracts/distribution/TombGenesisRewardPool.sol\":5929:5950  userInfo[_pid][_user] */\n      0x00\n        /* \"contracts/distribution/TombGenesisRewardPool.sol\":5944:5949  _user */\n      dup6\n        /* \"contracts/distribution/TombGenesisRewardPool.sol\":5929:5950  userInfo[_pid][_user] */\n      0xffffffffffffffffffffffffffffffffffffffff\n      and\n      0xffffffffffffffffffffffffffffffffffffffff\n      and\n      dup2\n      mstore\n      0x20\n      add\n      swap1\n      dup2\n      mstore\n      0x20\n      add\n      0x00\n      keccak256\n        /* \"contracts/distribution/TombGenesisRewardPool.sol\":5905:5950  UserInfo storage user = userInfo[_pid][_user] */\n      swap1\n      pop\n        /* \"contracts/distribution/TombGenesisRewardPool.sol\":5961:5985  uint256 accStonePerShare */\n      0x00\n        /* \"contracts/distribution/TombGenesisRewardPool.sol\":5988:5992  pool */\n      dup3\n        /* \"contracts/distribution/TombGenesisRewardPool.sol\":5988:6009  pool.accStonePerShare */\n      0x03\n      add\n      sload\n        /* \"contracts/distribution/TombGenesisRewardPool.sol\":5961:6009  uint256 accStonePerShare = pool.accStonePerShare */\n      swap1\n      pop\n        /* \"contracts/distribution/TombGenesisRewardPool.sol\":6020:6039  uint256 tokenSupply */\n      0x00\n        /* \"contracts/distribution/TombGenesisRewardPool.sol\":6042:6046  pool */\n      dup4\n        /* \"contracts/distribution/TombGenesisRewardPool.sol\":6042:6052  pool.token */\n      0x00\n      add\n      0x00\n      swap1\n      sload\n      swap1\n      0x0100\n      exp\n      swap1\n      div\n      0xffffffffffffffffffffffffffffffffffffffff\n      and\n        /* \"contracts/distribution/TombGenesisRewardPool.sol\":6042:6062  pool.token.balanceOf */\n      0xffffffffffffffffffffffffffffffffffffffff\n      and\n      0x70a08231\n        /* \"contracts/distribution/TombGenesisRewardPool.sol\":6071:6075  this */\n      address\n        /* \"contracts/distribution/TombGenesisRewardPool.sol\":6042:6077  pool.token.balanceOf(address(this)) */\n      mload(0x40)\n      dup3\n      0xffffffff\n      and\n      0xe0\n      shl\n      dup2\n      mstore\n      0x04\n      add\n      dup1\n      dup3\n      0xffffffffffffffffffffffffffffffffffffffff\n      and\n      dup2\n      mstore\n      0x20\n      add\n      swap2\n      pop\n      pop\n      0x20\n      mload(0x40)\n      dup1\n      dup4\n      sub\n      dup2\n      dup7\n      dup1\n      extcodesize\n      iszero\n      dup1\n      iszero\n      tag_291\n      jumpi\n      0x00\n      dup1\n      revert\n    tag_291:\n      pop\n      gas\n      staticcall\n      iszero\n      dup1\n      iszero\n      tag_293\n      jumpi\n      returndatasize\n      0x00\n      dup1\n      returndatacopy\n      revert(0x00, returndatasize)\n    tag_293:\n      pop\n      pop\n      pop\n      pop\n      mload(0x40)\n      returndatasize\n      0x20\n      dup2\n      lt\n      iszero\n      tag_294\n      jumpi\n      0x00\n      dup1\n      revert\n    tag_294:\n      dup2\n      add\n      swap1\n      dup1\n      dup1\n      mload\n      swap1\n      0x20\n      add\n      swap1\n      swap3\n      swap2\n      swap1\n      pop\n      pop\n      pop\n        /* \"contracts/distribution/TombGenesisRewardPool.sol\":6020:6077  uint256 tokenSupply = pool.token.balanceOf(address(this)) */\n      swap1\n      pop\n        /* \"contracts/distribution/TombGenesisRewardPool.sol\":6110:6114  pool */\n      dup4\n        /* \"contracts/distribution/TombGenesisRewardPool.sol\":6110:6129  pool.lastRewardTime */\n      0x02\n      add\n      sload\n        /* \"contracts/distribution/TombGenesisRewardPool.sol\":6092:6107  block.timestamp */\n      timestamp\n        /* \"contracts/distribution/TombGenesisRewardPool.sol\":6092:6129  block.timestamp > pool.lastRewardTime */\n      gt\n        /* \"contracts/distribution/TombGenesisRewardPool.sol\":6092:6149  block.timestamp > pool.lastRewardTime && tokenSupply != 0 */\n      dup1\n      iszero\n      tag_295\n      jumpi\n      pop\n        /* \"contracts/distribution/TombGenesisRewardPool.sol\":6148:6149  0 */\n      0x00\n        /* \"contracts/distribution/TombGenesisRewardPool.sol\":6133:6144  tokenSupply */\n      dup2\n        /* \"contracts/distribution/TombGenesisRewardPool.sol\":6133:6149  tokenSupply != 0 */\n      eq\n      iszero\n        /* \"contracts/distribution/TombGenesisRewardPool.sol\":6092:6149  block.timestamp > pool.lastRewardTime && tokenSupply != 0 */\n    tag_295:\n        /* \"contracts/distribution/TombGenesisRewardPool.sol\":6088:6450  if (block.timestamp > pool.lastRewardTime && tokenSupply != 0) {\r... */\n      iszero\n      tag_296\n      jumpi\n        /* \"contracts/distribution/TombGenesisRewardPool.sol\":6166:6190  uint256 _generatedReward */\n      0x00\n        /* \"contracts/distribution/TombGenesisRewardPool.sol\":6193:6249  getGeneratedReward(pool.lastRewardTime, block.timestamp) */\n      tag_297\n        /* \"contracts/distribution/TombGenesisRewardPool.sol\":6212:6216  pool */\n      dup6\n        /* \"contracts/distribution/TombGenesisRewardPool.sol\":6212:6231  pool.lastRewardTime */\n      0x02\n      add\n      sload\n        /* \"contracts/distribution/TombGenesisRewardPool.sol\":6233:6248  block.timestamp */\n      timestamp\n        /* \"contracts/distribution/TombGenesisRewardPool.sol\":6193:6211  getGeneratedReward */\n      tag_60\n        /* \"contracts/distribution/TombGenesisRewardPool.sol\":6193:6249  getGeneratedReward(pool.lastRewardTime, block.timestamp) */\n      jump\t// in\n    tag_297:\n        /* \"contracts/distribution/TombGenesisRewardPool.sol\":6166:6249  uint256 _generatedReward = getGeneratedReward(pool.lastRewardTime, block.timestamp) */\n      swap1\n      pop\n        /* \"contracts/distribution/TombGenesisRewardPool.sol\":6264:6283  uint256 _PolyReward */\n      0x00\n        /* \"contracts/distribution/TombGenesisRewardPool.sol\":6286:6344  _generatedReward.mul(pool.allocPoint).div(totalAllocPoint) */\n      tag_298\n        /* \"contracts/distribution/TombGenesisRewardPool.sol\":6328:6343  totalAllocPoint */\n      sload(0x07)\n        /* \"contracts/distribution/TombGenesisRewardPool.sol\":6286:6323  _generatedReward.mul(pool.allocPoint) */\n      tag_299\n        /* \"contracts/distribution/TombGenesisRewardPool.sol\":6307:6311  pool */\n      dup9\n        /* \"contracts/distribution/TombGenesisRewardPool.sol\":6307:6322  pool.allocPoint */\n      0x01\n      add\n      sload\n        /* \"contracts/distribution/TombGenesisRewardPool.sol\":6286:6302  _generatedReward */\n      dup6\n        /* \"contracts/distribution/TombGenesisRewardPool.sol\":6286:6306  _generatedReward.mul */\n      tag_159\n      swap1\n        /* \"contracts/distribution/TombGenesisRewardPool.sol\":6286:6323  _generatedReward.mul(pool.allocPoint) */\n      swap2\n      swap1\n      0xffffffff\n      and\n      jump\t// in\n    tag_299:\n        /* \"contracts/distribution/TombGenesisRewardPool.sol\":6286:6327  _generatedReward.mul(pool.allocPoint).div */\n      tag_186\n      swap1\n        /* \"contracts/distribution/TombGenesisRewardPool.sol\":6286:6344  _generatedReward.mul(pool.allocPoint).div(totalAllocPoint) */\n      swap2\n      swap1\n      0xffffffff\n      and\n      jump\t// in\n    tag_298:\n        /* \"contracts/distribution/TombGenesisRewardPool.sol\":6264:6344  uint256 _PolyReward = _generatedReward.mul(pool.allocPoint).div(totalAllocPoint) */\n      swap1\n      pop\n        /* \"contracts/distribution/TombGenesisRewardPool.sol\":6378:6438  accStonePerShare.add(_PolyReward.mul(1e18).div(tokenSupply)) */\n      tag_300\n        /* \"contracts/distribution/TombGenesisRewardPool.sol\":6399:6437  _PolyReward.mul(1e18).div(tokenSupply) */\n      tag_301\n        /* \"contracts/distribution/TombGenesisRewardPool.sol\":6425:6436  tokenSupply */\n      dup5\n        /* \"contracts/distribution/TombGenesisRewardPool.sol\":6399:6420  _PolyReward.mul(1e18) */\n      tag_302\n        /* \"contracts/distribution/TombGenesisRewardPool.sol\":6415:6419  1e18 */\n      0x0de0b6b3a7640000\n        /* \"contracts/distribution/TombGenesisRewardPool.sol\":6399:6410  _PolyReward */\n      dup6\n        /* \"contracts/distribution/TombGenesisRewardPool.sol\":6399:6414  _PolyReward.mul */\n      tag_159\n      swap1\n        /* \"contracts/distribution/TombGenesisRewardPool.sol\":6399:6420  _PolyReward.mul(1e18) */\n      swap2\n      swap1\n      0xffffffff\n      and\n      jump\t// in\n    tag_302:\n        /* \"contracts/distribution/TombGenesisRewardPool.sol\":6399:6424  _PolyReward.mul(1e18).div */\n      tag_186\n      swap1\n        /* \"contracts/distribution/TombGenesisRewardPool.sol\":6399:6437  _PolyReward.mul(1e18).div(tokenSupply) */\n      swap2\n      swap1\n      0xffffffff\n      and\n      jump\t// in\n    tag_301:\n        /* \"contracts/distribution/TombGenesisRewardPool.sol\":6378:6394  accStonePerShare */\n      dup6\n        /* \"contracts/distribution/TombGenesisRewardPool.sol\":6378:6398  accStonePerShare.add */\n      tag_151\n      swap1\n        /* \"contracts/distribution/TombGenesisRewardPool.sol\":6378:6438  accStonePerShare.add(_PolyReward.mul(1e18).div(tokenSupply)) */\n      swap2\n      swap1\n      0xffffffff\n      and\n      jump\t// in\n    tag_300:\n        /* \"contracts/distribution/TombGenesisRewardPool.sol\":6359:6438  accStonePerShare = accStonePerShare.add(_PolyReward.mul(1e18).div(tokenSupply)) */\n      swap4\n      pop\n        /* \"contracts/distribution/TombGenesisRewardPool.sol\":6088:6450  if (block.timestamp > pool.lastRewardTime && tokenSupply != 0) {\r... */\n      pop\n      pop\n    tag_296:\n        /* \"contracts/distribution/TombGenesisRewardPool.sol\":6467:6531  user.amount.mul(accStonePerShare).div(1e18).sub(user.rewardDebt) */\n      tag_303\n        /* \"contracts/distribution/TombGenesisRewardPool.sol\":6515:6519  user */\n      dup4\n        /* \"contracts/distribution/TombGenesisRewardPool.sol\":6515:6530  user.rewardDebt */\n      0x01\n      add\n      sload\n        /* \"contracts/distribution/TombGenesisRewardPool.sol\":6467:6510  user.amount.mul(accStonePerShare).div(1e18) */\n      tag_304\n        /* \"contracts/distribution/TombGenesisRewardPool.sol\":6505:6509  1e18 */\n      0x0de0b6b3a7640000\n        /* \"contracts/distribution/TombGenesisRewardPool.sol\":6467:6500  user.amount.mul(accStonePerShare) */\n      tag_305\n        /* \"contracts/distribution/TombGenesisRewardPool.sol\":6483:6499  accStonePerShare */\n      dup7\n        /* \"contracts/distribution/TombGenesisRewardPool.sol\":6467:6471  user */\n      dup9\n        /* \"contracts/distribution/TombGenesisRewardPool.sol\":6467:6478  user.amount */\n      0x00\n      add\n      sload\n        /* \"contracts/distribution/TombGenesisRewardPool.sol\":6467:6482  user.amount.mul */\n      tag_159\n      swap1\n        /* \"contracts/distribution/TombGenesisRewardPool.sol\":6467:6500  user.amount.mul(accStonePerShare) */\n      swap2\n      swap1\n      0xffffffff\n      and\n      jump\t// in\n    tag_305:\n        /* \"contracts/distribution/TombGenesisRewardPool.sol\":6467:6504  user.amount.mul(accStonePerShare).div */\n      tag_186\n      swap1\n        /* \"contracts/distribution/TombGenesisRewardPool.sol\":6467:6510  user.amount.mul(accStonePerShare).div(1e18) */\n      swap2\n      swap1\n      0xffffffff\n      and\n      jump\t// in\n    tag_304:\n        /* \"contracts/distribution/TombGenesisRewardPool.sol\":6467:6514  user.amount.mul(accStonePerShare).div(1e18).sub */\n      tag_150\n      swap1\n        /* \"contracts/distribution/TombGenesisRewardPool.sol\":6467:6531  user.amount.mul(accStonePerShare).div(1e18).sub(user.rewardDebt) */\n      swap2\n      swap1\n      0xffffffff\n      and\n      jump\t// in\n    tag_303:\n        /* \"contracts/distribution/TombGenesisRewardPool.sol\":6460:6531  return user.amount.mul(accStonePerShare).div(1e18).sub(user.rewardDebt) */\n      swap5\n      pop\n      pop\n      pop\n      pop\n      pop\n        /* \"contracts/distribution/TombGenesisRewardPool.sol\":5762:6539  function pendingStone(uint256 _pid, address _user) external view returns (uint256) {\r... */\n      swap3\n      swap2\n      pop\n      pop\n      jump\t// out\n        /* \"contracts/owner/Operator.sol\":1017:1334  function transferOwnership(address newOperator_ ) public onlyOwner {\r... */\n    tag_137:\n        /* \"@openzeppelin/contracts/access/Ownable.sol\":1362:1374  _msgSender() */\n      tag_307\n        /* \"@openzeppelin/contracts/access/Ownable.sol\":1362:1372  _msgSender */\n      tag_171\n        /* \"@openzeppelin/contracts/access/Ownable.sol\":1362:1374  _msgSender() */\n      jump\t// in\n    tag_307:\n        /* \"@openzeppelin/contracts/access/Ownable.sol\":1351:1374  owner() == _msgSender() */\n      0xffffffffffffffffffffffffffffffffffffffff\n      and\n        /* \"@openzeppelin/contracts/access/Ownable.sol\":1351:1358  owner() */\n      tag_308\n        /* \"@openzeppelin/contracts/access/Ownable.sol\":1351:1356  owner */\n      tag_107\n        /* \"@openzeppelin/contracts/access/Ownable.sol\":1351:1358  owner() */\n      jump\t// in\n    tag_308:\n        /* \"@openzeppelin/contracts/access/Ownable.sol\":1351:1374  owner() == _msgSender() */\n      0xffffffffffffffffffffffffffffffffffffffff\n      and\n      eq\n        /* \"@openzeppelin/contracts/access/Ownable.sol\":1343:1411  require(owner() == _msgSender(), \"Ownable: caller is not the owner\") */\n      tag_309\n      jumpi\n      mload(0x40)\n      0x08c379a000000000000000000000000000000000000000000000000000000000\n      dup2\n      mstore\n      0x04\n      add\n      dup1\n      dup1\n      0x20\n      add\n      dup3\n      dup2\n      sub\n      dup3\n      mstore\n      0x20\n      dup2\n      mstore\n      0x20\n      add\n      dup1\n      0x4f776e61626c653a2063616c6c6572206973206e6f7420746865206f776e6572\n      dup2\n      mstore\n      pop\n      0x20\n      add\n      swap2\n      pop\n      pop\n      mload(0x40)\n      dup1\n      swap2\n      sub\n      swap1\n      revert\n    tag_309:\n        /* \"contracts/owner/Operator.sol\":1141:1142  0 */\n      0x00\n        /* \"contracts/owner/Operator.sol\":1117:1143  newOperator_ != address(0) */\n      0xffffffffffffffffffffffffffffffffffffffff\n      and\n        /* \"contracts/owner/Operator.sol\":1117:1129  newOperator_ */\n      dup2\n        /* \"contracts/owner/Operator.sol\":1117:1143  newOperator_ != address(0) */\n      0xffffffffffffffffffffffffffffffffffffffff\n      and\n      eq\n      iszero\n        /* \"contracts/owner/Operator.sol\":1095:1216  require(\r... */\n      tag_311\n      jumpi\n      mload(0x40)\n      0x08c379a000000000000000000000000000000000000000000000000000000000\n      dup2\n      mstore\n      0x04\n      add\n      dup1\n      dup1\n      0x20\n      add\n      dup3\n      dup2\n      sub\n      dup3\n      mstore\n      0x2d\n      dup2\n      mstore\n      0x20\n      add\n      dup1\n      data_756508c1c0554725dd91ce0028667672a5318d736a5e4bcd98b6bc8fe98c3dc7\n      0x2d\n      swap2\n      codecopy\n      0x40\n      add\n      swap2\n      pop\n      pop\n      mload(0x40)\n      dup1\n      swap2\n      sub\n      swap1\n      revert\n    tag_311:\n        /* \"contracts/owner/Operator.sol\":1264:1276  newOperator_ */\n      dup1\n        /* \"contracts/owner/Operator.sol\":1232:1277  OperatorTransferred(address(0), newOperator_) */\n      0xffffffffffffffffffffffffffffffffffffffff\n      and\n        /* \"contracts/owner/Operator.sol\":1260:1261  0 */\n      0x00\n        /* \"contracts/owner/Operator.sol\":1232:1277  OperatorTransferred(address(0), newOperator_) */\n      0xffffffffffffffffffffffffffffffffffffffff\n      and\n      0x74da04524d50c64947f5dd5381ef1a4dca5cba8ed1d816243f9e48aa0b5617ed\n      mload(0x40)\n      mload(0x40)\n      dup1\n      swap2\n      sub\n      swap1\n      log3\n        /* \"contracts/owner/Operator.sol\":1288:1326  Ownable.tranferOwnership(newOperator_) */\n      tag_312\n        /* \"contracts/owner/Operator.sol\":1313:1325  newOperator_ */\n      dup2\n        /* \"contracts/owner/Operator.sol\":1288:1312  Ownable.tranferOwnership */\n      tag_313\n        /* \"contracts/owner/Operator.sol\":1288:1326  Ownable.tranferOwnership(newOperator_) */\n      jump\t// in\n    tag_312:\n        /* \"contracts/owner/Operator.sol\":1017:1334  function transferOwnership(address newOperator_ ) public onlyOwner {\r... */\n      pop\n      jump\t// out\n        /* \"@openzeppelin/contracts/utils/math/SafeMath.sol\":3136:3291  function sub(uint256 a, uint256 b) internal pure returns (uint256) {... */\n    tag_150:\n        /* \"@openzeppelin/contracts/utils/math/SafeMath.sol\":3194:3201  uint256 */\n      0x00\n        /* \"@openzeppelin/contracts/utils/math/SafeMath.sol\":3226:3227  a */\n      dup3\n        /* \"@openzeppelin/contracts/utils/math/SafeMath.sol\":3221:3222  b */\n      dup3\n        /* \"@openzeppelin/contracts/utils/math/SafeMath.sol\":3221:3227  b <= a */\n      gt\n      iszero\n        /* \"@openzeppelin/contracts/utils/math/SafeMath.sol\":3213:3262  require(b <= a, \"SafeMath: subtraction overflow\") */\n      tag_315\n      jumpi\n      mload(0x40)\n      0x08c379a000000000000000000000000000000000000000000000000000000000\n      dup2\n      mstore\n      0x04\n      add\n      dup1\n      dup1\n      0x20\n      add\n      dup3\n      dup2\n      sub\n      dup3\n      mstore\n      0x1e\n      dup2\n      mstore\n      0x20\n      add\n      dup1\n      0x536166654d6174683a207375627472616374696f6e206f766572666c6f770000\n      dup2\n      mstore\n      pop\n      0x20\n      add\n      swap2\n      pop\n      pop\n      mload(0x40)\n      dup1\n      swap2\n      sub\n      swap1\n      revert\n    tag_315:\n        /* \"@openzeppelin/contracts/utils/math/SafeMath.sol\":3283:3284  b */\n      dup2\n        /* \"@openzeppelin/contracts/utils/math/SafeMath.sol\":3279:3280  a */\n      dup4\n        /* \"@openzeppelin/contracts/utils/math/SafeMath.sol\":3279:3284  a - b */\n      sub\n        /* \"@openzeppelin/contracts/utils/math/SafeMath.sol\":3272:3284  return a - b */\n      swap1\n      pop\n        /* \"@openzeppelin/contracts/utils/math/SafeMath.sol\":3136:3291  function sub(uint256 a, uint256 b) internal pure returns (uint256) {... */\n      swap3\n      swap2\n      pop\n      pop\n      jump\t// out\n        /* \"@openzeppelin/contracts/utils/math/SafeMath.sol\":2690:2865  function add(uint256 a, uint256 b) internal pure returns (uint256) {... */\n    tag_151:\n        /* \"@openzeppelin/contracts/utils/math/SafeMath.sol\":2748:2755  uint256 */\n      0x00\n        /* \"@openzeppelin/contracts/utils/math/SafeMath.sol\":2767:2776  uint256 c */\n      dup1\n        /* \"@openzeppelin/contracts/utils/math/SafeMath.sol\":2783:2784  b */\n      dup3\n        /* \"@openzeppelin/contracts/utils/math/SafeMath.sol\":2779:2780  a */\n      dup5\n        /* \"@openzeppelin/contracts/utils/math/SafeMath.sol\":2779:2784  a + b */\n      add\n        /* \"@openzeppelin/contracts/utils/math/SafeMath.sol\":2767:2784  uint256 c = a + b */\n      swap1\n      pop\n        /* \"@openzeppelin/contracts/utils/math/SafeMath.sol\":2807:2808  a */\n      dup4\n        /* \"@openzeppelin/contracts/utils/math/SafeMath.sol\":2802:2803  c */\n      dup2\n        /* \"@openzeppelin/contracts/utils/math/SafeMath.sol\":2802:2808  c >= a */\n      lt\n      iszero\n        /* \"@openzeppelin/contracts/utils/math/SafeMath.sol\":2794:2840  require(c >= a, \"SafeMath: addition overflow\") */\n      tag_317\n      jumpi\n      mload(0x40)\n      0x08c379a000000000000000000000000000000000000000000000000000000000\n      dup2\n      mstore\n      0x04\n      add\n      dup1\n      dup1\n      0x20\n      add\n      dup3\n      dup2\n      sub\n      dup3\n      mstore\n      0x1b\n      dup2\n      mstore\n      0x20\n      add\n      dup1\n      0x536166654d6174683a206164646974696f6e206f766572666c6f770000000000\n      dup2\n      mstore\n      pop\n      0x20\n      add\n      swap2\n      pop\n      pop\n      mload(0x40)\n      dup1\n      swap2\n      sub\n      swap1\n      revert\n    tag_317:\n        /* \"@openzeppelin/contracts/utils/math/SafeMath.sol\":2857:2858  c */\n      dup1\n        /* \"@openzeppelin/contracts/utils/math/SafeMath.sol\":2850:2858  return c */\n      swap2\n      pop\n      pop\n        /* \"@openzeppelin/contracts/utils/math/SafeMath.sol\":2690:2865  function add(uint256 a, uint256 b) internal pure returns (uint256) {... */\n      swap3\n      swap2\n      pop\n      pop\n      jump\t// out\n        /* \"@openzeppelin/contracts/utils/math/SafeMath.sol\":3538:3753  function mul(uint256 a, uint256 b) internal pure returns (uint256) {... */\n    tag_159:\n        /* \"@openzeppelin/contracts/utils/math/SafeMath.sol\":3596:3603  uint256 */\n      0x00\n        /* \"@openzeppelin/contracts/utils/math/SafeMath.sol\":3624:3625  0 */\n      dup1\n        /* \"@openzeppelin/contracts/utils/math/SafeMath.sol\":3619:3620  a */\n      dup4\n        /* \"@openzeppelin/contracts/utils/math/SafeMath.sol\":3619:3625  a == 0 */\n      eq\n        /* \"@openzeppelin/contracts/utils/math/SafeMath.sol\":3615:3635  if (a == 0) return 0 */\n      iszero\n      tag_319\n      jumpi\n        /* \"@openzeppelin/contracts/utils/math/SafeMath.sol\":3634:3635  0 */\n      0x00\n        /* \"@openzeppelin/contracts/utils/math/SafeMath.sol\":3627:3635  return 0 */\n      swap1\n      pop\n      jump(tag_318)\n        /* \"@openzeppelin/contracts/utils/math/SafeMath.sol\":3615:3635  if (a == 0) return 0 */\n    tag_319:\n        /* \"@openzeppelin/contracts/utils/math/SafeMath.sol\":3645:3654  uint256 c */\n      0x00\n        /* \"@openzeppelin/contracts/utils/math/SafeMath.sol\":3661:3662  b */\n      dup3\n        /* \"@openzeppelin/contracts/utils/math/SafeMath.sol\":3657:3658  a */\n      dup5\n        /* \"@openzeppelin/contracts/utils/math/SafeMath.sol\":3657:3662  a * b */\n      mul\n        /* \"@openzeppelin/contracts/utils/math/SafeMath.sol\":3645:3662  uint256 c = a * b */\n      swap1\n      pop\n        /* \"@openzeppelin/contracts/utils/math/SafeMath.sol\":3689:3690  b */\n      dup3\n        /* \"@openzeppelin/contracts/utils/math/SafeMath.sol\":3684:3685  a */\n      dup5\n        /* \"@openzeppelin/contracts/utils/math/SafeMath.sol\":3680:3681  c */\n      dup3\n        /* \"@openzeppelin/contracts/utils/math/SafeMath.sol\":3680:3685  c / a */\n      dup2\n      tag_320\n      jumpi\n      invalid\n    tag_320:\n      div\n        /* \"@openzeppelin/contracts/utils/math/SafeMath.sol\":3680:3690  c / a == b */\n      eq\n        /* \"@openzeppelin/contracts/utils/math/SafeMath.sol\":3672:3728  require(c / a == b, \"SafeMath: multiplication overflow\") */\n      tag_321\n      jumpi\n      mload(0x40)\n      0x08c379a000000000000000000000000000000000000000000000000000000000\n      dup2\n      mstore\n      0x04\n      add\n      dup1\n      dup1\n      0x20\n      add\n      dup3\n      dup2\n      sub\n      dup3\n      mstore\n      0x21\n      dup2\n      mstore\n      0x20\n      add\n      dup1\n      data_9113bb53c2876a3805b2c9242029423fc540a728243ce887ab24c82cf119fba3\n      0x21\n      swap2\n      codecopy\n      0x40\n      add\n      swap2\n      pop\n      pop\n      mload(0x40)\n      dup1\n      swap2\n      sub\n      swap1\n      revert\n    tag_321:\n        /* \"@openzeppelin/contracts/utils/math/SafeMath.sol\":3745:3746  c */\n      dup1\n        /* \"@openzeppelin/contracts/utils/math/SafeMath.sol\":3738:3746  return c */\n      swap2\n      pop\n      pop\n        /* \"@openzeppelin/contracts/utils/math/SafeMath.sol\":3538:3753  function mul(uint256 a, uint256 b) internal pure returns (uint256) {... */\n    tag_318:\n      swap3\n      swap2\n      pop\n      pop\n      jump\t// out\n        /* \"@openzeppelin/contracts/utils/Context.sol\":596:692  function _msgSender() internal view virtual returns (address) {... */\n    tag_171:\n        /* \"@openzeppelin/contracts/utils/Context.sol\":649:656  address */\n      0x00\n        /* \"@openzeppelin/contracts/utils/Context.sol\":675:685  msg.sender */\n      caller\n        /* \"@openzeppelin/contracts/utils/Context.sol\":668:685  return msg.sender */\n      swap1\n      pop\n        /* \"@openzeppelin/contracts/utils/Context.sol\":596:692  function _msgSender() internal view virtual returns (address) {... */\n      swap1\n      jump\t// out\n        /* \"contracts/owner/Operator.sol\":1342:1687  function _transferOperator(address newOperator_) internal {\r... */\n    tag_176:\n        /* \"contracts/owner/Operator.sol\":1457:1458  0 */\n      0x00\n        /* \"contracts/owner/Operator.sol\":1433:1459  newOperator_ != address(0) */\n      0xffffffffffffffffffffffffffffffffffffffff\n      and\n        /* \"contracts/owner/Operator.sol\":1433:1445  newOperator_ */\n      dup2\n        /* \"contracts/owner/Operator.sol\":1433:1459  newOperator_ != address(0) */\n      0xffffffffffffffffffffffffffffffffffffffff\n      and\n      eq\n      iszero\n        /* \"contracts/owner/Operator.sol\":1411:1532  require(\r... */\n      tag_324\n      jumpi\n      mload(0x40)\n      0x08c379a000000000000000000000000000000000000000000000000000000000\n      dup2\n      mstore\n      0x04\n      add\n      dup1\n      dup1\n      0x20\n      add\n      dup3\n      dup2\n      sub\n      dup3\n      mstore\n      0x2d\n      dup2\n      mstore\n      0x20\n      add\n      dup1\n      data_756508c1c0554725dd91ce0028667672a5318d736a5e4bcd98b6bc8fe98c3dc7\n      0x2d\n      swap2\n      codecopy\n      0x40\n      add\n      swap2\n      pop\n      pop\n      mload(0x40)\n      dup1\n      swap2\n      sub\n      swap1\n      revert\n    tag_324:\n        /* \"contracts/owner/Operator.sol\":1580:1592  newOperator_ */\n      dup1\n        /* \"contracts/owner/Operator.sol\":1548:1593  OperatorTransferred(address(0), newOperator_) */\n      0xffffffffffffffffffffffffffffffffffffffff\n      and\n        /* \"contracts/owner/Operator.sol\":1576:1577  0 */\n      0x00\n        /* \"contracts/owner/Operator.sol\":1548:1593  OperatorTransferred(address(0), newOperator_) */\n      0xffffffffffffffffffffffffffffffffffffffff\n      and\n      0x74da04524d50c64947f5dd5381ef1a4dca5cba8ed1d816243f9e48aa0b5617ed\n      mload(0x40)\n      mload(0x40)\n      dup1\n      swap2\n      sub\n      swap1\n      log3\n        /* \"contracts/owner/Operator.sol\":1604:1644  Ownable.transferOwnership_(newOperator_) */\n      tag_325\n        /* \"contracts/owner/Operator.sol\":1631:1643  newOperator_ */\n      dup2\n        /* \"contracts/owner/Operator.sol\":1604:1630  Ownable.transferOwnership_ */\n      tag_326\n        /* \"contracts/owner/Operator.sol\":1604:1644  Ownable.transferOwnership_(newOperator_) */\n      jump\t// in\n    tag_325:\n        /* \"contracts/owner/Operator.sol\":1667:1679  newOperator_ */\n      dup1\n        /* \"contracts/owner/Operator.sol\":1655:1664  _operator */\n      0x02\n      0x00\n        /* \"contracts/owner/Operator.sol\":1655:1679  _operator = newOperator_ */\n      0x0100\n      exp\n      dup2\n      sload\n      dup2\n      0xffffffffffffffffffffffffffffffffffffffff\n      mul\n      not\n      and\n      swap1\n      dup4\n      0xffffffffffffffffffffffffffffffffffffffff\n      and\n      mul\n      or\n      swap1\n      sstore\n      pop\n        /* \"contracts/owner/Operator.sol\":1342:1687  function _transferOperator(address newOperator_) internal {\r... */\n      pop\n      jump\t// out\n        /* \"@openzeppelin/contracts/utils/math/SafeMath.sol\":4217:4367  function div(uint256 a, uint256 b) internal pure returns (uint256) {... */\n    tag_186:\n        /* \"@openzeppelin/contracts/utils/math/SafeMath.sol\":4275:4282  uint256 */\n      0x00\n        /* \"@openzeppelin/contracts/utils/math/SafeMath.sol\":4306:4307  0 */\n      dup1\n        /* \"@openzeppelin/contracts/utils/math/SafeMath.sol\":4302:4303  b */\n      dup3\n        /* \"@openzeppelin/contracts/utils/math/SafeMath.sol\":4302:4307  b > 0 */\n      gt\n        /* \"@openzeppelin/contracts/utils/math/SafeMath.sol\":4294:4338  require(b > 0, \"SafeMath: division by zero\") */\n      tag_328\n      jumpi\n      mload(0x40)\n      0x08c379a000000000000000000000000000000000000000000000000000000000\n      dup2\n      mstore\n      0x04\n      add\n      dup1\n      dup1\n      0x20\n      add\n      dup3\n      dup2\n      sub\n      dup3\n      mstore\n      0x1a\n      dup2\n      mstore\n      0x20\n      add\n      dup1\n      0x536166654d6174683a206469766973696f6e206279207a65726f000000000000\n      dup2\n      mstore\n      pop\n      0x20\n      add\n      swap2\n      pop\n      pop\n      mload(0x40)\n      dup1\n      swap2\n      sub\n      swap1\n      revert\n    tag_328:\n        /* \"@openzeppelin/contracts/utils/math/SafeMath.sol\":4359:4360  b */\n      dup2\n        /* \"@openzeppelin/contracts/utils/math/SafeMath.sol\":4355:4356  a */\n      dup4\n        /* \"@openzeppelin/contracts/utils/math/SafeMath.sol\":4355:4360  a / b */\n      dup2\n      tag_329\n      jumpi\n      invalid\n    tag_329:\n      div\n        /* \"@openzeppelin/contracts/utils/math/SafeMath.sol\":4348:4360  return a / b */\n      swap1\n      pop\n        /* \"@openzeppelin/contracts/utils/math/SafeMath.sol\":4217:4367  function div(uint256 a, uint256 b) internal pure returns (uint256) {... */\n      swap3\n      swap2\n      pop\n      pop\n      jump\t// out\n        /* \"contracts/distribution/TombGenesisRewardPool.sol\":10316:10681  function safePolyTransfer(address _to, uint256 _amount) internal {\r... */\n    tag_189:\n        /* \"contracts/distribution/TombGenesisRewardPool.sol\":10392:10412  uint256 _PolyBalance */\n      0x00\n        /* \"contracts/distribution/TombGenesisRewardPool.sol\":10415:10419  Poly */\n      0x03\n      0x00\n      swap1\n      sload\n      swap1\n      0x0100\n      exp\n      swap1\n      div\n      0xffffffffffffffffffffffffffffffffffffffff\n      and\n        /* \"contracts/distribution/TombGenesisRewardPool.sol\":10415:10429  Poly.balanceOf */\n      0xffffffffffffffffffffffffffffffffffffffff\n      and\n      0x70a08231\n        /* \"contracts/distribution/TombGenesisRewardPool.sol\":10438:10442  this */\n      address\n        /* \"contracts/distribution/TombGenesisRewardPool.sol\":10415:10444  Poly.balanceOf(address(this)) */\n      mload(0x40)\n      dup3\n      0xffffffff\n      and\n      0xe0\n      shl\n      dup2\n      mstore\n      0x04\n      add\n      dup1\n      dup3\n      0xffffffffffffffffffffffffffffffffffffffff\n      and\n      dup2\n      mstore\n      0x20\n      add\n      swap2\n      pop\n      pop\n      0x20\n      mload(0x40)\n      dup1\n      dup4\n      sub\n      dup2\n      dup7\n      dup1\n      extcodesize\n      iszero\n      dup1\n      iszero\n      tag_331\n      jumpi\n      0x00\n      dup1\n      revert\n    tag_331:\n      pop\n      gas\n      staticcall\n      iszero\n      dup1\n      iszero\n      tag_333\n      jumpi\n      returndatasize\n      0x00\n      dup1\n      returndatacopy\n      revert(0x00, returndatasize)\n    tag_333:\n      pop\n      pop\n      pop\n      pop\n      mload(0x40)\n      returndatasize\n      0x20\n      dup2\n      lt\n      iszero\n      tag_334\n      jumpi\n      0x00\n      dup1\n      revert\n    tag_334:\n      dup2\n      add\n      swap1\n      dup1\n      dup1\n      mload\n      swap1\n      0x20\n      add\n      swap1\n      swap3\n      swap2\n      swap1\n      pop\n      pop\n      pop\n        /* \"contracts/distribution/TombGenesisRewardPool.sol\":10392:10444  uint256 _PolyBalance = Poly.balanceOf(address(this)) */\n      swap1\n      pop\n        /* \"contracts/distribution/TombGenesisRewardPool.sol\":10474:10475  0 */\n      0x00\n        /* \"contracts/distribution/TombGenesisRewardPool.sol\":10459:10471  _PolyBalance */\n      dup2\n        /* \"contracts/distribution/TombGenesisRewardPool.sol\":10459:10475  _PolyBalance > 0 */\n      gt\n        /* \"contracts/distribution/TombGenesisRewardPool.sol\":10455:10674  if (_PolyBalance > 0) {\r... */\n      iszero\n      tag_335\n      jumpi\n        /* \"contracts/distribution/TombGenesisRewardPool.sol\":10506:10518  _PolyBalance */\n      dup1\n        /* \"contracts/distribution/TombGenesisRewardPool.sol\":10496:10503  _amount */\n      dup3\n        /* \"contracts/distribution/TombGenesisRewardPool.sol\":10496:10518  _amount > _PolyBalance */\n      gt\n        /* \"contracts/distribution/TombGenesisRewardPool.sol\":10492:10663  if (_amount > _PolyBalance) {\r... */\n      iszero\n      tag_336\n      jumpi\n        /* \"contracts/distribution/TombGenesisRewardPool.sol\":10539:10575  Poly.safeTransfer(_to, _PolyBalance) */\n      tag_337\n        /* \"contracts/distribution/TombGenesisRewardPool.sol\":10557:10560  _to */\n      dup4\n        /* \"contracts/distribution/TombGenesisRewardPool.sol\":10562:10574  _PolyBalance */\n      dup3\n        /* \"contracts/distribution/TombGenesisRewardPool.sol\":10539:10543  Poly */\n      0x03\n      0x00\n      swap1\n      sload\n      swap1\n      0x0100\n      exp\n      swap1\n      div\n      0xffffffffffffffffffffffffffffffffffffffff\n      and\n        /* \"contracts/distribution/TombGenesisRewardPool.sol\":10539:10556  Poly.safeTransfer */\n      0xffffffffffffffffffffffffffffffffffffffff\n      and\n      tag_193\n      swap1\n        /* \"contracts/distribution/TombGenesisRewardPool.sol\":10539:10575  Poly.safeTransfer(_to, _PolyBalance) */\n      swap3\n      swap2\n      swap1\n      0xffffffff\n      and\n      jump\t// in\n    tag_337:\n        /* \"contracts/distribution/TombGenesisRewardPool.sol\":10492:10663  if (_amount > _PolyBalance) {\r... */\n      jump(tag_338)\n    tag_336:\n        /* \"contracts/distribution/TombGenesisRewardPool.sol\":10616:10647  Poly.safeTransfer(_to, _amount) */\n      tag_339\n        /* \"contracts/distribution/TombGenesisRewardPool.sol\":10634:10637  _to */\n      dup4\n        /* \"contracts/distribution/TombGenesisRewardPool.sol\":10639:10646  _amount */\n      dup4\n        /* \"contracts/distribution/TombGenesisRewardPool.sol\":10616:10620  Poly */\n      0x03\n      0x00\n      swap1\n      sload\n      swap1\n      0x0100\n      exp\n      swap1\n      div\n      0xffffffffffffffffffffffffffffffffffffffff\n      and\n        /* \"contracts/distribution/TombGenesisRewardPool.sol\":10616:10633  Poly.safeTransfer */\n      0xffffffffffffffffffffffffffffffffffffffff\n      and\n      tag_193\n      swap1\n        /* \"contracts/distribution/TombGenesisRewardPool.sol\":10616:10647  Poly.safeTransfer(_to, _amount) */\n      swap3\n      swap2\n      swap1\n      0xffffffff\n      and\n      jump\t// in\n    tag_339:\n        /* \"contracts/distribution/TombGenesisRewardPool.sol\":10492:10663  if (_amount > _PolyBalance) {\r... */\n    tag_338:\n        /* \"contracts/distribution/TombGenesisRewardPool.sol\":10455:10674  if (_PolyBalance > 0) {\r... */\n    tag_335:\n        /* \"contracts/distribution/TombGenesisRewardPool.sol\":10316:10681  function safePolyTransfer(address _to, uint256 _amount) internal {\r... */\n      pop\n      pop\n      pop\n      jump\t// out\n        /* \"@openzeppelin/contracts/token/ERC20/utils/SafeERC20.sol\":717:892  function safeTransfer(IERC20 token, address to, uint256 value) internal {... */\n    tag_193:\n        /* \"@openzeppelin/contracts/token/ERC20/utils/SafeERC20.sol\":799:885  _callOptionalReturn(token, abi.encodeWithSelector(token.transfer.selector, to, value)) */\n      tag_341\n        /* \"@openzeppelin/contracts/token/ERC20/utils/SafeERC20.sol\":819:824  token */\n      dup4\n        /* \"@openzeppelin/contracts/token/ERC20/utils/SafeERC20.sol\":849:872  token.transfer.selector */\n      shl(0xe0, 0xa9059cbb)\n        /* \"@openzeppelin/contracts/token/ERC20/utils/SafeERC20.sol\":874:876  to */\n      dup5\n        /* \"@openzeppelin/contracts/token/ERC20/utils/SafeERC20.sol\":878:883  value */\n      dup5\n        /* \"@openzeppelin/contracts/token/ERC20/utils/SafeERC20.sol\":826:884  abi.encodeWithSelector(token.transfer.selector, to, value) */\n      add(0x24, mload(0x40))\n      dup1\n      dup4\n      0xffffffffffffffffffffffffffffffffffffffff\n      and\n      dup2\n      mstore\n      0x20\n      add\n      dup3\n      dup2\n      mstore\n      0x20\n      add\n      swap3\n      pop\n      pop\n      pop\n      mload(0x40)\n      0x20\n      dup2\n      dup4\n      sub\n      sub\n      dup2\n      mstore\n      swap1\n      0x40\n      mstore\n      swap1\n      not(0xffffffffffffffffffffffffffffffffffffffffffffffffffffffff)\n      and\n      0x20\n      dup3\n      add\n      dup1\n      mload\n      0xffffffffffffffffffffffffffffffffffffffffffffffffffffffff\n      dup4\n      dup2\n      dup4\n      and\n      or\n      dup4\n      mstore\n      pop\n      pop\n      pop\n      pop\n        /* \"@openzeppelin/contracts/token/ERC20/utils/SafeERC20.sol\":799:818  _callOptionalReturn */\n      tag_342\n        /* \"@openzeppelin/contracts/token/ERC20/utils/SafeERC20.sol\":799:885  _callOptionalReturn(token, abi.encodeWithSelector(token.transfer.selector, to, value)) */\n      jump\t// in\n    tag_341:\n        /* \"@openzeppelin/contracts/token/ERC20/utils/SafeERC20.sol\":717:892  function safeTransfer(IERC20 token, address to, uint256 value) internal {... */\n      pop\n      pop\n      pop\n      jump\t// out\n        /* \"contracts/distribution/TombGenesisRewardPool.sol\":2904:3165  function checkPoolDuplicate(IERC20 _token) internal view {\r... */\n    tag_248:\n        /* \"contracts/distribution/TombGenesisRewardPool.sol\":2972:2986  uint256 length */\n      0x00\n        /* \"contracts/distribution/TombGenesisRewardPool.sol\":2989:2997  poolInfo */\n      0x04\n        /* \"contracts/distribution/TombGenesisRewardPool.sol\":2989:3004  poolInfo.length */\n      dup1\n      sload\n      swap1\n      pop\n        /* \"contracts/distribution/TombGenesisRewardPool.sol\":2972:3004  uint256 length = poolInfo.length */\n      swap1\n      pop\n        /* \"contracts/distribution/TombGenesisRewardPool.sol\":3020:3031  uint256 pid */\n      0x00\n        /* \"contracts/distribution/TombGenesisRewardPool.sol\":3015:3158  for (uint256 pid = 0; pid < length; ++pid) {\r... */\n    tag_344:\n        /* \"contracts/distribution/TombGenesisRewardPool.sol\":3043:3049  length */\n      dup2\n        /* \"contracts/distribution/TombGenesisRewardPool.sol\":3037:3040  pid */\n      dup2\n        /* \"contracts/distribution/TombGenesisRewardPool.sol\":3037:3049  pid < length */\n      lt\n        /* \"contracts/distribution/TombGenesisRewardPool.sol\":3015:3158  for (uint256 pid = 0; pid < length; ++pid) {\r... */\n      iszero\n      tag_345\n      jumpi\n        /* \"contracts/distribution/TombGenesisRewardPool.sol\":3104:3110  _token */\n      dup3\n        /* \"contracts/distribution/TombGenesisRewardPool.sol\":3081:3110  poolInfo[pid].token != _token */\n      0xffffffffffffffffffffffffffffffffffffffff\n      and\n        /* \"contracts/distribution/TombGenesisRewardPool.sol\":3081:3089  poolInfo */\n      0x04\n        /* \"contracts/distribution/TombGenesisRewardPool.sol\":3090:3093  pid */\n      dup3\n        /* \"contracts/distribution/TombGenesisRewardPool.sol\":3081:3094  poolInfo[pid] */\n      dup2\n      sload\n      dup2\n      lt\n      tag_347\n      jumpi\n      invalid\n    tag_347:\n      swap1\n      0x00\n      mstore\n      keccak256(0x00, 0x20)\n      swap1\n      0x05\n      mul\n      add\n        /* \"contracts/distribution/TombGenesisRewardPool.sol\":3081:3100  poolInfo[pid].token */\n      0x00\n      add\n      0x00\n      swap1\n      sload\n      swap1\n      0x0100\n      exp\n      swap1\n      div\n      0xffffffffffffffffffffffffffffffffffffffff\n      and\n        /* \"contracts/distribution/TombGenesisRewardPool.sol\":3081:3110  poolInfo[pid].token != _token */\n      0xffffffffffffffffffffffffffffffffffffffff\n      and\n      eq\n      iszero\n        /* \"contracts/distribution/TombGenesisRewardPool.sol\":3073:3146  require(poolInfo[pid].token != _token, \"PolyGenesisPool: existing pool?\") */\n      tag_349\n      jumpi\n      mload(0x40)\n      0x08c379a000000000000000000000000000000000000000000000000000000000\n      dup2\n      mstore\n      0x04\n      add\n      dup1\n      dup1\n      0x20\n      add\n      dup3\n      dup2\n      sub\n      dup3\n      mstore\n      0x1f\n      dup2\n      mstore\n      0x20\n      add\n      dup1\n      0x506f6c7947656e65736973506f6f6c3a206578697374696e6720706f6f6c3f00\n      dup2\n      mstore\n      pop\n      0x20\n      add\n      swap2\n      pop\n      pop\n      mload(0x40)\n      dup1\n      swap2\n      sub\n      swap1\n      revert\n    tag_349:\n        /* \"contracts/distribution/TombGenesisRewardPool.sol\":3051:3056  ++pid */\n      dup1\n      0x01\n      add\n      swap1\n      pop\n        /* \"contracts/distribution/TombGenesisRewardPool.sol\":3015:3158  for (uint256 pid = 0; pid < length; ++pid) {\r... */\n      jump(tag_344)\n    tag_345:\n      pop\n        /* \"contracts/distribution/TombGenesisRewardPool.sol\":2904:3165  function checkPoolDuplicate(IERC20 _token) internal view {\r... */\n      pop\n      pop\n      jump\t// out\n        /* \"@openzeppelin/contracts/utils/math/SafeMath.sol\":5601:5772  function ceil(uint256 a, uint256 m) internal pure returns (uint256) {... */\n    tag_268:\n        /* \"@openzeppelin/contracts/utils/math/SafeMath.sol\":5660:5667  uint256 */\n      0x00\n        /* \"@openzeppelin/contracts/utils/math/SafeMath.sol\":5679:5688  uint256 c */\n      dup1\n        /* \"@openzeppelin/contracts/utils/math/SafeMath.sol\":5691:5700  add(a, m) */\n      tag_351\n        /* \"@openzeppelin/contracts/utils/math/SafeMath.sol\":5695:5696  a */\n      dup5\n        /* \"@openzeppelin/contracts/utils/math/SafeMath.sol\":5698:5699  m */\n      dup5\n        /* \"@openzeppelin/contracts/utils/math/SafeMath.sol\":5691:5694  add */\n      tag_151\n        /* \"@openzeppelin/contracts/utils/math/SafeMath.sol\":5691:5700  add(a, m) */\n      jump\t// in\n    tag_351:\n        /* \"@openzeppelin/contracts/utils/math/SafeMath.sol\":5679:5700  uint256 c = add(a, m) */\n      swap1\n      pop\n        /* \"@openzeppelin/contracts/utils/math/SafeMath.sol\":5710:5719  uint256 d */\n      0x00\n        /* \"@openzeppelin/contracts/utils/math/SafeMath.sol\":5722:5731  sub(c, 1) */\n      tag_352\n        /* \"@openzeppelin/contracts/utils/math/SafeMath.sol\":5726:5727  c */\n      dup3\n        /* \"@openzeppelin/contracts/utils/math/SafeMath.sol\":5729:5730  1 */\n      0x01\n        /* \"@openzeppelin/contracts/utils/math/SafeMath.sol\":5722:5725  sub */\n      tag_150\n        /* \"@openzeppelin/contracts/utils/math/SafeMath.sol\":5722:5731  sub(c, 1) */\n      jump\t// in\n    tag_352:\n        /* \"@openzeppelin/contracts/utils/math/SafeMath.sol\":5710:5731  uint256 d = sub(c, 1) */\n      swap1\n      pop\n        /* \"@openzeppelin/contracts/utils/math/SafeMath.sol\":5748:5765  mul(div(d, m), m) */\n      tag_353\n        /* \"@openzeppelin/contracts/utils/math/SafeMath.sol\":5752:5761  div(d, m) */\n      tag_354\n        /* \"@openzeppelin/contracts/utils/math/SafeMath.sol\":5756:5757  d */\n      dup3\n        /* \"@openzeppelin/contracts/utils/math/SafeMath.sol\":5759:5760  m */\n      dup7\n        /* \"@openzeppelin/contracts/utils/math/SafeMath.sol\":5752:5755  div */\n      tag_186\n        /* \"@openzeppelin/contracts/utils/math/SafeMath.sol\":5752:5761  div(d, m) */\n      jump\t// in\n    tag_354:\n        /* \"@openzeppelin/contracts/utils/math/SafeMath.sol\":5763:5764  m */\n      dup6\n        /* \"@openzeppelin/contracts/utils/math/SafeMath.sol\":5748:5751  mul */\n      tag_159\n        /* \"@openzeppelin/contracts/utils/math/SafeMath.sol\":5748:5765  mul(div(d, m), m) */\n      jump\t// in\n    tag_353:\n        /* \"@openzeppelin/contracts/utils/math/SafeMath.sol\":5741:5765  return mul(div(d, m), m) */\n      swap3\n      pop\n      pop\n      pop\n        /* \"@openzeppelin/contracts/utils/math/SafeMath.sol\":5601:5772  function ceil(uint256 a, uint256 m) internal pure returns (uint256) {... */\n      swap3\n      swap2\n      pop\n      pop\n      jump\t// out\n        /* \"@openzeppelin/contracts/token/ERC20/utils/SafeERC20.sol\":898:1101  function safeTransferFrom(IERC20 token, address from, address to, uint256 value) internal {... */\n    tag_283:\n        /* \"@openzeppelin/contracts/token/ERC20/utils/SafeERC20.sol\":998:1094  _callOptionalReturn(token, abi.encodeWithSelector(token.transferFrom.selector, from, to, value)) */\n      tag_356\n        /* \"@openzeppelin/contracts/token/ERC20/utils/SafeERC20.sol\":1018:1023  token */\n      dup5\n        /* \"@openzeppelin/contracts/token/ERC20/utils/SafeERC20.sol\":1048:1075  token.transferFrom.selector */\n      shl(0xe0, 0x23b872dd)\n        /* \"@openzeppelin/contracts/token/ERC20/utils/SafeERC20.sol\":1077:1081  from */\n      dup6\n        /* \"@openzeppelin/contracts/token/ERC20/utils/SafeERC20.sol\":1083:1085  to */\n      dup6\n        /* \"@openzeppelin/contracts/token/ERC20/utils/SafeERC20.sol\":1087:1092  value */\n      dup6\n        /* \"@openzeppelin/contracts/token/ERC20/utils/SafeERC20.sol\":1025:1093  abi.encodeWithSelector(token.transferFrom.selector, from, to, value) */\n      add(0x24, mload(0x40))\n      dup1\n      dup5\n      0xffffffffffffffffffffffffffffffffffffffff\n      and\n      dup2\n      mstore\n      0x20\n      add\n      dup4\n      0xffffffffffffffffffffffffffffffffffffffff\n      and\n      dup2\n      mstore\n      0x20\n      add\n      dup3\n      dup2\n      mstore\n      0x20\n      add\n      swap4\n      pop\n      pop\n      pop\n      pop\n      mload(0x40)\n      0x20\n      dup2\n      dup4\n      sub\n      sub\n      dup2\n      mstore\n      swap1\n      0x40\n      mstore\n      swap1\n      not(0xffffffffffffffffffffffffffffffffffffffffffffffffffffffff)\n      and\n      0x20\n      dup3\n      add\n      dup1\n      mload\n      0xffffffffffffffffffffffffffffffffffffffffffffffffffffffff\n      dup4\n      dup2\n      dup4\n      and\n      or\n      dup4\n      mstore\n      pop\n      pop\n      pop\n      pop\n        /* \"@openzeppelin/contracts/token/ERC20/utils/SafeERC20.sol\":998:1017  _callOptionalReturn */\n      tag_342\n        /* \"@openzeppelin/contracts/token/ERC20/utils/SafeERC20.sol\":998:1094  _callOptionalReturn(token, abi.encodeWithSelector(token.transferFrom.selector, from, to, value)) */\n      jump\t// in\n    tag_356:\n        /* \"@openzeppelin/contracts/token/ERC20/utils/SafeERC20.sol\":898:1101  function safeTransferFrom(IERC20 token, address from, address to, uint256 value) internal {... */\n      pop\n      pop\n      pop\n      pop\n      jump\t// out\n        /* \"@openzeppelin/contracts/access/Ownable.sol\":2457:2706  function tranferOwnership(address newOwner) internal virtual onlyOwner {... */\n    tag_313:\n        /* \"@openzeppelin/contracts/access/Ownable.sol\":1362:1374  _msgSender() */\n      tag_358\n        /* \"@openzeppelin/contracts/access/Ownable.sol\":1362:1372  _msgSender */\n      tag_171\n        /* \"@openzeppelin/contracts/access/Ownable.sol\":1362:1374  _msgSender() */\n      jump\t// in\n    tag_358:\n        /* \"@openzeppelin/contracts/access/Ownable.sol\":1351:1374  owner() == _msgSender() */\n      0xffffffffffffffffffffffffffffffffffffffff\n      and\n        /* \"@openzeppelin/contracts/access/Ownable.sol\":1351:1358  owner() */\n      tag_359\n        /* \"@openzeppelin/contracts/access/Ownable.sol\":1351:1356  owner */\n      tag_107\n        /* \"@openzeppelin/contracts/access/Ownable.sol\":1351:1358  owner() */\n      jump\t// in\n    tag_359:\n        /* \"@openzeppelin/contracts/access/Ownable.sol\":1351:1374  owner() == _msgSender() */\n      0xffffffffffffffffffffffffffffffffffffffff\n      and\n      eq\n        /* \"@openzeppelin/contracts/access/Ownable.sol\":1343:1411  require(owner() == _msgSender(), \"Ownable: caller is not the owner\") */\n      tag_360\n      jumpi\n      mload(0x40)\n      0x08c379a000000000000000000000000000000000000000000000000000000000\n      dup2\n      mstore\n      0x04\n      add\n      dup1\n      dup1\n      0x20\n      add\n      dup3\n      dup2\n      sub\n      dup3\n      mstore\n      0x20\n      dup2\n      mstore\n      0x20\n      add\n      dup1\n      0x4f776e61626c653a2063616c6c6572206973206e6f7420746865206f776e6572\n      dup2\n      mstore\n      pop\n      0x20\n      add\n      swap2\n      pop\n      pop\n      mload(0x40)\n      dup1\n      swap2\n      sub\n      swap1\n      revert\n    tag_360:\n        /* \"@openzeppelin/contracts/access/Ownable.sol\":2566:2567  0 */\n      0x00\n        /* \"@openzeppelin/contracts/access/Ownable.sol\":2546:2568  newOwner != address(0) */\n      0xffffffffffffffffffffffffffffffffffffffff\n      and\n        /* \"@openzeppelin/contracts/access/Ownable.sol\":2546:2554  newOwner */\n      dup2\n        /* \"@openzeppelin/contracts/access/Ownable.sol\":2546:2568  newOwner != address(0) */\n      0xffffffffffffffffffffffffffffffffffffffff\n      and\n      eq\n      iszero\n        /* \"@openzeppelin/contracts/access/Ownable.sol\":2538:2611  require(newOwner != address(0), \"Ownable: new owner is the zero address\") */\n      tag_362\n      jumpi\n      mload(0x40)\n      0x08c379a000000000000000000000000000000000000000000000000000000000\n      dup2\n      mstore\n      0x04\n      add\n      dup1\n      dup1\n      0x20\n      add\n      dup3\n      dup2\n      sub\n      dup3\n      mstore\n      0x26\n      dup2\n      mstore\n      0x20\n      add\n      dup1\n      data_245f15ff17f551913a7a18385165551503906a406f905ac1c2437281a7cd0cfe\n      0x26\n      swap2\n      codecopy\n      0x40\n      add\n      swap2\n      pop\n      pop\n      mload(0x40)\n      dup1\n      swap2\n      sub\n      swap1\n      revert\n    tag_362:\n        /* \"@openzeppelin/contracts/access/Ownable.sol\":2659:2667  newOwner */\n      dup1\n        /* \"@openzeppelin/contracts/access/Ownable.sol\":2626:2668  OwnershipTransferred(_Ownership, newOwner) */\n      0xffffffffffffffffffffffffffffffffffffffff\n      and\n        /* \"@openzeppelin/contracts/access/Ownable.sol\":2647:2657  _Ownership */\n      0x01\n      0x00\n      swap1\n      sload\n      swap1\n      0x0100\n      exp\n      swap1\n      div\n      0xffffffffffffffffffffffffffffffffffffffff\n      and\n        /* \"@openzeppelin/contracts/access/Ownable.sol\":2626:2668  OwnershipTransferred(_Ownership, newOwner) */\n      0xffffffffffffffffffffffffffffffffffffffff\n      and\n      0x8be0079c531659141344cd1fd0a4f28419497f9722a3daafe3b4186f6b6457e0\n      mload(0x40)\n      mload(0x40)\n      dup1\n      swap2\n      sub\n      swap1\n      log3\n        /* \"@openzeppelin/contracts/access/Ownable.sol\":2691:2699  newOwner */\n      dup1\n        /* \"@openzeppelin/contracts/access/Ownable.sol\":2678:2688  _Ownership */\n      0x01\n      0x00\n        /* \"@openzeppelin/contracts/access/Ownable.sol\":2678:2699  _Ownership = newOwner */\n      0x0100\n      exp\n      dup2\n      sload\n      dup2\n      0xffffffffffffffffffffffffffffffffffffffff\n      mul\n      not\n      and\n      swap1\n      dup4\n      0xffffffffffffffffffffffffffffffffffffffff\n      and\n      mul\n      or\n      swap1\n      sstore\n      pop\n        /* \"@openzeppelin/contracts/access/Ownable.sol\":2457:2706  function tranferOwnership(address newOwner) internal virtual onlyOwner {... */\n      pop\n      jump\t// out\n        /* \"@openzeppelin/contracts/access/Ownable.sol\":2065:2308  function transferOwnership_(address newOwner) internal virtual onlyOwner {... */\n    tag_326:\n        /* \"@openzeppelin/contracts/access/Ownable.sol\":1362:1374  _msgSender() */\n      tag_364\n        /* \"@openzeppelin/contracts/access/Ownable.sol\":1362:1372  _msgSender */\n      tag_171\n        /* \"@openzeppelin/contracts/access/Ownable.sol\":1362:1374  _msgSender() */\n      jump\t// in\n    tag_364:\n        /* \"@openzeppelin/contracts/access/Ownable.sol\":1351:1374  owner() == _msgSender() */\n      0xffffffffffffffffffffffffffffffffffffffff\n      and\n        /* \"@openzeppelin/contracts/access/Ownable.sol\":1351:1358  owner() */\n      tag_365\n        /* \"@openzeppelin/contracts/access/Ownable.sol\":1351:1356  owner */\n      tag_107\n        /* \"@openzeppelin/contracts/access/Ownable.sol\":1351:1358  owner() */\n      jump\t// in\n    tag_365:\n        /* \"@openzeppelin/contracts/access/Ownable.sol\":1351:1374  owner() == _msgSender() */\n      0xffffffffffffffffffffffffffffffffffffffff\n      and\n      eq\n        /* \"@openzeppelin/contracts/access/Ownable.sol\":1343:1411  require(owner() == _msgSender(), \"Ownable: caller is not the owner\") */\n      tag_366\n      jumpi\n      mload(0x40)\n      0x08c379a000000000000000000000000000000000000000000000000000000000\n      dup2\n      mstore\n      0x04\n      add\n      dup1\n      dup1\n      0x20\n      add\n      dup3\n      dup2\n      sub\n      dup3\n      mstore\n      0x20\n      dup2\n      mstore\n      0x20\n      add\n      dup1\n      0x4f776e61626c653a2063616c6c6572206973206e6f7420746865206f776e6572\n      dup2\n      mstore\n      pop\n      0x20\n      add\n      swap2\n      pop\n      pop\n      mload(0x40)\n      dup1\n      swap2\n      sub\n      swap1\n      revert\n    tag_366:\n        /* \"@openzeppelin/contracts/access/Ownable.sol\":2176:2177  0 */\n      0x00\n        /* \"@openzeppelin/contracts/access/Ownable.sol\":2156:2178  newOwner != address(0) */\n      0xffffffffffffffffffffffffffffffffffffffff\n      and\n        /* \"@openzeppelin/contracts/access/Ownable.sol\":2156:2164  newOwner */\n      dup2\n        /* \"@openzeppelin/contracts/access/Ownable.sol\":2156:2178  newOwner != address(0) */\n      0xffffffffffffffffffffffffffffffffffffffff\n      and\n      eq\n      iszero\n        /* \"@openzeppelin/contracts/access/Ownable.sol\":2148:2221  require(newOwner != address(0), \"Ownable: new owner is the zero address\") */\n      tag_368\n      jumpi\n      mload(0x40)\n      0x08c379a000000000000000000000000000000000000000000000000000000000\n      dup2\n      mstore\n      0x04\n      add\n      dup1\n      dup1\n      0x20\n      add\n      dup3\n      dup2\n      sub\n      dup3\n      mstore\n      0x26\n      dup2\n      mstore\n      0x20\n      add\n      dup1\n      data_245f15ff17f551913a7a18385165551503906a406f905ac1c2437281a7cd0cfe\n      0x26\n      swap2\n      codecopy\n      0x40\n      add\n      swap2\n      pop\n      pop\n      mload(0x40)\n      dup1\n      swap2\n      sub\n      swap1\n      revert\n    tag_368:\n        /* \"@openzeppelin/contracts/access/Ownable.sol\":2265:2273  newOwner */\n      dup1\n        /* \"@openzeppelin/contracts/access/Ownable.sol\":2236:2274  OwnershipTransferred(_owner, newOwner) */\n      0xffffffffffffffffffffffffffffffffffffffff\n      and\n        /* \"@openzeppelin/contracts/access/Ownable.sol\":2257:2263  _owner */\n      0x00\n      dup1\n      sload\n      swap1\n      0x0100\n      exp\n      swap1\n      div\n      0xffffffffffffffffffffffffffffffffffffffff\n      and\n        /* \"@openzeppelin/contracts/access/Ownable.sol\":2236:2274  OwnershipTransferred(_owner, newOwner) */\n      0xffffffffffffffffffffffffffffffffffffffff\n      and\n      0x8be0079c531659141344cd1fd0a4f28419497f9722a3daafe3b4186f6b6457e0\n      mload(0x40)\n      mload(0x40)\n      dup1\n      swap2\n      sub\n      swap1\n      log3\n        /* \"@openzeppelin/contracts/access/Ownable.sol\":2293:2301  newOwner */\n      dup1\n        /* \"@openzeppelin/contracts/access/Ownable.sol\":2284:2290  _owner */\n      0x00\n      dup1\n        /* \"@openzeppelin/contracts/access/Ownable.sol\":2284:2301  _owner = newOwner */\n      0x0100\n      exp\n      dup2\n      sload\n      dup2\n      0xffffffffffffffffffffffffffffffffffffffff\n      mul\n      not\n      and\n      swap1\n      dup4\n      0xffffffffffffffffffffffffffffffffffffffff\n      and\n      mul\n      or\n      swap1\n      sstore\n      pop\n        /* \"@openzeppelin/contracts/access/Ownable.sol\":2065:2308  function transferOwnership_(address newOwner) internal virtual onlyOwner {... */\n      pop\n      jump\t// out\n        /* \"@openzeppelin/contracts/token/ERC20/utils/SafeERC20.sol\":2980:3731  function _callOptionalReturn(IERC20 token, bytes memory data) private {... */\n    tag_342:\n        /* \"@openzeppelin/contracts/token/ERC20/utils/SafeERC20.sol\":3399:3422  bytes memory returndata */\n      0x00\n        /* \"@openzeppelin/contracts/token/ERC20/utils/SafeERC20.sol\":3425:3494  address(token).functionCall(data, \"SafeERC20: low-level call failed\") */\n      tag_370\n        /* \"@openzeppelin/contracts/token/ERC20/utils/SafeERC20.sol\":3453:3457  data */\n      dup3\n        /* \"@openzeppelin/contracts/token/ERC20/utils/SafeERC20.sol\":3425:3494  address(token).functionCall(data, \"SafeERC20: low-level call failed\") */\n      mload(0x40)\n      dup1\n      0x40\n      add\n      0x40\n      mstore\n      dup1\n      0x20\n      dup2\n      mstore\n      0x20\n      add\n      0x5361666545524332303a206c6f772d6c6576656c2063616c6c206661696c6564\n      dup2\n      mstore\n      pop\n        /* \"@openzeppelin/contracts/token/ERC20/utils/SafeERC20.sol\":3433:3438  token */\n      dup6\n        /* \"@openzeppelin/contracts/token/ERC20/utils/SafeERC20.sol\":3425:3452  address(token).functionCall */\n      0xffffffffffffffffffffffffffffffffffffffff\n      and\n      tag_371\n      swap1\n        /* \"@openzeppelin/contracts/token/ERC20/utils/SafeERC20.sol\":3425:3494  address(token).functionCall(data, \"SafeERC20: low-level call failed\") */\n      swap3\n      swap2\n      swap1\n      0xffffffff\n      and\n      jump\t// in\n    tag_370:\n        /* \"@openzeppelin/contracts/token/ERC20/utils/SafeERC20.sol\":3399:3494  bytes memory returndata = address(token).functionCall(data, \"SafeERC20: low-level call failed\") */\n      swap1\n      pop\n        /* \"@openzeppelin/contracts/token/ERC20/utils/SafeERC20.sol\":3528:3529  0 */\n      0x00\n        /* \"@openzeppelin/contracts/token/ERC20/utils/SafeERC20.sol\":3508:3518  returndata */\n      dup2\n        /* \"@openzeppelin/contracts/token/ERC20/utils/SafeERC20.sol\":3508:3525  returndata.length */\n      mload\n        /* \"@openzeppelin/contracts/token/ERC20/utils/SafeERC20.sol\":3508:3529  returndata.length > 0 */\n      gt\n        /* \"@openzeppelin/contracts/token/ERC20/utils/SafeERC20.sol\":3504:3725  if (returndata.length > 0) { // Return data is optional... */\n      iszero\n      tag_372\n      jumpi\n        /* \"@openzeppelin/contracts/token/ERC20/utils/SafeERC20.sol\":3648:3658  returndata */\n      dup1\n        /* \"@openzeppelin/contracts/token/ERC20/utils/SafeERC20.sol\":3637:3667  abi.decode(returndata, (bool)) */\n      dup1\n      0x20\n      add\n      swap1\n      mload\n      0x20\n      dup2\n      lt\n      iszero\n      tag_373\n      jumpi\n      0x00\n      dup1\n      revert\n    tag_373:\n      dup2\n      add\n      swap1\n      dup1\n      dup1\n      mload\n      swap1\n      0x20\n      add\n      swap1\n      swap3\n      swap2\n      swap1\n      pop\n      pop\n      pop\n        /* \"@openzeppelin/contracts/token/ERC20/utils/SafeERC20.sol\":3629:3714  require(abi.decode(returndata, (bool)), \"SafeERC20: ERC20 operation did not succeed\") */\n      tag_374\n      jumpi\n      mload(0x40)\n      0x08c379a000000000000000000000000000000000000000000000000000000000\n      dup2\n      mstore\n      0x04\n      add\n      dup1\n      dup1\n      0x20\n      add\n      dup3\n      dup2\n      sub\n      dup3\n      mstore\n      0x2a\n      dup2\n      mstore\n      0x20\n      add\n      dup1\n      data_e11ad79d1e4a7f2e5f376964cb99e8e8f7904e3fc16a109f7a7ecb9aa7956dcd\n      0x2a\n      swap2\n      codecopy\n      0x40\n      add\n      swap2\n      pop\n      pop\n      mload(0x40)\n      dup1\n      swap2\n      sub\n      swap1\n      revert\n    tag_374:\n        /* \"@openzeppelin/contracts/token/ERC20/utils/SafeERC20.sol\":3504:3725  if (returndata.length > 0) { // Return data is optional... */\n    tag_372:\n        /* \"@openzeppelin/contracts/token/ERC20/utils/SafeERC20.sol\":2980:3731  function _callOptionalReturn(IERC20 token, bytes memory data) private {... */\n      pop\n      pop\n      pop\n      jump\t// out\n        /* \"@openzeppelin/contracts/utils/Address.sol\":3470:3693  function functionCall(... */\n    tag_371:\n        /* \"@openzeppelin/contracts/utils/Address.sol\":3603:3615  bytes memory */\n      0x60\n        /* \"@openzeppelin/contracts/utils/Address.sol\":3634:3686  functionCallWithValue(target, data, 0, errorMessage) */\n      tag_376\n        /* \"@openzeppelin/contracts/utils/Address.sol\":3656:3662  target */\n      dup5\n        /* \"@openzeppelin/contracts/utils/Address.sol\":3664:3668  data */\n      dup5\n        /* \"@openzeppelin/contracts/utils/Address.sol\":3670:3671  0 */\n      0x00\n        /* \"@openzeppelin/contracts/utils/Address.sol\":3673:3685  errorMessage */\n      dup6\n        /* \"@openzeppelin/contracts/utils/Address.sol\":3634:3655  functionCallWithValue */\n      tag_377\n        /* \"@openzeppelin/contracts/utils/Address.sol\":3634:3686  functionCallWithValue(target, data, 0, errorMessage) */\n      jump\t// in\n    tag_376:\n        /* \"@openzeppelin/contracts/utils/Address.sol\":3627:3686  return functionCallWithValue(target, data, 0, errorMessage) */\n      swap1\n      pop\n        /* \"@openzeppelin/contracts/utils/Address.sol\":3470:3693  function functionCall(... */\n      swap4\n      swap3\n      pop\n      pop\n      pop\n      jump\t// out\n        /* \"@openzeppelin/contracts/utils/Address.sol\":4557:5056  function functionCallWithValue(... */\n    tag_377:\n        /* \"@openzeppelin/contracts/utils/Address.sol\":4722:4734  bytes memory */\n      0x60\n        /* \"@openzeppelin/contracts/utils/Address.sol\":4779:4784  value */\n      dup3\n        /* \"@openzeppelin/contracts/utils/Address.sol\":4754:4775  address(this).balance */\n      selfbalance\n        /* \"@openzeppelin/contracts/utils/Address.sol\":4754:4784  address(this).balance >= value */\n      lt\n      iszero\n        /* \"@openzeppelin/contracts/utils/Address.sol\":4746:4827  require(address(this).balance >= value, \"Address: insufficient balance for call\") */\n      tag_379\n      jumpi\n      mload(0x40)\n      0x08c379a000000000000000000000000000000000000000000000000000000000\n      dup2\n      mstore\n      0x04\n      add\n      dup1\n      dup1\n      0x20\n      add\n      dup3\n      dup2\n      sub\n      dup3\n      mstore\n      0x26\n      dup2\n      mstore\n      0x20\n      add\n      dup1\n      data_565f1a77334fc4792800921178c71e4521acffab18ff9e7885b49377ee80ab4c\n      0x26\n      swap2\n      codecopy\n      0x40\n      add\n      swap2\n      pop\n      pop\n      mload(0x40)\n      dup1\n      swap2\n      sub\n      swap1\n      revert\n    tag_379:\n        /* \"@openzeppelin/contracts/utils/Address.sol\":4845:4863  isContract(target) */\n      tag_380\n        /* \"@openzeppelin/contracts/utils/Address.sol\":4856:4862  target */\n      dup6\n        /* \"@openzeppelin/contracts/utils/Address.sol\":4845:4855  isContract */\n      tag_381\n        /* \"@openzeppelin/contracts/utils/Address.sol\":4845:4863  isContract(target) */\n      jump\t// in\n    tag_380:\n        /* \"@openzeppelin/contracts/utils/Address.sol\":4837:4897  require(isContract(target), \"Address: call to non-contract\") */\n      tag_382\n      jumpi\n      mload(0x40)\n      0x08c379a000000000000000000000000000000000000000000000000000000000\n      dup2\n      mstore\n      0x04\n      add\n      dup1\n      dup1\n      0x20\n      add\n      dup3\n      dup2\n      sub\n      dup3\n      mstore\n      0x1d\n      dup2\n      mstore\n      0x20\n      add\n      dup1\n      0x416464726573733a2063616c6c20746f206e6f6e2d636f6e7472616374000000\n      dup2\n      mstore\n      pop\n      0x20\n      add\n      swap2\n      pop\n      pop\n      mload(0x40)\n      dup1\n      swap2\n      sub\n      swap1\n      revert\n    tag_382:\n        /* \"@openzeppelin/contracts/utils/Address.sol\":4909:4921  bool success */\n      0x00\n        /* \"@openzeppelin/contracts/utils/Address.sol\":4923:4946  bytes memory returndata */\n      dup1\n        /* \"@openzeppelin/contracts/utils/Address.sol\":4950:4956  target */\n      dup7\n        /* \"@openzeppelin/contracts/utils/Address.sol\":4950:4961  target.call */\n      0xffffffffffffffffffffffffffffffffffffffff\n      and\n        /* \"@openzeppelin/contracts/utils/Address.sol\":4969:4974  value */\n      dup6\n        /* \"@openzeppelin/contracts/utils/Address.sol\":4976:4980  data */\n      dup8\n        /* \"@openzeppelin/contracts/utils/Address.sol\":4950:4981  target.call{value: value}(data) */\n      mload(0x40)\n      dup1\n      dup3\n      dup1\n      mload\n      swap1\n      0x20\n      add\n      swap1\n      dup1\n      dup4\n      dup4\n    tag_383:\n      0x20\n      dup4\n      lt\n      tag_385\n      jumpi\n      dup1\n      mload\n      dup3\n      mstore\n      0x20\n      dup3\n      add\n      swap2\n      pop\n      0x20\n      dup2\n      add\n      swap1\n      pop\n      0x20\n      dup4\n      sub\n      swap3\n      pop\n      jump(tag_383)\n    tag_385:\n      0x01\n      dup4\n      0x20\n      sub\n      0x0100\n      exp\n      sub\n      dup1\n      not\n      dup3\n      mload\n      and\n      dup2\n      dup5\n      mload\n      and\n      dup1\n      dup3\n      or\n      dup6\n      mstore\n      pop\n      pop\n      pop\n      pop\n      pop\n      pop\n      swap1\n      pop\n      add\n      swap2\n      pop\n      pop\n      0x00\n      mload(0x40)\n      dup1\n      dup4\n      sub\n      dup2\n      dup6\n      dup8\n      gas\n      call\n      swap3\n      pop\n      pop\n      pop\n      returndatasize\n      dup1\n      0x00\n      dup2\n      eq\n      tag_388\n      jumpi\n      mload(0x40)\n      swap2\n      pop\n      and(add(returndatasize, 0x3f), not(0x1f))\n      dup3\n      add\n      0x40\n      mstore\n      returndatasize\n      dup3\n      mstore\n      returndatasize\n      0x00\n      0x20\n      dup5\n      add\n      returndatacopy\n      jump(tag_387)\n    tag_388:\n      0x60\n      swap2\n      pop\n    tag_387:\n      pop\n        /* \"@openzeppelin/contracts/utils/Address.sol\":4908:4981  (bool success, bytes memory returndata) = target.call{value: value}(data) */\n      swap2\n      pop\n      swap2\n      pop\n        /* \"@openzeppelin/contracts/utils/Address.sol\":4998:5049  verifyCallResult(success, returndata, errorMessage) */\n      tag_389\n        /* \"@openzeppelin/contracts/utils/Address.sol\":5015:5022  success */\n      dup3\n        /* \"@openzeppelin/contracts/utils/Address.sol\":5024:5034  returndata */\n      dup3\n        /* \"@openzeppelin/contracts/utils/Address.sol\":5036:5048  errorMessage */\n      dup7\n        /* \"@openzeppelin/contracts/utils/Address.sol\":4998:5014  verifyCallResult */\n      tag_390\n        /* \"@openzeppelin/contracts/utils/Address.sol\":4998:5049  verifyCallResult(success, returndata, errorMessage) */\n      jump\t// in\n    tag_389:\n        /* \"@openzeppelin/contracts/utils/Address.sol\":4991:5049  return verifyCallResult(success, returndata, errorMessage) */\n      swap3\n      pop\n      pop\n      pop\n        /* \"@openzeppelin/contracts/utils/Address.sol\":4557:5056  function functionCallWithValue(... */\n      swap5\n      swap4\n      pop\n      pop\n      pop\n      pop\n      jump\t// out\n        /* \"@openzeppelin/contracts/utils/Address.sol\":727:1104  function isContract(address account) internal view returns (bool) {... */\n    tag_381:\n        /* \"@openzeppelin/contracts/utils/Address.sol\":787:791  bool */\n      0x00\n        /* \"@openzeppelin/contracts/utils/Address.sol\":990:1002  uint256 size */\n      dup1\n        /* \"@openzeppelin/contracts/utils/Address.sol\":1055:1062  account */\n      dup3\n        /* \"@openzeppelin/contracts/utils/Address.sol\":1043:1063  extcodesize(account) */\n      extcodesize\n        /* \"@openzeppelin/contracts/utils/Address.sol\":1035:1063  size := extcodesize(account) */\n      swap1\n      pop\n        /* \"@openzeppelin/contracts/utils/Address.sol\":1096:1097  0 */\n      0x00\n        /* \"@openzeppelin/contracts/utils/Address.sol\":1089:1093  size */\n      dup2\n        /* \"@openzeppelin/contracts/utils/Address.sol\":1089:1097  size > 0 */\n      gt\n        /* \"@openzeppelin/contracts/utils/Address.sol\":1082:1097  return size > 0 */\n      swap2\n      pop\n      pop\n        /* \"@openzeppelin/contracts/utils/Address.sol\":727:1104  function isContract(address account) internal view returns (bool) {... */\n      swap2\n      swap1\n      pop\n      jump\t// out\n        /* \"@openzeppelin/contracts/utils/Address.sol\":7170:7862  function verifyCallResult(... */\n    tag_390:\n        /* \"@openzeppelin/contracts/utils/Address.sol\":7316:7328  bytes memory */\n      0x60\n        /* \"@openzeppelin/contracts/utils/Address.sol\":7344:7351  success */\n      dup4\n        /* \"@openzeppelin/contracts/utils/Address.sol\":7340:7856  if (success) {... */\n      iszero\n      tag_393\n      jumpi\n        /* \"@openzeppelin/contracts/utils/Address.sol\":7374:7384  returndata */\n      dup3\n        /* \"@openzeppelin/contracts/utils/Address.sol\":7367:7384  return returndata */\n      swap1\n      pop\n      jump(tag_392)\n        /* \"@openzeppelin/contracts/utils/Address.sol\":7340:7856  if (success) {... */\n    tag_393:\n        /* \"@openzeppelin/contracts/utils/Address.sol\":7505:7506  0 */\n      0x00\n        /* \"@openzeppelin/contracts/utils/Address.sol\":7485:7495  returndata */\n      dup4\n        /* \"@openzeppelin/contracts/utils/Address.sol\":7485:7502  returndata.length */\n      mload\n        /* \"@openzeppelin/contracts/utils/Address.sol\":7485:7506  returndata.length > 0 */\n      gt\n        /* \"@openzeppelin/contracts/utils/Address.sol\":7481:7846  if (returndata.length > 0) {... */\n      iszero\n      tag_395\n      jumpi\n        /* \"@openzeppelin/contracts/utils/Address.sol\":7679:7689  returndata */\n      dup3\n        /* \"@openzeppelin/contracts/utils/Address.sol\":7673:7690  mload(returndata) */\n      mload\n        /* \"@openzeppelin/contracts/utils/Address.sol\":7739:7754  returndata_size */\n      dup1\n        /* \"@openzeppelin/contracts/utils/Address.sol\":7726:7736  returndata */\n      dup5\n        /* \"@openzeppelin/contracts/utils/Address.sol\":7722:7724  32 */\n      0x20\n        /* \"@openzeppelin/contracts/utils/Address.sol\":7718:7737  add(32, returndata) */\n      add\n        /* \"@openzeppelin/contracts/utils/Address.sol\":7711:7755  revert(add(32, returndata), returndata_size) */\n      revert\n        /* \"@openzeppelin/contracts/utils/Address.sol\":7628:7773  {... */\n    tag_395:\n        /* \"@openzeppelin/contracts/utils/Address.sol\":7818:7830  errorMessage */\n      dup2\n        /* \"@openzeppelin/contracts/utils/Address.sol\":7811:7831  revert(errorMessage) */\n      mload(0x40)\n      0x08c379a000000000000000000000000000000000000000000000000000000000\n      dup2\n      mstore\n      0x04\n      add\n      dup1\n      dup1\n      0x20\n      add\n      dup3\n      dup2\n      sub\n      dup3\n      mstore\n      dup4\n      dup2\n      dup2\n      mload\n      dup2\n      mstore\n      0x20\n      add\n      swap2\n      pop\n      dup1\n      mload\n      swap1\n      0x20\n      add\n      swap1\n      dup1\n      dup4\n      dup4\n      0x00\n    tag_397:\n      dup4\n      dup2\n      lt\n      iszero\n      tag_399\n      jumpi\n      dup1\n      dup3\n      add\n      mload\n      dup2\n      dup5\n      add\n      mstore\n      0x20\n      dup2\n      add\n      swap1\n      pop\n      jump(tag_397)\n    tag_399:\n      pop\n      pop\n      pop\n      pop\n      swap1\n      pop\n      swap1\n      dup2\n      add\n      swap1\n      0x1f\n      and\n      dup1\n      iszero\n      tag_400\n      jumpi\n      dup1\n      dup3\n      sub\n      dup1\n      mload\n      0x01\n      dup4\n      0x20\n      sub\n      0x0100\n      exp\n      sub\n      not\n      and\n      dup2\n      mstore\n      0x20\n      add\n      swap2\n      pop\n    tag_400:\n      pop\n      swap3\n      pop\n      pop\n      pop\n      mload(0x40)\n      dup1\n      swap2\n      sub\n      swap1\n      revert\n        /* \"@openzeppelin/contracts/utils/Address.sol\":7170:7862  function verifyCallResult(... */\n    tag_392:\n      swap4\n      swap3\n      pop\n      pop\n      pop\n      jump\t// out\n    stop\n    data_245f15ff17f551913a7a18385165551503906a406f905ac1c2437281a7cd0cfe 4f776e61626c653a206e6577206f776e657220697320746865207a65726f2061646472657373\n    data_565f1a77334fc4792800921178c71e4521acffab18ff9e7885b49377ee80ab4c 416464726573733a20696e73756666696369656e742062616c616e636520666f722063616c6c\n    data_756508c1c0554725dd91ce0028667672a5318d736a5e4bcd98b6bc8fe98c3dc7 6f70657261746f723a207a65726f206164647265737320676976656e20666f72206e6577206f70657261746f72\n    data_9113bb53c2876a3805b2c9242029423fc540a728243ce887ab24c82cf119fba3 536166654d6174683a206d756c7469706c69636174696f6e206f766572666c6f77\n    data_a62bfdba5053072911b63b0f6325b0e83fcd28b5a847d97efdd966feb4daaafb 6f70657261746f723a2063616c6c6572206973206e6f7420746865206f70657261746f72\n    data_e11ad79d1e4a7f2e5f376964cb99e8e8f7904e3fc16a109f7a7ecb9aa7956dcd 5361666545524332303a204552433230206f7065726174696f6e20646964206e6f742073756363656564\n\n    auxdata: 0xa264697066735822122098f8f72969850817e8fc664f96a576dfb0080a985fa7b0386d2a051e9176a23b64736f6c63430007060033\n}\n",
				"bytecode": {
					"linkReferences": {},
					"object": "60806040526000600560006101000a81548160ff0219169083151502179055506000600755670201fdfcf45d940c600a556202a300600b553480156200004457600080fd5b506040516200357838038062003578833981810160405260408110156200006a57600080fd5b8101908080519060200190929190805190602001909291905050506000620000976200032660201b60201c565b9050806000806101000a81548173ffffffffffffffffffffffffffffffffffffffff021916908373ffffffffffffffffffffffffffffffffffffffff1602179055508073ffffffffffffffffffffffffffffffffffffffff16600073ffffffffffffffffffffffffffffffffffffffff167f8be0079c531659141344cd1fd0a4f28419497f9722a3daafe3b4186f6b6457e060405160405180910390a350620001456200032660201b60201c565b600260006101000a81548173ffffffffffffffffffffffffffffffffffffffff021916908373ffffffffffffffffffffffffffffffffffffffff160217905550600260009054906101000a900473ffffffffffffffffffffffffffffffffffffffff1673ffffffffffffffffffffffffffffffffffffffff16600073ffffffffffffffffffffffffffffffffffffffff167f74da04524d50c64947f5dd5381ef1a4dca5cba8ed1d816243f9e48aa0b5617ed60405160405180910390a380421062000278576040517f08c379a00000000000000000000000000000000000000000000000000000000081526004018080602001828103825260048152602001807f6c6174650000000000000000000000000000000000000000000000000000000081525060200191505060405180910390fd5b600073ffffffffffffffffffffffffffffffffffffffff168273ffffffffffffffffffffffffffffffffffffffff1614620002ef5781600360006101000a81548173ffffffffffffffffffffffffffffffffffffffff021916908373ffffffffffffffffffffffffffffffffffffffff1602179055505b80600881905550600b54600854016009819055506001600560006101000a81548160ff02191690831515021790555050506200032e565b600033905090565b61323a806200033e6000396000f3fe6080604052600436106101a05760003560e01c8063570ca735116100ec578063943f013d1161008a578063e177bb3811610064578063e177bb38146107ff578063e2bbb15814610840578063ecf4deb914610885578063f2fde38b146108f4576101a1565b8063943f013d1461071257806396805e541461073d578063b3ab15fb146107ae576101a1565b80636e271dd5116100c65780636e271dd514610619578063715018a6146106445780638da5cb5b1461065b57806393f1a40b1461069c576101a1565b8063570ca735146105965780635f96dc11146105d7578063630b5ba114610602576101a1565b8063392e53cd116101595780634456eda2116101335780634456eda21461047857806351eb05a6146104a55780635312ea8e146104e057806354575af41461051b576101a1565b8063392e53cd146103db5780633f7caf5214610408578063441a3e7014610433576101a1565b806309cf6091146102135780631526fe271461023e57806317caf6f1146102c15780631ab06ee5146102ec578063231f0c6a1461033157806329605e771461038a576101a1565b5b60006101ab610945565b9050600073ffffffffffffffffffffffffffffffffffffffff168173ffffffffffffffffffffffffffffffffffffffff1614156101e757600080fd5b60405136600082376000803683855af43d82016040523d6000833e806000811461020f573d83f35b3d83fd5b34801561021f57600080fd5b5061022861096f565b6040518082815260200191505060405180910390f35b34801561024a57600080fd5b506102776004803603602081101561026157600080fd5b810190808035906020019092919050505061097d565b604051808673ffffffffffffffffffffffffffffffffffffffff16815260200185815260200184815260200183815260200182151581526020019550505050505060405180910390f35b3480156102cd57600080fd5b506102d66109f0565b6040518082815260200191505060405180910390f35b3480156102f857600080fd5b5061032f6004803603604081101561030f57600080fd5b8101908080359060200190929190803590602001909291905050506109f6565b005b34801561033d57600080fd5b506103746004803603604081101561035457600080fd5b810190808035906020019092919080359060200190929190505050610b1a565b6040518082815260200191505060405180910390f35b34801561039657600080fd5b506103d9600480360360208110156103ad57600080fd5b81019080803573ffffffffffffffffffffffffffffffffffffffff169060200190929190505050610c2d565b005b3480156103e757600080fd5b506103f0610ce8565b60405180821515815260200191505060405180910390f35b34801561041457600080fd5b5061041d610cff565b6040518082815260200191505060405180910390f35b34801561043f57600080fd5b506104766004803603604081101561045657600080fd5b810190808035906020019092919080359060200190929190505050610d05565b005b34801561048457600080fd5b5061048d610fbd565b60405180821515815260200191505060405180910390f35b3480156104b157600080fd5b506104de600480360360208110156104c857600080fd5b810190808035906020019092919050505061101c565b005b3480156104ec57600080fd5b506105196004803603602081101561050357600080fd5b810190808035906020019092919050505061122b565b005b34801561052757600080fd5b506105946004803603606081101561053e57600080fd5b81019080803573ffffffffffffffffffffffffffffffffffffffff16906020019092919080359060200190929190803573ffffffffffffffffffffffffffffffffffffffff16906020019092919050505061135f565b005b3480156105a257600080fd5b506105ab611611565b604051808273ffffffffffffffffffffffffffffffffffffffff16815260200191505060405180910390f35b3480156105e357600080fd5b506105ec61163b565b6040518082815260200191505060405180910390f35b34801561060e57600080fd5b50610617611641565b005b34801561062557600080fd5b5061062e61166e565b6040518082815260200191505060405180910390f35b34801561065057600080fd5b50610659611674565b005b34801561066757600080fd5b506106706117e1565b604051808273ffffffffffffffffffffffffffffffffffffffff16815260200191505060405180910390f35b3480156106a857600080fd5b506106f5600480360360408110156106bf57600080fd5b8101908080359060200190929190803573ffffffffffffffffffffffffffffffffffffffff16906020019092919050505061180a565b604051808381526020018281526020019250505060405180910390f35b34801561071e57600080fd5b5061072761183b565b6040518082815260200191505060405180910390f35b34801561074957600080fd5b506107ac6004803603608081101561076057600080fd5b8101908080359060200190929190803573ffffffffffffffffffffffffffffffffffffffff16906020019092919080351515906020019092919080359060200190929190505050611841565b005b3480156107ba57600080fd5b506107fd600480360360208110156107d157600080fd5b81019080803573ffffffffffffffffffffffffffffffffffffffff169060200190929190505050611a7a565b005b34801561080b57600080fd5b50610814611b2c565b604051808273ffffffffffffffffffffffffffffffffffffffff16815260200191505060405180910390f35b34801561084c57600080fd5b506108836004803603604081101561086357600080fd5b810190808035906020019092919080359060200190929190505050611b52565b005b34801561089157600080fd5b506108de600480360360408110156108a857600080fd5b8101908080359060200190929190803573ffffffffffffffffffffffffffffffffffffffff169060200190929190505050611e61565b6040518082815260200191505060405180910390f35b34801561090057600080fd5b506109436004803603602081101561091757600080fd5b81019080803573ffffffffffffffffffffffffffffffffffffffff169060200190929190505050612099565b005b6000600160009054906101000a900473ffffffffffffffffffffffffffffffffffffffff16905090565b69054b40b1f852bda0000081565b6004818154811061098d57600080fd5b90600052602060002090600502016000915090508060000160009054906101000a900473ffffffffffffffffffffffffffffffffffffffff16908060010154908060020154908060030154908060040160009054906101000a900460ff16905085565b60075481565b3373ffffffffffffffffffffffffffffffffffffffff16600260009054906101000a900473ffffffffffffffffffffffffffffffffffffffff1673ffffffffffffffffffffffffffffffffffffffff1614610a9c576040517f08c379a00000000000000000000000000000000000000000000000000000000081526004018080602001828103825260248152602001806131b76024913960400191505060405180910390fd5b610aa4611641565b600060048381548110610ab357fe5b906000526020600020906005020190508060040160009054906101000a900460ff1615610b0c57610b0582610af7836001015460075461223590919063ffffffff16565b6122b890919063ffffffff16565b6007819055505b818160010181905550505050565b6000818310610b2c5760009050610c27565b6009548210610bb2576009548310610b475760009050610c27565b6008548311610b8257610b7b600a54610b6d60085460095461223590919063ffffffff16565b61234090919063ffffffff16565b9050610c27565b610bab600a54610b9d8560095461223590919063ffffffff16565b61234090919063ffffffff16565b9050610c27565b6008548211610bc45760009050610c27565b6008548311610bfd57610bf6600a54610be86008548561223590919063ffffffff16565b61234090919063ffffffff16565b9050610c27565b610c24600a54610c16858561223590919063ffffffff16565b61234090919063ffffffff16565b90505b92915050565b610c356123c6565b73ffffffffffffffffffffffffffffffffffffffff16610c536117e1565b73ffffffffffffffffffffffffffffffffffffffff1614610cdc576040517f08c379a00000000000000000000000000000000000000000000000000000000081526004018080602001828103825260208152602001807f4f776e61626c653a2063616c6c6572206973206e6f7420746865206f776e657281525060200191505060405180910390fd5b610ce5816123ce565b50565b6000600560009054906101000a900460ff16905090565b600a5481565b6000339050600060048481548110610d1957fe5b9060005260206000209060050201905060006006600086815260200190815260200160002060008473ffffffffffffffffffffffffffffffffffffffff1673ffffffffffffffffffffffffffffffffffffffff16815260200190815260200160002090508381600001541015610df7576040517f08c379a00000000000000000000000000000000000000000000000000000000081526004018080602001828103825260128152602001807f77697468647261773a206e6f7420676f6f64000000000000000000000000000081525060200191505060405180910390fd5b610e008561101c565b6000610e4d8260010154610e3f670de0b6b3a7640000610e318760030154876000015461234090919063ffffffff16565b6124fc90919063ffffffff16565b61223590919063ffffffff16565b90506000811115610eb157610e628482612585565b8373ffffffffffffffffffffffffffffffffffffffff167fe2403640ba68fed3a2f88b7557551d1993f84b99bb10ff833f0cf8db0c5e0486826040518082815260200191505060405180910390a25b6000851115610f2957610ed185836000015461223590919063ffffffff16565b8260000181905550610f2884868560000160009054906101000a900473ffffffffffffffffffffffffffffffffffffffff1673ffffffffffffffffffffffffffffffffffffffff166127049092919063ffffffff16565b5b610f5e670de0b6b3a7640000610f508560030154856000015461234090919063ffffffff16565b6124fc90919063ffffffff16565b8260010181905550858473ffffffffffffffffffffffffffffffffffffffff167ff279e6a1f5e320cca91135676d9cb6e44ca8a08c0b88342bcdb1144f6511b568876040518082815260200191505060405180910390a3505050505050565b6000600260009054906101000a900473ffffffffffffffffffffffffffffffffffffffff1673ffffffffffffffffffffffffffffffffffffffff166110006123c6565b73ffffffffffffffffffffffffffffffffffffffff1614905090565b60006004828154811061102b57fe5b906000526020600020906005020190508060020154421161104c5750611228565b60008160000160009054906101000a900473ffffffffffffffffffffffffffffffffffffffff1673ffffffffffffffffffffffffffffffffffffffff166370a08231306040518263ffffffff1660e01b8152600401808273ffffffffffffffffffffffffffffffffffffffff16815260200191505060206040518083038186803b1580156110d957600080fd5b505afa1580156110ed573d6000803e3d6000fd5b505050506040513d602081101561110357600080fd5b81019080805190602001909291905050509050600081141561112f574282600201819055505050611228565b8160040160009054906101000a900460ff166111825760018260040160006101000a81548160ff02191690831515021790555061117b82600101546007546122b890919063ffffffff16565b6007819055505b6000600754111561121c57600061119d836002015442610b1a565b905060006111cc6007546111be86600101548561234090919063ffffffff16565b6124fc90919063ffffffff16565b90506112116111fe846111f0670de0b6b3a76400008561234090919063ffffffff16565b6124fc90919063ffffffff16565b85600301546122b890919063ffffffff16565b846003018190555050505b42826002018190555050505b50565b60006004828154811061123a57fe5b9060005260206000209060050201905060006006600084815260200190815260200160002060003373ffffffffffffffffffffffffffffffffffffffff1673ffffffffffffffffffffffffffffffffffffffff1681526020019081526020016000209050600081600001549050600082600001819055506000826001018190555061130a33828560000160009054906101000a900473ffffffffffffffffffffffffffffffffffffffff1673ffffffffffffffffffffffffffffffffffffffff166127049092919063ffffffff16565b833373ffffffffffffffffffffffffffffffffffffffff167fbb757047c2b5f3974fe26b7c10f732e7bce710b0952a71082702781e62ae0595836040518082815260200191505060405180910390a350505050565b3373ffffffffffffffffffffffffffffffffffffffff16600260009054906101000a900473ffffffffffffffffffffffffffffffffffffffff1673ffffffffffffffffffffffffffffffffffffffff1614611405576040517f08c379a00000000000000000000000000000000000000000000000000000000081526004018080602001828103825260248152602001806131b76024913960400191505060405180910390fd5b6276a700600954014210156115e157600360009054906101000a900473ffffffffffffffffffffffffffffffffffffffff1673ffffffffffffffffffffffffffffffffffffffff168373ffffffffffffffffffffffffffffffffffffffff1614156114d8576040517f08c379a00000000000000000000000000000000000000000000000000000000081526004018080602001828103825260048152602001807f506f6c790000000000000000000000000000000000000000000000000000000081525060200191505060405180910390fd5b6000600480549050905060005b818110156115de576000600482815481106114fc57fe5b906000526020600020906005020190508060000160009054906101000a900473ffffffffffffffffffffffffffffffffffffffff1673ffffffffffffffffffffffffffffffffffffffff168673ffffffffffffffffffffffffffffffffffffffff1614156115d2576040517f08c379a000000000000000000000000000000000000000000000000000000000815260040180806020018281038252600a8152602001807f706f6f6c2e746f6b656e0000000000000000000000000000000000000000000081525060200191505060405180910390fd5b508060010190506114e5565b50505b61160c81838573ffffffffffffffffffffffffffffffffffffffff166127049092919063ffffffff16565b505050565b6000600260009054906101000a900473ffffffffffffffffffffffffffffffffffffffff16905090565b60085481565b6000600480549050905060005b8181101561166a5761165f8161101c565b80600101905061164e565b5050565b60095481565b61167c6123c6565b73ffffffffffffffffffffffffffffffffffffffff1661169a6117e1565b73ffffffffffffffffffffffffffffffffffffffff1614611723576040517f08c379a00000000000000000000000000000000000000000000000000000000081526004018080602001828103825260208152602001807f4f776e61626c653a2063616c6c6572206973206e6f7420746865206f776e657281525060200191505060405180910390fd5b600073ffffffffffffffffffffffffffffffffffffffff1660008054906101000a900473ffffffffffffffffffffffffffffffffffffffff1673ffffffffffffffffffffffffffffffffffffffff167f8be0079c531659141344cd1fd0a4f28419497f9722a3daafe3b4186f6b6457e060405160405180910390a360008060006101000a81548173ffffffffffffffffffffffffffffffffffffffff021916908373ffffffffffffffffffffffffffffffffffffffff160217905550565b60008060009054906101000a900473ffffffffffffffffffffffffffffffffffffffff16905090565b6006602052816000526040600020602052806000526040600020600091509150508060000154908060010154905082565b600b5481565b3373ffffffffffffffffffffffffffffffffffffffff16600260009054906101000a900473ffffffffffffffffffffffffffffffffffffffff1673ffffffffffffffffffffffffffffffffffffffff16146118e7576040517f08c379a00000000000000000000000000000000000000000000000000000000081526004018080602001828103825260248152602001806131b76024913960400191505060405180910390fd5b6118f0836127a6565b81156118ff576118fe611641565b5b60085442101561193257600081141561191c57600854905061192d565b60085481101561192c5760085490505b5b61194a565b600081148061194057504281105b15611949574290505b5b60006008548211158061195d5750428211155b905060046040518060a001604052808673ffffffffffffffffffffffffffffffffffffffff16815260200187815260200184815260200160008152602001831515815250908060018154018082558091505060019003906000526020600020906005020160009091909190915060008201518160000160006101000a81548173ffffffffffffffffffffffffffffffffffffffff021916908373ffffffffffffffffffffffffffffffffffffffff16021790555060208201518160010155604082015181600201556060820151816003015560808201518160040160006101000a81548160ff02191690831515021790555050508015611a7357611a6c856007546122b890919063ffffffff16565b6007819055505b5050505050565b3373ffffffffffffffffffffffffffffffffffffffff16600260009054906101000a900473ffffffffffffffffffffffffffffffffffffffff1673ffffffffffffffffffffffffffffffffffffffff1614611b20576040517f08c379a00000000000000000000000000000000000000000000000000000000081526004018080602001828103825260248152602001806131b76024913960400191505060405180910390fd5b611b2981610c2d565b50565b600360009054906101000a900473ffffffffffffffffffffffffffffffffffffffff1681565b60003390506000611b6d60c8846128ab90919063ffffffff16565b90506000611b99612710611b8b60c88561234090919063ffffffff16565b6124fc90919063ffffffff16565b90506000611bb0828661223590919063ffffffff16565b9050600060048781548110611bc157fe5b9060005260206000209060050201905060006006600089815260200190815260200160002060008773ffffffffffffffffffffffffffffffffffffffff1673ffffffffffffffffffffffffffffffffffffffff1681526020019081526020016000209050611c2e8861101c565b600081600001541115611cee576000611c888260010154611c7a670de0b6b3a7640000611c6c8760030154876000015461234090919063ffffffff16565b6124fc90919063ffffffff16565b61223590919063ffffffff16565b90506000811115611cec57611c9d8782612585565b8673ffffffffffffffffffffffffffffffffffffffff167fe2403640ba68fed3a2f88b7557551d1993f84b99bb10ff833f0cf8db0c5e0486826040518082815260200191505060405180910390a25b505b6000871115611dcb57611d488630898560000160009054906101000a900473ffffffffffffffffffffffffffffffffffffffff1673ffffffffffffffffffffffffffffffffffffffff166128e6909392919063ffffffff16565b611d5f8382600001546122b890919063ffffffff16565b8160000181905550611dca7301fc7f2c81acd9d38ed4d509b1f17555e549ef1d858460000160009054906101000a900473ffffffffffffffffffffffffffffffffffffffff1673ffffffffffffffffffffffffffffffffffffffff166127049092919063ffffffff16565b5b611e00670de0b6b3a7640000611df28460030154846000015461234090919063ffffffff16565b6124fc90919063ffffffff16565b8160010181905550878673ffffffffffffffffffffffffffffffffffffffff167f90890809c654f11d6e72a28fa60149770a0d11ec6c92319d6ceb2bb0a4ea1a15896040518082815260200191505060405180910390a35050505050505050565b60008060048481548110611e7157fe5b9060005260206000209060050201905060006006600086815260200190815260200160002060008573ffffffffffffffffffffffffffffffffffffffff1673ffffffffffffffffffffffffffffffffffffffff168152602001908152602001600020905060008260030154905060008360000160009054906101000a900473ffffffffffffffffffffffffffffffffffffffff1673ffffffffffffffffffffffffffffffffffffffff166370a08231306040518263ffffffff1660e01b8152600401808273ffffffffffffffffffffffffffffffffffffffff16815260200191505060206040518083038186803b158015611f6b57600080fd5b505afa158015611f7f573d6000803e3d6000fd5b505050506040513d6020811015611f9557600080fd5b81019080805190602001909291905050509050836002015442118015611fbc575060008114155b15612046576000611fd1856002015442610b1a565b90506000612000600754611ff288600101548561234090919063ffffffff16565b6124fc90919063ffffffff16565b905061204161203284612024670de0b6b3a76400008561234090919063ffffffff16565b6124fc90919063ffffffff16565b856122b890919063ffffffff16565b935050505b61208d836001015461207f670de0b6b3a764000061207186886000015461234090919063ffffffff16565b6124fc90919063ffffffff16565b61223590919063ffffffff16565b94505050505092915050565b6120a16123c6565b73ffffffffffffffffffffffffffffffffffffffff166120bf6117e1565b73ffffffffffffffffffffffffffffffffffffffff1614612148576040517f08c379a00000000000000000000000000000000000000000000000000000000081526004018080602001828103825260208152602001807f4f776e61626c653a2063616c6c6572206973206e6f7420746865206f776e657281525060200191505060405180910390fd5b600073ffffffffffffffffffffffffffffffffffffffff168173ffffffffffffffffffffffffffffffffffffffff1614156121ce576040517f08c379a000000000000000000000000000000000000000000000000000000000815260040180806020018281038252602d815260200180613169602d913960400191505060405180910390fd5b8073ffffffffffffffffffffffffffffffffffffffff16600073ffffffffffffffffffffffffffffffffffffffff167f74da04524d50c64947f5dd5381ef1a4dca5cba8ed1d816243f9e48aa0b5617ed60405160405180910390a3612232816129a7565b50565b6000828211156122ad576040517f08c379a000000000000000000000000000000000000000000000000000000000815260040180806020018281038252601e8152602001807f536166654d6174683a207375627472616374696f6e206f766572666c6f77000081525060200191505060405180910390fd5b818303905092915050565b600080828401905083811015612336576040517f08c379a000000000000000000000000000000000000000000000000000000000815260040180806020018281038252601b8152602001807f536166654d6174683a206164646974696f6e206f766572666c6f77000000000081525060200191505060405180910390fd5b8091505092915050565b60008083141561235357600090506123c0565b600082840290508284828161236457fe5b04146123bb576040517f08c379a00000000000000000000000000000000000000000000000000000000081526004018080602001828103825260218152602001806131966021913960400191505060405180910390fd5b809150505b92915050565b600033905090565b600073ffffffffffffffffffffffffffffffffffffffff168173ffffffffffffffffffffffffffffffffffffffff161415612454576040517f08c379a000000000000000000000000000000000000000000000000000000000815260040180806020018281038252602d815260200180613169602d913960400191505060405180910390fd5b8073ffffffffffffffffffffffffffffffffffffffff16600073ffffffffffffffffffffffffffffffffffffffff167f74da04524d50c64947f5dd5381ef1a4dca5cba8ed1d816243f9e48aa0b5617ed60405160405180910390a36124b881612b9c565b80600260006101000a81548173ffffffffffffffffffffffffffffffffffffffff021916908373ffffffffffffffffffffffffffffffffffffffff16021790555050565b6000808211612573576040517f08c379a000000000000000000000000000000000000000000000000000000000815260040180806020018281038252601a8152602001807f536166654d6174683a206469766973696f6e206279207a65726f00000000000081525060200191505060405180910390fd5b81838161257c57fe5b04905092915050565b6000600360009054906101000a900473ffffffffffffffffffffffffffffffffffffffff1673ffffffffffffffffffffffffffffffffffffffff166370a08231306040518263ffffffff1660e01b8152600401808273ffffffffffffffffffffffffffffffffffffffff16815260200191505060206040518083038186803b15801561261057600080fd5b505afa158015612624573d6000803e3d6000fd5b505050506040513d602081101561263a57600080fd5b8101908080519060200190929190505050905060008111156126ff57808211156126b0576126ab8382600360009054906101000a900473ffffffffffffffffffffffffffffffffffffffff1673ffffffffffffffffffffffffffffffffffffffff166127049092919063ffffffff16565b6126fe565b6126fd8383600360009054906101000a900473ffffffffffffffffffffffffffffffffffffffff1673ffffffffffffffffffffffffffffffffffffffff166127049092919063ffffffff16565b5b5b505050565b6127a18363a9059cbb60e01b8484604051602401808373ffffffffffffffffffffffffffffffffffffffff16815260200182815260200192505050604051602081830303815290604052907bffffffffffffffffffffffffffffffffffffffffffffffffffffffff19166020820180517bffffffffffffffffffffffffffffffffffffffffffffffffffffffff8381831617835250505050612d8e565b505050565b6000600480549050905060005b818110156128a6578273ffffffffffffffffffffffffffffffffffffffff16600482815481106127df57fe5b906000526020600020906005020160000160009054906101000a900473ffffffffffffffffffffffffffffffffffffffff1673ffffffffffffffffffffffffffffffffffffffff16141561289b576040517f08c379a000000000000000000000000000000000000000000000000000000000815260040180806020018281038252601f8152602001807f506f6c7947656e65736973506f6f6c3a206578697374696e6720706f6f6c3f0081525060200191505060405180910390fd5b8060010190506127b3565b505050565b6000806128b884846122b8565b905060006128c7826001612235565b90506128dc6128d682866124fc565b85612340565b9250505092915050565b6129a1846323b872dd60e01b858585604051602401808473ffffffffffffffffffffffffffffffffffffffff1681526020018373ffffffffffffffffffffffffffffffffffffffff1681526020018281526020019350505050604051602081830303815290604052907bffffffffffffffffffffffffffffffffffffffffffffffffffffffff19166020820180517bffffffffffffffffffffffffffffffffffffffffffffffffffffffff8381831617835250505050612d8e565b50505050565b6129af6123c6565b73ffffffffffffffffffffffffffffffffffffffff166129cd6117e1565b73ffffffffffffffffffffffffffffffffffffffff1614612a56576040517f08c379a00000000000000000000000000000000000000000000000000000000081526004018080602001828103825260208152602001807f4f776e61626c653a2063616c6c6572206973206e6f7420746865206f776e657281525060200191505060405180910390fd5b600073ffffffffffffffffffffffffffffffffffffffff168173ffffffffffffffffffffffffffffffffffffffff161415612adc576040517f08c379a000000000000000000000000000000000000000000000000000000000815260040180806020018281038252602681526020018061311d6026913960400191505060405180910390fd5b8073ffffffffffffffffffffffffffffffffffffffff16600160009054906101000a900473ffffffffffffffffffffffffffffffffffffffff1673ffffffffffffffffffffffffffffffffffffffff167f8be0079c531659141344cd1fd0a4f28419497f9722a3daafe3b4186f6b6457e060405160405180910390a380600160006101000a81548173ffffffffffffffffffffffffffffffffffffffff021916908373ffffffffffffffffffffffffffffffffffffffff16021790555050565b612ba46123c6565b73ffffffffffffffffffffffffffffffffffffffff16612bc26117e1565b73ffffffffffffffffffffffffffffffffffffffff1614612c4b576040517f08c379a00000000000000000000000000000000000000000000000000000000081526004018080602001828103825260208152602001807f4f776e61626c653a2063616c6c6572206973206e6f7420746865206f776e657281525060200191505060405180910390fd5b600073ffffffffffffffffffffffffffffffffffffffff168173ffffffffffffffffffffffffffffffffffffffff161415612cd1576040517f08c379a000000000000000000000000000000000000000000000000000000000815260040180806020018281038252602681526020018061311d6026913960400191505060405180910390fd5b8073ffffffffffffffffffffffffffffffffffffffff1660008054906101000a900473ffffffffffffffffffffffffffffffffffffffff1673ffffffffffffffffffffffffffffffffffffffff167f8be0079c531659141344cd1fd0a4f28419497f9722a3daafe3b4186f6b6457e060405160405180910390a3806000806101000a81548173ffffffffffffffffffffffffffffffffffffffff021916908373ffffffffffffffffffffffffffffffffffffffff16021790555050565b6000612df0826040518060400160405280602081526020017f5361666545524332303a206c6f772d6c6576656c2063616c6c206661696c65648152508573ffffffffffffffffffffffffffffffffffffffff16612e7d9092919063ffffffff16565b9050600081511115612e7857808060200190516020811015612e1157600080fd5b8101908080519060200190929190505050612e77576040517f08c379a000000000000000000000000000000000000000000000000000000000815260040180806020018281038252602a8152602001806131db602a913960400191505060405180910390fd5b5b505050565b6060612e8c8484600085612e95565b90509392505050565b606082471015612ef0576040517f08c379a00000000000000000000000000000000000000000000000000000000081526004018080602001828103825260268152602001806131436026913960400191505060405180910390fd5b612ef98561303d565b612f6b576040517f08c379a000000000000000000000000000000000000000000000000000000000815260040180806020018281038252601d8152602001807f416464726573733a2063616c6c20746f206e6f6e2d636f6e747261637400000081525060200191505060405180910390fd5b6000808673ffffffffffffffffffffffffffffffffffffffff1685876040518082805190602001908083835b60208310612fba5780518252602082019150602081019050602083039250612f97565b6001836020036101000a03801982511681845116808217855250505050505090500191505060006040518083038185875af1925050503d806000811461301c576040519150601f19603f3d011682016040523d82523d6000602084013e613021565b606091505b5091509150613031828286613050565b92505050949350505050565b600080823b905060008111915050919050565b6060831561306057829050613115565b6000835111156130735782518084602001fd5b816040517f08c379a00000000000000000000000000000000000000000000000000000000081526004018080602001828103825283818151815260200191508051906020019080838360005b838110156130da5780820151818401526020810190506130bf565b50505050905090810190601f1680156131075780820380516001836020036101000a031916815260200191505b509250505060405180910390fd5b939250505056fe4f776e61626c653a206e6577206f776e657220697320746865207a65726f2061646472657373416464726573733a20696e73756666696369656e742062616c616e636520666f722063616c6c6f70657261746f723a207a65726f206164647265737320676976656e20666f72206e6577206f70657261746f72536166654d6174683a206d756c7469706c69636174696f6e206f766572666c6f776f70657261746f723a2063616c6c6572206973206e6f7420746865206f70657261746f725361666545524332303a204552433230206f7065726174696f6e20646964206e6f742073756363656564a264697066735822122098f8f72969850817e8fc664f96a576dfb0080a985fa7b0386d2a051e9176a23b64736f6c63430007060033",
					"opcodes": "PUSH1 0x80 PUSH1 0x40 MSTORE PUSH1 0x0 PUSH1 0x5 PUSH1 0x0 PUSH2 0x100 EXP DUP2 SLOAD DUP2 PUSH1 0xFF MUL NOT AND SWAP1 DUP4 ISZERO ISZERO MUL OR SWAP1 SSTORE POP PUSH1 0x0 PUSH1 0x7 SSTORE PUSH8 0x201FDFCF45D940C PUSH1 0xA SSTORE PUSH3 0x2A300 PUSH1 0xB SSTORE CALLVALUE DUP1 ISZERO PUSH3 0x44 JUMPI PUSH1 0x0 DUP1 REVERT JUMPDEST POP PUSH1 0x40 MLOAD PUSH3 0x3578 CODESIZE SUB DUP1 PUSH3 0x3578 DUP4 CODECOPY DUP2 DUP2 ADD PUSH1 0x40 MSTORE PUSH1 0x40 DUP2 LT ISZERO PUSH3 0x6A JUMPI PUSH1 0x0 DUP1 REVERT JUMPDEST DUP2 ADD SWAP1 DUP1 DUP1 MLOAD SWAP1 PUSH1 0x20 ADD SWAP1 SWAP3 SWAP2 SWAP1 DUP1 MLOAD SWAP1 PUSH1 0x20 ADD SWAP1 SWAP3 SWAP2 SWAP1 POP POP POP PUSH1 0x0 PUSH3 0x97 PUSH3 0x326 PUSH1 0x20 SHL PUSH1 0x20 SHR JUMP JUMPDEST SWAP1 POP DUP1 PUSH1 0x0 DUP1 PUSH2 0x100 EXP DUP2 SLOAD DUP2 PUSH20 0xFFFFFFFFFFFFFFFFFFFFFFFFFFFFFFFFFFFFFFFF MUL NOT AND SWAP1 DUP4 PUSH20 0xFFFFFFFFFFFFFFFFFFFFFFFFFFFFFFFFFFFFFFFF AND MUL OR SWAP1 SSTORE POP DUP1 PUSH20 0xFFFFFFFFFFFFFFFFFFFFFFFFFFFFFFFFFFFFFFFF AND PUSH1 0x0 PUSH20 0xFFFFFFFFFFFFFFFFFFFFFFFFFFFFFFFFFFFFFFFF AND PUSH32 0x8BE0079C531659141344CD1FD0A4F28419497F9722A3DAAFE3B4186F6B6457E0 PUSH1 0x40 MLOAD PUSH1 0x40 MLOAD DUP1 SWAP2 SUB SWAP1 LOG3 POP PUSH3 0x145 PUSH3 0x326 PUSH1 0x20 SHL PUSH1 0x20 SHR JUMP JUMPDEST PUSH1 0x2 PUSH1 0x0 PUSH2 0x100 EXP DUP2 SLOAD DUP2 PUSH20 0xFFFFFFFFFFFFFFFFFFFFFFFFFFFFFFFFFFFFFFFF MUL NOT AND SWAP1 DUP4 PUSH20 0xFFFFFFFFFFFFFFFFFFFFFFFFFFFFFFFFFFFFFFFF AND MUL OR SWAP1 SSTORE POP PUSH1 0x2 PUSH1 0x0 SWAP1 SLOAD SWAP1 PUSH2 0x100 EXP SWAP1 DIV PUSH20 0xFFFFFFFFFFFFFFFFFFFFFFFFFFFFFFFFFFFFFFFF AND PUSH20 0xFFFFFFFFFFFFFFFFFFFFFFFFFFFFFFFFFFFFFFFF AND PUSH1 0x0 PUSH20 0xFFFFFFFFFFFFFFFFFFFFFFFFFFFFFFFFFFFFFFFF AND PUSH32 0x74DA04524D50C64947F5DD5381EF1A4DCA5CBA8ED1D816243F9E48AA0B5617ED PUSH1 0x40 MLOAD PUSH1 0x40 MLOAD DUP1 SWAP2 SUB SWAP1 LOG3 DUP1 TIMESTAMP LT PUSH3 0x278 JUMPI PUSH1 0x40 MLOAD PUSH32 0x8C379A000000000000000000000000000000000000000000000000000000000 DUP2 MSTORE PUSH1 0x4 ADD DUP1 DUP1 PUSH1 0x20 ADD DUP3 DUP2 SUB DUP3 MSTORE PUSH1 0x4 DUP2 MSTORE PUSH1 0x20 ADD DUP1 PUSH32 0x6C61746500000000000000000000000000000000000000000000000000000000 DUP2 MSTORE POP PUSH1 0x20 ADD SWAP2 POP POP PUSH1 0x40 MLOAD DUP1 SWAP2 SUB SWAP1 REVERT JUMPDEST PUSH1 0x0 PUSH20 0xFFFFFFFFFFFFFFFFFFFFFFFFFFFFFFFFFFFFFFFF AND DUP3 PUSH20 0xFFFFFFFFFFFFFFFFFFFFFFFFFFFFFFFFFFFFFFFF AND EQ PUSH3 0x2EF JUMPI DUP2 PUSH1 0x3 PUSH1 0x0 PUSH2 0x100 EXP DUP2 SLOAD DUP2 PUSH20 0xFFFFFFFFFFFFFFFFFFFFFFFFFFFFFFFFFFFFFFFF MUL NOT AND SWAP1 DUP4 PUSH20 0xFFFFFFFFFFFFFFFFFFFFFFFFFFFFFFFFFFFFFFFF AND MUL OR SWAP1 SSTORE POP JUMPDEST DUP1 PUSH1 0x8 DUP2 SWAP1 SSTORE POP PUSH1 0xB SLOAD PUSH1 0x8 SLOAD ADD PUSH1 0x9 DUP2 SWAP1 SSTORE POP PUSH1 0x1 PUSH1 0x5 PUSH1 0x0 PUSH2 0x100 EXP DUP2 SLOAD DUP2 PUSH1 0xFF MUL NOT AND SWAP1 DUP4 ISZERO ISZERO MUL OR SWAP1 SSTORE POP POP POP PUSH3 0x32E JUMP JUMPDEST PUSH1 0x0 CALLER SWAP1 POP SWAP1 JUMP JUMPDEST PUSH2 0x323A DUP1 PUSH3 0x33E PUSH1 0x0 CODECOPY PUSH1 0x0 RETURN INVALID PUSH1 0x80 PUSH1 0x40 MSTORE PUSH1 0x4 CALLDATASIZE LT PUSH2 0x1A0 JUMPI PUSH1 0x0 CALLDATALOAD PUSH1 0xE0 SHR DUP1 PUSH4 0x570CA735 GT PUSH2 0xEC JUMPI DUP1 PUSH4 0x943F013D GT PUSH2 0x8A JUMPI DUP1 PUSH4 0xE177BB38 GT PUSH2 0x64 JUMPI DUP1 PUSH4 0xE177BB38 EQ PUSH2 0x7FF JUMPI DUP1 PUSH4 0xE2BBB158 EQ PUSH2 0x840 JUMPI DUP1 PUSH4 0xECF4DEB9 EQ PUSH2 0x885 JUMPI DUP1 PUSH4 0xF2FDE38B EQ PUSH2 0x8F4 JUMPI PUSH2 0x1A1 JUMP JUMPDEST DUP1 PUSH4 0x943F013D EQ PUSH2 0x712 JUMPI DUP1 PUSH4 0x96805E54 EQ PUSH2 0x73D JUMPI DUP1 PUSH4 0xB3AB15FB EQ PUSH2 0x7AE JUMPI PUSH2 0x1A1 JUMP JUMPDEST DUP1 PUSH4 0x6E271DD5 GT PUSH2 0xC6 JUMPI DUP1 PUSH4 0x6E271DD5 EQ PUSH2 0x619 JUMPI DUP1 PUSH4 0x715018A6 EQ PUSH2 0x644 JUMPI DUP1 PUSH4 0x8DA5CB5B EQ PUSH2 0x65B JUMPI DUP1 PUSH4 0x93F1A40B EQ PUSH2 0x69C JUMPI PUSH2 0x1A1 JUMP JUMPDEST DUP1 PUSH4 0x570CA735 EQ PUSH2 0x596 JUMPI DUP1 PUSH4 0x5F96DC11 EQ PUSH2 0x5D7 JUMPI DUP1 PUSH4 0x630B5BA1 EQ PUSH2 0x602 JUMPI PUSH2 0x1A1 JUMP JUMPDEST DUP1 PUSH4 0x392E53CD GT PUSH2 0x159 JUMPI DUP1 PUSH4 0x4456EDA2 GT PUSH2 0x133 JUMPI DUP1 PUSH4 0x4456EDA2 EQ PUSH2 0x478 JUMPI DUP1 PUSH4 0x51EB05A6 EQ PUSH2 0x4A5 JUMPI DUP1 PUSH4 0x5312EA8E EQ PUSH2 0x4E0 JUMPI DUP1 PUSH4 0x54575AF4 EQ PUSH2 0x51B JUMPI PUSH2 0x1A1 JUMP JUMPDEST DUP1 PUSH4 0x392E53CD EQ PUSH2 0x3DB JUMPI DUP1 PUSH4 0x3F7CAF52 EQ PUSH2 0x408 JUMPI DUP1 PUSH4 0x441A3E70 EQ PUSH2 0x433 JUMPI PUSH2 0x1A1 JUMP JUMPDEST DUP1 PUSH4 0x9CF6091 EQ PUSH2 0x213 JUMPI DUP1 PUSH4 0x1526FE27 EQ PUSH2 0x23E JUMPI DUP1 PUSH4 0x17CAF6F1 EQ PUSH2 0x2C1 JUMPI DUP1 PUSH4 0x1AB06EE5 EQ PUSH2 0x2EC JUMPI DUP1 PUSH4 0x231F0C6A EQ PUSH2 0x331 JUMPI DUP1 PUSH4 0x29605E77 EQ PUSH2 0x38A JUMPI PUSH2 0x1A1 JUMP JUMPDEST JUMPDEST PUSH1 0x0 PUSH2 0x1AB PUSH2 0x945 JUMP JUMPDEST SWAP1 POP PUSH1 0x0 PUSH20 0xFFFFFFFFFFFFFFFFFFFFFFFFFFFFFFFFFFFFFFFF AND DUP2 PUSH20 0xFFFFFFFFFFFFFFFFFFFFFFFFFFFFFFFFFFFFFFFF AND EQ ISZERO PUSH2 0x1E7 JUMPI PUSH1 0x0 DUP1 REVERT JUMPDEST PUSH1 0x40 MLOAD CALLDATASIZE PUSH1 0x0 DUP3 CALLDATACOPY PUSH1 0x0 DUP1 CALLDATASIZE DUP4 DUP6 GAS DELEGATECALL RETURNDATASIZE DUP3 ADD PUSH1 0x40 MSTORE RETURNDATASIZE PUSH1 0x0 DUP4 RETURNDATACOPY DUP1 PUSH1 0x0 DUP2 EQ PUSH2 0x20F JUMPI RETURNDATASIZE DUP4 RETURN JUMPDEST RETURNDATASIZE DUP4 REVERT JUMPDEST CALLVALUE DUP1 ISZERO PUSH2 0x21F JUMPI PUSH1 0x0 DUP1 REVERT JUMPDEST POP PUSH2 0x228 PUSH2 0x96F JUMP JUMPDEST PUSH1 0x40 MLOAD DUP1 DUP3 DUP2 MSTORE PUSH1 0x20 ADD SWAP2 POP POP PUSH1 0x40 MLOAD DUP1 SWAP2 SUB SWAP1 RETURN JUMPDEST CALLVALUE DUP1 ISZERO PUSH2 0x24A JUMPI PUSH1 0x0 DUP1 REVERT JUMPDEST POP PUSH2 0x277 PUSH1 0x4 DUP1 CALLDATASIZE SUB PUSH1 0x20 DUP2 LT ISZERO PUSH2 0x261 JUMPI PUSH1 0x0 DUP1 REVERT JUMPDEST DUP2 ADD SWAP1 DUP1 DUP1 CALLDATALOAD SWAP1 PUSH1 0x20 ADD SWAP1 SWAP3 SWAP2 SWAP1 POP POP POP PUSH2 0x97D JUMP JUMPDEST PUSH1 0x40 MLOAD DUP1 DUP7 PUSH20 0xFFFFFFFFFFFFFFFFFFFFFFFFFFFFFFFFFFFFFFFF AND DUP2 MSTORE PUSH1 0x20 ADD DUP6 DUP2 MSTORE PUSH1 0x20 ADD DUP5 DUP2 MSTORE PUSH1 0x20 ADD DUP4 DUP2 MSTORE PUSH1 0x20 ADD DUP3 ISZERO ISZERO DUP2 MSTORE PUSH1 0x20 ADD SWAP6 POP POP POP POP POP POP PUSH1 0x40 MLOAD DUP1 SWAP2 SUB SWAP1 RETURN JUMPDEST CALLVALUE DUP1 ISZERO PUSH2 0x2CD JUMPI PUSH1 0x0 DUP1 REVERT JUMPDEST POP PUSH2 0x2D6 PUSH2 0x9F0 JUMP JUMPDEST PUSH1 0x40 MLOAD DUP1 DUP3 DUP2 MSTORE PUSH1 0x20 ADD SWAP2 POP POP PUSH1 0x40 MLOAD DUP1 SWAP2 SUB SWAP1 RETURN JUMPDEST CALLVALUE DUP1 ISZERO PUSH2 0x2F8 JUMPI PUSH1 0x0 DUP1 REVERT JUMPDEST POP PUSH2 0x32F PUSH1 0x4 DUP1 CALLDATASIZE SUB PUSH1 0x40 DUP2 LT ISZERO PUSH2 0x30F JUMPI PUSH1 0x0 DUP1 REVERT JUMPDEST DUP2 ADD SWAP1 DUP1 DUP1 CALLDATALOAD SWAP1 PUSH1 0x20 ADD SWAP1 SWAP3 SWAP2 SWAP1 DUP1 CALLDATALOAD SWAP1 PUSH1 0x20 ADD SWAP1 SWAP3 SWAP2 SWAP1 POP POP POP PUSH2 0x9F6 JUMP JUMPDEST STOP JUMPDEST CALLVALUE DUP1 ISZERO PUSH2 0x33D JUMPI PUSH1 0x0 DUP1 REVERT JUMPDEST POP PUSH2 0x374 PUSH1 0x4 DUP1 CALLDATASIZE SUB PUSH1 0x40 DUP2 LT ISZERO PUSH2 0x354 JUMPI PUSH1 0x0 DUP1 REVERT JUMPDEST DUP2 ADD SWAP1 DUP1 DUP1 CALLDATALOAD SWAP1 PUSH1 0x20 ADD SWAP1 SWAP3 SWAP2 SWAP1 DUP1 CALLDATALOAD SWAP1 PUSH1 0x20 ADD SWAP1 SWAP3 SWAP2 SWAP1 POP POP POP PUSH2 0xB1A JUMP JUMPDEST PUSH1 0x40 MLOAD DUP1 DUP3 DUP2 MSTORE PUSH1 0x20 ADD SWAP2 POP POP PUSH1 0x40 MLOAD DUP1 SWAP2 SUB SWAP1 RETURN JUMPDEST CALLVALUE DUP1 ISZERO PUSH2 0x396 JUMPI PUSH1 0x0 DUP1 REVERT JUMPDEST POP PUSH2 0x3D9 PUSH1 0x4 DUP1 CALLDATASIZE SUB PUSH1 0x20 DUP2 LT ISZERO PUSH2 0x3AD JUMPI PUSH1 0x0 DUP1 REVERT JUMPDEST DUP2 ADD SWAP1 DUP1 DUP1 CALLDATALOAD PUSH20 0xFFFFFFFFFFFFFFFFFFFFFFFFFFFFFFFFFFFFFFFF AND SWAP1 PUSH1 0x20 ADD SWAP1 SWAP3 SWAP2 SWAP1 POP POP POP PUSH2 0xC2D JUMP JUMPDEST STOP JUMPDEST CALLVALUE DUP1 ISZERO PUSH2 0x3E7 JUMPI PUSH1 0x0 DUP1 REVERT JUMPDEST POP PUSH2 0x3F0 PUSH2 0xCE8 JUMP JUMPDEST PUSH1 0x40 MLOAD DUP1 DUP3 ISZERO ISZERO DUP2 MSTORE PUSH1 0x20 ADD SWAP2 POP POP PUSH1 0x40 MLOAD DUP1 SWAP2 SUB SWAP1 RETURN JUMPDEST CALLVALUE DUP1 ISZERO PUSH2 0x414 JUMPI PUSH1 0x0 DUP1 REVERT JUMPDEST POP PUSH2 0x41D PUSH2 0xCFF JUMP JUMPDEST PUSH1 0x40 MLOAD DUP1 DUP3 DUP2 MSTORE PUSH1 0x20 ADD SWAP2 POP POP PUSH1 0x40 MLOAD DUP1 SWAP2 SUB SWAP1 RETURN JUMPDEST CALLVALUE DUP1 ISZERO PUSH2 0x43F JUMPI PUSH1 0x0 DUP1 REVERT JUMPDEST POP PUSH2 0x476 PUSH1 0x4 DUP1 CALLDATASIZE SUB PUSH1 0x40 DUP2 LT ISZERO PUSH2 0x456 JUMPI PUSH1 0x0 DUP1 REVERT JUMPDEST DUP2 ADD SWAP1 DUP1 DUP1 CALLDATALOAD SWAP1 PUSH1 0x20 ADD SWAP1 SWAP3 SWAP2 SWAP1 DUP1 CALLDATALOAD SWAP1 PUSH1 0x20 ADD SWAP1 SWAP3 SWAP2 SWAP1 POP POP POP PUSH2 0xD05 JUMP JUMPDEST STOP JUMPDEST CALLVALUE DUP1 ISZERO PUSH2 0x484 JUMPI PUSH1 0x0 DUP1 REVERT JUMPDEST POP PUSH2 0x48D PUSH2 0xFBD JUMP JUMPDEST PUSH1 0x40 MLOAD DUP1 DUP3 ISZERO ISZERO DUP2 MSTORE PUSH1 0x20 ADD SWAP2 POP POP PUSH1 0x40 MLOAD DUP1 SWAP2 SUB SWAP1 RETURN JUMPDEST CALLVALUE DUP1 ISZERO PUSH2 0x4B1 JUMPI PUSH1 0x0 DUP1 REVERT JUMPDEST POP PUSH2 0x4DE PUSH1 0x4 DUP1 CALLDATASIZE SUB PUSH1 0x20 DUP2 LT ISZERO PUSH2 0x4C8 JUMPI PUSH1 0x0 DUP1 REVERT JUMPDEST DUP2 ADD SWAP1 DUP1 DUP1 CALLDATALOAD SWAP1 PUSH1 0x20 ADD SWAP1 SWAP3 SWAP2 SWAP1 POP POP POP PUSH2 0x101C JUMP JUMPDEST STOP JUMPDEST CALLVALUE DUP1 ISZERO PUSH2 0x4EC JUMPI PUSH1 0x0 DUP1 REVERT JUMPDEST POP PUSH2 0x519 PUSH1 0x4 DUP1 CALLDATASIZE SUB PUSH1 0x20 DUP2 LT ISZERO PUSH2 0x503 JUMPI PUSH1 0x0 DUP1 REVERT JUMPDEST DUP2 ADD SWAP1 DUP1 DUP1 CALLDATALOAD SWAP1 PUSH1 0x20 ADD SWAP1 SWAP3 SWAP2 SWAP1 POP POP POP PUSH2 0x122B JUMP JUMPDEST STOP JUMPDEST CALLVALUE DUP1 ISZERO PUSH2 0x527 JUMPI PUSH1 0x0 DUP1 REVERT JUMPDEST POP PUSH2 0x594 PUSH1 0x4 DUP1 CALLDATASIZE SUB PUSH1 0x60 DUP2 LT ISZERO PUSH2 0x53E JUMPI PUSH1 0x0 DUP1 REVERT JUMPDEST DUP2 ADD SWAP1 DUP1 DUP1 CALLDATALOAD PUSH20 0xFFFFFFFFFFFFFFFFFFFFFFFFFFFFFFFFFFFFFFFF AND SWAP1 PUSH1 0x20 ADD SWAP1 SWAP3 SWAP2 SWAP1 DUP1 CALLDATALOAD SWAP1 PUSH1 0x20 ADD SWAP1 SWAP3 SWAP2 SWAP1 DUP1 CALLDATALOAD PUSH20 0xFFFFFFFFFFFFFFFFFFFFFFFFFFFFFFFFFFFFFFFF AND SWAP1 PUSH1 0x20 ADD SWAP1 SWAP3 SWAP2 SWAP1 POP POP POP PUSH2 0x135F JUMP JUMPDEST STOP JUMPDEST CALLVALUE DUP1 ISZERO PUSH2 0x5A2 JUMPI PUSH1 0x0 DUP1 REVERT JUMPDEST POP PUSH2 0x5AB PUSH2 0x1611 JUMP JUMPDEST PUSH1 0x40 MLOAD DUP1 DUP3 PUSH20 0xFFFFFFFFFFFFFFFFFFFFFFFFFFFFFFFFFFFFFFFF AND DUP2 MSTORE PUSH1 0x20 ADD SWAP2 POP POP PUSH1 0x40 MLOAD DUP1 SWAP2 SUB SWAP1 RETURN JUMPDEST CALLVALUE DUP1 ISZERO PUSH2 0x5E3 JUMPI PUSH1 0x0 DUP1 REVERT JUMPDEST POP PUSH2 0x5EC PUSH2 0x163B JUMP JUMPDEST PUSH1 0x40 MLOAD DUP1 DUP3 DUP2 MSTORE PUSH1 0x20 ADD SWAP2 POP POP PUSH1 0x40 MLOAD DUP1 SWAP2 SUB SWAP1 RETURN JUMPDEST CALLVALUE DUP1 ISZERO PUSH2 0x60E JUMPI PUSH1 0x0 DUP1 REVERT JUMPDEST POP PUSH2 0x617 PUSH2 0x1641 JUMP JUMPDEST STOP JUMPDEST CALLVALUE DUP1 ISZERO PUSH2 0x625 JUMPI PUSH1 0x0 DUP1 REVERT JUMPDEST POP PUSH2 0x62E PUSH2 0x166E JUMP JUMPDEST PUSH1 0x40 MLOAD DUP1 DUP3 DUP2 MSTORE PUSH1 0x20 ADD SWAP2 POP POP PUSH1 0x40 MLOAD DUP1 SWAP2 SUB SWAP1 RETURN JUMPDEST CALLVALUE DUP1 ISZERO PUSH2 0x650 JUMPI PUSH1 0x0 DUP1 REVERT JUMPDEST POP PUSH2 0x659 PUSH2 0x1674 JUMP JUMPDEST STOP JUMPDEST CALLVALUE DUP1 ISZERO PUSH2 0x667 JUMPI PUSH1 0x0 DUP1 REVERT JUMPDEST POP PUSH2 0x670 PUSH2 0x17E1 JUMP JUMPDEST PUSH1 0x40 MLOAD DUP1 DUP3 PUSH20 0xFFFFFFFFFFFFFFFFFFFFFFFFFFFFFFFFFFFFFFFF AND DUP2 MSTORE PUSH1 0x20 ADD SWAP2 POP POP PUSH1 0x40 MLOAD DUP1 SWAP2 SUB SWAP1 RETURN JUMPDEST CALLVALUE DUP1 ISZERO PUSH2 0x6A8 JUMPI PUSH1 0x0 DUP1 REVERT JUMPDEST POP PUSH2 0x6F5 PUSH1 0x4 DUP1 CALLDATASIZE SUB PUSH1 0x40 DUP2 LT ISZERO PUSH2 0x6BF JUMPI PUSH1 0x0 DUP1 REVERT JUMPDEST DUP2 ADD SWAP1 DUP1 DUP1 CALLDATALOAD SWAP1 PUSH1 0x20 ADD SWAP1 SWAP3 SWAP2 SWAP1 DUP1 CALLDATALOAD PUSH20 0xFFFFFFFFFFFFFFFFFFFFFFFFFFFFFFFFFFFFFFFF AND SWAP1 PUSH1 0x20 ADD SWAP1 SWAP3 SWAP2 SWAP1 POP POP POP PUSH2 0x180A JUMP JUMPDEST PUSH1 0x40 MLOAD DUP1 DUP4 DUP2 MSTORE PUSH1 0x20 ADD DUP3 DUP2 MSTORE PUSH1 0x20 ADD SWAP3 POP POP POP PUSH1 0x40 MLOAD DUP1 SWAP2 SUB SWAP1 RETURN JUMPDEST CALLVALUE DUP1 ISZERO PUSH2 0x71E JUMPI PUSH1 0x0 DUP1 REVERT JUMPDEST POP PUSH2 0x727 PUSH2 0x183B JUMP JUMPDEST PUSH1 0x40 MLOAD DUP1 DUP3 DUP2 MSTORE PUSH1 0x20 ADD SWAP2 POP POP PUSH1 0x40 MLOAD DUP1 SWAP2 SUB SWAP1 RETURN JUMPDEST CALLVALUE DUP1 ISZERO PUSH2 0x749 JUMPI PUSH1 0x0 DUP1 REVERT JUMPDEST POP PUSH2 0x7AC PUSH1 0x4 DUP1 CALLDATASIZE SUB PUSH1 0x80 DUP2 LT ISZERO PUSH2 0x760 JUMPI PUSH1 0x0 DUP1 REVERT JUMPDEST DUP2 ADD SWAP1 DUP1 DUP1 CALLDATALOAD SWAP1 PUSH1 0x20 ADD SWAP1 SWAP3 SWAP2 SWAP1 DUP1 CALLDATALOAD PUSH20 0xFFFFFFFFFFFFFFFFFFFFFFFFFFFFFFFFFFFFFFFF AND SWAP1 PUSH1 0x20 ADD SWAP1 SWAP3 SWAP2 SWAP1 DUP1 CALLDATALOAD ISZERO ISZERO SWAP1 PUSH1 0x20 ADD SWAP1 SWAP3 SWAP2 SWAP1 DUP1 CALLDATALOAD SWAP1 PUSH1 0x20 ADD SWAP1 SWAP3 SWAP2 SWAP1 POP POP POP PUSH2 0x1841 JUMP JUMPDEST STOP JUMPDEST CALLVALUE DUP1 ISZERO PUSH2 0x7BA JUMPI PUSH1 0x0 DUP1 REVERT JUMPDEST POP PUSH2 0x7FD PUSH1 0x4 DUP1 CALLDATASIZE SUB PUSH1 0x20 DUP2 LT ISZERO PUSH2 0x7D1 JUMPI PUSH1 0x0 DUP1 REVERT JUMPDEST DUP2 ADD SWAP1 DUP1 DUP1 CALLDATALOAD PUSH20 0xFFFFFFFFFFFFFFFFFFFFFFFFFFFFFFFFFFFFFFFF AND SWAP1 PUSH1 0x20 ADD SWAP1 SWAP3 SWAP2 SWAP1 POP POP POP PUSH2 0x1A7A JUMP JUMPDEST STOP JUMPDEST CALLVALUE DUP1 ISZERO PUSH2 0x80B JUMPI PUSH1 0x0 DUP1 REVERT JUMPDEST POP PUSH2 0x814 PUSH2 0x1B2C JUMP JUMPDEST PUSH1 0x40 MLOAD DUP1 DUP3 PUSH20 0xFFFFFFFFFFFFFFFFFFFFFFFFFFFFFFFFFFFFFFFF AND DUP2 MSTORE PUSH1 0x20 ADD SWAP2 POP POP PUSH1 0x40 MLOAD DUP1 SWAP2 SUB SWAP1 RETURN JUMPDEST CALLVALUE DUP1 ISZERO PUSH2 0x84C JUMPI PUSH1 0x0 DUP1 REVERT JUMPDEST POP PUSH2 0x883 PUSH1 0x4 DUP1 CALLDATASIZE SUB PUSH1 0x40 DUP2 LT ISZERO PUSH2 0x863 JUMPI PUSH1 0x0 DUP1 REVERT JUMPDEST DUP2 ADD SWAP1 DUP1 DUP1 CALLDATALOAD SWAP1 PUSH1 0x20 ADD SWAP1 SWAP3 SWAP2 SWAP1 DUP1 CALLDATALOAD SWAP1 PUSH1 0x20 ADD SWAP1 SWAP3 SWAP2 SWAP1 POP POP POP PUSH2 0x1B52 JUMP JUMPDEST STOP JUMPDEST CALLVALUE DUP1 ISZERO PUSH2 0x891 JUMPI PUSH1 0x0 DUP1 REVERT JUMPDEST POP PUSH2 0x8DE PUSH1 0x4 DUP1 CALLDATASIZE SUB PUSH1 0x40 DUP2 LT ISZERO PUSH2 0x8A8 JUMPI PUSH1 0x0 DUP1 REVERT JUMPDEST DUP2 ADD SWAP1 DUP1 DUP1 CALLDATALOAD SWAP1 PUSH1 0x20 ADD SWAP1 SWAP3 SWAP2 SWAP1 DUP1 CALLDATALOAD PUSH20 0xFFFFFFFFFFFFFFFFFFFFFFFFFFFFFFFFFFFFFFFF AND SWAP1 PUSH1 0x20 ADD SWAP1 SWAP3 SWAP2 SWAP1 POP POP POP PUSH2 0x1E61 JUMP JUMPDEST PUSH1 0x40 MLOAD DUP1 DUP3 DUP2 MSTORE PUSH1 0x20 ADD SWAP2 POP POP PUSH1 0x40 MLOAD DUP1 SWAP2 SUB SWAP1 RETURN JUMPDEST CALLVALUE DUP1 ISZERO PUSH2 0x900 JUMPI PUSH1 0x0 DUP1 REVERT JUMPDEST POP PUSH2 0x943 PUSH1 0x4 DUP1 CALLDATASIZE SUB PUSH1 0x20 DUP2 LT ISZERO PUSH2 0x917 JUMPI PUSH1 0x0 DUP1 REVERT JUMPDEST DUP2 ADD SWAP1 DUP1 DUP1 CALLDATALOAD PUSH20 0xFFFFFFFFFFFFFFFFFFFFFFFFFFFFFFFFFFFFFFFF AND SWAP1 PUSH1 0x20 ADD SWAP1 SWAP3 SWAP2 SWAP1 POP POP POP PUSH2 0x2099 JUMP JUMPDEST STOP JUMPDEST PUSH1 0x0 PUSH1 0x1 PUSH1 0x0 SWAP1 SLOAD SWAP1 PUSH2 0x100 EXP SWAP1 DIV PUSH20 0xFFFFFFFFFFFFFFFFFFFFFFFFFFFFFFFFFFFFFFFF AND SWAP1 POP SWAP1 JUMP JUMPDEST PUSH10 0x54B40B1F852BDA00000 DUP2 JUMP JUMPDEST PUSH1 0x4 DUP2 DUP2 SLOAD DUP2 LT PUSH2 0x98D JUMPI PUSH1 0x0 DUP1 REVERT JUMPDEST SWAP1 PUSH1 0x0 MSTORE PUSH1 0x20 PUSH1 0x0 KECCAK256 SWAP1 PUSH1 0x5 MUL ADD PUSH1 0x0 SWAP2 POP SWAP1 POP DUP1 PUSH1 0x0 ADD PUSH1 0x0 SWAP1 SLOAD SWAP1 PUSH2 0x100 EXP SWAP1 DIV PUSH20 0xFFFFFFFFFFFFFFFFFFFFFFFFFFFFFFFFFFFFFFFF AND SWAP1 DUP1 PUSH1 0x1 ADD SLOAD SWAP1 DUP1 PUSH1 0x2 ADD SLOAD SWAP1 DUP1 PUSH1 0x3 ADD SLOAD SWAP1 DUP1 PUSH1 0x4 ADD PUSH1 0x0 SWAP1 SLOAD SWAP1 PUSH2 0x100 EXP SWAP1 DIV PUSH1 0xFF AND SWAP1 POP DUP6 JUMP JUMPDEST PUSH1 0x7 SLOAD DUP2 JUMP JUMPDEST CALLER PUSH20 0xFFFFFFFFFFFFFFFFFFFFFFFFFFFFFFFFFFFFFFFF AND PUSH1 0x2 PUSH1 0x0 SWAP1 SLOAD SWAP1 PUSH2 0x100 EXP SWAP1 DIV PUSH20 0xFFFFFFFFFFFFFFFFFFFFFFFFFFFFFFFFFFFFFFFF AND PUSH20 0xFFFFFFFFFFFFFFFFFFFFFFFFFFFFFFFFFFFFFFFF AND EQ PUSH2 0xA9C JUMPI PUSH1 0x40 MLOAD PUSH32 0x8C379A000000000000000000000000000000000000000000000000000000000 DUP2 MSTORE PUSH1 0x4 ADD DUP1 DUP1 PUSH1 0x20 ADD DUP3 DUP2 SUB DUP3 MSTORE PUSH1 0x24 DUP2 MSTORE PUSH1 0x20 ADD DUP1 PUSH2 0x31B7 PUSH1 0x24 SWAP2 CODECOPY PUSH1 0x40 ADD SWAP2 POP POP PUSH1 0x40 MLOAD DUP1 SWAP2 SUB SWAP1 REVERT JUMPDEST PUSH2 0xAA4 PUSH2 0x1641 JUMP JUMPDEST PUSH1 0x0 PUSH1 0x4 DUP4 DUP2 SLOAD DUP2 LT PUSH2 0xAB3 JUMPI INVALID JUMPDEST SWAP1 PUSH1 0x0 MSTORE PUSH1 0x20 PUSH1 0x0 KECCAK256 SWAP1 PUSH1 0x5 MUL ADD SWAP1 POP DUP1 PUSH1 0x4 ADD PUSH1 0x0 SWAP1 SLOAD SWAP1 PUSH2 0x100 EXP SWAP1 DIV PUSH1 0xFF AND ISZERO PUSH2 0xB0C JUMPI PUSH2 0xB05 DUP3 PUSH2 0xAF7 DUP4 PUSH1 0x1 ADD SLOAD PUSH1 0x7 SLOAD PUSH2 0x2235 SWAP1 SWAP2 SWAP1 PUSH4 0xFFFFFFFF AND JUMP JUMPDEST PUSH2 0x22B8 SWAP1 SWAP2 SWAP1 PUSH4 0xFFFFFFFF AND JUMP JUMPDEST PUSH1 0x7 DUP2 SWAP1 SSTORE POP JUMPDEST DUP2 DUP2 PUSH1 0x1 ADD DUP2 SWAP1 SSTORE POP POP POP POP JUMP JUMPDEST PUSH1 0x0 DUP2 DUP4 LT PUSH2 0xB2C JUMPI PUSH1 0x0 SWAP1 POP PUSH2 0xC27 JUMP JUMPDEST PUSH1 0x9 SLOAD DUP3 LT PUSH2 0xBB2 JUMPI PUSH1 0x9 SLOAD DUP4 LT PUSH2 0xB47 JUMPI PUSH1 0x0 SWAP1 POP PUSH2 0xC27 JUMP JUMPDEST PUSH1 0x8 SLOAD DUP4 GT PUSH2 0xB82 JUMPI PUSH2 0xB7B PUSH1 0xA SLOAD PUSH2 0xB6D PUSH1 0x8 SLOAD PUSH1 0x9 SLOAD PUSH2 0x2235 SWAP1 SWAP2 SWAP1 PUSH4 0xFFFFFFFF AND JUMP JUMPDEST PUSH2 0x2340 SWAP1 SWAP2 SWAP1 PUSH4 0xFFFFFFFF AND JUMP JUMPDEST SWAP1 POP PUSH2 0xC27 JUMP JUMPDEST PUSH2 0xBAB PUSH1 0xA SLOAD PUSH2 0xB9D DUP6 PUSH1 0x9 SLOAD PUSH2 0x2235 SWAP1 SWAP2 SWAP1 PUSH4 0xFFFFFFFF AND JUMP JUMPDEST PUSH2 0x2340 SWAP1 SWAP2 SWAP1 PUSH4 0xFFFFFFFF AND JUMP JUMPDEST SWAP1 POP PUSH2 0xC27 JUMP JUMPDEST PUSH1 0x8 SLOAD DUP3 GT PUSH2 0xBC4 JUMPI PUSH1 0x0 SWAP1 POP PUSH2 0xC27 JUMP JUMPDEST PUSH1 0x8 SLOAD DUP4 GT PUSH2 0xBFD JUMPI PUSH2 0xBF6 PUSH1 0xA SLOAD PUSH2 0xBE8 PUSH1 0x8 SLOAD DUP6 PUSH2 0x2235 SWAP1 SWAP2 SWAP1 PUSH4 0xFFFFFFFF AND JUMP JUMPDEST PUSH2 0x2340 SWAP1 SWAP2 SWAP1 PUSH4 0xFFFFFFFF AND JUMP JUMPDEST SWAP1 POP PUSH2 0xC27 JUMP JUMPDEST PUSH2 0xC24 PUSH1 0xA SLOAD PUSH2 0xC16 DUP6 DUP6 PUSH2 0x2235 SWAP1 SWAP2 SWAP1 PUSH4 0xFFFFFFFF AND JUMP JUMPDEST PUSH2 0x2340 SWAP1 SWAP2 SWAP1 PUSH4 0xFFFFFFFF AND JUMP JUMPDEST SWAP1 POP JUMPDEST SWAP3 SWAP2 POP POP JUMP JUMPDEST PUSH2 0xC35 PUSH2 0x23C6 JUMP JUMPDEST PUSH20 0xFFFFFFFFFFFFFFFFFFFFFFFFFFFFFFFFFFFFFFFF AND PUSH2 0xC53 PUSH2 0x17E1 JUMP JUMPDEST PUSH20 0xFFFFFFFFFFFFFFFFFFFFFFFFFFFFFFFFFFFFFFFF AND EQ PUSH2 0xCDC JUMPI PUSH1 0x40 MLOAD PUSH32 0x8C379A000000000000000000000000000000000000000000000000000000000 DUP2 MSTORE PUSH1 0x4 ADD DUP1 DUP1 PUSH1 0x20 ADD DUP3 DUP2 SUB DUP3 MSTORE PUSH1 0x20 DUP2 MSTORE PUSH1 0x20 ADD DUP1 PUSH32 0x4F776E61626C653A2063616C6C6572206973206E6F7420746865206F776E6572 DUP2 MSTORE POP PUSH1 0x20 ADD SWAP2 POP POP PUSH1 0x40 MLOAD DUP1 SWAP2 SUB SWAP1 REVERT JUMPDEST PUSH2 0xCE5 DUP2 PUSH2 0x23CE JUMP JUMPDEST POP JUMP JUMPDEST PUSH1 0x0 PUSH1 0x5 PUSH1 0x0 SWAP1 SLOAD SWAP1 PUSH2 0x100 EXP SWAP1 DIV PUSH1 0xFF AND SWAP1 POP SWAP1 JUMP JUMPDEST PUSH1 0xA SLOAD DUP2 JUMP JUMPDEST PUSH1 0x0 CALLER SWAP1 POP PUSH1 0x0 PUSH1 0x4 DUP5 DUP2 SLOAD DUP2 LT PUSH2 0xD19 JUMPI INVALID JUMPDEST SWAP1 PUSH1 0x0 MSTORE PUSH1 0x20 PUSH1 0x0 KECCAK256 SWAP1 PUSH1 0x5 MUL ADD SWAP1 POP PUSH1 0x0 PUSH1 0x6 PUSH1 0x0 DUP7 DUP2 MSTORE PUSH1 0x20 ADD SWAP1 DUP2 MSTORE PUSH1 0x20 ADD PUSH1 0x0 KECCAK256 PUSH1 0x0 DUP5 PUSH20 0xFFFFFFFFFFFFFFFFFFFFFFFFFFFFFFFFFFFFFFFF AND PUSH20 0xFFFFFFFFFFFFFFFFFFFFFFFFFFFFFFFFFFFFFFFF AND DUP2 MSTORE PUSH1 0x20 ADD SWAP1 DUP2 MSTORE PUSH1 0x20 ADD PUSH1 0x0 KECCAK256 SWAP1 POP DUP4 DUP2 PUSH1 0x0 ADD SLOAD LT ISZERO PUSH2 0xDF7 JUMPI PUSH1 0x40 MLOAD PUSH32 0x8C379A000000000000000000000000000000000000000000000000000000000 DUP2 MSTORE PUSH1 0x4 ADD DUP1 DUP1 PUSH1 0x20 ADD DUP3 DUP2 SUB DUP3 MSTORE PUSH1 0x12 DUP2 MSTORE PUSH1 0x20 ADD DUP1 PUSH32 0x77697468647261773A206E6F7420676F6F640000000000000000000000000000 DUP2 MSTORE POP PUSH1 0x20 ADD SWAP2 POP POP PUSH1 0x40 MLOAD DUP1 SWAP2 SUB SWAP1 REVERT JUMPDEST PUSH2 0xE00 DUP6 PUSH2 0x101C JUMP JUMPDEST PUSH1 0x0 PUSH2 0xE4D DUP3 PUSH1 0x1 ADD SLOAD PUSH2 0xE3F PUSH8 0xDE0B6B3A7640000 PUSH2 0xE31 DUP8 PUSH1 0x3 ADD SLOAD DUP8 PUSH1 0x0 ADD SLOAD PUSH2 0x2340 SWAP1 SWAP2 SWAP1 PUSH4 0xFFFFFFFF AND JUMP JUMPDEST PUSH2 0x24FC SWAP1 SWAP2 SWAP1 PUSH4 0xFFFFFFFF AND JUMP JUMPDEST PUSH2 0x2235 SWAP1 SWAP2 SWAP1 PUSH4 0xFFFFFFFF AND JUMP JUMPDEST SWAP1 POP PUSH1 0x0 DUP2 GT ISZERO PUSH2 0xEB1 JUMPI PUSH2 0xE62 DUP5 DUP3 PUSH2 0x2585 JUMP JUMPDEST DUP4 PUSH20 0xFFFFFFFFFFFFFFFFFFFFFFFFFFFFFFFFFFFFFFFF AND PUSH32 0xE2403640BA68FED3A2F88B7557551D1993F84B99BB10FF833F0CF8DB0C5E0486 DUP3 PUSH1 0x40 MLOAD DUP1 DUP3 DUP2 MSTORE PUSH1 0x20 ADD SWAP2 POP POP PUSH1 0x40 MLOAD DUP1 SWAP2 SUB SWAP1 LOG2 JUMPDEST PUSH1 0x0 DUP6 GT ISZERO PUSH2 0xF29 JUMPI PUSH2 0xED1 DUP6 DUP4 PUSH1 0x0 ADD SLOAD PUSH2 0x2235 SWAP1 SWAP2 SWAP1 PUSH4 0xFFFFFFFF AND JUMP JUMPDEST DUP3 PUSH1 0x0 ADD DUP2 SWAP1 SSTORE POP PUSH2 0xF28 DUP5 DUP7 DUP6 PUSH1 0x0 ADD PUSH1 0x0 SWAP1 SLOAD SWAP1 PUSH2 0x100 EXP SWAP1 DIV PUSH20 0xFFFFFFFFFFFFFFFFFFFFFFFFFFFFFFFFFFFFFFFF AND PUSH20 0xFFFFFFFFFFFFFFFFFFFFFFFFFFFFFFFFFFFFFFFF AND PUSH2 0x2704 SWAP1 SWAP3 SWAP2 SWAP1 PUSH4 0xFFFFFFFF AND JUMP JUMPDEST JUMPDEST PUSH2 0xF5E PUSH8 0xDE0B6B3A7640000 PUSH2 0xF50 DUP6 PUSH1 0x3 ADD SLOAD DUP6 PUSH1 0x0 ADD SLOAD PUSH2 0x2340 SWAP1 SWAP2 SWAP1 PUSH4 0xFFFFFFFF AND JUMP JUMPDEST PUSH2 0x24FC SWAP1 SWAP2 SWAP1 PUSH4 0xFFFFFFFF AND JUMP JUMPDEST DUP3 PUSH1 0x1 ADD DUP2 SWAP1 SSTORE POP DUP6 DUP5 PUSH20 0xFFFFFFFFFFFFFFFFFFFFFFFFFFFFFFFFFFFFFFFF AND PUSH32 0xF279E6A1F5E320CCA91135676D9CB6E44CA8A08C0B88342BCDB1144F6511B568 DUP8 PUSH1 0x40 MLOAD DUP1 DUP3 DUP2 MSTORE PUSH1 0x20 ADD SWAP2 POP POP PUSH1 0x40 MLOAD DUP1 SWAP2 SUB SWAP1 LOG3 POP POP POP POP POP POP JUMP JUMPDEST PUSH1 0x0 PUSH1 0x2 PUSH1 0x0 SWAP1 SLOAD SWAP1 PUSH2 0x100 EXP SWAP1 DIV PUSH20 0xFFFFFFFFFFFFFFFFFFFFFFFFFFFFFFFFFFFFFFFF AND PUSH20 0xFFFFFFFFFFFFFFFFFFFFFFFFFFFFFFFFFFFFFFFF AND PUSH2 0x1000 PUSH2 0x23C6 JUMP JUMPDEST PUSH20 0xFFFFFFFFFFFFFFFFFFFFFFFFFFFFFFFFFFFFFFFF AND EQ SWAP1 POP SWAP1 JUMP JUMPDEST PUSH1 0x0 PUSH1 0x4 DUP3 DUP2 SLOAD DUP2 LT PUSH2 0x102B JUMPI INVALID JUMPDEST SWAP1 PUSH1 0x0 MSTORE PUSH1 0x20 PUSH1 0x0 KECCAK256 SWAP1 PUSH1 0x5 MUL ADD SWAP1 POP DUP1 PUSH1 0x2 ADD SLOAD TIMESTAMP GT PUSH2 0x104C JUMPI POP PUSH2 0x1228 JUMP JUMPDEST PUSH1 0x0 DUP2 PUSH1 0x0 ADD PUSH1 0x0 SWAP1 SLOAD SWAP1 PUSH2 0x100 EXP SWAP1 DIV PUSH20 0xFFFFFFFFFFFFFFFFFFFFFFFFFFFFFFFFFFFFFFFF AND PUSH20 0xFFFFFFFFFFFFFFFFFFFFFFFFFFFFFFFFFFFFFFFF AND PUSH4 0x70A08231 ADDRESS PUSH1 0x40 MLOAD DUP3 PUSH4 0xFFFFFFFF AND PUSH1 0xE0 SHL DUP2 MSTORE PUSH1 0x4 ADD DUP1 DUP3 PUSH20 0xFFFFFFFFFFFFFFFFFFFFFFFFFFFFFFFFFFFFFFFF AND DUP2 MSTORE PUSH1 0x20 ADD SWAP2 POP POP PUSH1 0x20 PUSH1 0x40 MLOAD DUP1 DUP4 SUB DUP2 DUP7 DUP1 EXTCODESIZE ISZERO DUP1 ISZERO PUSH2 0x10D9 JUMPI PUSH1 0x0 DUP1 REVERT JUMPDEST POP GAS STATICCALL ISZERO DUP1 ISZERO PUSH2 0x10ED JUMPI RETURNDATASIZE PUSH1 0x0 DUP1 RETURNDATACOPY RETURNDATASIZE PUSH1 0x0 REVERT JUMPDEST POP POP POP POP PUSH1 0x40 MLOAD RETURNDATASIZE PUSH1 0x20 DUP2 LT ISZERO PUSH2 0x1103 JUMPI PUSH1 0x0 DUP1 REVERT JUMPDEST DUP2 ADD SWAP1 DUP1 DUP1 MLOAD SWAP1 PUSH1 0x20 ADD SWAP1 SWAP3 SWAP2 SWAP1 POP POP POP SWAP1 POP PUSH1 0x0 DUP2 EQ ISZERO PUSH2 0x112F JUMPI TIMESTAMP DUP3 PUSH1 0x2 ADD DUP2 SWAP1 SSTORE POP POP POP PUSH2 0x1228 JUMP JUMPDEST DUP2 PUSH1 0x4 ADD PUSH1 0x0 SWAP1 SLOAD SWAP1 PUSH2 0x100 EXP SWAP1 DIV PUSH1 0xFF AND PUSH2 0x1182 JUMPI PUSH1 0x1 DUP3 PUSH1 0x4 ADD PUSH1 0x0 PUSH2 0x100 EXP DUP2 SLOAD DUP2 PUSH1 0xFF MUL NOT AND SWAP1 DUP4 ISZERO ISZERO MUL OR SWAP1 SSTORE POP PUSH2 0x117B DUP3 PUSH1 0x1 ADD SLOAD PUSH1 0x7 SLOAD PUSH2 0x22B8 SWAP1 SWAP2 SWAP1 PUSH4 0xFFFFFFFF AND JUMP JUMPDEST PUSH1 0x7 DUP2 SWAP1 SSTORE POP JUMPDEST PUSH1 0x0 PUSH1 0x7 SLOAD GT ISZERO PUSH2 0x121C JUMPI PUSH1 0x0 PUSH2 0x119D DUP4 PUSH1 0x2 ADD SLOAD TIMESTAMP PUSH2 0xB1A JUMP JUMPDEST SWAP1 POP PUSH1 0x0 PUSH2 0x11CC PUSH1 0x7 SLOAD PUSH2 0x11BE DUP7 PUSH1 0x1 ADD SLOAD DUP6 PUSH2 0x2340 SWAP1 SWAP2 SWAP1 PUSH4 0xFFFFFFFF AND JUMP JUMPDEST PUSH2 0x24FC SWAP1 SWAP2 SWAP1 PUSH4 0xFFFFFFFF AND JUMP JUMPDEST SWAP1 POP PUSH2 0x1211 PUSH2 0x11FE DUP5 PUSH2 0x11F0 PUSH8 0xDE0B6B3A7640000 DUP6 PUSH2 0x2340 SWAP1 SWAP2 SWAP1 PUSH4 0xFFFFFFFF AND JUMP JUMPDEST PUSH2 0x24FC SWAP1 SWAP2 SWAP1 PUSH4 0xFFFFFFFF AND JUMP JUMPDEST DUP6 PUSH1 0x3 ADD SLOAD PUSH2 0x22B8 SWAP1 SWAP2 SWAP1 PUSH4 0xFFFFFFFF AND JUMP JUMPDEST DUP5 PUSH1 0x3 ADD DUP2 SWAP1 SSTORE POP POP POP JUMPDEST TIMESTAMP DUP3 PUSH1 0x2 ADD DUP2 SWAP1 SSTORE POP POP POP JUMPDEST POP JUMP JUMPDEST PUSH1 0x0 PUSH1 0x4 DUP3 DUP2 SLOAD DUP2 LT PUSH2 0x123A JUMPI INVALID JUMPDEST SWAP1 PUSH1 0x0 MSTORE PUSH1 0x20 PUSH1 0x0 KECCAK256 SWAP1 PUSH1 0x5 MUL ADD SWAP1 POP PUSH1 0x0 PUSH1 0x6 PUSH1 0x0 DUP5 DUP2 MSTORE PUSH1 0x20 ADD SWAP1 DUP2 MSTORE PUSH1 0x20 ADD PUSH1 0x0 KECCAK256 PUSH1 0x0 CALLER PUSH20 0xFFFFFFFFFFFFFFFFFFFFFFFFFFFFFFFFFFFFFFFF AND PUSH20 0xFFFFFFFFFFFFFFFFFFFFFFFFFFFFFFFFFFFFFFFF AND DUP2 MSTORE PUSH1 0x20 ADD SWAP1 DUP2 MSTORE PUSH1 0x20 ADD PUSH1 0x0 KECCAK256 SWAP1 POP PUSH1 0x0 DUP2 PUSH1 0x0 ADD SLOAD SWAP1 POP PUSH1 0x0 DUP3 PUSH1 0x0 ADD DUP2 SWAP1 SSTORE POP PUSH1 0x0 DUP3 PUSH1 0x1 ADD DUP2 SWAP1 SSTORE POP PUSH2 0x130A CALLER DUP3 DUP6 PUSH1 0x0 ADD PUSH1 0x0 SWAP1 SLOAD SWAP1 PUSH2 0x100 EXP SWAP1 DIV PUSH20 0xFFFFFFFFFFFFFFFFFFFFFFFFFFFFFFFFFFFFFFFF AND PUSH20 0xFFFFFFFFFFFFFFFFFFFFFFFFFFFFFFFFFFFFFFFF AND PUSH2 0x2704 SWAP1 SWAP3 SWAP2 SWAP1 PUSH4 0xFFFFFFFF AND JUMP JUMPDEST DUP4 CALLER PUSH20 0xFFFFFFFFFFFFFFFFFFFFFFFFFFFFFFFFFFFFFFFF AND PUSH32 0xBB757047C2B5F3974FE26B7C10F732E7BCE710B0952A71082702781E62AE0595 DUP4 PUSH1 0x40 MLOAD DUP1 DUP3 DUP2 MSTORE PUSH1 0x20 ADD SWAP2 POP POP PUSH1 0x40 MLOAD DUP1 SWAP2 SUB SWAP1 LOG3 POP POP POP POP JUMP JUMPDEST CALLER PUSH20 0xFFFFFFFFFFFFFFFFFFFFFFFFFFFFFFFFFFFFFFFF AND PUSH1 0x2 PUSH1 0x0 SWAP1 SLOAD SWAP1 PUSH2 0x100 EXP SWAP1 DIV PUSH20 0xFFFFFFFFFFFFFFFFFFFFFFFFFFFFFFFFFFFFFFFF AND PUSH20 0xFFFFFFFFFFFFFFFFFFFFFFFFFFFFFFFFFFFFFFFF AND EQ PUSH2 0x1405 JUMPI PUSH1 0x40 MLOAD PUSH32 0x8C379A000000000000000000000000000000000000000000000000000000000 DUP2 MSTORE PUSH1 0x4 ADD DUP1 DUP1 PUSH1 0x20 ADD DUP3 DUP2 SUB DUP3 MSTORE PUSH1 0x24 DUP2 MSTORE PUSH1 0x20 ADD DUP1 PUSH2 0x31B7 PUSH1 0x24 SWAP2 CODECOPY PUSH1 0x40 ADD SWAP2 POP POP PUSH1 0x40 MLOAD DUP1 SWAP2 SUB SWAP1 REVERT JUMPDEST PUSH3 0x76A700 PUSH1 0x9 SLOAD ADD TIMESTAMP LT ISZERO PUSH2 0x15E1 JUMPI PUSH1 0x3 PUSH1 0x0 SWAP1 SLOAD SWAP1 PUSH2 0x100 EXP SWAP1 DIV PUSH20 0xFFFFFFFFFFFFFFFFFFFFFFFFFFFFFFFFFFFFFFFF AND PUSH20 0xFFFFFFFFFFFFFFFFFFFFFFFFFFFFFFFFFFFFFFFF AND DUP4 PUSH20 0xFFFFFFFFFFFFFFFFFFFFFFFFFFFFFFFFFFFFFFFF AND EQ ISZERO PUSH2 0x14D8 JUMPI PUSH1 0x40 MLOAD PUSH32 0x8C379A000000000000000000000000000000000000000000000000000000000 DUP2 MSTORE PUSH1 0x4 ADD DUP1 DUP1 PUSH1 0x20 ADD DUP3 DUP2 SUB DUP3 MSTORE PUSH1 0x4 DUP2 MSTORE PUSH1 0x20 ADD DUP1 PUSH32 0x506F6C7900000000000000000000000000000000000000000000000000000000 DUP2 MSTORE POP PUSH1 0x20 ADD SWAP2 POP POP PUSH1 0x40 MLOAD DUP1 SWAP2 SUB SWAP1 REVERT JUMPDEST PUSH1 0x0 PUSH1 0x4 DUP1 SLOAD SWAP1 POP SWAP1 POP PUSH1 0x0 JUMPDEST DUP2 DUP2 LT ISZERO PUSH2 0x15DE JUMPI PUSH1 0x0 PUSH1 0x4 DUP3 DUP2 SLOAD DUP2 LT PUSH2 0x14FC JUMPI INVALID JUMPDEST SWAP1 PUSH1 0x0 MSTORE PUSH1 0x20 PUSH1 0x0 KECCAK256 SWAP1 PUSH1 0x5 MUL ADD SWAP1 POP DUP1 PUSH1 0x0 ADD PUSH1 0x0 SWAP1 SLOAD SWAP1 PUSH2 0x100 EXP SWAP1 DIV PUSH20 0xFFFFFFFFFFFFFFFFFFFFFFFFFFFFFFFFFFFFFFFF AND PUSH20 0xFFFFFFFFFFFFFFFFFFFFFFFFFFFFFFFFFFFFFFFF AND DUP7 PUSH20 0xFFFFFFFFFFFFFFFFFFFFFFFFFFFFFFFFFFFFFFFF AND EQ ISZERO PUSH2 0x15D2 JUMPI PUSH1 0x40 MLOAD PUSH32 0x8C379A000000000000000000000000000000000000000000000000000000000 DUP2 MSTORE PUSH1 0x4 ADD DUP1 DUP1 PUSH1 0x20 ADD DUP3 DUP2 SUB DUP3 MSTORE PUSH1 0xA DUP2 MSTORE PUSH1 0x20 ADD DUP1 PUSH32 0x706F6F6C2E746F6B656E00000000000000000000000000000000000000000000 DUP2 MSTORE POP PUSH1 0x20 ADD SWAP2 POP POP PUSH1 0x40 MLOAD DUP1 SWAP2 SUB SWAP1 REVERT JUMPDEST POP DUP1 PUSH1 0x1 ADD SWAP1 POP PUSH2 0x14E5 JUMP JUMPDEST POP POP JUMPDEST PUSH2 0x160C DUP2 DUP4 DUP6 PUSH20 0xFFFFFFFFFFFFFFFFFFFFFFFFFFFFFFFFFFFFFFFF AND PUSH2 0x2704 SWAP1 SWAP3 SWAP2 SWAP1 PUSH4 0xFFFFFFFF AND JUMP JUMPDEST POP POP POP JUMP JUMPDEST PUSH1 0x0 PUSH1 0x2 PUSH1 0x0 SWAP1 SLOAD SWAP1 PUSH2 0x100 EXP SWAP1 DIV PUSH20 0xFFFFFFFFFFFFFFFFFFFFFFFFFFFFFFFFFFFFFFFF AND SWAP1 POP SWAP1 JUMP JUMPDEST PUSH1 0x8 SLOAD DUP2 JUMP JUMPDEST PUSH1 0x0 PUSH1 0x4 DUP1 SLOAD SWAP1 POP SWAP1 POP PUSH1 0x0 JUMPDEST DUP2 DUP2 LT ISZERO PUSH2 0x166A JUMPI PUSH2 0x165F DUP2 PUSH2 0x101C JUMP JUMPDEST DUP1 PUSH1 0x1 ADD SWAP1 POP PUSH2 0x164E JUMP JUMPDEST POP POP JUMP JUMPDEST PUSH1 0x9 SLOAD DUP2 JUMP JUMPDEST PUSH2 0x167C PUSH2 0x23C6 JUMP JUMPDEST PUSH20 0xFFFFFFFFFFFFFFFFFFFFFFFFFFFFFFFFFFFFFFFF AND PUSH2 0x169A PUSH2 0x17E1 JUMP JUMPDEST PUSH20 0xFFFFFFFFFFFFFFFFFFFFFFFFFFFFFFFFFFFFFFFF AND EQ PUSH2 0x1723 JUMPI PUSH1 0x40 MLOAD PUSH32 0x8C379A000000000000000000000000000000000000000000000000000000000 DUP2 MSTORE PUSH1 0x4 ADD DUP1 DUP1 PUSH1 0x20 ADD DUP3 DUP2 SUB DUP3 MSTORE PUSH1 0x20 DUP2 MSTORE PUSH1 0x20 ADD DUP1 PUSH32 0x4F776E61626C653A2063616C6C6572206973206E6F7420746865206F776E6572 DUP2 MSTORE POP PUSH1 0x20 ADD SWAP2 POP POP PUSH1 0x40 MLOAD DUP1 SWAP2 SUB SWAP1 REVERT JUMPDEST PUSH1 0x0 PUSH20 0xFFFFFFFFFFFFFFFFFFFFFFFFFFFFFFFFFFFFFFFF AND PUSH1 0x0 DUP1 SLOAD SWAP1 PUSH2 0x100 EXP SWAP1 DIV PUSH20 0xFFFFFFFFFFFFFFFFFFFFFFFFFFFFFFFFFFFFFFFF AND PUSH20 0xFFFFFFFFFFFFFFFFFFFFFFFFFFFFFFFFFFFFFFFF AND PUSH32 0x8BE0079C531659141344CD1FD0A4F28419497F9722A3DAAFE3B4186F6B6457E0 PUSH1 0x40 MLOAD PUSH1 0x40 MLOAD DUP1 SWAP2 SUB SWAP1 LOG3 PUSH1 0x0 DUP1 PUSH1 0x0 PUSH2 0x100 EXP DUP2 SLOAD DUP2 PUSH20 0xFFFFFFFFFFFFFFFFFFFFFFFFFFFFFFFFFFFFFFFF MUL NOT AND SWAP1 DUP4 PUSH20 0xFFFFFFFFFFFFFFFFFFFFFFFFFFFFFFFFFFFFFFFF AND MUL OR SWAP1 SSTORE POP JUMP JUMPDEST PUSH1 0x0 DUP1 PUSH1 0x0 SWAP1 SLOAD SWAP1 PUSH2 0x100 EXP SWAP1 DIV PUSH20 0xFFFFFFFFFFFFFFFFFFFFFFFFFFFFFFFFFFFFFFFF AND SWAP1 POP SWAP1 JUMP JUMPDEST PUSH1 0x6 PUSH1 0x20 MSTORE DUP2 PUSH1 0x0 MSTORE PUSH1 0x40 PUSH1 0x0 KECCAK256 PUSH1 0x20 MSTORE DUP1 PUSH1 0x0 MSTORE PUSH1 0x40 PUSH1 0x0 KECCAK256 PUSH1 0x0 SWAP2 POP SWAP2 POP POP DUP1 PUSH1 0x0 ADD SLOAD SWAP1 DUP1 PUSH1 0x1 ADD SLOAD SWAP1 POP DUP3 JUMP JUMPDEST PUSH1 0xB SLOAD DUP2 JUMP JUMPDEST CALLER PUSH20 0xFFFFFFFFFFFFFFFFFFFFFFFFFFFFFFFFFFFFFFFF AND PUSH1 0x2 PUSH1 0x0 SWAP1 SLOAD SWAP1 PUSH2 0x100 EXP SWAP1 DIV PUSH20 0xFFFFFFFFFFFFFFFFFFFFFFFFFFFFFFFFFFFFFFFF AND PUSH20 0xFFFFFFFFFFFFFFFFFFFFFFFFFFFFFFFFFFFFFFFF AND EQ PUSH2 0x18E7 JUMPI PUSH1 0x40 MLOAD PUSH32 0x8C379A000000000000000000000000000000000000000000000000000000000 DUP2 MSTORE PUSH1 0x4 ADD DUP1 DUP1 PUSH1 0x20 ADD DUP3 DUP2 SUB DUP3 MSTORE PUSH1 0x24 DUP2 MSTORE PUSH1 0x20 ADD DUP1 PUSH2 0x31B7 PUSH1 0x24 SWAP2 CODECOPY PUSH1 0x40 ADD SWAP2 POP POP PUSH1 0x40 MLOAD DUP1 SWAP2 SUB SWAP1 REVERT JUMPDEST PUSH2 0x18F0 DUP4 PUSH2 0x27A6 JUMP JUMPDEST DUP2 ISZERO PUSH2 0x18FF JUMPI PUSH2 0x18FE PUSH2 0x1641 JUMP JUMPDEST JUMPDEST PUSH1 0x8 SLOAD TIMESTAMP LT ISZERO PUSH2 0x1932 JUMPI PUSH1 0x0 DUP2 EQ ISZERO PUSH2 0x191C JUMPI PUSH1 0x8 SLOAD SWAP1 POP PUSH2 0x192D JUMP JUMPDEST PUSH1 0x8 SLOAD DUP2 LT ISZERO PUSH2 0x192C JUMPI PUSH1 0x8 SLOAD SWAP1 POP JUMPDEST JUMPDEST PUSH2 0x194A JUMP JUMPDEST PUSH1 0x0 DUP2 EQ DUP1 PUSH2 0x1940 JUMPI POP TIMESTAMP DUP2 LT JUMPDEST ISZERO PUSH2 0x1949 JUMPI TIMESTAMP SWAP1 POP JUMPDEST JUMPDEST PUSH1 0x0 PUSH1 0x8 SLOAD DUP3 GT ISZERO DUP1 PUSH2 0x195D JUMPI POP TIMESTAMP DUP3 GT ISZERO JUMPDEST SWAP1 POP PUSH1 0x4 PUSH1 0x40 MLOAD DUP1 PUSH1 0xA0 ADD PUSH1 0x40 MSTORE DUP1 DUP7 PUSH20 0xFFFFFFFFFFFFFFFFFFFFFFFFFFFFFFFFFFFFFFFF AND DUP2 MSTORE PUSH1 0x20 ADD DUP8 DUP2 MSTORE PUSH1 0x20 ADD DUP5 DUP2 MSTORE PUSH1 0x20 ADD PUSH1 0x0 DUP2 MSTORE PUSH1 0x20 ADD DUP4 ISZERO ISZERO DUP2 MSTORE POP SWAP1 DUP1 PUSH1 0x1 DUP2 SLOAD ADD DUP1 DUP3 SSTORE DUP1 SWAP2 POP POP PUSH1 0x1 SWAP1 SUB SWAP1 PUSH1 0x0 MSTORE PUSH1 0x20 PUSH1 0x0 KECCAK256 SWAP1 PUSH1 0x5 MUL ADD PUSH1 0x0 SWAP1 SWAP2 SWAP1 SWAP2 SWAP1 SWAP2 POP PUSH1 0x0 DUP3 ADD MLOAD DUP2 PUSH1 0x0 ADD PUSH1 0x0 PUSH2 0x100 EXP DUP2 SLOAD DUP2 PUSH20 0xFFFFFFFFFFFFFFFFFFFFFFFFFFFFFFFFFFFFFFFF MUL NOT AND SWAP1 DUP4 PUSH20 0xFFFFFFFFFFFFFFFFFFFFFFFFFFFFFFFFFFFFFFFF AND MUL OR SWAP1 SSTORE POP PUSH1 0x20 DUP3 ADD MLOAD DUP2 PUSH1 0x1 ADD SSTORE PUSH1 0x40 DUP3 ADD MLOAD DUP2 PUSH1 0x2 ADD SSTORE PUSH1 0x60 DUP3 ADD MLOAD DUP2 PUSH1 0x3 ADD SSTORE PUSH1 0x80 DUP3 ADD MLOAD DUP2 PUSH1 0x4 ADD PUSH1 0x0 PUSH2 0x100 EXP DUP2 SLOAD DUP2 PUSH1 0xFF MUL NOT AND SWAP1 DUP4 ISZERO ISZERO MUL OR SWAP1 SSTORE POP POP POP DUP1 ISZERO PUSH2 0x1A73 JUMPI PUSH2 0x1A6C DUP6 PUSH1 0x7 SLOAD PUSH2 0x22B8 SWAP1 SWAP2 SWAP1 PUSH4 0xFFFFFFFF AND JUMP JUMPDEST PUSH1 0x7 DUP2 SWAP1 SSTORE POP JUMPDEST POP POP POP POP POP JUMP JUMPDEST CALLER PUSH20 0xFFFFFFFFFFFFFFFFFFFFFFFFFFFFFFFFFFFFFFFF AND PUSH1 0x2 PUSH1 0x0 SWAP1 SLOAD SWAP1 PUSH2 0x100 EXP SWAP1 DIV PUSH20 0xFFFFFFFFFFFFFFFFFFFFFFFFFFFFFFFFFFFFFFFF AND PUSH20 0xFFFFFFFFFFFFFFFFFFFFFFFFFFFFFFFFFFFFFFFF AND EQ PUSH2 0x1B20 JUMPI PUSH1 0x40 MLOAD PUSH32 0x8C379A000000000000000000000000000000000000000000000000000000000 DUP2 MSTORE PUSH1 0x4 ADD DUP1 DUP1 PUSH1 0x20 ADD DUP3 DUP2 SUB DUP3 MSTORE PUSH1 0x24 DUP2 MSTORE PUSH1 0x20 ADD DUP1 PUSH2 0x31B7 PUSH1 0x24 SWAP2 CODECOPY PUSH1 0x40 ADD SWAP2 POP POP PUSH1 0x40 MLOAD DUP1 SWAP2 SUB SWAP1 REVERT JUMPDEST PUSH2 0x1B29 DUP2 PUSH2 0xC2D JUMP JUMPDEST POP JUMP JUMPDEST PUSH1 0x3 PUSH1 0x0 SWAP1 SLOAD SWAP1 PUSH2 0x100 EXP SWAP1 DIV PUSH20 0xFFFFFFFFFFFFFFFFFFFFFFFFFFFFFFFFFFFFFFFF AND DUP2 JUMP JUMPDEST PUSH1 0x0 CALLER SWAP1 POP PUSH1 0x0 PUSH2 0x1B6D PUSH1 0xC8 DUP5 PUSH2 0x28AB SWAP1 SWAP2 SWAP1 PUSH4 0xFFFFFFFF AND JUMP JUMPDEST SWAP1 POP PUSH1 0x0 PUSH2 0x1B99 PUSH2 0x2710 PUSH2 0x1B8B PUSH1 0xC8 DUP6 PUSH2 0x2340 SWAP1 SWAP2 SWAP1 PUSH4 0xFFFFFFFF AND JUMP JUMPDEST PUSH2 0x24FC SWAP1 SWAP2 SWAP1 PUSH4 0xFFFFFFFF AND JUMP JUMPDEST SWAP1 POP PUSH1 0x0 PUSH2 0x1BB0 DUP3 DUP7 PUSH2 0x2235 SWAP1 SWAP2 SWAP1 PUSH4 0xFFFFFFFF AND JUMP JUMPDEST SWAP1 POP PUSH1 0x0 PUSH1 0x4 DUP8 DUP2 SLOAD DUP2 LT PUSH2 0x1BC1 JUMPI INVALID JUMPDEST SWAP1 PUSH1 0x0 MSTORE PUSH1 0x20 PUSH1 0x0 KECCAK256 SWAP1 PUSH1 0x5 MUL ADD SWAP1 POP PUSH1 0x0 PUSH1 0x6 PUSH1 0x0 DUP10 DUP2 MSTORE PUSH1 0x20 ADD SWAP1 DUP2 MSTORE PUSH1 0x20 ADD PUSH1 0x0 KECCAK256 PUSH1 0x0 DUP8 PUSH20 0xFFFFFFFFFFFFFFFFFFFFFFFFFFFFFFFFFFFFFFFF AND PUSH20 0xFFFFFFFFFFFFFFFFFFFFFFFFFFFFFFFFFFFFFFFF AND DUP2 MSTORE PUSH1 0x20 ADD SWAP1 DUP2 MSTORE PUSH1 0x20 ADD PUSH1 0x0 KECCAK256 SWAP1 POP PUSH2 0x1C2E DUP9 PUSH2 0x101C JUMP JUMPDEST PUSH1 0x0 DUP2 PUSH1 0x0 ADD SLOAD GT ISZERO PUSH2 0x1CEE JUMPI PUSH1 0x0 PUSH2 0x1C88 DUP3 PUSH1 0x1 ADD SLOAD PUSH2 0x1C7A PUSH8 0xDE0B6B3A7640000 PUSH2 0x1C6C DUP8 PUSH1 0x3 ADD SLOAD DUP8 PUSH1 0x0 ADD SLOAD PUSH2 0x2340 SWAP1 SWAP2 SWAP1 PUSH4 0xFFFFFFFF AND JUMP JUMPDEST PUSH2 0x24FC SWAP1 SWAP2 SWAP1 PUSH4 0xFFFFFFFF AND JUMP JUMPDEST PUSH2 0x2235 SWAP1 SWAP2 SWAP1 PUSH4 0xFFFFFFFF AND JUMP JUMPDEST SWAP1 POP PUSH1 0x0 DUP2 GT ISZERO PUSH2 0x1CEC JUMPI PUSH2 0x1C9D DUP8 DUP3 PUSH2 0x2585 JUMP JUMPDEST DUP7 PUSH20 0xFFFFFFFFFFFFFFFFFFFFFFFFFFFFFFFFFFFFFFFF AND PUSH32 0xE2403640BA68FED3A2F88B7557551D1993F84B99BB10FF833F0CF8DB0C5E0486 DUP3 PUSH1 0x40 MLOAD DUP1 DUP3 DUP2 MSTORE PUSH1 0x20 ADD SWAP2 POP POP PUSH1 0x40 MLOAD DUP1 SWAP2 SUB SWAP1 LOG2 JUMPDEST POP JUMPDEST PUSH1 0x0 DUP8 GT ISZERO PUSH2 0x1DCB JUMPI PUSH2 0x1D48 DUP7 ADDRESS DUP10 DUP6 PUSH1 0x0 ADD PUSH1 0x0 SWAP1 SLOAD SWAP1 PUSH2 0x100 EXP SWAP1 DIV PUSH20 0xFFFFFFFFFFFFFFFFFFFFFFFFFFFFFFFFFFFFFFFF AND PUSH20 0xFFFFFFFFFFFFFFFFFFFFFFFFFFFFFFFFFFFFFFFF AND PUSH2 0x28E6 SWAP1 SWAP4 SWAP3 SWAP2 SWAP1 PUSH4 0xFFFFFFFF AND JUMP JUMPDEST PUSH2 0x1D5F DUP4 DUP3 PUSH1 0x0 ADD SLOAD PUSH2 0x22B8 SWAP1 SWAP2 SWAP1 PUSH4 0xFFFFFFFF AND JUMP JUMPDEST DUP2 PUSH1 0x0 ADD DUP2 SWAP1 SSTORE POP PUSH2 0x1DCA PUSH20 0x1FC7F2C81ACD9D38ED4D509B1F17555E549EF1D DUP6 DUP5 PUSH1 0x0 ADD PUSH1 0x0 SWAP1 SLOAD SWAP1 PUSH2 0x100 EXP SWAP1 DIV PUSH20 0xFFFFFFFFFFFFFFFFFFFFFFFFFFFFFFFFFFFFFFFF AND PUSH20 0xFFFFFFFFFFFFFFFFFFFFFFFFFFFFFFFFFFFFFFFF AND PUSH2 0x2704 SWAP1 SWAP3 SWAP2 SWAP1 PUSH4 0xFFFFFFFF AND JUMP JUMPDEST JUMPDEST PUSH2 0x1E00 PUSH8 0xDE0B6B3A7640000 PUSH2 0x1DF2 DUP5 PUSH1 0x3 ADD SLOAD DUP5 PUSH1 0x0 ADD SLOAD PUSH2 0x2340 SWAP1 SWAP2 SWAP1 PUSH4 0xFFFFFFFF AND JUMP JUMPDEST PUSH2 0x24FC SWAP1 SWAP2 SWAP1 PUSH4 0xFFFFFFFF AND JUMP JUMPDEST DUP2 PUSH1 0x1 ADD DUP2 SWAP1 SSTORE POP DUP8 DUP7 PUSH20 0xFFFFFFFFFFFFFFFFFFFFFFFFFFFFFFFFFFFFFFFF AND PUSH32 0x90890809C654F11D6E72A28FA60149770A0D11EC6C92319D6CEB2BB0A4EA1A15 DUP10 PUSH1 0x40 MLOAD DUP1 DUP3 DUP2 MSTORE PUSH1 0x20 ADD SWAP2 POP POP PUSH1 0x40 MLOAD DUP1 SWAP2 SUB SWAP1 LOG3 POP POP POP POP POP POP POP POP JUMP JUMPDEST PUSH1 0x0 DUP1 PUSH1 0x4 DUP5 DUP2 SLOAD DUP2 LT PUSH2 0x1E71 JUMPI INVALID JUMPDEST SWAP1 PUSH1 0x0 MSTORE PUSH1 0x20 PUSH1 0x0 KECCAK256 SWAP1 PUSH1 0x5 MUL ADD SWAP1 POP PUSH1 0x0 PUSH1 0x6 PUSH1 0x0 DUP7 DUP2 MSTORE PUSH1 0x20 ADD SWAP1 DUP2 MSTORE PUSH1 0x20 ADD PUSH1 0x0 KECCAK256 PUSH1 0x0 DUP6 PUSH20 0xFFFFFFFFFFFFFFFFFFFFFFFFFFFFFFFFFFFFFFFF AND PUSH20 0xFFFFFFFFFFFFFFFFFFFFFFFFFFFFFFFFFFFFFFFF AND DUP2 MSTORE PUSH1 0x20 ADD SWAP1 DUP2 MSTORE PUSH1 0x20 ADD PUSH1 0x0 KECCAK256 SWAP1 POP PUSH1 0x0 DUP3 PUSH1 0x3 ADD SLOAD SWAP1 POP PUSH1 0x0 DUP4 PUSH1 0x0 ADD PUSH1 0x0 SWAP1 SLOAD SWAP1 PUSH2 0x100 EXP SWAP1 DIV PUSH20 0xFFFFFFFFFFFFFFFFFFFFFFFFFFFFFFFFFFFFFFFF AND PUSH20 0xFFFFFFFFFFFFFFFFFFFFFFFFFFFFFFFFFFFFFFFF AND PUSH4 0x70A08231 ADDRESS PUSH1 0x40 MLOAD DUP3 PUSH4 0xFFFFFFFF AND PUSH1 0xE0 SHL DUP2 MSTORE PUSH1 0x4 ADD DUP1 DUP3 PUSH20 0xFFFFFFFFFFFFFFFFFFFFFFFFFFFFFFFFFFFFFFFF AND DUP2 MSTORE PUSH1 0x20 ADD SWAP2 POP POP PUSH1 0x20 PUSH1 0x40 MLOAD DUP1 DUP4 SUB DUP2 DUP7 DUP1 EXTCODESIZE ISZERO DUP1 ISZERO PUSH2 0x1F6B JUMPI PUSH1 0x0 DUP1 REVERT JUMPDEST POP GAS STATICCALL ISZERO DUP1 ISZERO PUSH2 0x1F7F JUMPI RETURNDATASIZE PUSH1 0x0 DUP1 RETURNDATACOPY RETURNDATASIZE PUSH1 0x0 REVERT JUMPDEST POP POP POP POP PUSH1 0x40 MLOAD RETURNDATASIZE PUSH1 0x20 DUP2 LT ISZERO PUSH2 0x1F95 JUMPI PUSH1 0x0 DUP1 REVERT JUMPDEST DUP2 ADD SWAP1 DUP1 DUP1 MLOAD SWAP1 PUSH1 0x20 ADD SWAP1 SWAP3 SWAP2 SWAP1 POP POP POP SWAP1 POP DUP4 PUSH1 0x2 ADD SLOAD TIMESTAMP GT DUP1 ISZERO PUSH2 0x1FBC JUMPI POP PUSH1 0x0 DUP2 EQ ISZERO JUMPDEST ISZERO PUSH2 0x2046 JUMPI PUSH1 0x0 PUSH2 0x1FD1 DUP6 PUSH1 0x2 ADD SLOAD TIMESTAMP PUSH2 0xB1A JUMP JUMPDEST SWAP1 POP PUSH1 0x0 PUSH2 0x2000 PUSH1 0x7 SLOAD PUSH2 0x1FF2 DUP9 PUSH1 0x1 ADD SLOAD DUP6 PUSH2 0x2340 SWAP1 SWAP2 SWAP1 PUSH4 0xFFFFFFFF AND JUMP JUMPDEST PUSH2 0x24FC SWAP1 SWAP2 SWAP1 PUSH4 0xFFFFFFFF AND JUMP JUMPDEST SWAP1 POP PUSH2 0x2041 PUSH2 0x2032 DUP5 PUSH2 0x2024 PUSH8 0xDE0B6B3A7640000 DUP6 PUSH2 0x2340 SWAP1 SWAP2 SWAP1 PUSH4 0xFFFFFFFF AND JUMP JUMPDEST PUSH2 0x24FC SWAP1 SWAP2 SWAP1 PUSH4 0xFFFFFFFF AND JUMP JUMPDEST DUP6 PUSH2 0x22B8 SWAP1 SWAP2 SWAP1 PUSH4 0xFFFFFFFF AND JUMP JUMPDEST SWAP4 POP POP POP JUMPDEST PUSH2 0x208D DUP4 PUSH1 0x1 ADD SLOAD PUSH2 0x207F PUSH8 0xDE0B6B3A7640000 PUSH2 0x2071 DUP7 DUP9 PUSH1 0x0 ADD SLOAD PUSH2 0x2340 SWAP1 SWAP2 SWAP1 PUSH4 0xFFFFFFFF AND JUMP JUMPDEST PUSH2 0x24FC SWAP1 SWAP2 SWAP1 PUSH4 0xFFFFFFFF AND JUMP JUMPDEST PUSH2 0x2235 SWAP1 SWAP2 SWAP1 PUSH4 0xFFFFFFFF AND JUMP JUMPDEST SWAP5 POP POP POP POP POP SWAP3 SWAP2 POP POP JUMP JUMPDEST PUSH2 0x20A1 PUSH2 0x23C6 JUMP JUMPDEST PUSH20 0xFFFFFFFFFFFFFFFFFFFFFFFFFFFFFFFFFFFFFFFF AND PUSH2 0x20BF PUSH2 0x17E1 JUMP JUMPDEST PUSH20 0xFFFFFFFFFFFFFFFFFFFFFFFFFFFFFFFFFFFFFFFF AND EQ PUSH2 0x2148 JUMPI PUSH1 0x40 MLOAD PUSH32 0x8C379A000000000000000000000000000000000000000000000000000000000 DUP2 MSTORE PUSH1 0x4 ADD DUP1 DUP1 PUSH1 0x20 ADD DUP3 DUP2 SUB DUP3 MSTORE PUSH1 0x20 DUP2 MSTORE PUSH1 0x20 ADD DUP1 PUSH32 0x4F776E61626C653A2063616C6C6572206973206E6F7420746865206F776E6572 DUP2 MSTORE POP PUSH1 0x20 ADD SWAP2 POP POP PUSH1 0x40 MLOAD DUP1 SWAP2 SUB SWAP1 REVERT JUMPDEST PUSH1 0x0 PUSH20 0xFFFFFFFFFFFFFFFFFFFFFFFFFFFFFFFFFFFFFFFF AND DUP2 PUSH20 0xFFFFFFFFFFFFFFFFFFFFFFFFFFFFFFFFFFFFFFFF AND EQ ISZERO PUSH2 0x21CE JUMPI PUSH1 0x40 MLOAD PUSH32 0x8C379A000000000000000000000000000000000000000000000000000000000 DUP2 MSTORE PUSH1 0x4 ADD DUP1 DUP1 PUSH1 0x20 ADD DUP3 DUP2 SUB DUP3 MSTORE PUSH1 0x2D DUP2 MSTORE PUSH1 0x20 ADD DUP1 PUSH2 0x3169 PUSH1 0x2D SWAP2 CODECOPY PUSH1 0x40 ADD SWAP2 POP POP PUSH1 0x40 MLOAD DUP1 SWAP2 SUB SWAP1 REVERT JUMPDEST DUP1 PUSH20 0xFFFFFFFFFFFFFFFFFFFFFFFFFFFFFFFFFFFFFFFF AND PUSH1 0x0 PUSH20 0xFFFFFFFFFFFFFFFFFFFFFFFFFFFFFFFFFFFFFFFF AND PUSH32 0x74DA04524D50C64947F5DD5381EF1A4DCA5CBA8ED1D816243F9E48AA0B5617ED PUSH1 0x40 MLOAD PUSH1 0x40 MLOAD DUP1 SWAP2 SUB SWAP1 LOG3 PUSH2 0x2232 DUP2 PUSH2 0x29A7 JUMP JUMPDEST POP JUMP JUMPDEST PUSH1 0x0 DUP3 DUP3 GT ISZERO PUSH2 0x22AD JUMPI PUSH1 0x40 MLOAD PUSH32 0x8C379A000000000000000000000000000000000000000000000000000000000 DUP2 MSTORE PUSH1 0x4 ADD DUP1 DUP1 PUSH1 0x20 ADD DUP3 DUP2 SUB DUP3 MSTORE PUSH1 0x1E DUP2 MSTORE PUSH1 0x20 ADD DUP1 PUSH32 0x536166654D6174683A207375627472616374696F6E206F766572666C6F770000 DUP2 MSTORE POP PUSH1 0x20 ADD SWAP2 POP POP PUSH1 0x40 MLOAD DUP1 SWAP2 SUB SWAP1 REVERT JUMPDEST DUP2 DUP4 SUB SWAP1 POP SWAP3 SWAP2 POP POP JUMP JUMPDEST PUSH1 0x0 DUP1 DUP3 DUP5 ADD SWAP1 POP DUP4 DUP2 LT ISZERO PUSH2 0x2336 JUMPI PUSH1 0x40 MLOAD PUSH32 0x8C379A000000000000000000000000000000000000000000000000000000000 DUP2 MSTORE PUSH1 0x4 ADD DUP1 DUP1 PUSH1 0x20 ADD DUP3 DUP2 SUB DUP3 MSTORE PUSH1 0x1B DUP2 MSTORE PUSH1 0x20 ADD DUP1 PUSH32 0x536166654D6174683A206164646974696F6E206F766572666C6F770000000000 DUP2 MSTORE POP PUSH1 0x20 ADD SWAP2 POP POP PUSH1 0x40 MLOAD DUP1 SWAP2 SUB SWAP1 REVERT JUMPDEST DUP1 SWAP2 POP POP SWAP3 SWAP2 POP POP JUMP JUMPDEST PUSH1 0x0 DUP1 DUP4 EQ ISZERO PUSH2 0x2353 JUMPI PUSH1 0x0 SWAP1 POP PUSH2 0x23C0 JUMP JUMPDEST PUSH1 0x0 DUP3 DUP5 MUL SWAP1 POP DUP3 DUP5 DUP3 DUP2 PUSH2 0x2364 JUMPI INVALID JUMPDEST DIV EQ PUSH2 0x23BB JUMPI PUSH1 0x40 MLOAD PUSH32 0x8C379A000000000000000000000000000000000000000000000000000000000 DUP2 MSTORE PUSH1 0x4 ADD DUP1 DUP1 PUSH1 0x20 ADD DUP3 DUP2 SUB DUP3 MSTORE PUSH1 0x21 DUP2 MSTORE PUSH1 0x20 ADD DUP1 PUSH2 0x3196 PUSH1 0x21 SWAP2 CODECOPY PUSH1 0x40 ADD SWAP2 POP POP PUSH1 0x40 MLOAD DUP1 SWAP2 SUB SWAP1 REVERT JUMPDEST DUP1 SWAP2 POP POP JUMPDEST SWAP3 SWAP2 POP POP JUMP JUMPDEST PUSH1 0x0 CALLER SWAP1 POP SWAP1 JUMP JUMPDEST PUSH1 0x0 PUSH20 0xFFFFFFFFFFFFFFFFFFFFFFFFFFFFFFFFFFFFFFFF AND DUP2 PUSH20 0xFFFFFFFFFFFFFFFFFFFFFFFFFFFFFFFFFFFFFFFF AND EQ ISZERO PUSH2 0x2454 JUMPI PUSH1 0x40 MLOAD PUSH32 0x8C379A000000000000000000000000000000000000000000000000000000000 DUP2 MSTORE PUSH1 0x4 ADD DUP1 DUP1 PUSH1 0x20 ADD DUP3 DUP2 SUB DUP3 MSTORE PUSH1 0x2D DUP2 MSTORE PUSH1 0x20 ADD DUP1 PUSH2 0x3169 PUSH1 0x2D SWAP2 CODECOPY PUSH1 0x40 ADD SWAP2 POP POP PUSH1 0x40 MLOAD DUP1 SWAP2 SUB SWAP1 REVERT JUMPDEST DUP1 PUSH20 0xFFFFFFFFFFFFFFFFFFFFFFFFFFFFFFFFFFFFFFFF AND PUSH1 0x0 PUSH20 0xFFFFFFFFFFFFFFFFFFFFFFFFFFFFFFFFFFFFFFFF AND PUSH32 0x74DA04524D50C64947F5DD5381EF1A4DCA5CBA8ED1D816243F9E48AA0B5617ED PUSH1 0x40 MLOAD PUSH1 0x40 MLOAD DUP1 SWAP2 SUB SWAP1 LOG3 PUSH2 0x24B8 DUP2 PUSH2 0x2B9C JUMP JUMPDEST DUP1 PUSH1 0x2 PUSH1 0x0 PUSH2 0x100 EXP DUP2 SLOAD DUP2 PUSH20 0xFFFFFFFFFFFFFFFFFFFFFFFFFFFFFFFFFFFFFFFF MUL NOT AND SWAP1 DUP4 PUSH20 0xFFFFFFFFFFFFFFFFFFFFFFFFFFFFFFFFFFFFFFFF AND MUL OR SWAP1 SSTORE POP POP JUMP JUMPDEST PUSH1 0x0 DUP1 DUP3 GT PUSH2 0x2573 JUMPI PUSH1 0x40 MLOAD PUSH32 0x8C379A000000000000000000000000000000000000000000000000000000000 DUP2 MSTORE PUSH1 0x4 ADD DUP1 DUP1 PUSH1 0x20 ADD DUP3 DUP2 SUB DUP3 MSTORE PUSH1 0x1A DUP2 MSTORE PUSH1 0x20 ADD DUP1 PUSH32 0x536166654D6174683A206469766973696F6E206279207A65726F000000000000 DUP2 MSTORE POP PUSH1 0x20 ADD SWAP2 POP POP PUSH1 0x40 MLOAD DUP1 SWAP2 SUB SWAP1 REVERT JUMPDEST DUP2 DUP4 DUP2 PUSH2 0x257C JUMPI INVALID JUMPDEST DIV SWAP1 POP SWAP3 SWAP2 POP POP JUMP JUMPDEST PUSH1 0x0 PUSH1 0x3 PUSH1 0x0 SWAP1 SLOAD SWAP1 PUSH2 0x100 EXP SWAP1 DIV PUSH20 0xFFFFFFFFFFFFFFFFFFFFFFFFFFFFFFFFFFFFFFFF AND PUSH20 0xFFFFFFFFFFFFFFFFFFFFFFFFFFFFFFFFFFFFFFFF AND PUSH4 0x70A08231 ADDRESS PUSH1 0x40 MLOAD DUP3 PUSH4 0xFFFFFFFF AND PUSH1 0xE0 SHL DUP2 MSTORE PUSH1 0x4 ADD DUP1 DUP3 PUSH20 0xFFFFFFFFFFFFFFFFFFFFFFFFFFFFFFFFFFFFFFFF AND DUP2 MSTORE PUSH1 0x20 ADD SWAP2 POP POP PUSH1 0x20 PUSH1 0x40 MLOAD DUP1 DUP4 SUB DUP2 DUP7 DUP1 EXTCODESIZE ISZERO DUP1 ISZERO PUSH2 0x2610 JUMPI PUSH1 0x0 DUP1 REVERT JUMPDEST POP GAS STATICCALL ISZERO DUP1 ISZERO PUSH2 0x2624 JUMPI RETURNDATASIZE PUSH1 0x0 DUP1 RETURNDATACOPY RETURNDATASIZE PUSH1 0x0 REVERT JUMPDEST POP POP POP POP PUSH1 0x40 MLOAD RETURNDATASIZE PUSH1 0x20 DUP2 LT ISZERO PUSH2 0x263A JUMPI PUSH1 0x0 DUP1 REVERT JUMPDEST DUP2 ADD SWAP1 DUP1 DUP1 MLOAD SWAP1 PUSH1 0x20 ADD SWAP1 SWAP3 SWAP2 SWAP1 POP POP POP SWAP1 POP PUSH1 0x0 DUP2 GT ISZERO PUSH2 0x26FF JUMPI DUP1 DUP3 GT ISZERO PUSH2 0x26B0 JUMPI PUSH2 0x26AB DUP4 DUP3 PUSH1 0x3 PUSH1 0x0 SWAP1 SLOAD SWAP1 PUSH2 0x100 EXP SWAP1 DIV PUSH20 0xFFFFFFFFFFFFFFFFFFFFFFFFFFFFFFFFFFFFFFFF AND PUSH20 0xFFFFFFFFFFFFFFFFFFFFFFFFFFFFFFFFFFFFFFFF AND PUSH2 0x2704 SWAP1 SWAP3 SWAP2 SWAP1 PUSH4 0xFFFFFFFF AND JUMP JUMPDEST PUSH2 0x26FE JUMP JUMPDEST PUSH2 0x26FD DUP4 DUP4 PUSH1 0x3 PUSH1 0x0 SWAP1 SLOAD SWAP1 PUSH2 0x100 EXP SWAP1 DIV PUSH20 0xFFFFFFFFFFFFFFFFFFFFFFFFFFFFFFFFFFFFFFFF AND PUSH20 0xFFFFFFFFFFFFFFFFFFFFFFFFFFFFFFFFFFFFFFFF AND PUSH2 0x2704 SWAP1 SWAP3 SWAP2 SWAP1 PUSH4 0xFFFFFFFF AND JUMP JUMPDEST JUMPDEST JUMPDEST POP POP POP JUMP JUMPDEST PUSH2 0x27A1 DUP4 PUSH4 0xA9059CBB PUSH1 0xE0 SHL DUP5 DUP5 PUSH1 0x40 MLOAD PUSH1 0x24 ADD DUP1 DUP4 PUSH20 0xFFFFFFFFFFFFFFFFFFFFFFFFFFFFFFFFFFFFFFFF AND DUP2 MSTORE PUSH1 0x20 ADD DUP3 DUP2 MSTORE PUSH1 0x20 ADD SWAP3 POP POP POP PUSH1 0x40 MLOAD PUSH1 0x20 DUP2 DUP4 SUB SUB DUP2 MSTORE SWAP1 PUSH1 0x40 MSTORE SWAP1 PUSH28 0xFFFFFFFFFFFFFFFFFFFFFFFFFFFFFFFFFFFFFFFFFFFFFFFFFFFFFFFF NOT AND PUSH1 0x20 DUP3 ADD DUP1 MLOAD PUSH28 0xFFFFFFFFFFFFFFFFFFFFFFFFFFFFFFFFFFFFFFFFFFFFFFFFFFFFFFFF DUP4 DUP2 DUP4 AND OR DUP4 MSTORE POP POP POP POP PUSH2 0x2D8E JUMP JUMPDEST POP POP POP JUMP JUMPDEST PUSH1 0x0 PUSH1 0x4 DUP1 SLOAD SWAP1 POP SWAP1 POP PUSH1 0x0 JUMPDEST DUP2 DUP2 LT ISZERO PUSH2 0x28A6 JUMPI DUP3 PUSH20 0xFFFFFFFFFFFFFFFFFFFFFFFFFFFFFFFFFFFFFFFF AND PUSH1 0x4 DUP3 DUP2 SLOAD DUP2 LT PUSH2 0x27DF JUMPI INVALID JUMPDEST SWAP1 PUSH1 0x0 MSTORE PUSH1 0x20 PUSH1 0x0 KECCAK256 SWAP1 PUSH1 0x5 MUL ADD PUSH1 0x0 ADD PUSH1 0x0 SWAP1 SLOAD SWAP1 PUSH2 0x100 EXP SWAP1 DIV PUSH20 0xFFFFFFFFFFFFFFFFFFFFFFFFFFFFFFFFFFFFFFFF AND PUSH20 0xFFFFFFFFFFFFFFFFFFFFFFFFFFFFFFFFFFFFFFFF AND EQ ISZERO PUSH2 0x289B JUMPI PUSH1 0x40 MLOAD PUSH32 0x8C379A000000000000000000000000000000000000000000000000000000000 DUP2 MSTORE PUSH1 0x4 ADD DUP1 DUP1 PUSH1 0x20 ADD DUP3 DUP2 SUB DUP3 MSTORE PUSH1 0x1F DUP2 MSTORE PUSH1 0x20 ADD DUP1 PUSH32 0x506F6C7947656E65736973506F6F6C3A206578697374696E6720706F6F6C3F00 DUP2 MSTORE POP PUSH1 0x20 ADD SWAP2 POP POP PUSH1 0x40 MLOAD DUP1 SWAP2 SUB SWAP1 REVERT JUMPDEST DUP1 PUSH1 0x1 ADD SWAP1 POP PUSH2 0x27B3 JUMP JUMPDEST POP POP POP JUMP JUMPDEST PUSH1 0x0 DUP1 PUSH2 0x28B8 DUP5 DUP5 PUSH2 0x22B8 JUMP JUMPDEST SWAP1 POP PUSH1 0x0 PUSH2 0x28C7 DUP3 PUSH1 0x1 PUSH2 0x2235 JUMP JUMPDEST SWAP1 POP PUSH2 0x28DC PUSH2 0x28D6 DUP3 DUP7 PUSH2 0x24FC JUMP JUMPDEST DUP6 PUSH2 0x2340 JUMP JUMPDEST SWAP3 POP POP POP SWAP3 SWAP2 POP POP JUMP JUMPDEST PUSH2 0x29A1 DUP5 PUSH4 0x23B872DD PUSH1 0xE0 SHL DUP6 DUP6 DUP6 PUSH1 0x40 MLOAD PUSH1 0x24 ADD DUP1 DUP5 PUSH20 0xFFFFFFFFFFFFFFFFFFFFFFFFFFFFFFFFFFFFFFFF AND DUP2 MSTORE PUSH1 0x20 ADD DUP4 PUSH20 0xFFFFFFFFFFFFFFFFFFFFFFFFFFFFFFFFFFFFFFFF AND DUP2 MSTORE PUSH1 0x20 ADD DUP3 DUP2 MSTORE PUSH1 0x20 ADD SWAP4 POP POP POP POP PUSH1 0x40 MLOAD PUSH1 0x20 DUP2 DUP4 SUB SUB DUP2 MSTORE SWAP1 PUSH1 0x40 MSTORE SWAP1 PUSH28 0xFFFFFFFFFFFFFFFFFFFFFFFFFFFFFFFFFFFFFFFFFFFFFFFFFFFFFFFF NOT AND PUSH1 0x20 DUP3 ADD DUP1 MLOAD PUSH28 0xFFFFFFFFFFFFFFFFFFFFFFFFFFFFFFFFFFFFFFFFFFFFFFFFFFFFFFFF DUP4 DUP2 DUP4 AND OR DUP4 MSTORE POP POP POP POP PUSH2 0x2D8E JUMP JUMPDEST POP POP POP POP JUMP JUMPDEST PUSH2 0x29AF PUSH2 0x23C6 JUMP JUMPDEST PUSH20 0xFFFFFFFFFFFFFFFFFFFFFFFFFFFFFFFFFFFFFFFF AND PUSH2 0x29CD PUSH2 0x17E1 JUMP JUMPDEST PUSH20 0xFFFFFFFFFFFFFFFFFFFFFFFFFFFFFFFFFFFFFFFF AND EQ PUSH2 0x2A56 JUMPI PUSH1 0x40 MLOAD PUSH32 0x8C379A000000000000000000000000000000000000000000000000000000000 DUP2 MSTORE PUSH1 0x4 ADD DUP1 DUP1 PUSH1 0x20 ADD DUP3 DUP2 SUB DUP3 MSTORE PUSH1 0x20 DUP2 MSTORE PUSH1 0x20 ADD DUP1 PUSH32 0x4F776E61626C653A2063616C6C6572206973206E6F7420746865206F776E6572 DUP2 MSTORE POP PUSH1 0x20 ADD SWAP2 POP POP PUSH1 0x40 MLOAD DUP1 SWAP2 SUB SWAP1 REVERT JUMPDEST PUSH1 0x0 PUSH20 0xFFFFFFFFFFFFFFFFFFFFFFFFFFFFFFFFFFFFFFFF AND DUP2 PUSH20 0xFFFFFFFFFFFFFFFFFFFFFFFFFFFFFFFFFFFFFFFF AND EQ ISZERO PUSH2 0x2ADC JUMPI PUSH1 0x40 MLOAD PUSH32 0x8C379A000000000000000000000000000000000000000000000000000000000 DUP2 MSTORE PUSH1 0x4 ADD DUP1 DUP1 PUSH1 0x20 ADD DUP3 DUP2 SUB DUP3 MSTORE PUSH1 0x26 DUP2 MSTORE PUSH1 0x20 ADD DUP1 PUSH2 0x311D PUSH1 0x26 SWAP2 CODECOPY PUSH1 0x40 ADD SWAP2 POP POP PUSH1 0x40 MLOAD DUP1 SWAP2 SUB SWAP1 REVERT JUMPDEST DUP1 PUSH20 0xFFFFFFFFFFFFFFFFFFFFFFFFFFFFFFFFFFFFFFFF AND PUSH1 0x1 PUSH1 0x0 SWAP1 SLOAD SWAP1 PUSH2 0x100 EXP SWAP1 DIV PUSH20 0xFFFFFFFFFFFFFFFFFFFFFFFFFFFFFFFFFFFFFFFF AND PUSH20 0xFFFFFFFFFFFFFFFFFFFFFFFFFFFFFFFFFFFFFFFF AND PUSH32 0x8BE0079C531659141344CD1FD0A4F28419497F9722A3DAAFE3B4186F6B6457E0 PUSH1 0x40 MLOAD PUSH1 0x40 MLOAD DUP1 SWAP2 SUB SWAP1 LOG3 DUP1 PUSH1 0x1 PUSH1 0x0 PUSH2 0x100 EXP DUP2 SLOAD DUP2 PUSH20 0xFFFFFFFFFFFFFFFFFFFFFFFFFFFFFFFFFFFFFFFF MUL NOT AND SWAP1 DUP4 PUSH20 0xFFFFFFFFFFFFFFFFFFFFFFFFFFFFFFFFFFFFFFFF AND MUL OR SWAP1 SSTORE POP POP JUMP JUMPDEST PUSH2 0x2BA4 PUSH2 0x23C6 JUMP JUMPDEST PUSH20 0xFFFFFFFFFFFFFFFFFFFFFFFFFFFFFFFFFFFFFFFF AND PUSH2 0x2BC2 PUSH2 0x17E1 JUMP JUMPDEST PUSH20 0xFFFFFFFFFFFFFFFFFFFFFFFFFFFFFFFFFFFFFFFF AND EQ PUSH2 0x2C4B JUMPI PUSH1 0x40 MLOAD PUSH32 0x8C379A000000000000000000000000000000000000000000000000000000000 DUP2 MSTORE PUSH1 0x4 ADD DUP1 DUP1 PUSH1 0x20 ADD DUP3 DUP2 SUB DUP3 MSTORE PUSH1 0x20 DUP2 MSTORE PUSH1 0x20 ADD DUP1 PUSH32 0x4F776E61626C653A2063616C6C6572206973206E6F7420746865206F776E6572 DUP2 MSTORE POP PUSH1 0x20 ADD SWAP2 POP POP PUSH1 0x40 MLOAD DUP1 SWAP2 SUB SWAP1 REVERT JUMPDEST PUSH1 0x0 PUSH20 0xFFFFFFFFFFFFFFFFFFFFFFFFFFFFFFFFFFFFFFFF AND DUP2 PUSH20 0xFFFFFFFFFFFFFFFFFFFFFFFFFFFFFFFFFFFFFFFF AND EQ ISZERO PUSH2 0x2CD1 JUMPI PUSH1 0x40 MLOAD PUSH32 0x8C379A000000000000000000000000000000000000000000000000000000000 DUP2 MSTORE PUSH1 0x4 ADD DUP1 DUP1 PUSH1 0x20 ADD DUP3 DUP2 SUB DUP3 MSTORE PUSH1 0x26 DUP2 MSTORE PUSH1 0x20 ADD DUP1 PUSH2 0x311D PUSH1 0x26 SWAP2 CODECOPY PUSH1 0x40 ADD SWAP2 POP POP PUSH1 0x40 MLOAD DUP1 SWAP2 SUB SWAP1 REVERT JUMPDEST DUP1 PUSH20 0xFFFFFFFFFFFFFFFFFFFFFFFFFFFFFFFFFFFFFFFF AND PUSH1 0x0 DUP1 SLOAD SWAP1 PUSH2 0x100 EXP SWAP1 DIV PUSH20 0xFFFFFFFFFFFFFFFFFFFFFFFFFFFFFFFFFFFFFFFF AND PUSH20 0xFFFFFFFFFFFFFFFFFFFFFFFFFFFFFFFFFFFFFFFF AND PUSH32 0x8BE0079C531659141344CD1FD0A4F28419497F9722A3DAAFE3B4186F6B6457E0 PUSH1 0x40 MLOAD PUSH1 0x40 MLOAD DUP1 SWAP2 SUB SWAP1 LOG3 DUP1 PUSH1 0x0 DUP1 PUSH2 0x100 EXP DUP2 SLOAD DUP2 PUSH20 0xFFFFFFFFFFFFFFFFFFFFFFFFFFFFFFFFFFFFFFFF MUL NOT AND SWAP1 DUP4 PUSH20 0xFFFFFFFFFFFFFFFFFFFFFFFFFFFFFFFFFFFFFFFF AND MUL OR SWAP1 SSTORE POP POP JUMP JUMPDEST PUSH1 0x0 PUSH2 0x2DF0 DUP3 PUSH1 0x40 MLOAD DUP1 PUSH1 0x40 ADD PUSH1 0x40 MSTORE DUP1 PUSH1 0x20 DUP2 MSTORE PUSH1 0x20 ADD PUSH32 0x5361666545524332303A206C6F772D6C6576656C2063616C6C206661696C6564 DUP2 MSTORE POP DUP6 PUSH20 0xFFFFFFFFFFFFFFFFFFFFFFFFFFFFFFFFFFFFFFFF AND PUSH2 0x2E7D SWAP1 SWAP3 SWAP2 SWAP1 PUSH4 0xFFFFFFFF AND JUMP JUMPDEST SWAP1 POP PUSH1 0x0 DUP2 MLOAD GT ISZERO PUSH2 0x2E78 JUMPI DUP1 DUP1 PUSH1 0x20 ADD SWAP1 MLOAD PUSH1 0x20 DUP2 LT ISZERO PUSH2 0x2E11 JUMPI PUSH1 0x0 DUP1 REVERT JUMPDEST DUP2 ADD SWAP1 DUP1 DUP1 MLOAD SWAP1 PUSH1 0x20 ADD SWAP1 SWAP3 SWAP2 SWAP1 POP POP POP PUSH2 0x2E77 JUMPI PUSH1 0x40 MLOAD PUSH32 0x8C379A000000000000000000000000000000000000000000000000000000000 DUP2 MSTORE PUSH1 0x4 ADD DUP1 DUP1 PUSH1 0x20 ADD DUP3 DUP2 SUB DUP3 MSTORE PUSH1 0x2A DUP2 MSTORE PUSH1 0x20 ADD DUP1 PUSH2 0x31DB PUSH1 0x2A SWAP2 CODECOPY PUSH1 0x40 ADD SWAP2 POP POP PUSH1 0x40 MLOAD DUP1 SWAP2 SUB SWAP1 REVERT JUMPDEST JUMPDEST POP POP POP JUMP JUMPDEST PUSH1 0x60 PUSH2 0x2E8C DUP5 DUP5 PUSH1 0x0 DUP6 PUSH2 0x2E95 JUMP JUMPDEST SWAP1 POP SWAP4 SWAP3 POP POP POP JUMP JUMPDEST PUSH1 0x60 DUP3 SELFBALANCE LT ISZERO PUSH2 0x2EF0 JUMPI PUSH1 0x40 MLOAD PUSH32 0x8C379A000000000000000000000000000000000000000000000000000000000 DUP2 MSTORE PUSH1 0x4 ADD DUP1 DUP1 PUSH1 0x20 ADD DUP3 DUP2 SUB DUP3 MSTORE PUSH1 0x26 DUP2 MSTORE PUSH1 0x20 ADD DUP1 PUSH2 0x3143 PUSH1 0x26 SWAP2 CODECOPY PUSH1 0x40 ADD SWAP2 POP POP PUSH1 0x40 MLOAD DUP1 SWAP2 SUB SWAP1 REVERT JUMPDEST PUSH2 0x2EF9 DUP6 PUSH2 0x303D JUMP JUMPDEST PUSH2 0x2F6B JUMPI PUSH1 0x40 MLOAD PUSH32 0x8C379A000000000000000000000000000000000000000000000000000000000 DUP2 MSTORE PUSH1 0x4 ADD DUP1 DUP1 PUSH1 0x20 ADD DUP3 DUP2 SUB DUP3 MSTORE PUSH1 0x1D DUP2 MSTORE PUSH1 0x20 ADD DUP1 PUSH32 0x416464726573733A2063616C6C20746F206E6F6E2D636F6E7472616374000000 DUP2 MSTORE POP PUSH1 0x20 ADD SWAP2 POP POP PUSH1 0x40 MLOAD DUP1 SWAP2 SUB SWAP1 REVERT JUMPDEST PUSH1 0x0 DUP1 DUP7 PUSH20 0xFFFFFFFFFFFFFFFFFFFFFFFFFFFFFFFFFFFFFFFF AND DUP6 DUP8 PUSH1 0x40 MLOAD DUP1 DUP3 DUP1 MLOAD SWAP1 PUSH1 0x20 ADD SWAP1 DUP1 DUP4 DUP4 JUMPDEST PUSH1 0x20 DUP4 LT PUSH2 0x2FBA JUMPI DUP1 MLOAD DUP3 MSTORE PUSH1 0x20 DUP3 ADD SWAP2 POP PUSH1 0x20 DUP2 ADD SWAP1 POP PUSH1 0x20 DUP4 SUB SWAP3 POP PUSH2 0x2F97 JUMP JUMPDEST PUSH1 0x1 DUP4 PUSH1 0x20 SUB PUSH2 0x100 EXP SUB DUP1 NOT DUP3 MLOAD AND DUP2 DUP5 MLOAD AND DUP1 DUP3 OR DUP6 MSTORE POP POP POP POP POP POP SWAP1 POP ADD SWAP2 POP POP PUSH1 0x0 PUSH1 0x40 MLOAD DUP1 DUP4 SUB DUP2 DUP6 DUP8 GAS CALL SWAP3 POP POP POP RETURNDATASIZE DUP1 PUSH1 0x0 DUP2 EQ PUSH2 0x301C JUMPI PUSH1 0x40 MLOAD SWAP2 POP PUSH1 0x1F NOT PUSH1 0x3F RETURNDATASIZE ADD AND DUP3 ADD PUSH1 0x40 MSTORE RETURNDATASIZE DUP3 MSTORE RETURNDATASIZE PUSH1 0x0 PUSH1 0x20 DUP5 ADD RETURNDATACOPY PUSH2 0x3021 JUMP JUMPDEST PUSH1 0x60 SWAP2 POP JUMPDEST POP SWAP2 POP SWAP2 POP PUSH2 0x3031 DUP3 DUP3 DUP7 PUSH2 0x3050 JUMP JUMPDEST SWAP3 POP POP POP SWAP5 SWAP4 POP POP POP POP JUMP JUMPDEST PUSH1 0x0 DUP1 DUP3 EXTCODESIZE SWAP1 POP PUSH1 0x0 DUP2 GT SWAP2 POP POP SWAP2 SWAP1 POP JUMP JUMPDEST PUSH1 0x60 DUP4 ISZERO PUSH2 0x3060 JUMPI DUP3 SWAP1 POP PUSH2 0x3115 JUMP JUMPDEST PUSH1 0x0 DUP4 MLOAD GT ISZERO PUSH2 0x3073 JUMPI DUP3 MLOAD DUP1 DUP5 PUSH1 0x20 ADD REVERT JUMPDEST DUP2 PUSH1 0x40 MLOAD PUSH32 0x8C379A000000000000000000000000000000000000000000000000000000000 DUP2 MSTORE PUSH1 0x4 ADD DUP1 DUP1 PUSH1 0x20 ADD DUP3 DUP2 SUB DUP3 MSTORE DUP4 DUP2 DUP2 MLOAD DUP2 MSTORE PUSH1 0x20 ADD SWAP2 POP DUP1 MLOAD SWAP1 PUSH1 0x20 ADD SWAP1 DUP1 DUP4 DUP4 PUSH1 0x0 JUMPDEST DUP4 DUP2 LT ISZERO PUSH2 0x30DA JUMPI DUP1 DUP3 ADD MLOAD DUP2 DUP5 ADD MSTORE PUSH1 0x20 DUP2 ADD SWAP1 POP PUSH2 0x30BF JUMP JUMPDEST POP POP POP POP SWAP1 POP SWAP1 DUP2 ADD SWAP1 PUSH1 0x1F AND DUP1 ISZERO PUSH2 0x3107 JUMPI DUP1 DUP3 SUB DUP1 MLOAD PUSH1 0x1 DUP4 PUSH1 0x20 SUB PUSH2 0x100 EXP SUB NOT AND DUP2 MSTORE PUSH1 0x20 ADD SWAP2 POP JUMPDEST POP SWAP3 POP POP POP PUSH1 0x40 MLOAD DUP1 SWAP2 SUB SWAP1 REVERT JUMPDEST SWAP4 SWAP3 POP POP POP JUMP INVALID 0x4F PUSH24 0x6E61626C653A206E6577206F776E65722069732074686520 PUSH27 0x65726F2061646472657373416464726573733A20696E7375666669 PUSH4 0x69656E74 KECCAK256 PUSH3 0x616C61 PUSH15 0x636520666F722063616C6C6F706572 PUSH2 0x746F PUSH19 0x3A207A65726F20616464726573732067697665 PUSH15 0x20666F72206E6577206F7065726174 PUSH16 0x72536166654D6174683A206D756C7469 PUSH17 0x6C69636174696F6E206F766572666C6F77 PUSH16 0x70657261746F723A2063616C6C657220 PUSH10 0x73206E6F742074686520 PUSH16 0x70657261746F72536166654552433230 GASPRICE KECCAK256 GASLIMIT MSTORE NUMBER ORIGIN ADDRESS KECCAK256 PUSH16 0x7065726174696F6E20646964206E6F74 KECCAK256 PUSH20 0x756363656564A264697066735822122098F8F729 PUSH10 0x850817E8FC664F96A576 0xDF 0xB0 ADDMOD EXP SWAP9 0x5F 0xA7 0xB0 CODESIZE PUSH14 0x2A051E9176A23B64736F6C634300 SMOD MOD STOP CALLER "
				},
				"gasEstimates": {
					"creation": {
						"codeDepositCost": "2571600",
						"executionCost": "infinite",
						"totalCost": "infinite"
					},
					"external": {
						"": "infinite",
						"Poly()": "1091",
						"PolyPerSecond()": "1073",
						"TOTAL_REWARDS()": "229",
						"add(uint256,address,bool,uint256)": "infinite",
						"deposit(uint256,uint256)": "infinite",
						"emergencyWithdraw(uint256)": "infinite",
						"getGeneratedReward(uint256,uint256)": "infinite",
						"governanceRecoverUnsupported(address,uint256,address)": "infinite",
						"isInitialized()": "1101",
						"isOperator()": "1152",
						"massUpdatePools()": "infinite",
						"operator()": "1101",
						"owner()": "1144",
						"pendingStone(uint256,address)": "infinite",
						"poolEndTime()": "1050",
						"poolInfo(uint256)": "5463",
						"poolStartTime()": "1073",
						"renounceOwnership()": "24396",
						"runningTime()": "1050",
						"set(uint256,uint256)": "infinite",
						"setOperator(address)": "infinite",
						"totalAllocPoint()": "1073",
						"transferOperator(address)": "infinite",
						"transferOwnership(address)": "infinite",
						"updatePool(uint256)": "infinite",
						"userInfo(uint256,address)": "2218",
						"withdraw(uint256,uint256)": "infinite"
					},
					"internal": {
						"checkPoolDuplicate(contract IERC20)": "infinite",
						"safePolyTransfer(address,uint256)": "infinite"
					}
				},
				"methodIdentifiers": {
					"Poly()": "e177bb38",
					"PolyPerSecond()": "3f7caf52",
					"TOTAL_REWARDS()": "09cf6091",
					"add(uint256,address,bool,uint256)": "96805e54",
					"deposit(uint256,uint256)": "e2bbb158",
					"emergencyWithdraw(uint256)": "5312ea8e",
					"getGeneratedReward(uint256,uint256)": "231f0c6a",
					"governanceRecoverUnsupported(address,uint256,address)": "54575af4",
					"isInitialized()": "392e53cd",
					"isOperator()": "4456eda2",
					"massUpdatePools()": "630b5ba1",
					"operator()": "570ca735",
					"owner()": "8da5cb5b",
					"pendingStone(uint256,address)": "ecf4deb9",
					"poolEndTime()": "6e271dd5",
					"poolInfo(uint256)": "1526fe27",
					"poolStartTime()": "5f96dc11",
					"renounceOwnership()": "715018a6",
					"runningTime()": "943f013d",
					"set(uint256,uint256)": "1ab06ee5",
					"setOperator(address)": "b3ab15fb",
					"totalAllocPoint()": "17caf6f1",
					"transferOperator(address)": "29605e77",
					"transferOwnership(address)": "f2fde38b",
					"updatePool(uint256)": "51eb05a6",
					"userInfo(uint256,address)": "93f1a40b",
					"withdraw(uint256,uint256)": "441a3e70"
				}
			},
			"storageLayout": {
				"storage": [
					{
						"astId": 7,
						"contract": "contracts/distribution/TombGenesisRewardPool.sol:PolyGenesisRewardPool",
						"label": "_owner",
						"offset": 0,
						"slot": "0",
						"type": "t_address"
					},
					{
						"astId": 139,
						"contract": "contracts/distribution/TombGenesisRewardPool.sol:PolyGenesisRewardPool",
						"label": "_Ownership",
						"offset": 0,
						"slot": "1",
						"type": "t_address"
					},
					{
						"astId": 2246,
						"contract": "contracts/distribution/TombGenesisRewardPool.sol:PolyGenesisRewardPool",
						"label": "_operator",
						"offset": 0,
						"slot": "2",
						"type": "t_address"
					},
					{
						"astId": 1198,
						"contract": "contracts/distribution/TombGenesisRewardPool.sol:PolyGenesisRewardPool",
						"label": "Poly",
						"offset": 0,
						"slot": "3",
						"type": "t_contract(IERC20)247"
					},
					{
						"astId": 1201,
						"contract": "contracts/distribution/TombGenesisRewardPool.sol:PolyGenesisRewardPool",
						"label": "poolInfo",
						"offset": 0,
						"slot": "4",
						"type": "t_array(t_struct(PoolInfo)1196_storage)dyn_storage"
					},
					{
						"astId": 1204,
						"contract": "contracts/distribution/TombGenesisRewardPool.sol:PolyGenesisRewardPool",
						"label": "initialized",
						"offset": 0,
						"slot": "5",
						"type": "t_bool"
					},
					{
						"astId": 1210,
						"contract": "contracts/distribution/TombGenesisRewardPool.sol:PolyGenesisRewardPool",
						"label": "userInfo",
						"offset": 0,
						"slot": "6",
						"type": "t_mapping(t_uint256,t_mapping(t_address,t_struct(UserInfo)1185_storage))"
					},
					{
						"astId": 1213,
						"contract": "contracts/distribution/TombGenesisRewardPool.sol:PolyGenesisRewardPool",
						"label": "totalAllocPoint",
						"offset": 0,
						"slot": "7",
						"type": "t_uint256"
					},
					{
						"astId": 1215,
						"contract": "contracts/distribution/TombGenesisRewardPool.sol:PolyGenesisRewardPool",
						"label": "poolStartTime",
						"offset": 0,
						"slot": "8",
						"type": "t_uint256"
					},
					{
						"astId": 1217,
						"contract": "contracts/distribution/TombGenesisRewardPool.sol:PolyGenesisRewardPool",
						"label": "poolEndTime",
						"offset": 0,
						"slot": "9",
						"type": "t_uint256"
					},
					{
						"astId": 1220,
						"contract": "contracts/distribution/TombGenesisRewardPool.sol:PolyGenesisRewardPool",
						"label": "PolyPerSecond",
						"offset": 0,
						"slot": "10",
						"type": "t_uint256"
					},
					{
						"astId": 1223,
						"contract": "contracts/distribution/TombGenesisRewardPool.sol:PolyGenesisRewardPool",
						"label": "runningTime",
						"offset": 0,
						"slot": "11",
						"type": "t_uint256"
					}
				],
				"types": {
					"t_address": {
						"encoding": "inplace",
						"label": "address",
						"numberOfBytes": "20"
					},
					"t_array(t_struct(PoolInfo)1196_storage)dyn_storage": {
						"base": "t_struct(PoolInfo)1196_storage",
						"encoding": "dynamic_array",
						"label": "struct PolyGenesisRewardPool.PoolInfo[]",
						"numberOfBytes": "32"
					},
					"t_bool": {
						"encoding": "inplace",
						"label": "bool",
						"numberOfBytes": "1"
					},
					"t_contract(IERC20)247": {
						"encoding": "inplace",
						"label": "contract IERC20",
						"numberOfBytes": "20"
					},
					"t_mapping(t_address,t_struct(UserInfo)1185_storage)": {
						"encoding": "mapping",
						"key": "t_address",
						"label": "mapping(address => struct PolyGenesisRewardPool.UserInfo)",
						"numberOfBytes": "32",
						"value": "t_struct(UserInfo)1185_storage"
					},
					"t_mapping(t_uint256,t_mapping(t_address,t_struct(UserInfo)1185_storage))": {
						"encoding": "mapping",
						"key": "t_uint256",
						"label": "mapping(uint256 => mapping(address => struct PolyGenesisRewardPool.UserInfo))",
						"numberOfBytes": "32",
						"value": "t_mapping(t_address,t_struct(UserInfo)1185_storage)"
					},
					"t_struct(PoolInfo)1196_storage": {
						"encoding": "inplace",
						"label": "struct PolyGenesisRewardPool.PoolInfo",
						"members": [
							{
								"astId": 1187,
								"contract": "contracts/distribution/TombGenesisRewardPool.sol:PolyGenesisRewardPool",
								"label": "token",
								"offset": 0,
								"slot": "0",
								"type": "t_contract(IERC20)247"
							},
							{
								"astId": 1189,
								"contract": "contracts/distribution/TombGenesisRewardPool.sol:PolyGenesisRewardPool",
								"label": "allocPoint",
								"offset": 0,
								"slot": "1",
								"type": "t_uint256"
							},
							{
								"astId": 1191,
								"contract": "contracts/distribution/TombGenesisRewardPool.sol:PolyGenesisRewardPool",
								"label": "lastRewardTime",
								"offset": 0,
								"slot": "2",
								"type": "t_uint256"
							},
							{
								"astId": 1193,
								"contract": "contracts/distribution/TombGenesisRewardPool.sol:PolyGenesisRewardPool",
								"label": "accStonePerShare",
								"offset": 0,
								"slot": "3",
								"type": "t_uint256"
							},
							{
								"astId": 1195,
								"contract": "contracts/distribution/TombGenesisRewardPool.sol:PolyGenesisRewardPool",
								"label": "isStarted",
								"offset": 0,
								"slot": "4",
								"type": "t_bool"
							}
						],
						"numberOfBytes": "160"
					},
					"t_struct(UserInfo)1185_storage": {
						"encoding": "inplace",
						"label": "struct PolyGenesisRewardPool.UserInfo",
						"members": [
							{
								"astId": 1182,
								"contract": "contracts/distribution/TombGenesisRewardPool.sol:PolyGenesisRewardPool",
								"label": "amount",
								"offset": 0,
								"slot": "0",
								"type": "t_uint256"
							},
							{
								"astId": 1184,
								"contract": "contracts/distribution/TombGenesisRewardPool.sol:PolyGenesisRewardPool",
								"label": "rewardDebt",
								"offset": 0,
								"slot": "1",
								"type": "t_uint256"
							}
						],
						"numberOfBytes": "64"
					},
					"t_uint256": {
						"encoding": "inplace",
						"label": "uint256",
						"numberOfBytes": "32"
					}
				}
			},
			"userdoc": {
				"kind": "user",
				"methods": {},
				"version": 1
			}
		}
	}
}