{
	"contracts/distribution/TShareRewardPool.sol": {
		"PolyRockRewardPool": {
			"abi": [
				{
					"inputs": [
						{
							"internalType": "address",
							"name": "_Rock",
							"type": "address"
						},
						{
							"internalType": "uint256",
							"name": "_poolStartTime",
							"type": "uint256"
						}
					],
					"stateMutability": "nonpayable",
					"type": "constructor"
				},
				{
					"anonymous": false,
					"inputs": [
						{
							"indexed": true,
							"internalType": "address",
							"name": "user",
							"type": "address"
						},
						{
							"indexed": true,
							"internalType": "uint256",
							"name": "pid",
							"type": "uint256"
						},
						{
							"indexed": false,
							"internalType": "uint256",
							"name": "amount",
							"type": "uint256"
						}
					],
					"name": "Deposit",
					"type": "event"
				},
				{
					"anonymous": false,
					"inputs": [
						{
							"indexed": true,
							"internalType": "address",
							"name": "user",
							"type": "address"
						},
						{
							"indexed": true,
							"internalType": "uint256",
							"name": "pid",
							"type": "uint256"
						},
						{
							"indexed": false,
							"internalType": "uint256",
							"name": "amount",
							"type": "uint256"
						}
					],
					"name": "EmergencyWithdraw",
					"type": "event"
				},
				{
					"anonymous": false,
					"inputs": [
						{
							"indexed": true,
							"internalType": "address",
							"name": "previousOperator",
							"type": "address"
						},
						{
							"indexed": true,
							"internalType": "address",
							"name": "newOperator",
							"type": "address"
						}
					],
					"name": "OperatorTransferred",
					"type": "event"
				},
				{
					"anonymous": false,
					"inputs": [
						{
							"indexed": true,
							"internalType": "address",
							"name": "previousOwner",
							"type": "address"
						},
						{
							"indexed": true,
							"internalType": "address",
							"name": "newOwner",
							"type": "address"
						}
					],
					"name": "OwnershipTransferred",
					"type": "event"
				},
				{
					"anonymous": false,
					"inputs": [
						{
							"indexed": true,
							"internalType": "address",
							"name": "user",
							"type": "address"
						},
						{
							"indexed": false,
							"internalType": "uint256",
							"name": "amount",
							"type": "uint256"
						}
					],
					"name": "RewardPaid",
					"type": "event"
				},
				{
					"anonymous": false,
					"inputs": [
						{
							"indexed": true,
							"internalType": "address",
							"name": "user",
							"type": "address"
						},
						{
							"indexed": true,
							"internalType": "uint256",
							"name": "pid",
							"type": "uint256"
						},
						{
							"indexed": false,
							"internalType": "uint256",
							"name": "amount",
							"type": "uint256"
						}
					],
					"name": "Withdraw",
					"type": "event"
				},
				{
					"inputs": [],
					"name": "Rock",
					"outputs": [
						{
							"internalType": "contract IERC20",
							"name": "",
							"type": "address"
						}
					],
					"stateMutability": "view",
					"type": "function"
				},
				{
					"inputs": [],
					"name": "RockPerSecond",
					"outputs": [
						{
							"internalType": "uint256",
							"name": "",
							"type": "uint256"
						}
					],
					"stateMutability": "view",
					"type": "function"
				},
				{
					"inputs": [],
					"name": "TOTAL_REWARDS",
					"outputs": [
						{
							"internalType": "uint256",
							"name": "",
							"type": "uint256"
						}
					],
					"stateMutability": "view",
					"type": "function"
				},
				{
					"inputs": [
						{
							"internalType": "uint256",
							"name": "_allocPoint",
							"type": "uint256"
						},
						{
							"internalType": "contract IERC20",
							"name": "_token",
							"type": "address"
						},
						{
							"internalType": "bool",
							"name": "_withUpdate",
							"type": "bool"
						},
						{
							"internalType": "uint256",
							"name": "_lastRewardTime",
							"type": "uint256"
						}
					],
					"name": "add",
					"outputs": [],
					"stateMutability": "nonpayable",
					"type": "function"
				},
				{
					"inputs": [
						{
							"internalType": "uint256",
							"name": "_pid",
							"type": "uint256"
						},
						{
							"internalType": "uint256",
							"name": "_amount",
							"type": "uint256"
						}
					],
					"name": "deposit",
					"outputs": [],
					"stateMutability": "nonpayable",
					"type": "function"
				},
				{
					"inputs": [
						{
							"internalType": "uint256",
							"name": "_pid",
							"type": "uint256"
						}
					],
					"name": "emergencyWithdraw",
					"outputs": [],
					"stateMutability": "nonpayable",
					"type": "function"
				},
				{
					"inputs": [
						{
							"internalType": "uint256",
							"name": "_fromTime",
							"type": "uint256"
						},
						{
							"internalType": "uint256",
							"name": "_toTime",
							"type": "uint256"
						}
					],
					"name": "getGeneratedReward",
					"outputs": [
						{
							"internalType": "uint256",
							"name": "",
							"type": "uint256"
						}
					],
					"stateMutability": "view",
					"type": "function"
				},
				{
					"inputs": [
						{
							"internalType": "contract IERC20",
							"name": "_token",
							"type": "address"
						},
						{
							"internalType": "uint256",
							"name": "amount",
							"type": "uint256"
						},
						{
							"internalType": "address",
							"name": "to",
							"type": "address"
						}
					],
					"name": "governanceRecoverUnsupported",
					"outputs": [],
					"stateMutability": "nonpayable",
					"type": "function"
				},
				{
					"inputs": [],
					"name": "isOperator",
					"outputs": [
						{
							"internalType": "bool",
							"name": "",
							"type": "bool"
						}
					],
					"stateMutability": "view",
					"type": "function"
				},
				{
					"inputs": [],
					"name": "massUpdatePools",
					"outputs": [],
					"stateMutability": "nonpayable",
					"type": "function"
				},
				{
					"inputs": [],
					"name": "operator",
					"outputs": [
						{
							"internalType": "address",
							"name": "",
							"type": "address"
						}
					],
					"stateMutability": "view",
					"type": "function"
				},
				{
					"inputs": [],
					"name": "owner",
					"outputs": [
						{
							"internalType": "address",
							"name": "",
							"type": "address"
						}
					],
					"stateMutability": "view",
					"type": "function"
				},
				{
					"inputs": [
						{
							"internalType": "uint256",
							"name": "_pid",
							"type": "uint256"
						},
						{
							"internalType": "address",
							"name": "_user",
							"type": "address"
						}
					],
					"name": "pendingShare",
					"outputs": [
						{
							"internalType": "uint256",
							"name": "",
							"type": "uint256"
						}
					],
					"stateMutability": "view",
					"type": "function"
				},
				{
					"inputs": [],
					"name": "poolEndTime",
					"outputs": [
						{
							"internalType": "uint256",
							"name": "",
							"type": "uint256"
						}
					],
					"stateMutability": "view",
					"type": "function"
				},
				{
					"inputs": [
						{
							"internalType": "uint256",
							"name": "",
							"type": "uint256"
						}
					],
					"name": "poolInfo",
					"outputs": [
						{
							"internalType": "contract IERC20",
							"name": "token",
							"type": "address"
						},
						{
							"internalType": "uint256",
							"name": "allocPoint",
							"type": "uint256"
						},
						{
							"internalType": "uint256",
							"name": "lastRewardTime",
							"type": "uint256"
						},
						{
							"internalType": "uint256",
							"name": "accRockPerShare",
							"type": "uint256"
						},
						{
							"internalType": "bool",
							"name": "isStarted",
							"type": "bool"
						}
					],
					"stateMutability": "view",
					"type": "function"
				},
				{
					"inputs": [],
					"name": "poolStartTime",
					"outputs": [
						{
							"internalType": "uint256",
							"name": "",
							"type": "uint256"
						}
					],
					"stateMutability": "view",
					"type": "function"
				},
				{
					"inputs": [],
					"name": "renounceOwnership",
					"outputs": [],
					"stateMutability": "nonpayable",
					"type": "function"
				},
				{
					"inputs": [],
					"name": "runningTime",
					"outputs": [
						{
							"internalType": "uint256",
							"name": "",
							"type": "uint256"
						}
					],
					"stateMutability": "view",
					"type": "function"
				},
				{
					"inputs": [
						{
							"internalType": "uint256",
							"name": "_pid",
							"type": "uint256"
						},
						{
							"internalType": "uint256",
							"name": "_allocPoint",
							"type": "uint256"
						}
					],
					"name": "set",
					"outputs": [],
					"stateMutability": "nonpayable",
					"type": "function"
				},
				{
					"inputs": [],
					"name": "totalAllocPoint",
					"outputs": [
						{
							"internalType": "uint256",
							"name": "",
							"type": "uint256"
						}
					],
					"stateMutability": "view",
					"type": "function"
				},
				{
					"inputs": [
						{
							"internalType": "address",
							"name": "newOperator_",
							"type": "address"
						}
					],
					"name": "transferOperator",
					"outputs": [],
					"stateMutability": "nonpayable",
					"type": "function"
				},
				{
					"inputs": [
						{
							"internalType": "address",
							"name": "newOwner",
							"type": "address"
						}
					],
					"name": "transferOwnership",
					"outputs": [],
					"stateMutability": "nonpayable",
					"type": "function"
				},
				{
					"inputs": [
						{
							"internalType": "uint256",
							"name": "_pid",
							"type": "uint256"
						}
					],
					"name": "updatePool",
					"outputs": [],
					"stateMutability": "nonpayable",
					"type": "function"
				},
				{
					"inputs": [
						{
							"internalType": "uint256",
							"name": "",
							"type": "uint256"
						},
						{
							"internalType": "address",
							"name": "",
							"type": "address"
						}
					],
					"name": "userInfo",
					"outputs": [
						{
							"internalType": "uint256",
							"name": "amount",
							"type": "uint256"
						},
						{
							"internalType": "uint256",
							"name": "rewardDebt",
							"type": "uint256"
						}
					],
					"stateMutability": "view",
					"type": "function"
				},
				{
					"inputs": [
						{
							"internalType": "uint256",
							"name": "_pid",
							"type": "uint256"
						},
						{
							"internalType": "uint256",
							"name": "_amount",
							"type": "uint256"
						}
					],
					"name": "withdraw",
					"outputs": [],
					"stateMutability": "nonpayable",
					"type": "function"
				}
			],
			"devdoc": {
				"kind": "dev",
				"methods": {
					"owner()": {
						"details": "Returns the address of the current owner."
					},
					"renounceOwnership()": {
						"details": "Leaves the contract without owner. It will not be possible to call `onlyOwner` functions anymore. Can only be called by the current owner. NOTE: Renouncing ownership will leave the contract without an owner, thereby removing any functionality that is only available to the owner."
					},
					"transferOwnership(address)": {
						"details": "Transfers ownership of the contract to a new account (`newOwner`). Can only be called by the current owner."
					}
				},
				"version": 1
			},
			"evm": {
				"assembly": "    /* \"contracts/distribution/TShareRewardPool.sol\":462:10689  contract PolyRockRewardPool is Operator {\r... */\n  mstore(0x40, 0x80)\n    /* \"contracts/distribution/TShareRewardPool.sol\":1579:1580  0 */\n  0x00\n    /* \"contracts/distribution/TShareRewardPool.sol\":1546:1580  uint256 public totalAllocPoint = 0 */\n  0x05\n  sstore\n    /* \"contracts/distribution/TShareRewardPool.sol\":1774:1790  0.00187687 ether */\n  0x06ab00d9a3bc00\n    /* \"contracts/distribution/TShareRewardPool.sol\":1743:1790  uint256 public RockPerSecond = 0.00187687 ether */\n  0x08\n  sstore\n    /* \"contracts/distribution/TShareRewardPool.sol\":1875:1883  370 days */\n  0x01e7cb00\n    /* \"contracts/distribution/TShareRewardPool.sol\":1846:1883  uint256 public runningTime = 370 days */\n  0x09\n  sstore\n    /* \"contracts/distribution/TShareRewardPool.sol\":2273:2573  constructor(\r... */\n  callvalue\n  dup1\n  iszero\n  tag_1\n  jumpi\n  0x00\n  dup1\n  revert\ntag_1:\n  pop\n  mload(0x40)\n  sub(codesize, bytecodeSize)\n  dup1\n  bytecodeSize\n  dup4\n  codecopy\n  dup2\n  dup2\n  add\n  0x40\n  mstore\n  0x40\n  dup2\n  lt\n  iszero\n  tag_2\n  jumpi\n  0x00\n  dup1\n  revert\ntag_2:\n  dup2\n  add\n  swap1\n  dup1\n  dup1\n  mload\n  swap1\n  0x20\n  add\n  swap1\n  swap3\n  swap2\n  swap1\n  dup1\n  mload\n  swap1\n  0x20\n  add\n  swap1\n  swap3\n  swap2\n  swap1\n  pop\n  pop\n  pop\n    /* \"@openzeppelin/contracts/access/Ownable.sol\":938:955  address msgSender */\n  0x00\n    /* \"@openzeppelin/contracts/access/Ownable.sol\":958:970  _msgSender() */\n  tag_7\n    /* \"@openzeppelin/contracts/access/Ownable.sol\":958:968  _msgSender */\n  shl(0x20, tag_8)\n    /* \"@openzeppelin/contracts/access/Ownable.sol\":958:970  _msgSender() */\n  0x20\n  shr\n  jump\t// in\ntag_7:\n    /* \"@openzeppelin/contracts/access/Ownable.sol\":938:970  address msgSender = _msgSender() */\n  swap1\n  pop\n    /* \"@openzeppelin/contracts/access/Ownable.sol\":989:998  msgSender */\n  dup1\n    /* \"@openzeppelin/contracts/access/Ownable.sol\":980:986  _owner */\n  0x00\n  dup1\n    /* \"@openzeppelin/contracts/access/Ownable.sol\":980:998  _owner = msgSender */\n  0x0100\n  exp\n  dup2\n  sload\n  dup2\n  0xffffffffffffffffffffffffffffffffffffffff\n  mul\n  not\n  and\n  swap1\n  dup4\n  0xffffffffffffffffffffffffffffffffffffffff\n  and\n  mul\n  or\n  swap1\n  sstore\n  pop\n    /* \"@openzeppelin/contracts/access/Ownable.sol\":1046:1055  msgSender */\n  dup1\n    /* \"@openzeppelin/contracts/access/Ownable.sol\":1013:1056  OwnershipTransferred(address(0), msgSender) */\n  0xffffffffffffffffffffffffffffffffffffffff\n  and\n    /* \"@openzeppelin/contracts/access/Ownable.sol\":1042:1043  0 */\n  0x00\n    /* \"@openzeppelin/contracts/access/Ownable.sol\":1013:1056  OwnershipTransferred(address(0), msgSender) */\n  0xffffffffffffffffffffffffffffffffffffffff\n  and\n  0x8be0079c531659141344cd1fd0a4f28419497f9722a3daafe3b4186f6b6457e0\n  mload(0x40)\n  mload(0x40)\n  dup1\n  swap2\n  sub\n  swap1\n  log3\n    /* \"@openzeppelin/contracts/access/Ownable.sol\":904:1063  constructor () internal {... */\n  pop\n    /* \"contracts/owner/Operator.sol\":435:447  _msgSender() */\n  tag_10\n    /* \"contracts/owner/Operator.sol\":435:445  _msgSender */\n  shl(0x20, tag_8)\n    /* \"contracts/owner/Operator.sol\":435:447  _msgSender() */\n  0x20\n  shr\n  jump\t// in\ntag_10:\n    /* \"contracts/owner/Operator.sol\":423:432  _operator */\n  0x01\n  0x00\n    /* \"contracts/owner/Operator.sol\":423:447  _operator = _msgSender() */\n  0x0100\n  exp\n  dup2\n  sload\n  dup2\n  0xffffffffffffffffffffffffffffffffffffffff\n  mul\n  not\n  and\n  swap1\n  dup4\n  0xffffffffffffffffffffffffffffffffffffffff\n  and\n  mul\n  or\n  swap1\n  sstore\n  pop\n    /* \"contracts/owner/Operator.sol\":495:504  _operator */\n  0x01\n  0x00\n  swap1\n  sload\n  swap1\n  0x0100\n  exp\n  swap1\n  div\n  0xffffffffffffffffffffffffffffffffffffffff\n  and\n    /* \"contracts/owner/Operator.sol\":463:505  OperatorTransferred(address(0), _operator) */\n  0xffffffffffffffffffffffffffffffffffffffff\n  and\n    /* \"contracts/owner/Operator.sol\":491:492  0 */\n  0x00\n    /* \"contracts/owner/Operator.sol\":463:505  OperatorTransferred(address(0), _operator) */\n  0xffffffffffffffffffffffffffffffffffffffff\n  and\n  0x74da04524d50c64947f5dd5381ef1a4dca5cba8ed1d816243f9e48aa0b5617ed\n  mload(0x40)\n  mload(0x40)\n  dup1\n  swap2\n  sub\n  swap1\n  log3\n    /* \"contracts/distribution/TShareRewardPool.sol\":2393:2407  _poolStartTime */\n  dup1\n    /* \"contracts/distribution/TShareRewardPool.sol\":2375:2390  block.timestamp */\n  timestamp\n    /* \"contracts/distribution/TShareRewardPool.sol\":2375:2407  block.timestamp < _poolStartTime */\n  lt\n    /* \"contracts/distribution/TShareRewardPool.sol\":2367:2416  require(block.timestamp < _poolStartTime, \"late\") */\n  tag_12\n  jumpi\n  mload(0x40)\n  0x08c379a000000000000000000000000000000000000000000000000000000000\n  dup2\n  mstore\n  0x04\n  add\n  dup1\n  dup1\n  0x20\n  add\n  dup3\n  dup2\n  sub\n  dup3\n  mstore\n  0x04\n  dup2\n  mstore\n  0x20\n  add\n  dup1\n  0x6c61746500000000000000000000000000000000000000000000000000000000\n  dup2\n  mstore\n  pop\n  0x20\n  add\n  swap2\n  pop\n  pop\n  mload(0x40)\n  dup1\n  swap2\n  sub\n  swap1\n  revert\ntag_12:\n    /* \"contracts/distribution/TShareRewardPool.sol\":2448:2449  0 */\n  0x00\n    /* \"contracts/distribution/TShareRewardPool.sol\":2431:2450  _Rock != address(0) */\n  0xffffffffffffffffffffffffffffffffffffffff\n  and\n    /* \"contracts/distribution/TShareRewardPool.sol\":2431:2436  _Rock */\n  dup3\n    /* \"contracts/distribution/TShareRewardPool.sol\":2431:2450  _Rock != address(0) */\n  0xffffffffffffffffffffffffffffffffffffffff\n  and\n  eq\n    /* \"contracts/distribution/TShareRewardPool.sol\":2427:2472  if (_Rock != address(0)) Rock = IERC20(_Rock) */\n  tag_13\n  jumpi\n    /* \"contracts/distribution/TShareRewardPool.sol\":2466:2471  _Rock */\n  dup2\n    /* \"contracts/distribution/TShareRewardPool.sol\":2452:2456  Rock */\n  0x02\n  0x00\n    /* \"contracts/distribution/TShareRewardPool.sol\":2452:2472  Rock = IERC20(_Rock) */\n  0x0100\n  exp\n  dup2\n  sload\n  dup2\n  0xffffffffffffffffffffffffffffffffffffffff\n  mul\n  not\n  and\n  swap1\n  dup4\n  0xffffffffffffffffffffffffffffffffffffffff\n  and\n  mul\n  or\n  swap1\n  sstore\n  pop\n    /* \"contracts/distribution/TShareRewardPool.sol\":2427:2472  if (_Rock != address(0)) Rock = IERC20(_Rock) */\ntag_13:\n    /* \"contracts/distribution/TShareRewardPool.sol\":2499:2513  _poolStartTime */\n  dup1\n    /* \"contracts/distribution/TShareRewardPool.sol\":2483:2496  poolStartTime */\n  0x06\n    /* \"contracts/distribution/TShareRewardPool.sol\":2483:2513  poolStartTime = _poolStartTime */\n  dup2\n  swap1\n  sstore\n  pop\n    /* \"contracts/distribution/TShareRewardPool.sol\":2554:2565  runningTime */\n  sload(0x09)\n    /* \"contracts/distribution/TShareRewardPool.sol\":2538:2551  poolStartTime */\n  sload(0x06)\n    /* \"contracts/distribution/TShareRewardPool.sol\":2538:2565  poolStartTime + runningTime */\n  add\n    /* \"contracts/distribution/TShareRewardPool.sol\":2524:2535  poolEndTime */\n  0x07\n    /* \"contracts/distribution/TShareRewardPool.sol\":2524:2565  poolEndTime = poolStartTime + runningTime */\n  dup2\n  swap1\n  sstore\n  pop\n    /* \"contracts/distribution/TShareRewardPool.sol\":2273:2573  constructor(\r... */\n  pop\n  pop\n    /* \"contracts/distribution/TShareRewardPool.sol\":462:10689  contract PolyRockRewardPool is Operator {\r... */\n  jump(tag_14)\n    /* \"@openzeppelin/contracts/utils/Context.sol\":596:692  function _msgSender() internal view virtual returns (address) {... */\ntag_8:\n    /* \"@openzeppelin/contracts/utils/Context.sol\":649:656  address */\n  0x00\n    /* \"@openzeppelin/contracts/utils/Context.sol\":675:685  msg.sender */\n  caller\n    /* \"@openzeppelin/contracts/utils/Context.sol\":668:685  return msg.sender */\n  swap1\n  pop\n    /* \"@openzeppelin/contracts/utils/Context.sol\":596:692  function _msgSender() internal view virtual returns (address) {... */\n  swap1\n  jump\t// out\n    /* \"contracts/distribution/TShareRewardPool.sol\":462:10689  contract PolyRockRewardPool is Operator {\r... */\ntag_14:\n  dataSize(sub_0)\n  dup1\n  dataOffset(sub_0)\n  0x00\n  codecopy\n  0x00\n  return\nstop\n\nsub_0: assembly {\n        /* \"contracts/distribution/TShareRewardPool.sol\":462:10689  contract PolyRockRewardPool is Operator {\r... */\n      mstore(0x40, 0x80)\n      callvalue\n      dup1\n      iszero\n      tag_1\n      jumpi\n      0x00\n      dup1\n      revert\n    tag_1:\n      pop\n      jumpi(tag_2, lt(calldatasize, 0x04))\n      shr(0xe0, calldataload(0x00))\n      dup1\n      0x570ca735\n      gt\n      tag_28\n      jumpi\n      dup1\n      0x8da5cb5b\n      gt\n      tag_29\n      jumpi\n      dup1\n      0x96805e54\n      gt\n      tag_30\n      jumpi\n      dup1\n      0x96805e54\n      eq\n      tag_24\n      jumpi\n      dup1\n      0xcf4b55cb\n      eq\n      tag_25\n      jumpi\n      dup1\n      0xe2bbb158\n      eq\n      tag_26\n      jumpi\n      dup1\n      0xf2fde38b\n      eq\n      tag_27\n      jumpi\n      jump(tag_2)\n    tag_30:\n      dup1\n      0x8da5cb5b\n      eq\n      tag_21\n      jumpi\n      dup1\n      0x93f1a40b\n      eq\n      tag_22\n      jumpi\n      dup1\n      0x943f013d\n      eq\n      tag_23\n      jumpi\n      jump(tag_2)\n    tag_29:\n      dup1\n      0x570ca735\n      eq\n      tag_15\n      jumpi\n      dup1\n      0x5f96dc11\n      eq\n      tag_16\n      jumpi\n      dup1\n      0x60689557\n      eq\n      tag_17\n      jumpi\n      dup1\n      0x630b5ba1\n      eq\n      tag_18\n      jumpi\n      dup1\n      0x6e271dd5\n      eq\n      tag_19\n      jumpi\n      dup1\n      0x715018a6\n      eq\n      tag_20\n      jumpi\n      jump(tag_2)\n    tag_28:\n      dup1\n      0x29605e77\n      gt\n      tag_31\n      jumpi\n      dup1\n      0x29605e77\n      eq\n      tag_9\n      jumpi\n      dup1\n      0x441a3e70\n      eq\n      tag_10\n      jumpi\n      dup1\n      0x4456eda2\n      eq\n      tag_11\n      jumpi\n      dup1\n      0x51eb05a6\n      eq\n      tag_12\n      jumpi\n      dup1\n      0x5312ea8e\n      eq\n      tag_13\n      jumpi\n      dup1\n      0x54575af4\n      eq\n      tag_14\n      jumpi\n      jump(tag_2)\n    tag_31:\n      dup1\n      0x022cbf18\n      eq\n      tag_3\n      jumpi\n      dup1\n      0x09cf6091\n      eq\n      tag_4\n      jumpi\n      dup1\n      0x1526fe27\n      eq\n      tag_5\n      jumpi\n      dup1\n      0x17caf6f1\n      eq\n      tag_6\n      jumpi\n      dup1\n      0x1ab06ee5\n      eq\n      tag_7\n      jumpi\n      dup1\n      0x231f0c6a\n      eq\n      tag_8\n      jumpi\n    tag_2:\n      0x00\n      dup1\n      revert\n        /* \"contracts/distribution/TShareRewardPool.sol\":1743:1790  uint256 public RockPerSecond = 0.00187687 ether */\n    tag_3:\n      tag_32\n      tag_33\n      jump\t// in\n    tag_32:\n      mload(0x40)\n      dup1\n      dup3\n      dup2\n      mstore\n      0x20\n      add\n      swap2\n      pop\n      pop\n      mload(0x40)\n      dup1\n      swap2\n      sub\n      swap1\n      return\n        /* \"contracts/distribution/TShareRewardPool.sol\":1902:1953  uint256 public constant TOTAL_REWARDS = 60000 ether */\n    tag_4:\n      tag_34\n      tag_35\n      jump\t// in\n    tag_34:\n      mload(0x40)\n      dup1\n      dup3\n      dup2\n      mstore\n      0x20\n      add\n      swap2\n      pop\n      pop\n      mload(0x40)\n      dup1\n      swap2\n      sub\n      swap1\n      return\n        /* \"contracts/distribution/TShareRewardPool.sol\":1301:1327  PoolInfo[] public poolInfo */\n    tag_5:\n      tag_36\n      0x04\n      dup1\n      calldatasize\n      sub\n      0x20\n      dup2\n      lt\n      iszero\n      tag_37\n      jumpi\n      0x00\n      dup1\n      revert\n    tag_37:\n      dup2\n      add\n      swap1\n      dup1\n      dup1\n      calldataload\n      swap1\n      0x20\n      add\n      swap1\n      swap3\n      swap2\n      swap1\n      pop\n      pop\n      pop\n      tag_38\n      jump\t// in\n    tag_36:\n      mload(0x40)\n      dup1\n      dup7\n      0xffffffffffffffffffffffffffffffffffffffff\n      and\n      dup2\n      mstore\n      0x20\n      add\n      dup6\n      dup2\n      mstore\n      0x20\n      add\n      dup5\n      dup2\n      mstore\n      0x20\n      add\n      dup4\n      dup2\n      mstore\n      0x20\n      add\n      dup3\n      iszero\n      iszero\n      dup2\n      mstore\n      0x20\n      add\n      swap6\n      pop\n      pop\n      pop\n      pop\n      pop\n      pop\n      mload(0x40)\n      dup1\n      swap2\n      sub\n      swap1\n      return\n        /* \"contracts/distribution/TShareRewardPool.sol\":1546:1580  uint256 public totalAllocPoint = 0 */\n    tag_6:\n      tag_39\n      tag_40\n      jump\t// in\n    tag_39:\n      mload(0x40)\n      dup1\n      dup3\n      dup2\n      mstore\n      0x20\n      add\n      swap2\n      pop\n      pop\n      mload(0x40)\n      dup1\n      swap2\n      sub\n      swap1\n      return\n        /* \"contracts/distribution/TShareRewardPool.sol\":4288:4641  function set(uint256 _pid, uint256 _allocPoint) public onlyOperator {\r... */\n    tag_7:\n      tag_41\n      0x04\n      dup1\n      calldatasize\n      sub\n      0x40\n      dup2\n      lt\n      iszero\n      tag_42\n      jumpi\n      0x00\n      dup1\n      revert\n    tag_42:\n      dup2\n      add\n      swap1\n      dup1\n      dup1\n      calldataload\n      swap1\n      0x20\n      add\n      swap1\n      swap3\n      swap2\n      swap1\n      dup1\n      calldataload\n      swap1\n      0x20\n      add\n      swap1\n      swap3\n      swap2\n      swap1\n      pop\n      pop\n      pop\n      tag_43\n      jump\t// in\n    tag_41:\n      stop\n        /* \"contracts/distribution/TShareRewardPool.sol\":4718:5371  function getGeneratedReward(uint256 _fromTime, uint256 _toTime) public view returns (uint256) {\r... */\n    tag_8:\n      tag_44\n      0x04\n      dup1\n      calldatasize\n      sub\n      0x40\n      dup2\n      lt\n      iszero\n      tag_45\n      jumpi\n      0x00\n      dup1\n      revert\n    tag_45:\n      dup2\n      add\n      swap1\n      dup1\n      dup1\n      calldataload\n      swap1\n      0x20\n      add\n      swap1\n      swap3\n      swap2\n      swap1\n      dup1\n      calldataload\n      swap1\n      0x20\n      add\n      swap1\n      swap3\n      swap2\n      swap1\n      pop\n      pop\n      pop\n      tag_46\n      jump\t// in\n    tag_44:\n      mload(0x40)\n      dup1\n      dup3\n      dup2\n      mstore\n      0x20\n      add\n      swap2\n      pop\n      pop\n      mload(0x40)\n      dup1\n      swap2\n      sub\n      swap1\n      return\n        /* \"contracts/owner/Operator.sol\":894:1009  function transferOperator(address newOperator_) public onlyOwner {\r... */\n    tag_9:\n      tag_47\n      0x04\n      dup1\n      calldatasize\n      sub\n      0x20\n      dup2\n      lt\n      iszero\n      tag_48\n      jumpi\n      0x00\n      dup1\n      revert\n    tag_48:\n      dup2\n      add\n      swap1\n      dup1\n      dup1\n      calldataload\n      0xffffffffffffffffffffffffffffffffffffffff\n      and\n      swap1\n      0x20\n      add\n      swap1\n      swap3\n      swap2\n      swap1\n      pop\n      pop\n      pop\n      tag_49\n      jump\t// in\n    tag_47:\n      stop\n        /* \"contracts/distribution/TShareRewardPool.sol\":8351:9161  function withdraw(uint256 _pid, uint256 _amount) public {\r... */\n    tag_10:\n      tag_50\n      0x04\n      dup1\n      calldatasize\n      sub\n      0x40\n      dup2\n      lt\n      iszero\n      tag_51\n      jumpi\n      0x00\n      dup1\n      revert\n    tag_51:\n      dup2\n      add\n      swap1\n      dup1\n      dup1\n      calldataload\n      swap1\n      0x20\n      add\n      swap1\n      swap3\n      swap2\n      swap1\n      dup1\n      calldataload\n      swap1\n      0x20\n      add\n      swap1\n      swap3\n      swap2\n      swap1\n      pop\n      pop\n      pop\n      tag_52\n      jump\t// in\n    tag_50:\n      stop\n        /* \"contracts/owner/Operator.sol\":786:886  function isOperator() public view returns (bool) {\r... */\n    tag_11:\n      tag_53\n      tag_54\n      jump\t// in\n    tag_53:\n      mload(0x40)\n      dup1\n      dup3\n      iszero\n      iszero\n      dup2\n      mstore\n      0x20\n      add\n      swap2\n      pop\n      pop\n      mload(0x40)\n      dup1\n      swap2\n      sub\n      swap1\n      return\n        /* \"contracts/distribution/TShareRewardPool.sol\":6546:7454  function updatePool(uint256 _pid) public {\r... */\n    tag_12:\n      tag_55\n      0x04\n      dup1\n      calldatasize\n      sub\n      0x20\n      dup2\n      lt\n      iszero\n      tag_56\n      jumpi\n      0x00\n      dup1\n      revert\n    tag_56:\n      dup2\n      add\n      swap1\n      dup1\n      dup1\n      calldataload\n      swap1\n      0x20\n      add\n      swap1\n      swap3\n      swap2\n      swap1\n      pop\n      pop\n      pop\n      tag_57\n      jump\t// in\n    tag_55:\n      stop\n        /* \"contracts/distribution/TShareRewardPool.sol\":9232:9609  function emergencyWithdraw(uint256 _pid) public {\r... */\n    tag_13:\n      tag_58\n      0x04\n      dup1\n      calldatasize\n      sub\n      0x20\n      dup2\n      lt\n      iszero\n      tag_59\n      jumpi\n      0x00\n      dup1\n      revert\n    tag_59:\n      dup2\n      add\n      swap1\n      dup1\n      dup1\n      calldataload\n      swap1\n      0x20\n      add\n      swap1\n      swap3\n      swap2\n      swap1\n      pop\n      pop\n      pop\n      tag_60\n      jump\t// in\n    tag_58:\n      stop\n        /* \"contracts/distribution/TShareRewardPool.sol\":10082:10686  function governanceRecoverUnsupported(IERC20 _token, uint256 amount, address to) external onlyOperator {\r... */\n    tag_14:\n      tag_61\n      0x04\n      dup1\n      calldatasize\n      sub\n      0x60\n      dup2\n      lt\n      iszero\n      tag_62\n      jumpi\n      0x00\n      dup1\n      revert\n    tag_62:\n      dup2\n      add\n      swap1\n      dup1\n      dup1\n      calldataload\n      0xffffffffffffffffffffffffffffffffffffffff\n      and\n      swap1\n      0x20\n      add\n      swap1\n      swap3\n      swap2\n      swap1\n      dup1\n      calldataload\n      swap1\n      0x20\n      add\n      swap1\n      swap3\n      swap2\n      swap1\n      dup1\n      calldataload\n      0xffffffffffffffffffffffffffffffffffffffff\n      and\n      swap1\n      0x20\n      add\n      swap1\n      swap3\n      swap2\n      swap1\n      pop\n      pop\n      pop\n      tag_63\n      jump\t// in\n    tag_61:\n      stop\n        /* \"contracts/owner/Operator.sol\":521:606  function operator() public view returns (address) {\r... */\n    tag_15:\n      tag_64\n      tag_65\n      jump\t// in\n    tag_64:\n      mload(0x40)\n      dup1\n      dup3\n      0xffffffffffffffffffffffffffffffffffffffff\n      and\n      dup2\n      mstore\n      0x20\n      add\n      swap2\n      pop\n      pop\n      mload(0x40)\n      dup1\n      swap2\n      sub\n      swap1\n      return\n        /* \"contracts/distribution/TShareRewardPool.sol\":1631:1659  uint256 public poolStartTime */\n    tag_16:\n      tag_66\n      tag_67\n      jump\t// in\n    tag_66:\n      mload(0x40)\n      dup1\n      dup3\n      dup2\n      mstore\n      0x20\n      add\n      swap2\n      pop\n      pop\n      mload(0x40)\n      dup1\n      swap2\n      sub\n      swap1\n      return\n        /* \"contracts/distribution/TShareRewardPool.sol\":1247:1265  IERC20 public Rock */\n    tag_17:\n      tag_68\n      tag_69\n      jump\t// in\n    tag_68:\n      mload(0x40)\n      dup1\n      dup3\n      0xffffffffffffffffffffffffffffffffffffffff\n      and\n      dup2\n      mstore\n      0x20\n      add\n      swap2\n      pop\n      pop\n      mload(0x40)\n      dup1\n      swap2\n      sub\n      swap1\n      return\n        /* \"contracts/distribution/TShareRewardPool.sol\":6290:6470  function massUpdatePools() public {\r... */\n    tag_18:\n      tag_70\n      tag_71\n      jump\t// in\n    tag_70:\n      stop\n        /* \"contracts/distribution/TShareRewardPool.sol\":1708:1734  uint256 public poolEndTime */\n    tag_19:\n      tag_72\n      tag_73\n      jump\t// in\n    tag_72:\n      mload(0x40)\n      dup1\n      dup3\n      dup2\n      mstore\n      0x20\n      add\n      swap2\n      pop\n      pop\n      mload(0x40)\n      dup1\n      swap2\n      sub\n      swap1\n      return\n        /* \"@openzeppelin/contracts/access/Ownable.sol\":1771:1916  function renounceOwnership() public virtual onlyOwner {... */\n    tag_20:\n      tag_74\n      tag_75\n      jump\t// in\n    tag_74:\n      stop\n        /* \"@openzeppelin/contracts/access/Ownable.sol\":1139:1224  function owner() public view virtual returns (address) {... */\n    tag_21:\n      tag_76\n      tag_77\n      jump\t// in\n    tag_76:\n      mload(0x40)\n      dup1\n      dup3\n      0xffffffffffffffffffffffffffffffffffffffff\n      and\n      dup2\n      mstore\n      0x20\n      add\n      swap2\n      pop\n      pop\n      mload(0x40)\n      dup1\n      swap2\n      sub\n      swap1\n      return\n        /* \"contracts/distribution/TShareRewardPool.sol\":1385:1449  mapping(uint256 => mapping(address => UserInfo)) public userInfo */\n    tag_22:\n      tag_78\n      0x04\n      dup1\n      calldatasize\n      sub\n      0x40\n      dup2\n      lt\n      iszero\n      tag_79\n      jumpi\n      0x00\n      dup1\n      revert\n    tag_79:\n      dup2\n      add\n      swap1\n      dup1\n      dup1\n      calldataload\n      swap1\n      0x20\n      add\n      swap1\n      swap3\n      swap2\n      swap1\n      dup1\n      calldataload\n      0xffffffffffffffffffffffffffffffffffffffff\n      and\n      swap1\n      0x20\n      add\n      swap1\n      swap3\n      swap2\n      swap1\n      pop\n      pop\n      pop\n      tag_80\n      jump\t// in\n    tag_78:\n      mload(0x40)\n      dup1\n      dup4\n      dup2\n      mstore\n      0x20\n      add\n      dup3\n      dup2\n      mstore\n      0x20\n      add\n      swap3\n      pop\n      pop\n      pop\n      mload(0x40)\n      dup1\n      swap2\n      sub\n      swap1\n      return\n        /* \"contracts/distribution/TShareRewardPool.sol\":1846:1883  uint256 public runningTime = 370 days */\n    tag_23:\n      tag_81\n      tag_82\n      jump\t// in\n    tag_81:\n      mload(0x40)\n      dup1\n      dup3\n      dup2\n      mstore\n      0x20\n      add\n      swap2\n      pop\n      pop\n      mload(0x40)\n      dup1\n      swap2\n      sub\n      swap1\n      return\n        /* \"contracts/distribution/TShareRewardPool.sol\":2916:4192  function add(\r... */\n    tag_24:\n      tag_83\n      0x04\n      dup1\n      calldatasize\n      sub\n      0x80\n      dup2\n      lt\n      iszero\n      tag_84\n      jumpi\n      0x00\n      dup1\n      revert\n    tag_84:\n      dup2\n      add\n      swap1\n      dup1\n      dup1\n      calldataload\n      swap1\n      0x20\n      add\n      swap1\n      swap3\n      swap2\n      swap1\n      dup1\n      calldataload\n      0xffffffffffffffffffffffffffffffffffffffff\n      and\n      swap1\n      0x20\n      add\n      swap1\n      swap3\n      swap2\n      swap1\n      dup1\n      calldataload\n      iszero\n      iszero\n      swap1\n      0x20\n      add\n      swap1\n      swap3\n      swap2\n      swap1\n      dup1\n      calldataload\n      swap1\n      0x20\n      add\n      swap1\n      swap3\n      swap2\n      swap1\n      pop\n      pop\n      pop\n      tag_85\n      jump\t// in\n    tag_83:\n      stop\n        /* \"contracts/distribution/TShareRewardPool.sol\":5435:6207  function pendingShare(uint256 _pid, address _user) external view returns (uint256) {\r... */\n    tag_25:\n      tag_86\n      0x04\n      dup1\n      calldatasize\n      sub\n      0x40\n      dup2\n      lt\n      iszero\n      tag_87\n      jumpi\n      0x00\n      dup1\n      revert\n    tag_87:\n      dup2\n      add\n      swap1\n      dup1\n      dup1\n      calldataload\n      swap1\n      0x20\n      add\n      swap1\n      swap3\n      swap2\n      swap1\n      dup1\n      calldataload\n      0xffffffffffffffffffffffffffffffffffffffff\n      and\n      swap1\n      0x20\n      add\n      swap1\n      swap3\n      swap2\n      swap1\n      pop\n      pop\n      pop\n      tag_88\n      jump\t// in\n    tag_86:\n      mload(0x40)\n      dup1\n      dup3\n      dup2\n      mstore\n      0x20\n      add\n      swap2\n      pop\n      pop\n      mload(0x40)\n      dup1\n      swap2\n      sub\n      swap1\n      return\n        /* \"contracts/distribution/TShareRewardPool.sol\":7489:8315  function deposit(uint256 _pid, uint256 _amount) public {\r... */\n    tag_26:\n      tag_89\n      0x04\n      dup1\n      calldatasize\n      sub\n      0x40\n      dup2\n      lt\n      iszero\n      tag_90\n      jumpi\n      0x00\n      dup1\n      revert\n    tag_90:\n      dup2\n      add\n      swap1\n      dup1\n      dup1\n      calldataload\n      swap1\n      0x20\n      add\n      swap1\n      swap3\n      swap2\n      swap1\n      dup1\n      calldataload\n      swap1\n      0x20\n      add\n      swap1\n      swap3\n      swap2\n      swap1\n      pop\n      pop\n      pop\n      tag_91\n      jump\t// in\n    tag_89:\n      stop\n        /* \"@openzeppelin/contracts/access/Ownable.sol\":2065:2305  function transferOwnership(address newOwner) public virtual onlyOwner {... */\n    tag_27:\n      tag_92\n      0x04\n      dup1\n      calldatasize\n      sub\n      0x20\n      dup2\n      lt\n      iszero\n      tag_93\n      jumpi\n      0x00\n      dup1\n      revert\n    tag_93:\n      dup2\n      add\n      swap1\n      dup1\n      dup1\n      calldataload\n      0xffffffffffffffffffffffffffffffffffffffff\n      and\n      swap1\n      0x20\n      add\n      swap1\n      swap3\n      swap2\n      swap1\n      pop\n      pop\n      pop\n      tag_94\n      jump\t// in\n    tag_92:\n      stop\n        /* \"contracts/distribution/TShareRewardPool.sol\":1743:1790  uint256 public RockPerSecond = 0.00187687 ether */\n    tag_33:\n      sload(0x08)\n      dup2\n      jump\t// out\n        /* \"contracts/distribution/TShareRewardPool.sol\":1902:1953  uint256 public constant TOTAL_REWARDS = 60000 ether */\n    tag_35:\n        /* \"contracts/distribution/TShareRewardPool.sol\":1942:1953  60000 ether */\n      0x0cb49b44ba602d800000\n        /* \"contracts/distribution/TShareRewardPool.sol\":1902:1953  uint256 public constant TOTAL_REWARDS = 60000 ether */\n      dup2\n      jump\t// out\n        /* \"contracts/distribution/TShareRewardPool.sol\":1301:1327  PoolInfo[] public poolInfo */\n    tag_38:\n      0x03\n      dup2\n      dup2\n      sload\n      dup2\n      lt\n      tag_95\n      jumpi\n      invalid\n    tag_95:\n      swap1\n      0x00\n      mstore\n      keccak256(0x00, 0x20)\n      swap1\n      0x05\n      mul\n      add\n      0x00\n      swap2\n      pop\n      swap1\n      pop\n      dup1\n      0x00\n      add\n      0x00\n      swap1\n      sload\n      swap1\n      0x0100\n      exp\n      swap1\n      div\n      0xffffffffffffffffffffffffffffffffffffffff\n      and\n      swap1\n      dup1\n      0x01\n      add\n      sload\n      swap1\n      dup1\n      0x02\n      add\n      sload\n      swap1\n      dup1\n      0x03\n      add\n      sload\n      swap1\n      dup1\n      0x04\n      add\n      0x00\n      swap1\n      sload\n      swap1\n      0x0100\n      exp\n      swap1\n      div\n      0xff\n      and\n      swap1\n      pop\n      dup6\n      jump\t// out\n        /* \"contracts/distribution/TShareRewardPool.sol\":1546:1580  uint256 public totalAllocPoint = 0 */\n    tag_40:\n      sload(0x05)\n      dup2\n      jump\t// out\n        /* \"contracts/distribution/TShareRewardPool.sol\":4288:4641  function set(uint256 _pid, uint256 _allocPoint) public onlyOperator {\r... */\n    tag_43:\n        /* \"contracts/owner/Operator.sol\":684:694  msg.sender */\n      caller\n        /* \"contracts/owner/Operator.sol\":671:694  _operator == msg.sender */\n      0xffffffffffffffffffffffffffffffffffffffff\n      and\n        /* \"contracts/owner/Operator.sol\":671:680  _operator */\n      0x01\n      0x00\n      swap1\n      sload\n      swap1\n      0x0100\n      exp\n      swap1\n      div\n      0xffffffffffffffffffffffffffffffffffffffff\n      and\n        /* \"contracts/owner/Operator.sol\":671:694  _operator == msg.sender */\n      0xffffffffffffffffffffffffffffffffffffffff\n      and\n      eq\n        /* \"contracts/owner/Operator.sol\":649:758  require(\r... */\n      tag_98\n      jumpi\n      mload(0x40)\n      0x08c379a000000000000000000000000000000000000000000000000000000000\n      dup2\n      mstore\n      0x04\n      add\n      dup1\n      dup1\n      0x20\n      add\n      dup3\n      dup2\n      sub\n      dup3\n      mstore\n      0x24\n      dup2\n      mstore\n      0x20\n      add\n      dup1\n      data_a62bfdba5053072911b63b0f6325b0e83fcd28b5a847d97efdd966feb4daaafb\n      0x24\n      swap2\n      codecopy\n      0x40\n      add\n      swap2\n      pop\n      pop\n      mload(0x40)\n      dup1\n      swap2\n      sub\n      swap1\n      revert\n    tag_98:\n        /* \"contracts/distribution/TShareRewardPool.sol\":4367:4384  massUpdatePools() */\n      tag_100\n        /* \"contracts/distribution/TShareRewardPool.sol\":4367:4382  massUpdatePools */\n      tag_71\n        /* \"contracts/distribution/TShareRewardPool.sol\":4367:4384  massUpdatePools() */\n      jump\t// in\n    tag_100:\n        /* \"contracts/distribution/TShareRewardPool.sol\":4395:4416  PoolInfo storage pool */\n      0x00\n        /* \"contracts/distribution/TShareRewardPool.sol\":4419:4427  poolInfo */\n      0x03\n        /* \"contracts/distribution/TShareRewardPool.sol\":4428:4432  _pid */\n      dup4\n        /* \"contracts/distribution/TShareRewardPool.sol\":4419:4433  poolInfo[_pid] */\n      dup2\n      sload\n      dup2\n      lt\n      tag_101\n      jumpi\n      invalid\n    tag_101:\n      swap1\n      0x00\n      mstore\n      keccak256(0x00, 0x20)\n      swap1\n      0x05\n      mul\n      add\n        /* \"contracts/distribution/TShareRewardPool.sol\":4395:4433  PoolInfo storage pool = poolInfo[_pid] */\n      swap1\n      pop\n        /* \"contracts/distribution/TShareRewardPool.sol\":4448:4452  pool */\n      dup1\n        /* \"contracts/distribution/TShareRewardPool.sol\":4448:4462  pool.isStarted */\n      0x04\n      add\n      0x00\n      swap1\n      sload\n      swap1\n      0x0100\n      exp\n      swap1\n      div\n      0xff\n      and\n        /* \"contracts/distribution/TShareRewardPool.sol\":4444:4594  if (pool.isStarted) {\r... */\n      iszero\n      tag_103\n      jumpi\n        /* \"contracts/distribution/TShareRewardPool.sol\":4497:4582  totalAllocPoint.sub(pool.allocPoint).add(\r... */\n      tag_104\n        /* \"contracts/distribution/TShareRewardPool.sol\":4556:4567  _allocPoint */\n      dup3\n        /* \"contracts/distribution/TShareRewardPool.sol\":4497:4533  totalAllocPoint.sub(pool.allocPoint) */\n      tag_105\n        /* \"contracts/distribution/TShareRewardPool.sol\":4517:4521  pool */\n      dup4\n        /* \"contracts/distribution/TShareRewardPool.sol\":4517:4532  pool.allocPoint */\n      0x01\n      add\n      sload\n        /* \"contracts/distribution/TShareRewardPool.sol\":4497:4512  totalAllocPoint */\n      sload(0x05)\n        /* \"contracts/distribution/TShareRewardPool.sol\":4497:4516  totalAllocPoint.sub */\n      tag_106\n      swap1\n        /* \"contracts/distribution/TShareRewardPool.sol\":4497:4533  totalAllocPoint.sub(pool.allocPoint) */\n      swap2\n      swap1\n      0xffffffff\n      and\n      jump\t// in\n    tag_105:\n        /* \"contracts/distribution/TShareRewardPool.sol\":4497:4537  totalAllocPoint.sub(pool.allocPoint).add */\n      tag_107\n      swap1\n        /* \"contracts/distribution/TShareRewardPool.sol\":4497:4582  totalAllocPoint.sub(pool.allocPoint).add(\r... */\n      swap2\n      swap1\n      0xffffffff\n      and\n      jump\t// in\n    tag_104:\n        /* \"contracts/distribution/TShareRewardPool.sol\":4479:4494  totalAllocPoint */\n      0x05\n        /* \"contracts/distribution/TShareRewardPool.sol\":4479:4582  totalAllocPoint = totalAllocPoint.sub(pool.allocPoint).add(\r... */\n      dup2\n      swap1\n      sstore\n      pop\n        /* \"contracts/distribution/TShareRewardPool.sol\":4444:4594  if (pool.isStarted) {\r... */\n    tag_103:\n        /* \"contracts/distribution/TShareRewardPool.sol\":4622:4633  _allocPoint */\n      dup2\n        /* \"contracts/distribution/TShareRewardPool.sol\":4604:4608  pool */\n      dup2\n        /* \"contracts/distribution/TShareRewardPool.sol\":4604:4619  pool.allocPoint */\n      0x01\n      add\n        /* \"contracts/distribution/TShareRewardPool.sol\":4604:4633  pool.allocPoint = _allocPoint */\n      dup2\n      swap1\n      sstore\n      pop\n        /* \"contracts/owner/Operator.sol\":769:770  _ */\n      pop\n        /* \"contracts/distribution/TShareRewardPool.sol\":4288:4641  function set(uint256 _pid, uint256 _allocPoint) public onlyOperator {\r... */\n      pop\n      pop\n      jump\t// out\n        /* \"contracts/distribution/TShareRewardPool.sol\":4718:5371  function getGeneratedReward(uint256 _fromTime, uint256 _toTime) public view returns (uint256) {\r... */\n    tag_46:\n        /* \"contracts/distribution/TShareRewardPool.sol\":4803:4810  uint256 */\n      0x00\n        /* \"contracts/distribution/TShareRewardPool.sol\":4840:4847  _toTime */\n      dup2\n        /* \"contracts/distribution/TShareRewardPool.sol\":4827:4836  _fromTime */\n      dup4\n        /* \"contracts/distribution/TShareRewardPool.sol\":4827:4847  _fromTime >= _toTime */\n      lt\n        /* \"contracts/distribution/TShareRewardPool.sol\":4823:4857  if (_fromTime >= _toTime) return 0 */\n      tag_109\n      jumpi\n        /* \"contracts/distribution/TShareRewardPool.sol\":4856:4857  0 */\n      0x00\n        /* \"contracts/distribution/TShareRewardPool.sol\":4849:4857  return 0 */\n      swap1\n      pop\n      jump(tag_108)\n        /* \"contracts/distribution/TShareRewardPool.sol\":4823:4857  if (_fromTime >= _toTime) return 0 */\n    tag_109:\n        /* \"contracts/distribution/TShareRewardPool.sol\":4883:4894  poolEndTime */\n      sload(0x07)\n        /* \"contracts/distribution/TShareRewardPool.sol\":4872:4879  _toTime */\n      dup3\n        /* \"contracts/distribution/TShareRewardPool.sol\":4872:4894  _toTime >= poolEndTime */\n      lt\n        /* \"contracts/distribution/TShareRewardPool.sol\":4868:5364  if (_toTime >= poolEndTime) {\r... */\n      tag_110\n      jumpi\n        /* \"contracts/distribution/TShareRewardPool.sol\":4928:4939  poolEndTime */\n      sload(0x07)\n        /* \"contracts/distribution/TShareRewardPool.sol\":4915:4924  _fromTime */\n      dup4\n        /* \"contracts/distribution/TShareRewardPool.sol\":4915:4939  _fromTime >= poolEndTime */\n      lt\n        /* \"contracts/distribution/TShareRewardPool.sol\":4911:4949  if (_fromTime >= poolEndTime) return 0 */\n      tag_111\n      jumpi\n        /* \"contracts/distribution/TShareRewardPool.sol\":4948:4949  0 */\n      0x00\n        /* \"contracts/distribution/TShareRewardPool.sol\":4941:4949  return 0 */\n      swap1\n      pop\n      jump(tag_108)\n        /* \"contracts/distribution/TShareRewardPool.sol\":4911:4949  if (_fromTime >= poolEndTime) return 0 */\n    tag_111:\n        /* \"contracts/distribution/TShareRewardPool.sol\":4981:4994  poolStartTime */\n      sload(0x06)\n        /* \"contracts/distribution/TShareRewardPool.sol\":4968:4977  _fromTime */\n      dup4\n        /* \"contracts/distribution/TShareRewardPool.sol\":4968:4994  _fromTime <= poolStartTime */\n      gt\n        /* \"contracts/distribution/TShareRewardPool.sol\":4964:5052  if (_fromTime <= poolStartTime) return poolEndTime.sub(poolStartTime).mul(RockPerSecond) */\n      tag_112\n      jumpi\n        /* \"contracts/distribution/TShareRewardPool.sol\":5003:5052  poolEndTime.sub(poolStartTime).mul(RockPerSecond) */\n      tag_113\n        /* \"contracts/distribution/TShareRewardPool.sol\":5038:5051  RockPerSecond */\n      sload(0x08)\n        /* \"contracts/distribution/TShareRewardPool.sol\":5003:5033  poolEndTime.sub(poolStartTime) */\n      tag_114\n        /* \"contracts/distribution/TShareRewardPool.sol\":5019:5032  poolStartTime */\n      sload(0x06)\n        /* \"contracts/distribution/TShareRewardPool.sol\":5003:5014  poolEndTime */\n      sload(0x07)\n        /* \"contracts/distribution/TShareRewardPool.sol\":5003:5018  poolEndTime.sub */\n      tag_106\n      swap1\n        /* \"contracts/distribution/TShareRewardPool.sol\":5003:5033  poolEndTime.sub(poolStartTime) */\n      swap2\n      swap1\n      0xffffffff\n      and\n      jump\t// in\n    tag_114:\n        /* \"contracts/distribution/TShareRewardPool.sol\":5003:5037  poolEndTime.sub(poolStartTime).mul */\n      tag_115\n      swap1\n        /* \"contracts/distribution/TShareRewardPool.sol\":5003:5052  poolEndTime.sub(poolStartTime).mul(RockPerSecond) */\n      swap2\n      swap1\n      0xffffffff\n      and\n      jump\t// in\n    tag_113:\n        /* \"contracts/distribution/TShareRewardPool.sol\":4996:5052  return poolEndTime.sub(poolStartTime).mul(RockPerSecond) */\n      swap1\n      pop\n      jump(tag_108)\n        /* \"contracts/distribution/TShareRewardPool.sol\":4964:5052  if (_fromTime <= poolStartTime) return poolEndTime.sub(poolStartTime).mul(RockPerSecond) */\n    tag_112:\n        /* \"contracts/distribution/TShareRewardPool.sol\":5074:5119  poolEndTime.sub(_fromTime).mul(RockPerSecond) */\n      tag_116\n        /* \"contracts/distribution/TShareRewardPool.sol\":5105:5118  RockPerSecond */\n      sload(0x08)\n        /* \"contracts/distribution/TShareRewardPool.sol\":5074:5100  poolEndTime.sub(_fromTime) */\n      tag_117\n        /* \"contracts/distribution/TShareRewardPool.sol\":5090:5099  _fromTime */\n      dup6\n        /* \"contracts/distribution/TShareRewardPool.sol\":5074:5085  poolEndTime */\n      sload(0x07)\n        /* \"contracts/distribution/TShareRewardPool.sol\":5074:5089  poolEndTime.sub */\n      tag_106\n      swap1\n        /* \"contracts/distribution/TShareRewardPool.sol\":5074:5100  poolEndTime.sub(_fromTime) */\n      swap2\n      swap1\n      0xffffffff\n      and\n      jump\t// in\n    tag_117:\n        /* \"contracts/distribution/TShareRewardPool.sol\":5074:5104  poolEndTime.sub(_fromTime).mul */\n      tag_115\n      swap1\n        /* \"contracts/distribution/TShareRewardPool.sol\":5074:5119  poolEndTime.sub(_fromTime).mul(RockPerSecond) */\n      swap2\n      swap1\n      0xffffffff\n      and\n      jump\t// in\n    tag_116:\n        /* \"contracts/distribution/TShareRewardPool.sol\":5067:5119  return poolEndTime.sub(_fromTime).mul(RockPerSecond) */\n      swap1\n      pop\n      jump(tag_108)\n        /* \"contracts/distribution/TShareRewardPool.sol\":4868:5364  if (_toTime >= poolEndTime) {\r... */\n    tag_110:\n        /* \"contracts/distribution/TShareRewardPool.sol\":5167:5180  poolStartTime */\n      sload(0x06)\n        /* \"contracts/distribution/TShareRewardPool.sol\":5156:5163  _toTime */\n      dup3\n        /* \"contracts/distribution/TShareRewardPool.sol\":5156:5180  _toTime <= poolStartTime */\n      gt\n        /* \"contracts/distribution/TShareRewardPool.sol\":5152:5190  if (_toTime <= poolStartTime) return 0 */\n      tag_119\n      jumpi\n        /* \"contracts/distribution/TShareRewardPool.sol\":5189:5190  0 */\n      0x00\n        /* \"contracts/distribution/TShareRewardPool.sol\":5182:5190  return 0 */\n      swap1\n      pop\n      jump(tag_108)\n        /* \"contracts/distribution/TShareRewardPool.sol\":5152:5190  if (_toTime <= poolStartTime) return 0 */\n    tag_119:\n        /* \"contracts/distribution/TShareRewardPool.sol\":5222:5235  poolStartTime */\n      sload(0x06)\n        /* \"contracts/distribution/TShareRewardPool.sol\":5209:5218  _fromTime */\n      dup4\n        /* \"contracts/distribution/TShareRewardPool.sol\":5209:5235  _fromTime <= poolStartTime */\n      gt\n        /* \"contracts/distribution/TShareRewardPool.sol\":5205:5289  if (_fromTime <= poolStartTime) return _toTime.sub(poolStartTime).mul(RockPerSecond) */\n      tag_120\n      jumpi\n        /* \"contracts/distribution/TShareRewardPool.sol\":5244:5289  _toTime.sub(poolStartTime).mul(RockPerSecond) */\n      tag_121\n        /* \"contracts/distribution/TShareRewardPool.sol\":5275:5288  RockPerSecond */\n      sload(0x08)\n        /* \"contracts/distribution/TShareRewardPool.sol\":5244:5270  _toTime.sub(poolStartTime) */\n      tag_122\n        /* \"contracts/distribution/TShareRewardPool.sol\":5256:5269  poolStartTime */\n      sload(0x06)\n        /* \"contracts/distribution/TShareRewardPool.sol\":5244:5251  _toTime */\n      dup6\n        /* \"contracts/distribution/TShareRewardPool.sol\":5244:5255  _toTime.sub */\n      tag_106\n      swap1\n        /* \"contracts/distribution/TShareRewardPool.sol\":5244:5270  _toTime.sub(poolStartTime) */\n      swap2\n      swap1\n      0xffffffff\n      and\n      jump\t// in\n    tag_122:\n        /* \"contracts/distribution/TShareRewardPool.sol\":5244:5274  _toTime.sub(poolStartTime).mul */\n      tag_115\n      swap1\n        /* \"contracts/distribution/TShareRewardPool.sol\":5244:5289  _toTime.sub(poolStartTime).mul(RockPerSecond) */\n      swap2\n      swap1\n      0xffffffff\n      and\n      jump\t// in\n    tag_121:\n        /* \"contracts/distribution/TShareRewardPool.sol\":5237:5289  return _toTime.sub(poolStartTime).mul(RockPerSecond) */\n      swap1\n      pop\n      jump(tag_108)\n        /* \"contracts/distribution/TShareRewardPool.sol\":5205:5289  if (_fromTime <= poolStartTime) return _toTime.sub(poolStartTime).mul(RockPerSecond) */\n    tag_120:\n        /* \"contracts/distribution/TShareRewardPool.sol\":5311:5352  _toTime.sub(_fromTime).mul(RockPerSecond) */\n      tag_123\n        /* \"contracts/distribution/TShareRewardPool.sol\":5338:5351  RockPerSecond */\n      sload(0x08)\n        /* \"contracts/distribution/TShareRewardPool.sol\":5311:5333  _toTime.sub(_fromTime) */\n      tag_124\n        /* \"contracts/distribution/TShareRewardPool.sol\":5323:5332  _fromTime */\n      dup6\n        /* \"contracts/distribution/TShareRewardPool.sol\":5311:5318  _toTime */\n      dup6\n        /* \"contracts/distribution/TShareRewardPool.sol\":5311:5322  _toTime.sub */\n      tag_106\n      swap1\n        /* \"contracts/distribution/TShareRewardPool.sol\":5311:5333  _toTime.sub(_fromTime) */\n      swap2\n      swap1\n      0xffffffff\n      and\n      jump\t// in\n    tag_124:\n        /* \"contracts/distribution/TShareRewardPool.sol\":5311:5337  _toTime.sub(_fromTime).mul */\n      tag_115\n      swap1\n        /* \"contracts/distribution/TShareRewardPool.sol\":5311:5352  _toTime.sub(_fromTime).mul(RockPerSecond) */\n      swap2\n      swap1\n      0xffffffff\n      and\n      jump\t// in\n    tag_123:\n        /* \"contracts/distribution/TShareRewardPool.sol\":5304:5352  return _toTime.sub(_fromTime).mul(RockPerSecond) */\n      swap1\n      pop\n        /* \"contracts/distribution/TShareRewardPool.sol\":4718:5371  function getGeneratedReward(uint256 _fromTime, uint256 _toTime) public view returns (uint256) {\r... */\n    tag_108:\n      swap3\n      swap2\n      pop\n      pop\n      jump\t// out\n        /* \"contracts/owner/Operator.sol\":894:1009  function transferOperator(address newOperator_) public onlyOwner {\r... */\n    tag_49:\n        /* \"@openzeppelin/contracts/access/Ownable.sol\":1362:1374  _msgSender() */\n      tag_126\n        /* \"@openzeppelin/contracts/access/Ownable.sol\":1362:1372  _msgSender */\n      tag_127\n        /* \"@openzeppelin/contracts/access/Ownable.sol\":1362:1374  _msgSender() */\n      jump\t// in\n    tag_126:\n        /* \"@openzeppelin/contracts/access/Ownable.sol\":1351:1374  owner() == _msgSender() */\n      0xffffffffffffffffffffffffffffffffffffffff\n      and\n        /* \"@openzeppelin/contracts/access/Ownable.sol\":1351:1358  owner() */\n      tag_128\n        /* \"@openzeppelin/contracts/access/Ownable.sol\":1351:1356  owner */\n      tag_77\n        /* \"@openzeppelin/contracts/access/Ownable.sol\":1351:1358  owner() */\n      jump\t// in\n    tag_128:\n        /* \"@openzeppelin/contracts/access/Ownable.sol\":1351:1374  owner() == _msgSender() */\n      0xffffffffffffffffffffffffffffffffffffffff\n      and\n      eq\n        /* \"@openzeppelin/contracts/access/Ownable.sol\":1343:1411  require(owner() == _msgSender(), \"Ownable: caller is not the owner\") */\n      tag_129\n      jumpi\n      mload(0x40)\n      0x08c379a000000000000000000000000000000000000000000000000000000000\n      dup2\n      mstore\n      0x04\n      add\n      dup1\n      dup1\n      0x20\n      add\n      dup3\n      dup2\n      sub\n      dup3\n      mstore\n      0x20\n      dup2\n      mstore\n      0x20\n      add\n      dup1\n      0x4f776e61626c653a2063616c6c6572206973206e6f7420746865206f776e6572\n      dup2\n      mstore\n      pop\n      0x20\n      add\n      swap2\n      pop\n      pop\n      mload(0x40)\n      dup1\n      swap2\n      sub\n      swap1\n      revert\n    tag_129:\n        /* \"contracts/owner/Operator.sol\":970:1001  _transferOperator(newOperator_) */\n      tag_131\n        /* \"contracts/owner/Operator.sol\":988:1000  newOperator_ */\n      dup2\n        /* \"contracts/owner/Operator.sol\":970:987  _transferOperator */\n      tag_132\n        /* \"contracts/owner/Operator.sol\":970:1001  _transferOperator(newOperator_) */\n      jump\t// in\n    tag_131:\n        /* \"contracts/owner/Operator.sol\":894:1009  function transferOperator(address newOperator_) public onlyOwner {\r... */\n      pop\n      jump\t// out\n        /* \"contracts/distribution/TShareRewardPool.sol\":8351:9161  function withdraw(uint256 _pid, uint256 _amount) public {\r... */\n    tag_52:\n        /* \"contracts/distribution/TShareRewardPool.sol\":8418:8433  address _sender */\n      0x00\n        /* \"contracts/distribution/TShareRewardPool.sol\":8436:8446  msg.sender */\n      caller\n        /* \"contracts/distribution/TShareRewardPool.sol\":8418:8446  address _sender = msg.sender */\n      swap1\n      pop\n        /* \"contracts/distribution/TShareRewardPool.sol\":8457:8478  PoolInfo storage pool */\n      0x00\n        /* \"contracts/distribution/TShareRewardPool.sol\":8481:8489  poolInfo */\n      0x03\n        /* \"contracts/distribution/TShareRewardPool.sol\":8490:8494  _pid */\n      dup5\n        /* \"contracts/distribution/TShareRewardPool.sol\":8481:8495  poolInfo[_pid] */\n      dup2\n      sload\n      dup2\n      lt\n      tag_134\n      jumpi\n      invalid\n    tag_134:\n      swap1\n      0x00\n      mstore\n      keccak256(0x00, 0x20)\n      swap1\n      0x05\n      mul\n      add\n        /* \"contracts/distribution/TShareRewardPool.sol\":8457:8495  PoolInfo storage pool = poolInfo[_pid] */\n      swap1\n      pop\n        /* \"contracts/distribution/TShareRewardPool.sol\":8506:8527  UserInfo storage user */\n      0x00\n        /* \"contracts/distribution/TShareRewardPool.sol\":8530:8538  userInfo */\n      0x04\n        /* \"contracts/distribution/TShareRewardPool.sol\":8530:8544  userInfo[_pid] */\n      0x00\n        /* \"contracts/distribution/TShareRewardPool.sol\":8539:8543  _pid */\n      dup7\n        /* \"contracts/distribution/TShareRewardPool.sol\":8530:8544  userInfo[_pid] */\n      dup2\n      mstore\n      0x20\n      add\n      swap1\n      dup2\n      mstore\n      0x20\n      add\n      0x00\n      keccak256\n        /* \"contracts/distribution/TShareRewardPool.sol\":8530:8553  userInfo[_pid][_sender] */\n      0x00\n        /* \"contracts/distribution/TShareRewardPool.sol\":8545:8552  _sender */\n      dup5\n        /* \"contracts/distribution/TShareRewardPool.sol\":8530:8553  userInfo[_pid][_sender] */\n      0xffffffffffffffffffffffffffffffffffffffff\n      and\n      0xffffffffffffffffffffffffffffffffffffffff\n      and\n      dup2\n      mstore\n      0x20\n      add\n      swap1\n      dup2\n      mstore\n      0x20\n      add\n      0x00\n      keccak256\n        /* \"contracts/distribution/TShareRewardPool.sol\":8506:8553  UserInfo storage user = userInfo[_pid][_sender] */\n      swap1\n      pop\n        /* \"contracts/distribution/TShareRewardPool.sol\":8587:8594  _amount */\n      dup4\n        /* \"contracts/distribution/TShareRewardPool.sol\":8572:8576  user */\n      dup2\n        /* \"contracts/distribution/TShareRewardPool.sol\":8572:8583  user.amount */\n      0x00\n      add\n      sload\n        /* \"contracts/distribution/TShareRewardPool.sol\":8572:8594  user.amount >= _amount */\n      lt\n      iszero\n        /* \"contracts/distribution/TShareRewardPool.sol\":8564:8617  require(user.amount >= _amount, \"withdraw: not good\") */\n      tag_136\n      jumpi\n      mload(0x40)\n      0x08c379a000000000000000000000000000000000000000000000000000000000\n      dup2\n      mstore\n      0x04\n      add\n      dup1\n      dup1\n      0x20\n      add\n      dup3\n      dup2\n      sub\n      dup3\n      mstore\n      0x12\n      dup2\n      mstore\n      0x20\n      add\n      dup1\n      0x77697468647261773a206e6f7420676f6f640000000000000000000000000000\n      dup2\n      mstore\n      pop\n      0x20\n      add\n      swap2\n      pop\n      pop\n      mload(0x40)\n      dup1\n      swap2\n      sub\n      swap1\n      revert\n    tag_136:\n        /* \"contracts/distribution/TShareRewardPool.sol\":8628:8644  updatePool(_pid) */\n      tag_137\n        /* \"contracts/distribution/TShareRewardPool.sol\":8639:8643  _pid */\n      dup6\n        /* \"contracts/distribution/TShareRewardPool.sol\":8628:8638  updatePool */\n      tag_57\n        /* \"contracts/distribution/TShareRewardPool.sol\":8628:8644  updatePool(_pid) */\n      jump\t// in\n    tag_137:\n        /* \"contracts/distribution/TShareRewardPool.sol\":8655:8671  uint256 _pending */\n      0x00\n        /* \"contracts/distribution/TShareRewardPool.sol\":8674:8742  user.amount.mul(pool.accRockPerShare).div(1e18).sub(user.rewardDebt) */\n      tag_138\n        /* \"contracts/distribution/TShareRewardPool.sol\":8726:8730  user */\n      dup3\n        /* \"contracts/distribution/TShareRewardPool.sol\":8726:8741  user.rewardDebt */\n      0x01\n      add\n      sload\n        /* \"contracts/distribution/TShareRewardPool.sol\":8674:8721  user.amount.mul(pool.accRockPerShare).div(1e18) */\n      tag_139\n        /* \"contracts/distribution/TShareRewardPool.sol\":8716:8720  1e18 */\n      0x0de0b6b3a7640000\n        /* \"contracts/distribution/TShareRewardPool.sol\":8674:8711  user.amount.mul(pool.accRockPerShare) */\n      tag_140\n        /* \"contracts/distribution/TShareRewardPool.sol\":8690:8694  pool */\n      dup8\n        /* \"contracts/distribution/TShareRewardPool.sol\":8690:8710  pool.accRockPerShare */\n      0x03\n      add\n      sload\n        /* \"contracts/distribution/TShareRewardPool.sol\":8674:8678  user */\n      dup8\n        /* \"contracts/distribution/TShareRewardPool.sol\":8674:8685  user.amount */\n      0x00\n      add\n      sload\n        /* \"contracts/distribution/TShareRewardPool.sol\":8674:8689  user.amount.mul */\n      tag_115\n      swap1\n        /* \"contracts/distribution/TShareRewardPool.sol\":8674:8711  user.amount.mul(pool.accRockPerShare) */\n      swap2\n      swap1\n      0xffffffff\n      and\n      jump\t// in\n    tag_140:\n        /* \"contracts/distribution/TShareRewardPool.sol\":8674:8715  user.amount.mul(pool.accRockPerShare).div */\n      tag_141\n      swap1\n        /* \"contracts/distribution/TShareRewardPool.sol\":8674:8721  user.amount.mul(pool.accRockPerShare).div(1e18) */\n      swap2\n      swap1\n      0xffffffff\n      and\n      jump\t// in\n    tag_139:\n        /* \"contracts/distribution/TShareRewardPool.sol\":8674:8725  user.amount.mul(pool.accRockPerShare).div(1e18).sub */\n      tag_106\n      swap1\n        /* \"contracts/distribution/TShareRewardPool.sol\":8674:8742  user.amount.mul(pool.accRockPerShare).div(1e18).sub(user.rewardDebt) */\n      swap2\n      swap1\n      0xffffffff\n      and\n      jump\t// in\n    tag_138:\n        /* \"contracts/distribution/TShareRewardPool.sol\":8655:8742  uint256 _pending = user.amount.mul(pool.accRockPerShare).div(1e18).sub(user.rewardDebt) */\n      swap1\n      pop\n        /* \"contracts/distribution/TShareRewardPool.sol\":8768:8769  0 */\n      0x00\n        /* \"contracts/distribution/TShareRewardPool.sol\":8757:8765  _pending */\n      dup2\n        /* \"contracts/distribution/TShareRewardPool.sol\":8757:8769  _pending > 0 */\n      gt\n        /* \"contracts/distribution/TShareRewardPool.sol\":8753:8882  if (_pending > 0) {\r... */\n      iszero\n      tag_142\n      jumpi\n        /* \"contracts/distribution/TShareRewardPool.sol\":8786:8821  safeRockTransfer(_sender, _pending) */\n      tag_143\n        /* \"contracts/distribution/TShareRewardPool.sol\":8803:8810  _sender */\n      dup5\n        /* \"contracts/distribution/TShareRewardPool.sol\":8812:8820  _pending */\n      dup3\n        /* \"contracts/distribution/TShareRewardPool.sol\":8786:8802  safeRockTransfer */\n      tag_144\n        /* \"contracts/distribution/TShareRewardPool.sol\":8786:8821  safeRockTransfer(_sender, _pending) */\n      jump\t// in\n    tag_143:\n        /* \"contracts/distribution/TShareRewardPool.sol\":8852:8859  _sender */\n      dup4\n        /* \"contracts/distribution/TShareRewardPool.sol\":8841:8870  RewardPaid(_sender, _pending) */\n      0xffffffffffffffffffffffffffffffffffffffff\n      and\n      0xe2403640ba68fed3a2f88b7557551d1993f84b99bb10ff833f0cf8db0c5e0486\n        /* \"contracts/distribution/TShareRewardPool.sol\":8861:8869  _pending */\n      dup3\n        /* \"contracts/distribution/TShareRewardPool.sol\":8841:8870  RewardPaid(_sender, _pending) */\n      mload(0x40)\n      dup1\n      dup3\n      dup2\n      mstore\n      0x20\n      add\n      swap2\n      pop\n      pop\n      mload(0x40)\n      dup1\n      swap2\n      sub\n      swap1\n      log2\n        /* \"contracts/distribution/TShareRewardPool.sol\":8753:8882  if (_pending > 0) {\r... */\n    tag_142:\n        /* \"contracts/distribution/TShareRewardPool.sol\":8906:8907  0 */\n      0x00\n        /* \"contracts/distribution/TShareRewardPool.sol\":8896:8903  _amount */\n      dup6\n        /* \"contracts/distribution/TShareRewardPool.sol\":8896:8907  _amount > 0 */\n      gt\n        /* \"contracts/distribution/TShareRewardPool.sol\":8892:9030  if (_amount > 0) {\r... */\n      iszero\n      tag_145\n      jumpi\n        /* \"contracts/distribution/TShareRewardPool.sol\":8938:8962  user.amount.sub(_amount) */\n      tag_146\n        /* \"contracts/distribution/TShareRewardPool.sol\":8954:8961  _amount */\n      dup6\n        /* \"contracts/distribution/TShareRewardPool.sol\":8938:8942  user */\n      dup4\n        /* \"contracts/distribution/TShareRewardPool.sol\":8938:8949  user.amount */\n      0x00\n      add\n      sload\n        /* \"contracts/distribution/TShareRewardPool.sol\":8938:8953  user.amount.sub */\n      tag_106\n      swap1\n        /* \"contracts/distribution/TShareRewardPool.sol\":8938:8962  user.amount.sub(_amount) */\n      swap2\n      swap1\n      0xffffffff\n      and\n      jump\t// in\n    tag_146:\n        /* \"contracts/distribution/TShareRewardPool.sol\":8924:8928  user */\n      dup3\n        /* \"contracts/distribution/TShareRewardPool.sol\":8924:8935  user.amount */\n      0x00\n      add\n        /* \"contracts/distribution/TShareRewardPool.sol\":8924:8962  user.amount = user.amount.sub(_amount) */\n      dup2\n      swap1\n      sstore\n      pop\n        /* \"contracts/distribution/TShareRewardPool.sol\":8977:9018  pool.token.safeTransfer(_sender, _amount) */\n      tag_147\n        /* \"contracts/distribution/TShareRewardPool.sol\":9001:9008  _sender */\n      dup5\n        /* \"contracts/distribution/TShareRewardPool.sol\":9010:9017  _amount */\n      dup7\n        /* \"contracts/distribution/TShareRewardPool.sol\":8977:8981  pool */\n      dup6\n        /* \"contracts/distribution/TShareRewardPool.sol\":8977:8987  pool.token */\n      0x00\n      add\n      0x00\n      swap1\n      sload\n      swap1\n      0x0100\n      exp\n      swap1\n      div\n      0xffffffffffffffffffffffffffffffffffffffff\n      and\n        /* \"contracts/distribution/TShareRewardPool.sol\":8977:9000  pool.token.safeTransfer */\n      0xffffffffffffffffffffffffffffffffffffffff\n      and\n      tag_148\n      swap1\n        /* \"contracts/distribution/TShareRewardPool.sol\":8977:9018  pool.token.safeTransfer(_sender, _amount) */\n      swap3\n      swap2\n      swap1\n      0xffffffff\n      and\n      jump\t// in\n    tag_147:\n        /* \"contracts/distribution/TShareRewardPool.sol\":8892:9030  if (_amount > 0) {\r... */\n    tag_145:\n        /* \"contracts/distribution/TShareRewardPool.sol\":9058:9105  user.amount.mul(pool.accRockPerShare).div(1e18) */\n      tag_149\n        /* \"contracts/distribution/TShareRewardPool.sol\":9100:9104  1e18 */\n      0x0de0b6b3a7640000\n        /* \"contracts/distribution/TShareRewardPool.sol\":9058:9095  user.amount.mul(pool.accRockPerShare) */\n      tag_150\n        /* \"contracts/distribution/TShareRewardPool.sol\":9074:9078  pool */\n      dup6\n        /* \"contracts/distribution/TShareRewardPool.sol\":9074:9094  pool.accRockPerShare */\n      0x03\n      add\n      sload\n        /* \"contracts/distribution/TShareRewardPool.sol\":9058:9062  user */\n      dup6\n        /* \"contracts/distribution/TShareRewardPool.sol\":9058:9069  user.amount */\n      0x00\n      add\n      sload\n        /* \"contracts/distribution/TShareRewardPool.sol\":9058:9073  user.amount.mul */\n      tag_115\n      swap1\n        /* \"contracts/distribution/TShareRewardPool.sol\":9058:9095  user.amount.mul(pool.accRockPerShare) */\n      swap2\n      swap1\n      0xffffffff\n      and\n      jump\t// in\n    tag_150:\n        /* \"contracts/distribution/TShareRewardPool.sol\":9058:9099  user.amount.mul(pool.accRockPerShare).div */\n      tag_141\n      swap1\n        /* \"contracts/distribution/TShareRewardPool.sol\":9058:9105  user.amount.mul(pool.accRockPerShare).div(1e18) */\n      swap2\n      swap1\n      0xffffffff\n      and\n      jump\t// in\n    tag_149:\n        /* \"contracts/distribution/TShareRewardPool.sol\":9040:9044  user */\n      dup3\n        /* \"contracts/distribution/TShareRewardPool.sol\":9040:9055  user.rewardDebt */\n      0x01\n      add\n        /* \"contracts/distribution/TShareRewardPool.sol\":9040:9105  user.rewardDebt = user.amount.mul(pool.accRockPerShare).div(1e18) */\n      dup2\n      swap1\n      sstore\n      pop\n        /* \"contracts/distribution/TShareRewardPool.sol\":9139:9143  _pid */\n      dup6\n        /* \"contracts/distribution/TShareRewardPool.sol\":9130:9137  _sender */\n      dup5\n        /* \"contracts/distribution/TShareRewardPool.sol\":9121:9153  Withdraw(_sender, _pid, _amount) */\n      0xffffffffffffffffffffffffffffffffffffffff\n      and\n      0xf279e6a1f5e320cca91135676d9cb6e44ca8a08c0b88342bcdb1144f6511b568\n        /* \"contracts/distribution/TShareRewardPool.sol\":9145:9152  _amount */\n      dup8\n        /* \"contracts/distribution/TShareRewardPool.sol\":9121:9153  Withdraw(_sender, _pid, _amount) */\n      mload(0x40)\n      dup1\n      dup3\n      dup2\n      mstore\n      0x20\n      add\n      swap2\n      pop\n      pop\n      mload(0x40)\n      dup1\n      swap2\n      sub\n      swap1\n      log3\n        /* \"contracts/distribution/TShareRewardPool.sol\":8351:9161  function withdraw(uint256 _pid, uint256 _amount) public {\r... */\n      pop\n      pop\n      pop\n      pop\n      pop\n      pop\n      jump\t// out\n        /* \"contracts/owner/Operator.sol\":786:886  function isOperator() public view returns (bool) {\r... */\n    tag_54:\n        /* \"contracts/owner/Operator.sol\":829:833  bool */\n      0x00\n        /* \"contracts/owner/Operator.sol\":869:878  _operator */\n      0x01\n      0x00\n      swap1\n      sload\n      swap1\n      0x0100\n      exp\n      swap1\n      div\n      0xffffffffffffffffffffffffffffffffffffffff\n      and\n        /* \"contracts/owner/Operator.sol\":853:878  _msgSender() == _operator */\n      0xffffffffffffffffffffffffffffffffffffffff\n      and\n        /* \"contracts/owner/Operator.sol\":853:865  _msgSender() */\n      tag_152\n        /* \"contracts/owner/Operator.sol\":853:863  _msgSender */\n      tag_127\n        /* \"contracts/owner/Operator.sol\":853:865  _msgSender() */\n      jump\t// in\n    tag_152:\n        /* \"contracts/owner/Operator.sol\":853:878  _msgSender() == _operator */\n      0xffffffffffffffffffffffffffffffffffffffff\n      and\n      eq\n        /* \"contracts/owner/Operator.sol\":846:878  return _msgSender() == _operator */\n      swap1\n      pop\n        /* \"contracts/owner/Operator.sol\":786:886  function isOperator() public view returns (bool) {\r... */\n      swap1\n      jump\t// out\n        /* \"contracts/distribution/TShareRewardPool.sol\":6546:7454  function updatePool(uint256 _pid) public {\r... */\n    tag_57:\n        /* \"contracts/distribution/TShareRewardPool.sol\":6598:6619  PoolInfo storage pool */\n      0x00\n        /* \"contracts/distribution/TShareRewardPool.sol\":6622:6630  poolInfo */\n      0x03\n        /* \"contracts/distribution/TShareRewardPool.sol\":6631:6635  _pid */\n      dup3\n        /* \"contracts/distribution/TShareRewardPool.sol\":6622:6636  poolInfo[_pid] */\n      dup2\n      sload\n      dup2\n      lt\n      tag_154\n      jumpi\n      invalid\n    tag_154:\n      swap1\n      0x00\n      mstore\n      keccak256(0x00, 0x20)\n      swap1\n      0x05\n      mul\n      add\n        /* \"contracts/distribution/TShareRewardPool.sol\":6598:6636  PoolInfo storage pool = poolInfo[_pid] */\n      swap1\n      pop\n        /* \"contracts/distribution/TShareRewardPool.sol\":6670:6674  pool */\n      dup1\n        /* \"contracts/distribution/TShareRewardPool.sol\":6670:6689  pool.lastRewardTime */\n      0x02\n      add\n      sload\n        /* \"contracts/distribution/TShareRewardPool.sol\":6651:6666  block.timestamp */\n      timestamp\n        /* \"contracts/distribution/TShareRewardPool.sol\":6651:6689  block.timestamp <= pool.lastRewardTime */\n      gt\n        /* \"contracts/distribution/TShareRewardPool.sol\":6647:6724  if (block.timestamp <= pool.lastRewardTime) {\r... */\n      tag_156\n      jumpi\n        /* \"contracts/distribution/TShareRewardPool.sol\":6706:6713  return; */\n      pop\n      jump(tag_153)\n        /* \"contracts/distribution/TShareRewardPool.sol\":6647:6724  if (block.timestamp <= pool.lastRewardTime) {\r... */\n    tag_156:\n        /* \"contracts/distribution/TShareRewardPool.sol\":6734:6753  uint256 tokenSupply */\n      0x00\n        /* \"contracts/distribution/TShareRewardPool.sol\":6756:6760  pool */\n      dup2\n        /* \"contracts/distribution/TShareRewardPool.sol\":6756:6766  pool.token */\n      0x00\n      add\n      0x00\n      swap1\n      sload\n      swap1\n      0x0100\n      exp\n      swap1\n      div\n      0xffffffffffffffffffffffffffffffffffffffff\n      and\n        /* \"contracts/distribution/TShareRewardPool.sol\":6756:6776  pool.token.balanceOf */\n      0xffffffffffffffffffffffffffffffffffffffff\n      and\n      0x70a08231\n        /* \"contracts/distribution/TShareRewardPool.sol\":6785:6789  this */\n      address\n        /* \"contracts/distribution/TShareRewardPool.sol\":6756:6791  pool.token.balanceOf(address(this)) */\n      mload(0x40)\n      dup3\n      0xffffffff\n      and\n      0xe0\n      shl\n      dup2\n      mstore\n      0x04\n      add\n      dup1\n      dup3\n      0xffffffffffffffffffffffffffffffffffffffff\n      and\n      dup2\n      mstore\n      0x20\n      add\n      swap2\n      pop\n      pop\n      0x20\n      mload(0x40)\n      dup1\n      dup4\n      sub\n      dup2\n      dup7\n      dup1\n      extcodesize\n      iszero\n      dup1\n      iszero\n      tag_157\n      jumpi\n      0x00\n      dup1\n      revert\n    tag_157:\n      pop\n      gas\n      staticcall\n      iszero\n      dup1\n      iszero\n      tag_159\n      jumpi\n      returndatasize\n      0x00\n      dup1\n      returndatacopy\n      revert(0x00, returndatasize)\n    tag_159:\n      pop\n      pop\n      pop\n      pop\n      mload(0x40)\n      returndatasize\n      0x20\n      dup2\n      lt\n      iszero\n      tag_160\n      jumpi\n      0x00\n      dup1\n      revert\n    tag_160:\n      dup2\n      add\n      swap1\n      dup1\n      dup1\n      mload\n      swap1\n      0x20\n      add\n      swap1\n      swap3\n      swap2\n      swap1\n      pop\n      pop\n      pop\n        /* \"contracts/distribution/TShareRewardPool.sol\":6734:6791  uint256 tokenSupply = pool.token.balanceOf(address(this)) */\n      swap1\n      pop\n        /* \"contracts/distribution/TShareRewardPool.sol\":6821:6822  0 */\n      0x00\n        /* \"contracts/distribution/TShareRewardPool.sol\":6806:6817  tokenSupply */\n      dup2\n        /* \"contracts/distribution/TShareRewardPool.sol\":6806:6822  tokenSupply == 0 */\n      eq\n        /* \"contracts/distribution/TShareRewardPool.sol\":6802:6909  if (tokenSupply == 0) {\r... */\n      iszero\n      tag_161\n      jumpi\n        /* \"contracts/distribution/TShareRewardPool.sol\":6861:6876  block.timestamp */\n      timestamp\n        /* \"contracts/distribution/TShareRewardPool.sol\":6839:6843  pool */\n      dup3\n        /* \"contracts/distribution/TShareRewardPool.sol\":6839:6858  pool.lastRewardTime */\n      0x02\n      add\n        /* \"contracts/distribution/TShareRewardPool.sol\":6839:6876  pool.lastRewardTime = block.timestamp */\n      dup2\n      swap1\n      sstore\n      pop\n        /* \"contracts/distribution/TShareRewardPool.sol\":6891:6898  return; */\n      pop\n      pop\n      jump(tag_153)\n        /* \"contracts/distribution/TShareRewardPool.sol\":6802:6909  if (tokenSupply == 0) {\r... */\n    tag_161:\n        /* \"contracts/distribution/TShareRewardPool.sol\":6924:6928  pool */\n      dup2\n        /* \"contracts/distribution/TShareRewardPool.sol\":6924:6938  pool.isStarted */\n      0x04\n      add\n      0x00\n      swap1\n      sload\n      swap1\n      0x0100\n      exp\n      swap1\n      div\n      0xff\n      and\n        /* \"contracts/distribution/TShareRewardPool.sol\":6919:7057  if (!pool.isStarted) {\r... */\n      tag_162\n      jumpi\n        /* \"contracts/distribution/TShareRewardPool.sol\":6972:6976  true */\n      0x01\n        /* \"contracts/distribution/TShareRewardPool.sol\":6955:6959  pool */\n      dup3\n        /* \"contracts/distribution/TShareRewardPool.sol\":6955:6969  pool.isStarted */\n      0x04\n      add\n      0x00\n        /* \"contracts/distribution/TShareRewardPool.sol\":6955:6976  pool.isStarted = true */\n      0x0100\n      exp\n      dup2\n      sload\n      dup2\n      0xff\n      mul\n      not\n      and\n      swap1\n      dup4\n      iszero\n      iszero\n      mul\n      or\n      swap1\n      sstore\n      pop\n        /* \"contracts/distribution/TShareRewardPool.sol\":7009:7045  totalAllocPoint.add(pool.allocPoint) */\n      tag_163\n        /* \"contracts/distribution/TShareRewardPool.sol\":7029:7033  pool */\n      dup3\n        /* \"contracts/distribution/TShareRewardPool.sol\":7029:7044  pool.allocPoint */\n      0x01\n      add\n      sload\n        /* \"contracts/distribution/TShareRewardPool.sol\":7009:7024  totalAllocPoint */\n      sload(0x05)\n        /* \"contracts/distribution/TShareRewardPool.sol\":7009:7028  totalAllocPoint.add */\n      tag_107\n      swap1\n        /* \"contracts/distribution/TShareRewardPool.sol\":7009:7045  totalAllocPoint.add(pool.allocPoint) */\n      swap2\n      swap1\n      0xffffffff\n      and\n      jump\t// in\n    tag_163:\n        /* \"contracts/distribution/TShareRewardPool.sol\":6991:7006  totalAllocPoint */\n      0x05\n        /* \"contracts/distribution/TShareRewardPool.sol\":6991:7045  totalAllocPoint = totalAllocPoint.add(pool.allocPoint) */\n      dup2\n      swap1\n      sstore\n      pop\n        /* \"contracts/distribution/TShareRewardPool.sol\":6919:7057  if (!pool.isStarted) {\r... */\n    tag_162:\n        /* \"contracts/distribution/TShareRewardPool.sol\":7089:7090  0 */\n      0x00\n        /* \"contracts/distribution/TShareRewardPool.sol\":7071:7086  totalAllocPoint */\n      sload(0x05)\n        /* \"contracts/distribution/TShareRewardPool.sol\":7071:7090  totalAllocPoint > 0 */\n      gt\n        /* \"contracts/distribution/TShareRewardPool.sol\":7067:7399  if (totalAllocPoint > 0) {\r... */\n      iszero\n      tag_164\n      jumpi\n        /* \"contracts/distribution/TShareRewardPool.sol\":7107:7131  uint256 _generatedReward */\n      0x00\n        /* \"contracts/distribution/TShareRewardPool.sol\":7134:7190  getGeneratedReward(pool.lastRewardTime, block.timestamp) */\n      tag_165\n        /* \"contracts/distribution/TShareRewardPool.sol\":7153:7157  pool */\n      dup4\n        /* \"contracts/distribution/TShareRewardPool.sol\":7153:7172  pool.lastRewardTime */\n      0x02\n      add\n      sload\n        /* \"contracts/distribution/TShareRewardPool.sol\":7174:7189  block.timestamp */\n      timestamp\n        /* \"contracts/distribution/TShareRewardPool.sol\":7134:7152  getGeneratedReward */\n      tag_46\n        /* \"contracts/distribution/TShareRewardPool.sol\":7134:7190  getGeneratedReward(pool.lastRewardTime, block.timestamp) */\n      jump\t// in\n    tag_165:\n        /* \"contracts/distribution/TShareRewardPool.sol\":7107:7190  uint256 _generatedReward = getGeneratedReward(pool.lastRewardTime, block.timestamp) */\n      swap1\n      pop\n        /* \"contracts/distribution/TShareRewardPool.sol\":7205:7224  uint256 _RockReward */\n      0x00\n        /* \"contracts/distribution/TShareRewardPool.sol\":7227:7285  _generatedReward.mul(pool.allocPoint).div(totalAllocPoint) */\n      tag_166\n        /* \"contracts/distribution/TShareRewardPool.sol\":7269:7284  totalAllocPoint */\n      sload(0x05)\n        /* \"contracts/distribution/TShareRewardPool.sol\":7227:7264  _generatedReward.mul(pool.allocPoint) */\n      tag_167\n        /* \"contracts/distribution/TShareRewardPool.sol\":7248:7252  pool */\n      dup7\n        /* \"contracts/distribution/TShareRewardPool.sol\":7248:7263  pool.allocPoint */\n      0x01\n      add\n      sload\n        /* \"contracts/distribution/TShareRewardPool.sol\":7227:7243  _generatedReward */\n      dup6\n        /* \"contracts/distribution/TShareRewardPool.sol\":7227:7247  _generatedReward.mul */\n      tag_115\n      swap1\n        /* \"contracts/distribution/TShareRewardPool.sol\":7227:7264  _generatedReward.mul(pool.allocPoint) */\n      swap2\n      swap1\n      0xffffffff\n      and\n      jump\t// in\n    tag_167:\n        /* \"contracts/distribution/TShareRewardPool.sol\":7227:7268  _generatedReward.mul(pool.allocPoint).div */\n      tag_141\n      swap1\n        /* \"contracts/distribution/TShareRewardPool.sol\":7227:7285  _generatedReward.mul(pool.allocPoint).div(totalAllocPoint) */\n      swap2\n      swap1\n      0xffffffff\n      and\n      jump\t// in\n    tag_166:\n        /* \"contracts/distribution/TShareRewardPool.sol\":7205:7285  uint256 _RockReward = _generatedReward.mul(pool.allocPoint).div(totalAllocPoint) */\n      swap1\n      pop\n        /* \"contracts/distribution/TShareRewardPool.sol\":7323:7387  pool.accRockPerShare.add(_RockReward.mul(1e18).div(tokenSupply)) */\n      tag_168\n        /* \"contracts/distribution/TShareRewardPool.sol\":7348:7386  _RockReward.mul(1e18).div(tokenSupply) */\n      tag_169\n        /* \"contracts/distribution/TShareRewardPool.sol\":7374:7385  tokenSupply */\n      dup5\n        /* \"contracts/distribution/TShareRewardPool.sol\":7348:7369  _RockReward.mul(1e18) */\n      tag_170\n        /* \"contracts/distribution/TShareRewardPool.sol\":7364:7368  1e18 */\n      0x0de0b6b3a7640000\n        /* \"contracts/distribution/TShareRewardPool.sol\":7348:7359  _RockReward */\n      dup6\n        /* \"contracts/distribution/TShareRewardPool.sol\":7348:7363  _RockReward.mul */\n      tag_115\n      swap1\n        /* \"contracts/distribution/TShareRewardPool.sol\":7348:7369  _RockReward.mul(1e18) */\n      swap2\n      swap1\n      0xffffffff\n      and\n      jump\t// in\n    tag_170:\n        /* \"contracts/distribution/TShareRewardPool.sol\":7348:7373  _RockReward.mul(1e18).div */\n      tag_141\n      swap1\n        /* \"contracts/distribution/TShareRewardPool.sol\":7348:7386  _RockReward.mul(1e18).div(tokenSupply) */\n      swap2\n      swap1\n      0xffffffff\n      and\n      jump\t// in\n    tag_169:\n        /* \"contracts/distribution/TShareRewardPool.sol\":7323:7327  pool */\n      dup6\n        /* \"contracts/distribution/TShareRewardPool.sol\":7323:7343  pool.accRockPerShare */\n      0x03\n      add\n      sload\n        /* \"contracts/distribution/TShareRewardPool.sol\":7323:7347  pool.accRockPerShare.add */\n      tag_107\n      swap1\n        /* \"contracts/distribution/TShareRewardPool.sol\":7323:7387  pool.accRockPerShare.add(_RockReward.mul(1e18).div(tokenSupply)) */\n      swap2\n      swap1\n      0xffffffff\n      and\n      jump\t// in\n    tag_168:\n        /* \"contracts/distribution/TShareRewardPool.sol\":7300:7304  pool */\n      dup5\n        /* \"contracts/distribution/TShareRewardPool.sol\":7300:7320  pool.accRockPerShare */\n      0x03\n      add\n        /* \"contracts/distribution/TShareRewardPool.sol\":7300:7387  pool.accRockPerShare = pool.accRockPerShare.add(_RockReward.mul(1e18).div(tokenSupply)) */\n      dup2\n      swap1\n      sstore\n      pop\n        /* \"contracts/distribution/TShareRewardPool.sol\":7067:7399  if (totalAllocPoint > 0) {\r... */\n      pop\n      pop\n    tag_164:\n        /* \"contracts/distribution/TShareRewardPool.sol\":7431:7446  block.timestamp */\n      timestamp\n        /* \"contracts/distribution/TShareRewardPool.sol\":7409:7413  pool */\n      dup3\n        /* \"contracts/distribution/TShareRewardPool.sol\":7409:7428  pool.lastRewardTime */\n      0x02\n      add\n        /* \"contracts/distribution/TShareRewardPool.sol\":7409:7446  pool.lastRewardTime = block.timestamp */\n      dup2\n      swap1\n      sstore\n      pop\n        /* \"contracts/distribution/TShareRewardPool.sol\":6546:7454  function updatePool(uint256 _pid) public {\r... */\n      pop\n      pop\n    tag_153:\n      pop\n      jump\t// out\n        /* \"contracts/distribution/TShareRewardPool.sol\":9232:9609  function emergencyWithdraw(uint256 _pid) public {\r... */\n    tag_60:\n        /* \"contracts/distribution/TShareRewardPool.sol\":9291:9312  PoolInfo storage pool */\n      0x00\n        /* \"contracts/distribution/TShareRewardPool.sol\":9315:9323  poolInfo */\n      0x03\n        /* \"contracts/distribution/TShareRewardPool.sol\":9324:9328  _pid */\n      dup3\n        /* \"contracts/distribution/TShareRewardPool.sol\":9315:9329  poolInfo[_pid] */\n      dup2\n      sload\n      dup2\n      lt\n      tag_172\n      jumpi\n      invalid\n    tag_172:\n      swap1\n      0x00\n      mstore\n      keccak256(0x00, 0x20)\n      swap1\n      0x05\n      mul\n      add\n        /* \"contracts/distribution/TShareRewardPool.sol\":9291:9329  PoolInfo storage pool = poolInfo[_pid] */\n      swap1\n      pop\n        /* \"contracts/distribution/TShareRewardPool.sol\":9340:9361  UserInfo storage user */\n      0x00\n        /* \"contracts/distribution/TShareRewardPool.sol\":9364:9372  userInfo */\n      0x04\n        /* \"contracts/distribution/TShareRewardPool.sol\":9364:9378  userInfo[_pid] */\n      0x00\n        /* \"contracts/distribution/TShareRewardPool.sol\":9373:9377  _pid */\n      dup5\n        /* \"contracts/distribution/TShareRewardPool.sol\":9364:9378  userInfo[_pid] */\n      dup2\n      mstore\n      0x20\n      add\n      swap1\n      dup2\n      mstore\n      0x20\n      add\n      0x00\n      keccak256\n        /* \"contracts/distribution/TShareRewardPool.sol\":9364:9390  userInfo[_pid][msg.sender] */\n      0x00\n        /* \"contracts/distribution/TShareRewardPool.sol\":9379:9389  msg.sender */\n      caller\n        /* \"contracts/distribution/TShareRewardPool.sol\":9364:9390  userInfo[_pid][msg.sender] */\n      0xffffffffffffffffffffffffffffffffffffffff\n      and\n      0xffffffffffffffffffffffffffffffffffffffff\n      and\n      dup2\n      mstore\n      0x20\n      add\n      swap1\n      dup2\n      mstore\n      0x20\n      add\n      0x00\n      keccak256\n        /* \"contracts/distribution/TShareRewardPool.sol\":9340:9390  UserInfo storage user = userInfo[_pid][msg.sender] */\n      swap1\n      pop\n        /* \"contracts/distribution/TShareRewardPool.sol\":9401:9416  uint256 _amount */\n      0x00\n        /* \"contracts/distribution/TShareRewardPool.sol\":9419:9423  user */\n      dup2\n        /* \"contracts/distribution/TShareRewardPool.sol\":9419:9430  user.amount */\n      0x00\n      add\n      sload\n        /* \"contracts/distribution/TShareRewardPool.sol\":9401:9430  uint256 _amount = user.amount */\n      swap1\n      pop\n        /* \"contracts/distribution/TShareRewardPool.sol\":9455:9456  0 */\n      0x00\n        /* \"contracts/distribution/TShareRewardPool.sol\":9441:9445  user */\n      dup3\n        /* \"contracts/distribution/TShareRewardPool.sol\":9441:9452  user.amount */\n      0x00\n      add\n        /* \"contracts/distribution/TShareRewardPool.sol\":9441:9456  user.amount = 0 */\n      dup2\n      swap1\n      sstore\n      pop\n        /* \"contracts/distribution/TShareRewardPool.sol\":9485:9486  0 */\n      0x00\n        /* \"contracts/distribution/TShareRewardPool.sol\":9467:9471  user */\n      dup3\n        /* \"contracts/distribution/TShareRewardPool.sol\":9467:9482  user.rewardDebt */\n      0x01\n      add\n        /* \"contracts/distribution/TShareRewardPool.sol\":9467:9486  user.rewardDebt = 0 */\n      dup2\n      swap1\n      sstore\n      pop\n        /* \"contracts/distribution/TShareRewardPool.sol\":9497:9541  pool.token.safeTransfer(msg.sender, _amount) */\n      tag_174\n        /* \"contracts/distribution/TShareRewardPool.sol\":9521:9531  msg.sender */\n      caller\n        /* \"contracts/distribution/TShareRewardPool.sol\":9533:9540  _amount */\n      dup3\n        /* \"contracts/distribution/TShareRewardPool.sol\":9497:9501  pool */\n      dup6\n        /* \"contracts/distribution/TShareRewardPool.sol\":9497:9507  pool.token */\n      0x00\n      add\n      0x00\n      swap1\n      sload\n      swap1\n      0x0100\n      exp\n      swap1\n      div\n      0xffffffffffffffffffffffffffffffffffffffff\n      and\n        /* \"contracts/distribution/TShareRewardPool.sol\":9497:9520  pool.token.safeTransfer */\n      0xffffffffffffffffffffffffffffffffffffffff\n      and\n      tag_148\n      swap1\n        /* \"contracts/distribution/TShareRewardPool.sol\":9497:9541  pool.token.safeTransfer(msg.sender, _amount) */\n      swap3\n      swap2\n      swap1\n      0xffffffff\n      and\n      jump\t// in\n    tag_174:\n        /* \"contracts/distribution/TShareRewardPool.sol\":9587:9591  _pid */\n      dup4\n        /* \"contracts/distribution/TShareRewardPool.sol\":9575:9585  msg.sender */\n      caller\n        /* \"contracts/distribution/TShareRewardPool.sol\":9557:9601  EmergencyWithdraw(msg.sender, _pid, _amount) */\n      0xffffffffffffffffffffffffffffffffffffffff\n      and\n      0xbb757047c2b5f3974fe26b7c10f732e7bce710b0952a71082702781e62ae0595\n        /* \"contracts/distribution/TShareRewardPool.sol\":9593:9600  _amount */\n      dup4\n        /* \"contracts/distribution/TShareRewardPool.sol\":9557:9601  EmergencyWithdraw(msg.sender, _pid, _amount) */\n      mload(0x40)\n      dup1\n      dup3\n      dup2\n      mstore\n      0x20\n      add\n      swap2\n      pop\n      pop\n      mload(0x40)\n      dup1\n      swap2\n      sub\n      swap1\n      log3\n        /* \"contracts/distribution/TShareRewardPool.sol\":9232:9609  function emergencyWithdraw(uint256 _pid) public {\r... */\n      pop\n      pop\n      pop\n      pop\n      jump\t// out\n        /* \"contracts/distribution/TShareRewardPool.sol\":10082:10686  function governanceRecoverUnsupported(IERC20 _token, uint256 amount, address to) external onlyOperator {\r... */\n    tag_63:\n        /* \"contracts/owner/Operator.sol\":684:694  msg.sender */\n      caller\n        /* \"contracts/owner/Operator.sol\":671:694  _operator == msg.sender */\n      0xffffffffffffffffffffffffffffffffffffffff\n      and\n        /* \"contracts/owner/Operator.sol\":671:680  _operator */\n      0x01\n      0x00\n      swap1\n      sload\n      swap1\n      0x0100\n      exp\n      swap1\n      div\n      0xffffffffffffffffffffffffffffffffffffffff\n      and\n        /* \"contracts/owner/Operator.sol\":671:694  _operator == msg.sender */\n      0xffffffffffffffffffffffffffffffffffffffff\n      and\n      eq\n        /* \"contracts/owner/Operator.sol\":649:758  require(\r... */\n      tag_176\n      jumpi\n      mload(0x40)\n      0x08c379a000000000000000000000000000000000000000000000000000000000\n      dup2\n      mstore\n      0x04\n      add\n      dup1\n      dup1\n      0x20\n      add\n      dup3\n      dup2\n      sub\n      dup3\n      mstore\n      0x24\n      dup2\n      mstore\n      0x20\n      add\n      dup1\n      data_a62bfdba5053072911b63b0f6325b0e83fcd28b5a847d97efdd966feb4daaafb\n      0x24\n      swap2\n      codecopy\n      0x40\n      add\n      swap2\n      pop\n      pop\n      mload(0x40)\n      dup1\n      swap2\n      sub\n      swap1\n      revert\n    tag_176:\n        /* \"contracts/distribution/TShareRewardPool.sol\":10232:10239  90 days */\n      0x76a700\n        /* \"contracts/distribution/TShareRewardPool.sol\":10218:10229  poolEndTime */\n      sload(0x07)\n        /* \"contracts/distribution/TShareRewardPool.sol\":10218:10239  poolEndTime + 90 days */\n      add\n        /* \"contracts/distribution/TShareRewardPool.sol\":10200:10215  block.timestamp */\n      timestamp\n        /* \"contracts/distribution/TShareRewardPool.sol\":10200:10239  block.timestamp < poolEndTime + 90 days */\n      lt\n        /* \"contracts/distribution/TShareRewardPool.sol\":10196:10637  if (block.timestamp < poolEndTime + 90 days) {\r... */\n      iszero\n      tag_178\n      jumpi\n        /* \"contracts/distribution/TShareRewardPool.sol\":10374:10378  Rock */\n      0x02\n      0x00\n      swap1\n      sload\n      swap1\n      0x0100\n      exp\n      swap1\n      div\n      0xffffffffffffffffffffffffffffffffffffffff\n      and\n        /* \"contracts/distribution/TShareRewardPool.sol\":10364:10378  _token != Rock */\n      0xffffffffffffffffffffffffffffffffffffffff\n      and\n        /* \"contracts/distribution/TShareRewardPool.sol\":10364:10370  _token */\n      dup4\n        /* \"contracts/distribution/TShareRewardPool.sol\":10364:10378  _token != Rock */\n      0xffffffffffffffffffffffffffffffffffffffff\n      and\n      eq\n      iszero\n        /* \"contracts/distribution/TShareRewardPool.sol\":10356:10387  require(_token != Rock, \"Rock\") */\n      tag_179\n      jumpi\n      mload(0x40)\n      0x08c379a000000000000000000000000000000000000000000000000000000000\n      dup2\n      mstore\n      0x04\n      add\n      dup1\n      dup1\n      0x20\n      add\n      dup3\n      dup2\n      sub\n      dup3\n      mstore\n      0x04\n      dup2\n      mstore\n      0x20\n      add\n      dup1\n      0x526f636b00000000000000000000000000000000000000000000000000000000\n      dup2\n      mstore\n      pop\n      0x20\n      add\n      swap2\n      pop\n      pop\n      mload(0x40)\n      dup1\n      swap2\n      sub\n      swap1\n      revert\n    tag_179:\n        /* \"contracts/distribution/TShareRewardPool.sol\":10402:10416  uint256 length */\n      0x00\n        /* \"contracts/distribution/TShareRewardPool.sol\":10419:10427  poolInfo */\n      0x03\n        /* \"contracts/distribution/TShareRewardPool.sol\":10419:10434  poolInfo.length */\n      dup1\n      sload\n      swap1\n      pop\n        /* \"contracts/distribution/TShareRewardPool.sol\":10402:10434  uint256 length = poolInfo.length */\n      swap1\n      pop\n        /* \"contracts/distribution/TShareRewardPool.sol\":10454:10465  uint256 pid */\n      0x00\n        /* \"contracts/distribution/TShareRewardPool.sol\":10449:10626  for (uint256 pid = 0; pid < length; ++pid) {\r... */\n    tag_180:\n        /* \"contracts/distribution/TShareRewardPool.sol\":10477:10483  length */\n      dup2\n        /* \"contracts/distribution/TShareRewardPool.sol\":10471:10474  pid */\n      dup2\n        /* \"contracts/distribution/TShareRewardPool.sol\":10471:10483  pid < length */\n      lt\n        /* \"contracts/distribution/TShareRewardPool.sol\":10449:10626  for (uint256 pid = 0; pid < length; ++pid) {\r... */\n      iszero\n      tag_181\n      jumpi\n        /* \"contracts/distribution/TShareRewardPool.sol\":10511:10532  PoolInfo storage pool */\n      0x00\n        /* \"contracts/distribution/TShareRewardPool.sol\":10535:10543  poolInfo */\n      0x03\n        /* \"contracts/distribution/TShareRewardPool.sol\":10544:10547  pid */\n      dup3\n        /* \"contracts/distribution/TShareRewardPool.sol\":10535:10548  poolInfo[pid] */\n      dup2\n      sload\n      dup2\n      lt\n      tag_183\n      jumpi\n      invalid\n    tag_183:\n      swap1\n      0x00\n      mstore\n      keccak256(0x00, 0x20)\n      swap1\n      0x05\n      mul\n      add\n        /* \"contracts/distribution/TShareRewardPool.sol\":10511:10548  PoolInfo storage pool = poolInfo[pid] */\n      swap1\n      pop\n        /* \"contracts/distribution/TShareRewardPool.sol\":10585:10589  pool */\n      dup1\n        /* \"contracts/distribution/TShareRewardPool.sol\":10585:10595  pool.token */\n      0x00\n      add\n      0x00\n      swap1\n      sload\n      swap1\n      0x0100\n      exp\n      swap1\n      div\n      0xffffffffffffffffffffffffffffffffffffffff\n      and\n        /* \"contracts/distribution/TShareRewardPool.sol\":10575:10595  _token != pool.token */\n      0xffffffffffffffffffffffffffffffffffffffff\n      and\n        /* \"contracts/distribution/TShareRewardPool.sol\":10575:10581  _token */\n      dup7\n        /* \"contracts/distribution/TShareRewardPool.sol\":10575:10595  _token != pool.token */\n      0xffffffffffffffffffffffffffffffffffffffff\n      and\n      eq\n      iszero\n        /* \"contracts/distribution/TShareRewardPool.sol\":10567:10610  require(_token != pool.token, \"pool.token\") */\n      tag_185\n      jumpi\n      mload(0x40)\n      0x08c379a000000000000000000000000000000000000000000000000000000000\n      dup2\n      mstore\n      0x04\n      add\n      dup1\n      dup1\n      0x20\n      add\n      dup3\n      dup2\n      sub\n      dup3\n      mstore\n      0x0a\n      dup2\n      mstore\n      0x20\n      add\n      dup1\n      0x706f6f6c2e746f6b656e00000000000000000000000000000000000000000000\n      dup2\n      mstore\n      pop\n      0x20\n      add\n      swap2\n      pop\n      pop\n      mload(0x40)\n      dup1\n      swap2\n      sub\n      swap1\n      revert\n    tag_185:\n        /* \"contracts/distribution/TShareRewardPool.sol\":10449:10626  for (uint256 pid = 0; pid < length; ++pid) {\r... */\n      pop\n        /* \"contracts/distribution/TShareRewardPool.sol\":10485:10490  ++pid */\n      dup1\n      0x01\n      add\n      swap1\n      pop\n        /* \"contracts/distribution/TShareRewardPool.sol\":10449:10626  for (uint256 pid = 0; pid < length; ++pid) {\r... */\n      jump(tag_180)\n    tag_181:\n      pop\n        /* \"contracts/distribution/TShareRewardPool.sol\":10196:10637  if (block.timestamp < poolEndTime + 90 days) {\r... */\n      pop\n    tag_178:\n        /* \"contracts/distribution/TShareRewardPool.sol\":10647:10678  _token.safeTransfer(to, amount) */\n      tag_186\n        /* \"contracts/distribution/TShareRewardPool.sol\":10667:10669  to */\n      dup2\n        /* \"contracts/distribution/TShareRewardPool.sol\":10671:10677  amount */\n      dup4\n        /* \"contracts/distribution/TShareRewardPool.sol\":10647:10653  _token */\n      dup6\n        /* \"contracts/distribution/TShareRewardPool.sol\":10647:10666  _token.safeTransfer */\n      0xffffffffffffffffffffffffffffffffffffffff\n      and\n      tag_148\n      swap1\n        /* \"contracts/distribution/TShareRewardPool.sol\":10647:10678  _token.safeTransfer(to, amount) */\n      swap3\n      swap2\n      swap1\n      0xffffffff\n      and\n      jump\t// in\n    tag_186:\n        /* \"contracts/distribution/TShareRewardPool.sol\":10082:10686  function governanceRecoverUnsupported(IERC20 _token, uint256 amount, address to) external onlyOperator {\r... */\n      pop\n      pop\n      pop\n      jump\t// out\n        /* \"contracts/owner/Operator.sol\":521:606  function operator() public view returns (address) {\r... */\n    tag_65:\n        /* \"contracts/owner/Operator.sol\":562:569  address */\n      0x00\n        /* \"contracts/owner/Operator.sol\":589:598  _operator */\n      0x01\n      0x00\n      swap1\n      sload\n      swap1\n      0x0100\n      exp\n      swap1\n      div\n      0xffffffffffffffffffffffffffffffffffffffff\n      and\n        /* \"contracts/owner/Operator.sol\":582:598  return _operator */\n      swap1\n      pop\n        /* \"contracts/owner/Operator.sol\":521:606  function operator() public view returns (address) {\r... */\n      swap1\n      jump\t// out\n        /* \"contracts/distribution/TShareRewardPool.sol\":1631:1659  uint256 public poolStartTime */\n    tag_67:\n      sload(0x06)\n      dup2\n      jump\t// out\n        /* \"contracts/distribution/TShareRewardPool.sol\":1247:1265  IERC20 public Rock */\n    tag_69:\n      0x02\n      0x00\n      swap1\n      sload\n      swap1\n      0x0100\n      exp\n      swap1\n      div\n      0xffffffffffffffffffffffffffffffffffffffff\n      and\n      dup2\n      jump\t// out\n        /* \"contracts/distribution/TShareRewardPool.sol\":6290:6470  function massUpdatePools() public {\r... */\n    tag_71:\n        /* \"contracts/distribution/TShareRewardPool.sol\":6335:6349  uint256 length */\n      0x00\n        /* \"contracts/distribution/TShareRewardPool.sol\":6352:6360  poolInfo */\n      0x03\n        /* \"contracts/distribution/TShareRewardPool.sol\":6352:6367  poolInfo.length */\n      dup1\n      sload\n      swap1\n      pop\n        /* \"contracts/distribution/TShareRewardPool.sol\":6335:6367  uint256 length = poolInfo.length */\n      swap1\n      pop\n        /* \"contracts/distribution/TShareRewardPool.sol\":6383:6394  uint256 pid */\n      0x00\n        /* \"contracts/distribution/TShareRewardPool.sol\":6378:6463  for (uint256 pid = 0; pid < length; ++pid) {\r... */\n    tag_189:\n        /* \"contracts/distribution/TShareRewardPool.sol\":6406:6412  length */\n      dup2\n        /* \"contracts/distribution/TShareRewardPool.sol\":6400:6403  pid */\n      dup2\n        /* \"contracts/distribution/TShareRewardPool.sol\":6400:6412  pid < length */\n      lt\n        /* \"contracts/distribution/TShareRewardPool.sol\":6378:6463  for (uint256 pid = 0; pid < length; ++pid) {\r... */\n      iszero\n      tag_190\n      jumpi\n        /* \"contracts/distribution/TShareRewardPool.sol\":6436:6451  updatePool(pid) */\n      tag_192\n        /* \"contracts/distribution/TShareRewardPool.sol\":6447:6450  pid */\n      dup2\n        /* \"contracts/distribution/TShareRewardPool.sol\":6436:6446  updatePool */\n      tag_57\n        /* \"contracts/distribution/TShareRewardPool.sol\":6436:6451  updatePool(pid) */\n      jump\t// in\n    tag_192:\n        /* \"contracts/distribution/TShareRewardPool.sol\":6414:6419  ++pid */\n      dup1\n      0x01\n      add\n      swap1\n      pop\n        /* \"contracts/distribution/TShareRewardPool.sol\":6378:6463  for (uint256 pid = 0; pid < length; ++pid) {\r... */\n      jump(tag_189)\n    tag_190:\n      pop\n        /* \"contracts/distribution/TShareRewardPool.sol\":6290:6470  function massUpdatePools() public {\r... */\n      pop\n      jump\t// out\n        /* \"contracts/distribution/TShareRewardPool.sol\":1708:1734  uint256 public poolEndTime */\n    tag_73:\n      sload(0x07)\n      dup2\n      jump\t// out\n        /* \"@openzeppelin/contracts/access/Ownable.sol\":1771:1916  function renounceOwnership() public virtual onlyOwner {... */\n    tag_75:\n        /* \"@openzeppelin/contracts/access/Ownable.sol\":1362:1374  _msgSender() */\n      tag_194\n        /* \"@openzeppelin/contracts/access/Ownable.sol\":1362:1372  _msgSender */\n      tag_127\n        /* \"@openzeppelin/contracts/access/Ownable.sol\":1362:1374  _msgSender() */\n      jump\t// in\n    tag_194:\n        /* \"@openzeppelin/contracts/access/Ownable.sol\":1351:1374  owner() == _msgSender() */\n      0xffffffffffffffffffffffffffffffffffffffff\n      and\n        /* \"@openzeppelin/contracts/access/Ownable.sol\":1351:1358  owner() */\n      tag_195\n        /* \"@openzeppelin/contracts/access/Ownable.sol\":1351:1356  owner */\n      tag_77\n        /* \"@openzeppelin/contracts/access/Ownable.sol\":1351:1358  owner() */\n      jump\t// in\n    tag_195:\n        /* \"@openzeppelin/contracts/access/Ownable.sol\":1351:1374  owner() == _msgSender() */\n      0xffffffffffffffffffffffffffffffffffffffff\n      and\n      eq\n        /* \"@openzeppelin/contracts/access/Ownable.sol\":1343:1411  require(owner() == _msgSender(), \"Ownable: caller is not the owner\") */\n      tag_196\n      jumpi\n      mload(0x40)\n      0x08c379a000000000000000000000000000000000000000000000000000000000\n      dup2\n      mstore\n      0x04\n      add\n      dup1\n      dup1\n      0x20\n      add\n      dup3\n      dup2\n      sub\n      dup3\n      mstore\n      0x20\n      dup2\n      mstore\n      0x20\n      add\n      dup1\n      0x4f776e61626c653a2063616c6c6572206973206e6f7420746865206f776e6572\n      dup2\n      mstore\n      pop\n      0x20\n      add\n      swap2\n      pop\n      pop\n      mload(0x40)\n      dup1\n      swap2\n      sub\n      swap1\n      revert\n    tag_196:\n        /* \"@openzeppelin/contracts/access/Ownable.sol\":1877:1878  0 */\n      0x00\n        /* \"@openzeppelin/contracts/access/Ownable.sol\":1840:1880  OwnershipTransferred(_owner, address(0)) */\n      0xffffffffffffffffffffffffffffffffffffffff\n      and\n        /* \"@openzeppelin/contracts/access/Ownable.sol\":1861:1867  _owner */\n      0x00\n      dup1\n      sload\n      swap1\n      0x0100\n      exp\n      swap1\n      div\n      0xffffffffffffffffffffffffffffffffffffffff\n      and\n        /* \"@openzeppelin/contracts/access/Ownable.sol\":1840:1880  OwnershipTransferred(_owner, address(0)) */\n      0xffffffffffffffffffffffffffffffffffffffff\n      and\n      0x8be0079c531659141344cd1fd0a4f28419497f9722a3daafe3b4186f6b6457e0\n      mload(0x40)\n      mload(0x40)\n      dup1\n      swap2\n      sub\n      swap1\n      log3\n        /* \"@openzeppelin/contracts/access/Ownable.sol\":1907:1908  0 */\n      0x00\n        /* \"@openzeppelin/contracts/access/Ownable.sol\":1890:1896  _owner */\n      dup1\n      0x00\n        /* \"@openzeppelin/contracts/access/Ownable.sol\":1890:1909  _owner = address(0) */\n      0x0100\n      exp\n      dup2\n      sload\n      dup2\n      0xffffffffffffffffffffffffffffffffffffffff\n      mul\n      not\n      and\n      swap1\n      dup4\n      0xffffffffffffffffffffffffffffffffffffffff\n      and\n      mul\n      or\n      swap1\n      sstore\n      pop\n        /* \"@openzeppelin/contracts/access/Ownable.sol\":1771:1916  function renounceOwnership() public virtual onlyOwner {... */\n      jump\t// out\n        /* \"@openzeppelin/contracts/access/Ownable.sol\":1139:1224  function owner() public view virtual returns (address) {... */\n    tag_77:\n        /* \"@openzeppelin/contracts/access/Ownable.sol\":1185:1192  address */\n      0x00\n        /* \"@openzeppelin/contracts/access/Ownable.sol\":1211:1217  _owner */\n      dup1\n      0x00\n      swap1\n      sload\n      swap1\n      0x0100\n      exp\n      swap1\n      div\n      0xffffffffffffffffffffffffffffffffffffffff\n      and\n        /* \"@openzeppelin/contracts/access/Ownable.sol\":1204:1217  return _owner */\n      swap1\n      pop\n        /* \"@openzeppelin/contracts/access/Ownable.sol\":1139:1224  function owner() public view virtual returns (address) {... */\n      swap1\n      jump\t// out\n        /* \"contracts/distribution/TShareRewardPool.sol\":1385:1449  mapping(uint256 => mapping(address => UserInfo)) public userInfo */\n    tag_80:\n      mstore(0x20, 0x04)\n      dup2\n      0x00\n      mstore\n      mstore(0x20, keccak256(0x00, 0x40))\n      dup1\n      0x00\n      mstore\n      keccak256(0x00, 0x40)\n      0x00\n      swap2\n      pop\n      swap2\n      pop\n      pop\n      dup1\n      0x00\n      add\n      sload\n      swap1\n      dup1\n      0x01\n      add\n      sload\n      swap1\n      pop\n      dup3\n      jump\t// out\n        /* \"contracts/distribution/TShareRewardPool.sol\":1846:1883  uint256 public runningTime = 370 days */\n    tag_82:\n      sload(0x09)\n      dup2\n      jump\t// out\n        /* \"contracts/distribution/TShareRewardPool.sol\":2916:4192  function add(\r... */\n    tag_85:\n        /* \"contracts/owner/Operator.sol\":684:694  msg.sender */\n      caller\n        /* \"contracts/owner/Operator.sol\":671:694  _operator == msg.sender */\n      0xffffffffffffffffffffffffffffffffffffffff\n      and\n        /* \"contracts/owner/Operator.sol\":671:680  _operator */\n      0x01\n      0x00\n      swap1\n      sload\n      swap1\n      0x0100\n      exp\n      swap1\n      div\n      0xffffffffffffffffffffffffffffffffffffffff\n      and\n        /* \"contracts/owner/Operator.sol\":671:694  _operator == msg.sender */\n      0xffffffffffffffffffffffffffffffffffffffff\n      and\n      eq\n        /* \"contracts/owner/Operator.sol\":649:758  require(\r... */\n      tag_200\n      jumpi\n      mload(0x40)\n      0x08c379a000000000000000000000000000000000000000000000000000000000\n      dup2\n      mstore\n      0x04\n      add\n      dup1\n      dup1\n      0x20\n      add\n      dup3\n      dup2\n      sub\n      dup3\n      mstore\n      0x24\n      dup2\n      mstore\n      0x20\n      add\n      dup1\n      data_a62bfdba5053072911b63b0f6325b0e83fcd28b5a847d97efdd966feb4daaafb\n      0x24\n      swap2\n      codecopy\n      0x40\n      add\n      swap2\n      pop\n      pop\n      mload(0x40)\n      dup1\n      swap2\n      sub\n      swap1\n      revert\n    tag_200:\n        /* \"contracts/distribution/TShareRewardPool.sol\":3082:3108  checkPoolDuplicate(_token) */\n      tag_202\n        /* \"contracts/distribution/TShareRewardPool.sol\":3101:3107  _token */\n      dup4\n        /* \"contracts/distribution/TShareRewardPool.sol\":3082:3100  checkPoolDuplicate */\n      tag_203\n        /* \"contracts/distribution/TShareRewardPool.sol\":3082:3108  checkPoolDuplicate(_token) */\n      jump\t// in\n    tag_202:\n        /* \"contracts/distribution/TShareRewardPool.sol\":3123:3134  _withUpdate */\n      dup2\n        /* \"contracts/distribution/TShareRewardPool.sol\":3119:3180  if (_withUpdate) {\r... */\n      iszero\n      tag_204\n      jumpi\n        /* \"contracts/distribution/TShareRewardPool.sol\":3151:3168  massUpdatePools() */\n      tag_205\n        /* \"contracts/distribution/TShareRewardPool.sol\":3151:3166  massUpdatePools */\n      tag_71\n        /* \"contracts/distribution/TShareRewardPool.sol\":3151:3168  massUpdatePools() */\n      jump\t// in\n    tag_205:\n        /* \"contracts/distribution/TShareRewardPool.sol\":3119:3180  if (_withUpdate) {\r... */\n    tag_204:\n        /* \"contracts/distribution/TShareRewardPool.sol\":3212:3225  poolStartTime */\n      sload(0x06)\n        /* \"contracts/distribution/TShareRewardPool.sol\":3194:3209  block.timestamp */\n      timestamp\n        /* \"contracts/distribution/TShareRewardPool.sol\":3194:3225  block.timestamp < poolStartTime */\n      lt\n        /* \"contracts/distribution/TShareRewardPool.sol\":3190:3724  if (block.timestamp < poolStartTime) {\r... */\n      iszero\n      tag_206\n      jumpi\n        /* \"contracts/distribution/TShareRewardPool.sol\":3298:3299  0 */\n      0x00\n        /* \"contracts/distribution/TShareRewardPool.sol\":3279:3294  _lastRewardTime */\n      dup2\n        /* \"contracts/distribution/TShareRewardPool.sol\":3279:3299  _lastRewardTime == 0 */\n      eq\n        /* \"contracts/distribution/TShareRewardPool.sol\":3275:3518  if (_lastRewardTime == 0) {\r... */\n      iszero\n      tag_207\n      jumpi\n        /* \"contracts/distribution/TShareRewardPool.sol\":3338:3351  poolStartTime */\n      sload(0x06)\n        /* \"contracts/distribution/TShareRewardPool.sol\":3320:3351  _lastRewardTime = poolStartTime */\n      swap1\n      pop\n        /* \"contracts/distribution/TShareRewardPool.sol\":3275:3518  if (_lastRewardTime == 0) {\r... */\n      jump(tag_208)\n    tag_207:\n        /* \"contracts/distribution/TShareRewardPool.sol\":3414:3427  poolStartTime */\n      sload(0x06)\n        /* \"contracts/distribution/TShareRewardPool.sol\":3396:3411  _lastRewardTime */\n      dup2\n        /* \"contracts/distribution/TShareRewardPool.sol\":3396:3427  _lastRewardTime < poolStartTime */\n      lt\n        /* \"contracts/distribution/TShareRewardPool.sol\":3392:3503  if (_lastRewardTime < poolStartTime) {\r... */\n      iszero\n      tag_209\n      jumpi\n        /* \"contracts/distribution/TShareRewardPool.sol\":3470:3483  poolStartTime */\n      sload(0x06)\n        /* \"contracts/distribution/TShareRewardPool.sol\":3452:3483  _lastRewardTime = poolStartTime */\n      swap1\n      pop\n        /* \"contracts/distribution/TShareRewardPool.sol\":3392:3503  if (_lastRewardTime < poolStartTime) {\r... */\n    tag_209:\n        /* \"contracts/distribution/TShareRewardPool.sol\":3275:3518  if (_lastRewardTime == 0) {\r... */\n    tag_208:\n        /* \"contracts/distribution/TShareRewardPool.sol\":3190:3724  if (block.timestamp < poolStartTime) {\r... */\n      jump(tag_210)\n    tag_206:\n        /* \"contracts/distribution/TShareRewardPool.sol\":3605:3606  0 */\n      0x00\n        /* \"contracts/distribution/TShareRewardPool.sol\":3586:3601  _lastRewardTime */\n      dup2\n        /* \"contracts/distribution/TShareRewardPool.sol\":3586:3606  _lastRewardTime == 0 */\n      eq\n        /* \"contracts/distribution/TShareRewardPool.sol\":3586:3643  _lastRewardTime == 0 || _lastRewardTime < block.timestamp */\n      dup1\n      tag_211\n      jumpi\n      pop\n        /* \"contracts/distribution/TShareRewardPool.sol\":3628:3643  block.timestamp */\n      timestamp\n        /* \"contracts/distribution/TShareRewardPool.sol\":3610:3625  _lastRewardTime */\n      dup2\n        /* \"contracts/distribution/TShareRewardPool.sol\":3610:3643  _lastRewardTime < block.timestamp */\n      lt\n        /* \"contracts/distribution/TShareRewardPool.sol\":3586:3643  _lastRewardTime == 0 || _lastRewardTime < block.timestamp */\n    tag_211:\n        /* \"contracts/distribution/TShareRewardPool.sol\":3582:3713  if (_lastRewardTime == 0 || _lastRewardTime < block.timestamp) {\r... */\n      iszero\n      tag_212\n      jumpi\n        /* \"contracts/distribution/TShareRewardPool.sol\":3682:3697  block.timestamp */\n      timestamp\n        /* \"contracts/distribution/TShareRewardPool.sol\":3664:3697  _lastRewardTime = block.timestamp */\n      swap1\n      pop\n        /* \"contracts/distribution/TShareRewardPool.sol\":3582:3713  if (_lastRewardTime == 0 || _lastRewardTime < block.timestamp) {\r... */\n    tag_212:\n        /* \"contracts/distribution/TShareRewardPool.sol\":3190:3724  if (block.timestamp < poolStartTime) {\r... */\n    tag_210:\n        /* \"contracts/distribution/TShareRewardPool.sol\":3734:3749  bool _isStarted */\n      0x00\n        /* \"contracts/distribution/TShareRewardPool.sol\":3781:3794  poolStartTime */\n      sload(0x06)\n        /* \"contracts/distribution/TShareRewardPool.sol\":3762:3777  _lastRewardTime */\n      dup3\n        /* \"contracts/distribution/TShareRewardPool.sol\":3762:3794  _lastRewardTime <= poolStartTime */\n      gt\n      iszero\n        /* \"contracts/distribution/TShareRewardPool.sol\":3761:3844  (_lastRewardTime <= poolStartTime) ||\r... */\n      dup1\n      tag_213\n      jumpi\n      pop\n        /* \"contracts/distribution/TShareRewardPool.sol\":3828:3843  block.timestamp */\n      timestamp\n        /* \"contracts/distribution/TShareRewardPool.sol\":3809:3824  _lastRewardTime */\n      dup3\n        /* \"contracts/distribution/TShareRewardPool.sol\":3809:3843  _lastRewardTime <= block.timestamp */\n      gt\n      iszero\n        /* \"contracts/distribution/TShareRewardPool.sol\":3761:3844  (_lastRewardTime <= poolStartTime) ||\r... */\n    tag_213:\n        /* \"contracts/distribution/TShareRewardPool.sol\":3734:3844  bool _isStarted =\r... */\n      swap1\n      pop\n        /* \"contracts/distribution/TShareRewardPool.sol\":3855:3863  poolInfo */\n      0x03\n        /* \"contracts/distribution/TShareRewardPool.sol\":3869:4080  PoolInfo({\r... */\n      mload(0x40)\n      dup1\n      0xa0\n      add\n      0x40\n      mstore\n      dup1\n        /* \"contracts/distribution/TShareRewardPool.sol\":3901:3907  _token */\n      dup7\n        /* \"contracts/distribution/TShareRewardPool.sol\":3869:4080  PoolInfo({\r... */\n      0xffffffffffffffffffffffffffffffffffffffff\n      and\n      dup2\n      mstore\n      0x20\n      add\n        /* \"contracts/distribution/TShareRewardPool.sol\":3935:3946  _allocPoint */\n      dup8\n        /* \"contracts/distribution/TShareRewardPool.sol\":3869:4080  PoolInfo({\r... */\n      dup2\n      mstore\n      0x20\n      add\n        /* \"contracts/distribution/TShareRewardPool.sol\":3978:3993  _lastRewardTime */\n      dup5\n        /* \"contracts/distribution/TShareRewardPool.sol\":3869:4080  PoolInfo({\r... */\n      dup2\n      mstore\n      0x20\n      add\n        /* \"contracts/distribution/TShareRewardPool.sol\":4026:4027  0 */\n      0x00\n        /* \"contracts/distribution/TShareRewardPool.sol\":3869:4080  PoolInfo({\r... */\n      dup2\n      mstore\n      0x20\n      add\n        /* \"contracts/distribution/TShareRewardPool.sol\":4054:4064  _isStarted */\n      dup4\n        /* \"contracts/distribution/TShareRewardPool.sol\":3869:4080  PoolInfo({\r... */\n      iszero\n      iszero\n      dup2\n      mstore\n      pop\n        /* \"contracts/distribution/TShareRewardPool.sol\":3855:4081  poolInfo.push(PoolInfo({\r... */\n      swap1\n      dup1\n      0x01\n      dup2\n      sload\n      add\n      dup1\n      dup3\n      sstore\n      dup1\n      swap2\n      pop\n      pop\n      0x01\n      swap1\n      sub\n      swap1\n      0x00\n      mstore\n      keccak256(0x00, 0x20)\n      swap1\n      0x05\n      mul\n      add\n      0x00\n      swap1\n      swap2\n      swap1\n      swap2\n      swap1\n      swap2\n      pop\n      0x00\n      dup3\n      add\n      mload\n      dup2\n      0x00\n      add\n      exp(0x0100, 0x00)\n      dup2\n      sload\n      dup2\n      0xffffffffffffffffffffffffffffffffffffffff\n      mul\n      not\n      and\n      swap1\n      dup4\n      0xffffffffffffffffffffffffffffffffffffffff\n      and\n      mul\n      or\n      swap1\n      sstore\n      pop\n      0x20\n      dup3\n      add\n      mload\n      dup2\n      0x01\n      add\n      sstore\n      0x40\n      dup3\n      add\n      mload\n      dup2\n      0x02\n      add\n      sstore\n      0x60\n      dup3\n      add\n      mload\n      dup2\n      0x03\n      add\n      sstore\n      0x80\n      dup3\n      add\n      mload\n      dup2\n      0x04\n      add\n      exp(0x0100, 0x00)\n      dup2\n      sload\n      dup2\n      0xff\n      mul\n      not\n      and\n      swap1\n      dup4\n      iszero\n      iszero\n      mul\n      or\n      swap1\n      sstore\n      pop\n      pop\n      pop\n        /* \"contracts/distribution/TShareRewardPool.sol\":4096:4106  _isStarted */\n      dup1\n        /* \"contracts/distribution/TShareRewardPool.sol\":4092:4185  if (_isStarted) {\r... */\n      iszero\n      tag_215\n      jumpi\n        /* \"contracts/distribution/TShareRewardPool.sol\":4141:4173  totalAllocPoint.add(_allocPoint) */\n      tag_216\n        /* \"contracts/distribution/TShareRewardPool.sol\":4161:4172  _allocPoint */\n      dup6\n        /* \"contracts/distribution/TShareRewardPool.sol\":4141:4156  totalAllocPoint */\n      sload(0x05)\n        /* \"contracts/distribution/TShareRewardPool.sol\":4141:4160  totalAllocPoint.add */\n      tag_107\n      swap1\n        /* \"contracts/distribution/TShareRewardPool.sol\":4141:4173  totalAllocPoint.add(_allocPoint) */\n      swap2\n      swap1\n      0xffffffff\n      and\n      jump\t// in\n    tag_216:\n        /* \"contracts/distribution/TShareRewardPool.sol\":4123:4138  totalAllocPoint */\n      0x05\n        /* \"contracts/distribution/TShareRewardPool.sol\":4123:4173  totalAllocPoint = totalAllocPoint.add(_allocPoint) */\n      dup2\n      swap1\n      sstore\n      pop\n        /* \"contracts/distribution/TShareRewardPool.sol\":4092:4185  if (_isStarted) {\r... */\n    tag_215:\n        /* \"contracts/owner/Operator.sol\":769:770  _ */\n      pop\n        /* \"contracts/distribution/TShareRewardPool.sol\":2916:4192  function add(\r... */\n      pop\n      pop\n      pop\n      pop\n      jump\t// out\n        /* \"contracts/distribution/TShareRewardPool.sol\":5435:6207  function pendingShare(uint256 _pid, address _user) external view returns (uint256) {\r... */\n    tag_88:\n        /* \"contracts/distribution/TShareRewardPool.sol\":5509:5516  uint256 */\n      0x00\n        /* \"contracts/distribution/TShareRewardPool.sol\":5529:5550  PoolInfo storage pool */\n      dup1\n        /* \"contracts/distribution/TShareRewardPool.sol\":5553:5561  poolInfo */\n      0x03\n        /* \"contracts/distribution/TShareRewardPool.sol\":5562:5566  _pid */\n      dup5\n        /* \"contracts/distribution/TShareRewardPool.sol\":5553:5567  poolInfo[_pid] */\n      dup2\n      sload\n      dup2\n      lt\n      tag_218\n      jumpi\n      invalid\n    tag_218:\n      swap1\n      0x00\n      mstore\n      keccak256(0x00, 0x20)\n      swap1\n      0x05\n      mul\n      add\n        /* \"contracts/distribution/TShareRewardPool.sol\":5529:5567  PoolInfo storage pool = poolInfo[_pid] */\n      swap1\n      pop\n        /* \"contracts/distribution/TShareRewardPool.sol\":5578:5599  UserInfo storage user */\n      0x00\n        /* \"contracts/distribution/TShareRewardPool.sol\":5602:5610  userInfo */\n      0x04\n        /* \"contracts/distribution/TShareRewardPool.sol\":5602:5616  userInfo[_pid] */\n      0x00\n        /* \"contracts/distribution/TShareRewardPool.sol\":5611:5615  _pid */\n      dup7\n        /* \"contracts/distribution/TShareRewardPool.sol\":5602:5616  userInfo[_pid] */\n      dup2\n      mstore\n      0x20\n      add\n      swap1\n      dup2\n      mstore\n      0x20\n      add\n      0x00\n      keccak256\n        /* \"contracts/distribution/TShareRewardPool.sol\":5602:5623  userInfo[_pid][_user] */\n      0x00\n        /* \"contracts/distribution/TShareRewardPool.sol\":5617:5622  _user */\n      dup6\n        /* \"contracts/distribution/TShareRewardPool.sol\":5602:5623  userInfo[_pid][_user] */\n      0xffffffffffffffffffffffffffffffffffffffff\n      and\n      0xffffffffffffffffffffffffffffffffffffffff\n      and\n      dup2\n      mstore\n      0x20\n      add\n      swap1\n      dup2\n      mstore\n      0x20\n      add\n      0x00\n      keccak256\n        /* \"contracts/distribution/TShareRewardPool.sol\":5578:5623  UserInfo storage user = userInfo[_pid][_user] */\n      swap1\n      pop\n        /* \"contracts/distribution/TShareRewardPool.sol\":5634:5657  uint256 accRockPerShare */\n      0x00\n        /* \"contracts/distribution/TShareRewardPool.sol\":5660:5664  pool */\n      dup3\n        /* \"contracts/distribution/TShareRewardPool.sol\":5660:5680  pool.accRockPerShare */\n      0x03\n      add\n      sload\n        /* \"contracts/distribution/TShareRewardPool.sol\":5634:5680  uint256 accRockPerShare = pool.accRockPerShare */\n      swap1\n      pop\n        /* \"contracts/distribution/TShareRewardPool.sol\":5691:5710  uint256 tokenSupply */\n      0x00\n        /* \"contracts/distribution/TShareRewardPool.sol\":5713:5717  pool */\n      dup4\n        /* \"contracts/distribution/TShareRewardPool.sol\":5713:5723  pool.token */\n      0x00\n      add\n      0x00\n      swap1\n      sload\n      swap1\n      0x0100\n      exp\n      swap1\n      div\n      0xffffffffffffffffffffffffffffffffffffffff\n      and\n        /* \"contracts/distribution/TShareRewardPool.sol\":5713:5733  pool.token.balanceOf */\n      0xffffffffffffffffffffffffffffffffffffffff\n      and\n      0x70a08231\n        /* \"contracts/distribution/TShareRewardPool.sol\":5742:5746  this */\n      address\n        /* \"contracts/distribution/TShareRewardPool.sol\":5713:5748  pool.token.balanceOf(address(this)) */\n      mload(0x40)\n      dup3\n      0xffffffff\n      and\n      0xe0\n      shl\n      dup2\n      mstore\n      0x04\n      add\n      dup1\n      dup3\n      0xffffffffffffffffffffffffffffffffffffffff\n      and\n      dup2\n      mstore\n      0x20\n      add\n      swap2\n      pop\n      pop\n      0x20\n      mload(0x40)\n      dup1\n      dup4\n      sub\n      dup2\n      dup7\n      dup1\n      extcodesize\n      iszero\n      dup1\n      iszero\n      tag_220\n      jumpi\n      0x00\n      dup1\n      revert\n    tag_220:\n      pop\n      gas\n      staticcall\n      iszero\n      dup1\n      iszero\n      tag_222\n      jumpi\n      returndatasize\n      0x00\n      dup1\n      returndatacopy\n      revert(0x00, returndatasize)\n    tag_222:\n      pop\n      pop\n      pop\n      pop\n      mload(0x40)\n      returndatasize\n      0x20\n      dup2\n      lt\n      iszero\n      tag_223\n      jumpi\n      0x00\n      dup1\n      revert\n    tag_223:\n      dup2\n      add\n      swap1\n      dup1\n      dup1\n      mload\n      swap1\n      0x20\n      add\n      swap1\n      swap3\n      swap2\n      swap1\n      pop\n      pop\n      pop\n        /* \"contracts/distribution/TShareRewardPool.sol\":5691:5748  uint256 tokenSupply = pool.token.balanceOf(address(this)) */\n      swap1\n      pop\n        /* \"contracts/distribution/TShareRewardPool.sol\":5781:5785  pool */\n      dup4\n        /* \"contracts/distribution/TShareRewardPool.sol\":5781:5800  pool.lastRewardTime */\n      0x02\n      add\n      sload\n        /* \"contracts/distribution/TShareRewardPool.sol\":5763:5778  block.timestamp */\n      timestamp\n        /* \"contracts/distribution/TShareRewardPool.sol\":5763:5800  block.timestamp > pool.lastRewardTime */\n      gt\n        /* \"contracts/distribution/TShareRewardPool.sol\":5763:5820  block.timestamp > pool.lastRewardTime && tokenSupply != 0 */\n      dup1\n      iszero\n      tag_224\n      jumpi\n      pop\n        /* \"contracts/distribution/TShareRewardPool.sol\":5819:5820  0 */\n      0x00\n        /* \"contracts/distribution/TShareRewardPool.sol\":5804:5815  tokenSupply */\n      dup2\n        /* \"contracts/distribution/TShareRewardPool.sol\":5804:5820  tokenSupply != 0 */\n      eq\n      iszero\n        /* \"contracts/distribution/TShareRewardPool.sol\":5763:5820  block.timestamp > pool.lastRewardTime && tokenSupply != 0 */\n    tag_224:\n        /* \"contracts/distribution/TShareRewardPool.sol\":5759:6119  if (block.timestamp > pool.lastRewardTime && tokenSupply != 0) {\r... */\n      iszero\n      tag_225\n      jumpi\n        /* \"contracts/distribution/TShareRewardPool.sol\":5837:5861  uint256 _generatedReward */\n      0x00\n        /* \"contracts/distribution/TShareRewardPool.sol\":5864:5920  getGeneratedReward(pool.lastRewardTime, block.timestamp) */\n      tag_226\n        /* \"contracts/distribution/TShareRewardPool.sol\":5883:5887  pool */\n      dup6\n        /* \"contracts/distribution/TShareRewardPool.sol\":5883:5902  pool.lastRewardTime */\n      0x02\n      add\n      sload\n        /* \"contracts/distribution/TShareRewardPool.sol\":5904:5919  block.timestamp */\n      timestamp\n        /* \"contracts/distribution/TShareRewardPool.sol\":5864:5882  getGeneratedReward */\n      tag_46\n        /* \"contracts/distribution/TShareRewardPool.sol\":5864:5920  getGeneratedReward(pool.lastRewardTime, block.timestamp) */\n      jump\t// in\n    tag_226:\n        /* \"contracts/distribution/TShareRewardPool.sol\":5837:5920  uint256 _generatedReward = getGeneratedReward(pool.lastRewardTime, block.timestamp) */\n      swap1\n      pop\n        /* \"contracts/distribution/TShareRewardPool.sol\":5935:5954  uint256 _RockReward */\n      0x00\n        /* \"contracts/distribution/TShareRewardPool.sol\":5957:6015  _generatedReward.mul(pool.allocPoint).div(totalAllocPoint) */\n      tag_227\n        /* \"contracts/distribution/TShareRewardPool.sol\":5999:6014  totalAllocPoint */\n      sload(0x05)\n        /* \"contracts/distribution/TShareRewardPool.sol\":5957:5994  _generatedReward.mul(pool.allocPoint) */\n      tag_228\n        /* \"contracts/distribution/TShareRewardPool.sol\":5978:5982  pool */\n      dup9\n        /* \"contracts/distribution/TShareRewardPool.sol\":5978:5993  pool.allocPoint */\n      0x01\n      add\n      sload\n        /* \"contracts/distribution/TShareRewardPool.sol\":5957:5973  _generatedReward */\n      dup6\n        /* \"contracts/distribution/TShareRewardPool.sol\":5957:5977  _generatedReward.mul */\n      tag_115\n      swap1\n        /* \"contracts/distribution/TShareRewardPool.sol\":5957:5994  _generatedReward.mul(pool.allocPoint) */\n      swap2\n      swap1\n      0xffffffff\n      and\n      jump\t// in\n    tag_228:\n        /* \"contracts/distribution/TShareRewardPool.sol\":5957:5998  _generatedReward.mul(pool.allocPoint).div */\n      tag_141\n      swap1\n        /* \"contracts/distribution/TShareRewardPool.sol\":5957:6015  _generatedReward.mul(pool.allocPoint).div(totalAllocPoint) */\n      swap2\n      swap1\n      0xffffffff\n      and\n      jump\t// in\n    tag_227:\n        /* \"contracts/distribution/TShareRewardPool.sol\":5935:6015  uint256 _RockReward = _generatedReward.mul(pool.allocPoint).div(totalAllocPoint) */\n      swap1\n      pop\n        /* \"contracts/distribution/TShareRewardPool.sol\":6048:6107  accRockPerShare.add(_RockReward.mul(1e18).div(tokenSupply)) */\n      tag_229\n        /* \"contracts/distribution/TShareRewardPool.sol\":6068:6106  _RockReward.mul(1e18).div(tokenSupply) */\n      tag_230\n        /* \"contracts/distribution/TShareRewardPool.sol\":6094:6105  tokenSupply */\n      dup5\n        /* \"contracts/distribution/TShareRewardPool.sol\":6068:6089  _RockReward.mul(1e18) */\n      tag_231\n        /* \"contracts/distribution/TShareRewardPool.sol\":6084:6088  1e18 */\n      0x0de0b6b3a7640000\n        /* \"contracts/distribution/TShareRewardPool.sol\":6068:6079  _RockReward */\n      dup6\n        /* \"contracts/distribution/TShareRewardPool.sol\":6068:6083  _RockReward.mul */\n      tag_115\n      swap1\n        /* \"contracts/distribution/TShareRewardPool.sol\":6068:6089  _RockReward.mul(1e18) */\n      swap2\n      swap1\n      0xffffffff\n      and\n      jump\t// in\n    tag_231:\n        /* \"contracts/distribution/TShareRewardPool.sol\":6068:6093  _RockReward.mul(1e18).div */\n      tag_141\n      swap1\n        /* \"contracts/distribution/TShareRewardPool.sol\":6068:6106  _RockReward.mul(1e18).div(tokenSupply) */\n      swap2\n      swap1\n      0xffffffff\n      and\n      jump\t// in\n    tag_230:\n        /* \"contracts/distribution/TShareRewardPool.sol\":6048:6063  accRockPerShare */\n      dup6\n        /* \"contracts/distribution/TShareRewardPool.sol\":6048:6067  accRockPerShare.add */\n      tag_107\n      swap1\n        /* \"contracts/distribution/TShareRewardPool.sol\":6048:6107  accRockPerShare.add(_RockReward.mul(1e18).div(tokenSupply)) */\n      swap2\n      swap1\n      0xffffffff\n      and\n      jump\t// in\n    tag_229:\n        /* \"contracts/distribution/TShareRewardPool.sol\":6030:6107  accRockPerShare = accRockPerShare.add(_RockReward.mul(1e18).div(tokenSupply)) */\n      swap4\n      pop\n        /* \"contracts/distribution/TShareRewardPool.sol\":5759:6119  if (block.timestamp > pool.lastRewardTime && tokenSupply != 0) {\r... */\n      pop\n      pop\n    tag_225:\n        /* \"contracts/distribution/TShareRewardPool.sol\":6136:6199  user.amount.mul(accRockPerShare).div(1e18).sub(user.rewardDebt) */\n      tag_232\n        /* \"contracts/distribution/TShareRewardPool.sol\":6183:6187  user */\n      dup4\n        /* \"contracts/distribution/TShareRewardPool.sol\":6183:6198  user.rewardDebt */\n      0x01\n      add\n      sload\n        /* \"contracts/distribution/TShareRewardPool.sol\":6136:6178  user.amount.mul(accRockPerShare).div(1e18) */\n      tag_233\n        /* \"contracts/distribution/TShareRewardPool.sol\":6173:6177  1e18 */\n      0x0de0b6b3a7640000\n        /* \"contracts/distribution/TShareRewardPool.sol\":6136:6168  user.amount.mul(accRockPerShare) */\n      tag_234\n        /* \"contracts/distribution/TShareRewardPool.sol\":6152:6167  accRockPerShare */\n      dup7\n        /* \"contracts/distribution/TShareRewardPool.sol\":6136:6140  user */\n      dup9\n        /* \"contracts/distribution/TShareRewardPool.sol\":6136:6147  user.amount */\n      0x00\n      add\n      sload\n        /* \"contracts/distribution/TShareRewardPool.sol\":6136:6151  user.amount.mul */\n      tag_115\n      swap1\n        /* \"contracts/distribution/TShareRewardPool.sol\":6136:6168  user.amount.mul(accRockPerShare) */\n      swap2\n      swap1\n      0xffffffff\n      and\n      jump\t// in\n    tag_234:\n        /* \"contracts/distribution/TShareRewardPool.sol\":6136:6172  user.amount.mul(accRockPerShare).div */\n      tag_141\n      swap1\n        /* \"contracts/distribution/TShareRewardPool.sol\":6136:6178  user.amount.mul(accRockPerShare).div(1e18) */\n      swap2\n      swap1\n      0xffffffff\n      and\n      jump\t// in\n    tag_233:\n        /* \"contracts/distribution/TShareRewardPool.sol\":6136:6182  user.amount.mul(accRockPerShare).div(1e18).sub */\n      tag_106\n      swap1\n        /* \"contracts/distribution/TShareRewardPool.sol\":6136:6199  user.amount.mul(accRockPerShare).div(1e18).sub(user.rewardDebt) */\n      swap2\n      swap1\n      0xffffffff\n      and\n      jump\t// in\n    tag_232:\n        /* \"contracts/distribution/TShareRewardPool.sol\":6129:6199  return user.amount.mul(accRockPerShare).div(1e18).sub(user.rewardDebt) */\n      swap5\n      pop\n      pop\n      pop\n      pop\n      pop\n        /* \"contracts/distribution/TShareRewardPool.sol\":5435:6207  function pendingShare(uint256 _pid, address _user) external view returns (uint256) {\r... */\n      swap3\n      swap2\n      pop\n      pop\n      jump\t// out\n        /* \"contracts/distribution/TShareRewardPool.sol\":7489:8315  function deposit(uint256 _pid, uint256 _amount) public {\r... */\n    tag_91:\n        /* \"contracts/distribution/TShareRewardPool.sol\":7555:7570  address _sender */\n      0x00\n        /* \"contracts/distribution/TShareRewardPool.sol\":7573:7583  msg.sender */\n      caller\n        /* \"contracts/distribution/TShareRewardPool.sol\":7555:7583  address _sender = msg.sender */\n      swap1\n      pop\n        /* \"contracts/distribution/TShareRewardPool.sol\":7594:7615  PoolInfo storage pool */\n      0x00\n        /* \"contracts/distribution/TShareRewardPool.sol\":7618:7626  poolInfo */\n      0x03\n        /* \"contracts/distribution/TShareRewardPool.sol\":7627:7631  _pid */\n      dup5\n        /* \"contracts/distribution/TShareRewardPool.sol\":7618:7632  poolInfo[_pid] */\n      dup2\n      sload\n      dup2\n      lt\n      tag_236\n      jumpi\n      invalid\n    tag_236:\n      swap1\n      0x00\n      mstore\n      keccak256(0x00, 0x20)\n      swap1\n      0x05\n      mul\n      add\n        /* \"contracts/distribution/TShareRewardPool.sol\":7594:7632  PoolInfo storage pool = poolInfo[_pid] */\n      swap1\n      pop\n        /* \"contracts/distribution/TShareRewardPool.sol\":7643:7664  UserInfo storage user */\n      0x00\n        /* \"contracts/distribution/TShareRewardPool.sol\":7667:7675  userInfo */\n      0x04\n        /* \"contracts/distribution/TShareRewardPool.sol\":7667:7681  userInfo[_pid] */\n      0x00\n        /* \"contracts/distribution/TShareRewardPool.sol\":7676:7680  _pid */\n      dup7\n        /* \"contracts/distribution/TShareRewardPool.sol\":7667:7681  userInfo[_pid] */\n      dup2\n      mstore\n      0x20\n      add\n      swap1\n      dup2\n      mstore\n      0x20\n      add\n      0x00\n      keccak256\n        /* \"contracts/distribution/TShareRewardPool.sol\":7667:7690  userInfo[_pid][_sender] */\n      0x00\n        /* \"contracts/distribution/TShareRewardPool.sol\":7682:7689  _sender */\n      dup5\n        /* \"contracts/distribution/TShareRewardPool.sol\":7667:7690  userInfo[_pid][_sender] */\n      0xffffffffffffffffffffffffffffffffffffffff\n      and\n      0xffffffffffffffffffffffffffffffffffffffff\n      and\n      dup2\n      mstore\n      0x20\n      add\n      swap1\n      dup2\n      mstore\n      0x20\n      add\n      0x00\n      keccak256\n        /* \"contracts/distribution/TShareRewardPool.sol\":7643:7690  UserInfo storage user = userInfo[_pid][_sender] */\n      swap1\n      pop\n        /* \"contracts/distribution/TShareRewardPool.sol\":7701:7717  updatePool(_pid) */\n      tag_238\n        /* \"contracts/distribution/TShareRewardPool.sol\":7712:7716  _pid */\n      dup6\n        /* \"contracts/distribution/TShareRewardPool.sol\":7701:7711  updatePool */\n      tag_57\n        /* \"contracts/distribution/TShareRewardPool.sol\":7701:7717  updatePool(_pid) */\n      jump\t// in\n    tag_238:\n        /* \"contracts/distribution/TShareRewardPool.sol\":7746:7747  0 */\n      0x00\n        /* \"contracts/distribution/TShareRewardPool.sol\":7732:7736  user */\n      dup2\n        /* \"contracts/distribution/TShareRewardPool.sol\":7732:7743  user.amount */\n      0x00\n      add\n      sload\n        /* \"contracts/distribution/TShareRewardPool.sol\":7732:7747  user.amount > 0 */\n      gt\n        /* \"contracts/distribution/TShareRewardPool.sol\":7728:8018  if (user.amount > 0) {\r... */\n      iszero\n      tag_239\n      jumpi\n        /* \"contracts/distribution/TShareRewardPool.sol\":7764:7780  uint256 _pending */\n      0x00\n        /* \"contracts/distribution/TShareRewardPool.sol\":7783:7851  user.amount.mul(pool.accRockPerShare).div(1e18).sub(user.rewardDebt) */\n      tag_240\n        /* \"contracts/distribution/TShareRewardPool.sol\":7835:7839  user */\n      dup3\n        /* \"contracts/distribution/TShareRewardPool.sol\":7835:7850  user.rewardDebt */\n      0x01\n      add\n      sload\n        /* \"contracts/distribution/TShareRewardPool.sol\":7783:7830  user.amount.mul(pool.accRockPerShare).div(1e18) */\n      tag_241\n        /* \"contracts/distribution/TShareRewardPool.sol\":7825:7829  1e18 */\n      0x0de0b6b3a7640000\n        /* \"contracts/distribution/TShareRewardPool.sol\":7783:7820  user.amount.mul(pool.accRockPerShare) */\n      tag_242\n        /* \"contracts/distribution/TShareRewardPool.sol\":7799:7803  pool */\n      dup8\n        /* \"contracts/distribution/TShareRewardPool.sol\":7799:7819  pool.accRockPerShare */\n      0x03\n      add\n      sload\n        /* \"contracts/distribution/TShareRewardPool.sol\":7783:7787  user */\n      dup8\n        /* \"contracts/distribution/TShareRewardPool.sol\":7783:7794  user.amount */\n      0x00\n      add\n      sload\n        /* \"contracts/distribution/TShareRewardPool.sol\":7783:7798  user.amount.mul */\n      tag_115\n      swap1\n        /* \"contracts/distribution/TShareRewardPool.sol\":7783:7820  user.amount.mul(pool.accRockPerShare) */\n      swap2\n      swap1\n      0xffffffff\n      and\n      jump\t// in\n    tag_242:\n        /* \"contracts/distribution/TShareRewardPool.sol\":7783:7824  user.amount.mul(pool.accRockPerShare).div */\n      tag_141\n      swap1\n        /* \"contracts/distribution/TShareRewardPool.sol\":7783:7830  user.amount.mul(pool.accRockPerShare).div(1e18) */\n      swap2\n      swap1\n      0xffffffff\n      and\n      jump\t// in\n    tag_241:\n        /* \"contracts/distribution/TShareRewardPool.sol\":7783:7834  user.amount.mul(pool.accRockPerShare).div(1e18).sub */\n      tag_106\n      swap1\n        /* \"contracts/distribution/TShareRewardPool.sol\":7783:7851  user.amount.mul(pool.accRockPerShare).div(1e18).sub(user.rewardDebt) */\n      swap2\n      swap1\n      0xffffffff\n      and\n      jump\t// in\n    tag_240:\n        /* \"contracts/distribution/TShareRewardPool.sol\":7764:7851  uint256 _pending = user.amount.mul(pool.accRockPerShare).div(1e18).sub(user.rewardDebt) */\n      swap1\n      pop\n        /* \"contracts/distribution/TShareRewardPool.sol\":7881:7882  0 */\n      0x00\n        /* \"contracts/distribution/TShareRewardPool.sol\":7870:7878  _pending */\n      dup2\n        /* \"contracts/distribution/TShareRewardPool.sol\":7870:7882  _pending > 0 */\n      gt\n        /* \"contracts/distribution/TShareRewardPool.sol\":7866:8007  if (_pending > 0) {\r... */\n      iszero\n      tag_243\n      jumpi\n        /* \"contracts/distribution/TShareRewardPool.sol\":7903:7938  safeRockTransfer(_sender, _pending) */\n      tag_244\n        /* \"contracts/distribution/TShareRewardPool.sol\":7920:7927  _sender */\n      dup5\n        /* \"contracts/distribution/TShareRewardPool.sol\":7929:7937  _pending */\n      dup3\n        /* \"contracts/distribution/TShareRewardPool.sol\":7903:7919  safeRockTransfer */\n      tag_144\n        /* \"contracts/distribution/TShareRewardPool.sol\":7903:7938  safeRockTransfer(_sender, _pending) */\n      jump\t// in\n    tag_244:\n        /* \"contracts/distribution/TShareRewardPool.sol\":7973:7980  _sender */\n      dup4\n        /* \"contracts/distribution/TShareRewardPool.sol\":7962:7991  RewardPaid(_sender, _pending) */\n      0xffffffffffffffffffffffffffffffffffffffff\n      and\n      0xe2403640ba68fed3a2f88b7557551d1993f84b99bb10ff833f0cf8db0c5e0486\n        /* \"contracts/distribution/TShareRewardPool.sol\":7982:7990  _pending */\n      dup3\n        /* \"contracts/distribution/TShareRewardPool.sol\":7962:7991  RewardPaid(_sender, _pending) */\n      mload(0x40)\n      dup1\n      dup3\n      dup2\n      mstore\n      0x20\n      add\n      swap2\n      pop\n      pop\n      mload(0x40)\n      dup1\n      swap2\n      sub\n      swap1\n      log2\n        /* \"contracts/distribution/TShareRewardPool.sol\":7866:8007  if (_pending > 0) {\r... */\n    tag_243:\n        /* \"contracts/distribution/TShareRewardPool.sol\":7728:8018  if (user.amount > 0) {\r... */\n      pop\n    tag_239:\n        /* \"contracts/distribution/TShareRewardPool.sol\":8042:8043  0 */\n      0x00\n        /* \"contracts/distribution/TShareRewardPool.sol\":8032:8039  _amount */\n      dup5\n        /* \"contracts/distribution/TShareRewardPool.sol\":8032:8043  _amount > 0 */\n      gt\n        /* \"contracts/distribution/TShareRewardPool.sol\":8028:8185  if (_amount > 0) {\r... */\n      iszero\n      tag_245\n      jumpi\n        /* \"contracts/distribution/TShareRewardPool.sol\":8060:8120  pool.token.safeTransferFrom(_sender, address(this), _amount) */\n      tag_246\n        /* \"contracts/distribution/TShareRewardPool.sol\":8088:8095  _sender */\n      dup4\n        /* \"contracts/distribution/TShareRewardPool.sol\":8105:8109  this */\n      address\n        /* \"contracts/distribution/TShareRewardPool.sol\":8112:8119  _amount */\n      dup7\n        /* \"contracts/distribution/TShareRewardPool.sol\":8060:8064  pool */\n      dup6\n        /* \"contracts/distribution/TShareRewardPool.sol\":8060:8070  pool.token */\n      0x00\n      add\n      0x00\n      swap1\n      sload\n      swap1\n      0x0100\n      exp\n      swap1\n      div\n      0xffffffffffffffffffffffffffffffffffffffff\n      and\n        /* \"contracts/distribution/TShareRewardPool.sol\":8060:8087  pool.token.safeTransferFrom */\n      0xffffffffffffffffffffffffffffffffffffffff\n      and\n      tag_247\n      swap1\n        /* \"contracts/distribution/TShareRewardPool.sol\":8060:8120  pool.token.safeTransferFrom(_sender, address(this), _amount) */\n      swap4\n      swap3\n      swap2\n      swap1\n      0xffffffff\n      and\n      jump\t// in\n    tag_246:\n        /* \"contracts/distribution/TShareRewardPool.sol\":8149:8173  user.amount.add(_amount) */\n      tag_248\n        /* \"contracts/distribution/TShareRewardPool.sol\":8165:8172  _amount */\n      dup5\n        /* \"contracts/distribution/TShareRewardPool.sol\":8149:8153  user */\n      dup3\n        /* \"contracts/distribution/TShareRewardPool.sol\":8149:8160  user.amount */\n      0x00\n      add\n      sload\n        /* \"contracts/distribution/TShareRewardPool.sol\":8149:8164  user.amount.add */\n      tag_107\n      swap1\n        /* \"contracts/distribution/TShareRewardPool.sol\":8149:8173  user.amount.add(_amount) */\n      swap2\n      swap1\n      0xffffffff\n      and\n      jump\t// in\n    tag_248:\n        /* \"contracts/distribution/TShareRewardPool.sol\":8135:8139  user */\n      dup2\n        /* \"contracts/distribution/TShareRewardPool.sol\":8135:8146  user.amount */\n      0x00\n      add\n        /* \"contracts/distribution/TShareRewardPool.sol\":8135:8173  user.amount = user.amount.add(_amount) */\n      dup2\n      swap1\n      sstore\n      pop\n        /* \"contracts/distribution/TShareRewardPool.sol\":8028:8185  if (_amount > 0) {\r... */\n    tag_245:\n        /* \"contracts/distribution/TShareRewardPool.sol\":8213:8260  user.amount.mul(pool.accRockPerShare).div(1e18) */\n      tag_249\n        /* \"contracts/distribution/TShareRewardPool.sol\":8255:8259  1e18 */\n      0x0de0b6b3a7640000\n        /* \"contracts/distribution/TShareRewardPool.sol\":8213:8250  user.amount.mul(pool.accRockPerShare) */\n      tag_250\n        /* \"contracts/distribution/TShareRewardPool.sol\":8229:8233  pool */\n      dup5\n        /* \"contracts/distribution/TShareRewardPool.sol\":8229:8249  pool.accRockPerShare */\n      0x03\n      add\n      sload\n        /* \"contracts/distribution/TShareRewardPool.sol\":8213:8217  user */\n      dup5\n        /* \"contracts/distribution/TShareRewardPool.sol\":8213:8224  user.amount */\n      0x00\n      add\n      sload\n        /* \"contracts/distribution/TShareRewardPool.sol\":8213:8228  user.amount.mul */\n      tag_115\n      swap1\n        /* \"contracts/distribution/TShareRewardPool.sol\":8213:8250  user.amount.mul(pool.accRockPerShare) */\n      swap2\n      swap1\n      0xffffffff\n      and\n      jump\t// in\n    tag_250:\n        /* \"contracts/distribution/TShareRewardPool.sol\":8213:8254  user.amount.mul(pool.accRockPerShare).div */\n      tag_141\n      swap1\n        /* \"contracts/distribution/TShareRewardPool.sol\":8213:8260  user.amount.mul(pool.accRockPerShare).div(1e18) */\n      swap2\n      swap1\n      0xffffffff\n      and\n      jump\t// in\n    tag_249:\n        /* \"contracts/distribution/TShareRewardPool.sol\":8195:8199  user */\n      dup2\n        /* \"contracts/distribution/TShareRewardPool.sol\":8195:8210  user.rewardDebt */\n      0x01\n      add\n        /* \"contracts/distribution/TShareRewardPool.sol\":8195:8260  user.rewardDebt = user.amount.mul(pool.accRockPerShare).div(1e18) */\n      dup2\n      swap1\n      sstore\n      pop\n        /* \"contracts/distribution/TShareRewardPool.sol\":8293:8297  _pid */\n      dup5\n        /* \"contracts/distribution/TShareRewardPool.sol\":8284:8291  _sender */\n      dup4\n        /* \"contracts/distribution/TShareRewardPool.sol\":8276:8307  Deposit(_sender, _pid, _amount) */\n      0xffffffffffffffffffffffffffffffffffffffff\n      and\n      0x90890809c654f11d6e72a28fa60149770a0d11ec6c92319d6ceb2bb0a4ea1a15\n        /* \"contracts/distribution/TShareRewardPool.sol\":8299:8306  _amount */\n      dup7\n        /* \"contracts/distribution/TShareRewardPool.sol\":8276:8307  Deposit(_sender, _pid, _amount) */\n      mload(0x40)\n      dup1\n      dup3\n      dup2\n      mstore\n      0x20\n      add\n      swap2\n      pop\n      pop\n      mload(0x40)\n      dup1\n      swap2\n      sub\n      swap1\n      log3\n        /* \"contracts/distribution/TShareRewardPool.sol\":7489:8315  function deposit(uint256 _pid, uint256 _amount) public {\r... */\n      pop\n      pop\n      pop\n      pop\n      pop\n      jump\t// out\n        /* \"@openzeppelin/contracts/access/Ownable.sol\":2065:2305  function transferOwnership(address newOwner) public virtual onlyOwner {... */\n    tag_94:\n        /* \"@openzeppelin/contracts/access/Ownable.sol\":1362:1374  _msgSender() */\n      tag_252\n        /* \"@openzeppelin/contracts/access/Ownable.sol\":1362:1372  _msgSender */\n      tag_127\n        /* \"@openzeppelin/contracts/access/Ownable.sol\":1362:1374  _msgSender() */\n      jump\t// in\n    tag_252:\n        /* \"@openzeppelin/contracts/access/Ownable.sol\":1351:1374  owner() == _msgSender() */\n      0xffffffffffffffffffffffffffffffffffffffff\n      and\n        /* \"@openzeppelin/contracts/access/Ownable.sol\":1351:1358  owner() */\n      tag_253\n        /* \"@openzeppelin/contracts/access/Ownable.sol\":1351:1356  owner */\n      tag_77\n        /* \"@openzeppelin/contracts/access/Ownable.sol\":1351:1358  owner() */\n      jump\t// in\n    tag_253:\n        /* \"@openzeppelin/contracts/access/Ownable.sol\":1351:1374  owner() == _msgSender() */\n      0xffffffffffffffffffffffffffffffffffffffff\n      and\n      eq\n        /* \"@openzeppelin/contracts/access/Ownable.sol\":1343:1411  require(owner() == _msgSender(), \"Ownable: caller is not the owner\") */\n      tag_254\n      jumpi\n      mload(0x40)\n      0x08c379a000000000000000000000000000000000000000000000000000000000\n      dup2\n      mstore\n      0x04\n      add\n      dup1\n      dup1\n      0x20\n      add\n      dup3\n      dup2\n      sub\n      dup3\n      mstore\n      0x20\n      dup2\n      mstore\n      0x20\n      add\n      dup1\n      0x4f776e61626c653a2063616c6c6572206973206e6f7420746865206f776e6572\n      dup2\n      mstore\n      pop\n      0x20\n      add\n      swap2\n      pop\n      pop\n      mload(0x40)\n      dup1\n      swap2\n      sub\n      swap1\n      revert\n    tag_254:\n        /* \"@openzeppelin/contracts/access/Ownable.sol\":2173:2174  0 */\n      0x00\n        /* \"@openzeppelin/contracts/access/Ownable.sol\":2153:2175  newOwner != address(0) */\n      0xffffffffffffffffffffffffffffffffffffffff\n      and\n        /* \"@openzeppelin/contracts/access/Ownable.sol\":2153:2161  newOwner */\n      dup2\n        /* \"@openzeppelin/contracts/access/Ownable.sol\":2153:2175  newOwner != address(0) */\n      0xffffffffffffffffffffffffffffffffffffffff\n      and\n      eq\n      iszero\n        /* \"@openzeppelin/contracts/access/Ownable.sol\":2145:2218  require(newOwner != address(0), \"Ownable: new owner is the zero address\") */\n      tag_256\n      jumpi\n      mload(0x40)\n      0x08c379a000000000000000000000000000000000000000000000000000000000\n      dup2\n      mstore\n      0x04\n      add\n      dup1\n      dup1\n      0x20\n      add\n      dup3\n      dup2\n      sub\n      dup3\n      mstore\n      0x26\n      dup2\n      mstore\n      0x20\n      add\n      dup1\n      data_245f15ff17f551913a7a18385165551503906a406f905ac1c2437281a7cd0cfe\n      0x26\n      swap2\n      codecopy\n      0x40\n      add\n      swap2\n      pop\n      pop\n      mload(0x40)\n      dup1\n      swap2\n      sub\n      swap1\n      revert\n    tag_256:\n        /* \"@openzeppelin/contracts/access/Ownable.sol\":2262:2270  newOwner */\n      dup1\n        /* \"@openzeppelin/contracts/access/Ownable.sol\":2233:2271  OwnershipTransferred(_owner, newOwner) */\n      0xffffffffffffffffffffffffffffffffffffffff\n      and\n        /* \"@openzeppelin/contracts/access/Ownable.sol\":2254:2260  _owner */\n      0x00\n      dup1\n      sload\n      swap1\n      0x0100\n      exp\n      swap1\n      div\n      0xffffffffffffffffffffffffffffffffffffffff\n      and\n        /* \"@openzeppelin/contracts/access/Ownable.sol\":2233:2271  OwnershipTransferred(_owner, newOwner) */\n      0xffffffffffffffffffffffffffffffffffffffff\n      and\n      0x8be0079c531659141344cd1fd0a4f28419497f9722a3daafe3b4186f6b6457e0\n      mload(0x40)\n      mload(0x40)\n      dup1\n      swap2\n      sub\n      swap1\n      log3\n        /* \"@openzeppelin/contracts/access/Ownable.sol\":2290:2298  newOwner */\n      dup1\n        /* \"@openzeppelin/contracts/access/Ownable.sol\":2281:2287  _owner */\n      0x00\n      dup1\n        /* \"@openzeppelin/contracts/access/Ownable.sol\":2281:2298  _owner = newOwner */\n      0x0100\n      exp\n      dup2\n      sload\n      dup2\n      0xffffffffffffffffffffffffffffffffffffffff\n      mul\n      not\n      and\n      swap1\n      dup4\n      0xffffffffffffffffffffffffffffffffffffffff\n      and\n      mul\n      or\n      swap1\n      sstore\n      pop\n        /* \"@openzeppelin/contracts/access/Ownable.sol\":2065:2305  function transferOwnership(address newOwner) public virtual onlyOwner {... */\n      pop\n      jump\t// out\n        /* \"@openzeppelin/contracts/utils/math/SafeMath.sol\":3136:3291  function sub(uint256 a, uint256 b) internal pure returns (uint256) {... */\n    tag_106:\n        /* \"@openzeppelin/contracts/utils/math/SafeMath.sol\":3194:3201  uint256 */\n      0x00\n        /* \"@openzeppelin/contracts/utils/math/SafeMath.sol\":3226:3227  a */\n      dup3\n        /* \"@openzeppelin/contracts/utils/math/SafeMath.sol\":3221:3222  b */\n      dup3\n        /* \"@openzeppelin/contracts/utils/math/SafeMath.sol\":3221:3227  b <= a */\n      gt\n      iszero\n        /* \"@openzeppelin/contracts/utils/math/SafeMath.sol\":3213:3262  require(b <= a, \"SafeMath: subtraction overflow\") */\n      tag_258\n      jumpi\n      mload(0x40)\n      0x08c379a000000000000000000000000000000000000000000000000000000000\n      dup2\n      mstore\n      0x04\n      add\n      dup1\n      dup1\n      0x20\n      add\n      dup3\n      dup2\n      sub\n      dup3\n      mstore\n      0x1e\n      dup2\n      mstore\n      0x20\n      add\n      dup1\n      0x536166654d6174683a207375627472616374696f6e206f766572666c6f770000\n      dup2\n      mstore\n      pop\n      0x20\n      add\n      swap2\n      pop\n      pop\n      mload(0x40)\n      dup1\n      swap2\n      sub\n      swap1\n      revert\n    tag_258:\n        /* \"@openzeppelin/contracts/utils/math/SafeMath.sol\":3283:3284  b */\n      dup2\n        /* \"@openzeppelin/contracts/utils/math/SafeMath.sol\":3279:3280  a */\n      dup4\n        /* \"@openzeppelin/contracts/utils/math/SafeMath.sol\":3279:3284  a - b */\n      sub\n        /* \"@openzeppelin/contracts/utils/math/SafeMath.sol\":3272:3284  return a - b */\n      swap1\n      pop\n        /* \"@openzeppelin/contracts/utils/math/SafeMath.sol\":3136:3291  function sub(uint256 a, uint256 b) internal pure returns (uint256) {... */\n      swap3\n      swap2\n      pop\n      pop\n      jump\t// out\n        /* \"@openzeppelin/contracts/utils/math/SafeMath.sol\":2690:2865  function add(uint256 a, uint256 b) internal pure returns (uint256) {... */\n    tag_107:\n        /* \"@openzeppelin/contracts/utils/math/SafeMath.sol\":2748:2755  uint256 */\n      0x00\n        /* \"@openzeppelin/contracts/utils/math/SafeMath.sol\":2767:2776  uint256 c */\n      dup1\n        /* \"@openzeppelin/contracts/utils/math/SafeMath.sol\":2783:2784  b */\n      dup3\n        /* \"@openzeppelin/contracts/utils/math/SafeMath.sol\":2779:2780  a */\n      dup5\n        /* \"@openzeppelin/contracts/utils/math/SafeMath.sol\":2779:2784  a + b */\n      add\n        /* \"@openzeppelin/contracts/utils/math/SafeMath.sol\":2767:2784  uint256 c = a + b */\n      swap1\n      pop\n        /* \"@openzeppelin/contracts/utils/math/SafeMath.sol\":2807:2808  a */\n      dup4\n        /* \"@openzeppelin/contracts/utils/math/SafeMath.sol\":2802:2803  c */\n      dup2\n        /* \"@openzeppelin/contracts/utils/math/SafeMath.sol\":2802:2808  c >= a */\n      lt\n      iszero\n        /* \"@openzeppelin/contracts/utils/math/SafeMath.sol\":2794:2840  require(c >= a, \"SafeMath: addition overflow\") */\n      tag_260\n      jumpi\n      mload(0x40)\n      0x08c379a000000000000000000000000000000000000000000000000000000000\n      dup2\n      mstore\n      0x04\n      add\n      dup1\n      dup1\n      0x20\n      add\n      dup3\n      dup2\n      sub\n      dup3\n      mstore\n      0x1b\n      dup2\n      mstore\n      0x20\n      add\n      dup1\n      0x536166654d6174683a206164646974696f6e206f766572666c6f770000000000\n      dup2\n      mstore\n      pop\n      0x20\n      add\n      swap2\n      pop\n      pop\n      mload(0x40)\n      dup1\n      swap2\n      sub\n      swap1\n      revert\n    tag_260:\n        /* \"@openzeppelin/contracts/utils/math/SafeMath.sol\":2857:2858  c */\n      dup1\n        /* \"@openzeppelin/contracts/utils/math/SafeMath.sol\":2850:2858  return c */\n      swap2\n      pop\n      pop\n        /* \"@openzeppelin/contracts/utils/math/SafeMath.sol\":2690:2865  function add(uint256 a, uint256 b) internal pure returns (uint256) {... */\n      swap3\n      swap2\n      pop\n      pop\n      jump\t// out\n        /* \"@openzeppelin/contracts/utils/math/SafeMath.sol\":3538:3753  function mul(uint256 a, uint256 b) internal pure returns (uint256) {... */\n    tag_115:\n        /* \"@openzeppelin/contracts/utils/math/SafeMath.sol\":3596:3603  uint256 */\n      0x00\n        /* \"@openzeppelin/contracts/utils/math/SafeMath.sol\":3624:3625  0 */\n      dup1\n        /* \"@openzeppelin/contracts/utils/math/SafeMath.sol\":3619:3620  a */\n      dup4\n        /* \"@openzeppelin/contracts/utils/math/SafeMath.sol\":3619:3625  a == 0 */\n      eq\n        /* \"@openzeppelin/contracts/utils/math/SafeMath.sol\":3615:3635  if (a == 0) return 0 */\n      iszero\n      tag_262\n      jumpi\n        /* \"@openzeppelin/contracts/utils/math/SafeMath.sol\":3634:3635  0 */\n      0x00\n        /* \"@openzeppelin/contracts/utils/math/SafeMath.sol\":3627:3635  return 0 */\n      swap1\n      pop\n      jump(tag_261)\n        /* \"@openzeppelin/contracts/utils/math/SafeMath.sol\":3615:3635  if (a == 0) return 0 */\n    tag_262:\n        /* \"@openzeppelin/contracts/utils/math/SafeMath.sol\":3645:3654  uint256 c */\n      0x00\n        /* \"@openzeppelin/contracts/utils/math/SafeMath.sol\":3661:3662  b */\n      dup3\n        /* \"@openzeppelin/contracts/utils/math/SafeMath.sol\":3657:3658  a */\n      dup5\n        /* \"@openzeppelin/contracts/utils/math/SafeMath.sol\":3657:3662  a * b */\n      mul\n        /* \"@openzeppelin/contracts/utils/math/SafeMath.sol\":3645:3662  uint256 c = a * b */\n      swap1\n      pop\n        /* \"@openzeppelin/contracts/utils/math/SafeMath.sol\":3689:3690  b */\n      dup3\n        /* \"@openzeppelin/contracts/utils/math/SafeMath.sol\":3684:3685  a */\n      dup5\n        /* \"@openzeppelin/contracts/utils/math/SafeMath.sol\":3680:3681  c */\n      dup3\n        /* \"@openzeppelin/contracts/utils/math/SafeMath.sol\":3680:3685  c / a */\n      dup2\n      tag_263\n      jumpi\n      invalid\n    tag_263:\n      div\n        /* \"@openzeppelin/contracts/utils/math/SafeMath.sol\":3680:3690  c / a == b */\n      eq\n        /* \"@openzeppelin/contracts/utils/math/SafeMath.sol\":3672:3728  require(c / a == b, \"SafeMath: multiplication overflow\") */\n      tag_264\n      jumpi\n      mload(0x40)\n      0x08c379a000000000000000000000000000000000000000000000000000000000\n      dup2\n      mstore\n      0x04\n      add\n      dup1\n      dup1\n      0x20\n      add\n      dup3\n      dup2\n      sub\n      dup3\n      mstore\n      0x21\n      dup2\n      mstore\n      0x20\n      add\n      dup1\n      data_9113bb53c2876a3805b2c9242029423fc540a728243ce887ab24c82cf119fba3\n      0x21\n      swap2\n      codecopy\n      0x40\n      add\n      swap2\n      pop\n      pop\n      mload(0x40)\n      dup1\n      swap2\n      sub\n      swap1\n      revert\n    tag_264:\n        /* \"@openzeppelin/contracts/utils/math/SafeMath.sol\":3745:3746  c */\n      dup1\n        /* \"@openzeppelin/contracts/utils/math/SafeMath.sol\":3738:3746  return c */\n      swap2\n      pop\n      pop\n        /* \"@openzeppelin/contracts/utils/math/SafeMath.sol\":3538:3753  function mul(uint256 a, uint256 b) internal pure returns (uint256) {... */\n    tag_261:\n      swap3\n      swap2\n      pop\n      pop\n      jump\t// out\n        /* \"@openzeppelin/contracts/utils/Context.sol\":596:692  function _msgSender() internal view virtual returns (address) {... */\n    tag_127:\n        /* \"@openzeppelin/contracts/utils/Context.sol\":649:656  address */\n      0x00\n        /* \"@openzeppelin/contracts/utils/Context.sol\":675:685  msg.sender */\n      caller\n        /* \"@openzeppelin/contracts/utils/Context.sol\":668:685  return msg.sender */\n      swap1\n      pop\n        /* \"@openzeppelin/contracts/utils/Context.sol\":596:692  function _msgSender() internal view virtual returns (address) {... */\n      swap1\n      jump\t// out\n        /* \"contracts/owner/Operator.sol\":1017:1361  function _transferOperator(address newOperator_) internal {\r... */\n    tag_132:\n        /* \"contracts/owner/Operator.sol\":1132:1133  0 */\n      0x00\n        /* \"contracts/owner/Operator.sol\":1108:1134  newOperator_ != address(0) */\n      0xffffffffffffffffffffffffffffffffffffffff\n      and\n        /* \"contracts/owner/Operator.sol\":1108:1120  newOperator_ */\n      dup2\n        /* \"contracts/owner/Operator.sol\":1108:1134  newOperator_ != address(0) */\n      0xffffffffffffffffffffffffffffffffffffffff\n      and\n      eq\n      iszero\n        /* \"contracts/owner/Operator.sol\":1086:1207  require(\r... */\n      tag_267\n      jumpi\n      mload(0x40)\n      0x08c379a000000000000000000000000000000000000000000000000000000000\n      dup2\n      mstore\n      0x04\n      add\n      dup1\n      dup1\n      0x20\n      add\n      dup3\n      dup2\n      sub\n      dup3\n      mstore\n      0x2d\n      dup2\n      mstore\n      0x20\n      add\n      dup1\n      data_756508c1c0554725dd91ce0028667672a5318d736a5e4bcd98b6bc8fe98c3dc7\n      0x2d\n      swap2\n      codecopy\n      0x40\n      add\n      swap2\n      pop\n      pop\n      mload(0x40)\n      dup1\n      swap2\n      sub\n      swap1\n      revert\n    tag_267:\n        /* \"contracts/owner/Operator.sol\":1255:1267  newOperator_ */\n      dup1\n        /* \"contracts/owner/Operator.sol\":1223:1268  OperatorTransferred(address(0), newOperator_) */\n      0xffffffffffffffffffffffffffffffffffffffff\n      and\n        /* \"contracts/owner/Operator.sol\":1251:1252  0 */\n      0x00\n        /* \"contracts/owner/Operator.sol\":1223:1268  OperatorTransferred(address(0), newOperator_) */\n      0xffffffffffffffffffffffffffffffffffffffff\n      and\n      0x74da04524d50c64947f5dd5381ef1a4dca5cba8ed1d816243f9e48aa0b5617ed\n      mload(0x40)\n      mload(0x40)\n      dup1\n      swap2\n      sub\n      swap1\n      log3\n        /* \"contracts/owner/Operator.sol\":1279:1318  Ownable.transferOwnership(newOperator_) */\n      tag_268\n        /* \"contracts/owner/Operator.sol\":1305:1317  newOperator_ */\n      dup2\n        /* \"contracts/owner/Operator.sol\":1279:1304  Ownable.transferOwnership */\n      tag_94\n        /* \"contracts/owner/Operator.sol\":1279:1318  Ownable.transferOwnership(newOperator_) */\n      jump\t// in\n    tag_268:\n        /* \"contracts/owner/Operator.sol\":1341:1353  newOperator_ */\n      dup1\n        /* \"contracts/owner/Operator.sol\":1329:1338  _operator */\n      0x01\n      0x00\n        /* \"contracts/owner/Operator.sol\":1329:1353  _operator = newOperator_ */\n      0x0100\n      exp\n      dup2\n      sload\n      dup2\n      0xffffffffffffffffffffffffffffffffffffffff\n      mul\n      not\n      and\n      swap1\n      dup4\n      0xffffffffffffffffffffffffffffffffffffffff\n      and\n      mul\n      or\n      swap1\n      sstore\n      pop\n        /* \"contracts/owner/Operator.sol\":1017:1361  function _transferOperator(address newOperator_) internal {\r... */\n      pop\n      jump\t// out\n        /* \"@openzeppelin/contracts/utils/math/SafeMath.sol\":4217:4367  function div(uint256 a, uint256 b) internal pure returns (uint256) {... */\n    tag_141:\n        /* \"@openzeppelin/contracts/utils/math/SafeMath.sol\":4275:4282  uint256 */\n      0x00\n        /* \"@openzeppelin/contracts/utils/math/SafeMath.sol\":4306:4307  0 */\n      dup1\n        /* \"@openzeppelin/contracts/utils/math/SafeMath.sol\":4302:4303  b */\n      dup3\n        /* \"@openzeppelin/contracts/utils/math/SafeMath.sol\":4302:4307  b > 0 */\n      gt\n        /* \"@openzeppelin/contracts/utils/math/SafeMath.sol\":4294:4338  require(b > 0, \"SafeMath: division by zero\") */\n      tag_270\n      jumpi\n      mload(0x40)\n      0x08c379a000000000000000000000000000000000000000000000000000000000\n      dup2\n      mstore\n      0x04\n      add\n      dup1\n      dup1\n      0x20\n      add\n      dup3\n      dup2\n      sub\n      dup3\n      mstore\n      0x1a\n      dup2\n      mstore\n      0x20\n      add\n      dup1\n      0x536166654d6174683a206469766973696f6e206279207a65726f000000000000\n      dup2\n      mstore\n      pop\n      0x20\n      add\n      swap2\n      pop\n      pop\n      mload(0x40)\n      dup1\n      swap2\n      sub\n      swap1\n      revert\n    tag_270:\n        /* \"@openzeppelin/contracts/utils/math/SafeMath.sol\":4359:4360  b */\n      dup2\n        /* \"@openzeppelin/contracts/utils/math/SafeMath.sol\":4355:4356  a */\n      dup4\n        /* \"@openzeppelin/contracts/utils/math/SafeMath.sol\":4355:4360  a / b */\n      dup2\n      tag_271\n      jumpi\n      invalid\n    tag_271:\n      div\n        /* \"@openzeppelin/contracts/utils/math/SafeMath.sol\":4348:4360  return a / b */\n      swap1\n      pop\n        /* \"@openzeppelin/contracts/utils/math/SafeMath.sol\":4217:4367  function div(uint256 a, uint256 b) internal pure returns (uint256) {... */\n      swap3\n      swap2\n      pop\n      pop\n      jump\t// out\n        /* \"contracts/distribution/TShareRewardPool.sol\":9723:10072  function safeRockTransfer(address _to, uint256 _amount) internal {\r... */\n    tag_144:\n        /* \"contracts/distribution/TShareRewardPool.sol\":9799:9815  uint256 _RockBal */\n      0x00\n        /* \"contracts/distribution/TShareRewardPool.sol\":9818:9822  Rock */\n      0x02\n      0x00\n      swap1\n      sload\n      swap1\n      0x0100\n      exp\n      swap1\n      div\n      0xffffffffffffffffffffffffffffffffffffffff\n      and\n        /* \"contracts/distribution/TShareRewardPool.sol\":9818:9832  Rock.balanceOf */\n      0xffffffffffffffffffffffffffffffffffffffff\n      and\n      0x70a08231\n        /* \"contracts/distribution/TShareRewardPool.sol\":9841:9845  this */\n      address\n        /* \"contracts/distribution/TShareRewardPool.sol\":9818:9847  Rock.balanceOf(address(this)) */\n      mload(0x40)\n      dup3\n      0xffffffff\n      and\n      0xe0\n      shl\n      dup2\n      mstore\n      0x04\n      add\n      dup1\n      dup3\n      0xffffffffffffffffffffffffffffffffffffffff\n      and\n      dup2\n      mstore\n      0x20\n      add\n      swap2\n      pop\n      pop\n      0x20\n      mload(0x40)\n      dup1\n      dup4\n      sub\n      dup2\n      dup7\n      dup1\n      extcodesize\n      iszero\n      dup1\n      iszero\n      tag_273\n      jumpi\n      0x00\n      dup1\n      revert\n    tag_273:\n      pop\n      gas\n      staticcall\n      iszero\n      dup1\n      iszero\n      tag_275\n      jumpi\n      returndatasize\n      0x00\n      dup1\n      returndatacopy\n      revert(0x00, returndatasize)\n    tag_275:\n      pop\n      pop\n      pop\n      pop\n      mload(0x40)\n      returndatasize\n      0x20\n      dup2\n      lt\n      iszero\n      tag_276\n      jumpi\n      0x00\n      dup1\n      revert\n    tag_276:\n      dup2\n      add\n      swap1\n      dup1\n      dup1\n      mload\n      swap1\n      0x20\n      add\n      swap1\n      swap3\n      swap2\n      swap1\n      pop\n      pop\n      pop\n        /* \"contracts/distribution/TShareRewardPool.sol\":9799:9847  uint256 _RockBal = Rock.balanceOf(address(this)) */\n      swap1\n      pop\n        /* \"contracts/distribution/TShareRewardPool.sol\":9873:9874  0 */\n      0x00\n        /* \"contracts/distribution/TShareRewardPool.sol\":9862:9870  _RockBal */\n      dup2\n        /* \"contracts/distribution/TShareRewardPool.sol\":9862:9874  _RockBal > 0 */\n      gt\n        /* \"contracts/distribution/TShareRewardPool.sol\":9858:10065  if (_RockBal > 0) {\r... */\n      iszero\n      tag_277\n      jumpi\n        /* \"contracts/distribution/TShareRewardPool.sol\":9905:9913  _RockBal */\n      dup1\n        /* \"contracts/distribution/TShareRewardPool.sol\":9895:9902  _amount */\n      dup3\n        /* \"contracts/distribution/TShareRewardPool.sol\":9895:9913  _amount > _RockBal */\n      gt\n        /* \"contracts/distribution/TShareRewardPool.sol\":9891:10054  if (_amount > _RockBal) {\r... */\n      iszero\n      tag_278\n      jumpi\n        /* \"contracts/distribution/TShareRewardPool.sol\":9934:9966  Rock.safeTransfer(_to, _RockBal) */\n      tag_279\n        /* \"contracts/distribution/TShareRewardPool.sol\":9952:9955  _to */\n      dup4\n        /* \"contracts/distribution/TShareRewardPool.sol\":9957:9965  _RockBal */\n      dup3\n        /* \"contracts/distribution/TShareRewardPool.sol\":9934:9938  Rock */\n      0x02\n      0x00\n      swap1\n      sload\n      swap1\n      0x0100\n      exp\n      swap1\n      div\n      0xffffffffffffffffffffffffffffffffffffffff\n      and\n        /* \"contracts/distribution/TShareRewardPool.sol\":9934:9951  Rock.safeTransfer */\n      0xffffffffffffffffffffffffffffffffffffffff\n      and\n      tag_148\n      swap1\n        /* \"contracts/distribution/TShareRewardPool.sol\":9934:9966  Rock.safeTransfer(_to, _RockBal) */\n      swap3\n      swap2\n      swap1\n      0xffffffff\n      and\n      jump\t// in\n    tag_279:\n        /* \"contracts/distribution/TShareRewardPool.sol\":9891:10054  if (_amount > _RockBal) {\r... */\n      jump(tag_280)\n    tag_278:\n        /* \"contracts/distribution/TShareRewardPool.sol\":10007:10038  Rock.safeTransfer(_to, _amount) */\n      tag_281\n        /* \"contracts/distribution/TShareRewardPool.sol\":10025:10028  _to */\n      dup4\n        /* \"contracts/distribution/TShareRewardPool.sol\":10030:10037  _amount */\n      dup4\n        /* \"contracts/distribution/TShareRewardPool.sol\":10007:10011  Rock */\n      0x02\n      0x00\n      swap1\n      sload\n      swap1\n      0x0100\n      exp\n      swap1\n      div\n      0xffffffffffffffffffffffffffffffffffffffff\n      and\n        /* \"contracts/distribution/TShareRewardPool.sol\":10007:10024  Rock.safeTransfer */\n      0xffffffffffffffffffffffffffffffffffffffff\n      and\n      tag_148\n      swap1\n        /* \"contracts/distribution/TShareRewardPool.sol\":10007:10038  Rock.safeTransfer(_to, _amount) */\n      swap3\n      swap2\n      swap1\n      0xffffffff\n      and\n      jump\t// in\n    tag_281:\n        /* \"contracts/distribution/TShareRewardPool.sol\":9891:10054  if (_amount > _RockBal) {\r... */\n    tag_280:\n        /* \"contracts/distribution/TShareRewardPool.sol\":9858:10065  if (_RockBal > 0) {\r... */\n    tag_277:\n        /* \"contracts/distribution/TShareRewardPool.sol\":9723:10072  function safeRockTransfer(address _to, uint256 _amount) internal {\r... */\n      pop\n      pop\n      pop\n      jump\t// out\n        /* \"@openzeppelin/contracts/token/ERC20/utils/SafeERC20.sol\":717:892  function safeTransfer(IERC20 token, address to, uint256 value) internal {... */\n    tag_148:\n        /* \"@openzeppelin/contracts/token/ERC20/utils/SafeERC20.sol\":799:885  _callOptionalReturn(token, abi.encodeWithSelector(token.transfer.selector, to, value)) */\n      tag_283\n        /* \"@openzeppelin/contracts/token/ERC20/utils/SafeERC20.sol\":819:824  token */\n      dup4\n        /* \"@openzeppelin/contracts/token/ERC20/utils/SafeERC20.sol\":849:872  token.transfer.selector */\n      shl(0xe0, 0xa9059cbb)\n        /* \"@openzeppelin/contracts/token/ERC20/utils/SafeERC20.sol\":874:876  to */\n      dup5\n        /* \"@openzeppelin/contracts/token/ERC20/utils/SafeERC20.sol\":878:883  value */\n      dup5\n        /* \"@openzeppelin/contracts/token/ERC20/utils/SafeERC20.sol\":826:884  abi.encodeWithSelector(token.transfer.selector, to, value) */\n      add(0x24, mload(0x40))\n      dup1\n      dup4\n      0xffffffffffffffffffffffffffffffffffffffff\n      and\n      dup2\n      mstore\n      0x20\n      add\n      dup3\n      dup2\n      mstore\n      0x20\n      add\n      swap3\n      pop\n      pop\n      pop\n      mload(0x40)\n      0x20\n      dup2\n      dup4\n      sub\n      sub\n      dup2\n      mstore\n      swap1\n      0x40\n      mstore\n      swap1\n      not(0xffffffffffffffffffffffffffffffffffffffffffffffffffffffff)\n      and\n      0x20\n      dup3\n      add\n      dup1\n      mload\n      0xffffffffffffffffffffffffffffffffffffffffffffffffffffffff\n      dup4\n      dup2\n      dup4\n      and\n      or\n      dup4\n      mstore\n      pop\n      pop\n      pop\n      pop\n        /* \"@openzeppelin/contracts/token/ERC20/utils/SafeERC20.sol\":799:818  _callOptionalReturn */\n      tag_284\n        /* \"@openzeppelin/contracts/token/ERC20/utils/SafeERC20.sol\":799:885  _callOptionalReturn(token, abi.encodeWithSelector(token.transfer.selector, to, value)) */\n      jump\t// in\n    tag_283:\n        /* \"@openzeppelin/contracts/token/ERC20/utils/SafeERC20.sol\":717:892  function safeTransfer(IERC20 token, address to, uint256 value) internal {... */\n      pop\n      pop\n      pop\n      jump\t// out\n        /* \"contracts/distribution/TShareRewardPool.sol\":2581:2841  function checkPoolDuplicate(IERC20 _token) internal view {\r... */\n    tag_203:\n        /* \"contracts/distribution/TShareRewardPool.sol\":2649:2663  uint256 length */\n      0x00\n        /* \"contracts/distribution/TShareRewardPool.sol\":2666:2674  poolInfo */\n      0x03\n        /* \"contracts/distribution/TShareRewardPool.sol\":2666:2681  poolInfo.length */\n      dup1\n      sload\n      swap1\n      pop\n        /* \"contracts/distribution/TShareRewardPool.sol\":2649:2681  uint256 length = poolInfo.length */\n      swap1\n      pop\n        /* \"contracts/distribution/TShareRewardPool.sol\":2697:2708  uint256 pid */\n      0x00\n        /* \"contracts/distribution/TShareRewardPool.sol\":2692:2834  for (uint256 pid = 0; pid < length; ++pid) {\r... */\n    tag_286:\n        /* \"contracts/distribution/TShareRewardPool.sol\":2720:2726  length */\n      dup2\n        /* \"contracts/distribution/TShareRewardPool.sol\":2714:2717  pid */\n      dup2\n        /* \"contracts/distribution/TShareRewardPool.sol\":2714:2726  pid < length */\n      lt\n        /* \"contracts/distribution/TShareRewardPool.sol\":2692:2834  for (uint256 pid = 0; pid < length; ++pid) {\r... */\n      iszero\n      tag_287\n      jumpi\n        /* \"contracts/distribution/TShareRewardPool.sol\":2781:2787  _token */\n      dup3\n        /* \"contracts/distribution/TShareRewardPool.sol\":2758:2787  poolInfo[pid].token != _token */\n      0xffffffffffffffffffffffffffffffffffffffff\n      and\n        /* \"contracts/distribution/TShareRewardPool.sol\":2758:2766  poolInfo */\n      0x03\n        /* \"contracts/distribution/TShareRewardPool.sol\":2767:2770  pid */\n      dup3\n        /* \"contracts/distribution/TShareRewardPool.sol\":2758:2771  poolInfo[pid] */\n      dup2\n      sload\n      dup2\n      lt\n      tag_289\n      jumpi\n      invalid\n    tag_289:\n      swap1\n      0x00\n      mstore\n      keccak256(0x00, 0x20)\n      swap1\n      0x05\n      mul\n      add\n        /* \"contracts/distribution/TShareRewardPool.sol\":2758:2777  poolInfo[pid].token */\n      0x00\n      add\n      0x00\n      swap1\n      sload\n      swap1\n      0x0100\n      exp\n      swap1\n      div\n      0xffffffffffffffffffffffffffffffffffffffff\n      and\n        /* \"contracts/distribution/TShareRewardPool.sol\":2758:2787  poolInfo[pid].token != _token */\n      0xffffffffffffffffffffffffffffffffffffffff\n      and\n      eq\n      iszero\n        /* \"contracts/distribution/TShareRewardPool.sol\":2750:2822  require(poolInfo[pid].token != _token, \"RockRewardPool: existing pool?\") */\n      tag_291\n      jumpi\n      mload(0x40)\n      0x08c379a000000000000000000000000000000000000000000000000000000000\n      dup2\n      mstore\n      0x04\n      add\n      dup1\n      dup1\n      0x20\n      add\n      dup3\n      dup2\n      sub\n      dup3\n      mstore\n      0x1e\n      dup2\n      mstore\n      0x20\n      add\n      dup1\n      0x526f636b526577617264506f6f6c3a206578697374696e6720706f6f6c3f0000\n      dup2\n      mstore\n      pop\n      0x20\n      add\n      swap2\n      pop\n      pop\n      mload(0x40)\n      dup1\n      swap2\n      sub\n      swap1\n      revert\n    tag_291:\n        /* \"contracts/distribution/TShareRewardPool.sol\":2728:2733  ++pid */\n      dup1\n      0x01\n      add\n      swap1\n      pop\n        /* \"contracts/distribution/TShareRewardPool.sol\":2692:2834  for (uint256 pid = 0; pid < length; ++pid) {\r... */\n      jump(tag_286)\n    tag_287:\n      pop\n        /* \"contracts/distribution/TShareRewardPool.sol\":2581:2841  function checkPoolDuplicate(IERC20 _token) internal view {\r... */\n      pop\n      pop\n      jump\t// out\n        /* \"@openzeppelin/contracts/token/ERC20/utils/SafeERC20.sol\":898:1101  function safeTransferFrom(IERC20 token, address from, address to, uint256 value) internal {... */\n    tag_247:\n        /* \"@openzeppelin/contracts/token/ERC20/utils/SafeERC20.sol\":998:1094  _callOptionalReturn(token, abi.encodeWithSelector(token.transferFrom.selector, from, to, value)) */\n      tag_293\n        /* \"@openzeppelin/contracts/token/ERC20/utils/SafeERC20.sol\":1018:1023  token */\n      dup5\n        /* \"@openzeppelin/contracts/token/ERC20/utils/SafeERC20.sol\":1048:1075  token.transferFrom.selector */\n      shl(0xe0, 0x23b872dd)\n        /* \"@openzeppelin/contracts/token/ERC20/utils/SafeERC20.sol\":1077:1081  from */\n      dup6\n        /* \"@openzeppelin/contracts/token/ERC20/utils/SafeERC20.sol\":1083:1085  to */\n      dup6\n        /* \"@openzeppelin/contracts/token/ERC20/utils/SafeERC20.sol\":1087:1092  value */\n      dup6\n        /* \"@openzeppelin/contracts/token/ERC20/utils/SafeERC20.sol\":1025:1093  abi.encodeWithSelector(token.transferFrom.selector, from, to, value) */\n      add(0x24, mload(0x40))\n      dup1\n      dup5\n      0xffffffffffffffffffffffffffffffffffffffff\n      and\n      dup2\n      mstore\n      0x20\n      add\n      dup4\n      0xffffffffffffffffffffffffffffffffffffffff\n      and\n      dup2\n      mstore\n      0x20\n      add\n      dup3\n      dup2\n      mstore\n      0x20\n      add\n      swap4\n      pop\n      pop\n      pop\n      pop\n      mload(0x40)\n      0x20\n      dup2\n      dup4\n      sub\n      sub\n      dup2\n      mstore\n      swap1\n      0x40\n      mstore\n      swap1\n      not(0xffffffffffffffffffffffffffffffffffffffffffffffffffffffff)\n      and\n      0x20\n      dup3\n      add\n      dup1\n      mload\n      0xffffffffffffffffffffffffffffffffffffffffffffffffffffffff\n      dup4\n      dup2\n      dup4\n      and\n      or\n      dup4\n      mstore\n      pop\n      pop\n      pop\n      pop\n        /* \"@openzeppelin/contracts/token/ERC20/utils/SafeERC20.sol\":998:1017  _callOptionalReturn */\n      tag_284\n        /* \"@openzeppelin/contracts/token/ERC20/utils/SafeERC20.sol\":998:1094  _callOptionalReturn(token, abi.encodeWithSelector(token.transferFrom.selector, from, to, value)) */\n      jump\t// in\n    tag_293:\n        /* \"@openzeppelin/contracts/token/ERC20/utils/SafeERC20.sol\":898:1101  function safeTransferFrom(IERC20 token, address from, address to, uint256 value) internal {... */\n      pop\n      pop\n      pop\n      pop\n      jump\t// out\n        /* \"@openzeppelin/contracts/token/ERC20/utils/SafeERC20.sol\":2980:3731  function _callOptionalReturn(IERC20 token, bytes memory data) private {... */\n    tag_284:\n        /* \"@openzeppelin/contracts/token/ERC20/utils/SafeERC20.sol\":3399:3422  bytes memory returndata */\n      0x60\n        /* \"@openzeppelin/contracts/token/ERC20/utils/SafeERC20.sol\":3425:3494  address(token).functionCall(data, \"SafeERC20: low-level call failed\") */\n      tag_295\n        /* \"@openzeppelin/contracts/token/ERC20/utils/SafeERC20.sol\":3453:3457  data */\n      dup3\n        /* \"@openzeppelin/contracts/token/ERC20/utils/SafeERC20.sol\":3425:3494  address(token).functionCall(data, \"SafeERC20: low-level call failed\") */\n      mload(0x40)\n      dup1\n      0x40\n      add\n      0x40\n      mstore\n      dup1\n      0x20\n      dup2\n      mstore\n      0x20\n      add\n      0x5361666545524332303a206c6f772d6c6576656c2063616c6c206661696c6564\n      dup2\n      mstore\n      pop\n        /* \"@openzeppelin/contracts/token/ERC20/utils/SafeERC20.sol\":3433:3438  token */\n      dup6\n        /* \"@openzeppelin/contracts/token/ERC20/utils/SafeERC20.sol\":3425:3452  address(token).functionCall */\n      0xffffffffffffffffffffffffffffffffffffffff\n      and\n      tag_296\n      swap1\n        /* \"@openzeppelin/contracts/token/ERC20/utils/SafeERC20.sol\":3425:3494  address(token).functionCall(data, \"SafeERC20: low-level call failed\") */\n      swap3\n      swap2\n      swap1\n      0xffffffff\n      and\n      jump\t// in\n    tag_295:\n        /* \"@openzeppelin/contracts/token/ERC20/utils/SafeERC20.sol\":3399:3494  bytes memory returndata = address(token).functionCall(data, \"SafeERC20: low-level call failed\") */\n      swap1\n      pop\n        /* \"@openzeppelin/contracts/token/ERC20/utils/SafeERC20.sol\":3528:3529  0 */\n      0x00\n        /* \"@openzeppelin/contracts/token/ERC20/utils/SafeERC20.sol\":3508:3518  returndata */\n      dup2\n        /* \"@openzeppelin/contracts/token/ERC20/utils/SafeERC20.sol\":3508:3525  returndata.length */\n      mload\n        /* \"@openzeppelin/contracts/token/ERC20/utils/SafeERC20.sol\":3508:3529  returndata.length > 0 */\n      gt\n        /* \"@openzeppelin/contracts/token/ERC20/utils/SafeERC20.sol\":3504:3725  if (returndata.length > 0) { // Return data is optional... */\n      iszero\n      tag_297\n      jumpi\n        /* \"@openzeppelin/contracts/token/ERC20/utils/SafeERC20.sol\":3648:3658  returndata */\n      dup1\n        /* \"@openzeppelin/contracts/token/ERC20/utils/SafeERC20.sol\":3637:3667  abi.decode(returndata, (bool)) */\n      dup1\n      0x20\n      add\n      swap1\n      mload\n      0x20\n      dup2\n      lt\n      iszero\n      tag_298\n      jumpi\n      0x00\n      dup1\n      revert\n    tag_298:\n      dup2\n      add\n      swap1\n      dup1\n      dup1\n      mload\n      swap1\n      0x20\n      add\n      swap1\n      swap3\n      swap2\n      swap1\n      pop\n      pop\n      pop\n        /* \"@openzeppelin/contracts/token/ERC20/utils/SafeERC20.sol\":3629:3714  require(abi.decode(returndata, (bool)), \"SafeERC20: ERC20 operation did not succeed\") */\n      tag_299\n      jumpi\n      mload(0x40)\n      0x08c379a000000000000000000000000000000000000000000000000000000000\n      dup2\n      mstore\n      0x04\n      add\n      dup1\n      dup1\n      0x20\n      add\n      dup3\n      dup2\n      sub\n      dup3\n      mstore\n      0x2a\n      dup2\n      mstore\n      0x20\n      add\n      dup1\n      data_e11ad79d1e4a7f2e5f376964cb99e8e8f7904e3fc16a109f7a7ecb9aa7956dcd\n      0x2a\n      swap2\n      codecopy\n      0x40\n      add\n      swap2\n      pop\n      pop\n      mload(0x40)\n      dup1\n      swap2\n      sub\n      swap1\n      revert\n    tag_299:\n        /* \"@openzeppelin/contracts/token/ERC20/utils/SafeERC20.sol\":3504:3725  if (returndata.length > 0) { // Return data is optional... */\n    tag_297:\n        /* \"@openzeppelin/contracts/token/ERC20/utils/SafeERC20.sol\":2980:3731  function _callOptionalReturn(IERC20 token, bytes memory data) private {... */\n      pop\n      pop\n      pop\n      jump\t// out\n        /* \"@openzeppelin/contracts/utils/Address.sol\":3470:3693  function functionCall(... */\n    tag_296:\n        /* \"@openzeppelin/contracts/utils/Address.sol\":3603:3615  bytes memory */\n      0x60\n        /* \"@openzeppelin/contracts/utils/Address.sol\":3634:3686  functionCallWithValue(target, data, 0, errorMessage) */\n      tag_301\n        /* \"@openzeppelin/contracts/utils/Address.sol\":3656:3662  target */\n      dup5\n        /* \"@openzeppelin/contracts/utils/Address.sol\":3664:3668  data */\n      dup5\n        /* \"@openzeppelin/contracts/utils/Address.sol\":3670:3671  0 */\n      0x00\n        /* \"@openzeppelin/contracts/utils/Address.sol\":3673:3685  errorMessage */\n      dup6\n        /* \"@openzeppelin/contracts/utils/Address.sol\":3634:3655  functionCallWithValue */\n      tag_302\n        /* \"@openzeppelin/contracts/utils/Address.sol\":3634:3686  functionCallWithValue(target, data, 0, errorMessage) */\n      jump\t// in\n    tag_301:\n        /* \"@openzeppelin/contracts/utils/Address.sol\":3627:3686  return functionCallWithValue(target, data, 0, errorMessage) */\n      swap1\n      pop\n        /* \"@openzeppelin/contracts/utils/Address.sol\":3470:3693  function functionCall(... */\n      swap4\n      swap3\n      pop\n      pop\n      pop\n      jump\t// out\n        /* \"@openzeppelin/contracts/utils/Address.sol\":4557:5056  function functionCallWithValue(... */\n    tag_302:\n        /* \"@openzeppelin/contracts/utils/Address.sol\":4722:4734  bytes memory */\n      0x60\n        /* \"@openzeppelin/contracts/utils/Address.sol\":4779:4784  value */\n      dup3\n        /* \"@openzeppelin/contracts/utils/Address.sol\":4754:4775  address(this).balance */\n      selfbalance\n        /* \"@openzeppelin/contracts/utils/Address.sol\":4754:4784  address(this).balance >= value */\n      lt\n      iszero\n        /* \"@openzeppelin/contracts/utils/Address.sol\":4746:4827  require(address(this).balance >= value, \"Address: insufficient balance for call\") */\n      tag_304\n      jumpi\n      mload(0x40)\n      0x08c379a000000000000000000000000000000000000000000000000000000000\n      dup2\n      mstore\n      0x04\n      add\n      dup1\n      dup1\n      0x20\n      add\n      dup3\n      dup2\n      sub\n      dup3\n      mstore\n      0x26\n      dup2\n      mstore\n      0x20\n      add\n      dup1\n      data_565f1a77334fc4792800921178c71e4521acffab18ff9e7885b49377ee80ab4c\n      0x26\n      swap2\n      codecopy\n      0x40\n      add\n      swap2\n      pop\n      pop\n      mload(0x40)\n      dup1\n      swap2\n      sub\n      swap1\n      revert\n    tag_304:\n        /* \"@openzeppelin/contracts/utils/Address.sol\":4845:4863  isContract(target) */\n      tag_305\n        /* \"@openzeppelin/contracts/utils/Address.sol\":4856:4862  target */\n      dup6\n        /* \"@openzeppelin/contracts/utils/Address.sol\":4845:4855  isContract */\n      tag_306\n        /* \"@openzeppelin/contracts/utils/Address.sol\":4845:4863  isContract(target) */\n      jump\t// in\n    tag_305:\n        /* \"@openzeppelin/contracts/utils/Address.sol\":4837:4897  require(isContract(target), \"Address: call to non-contract\") */\n      tag_307\n      jumpi\n      mload(0x40)\n      0x08c379a000000000000000000000000000000000000000000000000000000000\n      dup2\n      mstore\n      0x04\n      add\n      dup1\n      dup1\n      0x20\n      add\n      dup3\n      dup2\n      sub\n      dup3\n      mstore\n      0x1d\n      dup2\n      mstore\n      0x20\n      add\n      dup1\n      0x416464726573733a2063616c6c20746f206e6f6e2d636f6e7472616374000000\n      dup2\n      mstore\n      pop\n      0x20\n      add\n      swap2\n      pop\n      pop\n      mload(0x40)\n      dup1\n      swap2\n      sub\n      swap1\n      revert\n    tag_307:\n        /* \"@openzeppelin/contracts/utils/Address.sol\":4909:4921  bool success */\n      0x00\n        /* \"@openzeppelin/contracts/utils/Address.sol\":4923:4946  bytes memory returndata */\n      0x60\n        /* \"@openzeppelin/contracts/utils/Address.sol\":4950:4956  target */\n      dup7\n        /* \"@openzeppelin/contracts/utils/Address.sol\":4950:4961  target.call */\n      0xffffffffffffffffffffffffffffffffffffffff\n      and\n        /* \"@openzeppelin/contracts/utils/Address.sol\":4969:4974  value */\n      dup6\n        /* \"@openzeppelin/contracts/utils/Address.sol\":4976:4980  data */\n      dup8\n        /* \"@openzeppelin/contracts/utils/Address.sol\":4950:4981  target.call{value: value}(data) */\n      mload(0x40)\n      dup1\n      dup3\n      dup1\n      mload\n      swap1\n      0x20\n      add\n      swap1\n      dup1\n      dup4\n      dup4\n    tag_308:\n      0x20\n      dup4\n      lt\n      tag_310\n      jumpi\n      dup1\n      mload\n      dup3\n      mstore\n      0x20\n      dup3\n      add\n      swap2\n      pop\n      0x20\n      dup2\n      add\n      swap1\n      pop\n      0x20\n      dup4\n      sub\n      swap3\n      pop\n      jump(tag_308)\n    tag_310:\n      0x01\n      dup4\n      0x20\n      sub\n      0x0100\n      exp\n      sub\n      dup1\n      not\n      dup3\n      mload\n      and\n      dup2\n      dup5\n      mload\n      and\n      dup1\n      dup3\n      or\n      dup6\n      mstore\n      pop\n      pop\n      pop\n      pop\n      pop\n      pop\n      swap1\n      pop\n      add\n      swap2\n      pop\n      pop\n      0x00\n      mload(0x40)\n      dup1\n      dup4\n      sub\n      dup2\n      dup6\n      dup8\n      gas\n      call\n      swap3\n      pop\n      pop\n      pop\n      returndatasize\n      dup1\n      0x00\n      dup2\n      eq\n      tag_313\n      jumpi\n      mload(0x40)\n      swap2\n      pop\n      and(add(returndatasize, 0x3f), not(0x1f))\n      dup3\n      add\n      0x40\n      mstore\n      returndatasize\n      dup3\n      mstore\n      returndatasize\n      0x00\n      0x20\n      dup5\n      add\n      returndatacopy\n      jump(tag_312)\n    tag_313:\n      0x60\n      swap2\n      pop\n    tag_312:\n      pop\n        /* \"@openzeppelin/contracts/utils/Address.sol\":4908:4981  (bool success, bytes memory returndata) = target.call{value: value}(data) */\n      swap2\n      pop\n      swap2\n      pop\n        /* \"@openzeppelin/contracts/utils/Address.sol\":4998:5049  verifyCallResult(success, returndata, errorMessage) */\n      tag_314\n        /* \"@openzeppelin/contracts/utils/Address.sol\":5015:5022  success */\n      dup3\n        /* \"@openzeppelin/contracts/utils/Address.sol\":5024:5034  returndata */\n      dup3\n        /* \"@openzeppelin/contracts/utils/Address.sol\":5036:5048  errorMessage */\n      dup7\n        /* \"@openzeppelin/contracts/utils/Address.sol\":4998:5014  verifyCallResult */\n      tag_315\n        /* \"@openzeppelin/contracts/utils/Address.sol\":4998:5049  verifyCallResult(success, returndata, errorMessage) */\n      jump\t// in\n    tag_314:\n        /* \"@openzeppelin/contracts/utils/Address.sol\":4991:5049  return verifyCallResult(success, returndata, errorMessage) */\n      swap3\n      pop\n      pop\n      pop\n        /* \"@openzeppelin/contracts/utils/Address.sol\":4557:5056  function functionCallWithValue(... */\n      swap5\n      swap4\n      pop\n      pop\n      pop\n      pop\n      jump\t// out\n        /* \"@openzeppelin/contracts/utils/Address.sol\":727:1104  function isContract(address account) internal view returns (bool) {... */\n    tag_306:\n        /* \"@openzeppelin/contracts/utils/Address.sol\":787:791  bool */\n      0x00\n        /* \"@openzeppelin/contracts/utils/Address.sol\":990:1002  uint256 size */\n      dup1\n        /* \"@openzeppelin/contracts/utils/Address.sol\":1055:1062  account */\n      dup3\n        /* \"@openzeppelin/contracts/utils/Address.sol\":1043:1063  extcodesize(account) */\n      extcodesize\n        /* \"@openzeppelin/contracts/utils/Address.sol\":1035:1063  size := extcodesize(account) */\n      swap1\n      pop\n        /* \"@openzeppelin/contracts/utils/Address.sol\":1096:1097  0 */\n      0x00\n        /* \"@openzeppelin/contracts/utils/Address.sol\":1089:1093  size */\n      dup2\n        /* \"@openzeppelin/contracts/utils/Address.sol\":1089:1097  size > 0 */\n      gt\n        /* \"@openzeppelin/contracts/utils/Address.sol\":1082:1097  return size > 0 */\n      swap2\n      pop\n      pop\n        /* \"@openzeppelin/contracts/utils/Address.sol\":727:1104  function isContract(address account) internal view returns (bool) {... */\n      swap2\n      swap1\n      pop\n      jump\t// out\n        /* \"@openzeppelin/contracts/utils/Address.sol\":7170:7862  function verifyCallResult(... */\n    tag_315:\n        /* \"@openzeppelin/contracts/utils/Address.sol\":7316:7328  bytes memory */\n      0x60\n        /* \"@openzeppelin/contracts/utils/Address.sol\":7344:7351  success */\n      dup4\n        /* \"@openzeppelin/contracts/utils/Address.sol\":7340:7856  if (success) {... */\n      iszero\n      tag_318\n      jumpi\n        /* \"@openzeppelin/contracts/utils/Address.sol\":7374:7384  returndata */\n      dup3\n        /* \"@openzeppelin/contracts/utils/Address.sol\":7367:7384  return returndata */\n      swap1\n      pop\n      jump(tag_317)\n        /* \"@openzeppelin/contracts/utils/Address.sol\":7340:7856  if (success) {... */\n    tag_318:\n        /* \"@openzeppelin/contracts/utils/Address.sol\":7505:7506  0 */\n      0x00\n        /* \"@openzeppelin/contracts/utils/Address.sol\":7485:7495  returndata */\n      dup4\n        /* \"@openzeppelin/contracts/utils/Address.sol\":7485:7502  returndata.length */\n      mload\n        /* \"@openzeppelin/contracts/utils/Address.sol\":7485:7506  returndata.length > 0 */\n      gt\n        /* \"@openzeppelin/contracts/utils/Address.sol\":7481:7846  if (returndata.length > 0) {... */\n      iszero\n      tag_320\n      jumpi\n        /* \"@openzeppelin/contracts/utils/Address.sol\":7679:7689  returndata */\n      dup3\n        /* \"@openzeppelin/contracts/utils/Address.sol\":7673:7690  mload(returndata) */\n      mload\n        /* \"@openzeppelin/contracts/utils/Address.sol\":7739:7754  returndata_size */\n      dup1\n        /* \"@openzeppelin/contracts/utils/Address.sol\":7726:7736  returndata */\n      dup5\n        /* \"@openzeppelin/contracts/utils/Address.sol\":7722:7724  32 */\n      0x20\n        /* \"@openzeppelin/contracts/utils/Address.sol\":7718:7737  add(32, returndata) */\n      add\n        /* \"@openzeppelin/contracts/utils/Address.sol\":7711:7755  revert(add(32, returndata), returndata_size) */\n      revert\n        /* \"@openzeppelin/contracts/utils/Address.sol\":7628:7773  {... */\n    tag_320:\n        /* \"@openzeppelin/contracts/utils/Address.sol\":7818:7830  errorMessage */\n      dup2\n        /* \"@openzeppelin/contracts/utils/Address.sol\":7811:7831  revert(errorMessage) */\n      mload(0x40)\n      0x08c379a000000000000000000000000000000000000000000000000000000000\n      dup2\n      mstore\n      0x04\n      add\n      dup1\n      dup1\n      0x20\n      add\n      dup3\n      dup2\n      sub\n      dup3\n      mstore\n      dup4\n      dup2\n      dup2\n      mload\n      dup2\n      mstore\n      0x20\n      add\n      swap2\n      pop\n      dup1\n      mload\n      swap1\n      0x20\n      add\n      swap1\n      dup1\n      dup4\n      dup4\n      0x00\n    tag_322:\n      dup4\n      dup2\n      lt\n      iszero\n      tag_324\n      jumpi\n      dup1\n      dup3\n      add\n      mload\n      dup2\n      dup5\n      add\n      mstore\n      0x20\n      dup2\n      add\n      swap1\n      pop\n      jump(tag_322)\n    tag_324:\n      pop\n      pop\n      pop\n      pop\n      swap1\n      pop\n      swap1\n      dup2\n      add\n      swap1\n      0x1f\n      and\n      dup1\n      iszero\n      tag_325\n      jumpi\n      dup1\n      dup3\n      sub\n      dup1\n      mload\n      0x01\n      dup4\n      0x20\n      sub\n      0x0100\n      exp\n      sub\n      not\n      and\n      dup2\n      mstore\n      0x20\n      add\n      swap2\n      pop\n    tag_325:\n      pop\n      swap3\n      pop\n      pop\n      pop\n      mload(0x40)\n      dup1\n      swap2\n      sub\n      swap1\n      revert\n        /* \"@openzeppelin/contracts/utils/Address.sol\":7170:7862  function verifyCallResult(... */\n    tag_317:\n      swap4\n      swap3\n      pop\n      pop\n      pop\n      jump\t// out\n    stop\n    data_245f15ff17f551913a7a18385165551503906a406f905ac1c2437281a7cd0cfe 4f776e61626c653a206e6577206f776e657220697320746865207a65726f2061646472657373\n    data_565f1a77334fc4792800921178c71e4521acffab18ff9e7885b49377ee80ab4c 416464726573733a20696e73756666696369656e742062616c616e636520666f722063616c6c\n    data_756508c1c0554725dd91ce0028667672a5318d736a5e4bcd98b6bc8fe98c3dc7 6f70657261746f723a207a65726f206164647265737320676976656e20666f72206e6577206f70657261746f72\n    data_9113bb53c2876a3805b2c9242029423fc540a728243ce887ab24c82cf119fba3 536166654d6174683a206d756c7469706c69636174696f6e206f766572666c6f77\n    data_a62bfdba5053072911b63b0f6325b0e83fcd28b5a847d97efdd966feb4daaafb 6f70657261746f723a2063616c6c6572206973206e6f7420746865206f70657261746f72\n    data_e11ad79d1e4a7f2e5f376964cb99e8e8f7904e3fc16a109f7a7ecb9aa7956dcd 5361666545524332303a204552433230206f7065726174696f6e20646964206e6f742073756363656564\n\n    auxdata: 0xa264697066735822122054115d976e120adbd6e274e2d59342d24c6d4415018a6ca05d0b6ad5c547305064736f6c634300060c0033\n}\n",
				"bytecode": {
					"linkReferences": {},
					"object": "608060405260006005556606ab00d9a3bc006008556301e7cb006009553480156200002957600080fd5b5060405162002d6238038062002d62833981810160405260408110156200004f57600080fd5b81019080805190602001909291908051906020019092919050505060006200007c620002f060201b60201c565b9050806000806101000a81548173ffffffffffffffffffffffffffffffffffffffff021916908373ffffffffffffffffffffffffffffffffffffffff1602179055508073ffffffffffffffffffffffffffffffffffffffff16600073ffffffffffffffffffffffffffffffffffffffff167f8be0079c531659141344cd1fd0a4f28419497f9722a3daafe3b4186f6b6457e060405160405180910390a3506200012a620002f060201b60201c565b600160006101000a81548173ffffffffffffffffffffffffffffffffffffffff021916908373ffffffffffffffffffffffffffffffffffffffff160217905550600160009054906101000a900473ffffffffffffffffffffffffffffffffffffffff1673ffffffffffffffffffffffffffffffffffffffff16600073ffffffffffffffffffffffffffffffffffffffff167f74da04524d50c64947f5dd5381ef1a4dca5cba8ed1d816243f9e48aa0b5617ed60405160405180910390a38042106200025d576040517f08c379a00000000000000000000000000000000000000000000000000000000081526004018080602001828103825260048152602001807f6c6174650000000000000000000000000000000000000000000000000000000081525060200191505060405180910390fd5b600073ffffffffffffffffffffffffffffffffffffffff168273ffffffffffffffffffffffffffffffffffffffff1614620002d45781600260006101000a81548173ffffffffffffffffffffffffffffffffffffffff021916908373ffffffffffffffffffffffffffffffffffffffff1602179055505b80600681905550600954600654016007819055505050620002f8565b600033905090565b612a5a80620003086000396000f3fe608060405234801561001057600080fd5b50600436106101735760003560e01c8063570ca735116100de5780638da5cb5b1161009757806396805e541161007157806396805e54146105a5578063cf4b55cb14610609578063e2bbb1581461066b578063f2fde38b146106a357610173565b80638da5cb5b146104ea57806393f1a40b1461051e578063943f013d1461058757610173565b8063570ca735146104325780635f96dc11146104665780636068955714610484578063630b5ba1146104b85780636e271dd5146104c2578063715018a6146104e057610173565b806329605e771161013057806329605e77146102cc578063441a3e70146103105780634456eda21461034857806351eb05a6146103685780635312ea8e1461039657806354575af4146103c457610173565b8063022cbf181461017857806309cf6091146101965780631526fe27146101b457806317caf6f11461022a5780631ab06ee514610248578063231f0c6a14610280575b600080fd5b6101806106e7565b6040518082815260200191505060405180910390f35b61019e6106ed565b6040518082815260200191505060405180910390f35b6101e0600480360360208110156101ca57600080fd5b81019080803590602001909291905050506106fb565b604051808673ffffffffffffffffffffffffffffffffffffffff16815260200185815260200184815260200183815260200182151581526020019550505050505060405180910390f35b61023261076b565b6040518082815260200191505060405180910390f35b61027e6004803603604081101561025e57600080fd5b810190808035906020019092919080359060200190929190505050610771565b005b6102b66004803603604081101561029657600080fd5b810190808035906020019092919080359060200190929190505050610895565b6040518082815260200191505060405180910390f35b61030e600480360360208110156102e257600080fd5b81019080803573ffffffffffffffffffffffffffffffffffffffff1690602001909291905050506109a8565b005b6103466004803603604081101561032657600080fd5b810190808035906020019092919080359060200190929190505050610a63565b005b610350610d1b565b60405180821515815260200191505060405180910390f35b6103946004803603602081101561037e57600080fd5b8101908080359060200190929190505050610d7a565b005b6103c2600480360360208110156103ac57600080fd5b8101908080359060200190929190505050610f89565b005b610430600480360360608110156103da57600080fd5b81019080803573ffffffffffffffffffffffffffffffffffffffff16906020019092919080359060200190929190803573ffffffffffffffffffffffffffffffffffffffff1690602001909291905050506110bd565b005b61043a61136f565b604051808273ffffffffffffffffffffffffffffffffffffffff16815260200191505060405180910390f35b61046e611399565b6040518082815260200191505060405180910390f35b61048c61139f565b604051808273ffffffffffffffffffffffffffffffffffffffff16815260200191505060405180910390f35b6104c06113c5565b005b6104ca6113f2565b6040518082815260200191505060405180910390f35b6104e86113f8565b005b6104f2611565565b604051808273ffffffffffffffffffffffffffffffffffffffff16815260200191505060405180910390f35b61056a6004803603604081101561053457600080fd5b8101908080359060200190929190803573ffffffffffffffffffffffffffffffffffffffff16906020019092919050505061158e565b604051808381526020018281526020019250505060405180910390f35b61058f6115bf565b6040518082815260200191505060405180910390f35b610607600480360360808110156105bb57600080fd5b8101908080359060200190929190803573ffffffffffffffffffffffffffffffffffffffff169060200190929190803515159060200190929190803590602001909291905050506115c5565b005b6106556004803603604081101561061f57600080fd5b8101908080359060200190929190803573ffffffffffffffffffffffffffffffffffffffff1690602001909291905050506117fe565b6040518082815260200191505060405180910390f35b6106a16004803603604081101561068157600080fd5b810190808035906020019092919080359060200190929190505050611a36565b005b6106e5600480360360208110156106b957600080fd5b81019080803573ffffffffffffffffffffffffffffffffffffffff169060200190929190505050611c84565b005b60085481565b690cb49b44ba602d80000081565b6003818154811061070857fe5b90600052602060002090600502016000915090508060000160009054906101000a900473ffffffffffffffffffffffffffffffffffffffff16908060010154908060020154908060030154908060040160009054906101000a900460ff16905085565b60055481565b3373ffffffffffffffffffffffffffffffffffffffff16600160009054906101000a900473ffffffffffffffffffffffffffffffffffffffff1673ffffffffffffffffffffffffffffffffffffffff1614610817576040517f08c379a00000000000000000000000000000000000000000000000000000000081526004018080602001828103825260248152602001806129d76024913960400191505060405180910390fd5b61081f6113c5565b60006003838154811061082e57fe5b906000526020600020906005020190508060040160009054906101000a900460ff161561088757610880826108728360010154600554611e7690919063ffffffff16565b611ef990919063ffffffff16565b6005819055505b818160010181905550505050565b60008183106108a757600090506109a2565b600754821061092d5760075483106108c257600090506109a2565b60065483116108fd576108f66008546108e8600654600754611e7690919063ffffffff16565b611f8190919063ffffffff16565b90506109a2565b61092660085461091885600754611e7690919063ffffffff16565b611f8190919063ffffffff16565b90506109a2565b600654821161093f57600090506109a2565b60065483116109785761097160085461096360065485611e7690919063ffffffff16565b611f8190919063ffffffff16565b90506109a2565b61099f6008546109918585611e7690919063ffffffff16565b611f8190919063ffffffff16565b90505b92915050565b6109b0612007565b73ffffffffffffffffffffffffffffffffffffffff166109ce611565565b73ffffffffffffffffffffffffffffffffffffffff1614610a57576040517f08c379a00000000000000000000000000000000000000000000000000000000081526004018080602001828103825260208152602001807f4f776e61626c653a2063616c6c6572206973206e6f7420746865206f776e657281525060200191505060405180910390fd5b610a608161200f565b50565b6000339050600060038481548110610a7757fe5b9060005260206000209060050201905060006004600086815260200190815260200160002060008473ffffffffffffffffffffffffffffffffffffffff1673ffffffffffffffffffffffffffffffffffffffff16815260200190815260200160002090508381600001541015610b55576040517f08c379a00000000000000000000000000000000000000000000000000000000081526004018080602001828103825260128152602001807f77697468647261773a206e6f7420676f6f64000000000000000000000000000081525060200191505060405180910390fd5b610b5e85610d7a565b6000610bab8260010154610b9d670de0b6b3a7640000610b8f87600301548760000154611f8190919063ffffffff16565b61213d90919063ffffffff16565b611e7690919063ffffffff16565b90506000811115610c0f57610bc084826121c6565b8373ffffffffffffffffffffffffffffffffffffffff167fe2403640ba68fed3a2f88b7557551d1993f84b99bb10ff833f0cf8db0c5e0486826040518082815260200191505060405180910390a25b6000851115610c8757610c2f858360000154611e7690919063ffffffff16565b8260000181905550610c8684868560000160009054906101000a900473ffffffffffffffffffffffffffffffffffffffff1673ffffffffffffffffffffffffffffffffffffffff166123459092919063ffffffff16565b5b610cbc670de0b6b3a7640000610cae85600301548560000154611f8190919063ffffffff16565b61213d90919063ffffffff16565b8260010181905550858473ffffffffffffffffffffffffffffffffffffffff167ff279e6a1f5e320cca91135676d9cb6e44ca8a08c0b88342bcdb1144f6511b568876040518082815260200191505060405180910390a3505050505050565b6000600160009054906101000a900473ffffffffffffffffffffffffffffffffffffffff1673ffffffffffffffffffffffffffffffffffffffff16610d5e612007565b73ffffffffffffffffffffffffffffffffffffffff1614905090565b600060038281548110610d8957fe5b9060005260206000209060050201905080600201544211610daa5750610f86565b60008160000160009054906101000a900473ffffffffffffffffffffffffffffffffffffffff1673ffffffffffffffffffffffffffffffffffffffff166370a08231306040518263ffffffff1660e01b8152600401808273ffffffffffffffffffffffffffffffffffffffff16815260200191505060206040518083038186803b158015610e3757600080fd5b505afa158015610e4b573d6000803e3d6000fd5b505050506040513d6020811015610e6157600080fd5b810190808051906020019092919050505090506000811415610e8d574282600201819055505050610f86565b8160040160009054906101000a900460ff16610ee05760018260040160006101000a81548160ff021916908315150217905550610ed98260010154600554611ef990919063ffffffff16565b6005819055505b60006005541115610f7a576000610efb836002015442610895565b90506000610f2a600554610f1c866001015485611f8190919063ffffffff16565b61213d90919063ffffffff16565b9050610f6f610f5c84610f4e670de0b6b3a764000085611f8190919063ffffffff16565b61213d90919063ffffffff16565b8560030154611ef990919063ffffffff16565b846003018190555050505b42826002018190555050505b50565b600060038281548110610f9857fe5b9060005260206000209060050201905060006004600084815260200190815260200160002060003373ffffffffffffffffffffffffffffffffffffffff1673ffffffffffffffffffffffffffffffffffffffff1681526020019081526020016000209050600081600001549050600082600001819055506000826001018190555061106833828560000160009054906101000a900473ffffffffffffffffffffffffffffffffffffffff1673ffffffffffffffffffffffffffffffffffffffff166123459092919063ffffffff16565b833373ffffffffffffffffffffffffffffffffffffffff167fbb757047c2b5f3974fe26b7c10f732e7bce710b0952a71082702781e62ae0595836040518082815260200191505060405180910390a350505050565b3373ffffffffffffffffffffffffffffffffffffffff16600160009054906101000a900473ffffffffffffffffffffffffffffffffffffffff1673ffffffffffffffffffffffffffffffffffffffff1614611163576040517f08c379a00000000000000000000000000000000000000000000000000000000081526004018080602001828103825260248152602001806129d76024913960400191505060405180910390fd5b6276a7006007540142101561133f57600260009054906101000a900473ffffffffffffffffffffffffffffffffffffffff1673ffffffffffffffffffffffffffffffffffffffff168373ffffffffffffffffffffffffffffffffffffffff161415611236576040517f08c379a00000000000000000000000000000000000000000000000000000000081526004018080602001828103825260048152602001807f526f636b0000000000000000000000000000000000000000000000000000000081525060200191505060405180910390fd5b6000600380549050905060005b8181101561133c5760006003828154811061125a57fe5b906000526020600020906005020190508060000160009054906101000a900473ffffffffffffffffffffffffffffffffffffffff1673ffffffffffffffffffffffffffffffffffffffff168673ffffffffffffffffffffffffffffffffffffffff161415611330576040517f08c379a000000000000000000000000000000000000000000000000000000000815260040180806020018281038252600a8152602001807f706f6f6c2e746f6b656e0000000000000000000000000000000000000000000081525060200191505060405180910390fd5b50806001019050611243565b50505b61136a81838573ffffffffffffffffffffffffffffffffffffffff166123459092919063ffffffff16565b505050565b6000600160009054906101000a900473ffffffffffffffffffffffffffffffffffffffff16905090565b60065481565b600260009054906101000a900473ffffffffffffffffffffffffffffffffffffffff1681565b6000600380549050905060005b818110156113ee576113e381610d7a565b8060010190506113d2565b5050565b60075481565b611400612007565b73ffffffffffffffffffffffffffffffffffffffff1661141e611565565b73ffffffffffffffffffffffffffffffffffffffff16146114a7576040517f08c379a00000000000000000000000000000000000000000000000000000000081526004018080602001828103825260208152602001807f4f776e61626c653a2063616c6c6572206973206e6f7420746865206f776e657281525060200191505060405180910390fd5b600073ffffffffffffffffffffffffffffffffffffffff1660008054906101000a900473ffffffffffffffffffffffffffffffffffffffff1673ffffffffffffffffffffffffffffffffffffffff167f8be0079c531659141344cd1fd0a4f28419497f9722a3daafe3b4186f6b6457e060405160405180910390a360008060006101000a81548173ffffffffffffffffffffffffffffffffffffffff021916908373ffffffffffffffffffffffffffffffffffffffff160217905550565b60008060009054906101000a900473ffffffffffffffffffffffffffffffffffffffff16905090565b6004602052816000526040600020602052806000526040600020600091509150508060000154908060010154905082565b60095481565b3373ffffffffffffffffffffffffffffffffffffffff16600160009054906101000a900473ffffffffffffffffffffffffffffffffffffffff1673ffffffffffffffffffffffffffffffffffffffff161461166b576040517f08c379a00000000000000000000000000000000000000000000000000000000081526004018080602001828103825260248152602001806129d76024913960400191505060405180910390fd5b611674836123e7565b8115611683576116826113c5565b5b6006544210156116b65760008114156116a05760065490506116b1565b6006548110156116b05760065490505b5b6116ce565b60008114806116c457504281105b156116cd574290505b5b6000600654821115806116e15750428211155b905060036040518060a001604052808673ffffffffffffffffffffffffffffffffffffffff16815260200187815260200184815260200160008152602001831515815250908060018154018082558091505060019003906000526020600020906005020160009091909190915060008201518160000160006101000a81548173ffffffffffffffffffffffffffffffffffffffff021916908373ffffffffffffffffffffffffffffffffffffffff16021790555060208201518160010155604082015181600201556060820151816003015560808201518160040160006101000a81548160ff021916908315150217905550505080156117f7576117f085600554611ef990919063ffffffff16565b6005819055505b5050505050565b6000806003848154811061180e57fe5b9060005260206000209060050201905060006004600086815260200190815260200160002060008573ffffffffffffffffffffffffffffffffffffffff1673ffffffffffffffffffffffffffffffffffffffff168152602001908152602001600020905060008260030154905060008360000160009054906101000a900473ffffffffffffffffffffffffffffffffffffffff1673ffffffffffffffffffffffffffffffffffffffff166370a08231306040518263ffffffff1660e01b8152600401808273ffffffffffffffffffffffffffffffffffffffff16815260200191505060206040518083038186803b15801561190857600080fd5b505afa15801561191c573d6000803e3d6000fd5b505050506040513d602081101561193257600080fd5b81019080805190602001909291905050509050836002015442118015611959575060008114155b156119e357600061196e856002015442610895565b9050600061199d60055461198f886001015485611f8190919063ffffffff16565b61213d90919063ffffffff16565b90506119de6119cf846119c1670de0b6b3a764000085611f8190919063ffffffff16565b61213d90919063ffffffff16565b85611ef990919063ffffffff16565b935050505b611a2a8360010154611a1c670de0b6b3a7640000611a0e868860000154611f8190919063ffffffff16565b61213d90919063ffffffff16565b611e7690919063ffffffff16565b94505050505092915050565b6000339050600060038481548110611a4a57fe5b9060005260206000209060050201905060006004600086815260200190815260200160002060008473ffffffffffffffffffffffffffffffffffffffff1673ffffffffffffffffffffffffffffffffffffffff1681526020019081526020016000209050611ab785610d7a565b600081600001541115611b77576000611b118260010154611b03670de0b6b3a7640000611af587600301548760000154611f8190919063ffffffff16565b61213d90919063ffffffff16565b611e7690919063ffffffff16565b90506000811115611b7557611b2684826121c6565b8373ffffffffffffffffffffffffffffffffffffffff167fe2403640ba68fed3a2f88b7557551d1993f84b99bb10ff833f0cf8db0c5e0486826040518082815260200191505060405180910390a25b505b6000841115611bf157611bd18330868560000160009054906101000a900473ffffffffffffffffffffffffffffffffffffffff1673ffffffffffffffffffffffffffffffffffffffff166124ec909392919063ffffffff16565b611be8848260000154611ef990919063ffffffff16565b81600001819055505b611c26670de0b6b3a7640000611c1884600301548460000154611f8190919063ffffffff16565b61213d90919063ffffffff16565b8160010181905550848373ffffffffffffffffffffffffffffffffffffffff167f90890809c654f11d6e72a28fa60149770a0d11ec6c92319d6ceb2bb0a4ea1a15866040518082815260200191505060405180910390a35050505050565b611c8c612007565b73ffffffffffffffffffffffffffffffffffffffff16611caa611565565b73ffffffffffffffffffffffffffffffffffffffff1614611d33576040517f08c379a00000000000000000000000000000000000000000000000000000000081526004018080602001828103825260208152602001807f4f776e61626c653a2063616c6c6572206973206e6f7420746865206f776e657281525060200191505060405180910390fd5b600073ffffffffffffffffffffffffffffffffffffffff168173ffffffffffffffffffffffffffffffffffffffff161415611db9576040517f08c379a000000000000000000000000000000000000000000000000000000000815260040180806020018281038252602681526020018061293d6026913960400191505060405180910390fd5b8073ffffffffffffffffffffffffffffffffffffffff1660008054906101000a900473ffffffffffffffffffffffffffffffffffffffff1673ffffffffffffffffffffffffffffffffffffffff167f8be0079c531659141344cd1fd0a4f28419497f9722a3daafe3b4186f6b6457e060405160405180910390a3806000806101000a81548173ffffffffffffffffffffffffffffffffffffffff021916908373ffffffffffffffffffffffffffffffffffffffff16021790555050565b600082821115611eee576040517f08c379a000000000000000000000000000000000000000000000000000000000815260040180806020018281038252601e8152602001807f536166654d6174683a207375627472616374696f6e206f766572666c6f77000081525060200191505060405180910390fd5b818303905092915050565b600080828401905083811015611f77576040517f08c379a000000000000000000000000000000000000000000000000000000000815260040180806020018281038252601b8152602001807f536166654d6174683a206164646974696f6e206f766572666c6f77000000000081525060200191505060405180910390fd5b8091505092915050565b600080831415611f945760009050612001565b6000828402905082848281611fa557fe5b0414611ffc576040517f08c379a00000000000000000000000000000000000000000000000000000000081526004018080602001828103825260218152602001806129b66021913960400191505060405180910390fd5b809150505b92915050565b600033905090565b600073ffffffffffffffffffffffffffffffffffffffff168173ffffffffffffffffffffffffffffffffffffffff161415612095576040517f08c379a000000000000000000000000000000000000000000000000000000000815260040180806020018281038252602d815260200180612989602d913960400191505060405180910390fd5b8073ffffffffffffffffffffffffffffffffffffffff16600073ffffffffffffffffffffffffffffffffffffffff167f74da04524d50c64947f5dd5381ef1a4dca5cba8ed1d816243f9e48aa0b5617ed60405160405180910390a36120f981611c84565b80600160006101000a81548173ffffffffffffffffffffffffffffffffffffffff021916908373ffffffffffffffffffffffffffffffffffffffff16021790555050565b60008082116121b4576040517f08c379a000000000000000000000000000000000000000000000000000000000815260040180806020018281038252601a8152602001807f536166654d6174683a206469766973696f6e206279207a65726f00000000000081525060200191505060405180910390fd5b8183816121bd57fe5b04905092915050565b6000600260009054906101000a900473ffffffffffffffffffffffffffffffffffffffff1673ffffffffffffffffffffffffffffffffffffffff166370a08231306040518263ffffffff1660e01b8152600401808273ffffffffffffffffffffffffffffffffffffffff16815260200191505060206040518083038186803b15801561225157600080fd5b505afa158015612265573d6000803e3d6000fd5b505050506040513d602081101561227b57600080fd5b81019080805190602001909291905050509050600081111561234057808211156122f1576122ec8382600260009054906101000a900473ffffffffffffffffffffffffffffffffffffffff1673ffffffffffffffffffffffffffffffffffffffff166123459092919063ffffffff16565b61233f565b61233e8383600260009054906101000a900473ffffffffffffffffffffffffffffffffffffffff1673ffffffffffffffffffffffffffffffffffffffff166123459092919063ffffffff16565b5b5b505050565b6123e28363a9059cbb60e01b8484604051602401808373ffffffffffffffffffffffffffffffffffffffff16815260200182815260200192505050604051602081830303815290604052907bffffffffffffffffffffffffffffffffffffffffffffffffffffffff19166020820180517bffffffffffffffffffffffffffffffffffffffffffffffffffffffff83818316178352505050506125ad565b505050565b6000600380549050905060005b818110156124e7578273ffffffffffffffffffffffffffffffffffffffff166003828154811061242057fe5b906000526020600020906005020160000160009054906101000a900473ffffffffffffffffffffffffffffffffffffffff1673ffffffffffffffffffffffffffffffffffffffff1614156124dc576040517f08c379a000000000000000000000000000000000000000000000000000000000815260040180806020018281038252601e8152602001807f526f636b526577617264506f6f6c3a206578697374696e6720706f6f6c3f000081525060200191505060405180910390fd5b8060010190506123f4565b505050565b6125a7846323b872dd60e01b858585604051602401808473ffffffffffffffffffffffffffffffffffffffff1681526020018373ffffffffffffffffffffffffffffffffffffffff1681526020018281526020019350505050604051602081830303815290604052907bffffffffffffffffffffffffffffffffffffffffffffffffffffffff19166020820180517bffffffffffffffffffffffffffffffffffffffffffffffffffffffff83818316178352505050506125ad565b50505050565b606061260f826040518060400160405280602081526020017f5361666545524332303a206c6f772d6c6576656c2063616c6c206661696c65648152508573ffffffffffffffffffffffffffffffffffffffff1661269c9092919063ffffffff16565b90506000815111156126975780806020019051602081101561263057600080fd5b8101908080519060200190929190505050612696576040517f08c379a000000000000000000000000000000000000000000000000000000000815260040180806020018281038252602a8152602001806129fb602a913960400191505060405180910390fd5b5b505050565b60606126ab84846000856126b4565b90509392505050565b60608247101561270f576040517f08c379a00000000000000000000000000000000000000000000000000000000081526004018080602001828103825260268152602001806129636026913960400191505060405180910390fd5b6127188561285d565b61278a576040517f08c379a000000000000000000000000000000000000000000000000000000000815260040180806020018281038252601d8152602001807f416464726573733a2063616c6c20746f206e6f6e2d636f6e747261637400000081525060200191505060405180910390fd5b600060608673ffffffffffffffffffffffffffffffffffffffff1685876040518082805190602001908083835b602083106127da57805182526020820191506020810190506020830392506127b7565b6001836020036101000a03801982511681845116808217855250505050505090500191505060006040518083038185875af1925050503d806000811461283c576040519150601f19603f3d011682016040523d82523d6000602084013e612841565b606091505b5091509150612851828286612870565b92505050949350505050565b600080823b905060008111915050919050565b6060831561288057829050612935565b6000835111156128935782518084602001fd5b816040517f08c379a00000000000000000000000000000000000000000000000000000000081526004018080602001828103825283818151815260200191508051906020019080838360005b838110156128fa5780820151818401526020810190506128df565b50505050905090810190601f1680156129275780820380516001836020036101000a031916815260200191505b509250505060405180910390fd5b939250505056fe4f776e61626c653a206e6577206f776e657220697320746865207a65726f2061646472657373416464726573733a20696e73756666696369656e742062616c616e636520666f722063616c6c6f70657261746f723a207a65726f206164647265737320676976656e20666f72206e6577206f70657261746f72536166654d6174683a206d756c7469706c69636174696f6e206f766572666c6f776f70657261746f723a2063616c6c6572206973206e6f7420746865206f70657261746f725361666545524332303a204552433230206f7065726174696f6e20646964206e6f742073756363656564a264697066735822122054115d976e120adbd6e274e2d59342d24c6d4415018a6ca05d0b6ad5c547305064736f6c634300060c0033",
					"opcodes": "PUSH1 0x80 PUSH1 0x40 MSTORE PUSH1 0x0 PUSH1 0x5 SSTORE PUSH7 0x6AB00D9A3BC00 PUSH1 0x8 SSTORE PUSH4 0x1E7CB00 PUSH1 0x9 SSTORE CALLVALUE DUP1 ISZERO PUSH3 0x29 JUMPI PUSH1 0x0 DUP1 REVERT JUMPDEST POP PUSH1 0x40 MLOAD PUSH3 0x2D62 CODESIZE SUB DUP1 PUSH3 0x2D62 DUP4 CODECOPY DUP2 DUP2 ADD PUSH1 0x40 MSTORE PUSH1 0x40 DUP2 LT ISZERO PUSH3 0x4F JUMPI PUSH1 0x0 DUP1 REVERT JUMPDEST DUP2 ADD SWAP1 DUP1 DUP1 MLOAD SWAP1 PUSH1 0x20 ADD SWAP1 SWAP3 SWAP2 SWAP1 DUP1 MLOAD SWAP1 PUSH1 0x20 ADD SWAP1 SWAP3 SWAP2 SWAP1 POP POP POP PUSH1 0x0 PUSH3 0x7C PUSH3 0x2F0 PUSH1 0x20 SHL PUSH1 0x20 SHR JUMP JUMPDEST SWAP1 POP DUP1 PUSH1 0x0 DUP1 PUSH2 0x100 EXP DUP2 SLOAD DUP2 PUSH20 0xFFFFFFFFFFFFFFFFFFFFFFFFFFFFFFFFFFFFFFFF MUL NOT AND SWAP1 DUP4 PUSH20 0xFFFFFFFFFFFFFFFFFFFFFFFFFFFFFFFFFFFFFFFF AND MUL OR SWAP1 SSTORE POP DUP1 PUSH20 0xFFFFFFFFFFFFFFFFFFFFFFFFFFFFFFFFFFFFFFFF AND PUSH1 0x0 PUSH20 0xFFFFFFFFFFFFFFFFFFFFFFFFFFFFFFFFFFFFFFFF AND PUSH32 0x8BE0079C531659141344CD1FD0A4F28419497F9722A3DAAFE3B4186F6B6457E0 PUSH1 0x40 MLOAD PUSH1 0x40 MLOAD DUP1 SWAP2 SUB SWAP1 LOG3 POP PUSH3 0x12A PUSH3 0x2F0 PUSH1 0x20 SHL PUSH1 0x20 SHR JUMP JUMPDEST PUSH1 0x1 PUSH1 0x0 PUSH2 0x100 EXP DUP2 SLOAD DUP2 PUSH20 0xFFFFFFFFFFFFFFFFFFFFFFFFFFFFFFFFFFFFFFFF MUL NOT AND SWAP1 DUP4 PUSH20 0xFFFFFFFFFFFFFFFFFFFFFFFFFFFFFFFFFFFFFFFF AND MUL OR SWAP1 SSTORE POP PUSH1 0x1 PUSH1 0x0 SWAP1 SLOAD SWAP1 PUSH2 0x100 EXP SWAP1 DIV PUSH20 0xFFFFFFFFFFFFFFFFFFFFFFFFFFFFFFFFFFFFFFFF AND PUSH20 0xFFFFFFFFFFFFFFFFFFFFFFFFFFFFFFFFFFFFFFFF AND PUSH1 0x0 PUSH20 0xFFFFFFFFFFFFFFFFFFFFFFFFFFFFFFFFFFFFFFFF AND PUSH32 0x74DA04524D50C64947F5DD5381EF1A4DCA5CBA8ED1D816243F9E48AA0B5617ED PUSH1 0x40 MLOAD PUSH1 0x40 MLOAD DUP1 SWAP2 SUB SWAP1 LOG3 DUP1 TIMESTAMP LT PUSH3 0x25D JUMPI PUSH1 0x40 MLOAD PUSH32 0x8C379A000000000000000000000000000000000000000000000000000000000 DUP2 MSTORE PUSH1 0x4 ADD DUP1 DUP1 PUSH1 0x20 ADD DUP3 DUP2 SUB DUP3 MSTORE PUSH1 0x4 DUP2 MSTORE PUSH1 0x20 ADD DUP1 PUSH32 0x6C61746500000000000000000000000000000000000000000000000000000000 DUP2 MSTORE POP PUSH1 0x20 ADD SWAP2 POP POP PUSH1 0x40 MLOAD DUP1 SWAP2 SUB SWAP1 REVERT JUMPDEST PUSH1 0x0 PUSH20 0xFFFFFFFFFFFFFFFFFFFFFFFFFFFFFFFFFFFFFFFF AND DUP3 PUSH20 0xFFFFFFFFFFFFFFFFFFFFFFFFFFFFFFFFFFFFFFFF AND EQ PUSH3 0x2D4 JUMPI DUP2 PUSH1 0x2 PUSH1 0x0 PUSH2 0x100 EXP DUP2 SLOAD DUP2 PUSH20 0xFFFFFFFFFFFFFFFFFFFFFFFFFFFFFFFFFFFFFFFF MUL NOT AND SWAP1 DUP4 PUSH20 0xFFFFFFFFFFFFFFFFFFFFFFFFFFFFFFFFFFFFFFFF AND MUL OR SWAP1 SSTORE POP JUMPDEST DUP1 PUSH1 0x6 DUP2 SWAP1 SSTORE POP PUSH1 0x9 SLOAD PUSH1 0x6 SLOAD ADD PUSH1 0x7 DUP2 SWAP1 SSTORE POP POP POP PUSH3 0x2F8 JUMP JUMPDEST PUSH1 0x0 CALLER SWAP1 POP SWAP1 JUMP JUMPDEST PUSH2 0x2A5A DUP1 PUSH3 0x308 PUSH1 0x0 CODECOPY PUSH1 0x0 RETURN INVALID PUSH1 0x80 PUSH1 0x40 MSTORE CALLVALUE DUP1 ISZERO PUSH2 0x10 JUMPI PUSH1 0x0 DUP1 REVERT JUMPDEST POP PUSH1 0x4 CALLDATASIZE LT PUSH2 0x173 JUMPI PUSH1 0x0 CALLDATALOAD PUSH1 0xE0 SHR DUP1 PUSH4 0x570CA735 GT PUSH2 0xDE JUMPI DUP1 PUSH4 0x8DA5CB5B GT PUSH2 0x97 JUMPI DUP1 PUSH4 0x96805E54 GT PUSH2 0x71 JUMPI DUP1 PUSH4 0x96805E54 EQ PUSH2 0x5A5 JUMPI DUP1 PUSH4 0xCF4B55CB EQ PUSH2 0x609 JUMPI DUP1 PUSH4 0xE2BBB158 EQ PUSH2 0x66B JUMPI DUP1 PUSH4 0xF2FDE38B EQ PUSH2 0x6A3 JUMPI PUSH2 0x173 JUMP JUMPDEST DUP1 PUSH4 0x8DA5CB5B EQ PUSH2 0x4EA JUMPI DUP1 PUSH4 0x93F1A40B EQ PUSH2 0x51E JUMPI DUP1 PUSH4 0x943F013D EQ PUSH2 0x587 JUMPI PUSH2 0x173 JUMP JUMPDEST DUP1 PUSH4 0x570CA735 EQ PUSH2 0x432 JUMPI DUP1 PUSH4 0x5F96DC11 EQ PUSH2 0x466 JUMPI DUP1 PUSH4 0x60689557 EQ PUSH2 0x484 JUMPI DUP1 PUSH4 0x630B5BA1 EQ PUSH2 0x4B8 JUMPI DUP1 PUSH4 0x6E271DD5 EQ PUSH2 0x4C2 JUMPI DUP1 PUSH4 0x715018A6 EQ PUSH2 0x4E0 JUMPI PUSH2 0x173 JUMP JUMPDEST DUP1 PUSH4 0x29605E77 GT PUSH2 0x130 JUMPI DUP1 PUSH4 0x29605E77 EQ PUSH2 0x2CC JUMPI DUP1 PUSH4 0x441A3E70 EQ PUSH2 0x310 JUMPI DUP1 PUSH4 0x4456EDA2 EQ PUSH2 0x348 JUMPI DUP1 PUSH4 0x51EB05A6 EQ PUSH2 0x368 JUMPI DUP1 PUSH4 0x5312EA8E EQ PUSH2 0x396 JUMPI DUP1 PUSH4 0x54575AF4 EQ PUSH2 0x3C4 JUMPI PUSH2 0x173 JUMP JUMPDEST DUP1 PUSH4 0x22CBF18 EQ PUSH2 0x178 JUMPI DUP1 PUSH4 0x9CF6091 EQ PUSH2 0x196 JUMPI DUP1 PUSH4 0x1526FE27 EQ PUSH2 0x1B4 JUMPI DUP1 PUSH4 0x17CAF6F1 EQ PUSH2 0x22A JUMPI DUP1 PUSH4 0x1AB06EE5 EQ PUSH2 0x248 JUMPI DUP1 PUSH4 0x231F0C6A EQ PUSH2 0x280 JUMPI JUMPDEST PUSH1 0x0 DUP1 REVERT JUMPDEST PUSH2 0x180 PUSH2 0x6E7 JUMP JUMPDEST PUSH1 0x40 MLOAD DUP1 DUP3 DUP2 MSTORE PUSH1 0x20 ADD SWAP2 POP POP PUSH1 0x40 MLOAD DUP1 SWAP2 SUB SWAP1 RETURN JUMPDEST PUSH2 0x19E PUSH2 0x6ED JUMP JUMPDEST PUSH1 0x40 MLOAD DUP1 DUP3 DUP2 MSTORE PUSH1 0x20 ADD SWAP2 POP POP PUSH1 0x40 MLOAD DUP1 SWAP2 SUB SWAP1 RETURN JUMPDEST PUSH2 0x1E0 PUSH1 0x4 DUP1 CALLDATASIZE SUB PUSH1 0x20 DUP2 LT ISZERO PUSH2 0x1CA JUMPI PUSH1 0x0 DUP1 REVERT JUMPDEST DUP2 ADD SWAP1 DUP1 DUP1 CALLDATALOAD SWAP1 PUSH1 0x20 ADD SWAP1 SWAP3 SWAP2 SWAP1 POP POP POP PUSH2 0x6FB JUMP JUMPDEST PUSH1 0x40 MLOAD DUP1 DUP7 PUSH20 0xFFFFFFFFFFFFFFFFFFFFFFFFFFFFFFFFFFFFFFFF AND DUP2 MSTORE PUSH1 0x20 ADD DUP6 DUP2 MSTORE PUSH1 0x20 ADD DUP5 DUP2 MSTORE PUSH1 0x20 ADD DUP4 DUP2 MSTORE PUSH1 0x20 ADD DUP3 ISZERO ISZERO DUP2 MSTORE PUSH1 0x20 ADD SWAP6 POP POP POP POP POP POP PUSH1 0x40 MLOAD DUP1 SWAP2 SUB SWAP1 RETURN JUMPDEST PUSH2 0x232 PUSH2 0x76B JUMP JUMPDEST PUSH1 0x40 MLOAD DUP1 DUP3 DUP2 MSTORE PUSH1 0x20 ADD SWAP2 POP POP PUSH1 0x40 MLOAD DUP1 SWAP2 SUB SWAP1 RETURN JUMPDEST PUSH2 0x27E PUSH1 0x4 DUP1 CALLDATASIZE SUB PUSH1 0x40 DUP2 LT ISZERO PUSH2 0x25E JUMPI PUSH1 0x0 DUP1 REVERT JUMPDEST DUP2 ADD SWAP1 DUP1 DUP1 CALLDATALOAD SWAP1 PUSH1 0x20 ADD SWAP1 SWAP3 SWAP2 SWAP1 DUP1 CALLDATALOAD SWAP1 PUSH1 0x20 ADD SWAP1 SWAP3 SWAP2 SWAP1 POP POP POP PUSH2 0x771 JUMP JUMPDEST STOP JUMPDEST PUSH2 0x2B6 PUSH1 0x4 DUP1 CALLDATASIZE SUB PUSH1 0x40 DUP2 LT ISZERO PUSH2 0x296 JUMPI PUSH1 0x0 DUP1 REVERT JUMPDEST DUP2 ADD SWAP1 DUP1 DUP1 CALLDATALOAD SWAP1 PUSH1 0x20 ADD SWAP1 SWAP3 SWAP2 SWAP1 DUP1 CALLDATALOAD SWAP1 PUSH1 0x20 ADD SWAP1 SWAP3 SWAP2 SWAP1 POP POP POP PUSH2 0x895 JUMP JUMPDEST PUSH1 0x40 MLOAD DUP1 DUP3 DUP2 MSTORE PUSH1 0x20 ADD SWAP2 POP POP PUSH1 0x40 MLOAD DUP1 SWAP2 SUB SWAP1 RETURN JUMPDEST PUSH2 0x30E PUSH1 0x4 DUP1 CALLDATASIZE SUB PUSH1 0x20 DUP2 LT ISZERO PUSH2 0x2E2 JUMPI PUSH1 0x0 DUP1 REVERT JUMPDEST DUP2 ADD SWAP1 DUP1 DUP1 CALLDATALOAD PUSH20 0xFFFFFFFFFFFFFFFFFFFFFFFFFFFFFFFFFFFFFFFF AND SWAP1 PUSH1 0x20 ADD SWAP1 SWAP3 SWAP2 SWAP1 POP POP POP PUSH2 0x9A8 JUMP JUMPDEST STOP JUMPDEST PUSH2 0x346 PUSH1 0x4 DUP1 CALLDATASIZE SUB PUSH1 0x40 DUP2 LT ISZERO PUSH2 0x326 JUMPI PUSH1 0x0 DUP1 REVERT JUMPDEST DUP2 ADD SWAP1 DUP1 DUP1 CALLDATALOAD SWAP1 PUSH1 0x20 ADD SWAP1 SWAP3 SWAP2 SWAP1 DUP1 CALLDATALOAD SWAP1 PUSH1 0x20 ADD SWAP1 SWAP3 SWAP2 SWAP1 POP POP POP PUSH2 0xA63 JUMP JUMPDEST STOP JUMPDEST PUSH2 0x350 PUSH2 0xD1B JUMP JUMPDEST PUSH1 0x40 MLOAD DUP1 DUP3 ISZERO ISZERO DUP2 MSTORE PUSH1 0x20 ADD SWAP2 POP POP PUSH1 0x40 MLOAD DUP1 SWAP2 SUB SWAP1 RETURN JUMPDEST PUSH2 0x394 PUSH1 0x4 DUP1 CALLDATASIZE SUB PUSH1 0x20 DUP2 LT ISZERO PUSH2 0x37E JUMPI PUSH1 0x0 DUP1 REVERT JUMPDEST DUP2 ADD SWAP1 DUP1 DUP1 CALLDATALOAD SWAP1 PUSH1 0x20 ADD SWAP1 SWAP3 SWAP2 SWAP1 POP POP POP PUSH2 0xD7A JUMP JUMPDEST STOP JUMPDEST PUSH2 0x3C2 PUSH1 0x4 DUP1 CALLDATASIZE SUB PUSH1 0x20 DUP2 LT ISZERO PUSH2 0x3AC JUMPI PUSH1 0x0 DUP1 REVERT JUMPDEST DUP2 ADD SWAP1 DUP1 DUP1 CALLDATALOAD SWAP1 PUSH1 0x20 ADD SWAP1 SWAP3 SWAP2 SWAP1 POP POP POP PUSH2 0xF89 JUMP JUMPDEST STOP JUMPDEST PUSH2 0x430 PUSH1 0x4 DUP1 CALLDATASIZE SUB PUSH1 0x60 DUP2 LT ISZERO PUSH2 0x3DA JUMPI PUSH1 0x0 DUP1 REVERT JUMPDEST DUP2 ADD SWAP1 DUP1 DUP1 CALLDATALOAD PUSH20 0xFFFFFFFFFFFFFFFFFFFFFFFFFFFFFFFFFFFFFFFF AND SWAP1 PUSH1 0x20 ADD SWAP1 SWAP3 SWAP2 SWAP1 DUP1 CALLDATALOAD SWAP1 PUSH1 0x20 ADD SWAP1 SWAP3 SWAP2 SWAP1 DUP1 CALLDATALOAD PUSH20 0xFFFFFFFFFFFFFFFFFFFFFFFFFFFFFFFFFFFFFFFF AND SWAP1 PUSH1 0x20 ADD SWAP1 SWAP3 SWAP2 SWAP1 POP POP POP PUSH2 0x10BD JUMP JUMPDEST STOP JUMPDEST PUSH2 0x43A PUSH2 0x136F JUMP JUMPDEST PUSH1 0x40 MLOAD DUP1 DUP3 PUSH20 0xFFFFFFFFFFFFFFFFFFFFFFFFFFFFFFFFFFFFFFFF AND DUP2 MSTORE PUSH1 0x20 ADD SWAP2 POP POP PUSH1 0x40 MLOAD DUP1 SWAP2 SUB SWAP1 RETURN JUMPDEST PUSH2 0x46E PUSH2 0x1399 JUMP JUMPDEST PUSH1 0x40 MLOAD DUP1 DUP3 DUP2 MSTORE PUSH1 0x20 ADD SWAP2 POP POP PUSH1 0x40 MLOAD DUP1 SWAP2 SUB SWAP1 RETURN JUMPDEST PUSH2 0x48C PUSH2 0x139F JUMP JUMPDEST PUSH1 0x40 MLOAD DUP1 DUP3 PUSH20 0xFFFFFFFFFFFFFFFFFFFFFFFFFFFFFFFFFFFFFFFF AND DUP2 MSTORE PUSH1 0x20 ADD SWAP2 POP POP PUSH1 0x40 MLOAD DUP1 SWAP2 SUB SWAP1 RETURN JUMPDEST PUSH2 0x4C0 PUSH2 0x13C5 JUMP JUMPDEST STOP JUMPDEST PUSH2 0x4CA PUSH2 0x13F2 JUMP JUMPDEST PUSH1 0x40 MLOAD DUP1 DUP3 DUP2 MSTORE PUSH1 0x20 ADD SWAP2 POP POP PUSH1 0x40 MLOAD DUP1 SWAP2 SUB SWAP1 RETURN JUMPDEST PUSH2 0x4E8 PUSH2 0x13F8 JUMP JUMPDEST STOP JUMPDEST PUSH2 0x4F2 PUSH2 0x1565 JUMP JUMPDEST PUSH1 0x40 MLOAD DUP1 DUP3 PUSH20 0xFFFFFFFFFFFFFFFFFFFFFFFFFFFFFFFFFFFFFFFF AND DUP2 MSTORE PUSH1 0x20 ADD SWAP2 POP POP PUSH1 0x40 MLOAD DUP1 SWAP2 SUB SWAP1 RETURN JUMPDEST PUSH2 0x56A PUSH1 0x4 DUP1 CALLDATASIZE SUB PUSH1 0x40 DUP2 LT ISZERO PUSH2 0x534 JUMPI PUSH1 0x0 DUP1 REVERT JUMPDEST DUP2 ADD SWAP1 DUP1 DUP1 CALLDATALOAD SWAP1 PUSH1 0x20 ADD SWAP1 SWAP3 SWAP2 SWAP1 DUP1 CALLDATALOAD PUSH20 0xFFFFFFFFFFFFFFFFFFFFFFFFFFFFFFFFFFFFFFFF AND SWAP1 PUSH1 0x20 ADD SWAP1 SWAP3 SWAP2 SWAP1 POP POP POP PUSH2 0x158E JUMP JUMPDEST PUSH1 0x40 MLOAD DUP1 DUP4 DUP2 MSTORE PUSH1 0x20 ADD DUP3 DUP2 MSTORE PUSH1 0x20 ADD SWAP3 POP POP POP PUSH1 0x40 MLOAD DUP1 SWAP2 SUB SWAP1 RETURN JUMPDEST PUSH2 0x58F PUSH2 0x15BF JUMP JUMPDEST PUSH1 0x40 MLOAD DUP1 DUP3 DUP2 MSTORE PUSH1 0x20 ADD SWAP2 POP POP PUSH1 0x40 MLOAD DUP1 SWAP2 SUB SWAP1 RETURN JUMPDEST PUSH2 0x607 PUSH1 0x4 DUP1 CALLDATASIZE SUB PUSH1 0x80 DUP2 LT ISZERO PUSH2 0x5BB JUMPI PUSH1 0x0 DUP1 REVERT JUMPDEST DUP2 ADD SWAP1 DUP1 DUP1 CALLDATALOAD SWAP1 PUSH1 0x20 ADD SWAP1 SWAP3 SWAP2 SWAP1 DUP1 CALLDATALOAD PUSH20 0xFFFFFFFFFFFFFFFFFFFFFFFFFFFFFFFFFFFFFFFF AND SWAP1 PUSH1 0x20 ADD SWAP1 SWAP3 SWAP2 SWAP1 DUP1 CALLDATALOAD ISZERO ISZERO SWAP1 PUSH1 0x20 ADD SWAP1 SWAP3 SWAP2 SWAP1 DUP1 CALLDATALOAD SWAP1 PUSH1 0x20 ADD SWAP1 SWAP3 SWAP2 SWAP1 POP POP POP PUSH2 0x15C5 JUMP JUMPDEST STOP JUMPDEST PUSH2 0x655 PUSH1 0x4 DUP1 CALLDATASIZE SUB PUSH1 0x40 DUP2 LT ISZERO PUSH2 0x61F JUMPI PUSH1 0x0 DUP1 REVERT JUMPDEST DUP2 ADD SWAP1 DUP1 DUP1 CALLDATALOAD SWAP1 PUSH1 0x20 ADD SWAP1 SWAP3 SWAP2 SWAP1 DUP1 CALLDATALOAD PUSH20 0xFFFFFFFFFFFFFFFFFFFFFFFFFFFFFFFFFFFFFFFF AND SWAP1 PUSH1 0x20 ADD SWAP1 SWAP3 SWAP2 SWAP1 POP POP POP PUSH2 0x17FE JUMP JUMPDEST PUSH1 0x40 MLOAD DUP1 DUP3 DUP2 MSTORE PUSH1 0x20 ADD SWAP2 POP POP PUSH1 0x40 MLOAD DUP1 SWAP2 SUB SWAP1 RETURN JUMPDEST PUSH2 0x6A1 PUSH1 0x4 DUP1 CALLDATASIZE SUB PUSH1 0x40 DUP2 LT ISZERO PUSH2 0x681 JUMPI PUSH1 0x0 DUP1 REVERT JUMPDEST DUP2 ADD SWAP1 DUP1 DUP1 CALLDATALOAD SWAP1 PUSH1 0x20 ADD SWAP1 SWAP3 SWAP2 SWAP1 DUP1 CALLDATALOAD SWAP1 PUSH1 0x20 ADD SWAP1 SWAP3 SWAP2 SWAP1 POP POP POP PUSH2 0x1A36 JUMP JUMPDEST STOP JUMPDEST PUSH2 0x6E5 PUSH1 0x4 DUP1 CALLDATASIZE SUB PUSH1 0x20 DUP2 LT ISZERO PUSH2 0x6B9 JUMPI PUSH1 0x0 DUP1 REVERT JUMPDEST DUP2 ADD SWAP1 DUP1 DUP1 CALLDATALOAD PUSH20 0xFFFFFFFFFFFFFFFFFFFFFFFFFFFFFFFFFFFFFFFF AND SWAP1 PUSH1 0x20 ADD SWAP1 SWAP3 SWAP2 SWAP1 POP POP POP PUSH2 0x1C84 JUMP JUMPDEST STOP JUMPDEST PUSH1 0x8 SLOAD DUP2 JUMP JUMPDEST PUSH10 0xCB49B44BA602D800000 DUP2 JUMP JUMPDEST PUSH1 0x3 DUP2 DUP2 SLOAD DUP2 LT PUSH2 0x708 JUMPI INVALID JUMPDEST SWAP1 PUSH1 0x0 MSTORE PUSH1 0x20 PUSH1 0x0 KECCAK256 SWAP1 PUSH1 0x5 MUL ADD PUSH1 0x0 SWAP2 POP SWAP1 POP DUP1 PUSH1 0x0 ADD PUSH1 0x0 SWAP1 SLOAD SWAP1 PUSH2 0x100 EXP SWAP1 DIV PUSH20 0xFFFFFFFFFFFFFFFFFFFFFFFFFFFFFFFFFFFFFFFF AND SWAP1 DUP1 PUSH1 0x1 ADD SLOAD SWAP1 DUP1 PUSH1 0x2 ADD SLOAD SWAP1 DUP1 PUSH1 0x3 ADD SLOAD SWAP1 DUP1 PUSH1 0x4 ADD PUSH1 0x0 SWAP1 SLOAD SWAP1 PUSH2 0x100 EXP SWAP1 DIV PUSH1 0xFF AND SWAP1 POP DUP6 JUMP JUMPDEST PUSH1 0x5 SLOAD DUP2 JUMP JUMPDEST CALLER PUSH20 0xFFFFFFFFFFFFFFFFFFFFFFFFFFFFFFFFFFFFFFFF AND PUSH1 0x1 PUSH1 0x0 SWAP1 SLOAD SWAP1 PUSH2 0x100 EXP SWAP1 DIV PUSH20 0xFFFFFFFFFFFFFFFFFFFFFFFFFFFFFFFFFFFFFFFF AND PUSH20 0xFFFFFFFFFFFFFFFFFFFFFFFFFFFFFFFFFFFFFFFF AND EQ PUSH2 0x817 JUMPI PUSH1 0x40 MLOAD PUSH32 0x8C379A000000000000000000000000000000000000000000000000000000000 DUP2 MSTORE PUSH1 0x4 ADD DUP1 DUP1 PUSH1 0x20 ADD DUP3 DUP2 SUB DUP3 MSTORE PUSH1 0x24 DUP2 MSTORE PUSH1 0x20 ADD DUP1 PUSH2 0x29D7 PUSH1 0x24 SWAP2 CODECOPY PUSH1 0x40 ADD SWAP2 POP POP PUSH1 0x40 MLOAD DUP1 SWAP2 SUB SWAP1 REVERT JUMPDEST PUSH2 0x81F PUSH2 0x13C5 JUMP JUMPDEST PUSH1 0x0 PUSH1 0x3 DUP4 DUP2 SLOAD DUP2 LT PUSH2 0x82E JUMPI INVALID JUMPDEST SWAP1 PUSH1 0x0 MSTORE PUSH1 0x20 PUSH1 0x0 KECCAK256 SWAP1 PUSH1 0x5 MUL ADD SWAP1 POP DUP1 PUSH1 0x4 ADD PUSH1 0x0 SWAP1 SLOAD SWAP1 PUSH2 0x100 EXP SWAP1 DIV PUSH1 0xFF AND ISZERO PUSH2 0x887 JUMPI PUSH2 0x880 DUP3 PUSH2 0x872 DUP4 PUSH1 0x1 ADD SLOAD PUSH1 0x5 SLOAD PUSH2 0x1E76 SWAP1 SWAP2 SWAP1 PUSH4 0xFFFFFFFF AND JUMP JUMPDEST PUSH2 0x1EF9 SWAP1 SWAP2 SWAP1 PUSH4 0xFFFFFFFF AND JUMP JUMPDEST PUSH1 0x5 DUP2 SWAP1 SSTORE POP JUMPDEST DUP2 DUP2 PUSH1 0x1 ADD DUP2 SWAP1 SSTORE POP POP POP POP JUMP JUMPDEST PUSH1 0x0 DUP2 DUP4 LT PUSH2 0x8A7 JUMPI PUSH1 0x0 SWAP1 POP PUSH2 0x9A2 JUMP JUMPDEST PUSH1 0x7 SLOAD DUP3 LT PUSH2 0x92D JUMPI PUSH1 0x7 SLOAD DUP4 LT PUSH2 0x8C2 JUMPI PUSH1 0x0 SWAP1 POP PUSH2 0x9A2 JUMP JUMPDEST PUSH1 0x6 SLOAD DUP4 GT PUSH2 0x8FD JUMPI PUSH2 0x8F6 PUSH1 0x8 SLOAD PUSH2 0x8E8 PUSH1 0x6 SLOAD PUSH1 0x7 SLOAD PUSH2 0x1E76 SWAP1 SWAP2 SWAP1 PUSH4 0xFFFFFFFF AND JUMP JUMPDEST PUSH2 0x1F81 SWAP1 SWAP2 SWAP1 PUSH4 0xFFFFFFFF AND JUMP JUMPDEST SWAP1 POP PUSH2 0x9A2 JUMP JUMPDEST PUSH2 0x926 PUSH1 0x8 SLOAD PUSH2 0x918 DUP6 PUSH1 0x7 SLOAD PUSH2 0x1E76 SWAP1 SWAP2 SWAP1 PUSH4 0xFFFFFFFF AND JUMP JUMPDEST PUSH2 0x1F81 SWAP1 SWAP2 SWAP1 PUSH4 0xFFFFFFFF AND JUMP JUMPDEST SWAP1 POP PUSH2 0x9A2 JUMP JUMPDEST PUSH1 0x6 SLOAD DUP3 GT PUSH2 0x93F JUMPI PUSH1 0x0 SWAP1 POP PUSH2 0x9A2 JUMP JUMPDEST PUSH1 0x6 SLOAD DUP4 GT PUSH2 0x978 JUMPI PUSH2 0x971 PUSH1 0x8 SLOAD PUSH2 0x963 PUSH1 0x6 SLOAD DUP6 PUSH2 0x1E76 SWAP1 SWAP2 SWAP1 PUSH4 0xFFFFFFFF AND JUMP JUMPDEST PUSH2 0x1F81 SWAP1 SWAP2 SWAP1 PUSH4 0xFFFFFFFF AND JUMP JUMPDEST SWAP1 POP PUSH2 0x9A2 JUMP JUMPDEST PUSH2 0x99F PUSH1 0x8 SLOAD PUSH2 0x991 DUP6 DUP6 PUSH2 0x1E76 SWAP1 SWAP2 SWAP1 PUSH4 0xFFFFFFFF AND JUMP JUMPDEST PUSH2 0x1F81 SWAP1 SWAP2 SWAP1 PUSH4 0xFFFFFFFF AND JUMP JUMPDEST SWAP1 POP JUMPDEST SWAP3 SWAP2 POP POP JUMP JUMPDEST PUSH2 0x9B0 PUSH2 0x2007 JUMP JUMPDEST PUSH20 0xFFFFFFFFFFFFFFFFFFFFFFFFFFFFFFFFFFFFFFFF AND PUSH2 0x9CE PUSH2 0x1565 JUMP JUMPDEST PUSH20 0xFFFFFFFFFFFFFFFFFFFFFFFFFFFFFFFFFFFFFFFF AND EQ PUSH2 0xA57 JUMPI PUSH1 0x40 MLOAD PUSH32 0x8C379A000000000000000000000000000000000000000000000000000000000 DUP2 MSTORE PUSH1 0x4 ADD DUP1 DUP1 PUSH1 0x20 ADD DUP3 DUP2 SUB DUP3 MSTORE PUSH1 0x20 DUP2 MSTORE PUSH1 0x20 ADD DUP1 PUSH32 0x4F776E61626C653A2063616C6C6572206973206E6F7420746865206F776E6572 DUP2 MSTORE POP PUSH1 0x20 ADD SWAP2 POP POP PUSH1 0x40 MLOAD DUP1 SWAP2 SUB SWAP1 REVERT JUMPDEST PUSH2 0xA60 DUP2 PUSH2 0x200F JUMP JUMPDEST POP JUMP JUMPDEST PUSH1 0x0 CALLER SWAP1 POP PUSH1 0x0 PUSH1 0x3 DUP5 DUP2 SLOAD DUP2 LT PUSH2 0xA77 JUMPI INVALID JUMPDEST SWAP1 PUSH1 0x0 MSTORE PUSH1 0x20 PUSH1 0x0 KECCAK256 SWAP1 PUSH1 0x5 MUL ADD SWAP1 POP PUSH1 0x0 PUSH1 0x4 PUSH1 0x0 DUP7 DUP2 MSTORE PUSH1 0x20 ADD SWAP1 DUP2 MSTORE PUSH1 0x20 ADD PUSH1 0x0 KECCAK256 PUSH1 0x0 DUP5 PUSH20 0xFFFFFFFFFFFFFFFFFFFFFFFFFFFFFFFFFFFFFFFF AND PUSH20 0xFFFFFFFFFFFFFFFFFFFFFFFFFFFFFFFFFFFFFFFF AND DUP2 MSTORE PUSH1 0x20 ADD SWAP1 DUP2 MSTORE PUSH1 0x20 ADD PUSH1 0x0 KECCAK256 SWAP1 POP DUP4 DUP2 PUSH1 0x0 ADD SLOAD LT ISZERO PUSH2 0xB55 JUMPI PUSH1 0x40 MLOAD PUSH32 0x8C379A000000000000000000000000000000000000000000000000000000000 DUP2 MSTORE PUSH1 0x4 ADD DUP1 DUP1 PUSH1 0x20 ADD DUP3 DUP2 SUB DUP3 MSTORE PUSH1 0x12 DUP2 MSTORE PUSH1 0x20 ADD DUP1 PUSH32 0x77697468647261773A206E6F7420676F6F640000000000000000000000000000 DUP2 MSTORE POP PUSH1 0x20 ADD SWAP2 POP POP PUSH1 0x40 MLOAD DUP1 SWAP2 SUB SWAP1 REVERT JUMPDEST PUSH2 0xB5E DUP6 PUSH2 0xD7A JUMP JUMPDEST PUSH1 0x0 PUSH2 0xBAB DUP3 PUSH1 0x1 ADD SLOAD PUSH2 0xB9D PUSH8 0xDE0B6B3A7640000 PUSH2 0xB8F DUP8 PUSH1 0x3 ADD SLOAD DUP8 PUSH1 0x0 ADD SLOAD PUSH2 0x1F81 SWAP1 SWAP2 SWAP1 PUSH4 0xFFFFFFFF AND JUMP JUMPDEST PUSH2 0x213D SWAP1 SWAP2 SWAP1 PUSH4 0xFFFFFFFF AND JUMP JUMPDEST PUSH2 0x1E76 SWAP1 SWAP2 SWAP1 PUSH4 0xFFFFFFFF AND JUMP JUMPDEST SWAP1 POP PUSH1 0x0 DUP2 GT ISZERO PUSH2 0xC0F JUMPI PUSH2 0xBC0 DUP5 DUP3 PUSH2 0x21C6 JUMP JUMPDEST DUP4 PUSH20 0xFFFFFFFFFFFFFFFFFFFFFFFFFFFFFFFFFFFFFFFF AND PUSH32 0xE2403640BA68FED3A2F88B7557551D1993F84B99BB10FF833F0CF8DB0C5E0486 DUP3 PUSH1 0x40 MLOAD DUP1 DUP3 DUP2 MSTORE PUSH1 0x20 ADD SWAP2 POP POP PUSH1 0x40 MLOAD DUP1 SWAP2 SUB SWAP1 LOG2 JUMPDEST PUSH1 0x0 DUP6 GT ISZERO PUSH2 0xC87 JUMPI PUSH2 0xC2F DUP6 DUP4 PUSH1 0x0 ADD SLOAD PUSH2 0x1E76 SWAP1 SWAP2 SWAP1 PUSH4 0xFFFFFFFF AND JUMP JUMPDEST DUP3 PUSH1 0x0 ADD DUP2 SWAP1 SSTORE POP PUSH2 0xC86 DUP5 DUP7 DUP6 PUSH1 0x0 ADD PUSH1 0x0 SWAP1 SLOAD SWAP1 PUSH2 0x100 EXP SWAP1 DIV PUSH20 0xFFFFFFFFFFFFFFFFFFFFFFFFFFFFFFFFFFFFFFFF AND PUSH20 0xFFFFFFFFFFFFFFFFFFFFFFFFFFFFFFFFFFFFFFFF AND PUSH2 0x2345 SWAP1 SWAP3 SWAP2 SWAP1 PUSH4 0xFFFFFFFF AND JUMP JUMPDEST JUMPDEST PUSH2 0xCBC PUSH8 0xDE0B6B3A7640000 PUSH2 0xCAE DUP6 PUSH1 0x3 ADD SLOAD DUP6 PUSH1 0x0 ADD SLOAD PUSH2 0x1F81 SWAP1 SWAP2 SWAP1 PUSH4 0xFFFFFFFF AND JUMP JUMPDEST PUSH2 0x213D SWAP1 SWAP2 SWAP1 PUSH4 0xFFFFFFFF AND JUMP JUMPDEST DUP3 PUSH1 0x1 ADD DUP2 SWAP1 SSTORE POP DUP6 DUP5 PUSH20 0xFFFFFFFFFFFFFFFFFFFFFFFFFFFFFFFFFFFFFFFF AND PUSH32 0xF279E6A1F5E320CCA91135676D9CB6E44CA8A08C0B88342BCDB1144F6511B568 DUP8 PUSH1 0x40 MLOAD DUP1 DUP3 DUP2 MSTORE PUSH1 0x20 ADD SWAP2 POP POP PUSH1 0x40 MLOAD DUP1 SWAP2 SUB SWAP1 LOG3 POP POP POP POP POP POP JUMP JUMPDEST PUSH1 0x0 PUSH1 0x1 PUSH1 0x0 SWAP1 SLOAD SWAP1 PUSH2 0x100 EXP SWAP1 DIV PUSH20 0xFFFFFFFFFFFFFFFFFFFFFFFFFFFFFFFFFFFFFFFF AND PUSH20 0xFFFFFFFFFFFFFFFFFFFFFFFFFFFFFFFFFFFFFFFF AND PUSH2 0xD5E PUSH2 0x2007 JUMP JUMPDEST PUSH20 0xFFFFFFFFFFFFFFFFFFFFFFFFFFFFFFFFFFFFFFFF AND EQ SWAP1 POP SWAP1 JUMP JUMPDEST PUSH1 0x0 PUSH1 0x3 DUP3 DUP2 SLOAD DUP2 LT PUSH2 0xD89 JUMPI INVALID JUMPDEST SWAP1 PUSH1 0x0 MSTORE PUSH1 0x20 PUSH1 0x0 KECCAK256 SWAP1 PUSH1 0x5 MUL ADD SWAP1 POP DUP1 PUSH1 0x2 ADD SLOAD TIMESTAMP GT PUSH2 0xDAA JUMPI POP PUSH2 0xF86 JUMP JUMPDEST PUSH1 0x0 DUP2 PUSH1 0x0 ADD PUSH1 0x0 SWAP1 SLOAD SWAP1 PUSH2 0x100 EXP SWAP1 DIV PUSH20 0xFFFFFFFFFFFFFFFFFFFFFFFFFFFFFFFFFFFFFFFF AND PUSH20 0xFFFFFFFFFFFFFFFFFFFFFFFFFFFFFFFFFFFFFFFF AND PUSH4 0x70A08231 ADDRESS PUSH1 0x40 MLOAD DUP3 PUSH4 0xFFFFFFFF AND PUSH1 0xE0 SHL DUP2 MSTORE PUSH1 0x4 ADD DUP1 DUP3 PUSH20 0xFFFFFFFFFFFFFFFFFFFFFFFFFFFFFFFFFFFFFFFF AND DUP2 MSTORE PUSH1 0x20 ADD SWAP2 POP POP PUSH1 0x20 PUSH1 0x40 MLOAD DUP1 DUP4 SUB DUP2 DUP7 DUP1 EXTCODESIZE ISZERO DUP1 ISZERO PUSH2 0xE37 JUMPI PUSH1 0x0 DUP1 REVERT JUMPDEST POP GAS STATICCALL ISZERO DUP1 ISZERO PUSH2 0xE4B JUMPI RETURNDATASIZE PUSH1 0x0 DUP1 RETURNDATACOPY RETURNDATASIZE PUSH1 0x0 REVERT JUMPDEST POP POP POP POP PUSH1 0x40 MLOAD RETURNDATASIZE PUSH1 0x20 DUP2 LT ISZERO PUSH2 0xE61 JUMPI PUSH1 0x0 DUP1 REVERT JUMPDEST DUP2 ADD SWAP1 DUP1 DUP1 MLOAD SWAP1 PUSH1 0x20 ADD SWAP1 SWAP3 SWAP2 SWAP1 POP POP POP SWAP1 POP PUSH1 0x0 DUP2 EQ ISZERO PUSH2 0xE8D JUMPI TIMESTAMP DUP3 PUSH1 0x2 ADD DUP2 SWAP1 SSTORE POP POP POP PUSH2 0xF86 JUMP JUMPDEST DUP2 PUSH1 0x4 ADD PUSH1 0x0 SWAP1 SLOAD SWAP1 PUSH2 0x100 EXP SWAP1 DIV PUSH1 0xFF AND PUSH2 0xEE0 JUMPI PUSH1 0x1 DUP3 PUSH1 0x4 ADD PUSH1 0x0 PUSH2 0x100 EXP DUP2 SLOAD DUP2 PUSH1 0xFF MUL NOT AND SWAP1 DUP4 ISZERO ISZERO MUL OR SWAP1 SSTORE POP PUSH2 0xED9 DUP3 PUSH1 0x1 ADD SLOAD PUSH1 0x5 SLOAD PUSH2 0x1EF9 SWAP1 SWAP2 SWAP1 PUSH4 0xFFFFFFFF AND JUMP JUMPDEST PUSH1 0x5 DUP2 SWAP1 SSTORE POP JUMPDEST PUSH1 0x0 PUSH1 0x5 SLOAD GT ISZERO PUSH2 0xF7A JUMPI PUSH1 0x0 PUSH2 0xEFB DUP4 PUSH1 0x2 ADD SLOAD TIMESTAMP PUSH2 0x895 JUMP JUMPDEST SWAP1 POP PUSH1 0x0 PUSH2 0xF2A PUSH1 0x5 SLOAD PUSH2 0xF1C DUP7 PUSH1 0x1 ADD SLOAD DUP6 PUSH2 0x1F81 SWAP1 SWAP2 SWAP1 PUSH4 0xFFFFFFFF AND JUMP JUMPDEST PUSH2 0x213D SWAP1 SWAP2 SWAP1 PUSH4 0xFFFFFFFF AND JUMP JUMPDEST SWAP1 POP PUSH2 0xF6F PUSH2 0xF5C DUP5 PUSH2 0xF4E PUSH8 0xDE0B6B3A7640000 DUP6 PUSH2 0x1F81 SWAP1 SWAP2 SWAP1 PUSH4 0xFFFFFFFF AND JUMP JUMPDEST PUSH2 0x213D SWAP1 SWAP2 SWAP1 PUSH4 0xFFFFFFFF AND JUMP JUMPDEST DUP6 PUSH1 0x3 ADD SLOAD PUSH2 0x1EF9 SWAP1 SWAP2 SWAP1 PUSH4 0xFFFFFFFF AND JUMP JUMPDEST DUP5 PUSH1 0x3 ADD DUP2 SWAP1 SSTORE POP POP POP JUMPDEST TIMESTAMP DUP3 PUSH1 0x2 ADD DUP2 SWAP1 SSTORE POP POP POP JUMPDEST POP JUMP JUMPDEST PUSH1 0x0 PUSH1 0x3 DUP3 DUP2 SLOAD DUP2 LT PUSH2 0xF98 JUMPI INVALID JUMPDEST SWAP1 PUSH1 0x0 MSTORE PUSH1 0x20 PUSH1 0x0 KECCAK256 SWAP1 PUSH1 0x5 MUL ADD SWAP1 POP PUSH1 0x0 PUSH1 0x4 PUSH1 0x0 DUP5 DUP2 MSTORE PUSH1 0x20 ADD SWAP1 DUP2 MSTORE PUSH1 0x20 ADD PUSH1 0x0 KECCAK256 PUSH1 0x0 CALLER PUSH20 0xFFFFFFFFFFFFFFFFFFFFFFFFFFFFFFFFFFFFFFFF AND PUSH20 0xFFFFFFFFFFFFFFFFFFFFFFFFFFFFFFFFFFFFFFFF AND DUP2 MSTORE PUSH1 0x20 ADD SWAP1 DUP2 MSTORE PUSH1 0x20 ADD PUSH1 0x0 KECCAK256 SWAP1 POP PUSH1 0x0 DUP2 PUSH1 0x0 ADD SLOAD SWAP1 POP PUSH1 0x0 DUP3 PUSH1 0x0 ADD DUP2 SWAP1 SSTORE POP PUSH1 0x0 DUP3 PUSH1 0x1 ADD DUP2 SWAP1 SSTORE POP PUSH2 0x1068 CALLER DUP3 DUP6 PUSH1 0x0 ADD PUSH1 0x0 SWAP1 SLOAD SWAP1 PUSH2 0x100 EXP SWAP1 DIV PUSH20 0xFFFFFFFFFFFFFFFFFFFFFFFFFFFFFFFFFFFFFFFF AND PUSH20 0xFFFFFFFFFFFFFFFFFFFFFFFFFFFFFFFFFFFFFFFF AND PUSH2 0x2345 SWAP1 SWAP3 SWAP2 SWAP1 PUSH4 0xFFFFFFFF AND JUMP JUMPDEST DUP4 CALLER PUSH20 0xFFFFFFFFFFFFFFFFFFFFFFFFFFFFFFFFFFFFFFFF AND PUSH32 0xBB757047C2B5F3974FE26B7C10F732E7BCE710B0952A71082702781E62AE0595 DUP4 PUSH1 0x40 MLOAD DUP1 DUP3 DUP2 MSTORE PUSH1 0x20 ADD SWAP2 POP POP PUSH1 0x40 MLOAD DUP1 SWAP2 SUB SWAP1 LOG3 POP POP POP POP JUMP JUMPDEST CALLER PUSH20 0xFFFFFFFFFFFFFFFFFFFFFFFFFFFFFFFFFFFFFFFF AND PUSH1 0x1 PUSH1 0x0 SWAP1 SLOAD SWAP1 PUSH2 0x100 EXP SWAP1 DIV PUSH20 0xFFFFFFFFFFFFFFFFFFFFFFFFFFFFFFFFFFFFFFFF AND PUSH20 0xFFFFFFFFFFFFFFFFFFFFFFFFFFFFFFFFFFFFFFFF AND EQ PUSH2 0x1163 JUMPI PUSH1 0x40 MLOAD PUSH32 0x8C379A000000000000000000000000000000000000000000000000000000000 DUP2 MSTORE PUSH1 0x4 ADD DUP1 DUP1 PUSH1 0x20 ADD DUP3 DUP2 SUB DUP3 MSTORE PUSH1 0x24 DUP2 MSTORE PUSH1 0x20 ADD DUP1 PUSH2 0x29D7 PUSH1 0x24 SWAP2 CODECOPY PUSH1 0x40 ADD SWAP2 POP POP PUSH1 0x40 MLOAD DUP1 SWAP2 SUB SWAP1 REVERT JUMPDEST PUSH3 0x76A700 PUSH1 0x7 SLOAD ADD TIMESTAMP LT ISZERO PUSH2 0x133F JUMPI PUSH1 0x2 PUSH1 0x0 SWAP1 SLOAD SWAP1 PUSH2 0x100 EXP SWAP1 DIV PUSH20 0xFFFFFFFFFFFFFFFFFFFFFFFFFFFFFFFFFFFFFFFF AND PUSH20 0xFFFFFFFFFFFFFFFFFFFFFFFFFFFFFFFFFFFFFFFF AND DUP4 PUSH20 0xFFFFFFFFFFFFFFFFFFFFFFFFFFFFFFFFFFFFFFFF AND EQ ISZERO PUSH2 0x1236 JUMPI PUSH1 0x40 MLOAD PUSH32 0x8C379A000000000000000000000000000000000000000000000000000000000 DUP2 MSTORE PUSH1 0x4 ADD DUP1 DUP1 PUSH1 0x20 ADD DUP3 DUP2 SUB DUP3 MSTORE PUSH1 0x4 DUP2 MSTORE PUSH1 0x20 ADD DUP1 PUSH32 0x526F636B00000000000000000000000000000000000000000000000000000000 DUP2 MSTORE POP PUSH1 0x20 ADD SWAP2 POP POP PUSH1 0x40 MLOAD DUP1 SWAP2 SUB SWAP1 REVERT JUMPDEST PUSH1 0x0 PUSH1 0x3 DUP1 SLOAD SWAP1 POP SWAP1 POP PUSH1 0x0 JUMPDEST DUP2 DUP2 LT ISZERO PUSH2 0x133C JUMPI PUSH1 0x0 PUSH1 0x3 DUP3 DUP2 SLOAD DUP2 LT PUSH2 0x125A JUMPI INVALID JUMPDEST SWAP1 PUSH1 0x0 MSTORE PUSH1 0x20 PUSH1 0x0 KECCAK256 SWAP1 PUSH1 0x5 MUL ADD SWAP1 POP DUP1 PUSH1 0x0 ADD PUSH1 0x0 SWAP1 SLOAD SWAP1 PUSH2 0x100 EXP SWAP1 DIV PUSH20 0xFFFFFFFFFFFFFFFFFFFFFFFFFFFFFFFFFFFFFFFF AND PUSH20 0xFFFFFFFFFFFFFFFFFFFFFFFFFFFFFFFFFFFFFFFF AND DUP7 PUSH20 0xFFFFFFFFFFFFFFFFFFFFFFFFFFFFFFFFFFFFFFFF AND EQ ISZERO PUSH2 0x1330 JUMPI PUSH1 0x40 MLOAD PUSH32 0x8C379A000000000000000000000000000000000000000000000000000000000 DUP2 MSTORE PUSH1 0x4 ADD DUP1 DUP1 PUSH1 0x20 ADD DUP3 DUP2 SUB DUP3 MSTORE PUSH1 0xA DUP2 MSTORE PUSH1 0x20 ADD DUP1 PUSH32 0x706F6F6C2E746F6B656E00000000000000000000000000000000000000000000 DUP2 MSTORE POP PUSH1 0x20 ADD SWAP2 POP POP PUSH1 0x40 MLOAD DUP1 SWAP2 SUB SWAP1 REVERT JUMPDEST POP DUP1 PUSH1 0x1 ADD SWAP1 POP PUSH2 0x1243 JUMP JUMPDEST POP POP JUMPDEST PUSH2 0x136A DUP2 DUP4 DUP6 PUSH20 0xFFFFFFFFFFFFFFFFFFFFFFFFFFFFFFFFFFFFFFFF AND PUSH2 0x2345 SWAP1 SWAP3 SWAP2 SWAP1 PUSH4 0xFFFFFFFF AND JUMP JUMPDEST POP POP POP JUMP JUMPDEST PUSH1 0x0 PUSH1 0x1 PUSH1 0x0 SWAP1 SLOAD SWAP1 PUSH2 0x100 EXP SWAP1 DIV PUSH20 0xFFFFFFFFFFFFFFFFFFFFFFFFFFFFFFFFFFFFFFFF AND SWAP1 POP SWAP1 JUMP JUMPDEST PUSH1 0x6 SLOAD DUP2 JUMP JUMPDEST PUSH1 0x2 PUSH1 0x0 SWAP1 SLOAD SWAP1 PUSH2 0x100 EXP SWAP1 DIV PUSH20 0xFFFFFFFFFFFFFFFFFFFFFFFFFFFFFFFFFFFFFFFF AND DUP2 JUMP JUMPDEST PUSH1 0x0 PUSH1 0x3 DUP1 SLOAD SWAP1 POP SWAP1 POP PUSH1 0x0 JUMPDEST DUP2 DUP2 LT ISZERO PUSH2 0x13EE JUMPI PUSH2 0x13E3 DUP2 PUSH2 0xD7A JUMP JUMPDEST DUP1 PUSH1 0x1 ADD SWAP1 POP PUSH2 0x13D2 JUMP JUMPDEST POP POP JUMP JUMPDEST PUSH1 0x7 SLOAD DUP2 JUMP JUMPDEST PUSH2 0x1400 PUSH2 0x2007 JUMP JUMPDEST PUSH20 0xFFFFFFFFFFFFFFFFFFFFFFFFFFFFFFFFFFFFFFFF AND PUSH2 0x141E PUSH2 0x1565 JUMP JUMPDEST PUSH20 0xFFFFFFFFFFFFFFFFFFFFFFFFFFFFFFFFFFFFFFFF AND EQ PUSH2 0x14A7 JUMPI PUSH1 0x40 MLOAD PUSH32 0x8C379A000000000000000000000000000000000000000000000000000000000 DUP2 MSTORE PUSH1 0x4 ADD DUP1 DUP1 PUSH1 0x20 ADD DUP3 DUP2 SUB DUP3 MSTORE PUSH1 0x20 DUP2 MSTORE PUSH1 0x20 ADD DUP1 PUSH32 0x4F776E61626C653A2063616C6C6572206973206E6F7420746865206F776E6572 DUP2 MSTORE POP PUSH1 0x20 ADD SWAP2 POP POP PUSH1 0x40 MLOAD DUP1 SWAP2 SUB SWAP1 REVERT JUMPDEST PUSH1 0x0 PUSH20 0xFFFFFFFFFFFFFFFFFFFFFFFFFFFFFFFFFFFFFFFF AND PUSH1 0x0 DUP1 SLOAD SWAP1 PUSH2 0x100 EXP SWAP1 DIV PUSH20 0xFFFFFFFFFFFFFFFFFFFFFFFFFFFFFFFFFFFFFFFF AND PUSH20 0xFFFFFFFFFFFFFFFFFFFFFFFFFFFFFFFFFFFFFFFF AND PUSH32 0x8BE0079C531659141344CD1FD0A4F28419497F9722A3DAAFE3B4186F6B6457E0 PUSH1 0x40 MLOAD PUSH1 0x40 MLOAD DUP1 SWAP2 SUB SWAP1 LOG3 PUSH1 0x0 DUP1 PUSH1 0x0 PUSH2 0x100 EXP DUP2 SLOAD DUP2 PUSH20 0xFFFFFFFFFFFFFFFFFFFFFFFFFFFFFFFFFFFFFFFF MUL NOT AND SWAP1 DUP4 PUSH20 0xFFFFFFFFFFFFFFFFFFFFFFFFFFFFFFFFFFFFFFFF AND MUL OR SWAP1 SSTORE POP JUMP JUMPDEST PUSH1 0x0 DUP1 PUSH1 0x0 SWAP1 SLOAD SWAP1 PUSH2 0x100 EXP SWAP1 DIV PUSH20 0xFFFFFFFFFFFFFFFFFFFFFFFFFFFFFFFFFFFFFFFF AND SWAP1 POP SWAP1 JUMP JUMPDEST PUSH1 0x4 PUSH1 0x20 MSTORE DUP2 PUSH1 0x0 MSTORE PUSH1 0x40 PUSH1 0x0 KECCAK256 PUSH1 0x20 MSTORE DUP1 PUSH1 0x0 MSTORE PUSH1 0x40 PUSH1 0x0 KECCAK256 PUSH1 0x0 SWAP2 POP SWAP2 POP POP DUP1 PUSH1 0x0 ADD SLOAD SWAP1 DUP1 PUSH1 0x1 ADD SLOAD SWAP1 POP DUP3 JUMP JUMPDEST PUSH1 0x9 SLOAD DUP2 JUMP JUMPDEST CALLER PUSH20 0xFFFFFFFFFFFFFFFFFFFFFFFFFFFFFFFFFFFFFFFF AND PUSH1 0x1 PUSH1 0x0 SWAP1 SLOAD SWAP1 PUSH2 0x100 EXP SWAP1 DIV PUSH20 0xFFFFFFFFFFFFFFFFFFFFFFFFFFFFFFFFFFFFFFFF AND PUSH20 0xFFFFFFFFFFFFFFFFFFFFFFFFFFFFFFFFFFFFFFFF AND EQ PUSH2 0x166B JUMPI PUSH1 0x40 MLOAD PUSH32 0x8C379A000000000000000000000000000000000000000000000000000000000 DUP2 MSTORE PUSH1 0x4 ADD DUP1 DUP1 PUSH1 0x20 ADD DUP3 DUP2 SUB DUP3 MSTORE PUSH1 0x24 DUP2 MSTORE PUSH1 0x20 ADD DUP1 PUSH2 0x29D7 PUSH1 0x24 SWAP2 CODECOPY PUSH1 0x40 ADD SWAP2 POP POP PUSH1 0x40 MLOAD DUP1 SWAP2 SUB SWAP1 REVERT JUMPDEST PUSH2 0x1674 DUP4 PUSH2 0x23E7 JUMP JUMPDEST DUP2 ISZERO PUSH2 0x1683 JUMPI PUSH2 0x1682 PUSH2 0x13C5 JUMP JUMPDEST JUMPDEST PUSH1 0x6 SLOAD TIMESTAMP LT ISZERO PUSH2 0x16B6 JUMPI PUSH1 0x0 DUP2 EQ ISZERO PUSH2 0x16A0 JUMPI PUSH1 0x6 SLOAD SWAP1 POP PUSH2 0x16B1 JUMP JUMPDEST PUSH1 0x6 SLOAD DUP2 LT ISZERO PUSH2 0x16B0 JUMPI PUSH1 0x6 SLOAD SWAP1 POP JUMPDEST JUMPDEST PUSH2 0x16CE JUMP JUMPDEST PUSH1 0x0 DUP2 EQ DUP1 PUSH2 0x16C4 JUMPI POP TIMESTAMP DUP2 LT JUMPDEST ISZERO PUSH2 0x16CD JUMPI TIMESTAMP SWAP1 POP JUMPDEST JUMPDEST PUSH1 0x0 PUSH1 0x6 SLOAD DUP3 GT ISZERO DUP1 PUSH2 0x16E1 JUMPI POP TIMESTAMP DUP3 GT ISZERO JUMPDEST SWAP1 POP PUSH1 0x3 PUSH1 0x40 MLOAD DUP1 PUSH1 0xA0 ADD PUSH1 0x40 MSTORE DUP1 DUP7 PUSH20 0xFFFFFFFFFFFFFFFFFFFFFFFFFFFFFFFFFFFFFFFF AND DUP2 MSTORE PUSH1 0x20 ADD DUP8 DUP2 MSTORE PUSH1 0x20 ADD DUP5 DUP2 MSTORE PUSH1 0x20 ADD PUSH1 0x0 DUP2 MSTORE PUSH1 0x20 ADD DUP4 ISZERO ISZERO DUP2 MSTORE POP SWAP1 DUP1 PUSH1 0x1 DUP2 SLOAD ADD DUP1 DUP3 SSTORE DUP1 SWAP2 POP POP PUSH1 0x1 SWAP1 SUB SWAP1 PUSH1 0x0 MSTORE PUSH1 0x20 PUSH1 0x0 KECCAK256 SWAP1 PUSH1 0x5 MUL ADD PUSH1 0x0 SWAP1 SWAP2 SWAP1 SWAP2 SWAP1 SWAP2 POP PUSH1 0x0 DUP3 ADD MLOAD DUP2 PUSH1 0x0 ADD PUSH1 0x0 PUSH2 0x100 EXP DUP2 SLOAD DUP2 PUSH20 0xFFFFFFFFFFFFFFFFFFFFFFFFFFFFFFFFFFFFFFFF MUL NOT AND SWAP1 DUP4 PUSH20 0xFFFFFFFFFFFFFFFFFFFFFFFFFFFFFFFFFFFFFFFF AND MUL OR SWAP1 SSTORE POP PUSH1 0x20 DUP3 ADD MLOAD DUP2 PUSH1 0x1 ADD SSTORE PUSH1 0x40 DUP3 ADD MLOAD DUP2 PUSH1 0x2 ADD SSTORE PUSH1 0x60 DUP3 ADD MLOAD DUP2 PUSH1 0x3 ADD SSTORE PUSH1 0x80 DUP3 ADD MLOAD DUP2 PUSH1 0x4 ADD PUSH1 0x0 PUSH2 0x100 EXP DUP2 SLOAD DUP2 PUSH1 0xFF MUL NOT AND SWAP1 DUP4 ISZERO ISZERO MUL OR SWAP1 SSTORE POP POP POP DUP1 ISZERO PUSH2 0x17F7 JUMPI PUSH2 0x17F0 DUP6 PUSH1 0x5 SLOAD PUSH2 0x1EF9 SWAP1 SWAP2 SWAP1 PUSH4 0xFFFFFFFF AND JUMP JUMPDEST PUSH1 0x5 DUP2 SWAP1 SSTORE POP JUMPDEST POP POP POP POP POP JUMP JUMPDEST PUSH1 0x0 DUP1 PUSH1 0x3 DUP5 DUP2 SLOAD DUP2 LT PUSH2 0x180E JUMPI INVALID JUMPDEST SWAP1 PUSH1 0x0 MSTORE PUSH1 0x20 PUSH1 0x0 KECCAK256 SWAP1 PUSH1 0x5 MUL ADD SWAP1 POP PUSH1 0x0 PUSH1 0x4 PUSH1 0x0 DUP7 DUP2 MSTORE PUSH1 0x20 ADD SWAP1 DUP2 MSTORE PUSH1 0x20 ADD PUSH1 0x0 KECCAK256 PUSH1 0x0 DUP6 PUSH20 0xFFFFFFFFFFFFFFFFFFFFFFFFFFFFFFFFFFFFFFFF AND PUSH20 0xFFFFFFFFFFFFFFFFFFFFFFFFFFFFFFFFFFFFFFFF AND DUP2 MSTORE PUSH1 0x20 ADD SWAP1 DUP2 MSTORE PUSH1 0x20 ADD PUSH1 0x0 KECCAK256 SWAP1 POP PUSH1 0x0 DUP3 PUSH1 0x3 ADD SLOAD SWAP1 POP PUSH1 0x0 DUP4 PUSH1 0x0 ADD PUSH1 0x0 SWAP1 SLOAD SWAP1 PUSH2 0x100 EXP SWAP1 DIV PUSH20 0xFFFFFFFFFFFFFFFFFFFFFFFFFFFFFFFFFFFFFFFF AND PUSH20 0xFFFFFFFFFFFFFFFFFFFFFFFFFFFFFFFFFFFFFFFF AND PUSH4 0x70A08231 ADDRESS PUSH1 0x40 MLOAD DUP3 PUSH4 0xFFFFFFFF AND PUSH1 0xE0 SHL DUP2 MSTORE PUSH1 0x4 ADD DUP1 DUP3 PUSH20 0xFFFFFFFFFFFFFFFFFFFFFFFFFFFFFFFFFFFFFFFF AND DUP2 MSTORE PUSH1 0x20 ADD SWAP2 POP POP PUSH1 0x20 PUSH1 0x40 MLOAD DUP1 DUP4 SUB DUP2 DUP7 DUP1 EXTCODESIZE ISZERO DUP1 ISZERO PUSH2 0x1908 JUMPI PUSH1 0x0 DUP1 REVERT JUMPDEST POP GAS STATICCALL ISZERO DUP1 ISZERO PUSH2 0x191C JUMPI RETURNDATASIZE PUSH1 0x0 DUP1 RETURNDATACOPY RETURNDATASIZE PUSH1 0x0 REVERT JUMPDEST POP POP POP POP PUSH1 0x40 MLOAD RETURNDATASIZE PUSH1 0x20 DUP2 LT ISZERO PUSH2 0x1932 JUMPI PUSH1 0x0 DUP1 REVERT JUMPDEST DUP2 ADD SWAP1 DUP1 DUP1 MLOAD SWAP1 PUSH1 0x20 ADD SWAP1 SWAP3 SWAP2 SWAP1 POP POP POP SWAP1 POP DUP4 PUSH1 0x2 ADD SLOAD TIMESTAMP GT DUP1 ISZERO PUSH2 0x1959 JUMPI POP PUSH1 0x0 DUP2 EQ ISZERO JUMPDEST ISZERO PUSH2 0x19E3 JUMPI PUSH1 0x0 PUSH2 0x196E DUP6 PUSH1 0x2 ADD SLOAD TIMESTAMP PUSH2 0x895 JUMP JUMPDEST SWAP1 POP PUSH1 0x0 PUSH2 0x199D PUSH1 0x5 SLOAD PUSH2 0x198F DUP9 PUSH1 0x1 ADD SLOAD DUP6 PUSH2 0x1F81 SWAP1 SWAP2 SWAP1 PUSH4 0xFFFFFFFF AND JUMP JUMPDEST PUSH2 0x213D SWAP1 SWAP2 SWAP1 PUSH4 0xFFFFFFFF AND JUMP JUMPDEST SWAP1 POP PUSH2 0x19DE PUSH2 0x19CF DUP5 PUSH2 0x19C1 PUSH8 0xDE0B6B3A7640000 DUP6 PUSH2 0x1F81 SWAP1 SWAP2 SWAP1 PUSH4 0xFFFFFFFF AND JUMP JUMPDEST PUSH2 0x213D SWAP1 SWAP2 SWAP1 PUSH4 0xFFFFFFFF AND JUMP JUMPDEST DUP6 PUSH2 0x1EF9 SWAP1 SWAP2 SWAP1 PUSH4 0xFFFFFFFF AND JUMP JUMPDEST SWAP4 POP POP POP JUMPDEST PUSH2 0x1A2A DUP4 PUSH1 0x1 ADD SLOAD PUSH2 0x1A1C PUSH8 0xDE0B6B3A7640000 PUSH2 0x1A0E DUP7 DUP9 PUSH1 0x0 ADD SLOAD PUSH2 0x1F81 SWAP1 SWAP2 SWAP1 PUSH4 0xFFFFFFFF AND JUMP JUMPDEST PUSH2 0x213D SWAP1 SWAP2 SWAP1 PUSH4 0xFFFFFFFF AND JUMP JUMPDEST PUSH2 0x1E76 SWAP1 SWAP2 SWAP1 PUSH4 0xFFFFFFFF AND JUMP JUMPDEST SWAP5 POP POP POP POP POP SWAP3 SWAP2 POP POP JUMP JUMPDEST PUSH1 0x0 CALLER SWAP1 POP PUSH1 0x0 PUSH1 0x3 DUP5 DUP2 SLOAD DUP2 LT PUSH2 0x1A4A JUMPI INVALID JUMPDEST SWAP1 PUSH1 0x0 MSTORE PUSH1 0x20 PUSH1 0x0 KECCAK256 SWAP1 PUSH1 0x5 MUL ADD SWAP1 POP PUSH1 0x0 PUSH1 0x4 PUSH1 0x0 DUP7 DUP2 MSTORE PUSH1 0x20 ADD SWAP1 DUP2 MSTORE PUSH1 0x20 ADD PUSH1 0x0 KECCAK256 PUSH1 0x0 DUP5 PUSH20 0xFFFFFFFFFFFFFFFFFFFFFFFFFFFFFFFFFFFFFFFF AND PUSH20 0xFFFFFFFFFFFFFFFFFFFFFFFFFFFFFFFFFFFFFFFF AND DUP2 MSTORE PUSH1 0x20 ADD SWAP1 DUP2 MSTORE PUSH1 0x20 ADD PUSH1 0x0 KECCAK256 SWAP1 POP PUSH2 0x1AB7 DUP6 PUSH2 0xD7A JUMP JUMPDEST PUSH1 0x0 DUP2 PUSH1 0x0 ADD SLOAD GT ISZERO PUSH2 0x1B77 JUMPI PUSH1 0x0 PUSH2 0x1B11 DUP3 PUSH1 0x1 ADD SLOAD PUSH2 0x1B03 PUSH8 0xDE0B6B3A7640000 PUSH2 0x1AF5 DUP8 PUSH1 0x3 ADD SLOAD DUP8 PUSH1 0x0 ADD SLOAD PUSH2 0x1F81 SWAP1 SWAP2 SWAP1 PUSH4 0xFFFFFFFF AND JUMP JUMPDEST PUSH2 0x213D SWAP1 SWAP2 SWAP1 PUSH4 0xFFFFFFFF AND JUMP JUMPDEST PUSH2 0x1E76 SWAP1 SWAP2 SWAP1 PUSH4 0xFFFFFFFF AND JUMP JUMPDEST SWAP1 POP PUSH1 0x0 DUP2 GT ISZERO PUSH2 0x1B75 JUMPI PUSH2 0x1B26 DUP5 DUP3 PUSH2 0x21C6 JUMP JUMPDEST DUP4 PUSH20 0xFFFFFFFFFFFFFFFFFFFFFFFFFFFFFFFFFFFFFFFF AND PUSH32 0xE2403640BA68FED3A2F88B7557551D1993F84B99BB10FF833F0CF8DB0C5E0486 DUP3 PUSH1 0x40 MLOAD DUP1 DUP3 DUP2 MSTORE PUSH1 0x20 ADD SWAP2 POP POP PUSH1 0x40 MLOAD DUP1 SWAP2 SUB SWAP1 LOG2 JUMPDEST POP JUMPDEST PUSH1 0x0 DUP5 GT ISZERO PUSH2 0x1BF1 JUMPI PUSH2 0x1BD1 DUP4 ADDRESS DUP7 DUP6 PUSH1 0x0 ADD PUSH1 0x0 SWAP1 SLOAD SWAP1 PUSH2 0x100 EXP SWAP1 DIV PUSH20 0xFFFFFFFFFFFFFFFFFFFFFFFFFFFFFFFFFFFFFFFF AND PUSH20 0xFFFFFFFFFFFFFFFFFFFFFFFFFFFFFFFFFFFFFFFF AND PUSH2 0x24EC SWAP1 SWAP4 SWAP3 SWAP2 SWAP1 PUSH4 0xFFFFFFFF AND JUMP JUMPDEST PUSH2 0x1BE8 DUP5 DUP3 PUSH1 0x0 ADD SLOAD PUSH2 0x1EF9 SWAP1 SWAP2 SWAP1 PUSH4 0xFFFFFFFF AND JUMP JUMPDEST DUP2 PUSH1 0x0 ADD DUP2 SWAP1 SSTORE POP JUMPDEST PUSH2 0x1C26 PUSH8 0xDE0B6B3A7640000 PUSH2 0x1C18 DUP5 PUSH1 0x3 ADD SLOAD DUP5 PUSH1 0x0 ADD SLOAD PUSH2 0x1F81 SWAP1 SWAP2 SWAP1 PUSH4 0xFFFFFFFF AND JUMP JUMPDEST PUSH2 0x213D SWAP1 SWAP2 SWAP1 PUSH4 0xFFFFFFFF AND JUMP JUMPDEST DUP2 PUSH1 0x1 ADD DUP2 SWAP1 SSTORE POP DUP5 DUP4 PUSH20 0xFFFFFFFFFFFFFFFFFFFFFFFFFFFFFFFFFFFFFFFF AND PUSH32 0x90890809C654F11D6E72A28FA60149770A0D11EC6C92319D6CEB2BB0A4EA1A15 DUP7 PUSH1 0x40 MLOAD DUP1 DUP3 DUP2 MSTORE PUSH1 0x20 ADD SWAP2 POP POP PUSH1 0x40 MLOAD DUP1 SWAP2 SUB SWAP1 LOG3 POP POP POP POP POP JUMP JUMPDEST PUSH2 0x1C8C PUSH2 0x2007 JUMP JUMPDEST PUSH20 0xFFFFFFFFFFFFFFFFFFFFFFFFFFFFFFFFFFFFFFFF AND PUSH2 0x1CAA PUSH2 0x1565 JUMP JUMPDEST PUSH20 0xFFFFFFFFFFFFFFFFFFFFFFFFFFFFFFFFFFFFFFFF AND EQ PUSH2 0x1D33 JUMPI PUSH1 0x40 MLOAD PUSH32 0x8C379A000000000000000000000000000000000000000000000000000000000 DUP2 MSTORE PUSH1 0x4 ADD DUP1 DUP1 PUSH1 0x20 ADD DUP3 DUP2 SUB DUP3 MSTORE PUSH1 0x20 DUP2 MSTORE PUSH1 0x20 ADD DUP1 PUSH32 0x4F776E61626C653A2063616C6C6572206973206E6F7420746865206F776E6572 DUP2 MSTORE POP PUSH1 0x20 ADD SWAP2 POP POP PUSH1 0x40 MLOAD DUP1 SWAP2 SUB SWAP1 REVERT JUMPDEST PUSH1 0x0 PUSH20 0xFFFFFFFFFFFFFFFFFFFFFFFFFFFFFFFFFFFFFFFF AND DUP2 PUSH20 0xFFFFFFFFFFFFFFFFFFFFFFFFFFFFFFFFFFFFFFFF AND EQ ISZERO PUSH2 0x1DB9 JUMPI PUSH1 0x40 MLOAD PUSH32 0x8C379A000000000000000000000000000000000000000000000000000000000 DUP2 MSTORE PUSH1 0x4 ADD DUP1 DUP1 PUSH1 0x20 ADD DUP3 DUP2 SUB DUP3 MSTORE PUSH1 0x26 DUP2 MSTORE PUSH1 0x20 ADD DUP1 PUSH2 0x293D PUSH1 0x26 SWAP2 CODECOPY PUSH1 0x40 ADD SWAP2 POP POP PUSH1 0x40 MLOAD DUP1 SWAP2 SUB SWAP1 REVERT JUMPDEST DUP1 PUSH20 0xFFFFFFFFFFFFFFFFFFFFFFFFFFFFFFFFFFFFFFFF AND PUSH1 0x0 DUP1 SLOAD SWAP1 PUSH2 0x100 EXP SWAP1 DIV PUSH20 0xFFFFFFFFFFFFFFFFFFFFFFFFFFFFFFFFFFFFFFFF AND PUSH20 0xFFFFFFFFFFFFFFFFFFFFFFFFFFFFFFFFFFFFFFFF AND PUSH32 0x8BE0079C531659141344CD1FD0A4F28419497F9722A3DAAFE3B4186F6B6457E0 PUSH1 0x40 MLOAD PUSH1 0x40 MLOAD DUP1 SWAP2 SUB SWAP1 LOG3 DUP1 PUSH1 0x0 DUP1 PUSH2 0x100 EXP DUP2 SLOAD DUP2 PUSH20 0xFFFFFFFFFFFFFFFFFFFFFFFFFFFFFFFFFFFFFFFF MUL NOT AND SWAP1 DUP4 PUSH20 0xFFFFFFFFFFFFFFFFFFFFFFFFFFFFFFFFFFFFFFFF AND MUL OR SWAP1 SSTORE POP POP JUMP JUMPDEST PUSH1 0x0 DUP3 DUP3 GT ISZERO PUSH2 0x1EEE JUMPI PUSH1 0x40 MLOAD PUSH32 0x8C379A000000000000000000000000000000000000000000000000000000000 DUP2 MSTORE PUSH1 0x4 ADD DUP1 DUP1 PUSH1 0x20 ADD DUP3 DUP2 SUB DUP3 MSTORE PUSH1 0x1E DUP2 MSTORE PUSH1 0x20 ADD DUP1 PUSH32 0x536166654D6174683A207375627472616374696F6E206F766572666C6F770000 DUP2 MSTORE POP PUSH1 0x20 ADD SWAP2 POP POP PUSH1 0x40 MLOAD DUP1 SWAP2 SUB SWAP1 REVERT JUMPDEST DUP2 DUP4 SUB SWAP1 POP SWAP3 SWAP2 POP POP JUMP JUMPDEST PUSH1 0x0 DUP1 DUP3 DUP5 ADD SWAP1 POP DUP4 DUP2 LT ISZERO PUSH2 0x1F77 JUMPI PUSH1 0x40 MLOAD PUSH32 0x8C379A000000000000000000000000000000000000000000000000000000000 DUP2 MSTORE PUSH1 0x4 ADD DUP1 DUP1 PUSH1 0x20 ADD DUP3 DUP2 SUB DUP3 MSTORE PUSH1 0x1B DUP2 MSTORE PUSH1 0x20 ADD DUP1 PUSH32 0x536166654D6174683A206164646974696F6E206F766572666C6F770000000000 DUP2 MSTORE POP PUSH1 0x20 ADD SWAP2 POP POP PUSH1 0x40 MLOAD DUP1 SWAP2 SUB SWAP1 REVERT JUMPDEST DUP1 SWAP2 POP POP SWAP3 SWAP2 POP POP JUMP JUMPDEST PUSH1 0x0 DUP1 DUP4 EQ ISZERO PUSH2 0x1F94 JUMPI PUSH1 0x0 SWAP1 POP PUSH2 0x2001 JUMP JUMPDEST PUSH1 0x0 DUP3 DUP5 MUL SWAP1 POP DUP3 DUP5 DUP3 DUP2 PUSH2 0x1FA5 JUMPI INVALID JUMPDEST DIV EQ PUSH2 0x1FFC JUMPI PUSH1 0x40 MLOAD PUSH32 0x8C379A000000000000000000000000000000000000000000000000000000000 DUP2 MSTORE PUSH1 0x4 ADD DUP1 DUP1 PUSH1 0x20 ADD DUP3 DUP2 SUB DUP3 MSTORE PUSH1 0x21 DUP2 MSTORE PUSH1 0x20 ADD DUP1 PUSH2 0x29B6 PUSH1 0x21 SWAP2 CODECOPY PUSH1 0x40 ADD SWAP2 POP POP PUSH1 0x40 MLOAD DUP1 SWAP2 SUB SWAP1 REVERT JUMPDEST DUP1 SWAP2 POP POP JUMPDEST SWAP3 SWAP2 POP POP JUMP JUMPDEST PUSH1 0x0 CALLER SWAP1 POP SWAP1 JUMP JUMPDEST PUSH1 0x0 PUSH20 0xFFFFFFFFFFFFFFFFFFFFFFFFFFFFFFFFFFFFFFFF AND DUP2 PUSH20 0xFFFFFFFFFFFFFFFFFFFFFFFFFFFFFFFFFFFFFFFF AND EQ ISZERO PUSH2 0x2095 JUMPI PUSH1 0x40 MLOAD PUSH32 0x8C379A000000000000000000000000000000000000000000000000000000000 DUP2 MSTORE PUSH1 0x4 ADD DUP1 DUP1 PUSH1 0x20 ADD DUP3 DUP2 SUB DUP3 MSTORE PUSH1 0x2D DUP2 MSTORE PUSH1 0x20 ADD DUP1 PUSH2 0x2989 PUSH1 0x2D SWAP2 CODECOPY PUSH1 0x40 ADD SWAP2 POP POP PUSH1 0x40 MLOAD DUP1 SWAP2 SUB SWAP1 REVERT JUMPDEST DUP1 PUSH20 0xFFFFFFFFFFFFFFFFFFFFFFFFFFFFFFFFFFFFFFFF AND PUSH1 0x0 PUSH20 0xFFFFFFFFFFFFFFFFFFFFFFFFFFFFFFFFFFFFFFFF AND PUSH32 0x74DA04524D50C64947F5DD5381EF1A4DCA5CBA8ED1D816243F9E48AA0B5617ED PUSH1 0x40 MLOAD PUSH1 0x40 MLOAD DUP1 SWAP2 SUB SWAP1 LOG3 PUSH2 0x20F9 DUP2 PUSH2 0x1C84 JUMP JUMPDEST DUP1 PUSH1 0x1 PUSH1 0x0 PUSH2 0x100 EXP DUP2 SLOAD DUP2 PUSH20 0xFFFFFFFFFFFFFFFFFFFFFFFFFFFFFFFFFFFFFFFF MUL NOT AND SWAP1 DUP4 PUSH20 0xFFFFFFFFFFFFFFFFFFFFFFFFFFFFFFFFFFFFFFFF AND MUL OR SWAP1 SSTORE POP POP JUMP JUMPDEST PUSH1 0x0 DUP1 DUP3 GT PUSH2 0x21B4 JUMPI PUSH1 0x40 MLOAD PUSH32 0x8C379A000000000000000000000000000000000000000000000000000000000 DUP2 MSTORE PUSH1 0x4 ADD DUP1 DUP1 PUSH1 0x20 ADD DUP3 DUP2 SUB DUP3 MSTORE PUSH1 0x1A DUP2 MSTORE PUSH1 0x20 ADD DUP1 PUSH32 0x536166654D6174683A206469766973696F6E206279207A65726F000000000000 DUP2 MSTORE POP PUSH1 0x20 ADD SWAP2 POP POP PUSH1 0x40 MLOAD DUP1 SWAP2 SUB SWAP1 REVERT JUMPDEST DUP2 DUP4 DUP2 PUSH2 0x21BD JUMPI INVALID JUMPDEST DIV SWAP1 POP SWAP3 SWAP2 POP POP JUMP JUMPDEST PUSH1 0x0 PUSH1 0x2 PUSH1 0x0 SWAP1 SLOAD SWAP1 PUSH2 0x100 EXP SWAP1 DIV PUSH20 0xFFFFFFFFFFFFFFFFFFFFFFFFFFFFFFFFFFFFFFFF AND PUSH20 0xFFFFFFFFFFFFFFFFFFFFFFFFFFFFFFFFFFFFFFFF AND PUSH4 0x70A08231 ADDRESS PUSH1 0x40 MLOAD DUP3 PUSH4 0xFFFFFFFF AND PUSH1 0xE0 SHL DUP2 MSTORE PUSH1 0x4 ADD DUP1 DUP3 PUSH20 0xFFFFFFFFFFFFFFFFFFFFFFFFFFFFFFFFFFFFFFFF AND DUP2 MSTORE PUSH1 0x20 ADD SWAP2 POP POP PUSH1 0x20 PUSH1 0x40 MLOAD DUP1 DUP4 SUB DUP2 DUP7 DUP1 EXTCODESIZE ISZERO DUP1 ISZERO PUSH2 0x2251 JUMPI PUSH1 0x0 DUP1 REVERT JUMPDEST POP GAS STATICCALL ISZERO DUP1 ISZERO PUSH2 0x2265 JUMPI RETURNDATASIZE PUSH1 0x0 DUP1 RETURNDATACOPY RETURNDATASIZE PUSH1 0x0 REVERT JUMPDEST POP POP POP POP PUSH1 0x40 MLOAD RETURNDATASIZE PUSH1 0x20 DUP2 LT ISZERO PUSH2 0x227B JUMPI PUSH1 0x0 DUP1 REVERT JUMPDEST DUP2 ADD SWAP1 DUP1 DUP1 MLOAD SWAP1 PUSH1 0x20 ADD SWAP1 SWAP3 SWAP2 SWAP1 POP POP POP SWAP1 POP PUSH1 0x0 DUP2 GT ISZERO PUSH2 0x2340 JUMPI DUP1 DUP3 GT ISZERO PUSH2 0x22F1 JUMPI PUSH2 0x22EC DUP4 DUP3 PUSH1 0x2 PUSH1 0x0 SWAP1 SLOAD SWAP1 PUSH2 0x100 EXP SWAP1 DIV PUSH20 0xFFFFFFFFFFFFFFFFFFFFFFFFFFFFFFFFFFFFFFFF AND PUSH20 0xFFFFFFFFFFFFFFFFFFFFFFFFFFFFFFFFFFFFFFFF AND PUSH2 0x2345 SWAP1 SWAP3 SWAP2 SWAP1 PUSH4 0xFFFFFFFF AND JUMP JUMPDEST PUSH2 0x233F JUMP JUMPDEST PUSH2 0x233E DUP4 DUP4 PUSH1 0x2 PUSH1 0x0 SWAP1 SLOAD SWAP1 PUSH2 0x100 EXP SWAP1 DIV PUSH20 0xFFFFFFFFFFFFFFFFFFFFFFFFFFFFFFFFFFFFFFFF AND PUSH20 0xFFFFFFFFFFFFFFFFFFFFFFFFFFFFFFFFFFFFFFFF AND PUSH2 0x2345 SWAP1 SWAP3 SWAP2 SWAP1 PUSH4 0xFFFFFFFF AND JUMP JUMPDEST JUMPDEST JUMPDEST POP POP POP JUMP JUMPDEST PUSH2 0x23E2 DUP4 PUSH4 0xA9059CBB PUSH1 0xE0 SHL DUP5 DUP5 PUSH1 0x40 MLOAD PUSH1 0x24 ADD DUP1 DUP4 PUSH20 0xFFFFFFFFFFFFFFFFFFFFFFFFFFFFFFFFFFFFFFFF AND DUP2 MSTORE PUSH1 0x20 ADD DUP3 DUP2 MSTORE PUSH1 0x20 ADD SWAP3 POP POP POP PUSH1 0x40 MLOAD PUSH1 0x20 DUP2 DUP4 SUB SUB DUP2 MSTORE SWAP1 PUSH1 0x40 MSTORE SWAP1 PUSH28 0xFFFFFFFFFFFFFFFFFFFFFFFFFFFFFFFFFFFFFFFFFFFFFFFFFFFFFFFF NOT AND PUSH1 0x20 DUP3 ADD DUP1 MLOAD PUSH28 0xFFFFFFFFFFFFFFFFFFFFFFFFFFFFFFFFFFFFFFFFFFFFFFFFFFFFFFFF DUP4 DUP2 DUP4 AND OR DUP4 MSTORE POP POP POP POP PUSH2 0x25AD JUMP JUMPDEST POP POP POP JUMP JUMPDEST PUSH1 0x0 PUSH1 0x3 DUP1 SLOAD SWAP1 POP SWAP1 POP PUSH1 0x0 JUMPDEST DUP2 DUP2 LT ISZERO PUSH2 0x24E7 JUMPI DUP3 PUSH20 0xFFFFFFFFFFFFFFFFFFFFFFFFFFFFFFFFFFFFFFFF AND PUSH1 0x3 DUP3 DUP2 SLOAD DUP2 LT PUSH2 0x2420 JUMPI INVALID JUMPDEST SWAP1 PUSH1 0x0 MSTORE PUSH1 0x20 PUSH1 0x0 KECCAK256 SWAP1 PUSH1 0x5 MUL ADD PUSH1 0x0 ADD PUSH1 0x0 SWAP1 SLOAD SWAP1 PUSH2 0x100 EXP SWAP1 DIV PUSH20 0xFFFFFFFFFFFFFFFFFFFFFFFFFFFFFFFFFFFFFFFF AND PUSH20 0xFFFFFFFFFFFFFFFFFFFFFFFFFFFFFFFFFFFFFFFF AND EQ ISZERO PUSH2 0x24DC JUMPI PUSH1 0x40 MLOAD PUSH32 0x8C379A000000000000000000000000000000000000000000000000000000000 DUP2 MSTORE PUSH1 0x4 ADD DUP1 DUP1 PUSH1 0x20 ADD DUP3 DUP2 SUB DUP3 MSTORE PUSH1 0x1E DUP2 MSTORE PUSH1 0x20 ADD DUP1 PUSH32 0x526F636B526577617264506F6F6C3A206578697374696E6720706F6F6C3F0000 DUP2 MSTORE POP PUSH1 0x20 ADD SWAP2 POP POP PUSH1 0x40 MLOAD DUP1 SWAP2 SUB SWAP1 REVERT JUMPDEST DUP1 PUSH1 0x1 ADD SWAP1 POP PUSH2 0x23F4 JUMP JUMPDEST POP POP POP JUMP JUMPDEST PUSH2 0x25A7 DUP5 PUSH4 0x23B872DD PUSH1 0xE0 SHL DUP6 DUP6 DUP6 PUSH1 0x40 MLOAD PUSH1 0x24 ADD DUP1 DUP5 PUSH20 0xFFFFFFFFFFFFFFFFFFFFFFFFFFFFFFFFFFFFFFFF AND DUP2 MSTORE PUSH1 0x20 ADD DUP4 PUSH20 0xFFFFFFFFFFFFFFFFFFFFFFFFFFFFFFFFFFFFFFFF AND DUP2 MSTORE PUSH1 0x20 ADD DUP3 DUP2 MSTORE PUSH1 0x20 ADD SWAP4 POP POP POP POP PUSH1 0x40 MLOAD PUSH1 0x20 DUP2 DUP4 SUB SUB DUP2 MSTORE SWAP1 PUSH1 0x40 MSTORE SWAP1 PUSH28 0xFFFFFFFFFFFFFFFFFFFFFFFFFFFFFFFFFFFFFFFFFFFFFFFFFFFFFFFF NOT AND PUSH1 0x20 DUP3 ADD DUP1 MLOAD PUSH28 0xFFFFFFFFFFFFFFFFFFFFFFFFFFFFFFFFFFFFFFFFFFFFFFFFFFFFFFFF DUP4 DUP2 DUP4 AND OR DUP4 MSTORE POP POP POP POP PUSH2 0x25AD JUMP JUMPDEST POP POP POP POP JUMP JUMPDEST PUSH1 0x60 PUSH2 0x260F DUP3 PUSH1 0x40 MLOAD DUP1 PUSH1 0x40 ADD PUSH1 0x40 MSTORE DUP1 PUSH1 0x20 DUP2 MSTORE PUSH1 0x20 ADD PUSH32 0x5361666545524332303A206C6F772D6C6576656C2063616C6C206661696C6564 DUP2 MSTORE POP DUP6 PUSH20 0xFFFFFFFFFFFFFFFFFFFFFFFFFFFFFFFFFFFFFFFF AND PUSH2 0x269C SWAP1 SWAP3 SWAP2 SWAP1 PUSH4 0xFFFFFFFF AND JUMP JUMPDEST SWAP1 POP PUSH1 0x0 DUP2 MLOAD GT ISZERO PUSH2 0x2697 JUMPI DUP1 DUP1 PUSH1 0x20 ADD SWAP1 MLOAD PUSH1 0x20 DUP2 LT ISZERO PUSH2 0x2630 JUMPI PUSH1 0x0 DUP1 REVERT JUMPDEST DUP2 ADD SWAP1 DUP1 DUP1 MLOAD SWAP1 PUSH1 0x20 ADD SWAP1 SWAP3 SWAP2 SWAP1 POP POP POP PUSH2 0x2696 JUMPI PUSH1 0x40 MLOAD PUSH32 0x8C379A000000000000000000000000000000000000000000000000000000000 DUP2 MSTORE PUSH1 0x4 ADD DUP1 DUP1 PUSH1 0x20 ADD DUP3 DUP2 SUB DUP3 MSTORE PUSH1 0x2A DUP2 MSTORE PUSH1 0x20 ADD DUP1 PUSH2 0x29FB PUSH1 0x2A SWAP2 CODECOPY PUSH1 0x40 ADD SWAP2 POP POP PUSH1 0x40 MLOAD DUP1 SWAP2 SUB SWAP1 REVERT JUMPDEST JUMPDEST POP POP POP JUMP JUMPDEST PUSH1 0x60 PUSH2 0x26AB DUP5 DUP5 PUSH1 0x0 DUP6 PUSH2 0x26B4 JUMP JUMPDEST SWAP1 POP SWAP4 SWAP3 POP POP POP JUMP JUMPDEST PUSH1 0x60 DUP3 SELFBALANCE LT ISZERO PUSH2 0x270F JUMPI PUSH1 0x40 MLOAD PUSH32 0x8C379A000000000000000000000000000000000000000000000000000000000 DUP2 MSTORE PUSH1 0x4 ADD DUP1 DUP1 PUSH1 0x20 ADD DUP3 DUP2 SUB DUP3 MSTORE PUSH1 0x26 DUP2 MSTORE PUSH1 0x20 ADD DUP1 PUSH2 0x2963 PUSH1 0x26 SWAP2 CODECOPY PUSH1 0x40 ADD SWAP2 POP POP PUSH1 0x40 MLOAD DUP1 SWAP2 SUB SWAP1 REVERT JUMPDEST PUSH2 0x2718 DUP6 PUSH2 0x285D JUMP JUMPDEST PUSH2 0x278A JUMPI PUSH1 0x40 MLOAD PUSH32 0x8C379A000000000000000000000000000000000000000000000000000000000 DUP2 MSTORE PUSH1 0x4 ADD DUP1 DUP1 PUSH1 0x20 ADD DUP3 DUP2 SUB DUP3 MSTORE PUSH1 0x1D DUP2 MSTORE PUSH1 0x20 ADD DUP1 PUSH32 0x416464726573733A2063616C6C20746F206E6F6E2D636F6E7472616374000000 DUP2 MSTORE POP PUSH1 0x20 ADD SWAP2 POP POP PUSH1 0x40 MLOAD DUP1 SWAP2 SUB SWAP1 REVERT JUMPDEST PUSH1 0x0 PUSH1 0x60 DUP7 PUSH20 0xFFFFFFFFFFFFFFFFFFFFFFFFFFFFFFFFFFFFFFFF AND DUP6 DUP8 PUSH1 0x40 MLOAD DUP1 DUP3 DUP1 MLOAD SWAP1 PUSH1 0x20 ADD SWAP1 DUP1 DUP4 DUP4 JUMPDEST PUSH1 0x20 DUP4 LT PUSH2 0x27DA JUMPI DUP1 MLOAD DUP3 MSTORE PUSH1 0x20 DUP3 ADD SWAP2 POP PUSH1 0x20 DUP2 ADD SWAP1 POP PUSH1 0x20 DUP4 SUB SWAP3 POP PUSH2 0x27B7 JUMP JUMPDEST PUSH1 0x1 DUP4 PUSH1 0x20 SUB PUSH2 0x100 EXP SUB DUP1 NOT DUP3 MLOAD AND DUP2 DUP5 MLOAD AND DUP1 DUP3 OR DUP6 MSTORE POP POP POP POP POP POP SWAP1 POP ADD SWAP2 POP POP PUSH1 0x0 PUSH1 0x40 MLOAD DUP1 DUP4 SUB DUP2 DUP6 DUP8 GAS CALL SWAP3 POP POP POP RETURNDATASIZE DUP1 PUSH1 0x0 DUP2 EQ PUSH2 0x283C JUMPI PUSH1 0x40 MLOAD SWAP2 POP PUSH1 0x1F NOT PUSH1 0x3F RETURNDATASIZE ADD AND DUP3 ADD PUSH1 0x40 MSTORE RETURNDATASIZE DUP3 MSTORE RETURNDATASIZE PUSH1 0x0 PUSH1 0x20 DUP5 ADD RETURNDATACOPY PUSH2 0x2841 JUMP JUMPDEST PUSH1 0x60 SWAP2 POP JUMPDEST POP SWAP2 POP SWAP2 POP PUSH2 0x2851 DUP3 DUP3 DUP7 PUSH2 0x2870 JUMP JUMPDEST SWAP3 POP POP POP SWAP5 SWAP4 POP POP POP POP JUMP JUMPDEST PUSH1 0x0 DUP1 DUP3 EXTCODESIZE SWAP1 POP PUSH1 0x0 DUP2 GT SWAP2 POP POP SWAP2 SWAP1 POP JUMP JUMPDEST PUSH1 0x60 DUP4 ISZERO PUSH2 0x2880 JUMPI DUP3 SWAP1 POP PUSH2 0x2935 JUMP JUMPDEST PUSH1 0x0 DUP4 MLOAD GT ISZERO PUSH2 0x2893 JUMPI DUP3 MLOAD DUP1 DUP5 PUSH1 0x20 ADD REVERT JUMPDEST DUP2 PUSH1 0x40 MLOAD PUSH32 0x8C379A000000000000000000000000000000000000000000000000000000000 DUP2 MSTORE PUSH1 0x4 ADD DUP1 DUP1 PUSH1 0x20 ADD DUP3 DUP2 SUB DUP3 MSTORE DUP4 DUP2 DUP2 MLOAD DUP2 MSTORE PUSH1 0x20 ADD SWAP2 POP DUP1 MLOAD SWAP1 PUSH1 0x20 ADD SWAP1 DUP1 DUP4 DUP4 PUSH1 0x0 JUMPDEST DUP4 DUP2 LT ISZERO PUSH2 0x28FA JUMPI DUP1 DUP3 ADD MLOAD DUP2 DUP5 ADD MSTORE PUSH1 0x20 DUP2 ADD SWAP1 POP PUSH2 0x28DF JUMP JUMPDEST POP POP POP POP SWAP1 POP SWAP1 DUP2 ADD SWAP1 PUSH1 0x1F AND DUP1 ISZERO PUSH2 0x2927 JUMPI DUP1 DUP3 SUB DUP1 MLOAD PUSH1 0x1 DUP4 PUSH1 0x20 SUB PUSH2 0x100 EXP SUB NOT AND DUP2 MSTORE PUSH1 0x20 ADD SWAP2 POP JUMPDEST POP SWAP3 POP POP POP PUSH1 0x40 MLOAD DUP1 SWAP2 SUB SWAP1 REVERT JUMPDEST SWAP4 SWAP3 POP POP POP JUMP INVALID 0x4F PUSH24 0x6E61626C653A206E6577206F776E65722069732074686520 PUSH27 0x65726F2061646472657373416464726573733A20696E7375666669 PUSH4 0x69656E74 KECCAK256 PUSH3 0x616C61 PUSH15 0x636520666F722063616C6C6F706572 PUSH2 0x746F PUSH19 0x3A207A65726F20616464726573732067697665 PUSH15 0x20666F72206E6577206F7065726174 PUSH16 0x72536166654D6174683A206D756C7469 PUSH17 0x6C69636174696F6E206F766572666C6F77 PUSH16 0x70657261746F723A2063616C6C657220 PUSH10 0x73206E6F742074686520 PUSH16 0x70657261746F72536166654552433230 GASPRICE KECCAK256 GASLIMIT MSTORE NUMBER ORIGIN ADDRESS KECCAK256 PUSH16 0x7065726174696F6E20646964206E6F74 KECCAK256 PUSH20 0x756363656564A264697066735822122054115D97 PUSH15 0x120ADBD6E274E2D59342D24C6D4415 ADD DUP11 PUSH13 0xA05D0B6AD5C547305064736F6C PUSH4 0x4300060C STOP CALLER "
				},
				"gasEstimates": {
					"creation": {
						"codeDepositCost": "2168400",
						"executionCost": "infinite",
						"totalCost": "infinite"
					},
					"external": {
						"Rock()": "1114",
						"RockPerSecond()": "1029",
						"TOTAL_REWARDS()": "251",
						"add(uint256,address,bool,uint256)": "infinite",
						"deposit(uint256,uint256)": "infinite",
						"emergencyWithdraw(uint256)": "infinite",
						"getGeneratedReward(uint256,uint256)": "infinite",
						"governanceRecoverUnsupported(address,uint256,address)": "infinite",
						"isOperator()": "1174",
						"massUpdatePools()": "infinite",
						"operator()": "1078",
						"owner()": "1100",
						"pendingShare(uint256,address)": "infinite",
						"poolEndTime()": "1116",
						"poolInfo(uint256)": "5485",
						"poolStartTime()": "1050",
						"renounceOwnership()": "24462",
						"runningTime()": "1094",
						"set(uint256,uint256)": "infinite",
						"totalAllocPoint()": "1095",
						"transferOperator(address)": "infinite",
						"transferOwnership(address)": "infinite",
						"updatePool(uint256)": "infinite",
						"userInfo(uint256,address)": "2174",
						"withdraw(uint256,uint256)": "infinite"
					},
					"internal": {
						"checkPoolDuplicate(contract IERC20)": "infinite",
						"safeRockTransfer(address,uint256)": "infinite"
					}
				},
				"methodIdentifiers": {
					"Rock()": "60689557",
					"RockPerSecond()": "022cbf18",
					"TOTAL_REWARDS()": "09cf6091",
					"add(uint256,address,bool,uint256)": "96805e54",
					"deposit(uint256,uint256)": "e2bbb158",
					"emergencyWithdraw(uint256)": "5312ea8e",
					"getGeneratedReward(uint256,uint256)": "231f0c6a",
					"governanceRecoverUnsupported(address,uint256,address)": "54575af4",
					"isOperator()": "4456eda2",
					"massUpdatePools()": "630b5ba1",
					"operator()": "570ca735",
					"owner()": "8da5cb5b",
					"pendingShare(uint256,address)": "cf4b55cb",
					"poolEndTime()": "6e271dd5",
					"poolInfo(uint256)": "1526fe27",
					"poolStartTime()": "5f96dc11",
					"renounceOwnership()": "715018a6",
					"runningTime()": "943f013d",
					"set(uint256,uint256)": "1ab06ee5",
					"totalAllocPoint()": "17caf6f1",
					"transferOperator(address)": "29605e77",
					"transferOwnership(address)": "f2fde38b",
					"updatePool(uint256)": "51eb05a6",
					"userInfo(uint256,address)": "93f1a40b",
					"withdraw(uint256,uint256)": "441a3e70"
				}
			},
			"storageLayout": {
				"storage": [
					{
						"astId": 7,
						"contract": "contracts/distribution/TShareRewardPool.sol:PolyRockRewardPool",
						"label": "_owner",
						"offset": 0,
						"slot": "0",
						"type": "t_address"
					},
					{
						"astId": 2116,
						"contract": "contracts/distribution/TShareRewardPool.sol:PolyRockRewardPool",
						"label": "_operator",
						"offset": 0,
						"slot": "1",
						"type": "t_address"
					},
					{
						"astId": 1138,
						"contract": "contracts/distribution/TShareRewardPool.sol:PolyRockRewardPool",
						"label": "Rock",
						"offset": 0,
						"slot": "2",
						"type": "t_contract(IERC20)187"
					},
					{
						"astId": 1141,
						"contract": "contracts/distribution/TShareRewardPool.sol:PolyRockRewardPool",
						"label": "poolInfo",
						"offset": 0,
						"slot": "3",
						"type": "t_array(t_struct(PoolInfo)1136_storage)dyn_storage"
					},
					{
						"astId": 1147,
						"contract": "contracts/distribution/TShareRewardPool.sol:PolyRockRewardPool",
						"label": "userInfo",
						"offset": 0,
						"slot": "4",
						"type": "t_mapping(t_uint256,t_mapping(t_address,t_struct(UserInfo)1125_storage))"
					},
					{
						"astId": 1150,
						"contract": "contracts/distribution/TShareRewardPool.sol:PolyRockRewardPool",
						"label": "totalAllocPoint",
						"offset": 0,
						"slot": "5",
						"type": "t_uint256"
					},
					{
						"astId": 1152,
						"contract": "contracts/distribution/TShareRewardPool.sol:PolyRockRewardPool",
						"label": "poolStartTime",
						"offset": 0,
						"slot": "6",
						"type": "t_uint256"
					},
					{
						"astId": 1154,
						"contract": "contracts/distribution/TShareRewardPool.sol:PolyRockRewardPool",
						"label": "poolEndTime",
						"offset": 0,
						"slot": "7",
						"type": "t_uint256"
					},
					{
						"astId": 1157,
						"contract": "contracts/distribution/TShareRewardPool.sol:PolyRockRewardPool",
						"label": "RockPerSecond",
						"offset": 0,
						"slot": "8",
						"type": "t_uint256"
					},
					{
						"astId": 1160,
						"contract": "contracts/distribution/TShareRewardPool.sol:PolyRockRewardPool",
						"label": "runningTime",
						"offset": 0,
						"slot": "9",
						"type": "t_uint256"
					}
				],
				"types": {
					"t_address": {
						"encoding": "inplace",
						"label": "address",
						"numberOfBytes": "20"
					},
					"t_array(t_struct(PoolInfo)1136_storage)dyn_storage": {
						"base": "t_struct(PoolInfo)1136_storage",
						"encoding": "dynamic_array",
						"label": "struct PolyRockRewardPool.PoolInfo[]",
						"numberOfBytes": "32"
					},
					"t_bool": {
						"encoding": "inplace",
						"label": "bool",
						"numberOfBytes": "1"
					},
					"t_contract(IERC20)187": {
						"encoding": "inplace",
						"label": "contract IERC20",
						"numberOfBytes": "20"
					},
					"t_mapping(t_address,t_struct(UserInfo)1125_storage)": {
						"encoding": "mapping",
						"key": "t_address",
						"label": "mapping(address => struct PolyRockRewardPool.UserInfo)",
						"numberOfBytes": "32",
						"value": "t_struct(UserInfo)1125_storage"
					},
					"t_mapping(t_uint256,t_mapping(t_address,t_struct(UserInfo)1125_storage))": {
						"encoding": "mapping",
						"key": "t_uint256",
						"label": "mapping(uint256 => mapping(address => struct PolyRockRewardPool.UserInfo))",
						"numberOfBytes": "32",
						"value": "t_mapping(t_address,t_struct(UserInfo)1125_storage)"
					},
					"t_struct(PoolInfo)1136_storage": {
						"encoding": "inplace",
						"label": "struct PolyRockRewardPool.PoolInfo",
						"members": [
							{
								"astId": 1127,
								"contract": "contracts/distribution/TShareRewardPool.sol:PolyRockRewardPool",
								"label": "token",
								"offset": 0,
								"slot": "0",
								"type": "t_contract(IERC20)187"
							},
							{
								"astId": 1129,
								"contract": "contracts/distribution/TShareRewardPool.sol:PolyRockRewardPool",
								"label": "allocPoint",
								"offset": 0,
								"slot": "1",
								"type": "t_uint256"
							},
							{
								"astId": 1131,
								"contract": "contracts/distribution/TShareRewardPool.sol:PolyRockRewardPool",
								"label": "lastRewardTime",
								"offset": 0,
								"slot": "2",
								"type": "t_uint256"
							},
							{
								"astId": 1133,
								"contract": "contracts/distribution/TShareRewardPool.sol:PolyRockRewardPool",
								"label": "accRockPerShare",
								"offset": 0,
								"slot": "3",
								"type": "t_uint256"
							},
							{
								"astId": 1135,
								"contract": "contracts/distribution/TShareRewardPool.sol:PolyRockRewardPool",
								"label": "isStarted",
								"offset": 0,
								"slot": "4",
								"type": "t_bool"
							}
						],
						"numberOfBytes": "160"
					},
					"t_struct(UserInfo)1125_storage": {
						"encoding": "inplace",
						"label": "struct PolyRockRewardPool.UserInfo",
						"members": [
							{
								"astId": 1122,
								"contract": "contracts/distribution/TShareRewardPool.sol:PolyRockRewardPool",
								"label": "amount",
								"offset": 0,
								"slot": "0",
								"type": "t_uint256"
							},
							{
								"astId": 1124,
								"contract": "contracts/distribution/TShareRewardPool.sol:PolyRockRewardPool",
								"label": "rewardDebt",
								"offset": 0,
								"slot": "1",
								"type": "t_uint256"
							}
						],
						"numberOfBytes": "64"
					},
					"t_uint256": {
						"encoding": "inplace",
						"label": "uint256",
						"numberOfBytes": "32"
					}
				}
			},
			"userdoc": {
				"kind": "user",
				"methods": {},
				"version": 1
			}
		}
	}
}