{
	"contracts/distribution/TombGenesisRewardPool.sol": {
		"PolyGenesisRewardPool": {
			"abi": [
				{
					"anonymous": false,
					"inputs": [
						{
							"indexed": true,
							"internalType": "address",
							"name": "user",
							"type": "address"
						},
						{
							"indexed": true,
							"internalType": "uint256",
							"name": "pid",
							"type": "uint256"
						},
						{
							"indexed": false,
							"internalType": "uint256",
							"name": "amount",
							"type": "uint256"
						}
					],
					"name": "Deposit",
					"type": "event"
				},
				{
					"anonymous": false,
					"inputs": [
						{
							"indexed": true,
							"internalType": "address",
							"name": "user",
							"type": "address"
						},
						{
							"indexed": true,
							"internalType": "uint256",
							"name": "pid",
							"type": "uint256"
						},
						{
							"indexed": false,
							"internalType": "uint256",
							"name": "amount",
							"type": "uint256"
						}
					],
					"name": "EmergencyWithdraw",
					"type": "event"
				},
				{
					"anonymous": false,
					"inputs": [
						{
							"indexed": true,
							"internalType": "address",
							"name": "previousOperator",
							"type": "address"
						},
						{
							"indexed": true,
							"internalType": "address",
							"name": "newOperator",
							"type": "address"
						}
					],
					"name": "OperatorTransferred",
					"type": "event"
				},
				{
					"anonymous": false,
					"inputs": [
						{
							"indexed": true,
							"internalType": "address",
							"name": "previousOwner",
							"type": "address"
						},
						{
							"indexed": true,
							"internalType": "address",
							"name": "newOwner",
							"type": "address"
						}
					],
					"name": "OwnershipTransferred",
					"type": "event"
				},
				{
					"anonymous": false,
					"inputs": [
						{
							"indexed": true,
							"internalType": "address",
							"name": "user",
							"type": "address"
						},
						{
							"indexed": false,
							"internalType": "uint256",
							"name": "amount",
							"type": "uint256"
						}
					],
					"name": "RewardPaid",
					"type": "event"
				},
				{
					"anonymous": false,
					"inputs": [
						{
							"indexed": true,
							"internalType": "address",
							"name": "user",
							"type": "address"
						},
						{
							"indexed": true,
							"internalType": "uint256",
							"name": "pid",
							"type": "uint256"
						},
						{
							"indexed": false,
							"internalType": "uint256",
							"name": "amount",
							"type": "uint256"
						}
					],
					"name": "Withdraw",
					"type": "event"
				},
				{
					"inputs": [],
					"name": "Fee",
					"outputs": [
						{
							"internalType": "uint256",
							"name": "",
							"type": "uint256"
						}
					],
					"stateMutability": "view",
					"type": "function"
				},
				{
					"inputs": [],
					"name": "Pair",
					"outputs": [
						{
							"internalType": "address",
							"name": "",
							"type": "address"
						}
					],
					"stateMutability": "view",
					"type": "function"
				},
				{
					"inputs": [],
					"name": "Poly",
					"outputs": [
						{
							"internalType": "contract IERC20",
							"name": "",
							"type": "address"
						}
					],
					"stateMutability": "view",
					"type": "function"
				},
				{
					"inputs": [],
					"name": "PolyPerSecond",
					"outputs": [
						{
							"internalType": "uint256",
							"name": "",
							"type": "uint256"
						}
					],
					"stateMutability": "view",
					"type": "function"
				},
				{
					"inputs": [],
					"name": "TOTAL_REWARDS",
					"outputs": [
						{
							"internalType": "uint256",
							"name": "",
							"type": "uint256"
						}
					],
					"stateMutability": "view",
					"type": "function"
				},
				{
					"inputs": [],
					"name": "_feeColect",
					"outputs": [
						{
							"internalType": "address",
							"name": "",
							"type": "address"
						}
					],
					"stateMutability": "view",
					"type": "function"
				},
				{
					"inputs": [
						{
							"internalType": "uint256",
							"name": "_allocPoint",
							"type": "uint256"
						},
						{
							"internalType": "contract IERC20",
							"name": "_token",
							"type": "address"
						},
						{
							"internalType": "bool",
							"name": "_withUpdate",
							"type": "bool"
						},
						{
							"internalType": "uint256",
							"name": "_lastRewardTime",
							"type": "uint256"
						}
					],
					"name": "add",
					"outputs": [],
					"stateMutability": "nonpayable",
					"type": "function"
				},
				{
					"inputs": [
						{
							"internalType": "uint256",
							"name": "_pid",
							"type": "uint256"
						},
						{
							"internalType": "uint256",
							"name": "_amount",
							"type": "uint256"
						}
					],
					"name": "deposit",
					"outputs": [],
					"stateMutability": "nonpayable",
					"type": "function"
				},
				{
					"inputs": [
						{
							"internalType": "uint256",
							"name": "_pid",
							"type": "uint256"
						}
					],
					"name": "emergencyWithdraw",
					"outputs": [],
					"stateMutability": "nonpayable",
					"type": "function"
				},
				{
					"inputs": [
						{
							"internalType": "uint256",
							"name": "_fromTime",
							"type": "uint256"
						},
						{
							"internalType": "uint256",
							"name": "_toTime",
							"type": "uint256"
						}
					],
					"name": "getGeneratedReward",
					"outputs": [
						{
							"internalType": "uint256",
							"name": "",
							"type": "uint256"
						}
					],
					"stateMutability": "view",
					"type": "function"
				},
				{
					"inputs": [
						{
							"internalType": "contract IERC20",
							"name": "_token",
							"type": "address"
						},
						{
							"internalType": "uint256",
							"name": "amount",
							"type": "uint256"
						},
						{
							"internalType": "address",
							"name": "to",
							"type": "address"
						}
					],
					"name": "governanceRecoverUnsupported",
					"outputs": [],
					"stateMutability": "nonpayable",
					"type": "function"
				},
				{
					"inputs": [
						{
							"internalType": "address",
							"name": "_Poly",
							"type": "address"
						},
						{
							"internalType": "uint256",
							"name": "_poolStartTime",
							"type": "uint256"
						},
						{
							"internalType": "address",
							"name": "_pair",
							"type": "address"
						}
					],
					"name": "initialize",
					"outputs": [],
					"stateMutability": "nonpayable",
					"type": "function"
				},
				{
					"inputs": [],
					"name": "initialized",
					"outputs": [
						{
							"internalType": "bool",
							"name": "",
							"type": "bool"
						}
					],
					"stateMutability": "view",
					"type": "function"
				},
				{
					"inputs": [],
					"name": "isInitialized",
					"outputs": [
						{
							"internalType": "bool",
							"name": "",
							"type": "bool"
						}
					],
					"stateMutability": "view",
					"type": "function"
				},
				{
					"inputs": [],
					"name": "isOperator",
					"outputs": [
						{
							"internalType": "bool",
							"name": "",
							"type": "bool"
						}
					],
					"stateMutability": "view",
					"type": "function"
				},
				{
					"inputs": [],
					"name": "massUpdatePools",
					"outputs": [],
					"stateMutability": "nonpayable",
					"type": "function"
				},
				{
					"inputs": [],
					"name": "operator",
					"outputs": [
						{
							"internalType": "address",
							"name": "",
							"type": "address"
						}
					],
					"stateMutability": "view",
					"type": "function"
				},
				{
					"inputs": [],
					"name": "owner",
					"outputs": [
						{
							"internalType": "address",
							"name": "",
							"type": "address"
						}
					],
					"stateMutability": "view",
					"type": "function"
				},
				{
					"inputs": [
						{
							"internalType": "uint256",
							"name": "_pid",
							"type": "uint256"
						},
						{
							"internalType": "address",
							"name": "_user",
							"type": "address"
						}
					],
					"name": "pendingPoly",
					"outputs": [
						{
							"internalType": "uint256",
							"name": "",
							"type": "uint256"
						}
					],
					"stateMutability": "view",
					"type": "function"
				},
				{
					"inputs": [],
					"name": "poolEndTime",
					"outputs": [
						{
							"internalType": "uint256",
							"name": "",
							"type": "uint256"
						}
					],
					"stateMutability": "view",
					"type": "function"
				},
				{
					"inputs": [
						{
							"internalType": "uint256",
							"name": "",
							"type": "uint256"
						}
					],
					"name": "poolInfo",
					"outputs": [
						{
							"internalType": "contract IERC20",
							"name": "token",
							"type": "address"
						},
						{
							"internalType": "uint256",
							"name": "allocPoint",
							"type": "uint256"
						},
						{
							"internalType": "uint256",
							"name": "lastRewardTime",
							"type": "uint256"
						},
						{
							"internalType": "uint256",
							"name": "accPolyPerShare",
							"type": "uint256"
						},
						{
							"internalType": "bool",
							"name": "isStarted",
							"type": "bool"
						}
					],
					"stateMutability": "view",
					"type": "function"
				},
				{
					"inputs": [],
					"name": "poolStartTime",
					"outputs": [
						{
							"internalType": "uint256",
							"name": "",
							"type": "uint256"
						}
					],
					"stateMutability": "view",
					"type": "function"
				},
				{
					"inputs": [],
					"name": "renounceOwnership",
					"outputs": [],
					"stateMutability": "nonpayable",
					"type": "function"
				},
				{
					"inputs": [],
					"name": "runningTime",
					"outputs": [
						{
							"internalType": "uint256",
							"name": "",
							"type": "uint256"
						}
					],
					"stateMutability": "view",
					"type": "function"
				},
				{
					"inputs": [
						{
							"internalType": "uint256",
							"name": "_pid",
							"type": "uint256"
						},
						{
							"internalType": "uint256",
							"name": "_allocPoint",
							"type": "uint256"
						}
					],
					"name": "set",
					"outputs": [],
					"stateMutability": "nonpayable",
					"type": "function"
				},
				{
					"inputs": [
						{
							"internalType": "address",
							"name": "_Newoperator",
							"type": "address"
						}
					],
					"name": "setOperator",
					"outputs": [],
					"stateMutability": "nonpayable",
					"type": "function"
				},
				{
					"inputs": [],
					"name": "totalAllocPoint",
					"outputs": [
						{
							"internalType": "uint256",
							"name": "",
							"type": "uint256"
						}
					],
					"stateMutability": "view",
					"type": "function"
				},
				{
					"inputs": [
						{
							"internalType": "address",
							"name": "newOperator_",
							"type": "address"
						}
					],
					"name": "transferOperator",
					"outputs": [],
					"stateMutability": "nonpayable",
					"type": "function"
				},
				{
					"inputs": [
						{
							"internalType": "address",
							"name": "newOwner",
							"type": "address"
						}
					],
					"name": "transferOwnership",
					"outputs": [],
					"stateMutability": "nonpayable",
					"type": "function"
				},
				{
					"inputs": [
						{
							"internalType": "uint256",
							"name": "_pid",
							"type": "uint256"
						}
					],
					"name": "updatePool",
					"outputs": [],
					"stateMutability": "nonpayable",
					"type": "function"
				},
				{
					"inputs": [
						{
							"internalType": "uint256",
							"name": "",
							"type": "uint256"
						},
						{
							"internalType": "address",
							"name": "",
							"type": "address"
						}
					],
					"name": "userInfo",
					"outputs": [
						{
							"internalType": "uint256",
							"name": "amount",
							"type": "uint256"
						},
						{
							"internalType": "uint256",
							"name": "rewardDebt",
							"type": "uint256"
						}
					],
					"stateMutability": "view",
					"type": "function"
				},
				{
					"inputs": [
						{
							"internalType": "uint256",
							"name": "_pid",
							"type": "uint256"
						},
						{
							"internalType": "uint256",
							"name": "_amount",
							"type": "uint256"
						}
					],
					"name": "withdraw",
					"outputs": [],
					"stateMutability": "nonpayable",
					"type": "function"
				}
			],
			"devdoc": {
				"kind": "dev",
				"methods": {
					"owner()": {
						"details": "Returns the address of the current owner."
					},
					"renounceOwnership()": {
						"details": "Leaves the contract without owner. It will not be possible to call `onlyOwner` functions anymore. Can only be called by the current owner. NOTE: Renouncing ownership will leave the contract without an owner, thereby removing any functionality that is only available to the owner."
					},
					"transferOwnership(address)": {
						"details": "Transfers ownership of the contract to a new account (`newOwner`). Can only be called by the current owner."
					}
				},
				"version": 1
			},
			"evm": {
				"assembly": "    /* \"contracts/distribution/TombGenesisRewardPool.sol\":462:11928  contract PolyGenesisRewardPool is Operator {\r... */\n  mstore(0x40, 0x80)\n    /* \"contracts/distribution/TombGenesisRewardPool.sol\":1300:1303  200 */\n  0xc8\n    /* \"contracts/distribution/TombGenesisRewardPool.sol\":1279:1303  uint256 public Fee = 200 */\n  0x04\n  sstore\n    /* \"contracts/distribution/TombGenesisRewardPool.sol\":1446:1451  false */\n  0x00\n    /* \"contracts/distribution/TombGenesisRewardPool.sol\":1420:1451  bool public initialized = false */\n  0x07\n  exp(0x0100, 0x00)\n  dup2\n  sload\n  dup2\n  0xff\n  mul\n  not\n  and\n  swap1\n  dup4\n  iszero\n  iszero\n  mul\n  or\n  swap1\n  sstore\n  pop\n    /* \"contracts/distribution/TombGenesisRewardPool.sol\":1703:1704  0 */\n  0x00\n    /* \"contracts/distribution/TombGenesisRewardPool.sol\":1670:1704  uint256 public totalAllocPoint = 0 */\n  0x09\n  sstore\n    /* \"contracts/distribution/TombGenesisRewardPool.sol\":1914:1927  0.09645 ether */\n  0x0156a8c394962000\n    /* \"contracts/distribution/TombGenesisRewardPool.sol\":1883:1927  uint256 public PolyPerSecond = 0.09645 ether */\n  0x0c\n  sstore\n    /* \"contracts/distribution/TombGenesisRewardPool.sol\":1999:2005  3 days */\n  0x03f480\n    /* \"contracts/distribution/TombGenesisRewardPool.sol\":1970:2005  uint256 public runningTime = 3 days */\n  0x0d\n  sstore\n    /* \"contracts/distribution/TombGenesisRewardPool.sol\":462:11928  contract PolyGenesisRewardPool is Operator {\r... */\n  callvalue\n  dup1\n  iszero\n  tag_1\n  jumpi\n  0x00\n  dup1\n  revert\ntag_1:\n  pop\n    /* \"@openzeppelin/contracts/access/Ownable.sol\":938:955  address msgSender */\n  0x00\n    /* \"@openzeppelin/contracts/access/Ownable.sol\":958:970  _msgSender() */\n  tag_5\n    /* \"@openzeppelin/contracts/access/Ownable.sol\":958:968  _msgSender */\n  shl(0x20, tag_6)\n    /* \"@openzeppelin/contracts/access/Ownable.sol\":958:970  _msgSender() */\n  0x20\n  shr\n  jump\t// in\ntag_5:\n    /* \"@openzeppelin/contracts/access/Ownable.sol\":938:970  address msgSender = _msgSender() */\n  swap1\n  pop\n    /* \"@openzeppelin/contracts/access/Ownable.sol\":989:998  msgSender */\n  dup1\n    /* \"@openzeppelin/contracts/access/Ownable.sol\":980:986  _owner */\n  0x00\n  dup1\n    /* \"@openzeppelin/contracts/access/Ownable.sol\":980:998  _owner = msgSender */\n  0x0100\n  exp\n  dup2\n  sload\n  dup2\n  0xffffffffffffffffffffffffffffffffffffffff\n  mul\n  not\n  and\n  swap1\n  dup4\n  0xffffffffffffffffffffffffffffffffffffffff\n  and\n  mul\n  or\n  swap1\n  sstore\n  pop\n    /* \"@openzeppelin/contracts/access/Ownable.sol\":1046:1055  msgSender */\n  dup1\n    /* \"@openzeppelin/contracts/access/Ownable.sol\":1013:1056  OwnershipTransferred(address(0), msgSender) */\n  0xffffffffffffffffffffffffffffffffffffffff\n  and\n    /* \"@openzeppelin/contracts/access/Ownable.sol\":1042:1043  0 */\n  0x00\n    /* \"@openzeppelin/contracts/access/Ownable.sol\":1013:1056  OwnershipTransferred(address(0), msgSender) */\n  0xffffffffffffffffffffffffffffffffffffffff\n  and\n  0x8be0079c531659141344cd1fd0a4f28419497f9722a3daafe3b4186f6b6457e0\n  mload(0x40)\n  mload(0x40)\n  dup1\n  swap2\n  sub\n  swap1\n  log3\n    /* \"@openzeppelin/contracts/access/Ownable.sol\":904:1063  constructor () internal {... */\n  pop\n    /* \"contracts/owner/Operator.sol\":435:447  _msgSender() */\n  tag_8\n    /* \"contracts/owner/Operator.sol\":435:445  _msgSender */\n  shl(0x20, tag_6)\n    /* \"contracts/owner/Operator.sol\":435:447  _msgSender() */\n  0x20\n  shr\n  jump\t// in\ntag_8:\n    /* \"contracts/owner/Operator.sol\":423:432  _operator */\n  0x01\n  0x00\n    /* \"contracts/owner/Operator.sol\":423:447  _operator = _msgSender() */\n  0x0100\n  exp\n  dup2\n  sload\n  dup2\n  0xffffffffffffffffffffffffffffffffffffffff\n  mul\n  not\n  and\n  swap1\n  dup4\n  0xffffffffffffffffffffffffffffffffffffffff\n  and\n  mul\n  or\n  swap1\n  sstore\n  pop\n    /* \"contracts/owner/Operator.sol\":495:504  _operator */\n  0x01\n  0x00\n  swap1\n  sload\n  swap1\n  0x0100\n  exp\n  swap1\n  div\n  0xffffffffffffffffffffffffffffffffffffffff\n  and\n    /* \"contracts/owner/Operator.sol\":463:505  OperatorTransferred(address(0), _operator) */\n  0xffffffffffffffffffffffffffffffffffffffff\n  and\n    /* \"contracts/owner/Operator.sol\":491:492  0 */\n  0x00\n    /* \"contracts/owner/Operator.sol\":463:505  OperatorTransferred(address(0), _operator) */\n  0xffffffffffffffffffffffffffffffffffffffff\n  and\n  0x74da04524d50c64947f5dd5381ef1a4dca5cba8ed1d816243f9e48aa0b5617ed\n  mload(0x40)\n  mload(0x40)\n  dup1\n  swap2\n  sub\n  swap1\n  log3\n    /* \"contracts/distribution/TombGenesisRewardPool.sol\":462:11928  contract PolyGenesisRewardPool is Operator {\r... */\n  jump(tag_9)\n    /* \"@openzeppelin/contracts/utils/Context.sol\":596:692  function _msgSender() internal view virtual returns (address) {... */\ntag_6:\n    /* \"@openzeppelin/contracts/utils/Context.sol\":649:656  address */\n  0x00\n    /* \"@openzeppelin/contracts/utils/Context.sol\":675:685  msg.sender */\n  caller\n    /* \"@openzeppelin/contracts/utils/Context.sol\":668:685  return msg.sender */\n  swap1\n  pop\n    /* \"@openzeppelin/contracts/utils/Context.sol\":596:692  function _msgSender() internal view virtual returns (address) {... */\n  swap1\n  jump\t// out\n    /* \"contracts/distribution/TombGenesisRewardPool.sol\":462:11928  contract PolyGenesisRewardPool is Operator {\r... */\ntag_9:\n  dataSize(sub_0)\n  dup1\n  dataOffset(sub_0)\n  0x00\n  codecopy\n  0x00\n  return\nstop\n\nsub_0: assembly {\n        /* \"contracts/distribution/TombGenesisRewardPool.sol\":462:11928  contract PolyGenesisRewardPool is Operator {\r... */\n      mstore(0x40, 0x80)\n      callvalue\n      dup1\n      iszero\n      tag_1\n      jumpi\n      0x00\n      dup1\n      revert\n    tag_1:\n      pop\n      jumpi(tag_2, lt(calldatasize, 0x04))\n      shr(0xe0, calldataload(0x00))\n      dup1\n      0x54575af4\n      gt\n      tag_35\n      jumpi\n      dup1\n      0x943f013d\n      gt\n      tag_36\n      jumpi\n      dup1\n      0xc350a1b5\n      gt\n      tag_37\n      jumpi\n      dup1\n      0xc350a1b5\n      eq\n      tag_31\n      jumpi\n      dup1\n      0xe177bb38\n      eq\n      tag_32\n      jumpi\n      dup1\n      0xe2bbb158\n      eq\n      tag_33\n      jumpi\n      dup1\n      0xf2fde38b\n      eq\n      tag_34\n      jumpi\n      jump(tag_2)\n    tag_37:\n      dup1\n      0x943f013d\n      eq\n      tag_27\n      jumpi\n      dup1\n      0x96805e54\n      eq\n      tag_28\n      jumpi\n      dup1\n      0xb3ab15fb\n      eq\n      tag_29\n      jumpi\n      dup1\n      0xbef7a2f0\n      eq\n      tag_30\n      jumpi\n      jump(tag_2)\n    tag_36:\n      dup1\n      0x6e271dd5\n      gt\n      tag_38\n      jumpi\n      dup1\n      0x6e271dd5\n      eq\n      tag_23\n      jumpi\n      dup1\n      0x715018a6\n      eq\n      tag_24\n      jumpi\n      dup1\n      0x8da5cb5b\n      eq\n      tag_25\n      jumpi\n      dup1\n      0x93f1a40b\n      eq\n      tag_26\n      jumpi\n      jump(tag_2)\n    tag_38:\n      dup1\n      0x54575af4\n      eq\n      tag_19\n      jumpi\n      dup1\n      0x570ca735\n      eq\n      tag_20\n      jumpi\n      dup1\n      0x5f96dc11\n      eq\n      tag_21\n      jumpi\n      dup1\n      0x630b5ba1\n      eq\n      tag_22\n      jumpi\n      jump(tag_2)\n    tag_35:\n      dup1\n      0x3736421b\n      gt\n      tag_39\n      jumpi\n      dup1\n      0x4456eda2\n      gt\n      tag_40\n      jumpi\n      dup1\n      0x4456eda2\n      eq\n      tag_15\n      jumpi\n      dup1\n      0x4d1e4f42\n      eq\n      tag_16\n      jumpi\n      dup1\n      0x51eb05a6\n      eq\n      tag_17\n      jumpi\n      dup1\n      0x5312ea8e\n      eq\n      tag_18\n      jumpi\n      jump(tag_2)\n    tag_40:\n      dup1\n      0x3736421b\n      eq\n      tag_11\n      jumpi\n      dup1\n      0x392e53cd\n      eq\n      tag_12\n      jumpi\n      dup1\n      0x3f7caf52\n      eq\n      tag_13\n      jumpi\n      dup1\n      0x441a3e70\n      eq\n      tag_14\n      jumpi\n      jump(tag_2)\n    tag_39:\n      dup1\n      0x1ab06ee5\n      gt\n      tag_41\n      jumpi\n      dup1\n      0x1ab06ee5\n      eq\n      tag_7\n      jumpi\n      dup1\n      0x1bccb99b\n      eq\n      tag_8\n      jumpi\n      dup1\n      0x231f0c6a\n      eq\n      tag_9\n      jumpi\n      dup1\n      0x29605e77\n      eq\n      tag_10\n      jumpi\n      jump(tag_2)\n    tag_41:\n      dup1\n      0x09cf6091\n      eq\n      tag_3\n      jumpi\n      dup1\n      0x1526fe27\n      eq\n      tag_4\n      jumpi\n      dup1\n      0x158ef93e\n      eq\n      tag_5\n      jumpi\n      dup1\n      0x17caf6f1\n      eq\n      tag_6\n      jumpi\n    tag_2:\n      0x00\n      dup1\n      revert\n        /* \"contracts/distribution/TombGenesisRewardPool.sol\":2022:2073  uint256 public constant TOTAL_REWARDS = 25000 ether */\n    tag_3:\n      tag_42\n      tag_43\n      jump\t// in\n    tag_42:\n      mload(0x40)\n      dup1\n      dup3\n      dup2\n      mstore\n      0x20\n      add\n      swap2\n      pop\n      pop\n      mload(0x40)\n      dup1\n      swap2\n      sub\n      swap1\n      return\n        /* \"contracts/distribution/TombGenesisRewardPool.sol\":1371:1397  PoolInfo[] public poolInfo */\n    tag_4:\n      tag_44\n      0x04\n      dup1\n      calldatasize\n      sub\n      0x20\n      dup2\n      lt\n      iszero\n      tag_45\n      jumpi\n      0x00\n      dup1\n      revert\n    tag_45:\n      dup2\n      add\n      swap1\n      dup1\n      dup1\n      calldataload\n      swap1\n      0x20\n      add\n      swap1\n      swap3\n      swap2\n      swap1\n      pop\n      pop\n      pop\n      tag_46\n      jump\t// in\n    tag_44:\n      mload(0x40)\n      dup1\n      dup7\n      0xffffffffffffffffffffffffffffffffffffffff\n      and\n      dup2\n      mstore\n      0x20\n      add\n      dup6\n      dup2\n      mstore\n      0x20\n      add\n      dup5\n      dup2\n      mstore\n      0x20\n      add\n      dup4\n      dup2\n      mstore\n      0x20\n      add\n      dup3\n      iszero\n      iszero\n      dup2\n      mstore\n      0x20\n      add\n      swap6\n      pop\n      pop\n      pop\n      pop\n      pop\n      pop\n      mload(0x40)\n      dup1\n      swap2\n      sub\n      swap1\n      return\n        /* \"contracts/distribution/TombGenesisRewardPool.sol\":1420:1451  bool public initialized = false */\n    tag_5:\n      tag_47\n      tag_48\n      jump\t// in\n    tag_47:\n      mload(0x40)\n      dup1\n      dup3\n      iszero\n      iszero\n      dup2\n      mstore\n      0x20\n      add\n      swap2\n      pop\n      pop\n      mload(0x40)\n      dup1\n      swap2\n      sub\n      swap1\n      return\n        /* \"contracts/distribution/TombGenesisRewardPool.sol\":1670:1704  uint256 public totalAllocPoint = 0 */\n    tag_6:\n      tag_49\n      tag_50\n      jump\t// in\n    tag_49:\n      mload(0x40)\n      dup1\n      dup3\n      dup2\n      mstore\n      0x20\n      add\n      swap2\n      pop\n      pop\n      mload(0x40)\n      dup1\n      swap2\n      sub\n      swap1\n      return\n        /* \"contracts/distribution/TombGenesisRewardPool.sol\":4871:5224  function set(uint256 _pid, uint256 _allocPoint) public onlyOperator {\r... */\n    tag_7:\n      tag_51\n      0x04\n      dup1\n      calldatasize\n      sub\n      0x40\n      dup2\n      lt\n      iszero\n      tag_52\n      jumpi\n      0x00\n      dup1\n      revert\n    tag_52:\n      dup2\n      add\n      swap1\n      dup1\n      dup1\n      calldataload\n      swap1\n      0x20\n      add\n      swap1\n      swap3\n      swap2\n      swap1\n      dup1\n      calldataload\n      swap1\n      0x20\n      add\n      swap1\n      swap3\n      swap2\n      swap1\n      pop\n      pop\n      pop\n      tag_53\n      jump\t// in\n    tag_51:\n      stop\n        /* \"contracts/distribution/TombGenesisRewardPool.sol\":1310:1335  address public _feeColect */\n    tag_8:\n      tag_54\n      tag_55\n      jump\t// in\n    tag_54:\n      mload(0x40)\n      dup1\n      dup3\n      0xffffffffffffffffffffffffffffffffffffffff\n      and\n      dup2\n      mstore\n      0x20\n      add\n      swap2\n      pop\n      pop\n      mload(0x40)\n      dup1\n      swap2\n      sub\n      swap1\n      return\n        /* \"contracts/distribution/TombGenesisRewardPool.sol\":5301:5954  function getGeneratedReward(uint256 _fromTime, uint256 _toTime) public view returns (uint256) {\r... */\n    tag_9:\n      tag_56\n      0x04\n      dup1\n      calldatasize\n      sub\n      0x40\n      dup2\n      lt\n      iszero\n      tag_57\n      jumpi\n      0x00\n      dup1\n      revert\n    tag_57:\n      dup2\n      add\n      swap1\n      dup1\n      dup1\n      calldataload\n      swap1\n      0x20\n      add\n      swap1\n      swap3\n      swap2\n      swap1\n      dup1\n      calldataload\n      swap1\n      0x20\n      add\n      swap1\n      swap3\n      swap2\n      swap1\n      pop\n      pop\n      pop\n      tag_58\n      jump\t// in\n    tag_56:\n      mload(0x40)\n      dup1\n      dup3\n      dup2\n      mstore\n      0x20\n      add\n      swap2\n      pop\n      pop\n      mload(0x40)\n      dup1\n      swap2\n      sub\n      swap1\n      return\n        /* \"contracts/owner/Operator.sol\":894:1009  function transferOperator(address newOperator_) public onlyOwner {\r... */\n    tag_10:\n      tag_59\n      0x04\n      dup1\n      calldatasize\n      sub\n      0x20\n      dup2\n      lt\n      iszero\n      tag_60\n      jumpi\n      0x00\n      dup1\n      revert\n    tag_60:\n      dup2\n      add\n      swap1\n      dup1\n      dup1\n      calldataload\n      0xffffffffffffffffffffffffffffffffffffffff\n      and\n      swap1\n      0x20\n      add\n      swap1\n      swap3\n      swap2\n      swap1\n      pop\n      pop\n      pop\n      tag_61\n      jump\t// in\n    tag_59:\n      stop\n        /* \"contracts/distribution/TombGenesisRewardPool.sol\":1239:1258  address public Pair */\n    tag_11:\n      tag_62\n      tag_63\n      jump\t// in\n    tag_62:\n      mload(0x40)\n      dup1\n      dup3\n      0xffffffffffffffffffffffffffffffffffffffff\n      and\n      dup2\n      mstore\n      0x20\n      add\n      swap2\n      pop\n      pop\n      mload(0x40)\n      dup1\n      swap2\n      sub\n      swap1\n      return\n        /* \"contracts/distribution/TombGenesisRewardPool.sol\":2581:2670  function isInitialized() public view returns (bool) {\r... */\n    tag_12:\n      tag_64\n      tag_65\n      jump\t// in\n    tag_64:\n      mload(0x40)\n      dup1\n      dup3\n      iszero\n      iszero\n      dup2\n      mstore\n      0x20\n      add\n      swap2\n      pop\n      pop\n      mload(0x40)\n      dup1\n      swap2\n      sub\n      swap1\n      return\n        /* \"contracts/distribution/TombGenesisRewardPool.sol\":1883:1927  uint256 public PolyPerSecond = 0.09645 ether */\n    tag_13:\n      tag_66\n      tag_67\n      jump\t// in\n    tag_66:\n      mload(0x40)\n      dup1\n      dup3\n      dup2\n      mstore\n      0x20\n      add\n      swap2\n      pop\n      pop\n      mload(0x40)\n      dup1\n      swap2\n      sub\n      swap1\n      return\n        /* \"contracts/distribution/TombGenesisRewardPool.sol\":9454:10264  function withdraw(uint256 _pid, uint256 _amount) public {\r... */\n    tag_14:\n      tag_68\n      0x04\n      dup1\n      calldatasize\n      sub\n      0x40\n      dup2\n      lt\n      iszero\n      tag_69\n      jumpi\n      0x00\n      dup1\n      revert\n    tag_69:\n      dup2\n      add\n      swap1\n      dup1\n      dup1\n      calldataload\n      swap1\n      0x20\n      add\n      swap1\n      swap3\n      swap2\n      swap1\n      dup1\n      calldataload\n      swap1\n      0x20\n      add\n      swap1\n      swap3\n      swap2\n      swap1\n      pop\n      pop\n      pop\n      tag_70\n      jump\t// in\n    tag_68:\n      stop\n        /* \"contracts/owner/Operator.sol\":786:886  function isOperator() public view returns (bool) {\r... */\n    tag_15:\n      tag_71\n      tag_72\n      jump\t// in\n    tag_71:\n      mload(0x40)\n      dup1\n      dup3\n      iszero\n      iszero\n      dup2\n      mstore\n      0x20\n      add\n      swap2\n      pop\n      pop\n      mload(0x40)\n      dup1\n      swap2\n      sub\n      swap1\n      return\n        /* \"contracts/distribution/TombGenesisRewardPool.sol\":6017:6788  function pendingPoly(uint256 _pid, address _user) external view returns (uint256) {\r... */\n    tag_16:\n      tag_73\n      0x04\n      dup1\n      calldatasize\n      sub\n      0x40\n      dup2\n      lt\n      iszero\n      tag_74\n      jumpi\n      0x00\n      dup1\n      revert\n    tag_74:\n      dup2\n      add\n      swap1\n      dup1\n      dup1\n      calldataload\n      swap1\n      0x20\n      add\n      swap1\n      swap3\n      swap2\n      swap1\n      dup1\n      calldataload\n      0xffffffffffffffffffffffffffffffffffffffff\n      and\n      swap1\n      0x20\n      add\n      swap1\n      swap3\n      swap2\n      swap1\n      pop\n      pop\n      pop\n      tag_75\n      jump\t// in\n    tag_73:\n      mload(0x40)\n      dup1\n      dup3\n      dup2\n      mstore\n      0x20\n      add\n      swap2\n      pop\n      pop\n      mload(0x40)\n      dup1\n      swap2\n      sub\n      swap1\n      return\n        /* \"contracts/distribution/TombGenesisRewardPool.sol\":7127:8035  function updatePool(uint256 _pid) public {\r... */\n    tag_17:\n      tag_76\n      0x04\n      dup1\n      calldatasize\n      sub\n      0x20\n      dup2\n      lt\n      iszero\n      tag_77\n      jumpi\n      0x00\n      dup1\n      revert\n    tag_77:\n      dup2\n      add\n      swap1\n      dup1\n      dup1\n      calldataload\n      swap1\n      0x20\n      add\n      swap1\n      swap3\n      swap2\n      swap1\n      pop\n      pop\n      pop\n      tag_78\n      jump\t// in\n    tag_76:\n      stop\n        /* \"contracts/distribution/TombGenesisRewardPool.sol\":10335:10712  function emergencyWithdraw(uint256 _pid) public {\r... */\n    tag_18:\n      tag_79\n      0x04\n      dup1\n      calldatasize\n      sub\n      0x20\n      dup2\n      lt\n      iszero\n      tag_80\n      jumpi\n      0x00\n      dup1\n      revert\n    tag_80:\n      dup2\n      add\n      swap1\n      dup1\n      dup1\n      calldataload\n      swap1\n      0x20\n      add\n      swap1\n      swap3\n      swap2\n      swap1\n      pop\n      pop\n      pop\n      tag_81\n      jump\t// in\n    tag_79:\n      stop\n        /* \"contracts/distribution/TombGenesisRewardPool.sol\":11321:11925  function governanceRecoverUnsupported(IERC20 _token, uint256 amount, address to) external onlyOperator {\r... */\n    tag_19:\n      tag_82\n      0x04\n      dup1\n      calldatasize\n      sub\n      0x60\n      dup2\n      lt\n      iszero\n      tag_83\n      jumpi\n      0x00\n      dup1\n      revert\n    tag_83:\n      dup2\n      add\n      swap1\n      dup1\n      dup1\n      calldataload\n      0xffffffffffffffffffffffffffffffffffffffff\n      and\n      swap1\n      0x20\n      add\n      swap1\n      swap3\n      swap2\n      swap1\n      dup1\n      calldataload\n      swap1\n      0x20\n      add\n      swap1\n      swap3\n      swap2\n      swap1\n      dup1\n      calldataload\n      0xffffffffffffffffffffffffffffffffffffffff\n      and\n      swap1\n      0x20\n      add\n      swap1\n      swap3\n      swap2\n      swap1\n      pop\n      pop\n      pop\n      tag_84\n      jump\t// in\n    tag_82:\n      stop\n        /* \"contracts/owner/Operator.sol\":521:606  function operator() public view returns (address) {\r... */\n    tag_20:\n      tag_85\n      tag_86\n      jump\t// in\n    tag_85:\n      mload(0x40)\n      dup1\n      dup3\n      0xffffffffffffffffffffffffffffffffffffffff\n      and\n      dup2\n      mstore\n      0x20\n      add\n      swap2\n      pop\n      pop\n      mload(0x40)\n      dup1\n      swap2\n      sub\n      swap1\n      return\n        /* \"contracts/distribution/TombGenesisRewardPool.sol\":1755:1783  uint256 public poolStartTime */\n    tag_21:\n      tag_87\n      tag_88\n      jump\t// in\n    tag_87:\n      mload(0x40)\n      dup1\n      dup3\n      dup2\n      mstore\n      0x20\n      add\n      swap2\n      pop\n      pop\n      mload(0x40)\n      dup1\n      swap2\n      sub\n      swap1\n      return\n        /* \"contracts/distribution/TombGenesisRewardPool.sol\":6871:7051  function massUpdatePools() public {\r... */\n    tag_22:\n      tag_89\n      tag_90\n      jump\t// in\n    tag_89:\n      stop\n        /* \"contracts/distribution/TombGenesisRewardPool.sol\":1832:1858  uint256 public poolEndTime */\n    tag_23:\n      tag_91\n      tag_92\n      jump\t// in\n    tag_91:\n      mload(0x40)\n      dup1\n      dup3\n      dup2\n      mstore\n      0x20\n      add\n      swap2\n      pop\n      pop\n      mload(0x40)\n      dup1\n      swap2\n      sub\n      swap1\n      return\n        /* \"@openzeppelin/contracts/access/Ownable.sol\":1771:1916  function renounceOwnership() public virtual onlyOwner {... */\n    tag_24:\n      tag_93\n      tag_94\n      jump\t// in\n    tag_93:\n      stop\n        /* \"@openzeppelin/contracts/access/Ownable.sol\":1139:1224  function owner() public view virtual returns (address) {... */\n    tag_25:\n      tag_95\n      tag_96\n      jump\t// in\n    tag_95:\n      mload(0x40)\n      dup1\n      dup3\n      0xffffffffffffffffffffffffffffffffffffffff\n      and\n      dup2\n      mstore\n      0x20\n      add\n      swap2\n      pop\n      pop\n      mload(0x40)\n      dup1\n      swap2\n      sub\n      swap1\n      return\n        /* \"contracts/distribution/TombGenesisRewardPool.sol\":1509:1573  mapping(uint256 => mapping(address => UserInfo)) public userInfo */\n    tag_26:\n      tag_97\n      0x04\n      dup1\n      calldatasize\n      sub\n      0x40\n      dup2\n      lt\n      iszero\n      tag_98\n      jumpi\n      0x00\n      dup1\n      revert\n    tag_98:\n      dup2\n      add\n      swap1\n      dup1\n      dup1\n      calldataload\n      swap1\n      0x20\n      add\n      swap1\n      swap3\n      swap2\n      swap1\n      dup1\n      calldataload\n      0xffffffffffffffffffffffffffffffffffffffff\n      and\n      swap1\n      0x20\n      add\n      swap1\n      swap3\n      swap2\n      swap1\n      pop\n      pop\n      pop\n      tag_99\n      jump\t// in\n    tag_97:\n      mload(0x40)\n      dup1\n      dup4\n      dup2\n      mstore\n      0x20\n      add\n      dup3\n      dup2\n      mstore\n      0x20\n      add\n      swap3\n      pop\n      pop\n      pop\n      mload(0x40)\n      dup1\n      swap2\n      sub\n      swap1\n      return\n        /* \"contracts/distribution/TombGenesisRewardPool.sol\":1970:2005  uint256 public runningTime = 3 days */\n    tag_27:\n      tag_100\n      tag_101\n      jump\t// in\n    tag_100:\n      mload(0x40)\n      dup1\n      dup3\n      dup2\n      mstore\n      0x20\n      add\n      swap2\n      pop\n      pop\n      mload(0x40)\n      dup1\n      swap2\n      sub\n      swap1\n      return\n        /* \"contracts/distribution/TombGenesisRewardPool.sol\":3499:4775  function add(\r... */\n    tag_28:\n      tag_102\n      0x04\n      dup1\n      calldatasize\n      sub\n      0x80\n      dup2\n      lt\n      iszero\n      tag_103\n      jumpi\n      0x00\n      dup1\n      revert\n    tag_103:\n      dup2\n      add\n      swap1\n      dup1\n      dup1\n      calldataload\n      swap1\n      0x20\n      add\n      swap1\n      swap3\n      swap2\n      swap1\n      dup1\n      calldataload\n      0xffffffffffffffffffffffffffffffffffffffff\n      and\n      swap1\n      0x20\n      add\n      swap1\n      swap3\n      swap2\n      swap1\n      dup1\n      calldataload\n      iszero\n      iszero\n      swap1\n      0x20\n      add\n      swap1\n      swap3\n      swap2\n      swap1\n      dup1\n      calldataload\n      swap1\n      0x20\n      add\n      swap1\n      swap3\n      swap2\n      swap1\n      pop\n      pop\n      pop\n      tag_104\n      jump\t// in\n    tag_102:\n      stop\n        /* \"contracts/distribution/TombGenesisRewardPool.sol\":11199:11313  function setOperator(address _Newoperator) external onlyOperator {\r... */\n    tag_29:\n      tag_105\n      0x04\n      dup1\n      calldatasize\n      sub\n      0x20\n      dup2\n      lt\n      iszero\n      tag_106\n      jumpi\n      0x00\n      dup1\n      revert\n    tag_106:\n      dup2\n      add\n      swap1\n      dup1\n      dup1\n      calldataload\n      0xffffffffffffffffffffffffffffffffffffffff\n      and\n      swap1\n      0x20\n      add\n      swap1\n      swap3\n      swap2\n      swap1\n      pop\n      pop\n      pop\n      tag_107\n      jump\t// in\n    tag_105:\n      stop\n        /* \"contracts/distribution/TombGenesisRewardPool.sol\":1279:1303  uint256 public Fee = 200 */\n    tag_30:\n      tag_108\n      tag_109\n      jump\t// in\n    tag_108:\n      mload(0x40)\n      dup1\n      dup3\n      dup2\n      mstore\n      0x20\n      add\n      swap2\n      pop\n      pop\n      mload(0x40)\n      dup1\n      swap2\n      sub\n      swap1\n      return\n        /* \"contracts/distribution/TombGenesisRewardPool.sol\":2678:3150  function initialize (\r... */\n    tag_31:\n      tag_110\n      0x04\n      dup1\n      calldatasize\n      sub\n      0x60\n      dup2\n      lt\n      iszero\n      tag_111\n      jumpi\n      0x00\n      dup1\n      revert\n    tag_111:\n      dup2\n      add\n      swap1\n      dup1\n      dup1\n      calldataload\n      0xffffffffffffffffffffffffffffffffffffffff\n      and\n      swap1\n      0x20\n      add\n      swap1\n      swap3\n      swap2\n      swap1\n      dup1\n      calldataload\n      swap1\n      0x20\n      add\n      swap1\n      swap3\n      swap2\n      swap1\n      dup1\n      calldataload\n      0xffffffffffffffffffffffffffffffffffffffff\n      and\n      swap1\n      0x20\n      add\n      swap1\n      swap3\n      swap2\n      swap1\n      pop\n      pop\n      pop\n      tag_112\n      jump\t// in\n    tag_110:\n      stop\n        /* \"contracts/distribution/TombGenesisRewardPool.sol\":1214:1232  IERC20 public Poly */\n    tag_32:\n      tag_113\n      tag_114\n      jump\t// in\n    tag_113:\n      mload(0x40)\n      dup1\n      dup3\n      0xffffffffffffffffffffffffffffffffffffffff\n      and\n      dup2\n      mstore\n      0x20\n      add\n      swap2\n      pop\n      pop\n      mload(0x40)\n      dup1\n      swap2\n      sub\n      swap1\n      return\n        /* \"contracts/distribution/TombGenesisRewardPool.sol\":8277:9418  function deposit(uint256 _pid, uint256 _amount) public {\r... */\n    tag_33:\n      tag_115\n      0x04\n      dup1\n      calldatasize\n      sub\n      0x40\n      dup2\n      lt\n      iszero\n      tag_116\n      jumpi\n      0x00\n      dup1\n      revert\n    tag_116:\n      dup2\n      add\n      swap1\n      dup1\n      dup1\n      calldataload\n      swap1\n      0x20\n      add\n      swap1\n      swap3\n      swap2\n      swap1\n      dup1\n      calldataload\n      swap1\n      0x20\n      add\n      swap1\n      swap3\n      swap2\n      swap1\n      pop\n      pop\n      pop\n      tag_117\n      jump\t// in\n    tag_115:\n      stop\n        /* \"@openzeppelin/contracts/access/Ownable.sol\":2065:2305  function transferOwnership(address newOwner) public virtual onlyOwner {... */\n    tag_34:\n      tag_118\n      0x04\n      dup1\n      calldatasize\n      sub\n      0x20\n      dup2\n      lt\n      iszero\n      tag_119\n      jumpi\n      0x00\n      dup1\n      revert\n    tag_119:\n      dup2\n      add\n      swap1\n      dup1\n      dup1\n      calldataload\n      0xffffffffffffffffffffffffffffffffffffffff\n      and\n      swap1\n      0x20\n      add\n      swap1\n      swap3\n      swap2\n      swap1\n      pop\n      pop\n      pop\n      tag_120\n      jump\t// in\n    tag_118:\n      stop\n        /* \"contracts/distribution/TombGenesisRewardPool.sol\":2022:2073  uint256 public constant TOTAL_REWARDS = 25000 ether */\n    tag_43:\n        /* \"contracts/distribution/TombGenesisRewardPool.sol\":2062:2073  25000 ether */\n      0x054b40b1f852bda00000\n        /* \"contracts/distribution/TombGenesisRewardPool.sol\":2022:2073  uint256 public constant TOTAL_REWARDS = 25000 ether */\n      dup2\n      jump\t// out\n        /* \"contracts/distribution/TombGenesisRewardPool.sol\":1371:1397  PoolInfo[] public poolInfo */\n    tag_46:\n      0x06\n      dup2\n      dup2\n      sload\n      dup2\n      lt\n      tag_121\n      jumpi\n      invalid\n    tag_121:\n      swap1\n      0x00\n      mstore\n      keccak256(0x00, 0x20)\n      swap1\n      0x05\n      mul\n      add\n      0x00\n      swap2\n      pop\n      swap1\n      pop\n      dup1\n      0x00\n      add\n      0x00\n      swap1\n      sload\n      swap1\n      0x0100\n      exp\n      swap1\n      div\n      0xffffffffffffffffffffffffffffffffffffffff\n      and\n      swap1\n      dup1\n      0x01\n      add\n      sload\n      swap1\n      dup1\n      0x02\n      add\n      sload\n      swap1\n      dup1\n      0x03\n      add\n      sload\n      swap1\n      dup1\n      0x04\n      add\n      0x00\n      swap1\n      sload\n      swap1\n      0x0100\n      exp\n      swap1\n      div\n      0xff\n      and\n      swap1\n      pop\n      dup6\n      jump\t// out\n        /* \"contracts/distribution/TombGenesisRewardPool.sol\":1420:1451  bool public initialized = false */\n    tag_48:\n      0x07\n      0x00\n      swap1\n      sload\n      swap1\n      0x0100\n      exp\n      swap1\n      div\n      0xff\n      and\n      dup2\n      jump\t// out\n        /* \"contracts/distribution/TombGenesisRewardPool.sol\":1670:1704  uint256 public totalAllocPoint = 0 */\n    tag_50:\n      sload(0x09)\n      dup2\n      jump\t// out\n        /* \"contracts/distribution/TombGenesisRewardPool.sol\":4871:5224  function set(uint256 _pid, uint256 _allocPoint) public onlyOperator {\r... */\n    tag_53:\n        /* \"contracts/owner/Operator.sol\":684:694  msg.sender */\n      caller\n        /* \"contracts/owner/Operator.sol\":671:694  _operator == msg.sender */\n      0xffffffffffffffffffffffffffffffffffffffff\n      and\n        /* \"contracts/owner/Operator.sol\":671:680  _operator */\n      0x01\n      0x00\n      swap1\n      sload\n      swap1\n      0x0100\n      exp\n      swap1\n      div\n      0xffffffffffffffffffffffffffffffffffffffff\n      and\n        /* \"contracts/owner/Operator.sol\":671:694  _operator == msg.sender */\n      0xffffffffffffffffffffffffffffffffffffffff\n      and\n      eq\n        /* \"contracts/owner/Operator.sol\":649:758  require(\r... */\n      tag_124\n      jumpi\n      mload(0x40)\n      0x08c379a000000000000000000000000000000000000000000000000000000000\n      dup2\n      mstore\n      0x04\n      add\n      dup1\n      dup1\n      0x20\n      add\n      dup3\n      dup2\n      sub\n      dup3\n      mstore\n      0x24\n      dup2\n      mstore\n      0x20\n      add\n      dup1\n      data_a62bfdba5053072911b63b0f6325b0e83fcd28b5a847d97efdd966feb4daaafb\n      0x24\n      swap2\n      codecopy\n      0x40\n      add\n      swap2\n      pop\n      pop\n      mload(0x40)\n      dup1\n      swap2\n      sub\n      swap1\n      revert\n    tag_124:\n        /* \"contracts/distribution/TombGenesisRewardPool.sol\":4950:4967  massUpdatePools() */\n      tag_126\n        /* \"contracts/distribution/TombGenesisRewardPool.sol\":4950:4965  massUpdatePools */\n      tag_90\n        /* \"contracts/distribution/TombGenesisRewardPool.sol\":4950:4967  massUpdatePools() */\n      jump\t// in\n    tag_126:\n        /* \"contracts/distribution/TombGenesisRewardPool.sol\":4978:4999  PoolInfo storage pool */\n      0x00\n        /* \"contracts/distribution/TombGenesisRewardPool.sol\":5002:5010  poolInfo */\n      0x06\n        /* \"contracts/distribution/TombGenesisRewardPool.sol\":5011:5015  _pid */\n      dup4\n        /* \"contracts/distribution/TombGenesisRewardPool.sol\":5002:5016  poolInfo[_pid] */\n      dup2\n      sload\n      dup2\n      lt\n      tag_127\n      jumpi\n      invalid\n    tag_127:\n      swap1\n      0x00\n      mstore\n      keccak256(0x00, 0x20)\n      swap1\n      0x05\n      mul\n      add\n        /* \"contracts/distribution/TombGenesisRewardPool.sol\":4978:5016  PoolInfo storage pool = poolInfo[_pid] */\n      swap1\n      pop\n        /* \"contracts/distribution/TombGenesisRewardPool.sol\":5031:5035  pool */\n      dup1\n        /* \"contracts/distribution/TombGenesisRewardPool.sol\":5031:5045  pool.isStarted */\n      0x04\n      add\n      0x00\n      swap1\n      sload\n      swap1\n      0x0100\n      exp\n      swap1\n      div\n      0xff\n      and\n        /* \"contracts/distribution/TombGenesisRewardPool.sol\":5027:5177  if (pool.isStarted) {\r... */\n      iszero\n      tag_129\n      jumpi\n        /* \"contracts/distribution/TombGenesisRewardPool.sol\":5080:5165  totalAllocPoint.sub(pool.allocPoint).add(\r... */\n      tag_130\n        /* \"contracts/distribution/TombGenesisRewardPool.sol\":5139:5150  _allocPoint */\n      dup3\n        /* \"contracts/distribution/TombGenesisRewardPool.sol\":5080:5116  totalAllocPoint.sub(pool.allocPoint) */\n      tag_131\n        /* \"contracts/distribution/TombGenesisRewardPool.sol\":5100:5104  pool */\n      dup4\n        /* \"contracts/distribution/TombGenesisRewardPool.sol\":5100:5115  pool.allocPoint */\n      0x01\n      add\n      sload\n        /* \"contracts/distribution/TombGenesisRewardPool.sol\":5080:5095  totalAllocPoint */\n      sload(0x09)\n        /* \"contracts/distribution/TombGenesisRewardPool.sol\":5080:5099  totalAllocPoint.sub */\n      tag_132\n      swap1\n        /* \"contracts/distribution/TombGenesisRewardPool.sol\":5080:5116  totalAllocPoint.sub(pool.allocPoint) */\n      swap2\n      swap1\n      0xffffffff\n      and\n      jump\t// in\n    tag_131:\n        /* \"contracts/distribution/TombGenesisRewardPool.sol\":5080:5120  totalAllocPoint.sub(pool.allocPoint).add */\n      tag_133\n      swap1\n        /* \"contracts/distribution/TombGenesisRewardPool.sol\":5080:5165  totalAllocPoint.sub(pool.allocPoint).add(\r... */\n      swap2\n      swap1\n      0xffffffff\n      and\n      jump\t// in\n    tag_130:\n        /* \"contracts/distribution/TombGenesisRewardPool.sol\":5062:5077  totalAllocPoint */\n      0x09\n        /* \"contracts/distribution/TombGenesisRewardPool.sol\":5062:5165  totalAllocPoint = totalAllocPoint.sub(pool.allocPoint).add(\r... */\n      dup2\n      swap1\n      sstore\n      pop\n        /* \"contracts/distribution/TombGenesisRewardPool.sol\":5027:5177  if (pool.isStarted) {\r... */\n    tag_129:\n        /* \"contracts/distribution/TombGenesisRewardPool.sol\":5205:5216  _allocPoint */\n      dup2\n        /* \"contracts/distribution/TombGenesisRewardPool.sol\":5187:5191  pool */\n      dup2\n        /* \"contracts/distribution/TombGenesisRewardPool.sol\":5187:5202  pool.allocPoint */\n      0x01\n      add\n        /* \"contracts/distribution/TombGenesisRewardPool.sol\":5187:5216  pool.allocPoint = _allocPoint */\n      dup2\n      swap1\n      sstore\n      pop\n        /* \"contracts/owner/Operator.sol\":769:770  _ */\n      pop\n        /* \"contracts/distribution/TombGenesisRewardPool.sol\":4871:5224  function set(uint256 _pid, uint256 _allocPoint) public onlyOperator {\r... */\n      pop\n      pop\n      jump\t// out\n        /* \"contracts/distribution/TombGenesisRewardPool.sol\":1310:1335  address public _feeColect */\n    tag_55:\n      0x05\n      0x00\n      swap1\n      sload\n      swap1\n      0x0100\n      exp\n      swap1\n      div\n      0xffffffffffffffffffffffffffffffffffffffff\n      and\n      dup2\n      jump\t// out\n        /* \"contracts/distribution/TombGenesisRewardPool.sol\":5301:5954  function getGeneratedReward(uint256 _fromTime, uint256 _toTime) public view returns (uint256) {\r... */\n    tag_58:\n        /* \"contracts/distribution/TombGenesisRewardPool.sol\":5386:5393  uint256 */\n      0x00\n        /* \"contracts/distribution/TombGenesisRewardPool.sol\":5423:5430  _toTime */\n      dup2\n        /* \"contracts/distribution/TombGenesisRewardPool.sol\":5410:5419  _fromTime */\n      dup4\n        /* \"contracts/distribution/TombGenesisRewardPool.sol\":5410:5430  _fromTime >= _toTime */\n      lt\n        /* \"contracts/distribution/TombGenesisRewardPool.sol\":5406:5440  if (_fromTime >= _toTime) return 0 */\n      tag_135\n      jumpi\n        /* \"contracts/distribution/TombGenesisRewardPool.sol\":5439:5440  0 */\n      0x00\n        /* \"contracts/distribution/TombGenesisRewardPool.sol\":5432:5440  return 0 */\n      swap1\n      pop\n      jump(tag_134)\n        /* \"contracts/distribution/TombGenesisRewardPool.sol\":5406:5440  if (_fromTime >= _toTime) return 0 */\n    tag_135:\n        /* \"contracts/distribution/TombGenesisRewardPool.sol\":5466:5477  poolEndTime */\n      sload(0x0b)\n        /* \"contracts/distribution/TombGenesisRewardPool.sol\":5455:5462  _toTime */\n      dup3\n        /* \"contracts/distribution/TombGenesisRewardPool.sol\":5455:5477  _toTime >= poolEndTime */\n      lt\n        /* \"contracts/distribution/TombGenesisRewardPool.sol\":5451:5947  if (_toTime >= poolEndTime) {\r... */\n      tag_136\n      jumpi\n        /* \"contracts/distribution/TombGenesisRewardPool.sol\":5511:5522  poolEndTime */\n      sload(0x0b)\n        /* \"contracts/distribution/TombGenesisRewardPool.sol\":5498:5507  _fromTime */\n      dup4\n        /* \"contracts/distribution/TombGenesisRewardPool.sol\":5498:5522  _fromTime >= poolEndTime */\n      lt\n        /* \"contracts/distribution/TombGenesisRewardPool.sol\":5494:5532  if (_fromTime >= poolEndTime) return 0 */\n      tag_137\n      jumpi\n        /* \"contracts/distribution/TombGenesisRewardPool.sol\":5531:5532  0 */\n      0x00\n        /* \"contracts/distribution/TombGenesisRewardPool.sol\":5524:5532  return 0 */\n      swap1\n      pop\n      jump(tag_134)\n        /* \"contracts/distribution/TombGenesisRewardPool.sol\":5494:5532  if (_fromTime >= poolEndTime) return 0 */\n    tag_137:\n        /* \"contracts/distribution/TombGenesisRewardPool.sol\":5564:5577  poolStartTime */\n      sload(0x0a)\n        /* \"contracts/distribution/TombGenesisRewardPool.sol\":5551:5560  _fromTime */\n      dup4\n        /* \"contracts/distribution/TombGenesisRewardPool.sol\":5551:5577  _fromTime <= poolStartTime */\n      gt\n        /* \"contracts/distribution/TombGenesisRewardPool.sol\":5547:5635  if (_fromTime <= poolStartTime) return poolEndTime.sub(poolStartTime).mul(PolyPerSecond) */\n      tag_138\n      jumpi\n        /* \"contracts/distribution/TombGenesisRewardPool.sol\":5586:5635  poolEndTime.sub(poolStartTime).mul(PolyPerSecond) */\n      tag_139\n        /* \"contracts/distribution/TombGenesisRewardPool.sol\":5621:5634  PolyPerSecond */\n      sload(0x0c)\n        /* \"contracts/distribution/TombGenesisRewardPool.sol\":5586:5616  poolEndTime.sub(poolStartTime) */\n      tag_140\n        /* \"contracts/distribution/TombGenesisRewardPool.sol\":5602:5615  poolStartTime */\n      sload(0x0a)\n        /* \"contracts/distribution/TombGenesisRewardPool.sol\":5586:5597  poolEndTime */\n      sload(0x0b)\n        /* \"contracts/distribution/TombGenesisRewardPool.sol\":5586:5601  poolEndTime.sub */\n      tag_132\n      swap1\n        /* \"contracts/distribution/TombGenesisRewardPool.sol\":5586:5616  poolEndTime.sub(poolStartTime) */\n      swap2\n      swap1\n      0xffffffff\n      and\n      jump\t// in\n    tag_140:\n        /* \"contracts/distribution/TombGenesisRewardPool.sol\":5586:5620  poolEndTime.sub(poolStartTime).mul */\n      tag_141\n      swap1\n        /* \"contracts/distribution/TombGenesisRewardPool.sol\":5586:5635  poolEndTime.sub(poolStartTime).mul(PolyPerSecond) */\n      swap2\n      swap1\n      0xffffffff\n      and\n      jump\t// in\n    tag_139:\n        /* \"contracts/distribution/TombGenesisRewardPool.sol\":5579:5635  return poolEndTime.sub(poolStartTime).mul(PolyPerSecond) */\n      swap1\n      pop\n      jump(tag_134)\n        /* \"contracts/distribution/TombGenesisRewardPool.sol\":5547:5635  if (_fromTime <= poolStartTime) return poolEndTime.sub(poolStartTime).mul(PolyPerSecond) */\n    tag_138:\n        /* \"contracts/distribution/TombGenesisRewardPool.sol\":5657:5702  poolEndTime.sub(_fromTime).mul(PolyPerSecond) */\n      tag_142\n        /* \"contracts/distribution/TombGenesisRewardPool.sol\":5688:5701  PolyPerSecond */\n      sload(0x0c)\n        /* \"contracts/distribution/TombGenesisRewardPool.sol\":5657:5683  poolEndTime.sub(_fromTime) */\n      tag_143\n        /* \"contracts/distribution/TombGenesisRewardPool.sol\":5673:5682  _fromTime */\n      dup6\n        /* \"contracts/distribution/TombGenesisRewardPool.sol\":5657:5668  poolEndTime */\n      sload(0x0b)\n        /* \"contracts/distribution/TombGenesisRewardPool.sol\":5657:5672  poolEndTime.sub */\n      tag_132\n      swap1\n        /* \"contracts/distribution/TombGenesisRewardPool.sol\":5657:5683  poolEndTime.sub(_fromTime) */\n      swap2\n      swap1\n      0xffffffff\n      and\n      jump\t// in\n    tag_143:\n        /* \"contracts/distribution/TombGenesisRewardPool.sol\":5657:5687  poolEndTime.sub(_fromTime).mul */\n      tag_141\n      swap1\n        /* \"contracts/distribution/TombGenesisRewardPool.sol\":5657:5702  poolEndTime.sub(_fromTime).mul(PolyPerSecond) */\n      swap2\n      swap1\n      0xffffffff\n      and\n      jump\t// in\n    tag_142:\n        /* \"contracts/distribution/TombGenesisRewardPool.sol\":5650:5702  return poolEndTime.sub(_fromTime).mul(PolyPerSecond) */\n      swap1\n      pop\n      jump(tag_134)\n        /* \"contracts/distribution/TombGenesisRewardPool.sol\":5451:5947  if (_toTime >= poolEndTime) {\r... */\n    tag_136:\n        /* \"contracts/distribution/TombGenesisRewardPool.sol\":5750:5763  poolStartTime */\n      sload(0x0a)\n        /* \"contracts/distribution/TombGenesisRewardPool.sol\":5739:5746  _toTime */\n      dup3\n        /* \"contracts/distribution/TombGenesisRewardPool.sol\":5739:5763  _toTime <= poolStartTime */\n      gt\n        /* \"contracts/distribution/TombGenesisRewardPool.sol\":5735:5773  if (_toTime <= poolStartTime) return 0 */\n      tag_145\n      jumpi\n        /* \"contracts/distribution/TombGenesisRewardPool.sol\":5772:5773  0 */\n      0x00\n        /* \"contracts/distribution/TombGenesisRewardPool.sol\":5765:5773  return 0 */\n      swap1\n      pop\n      jump(tag_134)\n        /* \"contracts/distribution/TombGenesisRewardPool.sol\":5735:5773  if (_toTime <= poolStartTime) return 0 */\n    tag_145:\n        /* \"contracts/distribution/TombGenesisRewardPool.sol\":5805:5818  poolStartTime */\n      sload(0x0a)\n        /* \"contracts/distribution/TombGenesisRewardPool.sol\":5792:5801  _fromTime */\n      dup4\n        /* \"contracts/distribution/TombGenesisRewardPool.sol\":5792:5818  _fromTime <= poolStartTime */\n      gt\n        /* \"contracts/distribution/TombGenesisRewardPool.sol\":5788:5872  if (_fromTime <= poolStartTime) return _toTime.sub(poolStartTime).mul(PolyPerSecond) */\n      tag_146\n      jumpi\n        /* \"contracts/distribution/TombGenesisRewardPool.sol\":5827:5872  _toTime.sub(poolStartTime).mul(PolyPerSecond) */\n      tag_147\n        /* \"contracts/distribution/TombGenesisRewardPool.sol\":5858:5871  PolyPerSecond */\n      sload(0x0c)\n        /* \"contracts/distribution/TombGenesisRewardPool.sol\":5827:5853  _toTime.sub(poolStartTime) */\n      tag_148\n        /* \"contracts/distribution/TombGenesisRewardPool.sol\":5839:5852  poolStartTime */\n      sload(0x0a)\n        /* \"contracts/distribution/TombGenesisRewardPool.sol\":5827:5834  _toTime */\n      dup6\n        /* \"contracts/distribution/TombGenesisRewardPool.sol\":5827:5838  _toTime.sub */\n      tag_132\n      swap1\n        /* \"contracts/distribution/TombGenesisRewardPool.sol\":5827:5853  _toTime.sub(poolStartTime) */\n      swap2\n      swap1\n      0xffffffff\n      and\n      jump\t// in\n    tag_148:\n        /* \"contracts/distribution/TombGenesisRewardPool.sol\":5827:5857  _toTime.sub(poolStartTime).mul */\n      tag_141\n      swap1\n        /* \"contracts/distribution/TombGenesisRewardPool.sol\":5827:5872  _toTime.sub(poolStartTime).mul(PolyPerSecond) */\n      swap2\n      swap1\n      0xffffffff\n      and\n      jump\t// in\n    tag_147:\n        /* \"contracts/distribution/TombGenesisRewardPool.sol\":5820:5872  return _toTime.sub(poolStartTime).mul(PolyPerSecond) */\n      swap1\n      pop\n      jump(tag_134)\n        /* \"contracts/distribution/TombGenesisRewardPool.sol\":5788:5872  if (_fromTime <= poolStartTime) return _toTime.sub(poolStartTime).mul(PolyPerSecond) */\n    tag_146:\n        /* \"contracts/distribution/TombGenesisRewardPool.sol\":5894:5935  _toTime.sub(_fromTime).mul(PolyPerSecond) */\n      tag_149\n        /* \"contracts/distribution/TombGenesisRewardPool.sol\":5921:5934  PolyPerSecond */\n      sload(0x0c)\n        /* \"contracts/distribution/TombGenesisRewardPool.sol\":5894:5916  _toTime.sub(_fromTime) */\n      tag_150\n        /* \"contracts/distribution/TombGenesisRewardPool.sol\":5906:5915  _fromTime */\n      dup6\n        /* \"contracts/distribution/TombGenesisRewardPool.sol\":5894:5901  _toTime */\n      dup6\n        /* \"contracts/distribution/TombGenesisRewardPool.sol\":5894:5905  _toTime.sub */\n      tag_132\n      swap1\n        /* \"contracts/distribution/TombGenesisRewardPool.sol\":5894:5916  _toTime.sub(_fromTime) */\n      swap2\n      swap1\n      0xffffffff\n      and\n      jump\t// in\n    tag_150:\n        /* \"contracts/distribution/TombGenesisRewardPool.sol\":5894:5920  _toTime.sub(_fromTime).mul */\n      tag_141\n      swap1\n        /* \"contracts/distribution/TombGenesisRewardPool.sol\":5894:5935  _toTime.sub(_fromTime).mul(PolyPerSecond) */\n      swap2\n      swap1\n      0xffffffff\n      and\n      jump\t// in\n    tag_149:\n        /* \"contracts/distribution/TombGenesisRewardPool.sol\":5887:5935  return _toTime.sub(_fromTime).mul(PolyPerSecond) */\n      swap1\n      pop\n        /* \"contracts/distribution/TombGenesisRewardPool.sol\":5301:5954  function getGeneratedReward(uint256 _fromTime, uint256 _toTime) public view returns (uint256) {\r... */\n    tag_134:\n      swap3\n      swap2\n      pop\n      pop\n      jump\t// out\n        /* \"contracts/owner/Operator.sol\":894:1009  function transferOperator(address newOperator_) public onlyOwner {\r... */\n    tag_61:\n        /* \"@openzeppelin/contracts/access/Ownable.sol\":1362:1374  _msgSender() */\n      tag_152\n        /* \"@openzeppelin/contracts/access/Ownable.sol\":1362:1372  _msgSender */\n      tag_153\n        /* \"@openzeppelin/contracts/access/Ownable.sol\":1362:1374  _msgSender() */\n      jump\t// in\n    tag_152:\n        /* \"@openzeppelin/contracts/access/Ownable.sol\":1351:1374  owner() == _msgSender() */\n      0xffffffffffffffffffffffffffffffffffffffff\n      and\n        /* \"@openzeppelin/contracts/access/Ownable.sol\":1351:1358  owner() */\n      tag_154\n        /* \"@openzeppelin/contracts/access/Ownable.sol\":1351:1356  owner */\n      tag_96\n        /* \"@openzeppelin/contracts/access/Ownable.sol\":1351:1358  owner() */\n      jump\t// in\n    tag_154:\n        /* \"@openzeppelin/contracts/access/Ownable.sol\":1351:1374  owner() == _msgSender() */\n      0xffffffffffffffffffffffffffffffffffffffff\n      and\n      eq\n        /* \"@openzeppelin/contracts/access/Ownable.sol\":1343:1411  require(owner() == _msgSender(), \"Ownable: caller is not the owner\") */\n      tag_155\n      jumpi\n      mload(0x40)\n      0x08c379a000000000000000000000000000000000000000000000000000000000\n      dup2\n      mstore\n      0x04\n      add\n      dup1\n      dup1\n      0x20\n      add\n      dup3\n      dup2\n      sub\n      dup3\n      mstore\n      0x20\n      dup2\n      mstore\n      0x20\n      add\n      dup1\n      0x4f776e61626c653a2063616c6c6572206973206e6f7420746865206f776e6572\n      dup2\n      mstore\n      pop\n      0x20\n      add\n      swap2\n      pop\n      pop\n      mload(0x40)\n      dup1\n      swap2\n      sub\n      swap1\n      revert\n    tag_155:\n        /* \"contracts/owner/Operator.sol\":970:1001  _transferOperator(newOperator_) */\n      tag_157\n        /* \"contracts/owner/Operator.sol\":988:1000  newOperator_ */\n      dup2\n        /* \"contracts/owner/Operator.sol\":970:987  _transferOperator */\n      tag_158\n        /* \"contracts/owner/Operator.sol\":970:1001  _transferOperator(newOperator_) */\n      jump\t// in\n    tag_157:\n        /* \"contracts/owner/Operator.sol\":894:1009  function transferOperator(address newOperator_) public onlyOwner {\r... */\n      pop\n      jump\t// out\n        /* \"contracts/distribution/TombGenesisRewardPool.sol\":1239:1258  address public Pair */\n    tag_63:\n      0x03\n      0x00\n      swap1\n      sload\n      swap1\n      0x0100\n      exp\n      swap1\n      div\n      0xffffffffffffffffffffffffffffffffffffffff\n      and\n      dup2\n      jump\t// out\n        /* \"contracts/distribution/TombGenesisRewardPool.sol\":2581:2670  function isInitialized() public view returns (bool) {\r... */\n    tag_65:\n        /* \"contracts/distribution/TombGenesisRewardPool.sol\":2627:2631  bool */\n      0x00\n        /* \"contracts/distribution/TombGenesisRewardPool.sol\":2651:2662  initialized */\n      0x07\n      0x00\n      swap1\n      sload\n      swap1\n      0x0100\n      exp\n      swap1\n      div\n      0xff\n      and\n        /* \"contracts/distribution/TombGenesisRewardPool.sol\":2644:2662  return initialized */\n      swap1\n      pop\n        /* \"contracts/distribution/TombGenesisRewardPool.sol\":2581:2670  function isInitialized() public view returns (bool) {\r... */\n      swap1\n      jump\t// out\n        /* \"contracts/distribution/TombGenesisRewardPool.sol\":1883:1927  uint256 public PolyPerSecond = 0.09645 ether */\n    tag_67:\n      sload(0x0c)\n      dup2\n      jump\t// out\n        /* \"contracts/distribution/TombGenesisRewardPool.sol\":9454:10264  function withdraw(uint256 _pid, uint256 _amount) public {\r... */\n    tag_70:\n        /* \"contracts/distribution/TombGenesisRewardPool.sol\":9521:9536  address _sender */\n      0x00\n        /* \"contracts/distribution/TombGenesisRewardPool.sol\":9539:9549  msg.sender */\n      caller\n        /* \"contracts/distribution/TombGenesisRewardPool.sol\":9521:9549  address _sender = msg.sender */\n      swap1\n      pop\n        /* \"contracts/distribution/TombGenesisRewardPool.sol\":9560:9581  PoolInfo storage pool */\n      0x00\n        /* \"contracts/distribution/TombGenesisRewardPool.sol\":9584:9592  poolInfo */\n      0x06\n        /* \"contracts/distribution/TombGenesisRewardPool.sol\":9593:9597  _pid */\n      dup5\n        /* \"contracts/distribution/TombGenesisRewardPool.sol\":9584:9598  poolInfo[_pid] */\n      dup2\n      sload\n      dup2\n      lt\n      tag_161\n      jumpi\n      invalid\n    tag_161:\n      swap1\n      0x00\n      mstore\n      keccak256(0x00, 0x20)\n      swap1\n      0x05\n      mul\n      add\n        /* \"contracts/distribution/TombGenesisRewardPool.sol\":9560:9598  PoolInfo storage pool = poolInfo[_pid] */\n      swap1\n      pop\n        /* \"contracts/distribution/TombGenesisRewardPool.sol\":9609:9630  UserInfo storage user */\n      0x00\n        /* \"contracts/distribution/TombGenesisRewardPool.sol\":9633:9641  userInfo */\n      0x08\n        /* \"contracts/distribution/TombGenesisRewardPool.sol\":9633:9647  userInfo[_pid] */\n      0x00\n        /* \"contracts/distribution/TombGenesisRewardPool.sol\":9642:9646  _pid */\n      dup7\n        /* \"contracts/distribution/TombGenesisRewardPool.sol\":9633:9647  userInfo[_pid] */\n      dup2\n      mstore\n      0x20\n      add\n      swap1\n      dup2\n      mstore\n      0x20\n      add\n      0x00\n      keccak256\n        /* \"contracts/distribution/TombGenesisRewardPool.sol\":9633:9656  userInfo[_pid][_sender] */\n      0x00\n        /* \"contracts/distribution/TombGenesisRewardPool.sol\":9648:9655  _sender */\n      dup5\n        /* \"contracts/distribution/TombGenesisRewardPool.sol\":9633:9656  userInfo[_pid][_sender] */\n      0xffffffffffffffffffffffffffffffffffffffff\n      and\n      0xffffffffffffffffffffffffffffffffffffffff\n      and\n      dup2\n      mstore\n      0x20\n      add\n      swap1\n      dup2\n      mstore\n      0x20\n      add\n      0x00\n      keccak256\n        /* \"contracts/distribution/TombGenesisRewardPool.sol\":9609:9656  UserInfo storage user = userInfo[_pid][_sender] */\n      swap1\n      pop\n        /* \"contracts/distribution/TombGenesisRewardPool.sol\":9690:9697  _amount */\n      dup4\n        /* \"contracts/distribution/TombGenesisRewardPool.sol\":9675:9679  user */\n      dup2\n        /* \"contracts/distribution/TombGenesisRewardPool.sol\":9675:9686  user.amount */\n      0x00\n      add\n      sload\n        /* \"contracts/distribution/TombGenesisRewardPool.sol\":9675:9697  user.amount >= _amount */\n      lt\n      iszero\n        /* \"contracts/distribution/TombGenesisRewardPool.sol\":9667:9720  require(user.amount >= _amount, \"withdraw: not good\") */\n      tag_163\n      jumpi\n      mload(0x40)\n      0x08c379a000000000000000000000000000000000000000000000000000000000\n      dup2\n      mstore\n      0x04\n      add\n      dup1\n      dup1\n      0x20\n      add\n      dup3\n      dup2\n      sub\n      dup3\n      mstore\n      0x12\n      dup2\n      mstore\n      0x20\n      add\n      dup1\n      0x77697468647261773a206e6f7420676f6f640000000000000000000000000000\n      dup2\n      mstore\n      pop\n      0x20\n      add\n      swap2\n      pop\n      pop\n      mload(0x40)\n      dup1\n      swap2\n      sub\n      swap1\n      revert\n    tag_163:\n        /* \"contracts/distribution/TombGenesisRewardPool.sol\":9731:9747  updatePool(_pid) */\n      tag_164\n        /* \"contracts/distribution/TombGenesisRewardPool.sol\":9742:9746  _pid */\n      dup6\n        /* \"contracts/distribution/TombGenesisRewardPool.sol\":9731:9741  updatePool */\n      tag_78\n        /* \"contracts/distribution/TombGenesisRewardPool.sol\":9731:9747  updatePool(_pid) */\n      jump\t// in\n    tag_164:\n        /* \"contracts/distribution/TombGenesisRewardPool.sol\":9758:9774  uint256 _pending */\n      0x00\n        /* \"contracts/distribution/TombGenesisRewardPool.sol\":9777:9845  user.amount.mul(pool.accPolyPerShare).div(1e18).sub(user.rewardDebt) */\n      tag_165\n        /* \"contracts/distribution/TombGenesisRewardPool.sol\":9829:9833  user */\n      dup3\n        /* \"contracts/distribution/TombGenesisRewardPool.sol\":9829:9844  user.rewardDebt */\n      0x01\n      add\n      sload\n        /* \"contracts/distribution/TombGenesisRewardPool.sol\":9777:9824  user.amount.mul(pool.accPolyPerShare).div(1e18) */\n      tag_166\n        /* \"contracts/distribution/TombGenesisRewardPool.sol\":9819:9823  1e18 */\n      0x0de0b6b3a7640000\n        /* \"contracts/distribution/TombGenesisRewardPool.sol\":9777:9814  user.amount.mul(pool.accPolyPerShare) */\n      tag_167\n        /* \"contracts/distribution/TombGenesisRewardPool.sol\":9793:9797  pool */\n      dup8\n        /* \"contracts/distribution/TombGenesisRewardPool.sol\":9793:9813  pool.accPolyPerShare */\n      0x03\n      add\n      sload\n        /* \"contracts/distribution/TombGenesisRewardPool.sol\":9777:9781  user */\n      dup8\n        /* \"contracts/distribution/TombGenesisRewardPool.sol\":9777:9788  user.amount */\n      0x00\n      add\n      sload\n        /* \"contracts/distribution/TombGenesisRewardPool.sol\":9777:9792  user.amount.mul */\n      tag_141\n      swap1\n        /* \"contracts/distribution/TombGenesisRewardPool.sol\":9777:9814  user.amount.mul(pool.accPolyPerShare) */\n      swap2\n      swap1\n      0xffffffff\n      and\n      jump\t// in\n    tag_167:\n        /* \"contracts/distribution/TombGenesisRewardPool.sol\":9777:9818  user.amount.mul(pool.accPolyPerShare).div */\n      tag_168\n      swap1\n        /* \"contracts/distribution/TombGenesisRewardPool.sol\":9777:9824  user.amount.mul(pool.accPolyPerShare).div(1e18) */\n      swap2\n      swap1\n      0xffffffff\n      and\n      jump\t// in\n    tag_166:\n        /* \"contracts/distribution/TombGenesisRewardPool.sol\":9777:9828  user.amount.mul(pool.accPolyPerShare).div(1e18).sub */\n      tag_132\n      swap1\n        /* \"contracts/distribution/TombGenesisRewardPool.sol\":9777:9845  user.amount.mul(pool.accPolyPerShare).div(1e18).sub(user.rewardDebt) */\n      swap2\n      swap1\n      0xffffffff\n      and\n      jump\t// in\n    tag_165:\n        /* \"contracts/distribution/TombGenesisRewardPool.sol\":9758:9845  uint256 _pending = user.amount.mul(pool.accPolyPerShare).div(1e18).sub(user.rewardDebt) */\n      swap1\n      pop\n        /* \"contracts/distribution/TombGenesisRewardPool.sol\":9871:9872  0 */\n      0x00\n        /* \"contracts/distribution/TombGenesisRewardPool.sol\":9860:9868  _pending */\n      dup2\n        /* \"contracts/distribution/TombGenesisRewardPool.sol\":9860:9872  _pending > 0 */\n      gt\n        /* \"contracts/distribution/TombGenesisRewardPool.sol\":9856:9985  if (_pending > 0) {\r... */\n      iszero\n      tag_169\n      jumpi\n        /* \"contracts/distribution/TombGenesisRewardPool.sol\":9889:9924  safePolyTransfer(_sender, _pending) */\n      tag_170\n        /* \"contracts/distribution/TombGenesisRewardPool.sol\":9906:9913  _sender */\n      dup5\n        /* \"contracts/distribution/TombGenesisRewardPool.sol\":9915:9923  _pending */\n      dup3\n        /* \"contracts/distribution/TombGenesisRewardPool.sol\":9889:9905  safePolyTransfer */\n      tag_171\n        /* \"contracts/distribution/TombGenesisRewardPool.sol\":9889:9924  safePolyTransfer(_sender, _pending) */\n      jump\t// in\n    tag_170:\n        /* \"contracts/distribution/TombGenesisRewardPool.sol\":9955:9962  _sender */\n      dup4\n        /* \"contracts/distribution/TombGenesisRewardPool.sol\":9944:9973  RewardPaid(_sender, _pending) */\n      0xffffffffffffffffffffffffffffffffffffffff\n      and\n      0xe2403640ba68fed3a2f88b7557551d1993f84b99bb10ff833f0cf8db0c5e0486\n        /* \"contracts/distribution/TombGenesisRewardPool.sol\":9964:9972  _pending */\n      dup3\n        /* \"contracts/distribution/TombGenesisRewardPool.sol\":9944:9973  RewardPaid(_sender, _pending) */\n      mload(0x40)\n      dup1\n      dup3\n      dup2\n      mstore\n      0x20\n      add\n      swap2\n      pop\n      pop\n      mload(0x40)\n      dup1\n      swap2\n      sub\n      swap1\n      log2\n        /* \"contracts/distribution/TombGenesisRewardPool.sol\":9856:9985  if (_pending > 0) {\r... */\n    tag_169:\n        /* \"contracts/distribution/TombGenesisRewardPool.sol\":10009:10010  0 */\n      0x00\n        /* \"contracts/distribution/TombGenesisRewardPool.sol\":9999:10006  _amount */\n      dup6\n        /* \"contracts/distribution/TombGenesisRewardPool.sol\":9999:10010  _amount > 0 */\n      gt\n        /* \"contracts/distribution/TombGenesisRewardPool.sol\":9995:10133  if (_amount > 0) {\r... */\n      iszero\n      tag_172\n      jumpi\n        /* \"contracts/distribution/TombGenesisRewardPool.sol\":10041:10065  user.amount.sub(_amount) */\n      tag_173\n        /* \"contracts/distribution/TombGenesisRewardPool.sol\":10057:10064  _amount */\n      dup6\n        /* \"contracts/distribution/TombGenesisRewardPool.sol\":10041:10045  user */\n      dup4\n        /* \"contracts/distribution/TombGenesisRewardPool.sol\":10041:10052  user.amount */\n      0x00\n      add\n      sload\n        /* \"contracts/distribution/TombGenesisRewardPool.sol\":10041:10056  user.amount.sub */\n      tag_132\n      swap1\n        /* \"contracts/distribution/TombGenesisRewardPool.sol\":10041:10065  user.amount.sub(_amount) */\n      swap2\n      swap1\n      0xffffffff\n      and\n      jump\t// in\n    tag_173:\n        /* \"contracts/distribution/TombGenesisRewardPool.sol\":10027:10031  user */\n      dup3\n        /* \"contracts/distribution/TombGenesisRewardPool.sol\":10027:10038  user.amount */\n      0x00\n      add\n        /* \"contracts/distribution/TombGenesisRewardPool.sol\":10027:10065  user.amount = user.amount.sub(_amount) */\n      dup2\n      swap1\n      sstore\n      pop\n        /* \"contracts/distribution/TombGenesisRewardPool.sol\":10080:10121  pool.token.safeTransfer(_sender, _amount) */\n      tag_174\n        /* \"contracts/distribution/TombGenesisRewardPool.sol\":10104:10111  _sender */\n      dup5\n        /* \"contracts/distribution/TombGenesisRewardPool.sol\":10113:10120  _amount */\n      dup7\n        /* \"contracts/distribution/TombGenesisRewardPool.sol\":10080:10084  pool */\n      dup6\n        /* \"contracts/distribution/TombGenesisRewardPool.sol\":10080:10090  pool.token */\n      0x00\n      add\n      0x00\n      swap1\n      sload\n      swap1\n      0x0100\n      exp\n      swap1\n      div\n      0xffffffffffffffffffffffffffffffffffffffff\n      and\n        /* \"contracts/distribution/TombGenesisRewardPool.sol\":10080:10103  pool.token.safeTransfer */\n      0xffffffffffffffffffffffffffffffffffffffff\n      and\n      tag_175\n      swap1\n        /* \"contracts/distribution/TombGenesisRewardPool.sol\":10080:10121  pool.token.safeTransfer(_sender, _amount) */\n      swap3\n      swap2\n      swap1\n      0xffffffff\n      and\n      jump\t// in\n    tag_174:\n        /* \"contracts/distribution/TombGenesisRewardPool.sol\":9995:10133  if (_amount > 0) {\r... */\n    tag_172:\n        /* \"contracts/distribution/TombGenesisRewardPool.sol\":10161:10208  user.amount.mul(pool.accPolyPerShare).div(1e18) */\n      tag_176\n        /* \"contracts/distribution/TombGenesisRewardPool.sol\":10203:10207  1e18 */\n      0x0de0b6b3a7640000\n        /* \"contracts/distribution/TombGenesisRewardPool.sol\":10161:10198  user.amount.mul(pool.accPolyPerShare) */\n      tag_177\n        /* \"contracts/distribution/TombGenesisRewardPool.sol\":10177:10181  pool */\n      dup6\n        /* \"contracts/distribution/TombGenesisRewardPool.sol\":10177:10197  pool.accPolyPerShare */\n      0x03\n      add\n      sload\n        /* \"contracts/distribution/TombGenesisRewardPool.sol\":10161:10165  user */\n      dup6\n        /* \"contracts/distribution/TombGenesisRewardPool.sol\":10161:10172  user.amount */\n      0x00\n      add\n      sload\n        /* \"contracts/distribution/TombGenesisRewardPool.sol\":10161:10176  user.amount.mul */\n      tag_141\n      swap1\n        /* \"contracts/distribution/TombGenesisRewardPool.sol\":10161:10198  user.amount.mul(pool.accPolyPerShare) */\n      swap2\n      swap1\n      0xffffffff\n      and\n      jump\t// in\n    tag_177:\n        /* \"contracts/distribution/TombGenesisRewardPool.sol\":10161:10202  user.amount.mul(pool.accPolyPerShare).div */\n      tag_168\n      swap1\n        /* \"contracts/distribution/TombGenesisRewardPool.sol\":10161:10208  user.amount.mul(pool.accPolyPerShare).div(1e18) */\n      swap2\n      swap1\n      0xffffffff\n      and\n      jump\t// in\n    tag_176:\n        /* \"contracts/distribution/TombGenesisRewardPool.sol\":10143:10147  user */\n      dup3\n        /* \"contracts/distribution/TombGenesisRewardPool.sol\":10143:10158  user.rewardDebt */\n      0x01\n      add\n        /* \"contracts/distribution/TombGenesisRewardPool.sol\":10143:10208  user.rewardDebt = user.amount.mul(pool.accPolyPerShare).div(1e18) */\n      dup2\n      swap1\n      sstore\n      pop\n        /* \"contracts/distribution/TombGenesisRewardPool.sol\":10242:10246  _pid */\n      dup6\n        /* \"contracts/distribution/TombGenesisRewardPool.sol\":10233:10240  _sender */\n      dup5\n        /* \"contracts/distribution/TombGenesisRewardPool.sol\":10224:10256  Withdraw(_sender, _pid, _amount) */\n      0xffffffffffffffffffffffffffffffffffffffff\n      and\n      0xf279e6a1f5e320cca91135676d9cb6e44ca8a08c0b88342bcdb1144f6511b568\n        /* \"contracts/distribution/TombGenesisRewardPool.sol\":10248:10255  _amount */\n      dup8\n        /* \"contracts/distribution/TombGenesisRewardPool.sol\":10224:10256  Withdraw(_sender, _pid, _amount) */\n      mload(0x40)\n      dup1\n      dup3\n      dup2\n      mstore\n      0x20\n      add\n      swap2\n      pop\n      pop\n      mload(0x40)\n      dup1\n      swap2\n      sub\n      swap1\n      log3\n        /* \"contracts/distribution/TombGenesisRewardPool.sol\":9454:10264  function withdraw(uint256 _pid, uint256 _amount) public {\r... */\n      pop\n      pop\n      pop\n      pop\n      pop\n      pop\n      jump\t// out\n        /* \"contracts/owner/Operator.sol\":786:886  function isOperator() public view returns (bool) {\r... */\n    tag_72:\n        /* \"contracts/owner/Operator.sol\":829:833  bool */\n      0x00\n        /* \"contracts/owner/Operator.sol\":869:878  _operator */\n      0x01\n      0x00\n      swap1\n      sload\n      swap1\n      0x0100\n      exp\n      swap1\n      div\n      0xffffffffffffffffffffffffffffffffffffffff\n      and\n        /* \"contracts/owner/Operator.sol\":853:878  _msgSender() == _operator */\n      0xffffffffffffffffffffffffffffffffffffffff\n      and\n        /* \"contracts/owner/Operator.sol\":853:865  _msgSender() */\n      tag_179\n        /* \"contracts/owner/Operator.sol\":853:863  _msgSender */\n      tag_153\n        /* \"contracts/owner/Operator.sol\":853:865  _msgSender() */\n      jump\t// in\n    tag_179:\n        /* \"contracts/owner/Operator.sol\":853:878  _msgSender() == _operator */\n      0xffffffffffffffffffffffffffffffffffffffff\n      and\n      eq\n        /* \"contracts/owner/Operator.sol\":846:878  return _msgSender() == _operator */\n      swap1\n      pop\n        /* \"contracts/owner/Operator.sol\":786:886  function isOperator() public view returns (bool) {\r... */\n      swap1\n      jump\t// out\n        /* \"contracts/distribution/TombGenesisRewardPool.sol\":6017:6788  function pendingPoly(uint256 _pid, address _user) external view returns (uint256) {\r... */\n    tag_75:\n        /* \"contracts/distribution/TombGenesisRewardPool.sol\":6090:6097  uint256 */\n      0x00\n        /* \"contracts/distribution/TombGenesisRewardPool.sol\":6110:6131  PoolInfo storage pool */\n      dup1\n        /* \"contracts/distribution/TombGenesisRewardPool.sol\":6134:6142  poolInfo */\n      0x06\n        /* \"contracts/distribution/TombGenesisRewardPool.sol\":6143:6147  _pid */\n      dup5\n        /* \"contracts/distribution/TombGenesisRewardPool.sol\":6134:6148  poolInfo[_pid] */\n      dup2\n      sload\n      dup2\n      lt\n      tag_181\n      jumpi\n      invalid\n    tag_181:\n      swap1\n      0x00\n      mstore\n      keccak256(0x00, 0x20)\n      swap1\n      0x05\n      mul\n      add\n        /* \"contracts/distribution/TombGenesisRewardPool.sol\":6110:6148  PoolInfo storage pool = poolInfo[_pid] */\n      swap1\n      pop\n        /* \"contracts/distribution/TombGenesisRewardPool.sol\":6159:6180  UserInfo storage user */\n      0x00\n        /* \"contracts/distribution/TombGenesisRewardPool.sol\":6183:6191  userInfo */\n      0x08\n        /* \"contracts/distribution/TombGenesisRewardPool.sol\":6183:6197  userInfo[_pid] */\n      0x00\n        /* \"contracts/distribution/TombGenesisRewardPool.sol\":6192:6196  _pid */\n      dup7\n        /* \"contracts/distribution/TombGenesisRewardPool.sol\":6183:6197  userInfo[_pid] */\n      dup2\n      mstore\n      0x20\n      add\n      swap1\n      dup2\n      mstore\n      0x20\n      add\n      0x00\n      keccak256\n        /* \"contracts/distribution/TombGenesisRewardPool.sol\":6183:6204  userInfo[_pid][_user] */\n      0x00\n        /* \"contracts/distribution/TombGenesisRewardPool.sol\":6198:6203  _user */\n      dup6\n        /* \"contracts/distribution/TombGenesisRewardPool.sol\":6183:6204  userInfo[_pid][_user] */\n      0xffffffffffffffffffffffffffffffffffffffff\n      and\n      0xffffffffffffffffffffffffffffffffffffffff\n      and\n      dup2\n      mstore\n      0x20\n      add\n      swap1\n      dup2\n      mstore\n      0x20\n      add\n      0x00\n      keccak256\n        /* \"contracts/distribution/TombGenesisRewardPool.sol\":6159:6204  UserInfo storage user = userInfo[_pid][_user] */\n      swap1\n      pop\n        /* \"contracts/distribution/TombGenesisRewardPool.sol\":6215:6238  uint256 accPolyPerShare */\n      0x00\n        /* \"contracts/distribution/TombGenesisRewardPool.sol\":6241:6245  pool */\n      dup3\n        /* \"contracts/distribution/TombGenesisRewardPool.sol\":6241:6261  pool.accPolyPerShare */\n      0x03\n      add\n      sload\n        /* \"contracts/distribution/TombGenesisRewardPool.sol\":6215:6261  uint256 accPolyPerShare = pool.accPolyPerShare */\n      swap1\n      pop\n        /* \"contracts/distribution/TombGenesisRewardPool.sol\":6272:6291  uint256 tokenSupply */\n      0x00\n        /* \"contracts/distribution/TombGenesisRewardPool.sol\":6294:6298  pool */\n      dup4\n        /* \"contracts/distribution/TombGenesisRewardPool.sol\":6294:6304  pool.token */\n      0x00\n      add\n      0x00\n      swap1\n      sload\n      swap1\n      0x0100\n      exp\n      swap1\n      div\n      0xffffffffffffffffffffffffffffffffffffffff\n      and\n        /* \"contracts/distribution/TombGenesisRewardPool.sol\":6294:6314  pool.token.balanceOf */\n      0xffffffffffffffffffffffffffffffffffffffff\n      and\n      0x70a08231\n        /* \"contracts/distribution/TombGenesisRewardPool.sol\":6323:6327  this */\n      address\n        /* \"contracts/distribution/TombGenesisRewardPool.sol\":6294:6329  pool.token.balanceOf(address(this)) */\n      mload(0x40)\n      dup3\n      0xffffffff\n      and\n      0xe0\n      shl\n      dup2\n      mstore\n      0x04\n      add\n      dup1\n      dup3\n      0xffffffffffffffffffffffffffffffffffffffff\n      and\n      dup2\n      mstore\n      0x20\n      add\n      swap2\n      pop\n      pop\n      0x20\n      mload(0x40)\n      dup1\n      dup4\n      sub\n      dup2\n      dup7\n      dup1\n      extcodesize\n      iszero\n      dup1\n      iszero\n      tag_183\n      jumpi\n      0x00\n      dup1\n      revert\n    tag_183:\n      pop\n      gas\n      staticcall\n      iszero\n      dup1\n      iszero\n      tag_185\n      jumpi\n      returndatasize\n      0x00\n      dup1\n      returndatacopy\n      revert(0x00, returndatasize)\n    tag_185:\n      pop\n      pop\n      pop\n      pop\n      mload(0x40)\n      returndatasize\n      0x20\n      dup2\n      lt\n      iszero\n      tag_186\n      jumpi\n      0x00\n      dup1\n      revert\n    tag_186:\n      dup2\n      add\n      swap1\n      dup1\n      dup1\n      mload\n      swap1\n      0x20\n      add\n      swap1\n      swap3\n      swap2\n      swap1\n      pop\n      pop\n      pop\n        /* \"contracts/distribution/TombGenesisRewardPool.sol\":6272:6329  uint256 tokenSupply = pool.token.balanceOf(address(this)) */\n      swap1\n      pop\n        /* \"contracts/distribution/TombGenesisRewardPool.sol\":6362:6366  pool */\n      dup4\n        /* \"contracts/distribution/TombGenesisRewardPool.sol\":6362:6381  pool.lastRewardTime */\n      0x02\n      add\n      sload\n        /* \"contracts/distribution/TombGenesisRewardPool.sol\":6344:6359  block.timestamp */\n      timestamp\n        /* \"contracts/distribution/TombGenesisRewardPool.sol\":6344:6381  block.timestamp > pool.lastRewardTime */\n      gt\n        /* \"contracts/distribution/TombGenesisRewardPool.sol\":6344:6401  block.timestamp > pool.lastRewardTime && tokenSupply != 0 */\n      dup1\n      iszero\n      tag_187\n      jumpi\n      pop\n        /* \"contracts/distribution/TombGenesisRewardPool.sol\":6400:6401  0 */\n      0x00\n        /* \"contracts/distribution/TombGenesisRewardPool.sol\":6385:6396  tokenSupply */\n      dup2\n        /* \"contracts/distribution/TombGenesisRewardPool.sol\":6385:6401  tokenSupply != 0 */\n      eq\n      iszero\n        /* \"contracts/distribution/TombGenesisRewardPool.sol\":6344:6401  block.timestamp > pool.lastRewardTime && tokenSupply != 0 */\n    tag_187:\n        /* \"contracts/distribution/TombGenesisRewardPool.sol\":6340:6700  if (block.timestamp > pool.lastRewardTime && tokenSupply != 0) {\r... */\n      iszero\n      tag_188\n      jumpi\n        /* \"contracts/distribution/TombGenesisRewardPool.sol\":6418:6442  uint256 _generatedReward */\n      0x00\n        /* \"contracts/distribution/TombGenesisRewardPool.sol\":6445:6501  getGeneratedReward(pool.lastRewardTime, block.timestamp) */\n      tag_189\n        /* \"contracts/distribution/TombGenesisRewardPool.sol\":6464:6468  pool */\n      dup6\n        /* \"contracts/distribution/TombGenesisRewardPool.sol\":6464:6483  pool.lastRewardTime */\n      0x02\n      add\n      sload\n        /* \"contracts/distribution/TombGenesisRewardPool.sol\":6485:6500  block.timestamp */\n      timestamp\n        /* \"contracts/distribution/TombGenesisRewardPool.sol\":6445:6463  getGeneratedReward */\n      tag_58\n        /* \"contracts/distribution/TombGenesisRewardPool.sol\":6445:6501  getGeneratedReward(pool.lastRewardTime, block.timestamp) */\n      jump\t// in\n    tag_189:\n        /* \"contracts/distribution/TombGenesisRewardPool.sol\":6418:6501  uint256 _generatedReward = getGeneratedReward(pool.lastRewardTime, block.timestamp) */\n      swap1\n      pop\n        /* \"contracts/distribution/TombGenesisRewardPool.sol\":6516:6535  uint256 _PolyReward */\n      0x00\n        /* \"contracts/distribution/TombGenesisRewardPool.sol\":6538:6596  _generatedReward.mul(pool.allocPoint).div(totalAllocPoint) */\n      tag_190\n        /* \"contracts/distribution/TombGenesisRewardPool.sol\":6580:6595  totalAllocPoint */\n      sload(0x09)\n        /* \"contracts/distribution/TombGenesisRewardPool.sol\":6538:6575  _generatedReward.mul(pool.allocPoint) */\n      tag_191\n        /* \"contracts/distribution/TombGenesisRewardPool.sol\":6559:6563  pool */\n      dup9\n        /* \"contracts/distribution/TombGenesisRewardPool.sol\":6559:6574  pool.allocPoint */\n      0x01\n      add\n      sload\n        /* \"contracts/distribution/TombGenesisRewardPool.sol\":6538:6554  _generatedReward */\n      dup6\n        /* \"contracts/distribution/TombGenesisRewardPool.sol\":6538:6558  _generatedReward.mul */\n      tag_141\n      swap1\n        /* \"contracts/distribution/TombGenesisRewardPool.sol\":6538:6575  _generatedReward.mul(pool.allocPoint) */\n      swap2\n      swap1\n      0xffffffff\n      and\n      jump\t// in\n    tag_191:\n        /* \"contracts/distribution/TombGenesisRewardPool.sol\":6538:6579  _generatedReward.mul(pool.allocPoint).div */\n      tag_168\n      swap1\n        /* \"contracts/distribution/TombGenesisRewardPool.sol\":6538:6596  _generatedReward.mul(pool.allocPoint).div(totalAllocPoint) */\n      swap2\n      swap1\n      0xffffffff\n      and\n      jump\t// in\n    tag_190:\n        /* \"contracts/distribution/TombGenesisRewardPool.sol\":6516:6596  uint256 _PolyReward = _generatedReward.mul(pool.allocPoint).div(totalAllocPoint) */\n      swap1\n      pop\n        /* \"contracts/distribution/TombGenesisRewardPool.sol\":6629:6688  accPolyPerShare.add(_PolyReward.mul(1e18).div(tokenSupply)) */\n      tag_192\n        /* \"contracts/distribution/TombGenesisRewardPool.sol\":6649:6687  _PolyReward.mul(1e18).div(tokenSupply) */\n      tag_193\n        /* \"contracts/distribution/TombGenesisRewardPool.sol\":6675:6686  tokenSupply */\n      dup5\n        /* \"contracts/distribution/TombGenesisRewardPool.sol\":6649:6670  _PolyReward.mul(1e18) */\n      tag_194\n        /* \"contracts/distribution/TombGenesisRewardPool.sol\":6665:6669  1e18 */\n      0x0de0b6b3a7640000\n        /* \"contracts/distribution/TombGenesisRewardPool.sol\":6649:6660  _PolyReward */\n      dup6\n        /* \"contracts/distribution/TombGenesisRewardPool.sol\":6649:6664  _PolyReward.mul */\n      tag_141\n      swap1\n        /* \"contracts/distribution/TombGenesisRewardPool.sol\":6649:6670  _PolyReward.mul(1e18) */\n      swap2\n      swap1\n      0xffffffff\n      and\n      jump\t// in\n    tag_194:\n        /* \"contracts/distribution/TombGenesisRewardPool.sol\":6649:6674  _PolyReward.mul(1e18).div */\n      tag_168\n      swap1\n        /* \"contracts/distribution/TombGenesisRewardPool.sol\":6649:6687  _PolyReward.mul(1e18).div(tokenSupply) */\n      swap2\n      swap1\n      0xffffffff\n      and\n      jump\t// in\n    tag_193:\n        /* \"contracts/distribution/TombGenesisRewardPool.sol\":6629:6644  accPolyPerShare */\n      dup6\n        /* \"contracts/distribution/TombGenesisRewardPool.sol\":6629:6648  accPolyPerShare.add */\n      tag_133\n      swap1\n        /* \"contracts/distribution/TombGenesisRewardPool.sol\":6629:6688  accPolyPerShare.add(_PolyReward.mul(1e18).div(tokenSupply)) */\n      swap2\n      swap1\n      0xffffffff\n      and\n      jump\t// in\n    tag_192:\n        /* \"contracts/distribution/TombGenesisRewardPool.sol\":6611:6688  accPolyPerShare = accPolyPerShare.add(_PolyReward.mul(1e18).div(tokenSupply)) */\n      swap4\n      pop\n        /* \"contracts/distribution/TombGenesisRewardPool.sol\":6340:6700  if (block.timestamp > pool.lastRewardTime && tokenSupply != 0) {\r... */\n      pop\n      pop\n    tag_188:\n        /* \"contracts/distribution/TombGenesisRewardPool.sol\":6717:6780  user.amount.mul(accPolyPerShare).div(1e18).sub(user.rewardDebt) */\n      tag_195\n        /* \"contracts/distribution/TombGenesisRewardPool.sol\":6764:6768  user */\n      dup4\n        /* \"contracts/distribution/TombGenesisRewardPool.sol\":6764:6779  user.rewardDebt */\n      0x01\n      add\n      sload\n        /* \"contracts/distribution/TombGenesisRewardPool.sol\":6717:6759  user.amount.mul(accPolyPerShare).div(1e18) */\n      tag_196\n        /* \"contracts/distribution/TombGenesisRewardPool.sol\":6754:6758  1e18 */\n      0x0de0b6b3a7640000\n        /* \"contracts/distribution/TombGenesisRewardPool.sol\":6717:6749  user.amount.mul(accPolyPerShare) */\n      tag_197\n        /* \"contracts/distribution/TombGenesisRewardPool.sol\":6733:6748  accPolyPerShare */\n      dup7\n        /* \"contracts/distribution/TombGenesisRewardPool.sol\":6717:6721  user */\n      dup9\n        /* \"contracts/distribution/TombGenesisRewardPool.sol\":6717:6728  user.amount */\n      0x00\n      add\n      sload\n        /* \"contracts/distribution/TombGenesisRewardPool.sol\":6717:6732  user.amount.mul */\n      tag_141\n      swap1\n        /* \"contracts/distribution/TombGenesisRewardPool.sol\":6717:6749  user.amount.mul(accPolyPerShare) */\n      swap2\n      swap1\n      0xffffffff\n      and\n      jump\t// in\n    tag_197:\n        /* \"contracts/distribution/TombGenesisRewardPool.sol\":6717:6753  user.amount.mul(accPolyPerShare).div */\n      tag_168\n      swap1\n        /* \"contracts/distribution/TombGenesisRewardPool.sol\":6717:6759  user.amount.mul(accPolyPerShare).div(1e18) */\n      swap2\n      swap1\n      0xffffffff\n      and\n      jump\t// in\n    tag_196:\n        /* \"contracts/distribution/TombGenesisRewardPool.sol\":6717:6763  user.amount.mul(accPolyPerShare).div(1e18).sub */\n      tag_132\n      swap1\n        /* \"contracts/distribution/TombGenesisRewardPool.sol\":6717:6780  user.amount.mul(accPolyPerShare).div(1e18).sub(user.rewardDebt) */\n      swap2\n      swap1\n      0xffffffff\n      and\n      jump\t// in\n    tag_195:\n        /* \"contracts/distribution/TombGenesisRewardPool.sol\":6710:6780  return user.amount.mul(accPolyPerShare).div(1e18).sub(user.rewardDebt) */\n      swap5\n      pop\n      pop\n      pop\n      pop\n      pop\n        /* \"contracts/distribution/TombGenesisRewardPool.sol\":6017:6788  function pendingPoly(uint256 _pid, address _user) external view returns (uint256) {\r... */\n      swap3\n      swap2\n      pop\n      pop\n      jump\t// out\n        /* \"contracts/distribution/TombGenesisRewardPool.sol\":7127:8035  function updatePool(uint256 _pid) public {\r... */\n    tag_78:\n        /* \"contracts/distribution/TombGenesisRewardPool.sol\":7179:7200  PoolInfo storage pool */\n      0x00\n        /* \"contracts/distribution/TombGenesisRewardPool.sol\":7203:7211  poolInfo */\n      0x06\n        /* \"contracts/distribution/TombGenesisRewardPool.sol\":7212:7216  _pid */\n      dup3\n        /* \"contracts/distribution/TombGenesisRewardPool.sol\":7203:7217  poolInfo[_pid] */\n      dup2\n      sload\n      dup2\n      lt\n      tag_199\n      jumpi\n      invalid\n    tag_199:\n      swap1\n      0x00\n      mstore\n      keccak256(0x00, 0x20)\n      swap1\n      0x05\n      mul\n      add\n        /* \"contracts/distribution/TombGenesisRewardPool.sol\":7179:7217  PoolInfo storage pool = poolInfo[_pid] */\n      swap1\n      pop\n        /* \"contracts/distribution/TombGenesisRewardPool.sol\":7251:7255  pool */\n      dup1\n        /* \"contracts/distribution/TombGenesisRewardPool.sol\":7251:7270  pool.lastRewardTime */\n      0x02\n      add\n      sload\n        /* \"contracts/distribution/TombGenesisRewardPool.sol\":7232:7247  block.timestamp */\n      timestamp\n        /* \"contracts/distribution/TombGenesisRewardPool.sol\":7232:7270  block.timestamp <= pool.lastRewardTime */\n      gt\n        /* \"contracts/distribution/TombGenesisRewardPool.sol\":7228:7305  if (block.timestamp <= pool.lastRewardTime) {\r... */\n      tag_201\n      jumpi\n        /* \"contracts/distribution/TombGenesisRewardPool.sol\":7287:7294  return; */\n      pop\n      jump(tag_198)\n        /* \"contracts/distribution/TombGenesisRewardPool.sol\":7228:7305  if (block.timestamp <= pool.lastRewardTime) {\r... */\n    tag_201:\n        /* \"contracts/distribution/TombGenesisRewardPool.sol\":7315:7334  uint256 tokenSupply */\n      0x00\n        /* \"contracts/distribution/TombGenesisRewardPool.sol\":7337:7341  pool */\n      dup2\n        /* \"contracts/distribution/TombGenesisRewardPool.sol\":7337:7347  pool.token */\n      0x00\n      add\n      0x00\n      swap1\n      sload\n      swap1\n      0x0100\n      exp\n      swap1\n      div\n      0xffffffffffffffffffffffffffffffffffffffff\n      and\n        /* \"contracts/distribution/TombGenesisRewardPool.sol\":7337:7357  pool.token.balanceOf */\n      0xffffffffffffffffffffffffffffffffffffffff\n      and\n      0x70a08231\n        /* \"contracts/distribution/TombGenesisRewardPool.sol\":7366:7370  this */\n      address\n        /* \"contracts/distribution/TombGenesisRewardPool.sol\":7337:7372  pool.token.balanceOf(address(this)) */\n      mload(0x40)\n      dup3\n      0xffffffff\n      and\n      0xe0\n      shl\n      dup2\n      mstore\n      0x04\n      add\n      dup1\n      dup3\n      0xffffffffffffffffffffffffffffffffffffffff\n      and\n      dup2\n      mstore\n      0x20\n      add\n      swap2\n      pop\n      pop\n      0x20\n      mload(0x40)\n      dup1\n      dup4\n      sub\n      dup2\n      dup7\n      dup1\n      extcodesize\n      iszero\n      dup1\n      iszero\n      tag_202\n      jumpi\n      0x00\n      dup1\n      revert\n    tag_202:\n      pop\n      gas\n      staticcall\n      iszero\n      dup1\n      iszero\n      tag_204\n      jumpi\n      returndatasize\n      0x00\n      dup1\n      returndatacopy\n      revert(0x00, returndatasize)\n    tag_204:\n      pop\n      pop\n      pop\n      pop\n      mload(0x40)\n      returndatasize\n      0x20\n      dup2\n      lt\n      iszero\n      tag_205\n      jumpi\n      0x00\n      dup1\n      revert\n    tag_205:\n      dup2\n      add\n      swap1\n      dup1\n      dup1\n      mload\n      swap1\n      0x20\n      add\n      swap1\n      swap3\n      swap2\n      swap1\n      pop\n      pop\n      pop\n        /* \"contracts/distribution/TombGenesisRewardPool.sol\":7315:7372  uint256 tokenSupply = pool.token.balanceOf(address(this)) */\n      swap1\n      pop\n        /* \"contracts/distribution/TombGenesisRewardPool.sol\":7402:7403  0 */\n      0x00\n        /* \"contracts/distribution/TombGenesisRewardPool.sol\":7387:7398  tokenSupply */\n      dup2\n        /* \"contracts/distribution/TombGenesisRewardPool.sol\":7387:7403  tokenSupply == 0 */\n      eq\n        /* \"contracts/distribution/TombGenesisRewardPool.sol\":7383:7490  if (tokenSupply == 0) {\r... */\n      iszero\n      tag_206\n      jumpi\n        /* \"contracts/distribution/TombGenesisRewardPool.sol\":7442:7457  block.timestamp */\n      timestamp\n        /* \"contracts/distribution/TombGenesisRewardPool.sol\":7420:7424  pool */\n      dup3\n        /* \"contracts/distribution/TombGenesisRewardPool.sol\":7420:7439  pool.lastRewardTime */\n      0x02\n      add\n        /* \"contracts/distribution/TombGenesisRewardPool.sol\":7420:7457  pool.lastRewardTime = block.timestamp */\n      dup2\n      swap1\n      sstore\n      pop\n        /* \"contracts/distribution/TombGenesisRewardPool.sol\":7472:7479  return; */\n      pop\n      pop\n      jump(tag_198)\n        /* \"contracts/distribution/TombGenesisRewardPool.sol\":7383:7490  if (tokenSupply == 0) {\r... */\n    tag_206:\n        /* \"contracts/distribution/TombGenesisRewardPool.sol\":7505:7509  pool */\n      dup2\n        /* \"contracts/distribution/TombGenesisRewardPool.sol\":7505:7519  pool.isStarted */\n      0x04\n      add\n      0x00\n      swap1\n      sload\n      swap1\n      0x0100\n      exp\n      swap1\n      div\n      0xff\n      and\n        /* \"contracts/distribution/TombGenesisRewardPool.sol\":7500:7638  if (!pool.isStarted) {\r... */\n      tag_207\n      jumpi\n        /* \"contracts/distribution/TombGenesisRewardPool.sol\":7553:7557  true */\n      0x01\n        /* \"contracts/distribution/TombGenesisRewardPool.sol\":7536:7540  pool */\n      dup3\n        /* \"contracts/distribution/TombGenesisRewardPool.sol\":7536:7550  pool.isStarted */\n      0x04\n      add\n      0x00\n        /* \"contracts/distribution/TombGenesisRewardPool.sol\":7536:7557  pool.isStarted = true */\n      0x0100\n      exp\n      dup2\n      sload\n      dup2\n      0xff\n      mul\n      not\n      and\n      swap1\n      dup4\n      iszero\n      iszero\n      mul\n      or\n      swap1\n      sstore\n      pop\n        /* \"contracts/distribution/TombGenesisRewardPool.sol\":7590:7626  totalAllocPoint.add(pool.allocPoint) */\n      tag_208\n        /* \"contracts/distribution/TombGenesisRewardPool.sol\":7610:7614  pool */\n      dup3\n        /* \"contracts/distribution/TombGenesisRewardPool.sol\":7610:7625  pool.allocPoint */\n      0x01\n      add\n      sload\n        /* \"contracts/distribution/TombGenesisRewardPool.sol\":7590:7605  totalAllocPoint */\n      sload(0x09)\n        /* \"contracts/distribution/TombGenesisRewardPool.sol\":7590:7609  totalAllocPoint.add */\n      tag_133\n      swap1\n        /* \"contracts/distribution/TombGenesisRewardPool.sol\":7590:7626  totalAllocPoint.add(pool.allocPoint) */\n      swap2\n      swap1\n      0xffffffff\n      and\n      jump\t// in\n    tag_208:\n        /* \"contracts/distribution/TombGenesisRewardPool.sol\":7572:7587  totalAllocPoint */\n      0x09\n        /* \"contracts/distribution/TombGenesisRewardPool.sol\":7572:7626  totalAllocPoint = totalAllocPoint.add(pool.allocPoint) */\n      dup2\n      swap1\n      sstore\n      pop\n        /* \"contracts/distribution/TombGenesisRewardPool.sol\":7500:7638  if (!pool.isStarted) {\r... */\n    tag_207:\n        /* \"contracts/distribution/TombGenesisRewardPool.sol\":7670:7671  0 */\n      0x00\n        /* \"contracts/distribution/TombGenesisRewardPool.sol\":7652:7667  totalAllocPoint */\n      sload(0x09)\n        /* \"contracts/distribution/TombGenesisRewardPool.sol\":7652:7671  totalAllocPoint > 0 */\n      gt\n        /* \"contracts/distribution/TombGenesisRewardPool.sol\":7648:7980  if (totalAllocPoint > 0) {\r... */\n      iszero\n      tag_209\n      jumpi\n        /* \"contracts/distribution/TombGenesisRewardPool.sol\":7688:7712  uint256 _generatedReward */\n      0x00\n        /* \"contracts/distribution/TombGenesisRewardPool.sol\":7715:7771  getGeneratedReward(pool.lastRewardTime, block.timestamp) */\n      tag_210\n        /* \"contracts/distribution/TombGenesisRewardPool.sol\":7734:7738  pool */\n      dup4\n        /* \"contracts/distribution/TombGenesisRewardPool.sol\":7734:7753  pool.lastRewardTime */\n      0x02\n      add\n      sload\n        /* \"contracts/distribution/TombGenesisRewardPool.sol\":7755:7770  block.timestamp */\n      timestamp\n        /* \"contracts/distribution/TombGenesisRewardPool.sol\":7715:7733  getGeneratedReward */\n      tag_58\n        /* \"contracts/distribution/TombGenesisRewardPool.sol\":7715:7771  getGeneratedReward(pool.lastRewardTime, block.timestamp) */\n      jump\t// in\n    tag_210:\n        /* \"contracts/distribution/TombGenesisRewardPool.sol\":7688:7771  uint256 _generatedReward = getGeneratedReward(pool.lastRewardTime, block.timestamp) */\n      swap1\n      pop\n        /* \"contracts/distribution/TombGenesisRewardPool.sol\":7786:7805  uint256 _PolyReward */\n      0x00\n        /* \"contracts/distribution/TombGenesisRewardPool.sol\":7808:7866  _generatedReward.mul(pool.allocPoint).div(totalAllocPoint) */\n      tag_211\n        /* \"contracts/distribution/TombGenesisRewardPool.sol\":7850:7865  totalAllocPoint */\n      sload(0x09)\n        /* \"contracts/distribution/TombGenesisRewardPool.sol\":7808:7845  _generatedReward.mul(pool.allocPoint) */\n      tag_212\n        /* \"contracts/distribution/TombGenesisRewardPool.sol\":7829:7833  pool */\n      dup7\n        /* \"contracts/distribution/TombGenesisRewardPool.sol\":7829:7844  pool.allocPoint */\n      0x01\n      add\n      sload\n        /* \"contracts/distribution/TombGenesisRewardPool.sol\":7808:7824  _generatedReward */\n      dup6\n        /* \"contracts/distribution/TombGenesisRewardPool.sol\":7808:7828  _generatedReward.mul */\n      tag_141\n      swap1\n        /* \"contracts/distribution/TombGenesisRewardPool.sol\":7808:7845  _generatedReward.mul(pool.allocPoint) */\n      swap2\n      swap1\n      0xffffffff\n      and\n      jump\t// in\n    tag_212:\n        /* \"contracts/distribution/TombGenesisRewardPool.sol\":7808:7849  _generatedReward.mul(pool.allocPoint).div */\n      tag_168\n      swap1\n        /* \"contracts/distribution/TombGenesisRewardPool.sol\":7808:7866  _generatedReward.mul(pool.allocPoint).div(totalAllocPoint) */\n      swap2\n      swap1\n      0xffffffff\n      and\n      jump\t// in\n    tag_211:\n        /* \"contracts/distribution/TombGenesisRewardPool.sol\":7786:7866  uint256 _PolyReward = _generatedReward.mul(pool.allocPoint).div(totalAllocPoint) */\n      swap1\n      pop\n        /* \"contracts/distribution/TombGenesisRewardPool.sol\":7904:7968  pool.accPolyPerShare.add(_PolyReward.mul(1e18).div(tokenSupply)) */\n      tag_213\n        /* \"contracts/distribution/TombGenesisRewardPool.sol\":7929:7967  _PolyReward.mul(1e18).div(tokenSupply) */\n      tag_214\n        /* \"contracts/distribution/TombGenesisRewardPool.sol\":7955:7966  tokenSupply */\n      dup5\n        /* \"contracts/distribution/TombGenesisRewardPool.sol\":7929:7950  _PolyReward.mul(1e18) */\n      tag_215\n        /* \"contracts/distribution/TombGenesisRewardPool.sol\":7945:7949  1e18 */\n      0x0de0b6b3a7640000\n        /* \"contracts/distribution/TombGenesisRewardPool.sol\":7929:7940  _PolyReward */\n      dup6\n        /* \"contracts/distribution/TombGenesisRewardPool.sol\":7929:7944  _PolyReward.mul */\n      tag_141\n      swap1\n        /* \"contracts/distribution/TombGenesisRewardPool.sol\":7929:7950  _PolyReward.mul(1e18) */\n      swap2\n      swap1\n      0xffffffff\n      and\n      jump\t// in\n    tag_215:\n        /* \"contracts/distribution/TombGenesisRewardPool.sol\":7929:7954  _PolyReward.mul(1e18).div */\n      tag_168\n      swap1\n        /* \"contracts/distribution/TombGenesisRewardPool.sol\":7929:7967  _PolyReward.mul(1e18).div(tokenSupply) */\n      swap2\n      swap1\n      0xffffffff\n      and\n      jump\t// in\n    tag_214:\n        /* \"contracts/distribution/TombGenesisRewardPool.sol\":7904:7908  pool */\n      dup6\n        /* \"contracts/distribution/TombGenesisRewardPool.sol\":7904:7924  pool.accPolyPerShare */\n      0x03\n      add\n      sload\n        /* \"contracts/distribution/TombGenesisRewardPool.sol\":7904:7928  pool.accPolyPerShare.add */\n      tag_133\n      swap1\n        /* \"contracts/distribution/TombGenesisRewardPool.sol\":7904:7968  pool.accPolyPerShare.add(_PolyReward.mul(1e18).div(tokenSupply)) */\n      swap2\n      swap1\n      0xffffffff\n      and\n      jump\t// in\n    tag_213:\n        /* \"contracts/distribution/TombGenesisRewardPool.sol\":7881:7885  pool */\n      dup5\n        /* \"contracts/distribution/TombGenesisRewardPool.sol\":7881:7901  pool.accPolyPerShare */\n      0x03\n      add\n        /* \"contracts/distribution/TombGenesisRewardPool.sol\":7881:7968  pool.accPolyPerShare = pool.accPolyPerShare.add(_PolyReward.mul(1e18).div(tokenSupply)) */\n      dup2\n      swap1\n      sstore\n      pop\n        /* \"contracts/distribution/TombGenesisRewardPool.sol\":7648:7980  if (totalAllocPoint > 0) {\r... */\n      pop\n      pop\n    tag_209:\n        /* \"contracts/distribution/TombGenesisRewardPool.sol\":8012:8027  block.timestamp */\n      timestamp\n        /* \"contracts/distribution/TombGenesisRewardPool.sol\":7990:7994  pool */\n      dup3\n        /* \"contracts/distribution/TombGenesisRewardPool.sol\":7990:8009  pool.lastRewardTime */\n      0x02\n      add\n        /* \"contracts/distribution/TombGenesisRewardPool.sol\":7990:8027  pool.lastRewardTime = block.timestamp */\n      dup2\n      swap1\n      sstore\n      pop\n        /* \"contracts/distribution/TombGenesisRewardPool.sol\":7127:8035  function updatePool(uint256 _pid) public {\r... */\n      pop\n      pop\n    tag_198:\n      pop\n      jump\t// out\n        /* \"contracts/distribution/TombGenesisRewardPool.sol\":10335:10712  function emergencyWithdraw(uint256 _pid) public {\r... */\n    tag_81:\n        /* \"contracts/distribution/TombGenesisRewardPool.sol\":10394:10415  PoolInfo storage pool */\n      0x00\n        /* \"contracts/distribution/TombGenesisRewardPool.sol\":10418:10426  poolInfo */\n      0x06\n        /* \"contracts/distribution/TombGenesisRewardPool.sol\":10427:10431  _pid */\n      dup3\n        /* \"contracts/distribution/TombGenesisRewardPool.sol\":10418:10432  poolInfo[_pid] */\n      dup2\n      sload\n      dup2\n      lt\n      tag_217\n      jumpi\n      invalid\n    tag_217:\n      swap1\n      0x00\n      mstore\n      keccak256(0x00, 0x20)\n      swap1\n      0x05\n      mul\n      add\n        /* \"contracts/distribution/TombGenesisRewardPool.sol\":10394:10432  PoolInfo storage pool = poolInfo[_pid] */\n      swap1\n      pop\n        /* \"contracts/distribution/TombGenesisRewardPool.sol\":10443:10464  UserInfo storage user */\n      0x00\n        /* \"contracts/distribution/TombGenesisRewardPool.sol\":10467:10475  userInfo */\n      0x08\n        /* \"contracts/distribution/TombGenesisRewardPool.sol\":10467:10481  userInfo[_pid] */\n      0x00\n        /* \"contracts/distribution/TombGenesisRewardPool.sol\":10476:10480  _pid */\n      dup5\n        /* \"contracts/distribution/TombGenesisRewardPool.sol\":10467:10481  userInfo[_pid] */\n      dup2\n      mstore\n      0x20\n      add\n      swap1\n      dup2\n      mstore\n      0x20\n      add\n      0x00\n      keccak256\n        /* \"contracts/distribution/TombGenesisRewardPool.sol\":10467:10493  userInfo[_pid][msg.sender] */\n      0x00\n        /* \"contracts/distribution/TombGenesisRewardPool.sol\":10482:10492  msg.sender */\n      caller\n        /* \"contracts/distribution/TombGenesisRewardPool.sol\":10467:10493  userInfo[_pid][msg.sender] */\n      0xffffffffffffffffffffffffffffffffffffffff\n      and\n      0xffffffffffffffffffffffffffffffffffffffff\n      and\n      dup2\n      mstore\n      0x20\n      add\n      swap1\n      dup2\n      mstore\n      0x20\n      add\n      0x00\n      keccak256\n        /* \"contracts/distribution/TombGenesisRewardPool.sol\":10443:10493  UserInfo storage user = userInfo[_pid][msg.sender] */\n      swap1\n      pop\n        /* \"contracts/distribution/TombGenesisRewardPool.sol\":10504:10519  uint256 _amount */\n      0x00\n        /* \"contracts/distribution/TombGenesisRewardPool.sol\":10522:10526  user */\n      dup2\n        /* \"contracts/distribution/TombGenesisRewardPool.sol\":10522:10533  user.amount */\n      0x00\n      add\n      sload\n        /* \"contracts/distribution/TombGenesisRewardPool.sol\":10504:10533  uint256 _amount = user.amount */\n      swap1\n      pop\n        /* \"contracts/distribution/TombGenesisRewardPool.sol\":10558:10559  0 */\n      0x00\n        /* \"contracts/distribution/TombGenesisRewardPool.sol\":10544:10548  user */\n      dup3\n        /* \"contracts/distribution/TombGenesisRewardPool.sol\":10544:10555  user.amount */\n      0x00\n      add\n        /* \"contracts/distribution/TombGenesisRewardPool.sol\":10544:10559  user.amount = 0 */\n      dup2\n      swap1\n      sstore\n      pop\n        /* \"contracts/distribution/TombGenesisRewardPool.sol\":10588:10589  0 */\n      0x00\n        /* \"contracts/distribution/TombGenesisRewardPool.sol\":10570:10574  user */\n      dup3\n        /* \"contracts/distribution/TombGenesisRewardPool.sol\":10570:10585  user.rewardDebt */\n      0x01\n      add\n        /* \"contracts/distribution/TombGenesisRewardPool.sol\":10570:10589  user.rewardDebt = 0 */\n      dup2\n      swap1\n      sstore\n      pop\n        /* \"contracts/distribution/TombGenesisRewardPool.sol\":10600:10644  pool.token.safeTransfer(msg.sender, _amount) */\n      tag_219\n        /* \"contracts/distribution/TombGenesisRewardPool.sol\":10624:10634  msg.sender */\n      caller\n        /* \"contracts/distribution/TombGenesisRewardPool.sol\":10636:10643  _amount */\n      dup3\n        /* \"contracts/distribution/TombGenesisRewardPool.sol\":10600:10604  pool */\n      dup6\n        /* \"contracts/distribution/TombGenesisRewardPool.sol\":10600:10610  pool.token */\n      0x00\n      add\n      0x00\n      swap1\n      sload\n      swap1\n      0x0100\n      exp\n      swap1\n      div\n      0xffffffffffffffffffffffffffffffffffffffff\n      and\n        /* \"contracts/distribution/TombGenesisRewardPool.sol\":10600:10623  pool.token.safeTransfer */\n      0xffffffffffffffffffffffffffffffffffffffff\n      and\n      tag_175\n      swap1\n        /* \"contracts/distribution/TombGenesisRewardPool.sol\":10600:10644  pool.token.safeTransfer(msg.sender, _amount) */\n      swap3\n      swap2\n      swap1\n      0xffffffff\n      and\n      jump\t// in\n    tag_219:\n        /* \"contracts/distribution/TombGenesisRewardPool.sol\":10690:10694  _pid */\n      dup4\n        /* \"contracts/distribution/TombGenesisRewardPool.sol\":10678:10688  msg.sender */\n      caller\n        /* \"contracts/distribution/TombGenesisRewardPool.sol\":10660:10704  EmergencyWithdraw(msg.sender, _pid, _amount) */\n      0xffffffffffffffffffffffffffffffffffffffff\n      and\n      0xbb757047c2b5f3974fe26b7c10f732e7bce710b0952a71082702781e62ae0595\n        /* \"contracts/distribution/TombGenesisRewardPool.sol\":10696:10703  _amount */\n      dup4\n        /* \"contracts/distribution/TombGenesisRewardPool.sol\":10660:10704  EmergencyWithdraw(msg.sender, _pid, _amount) */\n      mload(0x40)\n      dup1\n      dup3\n      dup2\n      mstore\n      0x20\n      add\n      swap2\n      pop\n      pop\n      mload(0x40)\n      dup1\n      swap2\n      sub\n      swap1\n      log3\n        /* \"contracts/distribution/TombGenesisRewardPool.sol\":10335:10712  function emergencyWithdraw(uint256 _pid) public {\r... */\n      pop\n      pop\n      pop\n      pop\n      jump\t// out\n        /* \"contracts/distribution/TombGenesisRewardPool.sol\":11321:11925  function governanceRecoverUnsupported(IERC20 _token, uint256 amount, address to) external onlyOperator {\r... */\n    tag_84:\n        /* \"contracts/owner/Operator.sol\":684:694  msg.sender */\n      caller\n        /* \"contracts/owner/Operator.sol\":671:694  _operator == msg.sender */\n      0xffffffffffffffffffffffffffffffffffffffff\n      and\n        /* \"contracts/owner/Operator.sol\":671:680  _operator */\n      0x01\n      0x00\n      swap1\n      sload\n      swap1\n      0x0100\n      exp\n      swap1\n      div\n      0xffffffffffffffffffffffffffffffffffffffff\n      and\n        /* \"contracts/owner/Operator.sol\":671:694  _operator == msg.sender */\n      0xffffffffffffffffffffffffffffffffffffffff\n      and\n      eq\n        /* \"contracts/owner/Operator.sol\":649:758  require(\r... */\n      tag_221\n      jumpi\n      mload(0x40)\n      0x08c379a000000000000000000000000000000000000000000000000000000000\n      dup2\n      mstore\n      0x04\n      add\n      dup1\n      dup1\n      0x20\n      add\n      dup3\n      dup2\n      sub\n      dup3\n      mstore\n      0x24\n      dup2\n      mstore\n      0x20\n      add\n      dup1\n      data_a62bfdba5053072911b63b0f6325b0e83fcd28b5a847d97efdd966feb4daaafb\n      0x24\n      swap2\n      codecopy\n      0x40\n      add\n      swap2\n      pop\n      pop\n      mload(0x40)\n      dup1\n      swap2\n      sub\n      swap1\n      revert\n    tag_221:\n        /* \"contracts/distribution/TombGenesisRewardPool.sol\":11471:11478  90 days */\n      0x76a700\n        /* \"contracts/distribution/TombGenesisRewardPool.sol\":11457:11468  poolEndTime */\n      sload(0x0b)\n        /* \"contracts/distribution/TombGenesisRewardPool.sol\":11457:11478  poolEndTime + 90 days */\n      add\n        /* \"contracts/distribution/TombGenesisRewardPool.sol\":11439:11454  block.timestamp */\n      timestamp\n        /* \"contracts/distribution/TombGenesisRewardPool.sol\":11439:11478  block.timestamp < poolEndTime + 90 days */\n      lt\n        /* \"contracts/distribution/TombGenesisRewardPool.sol\":11435:11876  if (block.timestamp < poolEndTime + 90 days) {\r... */\n      iszero\n      tag_223\n      jumpi\n        /* \"contracts/distribution/TombGenesisRewardPool.sol\":11613:11617  Poly */\n      0x02\n      0x00\n      swap1\n      sload\n      swap1\n      0x0100\n      exp\n      swap1\n      div\n      0xffffffffffffffffffffffffffffffffffffffff\n      and\n        /* \"contracts/distribution/TombGenesisRewardPool.sol\":11603:11617  _token != Poly */\n      0xffffffffffffffffffffffffffffffffffffffff\n      and\n        /* \"contracts/distribution/TombGenesisRewardPool.sol\":11603:11609  _token */\n      dup4\n        /* \"contracts/distribution/TombGenesisRewardPool.sol\":11603:11617  _token != Poly */\n      0xffffffffffffffffffffffffffffffffffffffff\n      and\n      eq\n      iszero\n        /* \"contracts/distribution/TombGenesisRewardPool.sol\":11595:11626  require(_token != Poly, \"Poly\") */\n      tag_224\n      jumpi\n      mload(0x40)\n      0x08c379a000000000000000000000000000000000000000000000000000000000\n      dup2\n      mstore\n      0x04\n      add\n      dup1\n      dup1\n      0x20\n      add\n      dup3\n      dup2\n      sub\n      dup3\n      mstore\n      0x04\n      dup2\n      mstore\n      0x20\n      add\n      dup1\n      0x506f6c7900000000000000000000000000000000000000000000000000000000\n      dup2\n      mstore\n      pop\n      0x20\n      add\n      swap2\n      pop\n      pop\n      mload(0x40)\n      dup1\n      swap2\n      sub\n      swap1\n      revert\n    tag_224:\n        /* \"contracts/distribution/TombGenesisRewardPool.sol\":11641:11655  uint256 length */\n      0x00\n        /* \"contracts/distribution/TombGenesisRewardPool.sol\":11658:11666  poolInfo */\n      0x06\n        /* \"contracts/distribution/TombGenesisRewardPool.sol\":11658:11673  poolInfo.length */\n      dup1\n      sload\n      swap1\n      pop\n        /* \"contracts/distribution/TombGenesisRewardPool.sol\":11641:11673  uint256 length = poolInfo.length */\n      swap1\n      pop\n        /* \"contracts/distribution/TombGenesisRewardPool.sol\":11693:11704  uint256 pid */\n      0x00\n        /* \"contracts/distribution/TombGenesisRewardPool.sol\":11688:11865  for (uint256 pid = 0; pid < length; ++pid) {\r... */\n    tag_225:\n        /* \"contracts/distribution/TombGenesisRewardPool.sol\":11716:11722  length */\n      dup2\n        /* \"contracts/distribution/TombGenesisRewardPool.sol\":11710:11713  pid */\n      dup2\n        /* \"contracts/distribution/TombGenesisRewardPool.sol\":11710:11722  pid < length */\n      lt\n        /* \"contracts/distribution/TombGenesisRewardPool.sol\":11688:11865  for (uint256 pid = 0; pid < length; ++pid) {\r... */\n      iszero\n      tag_226\n      jumpi\n        /* \"contracts/distribution/TombGenesisRewardPool.sol\":11750:11771  PoolInfo storage pool */\n      0x00\n        /* \"contracts/distribution/TombGenesisRewardPool.sol\":11774:11782  poolInfo */\n      0x06\n        /* \"contracts/distribution/TombGenesisRewardPool.sol\":11783:11786  pid */\n      dup3\n        /* \"contracts/distribution/TombGenesisRewardPool.sol\":11774:11787  poolInfo[pid] */\n      dup2\n      sload\n      dup2\n      lt\n      tag_228\n      jumpi\n      invalid\n    tag_228:\n      swap1\n      0x00\n      mstore\n      keccak256(0x00, 0x20)\n      swap1\n      0x05\n      mul\n      add\n        /* \"contracts/distribution/TombGenesisRewardPool.sol\":11750:11787  PoolInfo storage pool = poolInfo[pid] */\n      swap1\n      pop\n        /* \"contracts/distribution/TombGenesisRewardPool.sol\":11824:11828  pool */\n      dup1\n        /* \"contracts/distribution/TombGenesisRewardPool.sol\":11824:11834  pool.token */\n      0x00\n      add\n      0x00\n      swap1\n      sload\n      swap1\n      0x0100\n      exp\n      swap1\n      div\n      0xffffffffffffffffffffffffffffffffffffffff\n      and\n        /* \"contracts/distribution/TombGenesisRewardPool.sol\":11814:11834  _token != pool.token */\n      0xffffffffffffffffffffffffffffffffffffffff\n      and\n        /* \"contracts/distribution/TombGenesisRewardPool.sol\":11814:11820  _token */\n      dup7\n        /* \"contracts/distribution/TombGenesisRewardPool.sol\":11814:11834  _token != pool.token */\n      0xffffffffffffffffffffffffffffffffffffffff\n      and\n      eq\n      iszero\n        /* \"contracts/distribution/TombGenesisRewardPool.sol\":11806:11849  require(_token != pool.token, \"pool.token\") */\n      tag_230\n      jumpi\n      mload(0x40)\n      0x08c379a000000000000000000000000000000000000000000000000000000000\n      dup2\n      mstore\n      0x04\n      add\n      dup1\n      dup1\n      0x20\n      add\n      dup3\n      dup2\n      sub\n      dup3\n      mstore\n      0x0a\n      dup2\n      mstore\n      0x20\n      add\n      dup1\n      0x706f6f6c2e746f6b656e00000000000000000000000000000000000000000000\n      dup2\n      mstore\n      pop\n      0x20\n      add\n      swap2\n      pop\n      pop\n      mload(0x40)\n      dup1\n      swap2\n      sub\n      swap1\n      revert\n    tag_230:\n        /* \"contracts/distribution/TombGenesisRewardPool.sol\":11688:11865  for (uint256 pid = 0; pid < length; ++pid) {\r... */\n      pop\n        /* \"contracts/distribution/TombGenesisRewardPool.sol\":11724:11729  ++pid */\n      dup1\n      0x01\n      add\n      swap1\n      pop\n        /* \"contracts/distribution/TombGenesisRewardPool.sol\":11688:11865  for (uint256 pid = 0; pid < length; ++pid) {\r... */\n      jump(tag_225)\n    tag_226:\n      pop\n        /* \"contracts/distribution/TombGenesisRewardPool.sol\":11435:11876  if (block.timestamp < poolEndTime + 90 days) {\r... */\n      pop\n    tag_223:\n        /* \"contracts/distribution/TombGenesisRewardPool.sol\":11886:11917  _token.safeTransfer(to, amount) */\n      tag_231\n        /* \"contracts/distribution/TombGenesisRewardPool.sol\":11906:11908  to */\n      dup2\n        /* \"contracts/distribution/TombGenesisRewardPool.sol\":11910:11916  amount */\n      dup4\n        /* \"contracts/distribution/TombGenesisRewardPool.sol\":11886:11892  _token */\n      dup6\n        /* \"contracts/distribution/TombGenesisRewardPool.sol\":11886:11905  _token.safeTransfer */\n      0xffffffffffffffffffffffffffffffffffffffff\n      and\n      tag_175\n      swap1\n        /* \"contracts/distribution/TombGenesisRewardPool.sol\":11886:11917  _token.safeTransfer(to, amount) */\n      swap3\n      swap2\n      swap1\n      0xffffffff\n      and\n      jump\t// in\n    tag_231:\n        /* \"contracts/distribution/TombGenesisRewardPool.sol\":11321:11925  function governanceRecoverUnsupported(IERC20 _token, uint256 amount, address to) external onlyOperator {\r... */\n      pop\n      pop\n      pop\n      jump\t// out\n        /* \"contracts/owner/Operator.sol\":521:606  function operator() public view returns (address) {\r... */\n    tag_86:\n        /* \"contracts/owner/Operator.sol\":562:569  address */\n      0x00\n        /* \"contracts/owner/Operator.sol\":589:598  _operator */\n      0x01\n      0x00\n      swap1\n      sload\n      swap1\n      0x0100\n      exp\n      swap1\n      div\n      0xffffffffffffffffffffffffffffffffffffffff\n      and\n        /* \"contracts/owner/Operator.sol\":582:598  return _operator */\n      swap1\n      pop\n        /* \"contracts/owner/Operator.sol\":521:606  function operator() public view returns (address) {\r... */\n      swap1\n      jump\t// out\n        /* \"contracts/distribution/TombGenesisRewardPool.sol\":1755:1783  uint256 public poolStartTime */\n    tag_88:\n      sload(0x0a)\n      dup2\n      jump\t// out\n        /* \"contracts/distribution/TombGenesisRewardPool.sol\":6871:7051  function massUpdatePools() public {\r... */\n    tag_90:\n        /* \"contracts/distribution/TombGenesisRewardPool.sol\":6916:6930  uint256 length */\n      0x00\n        /* \"contracts/distribution/TombGenesisRewardPool.sol\":6933:6941  poolInfo */\n      0x06\n        /* \"contracts/distribution/TombGenesisRewardPool.sol\":6933:6948  poolInfo.length */\n      dup1\n      sload\n      swap1\n      pop\n        /* \"contracts/distribution/TombGenesisRewardPool.sol\":6916:6948  uint256 length = poolInfo.length */\n      swap1\n      pop\n        /* \"contracts/distribution/TombGenesisRewardPool.sol\":6964:6975  uint256 pid */\n      0x00\n        /* \"contracts/distribution/TombGenesisRewardPool.sol\":6959:7044  for (uint256 pid = 0; pid < length; ++pid) {\r... */\n    tag_234:\n        /* \"contracts/distribution/TombGenesisRewardPool.sol\":6987:6993  length */\n      dup2\n        /* \"contracts/distribution/TombGenesisRewardPool.sol\":6981:6984  pid */\n      dup2\n        /* \"contracts/distribution/TombGenesisRewardPool.sol\":6981:6993  pid < length */\n      lt\n        /* \"contracts/distribution/TombGenesisRewardPool.sol\":6959:7044  for (uint256 pid = 0; pid < length; ++pid) {\r... */\n      iszero\n      tag_235\n      jumpi\n        /* \"contracts/distribution/TombGenesisRewardPool.sol\":7017:7032  updatePool(pid) */\n      tag_237\n        /* \"contracts/distribution/TombGenesisRewardPool.sol\":7028:7031  pid */\n      dup2\n        /* \"contracts/distribution/TombGenesisRewardPool.sol\":7017:7027  updatePool */\n      tag_78\n        /* \"contracts/distribution/TombGenesisRewardPool.sol\":7017:7032  updatePool(pid) */\n      jump\t// in\n    tag_237:\n        /* \"contracts/distribution/TombGenesisRewardPool.sol\":6995:7000  ++pid */\n      dup1\n      0x01\n      add\n      swap1\n      pop\n        /* \"contracts/distribution/TombGenesisRewardPool.sol\":6959:7044  for (uint256 pid = 0; pid < length; ++pid) {\r... */\n      jump(tag_234)\n    tag_235:\n      pop\n        /* \"contracts/distribution/TombGenesisRewardPool.sol\":6871:7051  function massUpdatePools() public {\r... */\n      pop\n      jump\t// out\n        /* \"contracts/distribution/TombGenesisRewardPool.sol\":1832:1858  uint256 public poolEndTime */\n    tag_92:\n      sload(0x0b)\n      dup2\n      jump\t// out\n        /* \"@openzeppelin/contracts/access/Ownable.sol\":1771:1916  function renounceOwnership() public virtual onlyOwner {... */\n    tag_94:\n        /* \"@openzeppelin/contracts/access/Ownable.sol\":1362:1374  _msgSender() */\n      tag_239\n        /* \"@openzeppelin/contracts/access/Ownable.sol\":1362:1372  _msgSender */\n      tag_153\n        /* \"@openzeppelin/contracts/access/Ownable.sol\":1362:1374  _msgSender() */\n      jump\t// in\n    tag_239:\n        /* \"@openzeppelin/contracts/access/Ownable.sol\":1351:1374  owner() == _msgSender() */\n      0xffffffffffffffffffffffffffffffffffffffff\n      and\n        /* \"@openzeppelin/contracts/access/Ownable.sol\":1351:1358  owner() */\n      tag_240\n        /* \"@openzeppelin/contracts/access/Ownable.sol\":1351:1356  owner */\n      tag_96\n        /* \"@openzeppelin/contracts/access/Ownable.sol\":1351:1358  owner() */\n      jump\t// in\n    tag_240:\n        /* \"@openzeppelin/contracts/access/Ownable.sol\":1351:1374  owner() == _msgSender() */\n      0xffffffffffffffffffffffffffffffffffffffff\n      and\n      eq\n        /* \"@openzeppelin/contracts/access/Ownable.sol\":1343:1411  require(owner() == _msgSender(), \"Ownable: caller is not the owner\") */\n      tag_241\n      jumpi\n      mload(0x40)\n      0x08c379a000000000000000000000000000000000000000000000000000000000\n      dup2\n      mstore\n      0x04\n      add\n      dup1\n      dup1\n      0x20\n      add\n      dup3\n      dup2\n      sub\n      dup3\n      mstore\n      0x20\n      dup2\n      mstore\n      0x20\n      add\n      dup1\n      0x4f776e61626c653a2063616c6c6572206973206e6f7420746865206f776e6572\n      dup2\n      mstore\n      pop\n      0x20\n      add\n      swap2\n      pop\n      pop\n      mload(0x40)\n      dup1\n      swap2\n      sub\n      swap1\n      revert\n    tag_241:\n        /* \"@openzeppelin/contracts/access/Ownable.sol\":1877:1878  0 */\n      0x00\n        /* \"@openzeppelin/contracts/access/Ownable.sol\":1840:1880  OwnershipTransferred(_owner, address(0)) */\n      0xffffffffffffffffffffffffffffffffffffffff\n      and\n        /* \"@openzeppelin/contracts/access/Ownable.sol\":1861:1867  _owner */\n      0x00\n      dup1\n      sload\n      swap1\n      0x0100\n      exp\n      swap1\n      div\n      0xffffffffffffffffffffffffffffffffffffffff\n      and\n        /* \"@openzeppelin/contracts/access/Ownable.sol\":1840:1880  OwnershipTransferred(_owner, address(0)) */\n      0xffffffffffffffffffffffffffffffffffffffff\n      and\n      0x8be0079c531659141344cd1fd0a4f28419497f9722a3daafe3b4186f6b6457e0\n      mload(0x40)\n      mload(0x40)\n      dup1\n      swap2\n      sub\n      swap1\n      log3\n        /* \"@openzeppelin/contracts/access/Ownable.sol\":1907:1908  0 */\n      0x00\n        /* \"@openzeppelin/contracts/access/Ownable.sol\":1890:1896  _owner */\n      dup1\n      0x00\n        /* \"@openzeppelin/contracts/access/Ownable.sol\":1890:1909  _owner = address(0) */\n      0x0100\n      exp\n      dup2\n      sload\n      dup2\n      0xffffffffffffffffffffffffffffffffffffffff\n      mul\n      not\n      and\n      swap1\n      dup4\n      0xffffffffffffffffffffffffffffffffffffffff\n      and\n      mul\n      or\n      swap1\n      sstore\n      pop\n        /* \"@openzeppelin/contracts/access/Ownable.sol\":1771:1916  function renounceOwnership() public virtual onlyOwner {... */\n      jump\t// out\n        /* \"@openzeppelin/contracts/access/Ownable.sol\":1139:1224  function owner() public view virtual returns (address) {... */\n    tag_96:\n        /* \"@openzeppelin/contracts/access/Ownable.sol\":1185:1192  address */\n      0x00\n        /* \"@openzeppelin/contracts/access/Ownable.sol\":1211:1217  _owner */\n      dup1\n      0x00\n      swap1\n      sload\n      swap1\n      0x0100\n      exp\n      swap1\n      div\n      0xffffffffffffffffffffffffffffffffffffffff\n      and\n        /* \"@openzeppelin/contracts/access/Ownable.sol\":1204:1217  return _owner */\n      swap1\n      pop\n        /* \"@openzeppelin/contracts/access/Ownable.sol\":1139:1224  function owner() public view virtual returns (address) {... */\n      swap1\n      jump\t// out\n        /* \"contracts/distribution/TombGenesisRewardPool.sol\":1509:1573  mapping(uint256 => mapping(address => UserInfo)) public userInfo */\n    tag_99:\n      mstore(0x20, 0x08)\n      dup2\n      0x00\n      mstore\n      mstore(0x20, keccak256(0x00, 0x40))\n      dup1\n      0x00\n      mstore\n      keccak256(0x00, 0x40)\n      0x00\n      swap2\n      pop\n      swap2\n      pop\n      pop\n      dup1\n      0x00\n      add\n      sload\n      swap1\n      dup1\n      0x01\n      add\n      sload\n      swap1\n      pop\n      dup3\n      jump\t// out\n        /* \"contracts/distribution/TombGenesisRewardPool.sol\":1970:2005  uint256 public runningTime = 3 days */\n    tag_101:\n      sload(0x0d)\n      dup2\n      jump\t// out\n        /* \"contracts/distribution/TombGenesisRewardPool.sol\":3499:4775  function add(\r... */\n    tag_104:\n        /* \"contracts/owner/Operator.sol\":684:694  msg.sender */\n      caller\n        /* \"contracts/owner/Operator.sol\":671:694  _operator == msg.sender */\n      0xffffffffffffffffffffffffffffffffffffffff\n      and\n        /* \"contracts/owner/Operator.sol\":671:680  _operator */\n      0x01\n      0x00\n      swap1\n      sload\n      swap1\n      0x0100\n      exp\n      swap1\n      div\n      0xffffffffffffffffffffffffffffffffffffffff\n      and\n        /* \"contracts/owner/Operator.sol\":671:694  _operator == msg.sender */\n      0xffffffffffffffffffffffffffffffffffffffff\n      and\n      eq\n        /* \"contracts/owner/Operator.sol\":649:758  require(\r... */\n      tag_245\n      jumpi\n      mload(0x40)\n      0x08c379a000000000000000000000000000000000000000000000000000000000\n      dup2\n      mstore\n      0x04\n      add\n      dup1\n      dup1\n      0x20\n      add\n      dup3\n      dup2\n      sub\n      dup3\n      mstore\n      0x24\n      dup2\n      mstore\n      0x20\n      add\n      dup1\n      data_a62bfdba5053072911b63b0f6325b0e83fcd28b5a847d97efdd966feb4daaafb\n      0x24\n      swap2\n      codecopy\n      0x40\n      add\n      swap2\n      pop\n      pop\n      mload(0x40)\n      dup1\n      swap2\n      sub\n      swap1\n      revert\n    tag_245:\n        /* \"contracts/distribution/TombGenesisRewardPool.sol\":3665:3691  checkPoolDuplicate(_token) */\n      tag_247\n        /* \"contracts/distribution/TombGenesisRewardPool.sol\":3684:3690  _token */\n      dup4\n        /* \"contracts/distribution/TombGenesisRewardPool.sol\":3665:3683  checkPoolDuplicate */\n      tag_248\n        /* \"contracts/distribution/TombGenesisRewardPool.sol\":3665:3691  checkPoolDuplicate(_token) */\n      jump\t// in\n    tag_247:\n        /* \"contracts/distribution/TombGenesisRewardPool.sol\":3706:3717  _withUpdate */\n      dup2\n        /* \"contracts/distribution/TombGenesisRewardPool.sol\":3702:3763  if (_withUpdate) {\r... */\n      iszero\n      tag_249\n      jumpi\n        /* \"contracts/distribution/TombGenesisRewardPool.sol\":3734:3751  massUpdatePools() */\n      tag_250\n        /* \"contracts/distribution/TombGenesisRewardPool.sol\":3734:3749  massUpdatePools */\n      tag_90\n        /* \"contracts/distribution/TombGenesisRewardPool.sol\":3734:3751  massUpdatePools() */\n      jump\t// in\n    tag_250:\n        /* \"contracts/distribution/TombGenesisRewardPool.sol\":3702:3763  if (_withUpdate) {\r... */\n    tag_249:\n        /* \"contracts/distribution/TombGenesisRewardPool.sol\":3795:3808  poolStartTime */\n      sload(0x0a)\n        /* \"contracts/distribution/TombGenesisRewardPool.sol\":3777:3792  block.timestamp */\n      timestamp\n        /* \"contracts/distribution/TombGenesisRewardPool.sol\":3777:3808  block.timestamp < poolStartTime */\n      lt\n        /* \"contracts/distribution/TombGenesisRewardPool.sol\":3773:4307  if (block.timestamp < poolStartTime) {\r... */\n      iszero\n      tag_251\n      jumpi\n        /* \"contracts/distribution/TombGenesisRewardPool.sol\":3881:3882  0 */\n      0x00\n        /* \"contracts/distribution/TombGenesisRewardPool.sol\":3862:3877  _lastRewardTime */\n      dup2\n        /* \"contracts/distribution/TombGenesisRewardPool.sol\":3862:3882  _lastRewardTime == 0 */\n      eq\n        /* \"contracts/distribution/TombGenesisRewardPool.sol\":3858:4101  if (_lastRewardTime == 0) {\r... */\n      iszero\n      tag_252\n      jumpi\n        /* \"contracts/distribution/TombGenesisRewardPool.sol\":3921:3934  poolStartTime */\n      sload(0x0a)\n        /* \"contracts/distribution/TombGenesisRewardPool.sol\":3903:3934  _lastRewardTime = poolStartTime */\n      swap1\n      pop\n        /* \"contracts/distribution/TombGenesisRewardPool.sol\":3858:4101  if (_lastRewardTime == 0) {\r... */\n      jump(tag_253)\n    tag_252:\n        /* \"contracts/distribution/TombGenesisRewardPool.sol\":3997:4010  poolStartTime */\n      sload(0x0a)\n        /* \"contracts/distribution/TombGenesisRewardPool.sol\":3979:3994  _lastRewardTime */\n      dup2\n        /* \"contracts/distribution/TombGenesisRewardPool.sol\":3979:4010  _lastRewardTime < poolStartTime */\n      lt\n        /* \"contracts/distribution/TombGenesisRewardPool.sol\":3975:4086  if (_lastRewardTime < poolStartTime) {\r... */\n      iszero\n      tag_254\n      jumpi\n        /* \"contracts/distribution/TombGenesisRewardPool.sol\":4053:4066  poolStartTime */\n      sload(0x0a)\n        /* \"contracts/distribution/TombGenesisRewardPool.sol\":4035:4066  _lastRewardTime = poolStartTime */\n      swap1\n      pop\n        /* \"contracts/distribution/TombGenesisRewardPool.sol\":3975:4086  if (_lastRewardTime < poolStartTime) {\r... */\n    tag_254:\n        /* \"contracts/distribution/TombGenesisRewardPool.sol\":3858:4101  if (_lastRewardTime == 0) {\r... */\n    tag_253:\n        /* \"contracts/distribution/TombGenesisRewardPool.sol\":3773:4307  if (block.timestamp < poolStartTime) {\r... */\n      jump(tag_255)\n    tag_251:\n        /* \"contracts/distribution/TombGenesisRewardPool.sol\":4188:4189  0 */\n      0x00\n        /* \"contracts/distribution/TombGenesisRewardPool.sol\":4169:4184  _lastRewardTime */\n      dup2\n        /* \"contracts/distribution/TombGenesisRewardPool.sol\":4169:4189  _lastRewardTime == 0 */\n      eq\n        /* \"contracts/distribution/TombGenesisRewardPool.sol\":4169:4226  _lastRewardTime == 0 || _lastRewardTime < block.timestamp */\n      dup1\n      tag_256\n      jumpi\n      pop\n        /* \"contracts/distribution/TombGenesisRewardPool.sol\":4211:4226  block.timestamp */\n      timestamp\n        /* \"contracts/distribution/TombGenesisRewardPool.sol\":4193:4208  _lastRewardTime */\n      dup2\n        /* \"contracts/distribution/TombGenesisRewardPool.sol\":4193:4226  _lastRewardTime < block.timestamp */\n      lt\n        /* \"contracts/distribution/TombGenesisRewardPool.sol\":4169:4226  _lastRewardTime == 0 || _lastRewardTime < block.timestamp */\n    tag_256:\n        /* \"contracts/distribution/TombGenesisRewardPool.sol\":4165:4296  if (_lastRewardTime == 0 || _lastRewardTime < block.timestamp) {\r... */\n      iszero\n      tag_257\n      jumpi\n        /* \"contracts/distribution/TombGenesisRewardPool.sol\":4265:4280  block.timestamp */\n      timestamp\n        /* \"contracts/distribution/TombGenesisRewardPool.sol\":4247:4280  _lastRewardTime = block.timestamp */\n      swap1\n      pop\n        /* \"contracts/distribution/TombGenesisRewardPool.sol\":4165:4296  if (_lastRewardTime == 0 || _lastRewardTime < block.timestamp) {\r... */\n    tag_257:\n        /* \"contracts/distribution/TombGenesisRewardPool.sol\":3773:4307  if (block.timestamp < poolStartTime) {\r... */\n    tag_255:\n        /* \"contracts/distribution/TombGenesisRewardPool.sol\":4317:4332  bool _isStarted */\n      0x00\n        /* \"contracts/distribution/TombGenesisRewardPool.sol\":4364:4377  poolStartTime */\n      sload(0x0a)\n        /* \"contracts/distribution/TombGenesisRewardPool.sol\":4345:4360  _lastRewardTime */\n      dup3\n        /* \"contracts/distribution/TombGenesisRewardPool.sol\":4345:4377  _lastRewardTime <= poolStartTime */\n      gt\n      iszero\n        /* \"contracts/distribution/TombGenesisRewardPool.sol\":4344:4427  (_lastRewardTime <= poolStartTime) ||\r... */\n      dup1\n      tag_258\n      jumpi\n      pop\n        /* \"contracts/distribution/TombGenesisRewardPool.sol\":4411:4426  block.timestamp */\n      timestamp\n        /* \"contracts/distribution/TombGenesisRewardPool.sol\":4392:4407  _lastRewardTime */\n      dup3\n        /* \"contracts/distribution/TombGenesisRewardPool.sol\":4392:4426  _lastRewardTime <= block.timestamp */\n      gt\n      iszero\n        /* \"contracts/distribution/TombGenesisRewardPool.sol\":4344:4427  (_lastRewardTime <= poolStartTime) ||\r... */\n    tag_258:\n        /* \"contracts/distribution/TombGenesisRewardPool.sol\":4317:4427  bool _isStarted =\r... */\n      swap1\n      pop\n        /* \"contracts/distribution/TombGenesisRewardPool.sol\":4438:4446  poolInfo */\n      0x06\n        /* \"contracts/distribution/TombGenesisRewardPool.sol\":4452:4663  PoolInfo({\r... */\n      mload(0x40)\n      dup1\n      0xa0\n      add\n      0x40\n      mstore\n      dup1\n        /* \"contracts/distribution/TombGenesisRewardPool.sol\":4484:4490  _token */\n      dup7\n        /* \"contracts/distribution/TombGenesisRewardPool.sol\":4452:4663  PoolInfo({\r... */\n      0xffffffffffffffffffffffffffffffffffffffff\n      and\n      dup2\n      mstore\n      0x20\n      add\n        /* \"contracts/distribution/TombGenesisRewardPool.sol\":4518:4529  _allocPoint */\n      dup8\n        /* \"contracts/distribution/TombGenesisRewardPool.sol\":4452:4663  PoolInfo({\r... */\n      dup2\n      mstore\n      0x20\n      add\n        /* \"contracts/distribution/TombGenesisRewardPool.sol\":4561:4576  _lastRewardTime */\n      dup5\n        /* \"contracts/distribution/TombGenesisRewardPool.sol\":4452:4663  PoolInfo({\r... */\n      dup2\n      mstore\n      0x20\n      add\n        /* \"contracts/distribution/TombGenesisRewardPool.sol\":4609:4610  0 */\n      0x00\n        /* \"contracts/distribution/TombGenesisRewardPool.sol\":4452:4663  PoolInfo({\r... */\n      dup2\n      mstore\n      0x20\n      add\n        /* \"contracts/distribution/TombGenesisRewardPool.sol\":4637:4647  _isStarted */\n      dup4\n        /* \"contracts/distribution/TombGenesisRewardPool.sol\":4452:4663  PoolInfo({\r... */\n      iszero\n      iszero\n      dup2\n      mstore\n      pop\n        /* \"contracts/distribution/TombGenesisRewardPool.sol\":4438:4664  poolInfo.push(PoolInfo({\r... */\n      swap1\n      dup1\n      0x01\n      dup2\n      sload\n      add\n      dup1\n      dup3\n      sstore\n      dup1\n      swap2\n      pop\n      pop\n      0x01\n      swap1\n      sub\n      swap1\n      0x00\n      mstore\n      keccak256(0x00, 0x20)\n      swap1\n      0x05\n      mul\n      add\n      0x00\n      swap1\n      swap2\n      swap1\n      swap2\n      swap1\n      swap2\n      pop\n      0x00\n      dup3\n      add\n      mload\n      dup2\n      0x00\n      add\n      exp(0x0100, 0x00)\n      dup2\n      sload\n      dup2\n      0xffffffffffffffffffffffffffffffffffffffff\n      mul\n      not\n      and\n      swap1\n      dup4\n      0xffffffffffffffffffffffffffffffffffffffff\n      and\n      mul\n      or\n      swap1\n      sstore\n      pop\n      0x20\n      dup3\n      add\n      mload\n      dup2\n      0x01\n      add\n      sstore\n      0x40\n      dup3\n      add\n      mload\n      dup2\n      0x02\n      add\n      sstore\n      0x60\n      dup3\n      add\n      mload\n      dup2\n      0x03\n      add\n      sstore\n      0x80\n      dup3\n      add\n      mload\n      dup2\n      0x04\n      add\n      exp(0x0100, 0x00)\n      dup2\n      sload\n      dup2\n      0xff\n      mul\n      not\n      and\n      swap1\n      dup4\n      iszero\n      iszero\n      mul\n      or\n      swap1\n      sstore\n      pop\n      pop\n      pop\n        /* \"contracts/distribution/TombGenesisRewardPool.sol\":4679:4689  _isStarted */\n      dup1\n        /* \"contracts/distribution/TombGenesisRewardPool.sol\":4675:4768  if (_isStarted) {\r... */\n      iszero\n      tag_260\n      jumpi\n        /* \"contracts/distribution/TombGenesisRewardPool.sol\":4724:4756  totalAllocPoint.add(_allocPoint) */\n      tag_261\n        /* \"contracts/distribution/TombGenesisRewardPool.sol\":4744:4755  _allocPoint */\n      dup6\n        /* \"contracts/distribution/TombGenesisRewardPool.sol\":4724:4739  totalAllocPoint */\n      sload(0x09)\n        /* \"contracts/distribution/TombGenesisRewardPool.sol\":4724:4743  totalAllocPoint.add */\n      tag_133\n      swap1\n        /* \"contracts/distribution/TombGenesisRewardPool.sol\":4724:4756  totalAllocPoint.add(_allocPoint) */\n      swap2\n      swap1\n      0xffffffff\n      and\n      jump\t// in\n    tag_261:\n        /* \"contracts/distribution/TombGenesisRewardPool.sol\":4706:4721  totalAllocPoint */\n      0x09\n        /* \"contracts/distribution/TombGenesisRewardPool.sol\":4706:4756  totalAllocPoint = totalAllocPoint.add(_allocPoint) */\n      dup2\n      swap1\n      sstore\n      pop\n        /* \"contracts/distribution/TombGenesisRewardPool.sol\":4675:4768  if (_isStarted) {\r... */\n    tag_260:\n        /* \"contracts/owner/Operator.sol\":769:770  _ */\n      pop\n        /* \"contracts/distribution/TombGenesisRewardPool.sol\":3499:4775  function add(\r... */\n      pop\n      pop\n      pop\n      pop\n      jump\t// out\n        /* \"contracts/distribution/TombGenesisRewardPool.sol\":11199:11313  function setOperator(address _Newoperator) external onlyOperator {\r... */\n    tag_107:\n        /* \"contracts/owner/Operator.sol\":684:694  msg.sender */\n      caller\n        /* \"contracts/owner/Operator.sol\":671:694  _operator == msg.sender */\n      0xffffffffffffffffffffffffffffffffffffffff\n      and\n        /* \"contracts/owner/Operator.sol\":671:680  _operator */\n      0x01\n      0x00\n      swap1\n      sload\n      swap1\n      0x0100\n      exp\n      swap1\n      div\n      0xffffffffffffffffffffffffffffffffffffffff\n      and\n        /* \"contracts/owner/Operator.sol\":671:694  _operator == msg.sender */\n      0xffffffffffffffffffffffffffffffffffffffff\n      and\n      eq\n        /* \"contracts/owner/Operator.sol\":649:758  require(\r... */\n      tag_263\n      jumpi\n      mload(0x40)\n      0x08c379a000000000000000000000000000000000000000000000000000000000\n      dup2\n      mstore\n      0x04\n      add\n      dup1\n      dup1\n      0x20\n      add\n      dup3\n      dup2\n      sub\n      dup3\n      mstore\n      0x24\n      dup2\n      mstore\n      0x20\n      add\n      dup1\n      data_a62bfdba5053072911b63b0f6325b0e83fcd28b5a847d97efdd966feb4daaafb\n      0x24\n      swap2\n      codecopy\n      0x40\n      add\n      swap2\n      pop\n      pop\n      mload(0x40)\n      dup1\n      swap2\n      sub\n      swap1\n      revert\n    tag_263:\n        /* \"contracts/distribution/TombGenesisRewardPool.sol\":11275:11305  transferOperator(_Newoperator) */\n      tag_265\n        /* \"contracts/distribution/TombGenesisRewardPool.sol\":11292:11304  _Newoperator */\n      dup2\n        /* \"contracts/distribution/TombGenesisRewardPool.sol\":11275:11291  transferOperator */\n      tag_61\n        /* \"contracts/distribution/TombGenesisRewardPool.sol\":11275:11305  transferOperator(_Newoperator) */\n      jump\t// in\n    tag_265:\n        /* \"contracts/distribution/TombGenesisRewardPool.sol\":11199:11313  function setOperator(address _Newoperator) external onlyOperator {\r... */\n      pop\n      jump\t// out\n        /* \"contracts/distribution/TombGenesisRewardPool.sol\":1279:1303  uint256 public Fee = 200 */\n    tag_109:\n      sload(0x04)\n      dup2\n      jump\t// out\n        /* \"contracts/distribution/TombGenesisRewardPool.sol\":2678:3150  function initialize (\r... */\n    tag_112:\n        /* \"contracts/distribution/TombGenesisRewardPool.sol\":2457:2468  initialized */\n      0x07\n      0x00\n      swap1\n      sload\n      swap1\n      0x0100\n      exp\n      swap1\n      div\n      0xff\n      and\n        /* \"contracts/distribution/TombGenesisRewardPool.sol\":2456:2468  !initialized */\n      iszero\n        /* \"contracts/distribution/TombGenesisRewardPool.sol\":2448:2501  require(!initialized, \"Genesis: already initialized\") */\n      tag_267\n      jumpi\n      mload(0x40)\n      0x08c379a000000000000000000000000000000000000000000000000000000000\n      dup2\n      mstore\n      0x04\n      add\n      dup1\n      dup1\n      0x20\n      add\n      dup3\n      dup2\n      sub\n      dup3\n      mstore\n      0x1c\n      dup2\n      mstore\n      0x20\n      add\n      dup1\n      0x47656e657369733a20616c726561647920696e697469616c697a656400000000\n      dup2\n      mstore\n      pop\n      0x20\n      add\n      swap2\n      pop\n      pop\n      mload(0x40)\n      dup1\n      swap2\n      sub\n      swap1\n      revert\n    tag_267:\n        /* \"contracts/owner/Operator.sol\":684:694  msg.sender */\n      caller\n        /* \"contracts/owner/Operator.sol\":671:694  _operator == msg.sender */\n      0xffffffffffffffffffffffffffffffffffffffff\n      and\n        /* \"contracts/owner/Operator.sol\":671:680  _operator */\n      0x01\n      0x00\n      swap1\n      sload\n      swap1\n      0x0100\n      exp\n      swap1\n      div\n      0xffffffffffffffffffffffffffffffffffffffff\n      and\n        /* \"contracts/owner/Operator.sol\":671:694  _operator == msg.sender */\n      0xffffffffffffffffffffffffffffffffffffffff\n      and\n      eq\n        /* \"contracts/owner/Operator.sol\":649:758  require(\r... */\n      tag_269\n      jumpi\n      mload(0x40)\n      0x08c379a000000000000000000000000000000000000000000000000000000000\n      dup2\n      mstore\n      0x04\n      add\n      dup1\n      dup1\n      0x20\n      add\n      dup3\n      dup2\n      sub\n      dup3\n      mstore\n      0x24\n      dup2\n      mstore\n      0x20\n      add\n      dup1\n      data_a62bfdba5053072911b63b0f6325b0e83fcd28b5a847d97efdd966feb4daaafb\n      0x24\n      swap2\n      codecopy\n      0x40\n      add\n      swap2\n      pop\n      pop\n      mload(0x40)\n      dup1\n      swap2\n      sub\n      swap1\n      revert\n    tag_269:\n        /* \"contracts/distribution/TombGenesisRewardPool.sol\":2859:2873  _poolStartTime */\n      dup2\n        /* \"contracts/distribution/TombGenesisRewardPool.sol\":2841:2856  block.timestamp */\n      timestamp\n        /* \"contracts/distribution/TombGenesisRewardPool.sol\":2841:2873  block.timestamp < _poolStartTime */\n      lt\n        /* \"contracts/distribution/TombGenesisRewardPool.sol\":2833:2882  require(block.timestamp < _poolStartTime, \"late\") */\n      tag_271\n      jumpi\n      mload(0x40)\n      0x08c379a000000000000000000000000000000000000000000000000000000000\n      dup2\n      mstore\n      0x04\n      add\n      dup1\n      dup1\n      0x20\n      add\n      dup3\n      dup2\n      sub\n      dup3\n      mstore\n      0x04\n      dup2\n      mstore\n      0x20\n      add\n      dup1\n      0x6c61746500000000000000000000000000000000000000000000000000000000\n      dup2\n      mstore\n      pop\n      0x20\n      add\n      swap2\n      pop\n      pop\n      mload(0x40)\n      dup1\n      swap2\n      sub\n      swap1\n      revert\n    tag_271:\n        /* \"contracts/distribution/TombGenesisRewardPool.sol\":2914:2915  0 */\n      0x00\n        /* \"contracts/distribution/TombGenesisRewardPool.sol\":2897:2916  _Poly != address(0) */\n      0xffffffffffffffffffffffffffffffffffffffff\n      and\n        /* \"contracts/distribution/TombGenesisRewardPool.sol\":2897:2902  _Poly */\n      dup4\n        /* \"contracts/distribution/TombGenesisRewardPool.sol\":2897:2916  _Poly != address(0) */\n      0xffffffffffffffffffffffffffffffffffffffff\n      and\n      eq\n        /* \"contracts/distribution/TombGenesisRewardPool.sol\":2893:2938  if (_Poly != address(0)) Poly = IERC20(_Poly) */\n      tag_272\n      jumpi\n        /* \"contracts/distribution/TombGenesisRewardPool.sol\":2932:2937  _Poly */\n      dup3\n        /* \"contracts/distribution/TombGenesisRewardPool.sol\":2918:2922  Poly */\n      0x02\n      0x00\n        /* \"contracts/distribution/TombGenesisRewardPool.sol\":2918:2938  Poly = IERC20(_Poly) */\n      0x0100\n      exp\n      dup2\n      sload\n      dup2\n      0xffffffffffffffffffffffffffffffffffffffff\n      mul\n      not\n      and\n      swap1\n      dup4\n      0xffffffffffffffffffffffffffffffffffffffff\n      and\n      mul\n      or\n      swap1\n      sstore\n      pop\n        /* \"contracts/distribution/TombGenesisRewardPool.sol\":2893:2938  if (_Poly != address(0)) Poly = IERC20(_Poly) */\n    tag_272:\n        /* \"contracts/distribution/TombGenesisRewardPool.sol\":2970:2971  0 */\n      0x00\n        /* \"contracts/distribution/TombGenesisRewardPool.sol\":2953:2972  _pair != address(0) */\n      0xffffffffffffffffffffffffffffffffffffffff\n      and\n        /* \"contracts/distribution/TombGenesisRewardPool.sol\":2953:2958  _pair */\n      dup2\n        /* \"contracts/distribution/TombGenesisRewardPool.sol\":2953:2972  _pair != address(0) */\n      0xffffffffffffffffffffffffffffffffffffffff\n      and\n      eq\n        /* \"contracts/distribution/TombGenesisRewardPool.sol\":2949:2986  if (_pair != address(0)) Pair = _pair */\n      tag_273\n      jumpi\n        /* \"contracts/distribution/TombGenesisRewardPool.sol\":2981:2986  _pair */\n      dup1\n        /* \"contracts/distribution/TombGenesisRewardPool.sol\":2974:2978  Pair */\n      0x03\n      0x00\n        /* \"contracts/distribution/TombGenesisRewardPool.sol\":2974:2986  Pair = _pair */\n      0x0100\n      exp\n      dup2\n      sload\n      dup2\n      0xffffffffffffffffffffffffffffffffffffffff\n      mul\n      not\n      and\n      swap1\n      dup4\n      0xffffffffffffffffffffffffffffffffffffffff\n      and\n      mul\n      or\n      swap1\n      sstore\n      pop\n        /* \"contracts/distribution/TombGenesisRewardPool.sol\":2949:2986  if (_pair != address(0)) Pair = _pair */\n    tag_273:\n        /* \"contracts/distribution/TombGenesisRewardPool.sol\":3010:3020  msg.sender */\n      caller\n        /* \"contracts/distribution/TombGenesisRewardPool.sol\":2997:3007  _feeColect */\n      0x05\n      0x00\n        /* \"contracts/distribution/TombGenesisRewardPool.sol\":2997:3020  _feeColect = msg.sender */\n      0x0100\n      exp\n      dup2\n      sload\n      dup2\n      0xffffffffffffffffffffffffffffffffffffffff\n      mul\n      not\n      and\n      swap1\n      dup4\n      0xffffffffffffffffffffffffffffffffffffffff\n      and\n      mul\n      or\n      swap1\n      sstore\n      pop\n        /* \"contracts/distribution/TombGenesisRewardPool.sol\":3047:3061  _poolStartTime */\n      dup2\n        /* \"contracts/distribution/TombGenesisRewardPool.sol\":3031:3044  poolStartTime */\n      0x0a\n        /* \"contracts/distribution/TombGenesisRewardPool.sol\":3031:3061  poolStartTime = _poolStartTime */\n      dup2\n      swap1\n      sstore\n      pop\n        /* \"contracts/distribution/TombGenesisRewardPool.sol\":3102:3113  runningTime */\n      sload(0x0d)\n        /* \"contracts/distribution/TombGenesisRewardPool.sol\":3086:3099  poolStartTime */\n      sload(0x0a)\n        /* \"contracts/distribution/TombGenesisRewardPool.sol\":3086:3113  poolStartTime + runningTime */\n      add\n        /* \"contracts/distribution/TombGenesisRewardPool.sol\":3072:3083  poolEndTime */\n      0x0b\n        /* \"contracts/distribution/TombGenesisRewardPool.sol\":3072:3113  poolEndTime = poolStartTime + runningTime */\n      dup2\n      swap1\n      sstore\n      pop\n        /* \"contracts/distribution/TombGenesisRewardPool.sol\":3138:3142  true */\n      0x01\n        /* \"contracts/distribution/TombGenesisRewardPool.sol\":3124:3135  initialized */\n      0x07\n      0x00\n        /* \"contracts/distribution/TombGenesisRewardPool.sol\":3124:3142  initialized = true */\n      0x0100\n      exp\n      dup2\n      sload\n      dup2\n      0xff\n      mul\n      not\n      and\n      swap1\n      dup4\n      iszero\n      iszero\n      mul\n      or\n      swap1\n      sstore\n      pop\n        /* \"contracts/distribution/TombGenesisRewardPool.sol\":2678:3150  function initialize (\r... */\n      pop\n      pop\n      pop\n      jump\t// out\n        /* \"contracts/distribution/TombGenesisRewardPool.sol\":1214:1232  IERC20 public Poly */\n    tag_114:\n      0x02\n      0x00\n      swap1\n      sload\n      swap1\n      0x0100\n      exp\n      swap1\n      div\n      0xffffffffffffffffffffffffffffffffffffffff\n      and\n      dup2\n      jump\t// out\n        /* \"contracts/distribution/TombGenesisRewardPool.sol\":8277:9418  function deposit(uint256 _pid, uint256 _amount) public {\r... */\n    tag_117:\n        /* \"contracts/distribution/TombGenesisRewardPool.sol\":8343:8358  address _sender */\n      0x00\n        /* \"contracts/distribution/TombGenesisRewardPool.sol\":8361:8371  msg.sender */\n      caller\n        /* \"contracts/distribution/TombGenesisRewardPool.sol\":8343:8371  address _sender = msg.sender */\n      swap1\n      pop\n        /* \"contracts/distribution/TombGenesisRewardPool.sol\":8382:8394  uint256 _fee */\n      0x00\n        /* \"contracts/distribution/TombGenesisRewardPool.sol\":8397:8411  _fees(_amount) */\n      tag_275\n        /* \"contracts/distribution/TombGenesisRewardPool.sol\":8403:8410  _amount */\n      dup4\n        /* \"contracts/distribution/TombGenesisRewardPool.sol\":8397:8402  _fees */\n      tag_276\n        /* \"contracts/distribution/TombGenesisRewardPool.sol\":8397:8411  _fees(_amount) */\n      jump\t// in\n    tag_275:\n        /* \"contracts/distribution/TombGenesisRewardPool.sol\":8382:8411  uint256 _fee = _fees(_amount) */\n      swap1\n      pop\n        /* \"contracts/distribution/TombGenesisRewardPool.sol\":8422:8440  uint256 _newAmount */\n      0x00\n        /* \"contracts/distribution/TombGenesisRewardPool.sol\":8443:8460  _amount.sub(_fee) */\n      tag_277\n        /* \"contracts/distribution/TombGenesisRewardPool.sol\":8455:8459  _fee */\n      dup3\n        /* \"contracts/distribution/TombGenesisRewardPool.sol\":8443:8450  _amount */\n      dup6\n        /* \"contracts/distribution/TombGenesisRewardPool.sol\":8443:8454  _amount.sub */\n      tag_132\n      swap1\n        /* \"contracts/distribution/TombGenesisRewardPool.sol\":8443:8460  _amount.sub(_fee) */\n      swap2\n      swap1\n      0xffffffff\n      and\n      jump\t// in\n    tag_277:\n        /* \"contracts/distribution/TombGenesisRewardPool.sol\":8422:8460  uint256 _newAmount = _amount.sub(_fee) */\n      swap1\n      pop\n        /* \"contracts/distribution/TombGenesisRewardPool.sol\":8473:8494  PoolInfo storage pool */\n      0x00\n        /* \"contracts/distribution/TombGenesisRewardPool.sol\":8497:8505  poolInfo */\n      0x06\n        /* \"contracts/distribution/TombGenesisRewardPool.sol\":8506:8510  _pid */\n      dup7\n        /* \"contracts/distribution/TombGenesisRewardPool.sol\":8497:8511  poolInfo[_pid] */\n      dup2\n      sload\n      dup2\n      lt\n      tag_278\n      jumpi\n      invalid\n    tag_278:\n      swap1\n      0x00\n      mstore\n      keccak256(0x00, 0x20)\n      swap1\n      0x05\n      mul\n      add\n        /* \"contracts/distribution/TombGenesisRewardPool.sol\":8473:8511  PoolInfo storage pool = poolInfo[_pid] */\n      swap1\n      pop\n        /* \"contracts/distribution/TombGenesisRewardPool.sol\":8522:8543  UserInfo storage user */\n      0x00\n        /* \"contracts/distribution/TombGenesisRewardPool.sol\":8546:8554  userInfo */\n      0x08\n        /* \"contracts/distribution/TombGenesisRewardPool.sol\":8546:8560  userInfo[_pid] */\n      0x00\n        /* \"contracts/distribution/TombGenesisRewardPool.sol\":8555:8559  _pid */\n      dup9\n        /* \"contracts/distribution/TombGenesisRewardPool.sol\":8546:8560  userInfo[_pid] */\n      dup2\n      mstore\n      0x20\n      add\n      swap1\n      dup2\n      mstore\n      0x20\n      add\n      0x00\n      keccak256\n        /* \"contracts/distribution/TombGenesisRewardPool.sol\":8546:8569  userInfo[_pid][_sender] */\n      0x00\n        /* \"contracts/distribution/TombGenesisRewardPool.sol\":8561:8568  _sender */\n      dup7\n        /* \"contracts/distribution/TombGenesisRewardPool.sol\":8546:8569  userInfo[_pid][_sender] */\n      0xffffffffffffffffffffffffffffffffffffffff\n      and\n      0xffffffffffffffffffffffffffffffffffffffff\n      and\n      dup2\n      mstore\n      0x20\n      add\n      swap1\n      dup2\n      mstore\n      0x20\n      add\n      0x00\n      keccak256\n        /* \"contracts/distribution/TombGenesisRewardPool.sol\":8522:8569  UserInfo storage user = userInfo[_pid][_sender] */\n      swap1\n      pop\n        /* \"contracts/distribution/TombGenesisRewardPool.sol\":8580:8596  updatePool(_pid) */\n      tag_280\n        /* \"contracts/distribution/TombGenesisRewardPool.sol\":8591:8595  _pid */\n      dup8\n        /* \"contracts/distribution/TombGenesisRewardPool.sol\":8580:8590  updatePool */\n      tag_78\n        /* \"contracts/distribution/TombGenesisRewardPool.sol\":8580:8596  updatePool(_pid) */\n      jump\t// in\n    tag_280:\n        /* \"contracts/distribution/TombGenesisRewardPool.sol\":8627:8628  0 */\n      0x00\n        /* \"contracts/distribution/TombGenesisRewardPool.sol\":8613:8617  user */\n      dup2\n        /* \"contracts/distribution/TombGenesisRewardPool.sol\":8613:8624  user.amount */\n      0x00\n      add\n      sload\n        /* \"contracts/distribution/TombGenesisRewardPool.sol\":8613:8628  user.amount > 0 */\n      gt\n        /* \"contracts/distribution/TombGenesisRewardPool.sol\":8609:8899  if (user.amount > 0) {\r... */\n      iszero\n      tag_281\n      jumpi\n        /* \"contracts/distribution/TombGenesisRewardPool.sol\":8645:8661  uint256 _pending */\n      0x00\n        /* \"contracts/distribution/TombGenesisRewardPool.sol\":8664:8732  user.amount.mul(pool.accPolyPerShare).div(1e18).sub(user.rewardDebt) */\n      tag_282\n        /* \"contracts/distribution/TombGenesisRewardPool.sol\":8716:8720  user */\n      dup3\n        /* \"contracts/distribution/TombGenesisRewardPool.sol\":8716:8731  user.rewardDebt */\n      0x01\n      add\n      sload\n        /* \"contracts/distribution/TombGenesisRewardPool.sol\":8664:8711  user.amount.mul(pool.accPolyPerShare).div(1e18) */\n      tag_283\n        /* \"contracts/distribution/TombGenesisRewardPool.sol\":8706:8710  1e18 */\n      0x0de0b6b3a7640000\n        /* \"contracts/distribution/TombGenesisRewardPool.sol\":8664:8701  user.amount.mul(pool.accPolyPerShare) */\n      tag_284\n        /* \"contracts/distribution/TombGenesisRewardPool.sol\":8680:8684  pool */\n      dup8\n        /* \"contracts/distribution/TombGenesisRewardPool.sol\":8680:8700  pool.accPolyPerShare */\n      0x03\n      add\n      sload\n        /* \"contracts/distribution/TombGenesisRewardPool.sol\":8664:8668  user */\n      dup8\n        /* \"contracts/distribution/TombGenesisRewardPool.sol\":8664:8675  user.amount */\n      0x00\n      add\n      sload\n        /* \"contracts/distribution/TombGenesisRewardPool.sol\":8664:8679  user.amount.mul */\n      tag_141\n      swap1\n        /* \"contracts/distribution/TombGenesisRewardPool.sol\":8664:8701  user.amount.mul(pool.accPolyPerShare) */\n      swap2\n      swap1\n      0xffffffff\n      and\n      jump\t// in\n    tag_284:\n        /* \"contracts/distribution/TombGenesisRewardPool.sol\":8664:8705  user.amount.mul(pool.accPolyPerShare).div */\n      tag_168\n      swap1\n        /* \"contracts/distribution/TombGenesisRewardPool.sol\":8664:8711  user.amount.mul(pool.accPolyPerShare).div(1e18) */\n      swap2\n      swap1\n      0xffffffff\n      and\n      jump\t// in\n    tag_283:\n        /* \"contracts/distribution/TombGenesisRewardPool.sol\":8664:8715  user.amount.mul(pool.accPolyPerShare).div(1e18).sub */\n      tag_132\n      swap1\n        /* \"contracts/distribution/TombGenesisRewardPool.sol\":8664:8732  user.amount.mul(pool.accPolyPerShare).div(1e18).sub(user.rewardDebt) */\n      swap2\n      swap1\n      0xffffffff\n      and\n      jump\t// in\n    tag_282:\n        /* \"contracts/distribution/TombGenesisRewardPool.sol\":8645:8732  uint256 _pending = user.amount.mul(pool.accPolyPerShare).div(1e18).sub(user.rewardDebt) */\n      swap1\n      pop\n        /* \"contracts/distribution/TombGenesisRewardPool.sol\":8762:8763  0 */\n      0x00\n        /* \"contracts/distribution/TombGenesisRewardPool.sol\":8751:8759  _pending */\n      dup2\n        /* \"contracts/distribution/TombGenesisRewardPool.sol\":8751:8763  _pending > 0 */\n      gt\n        /* \"contracts/distribution/TombGenesisRewardPool.sol\":8747:8888  if (_pending > 0) {\r... */\n      iszero\n      tag_285\n      jumpi\n        /* \"contracts/distribution/TombGenesisRewardPool.sol\":8784:8819  safePolyTransfer(_sender, _pending) */\n      tag_286\n        /* \"contracts/distribution/TombGenesisRewardPool.sol\":8801:8808  _sender */\n      dup7\n        /* \"contracts/distribution/TombGenesisRewardPool.sol\":8810:8818  _pending */\n      dup3\n        /* \"contracts/distribution/TombGenesisRewardPool.sol\":8784:8800  safePolyTransfer */\n      tag_171\n        /* \"contracts/distribution/TombGenesisRewardPool.sol\":8784:8819  safePolyTransfer(_sender, _pending) */\n      jump\t// in\n    tag_286:\n        /* \"contracts/distribution/TombGenesisRewardPool.sol\":8854:8861  _sender */\n      dup6\n        /* \"contracts/distribution/TombGenesisRewardPool.sol\":8843:8872  RewardPaid(_sender, _pending) */\n      0xffffffffffffffffffffffffffffffffffffffff\n      and\n      0xe2403640ba68fed3a2f88b7557551d1993f84b99bb10ff833f0cf8db0c5e0486\n        /* \"contracts/distribution/TombGenesisRewardPool.sol\":8863:8871  _pending */\n      dup3\n        /* \"contracts/distribution/TombGenesisRewardPool.sol\":8843:8872  RewardPaid(_sender, _pending) */\n      mload(0x40)\n      dup1\n      dup3\n      dup2\n      mstore\n      0x20\n      add\n      swap2\n      pop\n      pop\n      mload(0x40)\n      dup1\n      swap2\n      sub\n      swap1\n      log2\n        /* \"contracts/distribution/TombGenesisRewardPool.sol\":8747:8888  if (_pending > 0) {\r... */\n    tag_285:\n        /* \"contracts/distribution/TombGenesisRewardPool.sol\":8609:8899  if (user.amount > 0) {\r... */\n      pop\n    tag_281:\n        /* \"contracts/distribution/TombGenesisRewardPool.sol\":8923:8924  0 */\n      0x00\n        /* \"contracts/distribution/TombGenesisRewardPool.sol\":8913:8920  _amount */\n      dup7\n        /* \"contracts/distribution/TombGenesisRewardPool.sol\":8913:8924  _amount > 0 */\n      gt\n        /* \"contracts/distribution/TombGenesisRewardPool.sol\":8909:9288  if (_amount > 0) {\r... */\n      iszero\n      tag_287\n      jumpi\n        /* \"contracts/distribution/TombGenesisRewardPool.sol\":8941:9001  pool.token.safeTransferFrom(_sender, address(this), _amount) */\n      tag_288\n        /* \"contracts/distribution/TombGenesisRewardPool.sol\":8969:8976  _sender */\n      dup6\n        /* \"contracts/distribution/TombGenesisRewardPool.sol\":8986:8990  this */\n      address\n        /* \"contracts/distribution/TombGenesisRewardPool.sol\":8993:9000  _amount */\n      dup9\n        /* \"contracts/distribution/TombGenesisRewardPool.sol\":8941:8945  pool */\n      dup6\n        /* \"contracts/distribution/TombGenesisRewardPool.sol\":8941:8951  pool.token */\n      0x00\n      add\n      0x00\n      swap1\n      sload\n      swap1\n      0x0100\n      exp\n      swap1\n      div\n      0xffffffffffffffffffffffffffffffffffffffff\n      and\n        /* \"contracts/distribution/TombGenesisRewardPool.sol\":8941:8968  pool.token.safeTransferFrom */\n      0xffffffffffffffffffffffffffffffffffffffff\n      and\n      tag_289\n      swap1\n        /* \"contracts/distribution/TombGenesisRewardPool.sol\":8941:9001  pool.token.safeTransferFrom(_sender, address(this), _amount) */\n      swap4\n      swap3\n      swap2\n      swap1\n      0xffffffff\n      and\n      jump\t// in\n    tag_288:\n        /* \"contracts/distribution/TombGenesisRewardPool.sol\":9056:9060  Pair */\n      0x03\n      0x00\n      swap1\n      sload\n      swap1\n      0x0100\n      exp\n      swap1\n      div\n      0xffffffffffffffffffffffffffffffffffffffff\n      and\n        /* \"contracts/distribution/TombGenesisRewardPool.sol\":9033:9060  address(pool.token) == Pair */\n      0xffffffffffffffffffffffffffffffffffffffff\n      and\n        /* \"contracts/distribution/TombGenesisRewardPool.sol\":9041:9045  pool */\n      dup3\n        /* \"contracts/distribution/TombGenesisRewardPool.sol\":9041:9051  pool.token */\n      0x00\n      add\n      0x00\n      swap1\n      sload\n      swap1\n      0x0100\n      exp\n      swap1\n      div\n      0xffffffffffffffffffffffffffffffffffffffff\n      and\n        /* \"contracts/distribution/TombGenesisRewardPool.sol\":9033:9060  address(pool.token) == Pair */\n      0xffffffffffffffffffffffffffffffffffffffff\n      and\n      eq\n        /* \"contracts/distribution/TombGenesisRewardPool.sol\":9030:9277  if(address(pool.token) == Pair) {\r... */\n      iszero\n      tag_290\n      jumpi\n        /* \"contracts/distribution/TombGenesisRewardPool.sol\":9095:9119  user.amount.add(_amount) */\n      tag_291\n        /* \"contracts/distribution/TombGenesisRewardPool.sol\":9111:9118  _amount */\n      dup7\n        /* \"contracts/distribution/TombGenesisRewardPool.sol\":9095:9099  user */\n      dup3\n        /* \"contracts/distribution/TombGenesisRewardPool.sol\":9095:9106  user.amount */\n      0x00\n      add\n      sload\n        /* \"contracts/distribution/TombGenesisRewardPool.sol\":9095:9110  user.amount.add */\n      tag_133\n      swap1\n        /* \"contracts/distribution/TombGenesisRewardPool.sol\":9095:9119  user.amount.add(_amount) */\n      swap2\n      swap1\n      0xffffffff\n      and\n      jump\t// in\n    tag_291:\n        /* \"contracts/distribution/TombGenesisRewardPool.sol\":9081:9085  user */\n      dup2\n        /* \"contracts/distribution/TombGenesisRewardPool.sol\":9081:9092  user.amount */\n      0x00\n      add\n        /* \"contracts/distribution/TombGenesisRewardPool.sol\":9081:9119  user.amount = user.amount.add(_amount) */\n      dup2\n      swap1\n      sstore\n      pop\n        /* \"contracts/distribution/TombGenesisRewardPool.sol\":9030:9277  if(address(pool.token) == Pair) {\r... */\n      jump(tag_292)\n    tag_290:\n        /* \"contracts/distribution/TombGenesisRewardPool.sol\":9174:9201  user.amount.add(_newAmount) */\n      tag_293\n        /* \"contracts/distribution/TombGenesisRewardPool.sol\":9190:9200  _newAmount */\n      dup4\n        /* \"contracts/distribution/TombGenesisRewardPool.sol\":9174:9178  user */\n      dup3\n        /* \"contracts/distribution/TombGenesisRewardPool.sol\":9174:9185  user.amount */\n      0x00\n      add\n      sload\n        /* \"contracts/distribution/TombGenesisRewardPool.sol\":9174:9189  user.amount.add */\n      tag_133\n      swap1\n        /* \"contracts/distribution/TombGenesisRewardPool.sol\":9174:9201  user.amount.add(_newAmount) */\n      swap2\n      swap1\n      0xffffffff\n      and\n      jump\t// in\n    tag_293:\n        /* \"contracts/distribution/TombGenesisRewardPool.sol\":9160:9164  user */\n      dup2\n        /* \"contracts/distribution/TombGenesisRewardPool.sol\":9160:9171  user.amount */\n      0x00\n      add\n        /* \"contracts/distribution/TombGenesisRewardPool.sol\":9160:9201  user.amount = user.amount.add(_newAmount) */\n      dup2\n      swap1\n      sstore\n      pop\n        /* \"contracts/distribution/TombGenesisRewardPool.sol\":9220:9261  pool.token.safeTransfer(_feeColect, _fee) */\n      tag_294\n        /* \"contracts/distribution/TombGenesisRewardPool.sol\":9244:9254  _feeColect */\n      0x05\n      0x00\n      swap1\n      sload\n      swap1\n      0x0100\n      exp\n      swap1\n      div\n      0xffffffffffffffffffffffffffffffffffffffff\n      and\n        /* \"contracts/distribution/TombGenesisRewardPool.sol\":9256:9260  _fee */\n      dup6\n        /* \"contracts/distribution/TombGenesisRewardPool.sol\":9220:9224  pool */\n      dup5\n        /* \"contracts/distribution/TombGenesisRewardPool.sol\":9220:9230  pool.token */\n      0x00\n      add\n      0x00\n      swap1\n      sload\n      swap1\n      0x0100\n      exp\n      swap1\n      div\n      0xffffffffffffffffffffffffffffffffffffffff\n      and\n        /* \"contracts/distribution/TombGenesisRewardPool.sol\":9220:9243  pool.token.safeTransfer */\n      0xffffffffffffffffffffffffffffffffffffffff\n      and\n      tag_175\n      swap1\n        /* \"contracts/distribution/TombGenesisRewardPool.sol\":9220:9261  pool.token.safeTransfer(_feeColect, _fee) */\n      swap3\n      swap2\n      swap1\n      0xffffffff\n      and\n      jump\t// in\n    tag_294:\n        /* \"contracts/distribution/TombGenesisRewardPool.sol\":9030:9277  if(address(pool.token) == Pair) {\r... */\n    tag_292:\n        /* \"contracts/distribution/TombGenesisRewardPool.sol\":8909:9288  if (_amount > 0) {\r... */\n    tag_287:\n        /* \"contracts/distribution/TombGenesisRewardPool.sol\":9316:9363  user.amount.mul(pool.accPolyPerShare).div(1e18) */\n      tag_295\n        /* \"contracts/distribution/TombGenesisRewardPool.sol\":9358:9362  1e18 */\n      0x0de0b6b3a7640000\n        /* \"contracts/distribution/TombGenesisRewardPool.sol\":9316:9353  user.amount.mul(pool.accPolyPerShare) */\n      tag_296\n        /* \"contracts/distribution/TombGenesisRewardPool.sol\":9332:9336  pool */\n      dup5\n        /* \"contracts/distribution/TombGenesisRewardPool.sol\":9332:9352  pool.accPolyPerShare */\n      0x03\n      add\n      sload\n        /* \"contracts/distribution/TombGenesisRewardPool.sol\":9316:9320  user */\n      dup5\n        /* \"contracts/distribution/TombGenesisRewardPool.sol\":9316:9327  user.amount */\n      0x00\n      add\n      sload\n        /* \"contracts/distribution/TombGenesisRewardPool.sol\":9316:9331  user.amount.mul */\n      tag_141\n      swap1\n        /* \"contracts/distribution/TombGenesisRewardPool.sol\":9316:9353  user.amount.mul(pool.accPolyPerShare) */\n      swap2\n      swap1\n      0xffffffff\n      and\n      jump\t// in\n    tag_296:\n        /* \"contracts/distribution/TombGenesisRewardPool.sol\":9316:9357  user.amount.mul(pool.accPolyPerShare).div */\n      tag_168\n      swap1\n        /* \"contracts/distribution/TombGenesisRewardPool.sol\":9316:9363  user.amount.mul(pool.accPolyPerShare).div(1e18) */\n      swap2\n      swap1\n      0xffffffff\n      and\n      jump\t// in\n    tag_295:\n        /* \"contracts/distribution/TombGenesisRewardPool.sol\":9298:9302  user */\n      dup2\n        /* \"contracts/distribution/TombGenesisRewardPool.sol\":9298:9313  user.rewardDebt */\n      0x01\n      add\n        /* \"contracts/distribution/TombGenesisRewardPool.sol\":9298:9363  user.rewardDebt = user.amount.mul(pool.accPolyPerShare).div(1e18) */\n      dup2\n      swap1\n      sstore\n      pop\n        /* \"contracts/distribution/TombGenesisRewardPool.sol\":9396:9400  _pid */\n      dup7\n        /* \"contracts/distribution/TombGenesisRewardPool.sol\":9387:9394  _sender */\n      dup6\n        /* \"contracts/distribution/TombGenesisRewardPool.sol\":9379:9410  Deposit(_sender, _pid, _amount) */\n      0xffffffffffffffffffffffffffffffffffffffff\n      and\n      0x90890809c654f11d6e72a28fa60149770a0d11ec6c92319d6ceb2bb0a4ea1a15\n        /* \"contracts/distribution/TombGenesisRewardPool.sol\":9402:9409  _amount */\n      dup9\n        /* \"contracts/distribution/TombGenesisRewardPool.sol\":9379:9410  Deposit(_sender, _pid, _amount) */\n      mload(0x40)\n      dup1\n      dup3\n      dup2\n      mstore\n      0x20\n      add\n      swap2\n      pop\n      pop\n      mload(0x40)\n      dup1\n      swap2\n      sub\n      swap1\n      log3\n        /* \"contracts/distribution/TombGenesisRewardPool.sol\":8277:9418  function deposit(uint256 _pid, uint256 _amount) public {\r... */\n      pop\n      pop\n      pop\n      pop\n      pop\n      pop\n      pop\n      jump\t// out\n        /* \"@openzeppelin/contracts/access/Ownable.sol\":2065:2305  function transferOwnership(address newOwner) public virtual onlyOwner {... */\n    tag_120:\n        /* \"@openzeppelin/contracts/access/Ownable.sol\":1362:1374  _msgSender() */\n      tag_298\n        /* \"@openzeppelin/contracts/access/Ownable.sol\":1362:1372  _msgSender */\n      tag_153\n        /* \"@openzeppelin/contracts/access/Ownable.sol\":1362:1374  _msgSender() */\n      jump\t// in\n    tag_298:\n        /* \"@openzeppelin/contracts/access/Ownable.sol\":1351:1374  owner() == _msgSender() */\n      0xffffffffffffffffffffffffffffffffffffffff\n      and\n        /* \"@openzeppelin/contracts/access/Ownable.sol\":1351:1358  owner() */\n      tag_299\n        /* \"@openzeppelin/contracts/access/Ownable.sol\":1351:1356  owner */\n      tag_96\n        /* \"@openzeppelin/contracts/access/Ownable.sol\":1351:1358  owner() */\n      jump\t// in\n    tag_299:\n        /* \"@openzeppelin/contracts/access/Ownable.sol\":1351:1374  owner() == _msgSender() */\n      0xffffffffffffffffffffffffffffffffffffffff\n      and\n      eq\n        /* \"@openzeppelin/contracts/access/Ownable.sol\":1343:1411  require(owner() == _msgSender(), \"Ownable: caller is not the owner\") */\n      tag_300\n      jumpi\n      mload(0x40)\n      0x08c379a000000000000000000000000000000000000000000000000000000000\n      dup2\n      mstore\n      0x04\n      add\n      dup1\n      dup1\n      0x20\n      add\n      dup3\n      dup2\n      sub\n      dup3\n      mstore\n      0x20\n      dup2\n      mstore\n      0x20\n      add\n      dup1\n      0x4f776e61626c653a2063616c6c6572206973206e6f7420746865206f776e6572\n      dup2\n      mstore\n      pop\n      0x20\n      add\n      swap2\n      pop\n      pop\n      mload(0x40)\n      dup1\n      swap2\n      sub\n      swap1\n      revert\n    tag_300:\n        /* \"@openzeppelin/contracts/access/Ownable.sol\":2173:2174  0 */\n      0x00\n        /* \"@openzeppelin/contracts/access/Ownable.sol\":2153:2175  newOwner != address(0) */\n      0xffffffffffffffffffffffffffffffffffffffff\n      and\n        /* \"@openzeppelin/contracts/access/Ownable.sol\":2153:2161  newOwner */\n      dup2\n        /* \"@openzeppelin/contracts/access/Ownable.sol\":2153:2175  newOwner != address(0) */\n      0xffffffffffffffffffffffffffffffffffffffff\n      and\n      eq\n      iszero\n        /* \"@openzeppelin/contracts/access/Ownable.sol\":2145:2218  require(newOwner != address(0), \"Ownable: new owner is the zero address\") */\n      tag_302\n      jumpi\n      mload(0x40)\n      0x08c379a000000000000000000000000000000000000000000000000000000000\n      dup2\n      mstore\n      0x04\n      add\n      dup1\n      dup1\n      0x20\n      add\n      dup3\n      dup2\n      sub\n      dup3\n      mstore\n      0x26\n      dup2\n      mstore\n      0x20\n      add\n      dup1\n      data_245f15ff17f551913a7a18385165551503906a406f905ac1c2437281a7cd0cfe\n      0x26\n      swap2\n      codecopy\n      0x40\n      add\n      swap2\n      pop\n      pop\n      mload(0x40)\n      dup1\n      swap2\n      sub\n      swap1\n      revert\n    tag_302:\n        /* \"@openzeppelin/contracts/access/Ownable.sol\":2262:2270  newOwner */\n      dup1\n        /* \"@openzeppelin/contracts/access/Ownable.sol\":2233:2271  OwnershipTransferred(_owner, newOwner) */\n      0xffffffffffffffffffffffffffffffffffffffff\n      and\n        /* \"@openzeppelin/contracts/access/Ownable.sol\":2254:2260  _owner */\n      0x00\n      dup1\n      sload\n      swap1\n      0x0100\n      exp\n      swap1\n      div\n      0xffffffffffffffffffffffffffffffffffffffff\n      and\n        /* \"@openzeppelin/contracts/access/Ownable.sol\":2233:2271  OwnershipTransferred(_owner, newOwner) */\n      0xffffffffffffffffffffffffffffffffffffffff\n      and\n      0x8be0079c531659141344cd1fd0a4f28419497f9722a3daafe3b4186f6b6457e0\n      mload(0x40)\n      mload(0x40)\n      dup1\n      swap2\n      sub\n      swap1\n      log3\n        /* \"@openzeppelin/contracts/access/Ownable.sol\":2290:2298  newOwner */\n      dup1\n        /* \"@openzeppelin/contracts/access/Ownable.sol\":2281:2287  _owner */\n      0x00\n      dup1\n        /* \"@openzeppelin/contracts/access/Ownable.sol\":2281:2298  _owner = newOwner */\n      0x0100\n      exp\n      dup2\n      sload\n      dup2\n      0xffffffffffffffffffffffffffffffffffffffff\n      mul\n      not\n      and\n      swap1\n      dup4\n      0xffffffffffffffffffffffffffffffffffffffff\n      and\n      mul\n      or\n      swap1\n      sstore\n      pop\n        /* \"@openzeppelin/contracts/access/Ownable.sol\":2065:2305  function transferOwnership(address newOwner) public virtual onlyOwner {... */\n      pop\n      jump\t// out\n        /* \"@openzeppelin/contracts/utils/math/SafeMath.sol\":3136:3291  function sub(uint256 a, uint256 b) internal pure returns (uint256) {... */\n    tag_132:\n        /* \"@openzeppelin/contracts/utils/math/SafeMath.sol\":3194:3201  uint256 */\n      0x00\n        /* \"@openzeppelin/contracts/utils/math/SafeMath.sol\":3226:3227  a */\n      dup3\n        /* \"@openzeppelin/contracts/utils/math/SafeMath.sol\":3221:3222  b */\n      dup3\n        /* \"@openzeppelin/contracts/utils/math/SafeMath.sol\":3221:3227  b <= a */\n      gt\n      iszero\n        /* \"@openzeppelin/contracts/utils/math/SafeMath.sol\":3213:3262  require(b <= a, \"SafeMath: subtraction overflow\") */\n      tag_304\n      jumpi\n      mload(0x40)\n      0x08c379a000000000000000000000000000000000000000000000000000000000\n      dup2\n      mstore\n      0x04\n      add\n      dup1\n      dup1\n      0x20\n      add\n      dup3\n      dup2\n      sub\n      dup3\n      mstore\n      0x1e\n      dup2\n      mstore\n      0x20\n      add\n      dup1\n      0x536166654d6174683a207375627472616374696f6e206f766572666c6f770000\n      dup2\n      mstore\n      pop\n      0x20\n      add\n      swap2\n      pop\n      pop\n      mload(0x40)\n      dup1\n      swap2\n      sub\n      swap1\n      revert\n    tag_304:\n        /* \"@openzeppelin/contracts/utils/math/SafeMath.sol\":3283:3284  b */\n      dup2\n        /* \"@openzeppelin/contracts/utils/math/SafeMath.sol\":3279:3280  a */\n      dup4\n        /* \"@openzeppelin/contracts/utils/math/SafeMath.sol\":3279:3284  a - b */\n      sub\n        /* \"@openzeppelin/contracts/utils/math/SafeMath.sol\":3272:3284  return a - b */\n      swap1\n      pop\n        /* \"@openzeppelin/contracts/utils/math/SafeMath.sol\":3136:3291  function sub(uint256 a, uint256 b) internal pure returns (uint256) {... */\n      swap3\n      swap2\n      pop\n      pop\n      jump\t// out\n        /* \"@openzeppelin/contracts/utils/math/SafeMath.sol\":2690:2865  function add(uint256 a, uint256 b) internal pure returns (uint256) {... */\n    tag_133:\n        /* \"@openzeppelin/contracts/utils/math/SafeMath.sol\":2748:2755  uint256 */\n      0x00\n        /* \"@openzeppelin/contracts/utils/math/SafeMath.sol\":2767:2776  uint256 c */\n      dup1\n        /* \"@openzeppelin/contracts/utils/math/SafeMath.sol\":2783:2784  b */\n      dup3\n        /* \"@openzeppelin/contracts/utils/math/SafeMath.sol\":2779:2780  a */\n      dup5\n        /* \"@openzeppelin/contracts/utils/math/SafeMath.sol\":2779:2784  a + b */\n      add\n        /* \"@openzeppelin/contracts/utils/math/SafeMath.sol\":2767:2784  uint256 c = a + b */\n      swap1\n      pop\n        /* \"@openzeppelin/contracts/utils/math/SafeMath.sol\":2807:2808  a */\n      dup4\n        /* \"@openzeppelin/contracts/utils/math/SafeMath.sol\":2802:2803  c */\n      dup2\n        /* \"@openzeppelin/contracts/utils/math/SafeMath.sol\":2802:2808  c >= a */\n      lt\n      iszero\n        /* \"@openzeppelin/contracts/utils/math/SafeMath.sol\":2794:2840  require(c >= a, \"SafeMath: addition overflow\") */\n      tag_306\n      jumpi\n      mload(0x40)\n      0x08c379a000000000000000000000000000000000000000000000000000000000\n      dup2\n      mstore\n      0x04\n      add\n      dup1\n      dup1\n      0x20\n      add\n      dup3\n      dup2\n      sub\n      dup3\n      mstore\n      0x1b\n      dup2\n      mstore\n      0x20\n      add\n      dup1\n      0x536166654d6174683a206164646974696f6e206f766572666c6f770000000000\n      dup2\n      mstore\n      pop\n      0x20\n      add\n      swap2\n      pop\n      pop\n      mload(0x40)\n      dup1\n      swap2\n      sub\n      swap1\n      revert\n    tag_306:\n        /* \"@openzeppelin/contracts/utils/math/SafeMath.sol\":2857:2858  c */\n      dup1\n        /* \"@openzeppelin/contracts/utils/math/SafeMath.sol\":2850:2858  return c */\n      swap2\n      pop\n      pop\n        /* \"@openzeppelin/contracts/utils/math/SafeMath.sol\":2690:2865  function add(uint256 a, uint256 b) internal pure returns (uint256) {... */\n      swap3\n      swap2\n      pop\n      pop\n      jump\t// out\n        /* \"@openzeppelin/contracts/utils/math/SafeMath.sol\":3538:3753  function mul(uint256 a, uint256 b) internal pure returns (uint256) {... */\n    tag_141:\n        /* \"@openzeppelin/contracts/utils/math/SafeMath.sol\":3596:3603  uint256 */\n      0x00\n        /* \"@openzeppelin/contracts/utils/math/SafeMath.sol\":3624:3625  0 */\n      dup1\n        /* \"@openzeppelin/contracts/utils/math/SafeMath.sol\":3619:3620  a */\n      dup4\n        /* \"@openzeppelin/contracts/utils/math/SafeMath.sol\":3619:3625  a == 0 */\n      eq\n        /* \"@openzeppelin/contracts/utils/math/SafeMath.sol\":3615:3635  if (a == 0) return 0 */\n      iszero\n      tag_308\n      jumpi\n        /* \"@openzeppelin/contracts/utils/math/SafeMath.sol\":3634:3635  0 */\n      0x00\n        /* \"@openzeppelin/contracts/utils/math/SafeMath.sol\":3627:3635  return 0 */\n      swap1\n      pop\n      jump(tag_307)\n        /* \"@openzeppelin/contracts/utils/math/SafeMath.sol\":3615:3635  if (a == 0) return 0 */\n    tag_308:\n        /* \"@openzeppelin/contracts/utils/math/SafeMath.sol\":3645:3654  uint256 c */\n      0x00\n        /* \"@openzeppelin/contracts/utils/math/SafeMath.sol\":3661:3662  b */\n      dup3\n        /* \"@openzeppelin/contracts/utils/math/SafeMath.sol\":3657:3658  a */\n      dup5\n        /* \"@openzeppelin/contracts/utils/math/SafeMath.sol\":3657:3662  a * b */\n      mul\n        /* \"@openzeppelin/contracts/utils/math/SafeMath.sol\":3645:3662  uint256 c = a * b */\n      swap1\n      pop\n        /* \"@openzeppelin/contracts/utils/math/SafeMath.sol\":3689:3690  b */\n      dup3\n        /* \"@openzeppelin/contracts/utils/math/SafeMath.sol\":3684:3685  a */\n      dup5\n        /* \"@openzeppelin/contracts/utils/math/SafeMath.sol\":3680:3681  c */\n      dup3\n        /* \"@openzeppelin/contracts/utils/math/SafeMath.sol\":3680:3685  c / a */\n      dup2\n      tag_309\n      jumpi\n      invalid\n    tag_309:\n      div\n        /* \"@openzeppelin/contracts/utils/math/SafeMath.sol\":3680:3690  c / a == b */\n      eq\n        /* \"@openzeppelin/contracts/utils/math/SafeMath.sol\":3672:3728  require(c / a == b, \"SafeMath: multiplication overflow\") */\n      tag_310\n      jumpi\n      mload(0x40)\n      0x08c379a000000000000000000000000000000000000000000000000000000000\n      dup2\n      mstore\n      0x04\n      add\n      dup1\n      dup1\n      0x20\n      add\n      dup3\n      dup2\n      sub\n      dup3\n      mstore\n      0x21\n      dup2\n      mstore\n      0x20\n      add\n      dup1\n      data_9113bb53c2876a3805b2c9242029423fc540a728243ce887ab24c82cf119fba3\n      0x21\n      swap2\n      codecopy\n      0x40\n      add\n      swap2\n      pop\n      pop\n      mload(0x40)\n      dup1\n      swap2\n      sub\n      swap1\n      revert\n    tag_310:\n        /* \"@openzeppelin/contracts/utils/math/SafeMath.sol\":3745:3746  c */\n      dup1\n        /* \"@openzeppelin/contracts/utils/math/SafeMath.sol\":3738:3746  return c */\n      swap2\n      pop\n      pop\n        /* \"@openzeppelin/contracts/utils/math/SafeMath.sol\":3538:3753  function mul(uint256 a, uint256 b) internal pure returns (uint256) {... */\n    tag_307:\n      swap3\n      swap2\n      pop\n      pop\n      jump\t// out\n        /* \"@openzeppelin/contracts/utils/Context.sol\":596:692  function _msgSender() internal view virtual returns (address) {... */\n    tag_153:\n        /* \"@openzeppelin/contracts/utils/Context.sol\":649:656  address */\n      0x00\n        /* \"@openzeppelin/contracts/utils/Context.sol\":675:685  msg.sender */\n      caller\n        /* \"@openzeppelin/contracts/utils/Context.sol\":668:685  return msg.sender */\n      swap1\n      pop\n        /* \"@openzeppelin/contracts/utils/Context.sol\":596:692  function _msgSender() internal view virtual returns (address) {... */\n      swap1\n      jump\t// out\n        /* \"contracts/owner/Operator.sol\":1017:1361  function _transferOperator(address newOperator_) internal {\r... */\n    tag_158:\n        /* \"contracts/owner/Operator.sol\":1132:1133  0 */\n      0x00\n        /* \"contracts/owner/Operator.sol\":1108:1134  newOperator_ != address(0) */\n      0xffffffffffffffffffffffffffffffffffffffff\n      and\n        /* \"contracts/owner/Operator.sol\":1108:1120  newOperator_ */\n      dup2\n        /* \"contracts/owner/Operator.sol\":1108:1134  newOperator_ != address(0) */\n      0xffffffffffffffffffffffffffffffffffffffff\n      and\n      eq\n      iszero\n        /* \"contracts/owner/Operator.sol\":1086:1207  require(\r... */\n      tag_313\n      jumpi\n      mload(0x40)\n      0x08c379a000000000000000000000000000000000000000000000000000000000\n      dup2\n      mstore\n      0x04\n      add\n      dup1\n      dup1\n      0x20\n      add\n      dup3\n      dup2\n      sub\n      dup3\n      mstore\n      0x2d\n      dup2\n      mstore\n      0x20\n      add\n      dup1\n      data_756508c1c0554725dd91ce0028667672a5318d736a5e4bcd98b6bc8fe98c3dc7\n      0x2d\n      swap2\n      codecopy\n      0x40\n      add\n      swap2\n      pop\n      pop\n      mload(0x40)\n      dup1\n      swap2\n      sub\n      swap1\n      revert\n    tag_313:\n        /* \"contracts/owner/Operator.sol\":1255:1267  newOperator_ */\n      dup1\n        /* \"contracts/owner/Operator.sol\":1223:1268  OperatorTransferred(address(0), newOperator_) */\n      0xffffffffffffffffffffffffffffffffffffffff\n      and\n        /* \"contracts/owner/Operator.sol\":1251:1252  0 */\n      0x00\n        /* \"contracts/owner/Operator.sol\":1223:1268  OperatorTransferred(address(0), newOperator_) */\n      0xffffffffffffffffffffffffffffffffffffffff\n      and\n      0x74da04524d50c64947f5dd5381ef1a4dca5cba8ed1d816243f9e48aa0b5617ed\n      mload(0x40)\n      mload(0x40)\n      dup1\n      swap2\n      sub\n      swap1\n      log3\n        /* \"contracts/owner/Operator.sol\":1279:1318  Ownable.transferOwnership(newOperator_) */\n      tag_314\n        /* \"contracts/owner/Operator.sol\":1305:1317  newOperator_ */\n      dup2\n        /* \"contracts/owner/Operator.sol\":1279:1304  Ownable.transferOwnership */\n      tag_120\n        /* \"contracts/owner/Operator.sol\":1279:1318  Ownable.transferOwnership(newOperator_) */\n      jump\t// in\n    tag_314:\n        /* \"contracts/owner/Operator.sol\":1341:1353  newOperator_ */\n      dup1\n        /* \"contracts/owner/Operator.sol\":1329:1338  _operator */\n      0x01\n      0x00\n        /* \"contracts/owner/Operator.sol\":1329:1353  _operator = newOperator_ */\n      0x0100\n      exp\n      dup2\n      sload\n      dup2\n      0xffffffffffffffffffffffffffffffffffffffff\n      mul\n      not\n      and\n      swap1\n      dup4\n      0xffffffffffffffffffffffffffffffffffffffff\n      and\n      mul\n      or\n      swap1\n      sstore\n      pop\n        /* \"contracts/owner/Operator.sol\":1017:1361  function _transferOperator(address newOperator_) internal {\r... */\n      pop\n      jump\t// out\n        /* \"@openzeppelin/contracts/utils/math/SafeMath.sol\":4217:4367  function div(uint256 a, uint256 b) internal pure returns (uint256) {... */\n    tag_168:\n        /* \"@openzeppelin/contracts/utils/math/SafeMath.sol\":4275:4282  uint256 */\n      0x00\n        /* \"@openzeppelin/contracts/utils/math/SafeMath.sol\":4306:4307  0 */\n      dup1\n        /* \"@openzeppelin/contracts/utils/math/SafeMath.sol\":4302:4303  b */\n      dup3\n        /* \"@openzeppelin/contracts/utils/math/SafeMath.sol\":4302:4307  b > 0 */\n      gt\n        /* \"@openzeppelin/contracts/utils/math/SafeMath.sol\":4294:4338  require(b > 0, \"SafeMath: division by zero\") */\n      tag_316\n      jumpi\n      mload(0x40)\n      0x08c379a000000000000000000000000000000000000000000000000000000000\n      dup2\n      mstore\n      0x04\n      add\n      dup1\n      dup1\n      0x20\n      add\n      dup3\n      dup2\n      sub\n      dup3\n      mstore\n      0x1a\n      dup2\n      mstore\n      0x20\n      add\n      dup1\n      0x536166654d6174683a206469766973696f6e206279207a65726f000000000000\n      dup2\n      mstore\n      pop\n      0x20\n      add\n      swap2\n      pop\n      pop\n      mload(0x40)\n      dup1\n      swap2\n      sub\n      swap1\n      revert\n    tag_316:\n        /* \"@openzeppelin/contracts/utils/math/SafeMath.sol\":4359:4360  b */\n      dup2\n        /* \"@openzeppelin/contracts/utils/math/SafeMath.sol\":4355:4356  a */\n      dup4\n        /* \"@openzeppelin/contracts/utils/math/SafeMath.sol\":4355:4360  a / b */\n      dup2\n      tag_317\n      jumpi\n      invalid\n    tag_317:\n      div\n        /* \"@openzeppelin/contracts/utils/math/SafeMath.sol\":4348:4360  return a / b */\n      swap1\n      pop\n        /* \"@openzeppelin/contracts/utils/math/SafeMath.sol\":4217:4367  function div(uint256 a, uint256 b) internal pure returns (uint256) {... */\n      swap3\n      swap2\n      pop\n      pop\n      jump\t// out\n        /* \"contracts/distribution/TombGenesisRewardPool.sol\":10826:11191  function safePolyTransfer(address _to, uint256 _amount) internal {\r... */\n    tag_171:\n        /* \"contracts/distribution/TombGenesisRewardPool.sol\":10902:10922  uint256 _PolyBalance */\n      0x00\n        /* \"contracts/distribution/TombGenesisRewardPool.sol\":10925:10929  Poly */\n      0x02\n      0x00\n      swap1\n      sload\n      swap1\n      0x0100\n      exp\n      swap1\n      div\n      0xffffffffffffffffffffffffffffffffffffffff\n      and\n        /* \"contracts/distribution/TombGenesisRewardPool.sol\":10925:10939  Poly.balanceOf */\n      0xffffffffffffffffffffffffffffffffffffffff\n      and\n      0x70a08231\n        /* \"contracts/distribution/TombGenesisRewardPool.sol\":10948:10952  this */\n      address\n        /* \"contracts/distribution/TombGenesisRewardPool.sol\":10925:10954  Poly.balanceOf(address(this)) */\n      mload(0x40)\n      dup3\n      0xffffffff\n      and\n      0xe0\n      shl\n      dup2\n      mstore\n      0x04\n      add\n      dup1\n      dup3\n      0xffffffffffffffffffffffffffffffffffffffff\n      and\n      dup2\n      mstore\n      0x20\n      add\n      swap2\n      pop\n      pop\n      0x20\n      mload(0x40)\n      dup1\n      dup4\n      sub\n      dup2\n      dup7\n      dup1\n      extcodesize\n      iszero\n      dup1\n      iszero\n      tag_319\n      jumpi\n      0x00\n      dup1\n      revert\n    tag_319:\n      pop\n      gas\n      staticcall\n      iszero\n      dup1\n      iszero\n      tag_321\n      jumpi\n      returndatasize\n      0x00\n      dup1\n      returndatacopy\n      revert(0x00, returndatasize)\n    tag_321:\n      pop\n      pop\n      pop\n      pop\n      mload(0x40)\n      returndatasize\n      0x20\n      dup2\n      lt\n      iszero\n      tag_322\n      jumpi\n      0x00\n      dup1\n      revert\n    tag_322:\n      dup2\n      add\n      swap1\n      dup1\n      dup1\n      mload\n      swap1\n      0x20\n      add\n      swap1\n      swap3\n      swap2\n      swap1\n      pop\n      pop\n      pop\n        /* \"contracts/distribution/TombGenesisRewardPool.sol\":10902:10954  uint256 _PolyBalance = Poly.balanceOf(address(this)) */\n      swap1\n      pop\n        /* \"contracts/distribution/TombGenesisRewardPool.sol\":10984:10985  0 */\n      0x00\n        /* \"contracts/distribution/TombGenesisRewardPool.sol\":10969:10981  _PolyBalance */\n      dup2\n        /* \"contracts/distribution/TombGenesisRewardPool.sol\":10969:10985  _PolyBalance > 0 */\n      gt\n        /* \"contracts/distribution/TombGenesisRewardPool.sol\":10965:11184  if (_PolyBalance > 0) {\r... */\n      iszero\n      tag_323\n      jumpi\n        /* \"contracts/distribution/TombGenesisRewardPool.sol\":11016:11028  _PolyBalance */\n      dup1\n        /* \"contracts/distribution/TombGenesisRewardPool.sol\":11006:11013  _amount */\n      dup3\n        /* \"contracts/distribution/TombGenesisRewardPool.sol\":11006:11028  _amount > _PolyBalance */\n      gt\n        /* \"contracts/distribution/TombGenesisRewardPool.sol\":11002:11173  if (_amount > _PolyBalance) {\r... */\n      iszero\n      tag_324\n      jumpi\n        /* \"contracts/distribution/TombGenesisRewardPool.sol\":11049:11085  Poly.safeTransfer(_to, _PolyBalance) */\n      tag_325\n        /* \"contracts/distribution/TombGenesisRewardPool.sol\":11067:11070  _to */\n      dup4\n        /* \"contracts/distribution/TombGenesisRewardPool.sol\":11072:11084  _PolyBalance */\n      dup3\n        /* \"contracts/distribution/TombGenesisRewardPool.sol\":11049:11053  Poly */\n      0x02\n      0x00\n      swap1\n      sload\n      swap1\n      0x0100\n      exp\n      swap1\n      div\n      0xffffffffffffffffffffffffffffffffffffffff\n      and\n        /* \"contracts/distribution/TombGenesisRewardPool.sol\":11049:11066  Poly.safeTransfer */\n      0xffffffffffffffffffffffffffffffffffffffff\n      and\n      tag_175\n      swap1\n        /* \"contracts/distribution/TombGenesisRewardPool.sol\":11049:11085  Poly.safeTransfer(_to, _PolyBalance) */\n      swap3\n      swap2\n      swap1\n      0xffffffff\n      and\n      jump\t// in\n    tag_325:\n        /* \"contracts/distribution/TombGenesisRewardPool.sol\":11002:11173  if (_amount > _PolyBalance) {\r... */\n      jump(tag_326)\n    tag_324:\n        /* \"contracts/distribution/TombGenesisRewardPool.sol\":11126:11157  Poly.safeTransfer(_to, _amount) */\n      tag_327\n        /* \"contracts/distribution/TombGenesisRewardPool.sol\":11144:11147  _to */\n      dup4\n        /* \"contracts/distribution/TombGenesisRewardPool.sol\":11149:11156  _amount */\n      dup4\n        /* \"contracts/distribution/TombGenesisRewardPool.sol\":11126:11130  Poly */\n      0x02\n      0x00\n      swap1\n      sload\n      swap1\n      0x0100\n      exp\n      swap1\n      div\n      0xffffffffffffffffffffffffffffffffffffffff\n      and\n        /* \"contracts/distribution/TombGenesisRewardPool.sol\":11126:11143  Poly.safeTransfer */\n      0xffffffffffffffffffffffffffffffffffffffff\n      and\n      tag_175\n      swap1\n        /* \"contracts/distribution/TombGenesisRewardPool.sol\":11126:11157  Poly.safeTransfer(_to, _amount) */\n      swap3\n      swap2\n      swap1\n      0xffffffff\n      and\n      jump\t// in\n    tag_327:\n        /* \"contracts/distribution/TombGenesisRewardPool.sol\":11002:11173  if (_amount > _PolyBalance) {\r... */\n    tag_326:\n        /* \"contracts/distribution/TombGenesisRewardPool.sol\":10965:11184  if (_PolyBalance > 0) {\r... */\n    tag_323:\n        /* \"contracts/distribution/TombGenesisRewardPool.sol\":10826:11191  function safePolyTransfer(address _to, uint256 _amount) internal {\r... */\n      pop\n      pop\n      pop\n      jump\t// out\n        /* \"@openzeppelin/contracts/token/ERC20/utils/SafeERC20.sol\":717:892  function safeTransfer(IERC20 token, address to, uint256 value) internal {... */\n    tag_175:\n        /* \"@openzeppelin/contracts/token/ERC20/utils/SafeERC20.sol\":799:885  _callOptionalReturn(token, abi.encodeWithSelector(token.transfer.selector, to, value)) */\n      tag_329\n        /* \"@openzeppelin/contracts/token/ERC20/utils/SafeERC20.sol\":819:824  token */\n      dup4\n        /* \"@openzeppelin/contracts/token/ERC20/utils/SafeERC20.sol\":849:872  token.transfer.selector */\n      shl(0xe0, 0xa9059cbb)\n        /* \"@openzeppelin/contracts/token/ERC20/utils/SafeERC20.sol\":874:876  to */\n      dup5\n        /* \"@openzeppelin/contracts/token/ERC20/utils/SafeERC20.sol\":878:883  value */\n      dup5\n        /* \"@openzeppelin/contracts/token/ERC20/utils/SafeERC20.sol\":826:884  abi.encodeWithSelector(token.transfer.selector, to, value) */\n      add(0x24, mload(0x40))\n      dup1\n      dup4\n      0xffffffffffffffffffffffffffffffffffffffff\n      and\n      dup2\n      mstore\n      0x20\n      add\n      dup3\n      dup2\n      mstore\n      0x20\n      add\n      swap3\n      pop\n      pop\n      pop\n      mload(0x40)\n      0x20\n      dup2\n      dup4\n      sub\n      sub\n      dup2\n      mstore\n      swap1\n      0x40\n      mstore\n      swap1\n      not(0xffffffffffffffffffffffffffffffffffffffffffffffffffffffff)\n      and\n      0x20\n      dup3\n      add\n      dup1\n      mload\n      0xffffffffffffffffffffffffffffffffffffffffffffffffffffffff\n      dup4\n      dup2\n      dup4\n      and\n      or\n      dup4\n      mstore\n      pop\n      pop\n      pop\n      pop\n        /* \"@openzeppelin/contracts/token/ERC20/utils/SafeERC20.sol\":799:818  _callOptionalReturn */\n      tag_330\n        /* \"@openzeppelin/contracts/token/ERC20/utils/SafeERC20.sol\":799:885  _callOptionalReturn(token, abi.encodeWithSelector(token.transfer.selector, to, value)) */\n      jump\t// in\n    tag_329:\n        /* \"@openzeppelin/contracts/token/ERC20/utils/SafeERC20.sol\":717:892  function safeTransfer(IERC20 token, address to, uint256 value) internal {... */\n      pop\n      pop\n      pop\n      jump\t// out\n        /* \"contracts/distribution/TombGenesisRewardPool.sol\":3160:3421  function checkPoolDuplicate(IERC20 _token) internal view {\r... */\n    tag_248:\n        /* \"contracts/distribution/TombGenesisRewardPool.sol\":3228:3242  uint256 length */\n      0x00\n        /* \"contracts/distribution/TombGenesisRewardPool.sol\":3245:3253  poolInfo */\n      0x06\n        /* \"contracts/distribution/TombGenesisRewardPool.sol\":3245:3260  poolInfo.length */\n      dup1\n      sload\n      swap1\n      pop\n        /* \"contracts/distribution/TombGenesisRewardPool.sol\":3228:3260  uint256 length = poolInfo.length */\n      swap1\n      pop\n        /* \"contracts/distribution/TombGenesisRewardPool.sol\":3276:3287  uint256 pid */\n      0x00\n        /* \"contracts/distribution/TombGenesisRewardPool.sol\":3271:3414  for (uint256 pid = 0; pid < length; ++pid) {\r... */\n    tag_332:\n        /* \"contracts/distribution/TombGenesisRewardPool.sol\":3299:3305  length */\n      dup2\n        /* \"contracts/distribution/TombGenesisRewardPool.sol\":3293:3296  pid */\n      dup2\n        /* \"contracts/distribution/TombGenesisRewardPool.sol\":3293:3305  pid < length */\n      lt\n        /* \"contracts/distribution/TombGenesisRewardPool.sol\":3271:3414  for (uint256 pid = 0; pid < length; ++pid) {\r... */\n      iszero\n      tag_333\n      jumpi\n        /* \"contracts/distribution/TombGenesisRewardPool.sol\":3360:3366  _token */\n      dup3\n        /* \"contracts/distribution/TombGenesisRewardPool.sol\":3337:3366  poolInfo[pid].token != _token */\n      0xffffffffffffffffffffffffffffffffffffffff\n      and\n        /* \"contracts/distribution/TombGenesisRewardPool.sol\":3337:3345  poolInfo */\n      0x06\n        /* \"contracts/distribution/TombGenesisRewardPool.sol\":3346:3349  pid */\n      dup3\n        /* \"contracts/distribution/TombGenesisRewardPool.sol\":3337:3350  poolInfo[pid] */\n      dup2\n      sload\n      dup2\n      lt\n      tag_335\n      jumpi\n      invalid\n    tag_335:\n      swap1\n      0x00\n      mstore\n      keccak256(0x00, 0x20)\n      swap1\n      0x05\n      mul\n      add\n        /* \"contracts/distribution/TombGenesisRewardPool.sol\":3337:3356  poolInfo[pid].token */\n      0x00\n      add\n      0x00\n      swap1\n      sload\n      swap1\n      0x0100\n      exp\n      swap1\n      div\n      0xffffffffffffffffffffffffffffffffffffffff\n      and\n        /* \"contracts/distribution/TombGenesisRewardPool.sol\":3337:3366  poolInfo[pid].token != _token */\n      0xffffffffffffffffffffffffffffffffffffffff\n      and\n      eq\n      iszero\n        /* \"contracts/distribution/TombGenesisRewardPool.sol\":3329:3402  require(poolInfo[pid].token != _token, \"PolyGenesisPool: existing pool?\") */\n      tag_337\n      jumpi\n      mload(0x40)\n      0x08c379a000000000000000000000000000000000000000000000000000000000\n      dup2\n      mstore\n      0x04\n      add\n      dup1\n      dup1\n      0x20\n      add\n      dup3\n      dup2\n      sub\n      dup3\n      mstore\n      0x1f\n      dup2\n      mstore\n      0x20\n      add\n      dup1\n      0x506f6c7947656e65736973506f6f6c3a206578697374696e6720706f6f6c3f00\n      dup2\n      mstore\n      pop\n      0x20\n      add\n      swap2\n      pop\n      pop\n      mload(0x40)\n      dup1\n      swap2\n      sub\n      swap1\n      revert\n    tag_337:\n        /* \"contracts/distribution/TombGenesisRewardPool.sol\":3307:3312  ++pid */\n      dup1\n      0x01\n      add\n      swap1\n      pop\n        /* \"contracts/distribution/TombGenesisRewardPool.sol\":3271:3414  for (uint256 pid = 0; pid < length; ++pid) {\r... */\n      jump(tag_332)\n    tag_333:\n      pop\n        /* \"contracts/distribution/TombGenesisRewardPool.sol\":3160:3421  function checkPoolDuplicate(IERC20 _token) internal view {\r... */\n      pop\n      pop\n      jump\t// out\n        /* \"contracts/distribution/TombGenesisRewardPool.sol\":8043:8242  function _fees(uint256 _amount) internal view returns (uint256) {\r... */\n    tag_276:\n        /* \"contracts/distribution/TombGenesisRewardPool.sol\":8098:8105  uint256 */\n      0x00\n        /* \"contracts/distribution/TombGenesisRewardPool.sol\":8118:8130  uint256 _old */\n      dup1\n        /* \"contracts/distribution/TombGenesisRewardPool.sol\":8133:8150  _amount.ceil(Fee) */\n      tag_339\n        /* \"contracts/distribution/TombGenesisRewardPool.sol\":8146:8149  Fee */\n      sload(0x04)\n        /* \"contracts/distribution/TombGenesisRewardPool.sol\":8133:8140  _amount */\n      dup5\n        /* \"contracts/distribution/TombGenesisRewardPool.sol\":8133:8145  _amount.ceil */\n      tag_340\n      swap1\n        /* \"contracts/distribution/TombGenesisRewardPool.sol\":8133:8150  _amount.ceil(Fee) */\n      swap2\n      swap1\n      0xffffffff\n      and\n      jump\t// in\n    tag_339:\n        /* \"contracts/distribution/TombGenesisRewardPool.sol\":8118:8150  uint256 _old = _amount.ceil(Fee) */\n      swap1\n      pop\n        /* \"contracts/distribution/TombGenesisRewardPool.sol\":8161:8179  uint256 _newAmount */\n      0x00\n        /* \"contracts/distribution/TombGenesisRewardPool.sol\":8182:8206  _old.mul(Fee).div(10000) */\n      tag_341\n        /* \"contracts/distribution/TombGenesisRewardPool.sol\":8200:8205  10000 */\n      0x2710\n        /* \"contracts/distribution/TombGenesisRewardPool.sol\":8182:8195  _old.mul(Fee) */\n      tag_342\n        /* \"contracts/distribution/TombGenesisRewardPool.sol\":8191:8194  Fee */\n      sload(0x04)\n        /* \"contracts/distribution/TombGenesisRewardPool.sol\":8182:8186  _old */\n      dup6\n        /* \"contracts/distribution/TombGenesisRewardPool.sol\":8182:8190  _old.mul */\n      tag_141\n      swap1\n        /* \"contracts/distribution/TombGenesisRewardPool.sol\":8182:8195  _old.mul(Fee) */\n      swap2\n      swap1\n      0xffffffff\n      and\n      jump\t// in\n    tag_342:\n        /* \"contracts/distribution/TombGenesisRewardPool.sol\":8182:8199  _old.mul(Fee).div */\n      tag_168\n      swap1\n        /* \"contracts/distribution/TombGenesisRewardPool.sol\":8182:8206  _old.mul(Fee).div(10000) */\n      swap2\n      swap1\n      0xffffffff\n      and\n      jump\t// in\n    tag_341:\n        /* \"contracts/distribution/TombGenesisRewardPool.sol\":8161:8206  uint256 _newAmount = _old.mul(Fee).div(10000) */\n      swap1\n      pop\n        /* \"contracts/distribution/TombGenesisRewardPool.sol\":8224:8234  _newAmount */\n      dup1\n        /* \"contracts/distribution/TombGenesisRewardPool.sol\":8217:8234  return _newAmount */\n      swap3\n      pop\n      pop\n      pop\n        /* \"contracts/distribution/TombGenesisRewardPool.sol\":8043:8242  function _fees(uint256 _amount) internal view returns (uint256) {\r... */\n      swap2\n      swap1\n      pop\n      jump\t// out\n        /* \"@openzeppelin/contracts/token/ERC20/utils/SafeERC20.sol\":898:1101  function safeTransferFrom(IERC20 token, address from, address to, uint256 value) internal {... */\n    tag_289:\n        /* \"@openzeppelin/contracts/token/ERC20/utils/SafeERC20.sol\":998:1094  _callOptionalReturn(token, abi.encodeWithSelector(token.transferFrom.selector, from, to, value)) */\n      tag_344\n        /* \"@openzeppelin/contracts/token/ERC20/utils/SafeERC20.sol\":1018:1023  token */\n      dup5\n        /* \"@openzeppelin/contracts/token/ERC20/utils/SafeERC20.sol\":1048:1075  token.transferFrom.selector */\n      shl(0xe0, 0x23b872dd)\n        /* \"@openzeppelin/contracts/token/ERC20/utils/SafeERC20.sol\":1077:1081  from */\n      dup6\n        /* \"@openzeppelin/contracts/token/ERC20/utils/SafeERC20.sol\":1083:1085  to */\n      dup6\n        /* \"@openzeppelin/contracts/token/ERC20/utils/SafeERC20.sol\":1087:1092  value */\n      dup6\n        /* \"@openzeppelin/contracts/token/ERC20/utils/SafeERC20.sol\":1025:1093  abi.encodeWithSelector(token.transferFrom.selector, from, to, value) */\n      add(0x24, mload(0x40))\n      dup1\n      dup5\n      0xffffffffffffffffffffffffffffffffffffffff\n      and\n      dup2\n      mstore\n      0x20\n      add\n      dup4\n      0xffffffffffffffffffffffffffffffffffffffff\n      and\n      dup2\n      mstore\n      0x20\n      add\n      dup3\n      dup2\n      mstore\n      0x20\n      add\n      swap4\n      pop\n      pop\n      pop\n      pop\n      mload(0x40)\n      0x20\n      dup2\n      dup4\n      sub\n      sub\n      dup2\n      mstore\n      swap1\n      0x40\n      mstore\n      swap1\n      not(0xffffffffffffffffffffffffffffffffffffffffffffffffffffffff)\n      and\n      0x20\n      dup3\n      add\n      dup1\n      mload\n      0xffffffffffffffffffffffffffffffffffffffffffffffffffffffff\n      dup4\n      dup2\n      dup4\n      and\n      or\n      dup4\n      mstore\n      pop\n      pop\n      pop\n      pop\n        /* \"@openzeppelin/contracts/token/ERC20/utils/SafeERC20.sol\":998:1017  _callOptionalReturn */\n      tag_330\n        /* \"@openzeppelin/contracts/token/ERC20/utils/SafeERC20.sol\":998:1094  _callOptionalReturn(token, abi.encodeWithSelector(token.transferFrom.selector, from, to, value)) */\n      jump\t// in\n    tag_344:\n        /* \"@openzeppelin/contracts/token/ERC20/utils/SafeERC20.sol\":898:1101  function safeTransferFrom(IERC20 token, address from, address to, uint256 value) internal {... */\n      pop\n      pop\n      pop\n      pop\n      jump\t// out\n        /* \"@openzeppelin/contracts/token/ERC20/utils/SafeERC20.sol\":2980:3731  function _callOptionalReturn(IERC20 token, bytes memory data) private {... */\n    tag_330:\n        /* \"@openzeppelin/contracts/token/ERC20/utils/SafeERC20.sol\":3399:3422  bytes memory returndata */\n      0x60\n        /* \"@openzeppelin/contracts/token/ERC20/utils/SafeERC20.sol\":3425:3494  address(token).functionCall(data, \"SafeERC20: low-level call failed\") */\n      tag_346\n        /* \"@openzeppelin/contracts/token/ERC20/utils/SafeERC20.sol\":3453:3457  data */\n      dup3\n        /* \"@openzeppelin/contracts/token/ERC20/utils/SafeERC20.sol\":3425:3494  address(token).functionCall(data, \"SafeERC20: low-level call failed\") */\n      mload(0x40)\n      dup1\n      0x40\n      add\n      0x40\n      mstore\n      dup1\n      0x20\n      dup2\n      mstore\n      0x20\n      add\n      0x5361666545524332303a206c6f772d6c6576656c2063616c6c206661696c6564\n      dup2\n      mstore\n      pop\n        /* \"@openzeppelin/contracts/token/ERC20/utils/SafeERC20.sol\":3433:3438  token */\n      dup6\n        /* \"@openzeppelin/contracts/token/ERC20/utils/SafeERC20.sol\":3425:3452  address(token).functionCall */\n      0xffffffffffffffffffffffffffffffffffffffff\n      and\n      tag_347\n      swap1\n        /* \"@openzeppelin/contracts/token/ERC20/utils/SafeERC20.sol\":3425:3494  address(token).functionCall(data, \"SafeERC20: low-level call failed\") */\n      swap3\n      swap2\n      swap1\n      0xffffffff\n      and\n      jump\t// in\n    tag_346:\n        /* \"@openzeppelin/contracts/token/ERC20/utils/SafeERC20.sol\":3399:3494  bytes memory returndata = address(token).functionCall(data, \"SafeERC20: low-level call failed\") */\n      swap1\n      pop\n        /* \"@openzeppelin/contracts/token/ERC20/utils/SafeERC20.sol\":3528:3529  0 */\n      0x00\n        /* \"@openzeppelin/contracts/token/ERC20/utils/SafeERC20.sol\":3508:3518  returndata */\n      dup2\n        /* \"@openzeppelin/contracts/token/ERC20/utils/SafeERC20.sol\":3508:3525  returndata.length */\n      mload\n        /* \"@openzeppelin/contracts/token/ERC20/utils/SafeERC20.sol\":3508:3529  returndata.length > 0 */\n      gt\n        /* \"@openzeppelin/contracts/token/ERC20/utils/SafeERC20.sol\":3504:3725  if (returndata.length > 0) { // Return data is optional... */\n      iszero\n      tag_348\n      jumpi\n        /* \"@openzeppelin/contracts/token/ERC20/utils/SafeERC20.sol\":3648:3658  returndata */\n      dup1\n        /* \"@openzeppelin/contracts/token/ERC20/utils/SafeERC20.sol\":3637:3667  abi.decode(returndata, (bool)) */\n      dup1\n      0x20\n      add\n      swap1\n      mload\n      0x20\n      dup2\n      lt\n      iszero\n      tag_349\n      jumpi\n      0x00\n      dup1\n      revert\n    tag_349:\n      dup2\n      add\n      swap1\n      dup1\n      dup1\n      mload\n      swap1\n      0x20\n      add\n      swap1\n      swap3\n      swap2\n      swap1\n      pop\n      pop\n      pop\n        /* \"@openzeppelin/contracts/token/ERC20/utils/SafeERC20.sol\":3629:3714  require(abi.decode(returndata, (bool)), \"SafeERC20: ERC20 operation did not succeed\") */\n      tag_350\n      jumpi\n      mload(0x40)\n      0x08c379a000000000000000000000000000000000000000000000000000000000\n      dup2\n      mstore\n      0x04\n      add\n      dup1\n      dup1\n      0x20\n      add\n      dup3\n      dup2\n      sub\n      dup3\n      mstore\n      0x2a\n      dup2\n      mstore\n      0x20\n      add\n      dup1\n      data_e11ad79d1e4a7f2e5f376964cb99e8e8f7904e3fc16a109f7a7ecb9aa7956dcd\n      0x2a\n      swap2\n      codecopy\n      0x40\n      add\n      swap2\n      pop\n      pop\n      mload(0x40)\n      dup1\n      swap2\n      sub\n      swap1\n      revert\n    tag_350:\n        /* \"@openzeppelin/contracts/token/ERC20/utils/SafeERC20.sol\":3504:3725  if (returndata.length > 0) { // Return data is optional... */\n    tag_348:\n        /* \"@openzeppelin/contracts/token/ERC20/utils/SafeERC20.sol\":2980:3731  function _callOptionalReturn(IERC20 token, bytes memory data) private {... */\n      pop\n      pop\n      pop\n      jump\t// out\n        /* \"@openzeppelin/contracts/utils/math/SafeMath.sol\":5601:5772  function ceil(uint256 a, uint256 m) internal pure returns (uint256) {... */\n    tag_340:\n        /* \"@openzeppelin/contracts/utils/math/SafeMath.sol\":5660:5667  uint256 */\n      0x00\n        /* \"@openzeppelin/contracts/utils/math/SafeMath.sol\":5679:5688  uint256 c */\n      dup1\n        /* \"@openzeppelin/contracts/utils/math/SafeMath.sol\":5691:5700  add(a, m) */\n      tag_352\n        /* \"@openzeppelin/contracts/utils/math/SafeMath.sol\":5695:5696  a */\n      dup5\n        /* \"@openzeppelin/contracts/utils/math/SafeMath.sol\":5698:5699  m */\n      dup5\n        /* \"@openzeppelin/contracts/utils/math/SafeMath.sol\":5691:5694  add */\n      tag_133\n        /* \"@openzeppelin/contracts/utils/math/SafeMath.sol\":5691:5700  add(a, m) */\n      jump\t// in\n    tag_352:\n        /* \"@openzeppelin/contracts/utils/math/SafeMath.sol\":5679:5700  uint256 c = add(a, m) */\n      swap1\n      pop\n        /* \"@openzeppelin/contracts/utils/math/SafeMath.sol\":5710:5719  uint256 d */\n      0x00\n        /* \"@openzeppelin/contracts/utils/math/SafeMath.sol\":5722:5731  sub(c, 1) */\n      tag_353\n        /* \"@openzeppelin/contracts/utils/math/SafeMath.sol\":5726:5727  c */\n      dup3\n        /* \"@openzeppelin/contracts/utils/math/SafeMath.sol\":5729:5730  1 */\n      0x01\n        /* \"@openzeppelin/contracts/utils/math/SafeMath.sol\":5722:5725  sub */\n      tag_132\n        /* \"@openzeppelin/contracts/utils/math/SafeMath.sol\":5722:5731  sub(c, 1) */\n      jump\t// in\n    tag_353:\n        /* \"@openzeppelin/contracts/utils/math/SafeMath.sol\":5710:5731  uint256 d = sub(c, 1) */\n      swap1\n      pop\n        /* \"@openzeppelin/contracts/utils/math/SafeMath.sol\":5748:5765  mul(div(d, m), m) */\n      tag_354\n        /* \"@openzeppelin/contracts/utils/math/SafeMath.sol\":5752:5761  div(d, m) */\n      tag_355\n        /* \"@openzeppelin/contracts/utils/math/SafeMath.sol\":5756:5757  d */\n      dup3\n        /* \"@openzeppelin/contracts/utils/math/SafeMath.sol\":5759:5760  m */\n      dup7\n        /* \"@openzeppelin/contracts/utils/math/SafeMath.sol\":5752:5755  div */\n      tag_168\n        /* \"@openzeppelin/contracts/utils/math/SafeMath.sol\":5752:5761  div(d, m) */\n      jump\t// in\n    tag_355:\n        /* \"@openzeppelin/contracts/utils/math/SafeMath.sol\":5763:5764  m */\n      dup6\n        /* \"@openzeppelin/contracts/utils/math/SafeMath.sol\":5748:5751  mul */\n      tag_141\n        /* \"@openzeppelin/contracts/utils/math/SafeMath.sol\":5748:5765  mul(div(d, m), m) */\n      jump\t// in\n    tag_354:\n        /* \"@openzeppelin/contracts/utils/math/SafeMath.sol\":5741:5765  return mul(div(d, m), m) */\n      swap3\n      pop\n      pop\n      pop\n        /* \"@openzeppelin/contracts/utils/math/SafeMath.sol\":5601:5772  function ceil(uint256 a, uint256 m) internal pure returns (uint256) {... */\n      swap3\n      swap2\n      pop\n      pop\n      jump\t// out\n        /* \"@openzeppelin/contracts/utils/Address.sol\":3470:3693  function functionCall(... */\n    tag_347:\n        /* \"@openzeppelin/contracts/utils/Address.sol\":3603:3615  bytes memory */\n      0x60\n        /* \"@openzeppelin/contracts/utils/Address.sol\":3634:3686  functionCallWithValue(target, data, 0, errorMessage) */\n      tag_357\n        /* \"@openzeppelin/contracts/utils/Address.sol\":3656:3662  target */\n      dup5\n        /* \"@openzeppelin/contracts/utils/Address.sol\":3664:3668  data */\n      dup5\n        /* \"@openzeppelin/contracts/utils/Address.sol\":3670:3671  0 */\n      0x00\n        /* \"@openzeppelin/contracts/utils/Address.sol\":3673:3685  errorMessage */\n      dup6\n        /* \"@openzeppelin/contracts/utils/Address.sol\":3634:3655  functionCallWithValue */\n      tag_358\n        /* \"@openzeppelin/contracts/utils/Address.sol\":3634:3686  functionCallWithValue(target, data, 0, errorMessage) */\n      jump\t// in\n    tag_357:\n        /* \"@openzeppelin/contracts/utils/Address.sol\":3627:3686  return functionCallWithValue(target, data, 0, errorMessage) */\n      swap1\n      pop\n        /* \"@openzeppelin/contracts/utils/Address.sol\":3470:3693  function functionCall(... */\n      swap4\n      swap3\n      pop\n      pop\n      pop\n      jump\t// out\n        /* \"@openzeppelin/contracts/utils/Address.sol\":4557:5056  function functionCallWithValue(... */\n    tag_358:\n        /* \"@openzeppelin/contracts/utils/Address.sol\":4722:4734  bytes memory */\n      0x60\n        /* \"@openzeppelin/contracts/utils/Address.sol\":4779:4784  value */\n      dup3\n        /* \"@openzeppelin/contracts/utils/Address.sol\":4754:4775  address(this).balance */\n      selfbalance\n        /* \"@openzeppelin/contracts/utils/Address.sol\":4754:4784  address(this).balance >= value */\n      lt\n      iszero\n        /* \"@openzeppelin/contracts/utils/Address.sol\":4746:4827  require(address(this).balance >= value, \"Address: insufficient balance for call\") */\n      tag_360\n      jumpi\n      mload(0x40)\n      0x08c379a000000000000000000000000000000000000000000000000000000000\n      dup2\n      mstore\n      0x04\n      add\n      dup1\n      dup1\n      0x20\n      add\n      dup3\n      dup2\n      sub\n      dup3\n      mstore\n      0x26\n      dup2\n      mstore\n      0x20\n      add\n      dup1\n      data_565f1a77334fc4792800921178c71e4521acffab18ff9e7885b49377ee80ab4c\n      0x26\n      swap2\n      codecopy\n      0x40\n      add\n      swap2\n      pop\n      pop\n      mload(0x40)\n      dup1\n      swap2\n      sub\n      swap1\n      revert\n    tag_360:\n        /* \"@openzeppelin/contracts/utils/Address.sol\":4845:4863  isContract(target) */\n      tag_361\n        /* \"@openzeppelin/contracts/utils/Address.sol\":4856:4862  target */\n      dup6\n        /* \"@openzeppelin/contracts/utils/Address.sol\":4845:4855  isContract */\n      tag_362\n        /* \"@openzeppelin/contracts/utils/Address.sol\":4845:4863  isContract(target) */\n      jump\t// in\n    tag_361:\n        /* \"@openzeppelin/contracts/utils/Address.sol\":4837:4897  require(isContract(target), \"Address: call to non-contract\") */\n      tag_363\n      jumpi\n      mload(0x40)\n      0x08c379a000000000000000000000000000000000000000000000000000000000\n      dup2\n      mstore\n      0x04\n      add\n      dup1\n      dup1\n      0x20\n      add\n      dup3\n      dup2\n      sub\n      dup3\n      mstore\n      0x1d\n      dup2\n      mstore\n      0x20\n      add\n      dup1\n      0x416464726573733a2063616c6c20746f206e6f6e2d636f6e7472616374000000\n      dup2\n      mstore\n      pop\n      0x20\n      add\n      swap2\n      pop\n      pop\n      mload(0x40)\n      dup1\n      swap2\n      sub\n      swap1\n      revert\n    tag_363:\n        /* \"@openzeppelin/contracts/utils/Address.sol\":4909:4921  bool success */\n      0x00\n        /* \"@openzeppelin/contracts/utils/Address.sol\":4923:4946  bytes memory returndata */\n      0x60\n        /* \"@openzeppelin/contracts/utils/Address.sol\":4950:4956  target */\n      dup7\n        /* \"@openzeppelin/contracts/utils/Address.sol\":4950:4961  target.call */\n      0xffffffffffffffffffffffffffffffffffffffff\n      and\n        /* \"@openzeppelin/contracts/utils/Address.sol\":4969:4974  value */\n      dup6\n        /* \"@openzeppelin/contracts/utils/Address.sol\":4976:4980  data */\n      dup8\n        /* \"@openzeppelin/contracts/utils/Address.sol\":4950:4981  target.call{value: value}(data) */\n      mload(0x40)\n      dup1\n      dup3\n      dup1\n      mload\n      swap1\n      0x20\n      add\n      swap1\n      dup1\n      dup4\n      dup4\n    tag_364:\n      0x20\n      dup4\n      lt\n      tag_366\n      jumpi\n      dup1\n      mload\n      dup3\n      mstore\n      0x20\n      dup3\n      add\n      swap2\n      pop\n      0x20\n      dup2\n      add\n      swap1\n      pop\n      0x20\n      dup4\n      sub\n      swap3\n      pop\n      jump(tag_364)\n    tag_366:\n      0x01\n      dup4\n      0x20\n      sub\n      0x0100\n      exp\n      sub\n      dup1\n      not\n      dup3\n      mload\n      and\n      dup2\n      dup5\n      mload\n      and\n      dup1\n      dup3\n      or\n      dup6\n      mstore\n      pop\n      pop\n      pop\n      pop\n      pop\n      pop\n      swap1\n      pop\n      add\n      swap2\n      pop\n      pop\n      0x00\n      mload(0x40)\n      dup1\n      dup4\n      sub\n      dup2\n      dup6\n      dup8\n      gas\n      call\n      swap3\n      pop\n      pop\n      pop\n      returndatasize\n      dup1\n      0x00\n      dup2\n      eq\n      tag_369\n      jumpi\n      mload(0x40)\n      swap2\n      pop\n      and(add(returndatasize, 0x3f), not(0x1f))\n      dup3\n      add\n      0x40\n      mstore\n      returndatasize\n      dup3\n      mstore\n      returndatasize\n      0x00\n      0x20\n      dup5\n      add\n      returndatacopy\n      jump(tag_368)\n    tag_369:\n      0x60\n      swap2\n      pop\n    tag_368:\n      pop\n        /* \"@openzeppelin/contracts/utils/Address.sol\":4908:4981  (bool success, bytes memory returndata) = target.call{value: value}(data) */\n      swap2\n      pop\n      swap2\n      pop\n        /* \"@openzeppelin/contracts/utils/Address.sol\":4998:5049  verifyCallResult(success, returndata, errorMessage) */\n      tag_370\n        /* \"@openzeppelin/contracts/utils/Address.sol\":5015:5022  success */\n      dup3\n        /* \"@openzeppelin/contracts/utils/Address.sol\":5024:5034  returndata */\n      dup3\n        /* \"@openzeppelin/contracts/utils/Address.sol\":5036:5048  errorMessage */\n      dup7\n        /* \"@openzeppelin/contracts/utils/Address.sol\":4998:5014  verifyCallResult */\n      tag_371\n        /* \"@openzeppelin/contracts/utils/Address.sol\":4998:5049  verifyCallResult(success, returndata, errorMessage) */\n      jump\t// in\n    tag_370:\n        /* \"@openzeppelin/contracts/utils/Address.sol\":4991:5049  return verifyCallResult(success, returndata, errorMessage) */\n      swap3\n      pop\n      pop\n      pop\n        /* \"@openzeppelin/contracts/utils/Address.sol\":4557:5056  function functionCallWithValue(... */\n      swap5\n      swap4\n      pop\n      pop\n      pop\n      pop\n      jump\t// out\n        /* \"@openzeppelin/contracts/utils/Address.sol\":727:1104  function isContract(address account) internal view returns (bool) {... */\n    tag_362:\n        /* \"@openzeppelin/contracts/utils/Address.sol\":787:791  bool */\n      0x00\n        /* \"@openzeppelin/contracts/utils/Address.sol\":990:1002  uint256 size */\n      dup1\n        /* \"@openzeppelin/contracts/utils/Address.sol\":1055:1062  account */\n      dup3\n        /* \"@openzeppelin/contracts/utils/Address.sol\":1043:1063  extcodesize(account) */\n      extcodesize\n        /* \"@openzeppelin/contracts/utils/Address.sol\":1035:1063  size := extcodesize(account) */\n      swap1\n      pop\n        /* \"@openzeppelin/contracts/utils/Address.sol\":1096:1097  0 */\n      0x00\n        /* \"@openzeppelin/contracts/utils/Address.sol\":1089:1093  size */\n      dup2\n        /* \"@openzeppelin/contracts/utils/Address.sol\":1089:1097  size > 0 */\n      gt\n        /* \"@openzeppelin/contracts/utils/Address.sol\":1082:1097  return size > 0 */\n      swap2\n      pop\n      pop\n        /* \"@openzeppelin/contracts/utils/Address.sol\":727:1104  function isContract(address account) internal view returns (bool) {... */\n      swap2\n      swap1\n      pop\n      jump\t// out\n        /* \"@openzeppelin/contracts/utils/Address.sol\":7170:7862  function verifyCallResult(... */\n    tag_371:\n        /* \"@openzeppelin/contracts/utils/Address.sol\":7316:7328  bytes memory */\n      0x60\n        /* \"@openzeppelin/contracts/utils/Address.sol\":7344:7351  success */\n      dup4\n        /* \"@openzeppelin/contracts/utils/Address.sol\":7340:7856  if (success) {... */\n      iszero\n      tag_374\n      jumpi\n        /* \"@openzeppelin/contracts/utils/Address.sol\":7374:7384  returndata */\n      dup3\n        /* \"@openzeppelin/contracts/utils/Address.sol\":7367:7384  return returndata */\n      swap1\n      pop\n      jump(tag_373)\n        /* \"@openzeppelin/contracts/utils/Address.sol\":7340:7856  if (success) {... */\n    tag_374:\n        /* \"@openzeppelin/contracts/utils/Address.sol\":7505:7506  0 */\n      0x00\n        /* \"@openzeppelin/contracts/utils/Address.sol\":7485:7495  returndata */\n      dup4\n        /* \"@openzeppelin/contracts/utils/Address.sol\":7485:7502  returndata.length */\n      mload\n        /* \"@openzeppelin/contracts/utils/Address.sol\":7485:7506  returndata.length > 0 */\n      gt\n        /* \"@openzeppelin/contracts/utils/Address.sol\":7481:7846  if (returndata.length > 0) {... */\n      iszero\n      tag_376\n      jumpi\n        /* \"@openzeppelin/contracts/utils/Address.sol\":7679:7689  returndata */\n      dup3\n        /* \"@openzeppelin/contracts/utils/Address.sol\":7673:7690  mload(returndata) */\n      mload\n        /* \"@openzeppelin/contracts/utils/Address.sol\":7739:7754  returndata_size */\n      dup1\n        /* \"@openzeppelin/contracts/utils/Address.sol\":7726:7736  returndata */\n      dup5\n        /* \"@openzeppelin/contracts/utils/Address.sol\":7722:7724  32 */\n      0x20\n        /* \"@openzeppelin/contracts/utils/Address.sol\":7718:7737  add(32, returndata) */\n      add\n        /* \"@openzeppelin/contracts/utils/Address.sol\":7711:7755  revert(add(32, returndata), returndata_size) */\n      revert\n        /* \"@openzeppelin/contracts/utils/Address.sol\":7628:7773  {... */\n    tag_376:\n        /* \"@openzeppelin/contracts/utils/Address.sol\":7818:7830  errorMessage */\n      dup2\n        /* \"@openzeppelin/contracts/utils/Address.sol\":7811:7831  revert(errorMessage) */\n      mload(0x40)\n      0x08c379a000000000000000000000000000000000000000000000000000000000\n      dup2\n      mstore\n      0x04\n      add\n      dup1\n      dup1\n      0x20\n      add\n      dup3\n      dup2\n      sub\n      dup3\n      mstore\n      dup4\n      dup2\n      dup2\n      mload\n      dup2\n      mstore\n      0x20\n      add\n      swap2\n      pop\n      dup1\n      mload\n      swap1\n      0x20\n      add\n      swap1\n      dup1\n      dup4\n      dup4\n      0x00\n    tag_378:\n      dup4\n      dup2\n      lt\n      iszero\n      tag_380\n      jumpi\n      dup1\n      dup3\n      add\n      mload\n      dup2\n      dup5\n      add\n      mstore\n      0x20\n      dup2\n      add\n      swap1\n      pop\n      jump(tag_378)\n    tag_380:\n      pop\n      pop\n      pop\n      pop\n      swap1\n      pop\n      swap1\n      dup2\n      add\n      swap1\n      0x1f\n      and\n      dup1\n      iszero\n      tag_381\n      jumpi\n      dup1\n      dup3\n      sub\n      dup1\n      mload\n      0x01\n      dup4\n      0x20\n      sub\n      0x0100\n      exp\n      sub\n      not\n      and\n      dup2\n      mstore\n      0x20\n      add\n      swap2\n      pop\n    tag_381:\n      pop\n      swap3\n      pop\n      pop\n      pop\n      mload(0x40)\n      dup1\n      swap2\n      sub\n      swap1\n      revert\n        /* \"@openzeppelin/contracts/utils/Address.sol\":7170:7862  function verifyCallResult(... */\n    tag_373:\n      swap4\n      swap3\n      pop\n      pop\n      pop\n      jump\t// out\n    stop\n    data_245f15ff17f551913a7a18385165551503906a406f905ac1c2437281a7cd0cfe 4f776e61626c653a206e6577206f776e657220697320746865207a65726f2061646472657373\n    data_565f1a77334fc4792800921178c71e4521acffab18ff9e7885b49377ee80ab4c 416464726573733a20696e73756666696369656e742062616c616e636520666f722063616c6c\n    data_756508c1c0554725dd91ce0028667672a5318d736a5e4bcd98b6bc8fe98c3dc7 6f70657261746f723a207a65726f206164647265737320676976656e20666f72206e6577206f70657261746f72\n    data_9113bb53c2876a3805b2c9242029423fc540a728243ce887ab24c82cf119fba3 536166654d6174683a206d756c7469706c69636174696f6e206f766572666c6f77\n    data_a62bfdba5053072911b63b0f6325b0e83fcd28b5a847d97efdd966feb4daaafb 6f70657261746f723a2063616c6c6572206973206e6f7420746865206f70657261746f72\n    data_e11ad79d1e4a7f2e5f376964cb99e8e8f7904e3fc16a109f7a7ecb9aa7956dcd 5361666545524332303a204552433230206f7065726174696f6e20646964206e6f742073756363656564\n\n    auxdata: 0xa2646970667358221220251ff64b1de066d3796f4c822e9f2c7e78f6c62f74063765e5cdbc4f435ab83964736f6c634300060c0033\n}\n",
				"bytecode": {
					"linkReferences": {},
					"object": "608060405260c86004556000600760006101000a81548160ff0219169083151502179055506000600955670156a8c394962000600c556203f480600d553480156200004957600080fd5b5060006200005c620001cd60201b60201c565b9050806000806101000a81548173ffffffffffffffffffffffffffffffffffffffff021916908373ffffffffffffffffffffffffffffffffffffffff1602179055508073ffffffffffffffffffffffffffffffffffffffff16600073ffffffffffffffffffffffffffffffffffffffff167f8be0079c531659141344cd1fd0a4f28419497f9722a3daafe3b4186f6b6457e060405160405180910390a3506200010a620001cd60201b60201c565b600160006101000a81548173ffffffffffffffffffffffffffffffffffffffff021916908373ffffffffffffffffffffffffffffffffffffffff160217905550600160009054906101000a900473ffffffffffffffffffffffffffffffffffffffff1673ffffffffffffffffffffffffffffffffffffffff16600073ffffffffffffffffffffffffffffffffffffffff167f74da04524d50c64947f5dd5381ef1a4dca5cba8ed1d816243f9e48aa0b5617ed60405160405180910390a3620001d5565b600033905090565b61323e80620001e56000396000f3fe608060405234801561001057600080fd5b50600436106101f05760003560e01c806354575af41161010f578063943f013d116100a2578063c350a1b511610071578063c350a1b5146107be578063e177bb381461082c578063e2bbb15814610860578063f2fde38b14610898576101f0565b8063943f013d146106da57806396805e54146106f8578063b3ab15fb1461075c578063bef7a2f0146107a0576101f0565b80636e271dd5116100de5780636e271dd514610615578063715018a6146106335780638da5cb5b1461063d57806393f1a40b14610671576101f0565b806354575af41461054b578063570ca735146105b95780635f96dc11146105ed578063630b5ba11461060b576101f0565b80633736421b116101875780634456eda2116101565780634456eda21461046d5780634d1e4f421461048d57806351eb05a6146104ef5780635312ea8e1461051d576101f0565b80633736421b146103c3578063392e53cd146103f75780633f7caf5214610417578063441a3e7014610435576101f0565b80631ab06ee5116101c35780631ab06ee5146102c75780631bccb99b146102ff578063231f0c6a1461033357806329605e771461037f576101f0565b806309cf6091146101f55780631526fe2714610213578063158ef93e1461028957806317caf6f1146102a9575b600080fd5b6101fd6108dc565b6040518082815260200191505060405180910390f35b61023f6004803603602081101561022957600080fd5b81019080803590602001909291905050506108ea565b604051808673ffffffffffffffffffffffffffffffffffffffff16815260200185815260200184815260200183815260200182151581526020019550505050505060405180910390f35b61029161095a565b60405180821515815260200191505060405180910390f35b6102b161096d565b6040518082815260200191505060405180910390f35b6102fd600480360360408110156102dd57600080fd5b810190808035906020019092919080359060200190929190505050610973565b005b610307610a97565b604051808273ffffffffffffffffffffffffffffffffffffffff16815260200191505060405180910390f35b6103696004803603604081101561034957600080fd5b810190808035906020019092919080359060200190929190505050610abd565b6040518082815260200191505060405180910390f35b6103c16004803603602081101561039557600080fd5b81019080803573ffffffffffffffffffffffffffffffffffffffff169060200190929190505050610bd0565b005b6103cb610c8b565b604051808273ffffffffffffffffffffffffffffffffffffffff16815260200191505060405180910390f35b6103ff610cb1565b60405180821515815260200191505060405180910390f35b61041f610cc8565b6040518082815260200191505060405180910390f35b61046b6004803603604081101561044b57600080fd5b810190808035906020019092919080359060200190929190505050610cce565b005b610475610f86565b60405180821515815260200191505060405180910390f35b6104d9600480360360408110156104a357600080fd5b8101908080359060200190929190803573ffffffffffffffffffffffffffffffffffffffff169060200190929190505050610fe5565b6040518082815260200191505060405180910390f35b61051b6004803603602081101561050557600080fd5b810190808035906020019092919050505061121d565b005b6105496004803603602081101561053357600080fd5b810190808035906020019092919050505061142c565b005b6105b76004803603606081101561056157600080fd5b81019080803573ffffffffffffffffffffffffffffffffffffffff16906020019092919080359060200190929190803573ffffffffffffffffffffffffffffffffffffffff169060200190929190505050611560565b005b6105c1611812565b604051808273ffffffffffffffffffffffffffffffffffffffff16815260200191505060405180910390f35b6105f561183c565b6040518082815260200191505060405180910390f35b610613611842565b005b61061d61186f565b6040518082815260200191505060405180910390f35b61063b611875565b005b6106456119e2565b604051808273ffffffffffffffffffffffffffffffffffffffff16815260200191505060405180910390f35b6106bd6004803603604081101561068757600080fd5b8101908080359060200190929190803573ffffffffffffffffffffffffffffffffffffffff169060200190929190505050611a0b565b604051808381526020018281526020019250505060405180910390f35b6106e2611a3c565b6040518082815260200191505060405180910390f35b61075a6004803603608081101561070e57600080fd5b8101908080359060200190929190803573ffffffffffffffffffffffffffffffffffffffff16906020019092919080351515906020019092919080359060200190929190505050611a42565b005b61079e6004803603602081101561077257600080fd5b81019080803573ffffffffffffffffffffffffffffffffffffffff169060200190929190505050611c7b565b005b6107a8611d2d565b6040518082815260200191505060405180910390f35b61082a600480360360608110156107d457600080fd5b81019080803573ffffffffffffffffffffffffffffffffffffffff16906020019092919080359060200190929190803573ffffffffffffffffffffffffffffffffffffffff169060200190929190505050611d33565b005b610834612032565b604051808273ffffffffffffffffffffffffffffffffffffffff16815260200191505060405180910390f35b6108966004803603604081101561087657600080fd5b810190808035906020019092919080359060200190929190505050612058565b005b6108da600480360360208110156108ae57600080fd5b81019080803573ffffffffffffffffffffffffffffffffffffffff1690602001909291905050506123dc565b005b69054b40b1f852bda0000081565b600681815481106108f757fe5b90600052602060002090600502016000915090508060000160009054906101000a900473ffffffffffffffffffffffffffffffffffffffff16908060010154908060020154908060030154908060040160009054906101000a900460ff16905085565b600760009054906101000a900460ff1681565b60095481565b3373ffffffffffffffffffffffffffffffffffffffff16600160009054906101000a900473ffffffffffffffffffffffffffffffffffffffff1673ffffffffffffffffffffffffffffffffffffffff1614610a19576040517f08c379a00000000000000000000000000000000000000000000000000000000081526004018080602001828103825260248152602001806131bb6024913960400191505060405180910390fd5b610a21611842565b600060068381548110610a3057fe5b906000526020600020906005020190508060040160009054906101000a900460ff1615610a8957610a8282610a7483600101546009546125ce90919063ffffffff16565b61265190919063ffffffff16565b6009819055505b818160010181905550505050565b600560009054906101000a900473ffffffffffffffffffffffffffffffffffffffff1681565b6000818310610acf5760009050610bca565b600b548210610b5557600b548310610aea5760009050610bca565b600a548311610b2557610b1e600c54610b10600a54600b546125ce90919063ffffffff16565b6126d990919063ffffffff16565b9050610bca565b610b4e600c54610b4085600b546125ce90919063ffffffff16565b6126d990919063ffffffff16565b9050610bca565b600a548211610b675760009050610bca565b600a548311610ba057610b99600c54610b8b600a54856125ce90919063ffffffff16565b6126d990919063ffffffff16565b9050610bca565b610bc7600c54610bb985856125ce90919063ffffffff16565b6126d990919063ffffffff16565b90505b92915050565b610bd861275f565b73ffffffffffffffffffffffffffffffffffffffff16610bf66119e2565b73ffffffffffffffffffffffffffffffffffffffff1614610c7f576040517f08c379a00000000000000000000000000000000000000000000000000000000081526004018080602001828103825260208152602001807f4f776e61626c653a2063616c6c6572206973206e6f7420746865206f776e657281525060200191505060405180910390fd5b610c8881612767565b50565b600360009054906101000a900473ffffffffffffffffffffffffffffffffffffffff1681565b6000600760009054906101000a900460ff16905090565b600c5481565b6000339050600060068481548110610ce257fe5b9060005260206000209060050201905060006008600086815260200190815260200160002060008473ffffffffffffffffffffffffffffffffffffffff1673ffffffffffffffffffffffffffffffffffffffff16815260200190815260200160002090508381600001541015610dc0576040517f08c379a00000000000000000000000000000000000000000000000000000000081526004018080602001828103825260128152602001807f77697468647261773a206e6f7420676f6f64000000000000000000000000000081525060200191505060405180910390fd5b610dc98561121d565b6000610e168260010154610e08670de0b6b3a7640000610dfa876003015487600001546126d990919063ffffffff16565b61289590919063ffffffff16565b6125ce90919063ffffffff16565b90506000811115610e7a57610e2b848261291e565b8373ffffffffffffffffffffffffffffffffffffffff167fe2403640ba68fed3a2f88b7557551d1993f84b99bb10ff833f0cf8db0c5e0486826040518082815260200191505060405180910390a25b6000851115610ef257610e9a8583600001546125ce90919063ffffffff16565b8260000181905550610ef184868560000160009054906101000a900473ffffffffffffffffffffffffffffffffffffffff1673ffffffffffffffffffffffffffffffffffffffff16612a9d9092919063ffffffff16565b5b610f27670de0b6b3a7640000610f19856003015485600001546126d990919063ffffffff16565b61289590919063ffffffff16565b8260010181905550858473ffffffffffffffffffffffffffffffffffffffff167ff279e6a1f5e320cca91135676d9cb6e44ca8a08c0b88342bcdb1144f6511b568876040518082815260200191505060405180910390a3505050505050565b6000600160009054906101000a900473ffffffffffffffffffffffffffffffffffffffff1673ffffffffffffffffffffffffffffffffffffffff16610fc961275f565b73ffffffffffffffffffffffffffffffffffffffff1614905090565b60008060068481548110610ff557fe5b9060005260206000209060050201905060006008600086815260200190815260200160002060008573ffffffffffffffffffffffffffffffffffffffff1673ffffffffffffffffffffffffffffffffffffffff168152602001908152602001600020905060008260030154905060008360000160009054906101000a900473ffffffffffffffffffffffffffffffffffffffff1673ffffffffffffffffffffffffffffffffffffffff166370a08231306040518263ffffffff1660e01b8152600401808273ffffffffffffffffffffffffffffffffffffffff16815260200191505060206040518083038186803b1580156110ef57600080fd5b505afa158015611103573d6000803e3d6000fd5b505050506040513d602081101561111957600080fd5b81019080805190602001909291905050509050836002015442118015611140575060008114155b156111ca576000611155856002015442610abd565b905060006111846009546111768860010154856126d990919063ffffffff16565b61289590919063ffffffff16565b90506111c56111b6846111a8670de0b6b3a7640000856126d990919063ffffffff16565b61289590919063ffffffff16565b8561265190919063ffffffff16565b935050505b6112118360010154611203670de0b6b3a76400006111f58688600001546126d990919063ffffffff16565b61289590919063ffffffff16565b6125ce90919063ffffffff16565b94505050505092915050565b60006006828154811061122c57fe5b906000526020600020906005020190508060020154421161124d5750611429565b60008160000160009054906101000a900473ffffffffffffffffffffffffffffffffffffffff1673ffffffffffffffffffffffffffffffffffffffff166370a08231306040518263ffffffff1660e01b8152600401808273ffffffffffffffffffffffffffffffffffffffff16815260200191505060206040518083038186803b1580156112da57600080fd5b505afa1580156112ee573d6000803e3d6000fd5b505050506040513d602081101561130457600080fd5b810190808051906020019092919050505090506000811415611330574282600201819055505050611429565b8160040160009054906101000a900460ff166113835760018260040160006101000a81548160ff02191690831515021790555061137c826001015460095461265190919063ffffffff16565b6009819055505b6000600954111561141d57600061139e836002015442610abd565b905060006113cd6009546113bf8660010154856126d990919063ffffffff16565b61289590919063ffffffff16565b90506114126113ff846113f1670de0b6b3a7640000856126d990919063ffffffff16565b61289590919063ffffffff16565b856003015461265190919063ffffffff16565b846003018190555050505b42826002018190555050505b50565b60006006828154811061143b57fe5b9060005260206000209060050201905060006008600084815260200190815260200160002060003373ffffffffffffffffffffffffffffffffffffffff1673ffffffffffffffffffffffffffffffffffffffff1681526020019081526020016000209050600081600001549050600082600001819055506000826001018190555061150b33828560000160009054906101000a900473ffffffffffffffffffffffffffffffffffffffff1673ffffffffffffffffffffffffffffffffffffffff16612a9d9092919063ffffffff16565b833373ffffffffffffffffffffffffffffffffffffffff167fbb757047c2b5f3974fe26b7c10f732e7bce710b0952a71082702781e62ae0595836040518082815260200191505060405180910390a350505050565b3373ffffffffffffffffffffffffffffffffffffffff16600160009054906101000a900473ffffffffffffffffffffffffffffffffffffffff1673ffffffffffffffffffffffffffffffffffffffff1614611606576040517f08c379a00000000000000000000000000000000000000000000000000000000081526004018080602001828103825260248152602001806131bb6024913960400191505060405180910390fd5b6276a700600b54014210156117e257600260009054906101000a900473ffffffffffffffffffffffffffffffffffffffff1673ffffffffffffffffffffffffffffffffffffffff168373ffffffffffffffffffffffffffffffffffffffff1614156116d9576040517f08c379a00000000000000000000000000000000000000000000000000000000081526004018080602001828103825260048152602001807f506f6c790000000000000000000000000000000000000000000000000000000081525060200191505060405180910390fd5b6000600680549050905060005b818110156117df576000600682815481106116fd57fe5b906000526020600020906005020190508060000160009054906101000a900473ffffffffffffffffffffffffffffffffffffffff1673ffffffffffffffffffffffffffffffffffffffff168673ffffffffffffffffffffffffffffffffffffffff1614156117d3576040517f08c379a000000000000000000000000000000000000000000000000000000000815260040180806020018281038252600a8152602001807f706f6f6c2e746f6b656e0000000000000000000000000000000000000000000081525060200191505060405180910390fd5b508060010190506116e6565b50505b61180d81838573ffffffffffffffffffffffffffffffffffffffff16612a9d9092919063ffffffff16565b505050565b6000600160009054906101000a900473ffffffffffffffffffffffffffffffffffffffff16905090565b600a5481565b6000600680549050905060005b8181101561186b576118608161121d565b80600101905061184f565b5050565b600b5481565b61187d61275f565b73ffffffffffffffffffffffffffffffffffffffff1661189b6119e2565b73ffffffffffffffffffffffffffffffffffffffff1614611924576040517f08c379a00000000000000000000000000000000000000000000000000000000081526004018080602001828103825260208152602001807f4f776e61626c653a2063616c6c6572206973206e6f7420746865206f776e657281525060200191505060405180910390fd5b600073ffffffffffffffffffffffffffffffffffffffff1660008054906101000a900473ffffffffffffffffffffffffffffffffffffffff1673ffffffffffffffffffffffffffffffffffffffff167f8be0079c531659141344cd1fd0a4f28419497f9722a3daafe3b4186f6b6457e060405160405180910390a360008060006101000a81548173ffffffffffffffffffffffffffffffffffffffff021916908373ffffffffffffffffffffffffffffffffffffffff160217905550565b60008060009054906101000a900473ffffffffffffffffffffffffffffffffffffffff16905090565b6008602052816000526040600020602052806000526040600020600091509150508060000154908060010154905082565b600d5481565b3373ffffffffffffffffffffffffffffffffffffffff16600160009054906101000a900473ffffffffffffffffffffffffffffffffffffffff1673ffffffffffffffffffffffffffffffffffffffff1614611ae8576040517f08c379a00000000000000000000000000000000000000000000000000000000081526004018080602001828103825260248152602001806131bb6024913960400191505060405180910390fd5b611af183612b3f565b8115611b0057611aff611842565b5b600a54421015611b33576000811415611b1d57600a549050611b2e565b600a54811015611b2d57600a5490505b5b611b4b565b6000811480611b4157504281105b15611b4a574290505b5b6000600a5482111580611b5e5750428211155b905060066040518060a001604052808673ffffffffffffffffffffffffffffffffffffffff16815260200187815260200184815260200160008152602001831515815250908060018154018082558091505060019003906000526020600020906005020160009091909190915060008201518160000160006101000a81548173ffffffffffffffffffffffffffffffffffffffff021916908373ffffffffffffffffffffffffffffffffffffffff16021790555060208201518160010155604082015181600201556060820151816003015560808201518160040160006101000a81548160ff02191690831515021790555050508015611c7457611c6d8560095461265190919063ffffffff16565b6009819055505b5050505050565b3373ffffffffffffffffffffffffffffffffffffffff16600160009054906101000a900473ffffffffffffffffffffffffffffffffffffffff1673ffffffffffffffffffffffffffffffffffffffff1614611d21576040517f08c379a00000000000000000000000000000000000000000000000000000000081526004018080602001828103825260248152602001806131bb6024913960400191505060405180910390fd5b611d2a81610bd0565b50565b60045481565b600760009054906101000a900460ff1615611db6576040517f08c379a000000000000000000000000000000000000000000000000000000000815260040180806020018281038252601c8152602001807f47656e657369733a20616c726561647920696e697469616c697a65640000000081525060200191505060405180910390fd5b3373ffffffffffffffffffffffffffffffffffffffff16600160009054906101000a900473ffffffffffffffffffffffffffffffffffffffff1673ffffffffffffffffffffffffffffffffffffffff1614611e5c576040517f08c379a00000000000000000000000000000000000000000000000000000000081526004018080602001828103825260248152602001806131bb6024913960400191505060405180910390fd5b814210611ed1576040517f08c379a00000000000000000000000000000000000000000000000000000000081526004018080602001828103825260048152602001807f6c6174650000000000000000000000000000000000000000000000000000000081525060200191505060405180910390fd5b600073ffffffffffffffffffffffffffffffffffffffff168373ffffffffffffffffffffffffffffffffffffffff1614611f475782600260006101000a81548173ffffffffffffffffffffffffffffffffffffffff021916908373ffffffffffffffffffffffffffffffffffffffff1602179055505b600073ffffffffffffffffffffffffffffffffffffffff168173ffffffffffffffffffffffffffffffffffffffff1614611fbd5780600360006101000a81548173ffffffffffffffffffffffffffffffffffffffff021916908373ffffffffffffffffffffffffffffffffffffffff1602179055505b33600560006101000a81548173ffffffffffffffffffffffffffffffffffffffff021916908373ffffffffffffffffffffffffffffffffffffffff16021790555081600a81905550600d54600a5401600b819055506001600760006101000a81548160ff021916908315150217905550505050565b600260009054906101000a900473ffffffffffffffffffffffffffffffffffffffff1681565b6000339050600061206883612c44565b9050600061207f82856125ce90919063ffffffff16565b905060006006868154811061209057fe5b9060005260206000209060050201905060006008600088815260200190815260200160002060008673ffffffffffffffffffffffffffffffffffffffff1673ffffffffffffffffffffffffffffffffffffffff16815260200190815260200160002090506120fd8761121d565b6000816000015411156121bd5760006121578260010154612149670de0b6b3a764000061213b876003015487600001546126d990919063ffffffff16565b61289590919063ffffffff16565b6125ce90919063ffffffff16565b905060008111156121bb5761216c868261291e565b8573ffffffffffffffffffffffffffffffffffffffff167fe2403640ba68fed3a2f88b7557551d1993f84b99bb10ff833f0cf8db0c5e0486826040518082815260200191505060405180910390a25b505b6000861115612347576122178530888560000160009054906101000a900473ffffffffffffffffffffffffffffffffffffffff1673ffffffffffffffffffffffffffffffffffffffff16612c95909392919063ffffffff16565b600360009054906101000a900473ffffffffffffffffffffffffffffffffffffffff1673ffffffffffffffffffffffffffffffffffffffff168260000160009054906101000a900473ffffffffffffffffffffffffffffffffffffffff1673ffffffffffffffffffffffffffffffffffffffff1614156122b5576122a886826000015461265190919063ffffffff16565b8160000181905550612346565b6122cc83826000015461265190919063ffffffff16565b8160000181905550612345600560009054906101000a900473ffffffffffffffffffffffffffffffffffffffff16858460000160009054906101000a900473ffffffffffffffffffffffffffffffffffffffff1673ffffffffffffffffffffffffffffffffffffffff16612a9d9092919063ffffffff16565b5b5b61237c670de0b6b3a764000061236e846003015484600001546126d990919063ffffffff16565b61289590919063ffffffff16565b8160010181905550868573ffffffffffffffffffffffffffffffffffffffff167f90890809c654f11d6e72a28fa60149770a0d11ec6c92319d6ceb2bb0a4ea1a15886040518082815260200191505060405180910390a350505050505050565b6123e461275f565b73ffffffffffffffffffffffffffffffffffffffff166124026119e2565b73ffffffffffffffffffffffffffffffffffffffff161461248b576040517f08c379a00000000000000000000000000000000000000000000000000000000081526004018080602001828103825260208152602001807f4f776e61626c653a2063616c6c6572206973206e6f7420746865206f776e657281525060200191505060405180910390fd5b600073ffffffffffffffffffffffffffffffffffffffff168173ffffffffffffffffffffffffffffffffffffffff161415612511576040517f08c379a00000000000000000000000000000000000000000000000000000000081526004018080602001828103825260268152602001806131216026913960400191505060405180910390fd5b8073ffffffffffffffffffffffffffffffffffffffff1660008054906101000a900473ffffffffffffffffffffffffffffffffffffffff1673ffffffffffffffffffffffffffffffffffffffff167f8be0079c531659141344cd1fd0a4f28419497f9722a3daafe3b4186f6b6457e060405160405180910390a3806000806101000a81548173ffffffffffffffffffffffffffffffffffffffff021916908373ffffffffffffffffffffffffffffffffffffffff16021790555050565b600082821115612646576040517f08c379a000000000000000000000000000000000000000000000000000000000815260040180806020018281038252601e8152602001807f536166654d6174683a207375627472616374696f6e206f766572666c6f77000081525060200191505060405180910390fd5b818303905092915050565b6000808284019050838110156126cf576040517f08c379a000000000000000000000000000000000000000000000000000000000815260040180806020018281038252601b8152602001807f536166654d6174683a206164646974696f6e206f766572666c6f77000000000081525060200191505060405180910390fd5b8091505092915050565b6000808314156126ec5760009050612759565b60008284029050828482816126fd57fe5b0414612754576040517f08c379a000000000000000000000000000000000000000000000000000000000815260040180806020018281038252602181526020018061319a6021913960400191505060405180910390fd5b809150505b92915050565b600033905090565b600073ffffffffffffffffffffffffffffffffffffffff168173ffffffffffffffffffffffffffffffffffffffff1614156127ed576040517f08c379a000000000000000000000000000000000000000000000000000000000815260040180806020018281038252602d81526020018061316d602d913960400191505060405180910390fd5b8073ffffffffffffffffffffffffffffffffffffffff16600073ffffffffffffffffffffffffffffffffffffffff167f74da04524d50c64947f5dd5381ef1a4dca5cba8ed1d816243f9e48aa0b5617ed60405160405180910390a3612851816123dc565b80600160006101000a81548173ffffffffffffffffffffffffffffffffffffffff021916908373ffffffffffffffffffffffffffffffffffffffff16021790555050565b600080821161290c576040517f08c379a000000000000000000000000000000000000000000000000000000000815260040180806020018281038252601a8152602001807f536166654d6174683a206469766973696f6e206279207a65726f00000000000081525060200191505060405180910390fd5b81838161291557fe5b04905092915050565b6000600260009054906101000a900473ffffffffffffffffffffffffffffffffffffffff1673ffffffffffffffffffffffffffffffffffffffff166370a08231306040518263ffffffff1660e01b8152600401808273ffffffffffffffffffffffffffffffffffffffff16815260200191505060206040518083038186803b1580156129a957600080fd5b505afa1580156129bd573d6000803e3d6000fd5b505050506040513d60208110156129d357600080fd5b810190808051906020019092919050505090506000811115612a985780821115612a4957612a448382600260009054906101000a900473ffffffffffffffffffffffffffffffffffffffff1673ffffffffffffffffffffffffffffffffffffffff16612a9d9092919063ffffffff16565b612a97565b612a968383600260009054906101000a900473ffffffffffffffffffffffffffffffffffffffff1673ffffffffffffffffffffffffffffffffffffffff16612a9d9092919063ffffffff16565b5b5b505050565b612b3a8363a9059cbb60e01b8484604051602401808373ffffffffffffffffffffffffffffffffffffffff16815260200182815260200192505050604051602081830303815290604052907bffffffffffffffffffffffffffffffffffffffffffffffffffffffff19166020820180517bffffffffffffffffffffffffffffffffffffffffffffffffffffffff8381831617835250505050612d56565b505050565b6000600680549050905060005b81811015612c3f578273ffffffffffffffffffffffffffffffffffffffff1660068281548110612b7857fe5b906000526020600020906005020160000160009054906101000a900473ffffffffffffffffffffffffffffffffffffffff1673ffffffffffffffffffffffffffffffffffffffff161415612c34576040517f08c379a000000000000000000000000000000000000000000000000000000000815260040180806020018281038252601f8152602001807f506f6c7947656e65736973506f6f6c3a206578697374696e6720706f6f6c3f0081525060200191505060405180910390fd5b806001019050612b4c565b505050565b600080612c5c60045484612e4590919063ffffffff16565b90506000612c89612710612c7b600454856126d990919063ffffffff16565b61289590919063ffffffff16565b90508092505050919050565b612d50846323b872dd60e01b858585604051602401808473ffffffffffffffffffffffffffffffffffffffff1681526020018373ffffffffffffffffffffffffffffffffffffffff1681526020018281526020019350505050604051602081830303815290604052907bffffffffffffffffffffffffffffffffffffffffffffffffffffffff19166020820180517bffffffffffffffffffffffffffffffffffffffffffffffffffffffff8381831617835250505050612d56565b50505050565b6060612db8826040518060400160405280602081526020017f5361666545524332303a206c6f772d6c6576656c2063616c6c206661696c65648152508573ffffffffffffffffffffffffffffffffffffffff16612e809092919063ffffffff16565b9050600081511115612e4057808060200190516020811015612dd957600080fd5b8101908080519060200190929190505050612e3f576040517f08c379a000000000000000000000000000000000000000000000000000000000815260040180806020018281038252602a8152602001806131df602a913960400191505060405180910390fd5b5b505050565b600080612e528484612651565b90506000612e618260016125ce565b9050612e76612e708286612895565b856126d9565b9250505092915050565b6060612e8f8484600085612e98565b90509392505050565b606082471015612ef3576040517f08c379a00000000000000000000000000000000000000000000000000000000081526004018080602001828103825260268152602001806131476026913960400191505060405180910390fd5b612efc85613041565b612f6e576040517f08c379a000000000000000000000000000000000000000000000000000000000815260040180806020018281038252601d8152602001807f416464726573733a2063616c6c20746f206e6f6e2d636f6e747261637400000081525060200191505060405180910390fd5b600060608673ffffffffffffffffffffffffffffffffffffffff1685876040518082805190602001908083835b60208310612fbe5780518252602082019150602081019050602083039250612f9b565b6001836020036101000a03801982511681845116808217855250505050505090500191505060006040518083038185875af1925050503d8060008114613020576040519150601f19603f3d011682016040523d82523d6000602084013e613025565b606091505b5091509150613035828286613054565b92505050949350505050565b600080823b905060008111915050919050565b6060831561306457829050613119565b6000835111156130775782518084602001fd5b816040517f08c379a00000000000000000000000000000000000000000000000000000000081526004018080602001828103825283818151815260200191508051906020019080838360005b838110156130de5780820151818401526020810190506130c3565b50505050905090810190601f16801561310b5780820380516001836020036101000a031916815260200191505b509250505060405180910390fd5b939250505056fe4f776e61626c653a206e6577206f776e657220697320746865207a65726f2061646472657373416464726573733a20696e73756666696369656e742062616c616e636520666f722063616c6c6f70657261746f723a207a65726f206164647265737320676976656e20666f72206e6577206f70657261746f72536166654d6174683a206d756c7469706c69636174696f6e206f766572666c6f776f70657261746f723a2063616c6c6572206973206e6f7420746865206f70657261746f725361666545524332303a204552433230206f7065726174696f6e20646964206e6f742073756363656564a2646970667358221220251ff64b1de066d3796f4c822e9f2c7e78f6c62f74063765e5cdbc4f435ab83964736f6c634300060c0033",
					"opcodes": "PUSH1 0x80 PUSH1 0x40 MSTORE PUSH1 0xC8 PUSH1 0x4 SSTORE PUSH1 0x0 PUSH1 0x7 PUSH1 0x0 PUSH2 0x100 EXP DUP2 SLOAD DUP2 PUSH1 0xFF MUL NOT AND SWAP1 DUP4 ISZERO ISZERO MUL OR SWAP1 SSTORE POP PUSH1 0x0 PUSH1 0x9 SSTORE PUSH8 0x156A8C394962000 PUSH1 0xC SSTORE PUSH3 0x3F480 PUSH1 0xD SSTORE CALLVALUE DUP1 ISZERO PUSH3 0x49 JUMPI PUSH1 0x0 DUP1 REVERT JUMPDEST POP PUSH1 0x0 PUSH3 0x5C PUSH3 0x1CD PUSH1 0x20 SHL PUSH1 0x20 SHR JUMP JUMPDEST SWAP1 POP DUP1 PUSH1 0x0 DUP1 PUSH2 0x100 EXP DUP2 SLOAD DUP2 PUSH20 0xFFFFFFFFFFFFFFFFFFFFFFFFFFFFFFFFFFFFFFFF MUL NOT AND SWAP1 DUP4 PUSH20 0xFFFFFFFFFFFFFFFFFFFFFFFFFFFFFFFFFFFFFFFF AND MUL OR SWAP1 SSTORE POP DUP1 PUSH20 0xFFFFFFFFFFFFFFFFFFFFFFFFFFFFFFFFFFFFFFFF AND PUSH1 0x0 PUSH20 0xFFFFFFFFFFFFFFFFFFFFFFFFFFFFFFFFFFFFFFFF AND PUSH32 0x8BE0079C531659141344CD1FD0A4F28419497F9722A3DAAFE3B4186F6B6457E0 PUSH1 0x40 MLOAD PUSH1 0x40 MLOAD DUP1 SWAP2 SUB SWAP1 LOG3 POP PUSH3 0x10A PUSH3 0x1CD PUSH1 0x20 SHL PUSH1 0x20 SHR JUMP JUMPDEST PUSH1 0x1 PUSH1 0x0 PUSH2 0x100 EXP DUP2 SLOAD DUP2 PUSH20 0xFFFFFFFFFFFFFFFFFFFFFFFFFFFFFFFFFFFFFFFF MUL NOT AND SWAP1 DUP4 PUSH20 0xFFFFFFFFFFFFFFFFFFFFFFFFFFFFFFFFFFFFFFFF AND MUL OR SWAP1 SSTORE POP PUSH1 0x1 PUSH1 0x0 SWAP1 SLOAD SWAP1 PUSH2 0x100 EXP SWAP1 DIV PUSH20 0xFFFFFFFFFFFFFFFFFFFFFFFFFFFFFFFFFFFFFFFF AND PUSH20 0xFFFFFFFFFFFFFFFFFFFFFFFFFFFFFFFFFFFFFFFF AND PUSH1 0x0 PUSH20 0xFFFFFFFFFFFFFFFFFFFFFFFFFFFFFFFFFFFFFFFF AND PUSH32 0x74DA04524D50C64947F5DD5381EF1A4DCA5CBA8ED1D816243F9E48AA0B5617ED PUSH1 0x40 MLOAD PUSH1 0x40 MLOAD DUP1 SWAP2 SUB SWAP1 LOG3 PUSH3 0x1D5 JUMP JUMPDEST PUSH1 0x0 CALLER SWAP1 POP SWAP1 JUMP JUMPDEST PUSH2 0x323E DUP1 PUSH3 0x1E5 PUSH1 0x0 CODECOPY PUSH1 0x0 RETURN INVALID PUSH1 0x80 PUSH1 0x40 MSTORE CALLVALUE DUP1 ISZERO PUSH2 0x10 JUMPI PUSH1 0x0 DUP1 REVERT JUMPDEST POP PUSH1 0x4 CALLDATASIZE LT PUSH2 0x1F0 JUMPI PUSH1 0x0 CALLDATALOAD PUSH1 0xE0 SHR DUP1 PUSH4 0x54575AF4 GT PUSH2 0x10F JUMPI DUP1 PUSH4 0x943F013D GT PUSH2 0xA2 JUMPI DUP1 PUSH4 0xC350A1B5 GT PUSH2 0x71 JUMPI DUP1 PUSH4 0xC350A1B5 EQ PUSH2 0x7BE JUMPI DUP1 PUSH4 0xE177BB38 EQ PUSH2 0x82C JUMPI DUP1 PUSH4 0xE2BBB158 EQ PUSH2 0x860 JUMPI DUP1 PUSH4 0xF2FDE38B EQ PUSH2 0x898 JUMPI PUSH2 0x1F0 JUMP JUMPDEST DUP1 PUSH4 0x943F013D EQ PUSH2 0x6DA JUMPI DUP1 PUSH4 0x96805E54 EQ PUSH2 0x6F8 JUMPI DUP1 PUSH4 0xB3AB15FB EQ PUSH2 0x75C JUMPI DUP1 PUSH4 0xBEF7A2F0 EQ PUSH2 0x7A0 JUMPI PUSH2 0x1F0 JUMP JUMPDEST DUP1 PUSH4 0x6E271DD5 GT PUSH2 0xDE JUMPI DUP1 PUSH4 0x6E271DD5 EQ PUSH2 0x615 JUMPI DUP1 PUSH4 0x715018A6 EQ PUSH2 0x633 JUMPI DUP1 PUSH4 0x8DA5CB5B EQ PUSH2 0x63D JUMPI DUP1 PUSH4 0x93F1A40B EQ PUSH2 0x671 JUMPI PUSH2 0x1F0 JUMP JUMPDEST DUP1 PUSH4 0x54575AF4 EQ PUSH2 0x54B JUMPI DUP1 PUSH4 0x570CA735 EQ PUSH2 0x5B9 JUMPI DUP1 PUSH4 0x5F96DC11 EQ PUSH2 0x5ED JUMPI DUP1 PUSH4 0x630B5BA1 EQ PUSH2 0x60B JUMPI PUSH2 0x1F0 JUMP JUMPDEST DUP1 PUSH4 0x3736421B GT PUSH2 0x187 JUMPI DUP1 PUSH4 0x4456EDA2 GT PUSH2 0x156 JUMPI DUP1 PUSH4 0x4456EDA2 EQ PUSH2 0x46D JUMPI DUP1 PUSH4 0x4D1E4F42 EQ PUSH2 0x48D JUMPI DUP1 PUSH4 0x51EB05A6 EQ PUSH2 0x4EF JUMPI DUP1 PUSH4 0x5312EA8E EQ PUSH2 0x51D JUMPI PUSH2 0x1F0 JUMP JUMPDEST DUP1 PUSH4 0x3736421B EQ PUSH2 0x3C3 JUMPI DUP1 PUSH4 0x392E53CD EQ PUSH2 0x3F7 JUMPI DUP1 PUSH4 0x3F7CAF52 EQ PUSH2 0x417 JUMPI DUP1 PUSH4 0x441A3E70 EQ PUSH2 0x435 JUMPI PUSH2 0x1F0 JUMP JUMPDEST DUP1 PUSH4 0x1AB06EE5 GT PUSH2 0x1C3 JUMPI DUP1 PUSH4 0x1AB06EE5 EQ PUSH2 0x2C7 JUMPI DUP1 PUSH4 0x1BCCB99B EQ PUSH2 0x2FF JUMPI DUP1 PUSH4 0x231F0C6A EQ PUSH2 0x333 JUMPI DUP1 PUSH4 0x29605E77 EQ PUSH2 0x37F JUMPI PUSH2 0x1F0 JUMP JUMPDEST DUP1 PUSH4 0x9CF6091 EQ PUSH2 0x1F5 JUMPI DUP1 PUSH4 0x1526FE27 EQ PUSH2 0x213 JUMPI DUP1 PUSH4 0x158EF93E EQ PUSH2 0x289 JUMPI DUP1 PUSH4 0x17CAF6F1 EQ PUSH2 0x2A9 JUMPI JUMPDEST PUSH1 0x0 DUP1 REVERT JUMPDEST PUSH2 0x1FD PUSH2 0x8DC JUMP JUMPDEST PUSH1 0x40 MLOAD DUP1 DUP3 DUP2 MSTORE PUSH1 0x20 ADD SWAP2 POP POP PUSH1 0x40 MLOAD DUP1 SWAP2 SUB SWAP1 RETURN JUMPDEST PUSH2 0x23F PUSH1 0x4 DUP1 CALLDATASIZE SUB PUSH1 0x20 DUP2 LT ISZERO PUSH2 0x229 JUMPI PUSH1 0x0 DUP1 REVERT JUMPDEST DUP2 ADD SWAP1 DUP1 DUP1 CALLDATALOAD SWAP1 PUSH1 0x20 ADD SWAP1 SWAP3 SWAP2 SWAP1 POP POP POP PUSH2 0x8EA JUMP JUMPDEST PUSH1 0x40 MLOAD DUP1 DUP7 PUSH20 0xFFFFFFFFFFFFFFFFFFFFFFFFFFFFFFFFFFFFFFFF AND DUP2 MSTORE PUSH1 0x20 ADD DUP6 DUP2 MSTORE PUSH1 0x20 ADD DUP5 DUP2 MSTORE PUSH1 0x20 ADD DUP4 DUP2 MSTORE PUSH1 0x20 ADD DUP3 ISZERO ISZERO DUP2 MSTORE PUSH1 0x20 ADD SWAP6 POP POP POP POP POP POP PUSH1 0x40 MLOAD DUP1 SWAP2 SUB SWAP1 RETURN JUMPDEST PUSH2 0x291 PUSH2 0x95A JUMP JUMPDEST PUSH1 0x40 MLOAD DUP1 DUP3 ISZERO ISZERO DUP2 MSTORE PUSH1 0x20 ADD SWAP2 POP POP PUSH1 0x40 MLOAD DUP1 SWAP2 SUB SWAP1 RETURN JUMPDEST PUSH2 0x2B1 PUSH2 0x96D JUMP JUMPDEST PUSH1 0x40 MLOAD DUP1 DUP3 DUP2 MSTORE PUSH1 0x20 ADD SWAP2 POP POP PUSH1 0x40 MLOAD DUP1 SWAP2 SUB SWAP1 RETURN JUMPDEST PUSH2 0x2FD PUSH1 0x4 DUP1 CALLDATASIZE SUB PUSH1 0x40 DUP2 LT ISZERO PUSH2 0x2DD JUMPI PUSH1 0x0 DUP1 REVERT JUMPDEST DUP2 ADD SWAP1 DUP1 DUP1 CALLDATALOAD SWAP1 PUSH1 0x20 ADD SWAP1 SWAP3 SWAP2 SWAP1 DUP1 CALLDATALOAD SWAP1 PUSH1 0x20 ADD SWAP1 SWAP3 SWAP2 SWAP1 POP POP POP PUSH2 0x973 JUMP JUMPDEST STOP JUMPDEST PUSH2 0x307 PUSH2 0xA97 JUMP JUMPDEST PUSH1 0x40 MLOAD DUP1 DUP3 PUSH20 0xFFFFFFFFFFFFFFFFFFFFFFFFFFFFFFFFFFFFFFFF AND DUP2 MSTORE PUSH1 0x20 ADD SWAP2 POP POP PUSH1 0x40 MLOAD DUP1 SWAP2 SUB SWAP1 RETURN JUMPDEST PUSH2 0x369 PUSH1 0x4 DUP1 CALLDATASIZE SUB PUSH1 0x40 DUP2 LT ISZERO PUSH2 0x349 JUMPI PUSH1 0x0 DUP1 REVERT JUMPDEST DUP2 ADD SWAP1 DUP1 DUP1 CALLDATALOAD SWAP1 PUSH1 0x20 ADD SWAP1 SWAP3 SWAP2 SWAP1 DUP1 CALLDATALOAD SWAP1 PUSH1 0x20 ADD SWAP1 SWAP3 SWAP2 SWAP1 POP POP POP PUSH2 0xABD JUMP JUMPDEST PUSH1 0x40 MLOAD DUP1 DUP3 DUP2 MSTORE PUSH1 0x20 ADD SWAP2 POP POP PUSH1 0x40 MLOAD DUP1 SWAP2 SUB SWAP1 RETURN JUMPDEST PUSH2 0x3C1 PUSH1 0x4 DUP1 CALLDATASIZE SUB PUSH1 0x20 DUP2 LT ISZERO PUSH2 0x395 JUMPI PUSH1 0x0 DUP1 REVERT JUMPDEST DUP2 ADD SWAP1 DUP1 DUP1 CALLDATALOAD PUSH20 0xFFFFFFFFFFFFFFFFFFFFFFFFFFFFFFFFFFFFFFFF AND SWAP1 PUSH1 0x20 ADD SWAP1 SWAP3 SWAP2 SWAP1 POP POP POP PUSH2 0xBD0 JUMP JUMPDEST STOP JUMPDEST PUSH2 0x3CB PUSH2 0xC8B JUMP JUMPDEST PUSH1 0x40 MLOAD DUP1 DUP3 PUSH20 0xFFFFFFFFFFFFFFFFFFFFFFFFFFFFFFFFFFFFFFFF AND DUP2 MSTORE PUSH1 0x20 ADD SWAP2 POP POP PUSH1 0x40 MLOAD DUP1 SWAP2 SUB SWAP1 RETURN JUMPDEST PUSH2 0x3FF PUSH2 0xCB1 JUMP JUMPDEST PUSH1 0x40 MLOAD DUP1 DUP3 ISZERO ISZERO DUP2 MSTORE PUSH1 0x20 ADD SWAP2 POP POP PUSH1 0x40 MLOAD DUP1 SWAP2 SUB SWAP1 RETURN JUMPDEST PUSH2 0x41F PUSH2 0xCC8 JUMP JUMPDEST PUSH1 0x40 MLOAD DUP1 DUP3 DUP2 MSTORE PUSH1 0x20 ADD SWAP2 POP POP PUSH1 0x40 MLOAD DUP1 SWAP2 SUB SWAP1 RETURN JUMPDEST PUSH2 0x46B PUSH1 0x4 DUP1 CALLDATASIZE SUB PUSH1 0x40 DUP2 LT ISZERO PUSH2 0x44B JUMPI PUSH1 0x0 DUP1 REVERT JUMPDEST DUP2 ADD SWAP1 DUP1 DUP1 CALLDATALOAD SWAP1 PUSH1 0x20 ADD SWAP1 SWAP3 SWAP2 SWAP1 DUP1 CALLDATALOAD SWAP1 PUSH1 0x20 ADD SWAP1 SWAP3 SWAP2 SWAP1 POP POP POP PUSH2 0xCCE JUMP JUMPDEST STOP JUMPDEST PUSH2 0x475 PUSH2 0xF86 JUMP JUMPDEST PUSH1 0x40 MLOAD DUP1 DUP3 ISZERO ISZERO DUP2 MSTORE PUSH1 0x20 ADD SWAP2 POP POP PUSH1 0x40 MLOAD DUP1 SWAP2 SUB SWAP1 RETURN JUMPDEST PUSH2 0x4D9 PUSH1 0x4 DUP1 CALLDATASIZE SUB PUSH1 0x40 DUP2 LT ISZERO PUSH2 0x4A3 JUMPI PUSH1 0x0 DUP1 REVERT JUMPDEST DUP2 ADD SWAP1 DUP1 DUP1 CALLDATALOAD SWAP1 PUSH1 0x20 ADD SWAP1 SWAP3 SWAP2 SWAP1 DUP1 CALLDATALOAD PUSH20 0xFFFFFFFFFFFFFFFFFFFFFFFFFFFFFFFFFFFFFFFF AND SWAP1 PUSH1 0x20 ADD SWAP1 SWAP3 SWAP2 SWAP1 POP POP POP PUSH2 0xFE5 JUMP JUMPDEST PUSH1 0x40 MLOAD DUP1 DUP3 DUP2 MSTORE PUSH1 0x20 ADD SWAP2 POP POP PUSH1 0x40 MLOAD DUP1 SWAP2 SUB SWAP1 RETURN JUMPDEST PUSH2 0x51B PUSH1 0x4 DUP1 CALLDATASIZE SUB PUSH1 0x20 DUP2 LT ISZERO PUSH2 0x505 JUMPI PUSH1 0x0 DUP1 REVERT JUMPDEST DUP2 ADD SWAP1 DUP1 DUP1 CALLDATALOAD SWAP1 PUSH1 0x20 ADD SWAP1 SWAP3 SWAP2 SWAP1 POP POP POP PUSH2 0x121D JUMP JUMPDEST STOP JUMPDEST PUSH2 0x549 PUSH1 0x4 DUP1 CALLDATASIZE SUB PUSH1 0x20 DUP2 LT ISZERO PUSH2 0x533 JUMPI PUSH1 0x0 DUP1 REVERT JUMPDEST DUP2 ADD SWAP1 DUP1 DUP1 CALLDATALOAD SWAP1 PUSH1 0x20 ADD SWAP1 SWAP3 SWAP2 SWAP1 POP POP POP PUSH2 0x142C JUMP JUMPDEST STOP JUMPDEST PUSH2 0x5B7 PUSH1 0x4 DUP1 CALLDATASIZE SUB PUSH1 0x60 DUP2 LT ISZERO PUSH2 0x561 JUMPI PUSH1 0x0 DUP1 REVERT JUMPDEST DUP2 ADD SWAP1 DUP1 DUP1 CALLDATALOAD PUSH20 0xFFFFFFFFFFFFFFFFFFFFFFFFFFFFFFFFFFFFFFFF AND SWAP1 PUSH1 0x20 ADD SWAP1 SWAP3 SWAP2 SWAP1 DUP1 CALLDATALOAD SWAP1 PUSH1 0x20 ADD SWAP1 SWAP3 SWAP2 SWAP1 DUP1 CALLDATALOAD PUSH20 0xFFFFFFFFFFFFFFFFFFFFFFFFFFFFFFFFFFFFFFFF AND SWAP1 PUSH1 0x20 ADD SWAP1 SWAP3 SWAP2 SWAP1 POP POP POP PUSH2 0x1560 JUMP JUMPDEST STOP JUMPDEST PUSH2 0x5C1 PUSH2 0x1812 JUMP JUMPDEST PUSH1 0x40 MLOAD DUP1 DUP3 PUSH20 0xFFFFFFFFFFFFFFFFFFFFFFFFFFFFFFFFFFFFFFFF AND DUP2 MSTORE PUSH1 0x20 ADD SWAP2 POP POP PUSH1 0x40 MLOAD DUP1 SWAP2 SUB SWAP1 RETURN JUMPDEST PUSH2 0x5F5 PUSH2 0x183C JUMP JUMPDEST PUSH1 0x40 MLOAD DUP1 DUP3 DUP2 MSTORE PUSH1 0x20 ADD SWAP2 POP POP PUSH1 0x40 MLOAD DUP1 SWAP2 SUB SWAP1 RETURN JUMPDEST PUSH2 0x613 PUSH2 0x1842 JUMP JUMPDEST STOP JUMPDEST PUSH2 0x61D PUSH2 0x186F JUMP JUMPDEST PUSH1 0x40 MLOAD DUP1 DUP3 DUP2 MSTORE PUSH1 0x20 ADD SWAP2 POP POP PUSH1 0x40 MLOAD DUP1 SWAP2 SUB SWAP1 RETURN JUMPDEST PUSH2 0x63B PUSH2 0x1875 JUMP JUMPDEST STOP JUMPDEST PUSH2 0x645 PUSH2 0x19E2 JUMP JUMPDEST PUSH1 0x40 MLOAD DUP1 DUP3 PUSH20 0xFFFFFFFFFFFFFFFFFFFFFFFFFFFFFFFFFFFFFFFF AND DUP2 MSTORE PUSH1 0x20 ADD SWAP2 POP POP PUSH1 0x40 MLOAD DUP1 SWAP2 SUB SWAP1 RETURN JUMPDEST PUSH2 0x6BD PUSH1 0x4 DUP1 CALLDATASIZE SUB PUSH1 0x40 DUP2 LT ISZERO PUSH2 0x687 JUMPI PUSH1 0x0 DUP1 REVERT JUMPDEST DUP2 ADD SWAP1 DUP1 DUP1 CALLDATALOAD SWAP1 PUSH1 0x20 ADD SWAP1 SWAP3 SWAP2 SWAP1 DUP1 CALLDATALOAD PUSH20 0xFFFFFFFFFFFFFFFFFFFFFFFFFFFFFFFFFFFFFFFF AND SWAP1 PUSH1 0x20 ADD SWAP1 SWAP3 SWAP2 SWAP1 POP POP POP PUSH2 0x1A0B JUMP JUMPDEST PUSH1 0x40 MLOAD DUP1 DUP4 DUP2 MSTORE PUSH1 0x20 ADD DUP3 DUP2 MSTORE PUSH1 0x20 ADD SWAP3 POP POP POP PUSH1 0x40 MLOAD DUP1 SWAP2 SUB SWAP1 RETURN JUMPDEST PUSH2 0x6E2 PUSH2 0x1A3C JUMP JUMPDEST PUSH1 0x40 MLOAD DUP1 DUP3 DUP2 MSTORE PUSH1 0x20 ADD SWAP2 POP POP PUSH1 0x40 MLOAD DUP1 SWAP2 SUB SWAP1 RETURN JUMPDEST PUSH2 0x75A PUSH1 0x4 DUP1 CALLDATASIZE SUB PUSH1 0x80 DUP2 LT ISZERO PUSH2 0x70E JUMPI PUSH1 0x0 DUP1 REVERT JUMPDEST DUP2 ADD SWAP1 DUP1 DUP1 CALLDATALOAD SWAP1 PUSH1 0x20 ADD SWAP1 SWAP3 SWAP2 SWAP1 DUP1 CALLDATALOAD PUSH20 0xFFFFFFFFFFFFFFFFFFFFFFFFFFFFFFFFFFFFFFFF AND SWAP1 PUSH1 0x20 ADD SWAP1 SWAP3 SWAP2 SWAP1 DUP1 CALLDATALOAD ISZERO ISZERO SWAP1 PUSH1 0x20 ADD SWAP1 SWAP3 SWAP2 SWAP1 DUP1 CALLDATALOAD SWAP1 PUSH1 0x20 ADD SWAP1 SWAP3 SWAP2 SWAP1 POP POP POP PUSH2 0x1A42 JUMP JUMPDEST STOP JUMPDEST PUSH2 0x79E PUSH1 0x4 DUP1 CALLDATASIZE SUB PUSH1 0x20 DUP2 LT ISZERO PUSH2 0x772 JUMPI PUSH1 0x0 DUP1 REVERT JUMPDEST DUP2 ADD SWAP1 DUP1 DUP1 CALLDATALOAD PUSH20 0xFFFFFFFFFFFFFFFFFFFFFFFFFFFFFFFFFFFFFFFF AND SWAP1 PUSH1 0x20 ADD SWAP1 SWAP3 SWAP2 SWAP1 POP POP POP PUSH2 0x1C7B JUMP JUMPDEST STOP JUMPDEST PUSH2 0x7A8 PUSH2 0x1D2D JUMP JUMPDEST PUSH1 0x40 MLOAD DUP1 DUP3 DUP2 MSTORE PUSH1 0x20 ADD SWAP2 POP POP PUSH1 0x40 MLOAD DUP1 SWAP2 SUB SWAP1 RETURN JUMPDEST PUSH2 0x82A PUSH1 0x4 DUP1 CALLDATASIZE SUB PUSH1 0x60 DUP2 LT ISZERO PUSH2 0x7D4 JUMPI PUSH1 0x0 DUP1 REVERT JUMPDEST DUP2 ADD SWAP1 DUP1 DUP1 CALLDATALOAD PUSH20 0xFFFFFFFFFFFFFFFFFFFFFFFFFFFFFFFFFFFFFFFF AND SWAP1 PUSH1 0x20 ADD SWAP1 SWAP3 SWAP2 SWAP1 DUP1 CALLDATALOAD SWAP1 PUSH1 0x20 ADD SWAP1 SWAP3 SWAP2 SWAP1 DUP1 CALLDATALOAD PUSH20 0xFFFFFFFFFFFFFFFFFFFFFFFFFFFFFFFFFFFFFFFF AND SWAP1 PUSH1 0x20 ADD SWAP1 SWAP3 SWAP2 SWAP1 POP POP POP PUSH2 0x1D33 JUMP JUMPDEST STOP JUMPDEST PUSH2 0x834 PUSH2 0x2032 JUMP JUMPDEST PUSH1 0x40 MLOAD DUP1 DUP3 PUSH20 0xFFFFFFFFFFFFFFFFFFFFFFFFFFFFFFFFFFFFFFFF AND DUP2 MSTORE PUSH1 0x20 ADD SWAP2 POP POP PUSH1 0x40 MLOAD DUP1 SWAP2 SUB SWAP1 RETURN JUMPDEST PUSH2 0x896 PUSH1 0x4 DUP1 CALLDATASIZE SUB PUSH1 0x40 DUP2 LT ISZERO PUSH2 0x876 JUMPI PUSH1 0x0 DUP1 REVERT JUMPDEST DUP2 ADD SWAP1 DUP1 DUP1 CALLDATALOAD SWAP1 PUSH1 0x20 ADD SWAP1 SWAP3 SWAP2 SWAP1 DUP1 CALLDATALOAD SWAP1 PUSH1 0x20 ADD SWAP1 SWAP3 SWAP2 SWAP1 POP POP POP PUSH2 0x2058 JUMP JUMPDEST STOP JUMPDEST PUSH2 0x8DA PUSH1 0x4 DUP1 CALLDATASIZE SUB PUSH1 0x20 DUP2 LT ISZERO PUSH2 0x8AE JUMPI PUSH1 0x0 DUP1 REVERT JUMPDEST DUP2 ADD SWAP1 DUP1 DUP1 CALLDATALOAD PUSH20 0xFFFFFFFFFFFFFFFFFFFFFFFFFFFFFFFFFFFFFFFF AND SWAP1 PUSH1 0x20 ADD SWAP1 SWAP3 SWAP2 SWAP1 POP POP POP PUSH2 0x23DC JUMP JUMPDEST STOP JUMPDEST PUSH10 0x54B40B1F852BDA00000 DUP2 JUMP JUMPDEST PUSH1 0x6 DUP2 DUP2 SLOAD DUP2 LT PUSH2 0x8F7 JUMPI INVALID JUMPDEST SWAP1 PUSH1 0x0 MSTORE PUSH1 0x20 PUSH1 0x0 KECCAK256 SWAP1 PUSH1 0x5 MUL ADD PUSH1 0x0 SWAP2 POP SWAP1 POP DUP1 PUSH1 0x0 ADD PUSH1 0x0 SWAP1 SLOAD SWAP1 PUSH2 0x100 EXP SWAP1 DIV PUSH20 0xFFFFFFFFFFFFFFFFFFFFFFFFFFFFFFFFFFFFFFFF AND SWAP1 DUP1 PUSH1 0x1 ADD SLOAD SWAP1 DUP1 PUSH1 0x2 ADD SLOAD SWAP1 DUP1 PUSH1 0x3 ADD SLOAD SWAP1 DUP1 PUSH1 0x4 ADD PUSH1 0x0 SWAP1 SLOAD SWAP1 PUSH2 0x100 EXP SWAP1 DIV PUSH1 0xFF AND SWAP1 POP DUP6 JUMP JUMPDEST PUSH1 0x7 PUSH1 0x0 SWAP1 SLOAD SWAP1 PUSH2 0x100 EXP SWAP1 DIV PUSH1 0xFF AND DUP2 JUMP JUMPDEST PUSH1 0x9 SLOAD DUP2 JUMP JUMPDEST CALLER PUSH20 0xFFFFFFFFFFFFFFFFFFFFFFFFFFFFFFFFFFFFFFFF AND PUSH1 0x1 PUSH1 0x0 SWAP1 SLOAD SWAP1 PUSH2 0x100 EXP SWAP1 DIV PUSH20 0xFFFFFFFFFFFFFFFFFFFFFFFFFFFFFFFFFFFFFFFF AND PUSH20 0xFFFFFFFFFFFFFFFFFFFFFFFFFFFFFFFFFFFFFFFF AND EQ PUSH2 0xA19 JUMPI PUSH1 0x40 MLOAD PUSH32 0x8C379A000000000000000000000000000000000000000000000000000000000 DUP2 MSTORE PUSH1 0x4 ADD DUP1 DUP1 PUSH1 0x20 ADD DUP3 DUP2 SUB DUP3 MSTORE PUSH1 0x24 DUP2 MSTORE PUSH1 0x20 ADD DUP1 PUSH2 0x31BB PUSH1 0x24 SWAP2 CODECOPY PUSH1 0x40 ADD SWAP2 POP POP PUSH1 0x40 MLOAD DUP1 SWAP2 SUB SWAP1 REVERT JUMPDEST PUSH2 0xA21 PUSH2 0x1842 JUMP JUMPDEST PUSH1 0x0 PUSH1 0x6 DUP4 DUP2 SLOAD DUP2 LT PUSH2 0xA30 JUMPI INVALID JUMPDEST SWAP1 PUSH1 0x0 MSTORE PUSH1 0x20 PUSH1 0x0 KECCAK256 SWAP1 PUSH1 0x5 MUL ADD SWAP1 POP DUP1 PUSH1 0x4 ADD PUSH1 0x0 SWAP1 SLOAD SWAP1 PUSH2 0x100 EXP SWAP1 DIV PUSH1 0xFF AND ISZERO PUSH2 0xA89 JUMPI PUSH2 0xA82 DUP3 PUSH2 0xA74 DUP4 PUSH1 0x1 ADD SLOAD PUSH1 0x9 SLOAD PUSH2 0x25CE SWAP1 SWAP2 SWAP1 PUSH4 0xFFFFFFFF AND JUMP JUMPDEST PUSH2 0x2651 SWAP1 SWAP2 SWAP1 PUSH4 0xFFFFFFFF AND JUMP JUMPDEST PUSH1 0x9 DUP2 SWAP1 SSTORE POP JUMPDEST DUP2 DUP2 PUSH1 0x1 ADD DUP2 SWAP1 SSTORE POP POP POP POP JUMP JUMPDEST PUSH1 0x5 PUSH1 0x0 SWAP1 SLOAD SWAP1 PUSH2 0x100 EXP SWAP1 DIV PUSH20 0xFFFFFFFFFFFFFFFFFFFFFFFFFFFFFFFFFFFFFFFF AND DUP2 JUMP JUMPDEST PUSH1 0x0 DUP2 DUP4 LT PUSH2 0xACF JUMPI PUSH1 0x0 SWAP1 POP PUSH2 0xBCA JUMP JUMPDEST PUSH1 0xB SLOAD DUP3 LT PUSH2 0xB55 JUMPI PUSH1 0xB SLOAD DUP4 LT PUSH2 0xAEA JUMPI PUSH1 0x0 SWAP1 POP PUSH2 0xBCA JUMP JUMPDEST PUSH1 0xA SLOAD DUP4 GT PUSH2 0xB25 JUMPI PUSH2 0xB1E PUSH1 0xC SLOAD PUSH2 0xB10 PUSH1 0xA SLOAD PUSH1 0xB SLOAD PUSH2 0x25CE SWAP1 SWAP2 SWAP1 PUSH4 0xFFFFFFFF AND JUMP JUMPDEST PUSH2 0x26D9 SWAP1 SWAP2 SWAP1 PUSH4 0xFFFFFFFF AND JUMP JUMPDEST SWAP1 POP PUSH2 0xBCA JUMP JUMPDEST PUSH2 0xB4E PUSH1 0xC SLOAD PUSH2 0xB40 DUP6 PUSH1 0xB SLOAD PUSH2 0x25CE SWAP1 SWAP2 SWAP1 PUSH4 0xFFFFFFFF AND JUMP JUMPDEST PUSH2 0x26D9 SWAP1 SWAP2 SWAP1 PUSH4 0xFFFFFFFF AND JUMP JUMPDEST SWAP1 POP PUSH2 0xBCA JUMP JUMPDEST PUSH1 0xA SLOAD DUP3 GT PUSH2 0xB67 JUMPI PUSH1 0x0 SWAP1 POP PUSH2 0xBCA JUMP JUMPDEST PUSH1 0xA SLOAD DUP4 GT PUSH2 0xBA0 JUMPI PUSH2 0xB99 PUSH1 0xC SLOAD PUSH2 0xB8B PUSH1 0xA SLOAD DUP6 PUSH2 0x25CE SWAP1 SWAP2 SWAP1 PUSH4 0xFFFFFFFF AND JUMP JUMPDEST PUSH2 0x26D9 SWAP1 SWAP2 SWAP1 PUSH4 0xFFFFFFFF AND JUMP JUMPDEST SWAP1 POP PUSH2 0xBCA JUMP JUMPDEST PUSH2 0xBC7 PUSH1 0xC SLOAD PUSH2 0xBB9 DUP6 DUP6 PUSH2 0x25CE SWAP1 SWAP2 SWAP1 PUSH4 0xFFFFFFFF AND JUMP JUMPDEST PUSH2 0x26D9 SWAP1 SWAP2 SWAP1 PUSH4 0xFFFFFFFF AND JUMP JUMPDEST SWAP1 POP JUMPDEST SWAP3 SWAP2 POP POP JUMP JUMPDEST PUSH2 0xBD8 PUSH2 0x275F JUMP JUMPDEST PUSH20 0xFFFFFFFFFFFFFFFFFFFFFFFFFFFFFFFFFFFFFFFF AND PUSH2 0xBF6 PUSH2 0x19E2 JUMP JUMPDEST PUSH20 0xFFFFFFFFFFFFFFFFFFFFFFFFFFFFFFFFFFFFFFFF AND EQ PUSH2 0xC7F JUMPI PUSH1 0x40 MLOAD PUSH32 0x8C379A000000000000000000000000000000000000000000000000000000000 DUP2 MSTORE PUSH1 0x4 ADD DUP1 DUP1 PUSH1 0x20 ADD DUP3 DUP2 SUB DUP3 MSTORE PUSH1 0x20 DUP2 MSTORE PUSH1 0x20 ADD DUP1 PUSH32 0x4F776E61626C653A2063616C6C6572206973206E6F7420746865206F776E6572 DUP2 MSTORE POP PUSH1 0x20 ADD SWAP2 POP POP PUSH1 0x40 MLOAD DUP1 SWAP2 SUB SWAP1 REVERT JUMPDEST PUSH2 0xC88 DUP2 PUSH2 0x2767 JUMP JUMPDEST POP JUMP JUMPDEST PUSH1 0x3 PUSH1 0x0 SWAP1 SLOAD SWAP1 PUSH2 0x100 EXP SWAP1 DIV PUSH20 0xFFFFFFFFFFFFFFFFFFFFFFFFFFFFFFFFFFFFFFFF AND DUP2 JUMP JUMPDEST PUSH1 0x0 PUSH1 0x7 PUSH1 0x0 SWAP1 SLOAD SWAP1 PUSH2 0x100 EXP SWAP1 DIV PUSH1 0xFF AND SWAP1 POP SWAP1 JUMP JUMPDEST PUSH1 0xC SLOAD DUP2 JUMP JUMPDEST PUSH1 0x0 CALLER SWAP1 POP PUSH1 0x0 PUSH1 0x6 DUP5 DUP2 SLOAD DUP2 LT PUSH2 0xCE2 JUMPI INVALID JUMPDEST SWAP1 PUSH1 0x0 MSTORE PUSH1 0x20 PUSH1 0x0 KECCAK256 SWAP1 PUSH1 0x5 MUL ADD SWAP1 POP PUSH1 0x0 PUSH1 0x8 PUSH1 0x0 DUP7 DUP2 MSTORE PUSH1 0x20 ADD SWAP1 DUP2 MSTORE PUSH1 0x20 ADD PUSH1 0x0 KECCAK256 PUSH1 0x0 DUP5 PUSH20 0xFFFFFFFFFFFFFFFFFFFFFFFFFFFFFFFFFFFFFFFF AND PUSH20 0xFFFFFFFFFFFFFFFFFFFFFFFFFFFFFFFFFFFFFFFF AND DUP2 MSTORE PUSH1 0x20 ADD SWAP1 DUP2 MSTORE PUSH1 0x20 ADD PUSH1 0x0 KECCAK256 SWAP1 POP DUP4 DUP2 PUSH1 0x0 ADD SLOAD LT ISZERO PUSH2 0xDC0 JUMPI PUSH1 0x40 MLOAD PUSH32 0x8C379A000000000000000000000000000000000000000000000000000000000 DUP2 MSTORE PUSH1 0x4 ADD DUP1 DUP1 PUSH1 0x20 ADD DUP3 DUP2 SUB DUP3 MSTORE PUSH1 0x12 DUP2 MSTORE PUSH1 0x20 ADD DUP1 PUSH32 0x77697468647261773A206E6F7420676F6F640000000000000000000000000000 DUP2 MSTORE POP PUSH1 0x20 ADD SWAP2 POP POP PUSH1 0x40 MLOAD DUP1 SWAP2 SUB SWAP1 REVERT JUMPDEST PUSH2 0xDC9 DUP6 PUSH2 0x121D JUMP JUMPDEST PUSH1 0x0 PUSH2 0xE16 DUP3 PUSH1 0x1 ADD SLOAD PUSH2 0xE08 PUSH8 0xDE0B6B3A7640000 PUSH2 0xDFA DUP8 PUSH1 0x3 ADD SLOAD DUP8 PUSH1 0x0 ADD SLOAD PUSH2 0x26D9 SWAP1 SWAP2 SWAP1 PUSH4 0xFFFFFFFF AND JUMP JUMPDEST PUSH2 0x2895 SWAP1 SWAP2 SWAP1 PUSH4 0xFFFFFFFF AND JUMP JUMPDEST PUSH2 0x25CE SWAP1 SWAP2 SWAP1 PUSH4 0xFFFFFFFF AND JUMP JUMPDEST SWAP1 POP PUSH1 0x0 DUP2 GT ISZERO PUSH2 0xE7A JUMPI PUSH2 0xE2B DUP5 DUP3 PUSH2 0x291E JUMP JUMPDEST DUP4 PUSH20 0xFFFFFFFFFFFFFFFFFFFFFFFFFFFFFFFFFFFFFFFF AND PUSH32 0xE2403640BA68FED3A2F88B7557551D1993F84B99BB10FF833F0CF8DB0C5E0486 DUP3 PUSH1 0x40 MLOAD DUP1 DUP3 DUP2 MSTORE PUSH1 0x20 ADD SWAP2 POP POP PUSH1 0x40 MLOAD DUP1 SWAP2 SUB SWAP1 LOG2 JUMPDEST PUSH1 0x0 DUP6 GT ISZERO PUSH2 0xEF2 JUMPI PUSH2 0xE9A DUP6 DUP4 PUSH1 0x0 ADD SLOAD PUSH2 0x25CE SWAP1 SWAP2 SWAP1 PUSH4 0xFFFFFFFF AND JUMP JUMPDEST DUP3 PUSH1 0x0 ADD DUP2 SWAP1 SSTORE POP PUSH2 0xEF1 DUP5 DUP7 DUP6 PUSH1 0x0 ADD PUSH1 0x0 SWAP1 SLOAD SWAP1 PUSH2 0x100 EXP SWAP1 DIV PUSH20 0xFFFFFFFFFFFFFFFFFFFFFFFFFFFFFFFFFFFFFFFF AND PUSH20 0xFFFFFFFFFFFFFFFFFFFFFFFFFFFFFFFFFFFFFFFF AND PUSH2 0x2A9D SWAP1 SWAP3 SWAP2 SWAP1 PUSH4 0xFFFFFFFF AND JUMP JUMPDEST JUMPDEST PUSH2 0xF27 PUSH8 0xDE0B6B3A7640000 PUSH2 0xF19 DUP6 PUSH1 0x3 ADD SLOAD DUP6 PUSH1 0x0 ADD SLOAD PUSH2 0x26D9 SWAP1 SWAP2 SWAP1 PUSH4 0xFFFFFFFF AND JUMP JUMPDEST PUSH2 0x2895 SWAP1 SWAP2 SWAP1 PUSH4 0xFFFFFFFF AND JUMP JUMPDEST DUP3 PUSH1 0x1 ADD DUP2 SWAP1 SSTORE POP DUP6 DUP5 PUSH20 0xFFFFFFFFFFFFFFFFFFFFFFFFFFFFFFFFFFFFFFFF AND PUSH32 0xF279E6A1F5E320CCA91135676D9CB6E44CA8A08C0B88342BCDB1144F6511B568 DUP8 PUSH1 0x40 MLOAD DUP1 DUP3 DUP2 MSTORE PUSH1 0x20 ADD SWAP2 POP POP PUSH1 0x40 MLOAD DUP1 SWAP2 SUB SWAP1 LOG3 POP POP POP POP POP POP JUMP JUMPDEST PUSH1 0x0 PUSH1 0x1 PUSH1 0x0 SWAP1 SLOAD SWAP1 PUSH2 0x100 EXP SWAP1 DIV PUSH20 0xFFFFFFFFFFFFFFFFFFFFFFFFFFFFFFFFFFFFFFFF AND PUSH20 0xFFFFFFFFFFFFFFFFFFFFFFFFFFFFFFFFFFFFFFFF AND PUSH2 0xFC9 PUSH2 0x275F JUMP JUMPDEST PUSH20 0xFFFFFFFFFFFFFFFFFFFFFFFFFFFFFFFFFFFFFFFF AND EQ SWAP1 POP SWAP1 JUMP JUMPDEST PUSH1 0x0 DUP1 PUSH1 0x6 DUP5 DUP2 SLOAD DUP2 LT PUSH2 0xFF5 JUMPI INVALID JUMPDEST SWAP1 PUSH1 0x0 MSTORE PUSH1 0x20 PUSH1 0x0 KECCAK256 SWAP1 PUSH1 0x5 MUL ADD SWAP1 POP PUSH1 0x0 PUSH1 0x8 PUSH1 0x0 DUP7 DUP2 MSTORE PUSH1 0x20 ADD SWAP1 DUP2 MSTORE PUSH1 0x20 ADD PUSH1 0x0 KECCAK256 PUSH1 0x0 DUP6 PUSH20 0xFFFFFFFFFFFFFFFFFFFFFFFFFFFFFFFFFFFFFFFF AND PUSH20 0xFFFFFFFFFFFFFFFFFFFFFFFFFFFFFFFFFFFFFFFF AND DUP2 MSTORE PUSH1 0x20 ADD SWAP1 DUP2 MSTORE PUSH1 0x20 ADD PUSH1 0x0 KECCAK256 SWAP1 POP PUSH1 0x0 DUP3 PUSH1 0x3 ADD SLOAD SWAP1 POP PUSH1 0x0 DUP4 PUSH1 0x0 ADD PUSH1 0x0 SWAP1 SLOAD SWAP1 PUSH2 0x100 EXP SWAP1 DIV PUSH20 0xFFFFFFFFFFFFFFFFFFFFFFFFFFFFFFFFFFFFFFFF AND PUSH20 0xFFFFFFFFFFFFFFFFFFFFFFFFFFFFFFFFFFFFFFFF AND PUSH4 0x70A08231 ADDRESS PUSH1 0x40 MLOAD DUP3 PUSH4 0xFFFFFFFF AND PUSH1 0xE0 SHL DUP2 MSTORE PUSH1 0x4 ADD DUP1 DUP3 PUSH20 0xFFFFFFFFFFFFFFFFFFFFFFFFFFFFFFFFFFFFFFFF AND DUP2 MSTORE PUSH1 0x20 ADD SWAP2 POP POP PUSH1 0x20 PUSH1 0x40 MLOAD DUP1 DUP4 SUB DUP2 DUP7 DUP1 EXTCODESIZE ISZERO DUP1 ISZERO PUSH2 0x10EF JUMPI PUSH1 0x0 DUP1 REVERT JUMPDEST POP GAS STATICCALL ISZERO DUP1 ISZERO PUSH2 0x1103 JUMPI RETURNDATASIZE PUSH1 0x0 DUP1 RETURNDATACOPY RETURNDATASIZE PUSH1 0x0 REVERT JUMPDEST POP POP POP POP PUSH1 0x40 MLOAD RETURNDATASIZE PUSH1 0x20 DUP2 LT ISZERO PUSH2 0x1119 JUMPI PUSH1 0x0 DUP1 REVERT JUMPDEST DUP2 ADD SWAP1 DUP1 DUP1 MLOAD SWAP1 PUSH1 0x20 ADD SWAP1 SWAP3 SWAP2 SWAP1 POP POP POP SWAP1 POP DUP4 PUSH1 0x2 ADD SLOAD TIMESTAMP GT DUP1 ISZERO PUSH2 0x1140 JUMPI POP PUSH1 0x0 DUP2 EQ ISZERO JUMPDEST ISZERO PUSH2 0x11CA JUMPI PUSH1 0x0 PUSH2 0x1155 DUP6 PUSH1 0x2 ADD SLOAD TIMESTAMP PUSH2 0xABD JUMP JUMPDEST SWAP1 POP PUSH1 0x0 PUSH2 0x1184 PUSH1 0x9 SLOAD PUSH2 0x1176 DUP9 PUSH1 0x1 ADD SLOAD DUP6 PUSH2 0x26D9 SWAP1 SWAP2 SWAP1 PUSH4 0xFFFFFFFF AND JUMP JUMPDEST PUSH2 0x2895 SWAP1 SWAP2 SWAP1 PUSH4 0xFFFFFFFF AND JUMP JUMPDEST SWAP1 POP PUSH2 0x11C5 PUSH2 0x11B6 DUP5 PUSH2 0x11A8 PUSH8 0xDE0B6B3A7640000 DUP6 PUSH2 0x26D9 SWAP1 SWAP2 SWAP1 PUSH4 0xFFFFFFFF AND JUMP JUMPDEST PUSH2 0x2895 SWAP1 SWAP2 SWAP1 PUSH4 0xFFFFFFFF AND JUMP JUMPDEST DUP6 PUSH2 0x2651 SWAP1 SWAP2 SWAP1 PUSH4 0xFFFFFFFF AND JUMP JUMPDEST SWAP4 POP POP POP JUMPDEST PUSH2 0x1211 DUP4 PUSH1 0x1 ADD SLOAD PUSH2 0x1203 PUSH8 0xDE0B6B3A7640000 PUSH2 0x11F5 DUP7 DUP9 PUSH1 0x0 ADD SLOAD PUSH2 0x26D9 SWAP1 SWAP2 SWAP1 PUSH4 0xFFFFFFFF AND JUMP JUMPDEST PUSH2 0x2895 SWAP1 SWAP2 SWAP1 PUSH4 0xFFFFFFFF AND JUMP JUMPDEST PUSH2 0x25CE SWAP1 SWAP2 SWAP1 PUSH4 0xFFFFFFFF AND JUMP JUMPDEST SWAP5 POP POP POP POP POP SWAP3 SWAP2 POP POP JUMP JUMPDEST PUSH1 0x0 PUSH1 0x6 DUP3 DUP2 SLOAD DUP2 LT PUSH2 0x122C JUMPI INVALID JUMPDEST SWAP1 PUSH1 0x0 MSTORE PUSH1 0x20 PUSH1 0x0 KECCAK256 SWAP1 PUSH1 0x5 MUL ADD SWAP1 POP DUP1 PUSH1 0x2 ADD SLOAD TIMESTAMP GT PUSH2 0x124D JUMPI POP PUSH2 0x1429 JUMP JUMPDEST PUSH1 0x0 DUP2 PUSH1 0x0 ADD PUSH1 0x0 SWAP1 SLOAD SWAP1 PUSH2 0x100 EXP SWAP1 DIV PUSH20 0xFFFFFFFFFFFFFFFFFFFFFFFFFFFFFFFFFFFFFFFF AND PUSH20 0xFFFFFFFFFFFFFFFFFFFFFFFFFFFFFFFFFFFFFFFF AND PUSH4 0x70A08231 ADDRESS PUSH1 0x40 MLOAD DUP3 PUSH4 0xFFFFFFFF AND PUSH1 0xE0 SHL DUP2 MSTORE PUSH1 0x4 ADD DUP1 DUP3 PUSH20 0xFFFFFFFFFFFFFFFFFFFFFFFFFFFFFFFFFFFFFFFF AND DUP2 MSTORE PUSH1 0x20 ADD SWAP2 POP POP PUSH1 0x20 PUSH1 0x40 MLOAD DUP1 DUP4 SUB DUP2 DUP7 DUP1 EXTCODESIZE ISZERO DUP1 ISZERO PUSH2 0x12DA JUMPI PUSH1 0x0 DUP1 REVERT JUMPDEST POP GAS STATICCALL ISZERO DUP1 ISZERO PUSH2 0x12EE JUMPI RETURNDATASIZE PUSH1 0x0 DUP1 RETURNDATACOPY RETURNDATASIZE PUSH1 0x0 REVERT JUMPDEST POP POP POP POP PUSH1 0x40 MLOAD RETURNDATASIZE PUSH1 0x20 DUP2 LT ISZERO PUSH2 0x1304 JUMPI PUSH1 0x0 DUP1 REVERT JUMPDEST DUP2 ADD SWAP1 DUP1 DUP1 MLOAD SWAP1 PUSH1 0x20 ADD SWAP1 SWAP3 SWAP2 SWAP1 POP POP POP SWAP1 POP PUSH1 0x0 DUP2 EQ ISZERO PUSH2 0x1330 JUMPI TIMESTAMP DUP3 PUSH1 0x2 ADD DUP2 SWAP1 SSTORE POP POP POP PUSH2 0x1429 JUMP JUMPDEST DUP2 PUSH1 0x4 ADD PUSH1 0x0 SWAP1 SLOAD SWAP1 PUSH2 0x100 EXP SWAP1 DIV PUSH1 0xFF AND PUSH2 0x1383 JUMPI PUSH1 0x1 DUP3 PUSH1 0x4 ADD PUSH1 0x0 PUSH2 0x100 EXP DUP2 SLOAD DUP2 PUSH1 0xFF MUL NOT AND SWAP1 DUP4 ISZERO ISZERO MUL OR SWAP1 SSTORE POP PUSH2 0x137C DUP3 PUSH1 0x1 ADD SLOAD PUSH1 0x9 SLOAD PUSH2 0x2651 SWAP1 SWAP2 SWAP1 PUSH4 0xFFFFFFFF AND JUMP JUMPDEST PUSH1 0x9 DUP2 SWAP1 SSTORE POP JUMPDEST PUSH1 0x0 PUSH1 0x9 SLOAD GT ISZERO PUSH2 0x141D JUMPI PUSH1 0x0 PUSH2 0x139E DUP4 PUSH1 0x2 ADD SLOAD TIMESTAMP PUSH2 0xABD JUMP JUMPDEST SWAP1 POP PUSH1 0x0 PUSH2 0x13CD PUSH1 0x9 SLOAD PUSH2 0x13BF DUP7 PUSH1 0x1 ADD SLOAD DUP6 PUSH2 0x26D9 SWAP1 SWAP2 SWAP1 PUSH4 0xFFFFFFFF AND JUMP JUMPDEST PUSH2 0x2895 SWAP1 SWAP2 SWAP1 PUSH4 0xFFFFFFFF AND JUMP JUMPDEST SWAP1 POP PUSH2 0x1412 PUSH2 0x13FF DUP5 PUSH2 0x13F1 PUSH8 0xDE0B6B3A7640000 DUP6 PUSH2 0x26D9 SWAP1 SWAP2 SWAP1 PUSH4 0xFFFFFFFF AND JUMP JUMPDEST PUSH2 0x2895 SWAP1 SWAP2 SWAP1 PUSH4 0xFFFFFFFF AND JUMP JUMPDEST DUP6 PUSH1 0x3 ADD SLOAD PUSH2 0x2651 SWAP1 SWAP2 SWAP1 PUSH4 0xFFFFFFFF AND JUMP JUMPDEST DUP5 PUSH1 0x3 ADD DUP2 SWAP1 SSTORE POP POP POP JUMPDEST TIMESTAMP DUP3 PUSH1 0x2 ADD DUP2 SWAP1 SSTORE POP POP POP JUMPDEST POP JUMP JUMPDEST PUSH1 0x0 PUSH1 0x6 DUP3 DUP2 SLOAD DUP2 LT PUSH2 0x143B JUMPI INVALID JUMPDEST SWAP1 PUSH1 0x0 MSTORE PUSH1 0x20 PUSH1 0x0 KECCAK256 SWAP1 PUSH1 0x5 MUL ADD SWAP1 POP PUSH1 0x0 PUSH1 0x8 PUSH1 0x0 DUP5 DUP2 MSTORE PUSH1 0x20 ADD SWAP1 DUP2 MSTORE PUSH1 0x20 ADD PUSH1 0x0 KECCAK256 PUSH1 0x0 CALLER PUSH20 0xFFFFFFFFFFFFFFFFFFFFFFFFFFFFFFFFFFFFFFFF AND PUSH20 0xFFFFFFFFFFFFFFFFFFFFFFFFFFFFFFFFFFFFFFFF AND DUP2 MSTORE PUSH1 0x20 ADD SWAP1 DUP2 MSTORE PUSH1 0x20 ADD PUSH1 0x0 KECCAK256 SWAP1 POP PUSH1 0x0 DUP2 PUSH1 0x0 ADD SLOAD SWAP1 POP PUSH1 0x0 DUP3 PUSH1 0x0 ADD DUP2 SWAP1 SSTORE POP PUSH1 0x0 DUP3 PUSH1 0x1 ADD DUP2 SWAP1 SSTORE POP PUSH2 0x150B CALLER DUP3 DUP6 PUSH1 0x0 ADD PUSH1 0x0 SWAP1 SLOAD SWAP1 PUSH2 0x100 EXP SWAP1 DIV PUSH20 0xFFFFFFFFFFFFFFFFFFFFFFFFFFFFFFFFFFFFFFFF AND PUSH20 0xFFFFFFFFFFFFFFFFFFFFFFFFFFFFFFFFFFFFFFFF AND PUSH2 0x2A9D SWAP1 SWAP3 SWAP2 SWAP1 PUSH4 0xFFFFFFFF AND JUMP JUMPDEST DUP4 CALLER PUSH20 0xFFFFFFFFFFFFFFFFFFFFFFFFFFFFFFFFFFFFFFFF AND PUSH32 0xBB757047C2B5F3974FE26B7C10F732E7BCE710B0952A71082702781E62AE0595 DUP4 PUSH1 0x40 MLOAD DUP1 DUP3 DUP2 MSTORE PUSH1 0x20 ADD SWAP2 POP POP PUSH1 0x40 MLOAD DUP1 SWAP2 SUB SWAP1 LOG3 POP POP POP POP JUMP JUMPDEST CALLER PUSH20 0xFFFFFFFFFFFFFFFFFFFFFFFFFFFFFFFFFFFFFFFF AND PUSH1 0x1 PUSH1 0x0 SWAP1 SLOAD SWAP1 PUSH2 0x100 EXP SWAP1 DIV PUSH20 0xFFFFFFFFFFFFFFFFFFFFFFFFFFFFFFFFFFFFFFFF AND PUSH20 0xFFFFFFFFFFFFFFFFFFFFFFFFFFFFFFFFFFFFFFFF AND EQ PUSH2 0x1606 JUMPI PUSH1 0x40 MLOAD PUSH32 0x8C379A000000000000000000000000000000000000000000000000000000000 DUP2 MSTORE PUSH1 0x4 ADD DUP1 DUP1 PUSH1 0x20 ADD DUP3 DUP2 SUB DUP3 MSTORE PUSH1 0x24 DUP2 MSTORE PUSH1 0x20 ADD DUP1 PUSH2 0x31BB PUSH1 0x24 SWAP2 CODECOPY PUSH1 0x40 ADD SWAP2 POP POP PUSH1 0x40 MLOAD DUP1 SWAP2 SUB SWAP1 REVERT JUMPDEST PUSH3 0x76A700 PUSH1 0xB SLOAD ADD TIMESTAMP LT ISZERO PUSH2 0x17E2 JUMPI PUSH1 0x2 PUSH1 0x0 SWAP1 SLOAD SWAP1 PUSH2 0x100 EXP SWAP1 DIV PUSH20 0xFFFFFFFFFFFFFFFFFFFFFFFFFFFFFFFFFFFFFFFF AND PUSH20 0xFFFFFFFFFFFFFFFFFFFFFFFFFFFFFFFFFFFFFFFF AND DUP4 PUSH20 0xFFFFFFFFFFFFFFFFFFFFFFFFFFFFFFFFFFFFFFFF AND EQ ISZERO PUSH2 0x16D9 JUMPI PUSH1 0x40 MLOAD PUSH32 0x8C379A000000000000000000000000000000000000000000000000000000000 DUP2 MSTORE PUSH1 0x4 ADD DUP1 DUP1 PUSH1 0x20 ADD DUP3 DUP2 SUB DUP3 MSTORE PUSH1 0x4 DUP2 MSTORE PUSH1 0x20 ADD DUP1 PUSH32 0x506F6C7900000000000000000000000000000000000000000000000000000000 DUP2 MSTORE POP PUSH1 0x20 ADD SWAP2 POP POP PUSH1 0x40 MLOAD DUP1 SWAP2 SUB SWAP1 REVERT JUMPDEST PUSH1 0x0 PUSH1 0x6 DUP1 SLOAD SWAP1 POP SWAP1 POP PUSH1 0x0 JUMPDEST DUP2 DUP2 LT ISZERO PUSH2 0x17DF JUMPI PUSH1 0x0 PUSH1 0x6 DUP3 DUP2 SLOAD DUP2 LT PUSH2 0x16FD JUMPI INVALID JUMPDEST SWAP1 PUSH1 0x0 MSTORE PUSH1 0x20 PUSH1 0x0 KECCAK256 SWAP1 PUSH1 0x5 MUL ADD SWAP1 POP DUP1 PUSH1 0x0 ADD PUSH1 0x0 SWAP1 SLOAD SWAP1 PUSH2 0x100 EXP SWAP1 DIV PUSH20 0xFFFFFFFFFFFFFFFFFFFFFFFFFFFFFFFFFFFFFFFF AND PUSH20 0xFFFFFFFFFFFFFFFFFFFFFFFFFFFFFFFFFFFFFFFF AND DUP7 PUSH20 0xFFFFFFFFFFFFFFFFFFFFFFFFFFFFFFFFFFFFFFFF AND EQ ISZERO PUSH2 0x17D3 JUMPI PUSH1 0x40 MLOAD PUSH32 0x8C379A000000000000000000000000000000000000000000000000000000000 DUP2 MSTORE PUSH1 0x4 ADD DUP1 DUP1 PUSH1 0x20 ADD DUP3 DUP2 SUB DUP3 MSTORE PUSH1 0xA DUP2 MSTORE PUSH1 0x20 ADD DUP1 PUSH32 0x706F6F6C2E746F6B656E00000000000000000000000000000000000000000000 DUP2 MSTORE POP PUSH1 0x20 ADD SWAP2 POP POP PUSH1 0x40 MLOAD DUP1 SWAP2 SUB SWAP1 REVERT JUMPDEST POP DUP1 PUSH1 0x1 ADD SWAP1 POP PUSH2 0x16E6 JUMP JUMPDEST POP POP JUMPDEST PUSH2 0x180D DUP2 DUP4 DUP6 PUSH20 0xFFFFFFFFFFFFFFFFFFFFFFFFFFFFFFFFFFFFFFFF AND PUSH2 0x2A9D SWAP1 SWAP3 SWAP2 SWAP1 PUSH4 0xFFFFFFFF AND JUMP JUMPDEST POP POP POP JUMP JUMPDEST PUSH1 0x0 PUSH1 0x1 PUSH1 0x0 SWAP1 SLOAD SWAP1 PUSH2 0x100 EXP SWAP1 DIV PUSH20 0xFFFFFFFFFFFFFFFFFFFFFFFFFFFFFFFFFFFFFFFF AND SWAP1 POP SWAP1 JUMP JUMPDEST PUSH1 0xA SLOAD DUP2 JUMP JUMPDEST PUSH1 0x0 PUSH1 0x6 DUP1 SLOAD SWAP1 POP SWAP1 POP PUSH1 0x0 JUMPDEST DUP2 DUP2 LT ISZERO PUSH2 0x186B JUMPI PUSH2 0x1860 DUP2 PUSH2 0x121D JUMP JUMPDEST DUP1 PUSH1 0x1 ADD SWAP1 POP PUSH2 0x184F JUMP JUMPDEST POP POP JUMP JUMPDEST PUSH1 0xB SLOAD DUP2 JUMP JUMPDEST PUSH2 0x187D PUSH2 0x275F JUMP JUMPDEST PUSH20 0xFFFFFFFFFFFFFFFFFFFFFFFFFFFFFFFFFFFFFFFF AND PUSH2 0x189B PUSH2 0x19E2 JUMP JUMPDEST PUSH20 0xFFFFFFFFFFFFFFFFFFFFFFFFFFFFFFFFFFFFFFFF AND EQ PUSH2 0x1924 JUMPI PUSH1 0x40 MLOAD PUSH32 0x8C379A000000000000000000000000000000000000000000000000000000000 DUP2 MSTORE PUSH1 0x4 ADD DUP1 DUP1 PUSH1 0x20 ADD DUP3 DUP2 SUB DUP3 MSTORE PUSH1 0x20 DUP2 MSTORE PUSH1 0x20 ADD DUP1 PUSH32 0x4F776E61626C653A2063616C6C6572206973206E6F7420746865206F776E6572 DUP2 MSTORE POP PUSH1 0x20 ADD SWAP2 POP POP PUSH1 0x40 MLOAD DUP1 SWAP2 SUB SWAP1 REVERT JUMPDEST PUSH1 0x0 PUSH20 0xFFFFFFFFFFFFFFFFFFFFFFFFFFFFFFFFFFFFFFFF AND PUSH1 0x0 DUP1 SLOAD SWAP1 PUSH2 0x100 EXP SWAP1 DIV PUSH20 0xFFFFFFFFFFFFFFFFFFFFFFFFFFFFFFFFFFFFFFFF AND PUSH20 0xFFFFFFFFFFFFFFFFFFFFFFFFFFFFFFFFFFFFFFFF AND PUSH32 0x8BE0079C531659141344CD1FD0A4F28419497F9722A3DAAFE3B4186F6B6457E0 PUSH1 0x40 MLOAD PUSH1 0x40 MLOAD DUP1 SWAP2 SUB SWAP1 LOG3 PUSH1 0x0 DUP1 PUSH1 0x0 PUSH2 0x100 EXP DUP2 SLOAD DUP2 PUSH20 0xFFFFFFFFFFFFFFFFFFFFFFFFFFFFFFFFFFFFFFFF MUL NOT AND SWAP1 DUP4 PUSH20 0xFFFFFFFFFFFFFFFFFFFFFFFFFFFFFFFFFFFFFFFF AND MUL OR SWAP1 SSTORE POP JUMP JUMPDEST PUSH1 0x0 DUP1 PUSH1 0x0 SWAP1 SLOAD SWAP1 PUSH2 0x100 EXP SWAP1 DIV PUSH20 0xFFFFFFFFFFFFFFFFFFFFFFFFFFFFFFFFFFFFFFFF AND SWAP1 POP SWAP1 JUMP JUMPDEST PUSH1 0x8 PUSH1 0x20 MSTORE DUP2 PUSH1 0x0 MSTORE PUSH1 0x40 PUSH1 0x0 KECCAK256 PUSH1 0x20 MSTORE DUP1 PUSH1 0x0 MSTORE PUSH1 0x40 PUSH1 0x0 KECCAK256 PUSH1 0x0 SWAP2 POP SWAP2 POP POP DUP1 PUSH1 0x0 ADD SLOAD SWAP1 DUP1 PUSH1 0x1 ADD SLOAD SWAP1 POP DUP3 JUMP JUMPDEST PUSH1 0xD SLOAD DUP2 JUMP JUMPDEST CALLER PUSH20 0xFFFFFFFFFFFFFFFFFFFFFFFFFFFFFFFFFFFFFFFF AND PUSH1 0x1 PUSH1 0x0 SWAP1 SLOAD SWAP1 PUSH2 0x100 EXP SWAP1 DIV PUSH20 0xFFFFFFFFFFFFFFFFFFFFFFFFFFFFFFFFFFFFFFFF AND PUSH20 0xFFFFFFFFFFFFFFFFFFFFFFFFFFFFFFFFFFFFFFFF AND EQ PUSH2 0x1AE8 JUMPI PUSH1 0x40 MLOAD PUSH32 0x8C379A000000000000000000000000000000000000000000000000000000000 DUP2 MSTORE PUSH1 0x4 ADD DUP1 DUP1 PUSH1 0x20 ADD DUP3 DUP2 SUB DUP3 MSTORE PUSH1 0x24 DUP2 MSTORE PUSH1 0x20 ADD DUP1 PUSH2 0x31BB PUSH1 0x24 SWAP2 CODECOPY PUSH1 0x40 ADD SWAP2 POP POP PUSH1 0x40 MLOAD DUP1 SWAP2 SUB SWAP1 REVERT JUMPDEST PUSH2 0x1AF1 DUP4 PUSH2 0x2B3F JUMP JUMPDEST DUP2 ISZERO PUSH2 0x1B00 JUMPI PUSH2 0x1AFF PUSH2 0x1842 JUMP JUMPDEST JUMPDEST PUSH1 0xA SLOAD TIMESTAMP LT ISZERO PUSH2 0x1B33 JUMPI PUSH1 0x0 DUP2 EQ ISZERO PUSH2 0x1B1D JUMPI PUSH1 0xA SLOAD SWAP1 POP PUSH2 0x1B2E JUMP JUMPDEST PUSH1 0xA SLOAD DUP2 LT ISZERO PUSH2 0x1B2D JUMPI PUSH1 0xA SLOAD SWAP1 POP JUMPDEST JUMPDEST PUSH2 0x1B4B JUMP JUMPDEST PUSH1 0x0 DUP2 EQ DUP1 PUSH2 0x1B41 JUMPI POP TIMESTAMP DUP2 LT JUMPDEST ISZERO PUSH2 0x1B4A JUMPI TIMESTAMP SWAP1 POP JUMPDEST JUMPDEST PUSH1 0x0 PUSH1 0xA SLOAD DUP3 GT ISZERO DUP1 PUSH2 0x1B5E JUMPI POP TIMESTAMP DUP3 GT ISZERO JUMPDEST SWAP1 POP PUSH1 0x6 PUSH1 0x40 MLOAD DUP1 PUSH1 0xA0 ADD PUSH1 0x40 MSTORE DUP1 DUP7 PUSH20 0xFFFFFFFFFFFFFFFFFFFFFFFFFFFFFFFFFFFFFFFF AND DUP2 MSTORE PUSH1 0x20 ADD DUP8 DUP2 MSTORE PUSH1 0x20 ADD DUP5 DUP2 MSTORE PUSH1 0x20 ADD PUSH1 0x0 DUP2 MSTORE PUSH1 0x20 ADD DUP4 ISZERO ISZERO DUP2 MSTORE POP SWAP1 DUP1 PUSH1 0x1 DUP2 SLOAD ADD DUP1 DUP3 SSTORE DUP1 SWAP2 POP POP PUSH1 0x1 SWAP1 SUB SWAP1 PUSH1 0x0 MSTORE PUSH1 0x20 PUSH1 0x0 KECCAK256 SWAP1 PUSH1 0x5 MUL ADD PUSH1 0x0 SWAP1 SWAP2 SWAP1 SWAP2 SWAP1 SWAP2 POP PUSH1 0x0 DUP3 ADD MLOAD DUP2 PUSH1 0x0 ADD PUSH1 0x0 PUSH2 0x100 EXP DUP2 SLOAD DUP2 PUSH20 0xFFFFFFFFFFFFFFFFFFFFFFFFFFFFFFFFFFFFFFFF MUL NOT AND SWAP1 DUP4 PUSH20 0xFFFFFFFFFFFFFFFFFFFFFFFFFFFFFFFFFFFFFFFF AND MUL OR SWAP1 SSTORE POP PUSH1 0x20 DUP3 ADD MLOAD DUP2 PUSH1 0x1 ADD SSTORE PUSH1 0x40 DUP3 ADD MLOAD DUP2 PUSH1 0x2 ADD SSTORE PUSH1 0x60 DUP3 ADD MLOAD DUP2 PUSH1 0x3 ADD SSTORE PUSH1 0x80 DUP3 ADD MLOAD DUP2 PUSH1 0x4 ADD PUSH1 0x0 PUSH2 0x100 EXP DUP2 SLOAD DUP2 PUSH1 0xFF MUL NOT AND SWAP1 DUP4 ISZERO ISZERO MUL OR SWAP1 SSTORE POP POP POP DUP1 ISZERO PUSH2 0x1C74 JUMPI PUSH2 0x1C6D DUP6 PUSH1 0x9 SLOAD PUSH2 0x2651 SWAP1 SWAP2 SWAP1 PUSH4 0xFFFFFFFF AND JUMP JUMPDEST PUSH1 0x9 DUP2 SWAP1 SSTORE POP JUMPDEST POP POP POP POP POP JUMP JUMPDEST CALLER PUSH20 0xFFFFFFFFFFFFFFFFFFFFFFFFFFFFFFFFFFFFFFFF AND PUSH1 0x1 PUSH1 0x0 SWAP1 SLOAD SWAP1 PUSH2 0x100 EXP SWAP1 DIV PUSH20 0xFFFFFFFFFFFFFFFFFFFFFFFFFFFFFFFFFFFFFFFF AND PUSH20 0xFFFFFFFFFFFFFFFFFFFFFFFFFFFFFFFFFFFFFFFF AND EQ PUSH2 0x1D21 JUMPI PUSH1 0x40 MLOAD PUSH32 0x8C379A000000000000000000000000000000000000000000000000000000000 DUP2 MSTORE PUSH1 0x4 ADD DUP1 DUP1 PUSH1 0x20 ADD DUP3 DUP2 SUB DUP3 MSTORE PUSH1 0x24 DUP2 MSTORE PUSH1 0x20 ADD DUP1 PUSH2 0x31BB PUSH1 0x24 SWAP2 CODECOPY PUSH1 0x40 ADD SWAP2 POP POP PUSH1 0x40 MLOAD DUP1 SWAP2 SUB SWAP1 REVERT JUMPDEST PUSH2 0x1D2A DUP2 PUSH2 0xBD0 JUMP JUMPDEST POP JUMP JUMPDEST PUSH1 0x4 SLOAD DUP2 JUMP JUMPDEST PUSH1 0x7 PUSH1 0x0 SWAP1 SLOAD SWAP1 PUSH2 0x100 EXP SWAP1 DIV PUSH1 0xFF AND ISZERO PUSH2 0x1DB6 JUMPI PUSH1 0x40 MLOAD PUSH32 0x8C379A000000000000000000000000000000000000000000000000000000000 DUP2 MSTORE PUSH1 0x4 ADD DUP1 DUP1 PUSH1 0x20 ADD DUP3 DUP2 SUB DUP3 MSTORE PUSH1 0x1C DUP2 MSTORE PUSH1 0x20 ADD DUP1 PUSH32 0x47656E657369733A20616C726561647920696E697469616C697A656400000000 DUP2 MSTORE POP PUSH1 0x20 ADD SWAP2 POP POP PUSH1 0x40 MLOAD DUP1 SWAP2 SUB SWAP1 REVERT JUMPDEST CALLER PUSH20 0xFFFFFFFFFFFFFFFFFFFFFFFFFFFFFFFFFFFFFFFF AND PUSH1 0x1 PUSH1 0x0 SWAP1 SLOAD SWAP1 PUSH2 0x100 EXP SWAP1 DIV PUSH20 0xFFFFFFFFFFFFFFFFFFFFFFFFFFFFFFFFFFFFFFFF AND PUSH20 0xFFFFFFFFFFFFFFFFFFFFFFFFFFFFFFFFFFFFFFFF AND EQ PUSH2 0x1E5C JUMPI PUSH1 0x40 MLOAD PUSH32 0x8C379A000000000000000000000000000000000000000000000000000000000 DUP2 MSTORE PUSH1 0x4 ADD DUP1 DUP1 PUSH1 0x20 ADD DUP3 DUP2 SUB DUP3 MSTORE PUSH1 0x24 DUP2 MSTORE PUSH1 0x20 ADD DUP1 PUSH2 0x31BB PUSH1 0x24 SWAP2 CODECOPY PUSH1 0x40 ADD SWAP2 POP POP PUSH1 0x40 MLOAD DUP1 SWAP2 SUB SWAP1 REVERT JUMPDEST DUP2 TIMESTAMP LT PUSH2 0x1ED1 JUMPI PUSH1 0x40 MLOAD PUSH32 0x8C379A000000000000000000000000000000000000000000000000000000000 DUP2 MSTORE PUSH1 0x4 ADD DUP1 DUP1 PUSH1 0x20 ADD DUP3 DUP2 SUB DUP3 MSTORE PUSH1 0x4 DUP2 MSTORE PUSH1 0x20 ADD DUP1 PUSH32 0x6C61746500000000000000000000000000000000000000000000000000000000 DUP2 MSTORE POP PUSH1 0x20 ADD SWAP2 POP POP PUSH1 0x40 MLOAD DUP1 SWAP2 SUB SWAP1 REVERT JUMPDEST PUSH1 0x0 PUSH20 0xFFFFFFFFFFFFFFFFFFFFFFFFFFFFFFFFFFFFFFFF AND DUP4 PUSH20 0xFFFFFFFFFFFFFFFFFFFFFFFFFFFFFFFFFFFFFFFF AND EQ PUSH2 0x1F47 JUMPI DUP3 PUSH1 0x2 PUSH1 0x0 PUSH2 0x100 EXP DUP2 SLOAD DUP2 PUSH20 0xFFFFFFFFFFFFFFFFFFFFFFFFFFFFFFFFFFFFFFFF MUL NOT AND SWAP1 DUP4 PUSH20 0xFFFFFFFFFFFFFFFFFFFFFFFFFFFFFFFFFFFFFFFF AND MUL OR SWAP1 SSTORE POP JUMPDEST PUSH1 0x0 PUSH20 0xFFFFFFFFFFFFFFFFFFFFFFFFFFFFFFFFFFFFFFFF AND DUP2 PUSH20 0xFFFFFFFFFFFFFFFFFFFFFFFFFFFFFFFFFFFFFFFF AND EQ PUSH2 0x1FBD JUMPI DUP1 PUSH1 0x3 PUSH1 0x0 PUSH2 0x100 EXP DUP2 SLOAD DUP2 PUSH20 0xFFFFFFFFFFFFFFFFFFFFFFFFFFFFFFFFFFFFFFFF MUL NOT AND SWAP1 DUP4 PUSH20 0xFFFFFFFFFFFFFFFFFFFFFFFFFFFFFFFFFFFFFFFF AND MUL OR SWAP1 SSTORE POP JUMPDEST CALLER PUSH1 0x5 PUSH1 0x0 PUSH2 0x100 EXP DUP2 SLOAD DUP2 PUSH20 0xFFFFFFFFFFFFFFFFFFFFFFFFFFFFFFFFFFFFFFFF MUL NOT AND SWAP1 DUP4 PUSH20 0xFFFFFFFFFFFFFFFFFFFFFFFFFFFFFFFFFFFFFFFF AND MUL OR SWAP1 SSTORE POP DUP2 PUSH1 0xA DUP2 SWAP1 SSTORE POP PUSH1 0xD SLOAD PUSH1 0xA SLOAD ADD PUSH1 0xB DUP2 SWAP1 SSTORE POP PUSH1 0x1 PUSH1 0x7 PUSH1 0x0 PUSH2 0x100 EXP DUP2 SLOAD DUP2 PUSH1 0xFF MUL NOT AND SWAP1 DUP4 ISZERO ISZERO MUL OR SWAP1 SSTORE POP POP POP POP JUMP JUMPDEST PUSH1 0x2 PUSH1 0x0 SWAP1 SLOAD SWAP1 PUSH2 0x100 EXP SWAP1 DIV PUSH20 0xFFFFFFFFFFFFFFFFFFFFFFFFFFFFFFFFFFFFFFFF AND DUP2 JUMP JUMPDEST PUSH1 0x0 CALLER SWAP1 POP PUSH1 0x0 PUSH2 0x2068 DUP4 PUSH2 0x2C44 JUMP JUMPDEST SWAP1 POP PUSH1 0x0 PUSH2 0x207F DUP3 DUP6 PUSH2 0x25CE SWAP1 SWAP2 SWAP1 PUSH4 0xFFFFFFFF AND JUMP JUMPDEST SWAP1 POP PUSH1 0x0 PUSH1 0x6 DUP7 DUP2 SLOAD DUP2 LT PUSH2 0x2090 JUMPI INVALID JUMPDEST SWAP1 PUSH1 0x0 MSTORE PUSH1 0x20 PUSH1 0x0 KECCAK256 SWAP1 PUSH1 0x5 MUL ADD SWAP1 POP PUSH1 0x0 PUSH1 0x8 PUSH1 0x0 DUP9 DUP2 MSTORE PUSH1 0x20 ADD SWAP1 DUP2 MSTORE PUSH1 0x20 ADD PUSH1 0x0 KECCAK256 PUSH1 0x0 DUP7 PUSH20 0xFFFFFFFFFFFFFFFFFFFFFFFFFFFFFFFFFFFFFFFF AND PUSH20 0xFFFFFFFFFFFFFFFFFFFFFFFFFFFFFFFFFFFFFFFF AND DUP2 MSTORE PUSH1 0x20 ADD SWAP1 DUP2 MSTORE PUSH1 0x20 ADD PUSH1 0x0 KECCAK256 SWAP1 POP PUSH2 0x20FD DUP8 PUSH2 0x121D JUMP JUMPDEST PUSH1 0x0 DUP2 PUSH1 0x0 ADD SLOAD GT ISZERO PUSH2 0x21BD JUMPI PUSH1 0x0 PUSH2 0x2157 DUP3 PUSH1 0x1 ADD SLOAD PUSH2 0x2149 PUSH8 0xDE0B6B3A7640000 PUSH2 0x213B DUP8 PUSH1 0x3 ADD SLOAD DUP8 PUSH1 0x0 ADD SLOAD PUSH2 0x26D9 SWAP1 SWAP2 SWAP1 PUSH4 0xFFFFFFFF AND JUMP JUMPDEST PUSH2 0x2895 SWAP1 SWAP2 SWAP1 PUSH4 0xFFFFFFFF AND JUMP JUMPDEST PUSH2 0x25CE SWAP1 SWAP2 SWAP1 PUSH4 0xFFFFFFFF AND JUMP JUMPDEST SWAP1 POP PUSH1 0x0 DUP2 GT ISZERO PUSH2 0x21BB JUMPI PUSH2 0x216C DUP7 DUP3 PUSH2 0x291E JUMP JUMPDEST DUP6 PUSH20 0xFFFFFFFFFFFFFFFFFFFFFFFFFFFFFFFFFFFFFFFF AND PUSH32 0xE2403640BA68FED3A2F88B7557551D1993F84B99BB10FF833F0CF8DB0C5E0486 DUP3 PUSH1 0x40 MLOAD DUP1 DUP3 DUP2 MSTORE PUSH1 0x20 ADD SWAP2 POP POP PUSH1 0x40 MLOAD DUP1 SWAP2 SUB SWAP1 LOG2 JUMPDEST POP JUMPDEST PUSH1 0x0 DUP7 GT ISZERO PUSH2 0x2347 JUMPI PUSH2 0x2217 DUP6 ADDRESS DUP9 DUP6 PUSH1 0x0 ADD PUSH1 0x0 SWAP1 SLOAD SWAP1 PUSH2 0x100 EXP SWAP1 DIV PUSH20 0xFFFFFFFFFFFFFFFFFFFFFFFFFFFFFFFFFFFFFFFF AND PUSH20 0xFFFFFFFFFFFFFFFFFFFFFFFFFFFFFFFFFFFFFFFF AND PUSH2 0x2C95 SWAP1 SWAP4 SWAP3 SWAP2 SWAP1 PUSH4 0xFFFFFFFF AND JUMP JUMPDEST PUSH1 0x3 PUSH1 0x0 SWAP1 SLOAD SWAP1 PUSH2 0x100 EXP SWAP1 DIV PUSH20 0xFFFFFFFFFFFFFFFFFFFFFFFFFFFFFFFFFFFFFFFF AND PUSH20 0xFFFFFFFFFFFFFFFFFFFFFFFFFFFFFFFFFFFFFFFF AND DUP3 PUSH1 0x0 ADD PUSH1 0x0 SWAP1 SLOAD SWAP1 PUSH2 0x100 EXP SWAP1 DIV PUSH20 0xFFFFFFFFFFFFFFFFFFFFFFFFFFFFFFFFFFFFFFFF AND PUSH20 0xFFFFFFFFFFFFFFFFFFFFFFFFFFFFFFFFFFFFFFFF AND EQ ISZERO PUSH2 0x22B5 JUMPI PUSH2 0x22A8 DUP7 DUP3 PUSH1 0x0 ADD SLOAD PUSH2 0x2651 SWAP1 SWAP2 SWAP1 PUSH4 0xFFFFFFFF AND JUMP JUMPDEST DUP2 PUSH1 0x0 ADD DUP2 SWAP1 SSTORE POP PUSH2 0x2346 JUMP JUMPDEST PUSH2 0x22CC DUP4 DUP3 PUSH1 0x0 ADD SLOAD PUSH2 0x2651 SWAP1 SWAP2 SWAP1 PUSH4 0xFFFFFFFF AND JUMP JUMPDEST DUP2 PUSH1 0x0 ADD DUP2 SWAP1 SSTORE POP PUSH2 0x2345 PUSH1 0x5 PUSH1 0x0 SWAP1 SLOAD SWAP1 PUSH2 0x100 EXP SWAP1 DIV PUSH20 0xFFFFFFFFFFFFFFFFFFFFFFFFFFFFFFFFFFFFFFFF AND DUP6 DUP5 PUSH1 0x0 ADD PUSH1 0x0 SWAP1 SLOAD SWAP1 PUSH2 0x100 EXP SWAP1 DIV PUSH20 0xFFFFFFFFFFFFFFFFFFFFFFFFFFFFFFFFFFFFFFFF AND PUSH20 0xFFFFFFFFFFFFFFFFFFFFFFFFFFFFFFFFFFFFFFFF AND PUSH2 0x2A9D SWAP1 SWAP3 SWAP2 SWAP1 PUSH4 0xFFFFFFFF AND JUMP JUMPDEST JUMPDEST JUMPDEST PUSH2 0x237C PUSH8 0xDE0B6B3A7640000 PUSH2 0x236E DUP5 PUSH1 0x3 ADD SLOAD DUP5 PUSH1 0x0 ADD SLOAD PUSH2 0x26D9 SWAP1 SWAP2 SWAP1 PUSH4 0xFFFFFFFF AND JUMP JUMPDEST PUSH2 0x2895 SWAP1 SWAP2 SWAP1 PUSH4 0xFFFFFFFF AND JUMP JUMPDEST DUP2 PUSH1 0x1 ADD DUP2 SWAP1 SSTORE POP DUP7 DUP6 PUSH20 0xFFFFFFFFFFFFFFFFFFFFFFFFFFFFFFFFFFFFFFFF AND PUSH32 0x90890809C654F11D6E72A28FA60149770A0D11EC6C92319D6CEB2BB0A4EA1A15 DUP9 PUSH1 0x40 MLOAD DUP1 DUP3 DUP2 MSTORE PUSH1 0x20 ADD SWAP2 POP POP PUSH1 0x40 MLOAD DUP1 SWAP2 SUB SWAP1 LOG3 POP POP POP POP POP POP POP JUMP JUMPDEST PUSH2 0x23E4 PUSH2 0x275F JUMP JUMPDEST PUSH20 0xFFFFFFFFFFFFFFFFFFFFFFFFFFFFFFFFFFFFFFFF AND PUSH2 0x2402 PUSH2 0x19E2 JUMP JUMPDEST PUSH20 0xFFFFFFFFFFFFFFFFFFFFFFFFFFFFFFFFFFFFFFFF AND EQ PUSH2 0x248B JUMPI PUSH1 0x40 MLOAD PUSH32 0x8C379A000000000000000000000000000000000000000000000000000000000 DUP2 MSTORE PUSH1 0x4 ADD DUP1 DUP1 PUSH1 0x20 ADD DUP3 DUP2 SUB DUP3 MSTORE PUSH1 0x20 DUP2 MSTORE PUSH1 0x20 ADD DUP1 PUSH32 0x4F776E61626C653A2063616C6C6572206973206E6F7420746865206F776E6572 DUP2 MSTORE POP PUSH1 0x20 ADD SWAP2 POP POP PUSH1 0x40 MLOAD DUP1 SWAP2 SUB SWAP1 REVERT JUMPDEST PUSH1 0x0 PUSH20 0xFFFFFFFFFFFFFFFFFFFFFFFFFFFFFFFFFFFFFFFF AND DUP2 PUSH20 0xFFFFFFFFFFFFFFFFFFFFFFFFFFFFFFFFFFFFFFFF AND EQ ISZERO PUSH2 0x2511 JUMPI PUSH1 0x40 MLOAD PUSH32 0x8C379A000000000000000000000000000000000000000000000000000000000 DUP2 MSTORE PUSH1 0x4 ADD DUP1 DUP1 PUSH1 0x20 ADD DUP3 DUP2 SUB DUP3 MSTORE PUSH1 0x26 DUP2 MSTORE PUSH1 0x20 ADD DUP1 PUSH2 0x3121 PUSH1 0x26 SWAP2 CODECOPY PUSH1 0x40 ADD SWAP2 POP POP PUSH1 0x40 MLOAD DUP1 SWAP2 SUB SWAP1 REVERT JUMPDEST DUP1 PUSH20 0xFFFFFFFFFFFFFFFFFFFFFFFFFFFFFFFFFFFFFFFF AND PUSH1 0x0 DUP1 SLOAD SWAP1 PUSH2 0x100 EXP SWAP1 DIV PUSH20 0xFFFFFFFFFFFFFFFFFFFFFFFFFFFFFFFFFFFFFFFF AND PUSH20 0xFFFFFFFFFFFFFFFFFFFFFFFFFFFFFFFFFFFFFFFF AND PUSH32 0x8BE0079C531659141344CD1FD0A4F28419497F9722A3DAAFE3B4186F6B6457E0 PUSH1 0x40 MLOAD PUSH1 0x40 MLOAD DUP1 SWAP2 SUB SWAP1 LOG3 DUP1 PUSH1 0x0 DUP1 PUSH2 0x100 EXP DUP2 SLOAD DUP2 PUSH20 0xFFFFFFFFFFFFFFFFFFFFFFFFFFFFFFFFFFFFFFFF MUL NOT AND SWAP1 DUP4 PUSH20 0xFFFFFFFFFFFFFFFFFFFFFFFFFFFFFFFFFFFFFFFF AND MUL OR SWAP1 SSTORE POP POP JUMP JUMPDEST PUSH1 0x0 DUP3 DUP3 GT ISZERO PUSH2 0x2646 JUMPI PUSH1 0x40 MLOAD PUSH32 0x8C379A000000000000000000000000000000000000000000000000000000000 DUP2 MSTORE PUSH1 0x4 ADD DUP1 DUP1 PUSH1 0x20 ADD DUP3 DUP2 SUB DUP3 MSTORE PUSH1 0x1E DUP2 MSTORE PUSH1 0x20 ADD DUP1 PUSH32 0x536166654D6174683A207375627472616374696F6E206F766572666C6F770000 DUP2 MSTORE POP PUSH1 0x20 ADD SWAP2 POP POP PUSH1 0x40 MLOAD DUP1 SWAP2 SUB SWAP1 REVERT JUMPDEST DUP2 DUP4 SUB SWAP1 POP SWAP3 SWAP2 POP POP JUMP JUMPDEST PUSH1 0x0 DUP1 DUP3 DUP5 ADD SWAP1 POP DUP4 DUP2 LT ISZERO PUSH2 0x26CF JUMPI PUSH1 0x40 MLOAD PUSH32 0x8C379A000000000000000000000000000000000000000000000000000000000 DUP2 MSTORE PUSH1 0x4 ADD DUP1 DUP1 PUSH1 0x20 ADD DUP3 DUP2 SUB DUP3 MSTORE PUSH1 0x1B DUP2 MSTORE PUSH1 0x20 ADD DUP1 PUSH32 0x536166654D6174683A206164646974696F6E206F766572666C6F770000000000 DUP2 MSTORE POP PUSH1 0x20 ADD SWAP2 POP POP PUSH1 0x40 MLOAD DUP1 SWAP2 SUB SWAP1 REVERT JUMPDEST DUP1 SWAP2 POP POP SWAP3 SWAP2 POP POP JUMP JUMPDEST PUSH1 0x0 DUP1 DUP4 EQ ISZERO PUSH2 0x26EC JUMPI PUSH1 0x0 SWAP1 POP PUSH2 0x2759 JUMP JUMPDEST PUSH1 0x0 DUP3 DUP5 MUL SWAP1 POP DUP3 DUP5 DUP3 DUP2 PUSH2 0x26FD JUMPI INVALID JUMPDEST DIV EQ PUSH2 0x2754 JUMPI PUSH1 0x40 MLOAD PUSH32 0x8C379A000000000000000000000000000000000000000000000000000000000 DUP2 MSTORE PUSH1 0x4 ADD DUP1 DUP1 PUSH1 0x20 ADD DUP3 DUP2 SUB DUP3 MSTORE PUSH1 0x21 DUP2 MSTORE PUSH1 0x20 ADD DUP1 PUSH2 0x319A PUSH1 0x21 SWAP2 CODECOPY PUSH1 0x40 ADD SWAP2 POP POP PUSH1 0x40 MLOAD DUP1 SWAP2 SUB SWAP1 REVERT JUMPDEST DUP1 SWAP2 POP POP JUMPDEST SWAP3 SWAP2 POP POP JUMP JUMPDEST PUSH1 0x0 CALLER SWAP1 POP SWAP1 JUMP JUMPDEST PUSH1 0x0 PUSH20 0xFFFFFFFFFFFFFFFFFFFFFFFFFFFFFFFFFFFFFFFF AND DUP2 PUSH20 0xFFFFFFFFFFFFFFFFFFFFFFFFFFFFFFFFFFFFFFFF AND EQ ISZERO PUSH2 0x27ED JUMPI PUSH1 0x40 MLOAD PUSH32 0x8C379A000000000000000000000000000000000000000000000000000000000 DUP2 MSTORE PUSH1 0x4 ADD DUP1 DUP1 PUSH1 0x20 ADD DUP3 DUP2 SUB DUP3 MSTORE PUSH1 0x2D DUP2 MSTORE PUSH1 0x20 ADD DUP1 PUSH2 0x316D PUSH1 0x2D SWAP2 CODECOPY PUSH1 0x40 ADD SWAP2 POP POP PUSH1 0x40 MLOAD DUP1 SWAP2 SUB SWAP1 REVERT JUMPDEST DUP1 PUSH20 0xFFFFFFFFFFFFFFFFFFFFFFFFFFFFFFFFFFFFFFFF AND PUSH1 0x0 PUSH20 0xFFFFFFFFFFFFFFFFFFFFFFFFFFFFFFFFFFFFFFFF AND PUSH32 0x74DA04524D50C64947F5DD5381EF1A4DCA5CBA8ED1D816243F9E48AA0B5617ED PUSH1 0x40 MLOAD PUSH1 0x40 MLOAD DUP1 SWAP2 SUB SWAP1 LOG3 PUSH2 0x2851 DUP2 PUSH2 0x23DC JUMP JUMPDEST DUP1 PUSH1 0x1 PUSH1 0x0 PUSH2 0x100 EXP DUP2 SLOAD DUP2 PUSH20 0xFFFFFFFFFFFFFFFFFFFFFFFFFFFFFFFFFFFFFFFF MUL NOT AND SWAP1 DUP4 PUSH20 0xFFFFFFFFFFFFFFFFFFFFFFFFFFFFFFFFFFFFFFFF AND MUL OR SWAP1 SSTORE POP POP JUMP JUMPDEST PUSH1 0x0 DUP1 DUP3 GT PUSH2 0x290C JUMPI PUSH1 0x40 MLOAD PUSH32 0x8C379A000000000000000000000000000000000000000000000000000000000 DUP2 MSTORE PUSH1 0x4 ADD DUP1 DUP1 PUSH1 0x20 ADD DUP3 DUP2 SUB DUP3 MSTORE PUSH1 0x1A DUP2 MSTORE PUSH1 0x20 ADD DUP1 PUSH32 0x536166654D6174683A206469766973696F6E206279207A65726F000000000000 DUP2 MSTORE POP PUSH1 0x20 ADD SWAP2 POP POP PUSH1 0x40 MLOAD DUP1 SWAP2 SUB SWAP1 REVERT JUMPDEST DUP2 DUP4 DUP2 PUSH2 0x2915 JUMPI INVALID JUMPDEST DIV SWAP1 POP SWAP3 SWAP2 POP POP JUMP JUMPDEST PUSH1 0x0 PUSH1 0x2 PUSH1 0x0 SWAP1 SLOAD SWAP1 PUSH2 0x100 EXP SWAP1 DIV PUSH20 0xFFFFFFFFFFFFFFFFFFFFFFFFFFFFFFFFFFFFFFFF AND PUSH20 0xFFFFFFFFFFFFFFFFFFFFFFFFFFFFFFFFFFFFFFFF AND PUSH4 0x70A08231 ADDRESS PUSH1 0x40 MLOAD DUP3 PUSH4 0xFFFFFFFF AND PUSH1 0xE0 SHL DUP2 MSTORE PUSH1 0x4 ADD DUP1 DUP3 PUSH20 0xFFFFFFFFFFFFFFFFFFFFFFFFFFFFFFFFFFFFFFFF AND DUP2 MSTORE PUSH1 0x20 ADD SWAP2 POP POP PUSH1 0x20 PUSH1 0x40 MLOAD DUP1 DUP4 SUB DUP2 DUP7 DUP1 EXTCODESIZE ISZERO DUP1 ISZERO PUSH2 0x29A9 JUMPI PUSH1 0x0 DUP1 REVERT JUMPDEST POP GAS STATICCALL ISZERO DUP1 ISZERO PUSH2 0x29BD JUMPI RETURNDATASIZE PUSH1 0x0 DUP1 RETURNDATACOPY RETURNDATASIZE PUSH1 0x0 REVERT JUMPDEST POP POP POP POP PUSH1 0x40 MLOAD RETURNDATASIZE PUSH1 0x20 DUP2 LT ISZERO PUSH2 0x29D3 JUMPI PUSH1 0x0 DUP1 REVERT JUMPDEST DUP2 ADD SWAP1 DUP1 DUP1 MLOAD SWAP1 PUSH1 0x20 ADD SWAP1 SWAP3 SWAP2 SWAP1 POP POP POP SWAP1 POP PUSH1 0x0 DUP2 GT ISZERO PUSH2 0x2A98 JUMPI DUP1 DUP3 GT ISZERO PUSH2 0x2A49 JUMPI PUSH2 0x2A44 DUP4 DUP3 PUSH1 0x2 PUSH1 0x0 SWAP1 SLOAD SWAP1 PUSH2 0x100 EXP SWAP1 DIV PUSH20 0xFFFFFFFFFFFFFFFFFFFFFFFFFFFFFFFFFFFFFFFF AND PUSH20 0xFFFFFFFFFFFFFFFFFFFFFFFFFFFFFFFFFFFFFFFF AND PUSH2 0x2A9D SWAP1 SWAP3 SWAP2 SWAP1 PUSH4 0xFFFFFFFF AND JUMP JUMPDEST PUSH2 0x2A97 JUMP JUMPDEST PUSH2 0x2A96 DUP4 DUP4 PUSH1 0x2 PUSH1 0x0 SWAP1 SLOAD SWAP1 PUSH2 0x100 EXP SWAP1 DIV PUSH20 0xFFFFFFFFFFFFFFFFFFFFFFFFFFFFFFFFFFFFFFFF AND PUSH20 0xFFFFFFFFFFFFFFFFFFFFFFFFFFFFFFFFFFFFFFFF AND PUSH2 0x2A9D SWAP1 SWAP3 SWAP2 SWAP1 PUSH4 0xFFFFFFFF AND JUMP JUMPDEST JUMPDEST JUMPDEST POP POP POP JUMP JUMPDEST PUSH2 0x2B3A DUP4 PUSH4 0xA9059CBB PUSH1 0xE0 SHL DUP5 DUP5 PUSH1 0x40 MLOAD PUSH1 0x24 ADD DUP1 DUP4 PUSH20 0xFFFFFFFFFFFFFFFFFFFFFFFFFFFFFFFFFFFFFFFF AND DUP2 MSTORE PUSH1 0x20 ADD DUP3 DUP2 MSTORE PUSH1 0x20 ADD SWAP3 POP POP POP PUSH1 0x40 MLOAD PUSH1 0x20 DUP2 DUP4 SUB SUB DUP2 MSTORE SWAP1 PUSH1 0x40 MSTORE SWAP1 PUSH28 0xFFFFFFFFFFFFFFFFFFFFFFFFFFFFFFFFFFFFFFFFFFFFFFFFFFFFFFFF NOT AND PUSH1 0x20 DUP3 ADD DUP1 MLOAD PUSH28 0xFFFFFFFFFFFFFFFFFFFFFFFFFFFFFFFFFFFFFFFFFFFFFFFFFFFFFFFF DUP4 DUP2 DUP4 AND OR DUP4 MSTORE POP POP POP POP PUSH2 0x2D56 JUMP JUMPDEST POP POP POP JUMP JUMPDEST PUSH1 0x0 PUSH1 0x6 DUP1 SLOAD SWAP1 POP SWAP1 POP PUSH1 0x0 JUMPDEST DUP2 DUP2 LT ISZERO PUSH2 0x2C3F JUMPI DUP3 PUSH20 0xFFFFFFFFFFFFFFFFFFFFFFFFFFFFFFFFFFFFFFFF AND PUSH1 0x6 DUP3 DUP2 SLOAD DUP2 LT PUSH2 0x2B78 JUMPI INVALID JUMPDEST SWAP1 PUSH1 0x0 MSTORE PUSH1 0x20 PUSH1 0x0 KECCAK256 SWAP1 PUSH1 0x5 MUL ADD PUSH1 0x0 ADD PUSH1 0x0 SWAP1 SLOAD SWAP1 PUSH2 0x100 EXP SWAP1 DIV PUSH20 0xFFFFFFFFFFFFFFFFFFFFFFFFFFFFFFFFFFFFFFFF AND PUSH20 0xFFFFFFFFFFFFFFFFFFFFFFFFFFFFFFFFFFFFFFFF AND EQ ISZERO PUSH2 0x2C34 JUMPI PUSH1 0x40 MLOAD PUSH32 0x8C379A000000000000000000000000000000000000000000000000000000000 DUP2 MSTORE PUSH1 0x4 ADD DUP1 DUP1 PUSH1 0x20 ADD DUP3 DUP2 SUB DUP3 MSTORE PUSH1 0x1F DUP2 MSTORE PUSH1 0x20 ADD DUP1 PUSH32 0x506F6C7947656E65736973506F6F6C3A206578697374696E6720706F6F6C3F00 DUP2 MSTORE POP PUSH1 0x20 ADD SWAP2 POP POP PUSH1 0x40 MLOAD DUP1 SWAP2 SUB SWAP1 REVERT JUMPDEST DUP1 PUSH1 0x1 ADD SWAP1 POP PUSH2 0x2B4C JUMP JUMPDEST POP POP POP JUMP JUMPDEST PUSH1 0x0 DUP1 PUSH2 0x2C5C PUSH1 0x4 SLOAD DUP5 PUSH2 0x2E45 SWAP1 SWAP2 SWAP1 PUSH4 0xFFFFFFFF AND JUMP JUMPDEST SWAP1 POP PUSH1 0x0 PUSH2 0x2C89 PUSH2 0x2710 PUSH2 0x2C7B PUSH1 0x4 SLOAD DUP6 PUSH2 0x26D9 SWAP1 SWAP2 SWAP1 PUSH4 0xFFFFFFFF AND JUMP JUMPDEST PUSH2 0x2895 SWAP1 SWAP2 SWAP1 PUSH4 0xFFFFFFFF AND JUMP JUMPDEST SWAP1 POP DUP1 SWAP3 POP POP POP SWAP2 SWAP1 POP JUMP JUMPDEST PUSH2 0x2D50 DUP5 PUSH4 0x23B872DD PUSH1 0xE0 SHL DUP6 DUP6 DUP6 PUSH1 0x40 MLOAD PUSH1 0x24 ADD DUP1 DUP5 PUSH20 0xFFFFFFFFFFFFFFFFFFFFFFFFFFFFFFFFFFFFFFFF AND DUP2 MSTORE PUSH1 0x20 ADD DUP4 PUSH20 0xFFFFFFFFFFFFFFFFFFFFFFFFFFFFFFFFFFFFFFFF AND DUP2 MSTORE PUSH1 0x20 ADD DUP3 DUP2 MSTORE PUSH1 0x20 ADD SWAP4 POP POP POP POP PUSH1 0x40 MLOAD PUSH1 0x20 DUP2 DUP4 SUB SUB DUP2 MSTORE SWAP1 PUSH1 0x40 MSTORE SWAP1 PUSH28 0xFFFFFFFFFFFFFFFFFFFFFFFFFFFFFFFFFFFFFFFFFFFFFFFFFFFFFFFF NOT AND PUSH1 0x20 DUP3 ADD DUP1 MLOAD PUSH28 0xFFFFFFFFFFFFFFFFFFFFFFFFFFFFFFFFFFFFFFFFFFFFFFFFFFFFFFFF DUP4 DUP2 DUP4 AND OR DUP4 MSTORE POP POP POP POP PUSH2 0x2D56 JUMP JUMPDEST POP POP POP POP JUMP JUMPDEST PUSH1 0x60 PUSH2 0x2DB8 DUP3 PUSH1 0x40 MLOAD DUP1 PUSH1 0x40 ADD PUSH1 0x40 MSTORE DUP1 PUSH1 0x20 DUP2 MSTORE PUSH1 0x20 ADD PUSH32 0x5361666545524332303A206C6F772D6C6576656C2063616C6C206661696C6564 DUP2 MSTORE POP DUP6 PUSH20 0xFFFFFFFFFFFFFFFFFFFFFFFFFFFFFFFFFFFFFFFF AND PUSH2 0x2E80 SWAP1 SWAP3 SWAP2 SWAP1 PUSH4 0xFFFFFFFF AND JUMP JUMPDEST SWAP1 POP PUSH1 0x0 DUP2 MLOAD GT ISZERO PUSH2 0x2E40 JUMPI DUP1 DUP1 PUSH1 0x20 ADD SWAP1 MLOAD PUSH1 0x20 DUP2 LT ISZERO PUSH2 0x2DD9 JUMPI PUSH1 0x0 DUP1 REVERT JUMPDEST DUP2 ADD SWAP1 DUP1 DUP1 MLOAD SWAP1 PUSH1 0x20 ADD SWAP1 SWAP3 SWAP2 SWAP1 POP POP POP PUSH2 0x2E3F JUMPI PUSH1 0x40 MLOAD PUSH32 0x8C379A000000000000000000000000000000000000000000000000000000000 DUP2 MSTORE PUSH1 0x4 ADD DUP1 DUP1 PUSH1 0x20 ADD DUP3 DUP2 SUB DUP3 MSTORE PUSH1 0x2A DUP2 MSTORE PUSH1 0x20 ADD DUP1 PUSH2 0x31DF PUSH1 0x2A SWAP2 CODECOPY PUSH1 0x40 ADD SWAP2 POP POP PUSH1 0x40 MLOAD DUP1 SWAP2 SUB SWAP1 REVERT JUMPDEST JUMPDEST POP POP POP JUMP JUMPDEST PUSH1 0x0 DUP1 PUSH2 0x2E52 DUP5 DUP5 PUSH2 0x2651 JUMP JUMPDEST SWAP1 POP PUSH1 0x0 PUSH2 0x2E61 DUP3 PUSH1 0x1 PUSH2 0x25CE JUMP JUMPDEST SWAP1 POP PUSH2 0x2E76 PUSH2 0x2E70 DUP3 DUP7 PUSH2 0x2895 JUMP JUMPDEST DUP6 PUSH2 0x26D9 JUMP JUMPDEST SWAP3 POP POP POP SWAP3 SWAP2 POP POP JUMP JUMPDEST PUSH1 0x60 PUSH2 0x2E8F DUP5 DUP5 PUSH1 0x0 DUP6 PUSH2 0x2E98 JUMP JUMPDEST SWAP1 POP SWAP4 SWAP3 POP POP POP JUMP JUMPDEST PUSH1 0x60 DUP3 SELFBALANCE LT ISZERO PUSH2 0x2EF3 JUMPI PUSH1 0x40 MLOAD PUSH32 0x8C379A000000000000000000000000000000000000000000000000000000000 DUP2 MSTORE PUSH1 0x4 ADD DUP1 DUP1 PUSH1 0x20 ADD DUP3 DUP2 SUB DUP3 MSTORE PUSH1 0x26 DUP2 MSTORE PUSH1 0x20 ADD DUP1 PUSH2 0x3147 PUSH1 0x26 SWAP2 CODECOPY PUSH1 0x40 ADD SWAP2 POP POP PUSH1 0x40 MLOAD DUP1 SWAP2 SUB SWAP1 REVERT JUMPDEST PUSH2 0x2EFC DUP6 PUSH2 0x3041 JUMP JUMPDEST PUSH2 0x2F6E JUMPI PUSH1 0x40 MLOAD PUSH32 0x8C379A000000000000000000000000000000000000000000000000000000000 DUP2 MSTORE PUSH1 0x4 ADD DUP1 DUP1 PUSH1 0x20 ADD DUP3 DUP2 SUB DUP3 MSTORE PUSH1 0x1D DUP2 MSTORE PUSH1 0x20 ADD DUP1 PUSH32 0x416464726573733A2063616C6C20746F206E6F6E2D636F6E7472616374000000 DUP2 MSTORE POP PUSH1 0x20 ADD SWAP2 POP POP PUSH1 0x40 MLOAD DUP1 SWAP2 SUB SWAP1 REVERT JUMPDEST PUSH1 0x0 PUSH1 0x60 DUP7 PUSH20 0xFFFFFFFFFFFFFFFFFFFFFFFFFFFFFFFFFFFFFFFF AND DUP6 DUP8 PUSH1 0x40 MLOAD DUP1 DUP3 DUP1 MLOAD SWAP1 PUSH1 0x20 ADD SWAP1 DUP1 DUP4 DUP4 JUMPDEST PUSH1 0x20 DUP4 LT PUSH2 0x2FBE JUMPI DUP1 MLOAD DUP3 MSTORE PUSH1 0x20 DUP3 ADD SWAP2 POP PUSH1 0x20 DUP2 ADD SWAP1 POP PUSH1 0x20 DUP4 SUB SWAP3 POP PUSH2 0x2F9B JUMP JUMPDEST PUSH1 0x1 DUP4 PUSH1 0x20 SUB PUSH2 0x100 EXP SUB DUP1 NOT DUP3 MLOAD AND DUP2 DUP5 MLOAD AND DUP1 DUP3 OR DUP6 MSTORE POP POP POP POP POP POP SWAP1 POP ADD SWAP2 POP POP PUSH1 0x0 PUSH1 0x40 MLOAD DUP1 DUP4 SUB DUP2 DUP6 DUP8 GAS CALL SWAP3 POP POP POP RETURNDATASIZE DUP1 PUSH1 0x0 DUP2 EQ PUSH2 0x3020 JUMPI PUSH1 0x40 MLOAD SWAP2 POP PUSH1 0x1F NOT PUSH1 0x3F RETURNDATASIZE ADD AND DUP3 ADD PUSH1 0x40 MSTORE RETURNDATASIZE DUP3 MSTORE RETURNDATASIZE PUSH1 0x0 PUSH1 0x20 DUP5 ADD RETURNDATACOPY PUSH2 0x3025 JUMP JUMPDEST PUSH1 0x60 SWAP2 POP JUMPDEST POP SWAP2 POP SWAP2 POP PUSH2 0x3035 DUP3 DUP3 DUP7 PUSH2 0x3054 JUMP JUMPDEST SWAP3 POP POP POP SWAP5 SWAP4 POP POP POP POP JUMP JUMPDEST PUSH1 0x0 DUP1 DUP3 EXTCODESIZE SWAP1 POP PUSH1 0x0 DUP2 GT SWAP2 POP POP SWAP2 SWAP1 POP JUMP JUMPDEST PUSH1 0x60 DUP4 ISZERO PUSH2 0x3064 JUMPI DUP3 SWAP1 POP PUSH2 0x3119 JUMP JUMPDEST PUSH1 0x0 DUP4 MLOAD GT ISZERO PUSH2 0x3077 JUMPI DUP3 MLOAD DUP1 DUP5 PUSH1 0x20 ADD REVERT JUMPDEST DUP2 PUSH1 0x40 MLOAD PUSH32 0x8C379A000000000000000000000000000000000000000000000000000000000 DUP2 MSTORE PUSH1 0x4 ADD DUP1 DUP1 PUSH1 0x20 ADD DUP3 DUP2 SUB DUP3 MSTORE DUP4 DUP2 DUP2 MLOAD DUP2 MSTORE PUSH1 0x20 ADD SWAP2 POP DUP1 MLOAD SWAP1 PUSH1 0x20 ADD SWAP1 DUP1 DUP4 DUP4 PUSH1 0x0 JUMPDEST DUP4 DUP2 LT ISZERO PUSH2 0x30DE JUMPI DUP1 DUP3 ADD MLOAD DUP2 DUP5 ADD MSTORE PUSH1 0x20 DUP2 ADD SWAP1 POP PUSH2 0x30C3 JUMP JUMPDEST POP POP POP POP SWAP1 POP SWAP1 DUP2 ADD SWAP1 PUSH1 0x1F AND DUP1 ISZERO PUSH2 0x310B JUMPI DUP1 DUP3 SUB DUP1 MLOAD PUSH1 0x1 DUP4 PUSH1 0x20 SUB PUSH2 0x100 EXP SUB NOT AND DUP2 MSTORE PUSH1 0x20 ADD SWAP2 POP JUMPDEST POP SWAP3 POP POP POP PUSH1 0x40 MLOAD DUP1 SWAP2 SUB SWAP1 REVERT JUMPDEST SWAP4 SWAP3 POP POP POP JUMP INVALID 0x4F PUSH24 0x6E61626C653A206E6577206F776E65722069732074686520 PUSH27 0x65726F2061646472657373416464726573733A20696E7375666669 PUSH4 0x69656E74 KECCAK256 PUSH3 0x616C61 PUSH15 0x636520666F722063616C6C6F706572 PUSH2 0x746F PUSH19 0x3A207A65726F20616464726573732067697665 PUSH15 0x20666F72206E6577206F7065726174 PUSH16 0x72536166654D6174683A206D756C7469 PUSH17 0x6C69636174696F6E206F766572666C6F77 PUSH16 0x70657261746F723A2063616C6C657220 PUSH10 0x73206E6F742074686520 PUSH16 0x70657261746F72536166654552433230 GASPRICE KECCAK256 GASLIMIT MSTORE NUMBER ORIGIN ADDRESS KECCAK256 PUSH16 0x7065726174696F6E20646964206E6F74 KECCAK256 PUSH20 0x756363656564A2646970667358221220251FF64B SAR 0xE0 PUSH7 0xD3796F4C822E9F 0x2C PUSH31 0x78F6C62F74063765E5CDBC4F435AB83964736F6C634300060C003300000000 "
				},
				"gasEstimates": {
					"creation": {
						"codeDepositCost": "2572400",
						"executionCost": "infinite",
						"totalCost": "infinite"
					},
					"external": {
						"Fee()": "1116",
						"Pair()": "1093",
						"Poly()": "1113",
						"PolyPerSecond()": "1095",
						"TOTAL_REWARDS()": "252",
						"_feeColect()": "1115",
						"add(uint256,address,bool,uint256)": "infinite",
						"deposit(uint256,uint256)": "infinite",
						"emergencyWithdraw(uint256)": "infinite",
						"getGeneratedReward(uint256,uint256)": "infinite",
						"governanceRecoverUnsupported(address,uint256,address)": "infinite",
						"initialize(address,uint256,address)": "infinite",
						"initialized()": "1138",
						"isInitialized()": "1123",
						"isOperator()": "1152",
						"massUpdatePools()": "infinite",
						"operator()": "1123",
						"owner()": "1144",
						"pendingPoly(uint256,address)": "infinite",
						"poolEndTime()": "1050",
						"poolInfo(uint256)": "5486",
						"poolStartTime()": "1095",
						"renounceOwnership()": "24396",
						"runningTime()": "1050",
						"set(uint256,uint256)": "infinite",
						"setOperator(address)": "infinite",
						"totalAllocPoint()": "1118",
						"transferOperator(address)": "infinite",
						"transferOwnership(address)": "infinite",
						"updatePool(uint256)": "infinite",
						"userInfo(uint256,address)": "2218",
						"withdraw(uint256,uint256)": "infinite"
					},
					"internal": {
						"_fees(uint256)": "infinite",
						"checkPoolDuplicate(contract IERC20)": "infinite",
						"safePolyTransfer(address,uint256)": "infinite"
					}
				},
				"methodIdentifiers": {
					"Fee()": "bef7a2f0",
					"Pair()": "3736421b",
					"Poly()": "e177bb38",
					"PolyPerSecond()": "3f7caf52",
					"TOTAL_REWARDS()": "09cf6091",
					"_feeColect()": "1bccb99b",
					"add(uint256,address,bool,uint256)": "96805e54",
					"deposit(uint256,uint256)": "e2bbb158",
					"emergencyWithdraw(uint256)": "5312ea8e",
					"getGeneratedReward(uint256,uint256)": "231f0c6a",
					"governanceRecoverUnsupported(address,uint256,address)": "54575af4",
					"initialize(address,uint256,address)": "c350a1b5",
					"initialized()": "158ef93e",
					"isInitialized()": "392e53cd",
					"isOperator()": "4456eda2",
					"massUpdatePools()": "630b5ba1",
					"operator()": "570ca735",
					"owner()": "8da5cb5b",
					"pendingPoly(uint256,address)": "4d1e4f42",
					"poolEndTime()": "6e271dd5",
					"poolInfo(uint256)": "1526fe27",
					"poolStartTime()": "5f96dc11",
					"renounceOwnership()": "715018a6",
					"runningTime()": "943f013d",
					"set(uint256,uint256)": "1ab06ee5",
					"setOperator(address)": "b3ab15fb",
					"totalAllocPoint()": "17caf6f1",
					"transferOperator(address)": "29605e77",
					"transferOwnership(address)": "f2fde38b",
					"updatePool(uint256)": "51eb05a6",
					"userInfo(uint256,address)": "93f1a40b",
					"withdraw(uint256,uint256)": "441a3e70"
				}
			},
			"storageLayout": {
				"storage": [
					{
						"astId": 7,
						"contract": "contracts/distribution/TombGenesisRewardPool.sol:PolyGenesisRewardPool",
						"label": "_owner",
						"offset": 0,
						"slot": "0",
						"type": "t_address"
					},
					{
						"astId": 2291,
						"contract": "contracts/distribution/TombGenesisRewardPool.sol:PolyGenesisRewardPool",
						"label": "_operator",
						"offset": 0,
						"slot": "1",
						"type": "t_address"
					},
					{
						"astId": 1138,
						"contract": "contracts/distribution/TombGenesisRewardPool.sol:PolyGenesisRewardPool",
						"label": "Poly",
						"offset": 0,
						"slot": "2",
						"type": "t_contract(IERC20)187"
					},
					{
						"astId": 1140,
						"contract": "contracts/distribution/TombGenesisRewardPool.sol:PolyGenesisRewardPool",
						"label": "Pair",
						"offset": 0,
						"slot": "3",
						"type": "t_address"
					},
					{
						"astId": 1143,
						"contract": "contracts/distribution/TombGenesisRewardPool.sol:PolyGenesisRewardPool",
						"label": "Fee",
						"offset": 0,
						"slot": "4",
						"type": "t_uint256"
					},
					{
						"astId": 1145,
						"contract": "contracts/distribution/TombGenesisRewardPool.sol:PolyGenesisRewardPool",
						"label": "_feeColect",
						"offset": 0,
						"slot": "5",
						"type": "t_address"
					},
					{
						"astId": 1148,
						"contract": "contracts/distribution/TombGenesisRewardPool.sol:PolyGenesisRewardPool",
						"label": "poolInfo",
						"offset": 0,
						"slot": "6",
						"type": "t_array(t_struct(PoolInfo)1136_storage)dyn_storage"
					},
					{
						"astId": 1151,
						"contract": "contracts/distribution/TombGenesisRewardPool.sol:PolyGenesisRewardPool",
						"label": "initialized",
						"offset": 0,
						"slot": "7",
						"type": "t_bool"
					},
					{
						"astId": 1157,
						"contract": "contracts/distribution/TombGenesisRewardPool.sol:PolyGenesisRewardPool",
						"label": "userInfo",
						"offset": 0,
						"slot": "8",
						"type": "t_mapping(t_uint256,t_mapping(t_address,t_struct(UserInfo)1125_storage))"
					},
					{
						"astId": 1160,
						"contract": "contracts/distribution/TombGenesisRewardPool.sol:PolyGenesisRewardPool",
						"label": "totalAllocPoint",
						"offset": 0,
						"slot": "9",
						"type": "t_uint256"
					},
					{
						"astId": 1162,
						"contract": "contracts/distribution/TombGenesisRewardPool.sol:PolyGenesisRewardPool",
						"label": "poolStartTime",
						"offset": 0,
						"slot": "10",
						"type": "t_uint256"
					},
					{
						"astId": 1164,
						"contract": "contracts/distribution/TombGenesisRewardPool.sol:PolyGenesisRewardPool",
						"label": "poolEndTime",
						"offset": 0,
						"slot": "11",
						"type": "t_uint256"
					},
					{
						"astId": 1167,
						"contract": "contracts/distribution/TombGenesisRewardPool.sol:PolyGenesisRewardPool",
						"label": "PolyPerSecond",
						"offset": 0,
						"slot": "12",
						"type": "t_uint256"
					},
					{
						"astId": 1170,
						"contract": "contracts/distribution/TombGenesisRewardPool.sol:PolyGenesisRewardPool",
						"label": "runningTime",
						"offset": 0,
						"slot": "13",
						"type": "t_uint256"
					}
				],
				"types": {
					"t_address": {
						"encoding": "inplace",
						"label": "address",
						"numberOfBytes": "20"
					},
					"t_array(t_struct(PoolInfo)1136_storage)dyn_storage": {
						"base": "t_struct(PoolInfo)1136_storage",
						"encoding": "dynamic_array",
						"label": "struct PolyGenesisRewardPool.PoolInfo[]",
						"numberOfBytes": "32"
					},
					"t_bool": {
						"encoding": "inplace",
						"label": "bool",
						"numberOfBytes": "1"
					},
					"t_contract(IERC20)187": {
						"encoding": "inplace",
						"label": "contract IERC20",
						"numberOfBytes": "20"
					},
					"t_mapping(t_address,t_struct(UserInfo)1125_storage)": {
						"encoding": "mapping",
						"key": "t_address",
						"label": "mapping(address => struct PolyGenesisRewardPool.UserInfo)",
						"numberOfBytes": "32",
						"value": "t_struct(UserInfo)1125_storage"
					},
					"t_mapping(t_uint256,t_mapping(t_address,t_struct(UserInfo)1125_storage))": {
						"encoding": "mapping",
						"key": "t_uint256",
						"label": "mapping(uint256 => mapping(address => struct PolyGenesisRewardPool.UserInfo))",
						"numberOfBytes": "32",
						"value": "t_mapping(t_address,t_struct(UserInfo)1125_storage)"
					},
					"t_struct(PoolInfo)1136_storage": {
						"encoding": "inplace",
						"label": "struct PolyGenesisRewardPool.PoolInfo",
						"members": [
							{
								"astId": 1127,
								"contract": "contracts/distribution/TombGenesisRewardPool.sol:PolyGenesisRewardPool",
								"label": "token",
								"offset": 0,
								"slot": "0",
								"type": "t_contract(IERC20)187"
							},
							{
								"astId": 1129,
								"contract": "contracts/distribution/TombGenesisRewardPool.sol:PolyGenesisRewardPool",
								"label": "allocPoint",
								"offset": 0,
								"slot": "1",
								"type": "t_uint256"
							},
							{
								"astId": 1131,
								"contract": "contracts/distribution/TombGenesisRewardPool.sol:PolyGenesisRewardPool",
								"label": "lastRewardTime",
								"offset": 0,
								"slot": "2",
								"type": "t_uint256"
							},
							{
								"astId": 1133,
								"contract": "contracts/distribution/TombGenesisRewardPool.sol:PolyGenesisRewardPool",
								"label": "accPolyPerShare",
								"offset": 0,
								"slot": "3",
								"type": "t_uint256"
							},
							{
								"astId": 1135,
								"contract": "contracts/distribution/TombGenesisRewardPool.sol:PolyGenesisRewardPool",
								"label": "isStarted",
								"offset": 0,
								"slot": "4",
								"type": "t_bool"
							}
						],
						"numberOfBytes": "160"
					},
					"t_struct(UserInfo)1125_storage": {
						"encoding": "inplace",
						"label": "struct PolyGenesisRewardPool.UserInfo",
						"members": [
							{
								"astId": 1122,
								"contract": "contracts/distribution/TombGenesisRewardPool.sol:PolyGenesisRewardPool",
								"label": "amount",
								"offset": 0,
								"slot": "0",
								"type": "t_uint256"
							},
							{
								"astId": 1124,
								"contract": "contracts/distribution/TombGenesisRewardPool.sol:PolyGenesisRewardPool",
								"label": "rewardDebt",
								"offset": 0,
								"slot": "1",
								"type": "t_uint256"
							}
						],
						"numberOfBytes": "64"
					},
					"t_uint256": {
						"encoding": "inplace",
						"label": "uint256",
						"numberOfBytes": "32"
					}
				}
			},
			"userdoc": {
				"kind": "user",
				"methods": {},
				"version": 1
			}
		}
	}
}