{
	"contracts/distribution/TombGenesisRewardPool.sol": {
		"PolyGenesisRewardPool": {
			"abi": [
				{
					"anonymous": false,
					"inputs": [
						{
							"indexed": true,
							"internalType": "address",
							"name": "user",
							"type": "address"
						},
						{
							"indexed": true,
							"internalType": "uint256",
							"name": "pid",
							"type": "uint256"
						},
						{
							"indexed": false,
							"internalType": "uint256",
							"name": "amount",
							"type": "uint256"
						}
					],
					"name": "Deposit",
					"type": "event"
				},
				{
					"anonymous": false,
					"inputs": [
						{
							"indexed": true,
							"internalType": "address",
							"name": "user",
							"type": "address"
						},
						{
							"indexed": true,
							"internalType": "uint256",
							"name": "pid",
							"type": "uint256"
						},
						{
							"indexed": false,
							"internalType": "uint256",
							"name": "amount",
							"type": "uint256"
						}
					],
					"name": "EmergencyWithdraw",
					"type": "event"
				},
				{
					"anonymous": false,
					"inputs": [
						{
							"indexed": true,
							"internalType": "address",
							"name": "previousOperator",
							"type": "address"
						},
						{
							"indexed": true,
							"internalType": "address",
							"name": "newOperator",
							"type": "address"
						}
					],
					"name": "OperatorTransferred",
					"type": "event"
				},
				{
					"anonymous": false,
					"inputs": [
						{
							"indexed": true,
							"internalType": "address",
							"name": "previousOwner",
							"type": "address"
						},
						{
							"indexed": true,
							"internalType": "address",
							"name": "newOwner",
							"type": "address"
						}
					],
					"name": "OwnershipTransferred",
					"type": "event"
				},
				{
					"anonymous": false,
					"inputs": [
						{
							"indexed": true,
							"internalType": "address",
							"name": "user",
							"type": "address"
						},
						{
							"indexed": false,
							"internalType": "uint256",
							"name": "amount",
							"type": "uint256"
						}
					],
					"name": "RewardPaid",
					"type": "event"
				},
				{
					"anonymous": false,
					"inputs": [
						{
							"indexed": true,
							"internalType": "address",
							"name": "user",
							"type": "address"
						},
						{
							"indexed": true,
							"internalType": "uint256",
							"name": "pid",
							"type": "uint256"
						},
						{
							"indexed": false,
							"internalType": "uint256",
							"name": "amount",
							"type": "uint256"
						}
					],
					"name": "Withdraw",
					"type": "event"
				},
				{
					"inputs": [],
					"name": "Poly",
					"outputs": [
						{
							"internalType": "contract IERC20",
							"name": "",
							"type": "address"
						}
					],
					"stateMutability": "view",
					"type": "function"
				},
				{
					"inputs": [],
					"name": "PolyPerSecond",
					"outputs": [
						{
							"internalType": "uint256",
							"name": "",
							"type": "uint256"
						}
					],
					"stateMutability": "view",
					"type": "function"
				},
				{
					"inputs": [],
					"name": "TOTAL_REWARDS",
					"outputs": [
						{
							"internalType": "uint256",
							"name": "",
							"type": "uint256"
						}
					],
					"stateMutability": "view",
					"type": "function"
				},
				{
					"inputs": [],
					"name": "_feeColector",
					"outputs": [
						{
							"internalType": "address",
							"name": "",
							"type": "address"
						}
					],
					"stateMutability": "view",
					"type": "function"
				},
				{
					"inputs": [],
					"name": "_fees",
					"outputs": [
						{
							"internalType": "uint256",
							"name": "",
							"type": "uint256"
						}
					],
					"stateMutability": "view",
					"type": "function"
				},
				{
					"inputs": [
						{
							"internalType": "uint256",
							"name": "_allocPoint",
							"type": "uint256"
						},
						{
							"internalType": "contract IERC20",
							"name": "_token",
							"type": "address"
						},
						{
							"internalType": "bool",
							"name": "_withUpdate",
							"type": "bool"
						},
						{
							"internalType": "uint256",
							"name": "_lastRewardTime",
							"type": "uint256"
						}
					],
					"name": "add",
					"outputs": [],
					"stateMutability": "nonpayable",
					"type": "function"
				},
				{
					"inputs": [
						{
							"internalType": "uint256",
							"name": "_pid",
							"type": "uint256"
						},
						{
							"internalType": "uint256",
							"name": "_amount",
							"type": "uint256"
						}
					],
					"name": "deposit",
					"outputs": [],
					"stateMutability": "nonpayable",
					"type": "function"
				},
				{
					"inputs": [
						{
							"internalType": "uint256",
							"name": "_pid",
							"type": "uint256"
						}
					],
					"name": "emergencyWithdraw",
					"outputs": [],
					"stateMutability": "nonpayable",
					"type": "function"
				},
				{
					"inputs": [
						{
							"internalType": "uint256",
							"name": "_fromTime",
							"type": "uint256"
						},
						{
							"internalType": "uint256",
							"name": "_toTime",
							"type": "uint256"
						}
					],
					"name": "getGeneratedReward",
					"outputs": [
						{
							"internalType": "uint256",
							"name": "",
							"type": "uint256"
						}
					],
					"stateMutability": "view",
					"type": "function"
				},
				{
					"inputs": [
						{
							"internalType": "contract IERC20",
							"name": "_token",
							"type": "address"
						},
						{
							"internalType": "uint256",
							"name": "amount",
							"type": "uint256"
						},
						{
							"internalType": "address",
							"name": "to",
							"type": "address"
						}
					],
					"name": "governanceRecoverUnsupported",
					"outputs": [],
					"stateMutability": "nonpayable",
					"type": "function"
				},
				{
					"inputs": [
						{
							"internalType": "address",
							"name": "_Poly",
							"type": "address"
						},
						{
							"internalType": "uint256",
							"name": "_poolStartTime",
							"type": "uint256"
						}
					],
					"name": "initialize",
					"outputs": [],
					"stateMutability": "nonpayable",
					"type": "function"
				},
				{
					"inputs": [],
					"name": "initialized",
					"outputs": [
						{
							"internalType": "bool",
							"name": "",
							"type": "bool"
						}
					],
					"stateMutability": "view",
					"type": "function"
				},
				{
					"inputs": [],
					"name": "isInitialized",
					"outputs": [
						{
							"internalType": "bool",
							"name": "",
							"type": "bool"
						}
					],
					"stateMutability": "view",
					"type": "function"
				},
				{
					"inputs": [],
					"name": "isOperator",
					"outputs": [
						{
							"internalType": "bool",
							"name": "",
							"type": "bool"
						}
					],
					"stateMutability": "view",
					"type": "function"
				},
				{
					"inputs": [],
					"name": "massUpdatePools",
					"outputs": [],
					"stateMutability": "nonpayable",
					"type": "function"
				},
				{
					"inputs": [],
					"name": "operator",
					"outputs": [
						{
							"internalType": "address",
							"name": "",
							"type": "address"
						}
					],
					"stateMutability": "view",
					"type": "function"
				},
				{
					"inputs": [],
					"name": "owner",
					"outputs": [
						{
							"internalType": "address",
							"name": "",
							"type": "address"
						}
					],
					"stateMutability": "view",
					"type": "function"
				},
				{
					"inputs": [
						{
							"internalType": "uint256",
							"name": "_pid",
							"type": "uint256"
						},
						{
							"internalType": "address",
							"name": "_user",
							"type": "address"
						}
					],
					"name": "pendingStone",
					"outputs": [
						{
							"internalType": "uint256",
							"name": "",
							"type": "uint256"
						}
					],
					"stateMutability": "view",
					"type": "function"
				},
				{
					"inputs": [],
					"name": "poolEndTime",
					"outputs": [
						{
							"internalType": "uint256",
							"name": "",
							"type": "uint256"
						}
					],
					"stateMutability": "view",
					"type": "function"
				},
				{
					"inputs": [
						{
							"internalType": "uint256",
							"name": "",
							"type": "uint256"
						}
					],
					"name": "poolInfo",
					"outputs": [
						{
							"internalType": "contract IERC20",
							"name": "token",
							"type": "address"
						},
						{
							"internalType": "uint256",
							"name": "allocPoint",
							"type": "uint256"
						},
						{
							"internalType": "uint256",
							"name": "lastRewardTime",
							"type": "uint256"
						},
						{
							"internalType": "uint256",
							"name": "accPolyPerShare",
							"type": "uint256"
						},
						{
							"internalType": "bool",
							"name": "isStarted",
							"type": "bool"
						}
					],
					"stateMutability": "view",
					"type": "function"
				},
				{
					"inputs": [],
					"name": "poolStartTime",
					"outputs": [
						{
							"internalType": "uint256",
							"name": "",
							"type": "uint256"
						}
					],
					"stateMutability": "view",
					"type": "function"
				},
				{
					"inputs": [],
					"name": "renounceOwnership",
					"outputs": [],
					"stateMutability": "nonpayable",
					"type": "function"
				},
				{
					"inputs": [],
					"name": "runningTime",
					"outputs": [
						{
							"internalType": "uint256",
							"name": "",
							"type": "uint256"
						}
					],
					"stateMutability": "view",
					"type": "function"
				},
				{
					"inputs": [
						{
							"internalType": "uint256",
							"name": "_pid",
							"type": "uint256"
						},
						{
							"internalType": "uint256",
							"name": "_allocPoint",
							"type": "uint256"
						}
					],
					"name": "set",
					"outputs": [],
					"stateMutability": "nonpayable",
					"type": "function"
				},
				{
					"inputs": [
						{
							"internalType": "address",
							"name": "_Newoperator",
							"type": "address"
						}
					],
					"name": "setOperator",
					"outputs": [],
					"stateMutability": "nonpayable",
					"type": "function"
				},
				{
					"inputs": [],
					"name": "totalAllocPoint",
					"outputs": [
						{
							"internalType": "uint256",
							"name": "",
							"type": "uint256"
						}
					],
					"stateMutability": "view",
					"type": "function"
				},
				{
					"inputs": [
						{
							"internalType": "address",
							"name": "newOperator_",
							"type": "address"
						}
					],
					"name": "transferOperator",
					"outputs": [],
					"stateMutability": "nonpayable",
					"type": "function"
				},
				{
					"inputs": [
						{
							"internalType": "address",
							"name": "newOwner",
							"type": "address"
						}
					],
					"name": "transferOwnership",
					"outputs": [],
					"stateMutability": "nonpayable",
					"type": "function"
				},
				{
					"inputs": [
						{
							"internalType": "uint256",
							"name": "_pid",
							"type": "uint256"
						}
					],
					"name": "updatePool",
					"outputs": [],
					"stateMutability": "nonpayable",
					"type": "function"
				},
				{
					"inputs": [
						{
							"internalType": "uint256",
							"name": "",
							"type": "uint256"
						},
						{
							"internalType": "address",
							"name": "",
							"type": "address"
						}
					],
					"name": "userInfo",
					"outputs": [
						{
							"internalType": "uint256",
							"name": "amount",
							"type": "uint256"
						},
						{
							"internalType": "uint256",
							"name": "rewardDebt",
							"type": "uint256"
						}
					],
					"stateMutability": "view",
					"type": "function"
				},
				{
					"inputs": [
						{
							"internalType": "uint256",
							"name": "_pid",
							"type": "uint256"
						},
						{
							"internalType": "uint256",
							"name": "_amount",
							"type": "uint256"
						}
					],
					"name": "withdraw",
					"outputs": [],
					"stateMutability": "nonpayable",
					"type": "function"
				}
			],
			"devdoc": {
				"kind": "dev",
				"methods": {
					"owner()": {
						"details": "Returns the address of the current owner."
					},
					"renounceOwnership()": {
						"details": "Leaves the contract without owner. It will not be possible to call `onlyOwner` functions anymore. Can only be called by the current owner. NOTE: Renouncing ownership will leave the contract without an owner, thereby removing any functionality that is only available to the owner."
					},
					"transferOwnership(address)": {
						"details": "Transfers ownership of the contract to a new account (`newOwner`). Can only be called by the current owner."
					}
				},
				"version": 1
			},
			"evm": {
				"assembly": "    /* \"contracts/distribution/TombGenesisRewardPool.sol\":462:11552  contract PolyGenesisRewardPool is Operator {\r... */\n  mstore(0x40, 0x80)\n    /* \"contracts/distribution/TombGenesisRewardPool.sol\":1418:1423  false */\n  0x00\n    /* \"contracts/distribution/TombGenesisRewardPool.sol\":1392:1423  bool public initialized = false */\n  0x06\n  exp(0x0100, 0x00)\n  dup2\n  sload\n  dup2\n  0xff\n  mul\n  not\n  and\n  swap1\n  dup4\n  iszero\n  iszero\n  mul\n  or\n  swap1\n  sstore\n  pop\n    /* \"contracts/distribution/TombGenesisRewardPool.sol\":1675:1676  0 */\n  0x00\n    /* \"contracts/distribution/TombGenesisRewardPool.sol\":1642:1676  uint256 public totalAllocPoint = 0 */\n  0x08\n  sstore\n    /* \"contracts/distribution/TombGenesisRewardPool.sol\":1886:1899  0.09645 ether */\n  0x0156a8c394962000\n    /* \"contracts/distribution/TombGenesisRewardPool.sol\":1855:1899  uint256 public PolyPerSecond = 0.09645 ether */\n  0x0b\n  sstore\n    /* \"contracts/distribution/TombGenesisRewardPool.sol\":1971:1977  3 days */\n  0x03f480\n    /* \"contracts/distribution/TombGenesisRewardPool.sol\":1942:1977  uint256 public runningTime = 3 days */\n  0x0c\n  sstore\n    /* \"contracts/distribution/TombGenesisRewardPool.sol\":462:11552  contract PolyGenesisRewardPool is Operator {\r... */\n  callvalue\n  dup1\n  iszero\n  tag_1\n  jumpi\n  0x00\n  dup1\n  revert\ntag_1:\n  pop\n    /* \"@openzeppelin/contracts/access/Ownable.sol\":938:955  address msgSender */\n  0x00\n    /* \"@openzeppelin/contracts/access/Ownable.sol\":958:970  _msgSender() */\n  tag_5\n    /* \"@openzeppelin/contracts/access/Ownable.sol\":958:968  _msgSender */\n  shl(0x20, tag_6)\n    /* \"@openzeppelin/contracts/access/Ownable.sol\":958:970  _msgSender() */\n  0x20\n  shr\n  jump\t// in\ntag_5:\n    /* \"@openzeppelin/contracts/access/Ownable.sol\":938:970  address msgSender = _msgSender() */\n  swap1\n  pop\n    /* \"@openzeppelin/contracts/access/Ownable.sol\":989:998  msgSender */\n  dup1\n    /* \"@openzeppelin/contracts/access/Ownable.sol\":980:986  _owner */\n  0x00\n  dup1\n    /* \"@openzeppelin/contracts/access/Ownable.sol\":980:998  _owner = msgSender */\n  0x0100\n  exp\n  dup2\n  sload\n  dup2\n  0xffffffffffffffffffffffffffffffffffffffff\n  mul\n  not\n  and\n  swap1\n  dup4\n  0xffffffffffffffffffffffffffffffffffffffff\n  and\n  mul\n  or\n  swap1\n  sstore\n  pop\n    /* \"@openzeppelin/contracts/access/Ownable.sol\":1046:1055  msgSender */\n  dup1\n    /* \"@openzeppelin/contracts/access/Ownable.sol\":1013:1056  OwnershipTransferred(address(0), msgSender) */\n  0xffffffffffffffffffffffffffffffffffffffff\n  and\n    /* \"@openzeppelin/contracts/access/Ownable.sol\":1042:1043  0 */\n  0x00\n    /* \"@openzeppelin/contracts/access/Ownable.sol\":1013:1056  OwnershipTransferred(address(0), msgSender) */\n  0xffffffffffffffffffffffffffffffffffffffff\n  and\n  0x8be0079c531659141344cd1fd0a4f28419497f9722a3daafe3b4186f6b6457e0\n  mload(0x40)\n  mload(0x40)\n  dup1\n  swap2\n  sub\n  swap1\n  log3\n    /* \"@openzeppelin/contracts/access/Ownable.sol\":904:1063  constructor () internal {... */\n  pop\n    /* \"contracts/owner/Operator.sol\":435:447  _msgSender() */\n  tag_8\n    /* \"contracts/owner/Operator.sol\":435:445  _msgSender */\n  shl(0x20, tag_6)\n    /* \"contracts/owner/Operator.sol\":435:447  _msgSender() */\n  0x20\n  shr\n  jump\t// in\ntag_8:\n    /* \"contracts/owner/Operator.sol\":423:432  _operator */\n  0x01\n  0x00\n    /* \"contracts/owner/Operator.sol\":423:447  _operator = _msgSender() */\n  0x0100\n  exp\n  dup2\n  sload\n  dup2\n  0xffffffffffffffffffffffffffffffffffffffff\n  mul\n  not\n  and\n  swap1\n  dup4\n  0xffffffffffffffffffffffffffffffffffffffff\n  and\n  mul\n  or\n  swap1\n  sstore\n  pop\n    /* \"contracts/owner/Operator.sol\":495:504  _operator */\n  0x01\n  0x00\n  swap1\n  sload\n  swap1\n  0x0100\n  exp\n  swap1\n  div\n  0xffffffffffffffffffffffffffffffffffffffff\n  and\n    /* \"contracts/owner/Operator.sol\":463:505  OperatorTransferred(address(0), _operator) */\n  0xffffffffffffffffffffffffffffffffffffffff\n  and\n    /* \"contracts/owner/Operator.sol\":491:492  0 */\n  0x00\n    /* \"contracts/owner/Operator.sol\":463:505  OperatorTransferred(address(0), _operator) */\n  0xffffffffffffffffffffffffffffffffffffffff\n  and\n  0x74da04524d50c64947f5dd5381ef1a4dca5cba8ed1d816243f9e48aa0b5617ed\n  mload(0x40)\n  mload(0x40)\n  dup1\n  swap2\n  sub\n  swap1\n  log3\n    /* \"contracts/distribution/TombGenesisRewardPool.sol\":462:11552  contract PolyGenesisRewardPool is Operator {\r... */\n  jump(tag_9)\n    /* \"@openzeppelin/contracts/utils/Context.sol\":596:692  function _msgSender() internal view virtual returns (address) {... */\ntag_6:\n    /* \"@openzeppelin/contracts/utils/Context.sol\":649:656  address */\n  0x00\n    /* \"@openzeppelin/contracts/utils/Context.sol\":675:685  msg.sender */\n  caller\n    /* \"@openzeppelin/contracts/utils/Context.sol\":668:685  return msg.sender */\n  swap1\n  pop\n    /* \"@openzeppelin/contracts/utils/Context.sol\":596:692  function _msgSender() internal view virtual returns (address) {... */\n  swap1\n  jump\t// out\n    /* \"contracts/distribution/TombGenesisRewardPool.sol\":462:11552  contract PolyGenesisRewardPool is Operator {\r... */\ntag_9:\n  dataSize(sub_0)\n  dup1\n  dataOffset(sub_0)\n  0x00\n  codecopy\n  0x00\n  return\nstop\n\nsub_0: assembly {\n        /* \"contracts/distribution/TombGenesisRewardPool.sol\":462:11552  contract PolyGenesisRewardPool is Operator {\r... */\n      mstore(0x40, 0x80)\n      callvalue\n      dup1\n      iszero\n      tag_1\n      jumpi\n      0x00\n      dup1\n      revert\n    tag_1:\n      pop\n      jumpi(tag_2, lt(calldatasize, 0x04))\n      shr(0xe0, calldataload(0x00))\n      dup1\n      0x570ca735\n      gt\n      tag_34\n      jumpi\n      dup1\n      0x96805e54\n      gt\n      tag_35\n      jumpi\n      dup1\n      0xe177bb38\n      gt\n      tag_36\n      jumpi\n      dup1\n      0xe177bb38\n      eq\n      tag_30\n      jumpi\n      dup1\n      0xe2bbb158\n      eq\n      tag_31\n      jumpi\n      dup1\n      0xecf4deb9\n      eq\n      tag_32\n      jumpi\n      dup1\n      0xf2fde38b\n      eq\n      tag_33\n      jumpi\n      jump(tag_2)\n    tag_36:\n      dup1\n      0x96805e54\n      eq\n      tag_26\n      jumpi\n      dup1\n      0xb3ab15fb\n      eq\n      tag_27\n      jumpi\n      dup1\n      0xcd6dc687\n      eq\n      tag_28\n      jumpi\n      dup1\n      0xd212a69a\n      eq\n      tag_29\n      jumpi\n      jump(tag_2)\n    tag_35:\n      dup1\n      0x715018a6\n      gt\n      tag_37\n      jumpi\n      dup1\n      0x715018a6\n      eq\n      tag_22\n      jumpi\n      dup1\n      0x8da5cb5b\n      eq\n      tag_23\n      jumpi\n      dup1\n      0x93f1a40b\n      eq\n      tag_24\n      jumpi\n      dup1\n      0x943f013d\n      eq\n      tag_25\n      jumpi\n      jump(tag_2)\n    tag_37:\n      dup1\n      0x570ca735\n      eq\n      tag_18\n      jumpi\n      dup1\n      0x5f96dc11\n      eq\n      tag_19\n      jumpi\n      dup1\n      0x630b5ba1\n      eq\n      tag_20\n      jumpi\n      dup1\n      0x6e271dd5\n      eq\n      tag_21\n      jumpi\n      jump(tag_2)\n    tag_34:\n      dup1\n      0x2bf8542c\n      gt\n      tag_38\n      jumpi\n      dup1\n      0x4456eda2\n      gt\n      tag_39\n      jumpi\n      dup1\n      0x4456eda2\n      eq\n      tag_14\n      jumpi\n      dup1\n      0x51eb05a6\n      eq\n      tag_15\n      jumpi\n      dup1\n      0x5312ea8e\n      eq\n      tag_16\n      jumpi\n      dup1\n      0x54575af4\n      eq\n      tag_17\n      jumpi\n      jump(tag_2)\n    tag_39:\n      dup1\n      0x2bf8542c\n      eq\n      tag_10\n      jumpi\n      dup1\n      0x392e53cd\n      eq\n      tag_11\n      jumpi\n      dup1\n      0x3f7caf52\n      eq\n      tag_12\n      jumpi\n      dup1\n      0x441a3e70\n      eq\n      tag_13\n      jumpi\n      jump(tag_2)\n    tag_38:\n      dup1\n      0x17caf6f1\n      gt\n      tag_40\n      jumpi\n      dup1\n      0x17caf6f1\n      eq\n      tag_6\n      jumpi\n      dup1\n      0x1ab06ee5\n      eq\n      tag_7\n      jumpi\n      dup1\n      0x231f0c6a\n      eq\n      tag_8\n      jumpi\n      dup1\n      0x29605e77\n      eq\n      tag_9\n      jumpi\n      jump(tag_2)\n    tag_40:\n      dup1\n      0x09cf6091\n      eq\n      tag_3\n      jumpi\n      dup1\n      0x1526fe27\n      eq\n      tag_4\n      jumpi\n      dup1\n      0x158ef93e\n      eq\n      tag_5\n      jumpi\n    tag_2:\n      0x00\n      dup1\n      revert\n        /* \"contracts/distribution/TombGenesisRewardPool.sol\":1994:2045  uint256 public constant TOTAL_REWARDS = 25000 ether */\n    tag_3:\n      tag_41\n      tag_42\n      jump\t// in\n    tag_41:\n      mload(0x40)\n      dup1\n      dup3\n      dup2\n      mstore\n      0x20\n      add\n      swap2\n      pop\n      pop\n      mload(0x40)\n      dup1\n      swap2\n      sub\n      swap1\n      return\n        /* \"contracts/distribution/TombGenesisRewardPool.sol\":1343:1369  PoolInfo[] public poolInfo */\n    tag_4:\n      tag_43\n      0x04\n      dup1\n      calldatasize\n      sub\n      0x20\n      dup2\n      lt\n      iszero\n      tag_44\n      jumpi\n      0x00\n      dup1\n      revert\n    tag_44:\n      dup2\n      add\n      swap1\n      dup1\n      dup1\n      calldataload\n      swap1\n      0x20\n      add\n      swap1\n      swap3\n      swap2\n      swap1\n      pop\n      pop\n      pop\n      tag_45\n      jump\t// in\n    tag_43:\n      mload(0x40)\n      dup1\n      dup7\n      0xffffffffffffffffffffffffffffffffffffffff\n      and\n      dup2\n      mstore\n      0x20\n      add\n      dup6\n      dup2\n      mstore\n      0x20\n      add\n      dup5\n      dup2\n      mstore\n      0x20\n      add\n      dup4\n      dup2\n      mstore\n      0x20\n      add\n      dup3\n      iszero\n      iszero\n      dup2\n      mstore\n      0x20\n      add\n      swap6\n      pop\n      pop\n      pop\n      pop\n      pop\n      pop\n      mload(0x40)\n      dup1\n      swap2\n      sub\n      swap1\n      return\n        /* \"contracts/distribution/TombGenesisRewardPool.sol\":1392:1423  bool public initialized = false */\n    tag_5:\n      tag_46\n      tag_47\n      jump\t// in\n    tag_46:\n      mload(0x40)\n      dup1\n      dup3\n      iszero\n      iszero\n      dup2\n      mstore\n      0x20\n      add\n      swap2\n      pop\n      pop\n      mload(0x40)\n      dup1\n      swap2\n      sub\n      swap1\n      return\n        /* \"contracts/distribution/TombGenesisRewardPool.sol\":1642:1676  uint256 public totalAllocPoint = 0 */\n    tag_6:\n      tag_48\n      tag_49\n      jump\t// in\n    tag_48:\n      mload(0x40)\n      dup1\n      dup3\n      dup2\n      mstore\n      0x20\n      add\n      swap2\n      pop\n      pop\n      mload(0x40)\n      dup1\n      swap2\n      sub\n      swap1\n      return\n        /* \"contracts/distribution/TombGenesisRewardPool.sol\":4795:5148  function set(uint256 _pid, uint256 _allocPoint) public onlyOperator {\r... */\n    tag_7:\n      tag_50\n      0x04\n      dup1\n      calldatasize\n      sub\n      0x40\n      dup2\n      lt\n      iszero\n      tag_51\n      jumpi\n      0x00\n      dup1\n      revert\n    tag_51:\n      dup2\n      add\n      swap1\n      dup1\n      dup1\n      calldataload\n      swap1\n      0x20\n      add\n      swap1\n      swap3\n      swap2\n      swap1\n      dup1\n      calldataload\n      swap1\n      0x20\n      add\n      swap1\n      swap3\n      swap2\n      swap1\n      pop\n      pop\n      pop\n      tag_52\n      jump\t// in\n    tag_50:\n      stop\n        /* \"contracts/distribution/TombGenesisRewardPool.sol\":5225:5878  function getGeneratedReward(uint256 _fromTime, uint256 _toTime) public view returns (uint256) {\r... */\n    tag_8:\n      tag_53\n      0x04\n      dup1\n      calldatasize\n      sub\n      0x40\n      dup2\n      lt\n      iszero\n      tag_54\n      jumpi\n      0x00\n      dup1\n      revert\n    tag_54:\n      dup2\n      add\n      swap1\n      dup1\n      dup1\n      calldataload\n      swap1\n      0x20\n      add\n      swap1\n      swap3\n      swap2\n      swap1\n      dup1\n      calldataload\n      swap1\n      0x20\n      add\n      swap1\n      swap3\n      swap2\n      swap1\n      pop\n      pop\n      pop\n      tag_55\n      jump\t// in\n    tag_53:\n      mload(0x40)\n      dup1\n      dup3\n      dup2\n      mstore\n      0x20\n      add\n      swap2\n      pop\n      pop\n      mload(0x40)\n      dup1\n      swap2\n      sub\n      swap1\n      return\n        /* \"contracts/owner/Operator.sol\":894:1009  function transferOperator(address newOperator_) public onlyOwner {\r... */\n    tag_9:\n      tag_56\n      0x04\n      dup1\n      calldatasize\n      sub\n      0x20\n      dup2\n      lt\n      iszero\n      tag_57\n      jumpi\n      0x00\n      dup1\n      revert\n    tag_57:\n      dup2\n      add\n      swap1\n      dup1\n      dup1\n      calldataload\n      0xffffffffffffffffffffffffffffffffffffffff\n      and\n      swap1\n      0x20\n      add\n      swap1\n      swap3\n      swap2\n      swap1\n      pop\n      pop\n      pop\n      tag_58\n      jump\t// in\n    tag_56:\n      stop\n        /* \"contracts/distribution/TombGenesisRewardPool.sol\":1280:1307  address public _feeColector */\n    tag_10:\n      tag_59\n      tag_60\n      jump\t// in\n    tag_59:\n      mload(0x40)\n      dup1\n      dup3\n      0xffffffffffffffffffffffffffffffffffffffff\n      and\n      dup2\n      mstore\n      0x20\n      add\n      swap2\n      pop\n      pop\n      mload(0x40)\n      dup1\n      swap2\n      sub\n      swap1\n      return\n        /* \"contracts/distribution/TombGenesisRewardPool.sol\":2553:2642  function isInitialized() public view returns (bool) {\r... */\n    tag_11:\n      tag_61\n      tag_62\n      jump\t// in\n    tag_61:\n      mload(0x40)\n      dup1\n      dup3\n      iszero\n      iszero\n      dup2\n      mstore\n      0x20\n      add\n      swap2\n      pop\n      pop\n      mload(0x40)\n      dup1\n      swap2\n      sub\n      swap1\n      return\n        /* \"contracts/distribution/TombGenesisRewardPool.sol\":1855:1899  uint256 public PolyPerSecond = 0.09645 ether */\n    tag_12:\n      tag_63\n      tag_64\n      jump\t// in\n    tag_63:\n      mload(0x40)\n      dup1\n      dup3\n      dup2\n      mstore\n      0x20\n      add\n      swap2\n      pop\n      pop\n      mload(0x40)\n      dup1\n      swap2\n      sub\n      swap1\n      return\n        /* \"contracts/distribution/TombGenesisRewardPool.sol\":9070:9880  function withdraw(uint256 _pid, uint256 _amount) public {\r... */\n    tag_13:\n      tag_65\n      0x04\n      dup1\n      calldatasize\n      sub\n      0x40\n      dup2\n      lt\n      iszero\n      tag_66\n      jumpi\n      0x00\n      dup1\n      revert\n    tag_66:\n      dup2\n      add\n      swap1\n      dup1\n      dup1\n      calldataload\n      swap1\n      0x20\n      add\n      swap1\n      swap3\n      swap2\n      swap1\n      dup1\n      calldataload\n      swap1\n      0x20\n      add\n      swap1\n      swap3\n      swap2\n      swap1\n      pop\n      pop\n      pop\n      tag_67\n      jump\t// in\n    tag_65:\n      stop\n        /* \"contracts/owner/Operator.sol\":786:886  function isOperator() public view returns (bool) {\r... */\n    tag_14:\n      tag_68\n      tag_69\n      jump\t// in\n    tag_68:\n      mload(0x40)\n      dup1\n      dup3\n      iszero\n      iszero\n      dup2\n      mstore\n      0x20\n      add\n      swap2\n      pop\n      pop\n      mload(0x40)\n      dup1\n      swap2\n      sub\n      swap1\n      return\n        /* \"contracts/distribution/TombGenesisRewardPool.sol\":7052:7960  function updatePool(uint256 _pid) public {\r... */\n    tag_15:\n      tag_70\n      0x04\n      dup1\n      calldatasize\n      sub\n      0x20\n      dup2\n      lt\n      iszero\n      tag_71\n      jumpi\n      0x00\n      dup1\n      revert\n    tag_71:\n      dup2\n      add\n      swap1\n      dup1\n      dup1\n      calldataload\n      swap1\n      0x20\n      add\n      swap1\n      swap3\n      swap2\n      swap1\n      pop\n      pop\n      pop\n      tag_72\n      jump\t// in\n    tag_70:\n      stop\n        /* \"contracts/distribution/TombGenesisRewardPool.sol\":9951:10328  function emergencyWithdraw(uint256 _pid) public {\r... */\n    tag_16:\n      tag_73\n      0x04\n      dup1\n      calldatasize\n      sub\n      0x20\n      dup2\n      lt\n      iszero\n      tag_74\n      jumpi\n      0x00\n      dup1\n      revert\n    tag_74:\n      dup2\n      add\n      swap1\n      dup1\n      dup1\n      calldataload\n      swap1\n      0x20\n      add\n      swap1\n      swap3\n      swap2\n      swap1\n      pop\n      pop\n      pop\n      tag_75\n      jump\t// in\n    tag_73:\n      stop\n        /* \"contracts/distribution/TombGenesisRewardPool.sol\":10945:11549  function governanceRecoverUnsupported(IERC20 _token, uint256 amount, address to) external onlyOperator {\r... */\n    tag_17:\n      tag_76\n      0x04\n      dup1\n      calldatasize\n      sub\n      0x60\n      dup2\n      lt\n      iszero\n      tag_77\n      jumpi\n      0x00\n      dup1\n      revert\n    tag_77:\n      dup2\n      add\n      swap1\n      dup1\n      dup1\n      calldataload\n      0xffffffffffffffffffffffffffffffffffffffff\n      and\n      swap1\n      0x20\n      add\n      swap1\n      swap3\n      swap2\n      swap1\n      dup1\n      calldataload\n      swap1\n      0x20\n      add\n      swap1\n      swap3\n      swap2\n      swap1\n      dup1\n      calldataload\n      0xffffffffffffffffffffffffffffffffffffffff\n      and\n      swap1\n      0x20\n      add\n      swap1\n      swap3\n      swap2\n      swap1\n      pop\n      pop\n      pop\n      tag_78\n      jump\t// in\n    tag_76:\n      stop\n        /* \"contracts/owner/Operator.sol\":521:606  function operator() public view returns (address) {\r... */\n    tag_18:\n      tag_79\n      tag_80\n      jump\t// in\n    tag_79:\n      mload(0x40)\n      dup1\n      dup3\n      0xffffffffffffffffffffffffffffffffffffffff\n      and\n      dup2\n      mstore\n      0x20\n      add\n      swap2\n      pop\n      pop\n      mload(0x40)\n      dup1\n      swap2\n      sub\n      swap1\n      return\n        /* \"contracts/distribution/TombGenesisRewardPool.sol\":1727:1755  uint256 public poolStartTime */\n    tag_19:\n      tag_81\n      tag_82\n      jump\t// in\n    tag_81:\n      mload(0x40)\n      dup1\n      dup3\n      dup2\n      mstore\n      0x20\n      add\n      swap2\n      pop\n      pop\n      mload(0x40)\n      dup1\n      swap2\n      sub\n      swap1\n      return\n        /* \"contracts/distribution/TombGenesisRewardPool.sol\":6796:6976  function massUpdatePools() public {\r... */\n    tag_20:\n      tag_83\n      tag_84\n      jump\t// in\n    tag_83:\n      stop\n        /* \"contracts/distribution/TombGenesisRewardPool.sol\":1804:1830  uint256 public poolEndTime */\n    tag_21:\n      tag_85\n      tag_86\n      jump\t// in\n    tag_85:\n      mload(0x40)\n      dup1\n      dup3\n      dup2\n      mstore\n      0x20\n      add\n      swap2\n      pop\n      pop\n      mload(0x40)\n      dup1\n      swap2\n      sub\n      swap1\n      return\n        /* \"@openzeppelin/contracts/access/Ownable.sol\":1771:1916  function renounceOwnership() public virtual onlyOwner {... */\n    tag_22:\n      tag_87\n      tag_88\n      jump\t// in\n    tag_87:\n      stop\n        /* \"@openzeppelin/contracts/access/Ownable.sol\":1139:1224  function owner() public view virtual returns (address) {... */\n    tag_23:\n      tag_89\n      tag_90\n      jump\t// in\n    tag_89:\n      mload(0x40)\n      dup1\n      dup3\n      0xffffffffffffffffffffffffffffffffffffffff\n      and\n      dup2\n      mstore\n      0x20\n      add\n      swap2\n      pop\n      pop\n      mload(0x40)\n      dup1\n      swap2\n      sub\n      swap1\n      return\n        /* \"contracts/distribution/TombGenesisRewardPool.sol\":1481:1545  mapping(uint256 => mapping(address => UserInfo)) public userInfo */\n    tag_24:\n      tag_91\n      0x04\n      dup1\n      calldatasize\n      sub\n      0x40\n      dup2\n      lt\n      iszero\n      tag_92\n      jumpi\n      0x00\n      dup1\n      revert\n    tag_92:\n      dup2\n      add\n      swap1\n      dup1\n      dup1\n      calldataload\n      swap1\n      0x20\n      add\n      swap1\n      swap3\n      swap2\n      swap1\n      dup1\n      calldataload\n      0xffffffffffffffffffffffffffffffffffffffff\n      and\n      swap1\n      0x20\n      add\n      swap1\n      swap3\n      swap2\n      swap1\n      pop\n      pop\n      pop\n      tag_93\n      jump\t// in\n    tag_91:\n      mload(0x40)\n      dup1\n      dup4\n      dup2\n      mstore\n      0x20\n      add\n      dup3\n      dup2\n      mstore\n      0x20\n      add\n      swap3\n      pop\n      pop\n      pop\n      mload(0x40)\n      dup1\n      swap2\n      sub\n      swap1\n      return\n        /* \"contracts/distribution/TombGenesisRewardPool.sol\":1942:1977  uint256 public runningTime = 3 days */\n    tag_25:\n      tag_94\n      tag_95\n      jump\t// in\n    tag_94:\n      mload(0x40)\n      dup1\n      dup3\n      dup2\n      mstore\n      0x20\n      add\n      swap2\n      pop\n      pop\n      mload(0x40)\n      dup1\n      swap2\n      sub\n      swap1\n      return\n        /* \"contracts/distribution/TombGenesisRewardPool.sol\":3423:4699  function add(\r... */\n    tag_26:\n      tag_96\n      0x04\n      dup1\n      calldatasize\n      sub\n      0x80\n      dup2\n      lt\n      iszero\n      tag_97\n      jumpi\n      0x00\n      dup1\n      revert\n    tag_97:\n      dup2\n      add\n      swap1\n      dup1\n      dup1\n      calldataload\n      swap1\n      0x20\n      add\n      swap1\n      swap3\n      swap2\n      swap1\n      dup1\n      calldataload\n      0xffffffffffffffffffffffffffffffffffffffff\n      and\n      swap1\n      0x20\n      add\n      swap1\n      swap3\n      swap2\n      swap1\n      dup1\n      calldataload\n      iszero\n      iszero\n      swap1\n      0x20\n      add\n      swap1\n      swap3\n      swap2\n      swap1\n      dup1\n      calldataload\n      swap1\n      0x20\n      add\n      swap1\n      swap3\n      swap2\n      swap1\n      pop\n      pop\n      pop\n      tag_98\n      jump\t// in\n    tag_96:\n      stop\n        /* \"contracts/distribution/TombGenesisRewardPool.sol\":10823:10937  function setOperator(address _Newoperator) external onlyOperator {\r... */\n    tag_27:\n      tag_99\n      0x04\n      dup1\n      calldatasize\n      sub\n      0x20\n      dup2\n      lt\n      iszero\n      tag_100\n      jumpi\n      0x00\n      dup1\n      revert\n    tag_100:\n      dup2\n      add\n      swap1\n      dup1\n      dup1\n      calldataload\n      0xffffffffffffffffffffffffffffffffffffffff\n      and\n      swap1\n      0x20\n      add\n      swap1\n      swap3\n      swap2\n      swap1\n      pop\n      pop\n      pop\n      tag_101\n      jump\t// in\n    tag_99:\n      stop\n        /* \"contracts/distribution/TombGenesisRewardPool.sol\":2650:3074  function initialize (\r... */\n    tag_28:\n      tag_102\n      0x04\n      dup1\n      calldatasize\n      sub\n      0x40\n      dup2\n      lt\n      iszero\n      tag_103\n      jumpi\n      0x00\n      dup1\n      revert\n    tag_103:\n      dup2\n      add\n      swap1\n      dup1\n      dup1\n      calldataload\n      0xffffffffffffffffffffffffffffffffffffffff\n      and\n      swap1\n      0x20\n      add\n      swap1\n      swap3\n      swap2\n      swap1\n      dup1\n      calldataload\n      swap1\n      0x20\n      add\n      swap1\n      swap3\n      swap2\n      swap1\n      pop\n      pop\n      pop\n      tag_104\n      jump\t// in\n    tag_102:\n      stop\n        /* \"contracts/distribution/TombGenesisRewardPool.sol\":1253:1273  uint256 public _fees */\n    tag_29:\n      tag_105\n      tag_106\n      jump\t// in\n    tag_105:\n      mload(0x40)\n      dup1\n      dup3\n      dup2\n      mstore\n      0x20\n      add\n      swap2\n      pop\n      pop\n      mload(0x40)\n      dup1\n      swap2\n      sub\n      swap1\n      return\n        /* \"contracts/distribution/TombGenesisRewardPool.sol\":1214:1232  IERC20 public Poly */\n    tag_30:\n      tag_107\n      tag_108\n      jump\t// in\n    tag_107:\n      mload(0x40)\n      dup1\n      dup3\n      0xffffffffffffffffffffffffffffffffffffffff\n      and\n      dup2\n      mstore\n      0x20\n      add\n      swap2\n      pop\n      pop\n      mload(0x40)\n      dup1\n      swap2\n      sub\n      swap1\n      return\n        /* \"contracts/distribution/TombGenesisRewardPool.sol\":7997:9034  function deposit(uint256 _pid, uint256 _amount) public {\r... */\n    tag_31:\n      tag_109\n      0x04\n      dup1\n      calldatasize\n      sub\n      0x40\n      dup2\n      lt\n      iszero\n      tag_110\n      jumpi\n      0x00\n      dup1\n      revert\n    tag_110:\n      dup2\n      add\n      swap1\n      dup1\n      dup1\n      calldataload\n      swap1\n      0x20\n      add\n      swap1\n      swap3\n      swap2\n      swap1\n      dup1\n      calldataload\n      swap1\n      0x20\n      add\n      swap1\n      swap3\n      swap2\n      swap1\n      pop\n      pop\n      pop\n      tag_111\n      jump\t// in\n    tag_109:\n      stop\n        /* \"contracts/distribution/TombGenesisRewardPool.sol\":5941:6713  function pendingStone(uint256 _pid, address _user) external view returns (uint256) {\r... */\n    tag_32:\n      tag_112\n      0x04\n      dup1\n      calldatasize\n      sub\n      0x40\n      dup2\n      lt\n      iszero\n      tag_113\n      jumpi\n      0x00\n      dup1\n      revert\n    tag_113:\n      dup2\n      add\n      swap1\n      dup1\n      dup1\n      calldataload\n      swap1\n      0x20\n      add\n      swap1\n      swap3\n      swap2\n      swap1\n      dup1\n      calldataload\n      0xffffffffffffffffffffffffffffffffffffffff\n      and\n      swap1\n      0x20\n      add\n      swap1\n      swap3\n      swap2\n      swap1\n      pop\n      pop\n      pop\n      tag_114\n      jump\t// in\n    tag_112:\n      mload(0x40)\n      dup1\n      dup3\n      dup2\n      mstore\n      0x20\n      add\n      swap2\n      pop\n      pop\n      mload(0x40)\n      dup1\n      swap2\n      sub\n      swap1\n      return\n        /* \"@openzeppelin/contracts/access/Ownable.sol\":2065:2305  function transferOwnership(address newOwner) public virtual onlyOwner {... */\n    tag_33:\n      tag_115\n      0x04\n      dup1\n      calldatasize\n      sub\n      0x20\n      dup2\n      lt\n      iszero\n      tag_116\n      jumpi\n      0x00\n      dup1\n      revert\n    tag_116:\n      dup2\n      add\n      swap1\n      dup1\n      dup1\n      calldataload\n      0xffffffffffffffffffffffffffffffffffffffff\n      and\n      swap1\n      0x20\n      add\n      swap1\n      swap3\n      swap2\n      swap1\n      pop\n      pop\n      pop\n      tag_117\n      jump\t// in\n    tag_115:\n      stop\n        /* \"contracts/distribution/TombGenesisRewardPool.sol\":1994:2045  uint256 public constant TOTAL_REWARDS = 25000 ether */\n    tag_42:\n        /* \"contracts/distribution/TombGenesisRewardPool.sol\":2034:2045  25000 ether */\n      0x054b40b1f852bda00000\n        /* \"contracts/distribution/TombGenesisRewardPool.sol\":1994:2045  uint256 public constant TOTAL_REWARDS = 25000 ether */\n      dup2\n      jump\t// out\n        /* \"contracts/distribution/TombGenesisRewardPool.sol\":1343:1369  PoolInfo[] public poolInfo */\n    tag_45:\n      0x05\n      dup2\n      dup2\n      sload\n      dup2\n      lt\n      tag_118\n      jumpi\n      invalid\n    tag_118:\n      swap1\n      0x00\n      mstore\n      keccak256(0x00, 0x20)\n      swap1\n      0x05\n      mul\n      add\n      0x00\n      swap2\n      pop\n      swap1\n      pop\n      dup1\n      0x00\n      add\n      0x00\n      swap1\n      sload\n      swap1\n      0x0100\n      exp\n      swap1\n      div\n      0xffffffffffffffffffffffffffffffffffffffff\n      and\n      swap1\n      dup1\n      0x01\n      add\n      sload\n      swap1\n      dup1\n      0x02\n      add\n      sload\n      swap1\n      dup1\n      0x03\n      add\n      sload\n      swap1\n      dup1\n      0x04\n      add\n      0x00\n      swap1\n      sload\n      swap1\n      0x0100\n      exp\n      swap1\n      div\n      0xff\n      and\n      swap1\n      pop\n      dup6\n      jump\t// out\n        /* \"contracts/distribution/TombGenesisRewardPool.sol\":1392:1423  bool public initialized = false */\n    tag_47:\n      0x06\n      0x00\n      swap1\n      sload\n      swap1\n      0x0100\n      exp\n      swap1\n      div\n      0xff\n      and\n      dup2\n      jump\t// out\n        /* \"contracts/distribution/TombGenesisRewardPool.sol\":1642:1676  uint256 public totalAllocPoint = 0 */\n    tag_49:\n      sload(0x08)\n      dup2\n      jump\t// out\n        /* \"contracts/distribution/TombGenesisRewardPool.sol\":4795:5148  function set(uint256 _pid, uint256 _allocPoint) public onlyOperator {\r... */\n    tag_52:\n        /* \"contracts/owner/Operator.sol\":684:694  msg.sender */\n      caller\n        /* \"contracts/owner/Operator.sol\":671:694  _operator == msg.sender */\n      0xffffffffffffffffffffffffffffffffffffffff\n      and\n        /* \"contracts/owner/Operator.sol\":671:680  _operator */\n      0x01\n      0x00\n      swap1\n      sload\n      swap1\n      0x0100\n      exp\n      swap1\n      div\n      0xffffffffffffffffffffffffffffffffffffffff\n      and\n        /* \"contracts/owner/Operator.sol\":671:694  _operator == msg.sender */\n      0xffffffffffffffffffffffffffffffffffffffff\n      and\n      eq\n        /* \"contracts/owner/Operator.sol\":649:758  require(\r... */\n      tag_121\n      jumpi\n      mload(0x40)\n      0x08c379a000000000000000000000000000000000000000000000000000000000\n      dup2\n      mstore\n      0x04\n      add\n      dup1\n      dup1\n      0x20\n      add\n      dup3\n      dup2\n      sub\n      dup3\n      mstore\n      0x24\n      dup2\n      mstore\n      0x20\n      add\n      dup1\n      data_a62bfdba5053072911b63b0f6325b0e83fcd28b5a847d97efdd966feb4daaafb\n      0x24\n      swap2\n      codecopy\n      0x40\n      add\n      swap2\n      pop\n      pop\n      mload(0x40)\n      dup1\n      swap2\n      sub\n      swap1\n      revert\n    tag_121:\n        /* \"contracts/distribution/TombGenesisRewardPool.sol\":4874:4891  massUpdatePools() */\n      tag_123\n        /* \"contracts/distribution/TombGenesisRewardPool.sol\":4874:4889  massUpdatePools */\n      tag_84\n        /* \"contracts/distribution/TombGenesisRewardPool.sol\":4874:4891  massUpdatePools() */\n      jump\t// in\n    tag_123:\n        /* \"contracts/distribution/TombGenesisRewardPool.sol\":4902:4923  PoolInfo storage pool */\n      0x00\n        /* \"contracts/distribution/TombGenesisRewardPool.sol\":4926:4934  poolInfo */\n      0x05\n        /* \"contracts/distribution/TombGenesisRewardPool.sol\":4935:4939  _pid */\n      dup4\n        /* \"contracts/distribution/TombGenesisRewardPool.sol\":4926:4940  poolInfo[_pid] */\n      dup2\n      sload\n      dup2\n      lt\n      tag_124\n      jumpi\n      invalid\n    tag_124:\n      swap1\n      0x00\n      mstore\n      keccak256(0x00, 0x20)\n      swap1\n      0x05\n      mul\n      add\n        /* \"contracts/distribution/TombGenesisRewardPool.sol\":4902:4940  PoolInfo storage pool = poolInfo[_pid] */\n      swap1\n      pop\n        /* \"contracts/distribution/TombGenesisRewardPool.sol\":4955:4959  pool */\n      dup1\n        /* \"contracts/distribution/TombGenesisRewardPool.sol\":4955:4969  pool.isStarted */\n      0x04\n      add\n      0x00\n      swap1\n      sload\n      swap1\n      0x0100\n      exp\n      swap1\n      div\n      0xff\n      and\n        /* \"contracts/distribution/TombGenesisRewardPool.sol\":4951:5101  if (pool.isStarted) {\r... */\n      iszero\n      tag_126\n      jumpi\n        /* \"contracts/distribution/TombGenesisRewardPool.sol\":5004:5089  totalAllocPoint.sub(pool.allocPoint).add(\r... */\n      tag_127\n        /* \"contracts/distribution/TombGenesisRewardPool.sol\":5063:5074  _allocPoint */\n      dup3\n        /* \"contracts/distribution/TombGenesisRewardPool.sol\":5004:5040  totalAllocPoint.sub(pool.allocPoint) */\n      tag_128\n        /* \"contracts/distribution/TombGenesisRewardPool.sol\":5024:5028  pool */\n      dup4\n        /* \"contracts/distribution/TombGenesisRewardPool.sol\":5024:5039  pool.allocPoint */\n      0x01\n      add\n      sload\n        /* \"contracts/distribution/TombGenesisRewardPool.sol\":5004:5019  totalAllocPoint */\n      sload(0x08)\n        /* \"contracts/distribution/TombGenesisRewardPool.sol\":5004:5023  totalAllocPoint.sub */\n      tag_129\n      swap1\n        /* \"contracts/distribution/TombGenesisRewardPool.sol\":5004:5040  totalAllocPoint.sub(pool.allocPoint) */\n      swap2\n      swap1\n      0xffffffff\n      and\n      jump\t// in\n    tag_128:\n        /* \"contracts/distribution/TombGenesisRewardPool.sol\":5004:5044  totalAllocPoint.sub(pool.allocPoint).add */\n      tag_130\n      swap1\n        /* \"contracts/distribution/TombGenesisRewardPool.sol\":5004:5089  totalAllocPoint.sub(pool.allocPoint).add(\r... */\n      swap2\n      swap1\n      0xffffffff\n      and\n      jump\t// in\n    tag_127:\n        /* \"contracts/distribution/TombGenesisRewardPool.sol\":4986:5001  totalAllocPoint */\n      0x08\n        /* \"contracts/distribution/TombGenesisRewardPool.sol\":4986:5089  totalAllocPoint = totalAllocPoint.sub(pool.allocPoint).add(\r... */\n      dup2\n      swap1\n      sstore\n      pop\n        /* \"contracts/distribution/TombGenesisRewardPool.sol\":4951:5101  if (pool.isStarted) {\r... */\n    tag_126:\n        /* \"contracts/distribution/TombGenesisRewardPool.sol\":5129:5140  _allocPoint */\n      dup2\n        /* \"contracts/distribution/TombGenesisRewardPool.sol\":5111:5115  pool */\n      dup2\n        /* \"contracts/distribution/TombGenesisRewardPool.sol\":5111:5126  pool.allocPoint */\n      0x01\n      add\n        /* \"contracts/distribution/TombGenesisRewardPool.sol\":5111:5140  pool.allocPoint = _allocPoint */\n      dup2\n      swap1\n      sstore\n      pop\n        /* \"contracts/owner/Operator.sol\":769:770  _ */\n      pop\n        /* \"contracts/distribution/TombGenesisRewardPool.sol\":4795:5148  function set(uint256 _pid, uint256 _allocPoint) public onlyOperator {\r... */\n      pop\n      pop\n      jump\t// out\n        /* \"contracts/distribution/TombGenesisRewardPool.sol\":5225:5878  function getGeneratedReward(uint256 _fromTime, uint256 _toTime) public view returns (uint256) {\r... */\n    tag_55:\n        /* \"contracts/distribution/TombGenesisRewardPool.sol\":5310:5317  uint256 */\n      0x00\n        /* \"contracts/distribution/TombGenesisRewardPool.sol\":5347:5354  _toTime */\n      dup2\n        /* \"contracts/distribution/TombGenesisRewardPool.sol\":5334:5343  _fromTime */\n      dup4\n        /* \"contracts/distribution/TombGenesisRewardPool.sol\":5334:5354  _fromTime >= _toTime */\n      lt\n        /* \"contracts/distribution/TombGenesisRewardPool.sol\":5330:5364  if (_fromTime >= _toTime) return 0 */\n      tag_132\n      jumpi\n        /* \"contracts/distribution/TombGenesisRewardPool.sol\":5363:5364  0 */\n      0x00\n        /* \"contracts/distribution/TombGenesisRewardPool.sol\":5356:5364  return 0 */\n      swap1\n      pop\n      jump(tag_131)\n        /* \"contracts/distribution/TombGenesisRewardPool.sol\":5330:5364  if (_fromTime >= _toTime) return 0 */\n    tag_132:\n        /* \"contracts/distribution/TombGenesisRewardPool.sol\":5390:5401  poolEndTime */\n      sload(0x0a)\n        /* \"contracts/distribution/TombGenesisRewardPool.sol\":5379:5386  _toTime */\n      dup3\n        /* \"contracts/distribution/TombGenesisRewardPool.sol\":5379:5401  _toTime >= poolEndTime */\n      lt\n        /* \"contracts/distribution/TombGenesisRewardPool.sol\":5375:5871  if (_toTime >= poolEndTime) {\r... */\n      tag_133\n      jumpi\n        /* \"contracts/distribution/TombGenesisRewardPool.sol\":5435:5446  poolEndTime */\n      sload(0x0a)\n        /* \"contracts/distribution/TombGenesisRewardPool.sol\":5422:5431  _fromTime */\n      dup4\n        /* \"contracts/distribution/TombGenesisRewardPool.sol\":5422:5446  _fromTime >= poolEndTime */\n      lt\n        /* \"contracts/distribution/TombGenesisRewardPool.sol\":5418:5456  if (_fromTime >= poolEndTime) return 0 */\n      tag_134\n      jumpi\n        /* \"contracts/distribution/TombGenesisRewardPool.sol\":5455:5456  0 */\n      0x00\n        /* \"contracts/distribution/TombGenesisRewardPool.sol\":5448:5456  return 0 */\n      swap1\n      pop\n      jump(tag_131)\n        /* \"contracts/distribution/TombGenesisRewardPool.sol\":5418:5456  if (_fromTime >= poolEndTime) return 0 */\n    tag_134:\n        /* \"contracts/distribution/TombGenesisRewardPool.sol\":5488:5501  poolStartTime */\n      sload(0x09)\n        /* \"contracts/distribution/TombGenesisRewardPool.sol\":5475:5484  _fromTime */\n      dup4\n        /* \"contracts/distribution/TombGenesisRewardPool.sol\":5475:5501  _fromTime <= poolStartTime */\n      gt\n        /* \"contracts/distribution/TombGenesisRewardPool.sol\":5471:5559  if (_fromTime <= poolStartTime) return poolEndTime.sub(poolStartTime).mul(PolyPerSecond) */\n      tag_135\n      jumpi\n        /* \"contracts/distribution/TombGenesisRewardPool.sol\":5510:5559  poolEndTime.sub(poolStartTime).mul(PolyPerSecond) */\n      tag_136\n        /* \"contracts/distribution/TombGenesisRewardPool.sol\":5545:5558  PolyPerSecond */\n      sload(0x0b)\n        /* \"contracts/distribution/TombGenesisRewardPool.sol\":5510:5540  poolEndTime.sub(poolStartTime) */\n      tag_137\n        /* \"contracts/distribution/TombGenesisRewardPool.sol\":5526:5539  poolStartTime */\n      sload(0x09)\n        /* \"contracts/distribution/TombGenesisRewardPool.sol\":5510:5521  poolEndTime */\n      sload(0x0a)\n        /* \"contracts/distribution/TombGenesisRewardPool.sol\":5510:5525  poolEndTime.sub */\n      tag_129\n      swap1\n        /* \"contracts/distribution/TombGenesisRewardPool.sol\":5510:5540  poolEndTime.sub(poolStartTime) */\n      swap2\n      swap1\n      0xffffffff\n      and\n      jump\t// in\n    tag_137:\n        /* \"contracts/distribution/TombGenesisRewardPool.sol\":5510:5544  poolEndTime.sub(poolStartTime).mul */\n      tag_138\n      swap1\n        /* \"contracts/distribution/TombGenesisRewardPool.sol\":5510:5559  poolEndTime.sub(poolStartTime).mul(PolyPerSecond) */\n      swap2\n      swap1\n      0xffffffff\n      and\n      jump\t// in\n    tag_136:\n        /* \"contracts/distribution/TombGenesisRewardPool.sol\":5503:5559  return poolEndTime.sub(poolStartTime).mul(PolyPerSecond) */\n      swap1\n      pop\n      jump(tag_131)\n        /* \"contracts/distribution/TombGenesisRewardPool.sol\":5471:5559  if (_fromTime <= poolStartTime) return poolEndTime.sub(poolStartTime).mul(PolyPerSecond) */\n    tag_135:\n        /* \"contracts/distribution/TombGenesisRewardPool.sol\":5581:5626  poolEndTime.sub(_fromTime).mul(PolyPerSecond) */\n      tag_139\n        /* \"contracts/distribution/TombGenesisRewardPool.sol\":5612:5625  PolyPerSecond */\n      sload(0x0b)\n        /* \"contracts/distribution/TombGenesisRewardPool.sol\":5581:5607  poolEndTime.sub(_fromTime) */\n      tag_140\n        /* \"contracts/distribution/TombGenesisRewardPool.sol\":5597:5606  _fromTime */\n      dup6\n        /* \"contracts/distribution/TombGenesisRewardPool.sol\":5581:5592  poolEndTime */\n      sload(0x0a)\n        /* \"contracts/distribution/TombGenesisRewardPool.sol\":5581:5596  poolEndTime.sub */\n      tag_129\n      swap1\n        /* \"contracts/distribution/TombGenesisRewardPool.sol\":5581:5607  poolEndTime.sub(_fromTime) */\n      swap2\n      swap1\n      0xffffffff\n      and\n      jump\t// in\n    tag_140:\n        /* \"contracts/distribution/TombGenesisRewardPool.sol\":5581:5611  poolEndTime.sub(_fromTime).mul */\n      tag_138\n      swap1\n        /* \"contracts/distribution/TombGenesisRewardPool.sol\":5581:5626  poolEndTime.sub(_fromTime).mul(PolyPerSecond) */\n      swap2\n      swap1\n      0xffffffff\n      and\n      jump\t// in\n    tag_139:\n        /* \"contracts/distribution/TombGenesisRewardPool.sol\":5574:5626  return poolEndTime.sub(_fromTime).mul(PolyPerSecond) */\n      swap1\n      pop\n      jump(tag_131)\n        /* \"contracts/distribution/TombGenesisRewardPool.sol\":5375:5871  if (_toTime >= poolEndTime) {\r... */\n    tag_133:\n        /* \"contracts/distribution/TombGenesisRewardPool.sol\":5674:5687  poolStartTime */\n      sload(0x09)\n        /* \"contracts/distribution/TombGenesisRewardPool.sol\":5663:5670  _toTime */\n      dup3\n        /* \"contracts/distribution/TombGenesisRewardPool.sol\":5663:5687  _toTime <= poolStartTime */\n      gt\n        /* \"contracts/distribution/TombGenesisRewardPool.sol\":5659:5697  if (_toTime <= poolStartTime) return 0 */\n      tag_142\n      jumpi\n        /* \"contracts/distribution/TombGenesisRewardPool.sol\":5696:5697  0 */\n      0x00\n        /* \"contracts/distribution/TombGenesisRewardPool.sol\":5689:5697  return 0 */\n      swap1\n      pop\n      jump(tag_131)\n        /* \"contracts/distribution/TombGenesisRewardPool.sol\":5659:5697  if (_toTime <= poolStartTime) return 0 */\n    tag_142:\n        /* \"contracts/distribution/TombGenesisRewardPool.sol\":5729:5742  poolStartTime */\n      sload(0x09)\n        /* \"contracts/distribution/TombGenesisRewardPool.sol\":5716:5725  _fromTime */\n      dup4\n        /* \"contracts/distribution/TombGenesisRewardPool.sol\":5716:5742  _fromTime <= poolStartTime */\n      gt\n        /* \"contracts/distribution/TombGenesisRewardPool.sol\":5712:5796  if (_fromTime <= poolStartTime) return _toTime.sub(poolStartTime).mul(PolyPerSecond) */\n      tag_143\n      jumpi\n        /* \"contracts/distribution/TombGenesisRewardPool.sol\":5751:5796  _toTime.sub(poolStartTime).mul(PolyPerSecond) */\n      tag_144\n        /* \"contracts/distribution/TombGenesisRewardPool.sol\":5782:5795  PolyPerSecond */\n      sload(0x0b)\n        /* \"contracts/distribution/TombGenesisRewardPool.sol\":5751:5777  _toTime.sub(poolStartTime) */\n      tag_145\n        /* \"contracts/distribution/TombGenesisRewardPool.sol\":5763:5776  poolStartTime */\n      sload(0x09)\n        /* \"contracts/distribution/TombGenesisRewardPool.sol\":5751:5758  _toTime */\n      dup6\n        /* \"contracts/distribution/TombGenesisRewardPool.sol\":5751:5762  _toTime.sub */\n      tag_129\n      swap1\n        /* \"contracts/distribution/TombGenesisRewardPool.sol\":5751:5777  _toTime.sub(poolStartTime) */\n      swap2\n      swap1\n      0xffffffff\n      and\n      jump\t// in\n    tag_145:\n        /* \"contracts/distribution/TombGenesisRewardPool.sol\":5751:5781  _toTime.sub(poolStartTime).mul */\n      tag_138\n      swap1\n        /* \"contracts/distribution/TombGenesisRewardPool.sol\":5751:5796  _toTime.sub(poolStartTime).mul(PolyPerSecond) */\n      swap2\n      swap1\n      0xffffffff\n      and\n      jump\t// in\n    tag_144:\n        /* \"contracts/distribution/TombGenesisRewardPool.sol\":5744:5796  return _toTime.sub(poolStartTime).mul(PolyPerSecond) */\n      swap1\n      pop\n      jump(tag_131)\n        /* \"contracts/distribution/TombGenesisRewardPool.sol\":5712:5796  if (_fromTime <= poolStartTime) return _toTime.sub(poolStartTime).mul(PolyPerSecond) */\n    tag_143:\n        /* \"contracts/distribution/TombGenesisRewardPool.sol\":5818:5859  _toTime.sub(_fromTime).mul(PolyPerSecond) */\n      tag_146\n        /* \"contracts/distribution/TombGenesisRewardPool.sol\":5845:5858  PolyPerSecond */\n      sload(0x0b)\n        /* \"contracts/distribution/TombGenesisRewardPool.sol\":5818:5840  _toTime.sub(_fromTime) */\n      tag_147\n        /* \"contracts/distribution/TombGenesisRewardPool.sol\":5830:5839  _fromTime */\n      dup6\n        /* \"contracts/distribution/TombGenesisRewardPool.sol\":5818:5825  _toTime */\n      dup6\n        /* \"contracts/distribution/TombGenesisRewardPool.sol\":5818:5829  _toTime.sub */\n      tag_129\n      swap1\n        /* \"contracts/distribution/TombGenesisRewardPool.sol\":5818:5840  _toTime.sub(_fromTime) */\n      swap2\n      swap1\n      0xffffffff\n      and\n      jump\t// in\n    tag_147:\n        /* \"contracts/distribution/TombGenesisRewardPool.sol\":5818:5844  _toTime.sub(_fromTime).mul */\n      tag_138\n      swap1\n        /* \"contracts/distribution/TombGenesisRewardPool.sol\":5818:5859  _toTime.sub(_fromTime).mul(PolyPerSecond) */\n      swap2\n      swap1\n      0xffffffff\n      and\n      jump\t// in\n    tag_146:\n        /* \"contracts/distribution/TombGenesisRewardPool.sol\":5811:5859  return _toTime.sub(_fromTime).mul(PolyPerSecond) */\n      swap1\n      pop\n        /* \"contracts/distribution/TombGenesisRewardPool.sol\":5225:5878  function getGeneratedReward(uint256 _fromTime, uint256 _toTime) public view returns (uint256) {\r... */\n    tag_131:\n      swap3\n      swap2\n      pop\n      pop\n      jump\t// out\n        /* \"contracts/owner/Operator.sol\":894:1009  function transferOperator(address newOperator_) public onlyOwner {\r... */\n    tag_58:\n        /* \"@openzeppelin/contracts/access/Ownable.sol\":1362:1374  _msgSender() */\n      tag_149\n        /* \"@openzeppelin/contracts/access/Ownable.sol\":1362:1372  _msgSender */\n      tag_150\n        /* \"@openzeppelin/contracts/access/Ownable.sol\":1362:1374  _msgSender() */\n      jump\t// in\n    tag_149:\n        /* \"@openzeppelin/contracts/access/Ownable.sol\":1351:1374  owner() == _msgSender() */\n      0xffffffffffffffffffffffffffffffffffffffff\n      and\n        /* \"@openzeppelin/contracts/access/Ownable.sol\":1351:1358  owner() */\n      tag_151\n        /* \"@openzeppelin/contracts/access/Ownable.sol\":1351:1356  owner */\n      tag_90\n        /* \"@openzeppelin/contracts/access/Ownable.sol\":1351:1358  owner() */\n      jump\t// in\n    tag_151:\n        /* \"@openzeppelin/contracts/access/Ownable.sol\":1351:1374  owner() == _msgSender() */\n      0xffffffffffffffffffffffffffffffffffffffff\n      and\n      eq\n        /* \"@openzeppelin/contracts/access/Ownable.sol\":1343:1411  require(owner() == _msgSender(), \"Ownable: caller is not the owner\") */\n      tag_152\n      jumpi\n      mload(0x40)\n      0x08c379a000000000000000000000000000000000000000000000000000000000\n      dup2\n      mstore\n      0x04\n      add\n      dup1\n      dup1\n      0x20\n      add\n      dup3\n      dup2\n      sub\n      dup3\n      mstore\n      0x20\n      dup2\n      mstore\n      0x20\n      add\n      dup1\n      0x4f776e61626c653a2063616c6c6572206973206e6f7420746865206f776e6572\n      dup2\n      mstore\n      pop\n      0x20\n      add\n      swap2\n      pop\n      pop\n      mload(0x40)\n      dup1\n      swap2\n      sub\n      swap1\n      revert\n    tag_152:\n        /* \"contracts/owner/Operator.sol\":970:1001  _transferOperator(newOperator_) */\n      tag_154\n        /* \"contracts/owner/Operator.sol\":988:1000  newOperator_ */\n      dup2\n        /* \"contracts/owner/Operator.sol\":970:987  _transferOperator */\n      tag_155\n        /* \"contracts/owner/Operator.sol\":970:1001  _transferOperator(newOperator_) */\n      jump\t// in\n    tag_154:\n        /* \"contracts/owner/Operator.sol\":894:1009  function transferOperator(address newOperator_) public onlyOwner {\r... */\n      pop\n      jump\t// out\n        /* \"contracts/distribution/TombGenesisRewardPool.sol\":1280:1307  address public _feeColector */\n    tag_60:\n      0x04\n      0x00\n      swap1\n      sload\n      swap1\n      0x0100\n      exp\n      swap1\n      div\n      0xffffffffffffffffffffffffffffffffffffffff\n      and\n      dup2\n      jump\t// out\n        /* \"contracts/distribution/TombGenesisRewardPool.sol\":2553:2642  function isInitialized() public view returns (bool) {\r... */\n    tag_62:\n        /* \"contracts/distribution/TombGenesisRewardPool.sol\":2599:2603  bool */\n      0x00\n        /* \"contracts/distribution/TombGenesisRewardPool.sol\":2623:2634  initialized */\n      0x06\n      0x00\n      swap1\n      sload\n      swap1\n      0x0100\n      exp\n      swap1\n      div\n      0xff\n      and\n        /* \"contracts/distribution/TombGenesisRewardPool.sol\":2616:2634  return initialized */\n      swap1\n      pop\n        /* \"contracts/distribution/TombGenesisRewardPool.sol\":2553:2642  function isInitialized() public view returns (bool) {\r... */\n      swap1\n      jump\t// out\n        /* \"contracts/distribution/TombGenesisRewardPool.sol\":1855:1899  uint256 public PolyPerSecond = 0.09645 ether */\n    tag_64:\n      sload(0x0b)\n      dup2\n      jump\t// out\n        /* \"contracts/distribution/TombGenesisRewardPool.sol\":9070:9880  function withdraw(uint256 _pid, uint256 _amount) public {\r... */\n    tag_67:\n        /* \"contracts/distribution/TombGenesisRewardPool.sol\":9137:9152  address _sender */\n      0x00\n        /* \"contracts/distribution/TombGenesisRewardPool.sol\":9155:9165  msg.sender */\n      caller\n        /* \"contracts/distribution/TombGenesisRewardPool.sol\":9137:9165  address _sender = msg.sender */\n      swap1\n      pop\n        /* \"contracts/distribution/TombGenesisRewardPool.sol\":9176:9197  PoolInfo storage pool */\n      0x00\n        /* \"contracts/distribution/TombGenesisRewardPool.sol\":9200:9208  poolInfo */\n      0x05\n        /* \"contracts/distribution/TombGenesisRewardPool.sol\":9209:9213  _pid */\n      dup5\n        /* \"contracts/distribution/TombGenesisRewardPool.sol\":9200:9214  poolInfo[_pid] */\n      dup2\n      sload\n      dup2\n      lt\n      tag_158\n      jumpi\n      invalid\n    tag_158:\n      swap1\n      0x00\n      mstore\n      keccak256(0x00, 0x20)\n      swap1\n      0x05\n      mul\n      add\n        /* \"contracts/distribution/TombGenesisRewardPool.sol\":9176:9214  PoolInfo storage pool = poolInfo[_pid] */\n      swap1\n      pop\n        /* \"contracts/distribution/TombGenesisRewardPool.sol\":9225:9246  UserInfo storage user */\n      0x00\n        /* \"contracts/distribution/TombGenesisRewardPool.sol\":9249:9257  userInfo */\n      0x07\n        /* \"contracts/distribution/TombGenesisRewardPool.sol\":9249:9263  userInfo[_pid] */\n      0x00\n        /* \"contracts/distribution/TombGenesisRewardPool.sol\":9258:9262  _pid */\n      dup7\n        /* \"contracts/distribution/TombGenesisRewardPool.sol\":9249:9263  userInfo[_pid] */\n      dup2\n      mstore\n      0x20\n      add\n      swap1\n      dup2\n      mstore\n      0x20\n      add\n      0x00\n      keccak256\n        /* \"contracts/distribution/TombGenesisRewardPool.sol\":9249:9272  userInfo[_pid][_sender] */\n      0x00\n        /* \"contracts/distribution/TombGenesisRewardPool.sol\":9264:9271  _sender */\n      dup5\n        /* \"contracts/distribution/TombGenesisRewardPool.sol\":9249:9272  userInfo[_pid][_sender] */\n      0xffffffffffffffffffffffffffffffffffffffff\n      and\n      0xffffffffffffffffffffffffffffffffffffffff\n      and\n      dup2\n      mstore\n      0x20\n      add\n      swap1\n      dup2\n      mstore\n      0x20\n      add\n      0x00\n      keccak256\n        /* \"contracts/distribution/TombGenesisRewardPool.sol\":9225:9272  UserInfo storage user = userInfo[_pid][_sender] */\n      swap1\n      pop\n        /* \"contracts/distribution/TombGenesisRewardPool.sol\":9306:9313  _amount */\n      dup4\n        /* \"contracts/distribution/TombGenesisRewardPool.sol\":9291:9295  user */\n      dup2\n        /* \"contracts/distribution/TombGenesisRewardPool.sol\":9291:9302  user.amount */\n      0x00\n      add\n      sload\n        /* \"contracts/distribution/TombGenesisRewardPool.sol\":9291:9313  user.amount >= _amount */\n      lt\n      iszero\n        /* \"contracts/distribution/TombGenesisRewardPool.sol\":9283:9336  require(user.amount >= _amount, \"withdraw: not good\") */\n      tag_160\n      jumpi\n      mload(0x40)\n      0x08c379a000000000000000000000000000000000000000000000000000000000\n      dup2\n      mstore\n      0x04\n      add\n      dup1\n      dup1\n      0x20\n      add\n      dup3\n      dup2\n      sub\n      dup3\n      mstore\n      0x12\n      dup2\n      mstore\n      0x20\n      add\n      dup1\n      0x77697468647261773a206e6f7420676f6f640000000000000000000000000000\n      dup2\n      mstore\n      pop\n      0x20\n      add\n      swap2\n      pop\n      pop\n      mload(0x40)\n      dup1\n      swap2\n      sub\n      swap1\n      revert\n    tag_160:\n        /* \"contracts/distribution/TombGenesisRewardPool.sol\":9347:9363  updatePool(_pid) */\n      tag_161\n        /* \"contracts/distribution/TombGenesisRewardPool.sol\":9358:9362  _pid */\n      dup6\n        /* \"contracts/distribution/TombGenesisRewardPool.sol\":9347:9357  updatePool */\n      tag_72\n        /* \"contracts/distribution/TombGenesisRewardPool.sol\":9347:9363  updatePool(_pid) */\n      jump\t// in\n    tag_161:\n        /* \"contracts/distribution/TombGenesisRewardPool.sol\":9374:9390  uint256 _pending */\n      0x00\n        /* \"contracts/distribution/TombGenesisRewardPool.sol\":9393:9461  user.amount.mul(pool.accPolyPerShare).div(1e18).sub(user.rewardDebt) */\n      tag_162\n        /* \"contracts/distribution/TombGenesisRewardPool.sol\":9445:9449  user */\n      dup3\n        /* \"contracts/distribution/TombGenesisRewardPool.sol\":9445:9460  user.rewardDebt */\n      0x01\n      add\n      sload\n        /* \"contracts/distribution/TombGenesisRewardPool.sol\":9393:9440  user.amount.mul(pool.accPolyPerShare).div(1e18) */\n      tag_163\n        /* \"contracts/distribution/TombGenesisRewardPool.sol\":9435:9439  1e18 */\n      0x0de0b6b3a7640000\n        /* \"contracts/distribution/TombGenesisRewardPool.sol\":9393:9430  user.amount.mul(pool.accPolyPerShare) */\n      tag_164\n        /* \"contracts/distribution/TombGenesisRewardPool.sol\":9409:9413  pool */\n      dup8\n        /* \"contracts/distribution/TombGenesisRewardPool.sol\":9409:9429  pool.accPolyPerShare */\n      0x03\n      add\n      sload\n        /* \"contracts/distribution/TombGenesisRewardPool.sol\":9393:9397  user */\n      dup8\n        /* \"contracts/distribution/TombGenesisRewardPool.sol\":9393:9404  user.amount */\n      0x00\n      add\n      sload\n        /* \"contracts/distribution/TombGenesisRewardPool.sol\":9393:9408  user.amount.mul */\n      tag_138\n      swap1\n        /* \"contracts/distribution/TombGenesisRewardPool.sol\":9393:9430  user.amount.mul(pool.accPolyPerShare) */\n      swap2\n      swap1\n      0xffffffff\n      and\n      jump\t// in\n    tag_164:\n        /* \"contracts/distribution/TombGenesisRewardPool.sol\":9393:9434  user.amount.mul(pool.accPolyPerShare).div */\n      tag_165\n      swap1\n        /* \"contracts/distribution/TombGenesisRewardPool.sol\":9393:9440  user.amount.mul(pool.accPolyPerShare).div(1e18) */\n      swap2\n      swap1\n      0xffffffff\n      and\n      jump\t// in\n    tag_163:\n        /* \"contracts/distribution/TombGenesisRewardPool.sol\":9393:9444  user.amount.mul(pool.accPolyPerShare).div(1e18).sub */\n      tag_129\n      swap1\n        /* \"contracts/distribution/TombGenesisRewardPool.sol\":9393:9461  user.amount.mul(pool.accPolyPerShare).div(1e18).sub(user.rewardDebt) */\n      swap2\n      swap1\n      0xffffffff\n      and\n      jump\t// in\n    tag_162:\n        /* \"contracts/distribution/TombGenesisRewardPool.sol\":9374:9461  uint256 _pending = user.amount.mul(pool.accPolyPerShare).div(1e18).sub(user.rewardDebt) */\n      swap1\n      pop\n        /* \"contracts/distribution/TombGenesisRewardPool.sol\":9487:9488  0 */\n      0x00\n        /* \"contracts/distribution/TombGenesisRewardPool.sol\":9476:9484  _pending */\n      dup2\n        /* \"contracts/distribution/TombGenesisRewardPool.sol\":9476:9488  _pending > 0 */\n      gt\n        /* \"contracts/distribution/TombGenesisRewardPool.sol\":9472:9601  if (_pending > 0) {\r... */\n      iszero\n      tag_166\n      jumpi\n        /* \"contracts/distribution/TombGenesisRewardPool.sol\":9505:9540  safePolyTransfer(_sender, _pending) */\n      tag_167\n        /* \"contracts/distribution/TombGenesisRewardPool.sol\":9522:9529  _sender */\n      dup5\n        /* \"contracts/distribution/TombGenesisRewardPool.sol\":9531:9539  _pending */\n      dup3\n        /* \"contracts/distribution/TombGenesisRewardPool.sol\":9505:9521  safePolyTransfer */\n      tag_168\n        /* \"contracts/distribution/TombGenesisRewardPool.sol\":9505:9540  safePolyTransfer(_sender, _pending) */\n      jump\t// in\n    tag_167:\n        /* \"contracts/distribution/TombGenesisRewardPool.sol\":9571:9578  _sender */\n      dup4\n        /* \"contracts/distribution/TombGenesisRewardPool.sol\":9560:9589  RewardPaid(_sender, _pending) */\n      0xffffffffffffffffffffffffffffffffffffffff\n      and\n      0xe2403640ba68fed3a2f88b7557551d1993f84b99bb10ff833f0cf8db0c5e0486\n        /* \"contracts/distribution/TombGenesisRewardPool.sol\":9580:9588  _pending */\n      dup3\n        /* \"contracts/distribution/TombGenesisRewardPool.sol\":9560:9589  RewardPaid(_sender, _pending) */\n      mload(0x40)\n      dup1\n      dup3\n      dup2\n      mstore\n      0x20\n      add\n      swap2\n      pop\n      pop\n      mload(0x40)\n      dup1\n      swap2\n      sub\n      swap1\n      log2\n        /* \"contracts/distribution/TombGenesisRewardPool.sol\":9472:9601  if (_pending > 0) {\r... */\n    tag_166:\n        /* \"contracts/distribution/TombGenesisRewardPool.sol\":9625:9626  0 */\n      0x00\n        /* \"contracts/distribution/TombGenesisRewardPool.sol\":9615:9622  _amount */\n      dup6\n        /* \"contracts/distribution/TombGenesisRewardPool.sol\":9615:9626  _amount > 0 */\n      gt\n        /* \"contracts/distribution/TombGenesisRewardPool.sol\":9611:9749  if (_amount > 0) {\r... */\n      iszero\n      tag_169\n      jumpi\n        /* \"contracts/distribution/TombGenesisRewardPool.sol\":9657:9681  user.amount.sub(_amount) */\n      tag_170\n        /* \"contracts/distribution/TombGenesisRewardPool.sol\":9673:9680  _amount */\n      dup6\n        /* \"contracts/distribution/TombGenesisRewardPool.sol\":9657:9661  user */\n      dup4\n        /* \"contracts/distribution/TombGenesisRewardPool.sol\":9657:9668  user.amount */\n      0x00\n      add\n      sload\n        /* \"contracts/distribution/TombGenesisRewardPool.sol\":9657:9672  user.amount.sub */\n      tag_129\n      swap1\n        /* \"contracts/distribution/TombGenesisRewardPool.sol\":9657:9681  user.amount.sub(_amount) */\n      swap2\n      swap1\n      0xffffffff\n      and\n      jump\t// in\n    tag_170:\n        /* \"contracts/distribution/TombGenesisRewardPool.sol\":9643:9647  user */\n      dup3\n        /* \"contracts/distribution/TombGenesisRewardPool.sol\":9643:9654  user.amount */\n      0x00\n      add\n        /* \"contracts/distribution/TombGenesisRewardPool.sol\":9643:9681  user.amount = user.amount.sub(_amount) */\n      dup2\n      swap1\n      sstore\n      pop\n        /* \"contracts/distribution/TombGenesisRewardPool.sol\":9696:9737  pool.token.safeTransfer(_sender, _amount) */\n      tag_171\n        /* \"contracts/distribution/TombGenesisRewardPool.sol\":9720:9727  _sender */\n      dup5\n        /* \"contracts/distribution/TombGenesisRewardPool.sol\":9729:9736  _amount */\n      dup7\n        /* \"contracts/distribution/TombGenesisRewardPool.sol\":9696:9700  pool */\n      dup6\n        /* \"contracts/distribution/TombGenesisRewardPool.sol\":9696:9706  pool.token */\n      0x00\n      add\n      0x00\n      swap1\n      sload\n      swap1\n      0x0100\n      exp\n      swap1\n      div\n      0xffffffffffffffffffffffffffffffffffffffff\n      and\n        /* \"contracts/distribution/TombGenesisRewardPool.sol\":9696:9719  pool.token.safeTransfer */\n      0xffffffffffffffffffffffffffffffffffffffff\n      and\n      tag_172\n      swap1\n        /* \"contracts/distribution/TombGenesisRewardPool.sol\":9696:9737  pool.token.safeTransfer(_sender, _amount) */\n      swap3\n      swap2\n      swap1\n      0xffffffff\n      and\n      jump\t// in\n    tag_171:\n        /* \"contracts/distribution/TombGenesisRewardPool.sol\":9611:9749  if (_amount > 0) {\r... */\n    tag_169:\n        /* \"contracts/distribution/TombGenesisRewardPool.sol\":9777:9824  user.amount.mul(pool.accPolyPerShare).div(1e18) */\n      tag_173\n        /* \"contracts/distribution/TombGenesisRewardPool.sol\":9819:9823  1e18 */\n      0x0de0b6b3a7640000\n        /* \"contracts/distribution/TombGenesisRewardPool.sol\":9777:9814  user.amount.mul(pool.accPolyPerShare) */\n      tag_174\n        /* \"contracts/distribution/TombGenesisRewardPool.sol\":9793:9797  pool */\n      dup6\n        /* \"contracts/distribution/TombGenesisRewardPool.sol\":9793:9813  pool.accPolyPerShare */\n      0x03\n      add\n      sload\n        /* \"contracts/distribution/TombGenesisRewardPool.sol\":9777:9781  user */\n      dup6\n        /* \"contracts/distribution/TombGenesisRewardPool.sol\":9777:9788  user.amount */\n      0x00\n      add\n      sload\n        /* \"contracts/distribution/TombGenesisRewardPool.sol\":9777:9792  user.amount.mul */\n      tag_138\n      swap1\n        /* \"contracts/distribution/TombGenesisRewardPool.sol\":9777:9814  user.amount.mul(pool.accPolyPerShare) */\n      swap2\n      swap1\n      0xffffffff\n      and\n      jump\t// in\n    tag_174:\n        /* \"contracts/distribution/TombGenesisRewardPool.sol\":9777:9818  user.amount.mul(pool.accPolyPerShare).div */\n      tag_165\n      swap1\n        /* \"contracts/distribution/TombGenesisRewardPool.sol\":9777:9824  user.amount.mul(pool.accPolyPerShare).div(1e18) */\n      swap2\n      swap1\n      0xffffffff\n      and\n      jump\t// in\n    tag_173:\n        /* \"contracts/distribution/TombGenesisRewardPool.sol\":9759:9763  user */\n      dup3\n        /* \"contracts/distribution/TombGenesisRewardPool.sol\":9759:9774  user.rewardDebt */\n      0x01\n      add\n        /* \"contracts/distribution/TombGenesisRewardPool.sol\":9759:9824  user.rewardDebt = user.amount.mul(pool.accPolyPerShare).div(1e18) */\n      dup2\n      swap1\n      sstore\n      pop\n        /* \"contracts/distribution/TombGenesisRewardPool.sol\":9858:9862  _pid */\n      dup6\n        /* \"contracts/distribution/TombGenesisRewardPool.sol\":9849:9856  _sender */\n      dup5\n        /* \"contracts/distribution/TombGenesisRewardPool.sol\":9840:9872  Withdraw(_sender, _pid, _amount) */\n      0xffffffffffffffffffffffffffffffffffffffff\n      and\n      0xf279e6a1f5e320cca91135676d9cb6e44ca8a08c0b88342bcdb1144f6511b568\n        /* \"contracts/distribution/TombGenesisRewardPool.sol\":9864:9871  _amount */\n      dup8\n        /* \"contracts/distribution/TombGenesisRewardPool.sol\":9840:9872  Withdraw(_sender, _pid, _amount) */\n      mload(0x40)\n      dup1\n      dup3\n      dup2\n      mstore\n      0x20\n      add\n      swap2\n      pop\n      pop\n      mload(0x40)\n      dup1\n      swap2\n      sub\n      swap1\n      log3\n        /* \"contracts/distribution/TombGenesisRewardPool.sol\":9070:9880  function withdraw(uint256 _pid, uint256 _amount) public {\r... */\n      pop\n      pop\n      pop\n      pop\n      pop\n      pop\n      jump\t// out\n        /* \"contracts/owner/Operator.sol\":786:886  function isOperator() public view returns (bool) {\r... */\n    tag_69:\n        /* \"contracts/owner/Operator.sol\":829:833  bool */\n      0x00\n        /* \"contracts/owner/Operator.sol\":869:878  _operator */\n      0x01\n      0x00\n      swap1\n      sload\n      swap1\n      0x0100\n      exp\n      swap1\n      div\n      0xffffffffffffffffffffffffffffffffffffffff\n      and\n        /* \"contracts/owner/Operator.sol\":853:878  _msgSender() == _operator */\n      0xffffffffffffffffffffffffffffffffffffffff\n      and\n        /* \"contracts/owner/Operator.sol\":853:865  _msgSender() */\n      tag_176\n        /* \"contracts/owner/Operator.sol\":853:863  _msgSender */\n      tag_150\n        /* \"contracts/owner/Operator.sol\":853:865  _msgSender() */\n      jump\t// in\n    tag_176:\n        /* \"contracts/owner/Operator.sol\":853:878  _msgSender() == _operator */\n      0xffffffffffffffffffffffffffffffffffffffff\n      and\n      eq\n        /* \"contracts/owner/Operator.sol\":846:878  return _msgSender() == _operator */\n      swap1\n      pop\n        /* \"contracts/owner/Operator.sol\":786:886  function isOperator() public view returns (bool) {\r... */\n      swap1\n      jump\t// out\n        /* \"contracts/distribution/TombGenesisRewardPool.sol\":7052:7960  function updatePool(uint256 _pid) public {\r... */\n    tag_72:\n        /* \"contracts/distribution/TombGenesisRewardPool.sol\":7104:7125  PoolInfo storage pool */\n      0x00\n        /* \"contracts/distribution/TombGenesisRewardPool.sol\":7128:7136  poolInfo */\n      0x05\n        /* \"contracts/distribution/TombGenesisRewardPool.sol\":7137:7141  _pid */\n      dup3\n        /* \"contracts/distribution/TombGenesisRewardPool.sol\":7128:7142  poolInfo[_pid] */\n      dup2\n      sload\n      dup2\n      lt\n      tag_178\n      jumpi\n      invalid\n    tag_178:\n      swap1\n      0x00\n      mstore\n      keccak256(0x00, 0x20)\n      swap1\n      0x05\n      mul\n      add\n        /* \"contracts/distribution/TombGenesisRewardPool.sol\":7104:7142  PoolInfo storage pool = poolInfo[_pid] */\n      swap1\n      pop\n        /* \"contracts/distribution/TombGenesisRewardPool.sol\":7176:7180  pool */\n      dup1\n        /* \"contracts/distribution/TombGenesisRewardPool.sol\":7176:7195  pool.lastRewardTime */\n      0x02\n      add\n      sload\n        /* \"contracts/distribution/TombGenesisRewardPool.sol\":7157:7172  block.timestamp */\n      timestamp\n        /* \"contracts/distribution/TombGenesisRewardPool.sol\":7157:7195  block.timestamp <= pool.lastRewardTime */\n      gt\n        /* \"contracts/distribution/TombGenesisRewardPool.sol\":7153:7230  if (block.timestamp <= pool.lastRewardTime) {\r... */\n      tag_180\n      jumpi\n        /* \"contracts/distribution/TombGenesisRewardPool.sol\":7212:7219  return; */\n      pop\n      jump(tag_177)\n        /* \"contracts/distribution/TombGenesisRewardPool.sol\":7153:7230  if (block.timestamp <= pool.lastRewardTime) {\r... */\n    tag_180:\n        /* \"contracts/distribution/TombGenesisRewardPool.sol\":7240:7259  uint256 tokenSupply */\n      0x00\n        /* \"contracts/distribution/TombGenesisRewardPool.sol\":7262:7266  pool */\n      dup2\n        /* \"contracts/distribution/TombGenesisRewardPool.sol\":7262:7272  pool.token */\n      0x00\n      add\n      0x00\n      swap1\n      sload\n      swap1\n      0x0100\n      exp\n      swap1\n      div\n      0xffffffffffffffffffffffffffffffffffffffff\n      and\n        /* \"contracts/distribution/TombGenesisRewardPool.sol\":7262:7282  pool.token.balanceOf */\n      0xffffffffffffffffffffffffffffffffffffffff\n      and\n      0x70a08231\n        /* \"contracts/distribution/TombGenesisRewardPool.sol\":7291:7295  this */\n      address\n        /* \"contracts/distribution/TombGenesisRewardPool.sol\":7262:7297  pool.token.balanceOf(address(this)) */\n      mload(0x40)\n      dup3\n      0xffffffff\n      and\n      0xe0\n      shl\n      dup2\n      mstore\n      0x04\n      add\n      dup1\n      dup3\n      0xffffffffffffffffffffffffffffffffffffffff\n      and\n      dup2\n      mstore\n      0x20\n      add\n      swap2\n      pop\n      pop\n      0x20\n      mload(0x40)\n      dup1\n      dup4\n      sub\n      dup2\n      dup7\n      dup1\n      extcodesize\n      iszero\n      dup1\n      iszero\n      tag_181\n      jumpi\n      0x00\n      dup1\n      revert\n    tag_181:\n      pop\n      gas\n      staticcall\n      iszero\n      dup1\n      iszero\n      tag_183\n      jumpi\n      returndatasize\n      0x00\n      dup1\n      returndatacopy\n      revert(0x00, returndatasize)\n    tag_183:\n      pop\n      pop\n      pop\n      pop\n      mload(0x40)\n      returndatasize\n      0x20\n      dup2\n      lt\n      iszero\n      tag_184\n      jumpi\n      0x00\n      dup1\n      revert\n    tag_184:\n      dup2\n      add\n      swap1\n      dup1\n      dup1\n      mload\n      swap1\n      0x20\n      add\n      swap1\n      swap3\n      swap2\n      swap1\n      pop\n      pop\n      pop\n        /* \"contracts/distribution/TombGenesisRewardPool.sol\":7240:7297  uint256 tokenSupply = pool.token.balanceOf(address(this)) */\n      swap1\n      pop\n        /* \"contracts/distribution/TombGenesisRewardPool.sol\":7327:7328  0 */\n      0x00\n        /* \"contracts/distribution/TombGenesisRewardPool.sol\":7312:7323  tokenSupply */\n      dup2\n        /* \"contracts/distribution/TombGenesisRewardPool.sol\":7312:7328  tokenSupply == 0 */\n      eq\n        /* \"contracts/distribution/TombGenesisRewardPool.sol\":7308:7415  if (tokenSupply == 0) {\r... */\n      iszero\n      tag_185\n      jumpi\n        /* \"contracts/distribution/TombGenesisRewardPool.sol\":7367:7382  block.timestamp */\n      timestamp\n        /* \"contracts/distribution/TombGenesisRewardPool.sol\":7345:7349  pool */\n      dup3\n        /* \"contracts/distribution/TombGenesisRewardPool.sol\":7345:7364  pool.lastRewardTime */\n      0x02\n      add\n        /* \"contracts/distribution/TombGenesisRewardPool.sol\":7345:7382  pool.lastRewardTime = block.timestamp */\n      dup2\n      swap1\n      sstore\n      pop\n        /* \"contracts/distribution/TombGenesisRewardPool.sol\":7397:7404  return; */\n      pop\n      pop\n      jump(tag_177)\n        /* \"contracts/distribution/TombGenesisRewardPool.sol\":7308:7415  if (tokenSupply == 0) {\r... */\n    tag_185:\n        /* \"contracts/distribution/TombGenesisRewardPool.sol\":7430:7434  pool */\n      dup2\n        /* \"contracts/distribution/TombGenesisRewardPool.sol\":7430:7444  pool.isStarted */\n      0x04\n      add\n      0x00\n      swap1\n      sload\n      swap1\n      0x0100\n      exp\n      swap1\n      div\n      0xff\n      and\n        /* \"contracts/distribution/TombGenesisRewardPool.sol\":7425:7563  if (!pool.isStarted) {\r... */\n      tag_186\n      jumpi\n        /* \"contracts/distribution/TombGenesisRewardPool.sol\":7478:7482  true */\n      0x01\n        /* \"contracts/distribution/TombGenesisRewardPool.sol\":7461:7465  pool */\n      dup3\n        /* \"contracts/distribution/TombGenesisRewardPool.sol\":7461:7475  pool.isStarted */\n      0x04\n      add\n      0x00\n        /* \"contracts/distribution/TombGenesisRewardPool.sol\":7461:7482  pool.isStarted = true */\n      0x0100\n      exp\n      dup2\n      sload\n      dup2\n      0xff\n      mul\n      not\n      and\n      swap1\n      dup4\n      iszero\n      iszero\n      mul\n      or\n      swap1\n      sstore\n      pop\n        /* \"contracts/distribution/TombGenesisRewardPool.sol\":7515:7551  totalAllocPoint.add(pool.allocPoint) */\n      tag_187\n        /* \"contracts/distribution/TombGenesisRewardPool.sol\":7535:7539  pool */\n      dup3\n        /* \"contracts/distribution/TombGenesisRewardPool.sol\":7535:7550  pool.allocPoint */\n      0x01\n      add\n      sload\n        /* \"contracts/distribution/TombGenesisRewardPool.sol\":7515:7530  totalAllocPoint */\n      sload(0x08)\n        /* \"contracts/distribution/TombGenesisRewardPool.sol\":7515:7534  totalAllocPoint.add */\n      tag_130\n      swap1\n        /* \"contracts/distribution/TombGenesisRewardPool.sol\":7515:7551  totalAllocPoint.add(pool.allocPoint) */\n      swap2\n      swap1\n      0xffffffff\n      and\n      jump\t// in\n    tag_187:\n        /* \"contracts/distribution/TombGenesisRewardPool.sol\":7497:7512  totalAllocPoint */\n      0x08\n        /* \"contracts/distribution/TombGenesisRewardPool.sol\":7497:7551  totalAllocPoint = totalAllocPoint.add(pool.allocPoint) */\n      dup2\n      swap1\n      sstore\n      pop\n        /* \"contracts/distribution/TombGenesisRewardPool.sol\":7425:7563  if (!pool.isStarted) {\r... */\n    tag_186:\n        /* \"contracts/distribution/TombGenesisRewardPool.sol\":7595:7596  0 */\n      0x00\n        /* \"contracts/distribution/TombGenesisRewardPool.sol\":7577:7592  totalAllocPoint */\n      sload(0x08)\n        /* \"contracts/distribution/TombGenesisRewardPool.sol\":7577:7596  totalAllocPoint > 0 */\n      gt\n        /* \"contracts/distribution/TombGenesisRewardPool.sol\":7573:7905  if (totalAllocPoint > 0) {\r... */\n      iszero\n      tag_188\n      jumpi\n        /* \"contracts/distribution/TombGenesisRewardPool.sol\":7613:7637  uint256 _generatedReward */\n      0x00\n        /* \"contracts/distribution/TombGenesisRewardPool.sol\":7640:7696  getGeneratedReward(pool.lastRewardTime, block.timestamp) */\n      tag_189\n        /* \"contracts/distribution/TombGenesisRewardPool.sol\":7659:7663  pool */\n      dup4\n        /* \"contracts/distribution/TombGenesisRewardPool.sol\":7659:7678  pool.lastRewardTime */\n      0x02\n      add\n      sload\n        /* \"contracts/distribution/TombGenesisRewardPool.sol\":7680:7695  block.timestamp */\n      timestamp\n        /* \"contracts/distribution/TombGenesisRewardPool.sol\":7640:7658  getGeneratedReward */\n      tag_55\n        /* \"contracts/distribution/TombGenesisRewardPool.sol\":7640:7696  getGeneratedReward(pool.lastRewardTime, block.timestamp) */\n      jump\t// in\n    tag_189:\n        /* \"contracts/distribution/TombGenesisRewardPool.sol\":7613:7696  uint256 _generatedReward = getGeneratedReward(pool.lastRewardTime, block.timestamp) */\n      swap1\n      pop\n        /* \"contracts/distribution/TombGenesisRewardPool.sol\":7711:7730  uint256 _PolyReward */\n      0x00\n        /* \"contracts/distribution/TombGenesisRewardPool.sol\":7733:7791  _generatedReward.mul(pool.allocPoint).div(totalAllocPoint) */\n      tag_190\n        /* \"contracts/distribution/TombGenesisRewardPool.sol\":7775:7790  totalAllocPoint */\n      sload(0x08)\n        /* \"contracts/distribution/TombGenesisRewardPool.sol\":7733:7770  _generatedReward.mul(pool.allocPoint) */\n      tag_191\n        /* \"contracts/distribution/TombGenesisRewardPool.sol\":7754:7758  pool */\n      dup7\n        /* \"contracts/distribution/TombGenesisRewardPool.sol\":7754:7769  pool.allocPoint */\n      0x01\n      add\n      sload\n        /* \"contracts/distribution/TombGenesisRewardPool.sol\":7733:7749  _generatedReward */\n      dup6\n        /* \"contracts/distribution/TombGenesisRewardPool.sol\":7733:7753  _generatedReward.mul */\n      tag_138\n      swap1\n        /* \"contracts/distribution/TombGenesisRewardPool.sol\":7733:7770  _generatedReward.mul(pool.allocPoint) */\n      swap2\n      swap1\n      0xffffffff\n      and\n      jump\t// in\n    tag_191:\n        /* \"contracts/distribution/TombGenesisRewardPool.sol\":7733:7774  _generatedReward.mul(pool.allocPoint).div */\n      tag_165\n      swap1\n        /* \"contracts/distribution/TombGenesisRewardPool.sol\":7733:7791  _generatedReward.mul(pool.allocPoint).div(totalAllocPoint) */\n      swap2\n      swap1\n      0xffffffff\n      and\n      jump\t// in\n    tag_190:\n        /* \"contracts/distribution/TombGenesisRewardPool.sol\":7711:7791  uint256 _PolyReward = _generatedReward.mul(pool.allocPoint).div(totalAllocPoint) */\n      swap1\n      pop\n        /* \"contracts/distribution/TombGenesisRewardPool.sol\":7829:7893  pool.accPolyPerShare.add(_PolyReward.mul(1e18).div(tokenSupply)) */\n      tag_192\n        /* \"contracts/distribution/TombGenesisRewardPool.sol\":7854:7892  _PolyReward.mul(1e18).div(tokenSupply) */\n      tag_193\n        /* \"contracts/distribution/TombGenesisRewardPool.sol\":7880:7891  tokenSupply */\n      dup5\n        /* \"contracts/distribution/TombGenesisRewardPool.sol\":7854:7875  _PolyReward.mul(1e18) */\n      tag_194\n        /* \"contracts/distribution/TombGenesisRewardPool.sol\":7870:7874  1e18 */\n      0x0de0b6b3a7640000\n        /* \"contracts/distribution/TombGenesisRewardPool.sol\":7854:7865  _PolyReward */\n      dup6\n        /* \"contracts/distribution/TombGenesisRewardPool.sol\":7854:7869  _PolyReward.mul */\n      tag_138\n      swap1\n        /* \"contracts/distribution/TombGenesisRewardPool.sol\":7854:7875  _PolyReward.mul(1e18) */\n      swap2\n      swap1\n      0xffffffff\n      and\n      jump\t// in\n    tag_194:\n        /* \"contracts/distribution/TombGenesisRewardPool.sol\":7854:7879  _PolyReward.mul(1e18).div */\n      tag_165\n      swap1\n        /* \"contracts/distribution/TombGenesisRewardPool.sol\":7854:7892  _PolyReward.mul(1e18).div(tokenSupply) */\n      swap2\n      swap1\n      0xffffffff\n      and\n      jump\t// in\n    tag_193:\n        /* \"contracts/distribution/TombGenesisRewardPool.sol\":7829:7833  pool */\n      dup6\n        /* \"contracts/distribution/TombGenesisRewardPool.sol\":7829:7849  pool.accPolyPerShare */\n      0x03\n      add\n      sload\n        /* \"contracts/distribution/TombGenesisRewardPool.sol\":7829:7853  pool.accPolyPerShare.add */\n      tag_130\n      swap1\n        /* \"contracts/distribution/TombGenesisRewardPool.sol\":7829:7893  pool.accPolyPerShare.add(_PolyReward.mul(1e18).div(tokenSupply)) */\n      swap2\n      swap1\n      0xffffffff\n      and\n      jump\t// in\n    tag_192:\n        /* \"contracts/distribution/TombGenesisRewardPool.sol\":7806:7810  pool */\n      dup5\n        /* \"contracts/distribution/TombGenesisRewardPool.sol\":7806:7826  pool.accPolyPerShare */\n      0x03\n      add\n        /* \"contracts/distribution/TombGenesisRewardPool.sol\":7806:7893  pool.accPolyPerShare = pool.accPolyPerShare.add(_PolyReward.mul(1e18).div(tokenSupply)) */\n      dup2\n      swap1\n      sstore\n      pop\n        /* \"contracts/distribution/TombGenesisRewardPool.sol\":7573:7905  if (totalAllocPoint > 0) {\r... */\n      pop\n      pop\n    tag_188:\n        /* \"contracts/distribution/TombGenesisRewardPool.sol\":7937:7952  block.timestamp */\n      timestamp\n        /* \"contracts/distribution/TombGenesisRewardPool.sol\":7915:7919  pool */\n      dup3\n        /* \"contracts/distribution/TombGenesisRewardPool.sol\":7915:7934  pool.lastRewardTime */\n      0x02\n      add\n        /* \"contracts/distribution/TombGenesisRewardPool.sol\":7915:7952  pool.lastRewardTime = block.timestamp */\n      dup2\n      swap1\n      sstore\n      pop\n        /* \"contracts/distribution/TombGenesisRewardPool.sol\":7052:7960  function updatePool(uint256 _pid) public {\r... */\n      pop\n      pop\n    tag_177:\n      pop\n      jump\t// out\n        /* \"contracts/distribution/TombGenesisRewardPool.sol\":9951:10328  function emergencyWithdraw(uint256 _pid) public {\r... */\n    tag_75:\n        /* \"contracts/distribution/TombGenesisRewardPool.sol\":10010:10031  PoolInfo storage pool */\n      0x00\n        /* \"contracts/distribution/TombGenesisRewardPool.sol\":10034:10042  poolInfo */\n      0x05\n        /* \"contracts/distribution/TombGenesisRewardPool.sol\":10043:10047  _pid */\n      dup3\n        /* \"contracts/distribution/TombGenesisRewardPool.sol\":10034:10048  poolInfo[_pid] */\n      dup2\n      sload\n      dup2\n      lt\n      tag_196\n      jumpi\n      invalid\n    tag_196:\n      swap1\n      0x00\n      mstore\n      keccak256(0x00, 0x20)\n      swap1\n      0x05\n      mul\n      add\n        /* \"contracts/distribution/TombGenesisRewardPool.sol\":10010:10048  PoolInfo storage pool = poolInfo[_pid] */\n      swap1\n      pop\n        /* \"contracts/distribution/TombGenesisRewardPool.sol\":10059:10080  UserInfo storage user */\n      0x00\n        /* \"contracts/distribution/TombGenesisRewardPool.sol\":10083:10091  userInfo */\n      0x07\n        /* \"contracts/distribution/TombGenesisRewardPool.sol\":10083:10097  userInfo[_pid] */\n      0x00\n        /* \"contracts/distribution/TombGenesisRewardPool.sol\":10092:10096  _pid */\n      dup5\n        /* \"contracts/distribution/TombGenesisRewardPool.sol\":10083:10097  userInfo[_pid] */\n      dup2\n      mstore\n      0x20\n      add\n      swap1\n      dup2\n      mstore\n      0x20\n      add\n      0x00\n      keccak256\n        /* \"contracts/distribution/TombGenesisRewardPool.sol\":10083:10109  userInfo[_pid][msg.sender] */\n      0x00\n        /* \"contracts/distribution/TombGenesisRewardPool.sol\":10098:10108  msg.sender */\n      caller\n        /* \"contracts/distribution/TombGenesisRewardPool.sol\":10083:10109  userInfo[_pid][msg.sender] */\n      0xffffffffffffffffffffffffffffffffffffffff\n      and\n      0xffffffffffffffffffffffffffffffffffffffff\n      and\n      dup2\n      mstore\n      0x20\n      add\n      swap1\n      dup2\n      mstore\n      0x20\n      add\n      0x00\n      keccak256\n        /* \"contracts/distribution/TombGenesisRewardPool.sol\":10059:10109  UserInfo storage user = userInfo[_pid][msg.sender] */\n      swap1\n      pop\n        /* \"contracts/distribution/TombGenesisRewardPool.sol\":10120:10135  uint256 _amount */\n      0x00\n        /* \"contracts/distribution/TombGenesisRewardPool.sol\":10138:10142  user */\n      dup2\n        /* \"contracts/distribution/TombGenesisRewardPool.sol\":10138:10149  user.amount */\n      0x00\n      add\n      sload\n        /* \"contracts/distribution/TombGenesisRewardPool.sol\":10120:10149  uint256 _amount = user.amount */\n      swap1\n      pop\n        /* \"contracts/distribution/TombGenesisRewardPool.sol\":10174:10175  0 */\n      0x00\n        /* \"contracts/distribution/TombGenesisRewardPool.sol\":10160:10164  user */\n      dup3\n        /* \"contracts/distribution/TombGenesisRewardPool.sol\":10160:10171  user.amount */\n      0x00\n      add\n        /* \"contracts/distribution/TombGenesisRewardPool.sol\":10160:10175  user.amount = 0 */\n      dup2\n      swap1\n      sstore\n      pop\n        /* \"contracts/distribution/TombGenesisRewardPool.sol\":10204:10205  0 */\n      0x00\n        /* \"contracts/distribution/TombGenesisRewardPool.sol\":10186:10190  user */\n      dup3\n        /* \"contracts/distribution/TombGenesisRewardPool.sol\":10186:10201  user.rewardDebt */\n      0x01\n      add\n        /* \"contracts/distribution/TombGenesisRewardPool.sol\":10186:10205  user.rewardDebt = 0 */\n      dup2\n      swap1\n      sstore\n      pop\n        /* \"contracts/distribution/TombGenesisRewardPool.sol\":10216:10260  pool.token.safeTransfer(msg.sender, _amount) */\n      tag_198\n        /* \"contracts/distribution/TombGenesisRewardPool.sol\":10240:10250  msg.sender */\n      caller\n        /* \"contracts/distribution/TombGenesisRewardPool.sol\":10252:10259  _amount */\n      dup3\n        /* \"contracts/distribution/TombGenesisRewardPool.sol\":10216:10220  pool */\n      dup6\n        /* \"contracts/distribution/TombGenesisRewardPool.sol\":10216:10226  pool.token */\n      0x00\n      add\n      0x00\n      swap1\n      sload\n      swap1\n      0x0100\n      exp\n      swap1\n      div\n      0xffffffffffffffffffffffffffffffffffffffff\n      and\n        /* \"contracts/distribution/TombGenesisRewardPool.sol\":10216:10239  pool.token.safeTransfer */\n      0xffffffffffffffffffffffffffffffffffffffff\n      and\n      tag_172\n      swap1\n        /* \"contracts/distribution/TombGenesisRewardPool.sol\":10216:10260  pool.token.safeTransfer(msg.sender, _amount) */\n      swap3\n      swap2\n      swap1\n      0xffffffff\n      and\n      jump\t// in\n    tag_198:\n        /* \"contracts/distribution/TombGenesisRewardPool.sol\":10306:10310  _pid */\n      dup4\n        /* \"contracts/distribution/TombGenesisRewardPool.sol\":10294:10304  msg.sender */\n      caller\n        /* \"contracts/distribution/TombGenesisRewardPool.sol\":10276:10320  EmergencyWithdraw(msg.sender, _pid, _amount) */\n      0xffffffffffffffffffffffffffffffffffffffff\n      and\n      0xbb757047c2b5f3974fe26b7c10f732e7bce710b0952a71082702781e62ae0595\n        /* \"contracts/distribution/TombGenesisRewardPool.sol\":10312:10319  _amount */\n      dup4\n        /* \"contracts/distribution/TombGenesisRewardPool.sol\":10276:10320  EmergencyWithdraw(msg.sender, _pid, _amount) */\n      mload(0x40)\n      dup1\n      dup3\n      dup2\n      mstore\n      0x20\n      add\n      swap2\n      pop\n      pop\n      mload(0x40)\n      dup1\n      swap2\n      sub\n      swap1\n      log3\n        /* \"contracts/distribution/TombGenesisRewardPool.sol\":9951:10328  function emergencyWithdraw(uint256 _pid) public {\r... */\n      pop\n      pop\n      pop\n      pop\n      jump\t// out\n        /* \"contracts/distribution/TombGenesisRewardPool.sol\":10945:11549  function governanceRecoverUnsupported(IERC20 _token, uint256 amount, address to) external onlyOperator {\r... */\n    tag_78:\n        /* \"contracts/owner/Operator.sol\":684:694  msg.sender */\n      caller\n        /* \"contracts/owner/Operator.sol\":671:694  _operator == msg.sender */\n      0xffffffffffffffffffffffffffffffffffffffff\n      and\n        /* \"contracts/owner/Operator.sol\":671:680  _operator */\n      0x01\n      0x00\n      swap1\n      sload\n      swap1\n      0x0100\n      exp\n      swap1\n      div\n      0xffffffffffffffffffffffffffffffffffffffff\n      and\n        /* \"contracts/owner/Operator.sol\":671:694  _operator == msg.sender */\n      0xffffffffffffffffffffffffffffffffffffffff\n      and\n      eq\n        /* \"contracts/owner/Operator.sol\":649:758  require(\r... */\n      tag_200\n      jumpi\n      mload(0x40)\n      0x08c379a000000000000000000000000000000000000000000000000000000000\n      dup2\n      mstore\n      0x04\n      add\n      dup1\n      dup1\n      0x20\n      add\n      dup3\n      dup2\n      sub\n      dup3\n      mstore\n      0x24\n      dup2\n      mstore\n      0x20\n      add\n      dup1\n      data_a62bfdba5053072911b63b0f6325b0e83fcd28b5a847d97efdd966feb4daaafb\n      0x24\n      swap2\n      codecopy\n      0x40\n      add\n      swap2\n      pop\n      pop\n      mload(0x40)\n      dup1\n      swap2\n      sub\n      swap1\n      revert\n    tag_200:\n        /* \"contracts/distribution/TombGenesisRewardPool.sol\":11095:11102  90 days */\n      0x76a700\n        /* \"contracts/distribution/TombGenesisRewardPool.sol\":11081:11092  poolEndTime */\n      sload(0x0a)\n        /* \"contracts/distribution/TombGenesisRewardPool.sol\":11081:11102  poolEndTime + 90 days */\n      add\n        /* \"contracts/distribution/TombGenesisRewardPool.sol\":11063:11078  block.timestamp */\n      timestamp\n        /* \"contracts/distribution/TombGenesisRewardPool.sol\":11063:11102  block.timestamp < poolEndTime + 90 days */\n      lt\n        /* \"contracts/distribution/TombGenesisRewardPool.sol\":11059:11500  if (block.timestamp < poolEndTime + 90 days) {\r... */\n      iszero\n      tag_202\n      jumpi\n        /* \"contracts/distribution/TombGenesisRewardPool.sol\":11237:11241  Poly */\n      0x02\n      0x00\n      swap1\n      sload\n      swap1\n      0x0100\n      exp\n      swap1\n      div\n      0xffffffffffffffffffffffffffffffffffffffff\n      and\n        /* \"contracts/distribution/TombGenesisRewardPool.sol\":11227:11241  _token != Poly */\n      0xffffffffffffffffffffffffffffffffffffffff\n      and\n        /* \"contracts/distribution/TombGenesisRewardPool.sol\":11227:11233  _token */\n      dup4\n        /* \"contracts/distribution/TombGenesisRewardPool.sol\":11227:11241  _token != Poly */\n      0xffffffffffffffffffffffffffffffffffffffff\n      and\n      eq\n      iszero\n        /* \"contracts/distribution/TombGenesisRewardPool.sol\":11219:11250  require(_token != Poly, \"Poly\") */\n      tag_203\n      jumpi\n      mload(0x40)\n      0x08c379a000000000000000000000000000000000000000000000000000000000\n      dup2\n      mstore\n      0x04\n      add\n      dup1\n      dup1\n      0x20\n      add\n      dup3\n      dup2\n      sub\n      dup3\n      mstore\n      0x04\n      dup2\n      mstore\n      0x20\n      add\n      dup1\n      0x506f6c7900000000000000000000000000000000000000000000000000000000\n      dup2\n      mstore\n      pop\n      0x20\n      add\n      swap2\n      pop\n      pop\n      mload(0x40)\n      dup1\n      swap2\n      sub\n      swap1\n      revert\n    tag_203:\n        /* \"contracts/distribution/TombGenesisRewardPool.sol\":11265:11279  uint256 length */\n      0x00\n        /* \"contracts/distribution/TombGenesisRewardPool.sol\":11282:11290  poolInfo */\n      0x05\n        /* \"contracts/distribution/TombGenesisRewardPool.sol\":11282:11297  poolInfo.length */\n      dup1\n      sload\n      swap1\n      pop\n        /* \"contracts/distribution/TombGenesisRewardPool.sol\":11265:11297  uint256 length = poolInfo.length */\n      swap1\n      pop\n        /* \"contracts/distribution/TombGenesisRewardPool.sol\":11317:11328  uint256 pid */\n      0x00\n        /* \"contracts/distribution/TombGenesisRewardPool.sol\":11312:11489  for (uint256 pid = 0; pid < length; ++pid) {\r... */\n    tag_204:\n        /* \"contracts/distribution/TombGenesisRewardPool.sol\":11340:11346  length */\n      dup2\n        /* \"contracts/distribution/TombGenesisRewardPool.sol\":11334:11337  pid */\n      dup2\n        /* \"contracts/distribution/TombGenesisRewardPool.sol\":11334:11346  pid < length */\n      lt\n        /* \"contracts/distribution/TombGenesisRewardPool.sol\":11312:11489  for (uint256 pid = 0; pid < length; ++pid) {\r... */\n      iszero\n      tag_205\n      jumpi\n        /* \"contracts/distribution/TombGenesisRewardPool.sol\":11374:11395  PoolInfo storage pool */\n      0x00\n        /* \"contracts/distribution/TombGenesisRewardPool.sol\":11398:11406  poolInfo */\n      0x05\n        /* \"contracts/distribution/TombGenesisRewardPool.sol\":11407:11410  pid */\n      dup3\n        /* \"contracts/distribution/TombGenesisRewardPool.sol\":11398:11411  poolInfo[pid] */\n      dup2\n      sload\n      dup2\n      lt\n      tag_207\n      jumpi\n      invalid\n    tag_207:\n      swap1\n      0x00\n      mstore\n      keccak256(0x00, 0x20)\n      swap1\n      0x05\n      mul\n      add\n        /* \"contracts/distribution/TombGenesisRewardPool.sol\":11374:11411  PoolInfo storage pool = poolInfo[pid] */\n      swap1\n      pop\n        /* \"contracts/distribution/TombGenesisRewardPool.sol\":11448:11452  pool */\n      dup1\n        /* \"contracts/distribution/TombGenesisRewardPool.sol\":11448:11458  pool.token */\n      0x00\n      add\n      0x00\n      swap1\n      sload\n      swap1\n      0x0100\n      exp\n      swap1\n      div\n      0xffffffffffffffffffffffffffffffffffffffff\n      and\n        /* \"contracts/distribution/TombGenesisRewardPool.sol\":11438:11458  _token != pool.token */\n      0xffffffffffffffffffffffffffffffffffffffff\n      and\n        /* \"contracts/distribution/TombGenesisRewardPool.sol\":11438:11444  _token */\n      dup7\n        /* \"contracts/distribution/TombGenesisRewardPool.sol\":11438:11458  _token != pool.token */\n      0xffffffffffffffffffffffffffffffffffffffff\n      and\n      eq\n      iszero\n        /* \"contracts/distribution/TombGenesisRewardPool.sol\":11430:11473  require(_token != pool.token, \"pool.token\") */\n      tag_209\n      jumpi\n      mload(0x40)\n      0x08c379a000000000000000000000000000000000000000000000000000000000\n      dup2\n      mstore\n      0x04\n      add\n      dup1\n      dup1\n      0x20\n      add\n      dup3\n      dup2\n      sub\n      dup3\n      mstore\n      0x0a\n      dup2\n      mstore\n      0x20\n      add\n      dup1\n      0x706f6f6c2e746f6b656e00000000000000000000000000000000000000000000\n      dup2\n      mstore\n      pop\n      0x20\n      add\n      swap2\n      pop\n      pop\n      mload(0x40)\n      dup1\n      swap2\n      sub\n      swap1\n      revert\n    tag_209:\n        /* \"contracts/distribution/TombGenesisRewardPool.sol\":11312:11489  for (uint256 pid = 0; pid < length; ++pid) {\r... */\n      pop\n        /* \"contracts/distribution/TombGenesisRewardPool.sol\":11348:11353  ++pid */\n      dup1\n      0x01\n      add\n      swap1\n      pop\n        /* \"contracts/distribution/TombGenesisRewardPool.sol\":11312:11489  for (uint256 pid = 0; pid < length; ++pid) {\r... */\n      jump(tag_204)\n    tag_205:\n      pop\n        /* \"contracts/distribution/TombGenesisRewardPool.sol\":11059:11500  if (block.timestamp < poolEndTime + 90 days) {\r... */\n      pop\n    tag_202:\n        /* \"contracts/distribution/TombGenesisRewardPool.sol\":11510:11541  _token.safeTransfer(to, amount) */\n      tag_210\n        /* \"contracts/distribution/TombGenesisRewardPool.sol\":11530:11532  to */\n      dup2\n        /* \"contracts/distribution/TombGenesisRewardPool.sol\":11534:11540  amount */\n      dup4\n        /* \"contracts/distribution/TombGenesisRewardPool.sol\":11510:11516  _token */\n      dup6\n        /* \"contracts/distribution/TombGenesisRewardPool.sol\":11510:11529  _token.safeTransfer */\n      0xffffffffffffffffffffffffffffffffffffffff\n      and\n      tag_172\n      swap1\n        /* \"contracts/distribution/TombGenesisRewardPool.sol\":11510:11541  _token.safeTransfer(to, amount) */\n      swap3\n      swap2\n      swap1\n      0xffffffff\n      and\n      jump\t// in\n    tag_210:\n        /* \"contracts/distribution/TombGenesisRewardPool.sol\":10945:11549  function governanceRecoverUnsupported(IERC20 _token, uint256 amount, address to) external onlyOperator {\r... */\n      pop\n      pop\n      pop\n      jump\t// out\n        /* \"contracts/owner/Operator.sol\":521:606  function operator() public view returns (address) {\r... */\n    tag_80:\n        /* \"contracts/owner/Operator.sol\":562:569  address */\n      0x00\n        /* \"contracts/owner/Operator.sol\":589:598  _operator */\n      0x01\n      0x00\n      swap1\n      sload\n      swap1\n      0x0100\n      exp\n      swap1\n      div\n      0xffffffffffffffffffffffffffffffffffffffff\n      and\n        /* \"contracts/owner/Operator.sol\":582:598  return _operator */\n      swap1\n      pop\n        /* \"contracts/owner/Operator.sol\":521:606  function operator() public view returns (address) {\r... */\n      swap1\n      jump\t// out\n        /* \"contracts/distribution/TombGenesisRewardPool.sol\":1727:1755  uint256 public poolStartTime */\n    tag_82:\n      sload(0x09)\n      dup2\n      jump\t// out\n        /* \"contracts/distribution/TombGenesisRewardPool.sol\":6796:6976  function massUpdatePools() public {\r... */\n    tag_84:\n        /* \"contracts/distribution/TombGenesisRewardPool.sol\":6841:6855  uint256 length */\n      0x00\n        /* \"contracts/distribution/TombGenesisRewardPool.sol\":6858:6866  poolInfo */\n      0x05\n        /* \"contracts/distribution/TombGenesisRewardPool.sol\":6858:6873  poolInfo.length */\n      dup1\n      sload\n      swap1\n      pop\n        /* \"contracts/distribution/TombGenesisRewardPool.sol\":6841:6873  uint256 length = poolInfo.length */\n      swap1\n      pop\n        /* \"contracts/distribution/TombGenesisRewardPool.sol\":6889:6900  uint256 pid */\n      0x00\n        /* \"contracts/distribution/TombGenesisRewardPool.sol\":6884:6969  for (uint256 pid = 0; pid < length; ++pid) {\r... */\n    tag_213:\n        /* \"contracts/distribution/TombGenesisRewardPool.sol\":6912:6918  length */\n      dup2\n        /* \"contracts/distribution/TombGenesisRewardPool.sol\":6906:6909  pid */\n      dup2\n        /* \"contracts/distribution/TombGenesisRewardPool.sol\":6906:6918  pid < length */\n      lt\n        /* \"contracts/distribution/TombGenesisRewardPool.sol\":6884:6969  for (uint256 pid = 0; pid < length; ++pid) {\r... */\n      iszero\n      tag_214\n      jumpi\n        /* \"contracts/distribution/TombGenesisRewardPool.sol\":6942:6957  updatePool(pid) */\n      tag_216\n        /* \"contracts/distribution/TombGenesisRewardPool.sol\":6953:6956  pid */\n      dup2\n        /* \"contracts/distribution/TombGenesisRewardPool.sol\":6942:6952  updatePool */\n      tag_72\n        /* \"contracts/distribution/TombGenesisRewardPool.sol\":6942:6957  updatePool(pid) */\n      jump\t// in\n    tag_216:\n        /* \"contracts/distribution/TombGenesisRewardPool.sol\":6920:6925  ++pid */\n      dup1\n      0x01\n      add\n      swap1\n      pop\n        /* \"contracts/distribution/TombGenesisRewardPool.sol\":6884:6969  for (uint256 pid = 0; pid < length; ++pid) {\r... */\n      jump(tag_213)\n    tag_214:\n      pop\n        /* \"contracts/distribution/TombGenesisRewardPool.sol\":6796:6976  function massUpdatePools() public {\r... */\n      pop\n      jump\t// out\n        /* \"contracts/distribution/TombGenesisRewardPool.sol\":1804:1830  uint256 public poolEndTime */\n    tag_86:\n      sload(0x0a)\n      dup2\n      jump\t// out\n        /* \"@openzeppelin/contracts/access/Ownable.sol\":1771:1916  function renounceOwnership() public virtual onlyOwner {... */\n    tag_88:\n        /* \"@openzeppelin/contracts/access/Ownable.sol\":1362:1374  _msgSender() */\n      tag_218\n        /* \"@openzeppelin/contracts/access/Ownable.sol\":1362:1372  _msgSender */\n      tag_150\n        /* \"@openzeppelin/contracts/access/Ownable.sol\":1362:1374  _msgSender() */\n      jump\t// in\n    tag_218:\n        /* \"@openzeppelin/contracts/access/Ownable.sol\":1351:1374  owner() == _msgSender() */\n      0xffffffffffffffffffffffffffffffffffffffff\n      and\n        /* \"@openzeppelin/contracts/access/Ownable.sol\":1351:1358  owner() */\n      tag_219\n        /* \"@openzeppelin/contracts/access/Ownable.sol\":1351:1356  owner */\n      tag_90\n        /* \"@openzeppelin/contracts/access/Ownable.sol\":1351:1358  owner() */\n      jump\t// in\n    tag_219:\n        /* \"@openzeppelin/contracts/access/Ownable.sol\":1351:1374  owner() == _msgSender() */\n      0xffffffffffffffffffffffffffffffffffffffff\n      and\n      eq\n        /* \"@openzeppelin/contracts/access/Ownable.sol\":1343:1411  require(owner() == _msgSender(), \"Ownable: caller is not the owner\") */\n      tag_220\n      jumpi\n      mload(0x40)\n      0x08c379a000000000000000000000000000000000000000000000000000000000\n      dup2\n      mstore\n      0x04\n      add\n      dup1\n      dup1\n      0x20\n      add\n      dup3\n      dup2\n      sub\n      dup3\n      mstore\n      0x20\n      dup2\n      mstore\n      0x20\n      add\n      dup1\n      0x4f776e61626c653a2063616c6c6572206973206e6f7420746865206f776e6572\n      dup2\n      mstore\n      pop\n      0x20\n      add\n      swap2\n      pop\n      pop\n      mload(0x40)\n      dup1\n      swap2\n      sub\n      swap1\n      revert\n    tag_220:\n        /* \"@openzeppelin/contracts/access/Ownable.sol\":1877:1878  0 */\n      0x00\n        /* \"@openzeppelin/contracts/access/Ownable.sol\":1840:1880  OwnershipTransferred(_owner, address(0)) */\n      0xffffffffffffffffffffffffffffffffffffffff\n      and\n        /* \"@openzeppelin/contracts/access/Ownable.sol\":1861:1867  _owner */\n      0x00\n      dup1\n      sload\n      swap1\n      0x0100\n      exp\n      swap1\n      div\n      0xffffffffffffffffffffffffffffffffffffffff\n      and\n        /* \"@openzeppelin/contracts/access/Ownable.sol\":1840:1880  OwnershipTransferred(_owner, address(0)) */\n      0xffffffffffffffffffffffffffffffffffffffff\n      and\n      0x8be0079c531659141344cd1fd0a4f28419497f9722a3daafe3b4186f6b6457e0\n      mload(0x40)\n      mload(0x40)\n      dup1\n      swap2\n      sub\n      swap1\n      log3\n        /* \"@openzeppelin/contracts/access/Ownable.sol\":1907:1908  0 */\n      0x00\n        /* \"@openzeppelin/contracts/access/Ownable.sol\":1890:1896  _owner */\n      dup1\n      0x00\n        /* \"@openzeppelin/contracts/access/Ownable.sol\":1890:1909  _owner = address(0) */\n      0x0100\n      exp\n      dup2\n      sload\n      dup2\n      0xffffffffffffffffffffffffffffffffffffffff\n      mul\n      not\n      and\n      swap1\n      dup4\n      0xffffffffffffffffffffffffffffffffffffffff\n      and\n      mul\n      or\n      swap1\n      sstore\n      pop\n        /* \"@openzeppelin/contracts/access/Ownable.sol\":1771:1916  function renounceOwnership() public virtual onlyOwner {... */\n      jump\t// out\n        /* \"@openzeppelin/contracts/access/Ownable.sol\":1139:1224  function owner() public view virtual returns (address) {... */\n    tag_90:\n        /* \"@openzeppelin/contracts/access/Ownable.sol\":1185:1192  address */\n      0x00\n        /* \"@openzeppelin/contracts/access/Ownable.sol\":1211:1217  _owner */\n      dup1\n      0x00\n      swap1\n      sload\n      swap1\n      0x0100\n      exp\n      swap1\n      div\n      0xffffffffffffffffffffffffffffffffffffffff\n      and\n        /* \"@openzeppelin/contracts/access/Ownable.sol\":1204:1217  return _owner */\n      swap1\n      pop\n        /* \"@openzeppelin/contracts/access/Ownable.sol\":1139:1224  function owner() public view virtual returns (address) {... */\n      swap1\n      jump\t// out\n        /* \"contracts/distribution/TombGenesisRewardPool.sol\":1481:1545  mapping(uint256 => mapping(address => UserInfo)) public userInfo */\n    tag_93:\n      mstore(0x20, 0x07)\n      dup2\n      0x00\n      mstore\n      mstore(0x20, keccak256(0x00, 0x40))\n      dup1\n      0x00\n      mstore\n      keccak256(0x00, 0x40)\n      0x00\n      swap2\n      pop\n      swap2\n      pop\n      pop\n      dup1\n      0x00\n      add\n      sload\n      swap1\n      dup1\n      0x01\n      add\n      sload\n      swap1\n      pop\n      dup3\n      jump\t// out\n        /* \"contracts/distribution/TombGenesisRewardPool.sol\":1942:1977  uint256 public runningTime = 3 days */\n    tag_95:\n      sload(0x0c)\n      dup2\n      jump\t// out\n        /* \"contracts/distribution/TombGenesisRewardPool.sol\":3423:4699  function add(\r... */\n    tag_98:\n        /* \"contracts/owner/Operator.sol\":684:694  msg.sender */\n      caller\n        /* \"contracts/owner/Operator.sol\":671:694  _operator == msg.sender */\n      0xffffffffffffffffffffffffffffffffffffffff\n      and\n        /* \"contracts/owner/Operator.sol\":671:680  _operator */\n      0x01\n      0x00\n      swap1\n      sload\n      swap1\n      0x0100\n      exp\n      swap1\n      div\n      0xffffffffffffffffffffffffffffffffffffffff\n      and\n        /* \"contracts/owner/Operator.sol\":671:694  _operator == msg.sender */\n      0xffffffffffffffffffffffffffffffffffffffff\n      and\n      eq\n        /* \"contracts/owner/Operator.sol\":649:758  require(\r... */\n      tag_224\n      jumpi\n      mload(0x40)\n      0x08c379a000000000000000000000000000000000000000000000000000000000\n      dup2\n      mstore\n      0x04\n      add\n      dup1\n      dup1\n      0x20\n      add\n      dup3\n      dup2\n      sub\n      dup3\n      mstore\n      0x24\n      dup2\n      mstore\n      0x20\n      add\n      dup1\n      data_a62bfdba5053072911b63b0f6325b0e83fcd28b5a847d97efdd966feb4daaafb\n      0x24\n      swap2\n      codecopy\n      0x40\n      add\n      swap2\n      pop\n      pop\n      mload(0x40)\n      dup1\n      swap2\n      sub\n      swap1\n      revert\n    tag_224:\n        /* \"contracts/distribution/TombGenesisRewardPool.sol\":3589:3615  checkPoolDuplicate(_token) */\n      tag_226\n        /* \"contracts/distribution/TombGenesisRewardPool.sol\":3608:3614  _token */\n      dup4\n        /* \"contracts/distribution/TombGenesisRewardPool.sol\":3589:3607  checkPoolDuplicate */\n      tag_227\n        /* \"contracts/distribution/TombGenesisRewardPool.sol\":3589:3615  checkPoolDuplicate(_token) */\n      jump\t// in\n    tag_226:\n        /* \"contracts/distribution/TombGenesisRewardPool.sol\":3630:3641  _withUpdate */\n      dup2\n        /* \"contracts/distribution/TombGenesisRewardPool.sol\":3626:3687  if (_withUpdate) {\r... */\n      iszero\n      tag_228\n      jumpi\n        /* \"contracts/distribution/TombGenesisRewardPool.sol\":3658:3675  massUpdatePools() */\n      tag_229\n        /* \"contracts/distribution/TombGenesisRewardPool.sol\":3658:3673  massUpdatePools */\n      tag_84\n        /* \"contracts/distribution/TombGenesisRewardPool.sol\":3658:3675  massUpdatePools() */\n      jump\t// in\n    tag_229:\n        /* \"contracts/distribution/TombGenesisRewardPool.sol\":3626:3687  if (_withUpdate) {\r... */\n    tag_228:\n        /* \"contracts/distribution/TombGenesisRewardPool.sol\":3719:3732  poolStartTime */\n      sload(0x09)\n        /* \"contracts/distribution/TombGenesisRewardPool.sol\":3701:3716  block.timestamp */\n      timestamp\n        /* \"contracts/distribution/TombGenesisRewardPool.sol\":3701:3732  block.timestamp < poolStartTime */\n      lt\n        /* \"contracts/distribution/TombGenesisRewardPool.sol\":3697:4231  if (block.timestamp < poolStartTime) {\r... */\n      iszero\n      tag_230\n      jumpi\n        /* \"contracts/distribution/TombGenesisRewardPool.sol\":3805:3806  0 */\n      0x00\n        /* \"contracts/distribution/TombGenesisRewardPool.sol\":3786:3801  _lastRewardTime */\n      dup2\n        /* \"contracts/distribution/TombGenesisRewardPool.sol\":3786:3806  _lastRewardTime == 0 */\n      eq\n        /* \"contracts/distribution/TombGenesisRewardPool.sol\":3782:4025  if (_lastRewardTime == 0) {\r... */\n      iszero\n      tag_231\n      jumpi\n        /* \"contracts/distribution/TombGenesisRewardPool.sol\":3845:3858  poolStartTime */\n      sload(0x09)\n        /* \"contracts/distribution/TombGenesisRewardPool.sol\":3827:3858  _lastRewardTime = poolStartTime */\n      swap1\n      pop\n        /* \"contracts/distribution/TombGenesisRewardPool.sol\":3782:4025  if (_lastRewardTime == 0) {\r... */\n      jump(tag_232)\n    tag_231:\n        /* \"contracts/distribution/TombGenesisRewardPool.sol\":3921:3934  poolStartTime */\n      sload(0x09)\n        /* \"contracts/distribution/TombGenesisRewardPool.sol\":3903:3918  _lastRewardTime */\n      dup2\n        /* \"contracts/distribution/TombGenesisRewardPool.sol\":3903:3934  _lastRewardTime < poolStartTime */\n      lt\n        /* \"contracts/distribution/TombGenesisRewardPool.sol\":3899:4010  if (_lastRewardTime < poolStartTime) {\r... */\n      iszero\n      tag_233\n      jumpi\n        /* \"contracts/distribution/TombGenesisRewardPool.sol\":3977:3990  poolStartTime */\n      sload(0x09)\n        /* \"contracts/distribution/TombGenesisRewardPool.sol\":3959:3990  _lastRewardTime = poolStartTime */\n      swap1\n      pop\n        /* \"contracts/distribution/TombGenesisRewardPool.sol\":3899:4010  if (_lastRewardTime < poolStartTime) {\r... */\n    tag_233:\n        /* \"contracts/distribution/TombGenesisRewardPool.sol\":3782:4025  if (_lastRewardTime == 0) {\r... */\n    tag_232:\n        /* \"contracts/distribution/TombGenesisRewardPool.sol\":3697:4231  if (block.timestamp < poolStartTime) {\r... */\n      jump(tag_234)\n    tag_230:\n        /* \"contracts/distribution/TombGenesisRewardPool.sol\":4112:4113  0 */\n      0x00\n        /* \"contracts/distribution/TombGenesisRewardPool.sol\":4093:4108  _lastRewardTime */\n      dup2\n        /* \"contracts/distribution/TombGenesisRewardPool.sol\":4093:4113  _lastRewardTime == 0 */\n      eq\n        /* \"contracts/distribution/TombGenesisRewardPool.sol\":4093:4150  _lastRewardTime == 0 || _lastRewardTime < block.timestamp */\n      dup1\n      tag_235\n      jumpi\n      pop\n        /* \"contracts/distribution/TombGenesisRewardPool.sol\":4135:4150  block.timestamp */\n      timestamp\n        /* \"contracts/distribution/TombGenesisRewardPool.sol\":4117:4132  _lastRewardTime */\n      dup2\n        /* \"contracts/distribution/TombGenesisRewardPool.sol\":4117:4150  _lastRewardTime < block.timestamp */\n      lt\n        /* \"contracts/distribution/TombGenesisRewardPool.sol\":4093:4150  _lastRewardTime == 0 || _lastRewardTime < block.timestamp */\n    tag_235:\n        /* \"contracts/distribution/TombGenesisRewardPool.sol\":4089:4220  if (_lastRewardTime == 0 || _lastRewardTime < block.timestamp) {\r... */\n      iszero\n      tag_236\n      jumpi\n        /* \"contracts/distribution/TombGenesisRewardPool.sol\":4189:4204  block.timestamp */\n      timestamp\n        /* \"contracts/distribution/TombGenesisRewardPool.sol\":4171:4204  _lastRewardTime = block.timestamp */\n      swap1\n      pop\n        /* \"contracts/distribution/TombGenesisRewardPool.sol\":4089:4220  if (_lastRewardTime == 0 || _lastRewardTime < block.timestamp) {\r... */\n    tag_236:\n        /* \"contracts/distribution/TombGenesisRewardPool.sol\":3697:4231  if (block.timestamp < poolStartTime) {\r... */\n    tag_234:\n        /* \"contracts/distribution/TombGenesisRewardPool.sol\":4241:4256  bool _isStarted */\n      0x00\n        /* \"contracts/distribution/TombGenesisRewardPool.sol\":4288:4301  poolStartTime */\n      sload(0x09)\n        /* \"contracts/distribution/TombGenesisRewardPool.sol\":4269:4284  _lastRewardTime */\n      dup3\n        /* \"contracts/distribution/TombGenesisRewardPool.sol\":4269:4301  _lastRewardTime <= poolStartTime */\n      gt\n      iszero\n        /* \"contracts/distribution/TombGenesisRewardPool.sol\":4268:4351  (_lastRewardTime <= poolStartTime) ||\r... */\n      dup1\n      tag_237\n      jumpi\n      pop\n        /* \"contracts/distribution/TombGenesisRewardPool.sol\":4335:4350  block.timestamp */\n      timestamp\n        /* \"contracts/distribution/TombGenesisRewardPool.sol\":4316:4331  _lastRewardTime */\n      dup3\n        /* \"contracts/distribution/TombGenesisRewardPool.sol\":4316:4350  _lastRewardTime <= block.timestamp */\n      gt\n      iszero\n        /* \"contracts/distribution/TombGenesisRewardPool.sol\":4268:4351  (_lastRewardTime <= poolStartTime) ||\r... */\n    tag_237:\n        /* \"contracts/distribution/TombGenesisRewardPool.sol\":4241:4351  bool _isStarted =\r... */\n      swap1\n      pop\n        /* \"contracts/distribution/TombGenesisRewardPool.sol\":4362:4370  poolInfo */\n      0x05\n        /* \"contracts/distribution/TombGenesisRewardPool.sol\":4376:4587  PoolInfo({\r... */\n      mload(0x40)\n      dup1\n      0xa0\n      add\n      0x40\n      mstore\n      dup1\n        /* \"contracts/distribution/TombGenesisRewardPool.sol\":4408:4414  _token */\n      dup7\n        /* \"contracts/distribution/TombGenesisRewardPool.sol\":4376:4587  PoolInfo({\r... */\n      0xffffffffffffffffffffffffffffffffffffffff\n      and\n      dup2\n      mstore\n      0x20\n      add\n        /* \"contracts/distribution/TombGenesisRewardPool.sol\":4442:4453  _allocPoint */\n      dup8\n        /* \"contracts/distribution/TombGenesisRewardPool.sol\":4376:4587  PoolInfo({\r... */\n      dup2\n      mstore\n      0x20\n      add\n        /* \"contracts/distribution/TombGenesisRewardPool.sol\":4485:4500  _lastRewardTime */\n      dup5\n        /* \"contracts/distribution/TombGenesisRewardPool.sol\":4376:4587  PoolInfo({\r... */\n      dup2\n      mstore\n      0x20\n      add\n        /* \"contracts/distribution/TombGenesisRewardPool.sol\":4533:4534  0 */\n      0x00\n        /* \"contracts/distribution/TombGenesisRewardPool.sol\":4376:4587  PoolInfo({\r... */\n      dup2\n      mstore\n      0x20\n      add\n        /* \"contracts/distribution/TombGenesisRewardPool.sol\":4561:4571  _isStarted */\n      dup4\n        /* \"contracts/distribution/TombGenesisRewardPool.sol\":4376:4587  PoolInfo({\r... */\n      iszero\n      iszero\n      dup2\n      mstore\n      pop\n        /* \"contracts/distribution/TombGenesisRewardPool.sol\":4362:4588  poolInfo.push(PoolInfo({\r... */\n      swap1\n      dup1\n      0x01\n      dup2\n      sload\n      add\n      dup1\n      dup3\n      sstore\n      dup1\n      swap2\n      pop\n      pop\n      0x01\n      swap1\n      sub\n      swap1\n      0x00\n      mstore\n      keccak256(0x00, 0x20)\n      swap1\n      0x05\n      mul\n      add\n      0x00\n      swap1\n      swap2\n      swap1\n      swap2\n      swap1\n      swap2\n      pop\n      0x00\n      dup3\n      add\n      mload\n      dup2\n      0x00\n      add\n      exp(0x0100, 0x00)\n      dup2\n      sload\n      dup2\n      0xffffffffffffffffffffffffffffffffffffffff\n      mul\n      not\n      and\n      swap1\n      dup4\n      0xffffffffffffffffffffffffffffffffffffffff\n      and\n      mul\n      or\n      swap1\n      sstore\n      pop\n      0x20\n      dup3\n      add\n      mload\n      dup2\n      0x01\n      add\n      sstore\n      0x40\n      dup3\n      add\n      mload\n      dup2\n      0x02\n      add\n      sstore\n      0x60\n      dup3\n      add\n      mload\n      dup2\n      0x03\n      add\n      sstore\n      0x80\n      dup3\n      add\n      mload\n      dup2\n      0x04\n      add\n      exp(0x0100, 0x00)\n      dup2\n      sload\n      dup2\n      0xff\n      mul\n      not\n      and\n      swap1\n      dup4\n      iszero\n      iszero\n      mul\n      or\n      swap1\n      sstore\n      pop\n      pop\n      pop\n        /* \"contracts/distribution/TombGenesisRewardPool.sol\":4603:4613  _isStarted */\n      dup1\n        /* \"contracts/distribution/TombGenesisRewardPool.sol\":4599:4692  if (_isStarted) {\r... */\n      iszero\n      tag_239\n      jumpi\n        /* \"contracts/distribution/TombGenesisRewardPool.sol\":4648:4680  totalAllocPoint.add(_allocPoint) */\n      tag_240\n        /* \"contracts/distribution/TombGenesisRewardPool.sol\":4668:4679  _allocPoint */\n      dup6\n        /* \"contracts/distribution/TombGenesisRewardPool.sol\":4648:4663  totalAllocPoint */\n      sload(0x08)\n        /* \"contracts/distribution/TombGenesisRewardPool.sol\":4648:4667  totalAllocPoint.add */\n      tag_130\n      swap1\n        /* \"contracts/distribution/TombGenesisRewardPool.sol\":4648:4680  totalAllocPoint.add(_allocPoint) */\n      swap2\n      swap1\n      0xffffffff\n      and\n      jump\t// in\n    tag_240:\n        /* \"contracts/distribution/TombGenesisRewardPool.sol\":4630:4645  totalAllocPoint */\n      0x08\n        /* \"contracts/distribution/TombGenesisRewardPool.sol\":4630:4680  totalAllocPoint = totalAllocPoint.add(_allocPoint) */\n      dup2\n      swap1\n      sstore\n      pop\n        /* \"contracts/distribution/TombGenesisRewardPool.sol\":4599:4692  if (_isStarted) {\r... */\n    tag_239:\n        /* \"contracts/owner/Operator.sol\":769:770  _ */\n      pop\n        /* \"contracts/distribution/TombGenesisRewardPool.sol\":3423:4699  function add(\r... */\n      pop\n      pop\n      pop\n      pop\n      jump\t// out\n        /* \"contracts/distribution/TombGenesisRewardPool.sol\":10823:10937  function setOperator(address _Newoperator) external onlyOperator {\r... */\n    tag_101:\n        /* \"contracts/owner/Operator.sol\":684:694  msg.sender */\n      caller\n        /* \"contracts/owner/Operator.sol\":671:694  _operator == msg.sender */\n      0xffffffffffffffffffffffffffffffffffffffff\n      and\n        /* \"contracts/owner/Operator.sol\":671:680  _operator */\n      0x01\n      0x00\n      swap1\n      sload\n      swap1\n      0x0100\n      exp\n      swap1\n      div\n      0xffffffffffffffffffffffffffffffffffffffff\n      and\n        /* \"contracts/owner/Operator.sol\":671:694  _operator == msg.sender */\n      0xffffffffffffffffffffffffffffffffffffffff\n      and\n      eq\n        /* \"contracts/owner/Operator.sol\":649:758  require(\r... */\n      tag_242\n      jumpi\n      mload(0x40)\n      0x08c379a000000000000000000000000000000000000000000000000000000000\n      dup2\n      mstore\n      0x04\n      add\n      dup1\n      dup1\n      0x20\n      add\n      dup3\n      dup2\n      sub\n      dup3\n      mstore\n      0x24\n      dup2\n      mstore\n      0x20\n      add\n      dup1\n      data_a62bfdba5053072911b63b0f6325b0e83fcd28b5a847d97efdd966feb4daaafb\n      0x24\n      swap2\n      codecopy\n      0x40\n      add\n      swap2\n      pop\n      pop\n      mload(0x40)\n      dup1\n      swap2\n      sub\n      swap1\n      revert\n    tag_242:\n        /* \"contracts/distribution/TombGenesisRewardPool.sol\":10899:10929  transferOperator(_Newoperator) */\n      tag_244\n        /* \"contracts/distribution/TombGenesisRewardPool.sol\":10916:10928  _Newoperator */\n      dup2\n        /* \"contracts/distribution/TombGenesisRewardPool.sol\":10899:10915  transferOperator */\n      tag_58\n        /* \"contracts/distribution/TombGenesisRewardPool.sol\":10899:10929  transferOperator(_Newoperator) */\n      jump\t// in\n    tag_244:\n        /* \"contracts/distribution/TombGenesisRewardPool.sol\":10823:10937  function setOperator(address _Newoperator) external onlyOperator {\r... */\n      pop\n      jump\t// out\n        /* \"contracts/distribution/TombGenesisRewardPool.sol\":2650:3074  function initialize (\r... */\n    tag_104:\n        /* \"contracts/distribution/TombGenesisRewardPool.sol\":2429:2440  initialized */\n      0x06\n      0x00\n      swap1\n      sload\n      swap1\n      0x0100\n      exp\n      swap1\n      div\n      0xff\n      and\n        /* \"contracts/distribution/TombGenesisRewardPool.sol\":2428:2440  !initialized */\n      iszero\n        /* \"contracts/distribution/TombGenesisRewardPool.sol\":2420:2473  require(!initialized, \"Genesis: already initialized\") */\n      tag_246\n      jumpi\n      mload(0x40)\n      0x08c379a000000000000000000000000000000000000000000000000000000000\n      dup2\n      mstore\n      0x04\n      add\n      dup1\n      dup1\n      0x20\n      add\n      dup3\n      dup2\n      sub\n      dup3\n      mstore\n      0x1c\n      dup2\n      mstore\n      0x20\n      add\n      dup1\n      0x47656e657369733a20616c726561647920696e697469616c697a656400000000\n      dup2\n      mstore\n      pop\n      0x20\n      add\n      swap2\n      pop\n      pop\n      mload(0x40)\n      dup1\n      swap2\n      sub\n      swap1\n      revert\n    tag_246:\n        /* \"contracts/owner/Operator.sol\":684:694  msg.sender */\n      caller\n        /* \"contracts/owner/Operator.sol\":671:694  _operator == msg.sender */\n      0xffffffffffffffffffffffffffffffffffffffff\n      and\n        /* \"contracts/owner/Operator.sol\":671:680  _operator */\n      0x01\n      0x00\n      swap1\n      sload\n      swap1\n      0x0100\n      exp\n      swap1\n      div\n      0xffffffffffffffffffffffffffffffffffffffff\n      and\n        /* \"contracts/owner/Operator.sol\":671:694  _operator == msg.sender */\n      0xffffffffffffffffffffffffffffffffffffffff\n      and\n      eq\n        /* \"contracts/owner/Operator.sol\":649:758  require(\r... */\n      tag_248\n      jumpi\n      mload(0x40)\n      0x08c379a000000000000000000000000000000000000000000000000000000000\n      dup2\n      mstore\n      0x04\n      add\n      dup1\n      dup1\n      0x20\n      add\n      dup3\n      dup2\n      sub\n      dup3\n      mstore\n      0x24\n      dup2\n      mstore\n      0x20\n      add\n      dup1\n      data_a62bfdba5053072911b63b0f6325b0e83fcd28b5a847d97efdd966feb4daaafb\n      0x24\n      swap2\n      codecopy\n      0x40\n      add\n      swap2\n      pop\n      pop\n      mload(0x40)\n      dup1\n      swap2\n      sub\n      swap1\n      revert\n    tag_248:\n        /* \"contracts/distribution/TombGenesisRewardPool.sol\":2807:2821  _poolStartTime */\n      dup1\n        /* \"contracts/distribution/TombGenesisRewardPool.sol\":2789:2804  block.timestamp */\n      timestamp\n        /* \"contracts/distribution/TombGenesisRewardPool.sol\":2789:2821  block.timestamp < _poolStartTime */\n      lt\n        /* \"contracts/distribution/TombGenesisRewardPool.sol\":2781:2830  require(block.timestamp < _poolStartTime, \"late\") */\n      tag_250\n      jumpi\n      mload(0x40)\n      0x08c379a000000000000000000000000000000000000000000000000000000000\n      dup2\n      mstore\n      0x04\n      add\n      dup1\n      dup1\n      0x20\n      add\n      dup3\n      dup2\n      sub\n      dup3\n      mstore\n      0x04\n      dup2\n      mstore\n      0x20\n      add\n      dup1\n      0x6c61746500000000000000000000000000000000000000000000000000000000\n      dup2\n      mstore\n      pop\n      0x20\n      add\n      swap2\n      pop\n      pop\n      mload(0x40)\n      dup1\n      swap2\n      sub\n      swap1\n      revert\n    tag_250:\n        /* \"contracts/distribution/TombGenesisRewardPool.sol\":2862:2863  0 */\n      0x00\n        /* \"contracts/distribution/TombGenesisRewardPool.sol\":2845:2864  _Poly != address(0) */\n      0xffffffffffffffffffffffffffffffffffffffff\n      and\n        /* \"contracts/distribution/TombGenesisRewardPool.sol\":2845:2850  _Poly */\n      dup3\n        /* \"contracts/distribution/TombGenesisRewardPool.sol\":2845:2864  _Poly != address(0) */\n      0xffffffffffffffffffffffffffffffffffffffff\n      and\n      eq\n        /* \"contracts/distribution/TombGenesisRewardPool.sol\":2841:2886  if (_Poly != address(0)) Poly = IERC20(_Poly) */\n      tag_251\n      jumpi\n        /* \"contracts/distribution/TombGenesisRewardPool.sol\":2880:2885  _Poly */\n      dup2\n        /* \"contracts/distribution/TombGenesisRewardPool.sol\":2866:2870  Poly */\n      0x02\n      0x00\n        /* \"contracts/distribution/TombGenesisRewardPool.sol\":2866:2886  Poly = IERC20(_Poly) */\n      0x0100\n      exp\n      dup2\n      sload\n      dup2\n      0xffffffffffffffffffffffffffffffffffffffff\n      mul\n      not\n      and\n      swap1\n      dup4\n      0xffffffffffffffffffffffffffffffffffffffff\n      and\n      mul\n      or\n      swap1\n      sstore\n      pop\n        /* \"contracts/distribution/TombGenesisRewardPool.sol\":2841:2886  if (_Poly != address(0)) Poly = IERC20(_Poly) */\n    tag_251:\n        /* \"contracts/distribution/TombGenesisRewardPool.sol\":2912:2922  msg.sender */\n      caller\n        /* \"contracts/distribution/TombGenesisRewardPool.sol\":2897:2909  _feeColector */\n      0x04\n      0x00\n        /* \"contracts/distribution/TombGenesisRewardPool.sol\":2897:2922  _feeColector = msg.sender */\n      0x0100\n      exp\n      dup2\n      sload\n      dup2\n      0xffffffffffffffffffffffffffffffffffffffff\n      mul\n      not\n      and\n      swap1\n      dup4\n      0xffffffffffffffffffffffffffffffffffffffff\n      and\n      mul\n      or\n      swap1\n      sstore\n      pop\n        /* \"contracts/distribution/TombGenesisRewardPool.sol\":2949:2963  _poolStartTime */\n      dup1\n        /* \"contracts/distribution/TombGenesisRewardPool.sol\":2933:2946  poolStartTime */\n      0x09\n        /* \"contracts/distribution/TombGenesisRewardPool.sol\":2933:2963  poolStartTime = _poolStartTime */\n      dup2\n      swap1\n      sstore\n      pop\n        /* \"contracts/distribution/TombGenesisRewardPool.sol\":3004:3015  runningTime */\n      sload(0x0c)\n        /* \"contracts/distribution/TombGenesisRewardPool.sol\":2988:3001  poolStartTime */\n      sload(0x09)\n        /* \"contracts/distribution/TombGenesisRewardPool.sol\":2988:3015  poolStartTime + runningTime */\n      add\n        /* \"contracts/distribution/TombGenesisRewardPool.sol\":2974:2985  poolEndTime */\n      0x0a\n        /* \"contracts/distribution/TombGenesisRewardPool.sol\":2974:3015  poolEndTime = poolStartTime + runningTime */\n      dup2\n      swap1\n      sstore\n      pop\n        /* \"contracts/distribution/TombGenesisRewardPool.sol\":3034:3037  200 */\n      0xc8\n        /* \"contracts/distribution/TombGenesisRewardPool.sol\":3026:3031  _fees */\n      0x03\n        /* \"contracts/distribution/TombGenesisRewardPool.sol\":3026:3037  _fees = 200 */\n      dup2\n      swap1\n      sstore\n      pop\n        /* \"contracts/distribution/TombGenesisRewardPool.sol\":3062:3066  true */\n      0x01\n        /* \"contracts/distribution/TombGenesisRewardPool.sol\":3048:3059  initialized */\n      0x06\n      0x00\n        /* \"contracts/distribution/TombGenesisRewardPool.sol\":3048:3066  initialized = true */\n      0x0100\n      exp\n      dup2\n      sload\n      dup2\n      0xff\n      mul\n      not\n      and\n      swap1\n      dup4\n      iszero\n      iszero\n      mul\n      or\n      swap1\n      sstore\n      pop\n        /* \"contracts/distribution/TombGenesisRewardPool.sol\":2650:3074  function initialize (\r... */\n      pop\n      pop\n      jump\t// out\n        /* \"contracts/distribution/TombGenesisRewardPool.sol\":1253:1273  uint256 public _fees */\n    tag_106:\n      sload(0x03)\n      dup2\n      jump\t// out\n        /* \"contracts/distribution/TombGenesisRewardPool.sol\":1214:1232  IERC20 public Poly */\n    tag_108:\n      0x02\n      0x00\n      swap1\n      sload\n      swap1\n      0x0100\n      exp\n      swap1\n      div\n      0xffffffffffffffffffffffffffffffffffffffff\n      and\n      dup2\n      jump\t// out\n        /* \"contracts/distribution/TombGenesisRewardPool.sol\":7997:9034  function deposit(uint256 _pid, uint256 _amount) public {\r... */\n    tag_111:\n        /* \"contracts/distribution/TombGenesisRewardPool.sol\":8063:8078  address _sender */\n      0x00\n        /* \"contracts/distribution/TombGenesisRewardPool.sol\":8081:8091  msg.sender */\n      caller\n        /* \"contracts/distribution/TombGenesisRewardPool.sol\":8063:8091  address _sender = msg.sender */\n      swap1\n      pop\n        /* \"contracts/distribution/TombGenesisRewardPool.sol\":8102:8114  uint256 _fee */\n      0x00\n        /* \"contracts/distribution/TombGenesisRewardPool.sol\":8117:8136  _amount.ceil(_fees) */\n      tag_253\n        /* \"contracts/distribution/TombGenesisRewardPool.sol\":8130:8135  _fees */\n      sload(0x03)\n        /* \"contracts/distribution/TombGenesisRewardPool.sol\":8117:8124  _amount */\n      dup5\n        /* \"contracts/distribution/TombGenesisRewardPool.sol\":8117:8129  _amount.ceil */\n      tag_254\n      swap1\n        /* \"contracts/distribution/TombGenesisRewardPool.sol\":8117:8136  _amount.ceil(_fees) */\n      swap2\n      swap1\n      0xffffffff\n      and\n      jump\t// in\n    tag_253:\n        /* \"contracts/distribution/TombGenesisRewardPool.sol\":8102:8136  uint256 _fee = _amount.ceil(_fees) */\n      swap1\n      pop\n        /* \"contracts/distribution/TombGenesisRewardPool.sol\":8147:8159  uint256 _new */\n      0x00\n        /* \"contracts/distribution/TombGenesisRewardPool.sol\":8162:8188  _fee.mul(_fees).div(10000) */\n      tag_255\n        /* \"contracts/distribution/TombGenesisRewardPool.sol\":8182:8187  10000 */\n      0x2710\n        /* \"contracts/distribution/TombGenesisRewardPool.sol\":8162:8177  _fee.mul(_fees) */\n      tag_256\n        /* \"contracts/distribution/TombGenesisRewardPool.sol\":8171:8176  _fees */\n      sload(0x03)\n        /* \"contracts/distribution/TombGenesisRewardPool.sol\":8162:8166  _fee */\n      dup6\n        /* \"contracts/distribution/TombGenesisRewardPool.sol\":8162:8170  _fee.mul */\n      tag_138\n      swap1\n        /* \"contracts/distribution/TombGenesisRewardPool.sol\":8162:8177  _fee.mul(_fees) */\n      swap2\n      swap1\n      0xffffffff\n      and\n      jump\t// in\n    tag_256:\n        /* \"contracts/distribution/TombGenesisRewardPool.sol\":8162:8181  _fee.mul(_fees).div */\n      tag_165\n      swap1\n        /* \"contracts/distribution/TombGenesisRewardPool.sol\":8162:8188  _fee.mul(_fees).div(10000) */\n      swap2\n      swap1\n      0xffffffff\n      and\n      jump\t// in\n    tag_255:\n        /* \"contracts/distribution/TombGenesisRewardPool.sol\":8147:8188  uint256 _new = _fee.mul(_fees).div(10000) */\n      swap1\n      pop\n        /* \"contracts/distribution/TombGenesisRewardPool.sol\":8199:8217  uint256 _newAmount */\n      0x00\n        /* \"contracts/distribution/TombGenesisRewardPool.sol\":8220:8237  _amount.sub(_new) */\n      tag_257\n        /* \"contracts/distribution/TombGenesisRewardPool.sol\":8232:8236  _new */\n      dup3\n        /* \"contracts/distribution/TombGenesisRewardPool.sol\":8220:8227  _amount */\n      dup7\n        /* \"contracts/distribution/TombGenesisRewardPool.sol\":8220:8231  _amount.sub */\n      tag_129\n      swap1\n        /* \"contracts/distribution/TombGenesisRewardPool.sol\":8220:8237  _amount.sub(_new) */\n      swap2\n      swap1\n      0xffffffff\n      and\n      jump\t// in\n    tag_257:\n        /* \"contracts/distribution/TombGenesisRewardPool.sol\":8199:8237  uint256 _newAmount = _amount.sub(_new) */\n      swap1\n      pop\n        /* \"contracts/distribution/TombGenesisRewardPool.sol\":8250:8271  PoolInfo storage pool */\n      0x00\n        /* \"contracts/distribution/TombGenesisRewardPool.sol\":8274:8282  poolInfo */\n      0x05\n        /* \"contracts/distribution/TombGenesisRewardPool.sol\":8283:8287  _pid */\n      dup8\n        /* \"contracts/distribution/TombGenesisRewardPool.sol\":8274:8288  poolInfo[_pid] */\n      dup2\n      sload\n      dup2\n      lt\n      tag_258\n      jumpi\n      invalid\n    tag_258:\n      swap1\n      0x00\n      mstore\n      keccak256(0x00, 0x20)\n      swap1\n      0x05\n      mul\n      add\n        /* \"contracts/distribution/TombGenesisRewardPool.sol\":8250:8288  PoolInfo storage pool = poolInfo[_pid] */\n      swap1\n      pop\n        /* \"contracts/distribution/TombGenesisRewardPool.sol\":8299:8320  UserInfo storage user */\n      0x00\n        /* \"contracts/distribution/TombGenesisRewardPool.sol\":8323:8331  userInfo */\n      0x07\n        /* \"contracts/distribution/TombGenesisRewardPool.sol\":8323:8337  userInfo[_pid] */\n      0x00\n        /* \"contracts/distribution/TombGenesisRewardPool.sol\":8332:8336  _pid */\n      dup10\n        /* \"contracts/distribution/TombGenesisRewardPool.sol\":8323:8337  userInfo[_pid] */\n      dup2\n      mstore\n      0x20\n      add\n      swap1\n      dup2\n      mstore\n      0x20\n      add\n      0x00\n      keccak256\n        /* \"contracts/distribution/TombGenesisRewardPool.sol\":8323:8346  userInfo[_pid][_sender] */\n      0x00\n        /* \"contracts/distribution/TombGenesisRewardPool.sol\":8338:8345  _sender */\n      dup8\n        /* \"contracts/distribution/TombGenesisRewardPool.sol\":8323:8346  userInfo[_pid][_sender] */\n      0xffffffffffffffffffffffffffffffffffffffff\n      and\n      0xffffffffffffffffffffffffffffffffffffffff\n      and\n      dup2\n      mstore\n      0x20\n      add\n      swap1\n      dup2\n      mstore\n      0x20\n      add\n      0x00\n      keccak256\n        /* \"contracts/distribution/TombGenesisRewardPool.sol\":8299:8346  UserInfo storage user = userInfo[_pid][_sender] */\n      swap1\n      pop\n        /* \"contracts/distribution/TombGenesisRewardPool.sol\":8357:8373  updatePool(_pid) */\n      tag_260\n        /* \"contracts/distribution/TombGenesisRewardPool.sol\":8368:8372  _pid */\n      dup9\n        /* \"contracts/distribution/TombGenesisRewardPool.sol\":8357:8367  updatePool */\n      tag_72\n        /* \"contracts/distribution/TombGenesisRewardPool.sol\":8357:8373  updatePool(_pid) */\n      jump\t// in\n    tag_260:\n        /* \"contracts/distribution/TombGenesisRewardPool.sol\":8404:8405  0 */\n      0x00\n        /* \"contracts/distribution/TombGenesisRewardPool.sol\":8390:8394  user */\n      dup2\n        /* \"contracts/distribution/TombGenesisRewardPool.sol\":8390:8401  user.amount */\n      0x00\n      add\n      sload\n        /* \"contracts/distribution/TombGenesisRewardPool.sol\":8390:8405  user.amount > 0 */\n      gt\n        /* \"contracts/distribution/TombGenesisRewardPool.sol\":8386:8676  if (user.amount > 0) {\r... */\n      iszero\n      tag_261\n      jumpi\n        /* \"contracts/distribution/TombGenesisRewardPool.sol\":8422:8438  uint256 _pending */\n      0x00\n        /* \"contracts/distribution/TombGenesisRewardPool.sol\":8441:8509  user.amount.mul(pool.accPolyPerShare).div(1e18).sub(user.rewardDebt) */\n      tag_262\n        /* \"contracts/distribution/TombGenesisRewardPool.sol\":8493:8497  user */\n      dup3\n        /* \"contracts/distribution/TombGenesisRewardPool.sol\":8493:8508  user.rewardDebt */\n      0x01\n      add\n      sload\n        /* \"contracts/distribution/TombGenesisRewardPool.sol\":8441:8488  user.amount.mul(pool.accPolyPerShare).div(1e18) */\n      tag_263\n        /* \"contracts/distribution/TombGenesisRewardPool.sol\":8483:8487  1e18 */\n      0x0de0b6b3a7640000\n        /* \"contracts/distribution/TombGenesisRewardPool.sol\":8441:8478  user.amount.mul(pool.accPolyPerShare) */\n      tag_264\n        /* \"contracts/distribution/TombGenesisRewardPool.sol\":8457:8461  pool */\n      dup8\n        /* \"contracts/distribution/TombGenesisRewardPool.sol\":8457:8477  pool.accPolyPerShare */\n      0x03\n      add\n      sload\n        /* \"contracts/distribution/TombGenesisRewardPool.sol\":8441:8445  user */\n      dup8\n        /* \"contracts/distribution/TombGenesisRewardPool.sol\":8441:8452  user.amount */\n      0x00\n      add\n      sload\n        /* \"contracts/distribution/TombGenesisRewardPool.sol\":8441:8456  user.amount.mul */\n      tag_138\n      swap1\n        /* \"contracts/distribution/TombGenesisRewardPool.sol\":8441:8478  user.amount.mul(pool.accPolyPerShare) */\n      swap2\n      swap1\n      0xffffffff\n      and\n      jump\t// in\n    tag_264:\n        /* \"contracts/distribution/TombGenesisRewardPool.sol\":8441:8482  user.amount.mul(pool.accPolyPerShare).div */\n      tag_165\n      swap1\n        /* \"contracts/distribution/TombGenesisRewardPool.sol\":8441:8488  user.amount.mul(pool.accPolyPerShare).div(1e18) */\n      swap2\n      swap1\n      0xffffffff\n      and\n      jump\t// in\n    tag_263:\n        /* \"contracts/distribution/TombGenesisRewardPool.sol\":8441:8492  user.amount.mul(pool.accPolyPerShare).div(1e18).sub */\n      tag_129\n      swap1\n        /* \"contracts/distribution/TombGenesisRewardPool.sol\":8441:8509  user.amount.mul(pool.accPolyPerShare).div(1e18).sub(user.rewardDebt) */\n      swap2\n      swap1\n      0xffffffff\n      and\n      jump\t// in\n    tag_262:\n        /* \"contracts/distribution/TombGenesisRewardPool.sol\":8422:8509  uint256 _pending = user.amount.mul(pool.accPolyPerShare).div(1e18).sub(user.rewardDebt) */\n      swap1\n      pop\n        /* \"contracts/distribution/TombGenesisRewardPool.sol\":8539:8540  0 */\n      0x00\n        /* \"contracts/distribution/TombGenesisRewardPool.sol\":8528:8536  _pending */\n      dup2\n        /* \"contracts/distribution/TombGenesisRewardPool.sol\":8528:8540  _pending > 0 */\n      gt\n        /* \"contracts/distribution/TombGenesisRewardPool.sol\":8524:8665  if (_pending > 0) {\r... */\n      iszero\n      tag_265\n      jumpi\n        /* \"contracts/distribution/TombGenesisRewardPool.sol\":8561:8596  safePolyTransfer(_sender, _pending) */\n      tag_266\n        /* \"contracts/distribution/TombGenesisRewardPool.sol\":8578:8585  _sender */\n      dup8\n        /* \"contracts/distribution/TombGenesisRewardPool.sol\":8587:8595  _pending */\n      dup3\n        /* \"contracts/distribution/TombGenesisRewardPool.sol\":8561:8577  safePolyTransfer */\n      tag_168\n        /* \"contracts/distribution/TombGenesisRewardPool.sol\":8561:8596  safePolyTransfer(_sender, _pending) */\n      jump\t// in\n    tag_266:\n        /* \"contracts/distribution/TombGenesisRewardPool.sol\":8631:8638  _sender */\n      dup7\n        /* \"contracts/distribution/TombGenesisRewardPool.sol\":8620:8649  RewardPaid(_sender, _pending) */\n      0xffffffffffffffffffffffffffffffffffffffff\n      and\n      0xe2403640ba68fed3a2f88b7557551d1993f84b99bb10ff833f0cf8db0c5e0486\n        /* \"contracts/distribution/TombGenesisRewardPool.sol\":8640:8648  _pending */\n      dup3\n        /* \"contracts/distribution/TombGenesisRewardPool.sol\":8620:8649  RewardPaid(_sender, _pending) */\n      mload(0x40)\n      dup1\n      dup3\n      dup2\n      mstore\n      0x20\n      add\n      swap2\n      pop\n      pop\n      mload(0x40)\n      dup1\n      swap2\n      sub\n      swap1\n      log2\n        /* \"contracts/distribution/TombGenesisRewardPool.sol\":8524:8665  if (_pending > 0) {\r... */\n    tag_265:\n        /* \"contracts/distribution/TombGenesisRewardPool.sol\":8386:8676  if (user.amount > 0) {\r... */\n      pop\n    tag_261:\n        /* \"contracts/distribution/TombGenesisRewardPool.sol\":8700:8701  0 */\n      0x00\n        /* \"contracts/distribution/TombGenesisRewardPool.sol\":8690:8697  _amount */\n      dup8\n        /* \"contracts/distribution/TombGenesisRewardPool.sol\":8690:8701  _amount > 0 */\n      gt\n        /* \"contracts/distribution/TombGenesisRewardPool.sol\":8686:8904  if (_amount > 0) {\r... */\n      iszero\n      tag_267\n      jumpi\n        /* \"contracts/distribution/TombGenesisRewardPool.sol\":8718:8778  pool.token.safeTransferFrom(_sender, address(this), _amount) */\n      tag_268\n        /* \"contracts/distribution/TombGenesisRewardPool.sol\":8746:8753  _sender */\n      dup7\n        /* \"contracts/distribution/TombGenesisRewardPool.sol\":8763:8767  this */\n      address\n        /* \"contracts/distribution/TombGenesisRewardPool.sol\":8770:8777  _amount */\n      dup10\n        /* \"contracts/distribution/TombGenesisRewardPool.sol\":8718:8722  pool */\n      dup6\n        /* \"contracts/distribution/TombGenesisRewardPool.sol\":8718:8728  pool.token */\n      0x00\n      add\n      0x00\n      swap1\n      sload\n      swap1\n      0x0100\n      exp\n      swap1\n      div\n      0xffffffffffffffffffffffffffffffffffffffff\n      and\n        /* \"contracts/distribution/TombGenesisRewardPool.sol\":8718:8745  pool.token.safeTransferFrom */\n      0xffffffffffffffffffffffffffffffffffffffff\n      and\n      tag_269\n      swap1\n        /* \"contracts/distribution/TombGenesisRewardPool.sol\":8718:8778  pool.token.safeTransferFrom(_sender, address(this), _amount) */\n      swap4\n      swap3\n      swap2\n      swap1\n      0xffffffff\n      and\n      jump\t// in\n    tag_268:\n        /* \"contracts/distribution/TombGenesisRewardPool.sol\":8807:8834  user.amount.add(_newAmount) */\n      tag_270\n        /* \"contracts/distribution/TombGenesisRewardPool.sol\":8823:8833  _newAmount */\n      dup4\n        /* \"contracts/distribution/TombGenesisRewardPool.sol\":8807:8811  user */\n      dup3\n        /* \"contracts/distribution/TombGenesisRewardPool.sol\":8807:8818  user.amount */\n      0x00\n      add\n      sload\n        /* \"contracts/distribution/TombGenesisRewardPool.sol\":8807:8822  user.amount.add */\n      tag_130\n      swap1\n        /* \"contracts/distribution/TombGenesisRewardPool.sol\":8807:8834  user.amount.add(_newAmount) */\n      swap2\n      swap1\n      0xffffffff\n      and\n      jump\t// in\n    tag_270:\n        /* \"contracts/distribution/TombGenesisRewardPool.sol\":8793:8797  user */\n      dup2\n        /* \"contracts/distribution/TombGenesisRewardPool.sol\":8793:8804  user.amount */\n      0x00\n      add\n        /* \"contracts/distribution/TombGenesisRewardPool.sol\":8793:8834  user.amount = user.amount.add(_newAmount) */\n      dup2\n      swap1\n      sstore\n      pop\n        /* \"contracts/distribution/TombGenesisRewardPool.sol\":8849:8892  pool.token.safeTransfer(_feeColector, _fee) */\n      tag_271\n        /* \"contracts/distribution/TombGenesisRewardPool.sol\":8873:8885  _feeColector */\n      0x04\n      0x00\n      swap1\n      sload\n      swap1\n      0x0100\n      exp\n      swap1\n      div\n      0xffffffffffffffffffffffffffffffffffffffff\n      and\n        /* \"contracts/distribution/TombGenesisRewardPool.sol\":8887:8891  _fee */\n      dup7\n        /* \"contracts/distribution/TombGenesisRewardPool.sol\":8849:8853  pool */\n      dup5\n        /* \"contracts/distribution/TombGenesisRewardPool.sol\":8849:8859  pool.token */\n      0x00\n      add\n      0x00\n      swap1\n      sload\n      swap1\n      0x0100\n      exp\n      swap1\n      div\n      0xffffffffffffffffffffffffffffffffffffffff\n      and\n        /* \"contracts/distribution/TombGenesisRewardPool.sol\":8849:8872  pool.token.safeTransfer */\n      0xffffffffffffffffffffffffffffffffffffffff\n      and\n      tag_172\n      swap1\n        /* \"contracts/distribution/TombGenesisRewardPool.sol\":8849:8892  pool.token.safeTransfer(_feeColector, _fee) */\n      swap3\n      swap2\n      swap1\n      0xffffffff\n      and\n      jump\t// in\n    tag_271:\n        /* \"contracts/distribution/TombGenesisRewardPool.sol\":8686:8904  if (_amount > 0) {\r... */\n    tag_267:\n        /* \"contracts/distribution/TombGenesisRewardPool.sol\":8932:8979  user.amount.mul(pool.accPolyPerShare).div(1e18) */\n      tag_272\n        /* \"contracts/distribution/TombGenesisRewardPool.sol\":8974:8978  1e18 */\n      0x0de0b6b3a7640000\n        /* \"contracts/distribution/TombGenesisRewardPool.sol\":8932:8969  user.amount.mul(pool.accPolyPerShare) */\n      tag_273\n        /* \"contracts/distribution/TombGenesisRewardPool.sol\":8948:8952  pool */\n      dup5\n        /* \"contracts/distribution/TombGenesisRewardPool.sol\":8948:8968  pool.accPolyPerShare */\n      0x03\n      add\n      sload\n        /* \"contracts/distribution/TombGenesisRewardPool.sol\":8932:8936  user */\n      dup5\n        /* \"contracts/distribution/TombGenesisRewardPool.sol\":8932:8943  user.amount */\n      0x00\n      add\n      sload\n        /* \"contracts/distribution/TombGenesisRewardPool.sol\":8932:8947  user.amount.mul */\n      tag_138\n      swap1\n        /* \"contracts/distribution/TombGenesisRewardPool.sol\":8932:8969  user.amount.mul(pool.accPolyPerShare) */\n      swap2\n      swap1\n      0xffffffff\n      and\n      jump\t// in\n    tag_273:\n        /* \"contracts/distribution/TombGenesisRewardPool.sol\":8932:8973  user.amount.mul(pool.accPolyPerShare).div */\n      tag_165\n      swap1\n        /* \"contracts/distribution/TombGenesisRewardPool.sol\":8932:8979  user.amount.mul(pool.accPolyPerShare).div(1e18) */\n      swap2\n      swap1\n      0xffffffff\n      and\n      jump\t// in\n    tag_272:\n        /* \"contracts/distribution/TombGenesisRewardPool.sol\":8914:8918  user */\n      dup2\n        /* \"contracts/distribution/TombGenesisRewardPool.sol\":8914:8929  user.rewardDebt */\n      0x01\n      add\n        /* \"contracts/distribution/TombGenesisRewardPool.sol\":8914:8979  user.rewardDebt = user.amount.mul(pool.accPolyPerShare).div(1e18) */\n      dup2\n      swap1\n      sstore\n      pop\n        /* \"contracts/distribution/TombGenesisRewardPool.sol\":9012:9016  _pid */\n      dup8\n        /* \"contracts/distribution/TombGenesisRewardPool.sol\":9003:9010  _sender */\n      dup7\n        /* \"contracts/distribution/TombGenesisRewardPool.sol\":8995:9026  Deposit(_sender, _pid, _amount) */\n      0xffffffffffffffffffffffffffffffffffffffff\n      and\n      0x90890809c654f11d6e72a28fa60149770a0d11ec6c92319d6ceb2bb0a4ea1a15\n        /* \"contracts/distribution/TombGenesisRewardPool.sol\":9018:9025  _amount */\n      dup10\n        /* \"contracts/distribution/TombGenesisRewardPool.sol\":8995:9026  Deposit(_sender, _pid, _amount) */\n      mload(0x40)\n      dup1\n      dup3\n      dup2\n      mstore\n      0x20\n      add\n      swap2\n      pop\n      pop\n      mload(0x40)\n      dup1\n      swap2\n      sub\n      swap1\n      log3\n        /* \"contracts/distribution/TombGenesisRewardPool.sol\":7997:9034  function deposit(uint256 _pid, uint256 _amount) public {\r... */\n      pop\n      pop\n      pop\n      pop\n      pop\n      pop\n      pop\n      pop\n      jump\t// out\n        /* \"contracts/distribution/TombGenesisRewardPool.sol\":5941:6713  function pendingStone(uint256 _pid, address _user) external view returns (uint256) {\r... */\n    tag_114:\n        /* \"contracts/distribution/TombGenesisRewardPool.sol\":6015:6022  uint256 */\n      0x00\n        /* \"contracts/distribution/TombGenesisRewardPool.sol\":6035:6056  PoolInfo storage pool */\n      dup1\n        /* \"contracts/distribution/TombGenesisRewardPool.sol\":6059:6067  poolInfo */\n      0x05\n        /* \"contracts/distribution/TombGenesisRewardPool.sol\":6068:6072  _pid */\n      dup5\n        /* \"contracts/distribution/TombGenesisRewardPool.sol\":6059:6073  poolInfo[_pid] */\n      dup2\n      sload\n      dup2\n      lt\n      tag_275\n      jumpi\n      invalid\n    tag_275:\n      swap1\n      0x00\n      mstore\n      keccak256(0x00, 0x20)\n      swap1\n      0x05\n      mul\n      add\n        /* \"contracts/distribution/TombGenesisRewardPool.sol\":6035:6073  PoolInfo storage pool = poolInfo[_pid] */\n      swap1\n      pop\n        /* \"contracts/distribution/TombGenesisRewardPool.sol\":6084:6105  UserInfo storage user */\n      0x00\n        /* \"contracts/distribution/TombGenesisRewardPool.sol\":6108:6116  userInfo */\n      0x07\n        /* \"contracts/distribution/TombGenesisRewardPool.sol\":6108:6122  userInfo[_pid] */\n      0x00\n        /* \"contracts/distribution/TombGenesisRewardPool.sol\":6117:6121  _pid */\n      dup7\n        /* \"contracts/distribution/TombGenesisRewardPool.sol\":6108:6122  userInfo[_pid] */\n      dup2\n      mstore\n      0x20\n      add\n      swap1\n      dup2\n      mstore\n      0x20\n      add\n      0x00\n      keccak256\n        /* \"contracts/distribution/TombGenesisRewardPool.sol\":6108:6129  userInfo[_pid][_user] */\n      0x00\n        /* \"contracts/distribution/TombGenesisRewardPool.sol\":6123:6128  _user */\n      dup6\n        /* \"contracts/distribution/TombGenesisRewardPool.sol\":6108:6129  userInfo[_pid][_user] */\n      0xffffffffffffffffffffffffffffffffffffffff\n      and\n      0xffffffffffffffffffffffffffffffffffffffff\n      and\n      dup2\n      mstore\n      0x20\n      add\n      swap1\n      dup2\n      mstore\n      0x20\n      add\n      0x00\n      keccak256\n        /* \"contracts/distribution/TombGenesisRewardPool.sol\":6084:6129  UserInfo storage user = userInfo[_pid][_user] */\n      swap1\n      pop\n        /* \"contracts/distribution/TombGenesisRewardPool.sol\":6140:6163  uint256 accPolyPerShare */\n      0x00\n        /* \"contracts/distribution/TombGenesisRewardPool.sol\":6166:6170  pool */\n      dup3\n        /* \"contracts/distribution/TombGenesisRewardPool.sol\":6166:6186  pool.accPolyPerShare */\n      0x03\n      add\n      sload\n        /* \"contracts/distribution/TombGenesisRewardPool.sol\":6140:6186  uint256 accPolyPerShare = pool.accPolyPerShare */\n      swap1\n      pop\n        /* \"contracts/distribution/TombGenesisRewardPool.sol\":6197:6216  uint256 tokenSupply */\n      0x00\n        /* \"contracts/distribution/TombGenesisRewardPool.sol\":6219:6223  pool */\n      dup4\n        /* \"contracts/distribution/TombGenesisRewardPool.sol\":6219:6229  pool.token */\n      0x00\n      add\n      0x00\n      swap1\n      sload\n      swap1\n      0x0100\n      exp\n      swap1\n      div\n      0xffffffffffffffffffffffffffffffffffffffff\n      and\n        /* \"contracts/distribution/TombGenesisRewardPool.sol\":6219:6239  pool.token.balanceOf */\n      0xffffffffffffffffffffffffffffffffffffffff\n      and\n      0x70a08231\n        /* \"contracts/distribution/TombGenesisRewardPool.sol\":6248:6252  this */\n      address\n        /* \"contracts/distribution/TombGenesisRewardPool.sol\":6219:6254  pool.token.balanceOf(address(this)) */\n      mload(0x40)\n      dup3\n      0xffffffff\n      and\n      0xe0\n      shl\n      dup2\n      mstore\n      0x04\n      add\n      dup1\n      dup3\n      0xffffffffffffffffffffffffffffffffffffffff\n      and\n      dup2\n      mstore\n      0x20\n      add\n      swap2\n      pop\n      pop\n      0x20\n      mload(0x40)\n      dup1\n      dup4\n      sub\n      dup2\n      dup7\n      dup1\n      extcodesize\n      iszero\n      dup1\n      iszero\n      tag_277\n      jumpi\n      0x00\n      dup1\n      revert\n    tag_277:\n      pop\n      gas\n      staticcall\n      iszero\n      dup1\n      iszero\n      tag_279\n      jumpi\n      returndatasize\n      0x00\n      dup1\n      returndatacopy\n      revert(0x00, returndatasize)\n    tag_279:\n      pop\n      pop\n      pop\n      pop\n      mload(0x40)\n      returndatasize\n      0x20\n      dup2\n      lt\n      iszero\n      tag_280\n      jumpi\n      0x00\n      dup1\n      revert\n    tag_280:\n      dup2\n      add\n      swap1\n      dup1\n      dup1\n      mload\n      swap1\n      0x20\n      add\n      swap1\n      swap3\n      swap2\n      swap1\n      pop\n      pop\n      pop\n        /* \"contracts/distribution/TombGenesisRewardPool.sol\":6197:6254  uint256 tokenSupply = pool.token.balanceOf(address(this)) */\n      swap1\n      pop\n        /* \"contracts/distribution/TombGenesisRewardPool.sol\":6287:6291  pool */\n      dup4\n        /* \"contracts/distribution/TombGenesisRewardPool.sol\":6287:6306  pool.lastRewardTime */\n      0x02\n      add\n      sload\n        /* \"contracts/distribution/TombGenesisRewardPool.sol\":6269:6284  block.timestamp */\n      timestamp\n        /* \"contracts/distribution/TombGenesisRewardPool.sol\":6269:6306  block.timestamp > pool.lastRewardTime */\n      gt\n        /* \"contracts/distribution/TombGenesisRewardPool.sol\":6269:6326  block.timestamp > pool.lastRewardTime && tokenSupply != 0 */\n      dup1\n      iszero\n      tag_281\n      jumpi\n      pop\n        /* \"contracts/distribution/TombGenesisRewardPool.sol\":6325:6326  0 */\n      0x00\n        /* \"contracts/distribution/TombGenesisRewardPool.sol\":6310:6321  tokenSupply */\n      dup2\n        /* \"contracts/distribution/TombGenesisRewardPool.sol\":6310:6326  tokenSupply != 0 */\n      eq\n      iszero\n        /* \"contracts/distribution/TombGenesisRewardPool.sol\":6269:6326  block.timestamp > pool.lastRewardTime && tokenSupply != 0 */\n    tag_281:\n        /* \"contracts/distribution/TombGenesisRewardPool.sol\":6265:6625  if (block.timestamp > pool.lastRewardTime && tokenSupply != 0) {\r... */\n      iszero\n      tag_282\n      jumpi\n        /* \"contracts/distribution/TombGenesisRewardPool.sol\":6343:6367  uint256 _generatedReward */\n      0x00\n        /* \"contracts/distribution/TombGenesisRewardPool.sol\":6370:6426  getGeneratedReward(pool.lastRewardTime, block.timestamp) */\n      tag_283\n        /* \"contracts/distribution/TombGenesisRewardPool.sol\":6389:6393  pool */\n      dup6\n        /* \"contracts/distribution/TombGenesisRewardPool.sol\":6389:6408  pool.lastRewardTime */\n      0x02\n      add\n      sload\n        /* \"contracts/distribution/TombGenesisRewardPool.sol\":6410:6425  block.timestamp */\n      timestamp\n        /* \"contracts/distribution/TombGenesisRewardPool.sol\":6370:6388  getGeneratedReward */\n      tag_55\n        /* \"contracts/distribution/TombGenesisRewardPool.sol\":6370:6426  getGeneratedReward(pool.lastRewardTime, block.timestamp) */\n      jump\t// in\n    tag_283:\n        /* \"contracts/distribution/TombGenesisRewardPool.sol\":6343:6426  uint256 _generatedReward = getGeneratedReward(pool.lastRewardTime, block.timestamp) */\n      swap1\n      pop\n        /* \"contracts/distribution/TombGenesisRewardPool.sol\":6441:6460  uint256 _PolyReward */\n      0x00\n        /* \"contracts/distribution/TombGenesisRewardPool.sol\":6463:6521  _generatedReward.mul(pool.allocPoint).div(totalAllocPoint) */\n      tag_284\n        /* \"contracts/distribution/TombGenesisRewardPool.sol\":6505:6520  totalAllocPoint */\n      sload(0x08)\n        /* \"contracts/distribution/TombGenesisRewardPool.sol\":6463:6500  _generatedReward.mul(pool.allocPoint) */\n      tag_285\n        /* \"contracts/distribution/TombGenesisRewardPool.sol\":6484:6488  pool */\n      dup9\n        /* \"contracts/distribution/TombGenesisRewardPool.sol\":6484:6499  pool.allocPoint */\n      0x01\n      add\n      sload\n        /* \"contracts/distribution/TombGenesisRewardPool.sol\":6463:6479  _generatedReward */\n      dup6\n        /* \"contracts/distribution/TombGenesisRewardPool.sol\":6463:6483  _generatedReward.mul */\n      tag_138\n      swap1\n        /* \"contracts/distribution/TombGenesisRewardPool.sol\":6463:6500  _generatedReward.mul(pool.allocPoint) */\n      swap2\n      swap1\n      0xffffffff\n      and\n      jump\t// in\n    tag_285:\n        /* \"contracts/distribution/TombGenesisRewardPool.sol\":6463:6504  _generatedReward.mul(pool.allocPoint).div */\n      tag_165\n      swap1\n        /* \"contracts/distribution/TombGenesisRewardPool.sol\":6463:6521  _generatedReward.mul(pool.allocPoint).div(totalAllocPoint) */\n      swap2\n      swap1\n      0xffffffff\n      and\n      jump\t// in\n    tag_284:\n        /* \"contracts/distribution/TombGenesisRewardPool.sol\":6441:6521  uint256 _PolyReward = _generatedReward.mul(pool.allocPoint).div(totalAllocPoint) */\n      swap1\n      pop\n        /* \"contracts/distribution/TombGenesisRewardPool.sol\":6554:6613  accPolyPerShare.add(_PolyReward.mul(1e18).div(tokenSupply)) */\n      tag_286\n        /* \"contracts/distribution/TombGenesisRewardPool.sol\":6574:6612  _PolyReward.mul(1e18).div(tokenSupply) */\n      tag_287\n        /* \"contracts/distribution/TombGenesisRewardPool.sol\":6600:6611  tokenSupply */\n      dup5\n        /* \"contracts/distribution/TombGenesisRewardPool.sol\":6574:6595  _PolyReward.mul(1e18) */\n      tag_288\n        /* \"contracts/distribution/TombGenesisRewardPool.sol\":6590:6594  1e18 */\n      0x0de0b6b3a7640000\n        /* \"contracts/distribution/TombGenesisRewardPool.sol\":6574:6585  _PolyReward */\n      dup6\n        /* \"contracts/distribution/TombGenesisRewardPool.sol\":6574:6589  _PolyReward.mul */\n      tag_138\n      swap1\n        /* \"contracts/distribution/TombGenesisRewardPool.sol\":6574:6595  _PolyReward.mul(1e18) */\n      swap2\n      swap1\n      0xffffffff\n      and\n      jump\t// in\n    tag_288:\n        /* \"contracts/distribution/TombGenesisRewardPool.sol\":6574:6599  _PolyReward.mul(1e18).div */\n      tag_165\n      swap1\n        /* \"contracts/distribution/TombGenesisRewardPool.sol\":6574:6612  _PolyReward.mul(1e18).div(tokenSupply) */\n      swap2\n      swap1\n      0xffffffff\n      and\n      jump\t// in\n    tag_287:\n        /* \"contracts/distribution/TombGenesisRewardPool.sol\":6554:6569  accPolyPerShare */\n      dup6\n        /* \"contracts/distribution/TombGenesisRewardPool.sol\":6554:6573  accPolyPerShare.add */\n      tag_130\n      swap1\n        /* \"contracts/distribution/TombGenesisRewardPool.sol\":6554:6613  accPolyPerShare.add(_PolyReward.mul(1e18).div(tokenSupply)) */\n      swap2\n      swap1\n      0xffffffff\n      and\n      jump\t// in\n    tag_286:\n        /* \"contracts/distribution/TombGenesisRewardPool.sol\":6536:6613  accPolyPerShare = accPolyPerShare.add(_PolyReward.mul(1e18).div(tokenSupply)) */\n      swap4\n      pop\n        /* \"contracts/distribution/TombGenesisRewardPool.sol\":6265:6625  if (block.timestamp > pool.lastRewardTime && tokenSupply != 0) {\r... */\n      pop\n      pop\n    tag_282:\n        /* \"contracts/distribution/TombGenesisRewardPool.sol\":6642:6705  user.amount.mul(accPolyPerShare).div(1e18).sub(user.rewardDebt) */\n      tag_289\n        /* \"contracts/distribution/TombGenesisRewardPool.sol\":6689:6693  user */\n      dup4\n        /* \"contracts/distribution/TombGenesisRewardPool.sol\":6689:6704  user.rewardDebt */\n      0x01\n      add\n      sload\n        /* \"contracts/distribution/TombGenesisRewardPool.sol\":6642:6684  user.amount.mul(accPolyPerShare).div(1e18) */\n      tag_290\n        /* \"contracts/distribution/TombGenesisRewardPool.sol\":6679:6683  1e18 */\n      0x0de0b6b3a7640000\n        /* \"contracts/distribution/TombGenesisRewardPool.sol\":6642:6674  user.amount.mul(accPolyPerShare) */\n      tag_291\n        /* \"contracts/distribution/TombGenesisRewardPool.sol\":6658:6673  accPolyPerShare */\n      dup7\n        /* \"contracts/distribution/TombGenesisRewardPool.sol\":6642:6646  user */\n      dup9\n        /* \"contracts/distribution/TombGenesisRewardPool.sol\":6642:6653  user.amount */\n      0x00\n      add\n      sload\n        /* \"contracts/distribution/TombGenesisRewardPool.sol\":6642:6657  user.amount.mul */\n      tag_138\n      swap1\n        /* \"contracts/distribution/TombGenesisRewardPool.sol\":6642:6674  user.amount.mul(accPolyPerShare) */\n      swap2\n      swap1\n      0xffffffff\n      and\n      jump\t// in\n    tag_291:\n        /* \"contracts/distribution/TombGenesisRewardPool.sol\":6642:6678  user.amount.mul(accPolyPerShare).div */\n      tag_165\n      swap1\n        /* \"contracts/distribution/TombGenesisRewardPool.sol\":6642:6684  user.amount.mul(accPolyPerShare).div(1e18) */\n      swap2\n      swap1\n      0xffffffff\n      and\n      jump\t// in\n    tag_290:\n        /* \"contracts/distribution/TombGenesisRewardPool.sol\":6642:6688  user.amount.mul(accPolyPerShare).div(1e18).sub */\n      tag_129\n      swap1\n        /* \"contracts/distribution/TombGenesisRewardPool.sol\":6642:6705  user.amount.mul(accPolyPerShare).div(1e18).sub(user.rewardDebt) */\n      swap2\n      swap1\n      0xffffffff\n      and\n      jump\t// in\n    tag_289:\n        /* \"contracts/distribution/TombGenesisRewardPool.sol\":6635:6705  return user.amount.mul(accPolyPerShare).div(1e18).sub(user.rewardDebt) */\n      swap5\n      pop\n      pop\n      pop\n      pop\n      pop\n        /* \"contracts/distribution/TombGenesisRewardPool.sol\":5941:6713  function pendingStone(uint256 _pid, address _user) external view returns (uint256) {\r... */\n      swap3\n      swap2\n      pop\n      pop\n      jump\t// out\n        /* \"@openzeppelin/contracts/access/Ownable.sol\":2065:2305  function transferOwnership(address newOwner) public virtual onlyOwner {... */\n    tag_117:\n        /* \"@openzeppelin/contracts/access/Ownable.sol\":1362:1374  _msgSender() */\n      tag_293\n        /* \"@openzeppelin/contracts/access/Ownable.sol\":1362:1372  _msgSender */\n      tag_150\n        /* \"@openzeppelin/contracts/access/Ownable.sol\":1362:1374  _msgSender() */\n      jump\t// in\n    tag_293:\n        /* \"@openzeppelin/contracts/access/Ownable.sol\":1351:1374  owner() == _msgSender() */\n      0xffffffffffffffffffffffffffffffffffffffff\n      and\n        /* \"@openzeppelin/contracts/access/Ownable.sol\":1351:1358  owner() */\n      tag_294\n        /* \"@openzeppelin/contracts/access/Ownable.sol\":1351:1356  owner */\n      tag_90\n        /* \"@openzeppelin/contracts/access/Ownable.sol\":1351:1358  owner() */\n      jump\t// in\n    tag_294:\n        /* \"@openzeppelin/contracts/access/Ownable.sol\":1351:1374  owner() == _msgSender() */\n      0xffffffffffffffffffffffffffffffffffffffff\n      and\n      eq\n        /* \"@openzeppelin/contracts/access/Ownable.sol\":1343:1411  require(owner() == _msgSender(), \"Ownable: caller is not the owner\") */\n      tag_295\n      jumpi\n      mload(0x40)\n      0x08c379a000000000000000000000000000000000000000000000000000000000\n      dup2\n      mstore\n      0x04\n      add\n      dup1\n      dup1\n      0x20\n      add\n      dup3\n      dup2\n      sub\n      dup3\n      mstore\n      0x20\n      dup2\n      mstore\n      0x20\n      add\n      dup1\n      0x4f776e61626c653a2063616c6c6572206973206e6f7420746865206f776e6572\n      dup2\n      mstore\n      pop\n      0x20\n      add\n      swap2\n      pop\n      pop\n      mload(0x40)\n      dup1\n      swap2\n      sub\n      swap1\n      revert\n    tag_295:\n        /* \"@openzeppelin/contracts/access/Ownable.sol\":2173:2174  0 */\n      0x00\n        /* \"@openzeppelin/contracts/access/Ownable.sol\":2153:2175  newOwner != address(0) */\n      0xffffffffffffffffffffffffffffffffffffffff\n      and\n        /* \"@openzeppelin/contracts/access/Ownable.sol\":2153:2161  newOwner */\n      dup2\n        /* \"@openzeppelin/contracts/access/Ownable.sol\":2153:2175  newOwner != address(0) */\n      0xffffffffffffffffffffffffffffffffffffffff\n      and\n      eq\n      iszero\n        /* \"@openzeppelin/contracts/access/Ownable.sol\":2145:2218  require(newOwner != address(0), \"Ownable: new owner is the zero address\") */\n      tag_297\n      jumpi\n      mload(0x40)\n      0x08c379a000000000000000000000000000000000000000000000000000000000\n      dup2\n      mstore\n      0x04\n      add\n      dup1\n      dup1\n      0x20\n      add\n      dup3\n      dup2\n      sub\n      dup3\n      mstore\n      0x26\n      dup2\n      mstore\n      0x20\n      add\n      dup1\n      data_245f15ff17f551913a7a18385165551503906a406f905ac1c2437281a7cd0cfe\n      0x26\n      swap2\n      codecopy\n      0x40\n      add\n      swap2\n      pop\n      pop\n      mload(0x40)\n      dup1\n      swap2\n      sub\n      swap1\n      revert\n    tag_297:\n        /* \"@openzeppelin/contracts/access/Ownable.sol\":2262:2270  newOwner */\n      dup1\n        /* \"@openzeppelin/contracts/access/Ownable.sol\":2233:2271  OwnershipTransferred(_owner, newOwner) */\n      0xffffffffffffffffffffffffffffffffffffffff\n      and\n        /* \"@openzeppelin/contracts/access/Ownable.sol\":2254:2260  _owner */\n      0x00\n      dup1\n      sload\n      swap1\n      0x0100\n      exp\n      swap1\n      div\n      0xffffffffffffffffffffffffffffffffffffffff\n      and\n        /* \"@openzeppelin/contracts/access/Ownable.sol\":2233:2271  OwnershipTransferred(_owner, newOwner) */\n      0xffffffffffffffffffffffffffffffffffffffff\n      and\n      0x8be0079c531659141344cd1fd0a4f28419497f9722a3daafe3b4186f6b6457e0\n      mload(0x40)\n      mload(0x40)\n      dup1\n      swap2\n      sub\n      swap1\n      log3\n        /* \"@openzeppelin/contracts/access/Ownable.sol\":2290:2298  newOwner */\n      dup1\n        /* \"@openzeppelin/contracts/access/Ownable.sol\":2281:2287  _owner */\n      0x00\n      dup1\n        /* \"@openzeppelin/contracts/access/Ownable.sol\":2281:2298  _owner = newOwner */\n      0x0100\n      exp\n      dup2\n      sload\n      dup2\n      0xffffffffffffffffffffffffffffffffffffffff\n      mul\n      not\n      and\n      swap1\n      dup4\n      0xffffffffffffffffffffffffffffffffffffffff\n      and\n      mul\n      or\n      swap1\n      sstore\n      pop\n        /* \"@openzeppelin/contracts/access/Ownable.sol\":2065:2305  function transferOwnership(address newOwner) public virtual onlyOwner {... */\n      pop\n      jump\t// out\n        /* \"@openzeppelin/contracts/utils/math/SafeMath.sol\":3136:3291  function sub(uint256 a, uint256 b) internal pure returns (uint256) {... */\n    tag_129:\n        /* \"@openzeppelin/contracts/utils/math/SafeMath.sol\":3194:3201  uint256 */\n      0x00\n        /* \"@openzeppelin/contracts/utils/math/SafeMath.sol\":3226:3227  a */\n      dup3\n        /* \"@openzeppelin/contracts/utils/math/SafeMath.sol\":3221:3222  b */\n      dup3\n        /* \"@openzeppelin/contracts/utils/math/SafeMath.sol\":3221:3227  b <= a */\n      gt\n      iszero\n        /* \"@openzeppelin/contracts/utils/math/SafeMath.sol\":3213:3262  require(b <= a, \"SafeMath: subtraction overflow\") */\n      tag_299\n      jumpi\n      mload(0x40)\n      0x08c379a000000000000000000000000000000000000000000000000000000000\n      dup2\n      mstore\n      0x04\n      add\n      dup1\n      dup1\n      0x20\n      add\n      dup3\n      dup2\n      sub\n      dup3\n      mstore\n      0x1e\n      dup2\n      mstore\n      0x20\n      add\n      dup1\n      0x536166654d6174683a207375627472616374696f6e206f766572666c6f770000\n      dup2\n      mstore\n      pop\n      0x20\n      add\n      swap2\n      pop\n      pop\n      mload(0x40)\n      dup1\n      swap2\n      sub\n      swap1\n      revert\n    tag_299:\n        /* \"@openzeppelin/contracts/utils/math/SafeMath.sol\":3283:3284  b */\n      dup2\n        /* \"@openzeppelin/contracts/utils/math/SafeMath.sol\":3279:3280  a */\n      dup4\n        /* \"@openzeppelin/contracts/utils/math/SafeMath.sol\":3279:3284  a - b */\n      sub\n        /* \"@openzeppelin/contracts/utils/math/SafeMath.sol\":3272:3284  return a - b */\n      swap1\n      pop\n        /* \"@openzeppelin/contracts/utils/math/SafeMath.sol\":3136:3291  function sub(uint256 a, uint256 b) internal pure returns (uint256) {... */\n      swap3\n      swap2\n      pop\n      pop\n      jump\t// out\n        /* \"@openzeppelin/contracts/utils/math/SafeMath.sol\":2690:2865  function add(uint256 a, uint256 b) internal pure returns (uint256) {... */\n    tag_130:\n        /* \"@openzeppelin/contracts/utils/math/SafeMath.sol\":2748:2755  uint256 */\n      0x00\n        /* \"@openzeppelin/contracts/utils/math/SafeMath.sol\":2767:2776  uint256 c */\n      dup1\n        /* \"@openzeppelin/contracts/utils/math/SafeMath.sol\":2783:2784  b */\n      dup3\n        /* \"@openzeppelin/contracts/utils/math/SafeMath.sol\":2779:2780  a */\n      dup5\n        /* \"@openzeppelin/contracts/utils/math/SafeMath.sol\":2779:2784  a + b */\n      add\n        /* \"@openzeppelin/contracts/utils/math/SafeMath.sol\":2767:2784  uint256 c = a + b */\n      swap1\n      pop\n        /* \"@openzeppelin/contracts/utils/math/SafeMath.sol\":2807:2808  a */\n      dup4\n        /* \"@openzeppelin/contracts/utils/math/SafeMath.sol\":2802:2803  c */\n      dup2\n        /* \"@openzeppelin/contracts/utils/math/SafeMath.sol\":2802:2808  c >= a */\n      lt\n      iszero\n        /* \"@openzeppelin/contracts/utils/math/SafeMath.sol\":2794:2840  require(c >= a, \"SafeMath: addition overflow\") */\n      tag_301\n      jumpi\n      mload(0x40)\n      0x08c379a000000000000000000000000000000000000000000000000000000000\n      dup2\n      mstore\n      0x04\n      add\n      dup1\n      dup1\n      0x20\n      add\n      dup3\n      dup2\n      sub\n      dup3\n      mstore\n      0x1b\n      dup2\n      mstore\n      0x20\n      add\n      dup1\n      0x536166654d6174683a206164646974696f6e206f766572666c6f770000000000\n      dup2\n      mstore\n      pop\n      0x20\n      add\n      swap2\n      pop\n      pop\n      mload(0x40)\n      dup1\n      swap2\n      sub\n      swap1\n      revert\n    tag_301:\n        /* \"@openzeppelin/contracts/utils/math/SafeMath.sol\":2857:2858  c */\n      dup1\n        /* \"@openzeppelin/contracts/utils/math/SafeMath.sol\":2850:2858  return c */\n      swap2\n      pop\n      pop\n        /* \"@openzeppelin/contracts/utils/math/SafeMath.sol\":2690:2865  function add(uint256 a, uint256 b) internal pure returns (uint256) {... */\n      swap3\n      swap2\n      pop\n      pop\n      jump\t// out\n        /* \"@openzeppelin/contracts/utils/math/SafeMath.sol\":3538:3753  function mul(uint256 a, uint256 b) internal pure returns (uint256) {... */\n    tag_138:\n        /* \"@openzeppelin/contracts/utils/math/SafeMath.sol\":3596:3603  uint256 */\n      0x00\n        /* \"@openzeppelin/contracts/utils/math/SafeMath.sol\":3624:3625  0 */\n      dup1\n        /* \"@openzeppelin/contracts/utils/math/SafeMath.sol\":3619:3620  a */\n      dup4\n        /* \"@openzeppelin/contracts/utils/math/SafeMath.sol\":3619:3625  a == 0 */\n      eq\n        /* \"@openzeppelin/contracts/utils/math/SafeMath.sol\":3615:3635  if (a == 0) return 0 */\n      iszero\n      tag_303\n      jumpi\n        /* \"@openzeppelin/contracts/utils/math/SafeMath.sol\":3634:3635  0 */\n      0x00\n        /* \"@openzeppelin/contracts/utils/math/SafeMath.sol\":3627:3635  return 0 */\n      swap1\n      pop\n      jump(tag_302)\n        /* \"@openzeppelin/contracts/utils/math/SafeMath.sol\":3615:3635  if (a == 0) return 0 */\n    tag_303:\n        /* \"@openzeppelin/contracts/utils/math/SafeMath.sol\":3645:3654  uint256 c */\n      0x00\n        /* \"@openzeppelin/contracts/utils/math/SafeMath.sol\":3661:3662  b */\n      dup3\n        /* \"@openzeppelin/contracts/utils/math/SafeMath.sol\":3657:3658  a */\n      dup5\n        /* \"@openzeppelin/contracts/utils/math/SafeMath.sol\":3657:3662  a * b */\n      mul\n        /* \"@openzeppelin/contracts/utils/math/SafeMath.sol\":3645:3662  uint256 c = a * b */\n      swap1\n      pop\n        /* \"@openzeppelin/contracts/utils/math/SafeMath.sol\":3689:3690  b */\n      dup3\n        /* \"@openzeppelin/contracts/utils/math/SafeMath.sol\":3684:3685  a */\n      dup5\n        /* \"@openzeppelin/contracts/utils/math/SafeMath.sol\":3680:3681  c */\n      dup3\n        /* \"@openzeppelin/contracts/utils/math/SafeMath.sol\":3680:3685  c / a */\n      dup2\n      tag_304\n      jumpi\n      invalid\n    tag_304:\n      div\n        /* \"@openzeppelin/contracts/utils/math/SafeMath.sol\":3680:3690  c / a == b */\n      eq\n        /* \"@openzeppelin/contracts/utils/math/SafeMath.sol\":3672:3728  require(c / a == b, \"SafeMath: multiplication overflow\") */\n      tag_305\n      jumpi\n      mload(0x40)\n      0x08c379a000000000000000000000000000000000000000000000000000000000\n      dup2\n      mstore\n      0x04\n      add\n      dup1\n      dup1\n      0x20\n      add\n      dup3\n      dup2\n      sub\n      dup3\n      mstore\n      0x21\n      dup2\n      mstore\n      0x20\n      add\n      dup1\n      data_9113bb53c2876a3805b2c9242029423fc540a728243ce887ab24c82cf119fba3\n      0x21\n      swap2\n      codecopy\n      0x40\n      add\n      swap2\n      pop\n      pop\n      mload(0x40)\n      dup1\n      swap2\n      sub\n      swap1\n      revert\n    tag_305:\n        /* \"@openzeppelin/contracts/utils/math/SafeMath.sol\":3745:3746  c */\n      dup1\n        /* \"@openzeppelin/contracts/utils/math/SafeMath.sol\":3738:3746  return c */\n      swap2\n      pop\n      pop\n        /* \"@openzeppelin/contracts/utils/math/SafeMath.sol\":3538:3753  function mul(uint256 a, uint256 b) internal pure returns (uint256) {... */\n    tag_302:\n      swap3\n      swap2\n      pop\n      pop\n      jump\t// out\n        /* \"@openzeppelin/contracts/utils/Context.sol\":596:692  function _msgSender() internal view virtual returns (address) {... */\n    tag_150:\n        /* \"@openzeppelin/contracts/utils/Context.sol\":649:656  address */\n      0x00\n        /* \"@openzeppelin/contracts/utils/Context.sol\":675:685  msg.sender */\n      caller\n        /* \"@openzeppelin/contracts/utils/Context.sol\":668:685  return msg.sender */\n      swap1\n      pop\n        /* \"@openzeppelin/contracts/utils/Context.sol\":596:692  function _msgSender() internal view virtual returns (address) {... */\n      swap1\n      jump\t// out\n        /* \"contracts/owner/Operator.sol\":1017:1361  function _transferOperator(address newOperator_) internal {\r... */\n    tag_155:\n        /* \"contracts/owner/Operator.sol\":1132:1133  0 */\n      0x00\n        /* \"contracts/owner/Operator.sol\":1108:1134  newOperator_ != address(0) */\n      0xffffffffffffffffffffffffffffffffffffffff\n      and\n        /* \"contracts/owner/Operator.sol\":1108:1120  newOperator_ */\n      dup2\n        /* \"contracts/owner/Operator.sol\":1108:1134  newOperator_ != address(0) */\n      0xffffffffffffffffffffffffffffffffffffffff\n      and\n      eq\n      iszero\n        /* \"contracts/owner/Operator.sol\":1086:1207  require(\r... */\n      tag_308\n      jumpi\n      mload(0x40)\n      0x08c379a000000000000000000000000000000000000000000000000000000000\n      dup2\n      mstore\n      0x04\n      add\n      dup1\n      dup1\n      0x20\n      add\n      dup3\n      dup2\n      sub\n      dup3\n      mstore\n      0x2d\n      dup2\n      mstore\n      0x20\n      add\n      dup1\n      data_756508c1c0554725dd91ce0028667672a5318d736a5e4bcd98b6bc8fe98c3dc7\n      0x2d\n      swap2\n      codecopy\n      0x40\n      add\n      swap2\n      pop\n      pop\n      mload(0x40)\n      dup1\n      swap2\n      sub\n      swap1\n      revert\n    tag_308:\n        /* \"contracts/owner/Operator.sol\":1255:1267  newOperator_ */\n      dup1\n        /* \"contracts/owner/Operator.sol\":1223:1268  OperatorTransferred(address(0), newOperator_) */\n      0xffffffffffffffffffffffffffffffffffffffff\n      and\n        /* \"contracts/owner/Operator.sol\":1251:1252  0 */\n      0x00\n        /* \"contracts/owner/Operator.sol\":1223:1268  OperatorTransferred(address(0), newOperator_) */\n      0xffffffffffffffffffffffffffffffffffffffff\n      and\n      0x74da04524d50c64947f5dd5381ef1a4dca5cba8ed1d816243f9e48aa0b5617ed\n      mload(0x40)\n      mload(0x40)\n      dup1\n      swap2\n      sub\n      swap1\n      log3\n        /* \"contracts/owner/Operator.sol\":1279:1318  Ownable.transferOwnership(newOperator_) */\n      tag_309\n        /* \"contracts/owner/Operator.sol\":1305:1317  newOperator_ */\n      dup2\n        /* \"contracts/owner/Operator.sol\":1279:1304  Ownable.transferOwnership */\n      tag_117\n        /* \"contracts/owner/Operator.sol\":1279:1318  Ownable.transferOwnership(newOperator_) */\n      jump\t// in\n    tag_309:\n        /* \"contracts/owner/Operator.sol\":1341:1353  newOperator_ */\n      dup1\n        /* \"contracts/owner/Operator.sol\":1329:1338  _operator */\n      0x01\n      0x00\n        /* \"contracts/owner/Operator.sol\":1329:1353  _operator = newOperator_ */\n      0x0100\n      exp\n      dup2\n      sload\n      dup2\n      0xffffffffffffffffffffffffffffffffffffffff\n      mul\n      not\n      and\n      swap1\n      dup4\n      0xffffffffffffffffffffffffffffffffffffffff\n      and\n      mul\n      or\n      swap1\n      sstore\n      pop\n        /* \"contracts/owner/Operator.sol\":1017:1361  function _transferOperator(address newOperator_) internal {\r... */\n      pop\n      jump\t// out\n        /* \"@openzeppelin/contracts/utils/math/SafeMath.sol\":4217:4367  function div(uint256 a, uint256 b) internal pure returns (uint256) {... */\n    tag_165:\n        /* \"@openzeppelin/contracts/utils/math/SafeMath.sol\":4275:4282  uint256 */\n      0x00\n        /* \"@openzeppelin/contracts/utils/math/SafeMath.sol\":4306:4307  0 */\n      dup1\n        /* \"@openzeppelin/contracts/utils/math/SafeMath.sol\":4302:4303  b */\n      dup3\n        /* \"@openzeppelin/contracts/utils/math/SafeMath.sol\":4302:4307  b > 0 */\n      gt\n        /* \"@openzeppelin/contracts/utils/math/SafeMath.sol\":4294:4338  require(b > 0, \"SafeMath: division by zero\") */\n      tag_311\n      jumpi\n      mload(0x40)\n      0x08c379a000000000000000000000000000000000000000000000000000000000\n      dup2\n      mstore\n      0x04\n      add\n      dup1\n      dup1\n      0x20\n      add\n      dup3\n      dup2\n      sub\n      dup3\n      mstore\n      0x1a\n      dup2\n      mstore\n      0x20\n      add\n      dup1\n      0x536166654d6174683a206469766973696f6e206279207a65726f000000000000\n      dup2\n      mstore\n      pop\n      0x20\n      add\n      swap2\n      pop\n      pop\n      mload(0x40)\n      dup1\n      swap2\n      sub\n      swap1\n      revert\n    tag_311:\n        /* \"@openzeppelin/contracts/utils/math/SafeMath.sol\":4359:4360  b */\n      dup2\n        /* \"@openzeppelin/contracts/utils/math/SafeMath.sol\":4355:4356  a */\n      dup4\n        /* \"@openzeppelin/contracts/utils/math/SafeMath.sol\":4355:4360  a / b */\n      dup2\n      tag_312\n      jumpi\n      invalid\n    tag_312:\n      div\n        /* \"@openzeppelin/contracts/utils/math/SafeMath.sol\":4348:4360  return a / b */\n      swap1\n      pop\n        /* \"@openzeppelin/contracts/utils/math/SafeMath.sol\":4217:4367  function div(uint256 a, uint256 b) internal pure returns (uint256) {... */\n      swap3\n      swap2\n      pop\n      pop\n      jump\t// out\n        /* \"contracts/distribution/TombGenesisRewardPool.sol\":10450:10815  function safePolyTransfer(address _to, uint256 _amount) internal {\r... */\n    tag_168:\n        /* \"contracts/distribution/TombGenesisRewardPool.sol\":10526:10546  uint256 _PolyBalance */\n      0x00\n        /* \"contracts/distribution/TombGenesisRewardPool.sol\":10549:10553  Poly */\n      0x02\n      0x00\n      swap1\n      sload\n      swap1\n      0x0100\n      exp\n      swap1\n      div\n      0xffffffffffffffffffffffffffffffffffffffff\n      and\n        /* \"contracts/distribution/TombGenesisRewardPool.sol\":10549:10563  Poly.balanceOf */\n      0xffffffffffffffffffffffffffffffffffffffff\n      and\n      0x70a08231\n        /* \"contracts/distribution/TombGenesisRewardPool.sol\":10572:10576  this */\n      address\n        /* \"contracts/distribution/TombGenesisRewardPool.sol\":10549:10578  Poly.balanceOf(address(this)) */\n      mload(0x40)\n      dup3\n      0xffffffff\n      and\n      0xe0\n      shl\n      dup2\n      mstore\n      0x04\n      add\n      dup1\n      dup3\n      0xffffffffffffffffffffffffffffffffffffffff\n      and\n      dup2\n      mstore\n      0x20\n      add\n      swap2\n      pop\n      pop\n      0x20\n      mload(0x40)\n      dup1\n      dup4\n      sub\n      dup2\n      dup7\n      dup1\n      extcodesize\n      iszero\n      dup1\n      iszero\n      tag_314\n      jumpi\n      0x00\n      dup1\n      revert\n    tag_314:\n      pop\n      gas\n      staticcall\n      iszero\n      dup1\n      iszero\n      tag_316\n      jumpi\n      returndatasize\n      0x00\n      dup1\n      returndatacopy\n      revert(0x00, returndatasize)\n    tag_316:\n      pop\n      pop\n      pop\n      pop\n      mload(0x40)\n      returndatasize\n      0x20\n      dup2\n      lt\n      iszero\n      tag_317\n      jumpi\n      0x00\n      dup1\n      revert\n    tag_317:\n      dup2\n      add\n      swap1\n      dup1\n      dup1\n      mload\n      swap1\n      0x20\n      add\n      swap1\n      swap3\n      swap2\n      swap1\n      pop\n      pop\n      pop\n        /* \"contracts/distribution/TombGenesisRewardPool.sol\":10526:10578  uint256 _PolyBalance = Poly.balanceOf(address(this)) */\n      swap1\n      pop\n        /* \"contracts/distribution/TombGenesisRewardPool.sol\":10608:10609  0 */\n      0x00\n        /* \"contracts/distribution/TombGenesisRewardPool.sol\":10593:10605  _PolyBalance */\n      dup2\n        /* \"contracts/distribution/TombGenesisRewardPool.sol\":10593:10609  _PolyBalance > 0 */\n      gt\n        /* \"contracts/distribution/TombGenesisRewardPool.sol\":10589:10808  if (_PolyBalance > 0) {\r... */\n      iszero\n      tag_318\n      jumpi\n        /* \"contracts/distribution/TombGenesisRewardPool.sol\":10640:10652  _PolyBalance */\n      dup1\n        /* \"contracts/distribution/TombGenesisRewardPool.sol\":10630:10637  _amount */\n      dup3\n        /* \"contracts/distribution/TombGenesisRewardPool.sol\":10630:10652  _amount > _PolyBalance */\n      gt\n        /* \"contracts/distribution/TombGenesisRewardPool.sol\":10626:10797  if (_amount > _PolyBalance) {\r... */\n      iszero\n      tag_319\n      jumpi\n        /* \"contracts/distribution/TombGenesisRewardPool.sol\":10673:10709  Poly.safeTransfer(_to, _PolyBalance) */\n      tag_320\n        /* \"contracts/distribution/TombGenesisRewardPool.sol\":10691:10694  _to */\n      dup4\n        /* \"contracts/distribution/TombGenesisRewardPool.sol\":10696:10708  _PolyBalance */\n      dup3\n        /* \"contracts/distribution/TombGenesisRewardPool.sol\":10673:10677  Poly */\n      0x02\n      0x00\n      swap1\n      sload\n      swap1\n      0x0100\n      exp\n      swap1\n      div\n      0xffffffffffffffffffffffffffffffffffffffff\n      and\n        /* \"contracts/distribution/TombGenesisRewardPool.sol\":10673:10690  Poly.safeTransfer */\n      0xffffffffffffffffffffffffffffffffffffffff\n      and\n      tag_172\n      swap1\n        /* \"contracts/distribution/TombGenesisRewardPool.sol\":10673:10709  Poly.safeTransfer(_to, _PolyBalance) */\n      swap3\n      swap2\n      swap1\n      0xffffffff\n      and\n      jump\t// in\n    tag_320:\n        /* \"contracts/distribution/TombGenesisRewardPool.sol\":10626:10797  if (_amount > _PolyBalance) {\r... */\n      jump(tag_321)\n    tag_319:\n        /* \"contracts/distribution/TombGenesisRewardPool.sol\":10750:10781  Poly.safeTransfer(_to, _amount) */\n      tag_322\n        /* \"contracts/distribution/TombGenesisRewardPool.sol\":10768:10771  _to */\n      dup4\n        /* \"contracts/distribution/TombGenesisRewardPool.sol\":10773:10780  _amount */\n      dup4\n        /* \"contracts/distribution/TombGenesisRewardPool.sol\":10750:10754  Poly */\n      0x02\n      0x00\n      swap1\n      sload\n      swap1\n      0x0100\n      exp\n      swap1\n      div\n      0xffffffffffffffffffffffffffffffffffffffff\n      and\n        /* \"contracts/distribution/TombGenesisRewardPool.sol\":10750:10767  Poly.safeTransfer */\n      0xffffffffffffffffffffffffffffffffffffffff\n      and\n      tag_172\n      swap1\n        /* \"contracts/distribution/TombGenesisRewardPool.sol\":10750:10781  Poly.safeTransfer(_to, _amount) */\n      swap3\n      swap2\n      swap1\n      0xffffffff\n      and\n      jump\t// in\n    tag_322:\n        /* \"contracts/distribution/TombGenesisRewardPool.sol\":10626:10797  if (_amount > _PolyBalance) {\r... */\n    tag_321:\n        /* \"contracts/distribution/TombGenesisRewardPool.sol\":10589:10808  if (_PolyBalance > 0) {\r... */\n    tag_318:\n        /* \"contracts/distribution/TombGenesisRewardPool.sol\":10450:10815  function safePolyTransfer(address _to, uint256 _amount) internal {\r... */\n      pop\n      pop\n      pop\n      jump\t// out\n        /* \"@openzeppelin/contracts/token/ERC20/utils/SafeERC20.sol\":717:892  function safeTransfer(IERC20 token, address to, uint256 value) internal {... */\n    tag_172:\n        /* \"@openzeppelin/contracts/token/ERC20/utils/SafeERC20.sol\":799:885  _callOptionalReturn(token, abi.encodeWithSelector(token.transfer.selector, to, value)) */\n      tag_324\n        /* \"@openzeppelin/contracts/token/ERC20/utils/SafeERC20.sol\":819:824  token */\n      dup4\n        /* \"@openzeppelin/contracts/token/ERC20/utils/SafeERC20.sol\":849:872  token.transfer.selector */\n      shl(0xe0, 0xa9059cbb)\n        /* \"@openzeppelin/contracts/token/ERC20/utils/SafeERC20.sol\":874:876  to */\n      dup5\n        /* \"@openzeppelin/contracts/token/ERC20/utils/SafeERC20.sol\":878:883  value */\n      dup5\n        /* \"@openzeppelin/contracts/token/ERC20/utils/SafeERC20.sol\":826:884  abi.encodeWithSelector(token.transfer.selector, to, value) */\n      add(0x24, mload(0x40))\n      dup1\n      dup4\n      0xffffffffffffffffffffffffffffffffffffffff\n      and\n      dup2\n      mstore\n      0x20\n      add\n      dup3\n      dup2\n      mstore\n      0x20\n      add\n      swap3\n      pop\n      pop\n      pop\n      mload(0x40)\n      0x20\n      dup2\n      dup4\n      sub\n      sub\n      dup2\n      mstore\n      swap1\n      0x40\n      mstore\n      swap1\n      not(0xffffffffffffffffffffffffffffffffffffffffffffffffffffffff)\n      and\n      0x20\n      dup3\n      add\n      dup1\n      mload\n      0xffffffffffffffffffffffffffffffffffffffffffffffffffffffff\n      dup4\n      dup2\n      dup4\n      and\n      or\n      dup4\n      mstore\n      pop\n      pop\n      pop\n      pop\n        /* \"@openzeppelin/contracts/token/ERC20/utils/SafeERC20.sol\":799:818  _callOptionalReturn */\n      tag_325\n        /* \"@openzeppelin/contracts/token/ERC20/utils/SafeERC20.sol\":799:885  _callOptionalReturn(token, abi.encodeWithSelector(token.transfer.selector, to, value)) */\n      jump\t// in\n    tag_324:\n        /* \"@openzeppelin/contracts/token/ERC20/utils/SafeERC20.sol\":717:892  function safeTransfer(IERC20 token, address to, uint256 value) internal {... */\n      pop\n      pop\n      pop\n      jump\t// out\n        /* \"contracts/distribution/TombGenesisRewardPool.sol\":3084:3345  function checkPoolDuplicate(IERC20 _token) internal view {\r... */\n    tag_227:\n        /* \"contracts/distribution/TombGenesisRewardPool.sol\":3152:3166  uint256 length */\n      0x00\n        /* \"contracts/distribution/TombGenesisRewardPool.sol\":3169:3177  poolInfo */\n      0x05\n        /* \"contracts/distribution/TombGenesisRewardPool.sol\":3169:3184  poolInfo.length */\n      dup1\n      sload\n      swap1\n      pop\n        /* \"contracts/distribution/TombGenesisRewardPool.sol\":3152:3184  uint256 length = poolInfo.length */\n      swap1\n      pop\n        /* \"contracts/distribution/TombGenesisRewardPool.sol\":3200:3211  uint256 pid */\n      0x00\n        /* \"contracts/distribution/TombGenesisRewardPool.sol\":3195:3338  for (uint256 pid = 0; pid < length; ++pid) {\r... */\n    tag_327:\n        /* \"contracts/distribution/TombGenesisRewardPool.sol\":3223:3229  length */\n      dup2\n        /* \"contracts/distribution/TombGenesisRewardPool.sol\":3217:3220  pid */\n      dup2\n        /* \"contracts/distribution/TombGenesisRewardPool.sol\":3217:3229  pid < length */\n      lt\n        /* \"contracts/distribution/TombGenesisRewardPool.sol\":3195:3338  for (uint256 pid = 0; pid < length; ++pid) {\r... */\n      iszero\n      tag_328\n      jumpi\n        /* \"contracts/distribution/TombGenesisRewardPool.sol\":3284:3290  _token */\n      dup3\n        /* \"contracts/distribution/TombGenesisRewardPool.sol\":3261:3290  poolInfo[pid].token != _token */\n      0xffffffffffffffffffffffffffffffffffffffff\n      and\n        /* \"contracts/distribution/TombGenesisRewardPool.sol\":3261:3269  poolInfo */\n      0x05\n        /* \"contracts/distribution/TombGenesisRewardPool.sol\":3270:3273  pid */\n      dup3\n        /* \"contracts/distribution/TombGenesisRewardPool.sol\":3261:3274  poolInfo[pid] */\n      dup2\n      sload\n      dup2\n      lt\n      tag_330\n      jumpi\n      invalid\n    tag_330:\n      swap1\n      0x00\n      mstore\n      keccak256(0x00, 0x20)\n      swap1\n      0x05\n      mul\n      add\n        /* \"contracts/distribution/TombGenesisRewardPool.sol\":3261:3280  poolInfo[pid].token */\n      0x00\n      add\n      0x00\n      swap1\n      sload\n      swap1\n      0x0100\n      exp\n      swap1\n      div\n      0xffffffffffffffffffffffffffffffffffffffff\n      and\n        /* \"contracts/distribution/TombGenesisRewardPool.sol\":3261:3290  poolInfo[pid].token != _token */\n      0xffffffffffffffffffffffffffffffffffffffff\n      and\n      eq\n      iszero\n        /* \"contracts/distribution/TombGenesisRewardPool.sol\":3253:3326  require(poolInfo[pid].token != _token, \"PolyGenesisPool: existing pool?\") */\n      tag_332\n      jumpi\n      mload(0x40)\n      0x08c379a000000000000000000000000000000000000000000000000000000000\n      dup2\n      mstore\n      0x04\n      add\n      dup1\n      dup1\n      0x20\n      add\n      dup3\n      dup2\n      sub\n      dup3\n      mstore\n      0x1f\n      dup2\n      mstore\n      0x20\n      add\n      dup1\n      0x506f6c7947656e65736973506f6f6c3a206578697374696e6720706f6f6c3f00\n      dup2\n      mstore\n      pop\n      0x20\n      add\n      swap2\n      pop\n      pop\n      mload(0x40)\n      dup1\n      swap2\n      sub\n      swap1\n      revert\n    tag_332:\n        /* \"contracts/distribution/TombGenesisRewardPool.sol\":3231:3236  ++pid */\n      dup1\n      0x01\n      add\n      swap1\n      pop\n        /* \"contracts/distribution/TombGenesisRewardPool.sol\":3195:3338  for (uint256 pid = 0; pid < length; ++pid) {\r... */\n      jump(tag_327)\n    tag_328:\n      pop\n        /* \"contracts/distribution/TombGenesisRewardPool.sol\":3084:3345  function checkPoolDuplicate(IERC20 _token) internal view {\r... */\n      pop\n      pop\n      jump\t// out\n        /* \"@openzeppelin/contracts/utils/math/SafeMath.sol\":5601:5772  function ceil(uint256 a, uint256 m) internal pure returns (uint256) {... */\n    tag_254:\n        /* \"@openzeppelin/contracts/utils/math/SafeMath.sol\":5660:5667  uint256 */\n      0x00\n        /* \"@openzeppelin/contracts/utils/math/SafeMath.sol\":5679:5688  uint256 c */\n      dup1\n        /* \"@openzeppelin/contracts/utils/math/SafeMath.sol\":5691:5700  add(a, m) */\n      tag_334\n        /* \"@openzeppelin/contracts/utils/math/SafeMath.sol\":5695:5696  a */\n      dup5\n        /* \"@openzeppelin/contracts/utils/math/SafeMath.sol\":5698:5699  m */\n      dup5\n        /* \"@openzeppelin/contracts/utils/math/SafeMath.sol\":5691:5694  add */\n      tag_130\n        /* \"@openzeppelin/contracts/utils/math/SafeMath.sol\":5691:5700  add(a, m) */\n      jump\t// in\n    tag_334:\n        /* \"@openzeppelin/contracts/utils/math/SafeMath.sol\":5679:5700  uint256 c = add(a, m) */\n      swap1\n      pop\n        /* \"@openzeppelin/contracts/utils/math/SafeMath.sol\":5710:5719  uint256 d */\n      0x00\n        /* \"@openzeppelin/contracts/utils/math/SafeMath.sol\":5722:5731  sub(c, 1) */\n      tag_335\n        /* \"@openzeppelin/contracts/utils/math/SafeMath.sol\":5726:5727  c */\n      dup3\n        /* \"@openzeppelin/contracts/utils/math/SafeMath.sol\":5729:5730  1 */\n      0x01\n        /* \"@openzeppelin/contracts/utils/math/SafeMath.sol\":5722:5725  sub */\n      tag_129\n        /* \"@openzeppelin/contracts/utils/math/SafeMath.sol\":5722:5731  sub(c, 1) */\n      jump\t// in\n    tag_335:\n        /* \"@openzeppelin/contracts/utils/math/SafeMath.sol\":5710:5731  uint256 d = sub(c, 1) */\n      swap1\n      pop\n        /* \"@openzeppelin/contracts/utils/math/SafeMath.sol\":5748:5765  mul(div(d, m), m) */\n      tag_336\n        /* \"@openzeppelin/contracts/utils/math/SafeMath.sol\":5752:5761  div(d, m) */\n      tag_337\n        /* \"@openzeppelin/contracts/utils/math/SafeMath.sol\":5756:5757  d */\n      dup3\n        /* \"@openzeppelin/contracts/utils/math/SafeMath.sol\":5759:5760  m */\n      dup7\n        /* \"@openzeppelin/contracts/utils/math/SafeMath.sol\":5752:5755  div */\n      tag_165\n        /* \"@openzeppelin/contracts/utils/math/SafeMath.sol\":5752:5761  div(d, m) */\n      jump\t// in\n    tag_337:\n        /* \"@openzeppelin/contracts/utils/math/SafeMath.sol\":5763:5764  m */\n      dup6\n        /* \"@openzeppelin/contracts/utils/math/SafeMath.sol\":5748:5751  mul */\n      tag_138\n        /* \"@openzeppelin/contracts/utils/math/SafeMath.sol\":5748:5765  mul(div(d, m), m) */\n      jump\t// in\n    tag_336:\n        /* \"@openzeppelin/contracts/utils/math/SafeMath.sol\":5741:5765  return mul(div(d, m), m) */\n      swap3\n      pop\n      pop\n      pop\n        /* \"@openzeppelin/contracts/utils/math/SafeMath.sol\":5601:5772  function ceil(uint256 a, uint256 m) internal pure returns (uint256) {... */\n      swap3\n      swap2\n      pop\n      pop\n      jump\t// out\n        /* \"@openzeppelin/contracts/token/ERC20/utils/SafeERC20.sol\":898:1101  function safeTransferFrom(IERC20 token, address from, address to, uint256 value) internal {... */\n    tag_269:\n        /* \"@openzeppelin/contracts/token/ERC20/utils/SafeERC20.sol\":998:1094  _callOptionalReturn(token, abi.encodeWithSelector(token.transferFrom.selector, from, to, value)) */\n      tag_339\n        /* \"@openzeppelin/contracts/token/ERC20/utils/SafeERC20.sol\":1018:1023  token */\n      dup5\n        /* \"@openzeppelin/contracts/token/ERC20/utils/SafeERC20.sol\":1048:1075  token.transferFrom.selector */\n      shl(0xe0, 0x23b872dd)\n        /* \"@openzeppelin/contracts/token/ERC20/utils/SafeERC20.sol\":1077:1081  from */\n      dup6\n        /* \"@openzeppelin/contracts/token/ERC20/utils/SafeERC20.sol\":1083:1085  to */\n      dup6\n        /* \"@openzeppelin/contracts/token/ERC20/utils/SafeERC20.sol\":1087:1092  value */\n      dup6\n        /* \"@openzeppelin/contracts/token/ERC20/utils/SafeERC20.sol\":1025:1093  abi.encodeWithSelector(token.transferFrom.selector, from, to, value) */\n      add(0x24, mload(0x40))\n      dup1\n      dup5\n      0xffffffffffffffffffffffffffffffffffffffff\n      and\n      dup2\n      mstore\n      0x20\n      add\n      dup4\n      0xffffffffffffffffffffffffffffffffffffffff\n      and\n      dup2\n      mstore\n      0x20\n      add\n      dup3\n      dup2\n      mstore\n      0x20\n      add\n      swap4\n      pop\n      pop\n      pop\n      pop\n      mload(0x40)\n      0x20\n      dup2\n      dup4\n      sub\n      sub\n      dup2\n      mstore\n      swap1\n      0x40\n      mstore\n      swap1\n      not(0xffffffffffffffffffffffffffffffffffffffffffffffffffffffff)\n      and\n      0x20\n      dup3\n      add\n      dup1\n      mload\n      0xffffffffffffffffffffffffffffffffffffffffffffffffffffffff\n      dup4\n      dup2\n      dup4\n      and\n      or\n      dup4\n      mstore\n      pop\n      pop\n      pop\n      pop\n        /* \"@openzeppelin/contracts/token/ERC20/utils/SafeERC20.sol\":998:1017  _callOptionalReturn */\n      tag_325\n        /* \"@openzeppelin/contracts/token/ERC20/utils/SafeERC20.sol\":998:1094  _callOptionalReturn(token, abi.encodeWithSelector(token.transferFrom.selector, from, to, value)) */\n      jump\t// in\n    tag_339:\n        /* \"@openzeppelin/contracts/token/ERC20/utils/SafeERC20.sol\":898:1101  function safeTransferFrom(IERC20 token, address from, address to, uint256 value) internal {... */\n      pop\n      pop\n      pop\n      pop\n      jump\t// out\n        /* \"@openzeppelin/contracts/token/ERC20/utils/SafeERC20.sol\":2980:3731  function _callOptionalReturn(IERC20 token, bytes memory data) private {... */\n    tag_325:\n        /* \"@openzeppelin/contracts/token/ERC20/utils/SafeERC20.sol\":3399:3422  bytes memory returndata */\n      0x60\n        /* \"@openzeppelin/contracts/token/ERC20/utils/SafeERC20.sol\":3425:3494  address(token).functionCall(data, \"SafeERC20: low-level call failed\") */\n      tag_341\n        /* \"@openzeppelin/contracts/token/ERC20/utils/SafeERC20.sol\":3453:3457  data */\n      dup3\n        /* \"@openzeppelin/contracts/token/ERC20/utils/SafeERC20.sol\":3425:3494  address(token).functionCall(data, \"SafeERC20: low-level call failed\") */\n      mload(0x40)\n      dup1\n      0x40\n      add\n      0x40\n      mstore\n      dup1\n      0x20\n      dup2\n      mstore\n      0x20\n      add\n      0x5361666545524332303a206c6f772d6c6576656c2063616c6c206661696c6564\n      dup2\n      mstore\n      pop\n        /* \"@openzeppelin/contracts/token/ERC20/utils/SafeERC20.sol\":3433:3438  token */\n      dup6\n        /* \"@openzeppelin/contracts/token/ERC20/utils/SafeERC20.sol\":3425:3452  address(token).functionCall */\n      0xffffffffffffffffffffffffffffffffffffffff\n      and\n      tag_342\n      swap1\n        /* \"@openzeppelin/contracts/token/ERC20/utils/SafeERC20.sol\":3425:3494  address(token).functionCall(data, \"SafeERC20: low-level call failed\") */\n      swap3\n      swap2\n      swap1\n      0xffffffff\n      and\n      jump\t// in\n    tag_341:\n        /* \"@openzeppelin/contracts/token/ERC20/utils/SafeERC20.sol\":3399:3494  bytes memory returndata = address(token).functionCall(data, \"SafeERC20: low-level call failed\") */\n      swap1\n      pop\n        /* \"@openzeppelin/contracts/token/ERC20/utils/SafeERC20.sol\":3528:3529  0 */\n      0x00\n        /* \"@openzeppelin/contracts/token/ERC20/utils/SafeERC20.sol\":3508:3518  returndata */\n      dup2\n        /* \"@openzeppelin/contracts/token/ERC20/utils/SafeERC20.sol\":3508:3525  returndata.length */\n      mload\n        /* \"@openzeppelin/contracts/token/ERC20/utils/SafeERC20.sol\":3508:3529  returndata.length > 0 */\n      gt\n        /* \"@openzeppelin/contracts/token/ERC20/utils/SafeERC20.sol\":3504:3725  if (returndata.length > 0) { // Return data is optional... */\n      iszero\n      tag_343\n      jumpi\n        /* \"@openzeppelin/contracts/token/ERC20/utils/SafeERC20.sol\":3648:3658  returndata */\n      dup1\n        /* \"@openzeppelin/contracts/token/ERC20/utils/SafeERC20.sol\":3637:3667  abi.decode(returndata, (bool)) */\n      dup1\n      0x20\n      add\n      swap1\n      mload\n      0x20\n      dup2\n      lt\n      iszero\n      tag_344\n      jumpi\n      0x00\n      dup1\n      revert\n    tag_344:\n      dup2\n      add\n      swap1\n      dup1\n      dup1\n      mload\n      swap1\n      0x20\n      add\n      swap1\n      swap3\n      swap2\n      swap1\n      pop\n      pop\n      pop\n        /* \"@openzeppelin/contracts/token/ERC20/utils/SafeERC20.sol\":3629:3714  require(abi.decode(returndata, (bool)), \"SafeERC20: ERC20 operation did not succeed\") */\n      tag_345\n      jumpi\n      mload(0x40)\n      0x08c379a000000000000000000000000000000000000000000000000000000000\n      dup2\n      mstore\n      0x04\n      add\n      dup1\n      dup1\n      0x20\n      add\n      dup3\n      dup2\n      sub\n      dup3\n      mstore\n      0x2a\n      dup2\n      mstore\n      0x20\n      add\n      dup1\n      data_e11ad79d1e4a7f2e5f376964cb99e8e8f7904e3fc16a109f7a7ecb9aa7956dcd\n      0x2a\n      swap2\n      codecopy\n      0x40\n      add\n      swap2\n      pop\n      pop\n      mload(0x40)\n      dup1\n      swap2\n      sub\n      swap1\n      revert\n    tag_345:\n        /* \"@openzeppelin/contracts/token/ERC20/utils/SafeERC20.sol\":3504:3725  if (returndata.length > 0) { // Return data is optional... */\n    tag_343:\n        /* \"@openzeppelin/contracts/token/ERC20/utils/SafeERC20.sol\":2980:3731  function _callOptionalReturn(IERC20 token, bytes memory data) private {... */\n      pop\n      pop\n      pop\n      jump\t// out\n        /* \"@openzeppelin/contracts/utils/Address.sol\":3470:3693  function functionCall(... */\n    tag_342:\n        /* \"@openzeppelin/contracts/utils/Address.sol\":3603:3615  bytes memory */\n      0x60\n        /* \"@openzeppelin/contracts/utils/Address.sol\":3634:3686  functionCallWithValue(target, data, 0, errorMessage) */\n      tag_347\n        /* \"@openzeppelin/contracts/utils/Address.sol\":3656:3662  target */\n      dup5\n        /* \"@openzeppelin/contracts/utils/Address.sol\":3664:3668  data */\n      dup5\n        /* \"@openzeppelin/contracts/utils/Address.sol\":3670:3671  0 */\n      0x00\n        /* \"@openzeppelin/contracts/utils/Address.sol\":3673:3685  errorMessage */\n      dup6\n        /* \"@openzeppelin/contracts/utils/Address.sol\":3634:3655  functionCallWithValue */\n      tag_348\n        /* \"@openzeppelin/contracts/utils/Address.sol\":3634:3686  functionCallWithValue(target, data, 0, errorMessage) */\n      jump\t// in\n    tag_347:\n        /* \"@openzeppelin/contracts/utils/Address.sol\":3627:3686  return functionCallWithValue(target, data, 0, errorMessage) */\n      swap1\n      pop\n        /* \"@openzeppelin/contracts/utils/Address.sol\":3470:3693  function functionCall(... */\n      swap4\n      swap3\n      pop\n      pop\n      pop\n      jump\t// out\n        /* \"@openzeppelin/contracts/utils/Address.sol\":4557:5056  function functionCallWithValue(... */\n    tag_348:\n        /* \"@openzeppelin/contracts/utils/Address.sol\":4722:4734  bytes memory */\n      0x60\n        /* \"@openzeppelin/contracts/utils/Address.sol\":4779:4784  value */\n      dup3\n        /* \"@openzeppelin/contracts/utils/Address.sol\":4754:4775  address(this).balance */\n      selfbalance\n        /* \"@openzeppelin/contracts/utils/Address.sol\":4754:4784  address(this).balance >= value */\n      lt\n      iszero\n        /* \"@openzeppelin/contracts/utils/Address.sol\":4746:4827  require(address(this).balance >= value, \"Address: insufficient balance for call\") */\n      tag_350\n      jumpi\n      mload(0x40)\n      0x08c379a000000000000000000000000000000000000000000000000000000000\n      dup2\n      mstore\n      0x04\n      add\n      dup1\n      dup1\n      0x20\n      add\n      dup3\n      dup2\n      sub\n      dup3\n      mstore\n      0x26\n      dup2\n      mstore\n      0x20\n      add\n      dup1\n      data_565f1a77334fc4792800921178c71e4521acffab18ff9e7885b49377ee80ab4c\n      0x26\n      swap2\n      codecopy\n      0x40\n      add\n      swap2\n      pop\n      pop\n      mload(0x40)\n      dup1\n      swap2\n      sub\n      swap1\n      revert\n    tag_350:\n        /* \"@openzeppelin/contracts/utils/Address.sol\":4845:4863  isContract(target) */\n      tag_351\n        /* \"@openzeppelin/contracts/utils/Address.sol\":4856:4862  target */\n      dup6\n        /* \"@openzeppelin/contracts/utils/Address.sol\":4845:4855  isContract */\n      tag_352\n        /* \"@openzeppelin/contracts/utils/Address.sol\":4845:4863  isContract(target) */\n      jump\t// in\n    tag_351:\n        /* \"@openzeppelin/contracts/utils/Address.sol\":4837:4897  require(isContract(target), \"Address: call to non-contract\") */\n      tag_353\n      jumpi\n      mload(0x40)\n      0x08c379a000000000000000000000000000000000000000000000000000000000\n      dup2\n      mstore\n      0x04\n      add\n      dup1\n      dup1\n      0x20\n      add\n      dup3\n      dup2\n      sub\n      dup3\n      mstore\n      0x1d\n      dup2\n      mstore\n      0x20\n      add\n      dup1\n      0x416464726573733a2063616c6c20746f206e6f6e2d636f6e7472616374000000\n      dup2\n      mstore\n      pop\n      0x20\n      add\n      swap2\n      pop\n      pop\n      mload(0x40)\n      dup1\n      swap2\n      sub\n      swap1\n      revert\n    tag_353:\n        /* \"@openzeppelin/contracts/utils/Address.sol\":4909:4921  bool success */\n      0x00\n        /* \"@openzeppelin/contracts/utils/Address.sol\":4923:4946  bytes memory returndata */\n      0x60\n        /* \"@openzeppelin/contracts/utils/Address.sol\":4950:4956  target */\n      dup7\n        /* \"@openzeppelin/contracts/utils/Address.sol\":4950:4961  target.call */\n      0xffffffffffffffffffffffffffffffffffffffff\n      and\n        /* \"@openzeppelin/contracts/utils/Address.sol\":4969:4974  value */\n      dup6\n        /* \"@openzeppelin/contracts/utils/Address.sol\":4976:4980  data */\n      dup8\n        /* \"@openzeppelin/contracts/utils/Address.sol\":4950:4981  target.call{value: value}(data) */\n      mload(0x40)\n      dup1\n      dup3\n      dup1\n      mload\n      swap1\n      0x20\n      add\n      swap1\n      dup1\n      dup4\n      dup4\n    tag_354:\n      0x20\n      dup4\n      lt\n      tag_356\n      jumpi\n      dup1\n      mload\n      dup3\n      mstore\n      0x20\n      dup3\n      add\n      swap2\n      pop\n      0x20\n      dup2\n      add\n      swap1\n      pop\n      0x20\n      dup4\n      sub\n      swap3\n      pop\n      jump(tag_354)\n    tag_356:\n      0x01\n      dup4\n      0x20\n      sub\n      0x0100\n      exp\n      sub\n      dup1\n      not\n      dup3\n      mload\n      and\n      dup2\n      dup5\n      mload\n      and\n      dup1\n      dup3\n      or\n      dup6\n      mstore\n      pop\n      pop\n      pop\n      pop\n      pop\n      pop\n      swap1\n      pop\n      add\n      swap2\n      pop\n      pop\n      0x00\n      mload(0x40)\n      dup1\n      dup4\n      sub\n      dup2\n      dup6\n      dup8\n      gas\n      call\n      swap3\n      pop\n      pop\n      pop\n      returndatasize\n      dup1\n      0x00\n      dup2\n      eq\n      tag_359\n      jumpi\n      mload(0x40)\n      swap2\n      pop\n      and(add(returndatasize, 0x3f), not(0x1f))\n      dup3\n      add\n      0x40\n      mstore\n      returndatasize\n      dup3\n      mstore\n      returndatasize\n      0x00\n      0x20\n      dup5\n      add\n      returndatacopy\n      jump(tag_358)\n    tag_359:\n      0x60\n      swap2\n      pop\n    tag_358:\n      pop\n        /* \"@openzeppelin/contracts/utils/Address.sol\":4908:4981  (bool success, bytes memory returndata) = target.call{value: value}(data) */\n      swap2\n      pop\n      swap2\n      pop\n        /* \"@openzeppelin/contracts/utils/Address.sol\":4998:5049  verifyCallResult(success, returndata, errorMessage) */\n      tag_360\n        /* \"@openzeppelin/contracts/utils/Address.sol\":5015:5022  success */\n      dup3\n        /* \"@openzeppelin/contracts/utils/Address.sol\":5024:5034  returndata */\n      dup3\n        /* \"@openzeppelin/contracts/utils/Address.sol\":5036:5048  errorMessage */\n      dup7\n        /* \"@openzeppelin/contracts/utils/Address.sol\":4998:5014  verifyCallResult */\n      tag_361\n        /* \"@openzeppelin/contracts/utils/Address.sol\":4998:5049  verifyCallResult(success, returndata, errorMessage) */\n      jump\t// in\n    tag_360:\n        /* \"@openzeppelin/contracts/utils/Address.sol\":4991:5049  return verifyCallResult(success, returndata, errorMessage) */\n      swap3\n      pop\n      pop\n      pop\n        /* \"@openzeppelin/contracts/utils/Address.sol\":4557:5056  function functionCallWithValue(... */\n      swap5\n      swap4\n      pop\n      pop\n      pop\n      pop\n      jump\t// out\n        /* \"@openzeppelin/contracts/utils/Address.sol\":727:1104  function isContract(address account) internal view returns (bool) {... */\n    tag_352:\n        /* \"@openzeppelin/contracts/utils/Address.sol\":787:791  bool */\n      0x00\n        /* \"@openzeppelin/contracts/utils/Address.sol\":990:1002  uint256 size */\n      dup1\n        /* \"@openzeppelin/contracts/utils/Address.sol\":1055:1062  account */\n      dup3\n        /* \"@openzeppelin/contracts/utils/Address.sol\":1043:1063  extcodesize(account) */\n      extcodesize\n        /* \"@openzeppelin/contracts/utils/Address.sol\":1035:1063  size := extcodesize(account) */\n      swap1\n      pop\n        /* \"@openzeppelin/contracts/utils/Address.sol\":1096:1097  0 */\n      0x00\n        /* \"@openzeppelin/contracts/utils/Address.sol\":1089:1093  size */\n      dup2\n        /* \"@openzeppelin/contracts/utils/Address.sol\":1089:1097  size > 0 */\n      gt\n        /* \"@openzeppelin/contracts/utils/Address.sol\":1082:1097  return size > 0 */\n      swap2\n      pop\n      pop\n        /* \"@openzeppelin/contracts/utils/Address.sol\":727:1104  function isContract(address account) internal view returns (bool) {... */\n      swap2\n      swap1\n      pop\n      jump\t// out\n        /* \"@openzeppelin/contracts/utils/Address.sol\":7170:7862  function verifyCallResult(... */\n    tag_361:\n        /* \"@openzeppelin/contracts/utils/Address.sol\":7316:7328  bytes memory */\n      0x60\n        /* \"@openzeppelin/contracts/utils/Address.sol\":7344:7351  success */\n      dup4\n        /* \"@openzeppelin/contracts/utils/Address.sol\":7340:7856  if (success) {... */\n      iszero\n      tag_364\n      jumpi\n        /* \"@openzeppelin/contracts/utils/Address.sol\":7374:7384  returndata */\n      dup3\n        /* \"@openzeppelin/contracts/utils/Address.sol\":7367:7384  return returndata */\n      swap1\n      pop\n      jump(tag_363)\n        /* \"@openzeppelin/contracts/utils/Address.sol\":7340:7856  if (success) {... */\n    tag_364:\n        /* \"@openzeppelin/contracts/utils/Address.sol\":7505:7506  0 */\n      0x00\n        /* \"@openzeppelin/contracts/utils/Address.sol\":7485:7495  returndata */\n      dup4\n        /* \"@openzeppelin/contracts/utils/Address.sol\":7485:7502  returndata.length */\n      mload\n        /* \"@openzeppelin/contracts/utils/Address.sol\":7485:7506  returndata.length > 0 */\n      gt\n        /* \"@openzeppelin/contracts/utils/Address.sol\":7481:7846  if (returndata.length > 0) {... */\n      iszero\n      tag_366\n      jumpi\n        /* \"@openzeppelin/contracts/utils/Address.sol\":7679:7689  returndata */\n      dup3\n        /* \"@openzeppelin/contracts/utils/Address.sol\":7673:7690  mload(returndata) */\n      mload\n        /* \"@openzeppelin/contracts/utils/Address.sol\":7739:7754  returndata_size */\n      dup1\n        /* \"@openzeppelin/contracts/utils/Address.sol\":7726:7736  returndata */\n      dup5\n        /* \"@openzeppelin/contracts/utils/Address.sol\":7722:7724  32 */\n      0x20\n        /* \"@openzeppelin/contracts/utils/Address.sol\":7718:7737  add(32, returndata) */\n      add\n        /* \"@openzeppelin/contracts/utils/Address.sol\":7711:7755  revert(add(32, returndata), returndata_size) */\n      revert\n        /* \"@openzeppelin/contracts/utils/Address.sol\":7628:7773  {... */\n    tag_366:\n        /* \"@openzeppelin/contracts/utils/Address.sol\":7818:7830  errorMessage */\n      dup2\n        /* \"@openzeppelin/contracts/utils/Address.sol\":7811:7831  revert(errorMessage) */\n      mload(0x40)\n      0x08c379a000000000000000000000000000000000000000000000000000000000\n      dup2\n      mstore\n      0x04\n      add\n      dup1\n      dup1\n      0x20\n      add\n      dup3\n      dup2\n      sub\n      dup3\n      mstore\n      dup4\n      dup2\n      dup2\n      mload\n      dup2\n      mstore\n      0x20\n      add\n      swap2\n      pop\n      dup1\n      mload\n      swap1\n      0x20\n      add\n      swap1\n      dup1\n      dup4\n      dup4\n      0x00\n    tag_368:\n      dup4\n      dup2\n      lt\n      iszero\n      tag_370\n      jumpi\n      dup1\n      dup3\n      add\n      mload\n      dup2\n      dup5\n      add\n      mstore\n      0x20\n      dup2\n      add\n      swap1\n      pop\n      jump(tag_368)\n    tag_370:\n      pop\n      pop\n      pop\n      pop\n      swap1\n      pop\n      swap1\n      dup2\n      add\n      swap1\n      0x1f\n      and\n      dup1\n      iszero\n      tag_371\n      jumpi\n      dup1\n      dup3\n      sub\n      dup1\n      mload\n      0x01\n      dup4\n      0x20\n      sub\n      0x0100\n      exp\n      sub\n      not\n      and\n      dup2\n      mstore\n      0x20\n      add\n      swap2\n      pop\n    tag_371:\n      pop\n      swap3\n      pop\n      pop\n      pop\n      mload(0x40)\n      dup1\n      swap2\n      sub\n      swap1\n      revert\n        /* \"@openzeppelin/contracts/utils/Address.sol\":7170:7862  function verifyCallResult(... */\n    tag_363:\n      swap4\n      swap3\n      pop\n      pop\n      pop\n      jump\t// out\n    stop\n    data_245f15ff17f551913a7a18385165551503906a406f905ac1c2437281a7cd0cfe 4f776e61626c653a206e6577206f776e657220697320746865207a65726f2061646472657373\n    data_565f1a77334fc4792800921178c71e4521acffab18ff9e7885b49377ee80ab4c 416464726573733a20696e73756666696369656e742062616c616e636520666f722063616c6c\n    data_756508c1c0554725dd91ce0028667672a5318d736a5e4bcd98b6bc8fe98c3dc7 6f70657261746f723a207a65726f206164647265737320676976656e20666f72206e6577206f70657261746f72\n    data_9113bb53c2876a3805b2c9242029423fc540a728243ce887ab24c82cf119fba3 536166654d6174683a206d756c7469706c69636174696f6e206f766572666c6f77\n    data_a62bfdba5053072911b63b0f6325b0e83fcd28b5a847d97efdd966feb4daaafb 6f70657261746f723a2063616c6c6572206973206e6f7420746865206f70657261746f72\n    data_e11ad79d1e4a7f2e5f376964cb99e8e8f7904e3fc16a109f7a7ecb9aa7956dcd 5361666545524332303a204552433230206f7065726174696f6e20646964206e6f742073756363656564\n\n    auxdata: 0xa2646970667358221220f810fb44d7199546fde003507d8cf8c1c0a1678094715b9cb8f26475efd6ab8b64736f6c634300060c0033\n}\n",
				"bytecode": {
					"linkReferences": {},
					"object": "60806040526000600660006101000a81548160ff0219169083151502179055506000600855670156a8c394962000600b556203f480600c553480156200004457600080fd5b50600062000057620001c860201b60201c565b9050806000806101000a81548173ffffffffffffffffffffffffffffffffffffffff021916908373ffffffffffffffffffffffffffffffffffffffff1602179055508073ffffffffffffffffffffffffffffffffffffffff16600073ffffffffffffffffffffffffffffffffffffffff167f8be0079c531659141344cd1fd0a4f28419497f9722a3daafe3b4186f6b6457e060405160405180910390a35062000105620001c860201b60201c565b600160006101000a81548173ffffffffffffffffffffffffffffffffffffffff021916908373ffffffffffffffffffffffffffffffffffffffff160217905550600160009054906101000a900473ffffffffffffffffffffffffffffffffffffffff1673ffffffffffffffffffffffffffffffffffffffff16600073ffffffffffffffffffffffffffffffffffffffff167f74da04524d50c64947f5dd5381ef1a4dca5cba8ed1d816243f9e48aa0b5617ed60405160405180910390a3620001d0565b600033905090565b61309480620001e06000396000f3fe608060405234801561001057600080fd5b50600436106101e55760003560e01c8063570ca7351161010f57806396805e54116100a2578063e177bb3811610071578063e177bb381461076b578063e2bbb1581461079f578063ecf4deb9146107d7578063f2fde38b14610839576101e5565b806396805e5414610657578063b3ab15fb146106bb578063cd6dc687146106ff578063d212a69a1461074d576101e5565b8063715018a6116100de578063715018a6146105925780638da5cb5b1461059c57806393f1a40b146105d0578063943f013d14610639576101e5565b8063570ca735146105185780635f96dc111461054c578063630b5ba11461056a5780636e271dd514610574576101e5565b80632bf8542c116101875780634456eda2116101565780634456eda21461042e57806351eb05a61461044e5780635312ea8e1461047c57806354575af4146104aa576101e5565b80632bf8542c14610384578063392e53cd146103b85780633f7caf52146103d8578063441a3e70146103f6576101e5565b806317caf6f1116101c357806317caf6f11461029e5780631ab06ee5146102bc578063231f0c6a146102f457806329605e7714610340576101e5565b806309cf6091146101ea5780631526fe2714610208578063158ef93e1461027e575b600080fd5b6101f261087d565b6040518082815260200191505060405180910390f35b6102346004803603602081101561021e57600080fd5b810190808035906020019092919050505061088b565b604051808673ffffffffffffffffffffffffffffffffffffffff16815260200185815260200184815260200183815260200182151581526020019550505050505060405180910390f35b6102866108fb565b60405180821515815260200191505060405180910390f35b6102a661090e565b6040518082815260200191505060405180910390f35b6102f2600480360360408110156102d257600080fd5b810190808035906020019092919080359060200190929190505050610914565b005b61032a6004803603604081101561030a57600080fd5b810190808035906020019092919080359060200190929190505050610a38565b6040518082815260200191505060405180910390f35b6103826004803603602081101561035657600080fd5b81019080803573ffffffffffffffffffffffffffffffffffffffff169060200190929190505050610b4b565b005b61038c610c06565b604051808273ffffffffffffffffffffffffffffffffffffffff16815260200191505060405180910390f35b6103c0610c2c565b60405180821515815260200191505060405180910390f35b6103e0610c43565b6040518082815260200191505060405180910390f35b61042c6004803603604081101561040c57600080fd5b810190808035906020019092919080359060200190929190505050610c49565b005b610436610f01565b60405180821515815260200191505060405180910390f35b61047a6004803603602081101561046457600080fd5b8101908080359060200190929190505050610f60565b005b6104a86004803603602081101561049257600080fd5b810190808035906020019092919050505061116f565b005b610516600480360360608110156104c057600080fd5b81019080803573ffffffffffffffffffffffffffffffffffffffff16906020019092919080359060200190929190803573ffffffffffffffffffffffffffffffffffffffff1690602001909291905050506112a3565b005b610520611555565b604051808273ffffffffffffffffffffffffffffffffffffffff16815260200191505060405180910390f35b61055461157f565b6040518082815260200191505060405180910390f35b610572611585565b005b61057c6115b2565b6040518082815260200191505060405180910390f35b61059a6115b8565b005b6105a4611725565b604051808273ffffffffffffffffffffffffffffffffffffffff16815260200191505060405180910390f35b61061c600480360360408110156105e657600080fd5b8101908080359060200190929190803573ffffffffffffffffffffffffffffffffffffffff16906020019092919050505061174e565b604051808381526020018281526020019250505060405180910390f35b61064161177f565b6040518082815260200191505060405180910390f35b6106b96004803603608081101561066d57600080fd5b8101908080359060200190929190803573ffffffffffffffffffffffffffffffffffffffff16906020019092919080351515906020019092919080359060200190929190505050611785565b005b6106fd600480360360208110156106d157600080fd5b81019080803573ffffffffffffffffffffffffffffffffffffffff1690602001909291905050506119be565b005b61074b6004803603604081101561071557600080fd5b81019080803573ffffffffffffffffffffffffffffffffffffffff16906020019092919080359060200190929190505050611a70565b005b610755611d00565b6040518082815260200191505060405180910390f35b610773611d06565b604051808273ffffffffffffffffffffffffffffffffffffffff16815260200191505060405180910390f35b6107d5600480360360408110156107b557600080fd5b810190808035906020019092919080359060200190929190505050611d2c565b005b610823600480360360408110156107ed57600080fd5b8101908080359060200190929190803573ffffffffffffffffffffffffffffffffffffffff16906020019092919050505061204b565b6040518082815260200191505060405180910390f35b61087b6004803603602081101561084f57600080fd5b81019080803573ffffffffffffffffffffffffffffffffffffffff169060200190929190505050612283565b005b69054b40b1f852bda0000081565b6005818154811061089857fe5b90600052602060002090600502016000915090508060000160009054906101000a900473ffffffffffffffffffffffffffffffffffffffff16908060010154908060020154908060030154908060040160009054906101000a900460ff16905085565b600660009054906101000a900460ff1681565b60085481565b3373ffffffffffffffffffffffffffffffffffffffff16600160009054906101000a900473ffffffffffffffffffffffffffffffffffffffff1673ffffffffffffffffffffffffffffffffffffffff16146109ba576040517f08c379a00000000000000000000000000000000000000000000000000000000081526004018080602001828103825260248152602001806130116024913960400191505060405180910390fd5b6109c2611585565b6000600583815481106109d157fe5b906000526020600020906005020190508060040160009054906101000a900460ff1615610a2a57610a2382610a15836001015460085461247590919063ffffffff16565b6124f890919063ffffffff16565b6008819055505b818160010181905550505050565b6000818310610a4a5760009050610b45565b600a548210610ad057600a548310610a655760009050610b45565b6009548311610aa057610a99600b54610a8b600954600a5461247590919063ffffffff16565b61258090919063ffffffff16565b9050610b45565b610ac9600b54610abb85600a5461247590919063ffffffff16565b61258090919063ffffffff16565b9050610b45565b6009548211610ae25760009050610b45565b6009548311610b1b57610b14600b54610b066009548561247590919063ffffffff16565b61258090919063ffffffff16565b9050610b45565b610b42600b54610b34858561247590919063ffffffff16565b61258090919063ffffffff16565b90505b92915050565b610b53612606565b73ffffffffffffffffffffffffffffffffffffffff16610b71611725565b73ffffffffffffffffffffffffffffffffffffffff1614610bfa576040517f08c379a00000000000000000000000000000000000000000000000000000000081526004018080602001828103825260208152602001807f4f776e61626c653a2063616c6c6572206973206e6f7420746865206f776e657281525060200191505060405180910390fd5b610c038161260e565b50565b600460009054906101000a900473ffffffffffffffffffffffffffffffffffffffff1681565b6000600660009054906101000a900460ff16905090565b600b5481565b6000339050600060058481548110610c5d57fe5b9060005260206000209060050201905060006007600086815260200190815260200160002060008473ffffffffffffffffffffffffffffffffffffffff1673ffffffffffffffffffffffffffffffffffffffff16815260200190815260200160002090508381600001541015610d3b576040517f08c379a00000000000000000000000000000000000000000000000000000000081526004018080602001828103825260128152602001807f77697468647261773a206e6f7420676f6f64000000000000000000000000000081525060200191505060405180910390fd5b610d4485610f60565b6000610d918260010154610d83670de0b6b3a7640000610d758760030154876000015461258090919063ffffffff16565b61273c90919063ffffffff16565b61247590919063ffffffff16565b90506000811115610df557610da684826127c5565b8373ffffffffffffffffffffffffffffffffffffffff167fe2403640ba68fed3a2f88b7557551d1993f84b99bb10ff833f0cf8db0c5e0486826040518082815260200191505060405180910390a25b6000851115610e6d57610e1585836000015461247590919063ffffffff16565b8260000181905550610e6c84868560000160009054906101000a900473ffffffffffffffffffffffffffffffffffffffff1673ffffffffffffffffffffffffffffffffffffffff166129449092919063ffffffff16565b5b610ea2670de0b6b3a7640000610e948560030154856000015461258090919063ffffffff16565b61273c90919063ffffffff16565b8260010181905550858473ffffffffffffffffffffffffffffffffffffffff167ff279e6a1f5e320cca91135676d9cb6e44ca8a08c0b88342bcdb1144f6511b568876040518082815260200191505060405180910390a3505050505050565b6000600160009054906101000a900473ffffffffffffffffffffffffffffffffffffffff1673ffffffffffffffffffffffffffffffffffffffff16610f44612606565b73ffffffffffffffffffffffffffffffffffffffff1614905090565b600060058281548110610f6f57fe5b9060005260206000209060050201905080600201544211610f90575061116c565b60008160000160009054906101000a900473ffffffffffffffffffffffffffffffffffffffff1673ffffffffffffffffffffffffffffffffffffffff166370a08231306040518263ffffffff1660e01b8152600401808273ffffffffffffffffffffffffffffffffffffffff16815260200191505060206040518083038186803b15801561101d57600080fd5b505afa158015611031573d6000803e3d6000fd5b505050506040513d602081101561104757600080fd5b81019080805190602001909291905050509050600081141561107357428260020181905550505061116c565b8160040160009054906101000a900460ff166110c65760018260040160006101000a81548160ff0219169083151502179055506110bf82600101546008546124f890919063ffffffff16565b6008819055505b600060085411156111605760006110e1836002015442610a38565b9050600061111060085461110286600101548561258090919063ffffffff16565b61273c90919063ffffffff16565b905061115561114284611134670de0b6b3a76400008561258090919063ffffffff16565b61273c90919063ffffffff16565b85600301546124f890919063ffffffff16565b846003018190555050505b42826002018190555050505b50565b60006005828154811061117e57fe5b9060005260206000209060050201905060006007600084815260200190815260200160002060003373ffffffffffffffffffffffffffffffffffffffff1673ffffffffffffffffffffffffffffffffffffffff1681526020019081526020016000209050600081600001549050600082600001819055506000826001018190555061124e33828560000160009054906101000a900473ffffffffffffffffffffffffffffffffffffffff1673ffffffffffffffffffffffffffffffffffffffff166129449092919063ffffffff16565b833373ffffffffffffffffffffffffffffffffffffffff167fbb757047c2b5f3974fe26b7c10f732e7bce710b0952a71082702781e62ae0595836040518082815260200191505060405180910390a350505050565b3373ffffffffffffffffffffffffffffffffffffffff16600160009054906101000a900473ffffffffffffffffffffffffffffffffffffffff1673ffffffffffffffffffffffffffffffffffffffff1614611349576040517f08c379a00000000000000000000000000000000000000000000000000000000081526004018080602001828103825260248152602001806130116024913960400191505060405180910390fd5b6276a700600a540142101561152557600260009054906101000a900473ffffffffffffffffffffffffffffffffffffffff1673ffffffffffffffffffffffffffffffffffffffff168373ffffffffffffffffffffffffffffffffffffffff16141561141c576040517f08c379a00000000000000000000000000000000000000000000000000000000081526004018080602001828103825260048152602001807f506f6c790000000000000000000000000000000000000000000000000000000081525060200191505060405180910390fd5b6000600580549050905060005b818110156115225760006005828154811061144057fe5b906000526020600020906005020190508060000160009054906101000a900473ffffffffffffffffffffffffffffffffffffffff1673ffffffffffffffffffffffffffffffffffffffff168673ffffffffffffffffffffffffffffffffffffffff161415611516576040517f08c379a000000000000000000000000000000000000000000000000000000000815260040180806020018281038252600a8152602001807f706f6f6c2e746f6b656e0000000000000000000000000000000000000000000081525060200191505060405180910390fd5b50806001019050611429565b50505b61155081838573ffffffffffffffffffffffffffffffffffffffff166129449092919063ffffffff16565b505050565b6000600160009054906101000a900473ffffffffffffffffffffffffffffffffffffffff16905090565b60095481565b6000600580549050905060005b818110156115ae576115a381610f60565b806001019050611592565b5050565b600a5481565b6115c0612606565b73ffffffffffffffffffffffffffffffffffffffff166115de611725565b73ffffffffffffffffffffffffffffffffffffffff1614611667576040517f08c379a00000000000000000000000000000000000000000000000000000000081526004018080602001828103825260208152602001807f4f776e61626c653a2063616c6c6572206973206e6f7420746865206f776e657281525060200191505060405180910390fd5b600073ffffffffffffffffffffffffffffffffffffffff1660008054906101000a900473ffffffffffffffffffffffffffffffffffffffff1673ffffffffffffffffffffffffffffffffffffffff167f8be0079c531659141344cd1fd0a4f28419497f9722a3daafe3b4186f6b6457e060405160405180910390a360008060006101000a81548173ffffffffffffffffffffffffffffffffffffffff021916908373ffffffffffffffffffffffffffffffffffffffff160217905550565b60008060009054906101000a900473ffffffffffffffffffffffffffffffffffffffff16905090565b6007602052816000526040600020602052806000526040600020600091509150508060000154908060010154905082565b600c5481565b3373ffffffffffffffffffffffffffffffffffffffff16600160009054906101000a900473ffffffffffffffffffffffffffffffffffffffff1673ffffffffffffffffffffffffffffffffffffffff161461182b576040517f08c379a00000000000000000000000000000000000000000000000000000000081526004018080602001828103825260248152602001806130116024913960400191505060405180910390fd5b611834836129e6565b811561184357611842611585565b5b600954421015611876576000811415611860576009549050611871565b6009548110156118705760095490505b5b61188e565b600081148061188457504281105b1561188d574290505b5b6000600954821115806118a15750428211155b905060056040518060a001604052808673ffffffffffffffffffffffffffffffffffffffff16815260200187815260200184815260200160008152602001831515815250908060018154018082558091505060019003906000526020600020906005020160009091909190915060008201518160000160006101000a81548173ffffffffffffffffffffffffffffffffffffffff021916908373ffffffffffffffffffffffffffffffffffffffff16021790555060208201518160010155604082015181600201556060820151816003015560808201518160040160006101000a81548160ff021916908315150217905550505080156119b7576119b0856008546124f890919063ffffffff16565b6008819055505b5050505050565b3373ffffffffffffffffffffffffffffffffffffffff16600160009054906101000a900473ffffffffffffffffffffffffffffffffffffffff1673ffffffffffffffffffffffffffffffffffffffff1614611a64576040517f08c379a00000000000000000000000000000000000000000000000000000000081526004018080602001828103825260248152602001806130116024913960400191505060405180910390fd5b611a6d81610b4b565b50565b600660009054906101000a900460ff1615611af3576040517f08c379a000000000000000000000000000000000000000000000000000000000815260040180806020018281038252601c8152602001807f47656e657369733a20616c726561647920696e697469616c697a65640000000081525060200191505060405180910390fd5b3373ffffffffffffffffffffffffffffffffffffffff16600160009054906101000a900473ffffffffffffffffffffffffffffffffffffffff1673ffffffffffffffffffffffffffffffffffffffff1614611b99576040517f08c379a00000000000000000000000000000000000000000000000000000000081526004018080602001828103825260248152602001806130116024913960400191505060405180910390fd5b804210611c0e576040517f08c379a00000000000000000000000000000000000000000000000000000000081526004018080602001828103825260048152602001807f6c6174650000000000000000000000000000000000000000000000000000000081525060200191505060405180910390fd5b600073ffffffffffffffffffffffffffffffffffffffff168273ffffffffffffffffffffffffffffffffffffffff1614611c845781600260006101000a81548173ffffffffffffffffffffffffffffffffffffffff021916908373ffffffffffffffffffffffffffffffffffffffff1602179055505b33600460006101000a81548173ffffffffffffffffffffffffffffffffffffffff021916908373ffffffffffffffffffffffffffffffffffffffff16021790555080600981905550600c5460095401600a8190555060c86003819055506001600660006101000a81548160ff0219169083151502179055505050565b60035481565b600260009054906101000a900473ffffffffffffffffffffffffffffffffffffffff1681565b60003390506000611d4860035484612aeb90919063ffffffff16565b90506000611d75612710611d676003548561258090919063ffffffff16565b61273c90919063ffffffff16565b90506000611d8c828661247590919063ffffffff16565b9050600060058781548110611d9d57fe5b9060005260206000209060050201905060006007600089815260200190815260200160002060008773ffffffffffffffffffffffffffffffffffffffff1673ffffffffffffffffffffffffffffffffffffffff1681526020019081526020016000209050611e0a88610f60565b600081600001541115611eca576000611e648260010154611e56670de0b6b3a7640000611e488760030154876000015461258090919063ffffffff16565b61273c90919063ffffffff16565b61247590919063ffffffff16565b90506000811115611ec857611e7987826127c5565b8673ffffffffffffffffffffffffffffffffffffffff167fe2403640ba68fed3a2f88b7557551d1993f84b99bb10ff833f0cf8db0c5e0486826040518082815260200191505060405180910390a25b505b6000871115611fb557611f248630898560000160009054906101000a900473ffffffffffffffffffffffffffffffffffffffff1673ffffffffffffffffffffffffffffffffffffffff16612b26909392919063ffffffff16565b611f3b8382600001546124f890919063ffffffff16565b8160000181905550611fb4600460009054906101000a900473ffffffffffffffffffffffffffffffffffffffff16868460000160009054906101000a900473ffffffffffffffffffffffffffffffffffffffff1673ffffffffffffffffffffffffffffffffffffffff166129449092919063ffffffff16565b5b611fea670de0b6b3a7640000611fdc8460030154846000015461258090919063ffffffff16565b61273c90919063ffffffff16565b8160010181905550878673ffffffffffffffffffffffffffffffffffffffff167f90890809c654f11d6e72a28fa60149770a0d11ec6c92319d6ceb2bb0a4ea1a15896040518082815260200191505060405180910390a35050505050505050565b6000806005848154811061205b57fe5b9060005260206000209060050201905060006007600086815260200190815260200160002060008573ffffffffffffffffffffffffffffffffffffffff1673ffffffffffffffffffffffffffffffffffffffff168152602001908152602001600020905060008260030154905060008360000160009054906101000a900473ffffffffffffffffffffffffffffffffffffffff1673ffffffffffffffffffffffffffffffffffffffff166370a08231306040518263ffffffff1660e01b8152600401808273ffffffffffffffffffffffffffffffffffffffff16815260200191505060206040518083038186803b15801561215557600080fd5b505afa158015612169573d6000803e3d6000fd5b505050506040513d602081101561217f57600080fd5b810190808051906020019092919050505090508360020154421180156121a6575060008114155b156122305760006121bb856002015442610a38565b905060006121ea6008546121dc88600101548561258090919063ffffffff16565b61273c90919063ffffffff16565b905061222b61221c8461220e670de0b6b3a76400008561258090919063ffffffff16565b61273c90919063ffffffff16565b856124f890919063ffffffff16565b935050505b6122778360010154612269670de0b6b3a764000061225b86886000015461258090919063ffffffff16565b61273c90919063ffffffff16565b61247590919063ffffffff16565b94505050505092915050565b61228b612606565b73ffffffffffffffffffffffffffffffffffffffff166122a9611725565b73ffffffffffffffffffffffffffffffffffffffff1614612332576040517f08c379a00000000000000000000000000000000000000000000000000000000081526004018080602001828103825260208152602001807f4f776e61626c653a2063616c6c6572206973206e6f7420746865206f776e657281525060200191505060405180910390fd5b600073ffffffffffffffffffffffffffffffffffffffff168173ffffffffffffffffffffffffffffffffffffffff1614156123b8576040517f08c379a0000000000000000000000000000000000000000000000000000000008152600401808060200182810382526026815260200180612f776026913960400191505060405180910390fd5b8073ffffffffffffffffffffffffffffffffffffffff1660008054906101000a900473ffffffffffffffffffffffffffffffffffffffff1673ffffffffffffffffffffffffffffffffffffffff167f8be0079c531659141344cd1fd0a4f28419497f9722a3daafe3b4186f6b6457e060405160405180910390a3806000806101000a81548173ffffffffffffffffffffffffffffffffffffffff021916908373ffffffffffffffffffffffffffffffffffffffff16021790555050565b6000828211156124ed576040517f08c379a000000000000000000000000000000000000000000000000000000000815260040180806020018281038252601e8152602001807f536166654d6174683a207375627472616374696f6e206f766572666c6f77000081525060200191505060405180910390fd5b818303905092915050565b600080828401905083811015612576576040517f08c379a000000000000000000000000000000000000000000000000000000000815260040180806020018281038252601b8152602001807f536166654d6174683a206164646974696f6e206f766572666c6f77000000000081525060200191505060405180910390fd5b8091505092915050565b6000808314156125935760009050612600565b60008284029050828482816125a457fe5b04146125fb576040517f08c379a0000000000000000000000000000000000000000000000000000000008152600401808060200182810382526021815260200180612ff06021913960400191505060405180910390fd5b809150505b92915050565b600033905090565b600073ffffffffffffffffffffffffffffffffffffffff168173ffffffffffffffffffffffffffffffffffffffff161415612694576040517f08c379a000000000000000000000000000000000000000000000000000000000815260040180806020018281038252602d815260200180612fc3602d913960400191505060405180910390fd5b8073ffffffffffffffffffffffffffffffffffffffff16600073ffffffffffffffffffffffffffffffffffffffff167f74da04524d50c64947f5dd5381ef1a4dca5cba8ed1d816243f9e48aa0b5617ed60405160405180910390a36126f881612283565b80600160006101000a81548173ffffffffffffffffffffffffffffffffffffffff021916908373ffffffffffffffffffffffffffffffffffffffff16021790555050565b60008082116127b3576040517f08c379a000000000000000000000000000000000000000000000000000000000815260040180806020018281038252601a8152602001807f536166654d6174683a206469766973696f6e206279207a65726f00000000000081525060200191505060405180910390fd5b8183816127bc57fe5b04905092915050565b6000600260009054906101000a900473ffffffffffffffffffffffffffffffffffffffff1673ffffffffffffffffffffffffffffffffffffffff166370a08231306040518263ffffffff1660e01b8152600401808273ffffffffffffffffffffffffffffffffffffffff16815260200191505060206040518083038186803b15801561285057600080fd5b505afa158015612864573d6000803e3d6000fd5b505050506040513d602081101561287a57600080fd5b81019080805190602001909291905050509050600081111561293f57808211156128f0576128eb8382600260009054906101000a900473ffffffffffffffffffffffffffffffffffffffff1673ffffffffffffffffffffffffffffffffffffffff166129449092919063ffffffff16565b61293e565b61293d8383600260009054906101000a900473ffffffffffffffffffffffffffffffffffffffff1673ffffffffffffffffffffffffffffffffffffffff166129449092919063ffffffff16565b5b5b505050565b6129e18363a9059cbb60e01b8484604051602401808373ffffffffffffffffffffffffffffffffffffffff16815260200182815260200192505050604051602081830303815290604052907bffffffffffffffffffffffffffffffffffffffffffffffffffffffff19166020820180517bffffffffffffffffffffffffffffffffffffffffffffffffffffffff8381831617835250505050612be7565b505050565b6000600580549050905060005b81811015612ae6578273ffffffffffffffffffffffffffffffffffffffff1660058281548110612a1f57fe5b906000526020600020906005020160000160009054906101000a900473ffffffffffffffffffffffffffffffffffffffff1673ffffffffffffffffffffffffffffffffffffffff161415612adb576040517f08c379a000000000000000000000000000000000000000000000000000000000815260040180806020018281038252601f8152602001807f506f6c7947656e65736973506f6f6c3a206578697374696e6720706f6f6c3f0081525060200191505060405180910390fd5b8060010190506129f3565b505050565b600080612af884846124f8565b90506000612b07826001612475565b9050612b1c612b16828661273c565b85612580565b9250505092915050565b612be1846323b872dd60e01b858585604051602401808473ffffffffffffffffffffffffffffffffffffffff1681526020018373ffffffffffffffffffffffffffffffffffffffff1681526020018281526020019350505050604051602081830303815290604052907bffffffffffffffffffffffffffffffffffffffffffffffffffffffff19166020820180517bffffffffffffffffffffffffffffffffffffffffffffffffffffffff8381831617835250505050612be7565b50505050565b6060612c49826040518060400160405280602081526020017f5361666545524332303a206c6f772d6c6576656c2063616c6c206661696c65648152508573ffffffffffffffffffffffffffffffffffffffff16612cd69092919063ffffffff16565b9050600081511115612cd157808060200190516020811015612c6a57600080fd5b8101908080519060200190929190505050612cd0576040517f08c379a000000000000000000000000000000000000000000000000000000000815260040180806020018281038252602a815260200180613035602a913960400191505060405180910390fd5b5b505050565b6060612ce58484600085612cee565b90509392505050565b606082471015612d49576040517f08c379a0000000000000000000000000000000000000000000000000000000008152600401808060200182810382526026815260200180612f9d6026913960400191505060405180910390fd5b612d5285612e97565b612dc4576040517f08c379a000000000000000000000000000000000000000000000000000000000815260040180806020018281038252601d8152602001807f416464726573733a2063616c6c20746f206e6f6e2d636f6e747261637400000081525060200191505060405180910390fd5b600060608673ffffffffffffffffffffffffffffffffffffffff1685876040518082805190602001908083835b60208310612e145780518252602082019150602081019050602083039250612df1565b6001836020036101000a03801982511681845116808217855250505050505090500191505060006040518083038185875af1925050503d8060008114612e76576040519150601f19603f3d011682016040523d82523d6000602084013e612e7b565b606091505b5091509150612e8b828286612eaa565b92505050949350505050565b600080823b905060008111915050919050565b60608315612eba57829050612f6f565b600083511115612ecd5782518084602001fd5b816040517f08c379a00000000000000000000000000000000000000000000000000000000081526004018080602001828103825283818151815260200191508051906020019080838360005b83811015612f34578082015181840152602081019050612f19565b50505050905090810190601f168015612f615780820380516001836020036101000a031916815260200191505b509250505060405180910390fd5b939250505056fe4f776e61626c653a206e6577206f776e657220697320746865207a65726f2061646472657373416464726573733a20696e73756666696369656e742062616c616e636520666f722063616c6c6f70657261746f723a207a65726f206164647265737320676976656e20666f72206e6577206f70657261746f72536166654d6174683a206d756c7469706c69636174696f6e206f766572666c6f776f70657261746f723a2063616c6c6572206973206e6f7420746865206f70657261746f725361666545524332303a204552433230206f7065726174696f6e20646964206e6f742073756363656564a2646970667358221220f810fb44d7199546fde003507d8cf8c1c0a1678094715b9cb8f26475efd6ab8b64736f6c634300060c0033",
					"opcodes": "PUSH1 0x80 PUSH1 0x40 MSTORE PUSH1 0x0 PUSH1 0x6 PUSH1 0x0 PUSH2 0x100 EXP DUP2 SLOAD DUP2 PUSH1 0xFF MUL NOT AND SWAP1 DUP4 ISZERO ISZERO MUL OR SWAP1 SSTORE POP PUSH1 0x0 PUSH1 0x8 SSTORE PUSH8 0x156A8C394962000 PUSH1 0xB SSTORE PUSH3 0x3F480 PUSH1 0xC SSTORE CALLVALUE DUP1 ISZERO PUSH3 0x44 JUMPI PUSH1 0x0 DUP1 REVERT JUMPDEST POP PUSH1 0x0 PUSH3 0x57 PUSH3 0x1C8 PUSH1 0x20 SHL PUSH1 0x20 SHR JUMP JUMPDEST SWAP1 POP DUP1 PUSH1 0x0 DUP1 PUSH2 0x100 EXP DUP2 SLOAD DUP2 PUSH20 0xFFFFFFFFFFFFFFFFFFFFFFFFFFFFFFFFFFFFFFFF MUL NOT AND SWAP1 DUP4 PUSH20 0xFFFFFFFFFFFFFFFFFFFFFFFFFFFFFFFFFFFFFFFF AND MUL OR SWAP1 SSTORE POP DUP1 PUSH20 0xFFFFFFFFFFFFFFFFFFFFFFFFFFFFFFFFFFFFFFFF AND PUSH1 0x0 PUSH20 0xFFFFFFFFFFFFFFFFFFFFFFFFFFFFFFFFFFFFFFFF AND PUSH32 0x8BE0079C531659141344CD1FD0A4F28419497F9722A3DAAFE3B4186F6B6457E0 PUSH1 0x40 MLOAD PUSH1 0x40 MLOAD DUP1 SWAP2 SUB SWAP1 LOG3 POP PUSH3 0x105 PUSH3 0x1C8 PUSH1 0x20 SHL PUSH1 0x20 SHR JUMP JUMPDEST PUSH1 0x1 PUSH1 0x0 PUSH2 0x100 EXP DUP2 SLOAD DUP2 PUSH20 0xFFFFFFFFFFFFFFFFFFFFFFFFFFFFFFFFFFFFFFFF MUL NOT AND SWAP1 DUP4 PUSH20 0xFFFFFFFFFFFFFFFFFFFFFFFFFFFFFFFFFFFFFFFF AND MUL OR SWAP1 SSTORE POP PUSH1 0x1 PUSH1 0x0 SWAP1 SLOAD SWAP1 PUSH2 0x100 EXP SWAP1 DIV PUSH20 0xFFFFFFFFFFFFFFFFFFFFFFFFFFFFFFFFFFFFFFFF AND PUSH20 0xFFFFFFFFFFFFFFFFFFFFFFFFFFFFFFFFFFFFFFFF AND PUSH1 0x0 PUSH20 0xFFFFFFFFFFFFFFFFFFFFFFFFFFFFFFFFFFFFFFFF AND PUSH32 0x74DA04524D50C64947F5DD5381EF1A4DCA5CBA8ED1D816243F9E48AA0B5617ED PUSH1 0x40 MLOAD PUSH1 0x40 MLOAD DUP1 SWAP2 SUB SWAP1 LOG3 PUSH3 0x1D0 JUMP JUMPDEST PUSH1 0x0 CALLER SWAP1 POP SWAP1 JUMP JUMPDEST PUSH2 0x3094 DUP1 PUSH3 0x1E0 PUSH1 0x0 CODECOPY PUSH1 0x0 RETURN INVALID PUSH1 0x80 PUSH1 0x40 MSTORE CALLVALUE DUP1 ISZERO PUSH2 0x10 JUMPI PUSH1 0x0 DUP1 REVERT JUMPDEST POP PUSH1 0x4 CALLDATASIZE LT PUSH2 0x1E5 JUMPI PUSH1 0x0 CALLDATALOAD PUSH1 0xE0 SHR DUP1 PUSH4 0x570CA735 GT PUSH2 0x10F JUMPI DUP1 PUSH4 0x96805E54 GT PUSH2 0xA2 JUMPI DUP1 PUSH4 0xE177BB38 GT PUSH2 0x71 JUMPI DUP1 PUSH4 0xE177BB38 EQ PUSH2 0x76B JUMPI DUP1 PUSH4 0xE2BBB158 EQ PUSH2 0x79F JUMPI DUP1 PUSH4 0xECF4DEB9 EQ PUSH2 0x7D7 JUMPI DUP1 PUSH4 0xF2FDE38B EQ PUSH2 0x839 JUMPI PUSH2 0x1E5 JUMP JUMPDEST DUP1 PUSH4 0x96805E54 EQ PUSH2 0x657 JUMPI DUP1 PUSH4 0xB3AB15FB EQ PUSH2 0x6BB JUMPI DUP1 PUSH4 0xCD6DC687 EQ PUSH2 0x6FF JUMPI DUP1 PUSH4 0xD212A69A EQ PUSH2 0x74D JUMPI PUSH2 0x1E5 JUMP JUMPDEST DUP1 PUSH4 0x715018A6 GT PUSH2 0xDE JUMPI DUP1 PUSH4 0x715018A6 EQ PUSH2 0x592 JUMPI DUP1 PUSH4 0x8DA5CB5B EQ PUSH2 0x59C JUMPI DUP1 PUSH4 0x93F1A40B EQ PUSH2 0x5D0 JUMPI DUP1 PUSH4 0x943F013D EQ PUSH2 0x639 JUMPI PUSH2 0x1E5 JUMP JUMPDEST DUP1 PUSH4 0x570CA735 EQ PUSH2 0x518 JUMPI DUP1 PUSH4 0x5F96DC11 EQ PUSH2 0x54C JUMPI DUP1 PUSH4 0x630B5BA1 EQ PUSH2 0x56A JUMPI DUP1 PUSH4 0x6E271DD5 EQ PUSH2 0x574 JUMPI PUSH2 0x1E5 JUMP JUMPDEST DUP1 PUSH4 0x2BF8542C GT PUSH2 0x187 JUMPI DUP1 PUSH4 0x4456EDA2 GT PUSH2 0x156 JUMPI DUP1 PUSH4 0x4456EDA2 EQ PUSH2 0x42E JUMPI DUP1 PUSH4 0x51EB05A6 EQ PUSH2 0x44E JUMPI DUP1 PUSH4 0x5312EA8E EQ PUSH2 0x47C JUMPI DUP1 PUSH4 0x54575AF4 EQ PUSH2 0x4AA JUMPI PUSH2 0x1E5 JUMP JUMPDEST DUP1 PUSH4 0x2BF8542C EQ PUSH2 0x384 JUMPI DUP1 PUSH4 0x392E53CD EQ PUSH2 0x3B8 JUMPI DUP1 PUSH4 0x3F7CAF52 EQ PUSH2 0x3D8 JUMPI DUP1 PUSH4 0x441A3E70 EQ PUSH2 0x3F6 JUMPI PUSH2 0x1E5 JUMP JUMPDEST DUP1 PUSH4 0x17CAF6F1 GT PUSH2 0x1C3 JUMPI DUP1 PUSH4 0x17CAF6F1 EQ PUSH2 0x29E JUMPI DUP1 PUSH4 0x1AB06EE5 EQ PUSH2 0x2BC JUMPI DUP1 PUSH4 0x231F0C6A EQ PUSH2 0x2F4 JUMPI DUP1 PUSH4 0x29605E77 EQ PUSH2 0x340 JUMPI PUSH2 0x1E5 JUMP JUMPDEST DUP1 PUSH4 0x9CF6091 EQ PUSH2 0x1EA JUMPI DUP1 PUSH4 0x1526FE27 EQ PUSH2 0x208 JUMPI DUP1 PUSH4 0x158EF93E EQ PUSH2 0x27E JUMPI JUMPDEST PUSH1 0x0 DUP1 REVERT JUMPDEST PUSH2 0x1F2 PUSH2 0x87D JUMP JUMPDEST PUSH1 0x40 MLOAD DUP1 DUP3 DUP2 MSTORE PUSH1 0x20 ADD SWAP2 POP POP PUSH1 0x40 MLOAD DUP1 SWAP2 SUB SWAP1 RETURN JUMPDEST PUSH2 0x234 PUSH1 0x4 DUP1 CALLDATASIZE SUB PUSH1 0x20 DUP2 LT ISZERO PUSH2 0x21E JUMPI PUSH1 0x0 DUP1 REVERT JUMPDEST DUP2 ADD SWAP1 DUP1 DUP1 CALLDATALOAD SWAP1 PUSH1 0x20 ADD SWAP1 SWAP3 SWAP2 SWAP1 POP POP POP PUSH2 0x88B JUMP JUMPDEST PUSH1 0x40 MLOAD DUP1 DUP7 PUSH20 0xFFFFFFFFFFFFFFFFFFFFFFFFFFFFFFFFFFFFFFFF AND DUP2 MSTORE PUSH1 0x20 ADD DUP6 DUP2 MSTORE PUSH1 0x20 ADD DUP5 DUP2 MSTORE PUSH1 0x20 ADD DUP4 DUP2 MSTORE PUSH1 0x20 ADD DUP3 ISZERO ISZERO DUP2 MSTORE PUSH1 0x20 ADD SWAP6 POP POP POP POP POP POP PUSH1 0x40 MLOAD DUP1 SWAP2 SUB SWAP1 RETURN JUMPDEST PUSH2 0x286 PUSH2 0x8FB JUMP JUMPDEST PUSH1 0x40 MLOAD DUP1 DUP3 ISZERO ISZERO DUP2 MSTORE PUSH1 0x20 ADD SWAP2 POP POP PUSH1 0x40 MLOAD DUP1 SWAP2 SUB SWAP1 RETURN JUMPDEST PUSH2 0x2A6 PUSH2 0x90E JUMP JUMPDEST PUSH1 0x40 MLOAD DUP1 DUP3 DUP2 MSTORE PUSH1 0x20 ADD SWAP2 POP POP PUSH1 0x40 MLOAD DUP1 SWAP2 SUB SWAP1 RETURN JUMPDEST PUSH2 0x2F2 PUSH1 0x4 DUP1 CALLDATASIZE SUB PUSH1 0x40 DUP2 LT ISZERO PUSH2 0x2D2 JUMPI PUSH1 0x0 DUP1 REVERT JUMPDEST DUP2 ADD SWAP1 DUP1 DUP1 CALLDATALOAD SWAP1 PUSH1 0x20 ADD SWAP1 SWAP3 SWAP2 SWAP1 DUP1 CALLDATALOAD SWAP1 PUSH1 0x20 ADD SWAP1 SWAP3 SWAP2 SWAP1 POP POP POP PUSH2 0x914 JUMP JUMPDEST STOP JUMPDEST PUSH2 0x32A PUSH1 0x4 DUP1 CALLDATASIZE SUB PUSH1 0x40 DUP2 LT ISZERO PUSH2 0x30A JUMPI PUSH1 0x0 DUP1 REVERT JUMPDEST DUP2 ADD SWAP1 DUP1 DUP1 CALLDATALOAD SWAP1 PUSH1 0x20 ADD SWAP1 SWAP3 SWAP2 SWAP1 DUP1 CALLDATALOAD SWAP1 PUSH1 0x20 ADD SWAP1 SWAP3 SWAP2 SWAP1 POP POP POP PUSH2 0xA38 JUMP JUMPDEST PUSH1 0x40 MLOAD DUP1 DUP3 DUP2 MSTORE PUSH1 0x20 ADD SWAP2 POP POP PUSH1 0x40 MLOAD DUP1 SWAP2 SUB SWAP1 RETURN JUMPDEST PUSH2 0x382 PUSH1 0x4 DUP1 CALLDATASIZE SUB PUSH1 0x20 DUP2 LT ISZERO PUSH2 0x356 JUMPI PUSH1 0x0 DUP1 REVERT JUMPDEST DUP2 ADD SWAP1 DUP1 DUP1 CALLDATALOAD PUSH20 0xFFFFFFFFFFFFFFFFFFFFFFFFFFFFFFFFFFFFFFFF AND SWAP1 PUSH1 0x20 ADD SWAP1 SWAP3 SWAP2 SWAP1 POP POP POP PUSH2 0xB4B JUMP JUMPDEST STOP JUMPDEST PUSH2 0x38C PUSH2 0xC06 JUMP JUMPDEST PUSH1 0x40 MLOAD DUP1 DUP3 PUSH20 0xFFFFFFFFFFFFFFFFFFFFFFFFFFFFFFFFFFFFFFFF AND DUP2 MSTORE PUSH1 0x20 ADD SWAP2 POP POP PUSH1 0x40 MLOAD DUP1 SWAP2 SUB SWAP1 RETURN JUMPDEST PUSH2 0x3C0 PUSH2 0xC2C JUMP JUMPDEST PUSH1 0x40 MLOAD DUP1 DUP3 ISZERO ISZERO DUP2 MSTORE PUSH1 0x20 ADD SWAP2 POP POP PUSH1 0x40 MLOAD DUP1 SWAP2 SUB SWAP1 RETURN JUMPDEST PUSH2 0x3E0 PUSH2 0xC43 JUMP JUMPDEST PUSH1 0x40 MLOAD DUP1 DUP3 DUP2 MSTORE PUSH1 0x20 ADD SWAP2 POP POP PUSH1 0x40 MLOAD DUP1 SWAP2 SUB SWAP1 RETURN JUMPDEST PUSH2 0x42C PUSH1 0x4 DUP1 CALLDATASIZE SUB PUSH1 0x40 DUP2 LT ISZERO PUSH2 0x40C JUMPI PUSH1 0x0 DUP1 REVERT JUMPDEST DUP2 ADD SWAP1 DUP1 DUP1 CALLDATALOAD SWAP1 PUSH1 0x20 ADD SWAP1 SWAP3 SWAP2 SWAP1 DUP1 CALLDATALOAD SWAP1 PUSH1 0x20 ADD SWAP1 SWAP3 SWAP2 SWAP1 POP POP POP PUSH2 0xC49 JUMP JUMPDEST STOP JUMPDEST PUSH2 0x436 PUSH2 0xF01 JUMP JUMPDEST PUSH1 0x40 MLOAD DUP1 DUP3 ISZERO ISZERO DUP2 MSTORE PUSH1 0x20 ADD SWAP2 POP POP PUSH1 0x40 MLOAD DUP1 SWAP2 SUB SWAP1 RETURN JUMPDEST PUSH2 0x47A PUSH1 0x4 DUP1 CALLDATASIZE SUB PUSH1 0x20 DUP2 LT ISZERO PUSH2 0x464 JUMPI PUSH1 0x0 DUP1 REVERT JUMPDEST DUP2 ADD SWAP1 DUP1 DUP1 CALLDATALOAD SWAP1 PUSH1 0x20 ADD SWAP1 SWAP3 SWAP2 SWAP1 POP POP POP PUSH2 0xF60 JUMP JUMPDEST STOP JUMPDEST PUSH2 0x4A8 PUSH1 0x4 DUP1 CALLDATASIZE SUB PUSH1 0x20 DUP2 LT ISZERO PUSH2 0x492 JUMPI PUSH1 0x0 DUP1 REVERT JUMPDEST DUP2 ADD SWAP1 DUP1 DUP1 CALLDATALOAD SWAP1 PUSH1 0x20 ADD SWAP1 SWAP3 SWAP2 SWAP1 POP POP POP PUSH2 0x116F JUMP JUMPDEST STOP JUMPDEST PUSH2 0x516 PUSH1 0x4 DUP1 CALLDATASIZE SUB PUSH1 0x60 DUP2 LT ISZERO PUSH2 0x4C0 JUMPI PUSH1 0x0 DUP1 REVERT JUMPDEST DUP2 ADD SWAP1 DUP1 DUP1 CALLDATALOAD PUSH20 0xFFFFFFFFFFFFFFFFFFFFFFFFFFFFFFFFFFFFFFFF AND SWAP1 PUSH1 0x20 ADD SWAP1 SWAP3 SWAP2 SWAP1 DUP1 CALLDATALOAD SWAP1 PUSH1 0x20 ADD SWAP1 SWAP3 SWAP2 SWAP1 DUP1 CALLDATALOAD PUSH20 0xFFFFFFFFFFFFFFFFFFFFFFFFFFFFFFFFFFFFFFFF AND SWAP1 PUSH1 0x20 ADD SWAP1 SWAP3 SWAP2 SWAP1 POP POP POP PUSH2 0x12A3 JUMP JUMPDEST STOP JUMPDEST PUSH2 0x520 PUSH2 0x1555 JUMP JUMPDEST PUSH1 0x40 MLOAD DUP1 DUP3 PUSH20 0xFFFFFFFFFFFFFFFFFFFFFFFFFFFFFFFFFFFFFFFF AND DUP2 MSTORE PUSH1 0x20 ADD SWAP2 POP POP PUSH1 0x40 MLOAD DUP1 SWAP2 SUB SWAP1 RETURN JUMPDEST PUSH2 0x554 PUSH2 0x157F JUMP JUMPDEST PUSH1 0x40 MLOAD DUP1 DUP3 DUP2 MSTORE PUSH1 0x20 ADD SWAP2 POP POP PUSH1 0x40 MLOAD DUP1 SWAP2 SUB SWAP1 RETURN JUMPDEST PUSH2 0x572 PUSH2 0x1585 JUMP JUMPDEST STOP JUMPDEST PUSH2 0x57C PUSH2 0x15B2 JUMP JUMPDEST PUSH1 0x40 MLOAD DUP1 DUP3 DUP2 MSTORE PUSH1 0x20 ADD SWAP2 POP POP PUSH1 0x40 MLOAD DUP1 SWAP2 SUB SWAP1 RETURN JUMPDEST PUSH2 0x59A PUSH2 0x15B8 JUMP JUMPDEST STOP JUMPDEST PUSH2 0x5A4 PUSH2 0x1725 JUMP JUMPDEST PUSH1 0x40 MLOAD DUP1 DUP3 PUSH20 0xFFFFFFFFFFFFFFFFFFFFFFFFFFFFFFFFFFFFFFFF AND DUP2 MSTORE PUSH1 0x20 ADD SWAP2 POP POP PUSH1 0x40 MLOAD DUP1 SWAP2 SUB SWAP1 RETURN JUMPDEST PUSH2 0x61C PUSH1 0x4 DUP1 CALLDATASIZE SUB PUSH1 0x40 DUP2 LT ISZERO PUSH2 0x5E6 JUMPI PUSH1 0x0 DUP1 REVERT JUMPDEST DUP2 ADD SWAP1 DUP1 DUP1 CALLDATALOAD SWAP1 PUSH1 0x20 ADD SWAP1 SWAP3 SWAP2 SWAP1 DUP1 CALLDATALOAD PUSH20 0xFFFFFFFFFFFFFFFFFFFFFFFFFFFFFFFFFFFFFFFF AND SWAP1 PUSH1 0x20 ADD SWAP1 SWAP3 SWAP2 SWAP1 POP POP POP PUSH2 0x174E JUMP JUMPDEST PUSH1 0x40 MLOAD DUP1 DUP4 DUP2 MSTORE PUSH1 0x20 ADD DUP3 DUP2 MSTORE PUSH1 0x20 ADD SWAP3 POP POP POP PUSH1 0x40 MLOAD DUP1 SWAP2 SUB SWAP1 RETURN JUMPDEST PUSH2 0x641 PUSH2 0x177F JUMP JUMPDEST PUSH1 0x40 MLOAD DUP1 DUP3 DUP2 MSTORE PUSH1 0x20 ADD SWAP2 POP POP PUSH1 0x40 MLOAD DUP1 SWAP2 SUB SWAP1 RETURN JUMPDEST PUSH2 0x6B9 PUSH1 0x4 DUP1 CALLDATASIZE SUB PUSH1 0x80 DUP2 LT ISZERO PUSH2 0x66D JUMPI PUSH1 0x0 DUP1 REVERT JUMPDEST DUP2 ADD SWAP1 DUP1 DUP1 CALLDATALOAD SWAP1 PUSH1 0x20 ADD SWAP1 SWAP3 SWAP2 SWAP1 DUP1 CALLDATALOAD PUSH20 0xFFFFFFFFFFFFFFFFFFFFFFFFFFFFFFFFFFFFFFFF AND SWAP1 PUSH1 0x20 ADD SWAP1 SWAP3 SWAP2 SWAP1 DUP1 CALLDATALOAD ISZERO ISZERO SWAP1 PUSH1 0x20 ADD SWAP1 SWAP3 SWAP2 SWAP1 DUP1 CALLDATALOAD SWAP1 PUSH1 0x20 ADD SWAP1 SWAP3 SWAP2 SWAP1 POP POP POP PUSH2 0x1785 JUMP JUMPDEST STOP JUMPDEST PUSH2 0x6FD PUSH1 0x4 DUP1 CALLDATASIZE SUB PUSH1 0x20 DUP2 LT ISZERO PUSH2 0x6D1 JUMPI PUSH1 0x0 DUP1 REVERT JUMPDEST DUP2 ADD SWAP1 DUP1 DUP1 CALLDATALOAD PUSH20 0xFFFFFFFFFFFFFFFFFFFFFFFFFFFFFFFFFFFFFFFF AND SWAP1 PUSH1 0x20 ADD SWAP1 SWAP3 SWAP2 SWAP1 POP POP POP PUSH2 0x19BE JUMP JUMPDEST STOP JUMPDEST PUSH2 0x74B PUSH1 0x4 DUP1 CALLDATASIZE SUB PUSH1 0x40 DUP2 LT ISZERO PUSH2 0x715 JUMPI PUSH1 0x0 DUP1 REVERT JUMPDEST DUP2 ADD SWAP1 DUP1 DUP1 CALLDATALOAD PUSH20 0xFFFFFFFFFFFFFFFFFFFFFFFFFFFFFFFFFFFFFFFF AND SWAP1 PUSH1 0x20 ADD SWAP1 SWAP3 SWAP2 SWAP1 DUP1 CALLDATALOAD SWAP1 PUSH1 0x20 ADD SWAP1 SWAP3 SWAP2 SWAP1 POP POP POP PUSH2 0x1A70 JUMP JUMPDEST STOP JUMPDEST PUSH2 0x755 PUSH2 0x1D00 JUMP JUMPDEST PUSH1 0x40 MLOAD DUP1 DUP3 DUP2 MSTORE PUSH1 0x20 ADD SWAP2 POP POP PUSH1 0x40 MLOAD DUP1 SWAP2 SUB SWAP1 RETURN JUMPDEST PUSH2 0x773 PUSH2 0x1D06 JUMP JUMPDEST PUSH1 0x40 MLOAD DUP1 DUP3 PUSH20 0xFFFFFFFFFFFFFFFFFFFFFFFFFFFFFFFFFFFFFFFF AND DUP2 MSTORE PUSH1 0x20 ADD SWAP2 POP POP PUSH1 0x40 MLOAD DUP1 SWAP2 SUB SWAP1 RETURN JUMPDEST PUSH2 0x7D5 PUSH1 0x4 DUP1 CALLDATASIZE SUB PUSH1 0x40 DUP2 LT ISZERO PUSH2 0x7B5 JUMPI PUSH1 0x0 DUP1 REVERT JUMPDEST DUP2 ADD SWAP1 DUP1 DUP1 CALLDATALOAD SWAP1 PUSH1 0x20 ADD SWAP1 SWAP3 SWAP2 SWAP1 DUP1 CALLDATALOAD SWAP1 PUSH1 0x20 ADD SWAP1 SWAP3 SWAP2 SWAP1 POP POP POP PUSH2 0x1D2C JUMP JUMPDEST STOP JUMPDEST PUSH2 0x823 PUSH1 0x4 DUP1 CALLDATASIZE SUB PUSH1 0x40 DUP2 LT ISZERO PUSH2 0x7ED JUMPI PUSH1 0x0 DUP1 REVERT JUMPDEST DUP2 ADD SWAP1 DUP1 DUP1 CALLDATALOAD SWAP1 PUSH1 0x20 ADD SWAP1 SWAP3 SWAP2 SWAP1 DUP1 CALLDATALOAD PUSH20 0xFFFFFFFFFFFFFFFFFFFFFFFFFFFFFFFFFFFFFFFF AND SWAP1 PUSH1 0x20 ADD SWAP1 SWAP3 SWAP2 SWAP1 POP POP POP PUSH2 0x204B JUMP JUMPDEST PUSH1 0x40 MLOAD DUP1 DUP3 DUP2 MSTORE PUSH1 0x20 ADD SWAP2 POP POP PUSH1 0x40 MLOAD DUP1 SWAP2 SUB SWAP1 RETURN JUMPDEST PUSH2 0x87B PUSH1 0x4 DUP1 CALLDATASIZE SUB PUSH1 0x20 DUP2 LT ISZERO PUSH2 0x84F JUMPI PUSH1 0x0 DUP1 REVERT JUMPDEST DUP2 ADD SWAP1 DUP1 DUP1 CALLDATALOAD PUSH20 0xFFFFFFFFFFFFFFFFFFFFFFFFFFFFFFFFFFFFFFFF AND SWAP1 PUSH1 0x20 ADD SWAP1 SWAP3 SWAP2 SWAP1 POP POP POP PUSH2 0x2283 JUMP JUMPDEST STOP JUMPDEST PUSH10 0x54B40B1F852BDA00000 DUP2 JUMP JUMPDEST PUSH1 0x5 DUP2 DUP2 SLOAD DUP2 LT PUSH2 0x898 JUMPI INVALID JUMPDEST SWAP1 PUSH1 0x0 MSTORE PUSH1 0x20 PUSH1 0x0 KECCAK256 SWAP1 PUSH1 0x5 MUL ADD PUSH1 0x0 SWAP2 POP SWAP1 POP DUP1 PUSH1 0x0 ADD PUSH1 0x0 SWAP1 SLOAD SWAP1 PUSH2 0x100 EXP SWAP1 DIV PUSH20 0xFFFFFFFFFFFFFFFFFFFFFFFFFFFFFFFFFFFFFFFF AND SWAP1 DUP1 PUSH1 0x1 ADD SLOAD SWAP1 DUP1 PUSH1 0x2 ADD SLOAD SWAP1 DUP1 PUSH1 0x3 ADD SLOAD SWAP1 DUP1 PUSH1 0x4 ADD PUSH1 0x0 SWAP1 SLOAD SWAP1 PUSH2 0x100 EXP SWAP1 DIV PUSH1 0xFF AND SWAP1 POP DUP6 JUMP JUMPDEST PUSH1 0x6 PUSH1 0x0 SWAP1 SLOAD SWAP1 PUSH2 0x100 EXP SWAP1 DIV PUSH1 0xFF AND DUP2 JUMP JUMPDEST PUSH1 0x8 SLOAD DUP2 JUMP JUMPDEST CALLER PUSH20 0xFFFFFFFFFFFFFFFFFFFFFFFFFFFFFFFFFFFFFFFF AND PUSH1 0x1 PUSH1 0x0 SWAP1 SLOAD SWAP1 PUSH2 0x100 EXP SWAP1 DIV PUSH20 0xFFFFFFFFFFFFFFFFFFFFFFFFFFFFFFFFFFFFFFFF AND PUSH20 0xFFFFFFFFFFFFFFFFFFFFFFFFFFFFFFFFFFFFFFFF AND EQ PUSH2 0x9BA JUMPI PUSH1 0x40 MLOAD PUSH32 0x8C379A000000000000000000000000000000000000000000000000000000000 DUP2 MSTORE PUSH1 0x4 ADD DUP1 DUP1 PUSH1 0x20 ADD DUP3 DUP2 SUB DUP3 MSTORE PUSH1 0x24 DUP2 MSTORE PUSH1 0x20 ADD DUP1 PUSH2 0x3011 PUSH1 0x24 SWAP2 CODECOPY PUSH1 0x40 ADD SWAP2 POP POP PUSH1 0x40 MLOAD DUP1 SWAP2 SUB SWAP1 REVERT JUMPDEST PUSH2 0x9C2 PUSH2 0x1585 JUMP JUMPDEST PUSH1 0x0 PUSH1 0x5 DUP4 DUP2 SLOAD DUP2 LT PUSH2 0x9D1 JUMPI INVALID JUMPDEST SWAP1 PUSH1 0x0 MSTORE PUSH1 0x20 PUSH1 0x0 KECCAK256 SWAP1 PUSH1 0x5 MUL ADD SWAP1 POP DUP1 PUSH1 0x4 ADD PUSH1 0x0 SWAP1 SLOAD SWAP1 PUSH2 0x100 EXP SWAP1 DIV PUSH1 0xFF AND ISZERO PUSH2 0xA2A JUMPI PUSH2 0xA23 DUP3 PUSH2 0xA15 DUP4 PUSH1 0x1 ADD SLOAD PUSH1 0x8 SLOAD PUSH2 0x2475 SWAP1 SWAP2 SWAP1 PUSH4 0xFFFFFFFF AND JUMP JUMPDEST PUSH2 0x24F8 SWAP1 SWAP2 SWAP1 PUSH4 0xFFFFFFFF AND JUMP JUMPDEST PUSH1 0x8 DUP2 SWAP1 SSTORE POP JUMPDEST DUP2 DUP2 PUSH1 0x1 ADD DUP2 SWAP1 SSTORE POP POP POP POP JUMP JUMPDEST PUSH1 0x0 DUP2 DUP4 LT PUSH2 0xA4A JUMPI PUSH1 0x0 SWAP1 POP PUSH2 0xB45 JUMP JUMPDEST PUSH1 0xA SLOAD DUP3 LT PUSH2 0xAD0 JUMPI PUSH1 0xA SLOAD DUP4 LT PUSH2 0xA65 JUMPI PUSH1 0x0 SWAP1 POP PUSH2 0xB45 JUMP JUMPDEST PUSH1 0x9 SLOAD DUP4 GT PUSH2 0xAA0 JUMPI PUSH2 0xA99 PUSH1 0xB SLOAD PUSH2 0xA8B PUSH1 0x9 SLOAD PUSH1 0xA SLOAD PUSH2 0x2475 SWAP1 SWAP2 SWAP1 PUSH4 0xFFFFFFFF AND JUMP JUMPDEST PUSH2 0x2580 SWAP1 SWAP2 SWAP1 PUSH4 0xFFFFFFFF AND JUMP JUMPDEST SWAP1 POP PUSH2 0xB45 JUMP JUMPDEST PUSH2 0xAC9 PUSH1 0xB SLOAD PUSH2 0xABB DUP6 PUSH1 0xA SLOAD PUSH2 0x2475 SWAP1 SWAP2 SWAP1 PUSH4 0xFFFFFFFF AND JUMP JUMPDEST PUSH2 0x2580 SWAP1 SWAP2 SWAP1 PUSH4 0xFFFFFFFF AND JUMP JUMPDEST SWAP1 POP PUSH2 0xB45 JUMP JUMPDEST PUSH1 0x9 SLOAD DUP3 GT PUSH2 0xAE2 JUMPI PUSH1 0x0 SWAP1 POP PUSH2 0xB45 JUMP JUMPDEST PUSH1 0x9 SLOAD DUP4 GT PUSH2 0xB1B JUMPI PUSH2 0xB14 PUSH1 0xB SLOAD PUSH2 0xB06 PUSH1 0x9 SLOAD DUP6 PUSH2 0x2475 SWAP1 SWAP2 SWAP1 PUSH4 0xFFFFFFFF AND JUMP JUMPDEST PUSH2 0x2580 SWAP1 SWAP2 SWAP1 PUSH4 0xFFFFFFFF AND JUMP JUMPDEST SWAP1 POP PUSH2 0xB45 JUMP JUMPDEST PUSH2 0xB42 PUSH1 0xB SLOAD PUSH2 0xB34 DUP6 DUP6 PUSH2 0x2475 SWAP1 SWAP2 SWAP1 PUSH4 0xFFFFFFFF AND JUMP JUMPDEST PUSH2 0x2580 SWAP1 SWAP2 SWAP1 PUSH4 0xFFFFFFFF AND JUMP JUMPDEST SWAP1 POP JUMPDEST SWAP3 SWAP2 POP POP JUMP JUMPDEST PUSH2 0xB53 PUSH2 0x2606 JUMP JUMPDEST PUSH20 0xFFFFFFFFFFFFFFFFFFFFFFFFFFFFFFFFFFFFFFFF AND PUSH2 0xB71 PUSH2 0x1725 JUMP JUMPDEST PUSH20 0xFFFFFFFFFFFFFFFFFFFFFFFFFFFFFFFFFFFFFFFF AND EQ PUSH2 0xBFA JUMPI PUSH1 0x40 MLOAD PUSH32 0x8C379A000000000000000000000000000000000000000000000000000000000 DUP2 MSTORE PUSH1 0x4 ADD DUP1 DUP1 PUSH1 0x20 ADD DUP3 DUP2 SUB DUP3 MSTORE PUSH1 0x20 DUP2 MSTORE PUSH1 0x20 ADD DUP1 PUSH32 0x4F776E61626C653A2063616C6C6572206973206E6F7420746865206F776E6572 DUP2 MSTORE POP PUSH1 0x20 ADD SWAP2 POP POP PUSH1 0x40 MLOAD DUP1 SWAP2 SUB SWAP1 REVERT JUMPDEST PUSH2 0xC03 DUP2 PUSH2 0x260E JUMP JUMPDEST POP JUMP JUMPDEST PUSH1 0x4 PUSH1 0x0 SWAP1 SLOAD SWAP1 PUSH2 0x100 EXP SWAP1 DIV PUSH20 0xFFFFFFFFFFFFFFFFFFFFFFFFFFFFFFFFFFFFFFFF AND DUP2 JUMP JUMPDEST PUSH1 0x0 PUSH1 0x6 PUSH1 0x0 SWAP1 SLOAD SWAP1 PUSH2 0x100 EXP SWAP1 DIV PUSH1 0xFF AND SWAP1 POP SWAP1 JUMP JUMPDEST PUSH1 0xB SLOAD DUP2 JUMP JUMPDEST PUSH1 0x0 CALLER SWAP1 POP PUSH1 0x0 PUSH1 0x5 DUP5 DUP2 SLOAD DUP2 LT PUSH2 0xC5D JUMPI INVALID JUMPDEST SWAP1 PUSH1 0x0 MSTORE PUSH1 0x20 PUSH1 0x0 KECCAK256 SWAP1 PUSH1 0x5 MUL ADD SWAP1 POP PUSH1 0x0 PUSH1 0x7 PUSH1 0x0 DUP7 DUP2 MSTORE PUSH1 0x20 ADD SWAP1 DUP2 MSTORE PUSH1 0x20 ADD PUSH1 0x0 KECCAK256 PUSH1 0x0 DUP5 PUSH20 0xFFFFFFFFFFFFFFFFFFFFFFFFFFFFFFFFFFFFFFFF AND PUSH20 0xFFFFFFFFFFFFFFFFFFFFFFFFFFFFFFFFFFFFFFFF AND DUP2 MSTORE PUSH1 0x20 ADD SWAP1 DUP2 MSTORE PUSH1 0x20 ADD PUSH1 0x0 KECCAK256 SWAP1 POP DUP4 DUP2 PUSH1 0x0 ADD SLOAD LT ISZERO PUSH2 0xD3B JUMPI PUSH1 0x40 MLOAD PUSH32 0x8C379A000000000000000000000000000000000000000000000000000000000 DUP2 MSTORE PUSH1 0x4 ADD DUP1 DUP1 PUSH1 0x20 ADD DUP3 DUP2 SUB DUP3 MSTORE PUSH1 0x12 DUP2 MSTORE PUSH1 0x20 ADD DUP1 PUSH32 0x77697468647261773A206E6F7420676F6F640000000000000000000000000000 DUP2 MSTORE POP PUSH1 0x20 ADD SWAP2 POP POP PUSH1 0x40 MLOAD DUP1 SWAP2 SUB SWAP1 REVERT JUMPDEST PUSH2 0xD44 DUP6 PUSH2 0xF60 JUMP JUMPDEST PUSH1 0x0 PUSH2 0xD91 DUP3 PUSH1 0x1 ADD SLOAD PUSH2 0xD83 PUSH8 0xDE0B6B3A7640000 PUSH2 0xD75 DUP8 PUSH1 0x3 ADD SLOAD DUP8 PUSH1 0x0 ADD SLOAD PUSH2 0x2580 SWAP1 SWAP2 SWAP1 PUSH4 0xFFFFFFFF AND JUMP JUMPDEST PUSH2 0x273C SWAP1 SWAP2 SWAP1 PUSH4 0xFFFFFFFF AND JUMP JUMPDEST PUSH2 0x2475 SWAP1 SWAP2 SWAP1 PUSH4 0xFFFFFFFF AND JUMP JUMPDEST SWAP1 POP PUSH1 0x0 DUP2 GT ISZERO PUSH2 0xDF5 JUMPI PUSH2 0xDA6 DUP5 DUP3 PUSH2 0x27C5 JUMP JUMPDEST DUP4 PUSH20 0xFFFFFFFFFFFFFFFFFFFFFFFFFFFFFFFFFFFFFFFF AND PUSH32 0xE2403640BA68FED3A2F88B7557551D1993F84B99BB10FF833F0CF8DB0C5E0486 DUP3 PUSH1 0x40 MLOAD DUP1 DUP3 DUP2 MSTORE PUSH1 0x20 ADD SWAP2 POP POP PUSH1 0x40 MLOAD DUP1 SWAP2 SUB SWAP1 LOG2 JUMPDEST PUSH1 0x0 DUP6 GT ISZERO PUSH2 0xE6D JUMPI PUSH2 0xE15 DUP6 DUP4 PUSH1 0x0 ADD SLOAD PUSH2 0x2475 SWAP1 SWAP2 SWAP1 PUSH4 0xFFFFFFFF AND JUMP JUMPDEST DUP3 PUSH1 0x0 ADD DUP2 SWAP1 SSTORE POP PUSH2 0xE6C DUP5 DUP7 DUP6 PUSH1 0x0 ADD PUSH1 0x0 SWAP1 SLOAD SWAP1 PUSH2 0x100 EXP SWAP1 DIV PUSH20 0xFFFFFFFFFFFFFFFFFFFFFFFFFFFFFFFFFFFFFFFF AND PUSH20 0xFFFFFFFFFFFFFFFFFFFFFFFFFFFFFFFFFFFFFFFF AND PUSH2 0x2944 SWAP1 SWAP3 SWAP2 SWAP1 PUSH4 0xFFFFFFFF AND JUMP JUMPDEST JUMPDEST PUSH2 0xEA2 PUSH8 0xDE0B6B3A7640000 PUSH2 0xE94 DUP6 PUSH1 0x3 ADD SLOAD DUP6 PUSH1 0x0 ADD SLOAD PUSH2 0x2580 SWAP1 SWAP2 SWAP1 PUSH4 0xFFFFFFFF AND JUMP JUMPDEST PUSH2 0x273C SWAP1 SWAP2 SWAP1 PUSH4 0xFFFFFFFF AND JUMP JUMPDEST DUP3 PUSH1 0x1 ADD DUP2 SWAP1 SSTORE POP DUP6 DUP5 PUSH20 0xFFFFFFFFFFFFFFFFFFFFFFFFFFFFFFFFFFFFFFFF AND PUSH32 0xF279E6A1F5E320CCA91135676D9CB6E44CA8A08C0B88342BCDB1144F6511B568 DUP8 PUSH1 0x40 MLOAD DUP1 DUP3 DUP2 MSTORE PUSH1 0x20 ADD SWAP2 POP POP PUSH1 0x40 MLOAD DUP1 SWAP2 SUB SWAP1 LOG3 POP POP POP POP POP POP JUMP JUMPDEST PUSH1 0x0 PUSH1 0x1 PUSH1 0x0 SWAP1 SLOAD SWAP1 PUSH2 0x100 EXP SWAP1 DIV PUSH20 0xFFFFFFFFFFFFFFFFFFFFFFFFFFFFFFFFFFFFFFFF AND PUSH20 0xFFFFFFFFFFFFFFFFFFFFFFFFFFFFFFFFFFFFFFFF AND PUSH2 0xF44 PUSH2 0x2606 JUMP JUMPDEST PUSH20 0xFFFFFFFFFFFFFFFFFFFFFFFFFFFFFFFFFFFFFFFF AND EQ SWAP1 POP SWAP1 JUMP JUMPDEST PUSH1 0x0 PUSH1 0x5 DUP3 DUP2 SLOAD DUP2 LT PUSH2 0xF6F JUMPI INVALID JUMPDEST SWAP1 PUSH1 0x0 MSTORE PUSH1 0x20 PUSH1 0x0 KECCAK256 SWAP1 PUSH1 0x5 MUL ADD SWAP1 POP DUP1 PUSH1 0x2 ADD SLOAD TIMESTAMP GT PUSH2 0xF90 JUMPI POP PUSH2 0x116C JUMP JUMPDEST PUSH1 0x0 DUP2 PUSH1 0x0 ADD PUSH1 0x0 SWAP1 SLOAD SWAP1 PUSH2 0x100 EXP SWAP1 DIV PUSH20 0xFFFFFFFFFFFFFFFFFFFFFFFFFFFFFFFFFFFFFFFF AND PUSH20 0xFFFFFFFFFFFFFFFFFFFFFFFFFFFFFFFFFFFFFFFF AND PUSH4 0x70A08231 ADDRESS PUSH1 0x40 MLOAD DUP3 PUSH4 0xFFFFFFFF AND PUSH1 0xE0 SHL DUP2 MSTORE PUSH1 0x4 ADD DUP1 DUP3 PUSH20 0xFFFFFFFFFFFFFFFFFFFFFFFFFFFFFFFFFFFFFFFF AND DUP2 MSTORE PUSH1 0x20 ADD SWAP2 POP POP PUSH1 0x20 PUSH1 0x40 MLOAD DUP1 DUP4 SUB DUP2 DUP7 DUP1 EXTCODESIZE ISZERO DUP1 ISZERO PUSH2 0x101D JUMPI PUSH1 0x0 DUP1 REVERT JUMPDEST POP GAS STATICCALL ISZERO DUP1 ISZERO PUSH2 0x1031 JUMPI RETURNDATASIZE PUSH1 0x0 DUP1 RETURNDATACOPY RETURNDATASIZE PUSH1 0x0 REVERT JUMPDEST POP POP POP POP PUSH1 0x40 MLOAD RETURNDATASIZE PUSH1 0x20 DUP2 LT ISZERO PUSH2 0x1047 JUMPI PUSH1 0x0 DUP1 REVERT JUMPDEST DUP2 ADD SWAP1 DUP1 DUP1 MLOAD SWAP1 PUSH1 0x20 ADD SWAP1 SWAP3 SWAP2 SWAP1 POP POP POP SWAP1 POP PUSH1 0x0 DUP2 EQ ISZERO PUSH2 0x1073 JUMPI TIMESTAMP DUP3 PUSH1 0x2 ADD DUP2 SWAP1 SSTORE POP POP POP PUSH2 0x116C JUMP JUMPDEST DUP2 PUSH1 0x4 ADD PUSH1 0x0 SWAP1 SLOAD SWAP1 PUSH2 0x100 EXP SWAP1 DIV PUSH1 0xFF AND PUSH2 0x10C6 JUMPI PUSH1 0x1 DUP3 PUSH1 0x4 ADD PUSH1 0x0 PUSH2 0x100 EXP DUP2 SLOAD DUP2 PUSH1 0xFF MUL NOT AND SWAP1 DUP4 ISZERO ISZERO MUL OR SWAP1 SSTORE POP PUSH2 0x10BF DUP3 PUSH1 0x1 ADD SLOAD PUSH1 0x8 SLOAD PUSH2 0x24F8 SWAP1 SWAP2 SWAP1 PUSH4 0xFFFFFFFF AND JUMP JUMPDEST PUSH1 0x8 DUP2 SWAP1 SSTORE POP JUMPDEST PUSH1 0x0 PUSH1 0x8 SLOAD GT ISZERO PUSH2 0x1160 JUMPI PUSH1 0x0 PUSH2 0x10E1 DUP4 PUSH1 0x2 ADD SLOAD TIMESTAMP PUSH2 0xA38 JUMP JUMPDEST SWAP1 POP PUSH1 0x0 PUSH2 0x1110 PUSH1 0x8 SLOAD PUSH2 0x1102 DUP7 PUSH1 0x1 ADD SLOAD DUP6 PUSH2 0x2580 SWAP1 SWAP2 SWAP1 PUSH4 0xFFFFFFFF AND JUMP JUMPDEST PUSH2 0x273C SWAP1 SWAP2 SWAP1 PUSH4 0xFFFFFFFF AND JUMP JUMPDEST SWAP1 POP PUSH2 0x1155 PUSH2 0x1142 DUP5 PUSH2 0x1134 PUSH8 0xDE0B6B3A7640000 DUP6 PUSH2 0x2580 SWAP1 SWAP2 SWAP1 PUSH4 0xFFFFFFFF AND JUMP JUMPDEST PUSH2 0x273C SWAP1 SWAP2 SWAP1 PUSH4 0xFFFFFFFF AND JUMP JUMPDEST DUP6 PUSH1 0x3 ADD SLOAD PUSH2 0x24F8 SWAP1 SWAP2 SWAP1 PUSH4 0xFFFFFFFF AND JUMP JUMPDEST DUP5 PUSH1 0x3 ADD DUP2 SWAP1 SSTORE POP POP POP JUMPDEST TIMESTAMP DUP3 PUSH1 0x2 ADD DUP2 SWAP1 SSTORE POP POP POP JUMPDEST POP JUMP JUMPDEST PUSH1 0x0 PUSH1 0x5 DUP3 DUP2 SLOAD DUP2 LT PUSH2 0x117E JUMPI INVALID JUMPDEST SWAP1 PUSH1 0x0 MSTORE PUSH1 0x20 PUSH1 0x0 KECCAK256 SWAP1 PUSH1 0x5 MUL ADD SWAP1 POP PUSH1 0x0 PUSH1 0x7 PUSH1 0x0 DUP5 DUP2 MSTORE PUSH1 0x20 ADD SWAP1 DUP2 MSTORE PUSH1 0x20 ADD PUSH1 0x0 KECCAK256 PUSH1 0x0 CALLER PUSH20 0xFFFFFFFFFFFFFFFFFFFFFFFFFFFFFFFFFFFFFFFF AND PUSH20 0xFFFFFFFFFFFFFFFFFFFFFFFFFFFFFFFFFFFFFFFF AND DUP2 MSTORE PUSH1 0x20 ADD SWAP1 DUP2 MSTORE PUSH1 0x20 ADD PUSH1 0x0 KECCAK256 SWAP1 POP PUSH1 0x0 DUP2 PUSH1 0x0 ADD SLOAD SWAP1 POP PUSH1 0x0 DUP3 PUSH1 0x0 ADD DUP2 SWAP1 SSTORE POP PUSH1 0x0 DUP3 PUSH1 0x1 ADD DUP2 SWAP1 SSTORE POP PUSH2 0x124E CALLER DUP3 DUP6 PUSH1 0x0 ADD PUSH1 0x0 SWAP1 SLOAD SWAP1 PUSH2 0x100 EXP SWAP1 DIV PUSH20 0xFFFFFFFFFFFFFFFFFFFFFFFFFFFFFFFFFFFFFFFF AND PUSH20 0xFFFFFFFFFFFFFFFFFFFFFFFFFFFFFFFFFFFFFFFF AND PUSH2 0x2944 SWAP1 SWAP3 SWAP2 SWAP1 PUSH4 0xFFFFFFFF AND JUMP JUMPDEST DUP4 CALLER PUSH20 0xFFFFFFFFFFFFFFFFFFFFFFFFFFFFFFFFFFFFFFFF AND PUSH32 0xBB757047C2B5F3974FE26B7C10F732E7BCE710B0952A71082702781E62AE0595 DUP4 PUSH1 0x40 MLOAD DUP1 DUP3 DUP2 MSTORE PUSH1 0x20 ADD SWAP2 POP POP PUSH1 0x40 MLOAD DUP1 SWAP2 SUB SWAP1 LOG3 POP POP POP POP JUMP JUMPDEST CALLER PUSH20 0xFFFFFFFFFFFFFFFFFFFFFFFFFFFFFFFFFFFFFFFF AND PUSH1 0x1 PUSH1 0x0 SWAP1 SLOAD SWAP1 PUSH2 0x100 EXP SWAP1 DIV PUSH20 0xFFFFFFFFFFFFFFFFFFFFFFFFFFFFFFFFFFFFFFFF AND PUSH20 0xFFFFFFFFFFFFFFFFFFFFFFFFFFFFFFFFFFFFFFFF AND EQ PUSH2 0x1349 JUMPI PUSH1 0x40 MLOAD PUSH32 0x8C379A000000000000000000000000000000000000000000000000000000000 DUP2 MSTORE PUSH1 0x4 ADD DUP1 DUP1 PUSH1 0x20 ADD DUP3 DUP2 SUB DUP3 MSTORE PUSH1 0x24 DUP2 MSTORE PUSH1 0x20 ADD DUP1 PUSH2 0x3011 PUSH1 0x24 SWAP2 CODECOPY PUSH1 0x40 ADD SWAP2 POP POP PUSH1 0x40 MLOAD DUP1 SWAP2 SUB SWAP1 REVERT JUMPDEST PUSH3 0x76A700 PUSH1 0xA SLOAD ADD TIMESTAMP LT ISZERO PUSH2 0x1525 JUMPI PUSH1 0x2 PUSH1 0x0 SWAP1 SLOAD SWAP1 PUSH2 0x100 EXP SWAP1 DIV PUSH20 0xFFFFFFFFFFFFFFFFFFFFFFFFFFFFFFFFFFFFFFFF AND PUSH20 0xFFFFFFFFFFFFFFFFFFFFFFFFFFFFFFFFFFFFFFFF AND DUP4 PUSH20 0xFFFFFFFFFFFFFFFFFFFFFFFFFFFFFFFFFFFFFFFF AND EQ ISZERO PUSH2 0x141C JUMPI PUSH1 0x40 MLOAD PUSH32 0x8C379A000000000000000000000000000000000000000000000000000000000 DUP2 MSTORE PUSH1 0x4 ADD DUP1 DUP1 PUSH1 0x20 ADD DUP3 DUP2 SUB DUP3 MSTORE PUSH1 0x4 DUP2 MSTORE PUSH1 0x20 ADD DUP1 PUSH32 0x506F6C7900000000000000000000000000000000000000000000000000000000 DUP2 MSTORE POP PUSH1 0x20 ADD SWAP2 POP POP PUSH1 0x40 MLOAD DUP1 SWAP2 SUB SWAP1 REVERT JUMPDEST PUSH1 0x0 PUSH1 0x5 DUP1 SLOAD SWAP1 POP SWAP1 POP PUSH1 0x0 JUMPDEST DUP2 DUP2 LT ISZERO PUSH2 0x1522 JUMPI PUSH1 0x0 PUSH1 0x5 DUP3 DUP2 SLOAD DUP2 LT PUSH2 0x1440 JUMPI INVALID JUMPDEST SWAP1 PUSH1 0x0 MSTORE PUSH1 0x20 PUSH1 0x0 KECCAK256 SWAP1 PUSH1 0x5 MUL ADD SWAP1 POP DUP1 PUSH1 0x0 ADD PUSH1 0x0 SWAP1 SLOAD SWAP1 PUSH2 0x100 EXP SWAP1 DIV PUSH20 0xFFFFFFFFFFFFFFFFFFFFFFFFFFFFFFFFFFFFFFFF AND PUSH20 0xFFFFFFFFFFFFFFFFFFFFFFFFFFFFFFFFFFFFFFFF AND DUP7 PUSH20 0xFFFFFFFFFFFFFFFFFFFFFFFFFFFFFFFFFFFFFFFF AND EQ ISZERO PUSH2 0x1516 JUMPI PUSH1 0x40 MLOAD PUSH32 0x8C379A000000000000000000000000000000000000000000000000000000000 DUP2 MSTORE PUSH1 0x4 ADD DUP1 DUP1 PUSH1 0x20 ADD DUP3 DUP2 SUB DUP3 MSTORE PUSH1 0xA DUP2 MSTORE PUSH1 0x20 ADD DUP1 PUSH32 0x706F6F6C2E746F6B656E00000000000000000000000000000000000000000000 DUP2 MSTORE POP PUSH1 0x20 ADD SWAP2 POP POP PUSH1 0x40 MLOAD DUP1 SWAP2 SUB SWAP1 REVERT JUMPDEST POP DUP1 PUSH1 0x1 ADD SWAP1 POP PUSH2 0x1429 JUMP JUMPDEST POP POP JUMPDEST PUSH2 0x1550 DUP2 DUP4 DUP6 PUSH20 0xFFFFFFFFFFFFFFFFFFFFFFFFFFFFFFFFFFFFFFFF AND PUSH2 0x2944 SWAP1 SWAP3 SWAP2 SWAP1 PUSH4 0xFFFFFFFF AND JUMP JUMPDEST POP POP POP JUMP JUMPDEST PUSH1 0x0 PUSH1 0x1 PUSH1 0x0 SWAP1 SLOAD SWAP1 PUSH2 0x100 EXP SWAP1 DIV PUSH20 0xFFFFFFFFFFFFFFFFFFFFFFFFFFFFFFFFFFFFFFFF AND SWAP1 POP SWAP1 JUMP JUMPDEST PUSH1 0x9 SLOAD DUP2 JUMP JUMPDEST PUSH1 0x0 PUSH1 0x5 DUP1 SLOAD SWAP1 POP SWAP1 POP PUSH1 0x0 JUMPDEST DUP2 DUP2 LT ISZERO PUSH2 0x15AE JUMPI PUSH2 0x15A3 DUP2 PUSH2 0xF60 JUMP JUMPDEST DUP1 PUSH1 0x1 ADD SWAP1 POP PUSH2 0x1592 JUMP JUMPDEST POP POP JUMP JUMPDEST PUSH1 0xA SLOAD DUP2 JUMP JUMPDEST PUSH2 0x15C0 PUSH2 0x2606 JUMP JUMPDEST PUSH20 0xFFFFFFFFFFFFFFFFFFFFFFFFFFFFFFFFFFFFFFFF AND PUSH2 0x15DE PUSH2 0x1725 JUMP JUMPDEST PUSH20 0xFFFFFFFFFFFFFFFFFFFFFFFFFFFFFFFFFFFFFFFF AND EQ PUSH2 0x1667 JUMPI PUSH1 0x40 MLOAD PUSH32 0x8C379A000000000000000000000000000000000000000000000000000000000 DUP2 MSTORE PUSH1 0x4 ADD DUP1 DUP1 PUSH1 0x20 ADD DUP3 DUP2 SUB DUP3 MSTORE PUSH1 0x20 DUP2 MSTORE PUSH1 0x20 ADD DUP1 PUSH32 0x4F776E61626C653A2063616C6C6572206973206E6F7420746865206F776E6572 DUP2 MSTORE POP PUSH1 0x20 ADD SWAP2 POP POP PUSH1 0x40 MLOAD DUP1 SWAP2 SUB SWAP1 REVERT JUMPDEST PUSH1 0x0 PUSH20 0xFFFFFFFFFFFFFFFFFFFFFFFFFFFFFFFFFFFFFFFF AND PUSH1 0x0 DUP1 SLOAD SWAP1 PUSH2 0x100 EXP SWAP1 DIV PUSH20 0xFFFFFFFFFFFFFFFFFFFFFFFFFFFFFFFFFFFFFFFF AND PUSH20 0xFFFFFFFFFFFFFFFFFFFFFFFFFFFFFFFFFFFFFFFF AND PUSH32 0x8BE0079C531659141344CD1FD0A4F28419497F9722A3DAAFE3B4186F6B6457E0 PUSH1 0x40 MLOAD PUSH1 0x40 MLOAD DUP1 SWAP2 SUB SWAP1 LOG3 PUSH1 0x0 DUP1 PUSH1 0x0 PUSH2 0x100 EXP DUP2 SLOAD DUP2 PUSH20 0xFFFFFFFFFFFFFFFFFFFFFFFFFFFFFFFFFFFFFFFF MUL NOT AND SWAP1 DUP4 PUSH20 0xFFFFFFFFFFFFFFFFFFFFFFFFFFFFFFFFFFFFFFFF AND MUL OR SWAP1 SSTORE POP JUMP JUMPDEST PUSH1 0x0 DUP1 PUSH1 0x0 SWAP1 SLOAD SWAP1 PUSH2 0x100 EXP SWAP1 DIV PUSH20 0xFFFFFFFFFFFFFFFFFFFFFFFFFFFFFFFFFFFFFFFF AND SWAP1 POP SWAP1 JUMP JUMPDEST PUSH1 0x7 PUSH1 0x20 MSTORE DUP2 PUSH1 0x0 MSTORE PUSH1 0x40 PUSH1 0x0 KECCAK256 PUSH1 0x20 MSTORE DUP1 PUSH1 0x0 MSTORE PUSH1 0x40 PUSH1 0x0 KECCAK256 PUSH1 0x0 SWAP2 POP SWAP2 POP POP DUP1 PUSH1 0x0 ADD SLOAD SWAP1 DUP1 PUSH1 0x1 ADD SLOAD SWAP1 POP DUP3 JUMP JUMPDEST PUSH1 0xC SLOAD DUP2 JUMP JUMPDEST CALLER PUSH20 0xFFFFFFFFFFFFFFFFFFFFFFFFFFFFFFFFFFFFFFFF AND PUSH1 0x1 PUSH1 0x0 SWAP1 SLOAD SWAP1 PUSH2 0x100 EXP SWAP1 DIV PUSH20 0xFFFFFFFFFFFFFFFFFFFFFFFFFFFFFFFFFFFFFFFF AND PUSH20 0xFFFFFFFFFFFFFFFFFFFFFFFFFFFFFFFFFFFFFFFF AND EQ PUSH2 0x182B JUMPI PUSH1 0x40 MLOAD PUSH32 0x8C379A000000000000000000000000000000000000000000000000000000000 DUP2 MSTORE PUSH1 0x4 ADD DUP1 DUP1 PUSH1 0x20 ADD DUP3 DUP2 SUB DUP3 MSTORE PUSH1 0x24 DUP2 MSTORE PUSH1 0x20 ADD DUP1 PUSH2 0x3011 PUSH1 0x24 SWAP2 CODECOPY PUSH1 0x40 ADD SWAP2 POP POP PUSH1 0x40 MLOAD DUP1 SWAP2 SUB SWAP1 REVERT JUMPDEST PUSH2 0x1834 DUP4 PUSH2 0x29E6 JUMP JUMPDEST DUP2 ISZERO PUSH2 0x1843 JUMPI PUSH2 0x1842 PUSH2 0x1585 JUMP JUMPDEST JUMPDEST PUSH1 0x9 SLOAD TIMESTAMP LT ISZERO PUSH2 0x1876 JUMPI PUSH1 0x0 DUP2 EQ ISZERO PUSH2 0x1860 JUMPI PUSH1 0x9 SLOAD SWAP1 POP PUSH2 0x1871 JUMP JUMPDEST PUSH1 0x9 SLOAD DUP2 LT ISZERO PUSH2 0x1870 JUMPI PUSH1 0x9 SLOAD SWAP1 POP JUMPDEST JUMPDEST PUSH2 0x188E JUMP JUMPDEST PUSH1 0x0 DUP2 EQ DUP1 PUSH2 0x1884 JUMPI POP TIMESTAMP DUP2 LT JUMPDEST ISZERO PUSH2 0x188D JUMPI TIMESTAMP SWAP1 POP JUMPDEST JUMPDEST PUSH1 0x0 PUSH1 0x9 SLOAD DUP3 GT ISZERO DUP1 PUSH2 0x18A1 JUMPI POP TIMESTAMP DUP3 GT ISZERO JUMPDEST SWAP1 POP PUSH1 0x5 PUSH1 0x40 MLOAD DUP1 PUSH1 0xA0 ADD PUSH1 0x40 MSTORE DUP1 DUP7 PUSH20 0xFFFFFFFFFFFFFFFFFFFFFFFFFFFFFFFFFFFFFFFF AND DUP2 MSTORE PUSH1 0x20 ADD DUP8 DUP2 MSTORE PUSH1 0x20 ADD DUP5 DUP2 MSTORE PUSH1 0x20 ADD PUSH1 0x0 DUP2 MSTORE PUSH1 0x20 ADD DUP4 ISZERO ISZERO DUP2 MSTORE POP SWAP1 DUP1 PUSH1 0x1 DUP2 SLOAD ADD DUP1 DUP3 SSTORE DUP1 SWAP2 POP POP PUSH1 0x1 SWAP1 SUB SWAP1 PUSH1 0x0 MSTORE PUSH1 0x20 PUSH1 0x0 KECCAK256 SWAP1 PUSH1 0x5 MUL ADD PUSH1 0x0 SWAP1 SWAP2 SWAP1 SWAP2 SWAP1 SWAP2 POP PUSH1 0x0 DUP3 ADD MLOAD DUP2 PUSH1 0x0 ADD PUSH1 0x0 PUSH2 0x100 EXP DUP2 SLOAD DUP2 PUSH20 0xFFFFFFFFFFFFFFFFFFFFFFFFFFFFFFFFFFFFFFFF MUL NOT AND SWAP1 DUP4 PUSH20 0xFFFFFFFFFFFFFFFFFFFFFFFFFFFFFFFFFFFFFFFF AND MUL OR SWAP1 SSTORE POP PUSH1 0x20 DUP3 ADD MLOAD DUP2 PUSH1 0x1 ADD SSTORE PUSH1 0x40 DUP3 ADD MLOAD DUP2 PUSH1 0x2 ADD SSTORE PUSH1 0x60 DUP3 ADD MLOAD DUP2 PUSH1 0x3 ADD SSTORE PUSH1 0x80 DUP3 ADD MLOAD DUP2 PUSH1 0x4 ADD PUSH1 0x0 PUSH2 0x100 EXP DUP2 SLOAD DUP2 PUSH1 0xFF MUL NOT AND SWAP1 DUP4 ISZERO ISZERO MUL OR SWAP1 SSTORE POP POP POP DUP1 ISZERO PUSH2 0x19B7 JUMPI PUSH2 0x19B0 DUP6 PUSH1 0x8 SLOAD PUSH2 0x24F8 SWAP1 SWAP2 SWAP1 PUSH4 0xFFFFFFFF AND JUMP JUMPDEST PUSH1 0x8 DUP2 SWAP1 SSTORE POP JUMPDEST POP POP POP POP POP JUMP JUMPDEST CALLER PUSH20 0xFFFFFFFFFFFFFFFFFFFFFFFFFFFFFFFFFFFFFFFF AND PUSH1 0x1 PUSH1 0x0 SWAP1 SLOAD SWAP1 PUSH2 0x100 EXP SWAP1 DIV PUSH20 0xFFFFFFFFFFFFFFFFFFFFFFFFFFFFFFFFFFFFFFFF AND PUSH20 0xFFFFFFFFFFFFFFFFFFFFFFFFFFFFFFFFFFFFFFFF AND EQ PUSH2 0x1A64 JUMPI PUSH1 0x40 MLOAD PUSH32 0x8C379A000000000000000000000000000000000000000000000000000000000 DUP2 MSTORE PUSH1 0x4 ADD DUP1 DUP1 PUSH1 0x20 ADD DUP3 DUP2 SUB DUP3 MSTORE PUSH1 0x24 DUP2 MSTORE PUSH1 0x20 ADD DUP1 PUSH2 0x3011 PUSH1 0x24 SWAP2 CODECOPY PUSH1 0x40 ADD SWAP2 POP POP PUSH1 0x40 MLOAD DUP1 SWAP2 SUB SWAP1 REVERT JUMPDEST PUSH2 0x1A6D DUP2 PUSH2 0xB4B JUMP JUMPDEST POP JUMP JUMPDEST PUSH1 0x6 PUSH1 0x0 SWAP1 SLOAD SWAP1 PUSH2 0x100 EXP SWAP1 DIV PUSH1 0xFF AND ISZERO PUSH2 0x1AF3 JUMPI PUSH1 0x40 MLOAD PUSH32 0x8C379A000000000000000000000000000000000000000000000000000000000 DUP2 MSTORE PUSH1 0x4 ADD DUP1 DUP1 PUSH1 0x20 ADD DUP3 DUP2 SUB DUP3 MSTORE PUSH1 0x1C DUP2 MSTORE PUSH1 0x20 ADD DUP1 PUSH32 0x47656E657369733A20616C726561647920696E697469616C697A656400000000 DUP2 MSTORE POP PUSH1 0x20 ADD SWAP2 POP POP PUSH1 0x40 MLOAD DUP1 SWAP2 SUB SWAP1 REVERT JUMPDEST CALLER PUSH20 0xFFFFFFFFFFFFFFFFFFFFFFFFFFFFFFFFFFFFFFFF AND PUSH1 0x1 PUSH1 0x0 SWAP1 SLOAD SWAP1 PUSH2 0x100 EXP SWAP1 DIV PUSH20 0xFFFFFFFFFFFFFFFFFFFFFFFFFFFFFFFFFFFFFFFF AND PUSH20 0xFFFFFFFFFFFFFFFFFFFFFFFFFFFFFFFFFFFFFFFF AND EQ PUSH2 0x1B99 JUMPI PUSH1 0x40 MLOAD PUSH32 0x8C379A000000000000000000000000000000000000000000000000000000000 DUP2 MSTORE PUSH1 0x4 ADD DUP1 DUP1 PUSH1 0x20 ADD DUP3 DUP2 SUB DUP3 MSTORE PUSH1 0x24 DUP2 MSTORE PUSH1 0x20 ADD DUP1 PUSH2 0x3011 PUSH1 0x24 SWAP2 CODECOPY PUSH1 0x40 ADD SWAP2 POP POP PUSH1 0x40 MLOAD DUP1 SWAP2 SUB SWAP1 REVERT JUMPDEST DUP1 TIMESTAMP LT PUSH2 0x1C0E JUMPI PUSH1 0x40 MLOAD PUSH32 0x8C379A000000000000000000000000000000000000000000000000000000000 DUP2 MSTORE PUSH1 0x4 ADD DUP1 DUP1 PUSH1 0x20 ADD DUP3 DUP2 SUB DUP3 MSTORE PUSH1 0x4 DUP2 MSTORE PUSH1 0x20 ADD DUP1 PUSH32 0x6C61746500000000000000000000000000000000000000000000000000000000 DUP2 MSTORE POP PUSH1 0x20 ADD SWAP2 POP POP PUSH1 0x40 MLOAD DUP1 SWAP2 SUB SWAP1 REVERT JUMPDEST PUSH1 0x0 PUSH20 0xFFFFFFFFFFFFFFFFFFFFFFFFFFFFFFFFFFFFFFFF AND DUP3 PUSH20 0xFFFFFFFFFFFFFFFFFFFFFFFFFFFFFFFFFFFFFFFF AND EQ PUSH2 0x1C84 JUMPI DUP2 PUSH1 0x2 PUSH1 0x0 PUSH2 0x100 EXP DUP2 SLOAD DUP2 PUSH20 0xFFFFFFFFFFFFFFFFFFFFFFFFFFFFFFFFFFFFFFFF MUL NOT AND SWAP1 DUP4 PUSH20 0xFFFFFFFFFFFFFFFFFFFFFFFFFFFFFFFFFFFFFFFF AND MUL OR SWAP1 SSTORE POP JUMPDEST CALLER PUSH1 0x4 PUSH1 0x0 PUSH2 0x100 EXP DUP2 SLOAD DUP2 PUSH20 0xFFFFFFFFFFFFFFFFFFFFFFFFFFFFFFFFFFFFFFFF MUL NOT AND SWAP1 DUP4 PUSH20 0xFFFFFFFFFFFFFFFFFFFFFFFFFFFFFFFFFFFFFFFF AND MUL OR SWAP1 SSTORE POP DUP1 PUSH1 0x9 DUP2 SWAP1 SSTORE POP PUSH1 0xC SLOAD PUSH1 0x9 SLOAD ADD PUSH1 0xA DUP2 SWAP1 SSTORE POP PUSH1 0xC8 PUSH1 0x3 DUP2 SWAP1 SSTORE POP PUSH1 0x1 PUSH1 0x6 PUSH1 0x0 PUSH2 0x100 EXP DUP2 SLOAD DUP2 PUSH1 0xFF MUL NOT AND SWAP1 DUP4 ISZERO ISZERO MUL OR SWAP1 SSTORE POP POP POP JUMP JUMPDEST PUSH1 0x3 SLOAD DUP2 JUMP JUMPDEST PUSH1 0x2 PUSH1 0x0 SWAP1 SLOAD SWAP1 PUSH2 0x100 EXP SWAP1 DIV PUSH20 0xFFFFFFFFFFFFFFFFFFFFFFFFFFFFFFFFFFFFFFFF AND DUP2 JUMP JUMPDEST PUSH1 0x0 CALLER SWAP1 POP PUSH1 0x0 PUSH2 0x1D48 PUSH1 0x3 SLOAD DUP5 PUSH2 0x2AEB SWAP1 SWAP2 SWAP1 PUSH4 0xFFFFFFFF AND JUMP JUMPDEST SWAP1 POP PUSH1 0x0 PUSH2 0x1D75 PUSH2 0x2710 PUSH2 0x1D67 PUSH1 0x3 SLOAD DUP6 PUSH2 0x2580 SWAP1 SWAP2 SWAP1 PUSH4 0xFFFFFFFF AND JUMP JUMPDEST PUSH2 0x273C SWAP1 SWAP2 SWAP1 PUSH4 0xFFFFFFFF AND JUMP JUMPDEST SWAP1 POP PUSH1 0x0 PUSH2 0x1D8C DUP3 DUP7 PUSH2 0x2475 SWAP1 SWAP2 SWAP1 PUSH4 0xFFFFFFFF AND JUMP JUMPDEST SWAP1 POP PUSH1 0x0 PUSH1 0x5 DUP8 DUP2 SLOAD DUP2 LT PUSH2 0x1D9D JUMPI INVALID JUMPDEST SWAP1 PUSH1 0x0 MSTORE PUSH1 0x20 PUSH1 0x0 KECCAK256 SWAP1 PUSH1 0x5 MUL ADD SWAP1 POP PUSH1 0x0 PUSH1 0x7 PUSH1 0x0 DUP10 DUP2 MSTORE PUSH1 0x20 ADD SWAP1 DUP2 MSTORE PUSH1 0x20 ADD PUSH1 0x0 KECCAK256 PUSH1 0x0 DUP8 PUSH20 0xFFFFFFFFFFFFFFFFFFFFFFFFFFFFFFFFFFFFFFFF AND PUSH20 0xFFFFFFFFFFFFFFFFFFFFFFFFFFFFFFFFFFFFFFFF AND DUP2 MSTORE PUSH1 0x20 ADD SWAP1 DUP2 MSTORE PUSH1 0x20 ADD PUSH1 0x0 KECCAK256 SWAP1 POP PUSH2 0x1E0A DUP9 PUSH2 0xF60 JUMP JUMPDEST PUSH1 0x0 DUP2 PUSH1 0x0 ADD SLOAD GT ISZERO PUSH2 0x1ECA JUMPI PUSH1 0x0 PUSH2 0x1E64 DUP3 PUSH1 0x1 ADD SLOAD PUSH2 0x1E56 PUSH8 0xDE0B6B3A7640000 PUSH2 0x1E48 DUP8 PUSH1 0x3 ADD SLOAD DUP8 PUSH1 0x0 ADD SLOAD PUSH2 0x2580 SWAP1 SWAP2 SWAP1 PUSH4 0xFFFFFFFF AND JUMP JUMPDEST PUSH2 0x273C SWAP1 SWAP2 SWAP1 PUSH4 0xFFFFFFFF AND JUMP JUMPDEST PUSH2 0x2475 SWAP1 SWAP2 SWAP1 PUSH4 0xFFFFFFFF AND JUMP JUMPDEST SWAP1 POP PUSH1 0x0 DUP2 GT ISZERO PUSH2 0x1EC8 JUMPI PUSH2 0x1E79 DUP8 DUP3 PUSH2 0x27C5 JUMP JUMPDEST DUP7 PUSH20 0xFFFFFFFFFFFFFFFFFFFFFFFFFFFFFFFFFFFFFFFF AND PUSH32 0xE2403640BA68FED3A2F88B7557551D1993F84B99BB10FF833F0CF8DB0C5E0486 DUP3 PUSH1 0x40 MLOAD DUP1 DUP3 DUP2 MSTORE PUSH1 0x20 ADD SWAP2 POP POP PUSH1 0x40 MLOAD DUP1 SWAP2 SUB SWAP1 LOG2 JUMPDEST POP JUMPDEST PUSH1 0x0 DUP8 GT ISZERO PUSH2 0x1FB5 JUMPI PUSH2 0x1F24 DUP7 ADDRESS DUP10 DUP6 PUSH1 0x0 ADD PUSH1 0x0 SWAP1 SLOAD SWAP1 PUSH2 0x100 EXP SWAP1 DIV PUSH20 0xFFFFFFFFFFFFFFFFFFFFFFFFFFFFFFFFFFFFFFFF AND PUSH20 0xFFFFFFFFFFFFFFFFFFFFFFFFFFFFFFFFFFFFFFFF AND PUSH2 0x2B26 SWAP1 SWAP4 SWAP3 SWAP2 SWAP1 PUSH4 0xFFFFFFFF AND JUMP JUMPDEST PUSH2 0x1F3B DUP4 DUP3 PUSH1 0x0 ADD SLOAD PUSH2 0x24F8 SWAP1 SWAP2 SWAP1 PUSH4 0xFFFFFFFF AND JUMP JUMPDEST DUP2 PUSH1 0x0 ADD DUP2 SWAP1 SSTORE POP PUSH2 0x1FB4 PUSH1 0x4 PUSH1 0x0 SWAP1 SLOAD SWAP1 PUSH2 0x100 EXP SWAP1 DIV PUSH20 0xFFFFFFFFFFFFFFFFFFFFFFFFFFFFFFFFFFFFFFFF AND DUP7 DUP5 PUSH1 0x0 ADD PUSH1 0x0 SWAP1 SLOAD SWAP1 PUSH2 0x100 EXP SWAP1 DIV PUSH20 0xFFFFFFFFFFFFFFFFFFFFFFFFFFFFFFFFFFFFFFFF AND PUSH20 0xFFFFFFFFFFFFFFFFFFFFFFFFFFFFFFFFFFFFFFFF AND PUSH2 0x2944 SWAP1 SWAP3 SWAP2 SWAP1 PUSH4 0xFFFFFFFF AND JUMP JUMPDEST JUMPDEST PUSH2 0x1FEA PUSH8 0xDE0B6B3A7640000 PUSH2 0x1FDC DUP5 PUSH1 0x3 ADD SLOAD DUP5 PUSH1 0x0 ADD SLOAD PUSH2 0x2580 SWAP1 SWAP2 SWAP1 PUSH4 0xFFFFFFFF AND JUMP JUMPDEST PUSH2 0x273C SWAP1 SWAP2 SWAP1 PUSH4 0xFFFFFFFF AND JUMP JUMPDEST DUP2 PUSH1 0x1 ADD DUP2 SWAP1 SSTORE POP DUP8 DUP7 PUSH20 0xFFFFFFFFFFFFFFFFFFFFFFFFFFFFFFFFFFFFFFFF AND PUSH32 0x90890809C654F11D6E72A28FA60149770A0D11EC6C92319D6CEB2BB0A4EA1A15 DUP10 PUSH1 0x40 MLOAD DUP1 DUP3 DUP2 MSTORE PUSH1 0x20 ADD SWAP2 POP POP PUSH1 0x40 MLOAD DUP1 SWAP2 SUB SWAP1 LOG3 POP POP POP POP POP POP POP POP JUMP JUMPDEST PUSH1 0x0 DUP1 PUSH1 0x5 DUP5 DUP2 SLOAD DUP2 LT PUSH2 0x205B JUMPI INVALID JUMPDEST SWAP1 PUSH1 0x0 MSTORE PUSH1 0x20 PUSH1 0x0 KECCAK256 SWAP1 PUSH1 0x5 MUL ADD SWAP1 POP PUSH1 0x0 PUSH1 0x7 PUSH1 0x0 DUP7 DUP2 MSTORE PUSH1 0x20 ADD SWAP1 DUP2 MSTORE PUSH1 0x20 ADD PUSH1 0x0 KECCAK256 PUSH1 0x0 DUP6 PUSH20 0xFFFFFFFFFFFFFFFFFFFFFFFFFFFFFFFFFFFFFFFF AND PUSH20 0xFFFFFFFFFFFFFFFFFFFFFFFFFFFFFFFFFFFFFFFF AND DUP2 MSTORE PUSH1 0x20 ADD SWAP1 DUP2 MSTORE PUSH1 0x20 ADD PUSH1 0x0 KECCAK256 SWAP1 POP PUSH1 0x0 DUP3 PUSH1 0x3 ADD SLOAD SWAP1 POP PUSH1 0x0 DUP4 PUSH1 0x0 ADD PUSH1 0x0 SWAP1 SLOAD SWAP1 PUSH2 0x100 EXP SWAP1 DIV PUSH20 0xFFFFFFFFFFFFFFFFFFFFFFFFFFFFFFFFFFFFFFFF AND PUSH20 0xFFFFFFFFFFFFFFFFFFFFFFFFFFFFFFFFFFFFFFFF AND PUSH4 0x70A08231 ADDRESS PUSH1 0x40 MLOAD DUP3 PUSH4 0xFFFFFFFF AND PUSH1 0xE0 SHL DUP2 MSTORE PUSH1 0x4 ADD DUP1 DUP3 PUSH20 0xFFFFFFFFFFFFFFFFFFFFFFFFFFFFFFFFFFFFFFFF AND DUP2 MSTORE PUSH1 0x20 ADD SWAP2 POP POP PUSH1 0x20 PUSH1 0x40 MLOAD DUP1 DUP4 SUB DUP2 DUP7 DUP1 EXTCODESIZE ISZERO DUP1 ISZERO PUSH2 0x2155 JUMPI PUSH1 0x0 DUP1 REVERT JUMPDEST POP GAS STATICCALL ISZERO DUP1 ISZERO PUSH2 0x2169 JUMPI RETURNDATASIZE PUSH1 0x0 DUP1 RETURNDATACOPY RETURNDATASIZE PUSH1 0x0 REVERT JUMPDEST POP POP POP POP PUSH1 0x40 MLOAD RETURNDATASIZE PUSH1 0x20 DUP2 LT ISZERO PUSH2 0x217F JUMPI PUSH1 0x0 DUP1 REVERT JUMPDEST DUP2 ADD SWAP1 DUP1 DUP1 MLOAD SWAP1 PUSH1 0x20 ADD SWAP1 SWAP3 SWAP2 SWAP1 POP POP POP SWAP1 POP DUP4 PUSH1 0x2 ADD SLOAD TIMESTAMP GT DUP1 ISZERO PUSH2 0x21A6 JUMPI POP PUSH1 0x0 DUP2 EQ ISZERO JUMPDEST ISZERO PUSH2 0x2230 JUMPI PUSH1 0x0 PUSH2 0x21BB DUP6 PUSH1 0x2 ADD SLOAD TIMESTAMP PUSH2 0xA38 JUMP JUMPDEST SWAP1 POP PUSH1 0x0 PUSH2 0x21EA PUSH1 0x8 SLOAD PUSH2 0x21DC DUP9 PUSH1 0x1 ADD SLOAD DUP6 PUSH2 0x2580 SWAP1 SWAP2 SWAP1 PUSH4 0xFFFFFFFF AND JUMP JUMPDEST PUSH2 0x273C SWAP1 SWAP2 SWAP1 PUSH4 0xFFFFFFFF AND JUMP JUMPDEST SWAP1 POP PUSH2 0x222B PUSH2 0x221C DUP5 PUSH2 0x220E PUSH8 0xDE0B6B3A7640000 DUP6 PUSH2 0x2580 SWAP1 SWAP2 SWAP1 PUSH4 0xFFFFFFFF AND JUMP JUMPDEST PUSH2 0x273C SWAP1 SWAP2 SWAP1 PUSH4 0xFFFFFFFF AND JUMP JUMPDEST DUP6 PUSH2 0x24F8 SWAP1 SWAP2 SWAP1 PUSH4 0xFFFFFFFF AND JUMP JUMPDEST SWAP4 POP POP POP JUMPDEST PUSH2 0x2277 DUP4 PUSH1 0x1 ADD SLOAD PUSH2 0x2269 PUSH8 0xDE0B6B3A7640000 PUSH2 0x225B DUP7 DUP9 PUSH1 0x0 ADD SLOAD PUSH2 0x2580 SWAP1 SWAP2 SWAP1 PUSH4 0xFFFFFFFF AND JUMP JUMPDEST PUSH2 0x273C SWAP1 SWAP2 SWAP1 PUSH4 0xFFFFFFFF AND JUMP JUMPDEST PUSH2 0x2475 SWAP1 SWAP2 SWAP1 PUSH4 0xFFFFFFFF AND JUMP JUMPDEST SWAP5 POP POP POP POP POP SWAP3 SWAP2 POP POP JUMP JUMPDEST PUSH2 0x228B PUSH2 0x2606 JUMP JUMPDEST PUSH20 0xFFFFFFFFFFFFFFFFFFFFFFFFFFFFFFFFFFFFFFFF AND PUSH2 0x22A9 PUSH2 0x1725 JUMP JUMPDEST PUSH20 0xFFFFFFFFFFFFFFFFFFFFFFFFFFFFFFFFFFFFFFFF AND EQ PUSH2 0x2332 JUMPI PUSH1 0x40 MLOAD PUSH32 0x8C379A000000000000000000000000000000000000000000000000000000000 DUP2 MSTORE PUSH1 0x4 ADD DUP1 DUP1 PUSH1 0x20 ADD DUP3 DUP2 SUB DUP3 MSTORE PUSH1 0x20 DUP2 MSTORE PUSH1 0x20 ADD DUP1 PUSH32 0x4F776E61626C653A2063616C6C6572206973206E6F7420746865206F776E6572 DUP2 MSTORE POP PUSH1 0x20 ADD SWAP2 POP POP PUSH1 0x40 MLOAD DUP1 SWAP2 SUB SWAP1 REVERT JUMPDEST PUSH1 0x0 PUSH20 0xFFFFFFFFFFFFFFFFFFFFFFFFFFFFFFFFFFFFFFFF AND DUP2 PUSH20 0xFFFFFFFFFFFFFFFFFFFFFFFFFFFFFFFFFFFFFFFF AND EQ ISZERO PUSH2 0x23B8 JUMPI PUSH1 0x40 MLOAD PUSH32 0x8C379A000000000000000000000000000000000000000000000000000000000 DUP2 MSTORE PUSH1 0x4 ADD DUP1 DUP1 PUSH1 0x20 ADD DUP3 DUP2 SUB DUP3 MSTORE PUSH1 0x26 DUP2 MSTORE PUSH1 0x20 ADD DUP1 PUSH2 0x2F77 PUSH1 0x26 SWAP2 CODECOPY PUSH1 0x40 ADD SWAP2 POP POP PUSH1 0x40 MLOAD DUP1 SWAP2 SUB SWAP1 REVERT JUMPDEST DUP1 PUSH20 0xFFFFFFFFFFFFFFFFFFFFFFFFFFFFFFFFFFFFFFFF AND PUSH1 0x0 DUP1 SLOAD SWAP1 PUSH2 0x100 EXP SWAP1 DIV PUSH20 0xFFFFFFFFFFFFFFFFFFFFFFFFFFFFFFFFFFFFFFFF AND PUSH20 0xFFFFFFFFFFFFFFFFFFFFFFFFFFFFFFFFFFFFFFFF AND PUSH32 0x8BE0079C531659141344CD1FD0A4F28419497F9722A3DAAFE3B4186F6B6457E0 PUSH1 0x40 MLOAD PUSH1 0x40 MLOAD DUP1 SWAP2 SUB SWAP1 LOG3 DUP1 PUSH1 0x0 DUP1 PUSH2 0x100 EXP DUP2 SLOAD DUP2 PUSH20 0xFFFFFFFFFFFFFFFFFFFFFFFFFFFFFFFFFFFFFFFF MUL NOT AND SWAP1 DUP4 PUSH20 0xFFFFFFFFFFFFFFFFFFFFFFFFFFFFFFFFFFFFFFFF AND MUL OR SWAP1 SSTORE POP POP JUMP JUMPDEST PUSH1 0x0 DUP3 DUP3 GT ISZERO PUSH2 0x24ED JUMPI PUSH1 0x40 MLOAD PUSH32 0x8C379A000000000000000000000000000000000000000000000000000000000 DUP2 MSTORE PUSH1 0x4 ADD DUP1 DUP1 PUSH1 0x20 ADD DUP3 DUP2 SUB DUP3 MSTORE PUSH1 0x1E DUP2 MSTORE PUSH1 0x20 ADD DUP1 PUSH32 0x536166654D6174683A207375627472616374696F6E206F766572666C6F770000 DUP2 MSTORE POP PUSH1 0x20 ADD SWAP2 POP POP PUSH1 0x40 MLOAD DUP1 SWAP2 SUB SWAP1 REVERT JUMPDEST DUP2 DUP4 SUB SWAP1 POP SWAP3 SWAP2 POP POP JUMP JUMPDEST PUSH1 0x0 DUP1 DUP3 DUP5 ADD SWAP1 POP DUP4 DUP2 LT ISZERO PUSH2 0x2576 JUMPI PUSH1 0x40 MLOAD PUSH32 0x8C379A000000000000000000000000000000000000000000000000000000000 DUP2 MSTORE PUSH1 0x4 ADD DUP1 DUP1 PUSH1 0x20 ADD DUP3 DUP2 SUB DUP3 MSTORE PUSH1 0x1B DUP2 MSTORE PUSH1 0x20 ADD DUP1 PUSH32 0x536166654D6174683A206164646974696F6E206F766572666C6F770000000000 DUP2 MSTORE POP PUSH1 0x20 ADD SWAP2 POP POP PUSH1 0x40 MLOAD DUP1 SWAP2 SUB SWAP1 REVERT JUMPDEST DUP1 SWAP2 POP POP SWAP3 SWAP2 POP POP JUMP JUMPDEST PUSH1 0x0 DUP1 DUP4 EQ ISZERO PUSH2 0x2593 JUMPI PUSH1 0x0 SWAP1 POP PUSH2 0x2600 JUMP JUMPDEST PUSH1 0x0 DUP3 DUP5 MUL SWAP1 POP DUP3 DUP5 DUP3 DUP2 PUSH2 0x25A4 JUMPI INVALID JUMPDEST DIV EQ PUSH2 0x25FB JUMPI PUSH1 0x40 MLOAD PUSH32 0x8C379A000000000000000000000000000000000000000000000000000000000 DUP2 MSTORE PUSH1 0x4 ADD DUP1 DUP1 PUSH1 0x20 ADD DUP3 DUP2 SUB DUP3 MSTORE PUSH1 0x21 DUP2 MSTORE PUSH1 0x20 ADD DUP1 PUSH2 0x2FF0 PUSH1 0x21 SWAP2 CODECOPY PUSH1 0x40 ADD SWAP2 POP POP PUSH1 0x40 MLOAD DUP1 SWAP2 SUB SWAP1 REVERT JUMPDEST DUP1 SWAP2 POP POP JUMPDEST SWAP3 SWAP2 POP POP JUMP JUMPDEST PUSH1 0x0 CALLER SWAP1 POP SWAP1 JUMP JUMPDEST PUSH1 0x0 PUSH20 0xFFFFFFFFFFFFFFFFFFFFFFFFFFFFFFFFFFFFFFFF AND DUP2 PUSH20 0xFFFFFFFFFFFFFFFFFFFFFFFFFFFFFFFFFFFFFFFF AND EQ ISZERO PUSH2 0x2694 JUMPI PUSH1 0x40 MLOAD PUSH32 0x8C379A000000000000000000000000000000000000000000000000000000000 DUP2 MSTORE PUSH1 0x4 ADD DUP1 DUP1 PUSH1 0x20 ADD DUP3 DUP2 SUB DUP3 MSTORE PUSH1 0x2D DUP2 MSTORE PUSH1 0x20 ADD DUP1 PUSH2 0x2FC3 PUSH1 0x2D SWAP2 CODECOPY PUSH1 0x40 ADD SWAP2 POP POP PUSH1 0x40 MLOAD DUP1 SWAP2 SUB SWAP1 REVERT JUMPDEST DUP1 PUSH20 0xFFFFFFFFFFFFFFFFFFFFFFFFFFFFFFFFFFFFFFFF AND PUSH1 0x0 PUSH20 0xFFFFFFFFFFFFFFFFFFFFFFFFFFFFFFFFFFFFFFFF AND PUSH32 0x74DA04524D50C64947F5DD5381EF1A4DCA5CBA8ED1D816243F9E48AA0B5617ED PUSH1 0x40 MLOAD PUSH1 0x40 MLOAD DUP1 SWAP2 SUB SWAP1 LOG3 PUSH2 0x26F8 DUP2 PUSH2 0x2283 JUMP JUMPDEST DUP1 PUSH1 0x1 PUSH1 0x0 PUSH2 0x100 EXP DUP2 SLOAD DUP2 PUSH20 0xFFFFFFFFFFFFFFFFFFFFFFFFFFFFFFFFFFFFFFFF MUL NOT AND SWAP1 DUP4 PUSH20 0xFFFFFFFFFFFFFFFFFFFFFFFFFFFFFFFFFFFFFFFF AND MUL OR SWAP1 SSTORE POP POP JUMP JUMPDEST PUSH1 0x0 DUP1 DUP3 GT PUSH2 0x27B3 JUMPI PUSH1 0x40 MLOAD PUSH32 0x8C379A000000000000000000000000000000000000000000000000000000000 DUP2 MSTORE PUSH1 0x4 ADD DUP1 DUP1 PUSH1 0x20 ADD DUP3 DUP2 SUB DUP3 MSTORE PUSH1 0x1A DUP2 MSTORE PUSH1 0x20 ADD DUP1 PUSH32 0x536166654D6174683A206469766973696F6E206279207A65726F000000000000 DUP2 MSTORE POP PUSH1 0x20 ADD SWAP2 POP POP PUSH1 0x40 MLOAD DUP1 SWAP2 SUB SWAP1 REVERT JUMPDEST DUP2 DUP4 DUP2 PUSH2 0x27BC JUMPI INVALID JUMPDEST DIV SWAP1 POP SWAP3 SWAP2 POP POP JUMP JUMPDEST PUSH1 0x0 PUSH1 0x2 PUSH1 0x0 SWAP1 SLOAD SWAP1 PUSH2 0x100 EXP SWAP1 DIV PUSH20 0xFFFFFFFFFFFFFFFFFFFFFFFFFFFFFFFFFFFFFFFF AND PUSH20 0xFFFFFFFFFFFFFFFFFFFFFFFFFFFFFFFFFFFFFFFF AND PUSH4 0x70A08231 ADDRESS PUSH1 0x40 MLOAD DUP3 PUSH4 0xFFFFFFFF AND PUSH1 0xE0 SHL DUP2 MSTORE PUSH1 0x4 ADD DUP1 DUP3 PUSH20 0xFFFFFFFFFFFFFFFFFFFFFFFFFFFFFFFFFFFFFFFF AND DUP2 MSTORE PUSH1 0x20 ADD SWAP2 POP POP PUSH1 0x20 PUSH1 0x40 MLOAD DUP1 DUP4 SUB DUP2 DUP7 DUP1 EXTCODESIZE ISZERO DUP1 ISZERO PUSH2 0x2850 JUMPI PUSH1 0x0 DUP1 REVERT JUMPDEST POP GAS STATICCALL ISZERO DUP1 ISZERO PUSH2 0x2864 JUMPI RETURNDATASIZE PUSH1 0x0 DUP1 RETURNDATACOPY RETURNDATASIZE PUSH1 0x0 REVERT JUMPDEST POP POP POP POP PUSH1 0x40 MLOAD RETURNDATASIZE PUSH1 0x20 DUP2 LT ISZERO PUSH2 0x287A JUMPI PUSH1 0x0 DUP1 REVERT JUMPDEST DUP2 ADD SWAP1 DUP1 DUP1 MLOAD SWAP1 PUSH1 0x20 ADD SWAP1 SWAP3 SWAP2 SWAP1 POP POP POP SWAP1 POP PUSH1 0x0 DUP2 GT ISZERO PUSH2 0x293F JUMPI DUP1 DUP3 GT ISZERO PUSH2 0x28F0 JUMPI PUSH2 0x28EB DUP4 DUP3 PUSH1 0x2 PUSH1 0x0 SWAP1 SLOAD SWAP1 PUSH2 0x100 EXP SWAP1 DIV PUSH20 0xFFFFFFFFFFFFFFFFFFFFFFFFFFFFFFFFFFFFFFFF AND PUSH20 0xFFFFFFFFFFFFFFFFFFFFFFFFFFFFFFFFFFFFFFFF AND PUSH2 0x2944 SWAP1 SWAP3 SWAP2 SWAP1 PUSH4 0xFFFFFFFF AND JUMP JUMPDEST PUSH2 0x293E JUMP JUMPDEST PUSH2 0x293D DUP4 DUP4 PUSH1 0x2 PUSH1 0x0 SWAP1 SLOAD SWAP1 PUSH2 0x100 EXP SWAP1 DIV PUSH20 0xFFFFFFFFFFFFFFFFFFFFFFFFFFFFFFFFFFFFFFFF AND PUSH20 0xFFFFFFFFFFFFFFFFFFFFFFFFFFFFFFFFFFFFFFFF AND PUSH2 0x2944 SWAP1 SWAP3 SWAP2 SWAP1 PUSH4 0xFFFFFFFF AND JUMP JUMPDEST JUMPDEST JUMPDEST POP POP POP JUMP JUMPDEST PUSH2 0x29E1 DUP4 PUSH4 0xA9059CBB PUSH1 0xE0 SHL DUP5 DUP5 PUSH1 0x40 MLOAD PUSH1 0x24 ADD DUP1 DUP4 PUSH20 0xFFFFFFFFFFFFFFFFFFFFFFFFFFFFFFFFFFFFFFFF AND DUP2 MSTORE PUSH1 0x20 ADD DUP3 DUP2 MSTORE PUSH1 0x20 ADD SWAP3 POP POP POP PUSH1 0x40 MLOAD PUSH1 0x20 DUP2 DUP4 SUB SUB DUP2 MSTORE SWAP1 PUSH1 0x40 MSTORE SWAP1 PUSH28 0xFFFFFFFFFFFFFFFFFFFFFFFFFFFFFFFFFFFFFFFFFFFFFFFFFFFFFFFF NOT AND PUSH1 0x20 DUP3 ADD DUP1 MLOAD PUSH28 0xFFFFFFFFFFFFFFFFFFFFFFFFFFFFFFFFFFFFFFFFFFFFFFFFFFFFFFFF DUP4 DUP2 DUP4 AND OR DUP4 MSTORE POP POP POP POP PUSH2 0x2BE7 JUMP JUMPDEST POP POP POP JUMP JUMPDEST PUSH1 0x0 PUSH1 0x5 DUP1 SLOAD SWAP1 POP SWAP1 POP PUSH1 0x0 JUMPDEST DUP2 DUP2 LT ISZERO PUSH2 0x2AE6 JUMPI DUP3 PUSH20 0xFFFFFFFFFFFFFFFFFFFFFFFFFFFFFFFFFFFFFFFF AND PUSH1 0x5 DUP3 DUP2 SLOAD DUP2 LT PUSH2 0x2A1F JUMPI INVALID JUMPDEST SWAP1 PUSH1 0x0 MSTORE PUSH1 0x20 PUSH1 0x0 KECCAK256 SWAP1 PUSH1 0x5 MUL ADD PUSH1 0x0 ADD PUSH1 0x0 SWAP1 SLOAD SWAP1 PUSH2 0x100 EXP SWAP1 DIV PUSH20 0xFFFFFFFFFFFFFFFFFFFFFFFFFFFFFFFFFFFFFFFF AND PUSH20 0xFFFFFFFFFFFFFFFFFFFFFFFFFFFFFFFFFFFFFFFF AND EQ ISZERO PUSH2 0x2ADB JUMPI PUSH1 0x40 MLOAD PUSH32 0x8C379A000000000000000000000000000000000000000000000000000000000 DUP2 MSTORE PUSH1 0x4 ADD DUP1 DUP1 PUSH1 0x20 ADD DUP3 DUP2 SUB DUP3 MSTORE PUSH1 0x1F DUP2 MSTORE PUSH1 0x20 ADD DUP1 PUSH32 0x506F6C7947656E65736973506F6F6C3A206578697374696E6720706F6F6C3F00 DUP2 MSTORE POP PUSH1 0x20 ADD SWAP2 POP POP PUSH1 0x40 MLOAD DUP1 SWAP2 SUB SWAP1 REVERT JUMPDEST DUP1 PUSH1 0x1 ADD SWAP1 POP PUSH2 0x29F3 JUMP JUMPDEST POP POP POP JUMP JUMPDEST PUSH1 0x0 DUP1 PUSH2 0x2AF8 DUP5 DUP5 PUSH2 0x24F8 JUMP JUMPDEST SWAP1 POP PUSH1 0x0 PUSH2 0x2B07 DUP3 PUSH1 0x1 PUSH2 0x2475 JUMP JUMPDEST SWAP1 POP PUSH2 0x2B1C PUSH2 0x2B16 DUP3 DUP7 PUSH2 0x273C JUMP JUMPDEST DUP6 PUSH2 0x2580 JUMP JUMPDEST SWAP3 POP POP POP SWAP3 SWAP2 POP POP JUMP JUMPDEST PUSH2 0x2BE1 DUP5 PUSH4 0x23B872DD PUSH1 0xE0 SHL DUP6 DUP6 DUP6 PUSH1 0x40 MLOAD PUSH1 0x24 ADD DUP1 DUP5 PUSH20 0xFFFFFFFFFFFFFFFFFFFFFFFFFFFFFFFFFFFFFFFF AND DUP2 MSTORE PUSH1 0x20 ADD DUP4 PUSH20 0xFFFFFFFFFFFFFFFFFFFFFFFFFFFFFFFFFFFFFFFF AND DUP2 MSTORE PUSH1 0x20 ADD DUP3 DUP2 MSTORE PUSH1 0x20 ADD SWAP4 POP POP POP POP PUSH1 0x40 MLOAD PUSH1 0x20 DUP2 DUP4 SUB SUB DUP2 MSTORE SWAP1 PUSH1 0x40 MSTORE SWAP1 PUSH28 0xFFFFFFFFFFFFFFFFFFFFFFFFFFFFFFFFFFFFFFFFFFFFFFFFFFFFFFFF NOT AND PUSH1 0x20 DUP3 ADD DUP1 MLOAD PUSH28 0xFFFFFFFFFFFFFFFFFFFFFFFFFFFFFFFFFFFFFFFFFFFFFFFFFFFFFFFF DUP4 DUP2 DUP4 AND OR DUP4 MSTORE POP POP POP POP PUSH2 0x2BE7 JUMP JUMPDEST POP POP POP POP JUMP JUMPDEST PUSH1 0x60 PUSH2 0x2C49 DUP3 PUSH1 0x40 MLOAD DUP1 PUSH1 0x40 ADD PUSH1 0x40 MSTORE DUP1 PUSH1 0x20 DUP2 MSTORE PUSH1 0x20 ADD PUSH32 0x5361666545524332303A206C6F772D6C6576656C2063616C6C206661696C6564 DUP2 MSTORE POP DUP6 PUSH20 0xFFFFFFFFFFFFFFFFFFFFFFFFFFFFFFFFFFFFFFFF AND PUSH2 0x2CD6 SWAP1 SWAP3 SWAP2 SWAP1 PUSH4 0xFFFFFFFF AND JUMP JUMPDEST SWAP1 POP PUSH1 0x0 DUP2 MLOAD GT ISZERO PUSH2 0x2CD1 JUMPI DUP1 DUP1 PUSH1 0x20 ADD SWAP1 MLOAD PUSH1 0x20 DUP2 LT ISZERO PUSH2 0x2C6A JUMPI PUSH1 0x0 DUP1 REVERT JUMPDEST DUP2 ADD SWAP1 DUP1 DUP1 MLOAD SWAP1 PUSH1 0x20 ADD SWAP1 SWAP3 SWAP2 SWAP1 POP POP POP PUSH2 0x2CD0 JUMPI PUSH1 0x40 MLOAD PUSH32 0x8C379A000000000000000000000000000000000000000000000000000000000 DUP2 MSTORE PUSH1 0x4 ADD DUP1 DUP1 PUSH1 0x20 ADD DUP3 DUP2 SUB DUP3 MSTORE PUSH1 0x2A DUP2 MSTORE PUSH1 0x20 ADD DUP1 PUSH2 0x3035 PUSH1 0x2A SWAP2 CODECOPY PUSH1 0x40 ADD SWAP2 POP POP PUSH1 0x40 MLOAD DUP1 SWAP2 SUB SWAP1 REVERT JUMPDEST JUMPDEST POP POP POP JUMP JUMPDEST PUSH1 0x60 PUSH2 0x2CE5 DUP5 DUP5 PUSH1 0x0 DUP6 PUSH2 0x2CEE JUMP JUMPDEST SWAP1 POP SWAP4 SWAP3 POP POP POP JUMP JUMPDEST PUSH1 0x60 DUP3 SELFBALANCE LT ISZERO PUSH2 0x2D49 JUMPI PUSH1 0x40 MLOAD PUSH32 0x8C379A000000000000000000000000000000000000000000000000000000000 DUP2 MSTORE PUSH1 0x4 ADD DUP1 DUP1 PUSH1 0x20 ADD DUP3 DUP2 SUB DUP3 MSTORE PUSH1 0x26 DUP2 MSTORE PUSH1 0x20 ADD DUP1 PUSH2 0x2F9D PUSH1 0x26 SWAP2 CODECOPY PUSH1 0x40 ADD SWAP2 POP POP PUSH1 0x40 MLOAD DUP1 SWAP2 SUB SWAP1 REVERT JUMPDEST PUSH2 0x2D52 DUP6 PUSH2 0x2E97 JUMP JUMPDEST PUSH2 0x2DC4 JUMPI PUSH1 0x40 MLOAD PUSH32 0x8C379A000000000000000000000000000000000000000000000000000000000 DUP2 MSTORE PUSH1 0x4 ADD DUP1 DUP1 PUSH1 0x20 ADD DUP3 DUP2 SUB DUP3 MSTORE PUSH1 0x1D DUP2 MSTORE PUSH1 0x20 ADD DUP1 PUSH32 0x416464726573733A2063616C6C20746F206E6F6E2D636F6E7472616374000000 DUP2 MSTORE POP PUSH1 0x20 ADD SWAP2 POP POP PUSH1 0x40 MLOAD DUP1 SWAP2 SUB SWAP1 REVERT JUMPDEST PUSH1 0x0 PUSH1 0x60 DUP7 PUSH20 0xFFFFFFFFFFFFFFFFFFFFFFFFFFFFFFFFFFFFFFFF AND DUP6 DUP8 PUSH1 0x40 MLOAD DUP1 DUP3 DUP1 MLOAD SWAP1 PUSH1 0x20 ADD SWAP1 DUP1 DUP4 DUP4 JUMPDEST PUSH1 0x20 DUP4 LT PUSH2 0x2E14 JUMPI DUP1 MLOAD DUP3 MSTORE PUSH1 0x20 DUP3 ADD SWAP2 POP PUSH1 0x20 DUP2 ADD SWAP1 POP PUSH1 0x20 DUP4 SUB SWAP3 POP PUSH2 0x2DF1 JUMP JUMPDEST PUSH1 0x1 DUP4 PUSH1 0x20 SUB PUSH2 0x100 EXP SUB DUP1 NOT DUP3 MLOAD AND DUP2 DUP5 MLOAD AND DUP1 DUP3 OR DUP6 MSTORE POP POP POP POP POP POP SWAP1 POP ADD SWAP2 POP POP PUSH1 0x0 PUSH1 0x40 MLOAD DUP1 DUP4 SUB DUP2 DUP6 DUP8 GAS CALL SWAP3 POP POP POP RETURNDATASIZE DUP1 PUSH1 0x0 DUP2 EQ PUSH2 0x2E76 JUMPI PUSH1 0x40 MLOAD SWAP2 POP PUSH1 0x1F NOT PUSH1 0x3F RETURNDATASIZE ADD AND DUP3 ADD PUSH1 0x40 MSTORE RETURNDATASIZE DUP3 MSTORE RETURNDATASIZE PUSH1 0x0 PUSH1 0x20 DUP5 ADD RETURNDATACOPY PUSH2 0x2E7B JUMP JUMPDEST PUSH1 0x60 SWAP2 POP JUMPDEST POP SWAP2 POP SWAP2 POP PUSH2 0x2E8B DUP3 DUP3 DUP7 PUSH2 0x2EAA JUMP JUMPDEST SWAP3 POP POP POP SWAP5 SWAP4 POP POP POP POP JUMP JUMPDEST PUSH1 0x0 DUP1 DUP3 EXTCODESIZE SWAP1 POP PUSH1 0x0 DUP2 GT SWAP2 POP POP SWAP2 SWAP1 POP JUMP JUMPDEST PUSH1 0x60 DUP4 ISZERO PUSH2 0x2EBA JUMPI DUP3 SWAP1 POP PUSH2 0x2F6F JUMP JUMPDEST PUSH1 0x0 DUP4 MLOAD GT ISZERO PUSH2 0x2ECD JUMPI DUP3 MLOAD DUP1 DUP5 PUSH1 0x20 ADD REVERT JUMPDEST DUP2 PUSH1 0x40 MLOAD PUSH32 0x8C379A000000000000000000000000000000000000000000000000000000000 DUP2 MSTORE PUSH1 0x4 ADD DUP1 DUP1 PUSH1 0x20 ADD DUP3 DUP2 SUB DUP3 MSTORE DUP4 DUP2 DUP2 MLOAD DUP2 MSTORE PUSH1 0x20 ADD SWAP2 POP DUP1 MLOAD SWAP1 PUSH1 0x20 ADD SWAP1 DUP1 DUP4 DUP4 PUSH1 0x0 JUMPDEST DUP4 DUP2 LT ISZERO PUSH2 0x2F34 JUMPI DUP1 DUP3 ADD MLOAD DUP2 DUP5 ADD MSTORE PUSH1 0x20 DUP2 ADD SWAP1 POP PUSH2 0x2F19 JUMP JUMPDEST POP POP POP POP SWAP1 POP SWAP1 DUP2 ADD SWAP1 PUSH1 0x1F AND DUP1 ISZERO PUSH2 0x2F61 JUMPI DUP1 DUP3 SUB DUP1 MLOAD PUSH1 0x1 DUP4 PUSH1 0x20 SUB PUSH2 0x100 EXP SUB NOT AND DUP2 MSTORE PUSH1 0x20 ADD SWAP2 POP JUMPDEST POP SWAP3 POP POP POP PUSH1 0x40 MLOAD DUP1 SWAP2 SUB SWAP1 REVERT JUMPDEST SWAP4 SWAP3 POP POP POP JUMP INVALID 0x4F PUSH24 0x6E61626C653A206E6577206F776E65722069732074686520 PUSH27 0x65726F2061646472657373416464726573733A20696E7375666669 PUSH4 0x69656E74 KECCAK256 PUSH3 0x616C61 PUSH15 0x636520666F722063616C6C6F706572 PUSH2 0x746F PUSH19 0x3A207A65726F20616464726573732067697665 PUSH15 0x20666F72206E6577206F7065726174 PUSH16 0x72536166654D6174683A206D756C7469 PUSH17 0x6C69636174696F6E206F766572666C6F77 PUSH16 0x70657261746F723A2063616C6C657220 PUSH10 0x73206E6F742074686520 PUSH16 0x70657261746F72536166654552433230 GASPRICE KECCAK256 GASLIMIT MSTORE NUMBER ORIGIN ADDRESS KECCAK256 PUSH16 0x7065726174696F6E20646964206E6F74 KECCAK256 PUSH20 0x756363656564A2646970667358221220F810FB44 0xD7 NOT SWAP6 CHAINID REVERT 0xE0 SUB POP PUSH30 0x8CF8C1C0A1678094715B9CB8F26475EFD6AB8B64736F6C634300060C0033 "
				},
				"gasEstimates": {
					"creation": {
						"codeDepositCost": "2487200",
						"executionCost": "infinite",
						"totalCost": "infinite"
					},
					"external": {
						"Poly()": "1091",
						"PolyPerSecond()": "1095",
						"TOTAL_REWARDS()": "252",
						"_feeColector()": "1093",
						"_fees()": "1116",
						"add(uint256,address,bool,uint256)": "infinite",
						"deposit(uint256,uint256)": "infinite",
						"emergencyWithdraw(uint256)": "infinite",
						"getGeneratedReward(uint256,uint256)": "infinite",
						"governanceRecoverUnsupported(address,uint256,address)": "infinite",
						"initialize(address,uint256)": "infinite",
						"initialized()": "1138",
						"isInitialized()": "1123",
						"isOperator()": "1152",
						"massUpdatePools()": "infinite",
						"operator()": "1101",
						"owner()": "1122",
						"pendingStone(uint256,address)": "infinite",
						"poolEndTime()": "1117",
						"poolInfo(uint256)": "5486",
						"poolStartTime()": "1073",
						"renounceOwnership()": "24374",
						"runningTime()": "1116",
						"set(uint256,uint256)": "infinite",
						"setOperator(address)": "infinite",
						"totalAllocPoint()": "1051",
						"transferOperator(address)": "infinite",
						"transferOwnership(address)": "infinite",
						"updatePool(uint256)": "infinite",
						"userInfo(uint256,address)": "2196",
						"withdraw(uint256,uint256)": "infinite"
					},
					"internal": {
						"checkPoolDuplicate(contract IERC20)": "infinite",
						"safePolyTransfer(address,uint256)": "infinite"
					}
				},
				"methodIdentifiers": {
					"Poly()": "e177bb38",
					"PolyPerSecond()": "3f7caf52",
					"TOTAL_REWARDS()": "09cf6091",
					"_feeColector()": "2bf8542c",
					"_fees()": "d212a69a",
					"add(uint256,address,bool,uint256)": "96805e54",
					"deposit(uint256,uint256)": "e2bbb158",
					"emergencyWithdraw(uint256)": "5312ea8e",
					"getGeneratedReward(uint256,uint256)": "231f0c6a",
					"governanceRecoverUnsupported(address,uint256,address)": "54575af4",
					"initialize(address,uint256)": "cd6dc687",
					"initialized()": "158ef93e",
					"isInitialized()": "392e53cd",
					"isOperator()": "4456eda2",
					"massUpdatePools()": "630b5ba1",
					"operator()": "570ca735",
					"owner()": "8da5cb5b",
					"pendingStone(uint256,address)": "ecf4deb9",
					"poolEndTime()": "6e271dd5",
					"poolInfo(uint256)": "1526fe27",
					"poolStartTime()": "5f96dc11",
					"renounceOwnership()": "715018a6",
					"runningTime()": "943f013d",
					"set(uint256,uint256)": "1ab06ee5",
					"setOperator(address)": "b3ab15fb",
					"totalAllocPoint()": "17caf6f1",
					"transferOperator(address)": "29605e77",
					"transferOwnership(address)": "f2fde38b",
					"updatePool(uint256)": "51eb05a6",
					"userInfo(uint256,address)": "93f1a40b",
					"withdraw(uint256,uint256)": "441a3e70"
				}
			},
			"storageLayout": {
				"storage": [
					{
						"astId": 7,
						"contract": "contracts/distribution/TombGenesisRewardPool.sol:PolyGenesisRewardPool",
						"label": "_owner",
						"offset": 0,
						"slot": "0",
						"type": "t_address"
					},
					{
						"astId": 2203,
						"contract": "contracts/distribution/TombGenesisRewardPool.sol:PolyGenesisRewardPool",
						"label": "_operator",
						"offset": 0,
						"slot": "1",
						"type": "t_address"
					},
					{
						"astId": 1138,
						"contract": "contracts/distribution/TombGenesisRewardPool.sol:PolyGenesisRewardPool",
						"label": "Poly",
						"offset": 0,
						"slot": "2",
						"type": "t_contract(IERC20)187"
					},
					{
						"astId": 1140,
						"contract": "contracts/distribution/TombGenesisRewardPool.sol:PolyGenesisRewardPool",
						"label": "_fees",
						"offset": 0,
						"slot": "3",
						"type": "t_uint256"
					},
					{
						"astId": 1142,
						"contract": "contracts/distribution/TombGenesisRewardPool.sol:PolyGenesisRewardPool",
						"label": "_feeColector",
						"offset": 0,
						"slot": "4",
						"type": "t_address"
					},
					{
						"astId": 1145,
						"contract": "contracts/distribution/TombGenesisRewardPool.sol:PolyGenesisRewardPool",
						"label": "poolInfo",
						"offset": 0,
						"slot": "5",
						"type": "t_array(t_struct(PoolInfo)1136_storage)dyn_storage"
					},
					{
						"astId": 1148,
						"contract": "contracts/distribution/TombGenesisRewardPool.sol:PolyGenesisRewardPool",
						"label": "initialized",
						"offset": 0,
						"slot": "6",
						"type": "t_bool"
					},
					{
						"astId": 1154,
						"contract": "contracts/distribution/TombGenesisRewardPool.sol:PolyGenesisRewardPool",
						"label": "userInfo",
						"offset": 0,
						"slot": "7",
						"type": "t_mapping(t_uint256,t_mapping(t_address,t_struct(UserInfo)1125_storage))"
					},
					{
						"astId": 1157,
						"contract": "contracts/distribution/TombGenesisRewardPool.sol:PolyGenesisRewardPool",
						"label": "totalAllocPoint",
						"offset": 0,
						"slot": "8",
						"type": "t_uint256"
					},
					{
						"astId": 1159,
						"contract": "contracts/distribution/TombGenesisRewardPool.sol:PolyGenesisRewardPool",
						"label": "poolStartTime",
						"offset": 0,
						"slot": "9",
						"type": "t_uint256"
					},
					{
						"astId": 1161,
						"contract": "contracts/distribution/TombGenesisRewardPool.sol:PolyGenesisRewardPool",
						"label": "poolEndTime",
						"offset": 0,
						"slot": "10",
						"type": "t_uint256"
					},
					{
						"astId": 1164,
						"contract": "contracts/distribution/TombGenesisRewardPool.sol:PolyGenesisRewardPool",
						"label": "PolyPerSecond",
						"offset": 0,
						"slot": "11",
						"type": "t_uint256"
					},
					{
						"astId": 1167,
						"contract": "contracts/distribution/TombGenesisRewardPool.sol:PolyGenesisRewardPool",
						"label": "runningTime",
						"offset": 0,
						"slot": "12",
						"type": "t_uint256"
					}
				],
				"types": {
					"t_address": {
						"encoding": "inplace",
						"label": "address",
						"numberOfBytes": "20"
					},
					"t_array(t_struct(PoolInfo)1136_storage)dyn_storage": {
						"base": "t_struct(PoolInfo)1136_storage",
						"encoding": "dynamic_array",
						"label": "struct PolyGenesisRewardPool.PoolInfo[]",
						"numberOfBytes": "32"
					},
					"t_bool": {
						"encoding": "inplace",
						"label": "bool",
						"numberOfBytes": "1"
					},
					"t_contract(IERC20)187": {
						"encoding": "inplace",
						"label": "contract IERC20",
						"numberOfBytes": "20"
					},
					"t_mapping(t_address,t_struct(UserInfo)1125_storage)": {
						"encoding": "mapping",
						"key": "t_address",
						"label": "mapping(address => struct PolyGenesisRewardPool.UserInfo)",
						"numberOfBytes": "32",
						"value": "t_struct(UserInfo)1125_storage"
					},
					"t_mapping(t_uint256,t_mapping(t_address,t_struct(UserInfo)1125_storage))": {
						"encoding": "mapping",
						"key": "t_uint256",
						"label": "mapping(uint256 => mapping(address => struct PolyGenesisRewardPool.UserInfo))",
						"numberOfBytes": "32",
						"value": "t_mapping(t_address,t_struct(UserInfo)1125_storage)"
					},
					"t_struct(PoolInfo)1136_storage": {
						"encoding": "inplace",
						"label": "struct PolyGenesisRewardPool.PoolInfo",
						"members": [
							{
								"astId": 1127,
								"contract": "contracts/distribution/TombGenesisRewardPool.sol:PolyGenesisRewardPool",
								"label": "token",
								"offset": 0,
								"slot": "0",
								"type": "t_contract(IERC20)187"
							},
							{
								"astId": 1129,
								"contract": "contracts/distribution/TombGenesisRewardPool.sol:PolyGenesisRewardPool",
								"label": "allocPoint",
								"offset": 0,
								"slot": "1",
								"type": "t_uint256"
							},
							{
								"astId": 1131,
								"contract": "contracts/distribution/TombGenesisRewardPool.sol:PolyGenesisRewardPool",
								"label": "lastRewardTime",
								"offset": 0,
								"slot": "2",
								"type": "t_uint256"
							},
							{
								"astId": 1133,
								"contract": "contracts/distribution/TombGenesisRewardPool.sol:PolyGenesisRewardPool",
								"label": "accPolyPerShare",
								"offset": 0,
								"slot": "3",
								"type": "t_uint256"
							},
							{
								"astId": 1135,
								"contract": "contracts/distribution/TombGenesisRewardPool.sol:PolyGenesisRewardPool",
								"label": "isStarted",
								"offset": 0,
								"slot": "4",
								"type": "t_bool"
							}
						],
						"numberOfBytes": "160"
					},
					"t_struct(UserInfo)1125_storage": {
						"encoding": "inplace",
						"label": "struct PolyGenesisRewardPool.UserInfo",
						"members": [
							{
								"astId": 1122,
								"contract": "contracts/distribution/TombGenesisRewardPool.sol:PolyGenesisRewardPool",
								"label": "amount",
								"offset": 0,
								"slot": "0",
								"type": "t_uint256"
							},
							{
								"astId": 1124,
								"contract": "contracts/distribution/TombGenesisRewardPool.sol:PolyGenesisRewardPool",
								"label": "rewardDebt",
								"offset": 0,
								"slot": "1",
								"type": "t_uint256"
							}
						],
						"numberOfBytes": "64"
					},
					"t_uint256": {
						"encoding": "inplace",
						"label": "uint256",
						"numberOfBytes": "32"
					}
				}
			},
			"userdoc": {
				"kind": "user",
				"methods": {},
				"version": 1
			}
		}
	}
}