{
	"contracts-encrypt/distribution/TombRewardPool.sol": {
		"EncryptRewardPool": {
			"abi": [
				{
					"anonymous": false,
					"inputs": [
						{
							"indexed": true,
							"internalType": "address",
							"name": "user",
							"type": "address"
						},
						{
							"indexed": true,
							"internalType": "uint256",
							"name": "pid",
							"type": "uint256"
						},
						{
							"indexed": false,
							"internalType": "uint256",
							"name": "amount",
							"type": "uint256"
						}
					],
					"name": "Deposit",
					"type": "event"
				},
				{
					"anonymous": false,
					"inputs": [
						{
							"indexed": true,
							"internalType": "address",
							"name": "user",
							"type": "address"
						},
						{
							"indexed": true,
							"internalType": "uint256",
							"name": "pid",
							"type": "uint256"
						},
						{
							"indexed": false,
							"internalType": "uint256",
							"name": "amount",
							"type": "uint256"
						}
					],
					"name": "EmergencyWithdraw",
					"type": "event"
				},
				{
					"anonymous": false,
					"inputs": [
						{
							"indexed": true,
							"internalType": "address",
							"name": "user",
							"type": "address"
						},
						{
							"indexed": false,
							"internalType": "uint256",
							"name": "amount",
							"type": "uint256"
						}
					],
					"name": "RewardPaid",
					"type": "event"
				},
				{
					"anonymous": false,
					"inputs": [
						{
							"indexed": true,
							"internalType": "address",
							"name": "user",
							"type": "address"
						},
						{
							"indexed": true,
							"internalType": "uint256",
							"name": "pid",
							"type": "uint256"
						},
						{
							"indexed": false,
							"internalType": "uint256",
							"name": "amount",
							"type": "uint256"
						}
					],
					"name": "Withdraw",
					"type": "event"
				},
				{
					"inputs": [],
					"name": "Encrypt",
					"outputs": [
						{
							"internalType": "contract IERC20",
							"name": "",
							"type": "address"
						}
					],
					"stateMutability": "view",
					"type": "function"
				},
				{
					"inputs": [],
					"name": "Fee",
					"outputs": [
						{
							"internalType": "uint256",
							"name": "",
							"type": "uint256"
						}
					],
					"stateMutability": "view",
					"type": "function"
				},
				{
					"inputs": [],
					"name": "_feeTo",
					"outputs": [
						{
							"internalType": "address",
							"name": "",
							"type": "address"
						}
					],
					"stateMutability": "view",
					"type": "function"
				},
				{
					"inputs": [
						{
							"internalType": "uint256",
							"name": "_allocPoint",
							"type": "uint256"
						},
						{
							"internalType": "contract IERC20",
							"name": "_token",
							"type": "address"
						},
						{
							"internalType": "bool",
							"name": "_withUpdate",
							"type": "bool"
						},
						{
							"internalType": "uint256",
							"name": "_lastRewardTime",
							"type": "uint256"
						}
					],
					"name": "add",
					"outputs": [],
					"stateMutability": "nonpayable",
					"type": "function"
				},
				{
					"inputs": [
						{
							"internalType": "uint256",
							"name": "_pid",
							"type": "uint256"
						},
						{
							"internalType": "uint256",
							"name": "_amount",
							"type": "uint256"
						}
					],
					"name": "deposit",
					"outputs": [],
					"stateMutability": "nonpayable",
					"type": "function"
				},
				{
					"inputs": [
						{
							"internalType": "uint256",
							"name": "_pid",
							"type": "uint256"
						}
					],
					"name": "emergencyWithdraw",
					"outputs": [],
					"stateMutability": "nonpayable",
					"type": "function"
				},
				{
					"inputs": [
						{
							"internalType": "uint256",
							"name": "",
							"type": "uint256"
						}
					],
					"name": "epochEncryptPerSecond",
					"outputs": [
						{
							"internalType": "uint256",
							"name": "",
							"type": "uint256"
						}
					],
					"stateMutability": "view",
					"type": "function"
				},
				{
					"inputs": [
						{
							"internalType": "uint256",
							"name": "",
							"type": "uint256"
						}
					],
					"name": "epochEndTimes",
					"outputs": [
						{
							"internalType": "uint256",
							"name": "",
							"type": "uint256"
						}
					],
					"stateMutability": "view",
					"type": "function"
				},
				{
					"inputs": [
						{
							"internalType": "uint256",
							"name": "",
							"type": "uint256"
						}
					],
					"name": "epochTotalRewards",
					"outputs": [
						{
							"internalType": "uint256",
							"name": "",
							"type": "uint256"
						}
					],
					"stateMutability": "view",
					"type": "function"
				},
				{
					"inputs": [
						{
							"internalType": "uint256",
							"name": "_fromTime",
							"type": "uint256"
						},
						{
							"internalType": "uint256",
							"name": "_toTime",
							"type": "uint256"
						}
					],
					"name": "getGeneratedReward",
					"outputs": [
						{
							"internalType": "uint256",
							"name": "",
							"type": "uint256"
						}
					],
					"stateMutability": "view",
					"type": "function"
				},
				{
					"inputs": [
						{
							"internalType": "contract IERC20",
							"name": "_token",
							"type": "address"
						},
						{
							"internalType": "uint256",
							"name": "amount",
							"type": "uint256"
						},
						{
							"internalType": "address",
							"name": "to",
							"type": "address"
						}
					],
					"name": "governanceRecoverUnsupported",
					"outputs": [],
					"stateMutability": "nonpayable",
					"type": "function"
				},
				{
					"inputs": [
						{
							"internalType": "address",
							"name": "_Encrypt",
							"type": "address"
						}
					],
					"name": "initialize",
					"outputs": [],
					"stateMutability": "nonpayable",
					"type": "function"
				},
				{
					"inputs": [],
					"name": "initialized",
					"outputs": [
						{
							"internalType": "bool",
							"name": "",
							"type": "bool"
						}
					],
					"stateMutability": "view",
					"type": "function"
				},
				{
					"inputs": [],
					"name": "isInitialized",
					"outputs": [
						{
							"internalType": "bool",
							"name": "",
							"type": "bool"
						}
					],
					"stateMutability": "view",
					"type": "function"
				},
				{
					"inputs": [],
					"name": "massUpdatePools",
					"outputs": [],
					"stateMutability": "nonpayable",
					"type": "function"
				},
				{
					"inputs": [],
					"name": "operator",
					"outputs": [
						{
							"internalType": "address",
							"name": "",
							"type": "address"
						}
					],
					"stateMutability": "view",
					"type": "function"
				},
				{
					"inputs": [
						{
							"internalType": "uint256",
							"name": "_pid",
							"type": "uint256"
						},
						{
							"internalType": "address",
							"name": "_user",
							"type": "address"
						}
					],
					"name": "pendingEncrypt",
					"outputs": [
						{
							"internalType": "uint256",
							"name": "",
							"type": "uint256"
						}
					],
					"stateMutability": "view",
					"type": "function"
				},
				{
					"inputs": [
						{
							"internalType": "uint256",
							"name": "",
							"type": "uint256"
						}
					],
					"name": "poolInfo",
					"outputs": [
						{
							"internalType": "contract IERC20",
							"name": "token",
							"type": "address"
						},
						{
							"internalType": "uint256",
							"name": "allocPoint",
							"type": "uint256"
						},
						{
							"internalType": "uint256",
							"name": "lastRewardTime",
							"type": "uint256"
						},
						{
							"internalType": "uint256",
							"name": "accEncryptPerShare",
							"type": "uint256"
						},
						{
							"internalType": "bool",
							"name": "isStarted",
							"type": "bool"
						}
					],
					"stateMutability": "view",
					"type": "function"
				},
				{
					"inputs": [],
					"name": "poolStartTime",
					"outputs": [
						{
							"internalType": "uint256",
							"name": "",
							"type": "uint256"
						}
					],
					"stateMutability": "view",
					"type": "function"
				},
				{
					"inputs": [
						{
							"internalType": "uint256",
							"name": "_pid",
							"type": "uint256"
						},
						{
							"internalType": "uint256",
							"name": "_allocPoint",
							"type": "uint256"
						}
					],
					"name": "set",
					"outputs": [],
					"stateMutability": "nonpayable",
					"type": "function"
				},
				{
					"inputs": [
						{
							"internalType": "address",
							"name": "_operator",
							"type": "address"
						}
					],
					"name": "setOperator",
					"outputs": [],
					"stateMutability": "nonpayable",
					"type": "function"
				},
				{
					"inputs": [
						{
							"internalType": "uint256",
							"name": "_poolStartTime",
							"type": "uint256"
						}
					],
					"name": "setTime",
					"outputs": [],
					"stateMutability": "nonpayable",
					"type": "function"
				},
				{
					"inputs": [],
					"name": "totalAllocPoint",
					"outputs": [
						{
							"internalType": "uint256",
							"name": "",
							"type": "uint256"
						}
					],
					"stateMutability": "view",
					"type": "function"
				},
				{
					"inputs": [
						{
							"internalType": "uint256",
							"name": "_pid",
							"type": "uint256"
						}
					],
					"name": "updatePool",
					"outputs": [],
					"stateMutability": "nonpayable",
					"type": "function"
				},
				{
					"inputs": [
						{
							"internalType": "uint256",
							"name": "",
							"type": "uint256"
						},
						{
							"internalType": "address",
							"name": "",
							"type": "address"
						}
					],
					"name": "userInfo",
					"outputs": [
						{
							"internalType": "uint256",
							"name": "amount",
							"type": "uint256"
						},
						{
							"internalType": "uint256",
							"name": "rewardDebt",
							"type": "uint256"
						}
					],
					"stateMutability": "view",
					"type": "function"
				},
				{
					"inputs": [
						{
							"internalType": "uint256",
							"name": "_pid",
							"type": "uint256"
						},
						{
							"internalType": "uint256",
							"name": "_amount",
							"type": "uint256"
						}
					],
					"name": "withdraw",
					"outputs": [],
					"stateMutability": "nonpayable",
					"type": "function"
				}
			],
			"devdoc": {
				"kind": "dev",
				"methods": {},
				"version": 1
			},
			"evm": {
				"assembly": "    /* \"contracts-encrypt/distribution/TombRewardPool.sol\":1380:1383  200 */\n  0xc8\n    /* \"contracts-encrypt/distribution/TombRewardPool.sol\":1359:1383  uint256 public Fee = 200 */\n  0x03\n  sstore\n    /* \"contracts-encrypt/distribution/TombRewardPool.sol\":1663:1664  0 */\n  0x00\n    /* \"contracts-encrypt/distribution/TombRewardPool.sol\":1630:1664  uint256 public totalAllocPoint = 0 */\n  0x06\n  sstore\n    /* \"contracts-encrypt/distribution/TombRewardPool.sol\":1755:1818  uint256[] public epochTotalRewards = [80000 ether, 60000 ether] */\n  0xc0\n    /* \"contracts-encrypt/distribution/TombRewardPool.sol\":437:14176  contract EncryptRewardPool {\r... */\n  0x40\n    /* \"contracts-encrypt/distribution/TombRewardPool.sol\":1755:1818  uint256[] public epochTotalRewards = [80000 ether, 60000 ether] */\n  mstore\n    /* \"contracts-encrypt/distribution/TombRewardPool.sol\":1793:1804  80000 ether */\n  0x10f0cf064dd592000000\n    /* \"contracts-encrypt/distribution/TombRewardPool.sol\":437:14176  contract EncryptRewardPool {\r... */\n  0x80\n    /* \"contracts-encrypt/distribution/TombRewardPool.sol\":1755:1818  uint256[] public epochTotalRewards = [80000 ether, 60000 ether] */\n  swap1\n  dup2\n  mstore\n    /* \"contracts-encrypt/distribution/TombRewardPool.sol\":1806:1817  60000 ether */\n  0x0cb49b44ba602d800000\n    /* \"contracts-encrypt/distribution/TombRewardPool.sol\":1755:1818  uint256[] public epochTotalRewards = [80000 ether, 60000 ether] */\n  0xa0\n  mstore\n  tag_1\n  swap1\n  0x08\n  swap1\n  0x02\n  tag_2\n  jump\t// in\ntag_1:\n  pop\n    /* \"contracts-encrypt/distribution/TombRewardPool.sol\":1916:1947  bool public initialized = false */\n  0x0c\n  dup1\n  sload\n  not(0xff)\n  and\n  swap1\n  sstore\n    /* \"contracts-encrypt/distribution/TombRewardPool.sol\":437:14176  contract EncryptRewardPool {\r... */\n  callvalue\n  dup1\n  iszero\n  tag_3\n  jumpi\n  0x00\n  dup1\n  revert\ntag_3:\n  pop\n  jump(tag_4)\ntag_2:\n  dup3\n  dup1\n  sload\n  dup3\n  dup3\n  sstore\n  swap1\n  0x00\n  mstore\n  keccak256(0x00, 0x20)\n  swap1\n  dup2\n  add\n  swap3\n  dup3\n  iszero\n  tag_7\n  jumpi\n  swap2\n  0x20\n  mul\n  dup3\n  add\ntag_6:\n  dup3\n  dup2\n  gt\n  iszero\n  tag_7\n  jumpi\n  dup3\n  mload\n  dup3\n  swap1\n  sub(shl(0x50, 0x01), 0x01)\n  and\n  swap1\n  sstore\n  swap2\n  0x20\n  add\n  swap2\n  swap1\n  0x01\n  add\n  swap1\n  jump(tag_6)\ntag_7:\n  pop\n  tag_8\n  swap3\n  swap2\n  pop\n  tag_9\n  jump\t// in\ntag_8:\n  pop\n  swap1\n  jump\t// out\ntag_9:\ntag_10:\n  dup1\n  dup3\n  gt\n  iszero\n  tag_8\n  jumpi\n  0x00\n  dup2\n  sstore\n  0x01\n  add\n  jump(tag_10)\ntag_4:\n  dataSize(sub_0)\n  dup1\n  dataOffset(sub_0)\n  0x00\n  codecopy\n  0x00\n  return\nstop\n\nsub_0: assembly {\n        /* \"contracts-encrypt/distribution/TombRewardPool.sol\":437:14176  contract EncryptRewardPool {\r... */\n      mstore(0x40, 0x80)\n      callvalue\n      dup1\n      iszero\n      tag_1\n      jumpi\n      0x00\n      dup1\n      revert\n    tag_1:\n      pop\n      jumpi(tag_2, lt(calldatasize, 0x04))\n      shr(0xe0, calldataload(0x00))\n      dup1\n      0x54575af4\n      gt\n      tag_29\n      jumpi\n      dup1\n      0x96805e54\n      gt\n      tag_30\n      jumpi\n      dup1\n      0xb89e73c1\n      gt\n      tag_31\n      jumpi\n      dup1\n      0xb89e73c1\n      eq\n      tag_25\n      jumpi\n      dup1\n      0xbef7a2f0\n      eq\n      tag_26\n      jumpi\n      dup1\n      0xc4d66de8\n      eq\n      tag_27\n      jumpi\n      dup1\n      0xe2bbb158\n      eq\n      tag_28\n      jumpi\n      jump(tag_2)\n    tag_31:\n      dup1\n      0x96805e54\n      eq\n      tag_22\n      jumpi\n      dup1\n      0x9a25cefc\n      eq\n      tag_23\n      jumpi\n      dup1\n      0xb3ab15fb\n      eq\n      tag_24\n      jumpi\n      jump(tag_2)\n    tag_30:\n      dup1\n      0x54575af4\n      eq\n      tag_16\n      jumpi\n      dup1\n      0x570ca735\n      eq\n      tag_17\n      jumpi\n      dup1\n      0x5d114dcc\n      eq\n      tag_18\n      jumpi\n      dup1\n      0x5f96dc11\n      eq\n      tag_19\n      jumpi\n      dup1\n      0x630b5ba1\n      eq\n      tag_20\n      jumpi\n      dup1\n      0x93f1a40b\n      eq\n      tag_21\n      jumpi\n      jump(tag_2)\n    tag_29:\n      dup1\n      0x234fbf32\n      gt\n      tag_32\n      jumpi\n      dup1\n      0x3beb26c4\n      gt\n      tag_33\n      jumpi\n      dup1\n      0x3beb26c4\n      eq\n      tag_12\n      jumpi\n      dup1\n      0x441a3e70\n      eq\n      tag_13\n      jumpi\n      dup1\n      0x51eb05a6\n      eq\n      tag_14\n      jumpi\n      dup1\n      0x5312ea8e\n      eq\n      tag_15\n      jumpi\n      jump(tag_2)\n    tag_33:\n      dup1\n      0x234fbf32\n      eq\n      tag_9\n      jumpi\n      dup1\n      0x38b24f31\n      eq\n      tag_10\n      jumpi\n      dup1\n      0x392e53cd\n      eq\n      tag_11\n      jumpi\n      jump(tag_2)\n    tag_32:\n      dup1\n      0x1526fe27\n      eq\n      tag_3\n      jumpi\n      dup1\n      0x158ef93e\n      eq\n      tag_4\n      jumpi\n      dup1\n      0x17caf6f1\n      eq\n      tag_5\n      jumpi\n      dup1\n      0x1a131779\n      eq\n      tag_6\n      jumpi\n      dup1\n      0x1ab06ee5\n      eq\n      tag_7\n      jumpi\n      dup1\n      0x231f0c6a\n      eq\n      tag_8\n      jumpi\n    tag_2:\n      0x00\n      dup1\n      revert\n        /* \"contracts-encrypt/distribution/TombRewardPool.sol\":1312:1338  PoolInfo[] public poolInfo */\n    tag_3:\n      tag_34\n      0x04\n      dup1\n      calldatasize\n      sub\n      0x20\n      dup2\n      lt\n      iszero\n      tag_35\n      jumpi\n      0x00\n      dup1\n      revert\n    tag_35:\n      pop\n      calldataload\n      tag_36\n      jump\t// in\n    tag_34:\n      0x40\n      dup1\n      mload\n      sub(shl(0xa0, 0x01), 0x01)\n      swap1\n      swap7\n      and\n      dup7\n      mstore\n      0x20\n      dup7\n      add\n      swap5\n      swap1\n      swap5\n      mstore\n      dup5\n      dup5\n      add\n      swap3\n      swap1\n      swap3\n      mstore\n      0x60\n      dup5\n      add\n      mstore\n      iszero\n      iszero\n      0x80\n      dup4\n      add\n      mstore\n      mload\n      swap1\n      dup2\n      swap1\n      sub\n      0xa0\n      add\n      swap1\n      return\n        /* \"contracts-encrypt/distribution/TombRewardPool.sol\":1916:1947  bool public initialized = false */\n    tag_4:\n      tag_37\n      tag_38\n      jump\t// in\n    tag_37:\n      0x40\n      dup1\n      mload\n      swap2\n      iszero\n      iszero\n      dup3\n      mstore\n      mload\n      swap1\n      dup2\n      swap1\n      sub\n      0x20\n      add\n      swap1\n      return\n        /* \"contracts-encrypt/distribution/TombRewardPool.sol\":1630:1664  uint256 public totalAllocPoint = 0 */\n    tag_5:\n      tag_39\n      tag_40\n      jump\t// in\n    tag_39:\n      0x40\n      dup1\n      mload\n      swap2\n      dup3\n      mstore\n      mload\n      swap1\n      dup2\n      swap1\n      sub\n      0x20\n      add\n      swap1\n      return\n        /* \"contracts-encrypt/distribution/TombRewardPool.sol\":7941:8894  function pendingEncrypt(uint256 _pid, address _user)\r... */\n    tag_6:\n      tag_39\n      0x04\n      dup1\n      calldatasize\n      sub\n      0x40\n      dup2\n      lt\n      iszero\n      tag_42\n      jumpi\n      0x00\n      dup1\n      revert\n    tag_42:\n      pop\n      dup1\n      calldataload\n      swap1\n      0x20\n      add\n      calldataload\n      sub(shl(0xa0, 0x01), 0x01)\n      and\n      tag_43\n      jump\t// in\n        /* \"contracts-encrypt/distribution/TombRewardPool.sol\":5389:5742  function set(uint256 _pid, uint256 _allocPoint) public onlyOperator {\r... */\n    tag_7:\n      tag_44\n      0x04\n      dup1\n      calldatasize\n      sub\n      0x40\n      dup2\n      lt\n      iszero\n      tag_45\n      jumpi\n      0x00\n      dup1\n      revert\n    tag_45:\n      pop\n      dup1\n      calldataload\n      swap1\n      0x20\n      add\n      calldataload\n      tag_46\n      jump\t// in\n    tag_44:\n      stop\n        /* \"contracts-encrypt/distribution/TombRewardPool.sol\":5821:7874  function getGeneratedReward(uint256 _fromTime, uint256 _toTime)\r... */\n    tag_8:\n      tag_39\n      0x04\n      dup1\n      calldatasize\n      sub\n      0x40\n      dup2\n      lt\n      iszero\n      tag_48\n      jumpi\n      0x00\n      dup1\n      revert\n    tag_48:\n      pop\n      dup1\n      calldataload\n      swap1\n      0x20\n      add\n      calldataload\n      tag_49\n      jump\t// in\n        /* \"contracts-encrypt/distribution/TombRewardPool.sol\":1255:1276  IERC20 public Encrypt */\n    tag_9:\n      tag_50\n      tag_51\n      jump\t// in\n    tag_50:\n      0x40\n      dup1\n      mload\n      sub(shl(0xa0, 0x01), 0x01)\n      swap1\n      swap3\n      and\n      dup3\n      mstore\n      mload\n      swap1\n      dup2\n      swap1\n      sub\n      0x20\n      add\n      swap1\n      return\n        /* \"contracts-encrypt/distribution/TombRewardPool.sol\":2043:2082  uint256[3] public epochEncryptPerSecond */\n    tag_10:\n      tag_39\n      0x04\n      dup1\n      calldatasize\n      sub\n      0x20\n      dup2\n      lt\n      iszero\n      tag_53\n      jumpi\n      0x00\n      dup1\n      revert\n    tag_53:\n      pop\n      calldataload\n      tag_54\n      jump\t// in\n        /* \"contracts-encrypt/distribution/TombRewardPool.sol\":2613:2702  function isInitialized() public view returns (bool) {\r... */\n    tag_11:\n      tag_37\n      tag_56\n      jump\t// in\n        /* \"contracts-encrypt/distribution/TombRewardPool.sol\":3595:3899  function setTime(uint256 _poolStartTime) external onlyOperator {\r... */\n    tag_12:\n      tag_44\n      0x04\n      dup1\n      calldatasize\n      sub\n      0x20\n      dup2\n      lt\n      iszero\n      tag_58\n      jumpi\n      0x00\n      dup1\n      revert\n    tag_58:\n      pop\n      calldataload\n      tag_59\n      jump\t// in\n        /* \"contracts-encrypt/distribution/TombRewardPool.sol\":11610:12485  function withdraw(uint256 _pid, uint256 _amount) public {\r... */\n    tag_13:\n      tag_44\n      0x04\n      dup1\n      calldatasize\n      sub\n      0x40\n      dup2\n      lt\n      iszero\n      tag_61\n      jumpi\n      0x00\n      dup1\n      revert\n    tag_61:\n      pop\n      dup1\n      calldataload\n      swap1\n      0x20\n      add\n      calldataload\n      tag_62\n      jump\t// in\n        /* \"contracts-encrypt/distribution/TombRewardPool.sol\":9233:10266  function updatePool(uint256 _pid) public {\r... */\n    tag_14:\n      tag_44\n      0x04\n      dup1\n      calldatasize\n      sub\n      0x20\n      dup2\n      lt\n      iszero\n      tag_64\n      jumpi\n      0x00\n      dup1\n      revert\n    tag_64:\n      pop\n      calldataload\n      tag_65\n      jump\t// in\n        /* \"contracts-encrypt/distribution/TombRewardPool.sol\":12556:12933  function emergencyWithdraw(uint256 _pid) public {\r... */\n    tag_15:\n      tag_44\n      0x04\n      dup1\n      calldatasize\n      sub\n      0x20\n      dup2\n      lt\n      iszero\n      tag_67\n      jumpi\n      0x00\n      dup1\n      revert\n    tag_67:\n      pop\n      calldataload\n      tag_68\n      jump\t// in\n        /* \"contracts-encrypt/distribution/TombRewardPool.sol\":13543:14173  function governanceRecoverUnsupported(\r... */\n    tag_16:\n      tag_44\n      0x04\n      dup1\n      calldatasize\n      sub\n      0x60\n      dup2\n      lt\n      iszero\n      tag_70\n      jumpi\n      0x00\n      dup1\n      revert\n    tag_70:\n      pop\n      sub(shl(0xa0, 0x01), 0x01)\n      dup2\n      calldataload\n      dup2\n      and\n      swap2\n      0x20\n      dup2\n      add\n      calldataload\n      swap2\n      0x40\n      swap1\n      swap2\n      add\n      calldataload\n      and\n      tag_71\n      jump\t// in\n        /* \"contracts-encrypt/distribution/TombRewardPool.sol\":558:581  address public operator */\n    tag_17:\n      tag_50\n      tag_73\n      jump\t// in\n        /* \"contracts-encrypt/distribution/TombRewardPool.sol\":1390:1411  address public _feeTo */\n    tag_18:\n      tag_50\n      tag_75\n      jump\t// in\n        /* \"contracts-encrypt/distribution/TombRewardPool.sol\":1718:1746  uint256 public poolStartTime */\n    tag_19:\n      tag_39\n      tag_77\n      jump\t// in\n        /* \"contracts-encrypt/distribution/TombRewardPool.sol\":8977:9157  function massUpdatePools() public {\r... */\n    tag_20:\n      tag_44\n      tag_79\n      jump\t// in\n        /* \"contracts-encrypt/distribution/TombRewardPool.sol\":1469:1533  mapping(uint256 => mapping(address => UserInfo)) public userInfo */\n    tag_21:\n      tag_80\n      0x04\n      dup1\n      calldatasize\n      sub\n      0x40\n      dup2\n      lt\n      iszero\n      tag_81\n      jumpi\n      0x00\n      dup1\n      revert\n    tag_81:\n      pop\n      dup1\n      calldataload\n      swap1\n      0x20\n      add\n      calldataload\n      sub(shl(0xa0, 0x01), 0x01)\n      and\n      tag_82\n      jump\t// in\n    tag_80:\n      0x40\n      dup1\n      mload\n      swap3\n      dup4\n      mstore\n      0x20\n      dup4\n      add\n      swap2\n      swap1\n      swap2\n      mstore\n      dup1\n      mload\n      swap2\n      dup3\n      swap1\n      sub\n      add\n      swap1\n      return\n        /* \"contracts-encrypt/distribution/TombRewardPool.sol\":3977:5290  function add(\r... */\n    tag_22:\n      tag_44\n      0x04\n      dup1\n      calldatasize\n      sub\n      0x80\n      dup2\n      lt\n      iszero\n      tag_84\n      jumpi\n      0x00\n      dup1\n      revert\n    tag_84:\n      pop\n      dup1\n      calldataload\n      swap1\n      sub(shl(0xa0, 0x01), 0x01)\n      0x20\n      dup3\n      add\n      calldataload\n      and\n      swap1\n      0x40\n      dup2\n      add\n      calldataload\n      iszero\n      iszero\n      swap1\n      0x60\n      add\n      calldataload\n      tag_85\n      jump\t// in\n        /* \"contracts-encrypt/distribution/TombRewardPool.sol\":1755:1818  uint256[] public epochTotalRewards = [80000 ether, 60000 ether] */\n    tag_23:\n      tag_39\n      0x04\n      dup1\n      calldatasize\n      sub\n      0x20\n      dup2\n      lt\n      iszero\n      tag_87\n      jumpi\n      0x00\n      dup1\n      revert\n    tag_87:\n      pop\n      calldataload\n      tag_88\n      jump\t// in\n        /* \"contracts-encrypt/distribution/TombRewardPool.sol\":13434:13535  function setOperator(address _operator) external onlyOperator {\r... */\n    tag_24:\n      tag_44\n      0x04\n      dup1\n      calldatasize\n      sub\n      0x20\n      dup2\n      lt\n      iszero\n      tag_90\n      jumpi\n      0x00\n      dup1\n      revert\n    tag_90:\n      pop\n      calldataload\n      sub(shl(0xa0, 0x01), 0x01)\n      and\n      tag_91\n      jump\t// in\n        /* \"contracts-encrypt/distribution/TombRewardPool.sol\":1862:1893  uint256[3] public epochEndTimes */\n    tag_25:\n      tag_39\n      0x04\n      dup1\n      calldatasize\n      sub\n      0x20\n      dup2\n      lt\n      iszero\n      tag_93\n      jumpi\n      0x00\n      dup1\n      revert\n    tag_93:\n      pop\n      calldataload\n      tag_94\n      jump\t// in\n        /* \"contracts-encrypt/distribution/TombRewardPool.sol\":1359:1383  uint256 public Fee = 200 */\n    tag_26:\n      tag_39\n      tag_96\n      jump\t// in\n        /* \"contracts-encrypt/distribution/TombRewardPool.sol\":2710:3087  function initialize(address _Encrypt) public notInitialized {\r... */\n    tag_27:\n      tag_44\n      0x04\n      dup1\n      calldatasize\n      sub\n      0x20\n      dup2\n      lt\n      iszero\n      tag_98\n      jumpi\n      0x00\n      dup1\n      revert\n    tag_98:\n      pop\n      calldataload\n      sub(shl(0xa0, 0x01), 0x01)\n      and\n      tag_99\n      jump\t// in\n        /* \"contracts-encrypt/distribution/TombRewardPool.sol\":10521:11574  function deposit(uint256 _pid, uint256 _amount) public {\r... */\n    tag_28:\n      tag_44\n      0x04\n      dup1\n      calldatasize\n      sub\n      0x40\n      dup2\n      lt\n      iszero\n      tag_101\n      jumpi\n      0x00\n      dup1\n      revert\n    tag_101:\n      pop\n      dup1\n      calldataload\n      swap1\n      0x20\n      add\n      calldataload\n      tag_102\n      jump\t// in\n        /* \"contracts-encrypt/distribution/TombRewardPool.sol\":1312:1338  PoolInfo[] public poolInfo */\n    tag_36:\n      0x02\n      dup2\n      dup2\n      sload\n      dup2\n      lt\n      tag_103\n      jumpi\n      invalid\n    tag_103:\n      0x00\n      swap2\n      dup3\n      mstore\n      0x20\n      swap1\n      swap2\n      keccak256\n      0x05\n      swap1\n      swap2\n      mul\n      add\n      dup1\n      sload\n      0x01\n      dup3\n      add\n      sload\n      0x02\n      dup4\n      add\n      sload\n      0x03\n      dup5\n      add\n      sload\n      0x04\n      swap1\n      swap5\n      add\n      sload\n      sub(shl(0xa0, 0x01), 0x01)\n      swap1\n      swap4\n      and\n      swap5\n      pop\n      swap1\n      swap3\n      swap1\n      swap2\n      0xff\n      and\n      dup6\n      jump\t// out\n        /* \"contracts-encrypt/distribution/TombRewardPool.sol\":1916:1947  bool public initialized = false */\n    tag_38:\n      and(0xff, sload(0x0c))\n      dup2\n      jump\t// out\n        /* \"contracts-encrypt/distribution/TombRewardPool.sol\":1630:1664  uint256 public totalAllocPoint = 0 */\n    tag_40:\n      sload(0x06)\n      dup2\n      jump\t// out\n        /* \"contracts-encrypt/distribution/TombRewardPool.sol\":7941:8894  function pendingEncrypt(uint256 _pid, address _user)\r... */\n    tag_43:\n        /* \"contracts-encrypt/distribution/TombRewardPool.sol\":8044:8051  uint256 */\n      0x00\n        /* \"contracts-encrypt/distribution/TombRewardPool.sol\":8069:8090  PoolInfo storage pool */\n      dup1\n        /* \"contracts-encrypt/distribution/TombRewardPool.sol\":8093:8101  poolInfo */\n      0x02\n        /* \"contracts-encrypt/distribution/TombRewardPool.sol\":8102:8106  _pid */\n      dup5\n        /* \"contracts-encrypt/distribution/TombRewardPool.sol\":8093:8107  poolInfo[_pid] */\n      dup2\n      sload\n      dup2\n      lt\n      tag_106\n      jumpi\n      invalid\n    tag_106:\n      0x00\n      swap2\n      dup3\n      mstore\n      0x20\n      dup1\n      dup4\n      keccak256\n        /* \"contracts-encrypt/distribution/TombRewardPool.sol\":8142:8156  userInfo[_pid] */\n      dup8\n      dup5\n      mstore\n        /* \"contracts-encrypt/distribution/TombRewardPool.sol\":8093:8107  poolInfo[_pid] */\n      0x05\n        /* \"contracts-encrypt/distribution/TombRewardPool.sol\":8142:8156  userInfo[_pid] */\n      dup1\n      dup4\n      mstore\n      0x40\n      dup1\n      dup7\n      keccak256\n      sub(shl(0xa0, 0x01), 0x01)\n        /* \"contracts-encrypt/distribution/TombRewardPool.sol\":8142:8163  userInfo[_pid][_user] */\n      dup1\n      dup12\n      and\n      dup9\n      mstore\n      swap1\n      dup6\n      mstore\n      dup2\n      dup8\n      keccak256\n        /* \"contracts-encrypt/distribution/TombRewardPool.sol\":8203:8226  pool.accEncryptPerShare */\n      0x03\n        /* \"contracts-encrypt/distribution/TombRewardPool.sol\":8093:8107  poolInfo[_pid] */\n      swap4\n      swap1\n      swap7\n      mul\n      swap1\n      swap4\n      add\n        /* \"contracts-encrypt/distribution/TombRewardPool.sol\":8203:8226  pool.accEncryptPerShare */\n      swap2\n      dup3\n      add\n      sload\n        /* \"contracts-encrypt/distribution/TombRewardPool.sol\":8259:8269  pool.token */\n      dup3\n      sload\n        /* \"contracts-encrypt/distribution/TombRewardPool.sol\":8259:8294  pool.token.balanceOf(address(this)) */\n      dup3\n      mload\n      shl(0xe0, 0x70a08231)\n      dup2\n      mstore\n        /* \"contracts-encrypt/distribution/TombRewardPool.sol\":8288:8292  this */\n      address\n        /* \"contracts-encrypt/distribution/TombRewardPool.sol\":8259:8294  pool.token.balanceOf(address(this)) */\n      0x04\n      dup3\n      add\n      mstore\n      swap3\n      mload\n        /* \"contracts-encrypt/distribution/TombRewardPool.sol\":8093:8107  poolInfo[_pid] */\n      swap4\n      swap9\n      pop\n        /* \"contracts-encrypt/distribution/TombRewardPool.sol\":8142:8163  userInfo[_pid][_user] */\n      swap6\n      swap7\n        /* \"contracts-encrypt/distribution/TombRewardPool.sol\":8203:8226  pool.accEncryptPerShare */\n      swap1\n      swap6\n        /* \"contracts-encrypt/distribution/TombRewardPool.sol\":8093:8107  poolInfo[_pid] */\n      swap1\n      swap5\n        /* \"contracts-encrypt/distribution/TombRewardPool.sol\":8259:8269  pool.token */\n      swap4\n      and\n      swap3\n        /* \"contracts-encrypt/distribution/TombRewardPool.sol\":8259:8279  pool.token.balanceOf */\n      0x70a08231\n      swap3\n        /* \"contracts-encrypt/distribution/TombRewardPool.sol\":8259:8294  pool.token.balanceOf(address(this)) */\n      0x24\n      dup1\n      dup5\n      add\n      swap4\n      dup3\n      swap1\n      sub\n      add\n      dup2\n        /* \"contracts-encrypt/distribution/TombRewardPool.sol\":8259:8269  pool.token */\n      dup7\n        /* \"contracts-encrypt/distribution/TombRewardPool.sol\":8259:8294  pool.token.balanceOf(address(this)) */\n      dup1\n      extcodesize\n      iszero\n      dup1\n      iszero\n      tag_108\n      jumpi\n      0x00\n      dup1\n      revert\n    tag_108:\n      pop\n      gas\n      staticcall\n      iszero\n      dup1\n      iszero\n      tag_110\n      jumpi\n      returndatasize\n      0x00\n      dup1\n      returndatacopy\n      revert(0x00, returndatasize)\n    tag_110:\n      pop\n      pop\n      pop\n      pop\n      mload(0x40)\n      returndatasize\n      0x20\n      dup2\n      lt\n      iszero\n      tag_111\n      jumpi\n      0x00\n      dup1\n      revert\n    tag_111:\n      pop\n      mload\n        /* \"contracts-encrypt/distribution/TombRewardPool.sol\":8327:8346  pool.lastRewardTime */\n      0x02\n      dup6\n      add\n      sload\n        /* \"contracts-encrypt/distribution/TombRewardPool.sol\":8259:8294  pool.token.balanceOf(address(this)) */\n      swap1\n      swap2\n      pop\n        /* \"contracts-encrypt/distribution/TombRewardPool.sol\":8309:8324  block.timestamp */\n      timestamp\n        /* \"contracts-encrypt/distribution/TombRewardPool.sol\":8309:8346  block.timestamp > pool.lastRewardTime */\n      gt\n        /* \"contracts-encrypt/distribution/TombRewardPool.sol\":8309:8366  block.timestamp > pool.lastRewardTime && tokenSupply != 0 */\n      dup1\n      iszero\n      tag_112\n      jumpi\n      pop\n        /* \"contracts-encrypt/distribution/TombRewardPool.sol\":8350:8366  tokenSupply != 0 */\n      dup1\n      iszero\n      iszero\n        /* \"contracts-encrypt/distribution/TombRewardPool.sol\":8309:8366  block.timestamp > pool.lastRewardTime && tokenSupply != 0 */\n    tag_112:\n        /* \"contracts-encrypt/distribution/TombRewardPool.sol\":8305:8790  if (block.timestamp > pool.lastRewardTime && tokenSupply != 0) {\r... */\n      iszero\n      tag_113\n      jumpi\n        /* \"contracts-encrypt/distribution/TombRewardPool.sol\":8383:8407  uint256 _generatedReward */\n      0x00\n        /* \"contracts-encrypt/distribution/TombRewardPool.sol\":8410:8515  getGeneratedReward(\r... */\n      tag_114\n        /* \"contracts-encrypt/distribution/TombRewardPool.sol\":8447:8451  pool */\n      dup6\n        /* \"contracts-encrypt/distribution/TombRewardPool.sol\":8447:8466  pool.lastRewardTime */\n      0x02\n      add\n      sload\n        /* \"contracts-encrypt/distribution/TombRewardPool.sol\":8485:8500  block.timestamp */\n      timestamp\n        /* \"contracts-encrypt/distribution/TombRewardPool.sol\":8410:8428  getGeneratedReward */\n      tag_49\n        /* \"contracts-encrypt/distribution/TombRewardPool.sol\":8410:8515  getGeneratedReward(\r... */\n      jump\t// in\n    tag_114:\n        /* \"contracts-encrypt/distribution/TombRewardPool.sol\":8383:8515  uint256 _generatedReward = getGeneratedReward(\r... */\n      swap1\n      pop\n        /* \"contracts-encrypt/distribution/TombRewardPool.sol\":8530:8552  uint256 _EncryptReward */\n      0x00\n        /* \"contracts-encrypt/distribution/TombRewardPool.sol\":8555:8645  _generatedReward.mul(pool.allocPoint).div(\r... */\n      tag_115\n        /* \"contracts-encrypt/distribution/TombRewardPool.sol\":8615:8630  totalAllocPoint */\n      sload(0x06)\n        /* \"contracts-encrypt/distribution/TombRewardPool.sol\":8555:8592  _generatedReward.mul(pool.allocPoint) */\n      tag_116\n        /* \"contracts-encrypt/distribution/TombRewardPool.sol\":8576:8580  pool */\n      dup9\n        /* \"contracts-encrypt/distribution/TombRewardPool.sol\":8576:8591  pool.allocPoint */\n      0x01\n      add\n      sload\n        /* \"contracts-encrypt/distribution/TombRewardPool.sol\":8555:8571  _generatedReward */\n      dup6\n        /* \"contracts-encrypt/distribution/TombRewardPool.sol\":8555:8575  _generatedReward.mul */\n      tag_117\n      swap1\n        /* \"contracts-encrypt/distribution/TombRewardPool.sol\":8555:8592  _generatedReward.mul(pool.allocPoint) */\n      swap2\n      swap1\n      0xffffffff\n      and\n      jump\t// in\n    tag_116:\n        /* \"contracts-encrypt/distribution/TombRewardPool.sol\":8555:8596  _generatedReward.mul(pool.allocPoint).div */\n      swap1\n      tag_118\n        /* \"contracts-encrypt/distribution/TombRewardPool.sol\":8555:8645  _generatedReward.mul(pool.allocPoint).div(\r... */\n      jump\t// in\n    tag_115:\n        /* \"contracts-encrypt/distribution/TombRewardPool.sol\":8530:8645  uint256 _EncryptReward = _generatedReward.mul(pool.allocPoint).div(\r... */\n      swap1\n      pop\n        /* \"contracts-encrypt/distribution/TombRewardPool.sol\":8681:8778  accEncryptPerShare.add(\r... */\n      tag_119\n        /* \"contracts-encrypt/distribution/TombRewardPool.sol\":8722:8763  _EncryptReward.mul(1e18).div(tokenSupply) */\n      tag_120\n        /* \"contracts-encrypt/distribution/TombRewardPool.sol\":8751:8762  tokenSupply */\n      dup5\n        /* \"contracts-encrypt/distribution/TombRewardPool.sol\":8722:8746  _EncryptReward.mul(1e18) */\n      tag_116\n        /* \"contracts-encrypt/distribution/TombRewardPool.sol\":8530:8645  uint256 _EncryptReward = _generatedReward.mul(pool.allocPoint).div(\r... */\n      dup5\n        /* \"contracts-encrypt/distribution/TombRewardPool.sol\":8741:8745  1e18 */\n      0x0de0b6b3a7640000\n        /* \"contracts-encrypt/distribution/TombRewardPool.sol\":8722:8740  _EncryptReward.mul */\n      tag_117\n        /* \"contracts-encrypt/distribution/TombRewardPool.sol\":8722:8746  _EncryptReward.mul(1e18) */\n      jump\t// in\n        /* \"contracts-encrypt/distribution/TombRewardPool.sol\":8722:8763  _EncryptReward.mul(1e18).div(tokenSupply) */\n    tag_120:\n        /* \"contracts-encrypt/distribution/TombRewardPool.sol\":8681:8699  accEncryptPerShare */\n      dup6\n      swap1\n        /* \"contracts-encrypt/distribution/TombRewardPool.sol\":8681:8703  accEncryptPerShare.add */\n      tag_122\n        /* \"contracts-encrypt/distribution/TombRewardPool.sol\":8681:8778  accEncryptPerShare.add(\r... */\n      jump\t// in\n    tag_119:\n        /* \"contracts-encrypt/distribution/TombRewardPool.sol\":8660:8778  accEncryptPerShare = accEncryptPerShare.add(\r... */\n      swap4\n      pop\n        /* \"contracts-encrypt/distribution/TombRewardPool.sol\":8305:8790  if (block.timestamp > pool.lastRewardTime && tokenSupply != 0) {\r... */\n      pop\n      pop\n    tag_113:\n        /* \"contracts-encrypt/distribution/TombRewardPool.sol\":8820:8886  user.amount.mul(accEncryptPerShare).div(1e18).sub(user.rewardDebt) */\n      tag_123\n        /* \"contracts-encrypt/distribution/TombRewardPool.sol\":8870:8874  user */\n      dup4\n        /* \"contracts-encrypt/distribution/TombRewardPool.sol\":8870:8885  user.rewardDebt */\n      0x01\n      add\n      sload\n        /* \"contracts-encrypt/distribution/TombRewardPool.sol\":8820:8865  user.amount.mul(accEncryptPerShare).div(1e18) */\n      tag_124\n        /* \"contracts-encrypt/distribution/TombRewardPool.sol\":8860:8864  1e18 */\n      0x0de0b6b3a7640000\n        /* \"contracts-encrypt/distribution/TombRewardPool.sol\":8820:8855  user.amount.mul(accEncryptPerShare) */\n      tag_116\n        /* \"contracts-encrypt/distribution/TombRewardPool.sol\":8836:8854  accEncryptPerShare */\n      dup7\n        /* \"contracts-encrypt/distribution/TombRewardPool.sol\":8820:8824  user */\n      dup9\n        /* \"contracts-encrypt/distribution/TombRewardPool.sol\":8820:8831  user.amount */\n      0x00\n      add\n      sload\n        /* \"contracts-encrypt/distribution/TombRewardPool.sol\":8820:8835  user.amount.mul */\n      tag_117\n      swap1\n        /* \"contracts-encrypt/distribution/TombRewardPool.sol\":8820:8855  user.amount.mul(accEncryptPerShare) */\n      swap2\n      swap1\n      0xffffffff\n      and\n      jump\t// in\n        /* \"contracts-encrypt/distribution/TombRewardPool.sol\":8820:8865  user.amount.mul(accEncryptPerShare).div(1e18) */\n    tag_124:\n        /* \"contracts-encrypt/distribution/TombRewardPool.sol\":8820:8869  user.amount.mul(accEncryptPerShare).div(1e18).sub */\n      swap1\n      tag_126\n        /* \"contracts-encrypt/distribution/TombRewardPool.sol\":8820:8886  user.amount.mul(accEncryptPerShare).div(1e18).sub(user.rewardDebt) */\n      jump\t// in\n    tag_123:\n        /* \"contracts-encrypt/distribution/TombRewardPool.sol\":8800:8886  return\r... */\n      swap5\n      pop\n      pop\n      pop\n      pop\n      pop\n        /* \"contracts-encrypt/distribution/TombRewardPool.sol\":7941:8894  function pendingEncrypt(uint256 _pid, address _user)\r... */\n    tag_105:\n      swap3\n      swap2\n      pop\n      pop\n      jump\t// out\n        /* \"contracts-encrypt/distribution/TombRewardPool.sol\":5389:5742  function set(uint256 _pid, uint256 _allocPoint) public onlyOperator {\r... */\n    tag_46:\n        /* \"contracts-encrypt/distribution/TombRewardPool.sol\":3152:3160  operator */\n      and(sub(shl(0xa0, 0x01), 0x01), sload(0x00))\n        /* \"contracts-encrypt/distribution/TombRewardPool.sol\":3164:3174  msg.sender */\n      caller\n        /* \"contracts-encrypt/distribution/TombRewardPool.sol\":3152:3174  operator == msg.sender */\n      eq\n        /* \"contracts-encrypt/distribution/TombRewardPool.sol\":3130:3247  require(\r... */\n      tag_128\n      jumpi\n      mload(0x40)\n      shl(0xe5, 0x461bcd)\n      dup2\n      mstore\n      0x04\n      add\n      dup1\n      dup1\n      0x20\n      add\n      dup3\n      dup2\n      sub\n      dup3\n      mstore\n      0x2d\n      dup2\n      mstore\n      0x20\n      add\n      dup1\n      data_7c1dc5477764f2dc16434358e98a6732ada1495d31ab07dbde0acff1b13b84d1\n      0x2d\n      swap2\n      codecopy\n      0x40\n      add\n      swap2\n      pop\n      pop\n      mload(0x40)\n      dup1\n      swap2\n      sub\n      swap1\n      revert\n    tag_128:\n        /* \"contracts-encrypt/distribution/TombRewardPool.sol\":5468:5485  massUpdatePools() */\n      tag_130\n        /* \"contracts-encrypt/distribution/TombRewardPool.sol\":5468:5483  massUpdatePools */\n      tag_79\n        /* \"contracts-encrypt/distribution/TombRewardPool.sol\":5468:5485  massUpdatePools() */\n      jump\t// in\n    tag_130:\n        /* \"contracts-encrypt/distribution/TombRewardPool.sol\":5496:5517  PoolInfo storage pool */\n      0x00\n        /* \"contracts-encrypt/distribution/TombRewardPool.sol\":5520:5528  poolInfo */\n      0x02\n        /* \"contracts-encrypt/distribution/TombRewardPool.sol\":5529:5533  _pid */\n      dup4\n        /* \"contracts-encrypt/distribution/TombRewardPool.sol\":5520:5534  poolInfo[_pid] */\n      dup2\n      sload\n      dup2\n      lt\n      tag_131\n      jumpi\n      invalid\n    tag_131:\n      0x00\n      swap2\n      dup3\n      mstore\n      0x20\n      swap1\n      swap2\n      keccak256\n      0x05\n      swap1\n      swap2\n      mul\n      add\n        /* \"contracts-encrypt/distribution/TombRewardPool.sol\":5549:5563  pool.isStarted */\n      0x04\n      dup2\n      add\n      sload\n        /* \"contracts-encrypt/distribution/TombRewardPool.sol\":5520:5534  poolInfo[_pid] */\n      swap1\n      swap2\n      pop\n        /* \"contracts-encrypt/distribution/TombRewardPool.sol\":5549:5563  pool.isStarted */\n      0xff\n      and\n        /* \"contracts-encrypt/distribution/TombRewardPool.sol\":5545:5695  if (pool.isStarted) {\r... */\n      iszero\n      tag_133\n      jumpi\n        /* \"contracts-encrypt/distribution/TombRewardPool.sol\":5598:5683  totalAllocPoint.sub(pool.allocPoint).add(\r... */\n      tag_134\n        /* \"contracts-encrypt/distribution/TombRewardPool.sol\":5657:5668  _allocPoint */\n      dup3\n        /* \"contracts-encrypt/distribution/TombRewardPool.sol\":5598:5634  totalAllocPoint.sub(pool.allocPoint) */\n      tag_135\n        /* \"contracts-encrypt/distribution/TombRewardPool.sol\":5618:5622  pool */\n      dup4\n        /* \"contracts-encrypt/distribution/TombRewardPool.sol\":5618:5633  pool.allocPoint */\n      0x01\n      add\n      sload\n        /* \"contracts-encrypt/distribution/TombRewardPool.sol\":5598:5613  totalAllocPoint */\n      sload(0x06)\n        /* \"contracts-encrypt/distribution/TombRewardPool.sol\":5598:5617  totalAllocPoint.sub */\n      tag_126\n      swap1\n        /* \"contracts-encrypt/distribution/TombRewardPool.sol\":5598:5634  totalAllocPoint.sub(pool.allocPoint) */\n      swap2\n      swap1\n      0xffffffff\n      and\n      jump\t// in\n    tag_135:\n        /* \"contracts-encrypt/distribution/TombRewardPool.sol\":5598:5638  totalAllocPoint.sub(pool.allocPoint).add */\n      swap1\n      tag_122\n        /* \"contracts-encrypt/distribution/TombRewardPool.sol\":5598:5683  totalAllocPoint.sub(pool.allocPoint).add(\r... */\n      jump\t// in\n    tag_134:\n        /* \"contracts-encrypt/distribution/TombRewardPool.sol\":5580:5595  totalAllocPoint */\n      0x06\n        /* \"contracts-encrypt/distribution/TombRewardPool.sol\":5580:5683  totalAllocPoint = totalAllocPoint.sub(pool.allocPoint).add(\r... */\n      sstore\n        /* \"contracts-encrypt/distribution/TombRewardPool.sol\":5545:5695  if (pool.isStarted) {\r... */\n    tag_133:\n        /* \"contracts-encrypt/distribution/TombRewardPool.sol\":5705:5720  pool.allocPoint */\n      0x01\n      add\n        /* \"contracts-encrypt/distribution/TombRewardPool.sol\":5705:5734  pool.allocPoint = _allocPoint */\n      sstore\n      pop\n        /* \"contracts-encrypt/distribution/TombRewardPool.sol\":5389:5742  function set(uint256 _pid, uint256 _allocPoint) public onlyOperator {\r... */\n      jump\t// out\n        /* \"contracts-encrypt/distribution/TombRewardPool.sol\":5821:7874  function getGeneratedReward(uint256 _fromTime, uint256 _toTime)\r... */\n    tag_49:\n        /* \"contracts-encrypt/distribution/TombRewardPool.sol\":5933:5940  uint256 */\n      0x00\n        /* \"contracts-encrypt/distribution/TombRewardPool.sol\":5979:5980  2 */\n      0x02\n        /* \"contracts-encrypt/distribution/TombRewardPool.sol\":5958:7797  for (uint8 epochId = 2; epochId >= 1; --epochId) {\r... */\n    tag_137:\n        /* \"contracts-encrypt/distribution/TombRewardPool.sol\":5993:5994  1 */\n      0x01\n        /* \"contracts-encrypt/distribution/TombRewardPool.sol\":5982:5989  epochId */\n      dup2\n        /* \"contracts-encrypt/distribution/TombRewardPool.sol\":5982:5994  epochId >= 1 */\n      0xff\n      and\n      lt\n        /* \"contracts-encrypt/distribution/TombRewardPool.sol\":5958:7797  for (uint8 epochId = 2; epochId >= 1; --epochId) {\r... */\n      tag_138\n      jumpi\n        /* \"contracts-encrypt/distribution/TombRewardPool.sol\":6037:6050  epochEndTimes */\n      0x09\n        /* \"contracts-encrypt/distribution/TombRewardPool.sol\":6061:6062  1 */\n      0x01\n        /* \"contracts-encrypt/distribution/TombRewardPool.sol\":6051:6058  epochId */\n      dup3\n        /* \"contracts-encrypt/distribution/TombRewardPool.sol\":6051:6062  epochId - 1 */\n      sub\n        /* \"contracts-encrypt/distribution/TombRewardPool.sol\":6037:6063  epochEndTimes[epochId - 1] */\n      0xff\n      and\n      0x03\n      dup2\n      lt\n      tag_140\n      jumpi\n      invalid\n    tag_140:\n      add\n      sload\n        /* \"contracts-encrypt/distribution/TombRewardPool.sol\":6026:6033  _toTime */\n      dup4\n        /* \"contracts-encrypt/distribution/TombRewardPool.sol\":6026:6063  _toTime >= epochEndTimes[epochId - 1] */\n      lt\n        /* \"contracts-encrypt/distribution/TombRewardPool.sol\":6022:7786  if (_toTime >= epochEndTimes[epochId - 1]) {\r... */\n      tag_142\n      jumpi\n        /* \"contracts-encrypt/distribution/TombRewardPool.sol\":6101:6114  epochEndTimes */\n      0x09\n        /* \"contracts-encrypt/distribution/TombRewardPool.sol\":6125:6126  1 */\n      0x01\n        /* \"contracts-encrypt/distribution/TombRewardPool.sol\":6115:6122  epochId */\n      dup3\n        /* \"contracts-encrypt/distribution/TombRewardPool.sol\":6115:6126  epochId - 1 */\n      sub\n        /* \"contracts-encrypt/distribution/TombRewardPool.sol\":6101:6127  epochEndTimes[epochId - 1] */\n      0xff\n      and\n      0x03\n      dup2\n      lt\n      tag_143\n      jumpi\n      invalid\n    tag_143:\n      add\n      sload\n        /* \"contracts-encrypt/distribution/TombRewardPool.sol\":6088:6097  _fromTime */\n      dup5\n        /* \"contracts-encrypt/distribution/TombRewardPool.sol\":6088:6127  _fromTime >= epochEndTimes[epochId - 1] */\n      lt\n        /* \"contracts-encrypt/distribution/TombRewardPool.sol\":6084:6318  if (_fromTime >= epochEndTimes[epochId - 1]) {\r... */\n      tag_145\n      jumpi\n        /* \"contracts-encrypt/distribution/TombRewardPool.sol\":6184:6298  _toTime.sub(_fromTime).mul(\r... */\n      tag_146\n        /* \"contracts-encrypt/distribution/TombRewardPool.sol\":6241:6262  epochEncryptPerSecond */\n      0x0d\n        /* \"contracts-encrypt/distribution/TombRewardPool.sol\":6263:6270  epochId */\n      dup3\n        /* \"contracts-encrypt/distribution/TombRewardPool.sol\":6241:6271  epochEncryptPerSecond[epochId] */\n      0xff\n      and\n      0x03\n      dup2\n      lt\n      tag_147\n      jumpi\n      invalid\n    tag_147:\n      add\n      sload\n        /* \"contracts-encrypt/distribution/TombRewardPool.sol\":6184:6206  _toTime.sub(_fromTime) */\n      tag_149\n        /* \"contracts-encrypt/distribution/TombRewardPool.sol\":6184:6191  _toTime */\n      dup6\n        /* \"contracts-encrypt/distribution/TombRewardPool.sol\":6196:6205  _fromTime */\n      dup8\n        /* \"contracts-encrypt/distribution/TombRewardPool.sol\":6184:6195  _toTime.sub */\n      tag_126\n        /* \"contracts-encrypt/distribution/TombRewardPool.sol\":6184:6206  _toTime.sub(_fromTime) */\n      jump\t// in\n    tag_149:\n        /* \"contracts-encrypt/distribution/TombRewardPool.sol\":6184:6210  _toTime.sub(_fromTime).mul */\n      swap1\n      tag_117\n        /* \"contracts-encrypt/distribution/TombRewardPool.sol\":6184:6298  _toTime.sub(_fromTime).mul(\r... */\n      jump\t// in\n    tag_146:\n        /* \"contracts-encrypt/distribution/TombRewardPool.sol\":6152:6298  return\r... */\n      swap2\n      pop\n      pop\n      jump(tag_105)\n        /* \"contracts-encrypt/distribution/TombRewardPool.sol\":6084:6318  if (_fromTime >= epochEndTimes[epochId - 1]) {\r... */\n    tag_145:\n        /* \"contracts-encrypt/distribution/TombRewardPool.sol\":6338:6362  uint256 _generatedReward */\n      0x00\n        /* \"contracts-encrypt/distribution/TombRewardPool.sol\":6365:6484  _toTime\r... */\n      tag_150\n        /* \"contracts-encrypt/distribution/TombRewardPool.sol\":6453:6474  epochEncryptPerSecond */\n      0x0d\n        /* \"contracts-encrypt/distribution/TombRewardPool.sol\":6475:6482  epochId */\n      dup4\n        /* \"contracts-encrypt/distribution/TombRewardPool.sol\":6453:6483  epochEncryptPerSecond[epochId] */\n      0xff\n      and\n      0x03\n      dup2\n      lt\n      tag_151\n      jumpi\n      invalid\n    tag_151:\n      add\n      sload\n        /* \"contracts-encrypt/distribution/TombRewardPool.sol\":6365:6426  _toTime\r... */\n      tag_149\n        /* \"contracts-encrypt/distribution/TombRewardPool.sol\":6399:6412  epochEndTimes */\n      0x09\n        /* \"contracts-encrypt/distribution/TombRewardPool.sol\":6423:6424  1 */\n      0x01\n        /* \"contracts-encrypt/distribution/TombRewardPool.sol\":6413:6420  epochId */\n      dup7\n        /* \"contracts-encrypt/distribution/TombRewardPool.sol\":6413:6424  epochId - 1 */\n      sub\n        /* \"contracts-encrypt/distribution/TombRewardPool.sol\":6399:6425  epochEndTimes[epochId - 1] */\n      0xff\n      and\n      0x03\n      dup2\n      lt\n      tag_154\n      jumpi\n      invalid\n    tag_154:\n      add\n      sload\n        /* \"contracts-encrypt/distribution/TombRewardPool.sol\":6365:6372  _toTime */\n      dup8\n      swap1\n        /* \"contracts-encrypt/distribution/TombRewardPool.sol\":6365:6398  _toTime\r... */\n      tag_126\n        /* \"contracts-encrypt/distribution/TombRewardPool.sol\":6365:6426  _toTime\r... */\n      jump\t// in\n        /* \"contracts-encrypt/distribution/TombRewardPool.sol\":6365:6484  _toTime\r... */\n    tag_150:\n        /* \"contracts-encrypt/distribution/TombRewardPool.sol\":6338:6484  uint256 _generatedReward = _toTime\r... */\n      swap1\n      pop\n        /* \"contracts-encrypt/distribution/TombRewardPool.sol\":6507:6514  epochId */\n      dup2\n        /* \"contracts-encrypt/distribution/TombRewardPool.sol\":6507:6519  epochId == 1 */\n      0xff\n      and\n        /* \"contracts-encrypt/distribution/TombRewardPool.sol\":6518:6519  1 */\n      0x01\n        /* \"contracts-encrypt/distribution/TombRewardPool.sol\":6507:6519  epochId == 1 */\n      eq\n        /* \"contracts-encrypt/distribution/TombRewardPool.sol\":6503:6799  if (epochId == 1) {\r... */\n      iszero\n      tag_156\n      jumpi\n        /* \"contracts-encrypt/distribution/TombRewardPool.sol\":6576:6779  _generatedReward.add(\r... */\n      tag_157\n        /* \"contracts-encrypt/distribution/TombRewardPool.sol\":6627:6752  epochEndTimes[0].sub(_fromTime).mul(\r... */\n      tag_158\n        /* \"contracts-encrypt/distribution/TombRewardPool.sol\":6697:6718  epochEncryptPerSecond */\n      0x0d\n        /* \"contracts-encrypt/distribution/TombRewardPool.sol\":6719:6720  0 */\n      0x00\n        /* \"contracts-encrypt/distribution/TombRewardPool.sol\":6697:6721  epochEncryptPerSecond[0] */\n    tag_159:\n      add\n      sload\n        /* \"contracts-encrypt/distribution/TombRewardPool.sol\":6627:6658  epochEndTimes[0].sub(_fromTime) */\n      tag_149\n        /* \"contracts-encrypt/distribution/TombRewardPool.sol\":6648:6657  _fromTime */\n      dup9\n        /* \"contracts-encrypt/distribution/TombRewardPool.sol\":6627:6640  epochEndTimes */\n      0x09\n        /* \"contracts-encrypt/distribution/TombRewardPool.sol\":6641:6642  0 */\n      0x00\n        /* \"contracts-encrypt/distribution/TombRewardPool.sol\":6627:6643  epochEndTimes[0] */\n    tag_162:\n      add\n      sload\n      swap1\n        /* \"contracts-encrypt/distribution/TombRewardPool.sol\":6627:6647  epochEndTimes[0].sub */\n      tag_126\n        /* \"contracts-encrypt/distribution/TombRewardPool.sol\":6627:6658  epochEndTimes[0].sub(_fromTime) */\n      jump\t// in\n        /* \"contracts-encrypt/distribution/TombRewardPool.sol\":6627:6752  epochEndTimes[0].sub(_fromTime).mul(\r... */\n    tag_158:\n        /* \"contracts-encrypt/distribution/TombRewardPool.sol\":6576:6592  _generatedReward */\n      dup3\n      swap1\n        /* \"contracts-encrypt/distribution/TombRewardPool.sol\":6576:6596  _generatedReward.add */\n      tag_122\n        /* \"contracts-encrypt/distribution/TombRewardPool.sol\":6576:6779  _generatedReward.add(\r... */\n      jump\t// in\n    tag_157:\n        /* \"contracts-encrypt/distribution/TombRewardPool.sol\":6544:6779  return\r... */\n      swap3\n      pop\n      pop\n      pop\n      jump(tag_105)\n        /* \"contracts-encrypt/distribution/TombRewardPool.sol\":6503:6799  if (epochId == 1) {\r... */\n    tag_156:\n        /* \"contracts-encrypt/distribution/TombRewardPool.sol\":6842:6843  1 */\n      0x01\n        /* \"contracts-encrypt/distribution/TombRewardPool.sol\":6832:6839  epochId */\n      dup3\n        /* \"contracts-encrypt/distribution/TombRewardPool.sol\":6832:6843  epochId - 1 */\n      sub\n        /* \"contracts-encrypt/distribution/TombRewardPool.sol\":6822:6843  epochId = epochId - 1 */\n      swap2\n      pop\n        /* \"contracts-encrypt/distribution/TombRewardPool.sol\":6817:7537  for (epochId = epochId - 1; epochId >= 1; --epochId) {\r... */\n    tag_164:\n        /* \"contracts-encrypt/distribution/TombRewardPool.sol\":6856:6857  1 */\n      0x01\n        /* \"contracts-encrypt/distribution/TombRewardPool.sol\":6845:6852  epochId */\n      dup3\n        /* \"contracts-encrypt/distribution/TombRewardPool.sol\":6845:6857  epochId >= 1 */\n      0xff\n      and\n      lt\n        /* \"contracts-encrypt/distribution/TombRewardPool.sol\":6817:7537  for (epochId = epochId - 1; epochId >= 1; --epochId) {\r... */\n      tag_165\n      jumpi\n        /* \"contracts-encrypt/distribution/TombRewardPool.sol\":6910:6923  epochEndTimes */\n      0x09\n        /* \"contracts-encrypt/distribution/TombRewardPool.sol\":6934:6935  1 */\n      0x01\n        /* \"contracts-encrypt/distribution/TombRewardPool.sol\":6924:6931  epochId */\n      dup4\n        /* \"contracts-encrypt/distribution/TombRewardPool.sol\":6924:6935  epochId - 1 */\n      sub\n        /* \"contracts-encrypt/distribution/TombRewardPool.sol\":6910:6936  epochEndTimes[epochId - 1] */\n      0xff\n      and\n      0x03\n      dup2\n      lt\n      tag_167\n      jumpi\n      invalid\n    tag_167:\n      add\n      sload\n        /* \"contracts-encrypt/distribution/TombRewardPool.sol\":6897:6906  _fromTime */\n      dup6\n        /* \"contracts-encrypt/distribution/TombRewardPool.sol\":6897:6936  _fromTime >= epochEndTimes[epochId - 1] */\n      lt\n        /* \"contracts-encrypt/distribution/TombRewardPool.sol\":6893:7256  if (_fromTime >= epochEndTimes[epochId - 1]) {\r... */\n      tag_169\n      jumpi\n        /* \"contracts-encrypt/distribution/TombRewardPool.sol\":7001:7232  _generatedReward.add(\r... */\n      tag_157\n        /* \"contracts-encrypt/distribution/TombRewardPool.sol\":7056:7201  epochEndTimes[epochId].sub(_fromTime).mul(\r... */\n      tag_158\n        /* \"contracts-encrypt/distribution/TombRewardPool.sol\":7136:7157  epochEncryptPerSecond */\n      0x0d\n        /* \"contracts-encrypt/distribution/TombRewardPool.sol\":7158:7165  epochId */\n      dup5\n        /* \"contracts-encrypt/distribution/TombRewardPool.sol\":7136:7166  epochEncryptPerSecond[epochId] */\n      0xff\n      and\n      0x03\n      dup2\n      lt\n      tag_172\n      jumpi\n      invalid\n    tag_172:\n      add\n      sload\n        /* \"contracts-encrypt/distribution/TombRewardPool.sol\":7056:7093  epochEndTimes[epochId].sub(_fromTime) */\n      tag_149\n        /* \"contracts-encrypt/distribution/TombRewardPool.sol\":7083:7092  _fromTime */\n      dup9\n        /* \"contracts-encrypt/distribution/TombRewardPool.sol\":7056:7069  epochEndTimes */\n      0x09\n        /* \"contracts-encrypt/distribution/TombRewardPool.sol\":7070:7077  epochId */\n      dup8\n        /* \"contracts-encrypt/distribution/TombRewardPool.sol\":7056:7078  epochEndTimes[epochId] */\n      0xff\n      and\n      0x03\n      dup2\n      lt\n      tag_162\n      jumpi\n      invalid\n        /* \"contracts-encrypt/distribution/TombRewardPool.sol\":6893:7256  if (_fromTime >= epochEndTimes[epochId - 1]) {\r... */\n    tag_169:\n        /* \"contracts-encrypt/distribution/TombRewardPool.sol\":7297:7517  _generatedReward.add(\r... */\n      tag_177\n        /* \"contracts-encrypt/distribution/TombRewardPool.sol\":7344:7494  epochEndTimes[epochId]\r... */\n      tag_158\n        /* \"contracts-encrypt/distribution/TombRewardPool.sol\":7463:7484  epochEncryptPerSecond */\n      0x0d\n        /* \"contracts-encrypt/distribution/TombRewardPool.sol\":7485:7492  epochId */\n      dup5\n        /* \"contracts-encrypt/distribution/TombRewardPool.sol\":7463:7493  epochEncryptPerSecond[epochId] */\n      0xff\n      and\n      0x03\n      dup2\n      lt\n      tag_179\n      jumpi\n      invalid\n    tag_179:\n      add\n      sload\n        /* \"contracts-encrypt/distribution/TombRewardPool.sol\":7344:7428  epochEndTimes[epochId]\r... */\n      tag_149\n        /* \"contracts-encrypt/distribution/TombRewardPool.sol\":7401:7414  epochEndTimes */\n      0x09\n        /* \"contracts-encrypt/distribution/TombRewardPool.sol\":7425:7426  1 */\n      0x01\n        /* \"contracts-encrypt/distribution/TombRewardPool.sol\":7415:7422  epochId */\n      dup8\n        /* \"contracts-encrypt/distribution/TombRewardPool.sol\":7415:7426  epochId - 1 */\n      sub\n        /* \"contracts-encrypt/distribution/TombRewardPool.sol\":7401:7427  epochEndTimes[epochId - 1] */\n      0xff\n      and\n      0x03\n      dup2\n      lt\n      tag_182\n      jumpi\n      invalid\n    tag_182:\n      add\n      sload\n        /* \"contracts-encrypt/distribution/TombRewardPool.sol\":7344:7357  epochEndTimes */\n      0x09\n        /* \"contracts-encrypt/distribution/TombRewardPool.sol\":7358:7365  epochId */\n      dup8\n        /* \"contracts-encrypt/distribution/TombRewardPool.sol\":7344:7366  epochEndTimes[epochId] */\n      0xff\n      and\n      0x03\n      dup2\n      lt\n      tag_162\n      jumpi\n      invalid\n        /* \"contracts-encrypt/distribution/TombRewardPool.sol\":7297:7517  _generatedReward.add(\r... */\n    tag_177:\n      not(0x00)\n        /* \"contracts-encrypt/distribution/TombRewardPool.sol\":6859:6868  --epochId */\n      swap1\n      swap3\n      add\n      swap2\n        /* \"contracts-encrypt/distribution/TombRewardPool.sol\":7278:7517  _generatedReward = _generatedReward.add(\r... */\n      swap1\n      pop\n        /* \"contracts-encrypt/distribution/TombRewardPool.sol\":6817:7537  for (epochId = epochId - 1; epochId >= 1; --epochId) {\r... */\n      jump(tag_164)\n    tag_165:\n        /* \"contracts-encrypt/distribution/TombRewardPool.sol\":7583:7770  _generatedReward.add(\r... */\n      tag_157\n        /* \"contracts-encrypt/distribution/TombRewardPool.sol\":7630:7747  epochEndTimes[0].sub(_fromTime).mul(\r... */\n      tag_158\n        /* \"contracts-encrypt/distribution/TombRewardPool.sol\":7696:7717  epochEncryptPerSecond */\n      0x0d\n        /* \"contracts-encrypt/distribution/TombRewardPool.sol\":7718:7719  0 */\n      0x00\n        /* \"contracts-encrypt/distribution/TombRewardPool.sol\":7696:7720  epochEncryptPerSecond[0] */\n      jump(tag_159)\n        /* \"contracts-encrypt/distribution/TombRewardPool.sol\":6022:7786  if (_toTime >= epochEndTimes[epochId - 1]) {\r... */\n    tag_142:\n      not(0x00)\n        /* \"contracts-encrypt/distribution/TombRewardPool.sol\":5996:6005  --epochId */\n      add\n        /* \"contracts-encrypt/distribution/TombRewardPool.sol\":5958:7797  for (uint8 epochId = 2; epochId >= 1; --epochId) {\r... */\n      jump(tag_137)\n    tag_138:\n      pop\n        /* \"contracts-encrypt/distribution/TombRewardPool.sol\":7841:7862  epochEncryptPerSecond */\n      0x0d\n        /* \"contracts-encrypt/distribution/TombRewardPool.sol\":7841:7865  epochEncryptPerSecond[0] */\n      sload\n        /* \"contracts-encrypt/distribution/TombRewardPool.sol\":7814:7866  _toTime.sub(_fromTime).mul(epochEncryptPerSecond[0]) */\n      tag_193\n      swap1\n        /* \"contracts-encrypt/distribution/TombRewardPool.sol\":7814:7836  _toTime.sub(_fromTime) */\n      tag_149\n        /* \"contracts-encrypt/distribution/TombRewardPool.sol\":7814:7821  _toTime */\n      dup5\n        /* \"contracts-encrypt/distribution/TombRewardPool.sol\":7826:7835  _fromTime */\n      dup7\n        /* \"contracts-encrypt/distribution/TombRewardPool.sol\":7814:7825  _toTime.sub */\n      tag_126\n        /* \"contracts-encrypt/distribution/TombRewardPool.sol\":7814:7836  _toTime.sub(_fromTime) */\n      jump\t// in\n        /* \"contracts-encrypt/distribution/TombRewardPool.sol\":7814:7866  _toTime.sub(_fromTime).mul(epochEncryptPerSecond[0]) */\n    tag_193:\n        /* \"contracts-encrypt/distribution/TombRewardPool.sol\":7807:7866  return _toTime.sub(_fromTime).mul(epochEncryptPerSecond[0]) */\n      swap4\n        /* \"contracts-encrypt/distribution/TombRewardPool.sol\":5821:7874  function getGeneratedReward(uint256 _fromTime, uint256 _toTime)\r... */\n      swap3\n      pop\n      pop\n      pop\n      jump\t// out\n        /* \"contracts-encrypt/distribution/TombRewardPool.sol\":1255:1276  IERC20 public Encrypt */\n    tag_51:\n      and(sub(shl(0xa0, 0x01), 0x01), sload(0x01))\n      dup2\n      jump\t// out\n        /* \"contracts-encrypt/distribution/TombRewardPool.sol\":2043:2082  uint256[3] public epochEncryptPerSecond */\n    tag_54:\n      0x0d\n      dup2\n      0x03\n      dup2\n      lt\n      tag_197\n      jumpi\n      invalid\n    tag_197:\n      add\n      sload\n      swap1\n      pop\n      dup2\n      jump\t// out\n        /* \"contracts-encrypt/distribution/TombRewardPool.sol\":2613:2702  function isInitialized() public view returns (bool) {\r... */\n    tag_56:\n        /* \"contracts-encrypt/distribution/TombRewardPool.sol\":2683:2694  initialized */\n      and(0xff, sload(0x0c))\n        /* \"contracts-encrypt/distribution/TombRewardPool.sol\":2613:2702  function isInitialized() public view returns (bool) {\r... */\n      swap1\n      jump\t// out\n        /* \"contracts-encrypt/distribution/TombRewardPool.sol\":3595:3899  function setTime(uint256 _poolStartTime) external onlyOperator {\r... */\n    tag_59:\n        /* \"contracts-encrypt/distribution/TombRewardPool.sol\":3152:3160  operator */\n      and(sub(shl(0xa0, 0x01), 0x01), sload(0x00))\n        /* \"contracts-encrypt/distribution/TombRewardPool.sol\":3164:3174  msg.sender */\n      caller\n        /* \"contracts-encrypt/distribution/TombRewardPool.sol\":3152:3174  operator == msg.sender */\n      eq\n        /* \"contracts-encrypt/distribution/TombRewardPool.sol\":3130:3247  require(\r... */\n      tag_201\n      jumpi\n      mload(0x40)\n      shl(0xe5, 0x461bcd)\n      dup2\n      mstore\n      0x04\n      add\n      dup1\n      dup1\n      0x20\n      add\n      dup3\n      dup2\n      sub\n      dup3\n      mstore\n      0x2d\n      dup2\n      mstore\n      0x20\n      add\n      dup1\n      data_7c1dc5477764f2dc16434358e98a6732ada1495d31ab07dbde0acff1b13b84d1\n      0x2d\n      swap2\n      codecopy\n      0x40\n      add\n      swap2\n      pop\n      pop\n      mload(0x40)\n      dup1\n      swap2\n      sub\n      swap1\n      revert\n    tag_201:\n        /* \"contracts-encrypt/distribution/TombRewardPool.sol\":3695:3709  _poolStartTime */\n      dup1\n        /* \"contracts-encrypt/distribution/TombRewardPool.sol\":3677:3692  block.timestamp */\n      timestamp\n        /* \"contracts-encrypt/distribution/TombRewardPool.sol\":3677:3709  block.timestamp < _poolStartTime */\n      lt\n        /* \"contracts-encrypt/distribution/TombRewardPool.sol\":3669:3718  require(block.timestamp < _poolStartTime, \"late\") */\n      tag_203\n      jumpi\n      0x40\n      dup1\n      mload\n      shl(0xe5, 0x461bcd)\n      dup2\n      mstore\n      0x20\n      0x04\n      dup1\n      dup4\n      add\n      swap2\n      swap1\n      swap2\n      mstore\n      0x24\n      dup3\n      add\n      mstore\n      shl(0xe0, 0x6c617465)\n      0x44\n      dup3\n      add\n      mstore\n      swap1\n      mload\n      swap1\n      dup2\n      swap1\n      sub\n      0x64\n      add\n      swap1\n      revert\n    tag_203:\n        /* \"contracts-encrypt/distribution/TombRewardPool.sol\":3729:3742  poolStartTime */\n      0x07\n        /* \"contracts-encrypt/distribution/TombRewardPool.sol\":3729:3759  poolStartTime = _poolStartTime */\n      dup2\n      swap1\n      sstore\n        /* \"contracts-encrypt/distribution/TombRewardPool.sol\":3807:3813  4 days */\n      0x054600\n        /* \"contracts-encrypt/distribution/TombRewardPool.sol\":3791:3813  poolStartTime + 4 days */\n      dup2\n      add\n        /* \"contracts-encrypt/distribution/TombRewardPool.sol\":3772:3785  epochEndTimes */\n      0x09\n        /* \"contracts-encrypt/distribution/TombRewardPool.sol\":3772:3813  epochEndTimes[0] = poolStartTime + 4 days */\n      sstore\n        /* \"contracts-encrypt/distribution/TombRewardPool.sol\":3854:3879  epochEndTimes[0] + 5 days */\n      0x0bdd80\n      add\n        /* \"contracts-encrypt/distribution/TombRewardPool.sol\":3835:3851  epochEndTimes[1] */\n      0x0a\n        /* \"contracts-encrypt/distribution/TombRewardPool.sol\":3835:3879  epochEndTimes[1] = epochEndTimes[0] + 5 days */\n      sstore\n        /* \"contracts-encrypt/distribution/TombRewardPool.sol\":3595:3899  function setTime(uint256 _poolStartTime) external onlyOperator {\r... */\n      jump\t// out\n        /* \"contracts-encrypt/distribution/TombRewardPool.sol\":11610:12485  function withdraw(uint256 _pid, uint256 _amount) public {\r... */\n    tag_62:\n        /* \"contracts-encrypt/distribution/TombRewardPool.sol\":11677:11692  address _sender */\n      0x00\n        /* \"contracts-encrypt/distribution/TombRewardPool.sol\":11695:11705  msg.sender */\n      caller\n        /* \"contracts-encrypt/distribution/TombRewardPool.sol\":11677:11705  address _sender = msg.sender */\n      swap1\n      pop\n        /* \"contracts-encrypt/distribution/TombRewardPool.sol\":11716:11737  PoolInfo storage pool */\n      0x00\n        /* \"contracts-encrypt/distribution/TombRewardPool.sol\":11740:11748  poolInfo */\n      0x02\n        /* \"contracts-encrypt/distribution/TombRewardPool.sol\":11749:11753  _pid */\n      dup5\n        /* \"contracts-encrypt/distribution/TombRewardPool.sol\":11740:11754  poolInfo[_pid] */\n      dup2\n      sload\n      dup2\n      lt\n      tag_211\n      jumpi\n      invalid\n    tag_211:\n      0x00\n      swap2\n      dup3\n      mstore\n      0x20\n      dup1\n      dup4\n      keccak256\n        /* \"contracts-encrypt/distribution/TombRewardPool.sol\":11789:11803  userInfo[_pid] */\n      dup8\n      dup5\n      mstore\n        /* \"contracts-encrypt/distribution/TombRewardPool.sol\":11740:11754  poolInfo[_pid] */\n      0x05\n        /* \"contracts-encrypt/distribution/TombRewardPool.sol\":11789:11803  userInfo[_pid] */\n      dup1\n      dup4\n      mstore\n      0x40\n      dup1\n      dup7\n      keccak256\n      sub(shl(0xa0, 0x01), 0x01)\n        /* \"contracts-encrypt/distribution/TombRewardPool.sol\":11789:11812  userInfo[_pid][_sender] */\n      dup10\n      and\n      dup8\n      mstore\n      swap1\n      swap4\n      mstore\n      swap2\n      swap1\n      swap4\n      keccak256\n        /* \"contracts-encrypt/distribution/TombRewardPool.sol\":11831:11842  user.amount */\n      dup1\n      sload\n        /* \"contracts-encrypt/distribution/TombRewardPool.sol\":11740:11754  poolInfo[_pid] */\n      swap3\n      swap1\n      swap2\n      mul\n      swap1\n      swap3\n      add\n      swap3\n      pop\n      dup5\n      gt\n        /* \"contracts-encrypt/distribution/TombRewardPool.sol\":11831:11853  user.amount >= _amount */\n      iszero\n        /* \"contracts-encrypt/distribution/TombRewardPool.sol\":11823:11876  require(user.amount >= _amount, \"withdraw: not good\") */\n      tag_213\n      jumpi\n      0x40\n      dup1\n      mload\n      shl(0xe5, 0x461bcd)\n      dup2\n      mstore\n      0x20\n      0x04\n      dup3\n      add\n      mstore\n      0x12\n      0x24\n      dup3\n      add\n      mstore\n      shl(0x72, 0x1dda5d1a191c985dce881b9bdd0819dbdbd9)\n      0x44\n      dup3\n      add\n      mstore\n      swap1\n      mload\n      swap1\n      dup2\n      swap1\n      sub\n      0x64\n      add\n      swap1\n      revert\n    tag_213:\n        /* \"contracts-encrypt/distribution/TombRewardPool.sol\":11887:11903  updatePool(_pid) */\n      tag_214\n        /* \"contracts-encrypt/distribution/TombRewardPool.sol\":11898:11902  _pid */\n      dup6\n        /* \"contracts-encrypt/distribution/TombRewardPool.sol\":11887:11897  updatePool */\n      tag_65\n        /* \"contracts-encrypt/distribution/TombRewardPool.sol\":11887:11903  updatePool(_pid) */\n      jump\t// in\n    tag_214:\n        /* \"contracts-encrypt/distribution/TombRewardPool.sol\":11914:11930  uint256 _pending */\n      0x00\n        /* \"contracts-encrypt/distribution/TombRewardPool.sol\":11933:12060  user\r... */\n      tag_215\n        /* \"contracts-encrypt/distribution/TombRewardPool.sol\":12044:12048  user */\n      dup3\n        /* \"contracts-encrypt/distribution/TombRewardPool.sol\":12044:12059  user.rewardDebt */\n      0x01\n      add\n      sload\n        /* \"contracts-encrypt/distribution/TombRewardPool.sol\":11933:12025  user\r... */\n      tag_124\n        /* \"contracts-encrypt/distribution/TombRewardPool.sol\":12020:12024  1e18 */\n      0x0de0b6b3a7640000\n        /* \"contracts-encrypt/distribution/TombRewardPool.sol\":11933:12001  user\r... */\n      tag_116\n        /* \"contracts-encrypt/distribution/TombRewardPool.sol\":11977:11981  pool */\n      dup8\n        /* \"contracts-encrypt/distribution/TombRewardPool.sol\":11977:12000  pool.accEncryptPerShare */\n      0x03\n      add\n      sload\n        /* \"contracts-encrypt/distribution/TombRewardPool.sol\":11933:11937  user */\n      dup8\n        /* \"contracts-encrypt/distribution/TombRewardPool.sol\":11933:11958  user\r... */\n      0x00\n      add\n      sload\n        /* \"contracts-encrypt/distribution/TombRewardPool.sol\":11933:11976  user\r... */\n      tag_117\n      swap1\n        /* \"contracts-encrypt/distribution/TombRewardPool.sol\":11933:12001  user\r... */\n      swap2\n      swap1\n      0xffffffff\n      and\n      jump\t// in\n        /* \"contracts-encrypt/distribution/TombRewardPool.sol\":11933:12060  user\r... */\n    tag_215:\n        /* \"contracts-encrypt/distribution/TombRewardPool.sol\":11914:12060  uint256 _pending = user\r... */\n      swap1\n      pop\n        /* \"contracts-encrypt/distribution/TombRewardPool.sol\":12075:12087  _pending > 0 */\n      dup1\n      iszero\n        /* \"contracts-encrypt/distribution/TombRewardPool.sol\":12071:12203  if (_pending > 0) {\r... */\n      tag_218\n      jumpi\n        /* \"contracts-encrypt/distribution/TombRewardPool.sol\":12104:12142  safeEncryptTransfer(_sender, _pending) */\n      tag_219\n        /* \"contracts-encrypt/distribution/TombRewardPool.sol\":12124:12131  _sender */\n      dup5\n        /* \"contracts-encrypt/distribution/TombRewardPool.sol\":12133:12141  _pending */\n      dup3\n        /* \"contracts-encrypt/distribution/TombRewardPool.sol\":12104:12123  safeEncryptTransfer */\n      tag_220\n        /* \"contracts-encrypt/distribution/TombRewardPool.sol\":12104:12142  safeEncryptTransfer(_sender, _pending) */\n      jump\t// in\n    tag_219:\n        /* \"contracts-encrypt/distribution/TombRewardPool.sol\":12162:12191  RewardPaid(_sender, _pending) */\n      0x40\n      dup1\n      mload\n      dup3\n      dup2\n      mstore\n      swap1\n      mload\n      sub(shl(0xa0, 0x01), 0x01)\n      dup7\n      and\n      swap2\n      0xe2403640ba68fed3a2f88b7557551d1993f84b99bb10ff833f0cf8db0c5e0486\n      swap2\n      swap1\n      dup2\n      swap1\n      sub\n      0x20\n      add\n      swap1\n      log2\n        /* \"contracts-encrypt/distribution/TombRewardPool.sol\":12071:12203  if (_pending > 0) {\r... */\n    tag_218:\n        /* \"contracts-encrypt/distribution/TombRewardPool.sol\":12217:12228  _amount > 0 */\n      dup5\n      iszero\n        /* \"contracts-encrypt/distribution/TombRewardPool.sol\":12213:12351  if (_amount > 0) {\r... */\n      tag_223\n      jumpi\n        /* \"contracts-encrypt/distribution/TombRewardPool.sol\":12259:12270  user.amount */\n      dup2\n      sload\n        /* \"contracts-encrypt/distribution/TombRewardPool.sol\":12259:12283  user.amount.sub(_amount) */\n      tag_222\n      swap1\n        /* \"contracts-encrypt/distribution/TombRewardPool.sol\":12275:12282  _amount */\n      dup7\n        /* \"contracts-encrypt/distribution/TombRewardPool.sol\":12259:12274  user.amount.sub */\n      tag_126\n        /* \"contracts-encrypt/distribution/TombRewardPool.sol\":12259:12283  user.amount.sub(_amount) */\n      jump\t// in\n    tag_222:\n        /* \"contracts-encrypt/distribution/TombRewardPool.sol\":12245:12283  user.amount = user.amount.sub(_amount) */\n      dup3\n      sstore\n        /* \"contracts-encrypt/distribution/TombRewardPool.sol\":12298:12308  pool.token */\n      dup3\n      sload\n        /* \"contracts-encrypt/distribution/TombRewardPool.sol\":12298:12339  pool.token.safeTransfer(_sender, _amount) */\n      tag_223\n      swap1\n      sub(shl(0xa0, 0x01), 0x01)\n        /* \"contracts-encrypt/distribution/TombRewardPool.sol\":12298:12308  pool.token */\n      and\n        /* \"contracts-encrypt/distribution/TombRewardPool.sol\":12322:12329  _sender */\n      dup6\n        /* \"contracts-encrypt/distribution/TombRewardPool.sol\":12331:12338  _amount */\n      dup8\n        /* \"contracts-encrypt/distribution/TombRewardPool.sol\":12298:12321  pool.token.safeTransfer */\n      tag_224\n        /* \"contracts-encrypt/distribution/TombRewardPool.sol\":12298:12339  pool.token.safeTransfer(_sender, _amount) */\n      jump\t// in\n    tag_223:\n        /* \"contracts-encrypt/distribution/TombRewardPool.sol\":12395:12418  pool.accEncryptPerShare */\n      0x03\n      dup4\n      add\n      sload\n        /* \"contracts-encrypt/distribution/TombRewardPool.sol\":12379:12390  user.amount */\n      dup3\n      sload\n        /* \"contracts-encrypt/distribution/TombRewardPool.sol\":12379:12429  user.amount.mul(pool.accEncryptPerShare).div(1e18) */\n      tag_225\n      swap2\n        /* \"contracts-encrypt/distribution/TombRewardPool.sol\":12424:12428  1e18 */\n      0x0de0b6b3a7640000\n      swap2\n        /* \"contracts-encrypt/distribution/TombRewardPool.sol\":12379:12419  user.amount.mul(pool.accEncryptPerShare) */\n      tag_116\n      swap2\n        /* \"contracts-encrypt/distribution/TombRewardPool.sol\":12379:12394  user.amount.mul */\n      tag_117\n        /* \"contracts-encrypt/distribution/TombRewardPool.sol\":12379:12419  user.amount.mul(pool.accEncryptPerShare) */\n      jump\t// in\n        /* \"contracts-encrypt/distribution/TombRewardPool.sol\":12379:12429  user.amount.mul(pool.accEncryptPerShare).div(1e18) */\n    tag_225:\n        /* \"contracts-encrypt/distribution/TombRewardPool.sol\":12361:12376  user.rewardDebt */\n      0x01\n      dup4\n      add\n        /* \"contracts-encrypt/distribution/TombRewardPool.sol\":12361:12429  user.rewardDebt = user.amount.mul(pool.accEncryptPerShare).div(1e18) */\n      sstore\n        /* \"contracts-encrypt/distribution/TombRewardPool.sol\":12445:12477  Withdraw(_sender, _pid, _amount) */\n      0x40\n      dup1\n      mload\n      dup7\n      dup2\n      mstore\n      swap1\n      mload\n        /* \"contracts-encrypt/distribution/TombRewardPool.sol\":12463:12467  _pid */\n      dup8\n      swap2\n      sub(shl(0xa0, 0x01), 0x01)\n        /* \"contracts-encrypt/distribution/TombRewardPool.sol\":12445:12477  Withdraw(_sender, _pid, _amount) */\n      dup8\n      and\n      swap2\n      0xf279e6a1f5e320cca91135676d9cb6e44ca8a08c0b88342bcdb1144f6511b568\n      swap2\n      dup2\n      swap1\n      sub\n      0x20\n      add\n      swap1\n      log3\n        /* \"contracts-encrypt/distribution/TombRewardPool.sol\":11610:12485  function withdraw(uint256 _pid, uint256 _amount) public {\r... */\n      pop\n      pop\n      pop\n      pop\n      pop\n      pop\n      jump\t// out\n        /* \"contracts-encrypt/distribution/TombRewardPool.sol\":9233:10266  function updatePool(uint256 _pid) public {\r... */\n    tag_65:\n        /* \"contracts-encrypt/distribution/TombRewardPool.sol\":9285:9306  PoolInfo storage pool */\n      0x00\n        /* \"contracts-encrypt/distribution/TombRewardPool.sol\":9309:9317  poolInfo */\n      0x02\n        /* \"contracts-encrypt/distribution/TombRewardPool.sol\":9318:9322  _pid */\n      dup3\n        /* \"contracts-encrypt/distribution/TombRewardPool.sol\":9309:9323  poolInfo[_pid] */\n      dup2\n      sload\n      dup2\n      lt\n      tag_228\n      jumpi\n      invalid\n    tag_228:\n      swap1\n      0x00\n      mstore\n      keccak256(0x00, 0x20)\n      swap1\n      0x05\n      mul\n      add\n        /* \"contracts-encrypt/distribution/TombRewardPool.sol\":9285:9323  PoolInfo storage pool = poolInfo[_pid] */\n      swap1\n      pop\n        /* \"contracts-encrypt/distribution/TombRewardPool.sol\":9357:9361  pool */\n      dup1\n        /* \"contracts-encrypt/distribution/TombRewardPool.sol\":9357:9376  pool.lastRewardTime */\n      0x02\n      add\n      sload\n        /* \"contracts-encrypt/distribution/TombRewardPool.sol\":9338:9353  block.timestamp */\n      timestamp\n        /* \"contracts-encrypt/distribution/TombRewardPool.sol\":9338:9376  block.timestamp <= pool.lastRewardTime */\n      gt\n        /* \"contracts-encrypt/distribution/TombRewardPool.sol\":9334:9411  if (block.timestamp <= pool.lastRewardTime) {\r... */\n      tag_230\n      jumpi\n        /* \"contracts-encrypt/distribution/TombRewardPool.sol\":9393:9400  return; */\n      pop\n      jump(tag_227)\n        /* \"contracts-encrypt/distribution/TombRewardPool.sol\":9334:9411  if (block.timestamp <= pool.lastRewardTime) {\r... */\n    tag_230:\n        /* \"contracts-encrypt/distribution/TombRewardPool.sol\":9443:9453  pool.token */\n      dup1\n      sload\n        /* \"contracts-encrypt/distribution/TombRewardPool.sol\":9443:9478  pool.token.balanceOf(address(this)) */\n      0x40\n      dup1\n      mload\n      shl(0xe0, 0x70a08231)\n      dup2\n      mstore\n        /* \"contracts-encrypt/distribution/TombRewardPool.sol\":9472:9476  this */\n      address\n        /* \"contracts-encrypt/distribution/TombRewardPool.sol\":9443:9478  pool.token.balanceOf(address(this)) */\n      0x04\n      dup3\n      add\n      mstore\n      swap1\n      mload\n        /* \"contracts-encrypt/distribution/TombRewardPool.sol\":9421:9440  uint256 tokenSupply */\n      0x00\n      swap3\n      sub(shl(0xa0, 0x01), 0x01)\n        /* \"contracts-encrypt/distribution/TombRewardPool.sol\":9443:9453  pool.token */\n      and\n      swap2\n        /* \"contracts-encrypt/distribution/TombRewardPool.sol\":9443:9463  pool.token.balanceOf */\n      0x70a08231\n      swap2\n        /* \"contracts-encrypt/distribution/TombRewardPool.sol\":9443:9478  pool.token.balanceOf(address(this)) */\n      0x24\n      dup1\n      dup4\n      add\n      swap3\n      0x20\n      swap3\n      swap2\n      swap1\n      dup3\n      swap1\n      sub\n      add\n      dup2\n        /* \"contracts-encrypt/distribution/TombRewardPool.sol\":9443:9453  pool.token */\n      dup7\n        /* \"contracts-encrypt/distribution/TombRewardPool.sol\":9443:9478  pool.token.balanceOf(address(this)) */\n      dup1\n      extcodesize\n      iszero\n      dup1\n      iszero\n      tag_231\n      jumpi\n      0x00\n      dup1\n      revert\n    tag_231:\n      pop\n      gas\n      staticcall\n      iszero\n      dup1\n      iszero\n      tag_233\n      jumpi\n      returndatasize\n      0x00\n      dup1\n      returndatacopy\n      revert(0x00, returndatasize)\n    tag_233:\n      pop\n      pop\n      pop\n      pop\n      mload(0x40)\n      returndatasize\n      0x20\n      dup2\n      lt\n      iszero\n      tag_234\n      jumpi\n      0x00\n      dup1\n      revert\n    tag_234:\n      pop\n      mload\n      swap1\n      pop\n        /* \"contracts-encrypt/distribution/TombRewardPool.sol\":9493:9509  tokenSupply == 0 */\n      dup1\n        /* \"contracts-encrypt/distribution/TombRewardPool.sol\":9489:9596  if (tokenSupply == 0) {\r... */\n      tag_235\n      jumpi\n      pop\n        /* \"contracts-encrypt/distribution/TombRewardPool.sol\":9548:9563  block.timestamp */\n      timestamp\n        /* \"contracts-encrypt/distribution/TombRewardPool.sol\":9526:9545  pool.lastRewardTime */\n      0x02\n      swap1\n      swap2\n      add\n        /* \"contracts-encrypt/distribution/TombRewardPool.sol\":9526:9563  pool.lastRewardTime = block.timestamp */\n      sstore\n        /* \"contracts-encrypt/distribution/TombRewardPool.sol\":9578:9585  return; */\n      jump(tag_227)\n        /* \"contracts-encrypt/distribution/TombRewardPool.sol\":9489:9596  if (tokenSupply == 0) {\r... */\n    tag_235:\n        /* \"contracts-encrypt/distribution/TombRewardPool.sol\":9611:9625  pool.isStarted */\n      0x04\n      dup3\n      add\n      sload\n      0xff\n      and\n        /* \"contracts-encrypt/distribution/TombRewardPool.sol\":9606:9744  if (!pool.isStarted) {\r... */\n      tag_236\n      jumpi\n        /* \"contracts-encrypt/distribution/TombRewardPool.sol\":9642:9656  pool.isStarted */\n      0x04\n      dup3\n      add\n        /* \"contracts-encrypt/distribution/TombRewardPool.sol\":9642:9663  pool.isStarted = true */\n      dup1\n      sload\n      not(0xff)\n      and\n        /* \"contracts-encrypt/distribution/TombRewardPool.sol\":9659:9663  true */\n      0x01\n        /* \"contracts-encrypt/distribution/TombRewardPool.sol\":9642:9663  pool.isStarted = true */\n      swap1\n      dup2\n      or\n      swap1\n      swap2\n      sstore\n        /* \"contracts-encrypt/distribution/TombRewardPool.sol\":9716:9731  pool.allocPoint */\n      dup3\n      add\n      sload\n        /* \"contracts-encrypt/distribution/TombRewardPool.sol\":9696:9711  totalAllocPoint */\n      sload(0x06)\n        /* \"contracts-encrypt/distribution/TombRewardPool.sol\":9696:9732  totalAllocPoint.add(pool.allocPoint) */\n      tag_237\n      swap2\n        /* \"contracts-encrypt/distribution/TombRewardPool.sol\":9696:9715  totalAllocPoint.add */\n      tag_122\n        /* \"contracts-encrypt/distribution/TombRewardPool.sol\":9696:9732  totalAllocPoint.add(pool.allocPoint) */\n      jump\t// in\n    tag_237:\n        /* \"contracts-encrypt/distribution/TombRewardPool.sol\":9678:9693  totalAllocPoint */\n      0x06\n        /* \"contracts-encrypt/distribution/TombRewardPool.sol\":9678:9732  totalAllocPoint = totalAllocPoint.add(pool.allocPoint) */\n      sstore\n        /* \"contracts-encrypt/distribution/TombRewardPool.sol\":9606:9744  if (!pool.isStarted) {\r... */\n    tag_236:\n        /* \"contracts-encrypt/distribution/TombRewardPool.sol\":9758:9773  totalAllocPoint */\n      sload(0x06)\n        /* \"contracts-encrypt/distribution/TombRewardPool.sol\":9758:9777  totalAllocPoint > 0 */\n      iszero\n        /* \"contracts-encrypt/distribution/TombRewardPool.sol\":9754:10211  if (totalAllocPoint > 0) {\r... */\n      tag_238\n      jumpi\n        /* \"contracts-encrypt/distribution/TombRewardPool.sol\":9794:9818  uint256 _generatedReward */\n      0x00\n        /* \"contracts-encrypt/distribution/TombRewardPool.sol\":9821:9926  getGeneratedReward(\r... */\n      tag_239\n        /* \"contracts-encrypt/distribution/TombRewardPool.sol\":9858:9862  pool */\n      dup4\n        /* \"contracts-encrypt/distribution/TombRewardPool.sol\":9858:9877  pool.lastRewardTime */\n      0x02\n      add\n      sload\n        /* \"contracts-encrypt/distribution/TombRewardPool.sol\":9896:9911  block.timestamp */\n      timestamp\n        /* \"contracts-encrypt/distribution/TombRewardPool.sol\":9821:9839  getGeneratedReward */\n      tag_49\n        /* \"contracts-encrypt/distribution/TombRewardPool.sol\":9821:9926  getGeneratedReward(\r... */\n      jump\t// in\n    tag_239:\n        /* \"contracts-encrypt/distribution/TombRewardPool.sol\":9794:9926  uint256 _generatedReward = getGeneratedReward(\r... */\n      swap1\n      pop\n        /* \"contracts-encrypt/distribution/TombRewardPool.sol\":9941:9963  uint256 _EncryptReward */\n      0x00\n        /* \"contracts-encrypt/distribution/TombRewardPool.sol\":9966:10056  _generatedReward.mul(pool.allocPoint).div(\r... */\n      tag_240\n        /* \"contracts-encrypt/distribution/TombRewardPool.sol\":10026:10041  totalAllocPoint */\n      sload(0x06)\n        /* \"contracts-encrypt/distribution/TombRewardPool.sol\":9966:10003  _generatedReward.mul(pool.allocPoint) */\n      tag_116\n        /* \"contracts-encrypt/distribution/TombRewardPool.sol\":9987:9991  pool */\n      dup7\n        /* \"contracts-encrypt/distribution/TombRewardPool.sol\":9987:10002  pool.allocPoint */\n      0x01\n      add\n      sload\n        /* \"contracts-encrypt/distribution/TombRewardPool.sol\":9966:9982  _generatedReward */\n      dup6\n        /* \"contracts-encrypt/distribution/TombRewardPool.sol\":9966:9986  _generatedReward.mul */\n      tag_117\n      swap1\n        /* \"contracts-encrypt/distribution/TombRewardPool.sol\":9966:10003  _generatedReward.mul(pool.allocPoint) */\n      swap2\n      swap1\n      0xffffffff\n      and\n      jump\t// in\n        /* \"contracts-encrypt/distribution/TombRewardPool.sol\":9966:10056  _generatedReward.mul(pool.allocPoint).div(\r... */\n    tag_240:\n        /* \"contracts-encrypt/distribution/TombRewardPool.sol\":9941:10056  uint256 _EncryptReward = _generatedReward.mul(pool.allocPoint).div(\r... */\n      swap1\n      pop\n        /* \"contracts-encrypt/distribution/TombRewardPool.sol\":10097:10199  pool.accEncryptPerShare.add(\r... */\n      tag_242\n        /* \"contracts-encrypt/distribution/TombRewardPool.sol\":10143:10184  _EncryptReward.mul(1e18).div(tokenSupply) */\n      tag_243\n        /* \"contracts-encrypt/distribution/TombRewardPool.sol\":10172:10183  tokenSupply */\n      dup5\n        /* \"contracts-encrypt/distribution/TombRewardPool.sol\":10143:10167  _EncryptReward.mul(1e18) */\n      tag_116\n        /* \"contracts-encrypt/distribution/TombRewardPool.sol\":9941:10056  uint256 _EncryptReward = _generatedReward.mul(pool.allocPoint).div(\r... */\n      dup5\n        /* \"contracts-encrypt/distribution/TombRewardPool.sol\":10162:10166  1e18 */\n      0x0de0b6b3a7640000\n        /* \"contracts-encrypt/distribution/TombRewardPool.sol\":10143:10161  _EncryptReward.mul */\n      tag_117\n        /* \"contracts-encrypt/distribution/TombRewardPool.sol\":10143:10167  _EncryptReward.mul(1e18) */\n      jump\t// in\n        /* \"contracts-encrypt/distribution/TombRewardPool.sol\":10143:10184  _EncryptReward.mul(1e18).div(tokenSupply) */\n    tag_243:\n        /* \"contracts-encrypt/distribution/TombRewardPool.sol\":10097:10120  pool.accEncryptPerShare */\n      0x03\n      dup7\n      add\n      sload\n      swap1\n        /* \"contracts-encrypt/distribution/TombRewardPool.sol\":10097:10124  pool.accEncryptPerShare.add */\n      tag_122\n        /* \"contracts-encrypt/distribution/TombRewardPool.sol\":10097:10199  pool.accEncryptPerShare.add(\r... */\n      jump\t// in\n    tag_242:\n        /* \"contracts-encrypt/distribution/TombRewardPool.sol\":10071:10094  pool.accEncryptPerShare */\n      0x03\n      dup6\n      add\n        /* \"contracts-encrypt/distribution/TombRewardPool.sol\":10071:10199  pool.accEncryptPerShare = pool.accEncryptPerShare.add(\r... */\n      sstore\n      pop\n      pop\n        /* \"contracts-encrypt/distribution/TombRewardPool.sol\":9754:10211  if (totalAllocPoint > 0) {\r... */\n    tag_238:\n      pop\n        /* \"contracts-encrypt/distribution/TombRewardPool.sol\":10243:10258  block.timestamp */\n      timestamp\n        /* \"contracts-encrypt/distribution/TombRewardPool.sol\":10221:10240  pool.lastRewardTime */\n      0x02\n      swap1\n      swap2\n      add\n        /* \"contracts-encrypt/distribution/TombRewardPool.sol\":10221:10258  pool.lastRewardTime = block.timestamp */\n      sstore\n        /* \"contracts-encrypt/distribution/TombRewardPool.sol\":9233:10266  function updatePool(uint256 _pid) public {\r... */\n    tag_227:\n      pop\n      jump\t// out\n        /* \"contracts-encrypt/distribution/TombRewardPool.sol\":12556:12933  function emergencyWithdraw(uint256 _pid) public {\r... */\n    tag_68:\n        /* \"contracts-encrypt/distribution/TombRewardPool.sol\":12615:12636  PoolInfo storage pool */\n      0x00\n        /* \"contracts-encrypt/distribution/TombRewardPool.sol\":12639:12647  poolInfo */\n      0x02\n        /* \"contracts-encrypt/distribution/TombRewardPool.sol\":12648:12652  _pid */\n      dup3\n        /* \"contracts-encrypt/distribution/TombRewardPool.sol\":12639:12653  poolInfo[_pid] */\n      dup2\n      sload\n      dup2\n      lt\n      tag_246\n      jumpi\n      invalid\n    tag_246:\n      0x00\n      swap2\n      dup3\n      mstore\n      0x20\n      dup1\n      dup4\n      keccak256\n        /* \"contracts-encrypt/distribution/TombRewardPool.sol\":12688:12702  userInfo[_pid] */\n      dup6\n      dup5\n      mstore\n        /* \"contracts-encrypt/distribution/TombRewardPool.sol\":12639:12653  poolInfo[_pid] */\n      0x05\n        /* \"contracts-encrypt/distribution/TombRewardPool.sol\":12688:12702  userInfo[_pid] */\n      dup1\n      dup4\n      mstore\n      0x40\n      dup1\n      dup7\n      keccak256\n        /* \"contracts-encrypt/distribution/TombRewardPool.sol\":12703:12713  msg.sender */\n      caller\n        /* \"contracts-encrypt/distribution/TombRewardPool.sol\":12688:12714  userInfo[_pid][msg.sender] */\n      dup1\n      dup9\n      mstore\n      swap5\n      mstore\n      dup6\n      keccak256\n        /* \"contracts-encrypt/distribution/TombRewardPool.sol\":12743:12754  user.amount */\n      dup1\n      sload\n        /* \"contracts-encrypt/distribution/TombRewardPool.sol\":12765:12780  user.amount = 0 */\n      dup7\n      dup3\n      sstore\n      0x01\n        /* \"contracts-encrypt/distribution/TombRewardPool.sol\":12791:12806  user.rewardDebt */\n      dup3\n      add\n        /* \"contracts-encrypt/distribution/TombRewardPool.sol\":12791:12810  user.rewardDebt = 0 */\n      swap7\n      swap1\n      swap7\n      sstore\n        /* \"contracts-encrypt/distribution/TombRewardPool.sol\":12639:12653  poolInfo[_pid] */\n      swap4\n      mul\n      add\n        /* \"contracts-encrypt/distribution/TombRewardPool.sol\":12821:12831  pool.token */\n      dup1\n      sload\n        /* \"contracts-encrypt/distribution/TombRewardPool.sol\":12639:12653  poolInfo[_pid] */\n      swap1\n      swap5\n      pop\n        /* \"contracts-encrypt/distribution/TombRewardPool.sol\":12688:12714  userInfo[_pid][msg.sender] */\n      swap2\n      swap3\n        /* \"contracts-encrypt/distribution/TombRewardPool.sol\":12743:12754  user.amount */\n      swap2\n        /* \"contracts-encrypt/distribution/TombRewardPool.sol\":12821:12865  pool.token.safeTransfer(msg.sender, _amount) */\n      tag_248\n      swap2\n      sub(shl(0xa0, 0x01), 0x01)\n        /* \"contracts-encrypt/distribution/TombRewardPool.sol\":12821:12831  pool.token */\n      swap1\n      swap2\n      and\n      swap1\n        /* \"contracts-encrypt/distribution/TombRewardPool.sol\":12743:12754  user.amount */\n      dup4\n        /* \"contracts-encrypt/distribution/TombRewardPool.sol\":12821:12844  pool.token.safeTransfer */\n      tag_224\n        /* \"contracts-encrypt/distribution/TombRewardPool.sol\":12821:12865  pool.token.safeTransfer(msg.sender, _amount) */\n      jump\t// in\n    tag_248:\n        /* \"contracts-encrypt/distribution/TombRewardPool.sol\":12881:12925  EmergencyWithdraw(msg.sender, _pid, _amount) */\n      0x40\n      dup1\n      mload\n      dup3\n      dup2\n      mstore\n      swap1\n      mload\n        /* \"contracts-encrypt/distribution/TombRewardPool.sol\":12911:12915  _pid */\n      dup6\n      swap2\n        /* \"contracts-encrypt/distribution/TombRewardPool.sol\":12899:12909  msg.sender */\n      caller\n      swap2\n        /* \"contracts-encrypt/distribution/TombRewardPool.sol\":12881:12925  EmergencyWithdraw(msg.sender, _pid, _amount) */\n      0xbb757047c2b5f3974fe26b7c10f732e7bce710b0952a71082702781e62ae0595\n      swap2\n      dup2\n      swap1\n      sub\n      0x20\n      add\n      swap1\n      log3\n        /* \"contracts-encrypt/distribution/TombRewardPool.sol\":12556:12933  function emergencyWithdraw(uint256 _pid) public {\r... */\n      pop\n      pop\n      pop\n      pop\n      jump\t// out\n        /* \"contracts-encrypt/distribution/TombRewardPool.sol\":13543:14173  function governanceRecoverUnsupported(\r... */\n    tag_71:\n        /* \"contracts-encrypt/distribution/TombRewardPool.sol\":3152:3160  operator */\n      and(sub(shl(0xa0, 0x01), 0x01), sload(0x00))\n        /* \"contracts-encrypt/distribution/TombRewardPool.sol\":3164:3174  msg.sender */\n      caller\n        /* \"contracts-encrypt/distribution/TombRewardPool.sol\":3152:3174  operator == msg.sender */\n      eq\n        /* \"contracts-encrypt/distribution/TombRewardPool.sol\":3130:3247  require(\r... */\n      tag_250\n      jumpi\n      mload(0x40)\n      shl(0xe5, 0x461bcd)\n      dup2\n      mstore\n      0x04\n      add\n      dup1\n      dup1\n      0x20\n      add\n      dup3\n      dup2\n      sub\n      dup3\n      mstore\n      0x2d\n      dup2\n      mstore\n      0x20\n      add\n      dup1\n      data_7c1dc5477764f2dc16434358e98a6732ada1495d31ab07dbde0acff1b13b84d1\n      0x2d\n      swap2\n      codecopy\n      0x40\n      add\n      swap2\n      pop\n      pop\n      mload(0x40)\n      dup1\n      swap2\n      sub\n      swap1\n      revert\n    tag_250:\n        /* \"contracts-encrypt/distribution/TombRewardPool.sol\":13713:13729  epochEndTimes[1] */\n      sload(0x0a)\n        /* \"contracts-encrypt/distribution/TombRewardPool.sol\":13732:13739  30 days */\n      0x278d00\n        /* \"contracts-encrypt/distribution/TombRewardPool.sol\":13713:13739  epochEndTimes[1] + 30 days */\n      add\n        /* \"contracts-encrypt/distribution/TombRewardPool.sol\":13695:13710  block.timestamp */\n      timestamp\n        /* \"contracts-encrypt/distribution/TombRewardPool.sol\":13695:13739  block.timestamp < epochEndTimes[1] + 30 days */\n      lt\n        /* \"contracts-encrypt/distribution/TombRewardPool.sol\":13691:14124  if (block.timestamp < epochEndTimes[1] + 30 days) {\r... */\n      iszero\n      tag_254\n      jumpi\n        /* \"contracts-encrypt/distribution/TombRewardPool.sol\":13853:13860  Encrypt */\n      sload(0x01)\n      sub(shl(0xa0, 0x01), 0x01)\n        /* \"contracts-encrypt/distribution/TombRewardPool.sol\":13843:13860  _token != Encrypt */\n      dup5\n      dup2\n      and\n        /* \"contracts-encrypt/distribution/TombRewardPool.sol\":13853:13860  Encrypt */\n      swap2\n      and\n        /* \"contracts-encrypt/distribution/TombRewardPool.sol\":13843:13860  _token != Encrypt */\n      eq\n      iszero\n        /* \"contracts-encrypt/distribution/TombRewardPool.sol\":13835:13873  require(_token != Encrypt, \"!Encrypt\") */\n      tag_255\n      jumpi\n      0x40\n      dup1\n      mload\n      shl(0xe5, 0x461bcd)\n      dup2\n      mstore\n      0x20\n      0x04\n      dup3\n      add\n      mstore\n      0x08\n      0x24\n      dup3\n      add\n      mstore\n      shl(0xc2, 0x08515b98dc9e5c1d)\n      0x44\n      dup3\n      add\n      mstore\n      swap1\n      mload\n      swap1\n      dup2\n      swap1\n      sub\n      0x64\n      add\n      swap1\n      revert\n    tag_255:\n        /* \"contracts-encrypt/distribution/TombRewardPool.sol\":13905:13913  poolInfo */\n      0x02\n        /* \"contracts-encrypt/distribution/TombRewardPool.sol\":13905:13920  poolInfo.length */\n      sload\n        /* \"contracts-encrypt/distribution/TombRewardPool.sol\":13888:13902  uint256 length */\n      0x00\n        /* \"contracts-encrypt/distribution/TombRewardPool.sol\":13935:14113  for (uint256 pid = 0; pid < length; ++pid) {\r... */\n    tag_256:\n        /* \"contracts-encrypt/distribution/TombRewardPool.sol\":13963:13969  length */\n      dup2\n        /* \"contracts-encrypt/distribution/TombRewardPool.sol\":13957:13960  pid */\n      dup2\n        /* \"contracts-encrypt/distribution/TombRewardPool.sol\":13957:13969  pid < length */\n      lt\n        /* \"contracts-encrypt/distribution/TombRewardPool.sol\":13935:14113  for (uint256 pid = 0; pid < length; ++pid) {\r... */\n      iszero\n      tag_257\n      jumpi\n        /* \"contracts-encrypt/distribution/TombRewardPool.sol\":13997:14018  PoolInfo storage pool */\n      0x00\n        /* \"contracts-encrypt/distribution/TombRewardPool.sol\":14021:14029  poolInfo */\n      0x02\n        /* \"contracts-encrypt/distribution/TombRewardPool.sol\":14030:14033  pid */\n      dup3\n        /* \"contracts-encrypt/distribution/TombRewardPool.sol\":14021:14034  poolInfo[pid] */\n      dup2\n      sload\n      dup2\n      lt\n      tag_259\n      jumpi\n      invalid\n    tag_259:\n      0x00\n      swap2\n      dup3\n      mstore\n      0x20\n      swap1\n      swap2\n      keccak256\n      0x05\n      swap1\n      swap2\n      mul\n      add\n        /* \"contracts-encrypt/distribution/TombRewardPool.sol\":14071:14081  pool.token */\n      dup1\n      sload\n        /* \"contracts-encrypt/distribution/TombRewardPool.sol\":14021:14034  poolInfo[pid] */\n      swap1\n      swap2\n      pop\n      sub(shl(0xa0, 0x01), 0x01)\n        /* \"contracts-encrypt/distribution/TombRewardPool.sol\":14061:14081  _token != pool.token */\n      dup8\n      dup2\n      and\n        /* \"contracts-encrypt/distribution/TombRewardPool.sol\":14071:14081  pool.token */\n      swap2\n      and\n        /* \"contracts-encrypt/distribution/TombRewardPool.sol\":14061:14081  _token != pool.token */\n      eq\n      iszero\n        /* \"contracts-encrypt/distribution/TombRewardPool.sol\":14053:14097  require(_token != pool.token, \"!pool.token\") */\n      tag_261\n      jumpi\n      0x40\n      dup1\n      mload\n      shl(0xe5, 0x461bcd)\n      dup2\n      mstore\n      0x20\n      0x04\n      dup3\n      add\n      mstore\n      0x0b\n      0x24\n      dup3\n      add\n      mstore\n      shl(0xa9, 0x10b837b7b6173a37b5b2b7)\n      0x44\n      dup3\n      add\n      mstore\n      swap1\n      mload\n      swap1\n      dup2\n      swap1\n      sub\n      0x64\n      add\n      swap1\n      revert\n    tag_261:\n      pop\n        /* \"contracts-encrypt/distribution/TombRewardPool.sol\":13971:13976  ++pid */\n      0x01\n      add\n        /* \"contracts-encrypt/distribution/TombRewardPool.sol\":13935:14113  for (uint256 pid = 0; pid < length; ++pid) {\r... */\n      jump(tag_256)\n    tag_257:\n      pop\n        /* \"contracts-encrypt/distribution/TombRewardPool.sol\":13691:14124  if (block.timestamp < epochEndTimes[1] + 30 days) {\r... */\n      pop\n    tag_254:\n        /* \"contracts-encrypt/distribution/TombRewardPool.sol\":14134:14165  _token.safeTransfer(to, amount) */\n      tag_262\n      sub(shl(0xa0, 0x01), 0x01)\n        /* \"contracts-encrypt/distribution/TombRewardPool.sol\":14134:14153  _token.safeTransfer */\n      dup5\n      and\n        /* \"contracts-encrypt/distribution/TombRewardPool.sol\":14154:14156  to */\n      dup3\n        /* \"contracts-encrypt/distribution/TombRewardPool.sol\":14158:14164  amount */\n      dup5\n        /* \"contracts-encrypt/distribution/TombRewardPool.sol\":14134:14153  _token.safeTransfer */\n      tag_224\n        /* \"contracts-encrypt/distribution/TombRewardPool.sol\":14134:14165  _token.safeTransfer(to, amount) */\n      jump\t// in\n    tag_262:\n        /* \"contracts-encrypt/distribution/TombRewardPool.sol\":13543:14173  function governanceRecoverUnsupported(\r... */\n      pop\n      pop\n      pop\n      jump\t// out\n        /* \"contracts-encrypt/distribution/TombRewardPool.sol\":558:581  address public operator */\n    tag_73:\n      and(sub(shl(0xa0, 0x01), 0x01), sload(0x00))\n      dup2\n      jump\t// out\n        /* \"contracts-encrypt/distribution/TombRewardPool.sol\":1390:1411  address public _feeTo */\n    tag_75:\n      and(sub(shl(0xa0, 0x01), 0x01), sload(0x04))\n      dup2\n      jump\t// out\n        /* \"contracts-encrypt/distribution/TombRewardPool.sol\":1718:1746  uint256 public poolStartTime */\n    tag_77:\n      sload(0x07)\n      dup2\n      jump\t// out\n        /* \"contracts-encrypt/distribution/TombRewardPool.sol\":8977:9157  function massUpdatePools() public {\r... */\n    tag_79:\n        /* \"contracts-encrypt/distribution/TombRewardPool.sol\":9039:9047  poolInfo */\n      0x02\n        /* \"contracts-encrypt/distribution/TombRewardPool.sol\":9039:9054  poolInfo.length */\n      sload\n        /* \"contracts-encrypt/distribution/TombRewardPool.sol\":9022:9036  uint256 length */\n      0x00\n        /* \"contracts-encrypt/distribution/TombRewardPool.sol\":9065:9150  for (uint256 pid = 0; pid < length; ++pid) {\r... */\n    tag_264:\n        /* \"contracts-encrypt/distribution/TombRewardPool.sol\":9093:9099  length */\n      dup2\n        /* \"contracts-encrypt/distribution/TombRewardPool.sol\":9087:9090  pid */\n      dup2\n        /* \"contracts-encrypt/distribution/TombRewardPool.sol\":9087:9099  pid < length */\n      lt\n        /* \"contracts-encrypt/distribution/TombRewardPool.sol\":9065:9150  for (uint256 pid = 0; pid < length; ++pid) {\r... */\n      iszero\n      tag_265\n      jumpi\n        /* \"contracts-encrypt/distribution/TombRewardPool.sol\":9123:9138  updatePool(pid) */\n      tag_267\n        /* \"contracts-encrypt/distribution/TombRewardPool.sol\":9134:9137  pid */\n      dup2\n        /* \"contracts-encrypt/distribution/TombRewardPool.sol\":9123:9133  updatePool */\n      tag_65\n        /* \"contracts-encrypt/distribution/TombRewardPool.sol\":9123:9138  updatePool(pid) */\n      jump\t// in\n    tag_267:\n        /* \"contracts-encrypt/distribution/TombRewardPool.sol\":9101:9106  ++pid */\n      0x01\n      add\n        /* \"contracts-encrypt/distribution/TombRewardPool.sol\":9065:9150  for (uint256 pid = 0; pid < length; ++pid) {\r... */\n      jump(tag_264)\n    tag_265:\n      pop\n        /* \"contracts-encrypt/distribution/TombRewardPool.sol\":8977:9157  function massUpdatePools() public {\r... */\n      pop\n      jump\t// out\n        /* \"contracts-encrypt/distribution/TombRewardPool.sol\":1469:1533  mapping(uint256 => mapping(address => UserInfo)) public userInfo */\n    tag_82:\n      0x05\n      0x20\n      swap1\n      dup2\n      mstore\n      0x00\n      swap3\n      dup4\n      mstore\n      0x40\n      dup1\n      dup5\n      keccak256\n      swap1\n      swap2\n      mstore\n      swap1\n      dup3\n      mstore\n      swap1\n      keccak256\n      dup1\n      sload\n      0x01\n      swap1\n      swap2\n      add\n      sload\n      dup3\n      jump\t// out\n        /* \"contracts-encrypt/distribution/TombRewardPool.sol\":3977:5290  function add(\r... */\n    tag_85:\n        /* \"contracts-encrypt/distribution/TombRewardPool.sol\":3152:3160  operator */\n      and(sub(shl(0xa0, 0x01), 0x01), sload(0x00))\n        /* \"contracts-encrypt/distribution/TombRewardPool.sol\":3164:3174  msg.sender */\n      caller\n        /* \"contracts-encrypt/distribution/TombRewardPool.sol\":3152:3174  operator == msg.sender */\n      eq\n        /* \"contracts-encrypt/distribution/TombRewardPool.sol\":3130:3247  require(\r... */\n      tag_269\n      jumpi\n      mload(0x40)\n      shl(0xe5, 0x461bcd)\n      dup2\n      mstore\n      0x04\n      add\n      dup1\n      dup1\n      0x20\n      add\n      dup3\n      dup2\n      sub\n      dup3\n      mstore\n      0x2d\n      dup2\n      mstore\n      0x20\n      add\n      dup1\n      data_7c1dc5477764f2dc16434358e98a6732ada1495d31ab07dbde0acff1b13b84d1\n      0x2d\n      swap2\n      codecopy\n      0x40\n      add\n      swap2\n      pop\n      pop\n      mload(0x40)\n      dup1\n      swap2\n      sub\n      swap1\n      revert\n    tag_269:\n        /* \"contracts-encrypt/distribution/TombRewardPool.sol\":4143:4169  checkPoolDuplicate(_token) */\n      tag_271\n        /* \"contracts-encrypt/distribution/TombRewardPool.sol\":4162:4168  _token */\n      dup4\n        /* \"contracts-encrypt/distribution/TombRewardPool.sol\":4143:4161  checkPoolDuplicate */\n      tag_272\n        /* \"contracts-encrypt/distribution/TombRewardPool.sol\":4143:4169  checkPoolDuplicate(_token) */\n      jump\t// in\n    tag_271:\n        /* \"contracts-encrypt/distribution/TombRewardPool.sol\":4184:4195  _withUpdate */\n      dup2\n        /* \"contracts-encrypt/distribution/TombRewardPool.sol\":4180:4241  if (_withUpdate) {\r... */\n      iszero\n      tag_274\n      jumpi\n        /* \"contracts-encrypt/distribution/TombRewardPool.sol\":4212:4229  massUpdatePools() */\n      tag_274\n        /* \"contracts-encrypt/distribution/TombRewardPool.sol\":4212:4227  massUpdatePools */\n      tag_79\n        /* \"contracts-encrypt/distribution/TombRewardPool.sol\":4212:4229  massUpdatePools() */\n      jump\t// in\n    tag_274:\n        /* \"contracts-encrypt/distribution/TombRewardPool.sol\":4273:4286  poolStartTime */\n      sload(0x07)\n        /* \"contracts-encrypt/distribution/TombRewardPool.sol\":4255:4270  block.timestamp */\n      timestamp\n        /* \"contracts-encrypt/distribution/TombRewardPool.sol\":4255:4286  block.timestamp < poolStartTime */\n      lt\n        /* \"contracts-encrypt/distribution/TombRewardPool.sol\":4251:4785  if (block.timestamp < poolStartTime) {\r... */\n      iszero\n      tag_275\n      jumpi\n        /* \"contracts-encrypt/distribution/TombRewardPool.sol\":4340:4360  _lastRewardTime == 0 */\n      dup1\n        /* \"contracts-encrypt/distribution/TombRewardPool.sol\":4336:4579  if (_lastRewardTime == 0) {\r... */\n      tag_276\n      jumpi\n      pop\n        /* \"contracts-encrypt/distribution/TombRewardPool.sol\":4399:4412  poolStartTime */\n      sload(0x07)\n        /* \"contracts-encrypt/distribution/TombRewardPool.sol\":4336:4579  if (_lastRewardTime == 0) {\r... */\n      jump(tag_278)\n    tag_276:\n        /* \"contracts-encrypt/distribution/TombRewardPool.sol\":4475:4488  poolStartTime */\n      sload(0x07)\n        /* \"contracts-encrypt/distribution/TombRewardPool.sol\":4457:4472  _lastRewardTime */\n      dup2\n        /* \"contracts-encrypt/distribution/TombRewardPool.sol\":4457:4488  _lastRewardTime < poolStartTime */\n      lt\n        /* \"contracts-encrypt/distribution/TombRewardPool.sol\":4453:4564  if (_lastRewardTime < poolStartTime) {\r... */\n      iszero\n      tag_278\n      jumpi\n      pop\n        /* \"contracts-encrypt/distribution/TombRewardPool.sol\":4531:4544  poolStartTime */\n      sload(0x07)\n        /* \"contracts-encrypt/distribution/TombRewardPool.sol\":4453:4564  if (_lastRewardTime < poolStartTime) {\r... */\n    tag_278:\n        /* \"contracts-encrypt/distribution/TombRewardPool.sol\":4251:4785  if (block.timestamp < poolStartTime) {\r... */\n      jump(tag_281)\n    tag_275:\n        /* \"contracts-encrypt/distribution/TombRewardPool.sol\":4647:4667  _lastRewardTime == 0 */\n      dup1\n      iszero\n      dup1\n        /* \"contracts-encrypt/distribution/TombRewardPool.sol\":4647:4704  _lastRewardTime == 0 || _lastRewardTime < block.timestamp */\n      tag_280\n      jumpi\n      pop\n        /* \"contracts-encrypt/distribution/TombRewardPool.sol\":4689:4704  block.timestamp */\n      timestamp\n        /* \"contracts-encrypt/distribution/TombRewardPool.sol\":4671:4686  _lastRewardTime */\n      dup2\n        /* \"contracts-encrypt/distribution/TombRewardPool.sol\":4671:4704  _lastRewardTime < block.timestamp */\n      lt\n        /* \"contracts-encrypt/distribution/TombRewardPool.sol\":4647:4704  _lastRewardTime == 0 || _lastRewardTime < block.timestamp */\n    tag_280:\n        /* \"contracts-encrypt/distribution/TombRewardPool.sol\":4643:4774  if (_lastRewardTime == 0 || _lastRewardTime < block.timestamp) {\r... */\n      iszero\n      tag_281\n      jumpi\n      pop\n        /* \"contracts-encrypt/distribution/TombRewardPool.sol\":4743:4758  block.timestamp */\n      timestamp\n        /* \"contracts-encrypt/distribution/TombRewardPool.sol\":4643:4774  if (_lastRewardTime == 0 || _lastRewardTime < block.timestamp) {\r... */\n    tag_281:\n        /* \"contracts-encrypt/distribution/TombRewardPool.sol\":4795:4810  bool _isStarted */\n      0x00\n        /* \"contracts-encrypt/distribution/TombRewardPool.sol\":4833:4846  poolStartTime */\n      sload(0x07)\n        /* \"contracts-encrypt/distribution/TombRewardPool.sol\":4814:4829  _lastRewardTime */\n      dup3\n        /* \"contracts-encrypt/distribution/TombRewardPool.sol\":4814:4846  _lastRewardTime <= poolStartTime */\n      gt\n      iszero\n        /* \"contracts-encrypt/distribution/TombRewardPool.sol\":4813:4900  (_lastRewardTime <= poolStartTime) ||\r... */\n      dup1\n      tag_282\n      jumpi\n      pop\n        /* \"contracts-encrypt/distribution/TombRewardPool.sol\":4884:4899  block.timestamp */\n      timestamp\n        /* \"contracts-encrypt/distribution/TombRewardPool.sol\":4865:4880  _lastRewardTime */\n      dup3\n        /* \"contracts-encrypt/distribution/TombRewardPool.sol\":4865:4899  _lastRewardTime <= block.timestamp */\n      gt\n      iszero\n        /* \"contracts-encrypt/distribution/TombRewardPool.sol\":4813:4900  (_lastRewardTime <= poolStartTime) ||\r... */\n    tag_282:\n        /* \"contracts-encrypt/distribution/TombRewardPool.sol\":4939:5168  PoolInfo({\r... */\n      0x40\n      dup1\n      mload\n      0xa0\n      dup2\n      add\n      dup3\n      mstore\n      sub(shl(0xa0, 0x01), 0x01)\n      dup8\n      dup2\n      and\n      dup3\n      mstore\n      0x20\n      dup3\n      add\n      dup10\n      dup2\n      mstore\n      swap3\n      dup3\n      add\n      dup7\n      dup2\n      mstore\n      0x00\n      0x60\n      dup5\n      add\n      dup2\n      dup2\n      mstore\n      dup7\n      iszero\n      dup1\n      iszero\n      0x80\n      dup8\n      add\n      swap1\n      dup2\n      mstore\n        /* \"contracts-encrypt/distribution/TombRewardPool.sol\":4911:4919  poolInfo */\n      0x02\n        /* \"contracts-encrypt/distribution/TombRewardPool.sol\":4911:5179  poolInfo.push(\r... */\n      dup1\n      sload\n      0x01\n      dup2\n      add\n      dup3\n      sstore\n      swap5\n      mstore\n      swap6\n      mload\n      0x405787fa12a823e0f2b7631cc41b3ba8828b3321ca811111fa75cd3aa3bb5ace\n      0x05\n      swap1\n      swap5\n      mul\n      swap4\n      dup5\n      add\n      dup1\n      sload\n      not(sub(shl(0xa0, 0x01), 0x01))\n      and\n      swap2\n      swap1\n      swap7\n      and\n      or\n      swap1\n      swap5\n      sstore\n      swap5\n      mload\n      0x405787fa12a823e0f2b7631cc41b3ba8828b3321ca811111fa75cd3aa3bb5acf\n      dup3\n      add\n      sstore\n      swap1\n      mload\n      0x405787fa12a823e0f2b7631cc41b3ba8828b3321ca811111fa75cd3aa3bb5ad0\n      dup3\n      add\n      sstore\n      swap3\n      mload\n      0x405787fa12a823e0f2b7631cc41b3ba8828b3321ca811111fa75cd3aa3bb5ad1\n      dup5\n      add\n      sstore\n      swap1\n      mload\n      0x405787fa12a823e0f2b7631cc41b3ba8828b3321ca811111fa75cd3aa3bb5ad2\n      swap1\n      swap3\n      add\n      dup1\n      sload\n      not(0xff)\n      and\n      swap3\n      iszero\n      iszero\n      swap3\n      swap1\n      swap3\n      or\n      swap1\n      swap2\n      sstore\n        /* \"contracts-encrypt/distribution/TombRewardPool.sol\":4939:5168  PoolInfo({\r... */\n      swap1\n      swap2\n      pop\n        /* \"contracts-encrypt/distribution/TombRewardPool.sol\":5190:5283  if (_isStarted) {\r... */\n      tag_284\n      jumpi\n        /* \"contracts-encrypt/distribution/TombRewardPool.sol\":5239:5254  totalAllocPoint */\n      sload(0x06)\n        /* \"contracts-encrypt/distribution/TombRewardPool.sol\":5239:5271  totalAllocPoint.add(_allocPoint) */\n      tag_285\n      swap1\n        /* \"contracts-encrypt/distribution/TombRewardPool.sol\":5259:5270  _allocPoint */\n      dup7\n        /* \"contracts-encrypt/distribution/TombRewardPool.sol\":5239:5258  totalAllocPoint.add */\n      tag_122\n        /* \"contracts-encrypt/distribution/TombRewardPool.sol\":5239:5271  totalAllocPoint.add(_allocPoint) */\n      jump\t// in\n    tag_285:\n        /* \"contracts-encrypt/distribution/TombRewardPool.sol\":5221:5236  totalAllocPoint */\n      0x06\n        /* \"contracts-encrypt/distribution/TombRewardPool.sol\":5221:5271  totalAllocPoint = totalAllocPoint.add(_allocPoint) */\n      sstore\n        /* \"contracts-encrypt/distribution/TombRewardPool.sol\":5190:5283  if (_isStarted) {\r... */\n    tag_284:\n        /* \"contracts-encrypt/distribution/TombRewardPool.sol\":3258:3259  _ */\n      pop\n        /* \"contracts-encrypt/distribution/TombRewardPool.sol\":3977:5290  function add(\r... */\n      pop\n      pop\n      pop\n      pop\n      jump\t// out\n        /* \"contracts-encrypt/distribution/TombRewardPool.sol\":1755:1818  uint256[] public epochTotalRewards = [80000 ether, 60000 ether] */\n    tag_88:\n      0x08\n      dup2\n      dup2\n      sload\n      dup2\n      lt\n      tag_286\n      jumpi\n      invalid\n    tag_286:\n      0x00\n      swap2\n      dup3\n      mstore\n      0x20\n      swap1\n      swap2\n      keccak256\n      add\n      sload\n      swap1\n      pop\n      dup2\n      jump\t// out\n        /* \"contracts-encrypt/distribution/TombRewardPool.sol\":13434:13535  function setOperator(address _operator) external onlyOperator {\r... */\n    tag_91:\n        /* \"contracts-encrypt/distribution/TombRewardPool.sol\":3152:3160  operator */\n      and(sub(shl(0xa0, 0x01), 0x01), sload(0x00))\n        /* \"contracts-encrypt/distribution/TombRewardPool.sol\":3164:3174  msg.sender */\n      caller\n        /* \"contracts-encrypt/distribution/TombRewardPool.sol\":3152:3174  operator == msg.sender */\n      eq\n        /* \"contracts-encrypt/distribution/TombRewardPool.sol\":3130:3247  require(\r... */\n      tag_289\n      jumpi\n      mload(0x40)\n      shl(0xe5, 0x461bcd)\n      dup2\n      mstore\n      0x04\n      add\n      dup1\n      dup1\n      0x20\n      add\n      dup3\n      dup2\n      sub\n      dup3\n      mstore\n      0x2d\n      dup2\n      mstore\n      0x20\n      add\n      dup1\n      data_7c1dc5477764f2dc16434358e98a6732ada1495d31ab07dbde0acff1b13b84d1\n      0x2d\n      swap2\n      codecopy\n      0x40\n      add\n      swap2\n      pop\n      pop\n      mload(0x40)\n      dup1\n      swap2\n      sub\n      swap1\n      revert\n    tag_289:\n        /* \"contracts-encrypt/distribution/TombRewardPool.sol\":13507:13515  operator */\n      0x00\n        /* \"contracts-encrypt/distribution/TombRewardPool.sol\":13507:13527  operator = _operator */\n      dup1\n      sload\n      not(sub(shl(0xa0, 0x01), 0x01))\n      and\n      sub(shl(0xa0, 0x01), 0x01)\n      swap3\n      swap1\n      swap3\n      and\n      swap2\n      swap1\n      swap2\n      or\n      swap1\n      sstore\n        /* \"contracts-encrypt/distribution/TombRewardPool.sol\":13434:13535  function setOperator(address _operator) external onlyOperator {\r... */\n      jump\t// out\n        /* \"contracts-encrypt/distribution/TombRewardPool.sol\":1862:1893  uint256[3] public epochEndTimes */\n    tag_94:\n      0x09\n      dup2\n      0x03\n      dup2\n      lt\n      tag_197\n      jumpi\n      invalid\n        /* \"contracts-encrypt/distribution/TombRewardPool.sol\":1359:1383  uint256 public Fee = 200 */\n    tag_96:\n      sload(0x03)\n      dup2\n      jump\t// out\n        /* \"contracts-encrypt/distribution/TombRewardPool.sol\":2710:3087  function initialize(address _Encrypt) public notInitialized {\r... */\n    tag_99:\n        /* \"contracts-encrypt/distribution/TombRewardPool.sol\":2482:2493  initialized */\n      and(0xff, sload(0x0c))\n        /* \"contracts-encrypt/distribution/TombRewardPool.sol\":2481:2493  !initialized */\n      iszero\n        /* \"contracts-encrypt/distribution/TombRewardPool.sol\":2473:2533  require(!initialized, \"TombRewardPool: already initialized\") */\n      tag_294\n      jumpi\n      mload(0x40)\n      shl(0xe5, 0x461bcd)\n      dup2\n      mstore\n      0x04\n      add\n      dup1\n      dup1\n      0x20\n      add\n      dup3\n      dup2\n      sub\n      dup3\n      mstore\n      0x23\n      dup2\n      mstore\n      0x20\n      add\n      dup1\n      data_3318c1043bcb482184ad1b9bcd5bca682f2d9bdef95c68c7644d528c5378e79e\n      0x23\n      swap2\n      codecopy\n      0x40\n      add\n      swap2\n      pop\n      pop\n      mload(0x40)\n      dup1\n      swap2\n      sub\n      swap1\n      revert\n    tag_294:\n      sub(shl(0xa0, 0x01), 0x01)\n        /* \"contracts-encrypt/distribution/TombRewardPool.sol\":2785:2807  _Encrypt != address(0) */\n      dup2\n      and\n      iszero\n        /* \"contracts-encrypt/distribution/TombRewardPool.sol\":2781:2835  if (_Encrypt != address(0)) Encrypt = IERC20(_Encrypt) */\n      tag_296\n      jumpi\n        /* \"contracts-encrypt/distribution/TombRewardPool.sol\":2809:2816  Encrypt */\n      0x01\n        /* \"contracts-encrypt/distribution/TombRewardPool.sol\":2809:2835  Encrypt = IERC20(_Encrypt) */\n      dup1\n      sload\n      not(sub(shl(0xa0, 0x01), 0x01))\n      and\n      sub(shl(0xa0, 0x01), 0x01)\n      dup4\n      and\n      or\n      swap1\n      sstore\n        /* \"contracts-encrypt/distribution/TombRewardPool.sol\":2781:2835  if (_Encrypt != address(0)) Encrypt = IERC20(_Encrypt) */\n    tag_296:\n        /* \"contracts-encrypt/distribution/TombRewardPool.sol\":2875:2907  epochTotalRewards[0].div(4 days) */\n      tag_297\n        /* \"contracts-encrypt/distribution/TombRewardPool.sol\":2900:2906  4 days */\n      0x054600\n        /* \"contracts-encrypt/distribution/TombRewardPool.sol\":2875:2892  epochTotalRewards */\n      0x08\n        /* \"contracts-encrypt/distribution/TombRewardPool.sol\":2893:2894  0 */\n      0x00\n        /* \"contracts-encrypt/distribution/TombRewardPool.sol\":2875:2895  epochTotalRewards[0] */\n      dup2\n      sload\n      dup2\n      lt\n      tag_298\n      jumpi\n      invalid\n    tag_298:\n      swap1\n      0x00\n      mstore\n      keccak256(0x00, 0x20)\n      add\n      sload\n        /* \"contracts-encrypt/distribution/TombRewardPool.sol\":2875:2899  epochTotalRewards[0].div */\n      tag_118\n      swap1\n        /* \"contracts-encrypt/distribution/TombRewardPool.sol\":2875:2907  epochTotalRewards[0].div(4 days) */\n      swap2\n      swap1\n      0xffffffff\n      and\n      jump\t// in\n    tag_297:\n        /* \"contracts-encrypt/distribution/TombRewardPool.sol\":2848:2869  epochEncryptPerSecond */\n      0x0d\n        /* \"contracts-encrypt/distribution/TombRewardPool.sol\":2848:2907  epochEncryptPerSecond[0] = epochTotalRewards[0].div(4 days) */\n      sstore\n        /* \"contracts-encrypt/distribution/TombRewardPool.sol\":2945:2962  epochTotalRewards */\n      0x08\n        /* \"contracts-encrypt/distribution/TombRewardPool.sol\":2945:2965  epochTotalRewards[1] */\n      dup1\n      sload\n        /* \"contracts-encrypt/distribution/TombRewardPool.sol\":2945:2977  epochTotalRewards[1].div(5 days) */\n      tag_302\n      swap2\n        /* \"contracts-encrypt/distribution/TombRewardPool.sol\":2970:2976  5 days */\n      0x069780\n      swap2\n        /* \"contracts-encrypt/distribution/TombRewardPool.sol\":2963:2964  1 */\n      0x01\n      swap1\n        /* \"contracts-encrypt/distribution/TombRewardPool.sol\":2945:2965  epochTotalRewards[1] */\n      dup2\n      lt\n      tag_298\n      jumpi\n      invalid\n        /* \"contracts-encrypt/distribution/TombRewardPool.sol\":2945:2977  epochTotalRewards[1].div(5 days) */\n    tag_302:\n        /* \"contracts-encrypt/distribution/TombRewardPool.sol\":2918:2942  epochEncryptPerSecond[1] */\n      0x0e\n        /* \"contracts-encrypt/distribution/TombRewardPool.sol\":2918:2977  epochEncryptPerSecond[1] = epochTotalRewards[1].div(5 days) */\n      sstore\n      pop\n        /* \"contracts-encrypt/distribution/TombRewardPool.sol\":3017:3018  0 */\n      0x00\n        /* \"contracts-encrypt/distribution/TombRewardPool.sol\":2990:3014  epochEncryptPerSecond[2] */\n      0x0f\n        /* \"contracts-encrypt/distribution/TombRewardPool.sol\":2990:3018  epochEncryptPerSecond[2] = 0 */\n      dup2\n      swap1\n      sstore\n        /* \"contracts-encrypt/distribution/TombRewardPool.sol\":3029:3050  operator = msg.sender */\n      dup1\n      sload\n      not(sub(shl(0xa0, 0x01), 0x01))\n      and\n        /* \"contracts-encrypt/distribution/TombRewardPool.sol\":3040:3050  msg.sender */\n      caller\n        /* \"contracts-encrypt/distribution/TombRewardPool.sol\":3029:3050  operator = msg.sender */\n      or\n      swap1\n      sstore\n        /* \"contracts-encrypt/distribution/TombRewardPool.sol\":3061:3072  initialized */\n      0x0c\n        /* \"contracts-encrypt/distribution/TombRewardPool.sol\":3061:3079  initialized = true */\n      dup1\n      sload\n      not(0xff)\n      and\n      0x01\n      or\n      swap1\n      sstore\n        /* \"contracts-encrypt/distribution/TombRewardPool.sol\":2710:3087  function initialize(address _Encrypt) public notInitialized {\r... */\n      jump\t// out\n        /* \"contracts-encrypt/distribution/TombRewardPool.sol\":10521:11574  function deposit(uint256 _pid, uint256 _amount) public {\r... */\n    tag_102:\n        /* \"contracts-encrypt/distribution/TombRewardPool.sol\":10605:10615  msg.sender */\n      caller\n        /* \"contracts-encrypt/distribution/TombRewardPool.sol\":10587:10602  address _sender */\n      0x00\n        /* \"contracts-encrypt/distribution/TombRewardPool.sol\":10641:10655  _fees(_amount) */\n      tag_310\n        /* \"contracts-encrypt/distribution/TombRewardPool.sol\":10647:10654  _amount */\n      dup4\n        /* \"contracts-encrypt/distribution/TombRewardPool.sol\":10641:10646  _fees */\n      tag_311\n        /* \"contracts-encrypt/distribution/TombRewardPool.sol\":10641:10655  _fees(_amount) */\n      jump\t// in\n    tag_310:\n        /* \"contracts-encrypt/distribution/TombRewardPool.sol\":10626:10655  uint256 _fee = _fees(_amount) */\n      swap1\n      pop\n        /* \"contracts-encrypt/distribution/TombRewardPool.sol\":10666:10684  uint256 _newAmount */\n      0x00\n        /* \"contracts-encrypt/distribution/TombRewardPool.sol\":10687:10704  _amount.sub(_fee) */\n      tag_312\n        /* \"contracts-encrypt/distribution/TombRewardPool.sol\":10687:10694  _amount */\n      dup5\n        /* \"contracts-encrypt/distribution/TombRewardPool.sol\":10626:10655  uint256 _fee = _fees(_amount) */\n      dup4\n        /* \"contracts-encrypt/distribution/TombRewardPool.sol\":10687:10698  _amount.sub */\n      tag_126\n        /* \"contracts-encrypt/distribution/TombRewardPool.sol\":10687:10704  _amount.sub(_fee) */\n      jump\t// in\n    tag_312:\n        /* \"contracts-encrypt/distribution/TombRewardPool.sol\":10666:10704  uint256 _newAmount = _amount.sub(_fee) */\n      swap1\n      pop\n        /* \"contracts-encrypt/distribution/TombRewardPool.sol\":10717:10738  PoolInfo storage pool */\n      0x00\n        /* \"contracts-encrypt/distribution/TombRewardPool.sol\":10741:10749  poolInfo */\n      0x02\n        /* \"contracts-encrypt/distribution/TombRewardPool.sol\":10750:10754  _pid */\n      dup7\n        /* \"contracts-encrypt/distribution/TombRewardPool.sol\":10741:10755  poolInfo[_pid] */\n      dup2\n      sload\n      dup2\n      lt\n      tag_313\n      jumpi\n      invalid\n    tag_313:\n      0x00\n      swap2\n      dup3\n      mstore\n      0x20\n      dup1\n      dup4\n      keccak256\n        /* \"contracts-encrypt/distribution/TombRewardPool.sol\":10790:10804  userInfo[_pid] */\n      dup10\n      dup5\n      mstore\n        /* \"contracts-encrypt/distribution/TombRewardPool.sol\":10741:10755  poolInfo[_pid] */\n      0x05\n        /* \"contracts-encrypt/distribution/TombRewardPool.sol\":10790:10804  userInfo[_pid] */\n      dup1\n      dup4\n      mstore\n      0x40\n      dup1\n      dup7\n      keccak256\n      sub(shl(0xa0, 0x01), 0x01)\n        /* \"contracts-encrypt/distribution/TombRewardPool.sol\":10790:10813  userInfo[_pid][_sender] */\n      dup12\n      and\n      dup8\n      mstore\n      swap1\n      swap4\n      mstore\n      swap2\n      swap1\n      swap4\n      keccak256\n        /* \"contracts-encrypt/distribution/TombRewardPool.sol\":10741:10755  poolInfo[_pid] */\n      swap2\n      mul\n      swap1\n      swap2\n      add\n      swap2\n      pop\n        /* \"contracts-encrypt/distribution/TombRewardPool.sol\":10824:10840  updatePool(_pid) */\n      tag_315\n        /* \"contracts-encrypt/distribution/TombRewardPool.sol\":10799:10803  _pid */\n      dup8\n        /* \"contracts-encrypt/distribution/TombRewardPool.sol\":10824:10834  updatePool */\n      tag_65\n        /* \"contracts-encrypt/distribution/TombRewardPool.sol\":10824:10840  updatePool(_pid) */\n      jump\t// in\n    tag_315:\n        /* \"contracts-encrypt/distribution/TombRewardPool.sol\":10855:10866  user.amount */\n      dup1\n      sload\n        /* \"contracts-encrypt/distribution/TombRewardPool.sol\":10855:10870  user.amount > 0 */\n      iszero\n        /* \"contracts-encrypt/distribution/TombRewardPool.sol\":10851:11219  if (user.amount > 0) {\r... */\n      tag_316\n      jumpi\n        /* \"contracts-encrypt/distribution/TombRewardPool.sol\":10887:10903  uint256 _pending */\n      0x00\n        /* \"contracts-encrypt/distribution/TombRewardPool.sol\":10906:11049  user\r... */\n      tag_317\n        /* \"contracts-encrypt/distribution/TombRewardPool.sol\":11033:11037  user */\n      dup3\n        /* \"contracts-encrypt/distribution/TombRewardPool.sol\":11033:11048  user.rewardDebt */\n      0x01\n      add\n      sload\n        /* \"contracts-encrypt/distribution/TombRewardPool.sol\":10906:11010  user\r... */\n      tag_124\n        /* \"contracts-encrypt/distribution/TombRewardPool.sol\":11005:11009  1e18 */\n      0x0de0b6b3a7640000\n        /* \"contracts-encrypt/distribution/TombRewardPool.sol\":10906:10982  user\r... */\n      tag_116\n        /* \"contracts-encrypt/distribution/TombRewardPool.sol\":10958:10962  pool */\n      dup8\n        /* \"contracts-encrypt/distribution/TombRewardPool.sol\":10958:10981  pool.accEncryptPerShare */\n      0x03\n      add\n      sload\n        /* \"contracts-encrypt/distribution/TombRewardPool.sol\":10906:10910  user */\n      dup8\n        /* \"contracts-encrypt/distribution/TombRewardPool.sol\":10906:10935  user\r... */\n      0x00\n      add\n      sload\n        /* \"contracts-encrypt/distribution/TombRewardPool.sol\":10906:10957  user\r... */\n      tag_117\n      swap1\n        /* \"contracts-encrypt/distribution/TombRewardPool.sol\":10906:10982  user\r... */\n      swap2\n      swap1\n      0xffffffff\n      and\n      jump\t// in\n        /* \"contracts-encrypt/distribution/TombRewardPool.sol\":10906:11049  user\r... */\n    tag_317:\n        /* \"contracts-encrypt/distribution/TombRewardPool.sol\":10887:11049  uint256 _pending = user\r... */\n      swap1\n      pop\n        /* \"contracts-encrypt/distribution/TombRewardPool.sol\":11068:11080  _pending > 0 */\n      dup1\n      iszero\n        /* \"contracts-encrypt/distribution/TombRewardPool.sol\":11064:11208  if (_pending > 0) {\r... */\n      tag_320\n      jumpi\n        /* \"contracts-encrypt/distribution/TombRewardPool.sol\":11101:11139  safeEncryptTransfer(_sender, _pending) */\n      tag_321\n        /* \"contracts-encrypt/distribution/TombRewardPool.sol\":11121:11128  _sender */\n      dup7\n        /* \"contracts-encrypt/distribution/TombRewardPool.sol\":11130:11138  _pending */\n      dup3\n        /* \"contracts-encrypt/distribution/TombRewardPool.sol\":11101:11120  safeEncryptTransfer */\n      tag_220\n        /* \"contracts-encrypt/distribution/TombRewardPool.sol\":11101:11139  safeEncryptTransfer(_sender, _pending) */\n      jump\t// in\n    tag_321:\n        /* \"contracts-encrypt/distribution/TombRewardPool.sol\":11163:11192  RewardPaid(_sender, _pending) */\n      0x40\n      dup1\n      mload\n      dup3\n      dup2\n      mstore\n      swap1\n      mload\n      sub(shl(0xa0, 0x01), 0x01)\n      dup9\n      and\n      swap2\n      0xe2403640ba68fed3a2f88b7557551d1993f84b99bb10ff833f0cf8db0c5e0486\n      swap2\n      swap1\n      dup2\n      swap1\n      sub\n      0x20\n      add\n      swap1\n      log2\n        /* \"contracts-encrypt/distribution/TombRewardPool.sol\":11064:11208  if (_pending > 0) {\r... */\n    tag_320:\n        /* \"contracts-encrypt/distribution/TombRewardPool.sol\":10851:11219  if (user.amount > 0) {\r... */\n      pop\n    tag_316:\n        /* \"contracts-encrypt/distribution/TombRewardPool.sol\":11233:11244  _amount > 0 */\n      dup6\n      iszero\n        /* \"contracts-encrypt/distribution/TombRewardPool.sol\":11229:11441  if (_amount > 0) {\r... */\n      tag_326\n      jumpi\n        /* \"contracts-encrypt/distribution/TombRewardPool.sol\":11261:11271  pool.token */\n      dup2\n      sload\n        /* \"contracts-encrypt/distribution/TombRewardPool.sol\":11261:11321  pool.token.safeTransferFrom(_sender, address(this), _amount) */\n      tag_323\n      swap1\n      sub(shl(0xa0, 0x01), 0x01)\n        /* \"contracts-encrypt/distribution/TombRewardPool.sol\":11261:11271  pool.token */\n      and\n        /* \"contracts-encrypt/distribution/TombRewardPool.sol\":11289:11296  _sender */\n      dup7\n        /* \"contracts-encrypt/distribution/TombRewardPool.sol\":11306:11310  this */\n      address\n        /* \"contracts-encrypt/distribution/TombRewardPool.sol\":11313:11320  _amount */\n      dup10\n        /* \"contracts-encrypt/distribution/TombRewardPool.sol\":11261:11288  pool.token.safeTransferFrom */\n      tag_324\n        /* \"contracts-encrypt/distribution/TombRewardPool.sol\":11261:11321  pool.token.safeTransferFrom(_sender, address(this), _amount) */\n      jump\t// in\n    tag_323:\n        /* \"contracts-encrypt/distribution/TombRewardPool.sol\":11350:11361  user.amount */\n      dup1\n      sload\n        /* \"contracts-encrypt/distribution/TombRewardPool.sol\":11350:11377  user.amount.add(_newAmount) */\n      tag_325\n      swap1\n        /* \"contracts-encrypt/distribution/TombRewardPool.sol\":11366:11376  _newAmount */\n      dup5\n        /* \"contracts-encrypt/distribution/TombRewardPool.sol\":11350:11365  user.amount.add */\n      tag_122\n        /* \"contracts-encrypt/distribution/TombRewardPool.sol\":11350:11377  user.amount.add(_newAmount) */\n      jump\t// in\n    tag_325:\n        /* \"contracts-encrypt/distribution/TombRewardPool.sol\":11336:11377  user.amount = user.amount.add(_newAmount) */\n      dup2\n      sstore\n        /* \"contracts-encrypt/distribution/TombRewardPool.sol\":11416:11422  _feeTo */\n      sload(0x04)\n        /* \"contracts-encrypt/distribution/TombRewardPool.sol\":11392:11402  pool.token */\n      dup3\n      sload\n        /* \"contracts-encrypt/distribution/TombRewardPool.sol\":11392:11429  pool.token.safeTransfer(_feeTo, _fee) */\n      tag_326\n      swap2\n      sub(shl(0xa0, 0x01), 0x01)\n        /* \"contracts-encrypt/distribution/TombRewardPool.sol\":11392:11402  pool.token */\n      swap2\n      dup3\n      and\n      swap2\n        /* \"contracts-encrypt/distribution/TombRewardPool.sol\":11416:11422  _feeTo */\n      and\n        /* \"contracts-encrypt/distribution/TombRewardPool.sol\":11424:11428  _fee */\n      dup7\n        /* \"contracts-encrypt/distribution/TombRewardPool.sol\":11392:11415  pool.token.safeTransfer */\n      tag_224\n        /* \"contracts-encrypt/distribution/TombRewardPool.sol\":11392:11429  pool.token.safeTransfer(_feeTo, _fee) */\n      jump\t// in\n    tag_326:\n        /* \"contracts-encrypt/distribution/TombRewardPool.sol\":11485:11508  pool.accEncryptPerShare */\n      0x03\n      dup3\n      add\n      sload\n        /* \"contracts-encrypt/distribution/TombRewardPool.sol\":11469:11480  user.amount */\n      dup2\n      sload\n        /* \"contracts-encrypt/distribution/TombRewardPool.sol\":11469:11519  user.amount.mul(pool.accEncryptPerShare).div(1e18) */\n      tag_327\n      swap2\n        /* \"contracts-encrypt/distribution/TombRewardPool.sol\":11514:11518  1e18 */\n      0x0de0b6b3a7640000\n      swap2\n        /* \"contracts-encrypt/distribution/TombRewardPool.sol\":11469:11509  user.amount.mul(pool.accEncryptPerShare) */\n      tag_116\n      swap2\n        /* \"contracts-encrypt/distribution/TombRewardPool.sol\":11469:11484  user.amount.mul */\n      tag_117\n        /* \"contracts-encrypt/distribution/TombRewardPool.sol\":11469:11509  user.amount.mul(pool.accEncryptPerShare) */\n      jump\t// in\n        /* \"contracts-encrypt/distribution/TombRewardPool.sol\":11469:11519  user.amount.mul(pool.accEncryptPerShare).div(1e18) */\n    tag_327:\n        /* \"contracts-encrypt/distribution/TombRewardPool.sol\":11451:11466  user.rewardDebt */\n      0x01\n      dup3\n      add\n        /* \"contracts-encrypt/distribution/TombRewardPool.sol\":11451:11519  user.rewardDebt = user.amount.mul(pool.accEncryptPerShare).div(1e18) */\n      sstore\n        /* \"contracts-encrypt/distribution/TombRewardPool.sol\":11535:11566  Deposit(_sender, _pid, _amount) */\n      0x40\n      dup1\n      mload\n      dup8\n      dup2\n      mstore\n      swap1\n      mload\n        /* \"contracts-encrypt/distribution/TombRewardPool.sol\":11552:11556  _pid */\n      dup9\n      swap2\n      sub(shl(0xa0, 0x01), 0x01)\n        /* \"contracts-encrypt/distribution/TombRewardPool.sol\":11535:11566  Deposit(_sender, _pid, _amount) */\n      dup9\n      and\n      swap2\n      0x90890809c654f11d6e72a28fa60149770a0d11ec6c92319d6ceb2bb0a4ea1a15\n      swap2\n      dup2\n      swap1\n      sub\n      0x20\n      add\n      swap1\n      log3\n        /* \"contracts-encrypt/distribution/TombRewardPool.sol\":10521:11574  function deposit(uint256 _pid, uint256 _amount) public {\r... */\n      pop\n      pop\n      pop\n      pop\n      pop\n      pop\n      pop\n      jump\t// out\n        /* \"@openzeppelin/contracts/utils/math/SafeMath.sol\":3538:3753  function mul(uint256 a, uint256 b) internal pure returns (uint256) {... */\n    tag_117:\n        /* \"@openzeppelin/contracts/utils/math/SafeMath.sol\":3596:3603  uint256 */\n      0x00\n        /* \"@openzeppelin/contracts/utils/math/SafeMath.sol\":3619:3625  a == 0 */\n      dup3\n        /* \"@openzeppelin/contracts/utils/math/SafeMath.sol\":3615:3635  if (a == 0) return 0 */\n      tag_330\n      jumpi\n      pop\n        /* \"@openzeppelin/contracts/utils/math/SafeMath.sol\":3634:3635  0 */\n      0x00\n        /* \"@openzeppelin/contracts/utils/math/SafeMath.sol\":3627:3635  return 0 */\n      jump(tag_105)\n        /* \"@openzeppelin/contracts/utils/math/SafeMath.sol\":3615:3635  if (a == 0) return 0 */\n    tag_330:\n        /* \"@openzeppelin/contracts/utils/math/SafeMath.sol\":3657:3662  a * b */\n      dup3\n      dup3\n      mul\n        /* \"@openzeppelin/contracts/utils/math/SafeMath.sol\":3661:3662  b */\n      dup3\n        /* \"@openzeppelin/contracts/utils/math/SafeMath.sol\":3657:3658  a */\n      dup5\n        /* \"@openzeppelin/contracts/utils/math/SafeMath.sol\":3657:3662  a * b */\n      dup3\n        /* \"@openzeppelin/contracts/utils/math/SafeMath.sol\":3657:3658  a */\n      dup2\n        /* \"@openzeppelin/contracts/utils/math/SafeMath.sol\":3680:3685  c / a */\n      tag_331\n      jumpi\n      invalid\n    tag_331:\n      div\n        /* \"@openzeppelin/contracts/utils/math/SafeMath.sol\":3680:3690  c / a == b */\n      eq\n        /* \"@openzeppelin/contracts/utils/math/SafeMath.sol\":3672:3728  require(c / a == b, \"SafeMath: multiplication overflow\") */\n      tag_193\n      jumpi\n      mload(0x40)\n      shl(0xe5, 0x461bcd)\n      dup2\n      mstore\n      0x04\n      add\n      dup1\n      dup1\n      0x20\n      add\n      dup3\n      dup2\n      sub\n      dup3\n      mstore\n      0x21\n      dup2\n      mstore\n      0x20\n      add\n      dup1\n      data_9113bb53c2876a3805b2c9242029423fc540a728243ce887ab24c82cf119fba3\n      0x21\n      swap2\n      codecopy\n      0x40\n      add\n      swap2\n      pop\n      pop\n      mload(0x40)\n      dup1\n      swap2\n      sub\n      swap1\n      revert\n        /* \"@openzeppelin/contracts/utils/math/SafeMath.sol\":4217:4367  function div(uint256 a, uint256 b) internal pure returns (uint256) {... */\n    tag_118:\n        /* \"@openzeppelin/contracts/utils/math/SafeMath.sol\":4275:4282  uint256 */\n      0x00\n        /* \"@openzeppelin/contracts/utils/math/SafeMath.sol\":4306:4307  0 */\n      dup1\n        /* \"@openzeppelin/contracts/utils/math/SafeMath.sol\":4302:4303  b */\n      dup3\n        /* \"@openzeppelin/contracts/utils/math/SafeMath.sol\":4302:4307  b > 0 */\n      gt\n        /* \"@openzeppelin/contracts/utils/math/SafeMath.sol\":4294:4338  require(b > 0, \"SafeMath: division by zero\") */\n      tag_334\n      jumpi\n      0x40\n      dup1\n      mload\n      shl(0xe5, 0x461bcd)\n      dup2\n      mstore\n      0x20\n      0x04\n      dup3\n      add\n      mstore\n      0x1a\n      0x24\n      dup3\n      add\n      mstore\n      0x536166654d6174683a206469766973696f6e206279207a65726f000000000000\n      0x44\n      dup3\n      add\n      mstore\n      swap1\n      mload\n      swap1\n      dup2\n      swap1\n      sub\n      0x64\n      add\n      swap1\n      revert\n    tag_334:\n        /* \"@openzeppelin/contracts/utils/math/SafeMath.sol\":4359:4360  b */\n      dup2\n        /* \"@openzeppelin/contracts/utils/math/SafeMath.sol\":4355:4356  a */\n      dup4\n        /* \"@openzeppelin/contracts/utils/math/SafeMath.sol\":4355:4360  a / b */\n      dup2\n      tag_335\n      jumpi\n      invalid\n    tag_335:\n      div\n      swap4\n        /* \"@openzeppelin/contracts/utils/math/SafeMath.sol\":4217:4367  function div(uint256 a, uint256 b) internal pure returns (uint256) {... */\n      swap3\n      pop\n      pop\n      pop\n      jump\t// out\n        /* \"@openzeppelin/contracts/utils/math/SafeMath.sol\":2690:2865  function add(uint256 a, uint256 b) internal pure returns (uint256) {... */\n    tag_122:\n        /* \"@openzeppelin/contracts/utils/math/SafeMath.sol\":2748:2755  uint256 */\n      0x00\n        /* \"@openzeppelin/contracts/utils/math/SafeMath.sol\":2779:2784  a + b */\n      dup3\n      dup3\n      add\n        /* \"@openzeppelin/contracts/utils/math/SafeMath.sol\":2802:2808  c >= a */\n      dup4\n      dup2\n      lt\n      iszero\n        /* \"@openzeppelin/contracts/utils/math/SafeMath.sol\":2794:2840  require(c >= a, \"SafeMath: addition overflow\") */\n      tag_193\n      jumpi\n      0x40\n      dup1\n      mload\n      shl(0xe5, 0x461bcd)\n      dup2\n      mstore\n      0x20\n      0x04\n      dup3\n      add\n      mstore\n      0x1b\n      0x24\n      dup3\n      add\n      mstore\n      0x536166654d6174683a206164646974696f6e206f766572666c6f770000000000\n      0x44\n      dup3\n      add\n      mstore\n      swap1\n      mload\n      swap1\n      dup2\n      swap1\n      sub\n      0x64\n      add\n      swap1\n      revert\n        /* \"@openzeppelin/contracts/utils/math/SafeMath.sol\":3136:3291  function sub(uint256 a, uint256 b) internal pure returns (uint256) {... */\n    tag_126:\n        /* \"@openzeppelin/contracts/utils/math/SafeMath.sol\":3194:3201  uint256 */\n      0x00\n        /* \"@openzeppelin/contracts/utils/math/SafeMath.sol\":3226:3227  a */\n      dup3\n        /* \"@openzeppelin/contracts/utils/math/SafeMath.sol\":3221:3222  b */\n      dup3\n        /* \"@openzeppelin/contracts/utils/math/SafeMath.sol\":3221:3227  b <= a */\n      gt\n      iszero\n        /* \"@openzeppelin/contracts/utils/math/SafeMath.sol\":3213:3262  require(b <= a, \"SafeMath: subtraction overflow\") */\n      tag_339\n      jumpi\n      0x40\n      dup1\n      mload\n      shl(0xe5, 0x461bcd)\n      dup2\n      mstore\n      0x20\n      0x04\n      dup3\n      add\n      mstore\n      0x1e\n      0x24\n      dup3\n      add\n      mstore\n      0x536166654d6174683a207375627472616374696f6e206f766572666c6f770000\n      0x44\n      dup3\n      add\n      mstore\n      swap1\n      mload\n      swap1\n      dup2\n      swap1\n      sub\n      0x64\n      add\n      swap1\n      revert\n    tag_339:\n      pop\n        /* \"@openzeppelin/contracts/utils/math/SafeMath.sol\":3279:3284  a - b */\n      swap1\n      sub\n      swap1\n        /* \"@openzeppelin/contracts/utils/math/SafeMath.sol\":3136:3291  function sub(uint256 a, uint256 b) internal pure returns (uint256) {... */\n      jump\t// out\n        /* \"contracts-encrypt/distribution/TombRewardPool.sol\":13053:13426  function safeEncryptTransfer(address _to, uint256 _amount) internal {\r... */\n    tag_220:\n        /* \"contracts-encrypt/distribution/TombRewardPool.sol\":13154:13161  Encrypt */\n      sload(0x01)\n        /* \"contracts-encrypt/distribution/TombRewardPool.sol\":13154:13186  Encrypt.balanceOf(address(this)) */\n      0x40\n      dup1\n      mload\n      shl(0xe0, 0x70a08231)\n      dup2\n      mstore\n        /* \"contracts-encrypt/distribution/TombRewardPool.sol\":13180:13184  this */\n      address\n        /* \"contracts-encrypt/distribution/TombRewardPool.sol\":13154:13186  Encrypt.balanceOf(address(this)) */\n      0x04\n      dup3\n      add\n      mstore\n      swap1\n      mload\n        /* \"contracts-encrypt/distribution/TombRewardPool.sol\":13132:13151  uint256 _EncryptBal */\n      0x00\n      swap3\n      sub(shl(0xa0, 0x01), 0x01)\n        /* \"contracts-encrypt/distribution/TombRewardPool.sol\":13154:13161  Encrypt */\n      and\n      swap2\n        /* \"contracts-encrypt/distribution/TombRewardPool.sol\":13154:13171  Encrypt.balanceOf */\n      0x70a08231\n      swap2\n        /* \"contracts-encrypt/distribution/TombRewardPool.sol\":13154:13186  Encrypt.balanceOf(address(this)) */\n      0x24\n      dup1\n      dup4\n      add\n      swap3\n      0x20\n      swap3\n      swap2\n      swap1\n      dup3\n      swap1\n      sub\n      add\n      dup2\n        /* \"contracts-encrypt/distribution/TombRewardPool.sol\":13154:13161  Encrypt */\n      dup7\n        /* \"contracts-encrypt/distribution/TombRewardPool.sol\":13154:13186  Encrypt.balanceOf(address(this)) */\n      dup1\n      extcodesize\n      iszero\n      dup1\n      iszero\n      tag_341\n      jumpi\n      0x00\n      dup1\n      revert\n    tag_341:\n      pop\n      gas\n      staticcall\n      iszero\n      dup1\n      iszero\n      tag_343\n      jumpi\n      returndatasize\n      0x00\n      dup1\n      returndatacopy\n      revert(0x00, returndatasize)\n    tag_343:\n      pop\n      pop\n      pop\n      pop\n      mload(0x40)\n      returndatasize\n      0x20\n      dup2\n      lt\n      iszero\n      tag_344\n      jumpi\n      0x00\n      dup1\n      revert\n    tag_344:\n      pop\n      mload\n      swap1\n      pop\n        /* \"contracts-encrypt/distribution/TombRewardPool.sol\":13201:13216  _EncryptBal > 0 */\n      dup1\n      iszero\n        /* \"contracts-encrypt/distribution/TombRewardPool.sol\":13197:13419  if (_EncryptBal > 0) {\r... */\n      tag_262\n      jumpi\n        /* \"contracts-encrypt/distribution/TombRewardPool.sol\":13247:13258  _EncryptBal */\n      dup1\n        /* \"contracts-encrypt/distribution/TombRewardPool.sol\":13237:13244  _amount */\n      dup3\n        /* \"contracts-encrypt/distribution/TombRewardPool.sol\":13237:13258  _amount > _EncryptBal */\n      gt\n        /* \"contracts-encrypt/distribution/TombRewardPool.sol\":13233:13408  if (_amount > _EncryptBal) {\r... */\n      iszero\n      tag_346\n      jumpi\n        /* \"contracts-encrypt/distribution/TombRewardPool.sol\":13279:13286  Encrypt */\n      sload(0x01)\n        /* \"contracts-encrypt/distribution/TombRewardPool.sol\":13279:13317  Encrypt.safeTransfer(_to, _EncryptBal) */\n      tag_347\n      swap1\n      sub(shl(0xa0, 0x01), 0x01)\n        /* \"contracts-encrypt/distribution/TombRewardPool.sol\":13279:13286  Encrypt */\n      and\n        /* \"contracts-encrypt/distribution/TombRewardPool.sol\":13300:13303  _to */\n      dup5\n        /* \"contracts-encrypt/distribution/TombRewardPool.sol\":13305:13316  _EncryptBal */\n      dup4\n        /* \"contracts-encrypt/distribution/TombRewardPool.sol\":13279:13299  Encrypt.safeTransfer */\n      tag_224\n        /* \"contracts-encrypt/distribution/TombRewardPool.sol\":13279:13317  Encrypt.safeTransfer(_to, _EncryptBal) */\n      jump\t// in\n    tag_347:\n        /* \"contracts-encrypt/distribution/TombRewardPool.sol\":13233:13408  if (_amount > _EncryptBal) {\r... */\n      jump(tag_262)\n    tag_346:\n        /* \"contracts-encrypt/distribution/TombRewardPool.sol\":13358:13365  Encrypt */\n      sload(0x01)\n        /* \"contracts-encrypt/distribution/TombRewardPool.sol\":13358:13392  Encrypt.safeTransfer(_to, _amount) */\n      tag_262\n      swap1\n      sub(shl(0xa0, 0x01), 0x01)\n        /* \"contracts-encrypt/distribution/TombRewardPool.sol\":13358:13365  Encrypt */\n      and\n        /* \"contracts-encrypt/distribution/TombRewardPool.sol\":13379:13382  _to */\n      dup5\n        /* \"contracts-encrypt/distribution/TombRewardPool.sol\":13384:13391  _amount */\n      dup5\n        /* \"@openzeppelin/contracts/token/ERC20/utils/SafeERC20.sol\":717:892  function safeTransfer(IERC20 token, address to, uint256 value) internal {... */\n    tag_224:\n        /* \"@openzeppelin/contracts/token/ERC20/utils/SafeERC20.sol\":826:884  abi.encodeWithSelector(token.transfer.selector, to, value) */\n      0x40\n      dup1\n      mload\n      sub(shl(0xa0, 0x01), 0x01)\n      dup5\n      and\n      0x24\n      dup3\n      add\n      mstore\n      0x44\n      dup1\n      dup3\n      add\n      dup5\n      swap1\n      mstore\n      dup3\n      mload\n      dup1\n      dup4\n      sub\n      swap1\n      swap2\n      add\n      dup2\n      mstore\n      0x64\n      swap1\n      swap2\n      add\n      swap1\n      swap2\n      mstore\n      0x20\n      dup2\n      add\n      dup1\n      mload\n      sub(shl(0xe0, 0x01), 0x01)\n      and\n      shl(0xe0, 0xa9059cbb)\n      or\n      swap1\n      mstore\n        /* \"@openzeppelin/contracts/token/ERC20/utils/SafeERC20.sol\":799:885  _callOptionalReturn(token, abi.encodeWithSelector(token.transfer.selector, to, value)) */\n      tag_262\n      swap1\n        /* \"@openzeppelin/contracts/token/ERC20/utils/SafeERC20.sol\":819:824  token */\n      dup5\n      swap1\n        /* \"@openzeppelin/contracts/token/ERC20/utils/SafeERC20.sol\":799:818  _callOptionalReturn */\n      tag_352\n        /* \"@openzeppelin/contracts/token/ERC20/utils/SafeERC20.sol\":799:885  _callOptionalReturn(token, abi.encodeWithSelector(token.transfer.selector, to, value)) */\n      jump\t// in\n        /* \"contracts-encrypt/distribution/TombRewardPool.sol\":3275:3587  function checkPoolDuplicate(IERC20 _token) internal view {\r... */\n    tag_272:\n        /* \"contracts-encrypt/distribution/TombRewardPool.sol\":3360:3368  poolInfo */\n      0x02\n        /* \"contracts-encrypt/distribution/TombRewardPool.sol\":3360:3375  poolInfo.length */\n      sload\n        /* \"contracts-encrypt/distribution/TombRewardPool.sol\":3343:3357  uint256 length */\n      0x00\n        /* \"contracts-encrypt/distribution/TombRewardPool.sol\":3386:3580  for (uint256 pid = 0; pid < length; ++pid) {\r... */\n    tag_354:\n        /* \"contracts-encrypt/distribution/TombRewardPool.sol\":3414:3420  length */\n      dup2\n        /* \"contracts-encrypt/distribution/TombRewardPool.sol\":3408:3411  pid */\n      dup2\n        /* \"contracts-encrypt/distribution/TombRewardPool.sol\":3408:3420  pid < length */\n      lt\n        /* \"contracts-encrypt/distribution/TombRewardPool.sol\":3386:3580  for (uint256 pid = 0; pid < length; ++pid) {\r... */\n      iszero\n      tag_262\n      jumpi\n        /* \"contracts-encrypt/distribution/TombRewardPool.sol\":3493:3499  _token */\n      dup3\n      sub(shl(0xa0, 0x01), 0x01)\n        /* \"contracts-encrypt/distribution/TombRewardPool.sol\":3470:3499  poolInfo[pid].token != _token */\n      and\n        /* \"contracts-encrypt/distribution/TombRewardPool.sol\":3470:3478  poolInfo */\n      0x02\n        /* \"contracts-encrypt/distribution/TombRewardPool.sol\":3479:3482  pid */\n      dup3\n        /* \"contracts-encrypt/distribution/TombRewardPool.sol\":3470:3483  poolInfo[pid] */\n      dup2\n      sload\n      dup2\n      lt\n      tag_357\n      jumpi\n      invalid\n    tag_357:\n      0x00\n      swap2\n      dup3\n      mstore\n      0x20\n      swap1\n      swap2\n      keccak256\n      0x05\n      swap1\n      swap2\n      mul\n      add\n        /* \"contracts-encrypt/distribution/TombRewardPool.sol\":3470:3489  poolInfo[pid].token */\n      sload\n      sub(shl(0xa0, 0x01), 0x01)\n      and\n        /* \"contracts-encrypt/distribution/TombRewardPool.sol\":3470:3499  poolInfo[pid].token != _token */\n      eq\n      iszero\n        /* \"contracts-encrypt/distribution/TombRewardPool.sol\":3444:3568  require(\r... */\n      tag_359\n      jumpi\n      mload(0x40)\n      shl(0xe5, 0x461bcd)\n      dup2\n      mstore\n      0x04\n      add\n      dup1\n      dup1\n      0x20\n      add\n      dup3\n      dup2\n      sub\n      dup3\n      mstore\n      0x21\n      dup2\n      mstore\n      0x20\n      add\n      dup1\n      data_0f4a12eae71f6ec6bf9833785776a1fd34316cccd4cc297b9705c38dfc3de8f8\n      0x21\n      swap2\n      codecopy\n      0x40\n      add\n      swap2\n      pop\n      pop\n      mload(0x40)\n      dup1\n      swap2\n      sub\n      swap1\n      revert\n    tag_359:\n        /* \"contracts-encrypt/distribution/TombRewardPool.sol\":3422:3427  ++pid */\n      0x01\n      add\n        /* \"contracts-encrypt/distribution/TombRewardPool.sol\":3386:3580  for (uint256 pid = 0; pid < length; ++pid) {\r... */\n      jump(tag_354)\n        /* \"contracts-encrypt/distribution/TombRewardPool.sol\":10287:10486  function _fees(uint256 _amount) internal view returns (uint256) {\r... */\n    tag_311:\n        /* \"contracts-encrypt/distribution/TombRewardPool.sol\":10342:10349  uint256 */\n      0x00\n        /* \"contracts-encrypt/distribution/TombRewardPool.sol\":10362:10374  uint256 _old */\n      dup1\n        /* \"contracts-encrypt/distribution/TombRewardPool.sol\":10377:10394  _amount.ceil(Fee) */\n      tag_361\n        /* \"contracts-encrypt/distribution/TombRewardPool.sol\":10390:10393  Fee */\n      sload(0x03)\n        /* \"contracts-encrypt/distribution/TombRewardPool.sol\":10377:10384  _amount */\n      dup5\n        /* \"contracts-encrypt/distribution/TombRewardPool.sol\":10377:10389  _amount.ceil */\n      tag_362\n      swap1\n        /* \"contracts-encrypt/distribution/TombRewardPool.sol\":10377:10394  _amount.ceil(Fee) */\n      swap2\n      swap1\n      0xffffffff\n      and\n      jump\t// in\n    tag_361:\n        /* \"contracts-encrypt/distribution/TombRewardPool.sol\":10362:10394  uint256 _old = _amount.ceil(Fee) */\n      swap1\n      pop\n        /* \"contracts-encrypt/distribution/TombRewardPool.sol\":10405:10423  uint256 _newAmount */\n      0x00\n        /* \"contracts-encrypt/distribution/TombRewardPool.sol\":10426:10450  _old.mul(Fee).div(10000) */\n      tag_363\n        /* \"contracts-encrypt/distribution/TombRewardPool.sol\":10444:10449  10000 */\n      0x2710\n        /* \"contracts-encrypt/distribution/TombRewardPool.sol\":10426:10439  _old.mul(Fee) */\n      tag_116\n        /* \"contracts-encrypt/distribution/TombRewardPool.sol\":10435:10438  Fee */\n      sload(0x03)\n        /* \"contracts-encrypt/distribution/TombRewardPool.sol\":10426:10430  _old */\n      dup6\n        /* \"contracts-encrypt/distribution/TombRewardPool.sol\":10426:10434  _old.mul */\n      tag_117\n      swap1\n        /* \"contracts-encrypt/distribution/TombRewardPool.sol\":10426:10439  _old.mul(Fee) */\n      swap2\n      swap1\n      0xffffffff\n      and\n      jump\t// in\n        /* \"contracts-encrypt/distribution/TombRewardPool.sol\":10426:10450  _old.mul(Fee).div(10000) */\n    tag_363:\n        /* \"contracts-encrypt/distribution/TombRewardPool.sol\":10405:10450  uint256 _newAmount = _old.mul(Fee).div(10000) */\n      swap5\n        /* \"contracts-encrypt/distribution/TombRewardPool.sol\":10287:10486  function _fees(uint256 _amount) internal view returns (uint256) {\r... */\n      swap4\n      pop\n      pop\n      pop\n      pop\n      jump\t// out\n        /* \"@openzeppelin/contracts/token/ERC20/utils/SafeERC20.sol\":898:1101  function safeTransferFrom(IERC20 token, address from, address to, uint256 value) internal {... */\n    tag_324:\n        /* \"@openzeppelin/contracts/token/ERC20/utils/SafeERC20.sol\":1025:1093  abi.encodeWithSelector(token.transferFrom.selector, from, to, value) */\n      0x40\n      dup1\n      mload\n      sub(shl(0xa0, 0x01), 0x01)\n      dup1\n      dup7\n      and\n      0x24\n      dup4\n      add\n      mstore\n      dup5\n      and\n      0x44\n      dup3\n      add\n      mstore\n      0x64\n      dup1\n      dup3\n      add\n      dup5\n      swap1\n      mstore\n      dup3\n      mload\n      dup1\n      dup4\n      sub\n      swap1\n      swap2\n      add\n      dup2\n      mstore\n      0x84\n      swap1\n      swap2\n      add\n      swap1\n      swap2\n      mstore\n      0x20\n      dup2\n      add\n      dup1\n      mload\n      sub(shl(0xe0, 0x01), 0x01)\n      and\n      shl(0xe0, 0x23b872dd)\n      or\n      swap1\n      mstore\n        /* \"@openzeppelin/contracts/token/ERC20/utils/SafeERC20.sol\":998:1094  _callOptionalReturn(token, abi.encodeWithSelector(token.transferFrom.selector, from, to, value)) */\n      tag_366\n      swap1\n        /* \"@openzeppelin/contracts/token/ERC20/utils/SafeERC20.sol\":1018:1023  token */\n      dup6\n      swap1\n        /* \"@openzeppelin/contracts/token/ERC20/utils/SafeERC20.sol\":998:1017  _callOptionalReturn */\n      tag_352\n        /* \"@openzeppelin/contracts/token/ERC20/utils/SafeERC20.sol\":998:1094  _callOptionalReturn(token, abi.encodeWithSelector(token.transferFrom.selector, from, to, value)) */\n      jump\t// in\n    tag_366:\n        /* \"@openzeppelin/contracts/token/ERC20/utils/SafeERC20.sol\":898:1101  function safeTransferFrom(IERC20 token, address from, address to, uint256 value) internal {... */\n      pop\n      pop\n      pop\n      pop\n      jump\t// out\n        /* \"@openzeppelin/contracts/token/ERC20/utils/SafeERC20.sol\":2980:3731  function _callOptionalReturn(IERC20 token, bytes memory data) private {... */\n    tag_352:\n        /* \"@openzeppelin/contracts/token/ERC20/utils/SafeERC20.sol\":3399:3422  bytes memory returndata */\n      0x60\n        /* \"@openzeppelin/contracts/token/ERC20/utils/SafeERC20.sol\":3425:3494  address(token).functionCall(data, \"SafeERC20: low-level call failed\") */\n      tag_368\n        /* \"@openzeppelin/contracts/token/ERC20/utils/SafeERC20.sol\":3453:3457  data */\n      dup3\n        /* \"@openzeppelin/contracts/token/ERC20/utils/SafeERC20.sol\":3425:3494  address(token).functionCall(data, \"SafeERC20: low-level call failed\") */\n      mload(0x40)\n      dup1\n      0x40\n      add\n      0x40\n      mstore\n      dup1\n      0x20\n      dup2\n      mstore\n      0x20\n      add\n      0x5361666545524332303a206c6f772d6c6576656c2063616c6c206661696c6564\n      dup2\n      mstore\n      pop\n        /* \"@openzeppelin/contracts/token/ERC20/utils/SafeERC20.sol\":3433:3438  token */\n      dup6\n      sub(shl(0xa0, 0x01), 0x01)\n        /* \"@openzeppelin/contracts/token/ERC20/utils/SafeERC20.sol\":3425:3452  address(token).functionCall */\n      and\n      tag_369\n      swap1\n        /* \"@openzeppelin/contracts/token/ERC20/utils/SafeERC20.sol\":3425:3494  address(token).functionCall(data, \"SafeERC20: low-level call failed\") */\n      swap3\n      swap2\n      swap1\n      0xffffffff\n      and\n      jump\t// in\n    tag_368:\n        /* \"@openzeppelin/contracts/token/ERC20/utils/SafeERC20.sol\":3508:3525  returndata.length */\n      dup1\n      mload\n        /* \"@openzeppelin/contracts/token/ERC20/utils/SafeERC20.sol\":3399:3494  bytes memory returndata = address(token).functionCall(data, \"SafeERC20: low-level call failed\") */\n      swap1\n      swap2\n      pop\n        /* \"@openzeppelin/contracts/token/ERC20/utils/SafeERC20.sol\":3508:3529  returndata.length > 0 */\n      iszero\n        /* \"@openzeppelin/contracts/token/ERC20/utils/SafeERC20.sol\":3504:3725  if (returndata.length > 0) { // Return data is optional... */\n      tag_262\n      jumpi\n        /* \"@openzeppelin/contracts/token/ERC20/utils/SafeERC20.sol\":3648:3658  returndata */\n      dup1\n        /* \"@openzeppelin/contracts/token/ERC20/utils/SafeERC20.sol\":3637:3667  abi.decode(returndata, (bool)) */\n      dup1\n      0x20\n      add\n      swap1\n      mload\n      0x20\n      dup2\n      lt\n      iszero\n      tag_371\n      jumpi\n      0x00\n      dup1\n      revert\n    tag_371:\n      pop\n      mload\n        /* \"@openzeppelin/contracts/token/ERC20/utils/SafeERC20.sol\":3629:3714  require(abi.decode(returndata, (bool)), \"SafeERC20: ERC20 operation did not succeed\") */\n      tag_262\n      jumpi\n      mload(0x40)\n      shl(0xe5, 0x461bcd)\n      dup2\n      mstore\n      0x04\n      add\n      dup1\n      dup1\n      0x20\n      add\n      dup3\n      dup2\n      sub\n      dup3\n      mstore\n      0x2a\n      dup2\n      mstore\n      0x20\n      add\n      dup1\n      data_e11ad79d1e4a7f2e5f376964cb99e8e8f7904e3fc16a109f7a7ecb9aa7956dcd\n      0x2a\n      swap2\n      codecopy\n      0x40\n      add\n      swap2\n      pop\n      pop\n      mload(0x40)\n      dup1\n      swap2\n      sub\n      swap1\n      revert\n        /* \"@openzeppelin/contracts/utils/math/SafeMath.sol\":5601:5772  function ceil(uint256 a, uint256 m) internal pure returns (uint256) {... */\n    tag_362:\n        /* \"@openzeppelin/contracts/utils/math/SafeMath.sol\":5660:5667  uint256 */\n      0x00\n        /* \"@openzeppelin/contracts/utils/math/SafeMath.sol\":5679:5688  uint256 c */\n      dup1\n        /* \"@openzeppelin/contracts/utils/math/SafeMath.sol\":5691:5700  add(a, m) */\n      tag_374\n        /* \"@openzeppelin/contracts/utils/math/SafeMath.sol\":5695:5696  a */\n      dup5\n        /* \"@openzeppelin/contracts/utils/math/SafeMath.sol\":5698:5699  m */\n      dup5\n        /* \"@openzeppelin/contracts/utils/math/SafeMath.sol\":5691:5694  add */\n      tag_122\n        /* \"@openzeppelin/contracts/utils/math/SafeMath.sol\":5691:5700  add(a, m) */\n      jump\t// in\n    tag_374:\n        /* \"@openzeppelin/contracts/utils/math/SafeMath.sol\":5679:5700  uint256 c = add(a, m) */\n      swap1\n      pop\n        /* \"@openzeppelin/contracts/utils/math/SafeMath.sol\":5710:5719  uint256 d */\n      0x00\n        /* \"@openzeppelin/contracts/utils/math/SafeMath.sol\":5722:5731  sub(c, 1) */\n      tag_375\n        /* \"@openzeppelin/contracts/utils/math/SafeMath.sol\":5726:5727  c */\n      dup3\n        /* \"@openzeppelin/contracts/utils/math/SafeMath.sol\":5729:5730  1 */\n      0x01\n        /* \"@openzeppelin/contracts/utils/math/SafeMath.sol\":5722:5725  sub */\n      tag_126\n        /* \"@openzeppelin/contracts/utils/math/SafeMath.sol\":5722:5731  sub(c, 1) */\n      jump\t// in\n    tag_375:\n        /* \"@openzeppelin/contracts/utils/math/SafeMath.sol\":5710:5731  uint256 d = sub(c, 1) */\n      swap1\n      pop\n        /* \"@openzeppelin/contracts/utils/math/SafeMath.sol\":5748:5765  mul(div(d, m), m) */\n      tag_376\n        /* \"@openzeppelin/contracts/utils/math/SafeMath.sol\":5752:5761  div(d, m) */\n      tag_377\n        /* \"@openzeppelin/contracts/utils/math/SafeMath.sol\":5756:5757  d */\n      dup3\n        /* \"@openzeppelin/contracts/utils/math/SafeMath.sol\":5759:5760  m */\n      dup7\n        /* \"@openzeppelin/contracts/utils/math/SafeMath.sol\":5752:5755  div */\n      tag_118\n        /* \"@openzeppelin/contracts/utils/math/SafeMath.sol\":5752:5761  div(d, m) */\n      jump\t// in\n    tag_377:\n        /* \"@openzeppelin/contracts/utils/math/SafeMath.sol\":5763:5764  m */\n      dup6\n        /* \"@openzeppelin/contracts/utils/math/SafeMath.sol\":5748:5751  mul */\n      tag_117\n        /* \"@openzeppelin/contracts/utils/math/SafeMath.sol\":5748:5765  mul(div(d, m), m) */\n      jump\t// in\n    tag_376:\n        /* \"@openzeppelin/contracts/utils/math/SafeMath.sol\":5741:5765  return mul(div(d, m), m) */\n      swap6\n        /* \"@openzeppelin/contracts/utils/math/SafeMath.sol\":5601:5772  function ceil(uint256 a, uint256 m) internal pure returns (uint256) {... */\n      swap5\n      pop\n      pop\n      pop\n      pop\n      pop\n      jump\t// out\n        /* \"@openzeppelin/contracts/utils/Address.sol\":3470:3693  function functionCall(... */\n    tag_369:\n        /* \"@openzeppelin/contracts/utils/Address.sol\":3603:3615  bytes memory */\n      0x60\n        /* \"@openzeppelin/contracts/utils/Address.sol\":3634:3686  functionCallWithValue(target, data, 0, errorMessage) */\n      tag_363\n        /* \"@openzeppelin/contracts/utils/Address.sol\":3656:3662  target */\n      dup5\n        /* \"@openzeppelin/contracts/utils/Address.sol\":3664:3668  data */\n      dup5\n        /* \"@openzeppelin/contracts/utils/Address.sol\":3670:3671  0 */\n      0x00\n        /* \"@openzeppelin/contracts/utils/Address.sol\":3673:3685  errorMessage */\n      dup6\n        /* \"@openzeppelin/contracts/utils/Address.sol\":3603:3615  bytes memory */\n      dup6\n        /* \"@openzeppelin/contracts/utils/Address.sol\":4845:4863  isContract(target) */\n      tag_383\n        /* \"@openzeppelin/contracts/utils/Address.sol\":4856:4862  target */\n      dup6\n        /* \"@openzeppelin/contracts/utils/Address.sol\":4845:4855  isContract */\n      tag_384\n        /* \"@openzeppelin/contracts/utils/Address.sol\":4845:4863  isContract(target) */\n      jump\t// in\n    tag_383:\n        /* \"@openzeppelin/contracts/utils/Address.sol\":4837:4897  require(isContract(target), \"Address: call to non-contract\") */\n      tag_385\n      jumpi\n      0x40\n      dup1\n      mload\n      shl(0xe5, 0x461bcd)\n      dup2\n      mstore\n      0x20\n      0x04\n      dup3\n      add\n      mstore\n      0x1d\n      0x24\n      dup3\n      add\n      mstore\n      0x416464726573733a2063616c6c20746f206e6f6e2d636f6e7472616374000000\n      0x44\n      dup3\n      add\n      mstore\n      swap1\n      mload\n      swap1\n      dup2\n      swap1\n      sub\n      0x64\n      add\n      swap1\n      revert\n    tag_385:\n        /* \"@openzeppelin/contracts/utils/Address.sol\":4909:4921  bool success */\n      0x00\n        /* \"@openzeppelin/contracts/utils/Address.sol\":4923:4946  bytes memory returndata */\n      0x60\n        /* \"@openzeppelin/contracts/utils/Address.sol\":4950:4956  target */\n      dup7\n      sub(shl(0xa0, 0x01), 0x01)\n        /* \"@openzeppelin/contracts/utils/Address.sol\":4950:4961  target.call */\n      and\n        /* \"@openzeppelin/contracts/utils/Address.sol\":4969:4974  value */\n      dup6\n        /* \"@openzeppelin/contracts/utils/Address.sol\":4976:4980  data */\n      dup8\n        /* \"@openzeppelin/contracts/utils/Address.sol\":4950:4981  target.call{value: value}(data) */\n      mload(0x40)\n      dup1\n      dup3\n      dup1\n      mload\n      swap1\n      0x20\n      add\n      swap1\n      dup1\n      dup4\n      dup4\n    tag_386:\n      0x20\n      dup4\n      lt\n      tag_388\n      jumpi\n      dup1\n      mload\n      dup3\n      mstore\n      not(0x1f)\n      swap1\n      swap3\n      add\n      swap2\n      0x20\n      swap2\n      dup3\n      add\n      swap2\n      add\n      jump(tag_386)\n    tag_388:\n      0x01\n      dup4\n      0x20\n      sub\n      0x0100\n      exp\n      sub\n      dup1\n      not\n      dup3\n      mload\n      and\n      dup2\n      dup5\n      mload\n      and\n      dup1\n      dup3\n      or\n      dup6\n      mstore\n      pop\n      pop\n      pop\n      pop\n      pop\n      pop\n      swap1\n      pop\n      add\n      swap2\n      pop\n      pop\n      0x00\n      mload(0x40)\n      dup1\n      dup4\n      sub\n      dup2\n      dup6\n      dup8\n      gas\n      call\n      swap3\n      pop\n      pop\n      pop\n      returndatasize\n      dup1\n      0x00\n      dup2\n      eq\n      tag_391\n      jumpi\n      mload(0x40)\n      swap2\n      pop\n      and(add(returndatasize, 0x3f), not(0x1f))\n      dup3\n      add\n      0x40\n      mstore\n      returndatasize\n      dup3\n      mstore\n      returndatasize\n      0x00\n      0x20\n      dup5\n      add\n      returndatacopy\n      jump(tag_390)\n    tag_391:\n      0x60\n      swap2\n      pop\n    tag_390:\n      pop\n        /* \"@openzeppelin/contracts/utils/Address.sol\":4908:4981  (bool success, bytes memory returndata) = target.call{value: value}(data) */\n      swap2\n      pop\n      swap2\n      pop\n        /* \"@openzeppelin/contracts/utils/Address.sol\":4998:5049  verifyCallResult(success, returndata, errorMessage) */\n      tag_392\n        /* \"@openzeppelin/contracts/utils/Address.sol\":5015:5022  success */\n      dup3\n        /* \"@openzeppelin/contracts/utils/Address.sol\":5024:5034  returndata */\n      dup3\n        /* \"@openzeppelin/contracts/utils/Address.sol\":5036:5048  errorMessage */\n      dup7\n        /* \"@openzeppelin/contracts/utils/Address.sol\":4998:5014  verifyCallResult */\n      tag_393\n        /* \"@openzeppelin/contracts/utils/Address.sol\":4998:5049  verifyCallResult(success, returndata, errorMessage) */\n      jump\t// in\n    tag_392:\n        /* \"@openzeppelin/contracts/utils/Address.sol\":4991:5049  return verifyCallResult(success, returndata, errorMessage) */\n      swap8\n        /* \"@openzeppelin/contracts/utils/Address.sol\":4557:5056  function functionCallWithValue(... */\n      swap7\n      pop\n      pop\n      pop\n      pop\n      pop\n      pop\n      pop\n      jump\t// out\n        /* \"@openzeppelin/contracts/utils/Address.sol\":727:1104  function isContract(address account) internal view returns (bool) {... */\n    tag_384:\n        /* \"@openzeppelin/contracts/utils/Address.sol\":1043:1063  extcodesize(account) */\n      extcodesize\n        /* \"@openzeppelin/contracts/utils/Address.sol\":1089:1097  size > 0 */\n      iszero\n      iszero\n      swap1\n        /* \"@openzeppelin/contracts/utils/Address.sol\":727:1104  function isContract(address account) internal view returns (bool) {... */\n      jump\t// out\n        /* \"@openzeppelin/contracts/utils/Address.sol\":7170:7862  function verifyCallResult(... */\n    tag_393:\n        /* \"@openzeppelin/contracts/utils/Address.sol\":7316:7328  bytes memory */\n      0x60\n        /* \"@openzeppelin/contracts/utils/Address.sol\":7344:7351  success */\n      dup4\n        /* \"@openzeppelin/contracts/utils/Address.sol\":7340:7856  if (success) {... */\n      iszero\n      tag_396\n      jumpi\n      pop\n        /* \"@openzeppelin/contracts/utils/Address.sol\":7374:7384  returndata */\n      dup2\n        /* \"@openzeppelin/contracts/utils/Address.sol\":7367:7384  return returndata */\n      jump(tag_193)\n        /* \"@openzeppelin/contracts/utils/Address.sol\":7340:7856  if (success) {... */\n    tag_396:\n        /* \"@openzeppelin/contracts/utils/Address.sol\":7485:7502  returndata.length */\n      dup3\n      mload\n        /* \"@openzeppelin/contracts/utils/Address.sol\":7485:7506  returndata.length > 0 */\n      iszero\n        /* \"@openzeppelin/contracts/utils/Address.sol\":7481:7846  if (returndata.length > 0) {... */\n      tag_398\n      jumpi\n        /* \"@openzeppelin/contracts/utils/Address.sol\":7679:7689  returndata */\n      dup3\n        /* \"@openzeppelin/contracts/utils/Address.sol\":7673:7690  mload(returndata) */\n      mload\n        /* \"@openzeppelin/contracts/utils/Address.sol\":7739:7754  returndata_size */\n      dup1\n        /* \"@openzeppelin/contracts/utils/Address.sol\":7726:7736  returndata */\n      dup5\n        /* \"@openzeppelin/contracts/utils/Address.sol\":7722:7724  32 */\n      0x20\n        /* \"@openzeppelin/contracts/utils/Address.sol\":7718:7737  add(32, returndata) */\n      add\n        /* \"@openzeppelin/contracts/utils/Address.sol\":7711:7755  revert(add(32, returndata), returndata_size) */\n      revert\n        /* \"@openzeppelin/contracts/utils/Address.sol\":7628:7773  {... */\n    tag_398:\n        /* \"@openzeppelin/contracts/utils/Address.sol\":7818:7830  errorMessage */\n      dup2\n        /* \"@openzeppelin/contracts/utils/Address.sol\":7811:7831  revert(errorMessage) */\n      mload(0x40)\n      shl(0xe5, 0x461bcd)\n      dup2\n      mstore\n      0x04\n      add\n      dup1\n      dup1\n      0x20\n      add\n      dup3\n      dup2\n      sub\n      dup3\n      mstore\n      dup4\n      dup2\n      dup2\n      mload\n      dup2\n      mstore\n      0x20\n      add\n      swap2\n      pop\n      dup1\n      mload\n      swap1\n      0x20\n      add\n      swap1\n      dup1\n      dup4\n      dup4\n      0x00\n    tag_400:\n      dup4\n      dup2\n      lt\n      iszero\n      tag_402\n      jumpi\n      dup2\n      dup2\n      add\n      mload\n      dup4\n      dup3\n      add\n      mstore\n      0x20\n      add\n      jump(tag_400)\n    tag_402:\n      pop\n      pop\n      pop\n      pop\n      swap1\n      pop\n      swap1\n      dup2\n      add\n      swap1\n      0x1f\n      and\n      dup1\n      iszero\n      tag_403\n      jumpi\n      dup1\n      dup3\n      sub\n      dup1\n      mload\n      0x01\n      dup4\n      0x20\n      sub\n      0x0100\n      exp\n      sub\n      not\n      and\n      dup2\n      mstore\n      0x20\n      add\n      swap2\n      pop\n    tag_403:\n      pop\n      swap3\n      pop\n      pop\n      pop\n      mload(0x40)\n      dup1\n      swap2\n      sub\n      swap1\n      revert\n    stop\n    data_0f4a12eae71f6ec6bf9833785776a1fd34316cccd4cc297b9705c38dfc3de8f8 456e6372797074526577617264506f6f6c3a206578697374696e6720706f6f6c3f\n    data_3318c1043bcb482184ad1b9bcd5bca682f2d9bdef95c68c7644d528c5378e79e 546f6d62526577617264506f6f6c3a20616c726561647920696e697469616c697a6564\n    data_565f1a77334fc4792800921178c71e4521acffab18ff9e7885b49377ee80ab4c 416464726573733a20696e73756666696369656e742062616c616e636520666f722063616c6c\n    data_7c1dc5477764f2dc16434358e98a6732ada1495d31ab07dbde0acff1b13b84d1 456e6372797074526577617264506f6f6c3a2063616c6c6572206973206e6f7420746865206f70657261746f72\n    data_9113bb53c2876a3805b2c9242029423fc540a728243ce887ab24c82cf119fba3 536166654d6174683a206d756c7469706c69636174696f6e206f766572666c6f77\n    data_e11ad79d1e4a7f2e5f376964cb99e8e8f7904e3fc16a109f7a7ecb9aa7956dcd 5361666545524332303a204552433230206f7065726174696f6e20646964206e6f742073756363656564\n\n    auxdata: 0xa264697066735822122069626e277e7d349b327d0019f867d380656458da972dae2f73aef72e583a4a4364736f6c634300060c0033\n}\n",
				"bytecode": {
					"linkReferences": {},
					"object": "60c8600355600060065560c06040526910f0cf064dd5920000006080908152690cb49b44ba602d80000060a0526200003c9060089060026200005b565b50600c805460ff191690553480156200005457600080fd5b50620000cd565b828054828255906000526020600020908101928215620000a4579160200282015b82811115620000a457825182906001600160501b03169055916020019190600101906200007c565b50620000b2929150620000b6565b5090565b5b80821115620000b25760008155600101620000b7565b611ba080620000dd6000396000f3fe608060405234801561001057600080fd5b506004361061018e5760003560e01c806354575af4116100de57806396805e5411610097578063b89e73c111610071578063b89e73c11461046c578063bef7a2f014610489578063c4d66de814610491578063e2bbb158146104b75761018e565b806396805e54146103ef5780639a25cefc14610429578063b3ab15fb146104465761018e565b806354575af414610354578063570ca7351461038a5780635d114dcc146103925780635f96dc111461039a578063630b5ba1146103a257806393f1a40b146103aa5761018e565b8063234fbf321161014b5780633beb26c4116101255780633beb26c4146102da578063441a3e70146102f757806351eb05a61461031a5780635312ea8e146103375761018e565b8063234fbf321461029157806338b24f31146102b5578063392e53cd146102d25761018e565b80631526fe2714610193578063158ef93e146101e757806317caf6f1146102035780631a1317791461021d5780631ab06ee514610249578063231f0c6a1461026e575b600080fd5b6101b0600480360360208110156101a957600080fd5b50356104da565b604080516001600160a01b039096168652602086019490945284840192909252606084015215156080830152519081900360a00190f35b6101ef610525565b604080519115158252519081900360200190f35b61020b61052e565b60408051918252519081900360200190f35b61020b6004803603604081101561023357600080fd5b50803590602001356001600160a01b0316610534565b61026c6004803603604081101561025f57600080fd5b508035906020013561069f565b005b61020b6004803603604081101561028457600080fd5b508035906020013561074d565b61029961090a565b604080516001600160a01b039092168252519081900360200190f35b61020b600480360360208110156102cb57600080fd5b5035610919565b6101ef61092d565b61026c600480360360208110156102f057600080fd5b5035610936565b61026c6004803603604081101561030d57600080fd5b50803590602001356109d4565b61026c6004803603602081101561033057600080fd5b5035610b87565b61026c6004803603602081101561034d57600080fd5b5035610ce5565b61026c6004803603606081101561036a57600080fd5b506001600160a01b03813581169160208101359160409091013516610d7e565b610299610ec9565b610299610ed8565b61020b610ee7565b61026c610eed565b6103d6600480360360408110156103c057600080fd5b50803590602001356001600160a01b0316610f10565b6040805192835260208301919091528051918290030190f35b61026c6004803603608081101561040557600080fd5b508035906001600160a01b0360208201351690604081013515159060600135610f34565b61020b6004803603602081101561043f57600080fd5b5035611131565b61026c6004803603602081101561045c57600080fd5b50356001600160a01b031661114f565b61020b6004803603602081101561048257600080fd5b50356111ba565b61020b6111c7565b61026c600480360360208110156104a757600080fd5b50356001600160a01b03166111cd565b61026c600480360360408110156104cd57600080fd5b50803590602001356112ad565b600281815481106104e757fe5b6000918252602090912060059091020180546001820154600283015460038401546004909401546001600160a01b0390931694509092909160ff1685565b600c5460ff1681565b60065481565b6000806002848154811061054457fe5b60009182526020808320878452600580835260408086206001600160a01b03808b16885290855281872060039390960290930191820154825482516370a0823160e01b815230600482015292519398509596909590949316926370a0823192602480840193829003018186803b1580156105bd57600080fd5b505afa1580156105d1573d6000803e3d6000fd5b505050506040513d60208110156105e757600080fd5b50516002850154909150421180156105fe57508015155b1561066157600061061385600201544261074d565b9050600061063a60065461063488600101548561145190919063ffffffff16565b906114aa565b905061065c6106558461063484670de0b6b3a7640000611451565b8590611511565b935050505b610692836001015461068c670de0b6b3a764000061063486886000015461145190919063ffffffff16565b9061156b565b9450505050505b92915050565b6000546001600160a01b031633146106e85760405162461bcd60e51b815260040180806020018281038252602d815260200180611af3602d913960400191505060405180910390fd5b6106f0610eed565b6000600283815481106106ff57fe5b60009182526020909120600590910201600481015490915060ff1615610746576107428261073c836001015460065461156b90919063ffffffff16565b90611511565b6006555b6001015550565b600060025b60018160ff16106108f15760096001820360ff166003811061077057fe5b015483106108e85760096001820360ff166003811061078b57fe5b015484106107c0576107b8600d8260ff16600381106107a657fe5b01546107b2858761156b565b90611451565b915050610699565b60006107f6600d8360ff16600381106107d557fe5b01546107b260096001860360ff16600381106107ed57fe5b0154879061156b565b90508160ff166001141561083257610829610822600d60005b01546107b288600960005b01549061156b565b8290611511565b92505050610699565b6001820391505b60018260ff16106108d95760096001830360ff166003811061085757fe5b0154851061088b57610829610822600d8460ff166003811061087557fe5b01546107b28860098760ff166003811061081a57fe5b6108cb610822600d8460ff16600381106108a157fe5b01546107b260096001870360ff16600381106108b957fe5b015460098760ff166003811061081a57fe5b600019909201919050610839565b610829610822600d600061080f565b60001901610752565b50600d54610903906107b2848661156b565b9392505050565b6001546001600160a01b031681565b600d816003811061092657fe5b0154905081565b600c5460ff1690565b6000546001600160a01b0316331461097f5760405162461bcd60e51b815260040180806020018281038252602d815260200180611af3602d913960400191505060405180910390fd5b8042106109bc576040805162461bcd60e51b815260206004808301919091526024820152636c61746560e01b604482015290519081900360640190fd5b6007819055620546008101600955620bdd8001600a55565b60003390506000600284815481106109e857fe5b60009182526020808320878452600580835260408086206001600160a01b0389168752909352919093208054929091029092019250841115610a66576040805162461bcd60e51b81526020600482015260126024820152711dda5d1a191c985dce881b9bdd0819dbdbd960721b604482015290519081900360640190fd5b610a6f85610b87565b6000610aa0826001015461068c670de0b6b3a76400006106348760030154876000015461145190919063ffffffff16565b90508015610af257610ab284826115c8565b6040805182815290516001600160a01b038616917fe2403640ba68fed3a2f88b7557551d1993f84b99bb10ff833f0cf8db0c5e0486919081900360200190a25b8415610b1c578154610b04908661156b565b82558254610b1c906001600160a01b0316858761167e565b60038301548254610b3a91670de0b6b3a76400009161063491611451565b600183015560408051868152905187916001600160a01b038716917ff279e6a1f5e320cca91135676d9cb6e44ca8a08c0b88342bcdb1144f6511b5689181900360200190a3505050505050565b600060028281548110610b9657fe5b9060005260206000209060050201905080600201544211610bb75750610ce2565b8054604080516370a0823160e01b815230600482015290516000926001600160a01b0316916370a08231916024808301926020929190829003018186803b158015610c0157600080fd5b505afa158015610c15573d6000803e3d6000fd5b505050506040513d6020811015610c2b57600080fd5b5051905080610c41575042600290910155610ce2565b600482015460ff16610c725760048201805460ff19166001908117909155820154600654610c6e91611511565b6006555b60065415610cd9576000610c8a83600201544261074d565b90506000610cab60065461063486600101548561145190919063ffffffff16565b9050610cd1610cc68461063484670de0b6b3a7640000611451565b600386015490611511565b600385015550505b50426002909101555b50565b600060028281548110610cf457fe5b60009182526020808320858452600580835260408086203380885294528520805486825560018201969096559302018054909450919291610d41916001600160a01b03909116908361167e565b604080518281529051859133917fbb757047c2b5f3974fe26b7c10f732e7bce710b0952a71082702781e62ae05959181900360200190a350505050565b6000546001600160a01b03163314610dc75760405162461bcd60e51b815260040180806020018281038252602d815260200180611af3602d913960400191505060405180910390fd5b600a5462278d0001421015610eb0576001546001600160a01b0384811691161415610e24576040805162461bcd60e51b815260206004820152600860248201526708515b98dc9e5c1d60c21b604482015290519081900360640190fd5b60025460005b81811015610ead57600060028281548110610e4157fe5b6000918252602090912060059091020180549091506001600160a01b0387811691161415610ea4576040805162461bcd60e51b815260206004820152600b60248201526a10b837b7b6173a37b5b2b760a91b604482015290519081900360640190fd5b50600101610e2a565b50505b610ec46001600160a01b038416828461167e565b505050565b6000546001600160a01b031681565b6004546001600160a01b031681565b60075481565b60025460005b81811015610f0c57610f0481610b87565b600101610ef3565b5050565b60056020908152600092835260408084209091529082529020805460019091015482565b6000546001600160a01b03163314610f7d5760405162461bcd60e51b815260040180806020018281038252602d815260200180611af3602d913960400191505060405180910390fd5b610f86836116d0565b8115610f9457610f94610eed565b600754421015610fc05780610fac5750600754610fbb565b600754811015610fbb57506007545b610fd4565b801580610fcc57504281105b15610fd45750425b600060075482111580610fe75750428211155b6040805160a0810182526001600160a01b03878116825260208201898152928201868152600060608401818152861580156080870190815260028054600181018255945295517f405787fa12a823e0f2b7631cc41b3ba8828b3321ca811111fa75cd3aa3bb5ace600590940293840180546001600160a01b031916919096161790945594517f405787fa12a823e0f2b7631cc41b3ba8828b3321ca811111fa75cd3aa3bb5acf82015590517f405787fa12a823e0f2b7631cc41b3ba8828b3321ca811111fa75cd3aa3bb5ad082015592517f405787fa12a823e0f2b7631cc41b3ba8828b3321ca811111fa75cd3aa3bb5ad184015590517f405787fa12a823e0f2b7631cc41b3ba8828b3321ca811111fa75cd3aa3bb5ad2909201805460ff19169215159290921790915590915061112a576006546111269086611511565b6006555b5050505050565b6008818154811061113e57fe5b600091825260209091200154905081565b6000546001600160a01b031633146111985760405162461bcd60e51b815260040180806020018281038252602d815260200180611af3602d913960400191505060405180910390fd5b600080546001600160a01b0319166001600160a01b0392909216919091179055565b6009816003811061092657fe5b60035481565b600c5460ff161561120f5760405162461bcd60e51b8152600401808060200182810382526023815260200180611ad06023913960400191505060405180910390fd5b6001600160a01b0381161561123a57600180546001600160a01b0319166001600160a01b0383161790555b61126862054600600860008154811061124f57fe5b90600052602060002001546114aa90919063ffffffff16565b600d5560088054611283916206978091600190811061124f57fe5b600e55506000600f81905580546001600160a01b03191633179055600c805460ff19166001179055565b3360006112b983611754565b905060006112c7848361156b565b90506000600286815481106112d857fe5b60009182526020808320898452600580835260408086206001600160a01b038b168752909352919093209102909101915061131287610b87565b80541561139e57600061134a826001015461068c670de0b6b3a76400006106348760030154876000015461145190919063ffffffff16565b9050801561139c5761135c86826115c8565b6040805182815290516001600160a01b038816917fe2403640ba68fed3a2f88b7557551d1993f84b99bb10ff833f0cf8db0c5e0486919081900360200190a25b505b85156113e55781546113bb906001600160a01b0316863089611793565b80546113c79084611511565b815560045482546113e5916001600160a01b0391821691168661167e565b6003820154815461140391670de0b6b3a76400009161063491611451565b600182015560408051878152905188916001600160a01b038816917f90890809c654f11d6e72a28fa60149770a0d11ec6c92319d6ceb2bb0a4ea1a159181900360200190a350505050505050565b60008261146057506000610699565b8282028284828161146d57fe5b04146109035760405162461bcd60e51b8152600401808060200182810382526021815260200180611b206021913960400191505060405180910390fd5b6000808211611500576040805162461bcd60e51b815260206004820152601a60248201527f536166654d6174683a206469766973696f6e206279207a65726f000000000000604482015290519081900360640190fd5b81838161150957fe5b049392505050565b600082820183811015610903576040805162461bcd60e51b815260206004820152601b60248201527f536166654d6174683a206164646974696f6e206f766572666c6f770000000000604482015290519081900360640190fd5b6000828211156115c2576040805162461bcd60e51b815260206004820152601e60248201527f536166654d6174683a207375627472616374696f6e206f766572666c6f770000604482015290519081900360640190fd5b50900390565b600154604080516370a0823160e01b815230600482015290516000926001600160a01b0316916370a08231916024808301926020929190829003018186803b15801561161357600080fd5b505afa158015611627573d6000803e3d6000fd5b505050506040513d602081101561163d57600080fd5b505190508015610ec4578082111561166b57600154611666906001600160a01b0316848361167e565b610ec4565b600154610ec4906001600160a01b031684845b604080516001600160a01b038416602482015260448082018490528251808303909101815260649091019091526020810180516001600160e01b031663a9059cbb60e01b179052610ec49084906117f3565b60025460005b81811015610ec457826001600160a01b0316600282815481106116f557fe5b60009182526020909120600590910201546001600160a01b0316141561174c5760405162461bcd60e51b8152600401808060200182810382526021815260200180611aaf6021913960400191505060405180910390fd5b6001016116d6565b60008061176c600354846118a490919063ffffffff16565b9050600061178b6127106106346003548561145190919063ffffffff16565b949350505050565b604080516001600160a01b0380861660248301528416604482015260648082018490528251808303909101815260849091019091526020810180516001600160e01b03166323b872dd60e01b1790526117ed9085906117f3565b50505050565b6060611848826040518060400160405280602081526020017f5361666545524332303a206c6f772d6c6576656c2063616c6c206661696c6564815250856001600160a01b03166118de9092919063ffffffff16565b805190915015610ec45780806020019051602081101561186757600080fd5b5051610ec45760405162461bcd60e51b815260040180806020018281038252602a815260200180611b41602a913960400191505060405180910390fd5b6000806118b18484611511565b905060006118c082600161156b565b90506118d56118cf82866114aa565b85611451565b95945050505050565b606061178b8484600085856118f285611a04565b611943576040805162461bcd60e51b815260206004820152601d60248201527f416464726573733a2063616c6c20746f206e6f6e2d636f6e7472616374000000604482015290519081900360640190fd5b60006060866001600160a01b031685876040518082805190602001908083835b602083106119825780518252601f199092019160209182019101611963565b6001836020036101000a03801982511681845116808217855250505050505090500191505060006040518083038185875af1925050503d80600081146119e4576040519150601f19603f3d011682016040523d82523d6000602084013e6119e9565b606091505b50915091506119f9828286611a0a565b979650505050505050565b3b151590565b60608315611a19575081610903565b825115611a295782518084602001fd5b8160405162461bcd60e51b81526004018080602001828103825283818151815260200191508051906020019080838360005b83811015611a73578181015183820152602001611a5b565b50505050905090810190601f168015611aa05780820380516001836020036101000a031916815260200191505b509250505060405180910390fdfe456e6372797074526577617264506f6f6c3a206578697374696e6720706f6f6c3f546f6d62526577617264506f6f6c3a20616c726561647920696e697469616c697a6564456e6372797074526577617264506f6f6c3a2063616c6c6572206973206e6f7420746865206f70657261746f72536166654d6174683a206d756c7469706c69636174696f6e206f766572666c6f775361666545524332303a204552433230206f7065726174696f6e20646964206e6f742073756363656564a264697066735822122069626e277e7d349b327d0019f867d380656458da972dae2f73aef72e583a4a4364736f6c634300060c0033",
					"opcodes": "PUSH1 0xC8 PUSH1 0x3 SSTORE PUSH1 0x0 PUSH1 0x6 SSTORE PUSH1 0xC0 PUSH1 0x40 MSTORE PUSH10 0x10F0CF064DD592000000 PUSH1 0x80 SWAP1 DUP2 MSTORE PUSH10 0xCB49B44BA602D800000 PUSH1 0xA0 MSTORE PUSH3 0x3C SWAP1 PUSH1 0x8 SWAP1 PUSH1 0x2 PUSH3 0x5B JUMP JUMPDEST POP PUSH1 0xC DUP1 SLOAD PUSH1 0xFF NOT AND SWAP1 SSTORE CALLVALUE DUP1 ISZERO PUSH3 0x54 JUMPI PUSH1 0x0 DUP1 REVERT JUMPDEST POP PUSH3 0xCD JUMP JUMPDEST DUP3 DUP1 SLOAD DUP3 DUP3 SSTORE SWAP1 PUSH1 0x0 MSTORE PUSH1 0x20 PUSH1 0x0 KECCAK256 SWAP1 DUP2 ADD SWAP3 DUP3 ISZERO PUSH3 0xA4 JUMPI SWAP2 PUSH1 0x20 MUL DUP3 ADD JUMPDEST DUP3 DUP2 GT ISZERO PUSH3 0xA4 JUMPI DUP3 MLOAD DUP3 SWAP1 PUSH1 0x1 PUSH1 0x1 PUSH1 0x50 SHL SUB AND SWAP1 SSTORE SWAP2 PUSH1 0x20 ADD SWAP2 SWAP1 PUSH1 0x1 ADD SWAP1 PUSH3 0x7C JUMP JUMPDEST POP PUSH3 0xB2 SWAP3 SWAP2 POP PUSH3 0xB6 JUMP JUMPDEST POP SWAP1 JUMP JUMPDEST JUMPDEST DUP1 DUP3 GT ISZERO PUSH3 0xB2 JUMPI PUSH1 0x0 DUP2 SSTORE PUSH1 0x1 ADD PUSH3 0xB7 JUMP JUMPDEST PUSH2 0x1BA0 DUP1 PUSH3 0xDD PUSH1 0x0 CODECOPY PUSH1 0x0 RETURN INVALID PUSH1 0x80 PUSH1 0x40 MSTORE CALLVALUE DUP1 ISZERO PUSH2 0x10 JUMPI PUSH1 0x0 DUP1 REVERT JUMPDEST POP PUSH1 0x4 CALLDATASIZE LT PUSH2 0x18E JUMPI PUSH1 0x0 CALLDATALOAD PUSH1 0xE0 SHR DUP1 PUSH4 0x54575AF4 GT PUSH2 0xDE JUMPI DUP1 PUSH4 0x96805E54 GT PUSH2 0x97 JUMPI DUP1 PUSH4 0xB89E73C1 GT PUSH2 0x71 JUMPI DUP1 PUSH4 0xB89E73C1 EQ PUSH2 0x46C JUMPI DUP1 PUSH4 0xBEF7A2F0 EQ PUSH2 0x489 JUMPI DUP1 PUSH4 0xC4D66DE8 EQ PUSH2 0x491 JUMPI DUP1 PUSH4 0xE2BBB158 EQ PUSH2 0x4B7 JUMPI PUSH2 0x18E JUMP JUMPDEST DUP1 PUSH4 0x96805E54 EQ PUSH2 0x3EF JUMPI DUP1 PUSH4 0x9A25CEFC EQ PUSH2 0x429 JUMPI DUP1 PUSH4 0xB3AB15FB EQ PUSH2 0x446 JUMPI PUSH2 0x18E JUMP JUMPDEST DUP1 PUSH4 0x54575AF4 EQ PUSH2 0x354 JUMPI DUP1 PUSH4 0x570CA735 EQ PUSH2 0x38A JUMPI DUP1 PUSH4 0x5D114DCC EQ PUSH2 0x392 JUMPI DUP1 PUSH4 0x5F96DC11 EQ PUSH2 0x39A JUMPI DUP1 PUSH4 0x630B5BA1 EQ PUSH2 0x3A2 JUMPI DUP1 PUSH4 0x93F1A40B EQ PUSH2 0x3AA JUMPI PUSH2 0x18E JUMP JUMPDEST DUP1 PUSH4 0x234FBF32 GT PUSH2 0x14B JUMPI DUP1 PUSH4 0x3BEB26C4 GT PUSH2 0x125 JUMPI DUP1 PUSH4 0x3BEB26C4 EQ PUSH2 0x2DA JUMPI DUP1 PUSH4 0x441A3E70 EQ PUSH2 0x2F7 JUMPI DUP1 PUSH4 0x51EB05A6 EQ PUSH2 0x31A JUMPI DUP1 PUSH4 0x5312EA8E EQ PUSH2 0x337 JUMPI PUSH2 0x18E JUMP JUMPDEST DUP1 PUSH4 0x234FBF32 EQ PUSH2 0x291 JUMPI DUP1 PUSH4 0x38B24F31 EQ PUSH2 0x2B5 JUMPI DUP1 PUSH4 0x392E53CD EQ PUSH2 0x2D2 JUMPI PUSH2 0x18E JUMP JUMPDEST DUP1 PUSH4 0x1526FE27 EQ PUSH2 0x193 JUMPI DUP1 PUSH4 0x158EF93E EQ PUSH2 0x1E7 JUMPI DUP1 PUSH4 0x17CAF6F1 EQ PUSH2 0x203 JUMPI DUP1 PUSH4 0x1A131779 EQ PUSH2 0x21D JUMPI DUP1 PUSH4 0x1AB06EE5 EQ PUSH2 0x249 JUMPI DUP1 PUSH4 0x231F0C6A EQ PUSH2 0x26E JUMPI JUMPDEST PUSH1 0x0 DUP1 REVERT JUMPDEST PUSH2 0x1B0 PUSH1 0x4 DUP1 CALLDATASIZE SUB PUSH1 0x20 DUP2 LT ISZERO PUSH2 0x1A9 JUMPI PUSH1 0x0 DUP1 REVERT JUMPDEST POP CALLDATALOAD PUSH2 0x4DA JUMP JUMPDEST PUSH1 0x40 DUP1 MLOAD PUSH1 0x1 PUSH1 0x1 PUSH1 0xA0 SHL SUB SWAP1 SWAP7 AND DUP7 MSTORE PUSH1 0x20 DUP7 ADD SWAP5 SWAP1 SWAP5 MSTORE DUP5 DUP5 ADD SWAP3 SWAP1 SWAP3 MSTORE PUSH1 0x60 DUP5 ADD MSTORE ISZERO ISZERO PUSH1 0x80 DUP4 ADD MSTORE MLOAD SWAP1 DUP2 SWAP1 SUB PUSH1 0xA0 ADD SWAP1 RETURN JUMPDEST PUSH2 0x1EF PUSH2 0x525 JUMP JUMPDEST PUSH1 0x40 DUP1 MLOAD SWAP2 ISZERO ISZERO DUP3 MSTORE MLOAD SWAP1 DUP2 SWAP1 SUB PUSH1 0x20 ADD SWAP1 RETURN JUMPDEST PUSH2 0x20B PUSH2 0x52E JUMP JUMPDEST PUSH1 0x40 DUP1 MLOAD SWAP2 DUP3 MSTORE MLOAD SWAP1 DUP2 SWAP1 SUB PUSH1 0x20 ADD SWAP1 RETURN JUMPDEST PUSH2 0x20B PUSH1 0x4 DUP1 CALLDATASIZE SUB PUSH1 0x40 DUP2 LT ISZERO PUSH2 0x233 JUMPI PUSH1 0x0 DUP1 REVERT JUMPDEST POP DUP1 CALLDATALOAD SWAP1 PUSH1 0x20 ADD CALLDATALOAD PUSH1 0x1 PUSH1 0x1 PUSH1 0xA0 SHL SUB AND PUSH2 0x534 JUMP JUMPDEST PUSH2 0x26C PUSH1 0x4 DUP1 CALLDATASIZE SUB PUSH1 0x40 DUP2 LT ISZERO PUSH2 0x25F JUMPI PUSH1 0x0 DUP1 REVERT JUMPDEST POP DUP1 CALLDATALOAD SWAP1 PUSH1 0x20 ADD CALLDATALOAD PUSH2 0x69F JUMP JUMPDEST STOP JUMPDEST PUSH2 0x20B PUSH1 0x4 DUP1 CALLDATASIZE SUB PUSH1 0x40 DUP2 LT ISZERO PUSH2 0x284 JUMPI PUSH1 0x0 DUP1 REVERT JUMPDEST POP DUP1 CALLDATALOAD SWAP1 PUSH1 0x20 ADD CALLDATALOAD PUSH2 0x74D JUMP JUMPDEST PUSH2 0x299 PUSH2 0x90A JUMP JUMPDEST PUSH1 0x40 DUP1 MLOAD PUSH1 0x1 PUSH1 0x1 PUSH1 0xA0 SHL SUB SWAP1 SWAP3 AND DUP3 MSTORE MLOAD SWAP1 DUP2 SWAP1 SUB PUSH1 0x20 ADD SWAP1 RETURN JUMPDEST PUSH2 0x20B PUSH1 0x4 DUP1 CALLDATASIZE SUB PUSH1 0x20 DUP2 LT ISZERO PUSH2 0x2CB JUMPI PUSH1 0x0 DUP1 REVERT JUMPDEST POP CALLDATALOAD PUSH2 0x919 JUMP JUMPDEST PUSH2 0x1EF PUSH2 0x92D JUMP JUMPDEST PUSH2 0x26C PUSH1 0x4 DUP1 CALLDATASIZE SUB PUSH1 0x20 DUP2 LT ISZERO PUSH2 0x2F0 JUMPI PUSH1 0x0 DUP1 REVERT JUMPDEST POP CALLDATALOAD PUSH2 0x936 JUMP JUMPDEST PUSH2 0x26C PUSH1 0x4 DUP1 CALLDATASIZE SUB PUSH1 0x40 DUP2 LT ISZERO PUSH2 0x30D JUMPI PUSH1 0x0 DUP1 REVERT JUMPDEST POP DUP1 CALLDATALOAD SWAP1 PUSH1 0x20 ADD CALLDATALOAD PUSH2 0x9D4 JUMP JUMPDEST PUSH2 0x26C PUSH1 0x4 DUP1 CALLDATASIZE SUB PUSH1 0x20 DUP2 LT ISZERO PUSH2 0x330 JUMPI PUSH1 0x0 DUP1 REVERT JUMPDEST POP CALLDATALOAD PUSH2 0xB87 JUMP JUMPDEST PUSH2 0x26C PUSH1 0x4 DUP1 CALLDATASIZE SUB PUSH1 0x20 DUP2 LT ISZERO PUSH2 0x34D JUMPI PUSH1 0x0 DUP1 REVERT JUMPDEST POP CALLDATALOAD PUSH2 0xCE5 JUMP JUMPDEST PUSH2 0x26C PUSH1 0x4 DUP1 CALLDATASIZE SUB PUSH1 0x60 DUP2 LT ISZERO PUSH2 0x36A JUMPI PUSH1 0x0 DUP1 REVERT JUMPDEST POP PUSH1 0x1 PUSH1 0x1 PUSH1 0xA0 SHL SUB DUP2 CALLDATALOAD DUP2 AND SWAP2 PUSH1 0x20 DUP2 ADD CALLDATALOAD SWAP2 PUSH1 0x40 SWAP1 SWAP2 ADD CALLDATALOAD AND PUSH2 0xD7E JUMP JUMPDEST PUSH2 0x299 PUSH2 0xEC9 JUMP JUMPDEST PUSH2 0x299 PUSH2 0xED8 JUMP JUMPDEST PUSH2 0x20B PUSH2 0xEE7 JUMP JUMPDEST PUSH2 0x26C PUSH2 0xEED JUMP JUMPDEST PUSH2 0x3D6 PUSH1 0x4 DUP1 CALLDATASIZE SUB PUSH1 0x40 DUP2 LT ISZERO PUSH2 0x3C0 JUMPI PUSH1 0x0 DUP1 REVERT JUMPDEST POP DUP1 CALLDATALOAD SWAP1 PUSH1 0x20 ADD CALLDATALOAD PUSH1 0x1 PUSH1 0x1 PUSH1 0xA0 SHL SUB AND PUSH2 0xF10 JUMP JUMPDEST PUSH1 0x40 DUP1 MLOAD SWAP3 DUP4 MSTORE PUSH1 0x20 DUP4 ADD SWAP2 SWAP1 SWAP2 MSTORE DUP1 MLOAD SWAP2 DUP3 SWAP1 SUB ADD SWAP1 RETURN JUMPDEST PUSH2 0x26C PUSH1 0x4 DUP1 CALLDATASIZE SUB PUSH1 0x80 DUP2 LT ISZERO PUSH2 0x405 JUMPI PUSH1 0x0 DUP1 REVERT JUMPDEST POP DUP1 CALLDATALOAD SWAP1 PUSH1 0x1 PUSH1 0x1 PUSH1 0xA0 SHL SUB PUSH1 0x20 DUP3 ADD CALLDATALOAD AND SWAP1 PUSH1 0x40 DUP2 ADD CALLDATALOAD ISZERO ISZERO SWAP1 PUSH1 0x60 ADD CALLDATALOAD PUSH2 0xF34 JUMP JUMPDEST PUSH2 0x20B PUSH1 0x4 DUP1 CALLDATASIZE SUB PUSH1 0x20 DUP2 LT ISZERO PUSH2 0x43F JUMPI PUSH1 0x0 DUP1 REVERT JUMPDEST POP CALLDATALOAD PUSH2 0x1131 JUMP JUMPDEST PUSH2 0x26C PUSH1 0x4 DUP1 CALLDATASIZE SUB PUSH1 0x20 DUP2 LT ISZERO PUSH2 0x45C JUMPI PUSH1 0x0 DUP1 REVERT JUMPDEST POP CALLDATALOAD PUSH1 0x1 PUSH1 0x1 PUSH1 0xA0 SHL SUB AND PUSH2 0x114F JUMP JUMPDEST PUSH2 0x20B PUSH1 0x4 DUP1 CALLDATASIZE SUB PUSH1 0x20 DUP2 LT ISZERO PUSH2 0x482 JUMPI PUSH1 0x0 DUP1 REVERT JUMPDEST POP CALLDATALOAD PUSH2 0x11BA JUMP JUMPDEST PUSH2 0x20B PUSH2 0x11C7 JUMP JUMPDEST PUSH2 0x26C PUSH1 0x4 DUP1 CALLDATASIZE SUB PUSH1 0x20 DUP2 LT ISZERO PUSH2 0x4A7 JUMPI PUSH1 0x0 DUP1 REVERT JUMPDEST POP CALLDATALOAD PUSH1 0x1 PUSH1 0x1 PUSH1 0xA0 SHL SUB AND PUSH2 0x11CD JUMP JUMPDEST PUSH2 0x26C PUSH1 0x4 DUP1 CALLDATASIZE SUB PUSH1 0x40 DUP2 LT ISZERO PUSH2 0x4CD JUMPI PUSH1 0x0 DUP1 REVERT JUMPDEST POP DUP1 CALLDATALOAD SWAP1 PUSH1 0x20 ADD CALLDATALOAD PUSH2 0x12AD JUMP JUMPDEST PUSH1 0x2 DUP2 DUP2 SLOAD DUP2 LT PUSH2 0x4E7 JUMPI INVALID JUMPDEST PUSH1 0x0 SWAP2 DUP3 MSTORE PUSH1 0x20 SWAP1 SWAP2 KECCAK256 PUSH1 0x5 SWAP1 SWAP2 MUL ADD DUP1 SLOAD PUSH1 0x1 DUP3 ADD SLOAD PUSH1 0x2 DUP4 ADD SLOAD PUSH1 0x3 DUP5 ADD SLOAD PUSH1 0x4 SWAP1 SWAP5 ADD SLOAD PUSH1 0x1 PUSH1 0x1 PUSH1 0xA0 SHL SUB SWAP1 SWAP4 AND SWAP5 POP SWAP1 SWAP3 SWAP1 SWAP2 PUSH1 0xFF AND DUP6 JUMP JUMPDEST PUSH1 0xC SLOAD PUSH1 0xFF AND DUP2 JUMP JUMPDEST PUSH1 0x6 SLOAD DUP2 JUMP JUMPDEST PUSH1 0x0 DUP1 PUSH1 0x2 DUP5 DUP2 SLOAD DUP2 LT PUSH2 0x544 JUMPI INVALID JUMPDEST PUSH1 0x0 SWAP2 DUP3 MSTORE PUSH1 0x20 DUP1 DUP4 KECCAK256 DUP8 DUP5 MSTORE PUSH1 0x5 DUP1 DUP4 MSTORE PUSH1 0x40 DUP1 DUP7 KECCAK256 PUSH1 0x1 PUSH1 0x1 PUSH1 0xA0 SHL SUB DUP1 DUP12 AND DUP9 MSTORE SWAP1 DUP6 MSTORE DUP2 DUP8 KECCAK256 PUSH1 0x3 SWAP4 SWAP1 SWAP7 MUL SWAP1 SWAP4 ADD SWAP2 DUP3 ADD SLOAD DUP3 SLOAD DUP3 MLOAD PUSH4 0x70A08231 PUSH1 0xE0 SHL DUP2 MSTORE ADDRESS PUSH1 0x4 DUP3 ADD MSTORE SWAP3 MLOAD SWAP4 SWAP9 POP SWAP6 SWAP7 SWAP1 SWAP6 SWAP1 SWAP5 SWAP4 AND SWAP3 PUSH4 0x70A08231 SWAP3 PUSH1 0x24 DUP1 DUP5 ADD SWAP4 DUP3 SWAP1 SUB ADD DUP2 DUP7 DUP1 EXTCODESIZE ISZERO DUP1 ISZERO PUSH2 0x5BD JUMPI PUSH1 0x0 DUP1 REVERT JUMPDEST POP GAS STATICCALL ISZERO DUP1 ISZERO PUSH2 0x5D1 JUMPI RETURNDATASIZE PUSH1 0x0 DUP1 RETURNDATACOPY RETURNDATASIZE PUSH1 0x0 REVERT JUMPDEST POP POP POP POP PUSH1 0x40 MLOAD RETURNDATASIZE PUSH1 0x20 DUP2 LT ISZERO PUSH2 0x5E7 JUMPI PUSH1 0x0 DUP1 REVERT JUMPDEST POP MLOAD PUSH1 0x2 DUP6 ADD SLOAD SWAP1 SWAP2 POP TIMESTAMP GT DUP1 ISZERO PUSH2 0x5FE JUMPI POP DUP1 ISZERO ISZERO JUMPDEST ISZERO PUSH2 0x661 JUMPI PUSH1 0x0 PUSH2 0x613 DUP6 PUSH1 0x2 ADD SLOAD TIMESTAMP PUSH2 0x74D JUMP JUMPDEST SWAP1 POP PUSH1 0x0 PUSH2 0x63A PUSH1 0x6 SLOAD PUSH2 0x634 DUP9 PUSH1 0x1 ADD SLOAD DUP6 PUSH2 0x1451 SWAP1 SWAP2 SWAP1 PUSH4 0xFFFFFFFF AND JUMP JUMPDEST SWAP1 PUSH2 0x14AA JUMP JUMPDEST SWAP1 POP PUSH2 0x65C PUSH2 0x655 DUP5 PUSH2 0x634 DUP5 PUSH8 0xDE0B6B3A7640000 PUSH2 0x1451 JUMP JUMPDEST DUP6 SWAP1 PUSH2 0x1511 JUMP JUMPDEST SWAP4 POP POP POP JUMPDEST PUSH2 0x692 DUP4 PUSH1 0x1 ADD SLOAD PUSH2 0x68C PUSH8 0xDE0B6B3A7640000 PUSH2 0x634 DUP7 DUP9 PUSH1 0x0 ADD SLOAD PUSH2 0x1451 SWAP1 SWAP2 SWAP1 PUSH4 0xFFFFFFFF AND JUMP JUMPDEST SWAP1 PUSH2 0x156B JUMP JUMPDEST SWAP5 POP POP POP POP POP JUMPDEST SWAP3 SWAP2 POP POP JUMP JUMPDEST PUSH1 0x0 SLOAD PUSH1 0x1 PUSH1 0x1 PUSH1 0xA0 SHL SUB AND CALLER EQ PUSH2 0x6E8 JUMPI PUSH1 0x40 MLOAD PUSH3 0x461BCD PUSH1 0xE5 SHL DUP2 MSTORE PUSH1 0x4 ADD DUP1 DUP1 PUSH1 0x20 ADD DUP3 DUP2 SUB DUP3 MSTORE PUSH1 0x2D DUP2 MSTORE PUSH1 0x20 ADD DUP1 PUSH2 0x1AF3 PUSH1 0x2D SWAP2 CODECOPY PUSH1 0x40 ADD SWAP2 POP POP PUSH1 0x40 MLOAD DUP1 SWAP2 SUB SWAP1 REVERT JUMPDEST PUSH2 0x6F0 PUSH2 0xEED JUMP JUMPDEST PUSH1 0x0 PUSH1 0x2 DUP4 DUP2 SLOAD DUP2 LT PUSH2 0x6FF JUMPI INVALID JUMPDEST PUSH1 0x0 SWAP2 DUP3 MSTORE PUSH1 0x20 SWAP1 SWAP2 KECCAK256 PUSH1 0x5 SWAP1 SWAP2 MUL ADD PUSH1 0x4 DUP2 ADD SLOAD SWAP1 SWAP2 POP PUSH1 0xFF AND ISZERO PUSH2 0x746 JUMPI PUSH2 0x742 DUP3 PUSH2 0x73C DUP4 PUSH1 0x1 ADD SLOAD PUSH1 0x6 SLOAD PUSH2 0x156B SWAP1 SWAP2 SWAP1 PUSH4 0xFFFFFFFF AND JUMP JUMPDEST SWAP1 PUSH2 0x1511 JUMP JUMPDEST PUSH1 0x6 SSTORE JUMPDEST PUSH1 0x1 ADD SSTORE POP JUMP JUMPDEST PUSH1 0x0 PUSH1 0x2 JUMPDEST PUSH1 0x1 DUP2 PUSH1 0xFF AND LT PUSH2 0x8F1 JUMPI PUSH1 0x9 PUSH1 0x1 DUP3 SUB PUSH1 0xFF AND PUSH1 0x3 DUP2 LT PUSH2 0x770 JUMPI INVALID JUMPDEST ADD SLOAD DUP4 LT PUSH2 0x8E8 JUMPI PUSH1 0x9 PUSH1 0x1 DUP3 SUB PUSH1 0xFF AND PUSH1 0x3 DUP2 LT PUSH2 0x78B JUMPI INVALID JUMPDEST ADD SLOAD DUP5 LT PUSH2 0x7C0 JUMPI PUSH2 0x7B8 PUSH1 0xD DUP3 PUSH1 0xFF AND PUSH1 0x3 DUP2 LT PUSH2 0x7A6 JUMPI INVALID JUMPDEST ADD SLOAD PUSH2 0x7B2 DUP6 DUP8 PUSH2 0x156B JUMP JUMPDEST SWAP1 PUSH2 0x1451 JUMP JUMPDEST SWAP2 POP POP PUSH2 0x699 JUMP JUMPDEST PUSH1 0x0 PUSH2 0x7F6 PUSH1 0xD DUP4 PUSH1 0xFF AND PUSH1 0x3 DUP2 LT PUSH2 0x7D5 JUMPI INVALID JUMPDEST ADD SLOAD PUSH2 0x7B2 PUSH1 0x9 PUSH1 0x1 DUP7 SUB PUSH1 0xFF AND PUSH1 0x3 DUP2 LT PUSH2 0x7ED JUMPI INVALID JUMPDEST ADD SLOAD DUP8 SWAP1 PUSH2 0x156B JUMP JUMPDEST SWAP1 POP DUP2 PUSH1 0xFF AND PUSH1 0x1 EQ ISZERO PUSH2 0x832 JUMPI PUSH2 0x829 PUSH2 0x822 PUSH1 0xD PUSH1 0x0 JUMPDEST ADD SLOAD PUSH2 0x7B2 DUP9 PUSH1 0x9 PUSH1 0x0 JUMPDEST ADD SLOAD SWAP1 PUSH2 0x156B JUMP JUMPDEST DUP3 SWAP1 PUSH2 0x1511 JUMP JUMPDEST SWAP3 POP POP POP PUSH2 0x699 JUMP JUMPDEST PUSH1 0x1 DUP3 SUB SWAP2 POP JUMPDEST PUSH1 0x1 DUP3 PUSH1 0xFF AND LT PUSH2 0x8D9 JUMPI PUSH1 0x9 PUSH1 0x1 DUP4 SUB PUSH1 0xFF AND PUSH1 0x3 DUP2 LT PUSH2 0x857 JUMPI INVALID JUMPDEST ADD SLOAD DUP6 LT PUSH2 0x88B JUMPI PUSH2 0x829 PUSH2 0x822 PUSH1 0xD DUP5 PUSH1 0xFF AND PUSH1 0x3 DUP2 LT PUSH2 0x875 JUMPI INVALID JUMPDEST ADD SLOAD PUSH2 0x7B2 DUP9 PUSH1 0x9 DUP8 PUSH1 0xFF AND PUSH1 0x3 DUP2 LT PUSH2 0x81A JUMPI INVALID JUMPDEST PUSH2 0x8CB PUSH2 0x822 PUSH1 0xD DUP5 PUSH1 0xFF AND PUSH1 0x3 DUP2 LT PUSH2 0x8A1 JUMPI INVALID JUMPDEST ADD SLOAD PUSH2 0x7B2 PUSH1 0x9 PUSH1 0x1 DUP8 SUB PUSH1 0xFF AND PUSH1 0x3 DUP2 LT PUSH2 0x8B9 JUMPI INVALID JUMPDEST ADD SLOAD PUSH1 0x9 DUP8 PUSH1 0xFF AND PUSH1 0x3 DUP2 LT PUSH2 0x81A JUMPI INVALID JUMPDEST PUSH1 0x0 NOT SWAP1 SWAP3 ADD SWAP2 SWAP1 POP PUSH2 0x839 JUMP JUMPDEST PUSH2 0x829 PUSH2 0x822 PUSH1 0xD PUSH1 0x0 PUSH2 0x80F JUMP JUMPDEST PUSH1 0x0 NOT ADD PUSH2 0x752 JUMP JUMPDEST POP PUSH1 0xD SLOAD PUSH2 0x903 SWAP1 PUSH2 0x7B2 DUP5 DUP7 PUSH2 0x156B JUMP JUMPDEST SWAP4 SWAP3 POP POP POP JUMP JUMPDEST PUSH1 0x1 SLOAD PUSH1 0x1 PUSH1 0x1 PUSH1 0xA0 SHL SUB AND DUP2 JUMP JUMPDEST PUSH1 0xD DUP2 PUSH1 0x3 DUP2 LT PUSH2 0x926 JUMPI INVALID JUMPDEST ADD SLOAD SWAP1 POP DUP2 JUMP JUMPDEST PUSH1 0xC SLOAD PUSH1 0xFF AND SWAP1 JUMP JUMPDEST PUSH1 0x0 SLOAD PUSH1 0x1 PUSH1 0x1 PUSH1 0xA0 SHL SUB AND CALLER EQ PUSH2 0x97F JUMPI PUSH1 0x40 MLOAD PUSH3 0x461BCD PUSH1 0xE5 SHL DUP2 MSTORE PUSH1 0x4 ADD DUP1 DUP1 PUSH1 0x20 ADD DUP3 DUP2 SUB DUP3 MSTORE PUSH1 0x2D DUP2 MSTORE PUSH1 0x20 ADD DUP1 PUSH2 0x1AF3 PUSH1 0x2D SWAP2 CODECOPY PUSH1 0x40 ADD SWAP2 POP POP PUSH1 0x40 MLOAD DUP1 SWAP2 SUB SWAP1 REVERT JUMPDEST DUP1 TIMESTAMP LT PUSH2 0x9BC JUMPI PUSH1 0x40 DUP1 MLOAD PUSH3 0x461BCD PUSH1 0xE5 SHL DUP2 MSTORE PUSH1 0x20 PUSH1 0x4 DUP1 DUP4 ADD SWAP2 SWAP1 SWAP2 MSTORE PUSH1 0x24 DUP3 ADD MSTORE PUSH4 0x6C617465 PUSH1 0xE0 SHL PUSH1 0x44 DUP3 ADD MSTORE SWAP1 MLOAD SWAP1 DUP2 SWAP1 SUB PUSH1 0x64 ADD SWAP1 REVERT JUMPDEST PUSH1 0x7 DUP2 SWAP1 SSTORE PUSH3 0x54600 DUP2 ADD PUSH1 0x9 SSTORE PUSH3 0xBDD80 ADD PUSH1 0xA SSTORE JUMP JUMPDEST PUSH1 0x0 CALLER SWAP1 POP PUSH1 0x0 PUSH1 0x2 DUP5 DUP2 SLOAD DUP2 LT PUSH2 0x9E8 JUMPI INVALID JUMPDEST PUSH1 0x0 SWAP2 DUP3 MSTORE PUSH1 0x20 DUP1 DUP4 KECCAK256 DUP8 DUP5 MSTORE PUSH1 0x5 DUP1 DUP4 MSTORE PUSH1 0x40 DUP1 DUP7 KECCAK256 PUSH1 0x1 PUSH1 0x1 PUSH1 0xA0 SHL SUB DUP10 AND DUP8 MSTORE SWAP1 SWAP4 MSTORE SWAP2 SWAP1 SWAP4 KECCAK256 DUP1 SLOAD SWAP3 SWAP1 SWAP2 MUL SWAP1 SWAP3 ADD SWAP3 POP DUP5 GT ISZERO PUSH2 0xA66 JUMPI PUSH1 0x40 DUP1 MLOAD PUSH3 0x461BCD PUSH1 0xE5 SHL DUP2 MSTORE PUSH1 0x20 PUSH1 0x4 DUP3 ADD MSTORE PUSH1 0x12 PUSH1 0x24 DUP3 ADD MSTORE PUSH18 0x1DDA5D1A191C985DCE881B9BDD0819DBDBD9 PUSH1 0x72 SHL PUSH1 0x44 DUP3 ADD MSTORE SWAP1 MLOAD SWAP1 DUP2 SWAP1 SUB PUSH1 0x64 ADD SWAP1 REVERT JUMPDEST PUSH2 0xA6F DUP6 PUSH2 0xB87 JUMP JUMPDEST PUSH1 0x0 PUSH2 0xAA0 DUP3 PUSH1 0x1 ADD SLOAD PUSH2 0x68C PUSH8 0xDE0B6B3A7640000 PUSH2 0x634 DUP8 PUSH1 0x3 ADD SLOAD DUP8 PUSH1 0x0 ADD SLOAD PUSH2 0x1451 SWAP1 SWAP2 SWAP1 PUSH4 0xFFFFFFFF AND JUMP JUMPDEST SWAP1 POP DUP1 ISZERO PUSH2 0xAF2 JUMPI PUSH2 0xAB2 DUP5 DUP3 PUSH2 0x15C8 JUMP JUMPDEST PUSH1 0x40 DUP1 MLOAD DUP3 DUP2 MSTORE SWAP1 MLOAD PUSH1 0x1 PUSH1 0x1 PUSH1 0xA0 SHL SUB DUP7 AND SWAP2 PUSH32 0xE2403640BA68FED3A2F88B7557551D1993F84B99BB10FF833F0CF8DB0C5E0486 SWAP2 SWAP1 DUP2 SWAP1 SUB PUSH1 0x20 ADD SWAP1 LOG2 JUMPDEST DUP5 ISZERO PUSH2 0xB1C JUMPI DUP2 SLOAD PUSH2 0xB04 SWAP1 DUP7 PUSH2 0x156B JUMP JUMPDEST DUP3 SSTORE DUP3 SLOAD PUSH2 0xB1C SWAP1 PUSH1 0x1 PUSH1 0x1 PUSH1 0xA0 SHL SUB AND DUP6 DUP8 PUSH2 0x167E JUMP JUMPDEST PUSH1 0x3 DUP4 ADD SLOAD DUP3 SLOAD PUSH2 0xB3A SWAP2 PUSH8 0xDE0B6B3A7640000 SWAP2 PUSH2 0x634 SWAP2 PUSH2 0x1451 JUMP JUMPDEST PUSH1 0x1 DUP4 ADD SSTORE PUSH1 0x40 DUP1 MLOAD DUP7 DUP2 MSTORE SWAP1 MLOAD DUP8 SWAP2 PUSH1 0x1 PUSH1 0x1 PUSH1 0xA0 SHL SUB DUP8 AND SWAP2 PUSH32 0xF279E6A1F5E320CCA91135676D9CB6E44CA8A08C0B88342BCDB1144F6511B568 SWAP2 DUP2 SWAP1 SUB PUSH1 0x20 ADD SWAP1 LOG3 POP POP POP POP POP POP JUMP JUMPDEST PUSH1 0x0 PUSH1 0x2 DUP3 DUP2 SLOAD DUP2 LT PUSH2 0xB96 JUMPI INVALID JUMPDEST SWAP1 PUSH1 0x0 MSTORE PUSH1 0x20 PUSH1 0x0 KECCAK256 SWAP1 PUSH1 0x5 MUL ADD SWAP1 POP DUP1 PUSH1 0x2 ADD SLOAD TIMESTAMP GT PUSH2 0xBB7 JUMPI POP PUSH2 0xCE2 JUMP JUMPDEST DUP1 SLOAD PUSH1 0x40 DUP1 MLOAD PUSH4 0x70A08231 PUSH1 0xE0 SHL DUP2 MSTORE ADDRESS PUSH1 0x4 DUP3 ADD MSTORE SWAP1 MLOAD PUSH1 0x0 SWAP3 PUSH1 0x1 PUSH1 0x1 PUSH1 0xA0 SHL SUB AND SWAP2 PUSH4 0x70A08231 SWAP2 PUSH1 0x24 DUP1 DUP4 ADD SWAP3 PUSH1 0x20 SWAP3 SWAP2 SWAP1 DUP3 SWAP1 SUB ADD DUP2 DUP7 DUP1 EXTCODESIZE ISZERO DUP1 ISZERO PUSH2 0xC01 JUMPI PUSH1 0x0 DUP1 REVERT JUMPDEST POP GAS STATICCALL ISZERO DUP1 ISZERO PUSH2 0xC15 JUMPI RETURNDATASIZE PUSH1 0x0 DUP1 RETURNDATACOPY RETURNDATASIZE PUSH1 0x0 REVERT JUMPDEST POP POP POP POP PUSH1 0x40 MLOAD RETURNDATASIZE PUSH1 0x20 DUP2 LT ISZERO PUSH2 0xC2B JUMPI PUSH1 0x0 DUP1 REVERT JUMPDEST POP MLOAD SWAP1 POP DUP1 PUSH2 0xC41 JUMPI POP TIMESTAMP PUSH1 0x2 SWAP1 SWAP2 ADD SSTORE PUSH2 0xCE2 JUMP JUMPDEST PUSH1 0x4 DUP3 ADD SLOAD PUSH1 0xFF AND PUSH2 0xC72 JUMPI PUSH1 0x4 DUP3 ADD DUP1 SLOAD PUSH1 0xFF NOT AND PUSH1 0x1 SWAP1 DUP2 OR SWAP1 SWAP2 SSTORE DUP3 ADD SLOAD PUSH1 0x6 SLOAD PUSH2 0xC6E SWAP2 PUSH2 0x1511 JUMP JUMPDEST PUSH1 0x6 SSTORE JUMPDEST PUSH1 0x6 SLOAD ISZERO PUSH2 0xCD9 JUMPI PUSH1 0x0 PUSH2 0xC8A DUP4 PUSH1 0x2 ADD SLOAD TIMESTAMP PUSH2 0x74D JUMP JUMPDEST SWAP1 POP PUSH1 0x0 PUSH2 0xCAB PUSH1 0x6 SLOAD PUSH2 0x634 DUP7 PUSH1 0x1 ADD SLOAD DUP6 PUSH2 0x1451 SWAP1 SWAP2 SWAP1 PUSH4 0xFFFFFFFF AND JUMP JUMPDEST SWAP1 POP PUSH2 0xCD1 PUSH2 0xCC6 DUP5 PUSH2 0x634 DUP5 PUSH8 0xDE0B6B3A7640000 PUSH2 0x1451 JUMP JUMPDEST PUSH1 0x3 DUP7 ADD SLOAD SWAP1 PUSH2 0x1511 JUMP JUMPDEST PUSH1 0x3 DUP6 ADD SSTORE POP POP JUMPDEST POP TIMESTAMP PUSH1 0x2 SWAP1 SWAP2 ADD SSTORE JUMPDEST POP JUMP JUMPDEST PUSH1 0x0 PUSH1 0x2 DUP3 DUP2 SLOAD DUP2 LT PUSH2 0xCF4 JUMPI INVALID JUMPDEST PUSH1 0x0 SWAP2 DUP3 MSTORE PUSH1 0x20 DUP1 DUP4 KECCAK256 DUP6 DUP5 MSTORE PUSH1 0x5 DUP1 DUP4 MSTORE PUSH1 0x40 DUP1 DUP7 KECCAK256 CALLER DUP1 DUP9 MSTORE SWAP5 MSTORE DUP6 KECCAK256 DUP1 SLOAD DUP7 DUP3 SSTORE PUSH1 0x1 DUP3 ADD SWAP7 SWAP1 SWAP7 SSTORE SWAP4 MUL ADD DUP1 SLOAD SWAP1 SWAP5 POP SWAP2 SWAP3 SWAP2 PUSH2 0xD41 SWAP2 PUSH1 0x1 PUSH1 0x1 PUSH1 0xA0 SHL SUB SWAP1 SWAP2 AND SWAP1 DUP4 PUSH2 0x167E JUMP JUMPDEST PUSH1 0x40 DUP1 MLOAD DUP3 DUP2 MSTORE SWAP1 MLOAD DUP6 SWAP2 CALLER SWAP2 PUSH32 0xBB757047C2B5F3974FE26B7C10F732E7BCE710B0952A71082702781E62AE0595 SWAP2 DUP2 SWAP1 SUB PUSH1 0x20 ADD SWAP1 LOG3 POP POP POP POP JUMP JUMPDEST PUSH1 0x0 SLOAD PUSH1 0x1 PUSH1 0x1 PUSH1 0xA0 SHL SUB AND CALLER EQ PUSH2 0xDC7 JUMPI PUSH1 0x40 MLOAD PUSH3 0x461BCD PUSH1 0xE5 SHL DUP2 MSTORE PUSH1 0x4 ADD DUP1 DUP1 PUSH1 0x20 ADD DUP3 DUP2 SUB DUP3 MSTORE PUSH1 0x2D DUP2 MSTORE PUSH1 0x20 ADD DUP1 PUSH2 0x1AF3 PUSH1 0x2D SWAP2 CODECOPY PUSH1 0x40 ADD SWAP2 POP POP PUSH1 0x40 MLOAD DUP1 SWAP2 SUB SWAP1 REVERT JUMPDEST PUSH1 0xA SLOAD PUSH3 0x278D00 ADD TIMESTAMP LT ISZERO PUSH2 0xEB0 JUMPI PUSH1 0x1 SLOAD PUSH1 0x1 PUSH1 0x1 PUSH1 0xA0 SHL SUB DUP5 DUP2 AND SWAP2 AND EQ ISZERO PUSH2 0xE24 JUMPI PUSH1 0x40 DUP1 MLOAD PUSH3 0x461BCD PUSH1 0xE5 SHL DUP2 MSTORE PUSH1 0x20 PUSH1 0x4 DUP3 ADD MSTORE PUSH1 0x8 PUSH1 0x24 DUP3 ADD MSTORE PUSH8 0x8515B98DC9E5C1D PUSH1 0xC2 SHL PUSH1 0x44 DUP3 ADD MSTORE SWAP1 MLOAD SWAP1 DUP2 SWAP1 SUB PUSH1 0x64 ADD SWAP1 REVERT JUMPDEST PUSH1 0x2 SLOAD PUSH1 0x0 JUMPDEST DUP2 DUP2 LT ISZERO PUSH2 0xEAD JUMPI PUSH1 0x0 PUSH1 0x2 DUP3 DUP2 SLOAD DUP2 LT PUSH2 0xE41 JUMPI INVALID JUMPDEST PUSH1 0x0 SWAP2 DUP3 MSTORE PUSH1 0x20 SWAP1 SWAP2 KECCAK256 PUSH1 0x5 SWAP1 SWAP2 MUL ADD DUP1 SLOAD SWAP1 SWAP2 POP PUSH1 0x1 PUSH1 0x1 PUSH1 0xA0 SHL SUB DUP8 DUP2 AND SWAP2 AND EQ ISZERO PUSH2 0xEA4 JUMPI PUSH1 0x40 DUP1 MLOAD PUSH3 0x461BCD PUSH1 0xE5 SHL DUP2 MSTORE PUSH1 0x20 PUSH1 0x4 DUP3 ADD MSTORE PUSH1 0xB PUSH1 0x24 DUP3 ADD MSTORE PUSH11 0x10B837B7B6173A37B5B2B7 PUSH1 0xA9 SHL PUSH1 0x44 DUP3 ADD MSTORE SWAP1 MLOAD SWAP1 DUP2 SWAP1 SUB PUSH1 0x64 ADD SWAP1 REVERT JUMPDEST POP PUSH1 0x1 ADD PUSH2 0xE2A JUMP JUMPDEST POP POP JUMPDEST PUSH2 0xEC4 PUSH1 0x1 PUSH1 0x1 PUSH1 0xA0 SHL SUB DUP5 AND DUP3 DUP5 PUSH2 0x167E JUMP JUMPDEST POP POP POP JUMP JUMPDEST PUSH1 0x0 SLOAD PUSH1 0x1 PUSH1 0x1 PUSH1 0xA0 SHL SUB AND DUP2 JUMP JUMPDEST PUSH1 0x4 SLOAD PUSH1 0x1 PUSH1 0x1 PUSH1 0xA0 SHL SUB AND DUP2 JUMP JUMPDEST PUSH1 0x7 SLOAD DUP2 JUMP JUMPDEST PUSH1 0x2 SLOAD PUSH1 0x0 JUMPDEST DUP2 DUP2 LT ISZERO PUSH2 0xF0C JUMPI PUSH2 0xF04 DUP2 PUSH2 0xB87 JUMP JUMPDEST PUSH1 0x1 ADD PUSH2 0xEF3 JUMP JUMPDEST POP POP JUMP JUMPDEST PUSH1 0x5 PUSH1 0x20 SWAP1 DUP2 MSTORE PUSH1 0x0 SWAP3 DUP4 MSTORE PUSH1 0x40 DUP1 DUP5 KECCAK256 SWAP1 SWAP2 MSTORE SWAP1 DUP3 MSTORE SWAP1 KECCAK256 DUP1 SLOAD PUSH1 0x1 SWAP1 SWAP2 ADD SLOAD DUP3 JUMP JUMPDEST PUSH1 0x0 SLOAD PUSH1 0x1 PUSH1 0x1 PUSH1 0xA0 SHL SUB AND CALLER EQ PUSH2 0xF7D JUMPI PUSH1 0x40 MLOAD PUSH3 0x461BCD PUSH1 0xE5 SHL DUP2 MSTORE PUSH1 0x4 ADD DUP1 DUP1 PUSH1 0x20 ADD DUP3 DUP2 SUB DUP3 MSTORE PUSH1 0x2D DUP2 MSTORE PUSH1 0x20 ADD DUP1 PUSH2 0x1AF3 PUSH1 0x2D SWAP2 CODECOPY PUSH1 0x40 ADD SWAP2 POP POP PUSH1 0x40 MLOAD DUP1 SWAP2 SUB SWAP1 REVERT JUMPDEST PUSH2 0xF86 DUP4 PUSH2 0x16D0 JUMP JUMPDEST DUP2 ISZERO PUSH2 0xF94 JUMPI PUSH2 0xF94 PUSH2 0xEED JUMP JUMPDEST PUSH1 0x7 SLOAD TIMESTAMP LT ISZERO PUSH2 0xFC0 JUMPI DUP1 PUSH2 0xFAC JUMPI POP PUSH1 0x7 SLOAD PUSH2 0xFBB JUMP JUMPDEST PUSH1 0x7 SLOAD DUP2 LT ISZERO PUSH2 0xFBB JUMPI POP PUSH1 0x7 SLOAD JUMPDEST PUSH2 0xFD4 JUMP JUMPDEST DUP1 ISZERO DUP1 PUSH2 0xFCC JUMPI POP TIMESTAMP DUP2 LT JUMPDEST ISZERO PUSH2 0xFD4 JUMPI POP TIMESTAMP JUMPDEST PUSH1 0x0 PUSH1 0x7 SLOAD DUP3 GT ISZERO DUP1 PUSH2 0xFE7 JUMPI POP TIMESTAMP DUP3 GT ISZERO JUMPDEST PUSH1 0x40 DUP1 MLOAD PUSH1 0xA0 DUP2 ADD DUP3 MSTORE PUSH1 0x1 PUSH1 0x1 PUSH1 0xA0 SHL SUB DUP8 DUP2 AND DUP3 MSTORE PUSH1 0x20 DUP3 ADD DUP10 DUP2 MSTORE SWAP3 DUP3 ADD DUP7 DUP2 MSTORE PUSH1 0x0 PUSH1 0x60 DUP5 ADD DUP2 DUP2 MSTORE DUP7 ISZERO DUP1 ISZERO PUSH1 0x80 DUP8 ADD SWAP1 DUP2 MSTORE PUSH1 0x2 DUP1 SLOAD PUSH1 0x1 DUP2 ADD DUP3 SSTORE SWAP5 MSTORE SWAP6 MLOAD PUSH32 0x405787FA12A823E0F2B7631CC41B3BA8828B3321CA811111FA75CD3AA3BB5ACE PUSH1 0x5 SWAP1 SWAP5 MUL SWAP4 DUP5 ADD DUP1 SLOAD PUSH1 0x1 PUSH1 0x1 PUSH1 0xA0 SHL SUB NOT AND SWAP2 SWAP1 SWAP7 AND OR SWAP1 SWAP5 SSTORE SWAP5 MLOAD PUSH32 0x405787FA12A823E0F2B7631CC41B3BA8828B3321CA811111FA75CD3AA3BB5ACF DUP3 ADD SSTORE SWAP1 MLOAD PUSH32 0x405787FA12A823E0F2B7631CC41B3BA8828B3321CA811111FA75CD3AA3BB5AD0 DUP3 ADD SSTORE SWAP3 MLOAD PUSH32 0x405787FA12A823E0F2B7631CC41B3BA8828B3321CA811111FA75CD3AA3BB5AD1 DUP5 ADD SSTORE SWAP1 MLOAD PUSH32 0x405787FA12A823E0F2B7631CC41B3BA8828B3321CA811111FA75CD3AA3BB5AD2 SWAP1 SWAP3 ADD DUP1 SLOAD PUSH1 0xFF NOT AND SWAP3 ISZERO ISZERO SWAP3 SWAP1 SWAP3 OR SWAP1 SWAP2 SSTORE SWAP1 SWAP2 POP PUSH2 0x112A JUMPI PUSH1 0x6 SLOAD PUSH2 0x1126 SWAP1 DUP7 PUSH2 0x1511 JUMP JUMPDEST PUSH1 0x6 SSTORE JUMPDEST POP POP POP POP POP JUMP JUMPDEST PUSH1 0x8 DUP2 DUP2 SLOAD DUP2 LT PUSH2 0x113E JUMPI INVALID JUMPDEST PUSH1 0x0 SWAP2 DUP3 MSTORE PUSH1 0x20 SWAP1 SWAP2 KECCAK256 ADD SLOAD SWAP1 POP DUP2 JUMP JUMPDEST PUSH1 0x0 SLOAD PUSH1 0x1 PUSH1 0x1 PUSH1 0xA0 SHL SUB AND CALLER EQ PUSH2 0x1198 JUMPI PUSH1 0x40 MLOAD PUSH3 0x461BCD PUSH1 0xE5 SHL DUP2 MSTORE PUSH1 0x4 ADD DUP1 DUP1 PUSH1 0x20 ADD DUP3 DUP2 SUB DUP3 MSTORE PUSH1 0x2D DUP2 MSTORE PUSH1 0x20 ADD DUP1 PUSH2 0x1AF3 PUSH1 0x2D SWAP2 CODECOPY PUSH1 0x40 ADD SWAP2 POP POP PUSH1 0x40 MLOAD DUP1 SWAP2 SUB SWAP1 REVERT JUMPDEST PUSH1 0x0 DUP1 SLOAD PUSH1 0x1 PUSH1 0x1 PUSH1 0xA0 SHL SUB NOT AND PUSH1 0x1 PUSH1 0x1 PUSH1 0xA0 SHL SUB SWAP3 SWAP1 SWAP3 AND SWAP2 SWAP1 SWAP2 OR SWAP1 SSTORE JUMP JUMPDEST PUSH1 0x9 DUP2 PUSH1 0x3 DUP2 LT PUSH2 0x926 JUMPI INVALID JUMPDEST PUSH1 0x3 SLOAD DUP2 JUMP JUMPDEST PUSH1 0xC SLOAD PUSH1 0xFF AND ISZERO PUSH2 0x120F JUMPI PUSH1 0x40 MLOAD PUSH3 0x461BCD PUSH1 0xE5 SHL DUP2 MSTORE PUSH1 0x4 ADD DUP1 DUP1 PUSH1 0x20 ADD DUP3 DUP2 SUB DUP3 MSTORE PUSH1 0x23 DUP2 MSTORE PUSH1 0x20 ADD DUP1 PUSH2 0x1AD0 PUSH1 0x23 SWAP2 CODECOPY PUSH1 0x40 ADD SWAP2 POP POP PUSH1 0x40 MLOAD DUP1 SWAP2 SUB SWAP1 REVERT JUMPDEST PUSH1 0x1 PUSH1 0x1 PUSH1 0xA0 SHL SUB DUP2 AND ISZERO PUSH2 0x123A JUMPI PUSH1 0x1 DUP1 SLOAD PUSH1 0x1 PUSH1 0x1 PUSH1 0xA0 SHL SUB NOT AND PUSH1 0x1 PUSH1 0x1 PUSH1 0xA0 SHL SUB DUP4 AND OR SWAP1 SSTORE JUMPDEST PUSH2 0x1268 PUSH3 0x54600 PUSH1 0x8 PUSH1 0x0 DUP2 SLOAD DUP2 LT PUSH2 0x124F JUMPI INVALID JUMPDEST SWAP1 PUSH1 0x0 MSTORE PUSH1 0x20 PUSH1 0x0 KECCAK256 ADD SLOAD PUSH2 0x14AA SWAP1 SWAP2 SWAP1 PUSH4 0xFFFFFFFF AND JUMP JUMPDEST PUSH1 0xD SSTORE PUSH1 0x8 DUP1 SLOAD PUSH2 0x1283 SWAP2 PUSH3 0x69780 SWAP2 PUSH1 0x1 SWAP1 DUP2 LT PUSH2 0x124F JUMPI INVALID JUMPDEST PUSH1 0xE SSTORE POP PUSH1 0x0 PUSH1 0xF DUP2 SWAP1 SSTORE DUP1 SLOAD PUSH1 0x1 PUSH1 0x1 PUSH1 0xA0 SHL SUB NOT AND CALLER OR SWAP1 SSTORE PUSH1 0xC DUP1 SLOAD PUSH1 0xFF NOT AND PUSH1 0x1 OR SWAP1 SSTORE JUMP JUMPDEST CALLER PUSH1 0x0 PUSH2 0x12B9 DUP4 PUSH2 0x1754 JUMP JUMPDEST SWAP1 POP PUSH1 0x0 PUSH2 0x12C7 DUP5 DUP4 PUSH2 0x156B JUMP JUMPDEST SWAP1 POP PUSH1 0x0 PUSH1 0x2 DUP7 DUP2 SLOAD DUP2 LT PUSH2 0x12D8 JUMPI INVALID JUMPDEST PUSH1 0x0 SWAP2 DUP3 MSTORE PUSH1 0x20 DUP1 DUP4 KECCAK256 DUP10 DUP5 MSTORE PUSH1 0x5 DUP1 DUP4 MSTORE PUSH1 0x40 DUP1 DUP7 KECCAK256 PUSH1 0x1 PUSH1 0x1 PUSH1 0xA0 SHL SUB DUP12 AND DUP8 MSTORE SWAP1 SWAP4 MSTORE SWAP2 SWAP1 SWAP4 KECCAK256 SWAP2 MUL SWAP1 SWAP2 ADD SWAP2 POP PUSH2 0x1312 DUP8 PUSH2 0xB87 JUMP JUMPDEST DUP1 SLOAD ISZERO PUSH2 0x139E JUMPI PUSH1 0x0 PUSH2 0x134A DUP3 PUSH1 0x1 ADD SLOAD PUSH2 0x68C PUSH8 0xDE0B6B3A7640000 PUSH2 0x634 DUP8 PUSH1 0x3 ADD SLOAD DUP8 PUSH1 0x0 ADD SLOAD PUSH2 0x1451 SWAP1 SWAP2 SWAP1 PUSH4 0xFFFFFFFF AND JUMP JUMPDEST SWAP1 POP DUP1 ISZERO PUSH2 0x139C JUMPI PUSH2 0x135C DUP7 DUP3 PUSH2 0x15C8 JUMP JUMPDEST PUSH1 0x40 DUP1 MLOAD DUP3 DUP2 MSTORE SWAP1 MLOAD PUSH1 0x1 PUSH1 0x1 PUSH1 0xA0 SHL SUB DUP9 AND SWAP2 PUSH32 0xE2403640BA68FED3A2F88B7557551D1993F84B99BB10FF833F0CF8DB0C5E0486 SWAP2 SWAP1 DUP2 SWAP1 SUB PUSH1 0x20 ADD SWAP1 LOG2 JUMPDEST POP JUMPDEST DUP6 ISZERO PUSH2 0x13E5 JUMPI DUP2 SLOAD PUSH2 0x13BB SWAP1 PUSH1 0x1 PUSH1 0x1 PUSH1 0xA0 SHL SUB AND DUP7 ADDRESS DUP10 PUSH2 0x1793 JUMP JUMPDEST DUP1 SLOAD PUSH2 0x13C7 SWAP1 DUP5 PUSH2 0x1511 JUMP JUMPDEST DUP2 SSTORE PUSH1 0x4 SLOAD DUP3 SLOAD PUSH2 0x13E5 SWAP2 PUSH1 0x1 PUSH1 0x1 PUSH1 0xA0 SHL SUB SWAP2 DUP3 AND SWAP2 AND DUP7 PUSH2 0x167E JUMP JUMPDEST PUSH1 0x3 DUP3 ADD SLOAD DUP2 SLOAD PUSH2 0x1403 SWAP2 PUSH8 0xDE0B6B3A7640000 SWAP2 PUSH2 0x634 SWAP2 PUSH2 0x1451 JUMP JUMPDEST PUSH1 0x1 DUP3 ADD SSTORE PUSH1 0x40 DUP1 MLOAD DUP8 DUP2 MSTORE SWAP1 MLOAD DUP9 SWAP2 PUSH1 0x1 PUSH1 0x1 PUSH1 0xA0 SHL SUB DUP9 AND SWAP2 PUSH32 0x90890809C654F11D6E72A28FA60149770A0D11EC6C92319D6CEB2BB0A4EA1A15 SWAP2 DUP2 SWAP1 SUB PUSH1 0x20 ADD SWAP1 LOG3 POP POP POP POP POP POP POP JUMP JUMPDEST PUSH1 0x0 DUP3 PUSH2 0x1460 JUMPI POP PUSH1 0x0 PUSH2 0x699 JUMP JUMPDEST DUP3 DUP3 MUL DUP3 DUP5 DUP3 DUP2 PUSH2 0x146D JUMPI INVALID JUMPDEST DIV EQ PUSH2 0x903 JUMPI PUSH1 0x40 MLOAD PUSH3 0x461BCD PUSH1 0xE5 SHL DUP2 MSTORE PUSH1 0x4 ADD DUP1 DUP1 PUSH1 0x20 ADD DUP3 DUP2 SUB DUP3 MSTORE PUSH1 0x21 DUP2 MSTORE PUSH1 0x20 ADD DUP1 PUSH2 0x1B20 PUSH1 0x21 SWAP2 CODECOPY PUSH1 0x40 ADD SWAP2 POP POP PUSH1 0x40 MLOAD DUP1 SWAP2 SUB SWAP1 REVERT JUMPDEST PUSH1 0x0 DUP1 DUP3 GT PUSH2 0x1500 JUMPI PUSH1 0x40 DUP1 MLOAD PUSH3 0x461BCD PUSH1 0xE5 SHL DUP2 MSTORE PUSH1 0x20 PUSH1 0x4 DUP3 ADD MSTORE PUSH1 0x1A PUSH1 0x24 DUP3 ADD MSTORE PUSH32 0x536166654D6174683A206469766973696F6E206279207A65726F000000000000 PUSH1 0x44 DUP3 ADD MSTORE SWAP1 MLOAD SWAP1 DUP2 SWAP1 SUB PUSH1 0x64 ADD SWAP1 REVERT JUMPDEST DUP2 DUP4 DUP2 PUSH2 0x1509 JUMPI INVALID JUMPDEST DIV SWAP4 SWAP3 POP POP POP JUMP JUMPDEST PUSH1 0x0 DUP3 DUP3 ADD DUP4 DUP2 LT ISZERO PUSH2 0x903 JUMPI PUSH1 0x40 DUP1 MLOAD PUSH3 0x461BCD PUSH1 0xE5 SHL DUP2 MSTORE PUSH1 0x20 PUSH1 0x4 DUP3 ADD MSTORE PUSH1 0x1B PUSH1 0x24 DUP3 ADD MSTORE PUSH32 0x536166654D6174683A206164646974696F6E206F766572666C6F770000000000 PUSH1 0x44 DUP3 ADD MSTORE SWAP1 MLOAD SWAP1 DUP2 SWAP1 SUB PUSH1 0x64 ADD SWAP1 REVERT JUMPDEST PUSH1 0x0 DUP3 DUP3 GT ISZERO PUSH2 0x15C2 JUMPI PUSH1 0x40 DUP1 MLOAD PUSH3 0x461BCD PUSH1 0xE5 SHL DUP2 MSTORE PUSH1 0x20 PUSH1 0x4 DUP3 ADD MSTORE PUSH1 0x1E PUSH1 0x24 DUP3 ADD MSTORE PUSH32 0x536166654D6174683A207375627472616374696F6E206F766572666C6F770000 PUSH1 0x44 DUP3 ADD MSTORE SWAP1 MLOAD SWAP1 DUP2 SWAP1 SUB PUSH1 0x64 ADD SWAP1 REVERT JUMPDEST POP SWAP1 SUB SWAP1 JUMP JUMPDEST PUSH1 0x1 SLOAD PUSH1 0x40 DUP1 MLOAD PUSH4 0x70A08231 PUSH1 0xE0 SHL DUP2 MSTORE ADDRESS PUSH1 0x4 DUP3 ADD MSTORE SWAP1 MLOAD PUSH1 0x0 SWAP3 PUSH1 0x1 PUSH1 0x1 PUSH1 0xA0 SHL SUB AND SWAP2 PUSH4 0x70A08231 SWAP2 PUSH1 0x24 DUP1 DUP4 ADD SWAP3 PUSH1 0x20 SWAP3 SWAP2 SWAP1 DUP3 SWAP1 SUB ADD DUP2 DUP7 DUP1 EXTCODESIZE ISZERO DUP1 ISZERO PUSH2 0x1613 JUMPI PUSH1 0x0 DUP1 REVERT JUMPDEST POP GAS STATICCALL ISZERO DUP1 ISZERO PUSH2 0x1627 JUMPI RETURNDATASIZE PUSH1 0x0 DUP1 RETURNDATACOPY RETURNDATASIZE PUSH1 0x0 REVERT JUMPDEST POP POP POP POP PUSH1 0x40 MLOAD RETURNDATASIZE PUSH1 0x20 DUP2 LT ISZERO PUSH2 0x163D JUMPI PUSH1 0x0 DUP1 REVERT JUMPDEST POP MLOAD SWAP1 POP DUP1 ISZERO PUSH2 0xEC4 JUMPI DUP1 DUP3 GT ISZERO PUSH2 0x166B JUMPI PUSH1 0x1 SLOAD PUSH2 0x1666 SWAP1 PUSH1 0x1 PUSH1 0x1 PUSH1 0xA0 SHL SUB AND DUP5 DUP4 PUSH2 0x167E JUMP JUMPDEST PUSH2 0xEC4 JUMP JUMPDEST PUSH1 0x1 SLOAD PUSH2 0xEC4 SWAP1 PUSH1 0x1 PUSH1 0x1 PUSH1 0xA0 SHL SUB AND DUP5 DUP5 JUMPDEST PUSH1 0x40 DUP1 MLOAD PUSH1 0x1 PUSH1 0x1 PUSH1 0xA0 SHL SUB DUP5 AND PUSH1 0x24 DUP3 ADD MSTORE PUSH1 0x44 DUP1 DUP3 ADD DUP5 SWAP1 MSTORE DUP3 MLOAD DUP1 DUP4 SUB SWAP1 SWAP2 ADD DUP2 MSTORE PUSH1 0x64 SWAP1 SWAP2 ADD SWAP1 SWAP2 MSTORE PUSH1 0x20 DUP2 ADD DUP1 MLOAD PUSH1 0x1 PUSH1 0x1 PUSH1 0xE0 SHL SUB AND PUSH4 0xA9059CBB PUSH1 0xE0 SHL OR SWAP1 MSTORE PUSH2 0xEC4 SWAP1 DUP5 SWAP1 PUSH2 0x17F3 JUMP JUMPDEST PUSH1 0x2 SLOAD PUSH1 0x0 JUMPDEST DUP2 DUP2 LT ISZERO PUSH2 0xEC4 JUMPI DUP3 PUSH1 0x1 PUSH1 0x1 PUSH1 0xA0 SHL SUB AND PUSH1 0x2 DUP3 DUP2 SLOAD DUP2 LT PUSH2 0x16F5 JUMPI INVALID JUMPDEST PUSH1 0x0 SWAP2 DUP3 MSTORE PUSH1 0x20 SWAP1 SWAP2 KECCAK256 PUSH1 0x5 SWAP1 SWAP2 MUL ADD SLOAD PUSH1 0x1 PUSH1 0x1 PUSH1 0xA0 SHL SUB AND EQ ISZERO PUSH2 0x174C JUMPI PUSH1 0x40 MLOAD PUSH3 0x461BCD PUSH1 0xE5 SHL DUP2 MSTORE PUSH1 0x4 ADD DUP1 DUP1 PUSH1 0x20 ADD DUP3 DUP2 SUB DUP3 MSTORE PUSH1 0x21 DUP2 MSTORE PUSH1 0x20 ADD DUP1 PUSH2 0x1AAF PUSH1 0x21 SWAP2 CODECOPY PUSH1 0x40 ADD SWAP2 POP POP PUSH1 0x40 MLOAD DUP1 SWAP2 SUB SWAP1 REVERT JUMPDEST PUSH1 0x1 ADD PUSH2 0x16D6 JUMP JUMPDEST PUSH1 0x0 DUP1 PUSH2 0x176C PUSH1 0x3 SLOAD DUP5 PUSH2 0x18A4 SWAP1 SWAP2 SWAP1 PUSH4 0xFFFFFFFF AND JUMP JUMPDEST SWAP1 POP PUSH1 0x0 PUSH2 0x178B PUSH2 0x2710 PUSH2 0x634 PUSH1 0x3 SLOAD DUP6 PUSH2 0x1451 SWAP1 SWAP2 SWAP1 PUSH4 0xFFFFFFFF AND JUMP JUMPDEST SWAP5 SWAP4 POP POP POP POP JUMP JUMPDEST PUSH1 0x40 DUP1 MLOAD PUSH1 0x1 PUSH1 0x1 PUSH1 0xA0 SHL SUB DUP1 DUP7 AND PUSH1 0x24 DUP4 ADD MSTORE DUP5 AND PUSH1 0x44 DUP3 ADD MSTORE PUSH1 0x64 DUP1 DUP3 ADD DUP5 SWAP1 MSTORE DUP3 MLOAD DUP1 DUP4 SUB SWAP1 SWAP2 ADD DUP2 MSTORE PUSH1 0x84 SWAP1 SWAP2 ADD SWAP1 SWAP2 MSTORE PUSH1 0x20 DUP2 ADD DUP1 MLOAD PUSH1 0x1 PUSH1 0x1 PUSH1 0xE0 SHL SUB AND PUSH4 0x23B872DD PUSH1 0xE0 SHL OR SWAP1 MSTORE PUSH2 0x17ED SWAP1 DUP6 SWAP1 PUSH2 0x17F3 JUMP JUMPDEST POP POP POP POP JUMP JUMPDEST PUSH1 0x60 PUSH2 0x1848 DUP3 PUSH1 0x40 MLOAD DUP1 PUSH1 0x40 ADD PUSH1 0x40 MSTORE DUP1 PUSH1 0x20 DUP2 MSTORE PUSH1 0x20 ADD PUSH32 0x5361666545524332303A206C6F772D6C6576656C2063616C6C206661696C6564 DUP2 MSTORE POP DUP6 PUSH1 0x1 PUSH1 0x1 PUSH1 0xA0 SHL SUB AND PUSH2 0x18DE SWAP1 SWAP3 SWAP2 SWAP1 PUSH4 0xFFFFFFFF AND JUMP JUMPDEST DUP1 MLOAD SWAP1 SWAP2 POP ISZERO PUSH2 0xEC4 JUMPI DUP1 DUP1 PUSH1 0x20 ADD SWAP1 MLOAD PUSH1 0x20 DUP2 LT ISZERO PUSH2 0x1867 JUMPI PUSH1 0x0 DUP1 REVERT JUMPDEST POP MLOAD PUSH2 0xEC4 JUMPI PUSH1 0x40 MLOAD PUSH3 0x461BCD PUSH1 0xE5 SHL DUP2 MSTORE PUSH1 0x4 ADD DUP1 DUP1 PUSH1 0x20 ADD DUP3 DUP2 SUB DUP3 MSTORE PUSH1 0x2A DUP2 MSTORE PUSH1 0x20 ADD DUP1 PUSH2 0x1B41 PUSH1 0x2A SWAP2 CODECOPY PUSH1 0x40 ADD SWAP2 POP POP PUSH1 0x40 MLOAD DUP1 SWAP2 SUB SWAP1 REVERT JUMPDEST PUSH1 0x0 DUP1 PUSH2 0x18B1 DUP5 DUP5 PUSH2 0x1511 JUMP JUMPDEST SWAP1 POP PUSH1 0x0 PUSH2 0x18C0 DUP3 PUSH1 0x1 PUSH2 0x156B JUMP JUMPDEST SWAP1 POP PUSH2 0x18D5 PUSH2 0x18CF DUP3 DUP7 PUSH2 0x14AA JUMP JUMPDEST DUP6 PUSH2 0x1451 JUMP JUMPDEST SWAP6 SWAP5 POP POP POP POP POP JUMP JUMPDEST PUSH1 0x60 PUSH2 0x178B DUP5 DUP5 PUSH1 0x0 DUP6 DUP6 PUSH2 0x18F2 DUP6 PUSH2 0x1A04 JUMP JUMPDEST PUSH2 0x1943 JUMPI PUSH1 0x40 DUP1 MLOAD PUSH3 0x461BCD PUSH1 0xE5 SHL DUP2 MSTORE PUSH1 0x20 PUSH1 0x4 DUP3 ADD MSTORE PUSH1 0x1D PUSH1 0x24 DUP3 ADD MSTORE PUSH32 0x416464726573733A2063616C6C20746F206E6F6E2D636F6E7472616374000000 PUSH1 0x44 DUP3 ADD MSTORE SWAP1 MLOAD SWAP1 DUP2 SWAP1 SUB PUSH1 0x64 ADD SWAP1 REVERT JUMPDEST PUSH1 0x0 PUSH1 0x60 DUP7 PUSH1 0x1 PUSH1 0x1 PUSH1 0xA0 SHL SUB AND DUP6 DUP8 PUSH1 0x40 MLOAD DUP1 DUP3 DUP1 MLOAD SWAP1 PUSH1 0x20 ADD SWAP1 DUP1 DUP4 DUP4 JUMPDEST PUSH1 0x20 DUP4 LT PUSH2 0x1982 JUMPI DUP1 MLOAD DUP3 MSTORE PUSH1 0x1F NOT SWAP1 SWAP3 ADD SWAP2 PUSH1 0x20 SWAP2 DUP3 ADD SWAP2 ADD PUSH2 0x1963 JUMP JUMPDEST PUSH1 0x1 DUP4 PUSH1 0x20 SUB PUSH2 0x100 EXP SUB DUP1 NOT DUP3 MLOAD AND DUP2 DUP5 MLOAD AND DUP1 DUP3 OR DUP6 MSTORE POP POP POP POP POP POP SWAP1 POP ADD SWAP2 POP POP PUSH1 0x0 PUSH1 0x40 MLOAD DUP1 DUP4 SUB DUP2 DUP6 DUP8 GAS CALL SWAP3 POP POP POP RETURNDATASIZE DUP1 PUSH1 0x0 DUP2 EQ PUSH2 0x19E4 JUMPI PUSH1 0x40 MLOAD SWAP2 POP PUSH1 0x1F NOT PUSH1 0x3F RETURNDATASIZE ADD AND DUP3 ADD PUSH1 0x40 MSTORE RETURNDATASIZE DUP3 MSTORE RETURNDATASIZE PUSH1 0x0 PUSH1 0x20 DUP5 ADD RETURNDATACOPY PUSH2 0x19E9 JUMP JUMPDEST PUSH1 0x60 SWAP2 POP JUMPDEST POP SWAP2 POP SWAP2 POP PUSH2 0x19F9 DUP3 DUP3 DUP7 PUSH2 0x1A0A JUMP JUMPDEST SWAP8 SWAP7 POP POP POP POP POP POP POP JUMP JUMPDEST EXTCODESIZE ISZERO ISZERO SWAP1 JUMP JUMPDEST PUSH1 0x60 DUP4 ISZERO PUSH2 0x1A19 JUMPI POP DUP2 PUSH2 0x903 JUMP JUMPDEST DUP3 MLOAD ISZERO PUSH2 0x1A29 JUMPI DUP3 MLOAD DUP1 DUP5 PUSH1 0x20 ADD REVERT JUMPDEST DUP2 PUSH1 0x40 MLOAD PUSH3 0x461BCD PUSH1 0xE5 SHL DUP2 MSTORE PUSH1 0x4 ADD DUP1 DUP1 PUSH1 0x20 ADD DUP3 DUP2 SUB DUP3 MSTORE DUP4 DUP2 DUP2 MLOAD DUP2 MSTORE PUSH1 0x20 ADD SWAP2 POP DUP1 MLOAD SWAP1 PUSH1 0x20 ADD SWAP1 DUP1 DUP4 DUP4 PUSH1 0x0 JUMPDEST DUP4 DUP2 LT ISZERO PUSH2 0x1A73 JUMPI DUP2 DUP2 ADD MLOAD DUP4 DUP3 ADD MSTORE PUSH1 0x20 ADD PUSH2 0x1A5B JUMP JUMPDEST POP POP POP POP SWAP1 POP SWAP1 DUP2 ADD SWAP1 PUSH1 0x1F AND DUP1 ISZERO PUSH2 0x1AA0 JUMPI DUP1 DUP3 SUB DUP1 MLOAD PUSH1 0x1 DUP4 PUSH1 0x20 SUB PUSH2 0x100 EXP SUB NOT AND DUP2 MSTORE PUSH1 0x20 ADD SWAP2 POP JUMPDEST POP SWAP3 POP POP POP PUSH1 0x40 MLOAD DUP1 SWAP2 SUB SWAP1 REVERT INVALID GASLIMIT PUSH15 0x6372797074526577617264506F6F6C GASPRICE KECCAK256 PUSH6 0x78697374696E PUSH8 0x20706F6F6C3F546F PUSH14 0x62526577617264506F6F6C3A2061 PUSH13 0x726561647920696E697469616C PUSH10 0x7A6564456E6372797074 MSTORE PUSH6 0x77617264506F PUSH16 0x6C3A2063616C6C6572206973206E6F74 KECCAK256 PUSH21 0x6865206F70657261746F72536166654D6174683A20 PUSH14 0x756C7469706C69636174696F6E20 PUSH16 0x766572666C6F77536166654552433230 GASPRICE KECCAK256 GASLIMIT MSTORE NUMBER ORIGIN ADDRESS KECCAK256 PUSH16 0x7065726174696F6E20646964206E6F74 KECCAK256 PUSH20 0x756363656564A264697066735822122069626E27 PUSH31 0x7D349B327D0019F867D380656458DA972DAE2F73AEF72E583A4A4364736F6C PUSH4 0x4300060C STOP CALLER "
				},
				"gasEstimates": {
					"creation": {
						"codeDepositCost": "1414400",
						"executionCost": "infinite",
						"totalCost": "infinite"
					},
					"external": {
						"Encrypt()": "1083",
						"Fee()": "1064",
						"_feeTo()": "1104",
						"add(uint256,address,bool,uint256)": "infinite",
						"deposit(uint256,uint256)": "infinite",
						"emergencyWithdraw(uint256)": "infinite",
						"epochEncryptPerSecond(uint256)": "1142",
						"epochEndTimes(uint256)": "1118",
						"epochTotalRewards(uint256)": "1998",
						"getGeneratedReward(uint256,uint256)": "infinite",
						"governanceRecoverUnsupported(address,uint256,address)": "infinite",
						"initialize(address)": "infinite",
						"initialized()": "1056",
						"isInitialized()": "1100",
						"massUpdatePools()": "infinite",
						"operator()": "1082",
						"pendingEncrypt(uint256,address)": "infinite",
						"poolInfo(uint256)": "5358",
						"poolStartTime()": "1087",
						"set(uint256,uint256)": "infinite",
						"setOperator(address)": "infinite",
						"setTime(uint256)": "infinite",
						"totalAllocPoint()": "1066",
						"updatePool(uint256)": "infinite",
						"userInfo(uint256,address)": "2183",
						"withdraw(uint256,uint256)": "infinite"
					},
					"internal": {
						"_fees(uint256)": "infinite",
						"checkPoolDuplicate(contract IERC20)": "infinite",
						"safeEncryptTransfer(address,uint256)": "infinite"
					}
				},
				"methodIdentifiers": {
					"Encrypt()": "234fbf32",
					"Fee()": "bef7a2f0",
					"_feeTo()": "5d114dcc",
					"add(uint256,address,bool,uint256)": "96805e54",
					"deposit(uint256,uint256)": "e2bbb158",
					"emergencyWithdraw(uint256)": "5312ea8e",
					"epochEncryptPerSecond(uint256)": "38b24f31",
					"epochEndTimes(uint256)": "b89e73c1",
					"epochTotalRewards(uint256)": "9a25cefc",
					"getGeneratedReward(uint256,uint256)": "231f0c6a",
					"governanceRecoverUnsupported(address,uint256,address)": "54575af4",
					"initialize(address)": "c4d66de8",
					"initialized()": "158ef93e",
					"isInitialized()": "392e53cd",
					"massUpdatePools()": "630b5ba1",
					"operator()": "570ca735",
					"pendingEncrypt(uint256,address)": "1a131779",
					"poolInfo(uint256)": "1526fe27",
					"poolStartTime()": "5f96dc11",
					"set(uint256,uint256)": "1ab06ee5",
					"setOperator(address)": "b3ab15fb",
					"setTime(uint256)": "3beb26c4",
					"totalAllocPoint()": "17caf6f1",
					"updatePool(uint256)": "51eb05a6",
					"userInfo(uint256,address)": "93f1a40b",
					"withdraw(uint256,uint256)": "441a3e70"
				}
			},
			"storageLayout": {
				"storage": [
					{
						"astId": 987,
						"contract": "contracts-encrypt/distribution/TombRewardPool.sol:EncryptRewardPool",
						"label": "operator",
						"offset": 0,
						"slot": "0",
						"type": "t_address"
					},
					{
						"astId": 1005,
						"contract": "contracts-encrypt/distribution/TombRewardPool.sol:EncryptRewardPool",
						"label": "Encrypt",
						"offset": 0,
						"slot": "1",
						"type": "t_contract(IERC20)77"
					},
					{
						"astId": 1008,
						"contract": "contracts-encrypt/distribution/TombRewardPool.sol:EncryptRewardPool",
						"label": "poolInfo",
						"offset": 0,
						"slot": "2",
						"type": "t_array(t_struct(PoolInfo)1003_storage)dyn_storage"
					},
					{
						"astId": 1011,
						"contract": "contracts-encrypt/distribution/TombRewardPool.sol:EncryptRewardPool",
						"label": "Fee",
						"offset": 0,
						"slot": "3",
						"type": "t_uint256"
					},
					{
						"astId": 1013,
						"contract": "contracts-encrypt/distribution/TombRewardPool.sol:EncryptRewardPool",
						"label": "_feeTo",
						"offset": 0,
						"slot": "4",
						"type": "t_address"
					},
					{
						"astId": 1019,
						"contract": "contracts-encrypt/distribution/TombRewardPool.sol:EncryptRewardPool",
						"label": "userInfo",
						"offset": 0,
						"slot": "5",
						"type": "t_mapping(t_uint256,t_mapping(t_address,t_struct(UserInfo)992_storage))"
					},
					{
						"astId": 1022,
						"contract": "contracts-encrypt/distribution/TombRewardPool.sol:EncryptRewardPool",
						"label": "totalAllocPoint",
						"offset": 0,
						"slot": "6",
						"type": "t_uint256"
					},
					{
						"astId": 1024,
						"contract": "contracts-encrypt/distribution/TombRewardPool.sol:EncryptRewardPool",
						"label": "poolStartTime",
						"offset": 0,
						"slot": "7",
						"type": "t_uint256"
					},
					{
						"astId": 1030,
						"contract": "contracts-encrypt/distribution/TombRewardPool.sol:EncryptRewardPool",
						"label": "epochTotalRewards",
						"offset": 0,
						"slot": "8",
						"type": "t_array(t_uint256)dyn_storage"
					},
					{
						"astId": 1034,
						"contract": "contracts-encrypt/distribution/TombRewardPool.sol:EncryptRewardPool",
						"label": "epochEndTimes",
						"offset": 0,
						"slot": "9",
						"type": "t_array(t_uint256)3_storage"
					},
					{
						"astId": 1037,
						"contract": "contracts-encrypt/distribution/TombRewardPool.sol:EncryptRewardPool",
						"label": "initialized",
						"offset": 0,
						"slot": "12",
						"type": "t_bool"
					},
					{
						"astId": 1041,
						"contract": "contracts-encrypt/distribution/TombRewardPool.sol:EncryptRewardPool",
						"label": "epochEncryptPerSecond",
						"offset": 0,
						"slot": "13",
						"type": "t_array(t_uint256)3_storage"
					}
				],
				"types": {
					"t_address": {
						"encoding": "inplace",
						"label": "address",
						"numberOfBytes": "20"
					},
					"t_array(t_struct(PoolInfo)1003_storage)dyn_storage": {
						"base": "t_struct(PoolInfo)1003_storage",
						"encoding": "dynamic_array",
						"label": "struct EncryptRewardPool.PoolInfo[]",
						"numberOfBytes": "32"
					},
					"t_array(t_uint256)3_storage": {
						"base": "t_uint256",
						"encoding": "inplace",
						"label": "uint256[3]",
						"numberOfBytes": "96"
					},
					"t_array(t_uint256)dyn_storage": {
						"base": "t_uint256",
						"encoding": "dynamic_array",
						"label": "uint256[]",
						"numberOfBytes": "32"
					},
					"t_bool": {
						"encoding": "inplace",
						"label": "bool",
						"numberOfBytes": "1"
					},
					"t_contract(IERC20)77": {
						"encoding": "inplace",
						"label": "contract IERC20",
						"numberOfBytes": "20"
					},
					"t_mapping(t_address,t_struct(UserInfo)992_storage)": {
						"encoding": "mapping",
						"key": "t_address",
						"label": "mapping(address => struct EncryptRewardPool.UserInfo)",
						"numberOfBytes": "32",
						"value": "t_struct(UserInfo)992_storage"
					},
					"t_mapping(t_uint256,t_mapping(t_address,t_struct(UserInfo)992_storage))": {
						"encoding": "mapping",
						"key": "t_uint256",
						"label": "mapping(uint256 => mapping(address => struct EncryptRewardPool.UserInfo))",
						"numberOfBytes": "32",
						"value": "t_mapping(t_address,t_struct(UserInfo)992_storage)"
					},
					"t_struct(PoolInfo)1003_storage": {
						"encoding": "inplace",
						"label": "struct EncryptRewardPool.PoolInfo",
						"members": [
							{
								"astId": 994,
								"contract": "contracts-encrypt/distribution/TombRewardPool.sol:EncryptRewardPool",
								"label": "token",
								"offset": 0,
								"slot": "0",
								"type": "t_contract(IERC20)77"
							},
							{
								"astId": 996,
								"contract": "contracts-encrypt/distribution/TombRewardPool.sol:EncryptRewardPool",
								"label": "allocPoint",
								"offset": 0,
								"slot": "1",
								"type": "t_uint256"
							},
							{
								"astId": 998,
								"contract": "contracts-encrypt/distribution/TombRewardPool.sol:EncryptRewardPool",
								"label": "lastRewardTime",
								"offset": 0,
								"slot": "2",
								"type": "t_uint256"
							},
							{
								"astId": 1000,
								"contract": "contracts-encrypt/distribution/TombRewardPool.sol:EncryptRewardPool",
								"label": "accEncryptPerShare",
								"offset": 0,
								"slot": "3",
								"type": "t_uint256"
							},
							{
								"astId": 1002,
								"contract": "contracts-encrypt/distribution/TombRewardPool.sol:EncryptRewardPool",
								"label": "isStarted",
								"offset": 0,
								"slot": "4",
								"type": "t_bool"
							}
						],
						"numberOfBytes": "160"
					},
					"t_struct(UserInfo)992_storage": {
						"encoding": "inplace",
						"label": "struct EncryptRewardPool.UserInfo",
						"members": [
							{
								"astId": 989,
								"contract": "contracts-encrypt/distribution/TombRewardPool.sol:EncryptRewardPool",
								"label": "amount",
								"offset": 0,
								"slot": "0",
								"type": "t_uint256"
							},
							{
								"astId": 991,
								"contract": "contracts-encrypt/distribution/TombRewardPool.sol:EncryptRewardPool",
								"label": "rewardDebt",
								"offset": 0,
								"slot": "1",
								"type": "t_uint256"
							}
						],
						"numberOfBytes": "64"
					},
					"t_uint256": {
						"encoding": "inplace",
						"label": "uint256",
						"numberOfBytes": "32"
					}
				}
			},
			"userdoc": {
				"kind": "user",
				"methods": {},
				"version": 1
			}
		}
	}
}