{
	"contracts/distribution/TombRewardPool.sol": {
		"TombRewardPool": {
			"abi": [
				{
					"inputs": [
						{
							"internalType": "address",
							"name": "_tomb",
							"type": "address"
						},
						{
							"internalType": "uint256",
							"name": "_poolStartTime",
							"type": "uint256"
						}
					],
					"stateMutability": "nonpayable",
					"type": "constructor"
				},
				{
					"anonymous": false,
					"inputs": [
						{
							"indexed": true,
							"internalType": "address",
							"name": "user",
							"type": "address"
						},
						{
							"indexed": true,
							"internalType": "uint256",
							"name": "pid",
							"type": "uint256"
						},
						{
							"indexed": false,
							"internalType": "uint256",
							"name": "amount",
							"type": "uint256"
						}
					],
					"name": "Deposit",
					"type": "event"
				},
				{
					"anonymous": false,
					"inputs": [
						{
							"indexed": true,
							"internalType": "address",
							"name": "user",
							"type": "address"
						},
						{
							"indexed": true,
							"internalType": "uint256",
							"name": "pid",
							"type": "uint256"
						},
						{
							"indexed": false,
							"internalType": "uint256",
							"name": "amount",
							"type": "uint256"
						}
					],
					"name": "EmergencyWithdraw",
					"type": "event"
				},
				{
					"anonymous": false,
					"inputs": [
						{
							"indexed": true,
							"internalType": "address",
							"name": "user",
							"type": "address"
						},
						{
							"indexed": false,
							"internalType": "uint256",
							"name": "amount",
							"type": "uint256"
						}
					],
					"name": "RewardPaid",
					"type": "event"
				},
				{
					"anonymous": false,
					"inputs": [
						{
							"indexed": true,
							"internalType": "address",
							"name": "user",
							"type": "address"
						},
						{
							"indexed": true,
							"internalType": "uint256",
							"name": "pid",
							"type": "uint256"
						},
						{
							"indexed": false,
							"internalType": "uint256",
							"name": "amount",
							"type": "uint256"
						}
					],
					"name": "Withdraw",
					"type": "event"
				},
				{
					"inputs": [
						{
							"internalType": "uint256",
							"name": "_allocPoint",
							"type": "uint256"
						},
						{
							"internalType": "contract IERC20",
							"name": "_token",
							"type": "address"
						},
						{
							"internalType": "bool",
							"name": "_withUpdate",
							"type": "bool"
						},
						{
							"internalType": "uint256",
							"name": "_lastRewardTime",
							"type": "uint256"
						}
					],
					"name": "add",
					"outputs": [],
					"stateMutability": "nonpayable",
					"type": "function"
				},
				{
					"inputs": [
						{
							"internalType": "uint256",
							"name": "_pid",
							"type": "uint256"
						},
						{
							"internalType": "uint256",
							"name": "_amount",
							"type": "uint256"
						}
					],
					"name": "deposit",
					"outputs": [],
					"stateMutability": "nonpayable",
					"type": "function"
				},
				{
					"inputs": [
						{
							"internalType": "uint256",
							"name": "_pid",
							"type": "uint256"
						}
					],
					"name": "emergencyWithdraw",
					"outputs": [],
					"stateMutability": "nonpayable",
					"type": "function"
				},
				{
					"inputs": [
						{
							"internalType": "uint256",
							"name": "",
							"type": "uint256"
						}
					],
					"name": "epochEndTimes",
					"outputs": [
						{
							"internalType": "uint256",
							"name": "",
							"type": "uint256"
						}
					],
					"stateMutability": "view",
					"type": "function"
				},
				{
					"inputs": [
						{
							"internalType": "uint256",
							"name": "",
							"type": "uint256"
						}
					],
					"name": "epochTombPerSecond",
					"outputs": [
						{
							"internalType": "uint256",
							"name": "",
							"type": "uint256"
						}
					],
					"stateMutability": "view",
					"type": "function"
				},
				{
					"inputs": [
						{
							"internalType": "uint256",
							"name": "",
							"type": "uint256"
						}
					],
					"name": "epochTotalRewards",
					"outputs": [
						{
							"internalType": "uint256",
							"name": "",
							"type": "uint256"
						}
					],
					"stateMutability": "view",
					"type": "function"
				},
				{
					"inputs": [
						{
							"internalType": "uint256",
							"name": "_fromTime",
							"type": "uint256"
						},
						{
							"internalType": "uint256",
							"name": "_toTime",
							"type": "uint256"
						}
					],
					"name": "getGeneratedReward",
					"outputs": [
						{
							"internalType": "uint256",
							"name": "",
							"type": "uint256"
						}
					],
					"stateMutability": "view",
					"type": "function"
				},
				{
					"inputs": [
						{
							"internalType": "contract IERC20",
							"name": "_token",
							"type": "address"
						},
						{
							"internalType": "uint256",
							"name": "amount",
							"type": "uint256"
						},
						{
							"internalType": "address",
							"name": "to",
							"type": "address"
						}
					],
					"name": "governanceRecoverUnsupported",
					"outputs": [],
					"stateMutability": "nonpayable",
					"type": "function"
				},
				{
					"inputs": [],
					"name": "massUpdatePools",
					"outputs": [],
					"stateMutability": "nonpayable",
					"type": "function"
				},
				{
					"inputs": [],
					"name": "operator",
					"outputs": [
						{
							"internalType": "address",
							"name": "",
							"type": "address"
						}
					],
					"stateMutability": "view",
					"type": "function"
				},
				{
					"inputs": [
						{
							"internalType": "uint256",
							"name": "_pid",
							"type": "uint256"
						},
						{
							"internalType": "address",
							"name": "_user",
							"type": "address"
						}
					],
					"name": "pendingTOMB",
					"outputs": [
						{
							"internalType": "uint256",
							"name": "",
							"type": "uint256"
						}
					],
					"stateMutability": "view",
					"type": "function"
				},
				{
					"inputs": [
						{
							"internalType": "uint256",
							"name": "",
							"type": "uint256"
						}
					],
					"name": "poolInfo",
					"outputs": [
						{
							"internalType": "contract IERC20",
							"name": "token",
							"type": "address"
						},
						{
							"internalType": "uint256",
							"name": "allocPoint",
							"type": "uint256"
						},
						{
							"internalType": "uint256",
							"name": "lastRewardTime",
							"type": "uint256"
						},
						{
							"internalType": "uint256",
							"name": "accTombPerShare",
							"type": "uint256"
						},
						{
							"internalType": "bool",
							"name": "isStarted",
							"type": "bool"
						}
					],
					"stateMutability": "view",
					"type": "function"
				},
				{
					"inputs": [],
					"name": "poolStartTime",
					"outputs": [
						{
							"internalType": "uint256",
							"name": "",
							"type": "uint256"
						}
					],
					"stateMutability": "view",
					"type": "function"
				},
				{
					"inputs": [
						{
							"internalType": "uint256",
							"name": "_pid",
							"type": "uint256"
						},
						{
							"internalType": "uint256",
							"name": "_allocPoint",
							"type": "uint256"
						}
					],
					"name": "set",
					"outputs": [],
					"stateMutability": "nonpayable",
					"type": "function"
				},
				{
					"inputs": [
						{
							"internalType": "address",
							"name": "_operator",
							"type": "address"
						}
					],
					"name": "setOperator",
					"outputs": [],
					"stateMutability": "nonpayable",
					"type": "function"
				},
				{
					"inputs": [],
					"name": "tomb",
					"outputs": [
						{
							"internalType": "contract IERC20",
							"name": "",
							"type": "address"
						}
					],
					"stateMutability": "view",
					"type": "function"
				},
				{
					"inputs": [],
					"name": "totalAllocPoint",
					"outputs": [
						{
							"internalType": "uint256",
							"name": "",
							"type": "uint256"
						}
					],
					"stateMutability": "view",
					"type": "function"
				},
				{
					"inputs": [
						{
							"internalType": "uint256",
							"name": "_pid",
							"type": "uint256"
						}
					],
					"name": "updatePool",
					"outputs": [],
					"stateMutability": "nonpayable",
					"type": "function"
				},
				{
					"inputs": [
						{
							"internalType": "uint256",
							"name": "",
							"type": "uint256"
						},
						{
							"internalType": "address",
							"name": "",
							"type": "address"
						}
					],
					"name": "userInfo",
					"outputs": [
						{
							"internalType": "uint256",
							"name": "amount",
							"type": "uint256"
						},
						{
							"internalType": "uint256",
							"name": "rewardDebt",
							"type": "uint256"
						}
					],
					"stateMutability": "view",
					"type": "function"
				},
				{
					"inputs": [
						{
							"internalType": "uint256",
							"name": "_pid",
							"type": "uint256"
						},
						{
							"internalType": "uint256",
							"name": "_amount",
							"type": "uint256"
						}
					],
					"name": "withdraw",
					"outputs": [],
					"stateMutability": "nonpayable",
					"type": "function"
				}
			],
			"devdoc": {
				"kind": "dev",
				"methods": {},
				"version": 1
			},
			"evm": {
				"assembly": "    /* \"contracts/distribution/TombRewardPool.sol\":1566:1567  0 */\n  0x00\n    /* \"contracts/distribution/TombRewardPool.sol\":1533:1567  uint256 public totalAllocPoint = 0 */\n  0x04\n  sstore\n    /* \"contracts/distribution/TombRewardPool.sol\":1655:1718  uint256[] public epochTotalRewards = [80000 ether, 60000 ether] */\n  0xc0\n    /* \"contracts/distribution/TombRewardPool.sol\":431:11739  contract TombRewardPool {\r... */\n  0x40\n    /* \"contracts/distribution/TombRewardPool.sol\":1655:1718  uint256[] public epochTotalRewards = [80000 ether, 60000 ether] */\n  mstore\n    /* \"contracts/distribution/TombRewardPool.sol\":1693:1704  80000 ether */\n  0x10f0cf064dd592000000\n    /* \"contracts/distribution/TombRewardPool.sol\":431:11739  contract TombRewardPool {\r... */\n  0x80\n    /* \"contracts/distribution/TombRewardPool.sol\":1655:1718  uint256[] public epochTotalRewards = [80000 ether, 60000 ether] */\n  swap1\n  dup2\n  mstore\n    /* \"contracts/distribution/TombRewardPool.sol\":1706:1717  60000 ether */\n  0x0cb49b44ba602d800000\n    /* \"contracts/distribution/TombRewardPool.sol\":1655:1718  uint256[] public epochTotalRewards = [80000 ether, 60000 ether] */\n  0xa0\n  mstore\n  tag_1\n  swap1\n  0x06\n  swap1\n  0x02\n  tag_2\n  jump\t// in\ntag_1:\n  pop\n    /* \"contracts/distribution/TombRewardPool.sol\":2245:2808  constructor(address _tomb, uint256 _poolStartTime) public {\r... */\n  callvalue\n  dup1\n  iszero\n  tag_3\n  jumpi\n  0x00\n  dup1\n  revert\ntag_3:\n  pop\n  mload(0x40)\n  sub(codesize, bytecodeSize)\n  dup1\n  bytecodeSize\n  dup4\n  codecopy\n  dup2\n  dup2\n  add\n  0x40\n  mstore\n  0x40\n  dup2\n  lt\n  iszero\n  tag_4\n  jumpi\n  0x00\n  dup1\n  revert\ntag_4:\n  pop\n  dup1\n  mload\n  0x20\n  swap1\n  swap2\n  add\n  mload\n    /* \"contracts/distribution/TombRewardPool.sol\":2322:2337  block.timestamp */\n  timestamp\n    /* \"contracts/distribution/TombRewardPool.sol\":2322:2354  block.timestamp < _poolStartTime */\n  dup2\n  gt\n    /* \"contracts/distribution/TombRewardPool.sol\":2314:2363  require(block.timestamp < _poolStartTime, \"late\") */\n  tag_7\n  jumpi\n  0x40\n  dup1\n  mload\n  shl(0xe5, 0x461bcd)\n  dup2\n  mstore\n  0x20\n  0x04\n  dup1\n  dup4\n  add\n  swap2\n  swap1\n  swap2\n  mstore\n  0x24\n  dup3\n  add\n  mstore\n  shl(0xe0, 0x6c617465)\n  0x44\n  dup3\n  add\n  mstore\n  swap1\n  mload\n  swap1\n  dup2\n  swap1\n  sub\n  0x64\n  add\n  swap1\n  revert\ntag_7:\n  sub(shl(0xa0, 0x01), 0x01)\n    /* \"contracts/distribution/TombRewardPool.sol\":2378:2397  _tomb != address(0) */\n  dup3\n  and\n  iszero\n    /* \"contracts/distribution/TombRewardPool.sol\":2374:2419  if (_tomb != address(0)) tomb = IERC20(_tomb) */\n  tag_8\n  jumpi\n    /* \"contracts/distribution/TombRewardPool.sol\":2399:2403  tomb */\n  0x01\n    /* \"contracts/distribution/TombRewardPool.sol\":2399:2419  tomb = IERC20(_tomb) */\n  dup1\n  sload\n  not(sub(shl(0xa0, 0x01), 0x01))\n  and\n  sub(shl(0xa0, 0x01), 0x01)\n  dup5\n  and\n  or\n  swap1\n  sstore\n    /* \"contracts/distribution/TombRewardPool.sol\":2374:2419  if (_tomb != address(0)) tomb = IERC20(_tomb) */\ntag_8:\n    /* \"contracts/distribution/TombRewardPool.sol\":2432:2445  poolStartTime */\n  0x05\n    /* \"contracts/distribution/TombRewardPool.sol\":2432:2462  poolStartTime = _poolStartTime */\n  dup2\n  swap1\n  sstore\n    /* \"contracts/distribution/TombRewardPool.sol\":2510:2516  4 days */\n  0x054600\n    /* \"contracts/distribution/TombRewardPool.sol\":2494:2516  poolStartTime + 4 days */\n  dup1\n  dup3\n  add\n    /* \"contracts/distribution/TombRewardPool.sol\":2475:2488  epochEndTimes */\n  0x07\n    /* \"contracts/distribution/TombRewardPool.sol\":2475:2516  epochEndTimes[0] = poolStartTime + 4 days */\n  sstore\n    /* \"contracts/distribution/TombRewardPool.sol\":2557:2582  epochEndTimes[0] + 5 days */\n  0x0bdd80\n  dup3\n  add\n    /* \"contracts/distribution/TombRewardPool.sol\":2538:2554  epochEndTimes[1] */\n  0x08\n    /* \"contracts/distribution/TombRewardPool.sol\":2538:2582  epochEndTimes[1] = epochEndTimes[0] + 5 days */\n  sstore\n    /* \"contracts/distribution/TombRewardPool.sol\":2631:2648  epochTotalRewards */\n  0x06\n    /* \"contracts/distribution/TombRewardPool.sol\":2631:2651  epochTotalRewards[0] */\n  dup1\n  sload\n    /* \"contracts/distribution/TombRewardPool.sol\":2631:2663  epochTotalRewards[0].div(4 days) */\n  tag_15\n  swap3\n    /* \"contracts/distribution/TombRewardPool.sol\":2510:2516  4 days */\n  swap2\n    /* \"contracts/distribution/TombRewardPool.sol\":2631:2648  epochTotalRewards */\n  swap1\n    /* \"contracts/distribution/TombRewardPool.sol\":2489:2490  0 */\n  0x00\n  swap1\n    /* \"contracts/distribution/TombRewardPool.sol\":2631:2651  epochTotalRewards[0] */\n  tag_16\n  jumpi\n  invalid\ntag_16:\n  swap1\n  0x00\n  mstore\n  keccak256(0x00, 0x20)\n  add\n  sload\n    /* \"contracts/distribution/TombRewardPool.sol\":2631:2655  epochTotalRewards[0].div */\n  or(tag_0_81, shl(0x20, tag_18))\n  swap1\n    /* \"contracts/distribution/TombRewardPool.sol\":2631:2663  epochTotalRewards[0].div(4 days) */\n  swap2\n  swap1\n  0x20\n  shr\n  jump\t// in\ntag_15:\n    /* \"contracts/distribution/TombRewardPool.sol\":2607:2625  epochTombPerSecond */\n  0x0a\n    /* \"contracts/distribution/TombRewardPool.sol\":2607:2663  epochTombPerSecond[0] = epochTotalRewards[0].div(4 days) */\n  sstore\n    /* \"contracts/distribution/TombRewardPool.sol\":2698:2715  epochTotalRewards */\n  0x06\n    /* \"contracts/distribution/TombRewardPool.sol\":2698:2718  epochTotalRewards[1] */\n  dup1\n  sload\n    /* \"contracts/distribution/TombRewardPool.sol\":2698:2730  epochTotalRewards[1].div(5 days) */\n  tag_21\n  swap2\n    /* \"contracts/distribution/TombRewardPool.sol\":2723:2729  5 days */\n  0x069780\n  swap2\n    /* \"contracts/distribution/TombRewardPool.sol\":2716:2717  1 */\n  0x01\n  swap1\n    /* \"contracts/distribution/TombRewardPool.sol\":2698:2718  epochTotalRewards[1] */\n  dup2\n  lt\n  tag_16\n  jumpi\n  invalid\n    /* \"contracts/distribution/TombRewardPool.sol\":2698:2730  epochTotalRewards[1].div(5 days) */\ntag_21:\n    /* \"contracts/distribution/TombRewardPool.sol\":2674:2695  epochTombPerSecond[1] */\n  0x0b\n    /* \"contracts/distribution/TombRewardPool.sol\":2674:2730  epochTombPerSecond[1] = epochTotalRewards[1].div(5 days) */\n  sstore\n  pop\n  pop\n    /* \"contracts/distribution/TombRewardPool.sol\":2767:2768  0 */\n  0x00\n    /* \"contracts/distribution/TombRewardPool.sol\":2743:2764  epochTombPerSecond[2] */\n  0x0c\n    /* \"contracts/distribution/TombRewardPool.sol\":2743:2768  epochTombPerSecond[2] = 0 */\n  dup2\n  swap1\n  sstore\n    /* \"contracts/distribution/TombRewardPool.sol\":2779:2800  operator = msg.sender */\n  dup1\n  sload\n  not(sub(shl(0xa0, 0x01), 0x01))\n  and\n    /* \"contracts/distribution/TombRewardPool.sol\":2790:2800  msg.sender */\n  caller\n    /* \"contracts/distribution/TombRewardPool.sol\":2779:2800  operator = msg.sender */\n  or\n  swap1\n  sstore\n    /* \"contracts/distribution/TombRewardPool.sol\":431:11739  contract TombRewardPool {\r... */\n  jump(tag_28)\n    /* \"@openzeppelin/contracts/utils/math/SafeMath.sol\":4217:4367  function div(uint256 a, uint256 b) internal pure returns (uint256) {... */\ntag_18:\n    /* \"@openzeppelin/contracts/utils/math/SafeMath.sol\":4275:4282  uint256 */\n  0x00\n    /* \"@openzeppelin/contracts/utils/math/SafeMath.sol\":4306:4307  0 */\n  dup1\n    /* \"@openzeppelin/contracts/utils/math/SafeMath.sol\":4302:4303  b */\n  dup3\n    /* \"@openzeppelin/contracts/utils/math/SafeMath.sol\":4302:4307  b > 0 */\n  gt\n    /* \"@openzeppelin/contracts/utils/math/SafeMath.sol\":4294:4338  require(b > 0, \"SafeMath: division by zero\") */\n  tag_30\n  jumpi\n  0x40\n  dup1\n  mload\n  shl(0xe5, 0x461bcd)\n  dup2\n  mstore\n  0x20\n  0x04\n  dup3\n  add\n  mstore\n  0x1a\n  0x24\n  dup3\n  add\n  mstore\n  0x536166654d6174683a206469766973696f6e206279207a65726f000000000000\n  0x44\n  dup3\n  add\n  mstore\n  swap1\n  mload\n  swap1\n  dup2\n  swap1\n  sub\n  0x64\n  add\n  swap1\n  revert\ntag_30:\n    /* \"@openzeppelin/contracts/utils/math/SafeMath.sol\":4359:4360  b */\n  dup2\n    /* \"@openzeppelin/contracts/utils/math/SafeMath.sol\":4355:4356  a */\n  dup4\n    /* \"@openzeppelin/contracts/utils/math/SafeMath.sol\":4355:4360  a / b */\n  dup2\n  tag_31\n  jumpi\n  invalid\ntag_31:\n  div\n  swap4\n    /* \"@openzeppelin/contracts/utils/math/SafeMath.sol\":4217:4367  function div(uint256 a, uint256 b) internal pure returns (uint256) {... */\n  swap3\n  pop\n  pop\n  pop\n  jump\t// out\n    /* \"contracts/distribution/TombRewardPool.sol\":431:11739  contract TombRewardPool {\r... */\ntag_2:\n  dup3\n  dup1\n  sload\n  dup3\n  dup3\n  sstore\n  swap1\n  0x00\n  mstore\n  keccak256(0x00, 0x20)\n  swap1\n  dup2\n  add\n  swap3\n  dup3\n  iszero\n  tag_34\n  jumpi\n  swap2\n  0x20\n  mul\n  dup3\n  add\ntag_33:\n  dup3\n  dup2\n  gt\n  iszero\n  tag_34\n  jumpi\n  dup3\n  mload\n  dup3\n  swap1\n  sub(shl(0x50, 0x01), 0x01)\n  and\n  swap1\n  sstore\n  swap2\n  0x20\n  add\n  swap2\n  swap1\n  0x01\n  add\n  swap1\n  jump(tag_33)\ntag_34:\n  pop\n  tag_35\n  swap3\n  swap2\n  pop\n  tag_36\n  jump\t// in\ntag_35:\n  pop\n  swap1\n  jump\t// out\ntag_36:\ntag_37:\n  dup1\n  dup3\n  gt\n  iszero\n  tag_35\n  jumpi\n  0x00\n  dup2\n  sstore\n  0x01\n  add\n  jump(tag_37)\ntag_28:\n  dataSize(sub_0)\n  dup1\n  dataOffset(sub_0)\n  0x00\n  codecopy\n  0x00\n  return\nstop\n\nsub_0: assembly {\n        /* \"contracts/distribution/TombRewardPool.sol\":431:11739  contract TombRewardPool {\r... */\n      mstore(0x40, 0x80)\n      callvalue\n      dup1\n      iszero\n      tag_1\n      jumpi\n      0x00\n      dup1\n      revert\n    tag_1:\n      pop\n      jumpi(tag_2, lt(calldatasize, 0x04))\n      shr(0xe0, calldataload(0x00))\n      dup1\n      0x630b5ba1\n      gt\n      tag_23\n      jumpi\n      dup1\n      0x9a25cefc\n      gt\n      tag_24\n      jumpi\n      dup1\n      0x9a25cefc\n      eq\n      tag_18\n      jumpi\n      dup1\n      0xb3ab15fb\n      eq\n      tag_19\n      jumpi\n      dup1\n      0xb89e73c1\n      eq\n      tag_20\n      jumpi\n      dup1\n      0xc040f23a\n      eq\n      tag_21\n      jumpi\n      dup1\n      0xe2bbb158\n      eq\n      tag_22\n      jumpi\n      jump(tag_2)\n    tag_24:\n      dup1\n      0x630b5ba1\n      eq\n      tag_13\n      jumpi\n      dup1\n      0x7704d44e\n      eq\n      tag_14\n      jumpi\n      dup1\n      0x89744bb4\n      eq\n      tag_15\n      jumpi\n      dup1\n      0x93f1a40b\n      eq\n      tag_16\n      jumpi\n      dup1\n      0x96805e54\n      eq\n      tag_17\n      jumpi\n      jump(tag_2)\n    tag_23:\n      dup1\n      0x51eb05a6\n      gt\n      tag_25\n      jumpi\n      dup1\n      0x51eb05a6\n      eq\n      tag_8\n      jumpi\n      dup1\n      0x5312ea8e\n      eq\n      tag_9\n      jumpi\n      dup1\n      0x54575af4\n      eq\n      tag_10\n      jumpi\n      dup1\n      0x570ca735\n      eq\n      tag_11\n      jumpi\n      dup1\n      0x5f96dc11\n      eq\n      tag_12\n      jumpi\n      jump(tag_2)\n    tag_25:\n      dup1\n      0x1526fe27\n      eq\n      tag_3\n      jumpi\n      dup1\n      0x17caf6f1\n      eq\n      tag_4\n      jumpi\n      dup1\n      0x1ab06ee5\n      eq\n      tag_5\n      jumpi\n      dup1\n      0x231f0c6a\n      eq\n      tag_6\n      jumpi\n      dup1\n      0x441a3e70\n      eq\n      tag_7\n      jumpi\n    tag_2:\n      0x00\n      dup1\n      revert\n        /* \"contracts/distribution/TombRewardPool.sol\":1288:1314  PoolInfo[] public poolInfo */\n    tag_3:\n      tag_26\n      0x04\n      dup1\n      calldatasize\n      sub\n      0x20\n      dup2\n      lt\n      iszero\n      tag_27\n      jumpi\n      0x00\n      dup1\n      revert\n    tag_27:\n      pop\n      calldataload\n      tag_28\n      jump\t// in\n    tag_26:\n      0x40\n      dup1\n      mload\n      sub(shl(0xa0, 0x01), 0x01)\n      swap1\n      swap7\n      and\n      dup7\n      mstore\n      0x20\n      dup7\n      add\n      swap5\n      swap1\n      swap5\n      mstore\n      dup5\n      dup5\n      add\n      swap3\n      swap1\n      swap3\n      mstore\n      0x60\n      dup5\n      add\n      mstore\n      iszero\n      iszero\n      0x80\n      dup4\n      add\n      mstore\n      mload\n      swap1\n      dup2\n      swap1\n      sub\n      0xa0\n      add\n      swap1\n      return\n        /* \"contracts/distribution/TombRewardPool.sol\":1533:1567  uint256 public totalAllocPoint = 0 */\n    tag_4:\n      tag_29\n      tag_30\n      jump\t// in\n    tag_29:\n      0x40\n      dup1\n      mload\n      swap2\n      dup3\n      mstore\n      mload\n      swap1\n      dup2\n      swap1\n      sub\n      0x20\n      add\n      swap1\n      return\n        /* \"contracts/distribution/TombRewardPool.sol\":4563:4884  function set(uint256 _pid, uint256 _allocPoint) public onlyOperator {\r... */\n    tag_5:\n      tag_31\n      0x04\n      dup1\n      calldatasize\n      sub\n      0x40\n      dup2\n      lt\n      iszero\n      tag_32\n      jumpi\n      0x00\n      dup1\n      revert\n    tag_32:\n      pop\n      dup1\n      calldataload\n      swap1\n      0x20\n      add\n      calldataload\n      tag_33\n      jump\t// in\n    tag_31:\n      stop\n        /* \"contracts/distribution/TombRewardPool.sol\":4963:6295  function getGeneratedReward(uint256 _fromTime, uint256 _toTime) public view returns (uint256) {\r... */\n    tag_6:\n      tag_29\n      0x04\n      dup1\n      calldatasize\n      sub\n      0x40\n      dup2\n      lt\n      iszero\n      tag_35\n      jumpi\n      0x00\n      dup1\n      revert\n    tag_35:\n      pop\n      dup1\n      calldataload\n      swap1\n      0x20\n      add\n      calldataload\n      tag_36\n      jump\t// in\n        /* \"contracts/distribution/TombRewardPool.sol\":9274:10084  function withdraw(uint256 _pid, uint256 _amount) public {\r... */\n    tag_7:\n      tag_31\n      0x04\n      dup1\n      calldatasize\n      sub\n      0x40\n      dup2\n      lt\n      iszero\n      tag_38\n      jumpi\n      0x00\n      dup1\n      revert\n    tag_38:\n      pop\n      dup1\n      calldataload\n      swap1\n      0x20\n      add\n      calldataload\n      tag_39\n      jump\t// in\n        /* \"contracts/distribution/TombRewardPool.sol\":7469:8377  function updatePool(uint256 _pid) public {\r... */\n    tag_8:\n      tag_31\n      0x04\n      dup1\n      calldatasize\n      sub\n      0x20\n      dup2\n      lt\n      iszero\n      tag_41\n      jumpi\n      0x00\n      dup1\n      revert\n    tag_41:\n      pop\n      calldataload\n      tag_42\n      jump\t// in\n        /* \"contracts/distribution/TombRewardPool.sol\":10155:10532  function emergencyWithdraw(uint256 _pid) public {\r... */\n    tag_9:\n      tag_31\n      0x04\n      dup1\n      calldatasize\n      sub\n      0x20\n      dup2\n      lt\n      iszero\n      tag_44\n      jumpi\n      0x00\n      dup1\n      revert\n    tag_44:\n      pop\n      calldataload\n      tag_45\n      jump\t// in\n        /* \"contracts/distribution/TombRewardPool.sol\":11112:11736  function governanceRecoverUnsupported(\r... */\n    tag_10:\n      tag_31\n      0x04\n      dup1\n      calldatasize\n      sub\n      0x60\n      dup2\n      lt\n      iszero\n      tag_47\n      jumpi\n      0x00\n      dup1\n      revert\n    tag_47:\n      pop\n      sub(shl(0xa0, 0x01), 0x01)\n      dup2\n      calldataload\n      dup2\n      and\n      swap2\n      0x20\n      dup2\n      add\n      calldataload\n      swap2\n      0x40\n      swap1\n      swap2\n      add\n      calldataload\n      and\n      tag_48\n      jump\t// in\n        /* \"contracts/distribution/TombRewardPool.sol\":549:572  address public operator */\n    tag_11:\n      tag_49\n      tag_50\n      jump\t// in\n    tag_49:\n      0x40\n      dup1\n      mload\n      sub(shl(0xa0, 0x01), 0x01)\n      swap1\n      swap3\n      and\n      dup3\n      mstore\n      mload\n      swap1\n      dup2\n      swap1\n      sub\n      0x20\n      add\n      swap1\n      return\n        /* \"contracts/distribution/TombRewardPool.sol\":1618:1646  uint256 public poolStartTime */\n    tag_12:\n      tag_29\n      tag_52\n      jump\t// in\n        /* \"contracts/distribution/TombRewardPool.sol\":7213:7393  function massUpdatePools() public {\r... */\n    tag_13:\n      tag_31\n      tag_54\n      jump\t// in\n        /* \"contracts/distribution/TombRewardPool.sol\":1889:1925  uint256[3] public epochTombPerSecond */\n    tag_14:\n      tag_29\n      0x04\n      dup1\n      calldatasize\n      sub\n      0x20\n      dup2\n      lt\n      iszero\n      tag_56\n      jumpi\n      0x00\n      dup1\n      revert\n    tag_56:\n      pop\n      calldataload\n      tag_57\n      jump\t// in\n        /* \"contracts/distribution/TombRewardPool.sol\":6359:7130  function pendingTOMB(uint256 _pid, address _user) external view returns (uint256) {\r... */\n    tag_15:\n      tag_29\n      0x04\n      dup1\n      calldatasize\n      sub\n      0x40\n      dup2\n      lt\n      iszero\n      tag_59\n      jumpi\n      0x00\n      dup1\n      revert\n    tag_59:\n      pop\n      dup1\n      calldataload\n      swap1\n      0x20\n      add\n      calldataload\n      sub(shl(0xa0, 0x01), 0x01)\n      and\n      tag_60\n      jump\t// in\n        /* \"contracts/distribution/TombRewardPool.sol\":1372:1436  mapping(uint256 => mapping(address => UserInfo)) public userInfo */\n    tag_16:\n      tag_61\n      0x04\n      dup1\n      calldatasize\n      sub\n      0x40\n      dup2\n      lt\n      iszero\n      tag_62\n      jumpi\n      0x00\n      dup1\n      revert\n    tag_62:\n      pop\n      dup1\n      calldataload\n      swap1\n      0x20\n      add\n      calldataload\n      sub(shl(0xa0, 0x01), 0x01)\n      and\n      tag_63\n      jump\t// in\n    tag_61:\n      0x40\n      dup1\n      mload\n      swap3\n      dup4\n      mstore\n      0x20\n      dup4\n      add\n      swap2\n      swap1\n      swap2\n      mstore\n      dup1\n      mload\n      swap2\n      dup3\n      swap1\n      sub\n      add\n      swap1\n      return\n        /* \"contracts/distribution/TombRewardPool.sol\":3294:4467  function add(\r... */\n    tag_17:\n      tag_31\n      0x04\n      dup1\n      calldatasize\n      sub\n      0x80\n      dup2\n      lt\n      iszero\n      tag_65\n      jumpi\n      0x00\n      dup1\n      revert\n    tag_65:\n      pop\n      dup1\n      calldataload\n      swap1\n      sub(shl(0xa0, 0x01), 0x01)\n      0x20\n      dup3\n      add\n      calldataload\n      and\n      swap1\n      0x40\n      dup2\n      add\n      calldataload\n      iszero\n      iszero\n      swap1\n      0x60\n      add\n      calldataload\n      tag_66\n      jump\t// in\n        /* \"contracts/distribution/TombRewardPool.sol\":1655:1718  uint256[] public epochTotalRewards = [80000 ether, 60000 ether] */\n    tag_18:\n      tag_29\n      0x04\n      dup1\n      calldatasize\n      sub\n      0x20\n      dup2\n      lt\n      iszero\n      tag_68\n      jumpi\n      0x00\n      dup1\n      revert\n    tag_68:\n      pop\n      calldataload\n      tag_69\n      jump\t// in\n        /* \"contracts/distribution/TombRewardPool.sol\":11003:11104  function setOperator(address _operator) external onlyOperator {\r... */\n    tag_19:\n      tag_31\n      0x04\n      dup1\n      calldatasize\n      sub\n      0x20\n      dup2\n      lt\n      iszero\n      tag_71\n      jumpi\n      0x00\n      dup1\n      revert\n    tag_71:\n      pop\n      calldataload\n      sub(shl(0xa0, 0x01), 0x01)\n      and\n      tag_72\n      jump\t// in\n        /* \"contracts/distribution/TombRewardPool.sol\":1762:1793  uint256[3] public epochEndTimes */\n    tag_20:\n      tag_29\n      0x04\n      dup1\n      calldatasize\n      sub\n      0x20\n      dup2\n      lt\n      iszero\n      tag_74\n      jumpi\n      0x00\n      dup1\n      revert\n    tag_74:\n      pop\n      calldataload\n      tag_75\n      jump\t// in\n        /* \"contracts/distribution/TombRewardPool.sol\":1234:1252  IERC20 public tomb */\n    tag_21:\n      tag_49\n      tag_77\n      jump\t// in\n        /* \"contracts/distribution/TombRewardPool.sol\":8412:9238  function deposit(uint256 _pid, uint256 _amount) public {\r... */\n    tag_22:\n      tag_31\n      0x04\n      dup1\n      calldatasize\n      sub\n      0x40\n      dup2\n      lt\n      iszero\n      tag_79\n      jumpi\n      0x00\n      dup1\n      revert\n    tag_79:\n      pop\n      dup1\n      calldataload\n      swap1\n      0x20\n      add\n      calldataload\n      tag_80\n      jump\t// in\n        /* \"contracts/distribution/TombRewardPool.sol\":1288:1314  PoolInfo[] public poolInfo */\n    tag_28:\n      0x02\n      dup2\n      dup2\n      sload\n      dup2\n      lt\n      tag_82\n      jumpi\n      invalid\n    tag_82:\n      0x00\n      swap2\n      dup3\n      mstore\n      0x20\n      swap1\n      swap2\n      keccak256\n      0x05\n      swap1\n      swap2\n      mul\n      add\n      dup1\n      sload\n      0x01\n      dup3\n      add\n      sload\n      0x02\n      dup4\n      add\n      sload\n      0x03\n      dup5\n      add\n      sload\n      0x04\n      swap1\n      swap5\n      add\n      sload\n      sub(shl(0xa0, 0x01), 0x01)\n      swap1\n      swap4\n      and\n      swap5\n      pop\n      swap1\n      swap3\n      swap1\n      swap2\n      0xff\n      and\n      dup6\n      jump\t// out\n        /* \"contracts/distribution/TombRewardPool.sol\":1533:1567  uint256 public totalAllocPoint = 0 */\n    tag_30:\n      sload(0x04)\n      dup2\n      jump\t// out\n        /* \"contracts/distribution/TombRewardPool.sol\":4563:4884  function set(uint256 _pid, uint256 _allocPoint) public onlyOperator {\r... */\n    tag_33:\n        /* \"contracts/distribution/TombRewardPool.sol\":2859:2867  operator */\n      and(sub(shl(0xa0, 0x01), 0x01), sload(0x00))\n        /* \"contracts/distribution/TombRewardPool.sol\":2871:2881  msg.sender */\n      caller\n        /* \"contracts/distribution/TombRewardPool.sol\":2859:2881  operator == msg.sender */\n      eq\n        /* \"contracts/distribution/TombRewardPool.sol\":2851:2928  require(operator == msg.sender, \"TombRewardPool: caller is not the operator\") */\n      tag_85\n      jumpi\n      mload(0x40)\n      shl(0xe5, 0x461bcd)\n      dup2\n      mstore\n      0x04\n      add\n      dup1\n      dup1\n      0x20\n      add\n      dup3\n      dup2\n      sub\n      dup3\n      mstore\n      0x2a\n      dup2\n      mstore\n      0x20\n      add\n      dup1\n      data_23c2b75188d7d13d903b5cb4ec62ae0213436b5445c9258e5023f1d0545361cd\n      0x2a\n      swap2\n      codecopy\n      0x40\n      add\n      swap2\n      pop\n      pop\n      mload(0x40)\n      dup1\n      swap2\n      sub\n      swap1\n      revert\n    tag_85:\n        /* \"contracts/distribution/TombRewardPool.sol\":4642:4659  massUpdatePools() */\n      tag_87\n        /* \"contracts/distribution/TombRewardPool.sol\":4642:4657  massUpdatePools */\n      tag_54\n        /* \"contracts/distribution/TombRewardPool.sol\":4642:4659  massUpdatePools() */\n      jump\t// in\n    tag_87:\n        /* \"contracts/distribution/TombRewardPool.sol\":4670:4691  PoolInfo storage pool */\n      0x00\n        /* \"contracts/distribution/TombRewardPool.sol\":4694:4702  poolInfo */\n      0x02\n        /* \"contracts/distribution/TombRewardPool.sol\":4703:4707  _pid */\n      dup4\n        /* \"contracts/distribution/TombRewardPool.sol\":4694:4708  poolInfo[_pid] */\n      dup2\n      sload\n      dup2\n      lt\n      tag_88\n      jumpi\n      invalid\n    tag_88:\n      0x00\n      swap2\n      dup3\n      mstore\n      0x20\n      swap1\n      swap2\n      keccak256\n      0x05\n      swap1\n      swap2\n      mul\n      add\n        /* \"contracts/distribution/TombRewardPool.sol\":4723:4737  pool.isStarted */\n      0x04\n      dup2\n      add\n      sload\n        /* \"contracts/distribution/TombRewardPool.sol\":4694:4708  poolInfo[_pid] */\n      swap1\n      swap2\n      pop\n        /* \"contracts/distribution/TombRewardPool.sol\":4723:4737  pool.isStarted */\n      0xff\n      and\n        /* \"contracts/distribution/TombRewardPool.sol\":4719:4837  if (pool.isStarted) {\r... */\n      iszero\n      tag_90\n      jumpi\n        /* \"contracts/distribution/TombRewardPool.sol\":4772:4825  totalAllocPoint.sub(pool.allocPoint).add(_allocPoint) */\n      tag_91\n        /* \"contracts/distribution/TombRewardPool.sol\":4813:4824  _allocPoint */\n      dup3\n        /* \"contracts/distribution/TombRewardPool.sol\":4772:4808  totalAllocPoint.sub(pool.allocPoint) */\n      tag_92\n        /* \"contracts/distribution/TombRewardPool.sol\":4792:4796  pool */\n      dup4\n        /* \"contracts/distribution/TombRewardPool.sol\":4792:4807  pool.allocPoint */\n      0x01\n      add\n      sload\n        /* \"contracts/distribution/TombRewardPool.sol\":4772:4787  totalAllocPoint */\n      sload(0x04)\n        /* \"contracts/distribution/TombRewardPool.sol\":4772:4791  totalAllocPoint.sub */\n      tag_93\n      swap1\n        /* \"contracts/distribution/TombRewardPool.sol\":4772:4808  totalAllocPoint.sub(pool.allocPoint) */\n      swap2\n      swap1\n      0xffffffff\n      and\n      jump\t// in\n    tag_92:\n        /* \"contracts/distribution/TombRewardPool.sol\":4772:4812  totalAllocPoint.sub(pool.allocPoint).add */\n      swap1\n      tag_94\n        /* \"contracts/distribution/TombRewardPool.sol\":4772:4825  totalAllocPoint.sub(pool.allocPoint).add(_allocPoint) */\n      jump\t// in\n    tag_91:\n        /* \"contracts/distribution/TombRewardPool.sol\":4754:4769  totalAllocPoint */\n      0x04\n        /* \"contracts/distribution/TombRewardPool.sol\":4754:4825  totalAllocPoint = totalAllocPoint.sub(pool.allocPoint).add(_allocPoint) */\n      sstore\n        /* \"contracts/distribution/TombRewardPool.sol\":4719:4837  if (pool.isStarted) {\r... */\n    tag_90:\n        /* \"contracts/distribution/TombRewardPool.sol\":4847:4862  pool.allocPoint */\n      0x01\n      add\n        /* \"contracts/distribution/TombRewardPool.sol\":4847:4876  pool.allocPoint = _allocPoint */\n      sstore\n      pop\n        /* \"contracts/distribution/TombRewardPool.sol\":4563:4884  function set(uint256 _pid, uint256 _allocPoint) public onlyOperator {\r... */\n      jump\t// out\n        /* \"contracts/distribution/TombRewardPool.sol\":4963:6295  function getGeneratedReward(uint256 _fromTime, uint256 _toTime) public view returns (uint256) {\r... */\n    tag_36:\n        /* \"contracts/distribution/TombRewardPool.sol\":5048:5055  uint256 */\n      0x00\n        /* \"contracts/distribution/TombRewardPool.sol\":5089:5090  2 */\n      0x02\n        /* \"contracts/distribution/TombRewardPool.sol\":5068:6221  for (uint8 epochId = 2; epochId >= 1; --epochId) {\r... */\n    tag_96:\n        /* \"contracts/distribution/TombRewardPool.sol\":5103:5104  1 */\n      0x01\n        /* \"contracts/distribution/TombRewardPool.sol\":5092:5099  epochId */\n      dup2\n        /* \"contracts/distribution/TombRewardPool.sol\":5092:5104  epochId >= 1 */\n      0xff\n      and\n      lt\n        /* \"contracts/distribution/TombRewardPool.sol\":5068:6221  for (uint8 epochId = 2; epochId >= 1; --epochId) {\r... */\n      tag_97\n      jumpi\n        /* \"contracts/distribution/TombRewardPool.sol\":5147:5160  epochEndTimes */\n      0x07\n        /* \"contracts/distribution/TombRewardPool.sol\":5171:5172  1 */\n      0x01\n        /* \"contracts/distribution/TombRewardPool.sol\":5161:5168  epochId */\n      dup3\n        /* \"contracts/distribution/TombRewardPool.sol\":5161:5172  epochId - 1 */\n      sub\n        /* \"contracts/distribution/TombRewardPool.sol\":5147:5173  epochEndTimes[epochId - 1] */\n      0xff\n      and\n      0x03\n      dup2\n      lt\n      tag_99\n      jumpi\n      invalid\n    tag_99:\n      add\n      sload\n        /* \"contracts/distribution/TombRewardPool.sol\":5136:5143  _toTime */\n      dup4\n        /* \"contracts/distribution/TombRewardPool.sol\":5136:5173  _toTime >= epochEndTimes[epochId - 1] */\n      lt\n        /* \"contracts/distribution/TombRewardPool.sol\":5132:6210  if (_toTime >= epochEndTimes[epochId - 1]) {\r... */\n      tag_101\n      jumpi\n        /* \"contracts/distribution/TombRewardPool.sol\":5211:5224  epochEndTimes */\n      0x07\n        /* \"contracts/distribution/TombRewardPool.sol\":5235:5236  1 */\n      0x01\n        /* \"contracts/distribution/TombRewardPool.sol\":5225:5232  epochId */\n      dup3\n        /* \"contracts/distribution/TombRewardPool.sol\":5225:5236  epochId - 1 */\n      sub\n        /* \"contracts/distribution/TombRewardPool.sol\":5211:5237  epochEndTimes[epochId - 1] */\n      0xff\n      and\n      0x03\n      dup2\n      lt\n      tag_102\n      jumpi\n      invalid\n    tag_102:\n      add\n      sload\n        /* \"contracts/distribution/TombRewardPool.sol\":5198:5207  _fromTime */\n      dup5\n        /* \"contracts/distribution/TombRewardPool.sol\":5198:5237  _fromTime >= epochEndTimes[epochId - 1] */\n      lt\n        /* \"contracts/distribution/TombRewardPool.sol\":5194:5344  if (_fromTime >= epochEndTimes[epochId - 1]) {\r... */\n      tag_104\n      jumpi\n        /* \"contracts/distribution/TombRewardPool.sol\":5269:5324  _toTime.sub(_fromTime).mul(epochTombPerSecond[epochId]) */\n      tag_105\n        /* \"contracts/distribution/TombRewardPool.sol\":5296:5314  epochTombPerSecond */\n      0x0a\n        /* \"contracts/distribution/TombRewardPool.sol\":5315:5322  epochId */\n      dup3\n        /* \"contracts/distribution/TombRewardPool.sol\":5296:5323  epochTombPerSecond[epochId] */\n      0xff\n      and\n      0x03\n      dup2\n      lt\n      tag_106\n      jumpi\n      invalid\n    tag_106:\n      add\n      sload\n        /* \"contracts/distribution/TombRewardPool.sol\":5269:5291  _toTime.sub(_fromTime) */\n      tag_108\n        /* \"contracts/distribution/TombRewardPool.sol\":5269:5276  _toTime */\n      dup6\n        /* \"contracts/distribution/TombRewardPool.sol\":5281:5290  _fromTime */\n      dup8\n        /* \"contracts/distribution/TombRewardPool.sol\":5269:5280  _toTime.sub */\n      tag_93\n        /* \"contracts/distribution/TombRewardPool.sol\":5269:5291  _toTime.sub(_fromTime) */\n      jump\t// in\n    tag_108:\n        /* \"contracts/distribution/TombRewardPool.sol\":5269:5295  _toTime.sub(_fromTime).mul */\n      swap1\n      tag_109\n        /* \"contracts/distribution/TombRewardPool.sol\":5269:5324  _toTime.sub(_fromTime).mul(epochTombPerSecond[epochId]) */\n      jump\t// in\n    tag_105:\n        /* \"contracts/distribution/TombRewardPool.sol\":5262:5324  return _toTime.sub(_fromTime).mul(epochTombPerSecond[epochId]) */\n      swap2\n      pop\n      pop\n      jump(tag_95)\n        /* \"contracts/distribution/TombRewardPool.sol\":5194:5344  if (_fromTime >= epochEndTimes[epochId - 1]) {\r... */\n    tag_104:\n        /* \"contracts/distribution/TombRewardPool.sol\":5364:5388  uint256 _generatedReward */\n      0x00\n        /* \"contracts/distribution/TombRewardPool.sol\":5391:5463  _toTime.sub(epochEndTimes[epochId - 1]).mul(epochTombPerSecond[epochId]) */\n      tag_110\n        /* \"contracts/distribution/TombRewardPool.sol\":5435:5453  epochTombPerSecond */\n      0x0a\n        /* \"contracts/distribution/TombRewardPool.sol\":5454:5461  epochId */\n      dup4\n        /* \"contracts/distribution/TombRewardPool.sol\":5435:5462  epochTombPerSecond[epochId] */\n      0xff\n      and\n      0x03\n      dup2\n      lt\n      tag_111\n      jumpi\n      invalid\n    tag_111:\n      add\n      sload\n        /* \"contracts/distribution/TombRewardPool.sol\":5391:5430  _toTime.sub(epochEndTimes[epochId - 1]) */\n      tag_108\n        /* \"contracts/distribution/TombRewardPool.sol\":5403:5416  epochEndTimes */\n      0x07\n        /* \"contracts/distribution/TombRewardPool.sol\":5427:5428  1 */\n      0x01\n        /* \"contracts/distribution/TombRewardPool.sol\":5417:5424  epochId */\n      dup7\n        /* \"contracts/distribution/TombRewardPool.sol\":5417:5428  epochId - 1 */\n      sub\n        /* \"contracts/distribution/TombRewardPool.sol\":5403:5429  epochEndTimes[epochId - 1] */\n      0xff\n      and\n      0x03\n      dup2\n      lt\n      tag_114\n      jumpi\n      invalid\n    tag_114:\n      add\n      sload\n        /* \"contracts/distribution/TombRewardPool.sol\":5391:5398  _toTime */\n      dup8\n      swap1\n        /* \"contracts/distribution/TombRewardPool.sol\":5391:5402  _toTime.sub */\n      tag_93\n        /* \"contracts/distribution/TombRewardPool.sol\":5391:5430  _toTime.sub(epochEndTimes[epochId - 1]) */\n      jump\t// in\n        /* \"contracts/distribution/TombRewardPool.sol\":5391:5463  _toTime.sub(epochEndTimes[epochId - 1]).mul(epochTombPerSecond[epochId]) */\n    tag_110:\n        /* \"contracts/distribution/TombRewardPool.sol\":5364:5463  uint256 _generatedReward = _toTime.sub(epochEndTimes[epochId - 1]).mul(epochTombPerSecond[epochId]) */\n      swap1\n      pop\n        /* \"contracts/distribution/TombRewardPool.sol\":5486:5493  epochId */\n      dup2\n        /* \"contracts/distribution/TombRewardPool.sol\":5486:5498  epochId == 1 */\n      0xff\n      and\n        /* \"contracts/distribution/TombRewardPool.sol\":5497:5498  1 */\n      0x01\n        /* \"contracts/distribution/TombRewardPool.sol\":5486:5498  epochId == 1 */\n      eq\n        /* \"contracts/distribution/TombRewardPool.sol\":5482:5630  if (epochId == 1) {\r... */\n      iszero\n      tag_116\n      jumpi\n        /* \"contracts/distribution/TombRewardPool.sol\":5530:5610  _generatedReward.add(epochEndTimes[0].sub(_fromTime).mul(epochTombPerSecond[0])) */\n      tag_117\n        /* \"contracts/distribution/TombRewardPool.sol\":5551:5609  epochEndTimes[0].sub(_fromTime).mul(epochTombPerSecond[0]) */\n      tag_118\n        /* \"contracts/distribution/TombRewardPool.sol\":5587:5605  epochTombPerSecond */\n      0x0a\n        /* \"contracts/distribution/TombRewardPool.sol\":5606:5607  0 */\n      0x00\n        /* \"contracts/distribution/TombRewardPool.sol\":5587:5608  epochTombPerSecond[0] */\n    tag_119:\n      add\n      sload\n        /* \"contracts/distribution/TombRewardPool.sol\":5551:5582  epochEndTimes[0].sub(_fromTime) */\n      tag_108\n        /* \"contracts/distribution/TombRewardPool.sol\":5572:5581  _fromTime */\n      dup9\n        /* \"contracts/distribution/TombRewardPool.sol\":5551:5564  epochEndTimes */\n      0x07\n        /* \"contracts/distribution/TombRewardPool.sol\":5565:5566  0 */\n      0x00\n        /* \"contracts/distribution/TombRewardPool.sol\":5551:5567  epochEndTimes[0] */\n    tag_122:\n      add\n      sload\n      swap1\n        /* \"contracts/distribution/TombRewardPool.sol\":5551:5571  epochEndTimes[0].sub */\n      tag_93\n        /* \"contracts/distribution/TombRewardPool.sol\":5551:5582  epochEndTimes[0].sub(_fromTime) */\n      jump\t// in\n        /* \"contracts/distribution/TombRewardPool.sol\":5551:5609  epochEndTimes[0].sub(_fromTime).mul(epochTombPerSecond[0]) */\n    tag_118:\n        /* \"contracts/distribution/TombRewardPool.sol\":5530:5546  _generatedReward */\n      dup3\n      swap1\n        /* \"contracts/distribution/TombRewardPool.sol\":5530:5550  _generatedReward.add */\n      tag_94\n        /* \"contracts/distribution/TombRewardPool.sol\":5530:5610  _generatedReward.add(epochEndTimes[0].sub(_fromTime).mul(epochTombPerSecond[0])) */\n      jump\t// in\n    tag_117:\n        /* \"contracts/distribution/TombRewardPool.sol\":5523:5610  return _generatedReward.add(epochEndTimes[0].sub(_fromTime).mul(epochTombPerSecond[0])) */\n      swap3\n      pop\n      pop\n      pop\n      jump(tag_95)\n        /* \"contracts/distribution/TombRewardPool.sol\":5482:5630  if (epochId == 1) {\r... */\n    tag_116:\n        /* \"contracts/distribution/TombRewardPool.sol\":5673:5674  1 */\n      0x01\n        /* \"contracts/distribution/TombRewardPool.sol\":5663:5670  epochId */\n      dup3\n        /* \"contracts/distribution/TombRewardPool.sol\":5663:5674  epochId - 1 */\n      sub\n        /* \"contracts/distribution/TombRewardPool.sol\":5653:5674  epochId = epochId - 1 */\n      swap2\n      pop\n        /* \"contracts/distribution/TombRewardPool.sol\":5648:6089  for (epochId = epochId - 1; epochId >= 1; --epochId) {\r... */\n    tag_124:\n        /* \"contracts/distribution/TombRewardPool.sol\":5687:5688  1 */\n      0x01\n        /* \"contracts/distribution/TombRewardPool.sol\":5676:5683  epochId */\n      dup3\n        /* \"contracts/distribution/TombRewardPool.sol\":5676:5688  epochId >= 1 */\n      0xff\n      and\n      lt\n        /* \"contracts/distribution/TombRewardPool.sol\":5648:6089  for (epochId = epochId - 1; epochId >= 1; --epochId) {\r... */\n      tag_125\n      jumpi\n        /* \"contracts/distribution/TombRewardPool.sol\":5741:5754  epochEndTimes */\n      0x07\n        /* \"contracts/distribution/TombRewardPool.sol\":5765:5766  1 */\n      0x01\n        /* \"contracts/distribution/TombRewardPool.sol\":5755:5762  epochId */\n      dup4\n        /* \"contracts/distribution/TombRewardPool.sol\":5755:5766  epochId - 1 */\n      sub\n        /* \"contracts/distribution/TombRewardPool.sol\":5741:5767  epochEndTimes[epochId - 1] */\n      0xff\n      and\n      0x03\n      dup2\n      lt\n      tag_127\n      jumpi\n      invalid\n    tag_127:\n      add\n      sload\n        /* \"contracts/distribution/TombRewardPool.sol\":5728:5737  _fromTime */\n      dup6\n        /* \"contracts/distribution/TombRewardPool.sol\":5728:5767  _fromTime >= epochEndTimes[epochId - 1] */\n      lt\n        /* \"contracts/distribution/TombRewardPool.sol\":5724:5919  if (_fromTime >= epochEndTimes[epochId - 1]) {\r... */\n      tag_129\n      jumpi\n        /* \"contracts/distribution/TombRewardPool.sol\":5803:5895  _generatedReward.add(epochEndTimes[epochId].sub(_fromTime).mul(epochTombPerSecond[epochId])) */\n      tag_117\n        /* \"contracts/distribution/TombRewardPool.sol\":5824:5894  epochEndTimes[epochId].sub(_fromTime).mul(epochTombPerSecond[epochId]) */\n      tag_118\n        /* \"contracts/distribution/TombRewardPool.sol\":5866:5884  epochTombPerSecond */\n      0x0a\n        /* \"contracts/distribution/TombRewardPool.sol\":5885:5892  epochId */\n      dup5\n        /* \"contracts/distribution/TombRewardPool.sol\":5866:5893  epochTombPerSecond[epochId] */\n      0xff\n      and\n      0x03\n      dup2\n      lt\n      tag_132\n      jumpi\n      invalid\n    tag_132:\n      add\n      sload\n        /* \"contracts/distribution/TombRewardPool.sol\":5824:5861  epochEndTimes[epochId].sub(_fromTime) */\n      tag_108\n        /* \"contracts/distribution/TombRewardPool.sol\":5851:5860  _fromTime */\n      dup9\n        /* \"contracts/distribution/TombRewardPool.sol\":5824:5837  epochEndTimes */\n      0x07\n        /* \"contracts/distribution/TombRewardPool.sol\":5838:5845  epochId */\n      dup8\n        /* \"contracts/distribution/TombRewardPool.sol\":5824:5846  epochEndTimes[epochId] */\n      0xff\n      and\n      0x03\n      dup2\n      lt\n      tag_122\n      jumpi\n      invalid\n        /* \"contracts/distribution/TombRewardPool.sol\":5724:5919  if (_fromTime >= epochEndTimes[epochId - 1]) {\r... */\n    tag_129:\n        /* \"contracts/distribution/TombRewardPool.sol\":5960:6069  _generatedReward.add(epochEndTimes[epochId].sub(epochEndTimes[epochId - 1]).mul(epochTombPerSecond[epochId])) */\n      tag_137\n        /* \"contracts/distribution/TombRewardPool.sol\":5981:6068  epochEndTimes[epochId].sub(epochEndTimes[epochId - 1]).mul(epochTombPerSecond[epochId]) */\n      tag_118\n        /* \"contracts/distribution/TombRewardPool.sol\":6040:6058  epochTombPerSecond */\n      0x0a\n        /* \"contracts/distribution/TombRewardPool.sol\":6059:6066  epochId */\n      dup5\n        /* \"contracts/distribution/TombRewardPool.sol\":6040:6067  epochTombPerSecond[epochId] */\n      0xff\n      and\n      0x03\n      dup2\n      lt\n      tag_139\n      jumpi\n      invalid\n    tag_139:\n      add\n      sload\n        /* \"contracts/distribution/TombRewardPool.sol\":5981:6035  epochEndTimes[epochId].sub(epochEndTimes[epochId - 1]) */\n      tag_108\n        /* \"contracts/distribution/TombRewardPool.sol\":6008:6021  epochEndTimes */\n      0x07\n        /* \"contracts/distribution/TombRewardPool.sol\":6032:6033  1 */\n      0x01\n        /* \"contracts/distribution/TombRewardPool.sol\":6022:6029  epochId */\n      dup8\n        /* \"contracts/distribution/TombRewardPool.sol\":6022:6033  epochId - 1 */\n      sub\n        /* \"contracts/distribution/TombRewardPool.sol\":6008:6034  epochEndTimes[epochId - 1] */\n      0xff\n      and\n      0x03\n      dup2\n      lt\n      tag_142\n      jumpi\n      invalid\n    tag_142:\n      add\n      sload\n        /* \"contracts/distribution/TombRewardPool.sol\":5981:5994  epochEndTimes */\n      0x07\n        /* \"contracts/distribution/TombRewardPool.sol\":5995:6002  epochId */\n      dup8\n        /* \"contracts/distribution/TombRewardPool.sol\":5981:6003  epochEndTimes[epochId] */\n      0xff\n      and\n      0x03\n      dup2\n      lt\n      tag_122\n      jumpi\n      invalid\n        /* \"contracts/distribution/TombRewardPool.sol\":5960:6069  _generatedReward.add(epochEndTimes[epochId].sub(epochEndTimes[epochId - 1]).mul(epochTombPerSecond[epochId])) */\n    tag_137:\n      not(0x00)\n        /* \"contracts/distribution/TombRewardPool.sol\":5690:5699  --epochId */\n      swap1\n      swap3\n      add\n      swap2\n        /* \"contracts/distribution/TombRewardPool.sol\":5941:6069  _generatedReward = _generatedReward.add(epochEndTimes[epochId].sub(epochEndTimes[epochId - 1]).mul(epochTombPerSecond[epochId])) */\n      swap1\n      pop\n        /* \"contracts/distribution/TombRewardPool.sol\":5648:6089  for (epochId = epochId - 1; epochId >= 1; --epochId) {\r... */\n      jump(tag_124)\n    tag_125:\n        /* \"contracts/distribution/TombRewardPool.sol\":6114:6194  _generatedReward.add(epochEndTimes[0].sub(_fromTime).mul(epochTombPerSecond[0])) */\n      tag_117\n        /* \"contracts/distribution/TombRewardPool.sol\":6135:6193  epochEndTimes[0].sub(_fromTime).mul(epochTombPerSecond[0]) */\n      tag_118\n        /* \"contracts/distribution/TombRewardPool.sol\":6171:6189  epochTombPerSecond */\n      0x0a\n        /* \"contracts/distribution/TombRewardPool.sol\":6190:6191  0 */\n      0x00\n        /* \"contracts/distribution/TombRewardPool.sol\":6171:6192  epochTombPerSecond[0] */\n      jump(tag_119)\n        /* \"contracts/distribution/TombRewardPool.sol\":5132:6210  if (_toTime >= epochEndTimes[epochId - 1]) {\r... */\n    tag_101:\n      not(0x00)\n        /* \"contracts/distribution/TombRewardPool.sol\":5106:5115  --epochId */\n      add\n        /* \"contracts/distribution/TombRewardPool.sol\":5068:6221  for (uint8 epochId = 2; epochId >= 1; --epochId) {\r... */\n      jump(tag_96)\n    tag_97:\n      pop\n        /* \"contracts/distribution/TombRewardPool.sol\":6265:6283  epochTombPerSecond */\n      0x0a\n        /* \"contracts/distribution/TombRewardPool.sol\":6265:6286  epochTombPerSecond[0] */\n      sload\n        /* \"contracts/distribution/TombRewardPool.sol\":6238:6287  _toTime.sub(_fromTime).mul(epochTombPerSecond[0]) */\n      tag_153\n      swap1\n        /* \"contracts/distribution/TombRewardPool.sol\":6238:6260  _toTime.sub(_fromTime) */\n      tag_108\n        /* \"contracts/distribution/TombRewardPool.sol\":6238:6245  _toTime */\n      dup5\n        /* \"contracts/distribution/TombRewardPool.sol\":6250:6259  _fromTime */\n      dup7\n        /* \"contracts/distribution/TombRewardPool.sol\":6238:6249  _toTime.sub */\n      tag_93\n        /* \"contracts/distribution/TombRewardPool.sol\":6238:6260  _toTime.sub(_fromTime) */\n      jump\t// in\n        /* \"contracts/distribution/TombRewardPool.sol\":6238:6287  _toTime.sub(_fromTime).mul(epochTombPerSecond[0]) */\n    tag_153:\n        /* \"contracts/distribution/TombRewardPool.sol\":6231:6287  return _toTime.sub(_fromTime).mul(epochTombPerSecond[0]) */\n      swap1\n      pop\n        /* \"contracts/distribution/TombRewardPool.sol\":4963:6295  function getGeneratedReward(uint256 _fromTime, uint256 _toTime) public view returns (uint256) {\r... */\n    tag_95:\n      swap3\n      swap2\n      pop\n      pop\n      jump\t// out\n        /* \"contracts/distribution/TombRewardPool.sol\":9274:10084  function withdraw(uint256 _pid, uint256 _amount) public {\r... */\n    tag_39:\n        /* \"contracts/distribution/TombRewardPool.sol\":9341:9356  address _sender */\n      0x00\n        /* \"contracts/distribution/TombRewardPool.sol\":9359:9369  msg.sender */\n      caller\n        /* \"contracts/distribution/TombRewardPool.sol\":9341:9369  address _sender = msg.sender */\n      swap1\n      pop\n        /* \"contracts/distribution/TombRewardPool.sol\":9380:9401  PoolInfo storage pool */\n      0x00\n        /* \"contracts/distribution/TombRewardPool.sol\":9404:9412  poolInfo */\n      0x02\n        /* \"contracts/distribution/TombRewardPool.sol\":9413:9417  _pid */\n      dup5\n        /* \"contracts/distribution/TombRewardPool.sol\":9404:9418  poolInfo[_pid] */\n      dup2\n      sload\n      dup2\n      lt\n      tag_158\n      jumpi\n      invalid\n    tag_158:\n      0x00\n      swap2\n      dup3\n      mstore\n      0x20\n      dup1\n      dup4\n      keccak256\n        /* \"contracts/distribution/TombRewardPool.sol\":9453:9467  userInfo[_pid] */\n      dup8\n      dup5\n      mstore\n        /* \"contracts/distribution/TombRewardPool.sol\":9453:9461  userInfo */\n      0x03\n        /* \"contracts/distribution/TombRewardPool.sol\":9453:9467  userInfo[_pid] */\n      dup3\n      mstore\n      0x40\n      dup1\n      dup6\n      keccak256\n      sub(shl(0xa0, 0x01), 0x01)\n        /* \"contracts/distribution/TombRewardPool.sol\":9453:9476  userInfo[_pid][_sender] */\n      dup9\n      and\n      dup7\n      mstore\n      swap1\n      swap3\n      mstore\n      swap3\n      keccak256\n        /* \"contracts/distribution/TombRewardPool.sol\":9495:9506  user.amount */\n      dup1\n      sload\n        /* \"contracts/distribution/TombRewardPool.sol\":9404:9418  poolInfo[_pid] */\n      0x05\n      swap1\n      swap3\n      mul\n      swap1\n      swap3\n      add\n      swap3\n      pop\n        /* \"contracts/distribution/TombRewardPool.sol\":9495:9517  user.amount >= _amount */\n      dup5\n      gt\n      iszero\n        /* \"contracts/distribution/TombRewardPool.sol\":9487:9540  require(user.amount >= _amount, \"withdraw: not good\") */\n      tag_160\n      jumpi\n      0x40\n      dup1\n      mload\n      shl(0xe5, 0x461bcd)\n      dup2\n      mstore\n      0x20\n      0x04\n      dup3\n      add\n      mstore\n      0x12\n      0x24\n      dup3\n      add\n      mstore\n      shl(0x72, 0x1dda5d1a191c985dce881b9bdd0819dbdbd9)\n      0x44\n      dup3\n      add\n      mstore\n      swap1\n      mload\n      swap1\n      dup2\n      swap1\n      sub\n      0x64\n      add\n      swap1\n      revert\n    tag_160:\n        /* \"contracts/distribution/TombRewardPool.sol\":9551:9567  updatePool(_pid) */\n      tag_161\n        /* \"contracts/distribution/TombRewardPool.sol\":9562:9566  _pid */\n      dup6\n        /* \"contracts/distribution/TombRewardPool.sol\":9551:9561  updatePool */\n      tag_42\n        /* \"contracts/distribution/TombRewardPool.sol\":9551:9567  updatePool(_pid) */\n      jump\t// in\n    tag_161:\n        /* \"contracts/distribution/TombRewardPool.sol\":9578:9594  uint256 _pending */\n      0x00\n        /* \"contracts/distribution/TombRewardPool.sol\":9597:9665  user.amount.mul(pool.accTombPerShare).div(1e18).sub(user.rewardDebt) */\n      tag_162\n        /* \"contracts/distribution/TombRewardPool.sol\":9649:9653  user */\n      dup3\n        /* \"contracts/distribution/TombRewardPool.sol\":9649:9664  user.rewardDebt */\n      0x01\n      add\n      sload\n        /* \"contracts/distribution/TombRewardPool.sol\":9597:9644  user.amount.mul(pool.accTombPerShare).div(1e18) */\n      tag_163\n        /* \"contracts/distribution/TombRewardPool.sol\":9639:9643  1e18 */\n      0x0de0b6b3a7640000\n        /* \"contracts/distribution/TombRewardPool.sol\":9597:9634  user.amount.mul(pool.accTombPerShare) */\n      tag_164\n        /* \"contracts/distribution/TombRewardPool.sol\":9613:9617  pool */\n      dup8\n        /* \"contracts/distribution/TombRewardPool.sol\":9613:9633  pool.accTombPerShare */\n      0x03\n      add\n      sload\n        /* \"contracts/distribution/TombRewardPool.sol\":9597:9601  user */\n      dup8\n        /* \"contracts/distribution/TombRewardPool.sol\":9597:9608  user.amount */\n      0x00\n      add\n      sload\n        /* \"contracts/distribution/TombRewardPool.sol\":9597:9612  user.amount.mul */\n      tag_109\n      swap1\n        /* \"contracts/distribution/TombRewardPool.sol\":9597:9634  user.amount.mul(pool.accTombPerShare) */\n      swap2\n      swap1\n      0xffffffff\n      and\n      jump\t// in\n    tag_164:\n        /* \"contracts/distribution/TombRewardPool.sol\":9597:9638  user.amount.mul(pool.accTombPerShare).div */\n      swap1\n      tag_81\n        /* \"contracts/distribution/TombRewardPool.sol\":9597:9644  user.amount.mul(pool.accTombPerShare).div(1e18) */\n      jump\t// in\n    tag_163:\n        /* \"contracts/distribution/TombRewardPool.sol\":9597:9648  user.amount.mul(pool.accTombPerShare).div(1e18).sub */\n      swap1\n      tag_93\n        /* \"contracts/distribution/TombRewardPool.sol\":9597:9665  user.amount.mul(pool.accTombPerShare).div(1e18).sub(user.rewardDebt) */\n      jump\t// in\n    tag_162:\n        /* \"contracts/distribution/TombRewardPool.sol\":9578:9665  uint256 _pending = user.amount.mul(pool.accTombPerShare).div(1e18).sub(user.rewardDebt) */\n      swap1\n      pop\n        /* \"contracts/distribution/TombRewardPool.sol\":9680:9692  _pending > 0 */\n      dup1\n      iszero\n        /* \"contracts/distribution/TombRewardPool.sol\":9676:9805  if (_pending > 0) {\r... */\n      tag_165\n      jumpi\n        /* \"contracts/distribution/TombRewardPool.sol\":9709:9744  safeTombTransfer(_sender, _pending) */\n      tag_166\n        /* \"contracts/distribution/TombRewardPool.sol\":9726:9733  _sender */\n      dup5\n        /* \"contracts/distribution/TombRewardPool.sol\":9735:9743  _pending */\n      dup3\n        /* \"contracts/distribution/TombRewardPool.sol\":9709:9725  safeTombTransfer */\n      tag_167\n        /* \"contracts/distribution/TombRewardPool.sol\":9709:9744  safeTombTransfer(_sender, _pending) */\n      jump\t// in\n    tag_166:\n        /* \"contracts/distribution/TombRewardPool.sol\":9764:9793  RewardPaid(_sender, _pending) */\n      0x40\n      dup1\n      mload\n      dup3\n      dup2\n      mstore\n      swap1\n      mload\n      sub(shl(0xa0, 0x01), 0x01)\n      dup7\n      and\n      swap2\n      0xe2403640ba68fed3a2f88b7557551d1993f84b99bb10ff833f0cf8db0c5e0486\n      swap2\n      swap1\n      dup2\n      swap1\n      sub\n      0x20\n      add\n      swap1\n      log2\n        /* \"contracts/distribution/TombRewardPool.sol\":9676:9805  if (_pending > 0) {\r... */\n    tag_165:\n        /* \"contracts/distribution/TombRewardPool.sol\":9819:9830  _amount > 0 */\n      dup5\n      iszero\n        /* \"contracts/distribution/TombRewardPool.sol\":9815:9953  if (_amount > 0) {\r... */\n      tag_170\n      jumpi\n        /* \"contracts/distribution/TombRewardPool.sol\":9861:9872  user.amount */\n      dup2\n      sload\n        /* \"contracts/distribution/TombRewardPool.sol\":9861:9885  user.amount.sub(_amount) */\n      tag_169\n      swap1\n        /* \"contracts/distribution/TombRewardPool.sol\":9877:9884  _amount */\n      dup7\n        /* \"contracts/distribution/TombRewardPool.sol\":9861:9876  user.amount.sub */\n      tag_93\n        /* \"contracts/distribution/TombRewardPool.sol\":9861:9885  user.amount.sub(_amount) */\n      jump\t// in\n    tag_169:\n        /* \"contracts/distribution/TombRewardPool.sol\":9847:9885  user.amount = user.amount.sub(_amount) */\n      dup3\n      sstore\n        /* \"contracts/distribution/TombRewardPool.sol\":9900:9910  pool.token */\n      dup3\n      sload\n        /* \"contracts/distribution/TombRewardPool.sol\":9900:9941  pool.token.safeTransfer(_sender, _amount) */\n      tag_170\n      swap1\n      sub(shl(0xa0, 0x01), 0x01)\n        /* \"contracts/distribution/TombRewardPool.sol\":9900:9910  pool.token */\n      and\n        /* \"contracts/distribution/TombRewardPool.sol\":9924:9931  _sender */\n      dup6\n        /* \"contracts/distribution/TombRewardPool.sol\":9933:9940  _amount */\n      dup8\n        /* \"contracts/distribution/TombRewardPool.sol\":9900:9923  pool.token.safeTransfer */\n      tag_171\n        /* \"contracts/distribution/TombRewardPool.sol\":9900:9941  pool.token.safeTransfer(_sender, _amount) */\n      jump\t// in\n    tag_170:\n        /* \"contracts/distribution/TombRewardPool.sol\":9997:10017  pool.accTombPerShare */\n      0x03\n      dup4\n      add\n      sload\n        /* \"contracts/distribution/TombRewardPool.sol\":9981:9992  user.amount */\n      dup3\n      sload\n        /* \"contracts/distribution/TombRewardPool.sol\":9981:10028  user.amount.mul(pool.accTombPerShare).div(1e18) */\n      tag_172\n      swap2\n        /* \"contracts/distribution/TombRewardPool.sol\":10023:10027  1e18 */\n      0x0de0b6b3a7640000\n      swap2\n        /* \"contracts/distribution/TombRewardPool.sol\":9981:10018  user.amount.mul(pool.accTombPerShare) */\n      tag_164\n      swap2\n        /* \"contracts/distribution/TombRewardPool.sol\":9981:9996  user.amount.mul */\n      tag_109\n        /* \"contracts/distribution/TombRewardPool.sol\":9981:10018  user.amount.mul(pool.accTombPerShare) */\n      jump\t// in\n        /* \"contracts/distribution/TombRewardPool.sol\":9981:10028  user.amount.mul(pool.accTombPerShare).div(1e18) */\n    tag_172:\n        /* \"contracts/distribution/TombRewardPool.sol\":9963:9978  user.rewardDebt */\n      0x01\n      dup4\n      add\n        /* \"contracts/distribution/TombRewardPool.sol\":9963:10028  user.rewardDebt = user.amount.mul(pool.accTombPerShare).div(1e18) */\n      sstore\n        /* \"contracts/distribution/TombRewardPool.sol\":10044:10076  Withdraw(_sender, _pid, _amount) */\n      0x40\n      dup1\n      mload\n      dup7\n      dup2\n      mstore\n      swap1\n      mload\n        /* \"contracts/distribution/TombRewardPool.sol\":10062:10066  _pid */\n      dup8\n      swap2\n      sub(shl(0xa0, 0x01), 0x01)\n        /* \"contracts/distribution/TombRewardPool.sol\":10044:10076  Withdraw(_sender, _pid, _amount) */\n      dup8\n      and\n      swap2\n      0xf279e6a1f5e320cca91135676d9cb6e44ca8a08c0b88342bcdb1144f6511b568\n      swap2\n      dup2\n      swap1\n      sub\n      0x20\n      add\n      swap1\n      log3\n        /* \"contracts/distribution/TombRewardPool.sol\":9274:10084  function withdraw(uint256 _pid, uint256 _amount) public {\r... */\n      pop\n      pop\n      pop\n      pop\n      pop\n      pop\n      jump\t// out\n        /* \"contracts/distribution/TombRewardPool.sol\":7469:8377  function updatePool(uint256 _pid) public {\r... */\n    tag_42:\n        /* \"contracts/distribution/TombRewardPool.sol\":7521:7542  PoolInfo storage pool */\n      0x00\n        /* \"contracts/distribution/TombRewardPool.sol\":7545:7553  poolInfo */\n      0x02\n        /* \"contracts/distribution/TombRewardPool.sol\":7554:7558  _pid */\n      dup3\n        /* \"contracts/distribution/TombRewardPool.sol\":7545:7559  poolInfo[_pid] */\n      dup2\n      sload\n      dup2\n      lt\n      tag_175\n      jumpi\n      invalid\n    tag_175:\n      swap1\n      0x00\n      mstore\n      keccak256(0x00, 0x20)\n      swap1\n      0x05\n      mul\n      add\n        /* \"contracts/distribution/TombRewardPool.sol\":7521:7559  PoolInfo storage pool = poolInfo[_pid] */\n      swap1\n      pop\n        /* \"contracts/distribution/TombRewardPool.sol\":7593:7597  pool */\n      dup1\n        /* \"contracts/distribution/TombRewardPool.sol\":7593:7612  pool.lastRewardTime */\n      0x02\n      add\n      sload\n        /* \"contracts/distribution/TombRewardPool.sol\":7574:7589  block.timestamp */\n      timestamp\n        /* \"contracts/distribution/TombRewardPool.sol\":7574:7612  block.timestamp <= pool.lastRewardTime */\n      gt\n        /* \"contracts/distribution/TombRewardPool.sol\":7570:7647  if (block.timestamp <= pool.lastRewardTime) {\r... */\n      tag_177\n      jumpi\n        /* \"contracts/distribution/TombRewardPool.sol\":7629:7636  return; */\n      pop\n      jump(tag_174)\n        /* \"contracts/distribution/TombRewardPool.sol\":7570:7647  if (block.timestamp <= pool.lastRewardTime) {\r... */\n    tag_177:\n        /* \"contracts/distribution/TombRewardPool.sol\":7679:7689  pool.token */\n      dup1\n      sload\n        /* \"contracts/distribution/TombRewardPool.sol\":7679:7714  pool.token.balanceOf(address(this)) */\n      0x40\n      dup1\n      mload\n      shl(0xe0, 0x70a08231)\n      dup2\n      mstore\n        /* \"contracts/distribution/TombRewardPool.sol\":7708:7712  this */\n      address\n        /* \"contracts/distribution/TombRewardPool.sol\":7679:7714  pool.token.balanceOf(address(this)) */\n      0x04\n      dup3\n      add\n      mstore\n      swap1\n      mload\n        /* \"contracts/distribution/TombRewardPool.sol\":7657:7676  uint256 tokenSupply */\n      0x00\n      swap3\n      sub(shl(0xa0, 0x01), 0x01)\n        /* \"contracts/distribution/TombRewardPool.sol\":7679:7689  pool.token */\n      and\n      swap2\n        /* \"contracts/distribution/TombRewardPool.sol\":7679:7699  pool.token.balanceOf */\n      0x70a08231\n      swap2\n        /* \"contracts/distribution/TombRewardPool.sol\":7679:7714  pool.token.balanceOf(address(this)) */\n      0x24\n      dup1\n      dup4\n      add\n      swap3\n      0x20\n      swap3\n      swap2\n      swap1\n      dup3\n      swap1\n      sub\n      add\n      dup2\n        /* \"contracts/distribution/TombRewardPool.sol\":7679:7689  pool.token */\n      dup7\n        /* \"contracts/distribution/TombRewardPool.sol\":7679:7714  pool.token.balanceOf(address(this)) */\n      dup1\n      extcodesize\n      iszero\n      dup1\n      iszero\n      tag_178\n      jumpi\n      0x00\n      dup1\n      revert\n    tag_178:\n      pop\n      gas\n      staticcall\n      iszero\n      dup1\n      iszero\n      tag_180\n      jumpi\n      returndatasize\n      0x00\n      dup1\n      returndatacopy\n      revert(0x00, returndatasize)\n    tag_180:\n      pop\n      pop\n      pop\n      pop\n      mload(0x40)\n      returndatasize\n      0x20\n      dup2\n      lt\n      iszero\n      tag_181\n      jumpi\n      0x00\n      dup1\n      revert\n    tag_181:\n      pop\n      mload\n      swap1\n      pop\n        /* \"contracts/distribution/TombRewardPool.sol\":7729:7745  tokenSupply == 0 */\n      dup1\n        /* \"contracts/distribution/TombRewardPool.sol\":7725:7832  if (tokenSupply == 0) {\r... */\n      tag_182\n      jumpi\n      pop\n        /* \"contracts/distribution/TombRewardPool.sol\":7784:7799  block.timestamp */\n      timestamp\n        /* \"contracts/distribution/TombRewardPool.sol\":7762:7781  pool.lastRewardTime */\n      0x02\n      swap1\n      swap2\n      add\n        /* \"contracts/distribution/TombRewardPool.sol\":7762:7799  pool.lastRewardTime = block.timestamp */\n      sstore\n        /* \"contracts/distribution/TombRewardPool.sol\":7814:7821  return; */\n      jump(tag_174)\n        /* \"contracts/distribution/TombRewardPool.sol\":7725:7832  if (tokenSupply == 0) {\r... */\n    tag_182:\n        /* \"contracts/distribution/TombRewardPool.sol\":7847:7861  pool.isStarted */\n      0x04\n      dup3\n      add\n      sload\n      0xff\n      and\n        /* \"contracts/distribution/TombRewardPool.sol\":7842:7980  if (!pool.isStarted) {\r... */\n      tag_183\n      jumpi\n        /* \"contracts/distribution/TombRewardPool.sol\":7878:7892  pool.isStarted */\n      0x04\n      dup1\n      dup4\n      add\n        /* \"contracts/distribution/TombRewardPool.sol\":7878:7899  pool.isStarted = true */\n      dup1\n      sload\n      not(0xff)\n      and\n        /* \"contracts/distribution/TombRewardPool.sol\":7895:7899  true */\n      0x01\n        /* \"contracts/distribution/TombRewardPool.sol\":7878:7899  pool.isStarted = true */\n      swap1\n      dup2\n      or\n      swap1\n      swap2\n      sstore\n        /* \"contracts/distribution/TombRewardPool.sol\":7952:7967  pool.allocPoint */\n      dup4\n      add\n      sload\n        /* \"contracts/distribution/TombRewardPool.sol\":7932:7947  totalAllocPoint */\n      swap1\n      sload\n        /* \"contracts/distribution/TombRewardPool.sol\":7932:7968  totalAllocPoint.add(pool.allocPoint) */\n      tag_184\n      swap2\n        /* \"contracts/distribution/TombRewardPool.sol\":7932:7951  totalAllocPoint.add */\n      tag_94\n        /* \"contracts/distribution/TombRewardPool.sol\":7932:7968  totalAllocPoint.add(pool.allocPoint) */\n      jump\t// in\n    tag_184:\n        /* \"contracts/distribution/TombRewardPool.sol\":7914:7929  totalAllocPoint */\n      0x04\n        /* \"contracts/distribution/TombRewardPool.sol\":7914:7968  totalAllocPoint = totalAllocPoint.add(pool.allocPoint) */\n      sstore\n        /* \"contracts/distribution/TombRewardPool.sol\":7842:7980  if (!pool.isStarted) {\r... */\n    tag_183:\n        /* \"contracts/distribution/TombRewardPool.sol\":7994:8009  totalAllocPoint */\n      sload(0x04)\n        /* \"contracts/distribution/TombRewardPool.sol\":7994:8013  totalAllocPoint > 0 */\n      iszero\n        /* \"contracts/distribution/TombRewardPool.sol\":7990:8322  if (totalAllocPoint > 0) {\r... */\n      tag_185\n      jumpi\n        /* \"contracts/distribution/TombRewardPool.sol\":8030:8054  uint256 _generatedReward */\n      0x00\n        /* \"contracts/distribution/TombRewardPool.sol\":8057:8113  getGeneratedReward(pool.lastRewardTime, block.timestamp) */\n      tag_186\n        /* \"contracts/distribution/TombRewardPool.sol\":8076:8080  pool */\n      dup4\n        /* \"contracts/distribution/TombRewardPool.sol\":8076:8095  pool.lastRewardTime */\n      0x02\n      add\n      sload\n        /* \"contracts/distribution/TombRewardPool.sol\":8097:8112  block.timestamp */\n      timestamp\n        /* \"contracts/distribution/TombRewardPool.sol\":8057:8075  getGeneratedReward */\n      tag_36\n        /* \"contracts/distribution/TombRewardPool.sol\":8057:8113  getGeneratedReward(pool.lastRewardTime, block.timestamp) */\n      jump\t// in\n    tag_186:\n        /* \"contracts/distribution/TombRewardPool.sol\":8030:8113  uint256 _generatedReward = getGeneratedReward(pool.lastRewardTime, block.timestamp) */\n      swap1\n      pop\n        /* \"contracts/distribution/TombRewardPool.sol\":8128:8147  uint256 _tombReward */\n      0x00\n        /* \"contracts/distribution/TombRewardPool.sol\":8150:8208  _generatedReward.mul(pool.allocPoint).div(totalAllocPoint) */\n      tag_187\n        /* \"contracts/distribution/TombRewardPool.sol\":8192:8207  totalAllocPoint */\n      sload(0x04)\n        /* \"contracts/distribution/TombRewardPool.sol\":8150:8187  _generatedReward.mul(pool.allocPoint) */\n      tag_164\n        /* \"contracts/distribution/TombRewardPool.sol\":8171:8175  pool */\n      dup7\n        /* \"contracts/distribution/TombRewardPool.sol\":8171:8186  pool.allocPoint */\n      0x01\n      add\n      sload\n        /* \"contracts/distribution/TombRewardPool.sol\":8150:8166  _generatedReward */\n      dup6\n        /* \"contracts/distribution/TombRewardPool.sol\":8150:8170  _generatedReward.mul */\n      tag_109\n      swap1\n        /* \"contracts/distribution/TombRewardPool.sol\":8150:8187  _generatedReward.mul(pool.allocPoint) */\n      swap2\n      swap1\n      0xffffffff\n      and\n      jump\t// in\n        /* \"contracts/distribution/TombRewardPool.sol\":8150:8208  _generatedReward.mul(pool.allocPoint).div(totalAllocPoint) */\n    tag_187:\n        /* \"contracts/distribution/TombRewardPool.sol\":8128:8208  uint256 _tombReward = _generatedReward.mul(pool.allocPoint).div(totalAllocPoint) */\n      swap1\n      pop\n        /* \"contracts/distribution/TombRewardPool.sol\":8246:8310  pool.accTombPerShare.add(_tombReward.mul(1e18).div(tokenSupply)) */\n      tag_189\n        /* \"contracts/distribution/TombRewardPool.sol\":8271:8309  _tombReward.mul(1e18).div(tokenSupply) */\n      tag_190\n        /* \"contracts/distribution/TombRewardPool.sol\":8297:8308  tokenSupply */\n      dup5\n        /* \"contracts/distribution/TombRewardPool.sol\":8271:8292  _tombReward.mul(1e18) */\n      tag_164\n        /* \"contracts/distribution/TombRewardPool.sol\":8128:8208  uint256 _tombReward = _generatedReward.mul(pool.allocPoint).div(totalAllocPoint) */\n      dup5\n        /* \"contracts/distribution/TombRewardPool.sol\":8287:8291  1e18 */\n      0x0de0b6b3a7640000\n        /* \"contracts/distribution/TombRewardPool.sol\":8271:8286  _tombReward.mul */\n      tag_109\n        /* \"contracts/distribution/TombRewardPool.sol\":8271:8292  _tombReward.mul(1e18) */\n      jump\t// in\n        /* \"contracts/distribution/TombRewardPool.sol\":8271:8309  _tombReward.mul(1e18).div(tokenSupply) */\n    tag_190:\n        /* \"contracts/distribution/TombRewardPool.sol\":8246:8266  pool.accTombPerShare */\n      0x03\n      dup7\n      add\n      sload\n      swap1\n        /* \"contracts/distribution/TombRewardPool.sol\":8246:8270  pool.accTombPerShare.add */\n      tag_94\n        /* \"contracts/distribution/TombRewardPool.sol\":8246:8310  pool.accTombPerShare.add(_tombReward.mul(1e18).div(tokenSupply)) */\n      jump\t// in\n    tag_189:\n        /* \"contracts/distribution/TombRewardPool.sol\":8223:8243  pool.accTombPerShare */\n      0x03\n      dup6\n      add\n        /* \"contracts/distribution/TombRewardPool.sol\":8223:8310  pool.accTombPerShare = pool.accTombPerShare.add(_tombReward.mul(1e18).div(tokenSupply)) */\n      sstore\n      pop\n      pop\n        /* \"contracts/distribution/TombRewardPool.sol\":7990:8322  if (totalAllocPoint > 0) {\r... */\n    tag_185:\n      pop\n        /* \"contracts/distribution/TombRewardPool.sol\":8354:8369  block.timestamp */\n      timestamp\n        /* \"contracts/distribution/TombRewardPool.sol\":8332:8351  pool.lastRewardTime */\n      0x02\n      swap1\n      swap2\n      add\n        /* \"contracts/distribution/TombRewardPool.sol\":8332:8369  pool.lastRewardTime = block.timestamp */\n      sstore\n        /* \"contracts/distribution/TombRewardPool.sol\":7469:8377  function updatePool(uint256 _pid) public {\r... */\n    tag_174:\n      pop\n      jump\t// out\n        /* \"contracts/distribution/TombRewardPool.sol\":10155:10532  function emergencyWithdraw(uint256 _pid) public {\r... */\n    tag_45:\n        /* \"contracts/distribution/TombRewardPool.sol\":10214:10235  PoolInfo storage pool */\n      0x00\n        /* \"contracts/distribution/TombRewardPool.sol\":10238:10246  poolInfo */\n      0x02\n        /* \"contracts/distribution/TombRewardPool.sol\":10247:10251  _pid */\n      dup3\n        /* \"contracts/distribution/TombRewardPool.sol\":10238:10252  poolInfo[_pid] */\n      dup2\n      sload\n      dup2\n      lt\n      tag_193\n      jumpi\n      invalid\n    tag_193:\n      0x00\n      swap2\n      dup3\n      mstore\n      0x20\n      dup1\n      dup4\n      keccak256\n        /* \"contracts/distribution/TombRewardPool.sol\":10287:10301  userInfo[_pid] */\n      dup6\n      dup5\n      mstore\n        /* \"contracts/distribution/TombRewardPool.sol\":10287:10295  userInfo */\n      0x03\n        /* \"contracts/distribution/TombRewardPool.sol\":10287:10301  userInfo[_pid] */\n      dup3\n      mstore\n      0x40\n      dup1\n      dup6\n      keccak256\n        /* \"contracts/distribution/TombRewardPool.sol\":10302:10312  msg.sender */\n      caller\n        /* \"contracts/distribution/TombRewardPool.sol\":10287:10313  userInfo[_pid][msg.sender] */\n      dup1\n      dup8\n      mstore\n      swap4\n      mstore\n      dup5\n      keccak256\n        /* \"contracts/distribution/TombRewardPool.sol\":10342:10353  user.amount */\n      dup1\n      sload\n        /* \"contracts/distribution/TombRewardPool.sol\":10364:10379  user.amount = 0 */\n      dup6\n      dup3\n      sstore\n      0x01\n        /* \"contracts/distribution/TombRewardPool.sol\":10390:10405  user.rewardDebt */\n      dup3\n      add\n        /* \"contracts/distribution/TombRewardPool.sol\":10390:10409  user.rewardDebt = 0 */\n      swap6\n      swap1\n      swap6\n      sstore\n        /* \"contracts/distribution/TombRewardPool.sol\":10238:10252  poolInfo[_pid] */\n      0x05\n      swap1\n      swap4\n      mul\n      add\n        /* \"contracts/distribution/TombRewardPool.sol\":10420:10430  pool.token */\n      dup1\n      sload\n        /* \"contracts/distribution/TombRewardPool.sol\":10238:10252  poolInfo[_pid] */\n      swap1\n      swap5\n      pop\n        /* \"contracts/distribution/TombRewardPool.sol\":10287:10313  userInfo[_pid][msg.sender] */\n      swap2\n      swap3\n        /* \"contracts/distribution/TombRewardPool.sol\":10342:10353  user.amount */\n      swap2\n        /* \"contracts/distribution/TombRewardPool.sol\":10420:10464  pool.token.safeTransfer(msg.sender, _amount) */\n      tag_195\n      swap2\n      sub(shl(0xa0, 0x01), 0x01)\n        /* \"contracts/distribution/TombRewardPool.sol\":10420:10430  pool.token */\n      swap2\n      swap1\n      swap2\n      and\n      swap1\n        /* \"contracts/distribution/TombRewardPool.sol\":10342:10353  user.amount */\n      dup4\n        /* \"contracts/distribution/TombRewardPool.sol\":10420:10443  pool.token.safeTransfer */\n      tag_171\n        /* \"contracts/distribution/TombRewardPool.sol\":10420:10464  pool.token.safeTransfer(msg.sender, _amount) */\n      jump\t// in\n    tag_195:\n        /* \"contracts/distribution/TombRewardPool.sol\":10480:10524  EmergencyWithdraw(msg.sender, _pid, _amount) */\n      0x40\n      dup1\n      mload\n      dup3\n      dup2\n      mstore\n      swap1\n      mload\n        /* \"contracts/distribution/TombRewardPool.sol\":10510:10514  _pid */\n      dup6\n      swap2\n        /* \"contracts/distribution/TombRewardPool.sol\":10498:10508  msg.sender */\n      caller\n      swap2\n        /* \"contracts/distribution/TombRewardPool.sol\":10480:10524  EmergencyWithdraw(msg.sender, _pid, _amount) */\n      0xbb757047c2b5f3974fe26b7c10f732e7bce710b0952a71082702781e62ae0595\n      swap2\n      dup2\n      swap1\n      sub\n      0x20\n      add\n      swap1\n      log3\n        /* \"contracts/distribution/TombRewardPool.sol\":10155:10532  function emergencyWithdraw(uint256 _pid) public {\r... */\n      pop\n      pop\n      pop\n      pop\n      jump\t// out\n        /* \"contracts/distribution/TombRewardPool.sol\":11112:11736  function governanceRecoverUnsupported(\r... */\n    tag_48:\n        /* \"contracts/distribution/TombRewardPool.sol\":2859:2867  operator */\n      and(sub(shl(0xa0, 0x01), 0x01), sload(0x00))\n        /* \"contracts/distribution/TombRewardPool.sol\":2871:2881  msg.sender */\n      caller\n        /* \"contracts/distribution/TombRewardPool.sol\":2859:2881  operator == msg.sender */\n      eq\n        /* \"contracts/distribution/TombRewardPool.sol\":2851:2928  require(operator == msg.sender, \"TombRewardPool: caller is not the operator\") */\n      tag_197\n      jumpi\n      mload(0x40)\n      shl(0xe5, 0x461bcd)\n      dup2\n      mstore\n      0x04\n      add\n      dup1\n      dup1\n      0x20\n      add\n      dup3\n      dup2\n      sub\n      dup3\n      mstore\n      0x2a\n      dup2\n      mstore\n      0x20\n      add\n      dup1\n      data_23c2b75188d7d13d903b5cb4ec62ae0213436b5445c9258e5023f1d0545361cd\n      0x2a\n      swap2\n      codecopy\n      0x40\n      add\n      swap2\n      pop\n      pop\n      mload(0x40)\n      dup1\n      swap2\n      sub\n      swap1\n      revert\n    tag_197:\n        /* \"contracts/distribution/TombRewardPool.sol\":11282:11298  epochEndTimes[1] */\n      sload(0x08)\n        /* \"contracts/distribution/TombRewardPool.sol\":11301:11308  30 days */\n      0x278d00\n        /* \"contracts/distribution/TombRewardPool.sol\":11282:11308  epochEndTimes[1] + 30 days */\n      add\n        /* \"contracts/distribution/TombRewardPool.sol\":11264:11279  block.timestamp */\n      timestamp\n        /* \"contracts/distribution/TombRewardPool.sol\":11264:11308  block.timestamp < epochEndTimes[1] + 30 days */\n      lt\n        /* \"contracts/distribution/TombRewardPool.sol\":11260:11687  if (block.timestamp < epochEndTimes[1] + 30 days) {\r... */\n      iszero\n      tag_201\n      jumpi\n        /* \"contracts/distribution/TombRewardPool.sol\":11422:11426  tomb */\n      sload(0x01)\n      sub(shl(0xa0, 0x01), 0x01)\n        /* \"contracts/distribution/TombRewardPool.sol\":11412:11426  _token != tomb */\n      dup5\n      dup2\n      and\n        /* \"contracts/distribution/TombRewardPool.sol\":11422:11426  tomb */\n      swap2\n      and\n        /* \"contracts/distribution/TombRewardPool.sol\":11412:11426  _token != tomb */\n      eq\n      iszero\n        /* \"contracts/distribution/TombRewardPool.sol\":11404:11436  require(_token != tomb, \"!tomb\") */\n      tag_202\n      jumpi\n      0x40\n      dup1\n      mload\n      shl(0xe5, 0x461bcd)\n      dup2\n      mstore\n      0x20\n      0x04\n      dup3\n      add\n      mstore\n      0x05\n      0x24\n      dup3\n      add\n      mstore\n      shl(0xd9, 0x10ba37b6b1)\n      0x44\n      dup3\n      add\n      mstore\n      swap1\n      mload\n      swap1\n      dup2\n      swap1\n      sub\n      0x64\n      add\n      swap1\n      revert\n    tag_202:\n        /* \"contracts/distribution/TombRewardPool.sol\":11468:11476  poolInfo */\n      0x02\n        /* \"contracts/distribution/TombRewardPool.sol\":11468:11483  poolInfo.length */\n      sload\n        /* \"contracts/distribution/TombRewardPool.sol\":11451:11465  uint256 length */\n      0x00\n        /* \"contracts/distribution/TombRewardPool.sol\":11498:11676  for (uint256 pid = 0; pid < length; ++pid) {\r... */\n    tag_203:\n        /* \"contracts/distribution/TombRewardPool.sol\":11526:11532  length */\n      dup2\n        /* \"contracts/distribution/TombRewardPool.sol\":11520:11523  pid */\n      dup2\n        /* \"contracts/distribution/TombRewardPool.sol\":11520:11532  pid < length */\n      lt\n        /* \"contracts/distribution/TombRewardPool.sol\":11498:11676  for (uint256 pid = 0; pid < length; ++pid) {\r... */\n      iszero\n      tag_204\n      jumpi\n        /* \"contracts/distribution/TombRewardPool.sol\":11560:11581  PoolInfo storage pool */\n      0x00\n        /* \"contracts/distribution/TombRewardPool.sol\":11584:11592  poolInfo */\n      0x02\n        /* \"contracts/distribution/TombRewardPool.sol\":11593:11596  pid */\n      dup3\n        /* \"contracts/distribution/TombRewardPool.sol\":11584:11597  poolInfo[pid] */\n      dup2\n      sload\n      dup2\n      lt\n      tag_206\n      jumpi\n      invalid\n    tag_206:\n      0x00\n      swap2\n      dup3\n      mstore\n      0x20\n      swap1\n      swap2\n      keccak256\n      0x05\n      swap1\n      swap2\n      mul\n      add\n        /* \"contracts/distribution/TombRewardPool.sol\":11634:11644  pool.token */\n      dup1\n      sload\n        /* \"contracts/distribution/TombRewardPool.sol\":11584:11597  poolInfo[pid] */\n      swap1\n      swap2\n      pop\n      sub(shl(0xa0, 0x01), 0x01)\n        /* \"contracts/distribution/TombRewardPool.sol\":11624:11644  _token != pool.token */\n      dup8\n      dup2\n      and\n        /* \"contracts/distribution/TombRewardPool.sol\":11634:11644  pool.token */\n      swap2\n      and\n        /* \"contracts/distribution/TombRewardPool.sol\":11624:11644  _token != pool.token */\n      eq\n      iszero\n        /* \"contracts/distribution/TombRewardPool.sol\":11616:11660  require(_token != pool.token, \"!pool.token\") */\n      tag_208\n      jumpi\n      0x40\n      dup1\n      mload\n      shl(0xe5, 0x461bcd)\n      dup2\n      mstore\n      0x20\n      0x04\n      dup3\n      add\n      mstore\n      0x0b\n      0x24\n      dup3\n      add\n      mstore\n      shl(0xa9, 0x10b837b7b6173a37b5b2b7)\n      0x44\n      dup3\n      add\n      mstore\n      swap1\n      mload\n      swap1\n      dup2\n      swap1\n      sub\n      0x64\n      add\n      swap1\n      revert\n    tag_208:\n      pop\n        /* \"contracts/distribution/TombRewardPool.sol\":11534:11539  ++pid */\n      0x01\n      add\n        /* \"contracts/distribution/TombRewardPool.sol\":11498:11676  for (uint256 pid = 0; pid < length; ++pid) {\r... */\n      jump(tag_203)\n    tag_204:\n      pop\n        /* \"contracts/distribution/TombRewardPool.sol\":11260:11687  if (block.timestamp < epochEndTimes[1] + 30 days) {\r... */\n      pop\n    tag_201:\n        /* \"contracts/distribution/TombRewardPool.sol\":11697:11728  _token.safeTransfer(to, amount) */\n      tag_209\n      sub(shl(0xa0, 0x01), 0x01)\n        /* \"contracts/distribution/TombRewardPool.sol\":11697:11716  _token.safeTransfer */\n      dup5\n      and\n        /* \"contracts/distribution/TombRewardPool.sol\":11717:11719  to */\n      dup3\n        /* \"contracts/distribution/TombRewardPool.sol\":11721:11727  amount */\n      dup5\n        /* \"contracts/distribution/TombRewardPool.sol\":11697:11716  _token.safeTransfer */\n      tag_171\n        /* \"contracts/distribution/TombRewardPool.sol\":11697:11728  _token.safeTransfer(to, amount) */\n      jump\t// in\n    tag_209:\n        /* \"contracts/distribution/TombRewardPool.sol\":11112:11736  function governanceRecoverUnsupported(\r... */\n      pop\n      pop\n      pop\n      jump\t// out\n        /* \"contracts/distribution/TombRewardPool.sol\":549:572  address public operator */\n    tag_50:\n      and(sub(shl(0xa0, 0x01), 0x01), sload(0x00))\n      dup2\n      jump\t// out\n        /* \"contracts/distribution/TombRewardPool.sol\":1618:1646  uint256 public poolStartTime */\n    tag_52:\n      sload(0x05)\n      dup2\n      jump\t// out\n        /* \"contracts/distribution/TombRewardPool.sol\":7213:7393  function massUpdatePools() public {\r... */\n    tag_54:\n        /* \"contracts/distribution/TombRewardPool.sol\":7275:7283  poolInfo */\n      0x02\n        /* \"contracts/distribution/TombRewardPool.sol\":7275:7290  poolInfo.length */\n      sload\n        /* \"contracts/distribution/TombRewardPool.sol\":7258:7272  uint256 length */\n      0x00\n        /* \"contracts/distribution/TombRewardPool.sol\":7301:7386  for (uint256 pid = 0; pid < length; ++pid) {\r... */\n    tag_211:\n        /* \"contracts/distribution/TombRewardPool.sol\":7329:7335  length */\n      dup2\n        /* \"contracts/distribution/TombRewardPool.sol\":7323:7326  pid */\n      dup2\n        /* \"contracts/distribution/TombRewardPool.sol\":7323:7335  pid < length */\n      lt\n        /* \"contracts/distribution/TombRewardPool.sol\":7301:7386  for (uint256 pid = 0; pid < length; ++pid) {\r... */\n      iszero\n      tag_212\n      jumpi\n        /* \"contracts/distribution/TombRewardPool.sol\":7359:7374  updatePool(pid) */\n      tag_214\n        /* \"contracts/distribution/TombRewardPool.sol\":7370:7373  pid */\n      dup2\n        /* \"contracts/distribution/TombRewardPool.sol\":7359:7369  updatePool */\n      tag_42\n        /* \"contracts/distribution/TombRewardPool.sol\":7359:7374  updatePool(pid) */\n      jump\t// in\n    tag_214:\n        /* \"contracts/distribution/TombRewardPool.sol\":7337:7342  ++pid */\n      0x01\n      add\n        /* \"contracts/distribution/TombRewardPool.sol\":7301:7386  for (uint256 pid = 0; pid < length; ++pid) {\r... */\n      jump(tag_211)\n    tag_212:\n      pop\n        /* \"contracts/distribution/TombRewardPool.sol\":7213:7393  function massUpdatePools() public {\r... */\n      pop\n      jump\t// out\n        /* \"contracts/distribution/TombRewardPool.sol\":1889:1925  uint256[3] public epochTombPerSecond */\n    tag_57:\n      0x0a\n      dup2\n      0x03\n      dup2\n      lt\n      tag_215\n      jumpi\n      invalid\n    tag_215:\n      add\n      sload\n      swap1\n      pop\n      dup2\n      jump\t// out\n        /* \"contracts/distribution/TombRewardPool.sol\":6359:7130  function pendingTOMB(uint256 _pid, address _user) external view returns (uint256) {\r... */\n    tag_60:\n        /* \"contracts/distribution/TombRewardPool.sol\":6432:6439  uint256 */\n      0x00\n        /* \"contracts/distribution/TombRewardPool.sol\":6452:6473  PoolInfo storage pool */\n      dup1\n        /* \"contracts/distribution/TombRewardPool.sol\":6476:6484  poolInfo */\n      0x02\n        /* \"contracts/distribution/TombRewardPool.sol\":6485:6489  _pid */\n      dup5\n        /* \"contracts/distribution/TombRewardPool.sol\":6476:6490  poolInfo[_pid] */\n      dup2\n      sload\n      dup2\n      lt\n      tag_218\n      jumpi\n      invalid\n    tag_218:\n      0x00\n      swap2\n      dup3\n      mstore\n      0x20\n      dup1\n      dup4\n      keccak256\n        /* \"contracts/distribution/TombRewardPool.sol\":6525:6539  userInfo[_pid] */\n      dup8\n      dup5\n      mstore\n        /* \"contracts/distribution/TombRewardPool.sol\":6525:6533  userInfo */\n      0x03\n        /* \"contracts/distribution/TombRewardPool.sol\":6525:6539  userInfo[_pid] */\n      dup1\n      dup4\n      mstore\n      0x40\n      dup1\n      dup7\n      keccak256\n      sub(shl(0xa0, 0x01), 0x01)\n        /* \"contracts/distribution/TombRewardPool.sol\":6525:6546  userInfo[_pid][_user] */\n      dup1\n      dup12\n      and\n      dup9\n      mstore\n      swap1\n      dup6\n      mstore\n      dup2\n      dup8\n      keccak256\n        /* \"contracts/distribution/TombRewardPool.sol\":6476:6490  poolInfo[_pid] */\n      0x05\n      swap1\n      swap7\n      mul\n      swap1\n      swap4\n      add\n        /* \"contracts/distribution/TombRewardPool.sol\":6583:6603  pool.accTombPerShare */\n      swap2\n      dup3\n      add\n      sload\n        /* \"contracts/distribution/TombRewardPool.sol\":6636:6646  pool.token */\n      dup3\n      sload\n        /* \"contracts/distribution/TombRewardPool.sol\":6636:6671  pool.token.balanceOf(address(this)) */\n      dup3\n      mload\n      shl(0xe0, 0x70a08231)\n      dup2\n      mstore\n        /* \"contracts/distribution/TombRewardPool.sol\":6665:6669  this */\n      address\n        /* \"contracts/distribution/TombRewardPool.sol\":6636:6671  pool.token.balanceOf(address(this)) */\n      0x04\n      dup3\n      add\n      mstore\n      swap3\n      mload\n        /* \"contracts/distribution/TombRewardPool.sol\":6476:6490  poolInfo[_pid] */\n      swap4\n      swap9\n      pop\n        /* \"contracts/distribution/TombRewardPool.sol\":6525:6546  userInfo[_pid][_user] */\n      swap6\n      swap7\n        /* \"contracts/distribution/TombRewardPool.sol\":6583:6603  pool.accTombPerShare */\n      swap1\n      swap6\n        /* \"contracts/distribution/TombRewardPool.sol\":6476:6490  poolInfo[_pid] */\n      swap1\n      swap5\n        /* \"contracts/distribution/TombRewardPool.sol\":6636:6646  pool.token */\n      swap4\n      and\n      swap3\n        /* \"contracts/distribution/TombRewardPool.sol\":6636:6656  pool.token.balanceOf */\n      0x70a08231\n      swap3\n        /* \"contracts/distribution/TombRewardPool.sol\":6636:6671  pool.token.balanceOf(address(this)) */\n      0x24\n      dup1\n      dup5\n      add\n      swap4\n      dup3\n      swap1\n      sub\n      add\n      dup2\n        /* \"contracts/distribution/TombRewardPool.sol\":6636:6646  pool.token */\n      dup7\n        /* \"contracts/distribution/TombRewardPool.sol\":6636:6671  pool.token.balanceOf(address(this)) */\n      dup1\n      extcodesize\n      iszero\n      dup1\n      iszero\n      tag_220\n      jumpi\n      0x00\n      dup1\n      revert\n    tag_220:\n      pop\n      gas\n      staticcall\n      iszero\n      dup1\n      iszero\n      tag_222\n      jumpi\n      returndatasize\n      0x00\n      dup1\n      returndatacopy\n      revert(0x00, returndatasize)\n    tag_222:\n      pop\n      pop\n      pop\n      pop\n      mload(0x40)\n      returndatasize\n      0x20\n      dup2\n      lt\n      iszero\n      tag_223\n      jumpi\n      0x00\n      dup1\n      revert\n    tag_223:\n      pop\n      mload\n        /* \"contracts/distribution/TombRewardPool.sol\":6704:6723  pool.lastRewardTime */\n      0x02\n      dup6\n      add\n      sload\n        /* \"contracts/distribution/TombRewardPool.sol\":6636:6671  pool.token.balanceOf(address(this)) */\n      swap1\n      swap2\n      pop\n        /* \"contracts/distribution/TombRewardPool.sol\":6686:6701  block.timestamp */\n      timestamp\n        /* \"contracts/distribution/TombRewardPool.sol\":6686:6723  block.timestamp > pool.lastRewardTime */\n      gt\n        /* \"contracts/distribution/TombRewardPool.sol\":6686:6743  block.timestamp > pool.lastRewardTime && tokenSupply != 0 */\n      dup1\n      iszero\n      tag_224\n      jumpi\n      pop\n        /* \"contracts/distribution/TombRewardPool.sol\":6727:6743  tokenSupply != 0 */\n      dup1\n      iszero\n      iszero\n        /* \"contracts/distribution/TombRewardPool.sol\":6686:6743  block.timestamp > pool.lastRewardTime && tokenSupply != 0 */\n    tag_224:\n        /* \"contracts/distribution/TombRewardPool.sol\":6682:7042  if (block.timestamp > pool.lastRewardTime && tokenSupply != 0) {\r... */\n      iszero\n      tag_225\n      jumpi\n        /* \"contracts/distribution/TombRewardPool.sol\":6760:6784  uint256 _generatedReward */\n      0x00\n        /* \"contracts/distribution/TombRewardPool.sol\":6787:6843  getGeneratedReward(pool.lastRewardTime, block.timestamp) */\n      tag_226\n        /* \"contracts/distribution/TombRewardPool.sol\":6806:6810  pool */\n      dup6\n        /* \"contracts/distribution/TombRewardPool.sol\":6806:6825  pool.lastRewardTime */\n      0x02\n      add\n      sload\n        /* \"contracts/distribution/TombRewardPool.sol\":6827:6842  block.timestamp */\n      timestamp\n        /* \"contracts/distribution/TombRewardPool.sol\":6787:6805  getGeneratedReward */\n      tag_36\n        /* \"contracts/distribution/TombRewardPool.sol\":6787:6843  getGeneratedReward(pool.lastRewardTime, block.timestamp) */\n      jump\t// in\n    tag_226:\n        /* \"contracts/distribution/TombRewardPool.sol\":6760:6843  uint256 _generatedReward = getGeneratedReward(pool.lastRewardTime, block.timestamp) */\n      swap1\n      pop\n        /* \"contracts/distribution/TombRewardPool.sol\":6858:6877  uint256 _tombReward */\n      0x00\n        /* \"contracts/distribution/TombRewardPool.sol\":6880:6938  _generatedReward.mul(pool.allocPoint).div(totalAllocPoint) */\n      tag_227\n        /* \"contracts/distribution/TombRewardPool.sol\":6922:6937  totalAllocPoint */\n      sload(0x04)\n        /* \"contracts/distribution/TombRewardPool.sol\":6880:6917  _generatedReward.mul(pool.allocPoint) */\n      tag_164\n        /* \"contracts/distribution/TombRewardPool.sol\":6901:6905  pool */\n      dup9\n        /* \"contracts/distribution/TombRewardPool.sol\":6901:6916  pool.allocPoint */\n      0x01\n      add\n      sload\n        /* \"contracts/distribution/TombRewardPool.sol\":6880:6896  _generatedReward */\n      dup6\n        /* \"contracts/distribution/TombRewardPool.sol\":6880:6900  _generatedReward.mul */\n      tag_109\n      swap1\n        /* \"contracts/distribution/TombRewardPool.sol\":6880:6917  _generatedReward.mul(pool.allocPoint) */\n      swap2\n      swap1\n      0xffffffff\n      and\n      jump\t// in\n        /* \"contracts/distribution/TombRewardPool.sol\":6880:6938  _generatedReward.mul(pool.allocPoint).div(totalAllocPoint) */\n    tag_227:\n        /* \"contracts/distribution/TombRewardPool.sol\":6858:6938  uint256 _tombReward = _generatedReward.mul(pool.allocPoint).div(totalAllocPoint) */\n      swap1\n      pop\n        /* \"contracts/distribution/TombRewardPool.sol\":6971:7030  accTombPerShare.add(_tombReward.mul(1e18).div(tokenSupply)) */\n      tag_229\n        /* \"contracts/distribution/TombRewardPool.sol\":6991:7029  _tombReward.mul(1e18).div(tokenSupply) */\n      tag_230\n        /* \"contracts/distribution/TombRewardPool.sol\":7017:7028  tokenSupply */\n      dup5\n        /* \"contracts/distribution/TombRewardPool.sol\":6991:7012  _tombReward.mul(1e18) */\n      tag_164\n        /* \"contracts/distribution/TombRewardPool.sol\":6858:6938  uint256 _tombReward = _generatedReward.mul(pool.allocPoint).div(totalAllocPoint) */\n      dup5\n        /* \"contracts/distribution/TombRewardPool.sol\":7007:7011  1e18 */\n      0x0de0b6b3a7640000\n        /* \"contracts/distribution/TombRewardPool.sol\":6991:7006  _tombReward.mul */\n      tag_109\n        /* \"contracts/distribution/TombRewardPool.sol\":6991:7012  _tombReward.mul(1e18) */\n      jump\t// in\n        /* \"contracts/distribution/TombRewardPool.sol\":6991:7029  _tombReward.mul(1e18).div(tokenSupply) */\n    tag_230:\n        /* \"contracts/distribution/TombRewardPool.sol\":6971:6986  accTombPerShare */\n      dup6\n      swap1\n        /* \"contracts/distribution/TombRewardPool.sol\":6971:6990  accTombPerShare.add */\n      tag_94\n        /* \"contracts/distribution/TombRewardPool.sol\":6971:7030  accTombPerShare.add(_tombReward.mul(1e18).div(tokenSupply)) */\n      jump\t// in\n    tag_229:\n        /* \"contracts/distribution/TombRewardPool.sol\":6953:7030  accTombPerShare = accTombPerShare.add(_tombReward.mul(1e18).div(tokenSupply)) */\n      swap4\n      pop\n        /* \"contracts/distribution/TombRewardPool.sol\":6682:7042  if (block.timestamp > pool.lastRewardTime && tokenSupply != 0) {\r... */\n      pop\n      pop\n    tag_225:\n        /* \"contracts/distribution/TombRewardPool.sol\":7059:7122  user.amount.mul(accTombPerShare).div(1e18).sub(user.rewardDebt) */\n      tag_232\n        /* \"contracts/distribution/TombRewardPool.sol\":7106:7110  user */\n      dup4\n        /* \"contracts/distribution/TombRewardPool.sol\":7106:7121  user.rewardDebt */\n      0x01\n      add\n      sload\n        /* \"contracts/distribution/TombRewardPool.sol\":7059:7101  user.amount.mul(accTombPerShare).div(1e18) */\n      tag_163\n        /* \"contracts/distribution/TombRewardPool.sol\":7096:7100  1e18 */\n      0x0de0b6b3a7640000\n        /* \"contracts/distribution/TombRewardPool.sol\":7059:7091  user.amount.mul(accTombPerShare) */\n      tag_164\n        /* \"contracts/distribution/TombRewardPool.sol\":7075:7090  accTombPerShare */\n      dup7\n        /* \"contracts/distribution/TombRewardPool.sol\":7059:7063  user */\n      dup9\n        /* \"contracts/distribution/TombRewardPool.sol\":7059:7070  user.amount */\n      0x00\n      add\n      sload\n        /* \"contracts/distribution/TombRewardPool.sol\":7059:7074  user.amount.mul */\n      tag_109\n      swap1\n        /* \"contracts/distribution/TombRewardPool.sol\":7059:7091  user.amount.mul(accTombPerShare) */\n      swap2\n      swap1\n      0xffffffff\n      and\n      jump\t// in\n        /* \"contracts/distribution/TombRewardPool.sol\":7059:7122  user.amount.mul(accTombPerShare).div(1e18).sub(user.rewardDebt) */\n    tag_232:\n        /* \"contracts/distribution/TombRewardPool.sol\":7052:7122  return user.amount.mul(accTombPerShare).div(1e18).sub(user.rewardDebt) */\n      swap8\n        /* \"contracts/distribution/TombRewardPool.sol\":6359:7130  function pendingTOMB(uint256 _pid, address _user) external view returns (uint256) {\r... */\n      swap7\n      pop\n      pop\n      pop\n      pop\n      pop\n      pop\n      pop\n      jump\t// out\n        /* \"contracts/distribution/TombRewardPool.sol\":1372:1436  mapping(uint256 => mapping(address => UserInfo)) public userInfo */\n    tag_63:\n      0x03\n      0x20\n      swap1\n      dup2\n      mstore\n      0x00\n      swap3\n      dup4\n      mstore\n      0x40\n      dup1\n      dup5\n      keccak256\n      swap1\n      swap2\n      mstore\n      swap1\n      dup3\n      mstore\n      swap1\n      keccak256\n      dup1\n      sload\n      0x01\n      swap1\n      swap2\n      add\n      sload\n      dup3\n      jump\t// out\n        /* \"contracts/distribution/TombRewardPool.sol\":3294:4467  function add(\r... */\n    tag_66:\n        /* \"contracts/distribution/TombRewardPool.sol\":2859:2867  operator */\n      and(sub(shl(0xa0, 0x01), 0x01), sload(0x00))\n        /* \"contracts/distribution/TombRewardPool.sol\":2871:2881  msg.sender */\n      caller\n        /* \"contracts/distribution/TombRewardPool.sol\":2859:2881  operator == msg.sender */\n      eq\n        /* \"contracts/distribution/TombRewardPool.sol\":2851:2928  require(operator == msg.sender, \"TombRewardPool: caller is not the operator\") */\n      tag_236\n      jumpi\n      mload(0x40)\n      shl(0xe5, 0x461bcd)\n      dup2\n      mstore\n      0x04\n      add\n      dup1\n      dup1\n      0x20\n      add\n      dup3\n      dup2\n      sub\n      dup3\n      mstore\n      0x2a\n      dup2\n      mstore\n      0x20\n      add\n      dup1\n      data_23c2b75188d7d13d903b5cb4ec62ae0213436b5445c9258e5023f1d0545361cd\n      0x2a\n      swap2\n      codecopy\n      0x40\n      add\n      swap2\n      pop\n      pop\n      mload(0x40)\n      dup1\n      swap2\n      sub\n      swap1\n      revert\n    tag_236:\n        /* \"contracts/distribution/TombRewardPool.sol\":3460:3486  checkPoolDuplicate(_token) */\n      tag_238\n        /* \"contracts/distribution/TombRewardPool.sol\":3479:3485  _token */\n      dup4\n        /* \"contracts/distribution/TombRewardPool.sol\":3460:3478  checkPoolDuplicate */\n      tag_239\n        /* \"contracts/distribution/TombRewardPool.sol\":3460:3486  checkPoolDuplicate(_token) */\n      jump\t// in\n    tag_238:\n        /* \"contracts/distribution/TombRewardPool.sol\":3501:3512  _withUpdate */\n      dup2\n        /* \"contracts/distribution/TombRewardPool.sol\":3497:3558  if (_withUpdate) {\r... */\n      iszero\n      tag_241\n      jumpi\n        /* \"contracts/distribution/TombRewardPool.sol\":3529:3546  massUpdatePools() */\n      tag_241\n        /* \"contracts/distribution/TombRewardPool.sol\":3529:3544  massUpdatePools */\n      tag_54\n        /* \"contracts/distribution/TombRewardPool.sol\":3529:3546  massUpdatePools() */\n      jump\t// in\n    tag_241:\n        /* \"contracts/distribution/TombRewardPool.sol\":3590:3603  poolStartTime */\n      sload(0x05)\n        /* \"contracts/distribution/TombRewardPool.sol\":3572:3587  block.timestamp */\n      timestamp\n        /* \"contracts/distribution/TombRewardPool.sol\":3572:3603  block.timestamp < poolStartTime */\n      lt\n        /* \"contracts/distribution/TombRewardPool.sol\":3568:4102  if (block.timestamp < poolStartTime) {\r... */\n      iszero\n      tag_242\n      jumpi\n        /* \"contracts/distribution/TombRewardPool.sol\":3657:3677  _lastRewardTime == 0 */\n      dup1\n        /* \"contracts/distribution/TombRewardPool.sol\":3653:3896  if (_lastRewardTime == 0) {\r... */\n      tag_243\n      jumpi\n      pop\n        /* \"contracts/distribution/TombRewardPool.sol\":3716:3729  poolStartTime */\n      sload(0x05)\n        /* \"contracts/distribution/TombRewardPool.sol\":3653:3896  if (_lastRewardTime == 0) {\r... */\n      jump(tag_245)\n    tag_243:\n        /* \"contracts/distribution/TombRewardPool.sol\":3792:3805  poolStartTime */\n      sload(0x05)\n        /* \"contracts/distribution/TombRewardPool.sol\":3774:3789  _lastRewardTime */\n      dup2\n        /* \"contracts/distribution/TombRewardPool.sol\":3774:3805  _lastRewardTime < poolStartTime */\n      lt\n        /* \"contracts/distribution/TombRewardPool.sol\":3770:3881  if (_lastRewardTime < poolStartTime) {\r... */\n      iszero\n      tag_245\n      jumpi\n      pop\n        /* \"contracts/distribution/TombRewardPool.sol\":3848:3861  poolStartTime */\n      sload(0x05)\n        /* \"contracts/distribution/TombRewardPool.sol\":3770:3881  if (_lastRewardTime < poolStartTime) {\r... */\n    tag_245:\n        /* \"contracts/distribution/TombRewardPool.sol\":3568:4102  if (block.timestamp < poolStartTime) {\r... */\n      jump(tag_248)\n    tag_242:\n        /* \"contracts/distribution/TombRewardPool.sol\":3964:3984  _lastRewardTime == 0 */\n      dup1\n      iszero\n      dup1\n        /* \"contracts/distribution/TombRewardPool.sol\":3964:4021  _lastRewardTime == 0 || _lastRewardTime < block.timestamp */\n      tag_247\n      jumpi\n      pop\n        /* \"contracts/distribution/TombRewardPool.sol\":4006:4021  block.timestamp */\n      timestamp\n        /* \"contracts/distribution/TombRewardPool.sol\":3988:4003  _lastRewardTime */\n      dup2\n        /* \"contracts/distribution/TombRewardPool.sol\":3988:4021  _lastRewardTime < block.timestamp */\n      lt\n        /* \"contracts/distribution/TombRewardPool.sol\":3964:4021  _lastRewardTime == 0 || _lastRewardTime < block.timestamp */\n    tag_247:\n        /* \"contracts/distribution/TombRewardPool.sol\":3960:4091  if (_lastRewardTime == 0 || _lastRewardTime < block.timestamp) {\r... */\n      iszero\n      tag_248\n      jumpi\n      pop\n        /* \"contracts/distribution/TombRewardPool.sol\":4060:4075  block.timestamp */\n      timestamp\n        /* \"contracts/distribution/TombRewardPool.sol\":3960:4091  if (_lastRewardTime == 0 || _lastRewardTime < block.timestamp) {\r... */\n    tag_248:\n        /* \"contracts/distribution/TombRewardPool.sol\":4112:4127  bool _isStarted */\n      0x00\n        /* \"contracts/distribution/TombRewardPool.sol\":4150:4163  poolStartTime */\n      sload(0x05)\n        /* \"contracts/distribution/TombRewardPool.sol\":4131:4146  _lastRewardTime */\n      dup3\n        /* \"contracts/distribution/TombRewardPool.sol\":4131:4163  _lastRewardTime <= poolStartTime */\n      gt\n      iszero\n        /* \"contracts/distribution/TombRewardPool.sol\":4130:4204  (_lastRewardTime <= poolStartTime) || (_lastRewardTime <= block.timestamp) */\n      dup1\n      tag_249\n      jumpi\n      pop\n        /* \"contracts/distribution/TombRewardPool.sol\":4188:4203  block.timestamp */\n      timestamp\n        /* \"contracts/distribution/TombRewardPool.sol\":4169:4184  _lastRewardTime */\n      dup3\n        /* \"contracts/distribution/TombRewardPool.sol\":4169:4203  _lastRewardTime <= block.timestamp */\n      gt\n      iszero\n        /* \"contracts/distribution/TombRewardPool.sol\":4130:4204  (_lastRewardTime <= poolStartTime) || (_lastRewardTime <= block.timestamp) */\n    tag_249:\n        /* \"contracts/distribution/TombRewardPool.sol\":4229:4355  PoolInfo({token: _token, allocPoint: _allocPoint, lastRewardTime: _lastRewardTime, accTombPerShare: 0, isStarted: _isStarted}) */\n      0x40\n      dup1\n      mload\n      0xa0\n      dup2\n      add\n      dup3\n      mstore\n      sub(shl(0xa0, 0x01), 0x01)\n      dup8\n      dup2\n      and\n      dup3\n      mstore\n      0x20\n      dup3\n      add\n      dup10\n      dup2\n      mstore\n      swap3\n      dup3\n      add\n      dup7\n      dup2\n      mstore\n      0x00\n      0x60\n      dup5\n      add\n      dup2\n      dup2\n      mstore\n      dup7\n      iszero\n      dup1\n      iszero\n      0x80\n      dup8\n      add\n      swap1\n      dup2\n      mstore\n        /* \"contracts/distribution/TombRewardPool.sol\":4215:4223  poolInfo */\n      0x02\n        /* \"contracts/distribution/TombRewardPool.sol\":4215:4356  poolInfo.push(PoolInfo({token: _token, allocPoint: _allocPoint, lastRewardTime: _lastRewardTime, accTombPerShare: 0, isStarted: _isStarted})) */\n      dup1\n      sload\n      0x01\n      dup2\n      add\n      dup3\n      sstore\n      swap5\n      mstore\n      swap6\n      mload\n      0x405787fa12a823e0f2b7631cc41b3ba8828b3321ca811111fa75cd3aa3bb5ace\n      0x05\n      swap1\n      swap5\n      mul\n      swap4\n      dup5\n      add\n      dup1\n      sload\n      not(sub(shl(0xa0, 0x01), 0x01))\n      and\n      swap2\n      swap1\n      swap7\n      and\n      or\n      swap1\n      swap5\n      sstore\n      swap5\n      mload\n      0x405787fa12a823e0f2b7631cc41b3ba8828b3321ca811111fa75cd3aa3bb5acf\n      dup3\n      add\n      sstore\n      swap1\n      mload\n      0x405787fa12a823e0f2b7631cc41b3ba8828b3321ca811111fa75cd3aa3bb5ad0\n      dup3\n      add\n      sstore\n      swap3\n      mload\n      0x405787fa12a823e0f2b7631cc41b3ba8828b3321ca811111fa75cd3aa3bb5ad1\n      dup5\n      add\n      sstore\n      swap1\n      mload\n      0x405787fa12a823e0f2b7631cc41b3ba8828b3321ca811111fa75cd3aa3bb5ad2\n      swap1\n      swap3\n      add\n      dup1\n      sload\n      not(0xff)\n      and\n      swap3\n      iszero\n      iszero\n      swap3\n      swap1\n      swap3\n      or\n      swap1\n      swap2\n      sstore\n        /* \"contracts/distribution/TombRewardPool.sol\":4229:4355  PoolInfo({token: _token, allocPoint: _allocPoint, lastRewardTime: _lastRewardTime, accTombPerShare: 0, isStarted: _isStarted}) */\n      swap1\n      swap2\n      pop\n        /* \"contracts/distribution/TombRewardPool.sol\":4367:4460  if (_isStarted) {\r... */\n      tag_251\n      jumpi\n        /* \"contracts/distribution/TombRewardPool.sol\":4416:4431  totalAllocPoint */\n      sload(0x04)\n        /* \"contracts/distribution/TombRewardPool.sol\":4416:4448  totalAllocPoint.add(_allocPoint) */\n      tag_252\n      swap1\n        /* \"contracts/distribution/TombRewardPool.sol\":4436:4447  _allocPoint */\n      dup7\n        /* \"contracts/distribution/TombRewardPool.sol\":4416:4435  totalAllocPoint.add */\n      tag_94\n        /* \"contracts/distribution/TombRewardPool.sol\":4416:4448  totalAllocPoint.add(_allocPoint) */\n      jump\t// in\n    tag_252:\n        /* \"contracts/distribution/TombRewardPool.sol\":4398:4413  totalAllocPoint */\n      0x04\n        /* \"contracts/distribution/TombRewardPool.sol\":4398:4448  totalAllocPoint = totalAllocPoint.add(_allocPoint) */\n      sstore\n        /* \"contracts/distribution/TombRewardPool.sol\":4367:4460  if (_isStarted) {\r... */\n    tag_251:\n        /* \"contracts/distribution/TombRewardPool.sol\":2939:2940  _ */\n      pop\n        /* \"contracts/distribution/TombRewardPool.sol\":3294:4467  function add(\r... */\n      pop\n      pop\n      pop\n      pop\n      jump\t// out\n        /* \"contracts/distribution/TombRewardPool.sol\":1655:1718  uint256[] public epochTotalRewards = [80000 ether, 60000 ether] */\n    tag_69:\n      0x06\n      dup2\n      dup2\n      sload\n      dup2\n      lt\n      tag_253\n      jumpi\n      invalid\n    tag_253:\n      0x00\n      swap2\n      dup3\n      mstore\n      0x20\n      swap1\n      swap2\n      keccak256\n      add\n      sload\n      swap1\n      pop\n      dup2\n      jump\t// out\n        /* \"contracts/distribution/TombRewardPool.sol\":11003:11104  function setOperator(address _operator) external onlyOperator {\r... */\n    tag_72:\n        /* \"contracts/distribution/TombRewardPool.sol\":2859:2867  operator */\n      and(sub(shl(0xa0, 0x01), 0x01), sload(0x00))\n        /* \"contracts/distribution/TombRewardPool.sol\":2871:2881  msg.sender */\n      caller\n        /* \"contracts/distribution/TombRewardPool.sol\":2859:2881  operator == msg.sender */\n      eq\n        /* \"contracts/distribution/TombRewardPool.sol\":2851:2928  require(operator == msg.sender, \"TombRewardPool: caller is not the operator\") */\n      tag_256\n      jumpi\n      mload(0x40)\n      shl(0xe5, 0x461bcd)\n      dup2\n      mstore\n      0x04\n      add\n      dup1\n      dup1\n      0x20\n      add\n      dup3\n      dup2\n      sub\n      dup3\n      mstore\n      0x2a\n      dup2\n      mstore\n      0x20\n      add\n      dup1\n      data_23c2b75188d7d13d903b5cb4ec62ae0213436b5445c9258e5023f1d0545361cd\n      0x2a\n      swap2\n      codecopy\n      0x40\n      add\n      swap2\n      pop\n      pop\n      mload(0x40)\n      dup1\n      swap2\n      sub\n      swap1\n      revert\n    tag_256:\n        /* \"contracts/distribution/TombRewardPool.sol\":11076:11084  operator */\n      0x00\n        /* \"contracts/distribution/TombRewardPool.sol\":11076:11096  operator = _operator */\n      dup1\n      sload\n      not(sub(shl(0xa0, 0x01), 0x01))\n      and\n      sub(shl(0xa0, 0x01), 0x01)\n      swap3\n      swap1\n      swap3\n      and\n      swap2\n      swap1\n      swap2\n      or\n      swap1\n      sstore\n        /* \"contracts/distribution/TombRewardPool.sol\":11003:11104  function setOperator(address _operator) external onlyOperator {\r... */\n      jump\t// out\n        /* \"contracts/distribution/TombRewardPool.sol\":1762:1793  uint256[3] public epochEndTimes */\n    tag_75:\n      0x07\n      dup2\n      0x03\n      dup2\n      lt\n      tag_215\n      jumpi\n      invalid\n        /* \"contracts/distribution/TombRewardPool.sol\":1234:1252  IERC20 public tomb */\n    tag_77:\n      and(sub(shl(0xa0, 0x01), 0x01), sload(0x01))\n      dup2\n      jump\t// out\n        /* \"contracts/distribution/TombRewardPool.sol\":8412:9238  function deposit(uint256 _pid, uint256 _amount) public {\r... */\n    tag_80:\n        /* \"contracts/distribution/TombRewardPool.sol\":8478:8493  address _sender */\n      0x00\n        /* \"contracts/distribution/TombRewardPool.sol\":8496:8506  msg.sender */\n      caller\n        /* \"contracts/distribution/TombRewardPool.sol\":8478:8506  address _sender = msg.sender */\n      swap1\n      pop\n        /* \"contracts/distribution/TombRewardPool.sol\":8517:8538  PoolInfo storage pool */\n      0x00\n        /* \"contracts/distribution/TombRewardPool.sol\":8541:8549  poolInfo */\n      0x02\n        /* \"contracts/distribution/TombRewardPool.sol\":8550:8554  _pid */\n      dup5\n        /* \"contracts/distribution/TombRewardPool.sol\":8541:8555  poolInfo[_pid] */\n      dup2\n      sload\n      dup2\n      lt\n      tag_261\n      jumpi\n      invalid\n    tag_261:\n      0x00\n      swap2\n      dup3\n      mstore\n      0x20\n      dup1\n      dup4\n      keccak256\n        /* \"contracts/distribution/TombRewardPool.sol\":8590:8604  userInfo[_pid] */\n      dup8\n      dup5\n      mstore\n        /* \"contracts/distribution/TombRewardPool.sol\":8590:8598  userInfo */\n      0x03\n        /* \"contracts/distribution/TombRewardPool.sol\":8590:8604  userInfo[_pid] */\n      dup3\n      mstore\n      0x40\n      dup1\n      dup6\n      keccak256\n      sub(shl(0xa0, 0x01), 0x01)\n        /* \"contracts/distribution/TombRewardPool.sol\":8590:8613  userInfo[_pid][_sender] */\n      dup9\n      and\n      dup7\n      mstore\n      swap1\n      swap3\n      mstore\n      swap3\n      keccak256\n        /* \"contracts/distribution/TombRewardPool.sol\":8541:8555  poolInfo[_pid] */\n      0x05\n      swap1\n      swap2\n      mul\n      swap1\n      swap2\n      add\n      swap2\n      pop\n        /* \"contracts/distribution/TombRewardPool.sol\":8624:8640  updatePool(_pid) */\n      tag_263\n        /* \"contracts/distribution/TombRewardPool.sol\":8599:8603  _pid */\n      dup6\n        /* \"contracts/distribution/TombRewardPool.sol\":8624:8634  updatePool */\n      tag_42\n        /* \"contracts/distribution/TombRewardPool.sol\":8624:8640  updatePool(_pid) */\n      jump\t// in\n    tag_263:\n        /* \"contracts/distribution/TombRewardPool.sol\":8655:8666  user.amount */\n      dup1\n      sload\n        /* \"contracts/distribution/TombRewardPool.sol\":8655:8670  user.amount > 0 */\n      iszero\n        /* \"contracts/distribution/TombRewardPool.sol\":8651:8941  if (user.amount > 0) {\r... */\n      tag_264\n      jumpi\n        /* \"contracts/distribution/TombRewardPool.sol\":8687:8703  uint256 _pending */\n      0x00\n        /* \"contracts/distribution/TombRewardPool.sol\":8706:8774  user.amount.mul(pool.accTombPerShare).div(1e18).sub(user.rewardDebt) */\n      tag_265\n        /* \"contracts/distribution/TombRewardPool.sol\":8758:8762  user */\n      dup3\n        /* \"contracts/distribution/TombRewardPool.sol\":8758:8773  user.rewardDebt */\n      0x01\n      add\n      sload\n        /* \"contracts/distribution/TombRewardPool.sol\":8706:8753  user.amount.mul(pool.accTombPerShare).div(1e18) */\n      tag_163\n        /* \"contracts/distribution/TombRewardPool.sol\":8748:8752  1e18 */\n      0x0de0b6b3a7640000\n        /* \"contracts/distribution/TombRewardPool.sol\":8706:8743  user.amount.mul(pool.accTombPerShare) */\n      tag_164\n        /* \"contracts/distribution/TombRewardPool.sol\":8722:8726  pool */\n      dup8\n        /* \"contracts/distribution/TombRewardPool.sol\":8722:8742  pool.accTombPerShare */\n      0x03\n      add\n      sload\n        /* \"contracts/distribution/TombRewardPool.sol\":8706:8710  user */\n      dup8\n        /* \"contracts/distribution/TombRewardPool.sol\":8706:8717  user.amount */\n      0x00\n      add\n      sload\n        /* \"contracts/distribution/TombRewardPool.sol\":8706:8721  user.amount.mul */\n      tag_109\n      swap1\n        /* \"contracts/distribution/TombRewardPool.sol\":8706:8743  user.amount.mul(pool.accTombPerShare) */\n      swap2\n      swap1\n      0xffffffff\n      and\n      jump\t// in\n        /* \"contracts/distribution/TombRewardPool.sol\":8706:8774  user.amount.mul(pool.accTombPerShare).div(1e18).sub(user.rewardDebt) */\n    tag_265:\n        /* \"contracts/distribution/TombRewardPool.sol\":8687:8774  uint256 _pending = user.amount.mul(pool.accTombPerShare).div(1e18).sub(user.rewardDebt) */\n      swap1\n      pop\n        /* \"contracts/distribution/TombRewardPool.sol\":8793:8805  _pending > 0 */\n      dup1\n      iszero\n        /* \"contracts/distribution/TombRewardPool.sol\":8789:8930  if (_pending > 0) {\r... */\n      tag_268\n      jumpi\n        /* \"contracts/distribution/TombRewardPool.sol\":8826:8861  safeTombTransfer(_sender, _pending) */\n      tag_269\n        /* \"contracts/distribution/TombRewardPool.sol\":8843:8850  _sender */\n      dup5\n        /* \"contracts/distribution/TombRewardPool.sol\":8852:8860  _pending */\n      dup3\n        /* \"contracts/distribution/TombRewardPool.sol\":8826:8842  safeTombTransfer */\n      tag_167\n        /* \"contracts/distribution/TombRewardPool.sol\":8826:8861  safeTombTransfer(_sender, _pending) */\n      jump\t// in\n    tag_269:\n        /* \"contracts/distribution/TombRewardPool.sol\":8885:8914  RewardPaid(_sender, _pending) */\n      0x40\n      dup1\n      mload\n      dup3\n      dup2\n      mstore\n      swap1\n      mload\n      sub(shl(0xa0, 0x01), 0x01)\n      dup7\n      and\n      swap2\n      0xe2403640ba68fed3a2f88b7557551d1993f84b99bb10ff833f0cf8db0c5e0486\n      swap2\n      swap1\n      dup2\n      swap1\n      sub\n      0x20\n      add\n      swap1\n      log2\n        /* \"contracts/distribution/TombRewardPool.sol\":8789:8930  if (_pending > 0) {\r... */\n    tag_268:\n        /* \"contracts/distribution/TombRewardPool.sol\":8651:8941  if (user.amount > 0) {\r... */\n      pop\n    tag_264:\n        /* \"contracts/distribution/TombRewardPool.sol\":8955:8966  _amount > 0 */\n      dup4\n      iszero\n        /* \"contracts/distribution/TombRewardPool.sol\":8951:9108  if (_amount > 0) {\r... */\n      tag_270\n      jumpi\n        /* \"contracts/distribution/TombRewardPool.sol\":8983:8993  pool.token */\n      dup2\n      sload\n        /* \"contracts/distribution/TombRewardPool.sol\":8983:9043  pool.token.safeTransferFrom(_sender, address(this), _amount) */\n      tag_271\n      swap1\n      sub(shl(0xa0, 0x01), 0x01)\n        /* \"contracts/distribution/TombRewardPool.sol\":8983:8993  pool.token */\n      and\n        /* \"contracts/distribution/TombRewardPool.sol\":9011:9018  _sender */\n      dup5\n        /* \"contracts/distribution/TombRewardPool.sol\":9028:9032  this */\n      address\n        /* \"contracts/distribution/TombRewardPool.sol\":9035:9042  _amount */\n      dup8\n        /* \"contracts/distribution/TombRewardPool.sol\":8983:9010  pool.token.safeTransferFrom */\n      tag_272\n        /* \"contracts/distribution/TombRewardPool.sol\":8983:9043  pool.token.safeTransferFrom(_sender, address(this), _amount) */\n      jump\t// in\n    tag_271:\n        /* \"contracts/distribution/TombRewardPool.sol\":9072:9083  user.amount */\n      dup1\n      sload\n        /* \"contracts/distribution/TombRewardPool.sol\":9072:9096  user.amount.add(_amount) */\n      tag_273\n      swap1\n        /* \"contracts/distribution/TombRewardPool.sol\":9088:9095  _amount */\n      dup6\n        /* \"contracts/distribution/TombRewardPool.sol\":9072:9087  user.amount.add */\n      tag_94\n        /* \"contracts/distribution/TombRewardPool.sol\":9072:9096  user.amount.add(_amount) */\n      jump\t// in\n    tag_273:\n        /* \"contracts/distribution/TombRewardPool.sol\":9058:9096  user.amount = user.amount.add(_amount) */\n      dup2\n      sstore\n        /* \"contracts/distribution/TombRewardPool.sol\":8951:9108  if (_amount > 0) {\r... */\n    tag_270:\n        /* \"contracts/distribution/TombRewardPool.sol\":9152:9172  pool.accTombPerShare */\n      0x03\n      dup3\n      add\n      sload\n        /* \"contracts/distribution/TombRewardPool.sol\":9136:9147  user.amount */\n      dup2\n      sload\n        /* \"contracts/distribution/TombRewardPool.sol\":9136:9183  user.amount.mul(pool.accTombPerShare).div(1e18) */\n      tag_274\n      swap2\n        /* \"contracts/distribution/TombRewardPool.sol\":9178:9182  1e18 */\n      0x0de0b6b3a7640000\n      swap2\n        /* \"contracts/distribution/TombRewardPool.sol\":9136:9173  user.amount.mul(pool.accTombPerShare) */\n      tag_164\n      swap2\n        /* \"contracts/distribution/TombRewardPool.sol\":9136:9151  user.amount.mul */\n      tag_109\n        /* \"contracts/distribution/TombRewardPool.sol\":9136:9173  user.amount.mul(pool.accTombPerShare) */\n      jump\t// in\n        /* \"contracts/distribution/TombRewardPool.sol\":9136:9183  user.amount.mul(pool.accTombPerShare).div(1e18) */\n    tag_274:\n        /* \"contracts/distribution/TombRewardPool.sol\":9118:9133  user.rewardDebt */\n      0x01\n      dup3\n      add\n        /* \"contracts/distribution/TombRewardPool.sol\":9118:9183  user.rewardDebt = user.amount.mul(pool.accTombPerShare).div(1e18) */\n      sstore\n        /* \"contracts/distribution/TombRewardPool.sol\":9199:9230  Deposit(_sender, _pid, _amount) */\n      0x40\n      dup1\n      mload\n      dup6\n      dup2\n      mstore\n      swap1\n      mload\n        /* \"contracts/distribution/TombRewardPool.sol\":9216:9220  _pid */\n      dup7\n      swap2\n      sub(shl(0xa0, 0x01), 0x01)\n        /* \"contracts/distribution/TombRewardPool.sol\":9199:9230  Deposit(_sender, _pid, _amount) */\n      dup7\n      and\n      swap2\n      0x90890809c654f11d6e72a28fa60149770a0d11ec6c92319d6ceb2bb0a4ea1a15\n      swap2\n      dup2\n      swap1\n      sub\n      0x20\n      add\n      swap1\n      log3\n        /* \"contracts/distribution/TombRewardPool.sol\":8412:9238  function deposit(uint256 _pid, uint256 _amount) public {\r... */\n      pop\n      pop\n      pop\n      pop\n      pop\n      jump\t// out\n        /* \"@openzeppelin/contracts/utils/math/SafeMath.sol\":4217:4367  function div(uint256 a, uint256 b) internal pure returns (uint256) {... */\n    tag_81:\n        /* \"@openzeppelin/contracts/utils/math/SafeMath.sol\":4275:4282  uint256 */\n      0x00\n        /* \"@openzeppelin/contracts/utils/math/SafeMath.sol\":4306:4307  0 */\n      dup1\n        /* \"@openzeppelin/contracts/utils/math/SafeMath.sol\":4302:4303  b */\n      dup3\n        /* \"@openzeppelin/contracts/utils/math/SafeMath.sol\":4302:4307  b > 0 */\n      gt\n        /* \"@openzeppelin/contracts/utils/math/SafeMath.sol\":4294:4338  require(b > 0, \"SafeMath: division by zero\") */\n      tag_277\n      jumpi\n      0x40\n      dup1\n      mload\n      shl(0xe5, 0x461bcd)\n      dup2\n      mstore\n      0x20\n      0x04\n      dup3\n      add\n      mstore\n      0x1a\n      0x24\n      dup3\n      add\n      mstore\n      0x536166654d6174683a206469766973696f6e206279207a65726f000000000000\n      0x44\n      dup3\n      add\n      mstore\n      swap1\n      mload\n      swap1\n      dup2\n      swap1\n      sub\n      0x64\n      add\n      swap1\n      revert\n    tag_277:\n        /* \"@openzeppelin/contracts/utils/math/SafeMath.sol\":4359:4360  b */\n      dup2\n        /* \"@openzeppelin/contracts/utils/math/SafeMath.sol\":4355:4356  a */\n      dup4\n        /* \"@openzeppelin/contracts/utils/math/SafeMath.sol\":4355:4360  a / b */\n      dup2\n      tag_278\n      jumpi\n      invalid\n    tag_278:\n      div\n      swap4\n        /* \"@openzeppelin/contracts/utils/math/SafeMath.sol\":4217:4367  function div(uint256 a, uint256 b) internal pure returns (uint256) {... */\n      swap3\n      pop\n      pop\n      pop\n      jump\t// out\n        /* \"@openzeppelin/contracts/utils/math/SafeMath.sol\":3136:3291  function sub(uint256 a, uint256 b) internal pure returns (uint256) {... */\n    tag_93:\n        /* \"@openzeppelin/contracts/utils/math/SafeMath.sol\":3194:3201  uint256 */\n      0x00\n        /* \"@openzeppelin/contracts/utils/math/SafeMath.sol\":3226:3227  a */\n      dup3\n        /* \"@openzeppelin/contracts/utils/math/SafeMath.sol\":3221:3222  b */\n      dup3\n        /* \"@openzeppelin/contracts/utils/math/SafeMath.sol\":3221:3227  b <= a */\n      gt\n      iszero\n        /* \"@openzeppelin/contracts/utils/math/SafeMath.sol\":3213:3262  require(b <= a, \"SafeMath: subtraction overflow\") */\n      tag_280\n      jumpi\n      0x40\n      dup1\n      mload\n      shl(0xe5, 0x461bcd)\n      dup2\n      mstore\n      0x20\n      0x04\n      dup3\n      add\n      mstore\n      0x1e\n      0x24\n      dup3\n      add\n      mstore\n      0x536166654d6174683a207375627472616374696f6e206f766572666c6f770000\n      0x44\n      dup3\n      add\n      mstore\n      swap1\n      mload\n      swap1\n      dup2\n      swap1\n      sub\n      0x64\n      add\n      swap1\n      revert\n    tag_280:\n      pop\n        /* \"@openzeppelin/contracts/utils/math/SafeMath.sol\":3279:3284  a - b */\n      swap1\n      sub\n      swap1\n        /* \"@openzeppelin/contracts/utils/math/SafeMath.sol\":3136:3291  function sub(uint256 a, uint256 b) internal pure returns (uint256) {... */\n      jump\t// out\n        /* \"@openzeppelin/contracts/utils/math/SafeMath.sol\":2690:2865  function add(uint256 a, uint256 b) internal pure returns (uint256) {... */\n    tag_94:\n        /* \"@openzeppelin/contracts/utils/math/SafeMath.sol\":2748:2755  uint256 */\n      0x00\n        /* \"@openzeppelin/contracts/utils/math/SafeMath.sol\":2779:2784  a + b */\n      dup3\n      dup3\n      add\n        /* \"@openzeppelin/contracts/utils/math/SafeMath.sol\":2802:2808  c >= a */\n      dup4\n      dup2\n      lt\n      iszero\n        /* \"@openzeppelin/contracts/utils/math/SafeMath.sol\":2794:2840  require(c >= a, \"SafeMath: addition overflow\") */\n      tag_153\n      jumpi\n      0x40\n      dup1\n      mload\n      shl(0xe5, 0x461bcd)\n      dup2\n      mstore\n      0x20\n      0x04\n      dup3\n      add\n      mstore\n      0x1b\n      0x24\n      dup3\n      add\n      mstore\n      0x536166654d6174683a206164646974696f6e206f766572666c6f770000000000\n      0x44\n      dup3\n      add\n      mstore\n      swap1\n      mload\n      swap1\n      dup2\n      swap1\n      sub\n      0x64\n      add\n      swap1\n      revert\n        /* \"@openzeppelin/contracts/utils/math/SafeMath.sol\":3538:3753  function mul(uint256 a, uint256 b) internal pure returns (uint256) {... */\n    tag_109:\n        /* \"@openzeppelin/contracts/utils/math/SafeMath.sol\":3596:3603  uint256 */\n      0x00\n        /* \"@openzeppelin/contracts/utils/math/SafeMath.sol\":3619:3625  a == 0 */\n      dup3\n        /* \"@openzeppelin/contracts/utils/math/SafeMath.sol\":3615:3635  if (a == 0) return 0 */\n      tag_284\n      jumpi\n      pop\n        /* \"@openzeppelin/contracts/utils/math/SafeMath.sol\":3634:3635  0 */\n      0x00\n        /* \"@openzeppelin/contracts/utils/math/SafeMath.sol\":3627:3635  return 0 */\n      jump(tag_95)\n        /* \"@openzeppelin/contracts/utils/math/SafeMath.sol\":3615:3635  if (a == 0) return 0 */\n    tag_284:\n        /* \"@openzeppelin/contracts/utils/math/SafeMath.sol\":3657:3662  a * b */\n      dup3\n      dup3\n      mul\n        /* \"@openzeppelin/contracts/utils/math/SafeMath.sol\":3661:3662  b */\n      dup3\n        /* \"@openzeppelin/contracts/utils/math/SafeMath.sol\":3657:3658  a */\n      dup5\n        /* \"@openzeppelin/contracts/utils/math/SafeMath.sol\":3657:3662  a * b */\n      dup3\n        /* \"@openzeppelin/contracts/utils/math/SafeMath.sol\":3657:3658  a */\n      dup2\n        /* \"@openzeppelin/contracts/utils/math/SafeMath.sol\":3680:3685  c / a */\n      tag_285\n      jumpi\n      invalid\n    tag_285:\n      div\n        /* \"@openzeppelin/contracts/utils/math/SafeMath.sol\":3680:3690  c / a == b */\n      eq\n        /* \"@openzeppelin/contracts/utils/math/SafeMath.sol\":3672:3728  require(c / a == b, \"SafeMath: multiplication overflow\") */\n      tag_153\n      jumpi\n      mload(0x40)\n      shl(0xe5, 0x461bcd)\n      dup2\n      mstore\n      0x04\n      add\n      dup1\n      dup1\n      0x20\n      add\n      dup3\n      dup2\n      sub\n      dup3\n      mstore\n      0x21\n      dup2\n      mstore\n      0x20\n      add\n      dup1\n      data_9113bb53c2876a3805b2c9242029423fc540a728243ce887ab24c82cf119fba3\n      0x21\n      swap2\n      codecopy\n      0x40\n      add\n      swap2\n      pop\n      pop\n      mload(0x40)\n      dup1\n      swap2\n      sub\n      swap1\n      revert\n        /* \"contracts/distribution/TombRewardPool.sol\":10646:10995  function safeTombTransfer(address _to, uint256 _amount) internal {\r... */\n    tag_167:\n        /* \"contracts/distribution/TombRewardPool.sol\":10741:10745  tomb */\n      sload(0x01)\n        /* \"contracts/distribution/TombRewardPool.sol\":10741:10770  tomb.balanceOf(address(this)) */\n      0x40\n      dup1\n      mload\n      shl(0xe0, 0x70a08231)\n      dup2\n      mstore\n        /* \"contracts/distribution/TombRewardPool.sol\":10764:10768  this */\n      address\n        /* \"contracts/distribution/TombRewardPool.sol\":10741:10770  tomb.balanceOf(address(this)) */\n      0x04\n      dup3\n      add\n      mstore\n      swap1\n      mload\n        /* \"contracts/distribution/TombRewardPool.sol\":10722:10738  uint256 _tombBal */\n      0x00\n      swap3\n      sub(shl(0xa0, 0x01), 0x01)\n        /* \"contracts/distribution/TombRewardPool.sol\":10741:10745  tomb */\n      and\n      swap2\n        /* \"contracts/distribution/TombRewardPool.sol\":10741:10755  tomb.balanceOf */\n      0x70a08231\n      swap2\n        /* \"contracts/distribution/TombRewardPool.sol\":10741:10770  tomb.balanceOf(address(this)) */\n      0x24\n      dup1\n      dup4\n      add\n      swap3\n      0x20\n      swap3\n      swap2\n      swap1\n      dup3\n      swap1\n      sub\n      add\n      dup2\n        /* \"contracts/distribution/TombRewardPool.sol\":10741:10745  tomb */\n      dup7\n        /* \"contracts/distribution/TombRewardPool.sol\":10741:10770  tomb.balanceOf(address(this)) */\n      dup1\n      extcodesize\n      iszero\n      dup1\n      iszero\n      tag_288\n      jumpi\n      0x00\n      dup1\n      revert\n    tag_288:\n      pop\n      gas\n      staticcall\n      iszero\n      dup1\n      iszero\n      tag_290\n      jumpi\n      returndatasize\n      0x00\n      dup1\n      returndatacopy\n      revert(0x00, returndatasize)\n    tag_290:\n      pop\n      pop\n      pop\n      pop\n      mload(0x40)\n      returndatasize\n      0x20\n      dup2\n      lt\n      iszero\n      tag_291\n      jumpi\n      0x00\n      dup1\n      revert\n    tag_291:\n      pop\n      mload\n      swap1\n      pop\n        /* \"contracts/distribution/TombRewardPool.sol\":10785:10797  _tombBal > 0 */\n      dup1\n      iszero\n        /* \"contracts/distribution/TombRewardPool.sol\":10781:10988  if (_tombBal > 0) {\r... */\n      tag_209\n      jumpi\n        /* \"contracts/distribution/TombRewardPool.sol\":10828:10836  _tombBal */\n      dup1\n        /* \"contracts/distribution/TombRewardPool.sol\":10818:10825  _amount */\n      dup3\n        /* \"contracts/distribution/TombRewardPool.sol\":10818:10836  _amount > _tombBal */\n      gt\n        /* \"contracts/distribution/TombRewardPool.sol\":10814:10977  if (_amount > _tombBal) {\r... */\n      iszero\n      tag_293\n      jumpi\n        /* \"contracts/distribution/TombRewardPool.sol\":10857:10861  tomb */\n      sload(0x01)\n        /* \"contracts/distribution/TombRewardPool.sol\":10857:10889  tomb.safeTransfer(_to, _tombBal) */\n      tag_294\n      swap1\n      sub(shl(0xa0, 0x01), 0x01)\n        /* \"contracts/distribution/TombRewardPool.sol\":10857:10861  tomb */\n      and\n        /* \"contracts/distribution/TombRewardPool.sol\":10875:10878  _to */\n      dup5\n        /* \"contracts/distribution/TombRewardPool.sol\":10880:10888  _tombBal */\n      dup4\n        /* \"contracts/distribution/TombRewardPool.sol\":10857:10874  tomb.safeTransfer */\n      tag_171\n        /* \"contracts/distribution/TombRewardPool.sol\":10857:10889  tomb.safeTransfer(_to, _tombBal) */\n      jump\t// in\n    tag_294:\n        /* \"contracts/distribution/TombRewardPool.sol\":10814:10977  if (_amount > _tombBal) {\r... */\n      jump(tag_209)\n    tag_293:\n        /* \"contracts/distribution/TombRewardPool.sol\":10930:10934  tomb */\n      sload(0x01)\n        /* \"contracts/distribution/TombRewardPool.sol\":10930:10961  tomb.safeTransfer(_to, _amount) */\n      tag_209\n      swap1\n      sub(shl(0xa0, 0x01), 0x01)\n        /* \"contracts/distribution/TombRewardPool.sol\":10930:10934  tomb */\n      and\n        /* \"contracts/distribution/TombRewardPool.sol\":10948:10951  _to */\n      dup5\n        /* \"contracts/distribution/TombRewardPool.sol\":10953:10960  _amount */\n      dup5\n        /* \"@openzeppelin/contracts/token/ERC20/utils/SafeERC20.sol\":717:892  function safeTransfer(IERC20 token, address to, uint256 value) internal {... */\n    tag_171:\n        /* \"@openzeppelin/contracts/token/ERC20/utils/SafeERC20.sol\":826:884  abi.encodeWithSelector(token.transfer.selector, to, value) */\n      0x40\n      dup1\n      mload\n      sub(shl(0xa0, 0x01), 0x01)\n      dup5\n      and\n      0x24\n      dup3\n      add\n      mstore\n      0x44\n      dup1\n      dup3\n      add\n      dup5\n      swap1\n      mstore\n      dup3\n      mload\n      dup1\n      dup4\n      sub\n      swap1\n      swap2\n      add\n      dup2\n      mstore\n      0x64\n      swap1\n      swap2\n      add\n      swap1\n      swap2\n      mstore\n      0x20\n      dup2\n      add\n      dup1\n      mload\n      sub(shl(0xe0, 0x01), 0x01)\n      and\n      shl(0xe0, 0xa9059cbb)\n      or\n      swap1\n      mstore\n        /* \"@openzeppelin/contracts/token/ERC20/utils/SafeERC20.sol\":799:885  _callOptionalReturn(token, abi.encodeWithSelector(token.transfer.selector, to, value)) */\n      tag_209\n      swap1\n        /* \"@openzeppelin/contracts/token/ERC20/utils/SafeERC20.sol\":819:824  token */\n      dup5\n      swap1\n        /* \"@openzeppelin/contracts/token/ERC20/utils/SafeERC20.sol\":799:818  _callOptionalReturn */\n      tag_299\n        /* \"@openzeppelin/contracts/token/ERC20/utils/SafeERC20.sol\":799:885  _callOptionalReturn(token, abi.encodeWithSelector(token.transfer.selector, to, value)) */\n      jump\t// in\n        /* \"contracts/distribution/TombRewardPool.sol\":2956:3216  function checkPoolDuplicate(IERC20 _token) internal view {\r... */\n    tag_239:\n        /* \"contracts/distribution/TombRewardPool.sol\":3041:3049  poolInfo */\n      0x02\n        /* \"contracts/distribution/TombRewardPool.sol\":3041:3056  poolInfo.length */\n      sload\n        /* \"contracts/distribution/TombRewardPool.sol\":3024:3038  uint256 length */\n      0x00\n        /* \"contracts/distribution/TombRewardPool.sol\":3067:3209  for (uint256 pid = 0; pid < length; ++pid) {\r... */\n    tag_301:\n        /* \"contracts/distribution/TombRewardPool.sol\":3095:3101  length */\n      dup2\n        /* \"contracts/distribution/TombRewardPool.sol\":3089:3092  pid */\n      dup2\n        /* \"contracts/distribution/TombRewardPool.sol\":3089:3101  pid < length */\n      lt\n        /* \"contracts/distribution/TombRewardPool.sol\":3067:3209  for (uint256 pid = 0; pid < length; ++pid) {\r... */\n      iszero\n      tag_209\n      jumpi\n        /* \"contracts/distribution/TombRewardPool.sol\":3156:3162  _token */\n      dup3\n      sub(shl(0xa0, 0x01), 0x01)\n        /* \"contracts/distribution/TombRewardPool.sol\":3133:3162  poolInfo[pid].token != _token */\n      and\n        /* \"contracts/distribution/TombRewardPool.sol\":3133:3141  poolInfo */\n      0x02\n        /* \"contracts/distribution/TombRewardPool.sol\":3142:3145  pid */\n      dup3\n        /* \"contracts/distribution/TombRewardPool.sol\":3133:3146  poolInfo[pid] */\n      dup2\n      sload\n      dup2\n      lt\n      tag_304\n      jumpi\n      invalid\n    tag_304:\n      0x00\n      swap2\n      dup3\n      mstore\n      0x20\n      swap1\n      swap2\n      keccak256\n      0x05\n      swap1\n      swap2\n      mul\n      add\n        /* \"contracts/distribution/TombRewardPool.sol\":3133:3152  poolInfo[pid].token */\n      sload\n      sub(shl(0xa0, 0x01), 0x01)\n      and\n        /* \"contracts/distribution/TombRewardPool.sol\":3133:3162  poolInfo[pid].token != _token */\n      eq\n      iszero\n        /* \"contracts/distribution/TombRewardPool.sol\":3125:3197  require(poolInfo[pid].token != _token, \"TombRewardPool: existing pool?\") */\n      tag_306\n      jumpi\n      0x40\n      dup1\n      mload\n      shl(0xe5, 0x461bcd)\n      dup2\n      mstore\n      0x20\n      0x04\n      dup3\n      add\n      mstore\n      0x1e\n      0x24\n      dup3\n      add\n      mstore\n      0x546f6d62526577617264506f6f6c3a206578697374696e6720706f6f6c3f0000\n      0x44\n      dup3\n      add\n      mstore\n      swap1\n      mload\n      swap1\n      dup2\n      swap1\n      sub\n      0x64\n      add\n      swap1\n      revert\n    tag_306:\n        /* \"contracts/distribution/TombRewardPool.sol\":3103:3108  ++pid */\n      0x01\n      add\n        /* \"contracts/distribution/TombRewardPool.sol\":3067:3209  for (uint256 pid = 0; pid < length; ++pid) {\r... */\n      jump(tag_301)\n        /* \"@openzeppelin/contracts/token/ERC20/utils/SafeERC20.sol\":898:1101  function safeTransferFrom(IERC20 token, address from, address to, uint256 value) internal {... */\n    tag_272:\n        /* \"@openzeppelin/contracts/token/ERC20/utils/SafeERC20.sol\":1025:1093  abi.encodeWithSelector(token.transferFrom.selector, from, to, value) */\n      0x40\n      dup1\n      mload\n      sub(shl(0xa0, 0x01), 0x01)\n      dup1\n      dup7\n      and\n      0x24\n      dup4\n      add\n      mstore\n      dup5\n      and\n      0x44\n      dup3\n      add\n      mstore\n      0x64\n      dup1\n      dup3\n      add\n      dup5\n      swap1\n      mstore\n      dup3\n      mload\n      dup1\n      dup4\n      sub\n      swap1\n      swap2\n      add\n      dup2\n      mstore\n      0x84\n      swap1\n      swap2\n      add\n      swap1\n      swap2\n      mstore\n      0x20\n      dup2\n      add\n      dup1\n      mload\n      sub(shl(0xe0, 0x01), 0x01)\n      and\n      shl(0xe0, 0x23b872dd)\n      or\n      swap1\n      mstore\n        /* \"@openzeppelin/contracts/token/ERC20/utils/SafeERC20.sol\":998:1094  _callOptionalReturn(token, abi.encodeWithSelector(token.transferFrom.selector, from, to, value)) */\n      tag_308\n      swap1\n        /* \"@openzeppelin/contracts/token/ERC20/utils/SafeERC20.sol\":1018:1023  token */\n      dup6\n      swap1\n        /* \"@openzeppelin/contracts/token/ERC20/utils/SafeERC20.sol\":998:1017  _callOptionalReturn */\n      tag_299\n        /* \"@openzeppelin/contracts/token/ERC20/utils/SafeERC20.sol\":998:1094  _callOptionalReturn(token, abi.encodeWithSelector(token.transferFrom.selector, from, to, value)) */\n      jump\t// in\n    tag_308:\n        /* \"@openzeppelin/contracts/token/ERC20/utils/SafeERC20.sol\":898:1101  function safeTransferFrom(IERC20 token, address from, address to, uint256 value) internal {... */\n      pop\n      pop\n      pop\n      pop\n      jump\t// out\n        /* \"@openzeppelin/contracts/token/ERC20/utils/SafeERC20.sol\":2980:3731  function _callOptionalReturn(IERC20 token, bytes memory data) private {... */\n    tag_299:\n        /* \"@openzeppelin/contracts/token/ERC20/utils/SafeERC20.sol\":3399:3422  bytes memory returndata */\n      0x60\n        /* \"@openzeppelin/contracts/token/ERC20/utils/SafeERC20.sol\":3425:3494  address(token).functionCall(data, \"SafeERC20: low-level call failed\") */\n      tag_310\n        /* \"@openzeppelin/contracts/token/ERC20/utils/SafeERC20.sol\":3453:3457  data */\n      dup3\n        /* \"@openzeppelin/contracts/token/ERC20/utils/SafeERC20.sol\":3425:3494  address(token).functionCall(data, \"SafeERC20: low-level call failed\") */\n      mload(0x40)\n      dup1\n      0x40\n      add\n      0x40\n      mstore\n      dup1\n      0x20\n      dup2\n      mstore\n      0x20\n      add\n      0x5361666545524332303a206c6f772d6c6576656c2063616c6c206661696c6564\n      dup2\n      mstore\n      pop\n        /* \"@openzeppelin/contracts/token/ERC20/utils/SafeERC20.sol\":3433:3438  token */\n      dup6\n      sub(shl(0xa0, 0x01), 0x01)\n        /* \"@openzeppelin/contracts/token/ERC20/utils/SafeERC20.sol\":3425:3452  address(token).functionCall */\n      and\n      tag_311\n      swap1\n        /* \"@openzeppelin/contracts/token/ERC20/utils/SafeERC20.sol\":3425:3494  address(token).functionCall(data, \"SafeERC20: low-level call failed\") */\n      swap3\n      swap2\n      swap1\n      0xffffffff\n      and\n      jump\t// in\n    tag_310:\n        /* \"@openzeppelin/contracts/token/ERC20/utils/SafeERC20.sol\":3508:3525  returndata.length */\n      dup1\n      mload\n        /* \"@openzeppelin/contracts/token/ERC20/utils/SafeERC20.sol\":3399:3494  bytes memory returndata = address(token).functionCall(data, \"SafeERC20: low-level call failed\") */\n      swap1\n      swap2\n      pop\n        /* \"@openzeppelin/contracts/token/ERC20/utils/SafeERC20.sol\":3508:3529  returndata.length > 0 */\n      iszero\n        /* \"@openzeppelin/contracts/token/ERC20/utils/SafeERC20.sol\":3504:3725  if (returndata.length > 0) { // Return data is optional... */\n      tag_209\n      jumpi\n        /* \"@openzeppelin/contracts/token/ERC20/utils/SafeERC20.sol\":3648:3658  returndata */\n      dup1\n        /* \"@openzeppelin/contracts/token/ERC20/utils/SafeERC20.sol\":3637:3667  abi.decode(returndata, (bool)) */\n      dup1\n      0x20\n      add\n      swap1\n      mload\n      0x20\n      dup2\n      lt\n      iszero\n      tag_313\n      jumpi\n      0x00\n      dup1\n      revert\n    tag_313:\n      pop\n      mload\n        /* \"@openzeppelin/contracts/token/ERC20/utils/SafeERC20.sol\":3629:3714  require(abi.decode(returndata, (bool)), \"SafeERC20: ERC20 operation did not succeed\") */\n      tag_209\n      jumpi\n      mload(0x40)\n      shl(0xe5, 0x461bcd)\n      dup2\n      mstore\n      0x04\n      add\n      dup1\n      dup1\n      0x20\n      add\n      dup3\n      dup2\n      sub\n      dup3\n      mstore\n      0x2a\n      dup2\n      mstore\n      0x20\n      add\n      dup1\n      data_e11ad79d1e4a7f2e5f376964cb99e8e8f7904e3fc16a109f7a7ecb9aa7956dcd\n      0x2a\n      swap2\n      codecopy\n      0x40\n      add\n      swap2\n      pop\n      pop\n      mload(0x40)\n      dup1\n      swap2\n      sub\n      swap1\n      revert\n        /* \"@openzeppelin/contracts/utils/Address.sol\":3470:3693  function functionCall(... */\n    tag_311:\n        /* \"@openzeppelin/contracts/utils/Address.sol\":3603:3615  bytes memory */\n      0x60\n        /* \"@openzeppelin/contracts/utils/Address.sol\":3634:3686  functionCallWithValue(target, data, 0, errorMessage) */\n      tag_316\n        /* \"@openzeppelin/contracts/utils/Address.sol\":3656:3662  target */\n      dup5\n        /* \"@openzeppelin/contracts/utils/Address.sol\":3664:3668  data */\n      dup5\n        /* \"@openzeppelin/contracts/utils/Address.sol\":3670:3671  0 */\n      0x00\n        /* \"@openzeppelin/contracts/utils/Address.sol\":3673:3685  errorMessage */\n      dup6\n        /* \"@openzeppelin/contracts/utils/Address.sol\":3634:3655  functionCallWithValue */\n      tag_317\n        /* \"@openzeppelin/contracts/utils/Address.sol\":3634:3686  functionCallWithValue(target, data, 0, errorMessage) */\n      jump\t// in\n    tag_316:\n        /* \"@openzeppelin/contracts/utils/Address.sol\":3627:3686  return functionCallWithValue(target, data, 0, errorMessage) */\n      swap1\n      pop\n        /* \"@openzeppelin/contracts/utils/Address.sol\":3470:3693  function functionCall(... */\n    tag_315:\n      swap4\n      swap3\n      pop\n      pop\n      pop\n      jump\t// out\n        /* \"@openzeppelin/contracts/utils/Address.sol\":4557:5056  function functionCallWithValue(... */\n    tag_317:\n        /* \"@openzeppelin/contracts/utils/Address.sol\":4722:4734  bytes memory */\n      0x60\n        /* \"@openzeppelin/contracts/utils/Address.sol\":4779:4784  value */\n      dup3\n        /* \"@openzeppelin/contracts/utils/Address.sol\":4754:4775  address(this).balance */\n      selfbalance\n        /* \"@openzeppelin/contracts/utils/Address.sol\":4754:4784  address(this).balance >= value */\n      lt\n      iszero\n        /* \"@openzeppelin/contracts/utils/Address.sol\":4746:4827  require(address(this).balance >= value, \"Address: insufficient balance for call\") */\n      tag_319\n      jumpi\n      mload(0x40)\n      shl(0xe5, 0x461bcd)\n      dup2\n      mstore\n      0x04\n      add\n      dup1\n      dup1\n      0x20\n      add\n      dup3\n      dup2\n      sub\n      dup3\n      mstore\n      0x26\n      dup2\n      mstore\n      0x20\n      add\n      dup1\n      data_565f1a77334fc4792800921178c71e4521acffab18ff9e7885b49377ee80ab4c\n      0x26\n      swap2\n      codecopy\n      0x40\n      add\n      swap2\n      pop\n      pop\n      mload(0x40)\n      dup1\n      swap2\n      sub\n      swap1\n      revert\n    tag_319:\n        /* \"@openzeppelin/contracts/utils/Address.sol\":4845:4863  isContract(target) */\n      tag_320\n        /* \"@openzeppelin/contracts/utils/Address.sol\":4856:4862  target */\n      dup6\n        /* \"@openzeppelin/contracts/utils/Address.sol\":4845:4855  isContract */\n      tag_321\n        /* \"@openzeppelin/contracts/utils/Address.sol\":4845:4863  isContract(target) */\n      jump\t// in\n    tag_320:\n        /* \"@openzeppelin/contracts/utils/Address.sol\":4837:4897  require(isContract(target), \"Address: call to non-contract\") */\n      tag_322\n      jumpi\n      0x40\n      dup1\n      mload\n      shl(0xe5, 0x461bcd)\n      dup2\n      mstore\n      0x20\n      0x04\n      dup3\n      add\n      mstore\n      0x1d\n      0x24\n      dup3\n      add\n      mstore\n      0x416464726573733a2063616c6c20746f206e6f6e2d636f6e7472616374000000\n      0x44\n      dup3\n      add\n      mstore\n      swap1\n      mload\n      swap1\n      dup2\n      swap1\n      sub\n      0x64\n      add\n      swap1\n      revert\n    tag_322:\n        /* \"@openzeppelin/contracts/utils/Address.sol\":4909:4921  bool success */\n      0x00\n        /* \"@openzeppelin/contracts/utils/Address.sol\":4923:4946  bytes memory returndata */\n      0x60\n        /* \"@openzeppelin/contracts/utils/Address.sol\":4950:4956  target */\n      dup7\n      sub(shl(0xa0, 0x01), 0x01)\n        /* \"@openzeppelin/contracts/utils/Address.sol\":4950:4961  target.call */\n      and\n        /* \"@openzeppelin/contracts/utils/Address.sol\":4969:4974  value */\n      dup6\n        /* \"@openzeppelin/contracts/utils/Address.sol\":4976:4980  data */\n      dup8\n        /* \"@openzeppelin/contracts/utils/Address.sol\":4950:4981  target.call{value: value}(data) */\n      mload(0x40)\n      dup1\n      dup3\n      dup1\n      mload\n      swap1\n      0x20\n      add\n      swap1\n      dup1\n      dup4\n      dup4\n    tag_323:\n      0x20\n      dup4\n      lt\n      tag_325\n      jumpi\n      dup1\n      mload\n      dup3\n      mstore\n      not(0x1f)\n      swap1\n      swap3\n      add\n      swap2\n      0x20\n      swap2\n      dup3\n      add\n      swap2\n      add\n      jump(tag_323)\n    tag_325:\n      0x01\n      dup4\n      0x20\n      sub\n      0x0100\n      exp\n      sub\n      dup1\n      not\n      dup3\n      mload\n      and\n      dup2\n      dup5\n      mload\n      and\n      dup1\n      dup3\n      or\n      dup6\n      mstore\n      pop\n      pop\n      pop\n      pop\n      pop\n      pop\n      swap1\n      pop\n      add\n      swap2\n      pop\n      pop\n      0x00\n      mload(0x40)\n      dup1\n      dup4\n      sub\n      dup2\n      dup6\n      dup8\n      gas\n      call\n      swap3\n      pop\n      pop\n      pop\n      returndatasize\n      dup1\n      0x00\n      dup2\n      eq\n      tag_328\n      jumpi\n      mload(0x40)\n      swap2\n      pop\n      and(add(returndatasize, 0x3f), not(0x1f))\n      dup3\n      add\n      0x40\n      mstore\n      returndatasize\n      dup3\n      mstore\n      returndatasize\n      0x00\n      0x20\n      dup5\n      add\n      returndatacopy\n      jump(tag_327)\n    tag_328:\n      0x60\n      swap2\n      pop\n    tag_327:\n      pop\n        /* \"@openzeppelin/contracts/utils/Address.sol\":4908:4981  (bool success, bytes memory returndata) = target.call{value: value}(data) */\n      swap2\n      pop\n      swap2\n      pop\n        /* \"@openzeppelin/contracts/utils/Address.sol\":4998:5049  verifyCallResult(success, returndata, errorMessage) */\n      tag_232\n        /* \"@openzeppelin/contracts/utils/Address.sol\":5015:5022  success */\n      dup3\n        /* \"@openzeppelin/contracts/utils/Address.sol\":5024:5034  returndata */\n      dup3\n        /* \"@openzeppelin/contracts/utils/Address.sol\":5036:5048  errorMessage */\n      dup7\n        /* \"@openzeppelin/contracts/utils/Address.sol\":4998:5014  verifyCallResult */\n      tag_330\n        /* \"@openzeppelin/contracts/utils/Address.sol\":4998:5049  verifyCallResult(success, returndata, errorMessage) */\n      jump\t// in\n        /* \"@openzeppelin/contracts/utils/Address.sol\":727:1104  function isContract(address account) internal view returns (bool) {... */\n    tag_321:\n        /* \"@openzeppelin/contracts/utils/Address.sol\":1043:1063  extcodesize(account) */\n      extcodesize\n        /* \"@openzeppelin/contracts/utils/Address.sol\":1089:1097  size > 0 */\n      iszero\n      iszero\n      swap1\n        /* \"@openzeppelin/contracts/utils/Address.sol\":727:1104  function isContract(address account) internal view returns (bool) {... */\n      jump\t// out\n        /* \"@openzeppelin/contracts/utils/Address.sol\":7170:7862  function verifyCallResult(... */\n    tag_330:\n        /* \"@openzeppelin/contracts/utils/Address.sol\":7316:7328  bytes memory */\n      0x60\n        /* \"@openzeppelin/contracts/utils/Address.sol\":7344:7351  success */\n      dup4\n        /* \"@openzeppelin/contracts/utils/Address.sol\":7340:7856  if (success) {... */\n      iszero\n      tag_333\n      jumpi\n      pop\n        /* \"@openzeppelin/contracts/utils/Address.sol\":7374:7384  returndata */\n      dup2\n        /* \"@openzeppelin/contracts/utils/Address.sol\":7367:7384  return returndata */\n      jump(tag_315)\n        /* \"@openzeppelin/contracts/utils/Address.sol\":7340:7856  if (success) {... */\n    tag_333:\n        /* \"@openzeppelin/contracts/utils/Address.sol\":7485:7502  returndata.length */\n      dup3\n      mload\n        /* \"@openzeppelin/contracts/utils/Address.sol\":7485:7506  returndata.length > 0 */\n      iszero\n        /* \"@openzeppelin/contracts/utils/Address.sol\":7481:7846  if (returndata.length > 0) {... */\n      tag_335\n      jumpi\n        /* \"@openzeppelin/contracts/utils/Address.sol\":7679:7689  returndata */\n      dup3\n        /* \"@openzeppelin/contracts/utils/Address.sol\":7673:7690  mload(returndata) */\n      mload\n        /* \"@openzeppelin/contracts/utils/Address.sol\":7739:7754  returndata_size */\n      dup1\n        /* \"@openzeppelin/contracts/utils/Address.sol\":7726:7736  returndata */\n      dup5\n        /* \"@openzeppelin/contracts/utils/Address.sol\":7722:7724  32 */\n      0x20\n        /* \"@openzeppelin/contracts/utils/Address.sol\":7718:7737  add(32, returndata) */\n      add\n        /* \"@openzeppelin/contracts/utils/Address.sol\":7711:7755  revert(add(32, returndata), returndata_size) */\n      revert\n        /* \"@openzeppelin/contracts/utils/Address.sol\":7628:7773  {... */\n    tag_335:\n        /* \"@openzeppelin/contracts/utils/Address.sol\":7818:7830  errorMessage */\n      dup2\n        /* \"@openzeppelin/contracts/utils/Address.sol\":7811:7831  revert(errorMessage) */\n      mload(0x40)\n      shl(0xe5, 0x461bcd)\n      dup2\n      mstore\n      0x04\n      add\n      dup1\n      dup1\n      0x20\n      add\n      dup3\n      dup2\n      sub\n      dup3\n      mstore\n      dup4\n      dup2\n      dup2\n      mload\n      dup2\n      mstore\n      0x20\n      add\n      swap2\n      pop\n      dup1\n      mload\n      swap1\n      0x20\n      add\n      swap1\n      dup1\n      dup4\n      dup4\n      0x00\n    tag_337:\n      dup4\n      dup2\n      lt\n      iszero\n      tag_339\n      jumpi\n      dup2\n      dup2\n      add\n      mload\n      dup4\n      dup3\n      add\n      mstore\n      0x20\n      add\n      jump(tag_337)\n    tag_339:\n      pop\n      pop\n      pop\n      pop\n      swap1\n      pop\n      swap1\n      dup2\n      add\n      swap1\n      0x1f\n      and\n      dup1\n      iszero\n      tag_340\n      jumpi\n      dup1\n      dup3\n      sub\n      dup1\n      mload\n      0x01\n      dup4\n      0x20\n      sub\n      0x0100\n      exp\n      sub\n      not\n      and\n      dup2\n      mstore\n      0x20\n      add\n      swap2\n      pop\n    tag_340:\n      pop\n      swap3\n      pop\n      pop\n      pop\n      mload(0x40)\n      dup1\n      swap2\n      sub\n      swap1\n      revert\n    stop\n    data_23c2b75188d7d13d903b5cb4ec62ae0213436b5445c9258e5023f1d0545361cd 546f6d62526577617264506f6f6c3a2063616c6c6572206973206e6f7420746865206f70657261746f72\n    data_565f1a77334fc4792800921178c71e4521acffab18ff9e7885b49377ee80ab4c 416464726573733a20696e73756666696369656e742062616c616e636520666f722063616c6c\n    data_9113bb53c2876a3805b2c9242029423fc540a728243ce887ab24c82cf119fba3 536166654d6174683a206d756c7469706c69636174696f6e206f766572666c6f77\n    data_e11ad79d1e4a7f2e5f376964cb99e8e8f7904e3fc16a109f7a7ecb9aa7956dcd 5361666545524332303a204552433230206f7065726174696f6e20646964206e6f742073756363656564\n\n    auxdata: 0xa2646970667358221220bbb8d0c4148d234ab60a81704fc77639b49ff849021a392e19460bd4ff654fa164736f6c634300060c0033\n}\n",
				"bytecode": {
					"linkReferences": {},
					"object": "600060045560c06040526910f0cf064dd5920000006080908152690cb49b44ba602d80000060a05262000037906006906002620001d2565b503480156200004557600080fd5b5060405162001aff38038062001aff833981810160405260408110156200006b57600080fd5b508051602090910151428111620000b2576040805162461bcd60e51b815260206004808301919091526024820152636c61746560e01b604482015290519081900360640190fd5b6001600160a01b03821615620000de57600180546001600160a01b0319166001600160a01b0384161790555b600581905562054600808201600755620bdd808201600855600680546200012a9291906000906200010b57fe5b90600052602060002001546200016960201b6200119c1790919060201c565b600a55600680546200014791620697809160019081106200010b57fe5b600b5550506000600c81905580546001600160a01b0319163317905562000244565b6000808211620001c0576040805162461bcd60e51b815260206004820152601a60248201527f536166654d6174683a206469766973696f6e206279207a65726f000000000000604482015290519081900360640190fd5b818381620001ca57fe5b049392505050565b8280548282559060005260206000209081019282156200021b579160200282015b828111156200021b57825182906001600160501b0316905591602001919060010190620001f3565b50620002299291506200022d565b5090565b5b808211156200022957600081556001016200022e565b6118ab80620002546000396000f3fe608060405234801561001057600080fd5b506004361061012c5760003560e01c8063630b5ba1116100ad5780639a25cefc116100715780639a25cefc14610376578063b3ab15fb14610393578063b89e73c1146103b9578063c040f23a146103d6578063e2bbb158146103de5761012c565b8063630b5ba1146102a65780637704d44e146102ae57806389744bb4146102cb57806393f1a40b146102f757806396805e541461033c5761012c565b806351eb05a6116100f457806351eb05a61461020a5780635312ea8e1461022757806354575af414610244578063570ca7351461027a5780635f96dc111461029e5761012c565b80631526fe271461013157806317caf6f1146101855780631ab06ee51461019f578063231f0c6a146101c4578063441a3e70146101e7575b600080fd5b61014e6004803603602081101561014757600080fd5b5035610401565b604080516001600160a01b039096168652602086019490945284840192909252606084015215156080830152519081900360a00190f35b61018d61044c565b60408051918252519081900360200190f35b6101c2600480360360408110156101b557600080fd5b5080359060200135610452565b005b61018d600480360360408110156101da57600080fd5b5080359060200135610500565b6101c2600480360360408110156101fd57600080fd5b50803590602001356106bf565b6101c26004803603602081101561022057600080fd5b503561087c565b6101c26004803603602081101561023d57600080fd5b50356109da565b6101c26004803603606081101561025a57600080fd5b506001600160a01b03813581169160208101359160409091013516610a76565b610282610bbe565b604080516001600160a01b039092168252519081900360200190f35b61018d610bcd565b6101c2610bd3565b61018d600480360360208110156102c457600080fd5b5035610bf6565b61018d600480360360408110156102e157600080fd5b50803590602001356001600160a01b0316610c0a565b6103236004803603604081101561030d57600080fd5b50803590602001356001600160a01b0316610d66565b6040805192835260208301919091528051918290030190f35b6101c26004803603608081101561035257600080fd5b508035906001600160a01b0360208201351690604081013515159060600135610d8a565b61018d6004803603602081101561038c57600080fd5b5035610f87565b6101c2600480360360208110156103a957600080fd5b50356001600160a01b0316610fa5565b61018d600480360360208110156103cf57600080fd5b5035611010565b61028261101d565b6101c2600480360360408110156103f457600080fd5b508035906020013561102c565b6002818154811061040e57fe5b6000918252602090912060059091020180546001820154600283015460038401546004909401546001600160a01b0390931694509092909160ff1685565b60045481565b6000546001600160a01b0316331461049b5760405162461bcd60e51b815260040180806020018281038252602a8152602001806117db602a913960400191505060405180910390fd5b6104a3610bd3565b6000600283815481106104b257fe5b60009182526020909120600590910201600481015490915060ff16156104f9576104f5826104ef836001015460045461120390919063ffffffff16565b90611260565b6004555b6001015550565b600060025b60018160ff16106106a45760076001820360ff166003811061052357fe5b0154831061069b5760076001820360ff166003811061053e57fe5b015484106105735761056b600a8260ff166003811061055957fe5b01546105658587611203565b906112ba565b9150506106b9565b60006105a9600a8360ff166003811061058857fe5b015461056560076001860360ff16600381106105a057fe5b01548790611203565b90508160ff16600114156105e5576105dc6105d5600a60005b015461056588600760005b015490611203565b8290611260565b925050506106b9565b6001820391505b60018260ff161061068c5760076001830360ff166003811061060a57fe5b0154851061063e576105dc6105d5600a8460ff166003811061062857fe5b01546105658860078760ff16600381106105cd57fe5b61067e6105d5600a8460ff166003811061065457fe5b015461056560076001870360ff166003811061066c57fe5b015460078760ff16600381106105cd57fe5b6000199092019190506105ec565b6105dc6105d5600a60006105c2565b60001901610505565b50600a546106b6906105658486611203565b90505b92915050565b60003390506000600284815481106106d357fe5b600091825260208083208784526003825260408085206001600160a01b0388168652909252922080546005909202909201925084111561074f576040805162461bcd60e51b81526020600482015260126024820152711dda5d1a191c985dce881b9bdd0819dbdbd960721b604482015290519081900360640190fd5b6107588561087c565b6000610795826001015461078f670de0b6b3a7640000610789876003015487600001546112ba90919063ffffffff16565b9061119c565b90611203565b905080156107e7576107a78482611313565b6040805182815290516001600160a01b038616917fe2403640ba68fed3a2f88b7557551d1993f84b99bb10ff833f0cf8db0c5e0486919081900360200190a25b84156108115781546107f99086611203565b82558254610811906001600160a01b031685876113c9565b6003830154825461082f91670de0b6b3a764000091610789916112ba565b600183015560408051868152905187916001600160a01b038716917ff279e6a1f5e320cca91135676d9cb6e44ca8a08c0b88342bcdb1144f6511b5689181900360200190a3505050505050565b60006002828154811061088b57fe5b90600052602060002090600502019050806002015442116108ac57506109d7565b8054604080516370a0823160e01b815230600482015290516000926001600160a01b0316916370a08231916024808301926020929190829003018186803b1580156108f657600080fd5b505afa15801561090a573d6000803e3d6000fd5b505050506040513d602081101561092057600080fd5b50519050806109365750426002909101556109d7565b600482015460ff16610967576004808301805460ff19166001908117909155830154905461096391611260565b6004555b600454156109ce57600061097f836002015442610500565b905060006109a06004546107898660010154856112ba90919063ffffffff16565b90506109c66109bb8461078984670de0b6b3a76400006112ba565b600386015490611260565b600385015550505b50426002909101555b50565b6000600282815481106109e957fe5b600091825260208083208584526003825260408085203380875293528420805485825560018201959095556005909302018054909450919291610a39916001600160a01b039190911690836113c9565b604080518281529051859133917fbb757047c2b5f3974fe26b7c10f732e7bce710b0952a71082702781e62ae05959181900360200190a350505050565b6000546001600160a01b03163314610abf5760405162461bcd60e51b815260040180806020018281038252602a8152602001806117db602a913960400191505060405180910390fd5b60085462278d0001421015610ba5576001546001600160a01b0384811691161415610b19576040805162461bcd60e51b815260206004820152600560248201526410ba37b6b160d91b604482015290519081900360640190fd5b60025460005b81811015610ba257600060028281548110610b3657fe5b6000918252602090912060059091020180549091506001600160a01b0387811691161415610b99576040805162461bcd60e51b815260206004820152600b60248201526a10b837b7b6173a37b5b2b760a91b604482015290519081900360640190fd5b50600101610b1f565b50505b610bb96001600160a01b03841682846113c9565b505050565b6000546001600160a01b031681565b60055481565b60025460005b81811015610bf257610bea8161087c565b600101610bd9565b5050565b600a8160038110610c0357fe5b0154905081565b60008060028481548110610c1a57fe5b60009182526020808320878452600380835260408086206001600160a01b03808b168852908552818720600590960290930191820154825482516370a0823160e01b815230600482015292519398509596909590949316926370a0823192602480840193829003018186803b158015610c9257600080fd5b505afa158015610ca6573d6000803e3d6000fd5b505050506040513d6020811015610cbc57600080fd5b5051600285015490915042118015610cd357508015155b15610d30576000610ce8856002015442610500565b90506000610d096004546107898860010154856112ba90919063ffffffff16565b9050610d2b610d248461078984670de0b6b3a76400006112ba565b8590611260565b935050505b610d5b836001015461078f670de0b6b3a76400006107898688600001546112ba90919063ffffffff16565b979650505050505050565b60036020908152600092835260408084209091529082529020805460019091015482565b6000546001600160a01b03163314610dd35760405162461bcd60e51b815260040180806020018281038252602a8152602001806117db602a913960400191505060405180910390fd5b610ddc8361141b565b8115610dea57610dea610bd3565b600554421015610e165780610e025750600554610e11565b600554811015610e1157506005545b610e2a565b801580610e2257504281105b15610e2a5750425b600060055482111580610e3d5750428211155b6040805160a0810182526001600160a01b03878116825260208201898152928201868152600060608401818152861580156080870190815260028054600181018255945295517f405787fa12a823e0f2b7631cc41b3ba8828b3321ca811111fa75cd3aa3bb5ace600590940293840180546001600160a01b031916919096161790945594517f405787fa12a823e0f2b7631cc41b3ba8828b3321ca811111fa75cd3aa3bb5acf82015590517f405787fa12a823e0f2b7631cc41b3ba8828b3321ca811111fa75cd3aa3bb5ad082015592517f405787fa12a823e0f2b7631cc41b3ba8828b3321ca811111fa75cd3aa3bb5ad184015590517f405787fa12a823e0f2b7631cc41b3ba8828b3321ca811111fa75cd3aa3bb5ad2909201805460ff191692151592909217909155909150610f8057600454610f7c9086611260565b6004555b5050505050565b60068181548110610f9457fe5b600091825260209091200154905081565b6000546001600160a01b03163314610fee5760405162461bcd60e51b815260040180806020018281038252602a8152602001806117db602a913960400191505060405180910390fd5b600080546001600160a01b0319166001600160a01b0392909216919091179055565b60078160038110610c0357fe5b6001546001600160a01b031681565b600033905060006002848154811061104057fe5b600091825260208083208784526003825260408085206001600160a01b038816865290925292206005909102909101915061107a8561087c565b8054156111065760006110b2826001015461078f670de0b6b3a7640000610789876003015487600001546112ba90919063ffffffff16565b90508015611104576110c48482611313565b6040805182815290516001600160a01b038616917fe2403640ba68fed3a2f88b7557551d1993f84b99bb10ff833f0cf8db0c5e0486919081900360200190a25b505b8315611132578154611123906001600160a01b03168430876114b5565b805461112f9085611260565b81555b6003820154815461115091670de0b6b3a764000091610789916112ba565b600182015560408051858152905186916001600160a01b038616917f90890809c654f11d6e72a28fa60149770a0d11ec6c92319d6ceb2bb0a4ea1a159181900360200190a35050505050565b60008082116111f2576040805162461bcd60e51b815260206004820152601a60248201527f536166654d6174683a206469766973696f6e206279207a65726f000000000000604482015290519081900360640190fd5b8183816111fb57fe5b049392505050565b60008282111561125a576040805162461bcd60e51b815260206004820152601e60248201527f536166654d6174683a207375627472616374696f6e206f766572666c6f770000604482015290519081900360640190fd5b50900390565b6000828201838110156106b6576040805162461bcd60e51b815260206004820152601b60248201527f536166654d6174683a206164646974696f6e206f766572666c6f770000000000604482015290519081900360640190fd5b6000826112c9575060006106b9565b828202828482816112d657fe5b04146106b65760405162461bcd60e51b815260040180806020018281038252602181526020018061182b6021913960400191505060405180910390fd5b600154604080516370a0823160e01b815230600482015290516000926001600160a01b0316916370a08231916024808301926020929190829003018186803b15801561135e57600080fd5b505afa158015611372573d6000803e3d6000fd5b505050506040513d602081101561138857600080fd5b505190508015610bb957808211156113b6576001546113b1906001600160a01b031684836113c9565b610bb9565b600154610bb9906001600160a01b031684845b604080516001600160a01b038416602482015260448082018490528251808303909101815260649091019091526020810180516001600160e01b031663a9059cbb60e01b179052610bb9908490611515565b60025460005b81811015610bb957826001600160a01b03166002828154811061144057fe5b60009182526020909120600590910201546001600160a01b031614156114ad576040805162461bcd60e51b815260206004820152601e60248201527f546f6d62526577617264506f6f6c3a206578697374696e6720706f6f6c3f0000604482015290519081900360640190fd5b600101611421565b604080516001600160a01b0380861660248301528416604482015260648082018490528251808303909101815260849091019091526020810180516001600160e01b03166323b872dd60e01b17905261150f908590611515565b50505050565b606061156a826040518060400160405280602081526020017f5361666545524332303a206c6f772d6c6576656c2063616c6c206661696c6564815250856001600160a01b03166115c69092919063ffffffff16565b805190915015610bb95780806020019051602081101561158957600080fd5b5051610bb95760405162461bcd60e51b815260040180806020018281038252602a81526020018061184c602a913960400191505060405180910390fd5b60606115d584846000856115df565b90505b9392505050565b6060824710156116205760405162461bcd60e51b81526004018080602001828103825260268152602001806118056026913960400191505060405180910390fd5b61162985611730565b61167a576040805162461bcd60e51b815260206004820152601d60248201527f416464726573733a2063616c6c20746f206e6f6e2d636f6e7472616374000000604482015290519081900360640190fd5b60006060866001600160a01b031685876040518082805190602001908083835b602083106116b95780518252601f19909201916020918201910161169a565b6001836020036101000a03801982511681845116808217855250505050505090500191505060006040518083038185875af1925050503d806000811461171b576040519150601f19603f3d011682016040523d82523d6000602084013e611720565b606091505b5091509150610d5b828286611736565b3b151590565b606083156117455750816115d8565b8251156117555782518084602001fd5b8160405162461bcd60e51b81526004018080602001828103825283818151815260200191508051906020019080838360005b8381101561179f578181015183820152602001611787565b50505050905090810190601f1680156117cc5780820380516001836020036101000a031916815260200191505b509250505060405180910390fdfe546f6d62526577617264506f6f6c3a2063616c6c6572206973206e6f7420746865206f70657261746f72416464726573733a20696e73756666696369656e742062616c616e636520666f722063616c6c536166654d6174683a206d756c7469706c69636174696f6e206f766572666c6f775361666545524332303a204552433230206f7065726174696f6e20646964206e6f742073756363656564a2646970667358221220bbb8d0c4148d234ab60a81704fc77639b49ff849021a392e19460bd4ff654fa164736f6c634300060c0033",
					"opcodes": "PUSH1 0x0 PUSH1 0x4 SSTORE PUSH1 0xC0 PUSH1 0x40 MSTORE PUSH10 0x10F0CF064DD592000000 PUSH1 0x80 SWAP1 DUP2 MSTORE PUSH10 0xCB49B44BA602D800000 PUSH1 0xA0 MSTORE PUSH3 0x37 SWAP1 PUSH1 0x6 SWAP1 PUSH1 0x2 PUSH3 0x1D2 JUMP JUMPDEST POP CALLVALUE DUP1 ISZERO PUSH3 0x45 JUMPI PUSH1 0x0 DUP1 REVERT JUMPDEST POP PUSH1 0x40 MLOAD PUSH3 0x1AFF CODESIZE SUB DUP1 PUSH3 0x1AFF DUP4 CODECOPY DUP2 DUP2 ADD PUSH1 0x40 MSTORE PUSH1 0x40 DUP2 LT ISZERO PUSH3 0x6B JUMPI PUSH1 0x0 DUP1 REVERT JUMPDEST POP DUP1 MLOAD PUSH1 0x20 SWAP1 SWAP2 ADD MLOAD TIMESTAMP DUP2 GT PUSH3 0xB2 JUMPI PUSH1 0x40 DUP1 MLOAD PUSH3 0x461BCD PUSH1 0xE5 SHL DUP2 MSTORE PUSH1 0x20 PUSH1 0x4 DUP1 DUP4 ADD SWAP2 SWAP1 SWAP2 MSTORE PUSH1 0x24 DUP3 ADD MSTORE PUSH4 0x6C617465 PUSH1 0xE0 SHL PUSH1 0x44 DUP3 ADD MSTORE SWAP1 MLOAD SWAP1 DUP2 SWAP1 SUB PUSH1 0x64 ADD SWAP1 REVERT JUMPDEST PUSH1 0x1 PUSH1 0x1 PUSH1 0xA0 SHL SUB DUP3 AND ISZERO PUSH3 0xDE JUMPI PUSH1 0x1 DUP1 SLOAD PUSH1 0x1 PUSH1 0x1 PUSH1 0xA0 SHL SUB NOT AND PUSH1 0x1 PUSH1 0x1 PUSH1 0xA0 SHL SUB DUP5 AND OR SWAP1 SSTORE JUMPDEST PUSH1 0x5 DUP2 SWAP1 SSTORE PUSH3 0x54600 DUP1 DUP3 ADD PUSH1 0x7 SSTORE PUSH3 0xBDD80 DUP3 ADD PUSH1 0x8 SSTORE PUSH1 0x6 DUP1 SLOAD PUSH3 0x12A SWAP3 SWAP2 SWAP1 PUSH1 0x0 SWAP1 PUSH3 0x10B JUMPI INVALID JUMPDEST SWAP1 PUSH1 0x0 MSTORE PUSH1 0x20 PUSH1 0x0 KECCAK256 ADD SLOAD PUSH3 0x169 PUSH1 0x20 SHL PUSH3 0x119C OR SWAP1 SWAP2 SWAP1 PUSH1 0x20 SHR JUMP JUMPDEST PUSH1 0xA SSTORE PUSH1 0x6 DUP1 SLOAD PUSH3 0x147 SWAP2 PUSH3 0x69780 SWAP2 PUSH1 0x1 SWAP1 DUP2 LT PUSH3 0x10B JUMPI INVALID JUMPDEST PUSH1 0xB SSTORE POP POP PUSH1 0x0 PUSH1 0xC DUP2 SWAP1 SSTORE DUP1 SLOAD PUSH1 0x1 PUSH1 0x1 PUSH1 0xA0 SHL SUB NOT AND CALLER OR SWAP1 SSTORE PUSH3 0x244 JUMP JUMPDEST PUSH1 0x0 DUP1 DUP3 GT PUSH3 0x1C0 JUMPI PUSH1 0x40 DUP1 MLOAD PUSH3 0x461BCD PUSH1 0xE5 SHL DUP2 MSTORE PUSH1 0x20 PUSH1 0x4 DUP3 ADD MSTORE PUSH1 0x1A PUSH1 0x24 DUP3 ADD MSTORE PUSH32 0x536166654D6174683A206469766973696F6E206279207A65726F000000000000 PUSH1 0x44 DUP3 ADD MSTORE SWAP1 MLOAD SWAP1 DUP2 SWAP1 SUB PUSH1 0x64 ADD SWAP1 REVERT JUMPDEST DUP2 DUP4 DUP2 PUSH3 0x1CA JUMPI INVALID JUMPDEST DIV SWAP4 SWAP3 POP POP POP JUMP JUMPDEST DUP3 DUP1 SLOAD DUP3 DUP3 SSTORE SWAP1 PUSH1 0x0 MSTORE PUSH1 0x20 PUSH1 0x0 KECCAK256 SWAP1 DUP2 ADD SWAP3 DUP3 ISZERO PUSH3 0x21B JUMPI SWAP2 PUSH1 0x20 MUL DUP3 ADD JUMPDEST DUP3 DUP2 GT ISZERO PUSH3 0x21B JUMPI DUP3 MLOAD DUP3 SWAP1 PUSH1 0x1 PUSH1 0x1 PUSH1 0x50 SHL SUB AND SWAP1 SSTORE SWAP2 PUSH1 0x20 ADD SWAP2 SWAP1 PUSH1 0x1 ADD SWAP1 PUSH3 0x1F3 JUMP JUMPDEST POP PUSH3 0x229 SWAP3 SWAP2 POP PUSH3 0x22D JUMP JUMPDEST POP SWAP1 JUMP JUMPDEST JUMPDEST DUP1 DUP3 GT ISZERO PUSH3 0x229 JUMPI PUSH1 0x0 DUP2 SSTORE PUSH1 0x1 ADD PUSH3 0x22E JUMP JUMPDEST PUSH2 0x18AB DUP1 PUSH3 0x254 PUSH1 0x0 CODECOPY PUSH1 0x0 RETURN INVALID PUSH1 0x80 PUSH1 0x40 MSTORE CALLVALUE DUP1 ISZERO PUSH2 0x10 JUMPI PUSH1 0x0 DUP1 REVERT JUMPDEST POP PUSH1 0x4 CALLDATASIZE LT PUSH2 0x12C JUMPI PUSH1 0x0 CALLDATALOAD PUSH1 0xE0 SHR DUP1 PUSH4 0x630B5BA1 GT PUSH2 0xAD JUMPI DUP1 PUSH4 0x9A25CEFC GT PUSH2 0x71 JUMPI DUP1 PUSH4 0x9A25CEFC EQ PUSH2 0x376 JUMPI DUP1 PUSH4 0xB3AB15FB EQ PUSH2 0x393 JUMPI DUP1 PUSH4 0xB89E73C1 EQ PUSH2 0x3B9 JUMPI DUP1 PUSH4 0xC040F23A EQ PUSH2 0x3D6 JUMPI DUP1 PUSH4 0xE2BBB158 EQ PUSH2 0x3DE JUMPI PUSH2 0x12C JUMP JUMPDEST DUP1 PUSH4 0x630B5BA1 EQ PUSH2 0x2A6 JUMPI DUP1 PUSH4 0x7704D44E EQ PUSH2 0x2AE JUMPI DUP1 PUSH4 0x89744BB4 EQ PUSH2 0x2CB JUMPI DUP1 PUSH4 0x93F1A40B EQ PUSH2 0x2F7 JUMPI DUP1 PUSH4 0x96805E54 EQ PUSH2 0x33C JUMPI PUSH2 0x12C JUMP JUMPDEST DUP1 PUSH4 0x51EB05A6 GT PUSH2 0xF4 JUMPI DUP1 PUSH4 0x51EB05A6 EQ PUSH2 0x20A JUMPI DUP1 PUSH4 0x5312EA8E EQ PUSH2 0x227 JUMPI DUP1 PUSH4 0x54575AF4 EQ PUSH2 0x244 JUMPI DUP1 PUSH4 0x570CA735 EQ PUSH2 0x27A JUMPI DUP1 PUSH4 0x5F96DC11 EQ PUSH2 0x29E JUMPI PUSH2 0x12C JUMP JUMPDEST DUP1 PUSH4 0x1526FE27 EQ PUSH2 0x131 JUMPI DUP1 PUSH4 0x17CAF6F1 EQ PUSH2 0x185 JUMPI DUP1 PUSH4 0x1AB06EE5 EQ PUSH2 0x19F JUMPI DUP1 PUSH4 0x231F0C6A EQ PUSH2 0x1C4 JUMPI DUP1 PUSH4 0x441A3E70 EQ PUSH2 0x1E7 JUMPI JUMPDEST PUSH1 0x0 DUP1 REVERT JUMPDEST PUSH2 0x14E PUSH1 0x4 DUP1 CALLDATASIZE SUB PUSH1 0x20 DUP2 LT ISZERO PUSH2 0x147 JUMPI PUSH1 0x0 DUP1 REVERT JUMPDEST POP CALLDATALOAD PUSH2 0x401 JUMP JUMPDEST PUSH1 0x40 DUP1 MLOAD PUSH1 0x1 PUSH1 0x1 PUSH1 0xA0 SHL SUB SWAP1 SWAP7 AND DUP7 MSTORE PUSH1 0x20 DUP7 ADD SWAP5 SWAP1 SWAP5 MSTORE DUP5 DUP5 ADD SWAP3 SWAP1 SWAP3 MSTORE PUSH1 0x60 DUP5 ADD MSTORE ISZERO ISZERO PUSH1 0x80 DUP4 ADD MSTORE MLOAD SWAP1 DUP2 SWAP1 SUB PUSH1 0xA0 ADD SWAP1 RETURN JUMPDEST PUSH2 0x18D PUSH2 0x44C JUMP JUMPDEST PUSH1 0x40 DUP1 MLOAD SWAP2 DUP3 MSTORE MLOAD SWAP1 DUP2 SWAP1 SUB PUSH1 0x20 ADD SWAP1 RETURN JUMPDEST PUSH2 0x1C2 PUSH1 0x4 DUP1 CALLDATASIZE SUB PUSH1 0x40 DUP2 LT ISZERO PUSH2 0x1B5 JUMPI PUSH1 0x0 DUP1 REVERT JUMPDEST POP DUP1 CALLDATALOAD SWAP1 PUSH1 0x20 ADD CALLDATALOAD PUSH2 0x452 JUMP JUMPDEST STOP JUMPDEST PUSH2 0x18D PUSH1 0x4 DUP1 CALLDATASIZE SUB PUSH1 0x40 DUP2 LT ISZERO PUSH2 0x1DA JUMPI PUSH1 0x0 DUP1 REVERT JUMPDEST POP DUP1 CALLDATALOAD SWAP1 PUSH1 0x20 ADD CALLDATALOAD PUSH2 0x500 JUMP JUMPDEST PUSH2 0x1C2 PUSH1 0x4 DUP1 CALLDATASIZE SUB PUSH1 0x40 DUP2 LT ISZERO PUSH2 0x1FD JUMPI PUSH1 0x0 DUP1 REVERT JUMPDEST POP DUP1 CALLDATALOAD SWAP1 PUSH1 0x20 ADD CALLDATALOAD PUSH2 0x6BF JUMP JUMPDEST PUSH2 0x1C2 PUSH1 0x4 DUP1 CALLDATASIZE SUB PUSH1 0x20 DUP2 LT ISZERO PUSH2 0x220 JUMPI PUSH1 0x0 DUP1 REVERT JUMPDEST POP CALLDATALOAD PUSH2 0x87C JUMP JUMPDEST PUSH2 0x1C2 PUSH1 0x4 DUP1 CALLDATASIZE SUB PUSH1 0x20 DUP2 LT ISZERO PUSH2 0x23D JUMPI PUSH1 0x0 DUP1 REVERT JUMPDEST POP CALLDATALOAD PUSH2 0x9DA JUMP JUMPDEST PUSH2 0x1C2 PUSH1 0x4 DUP1 CALLDATASIZE SUB PUSH1 0x60 DUP2 LT ISZERO PUSH2 0x25A JUMPI PUSH1 0x0 DUP1 REVERT JUMPDEST POP PUSH1 0x1 PUSH1 0x1 PUSH1 0xA0 SHL SUB DUP2 CALLDATALOAD DUP2 AND SWAP2 PUSH1 0x20 DUP2 ADD CALLDATALOAD SWAP2 PUSH1 0x40 SWAP1 SWAP2 ADD CALLDATALOAD AND PUSH2 0xA76 JUMP JUMPDEST PUSH2 0x282 PUSH2 0xBBE JUMP JUMPDEST PUSH1 0x40 DUP1 MLOAD PUSH1 0x1 PUSH1 0x1 PUSH1 0xA0 SHL SUB SWAP1 SWAP3 AND DUP3 MSTORE MLOAD SWAP1 DUP2 SWAP1 SUB PUSH1 0x20 ADD SWAP1 RETURN JUMPDEST PUSH2 0x18D PUSH2 0xBCD JUMP JUMPDEST PUSH2 0x1C2 PUSH2 0xBD3 JUMP JUMPDEST PUSH2 0x18D PUSH1 0x4 DUP1 CALLDATASIZE SUB PUSH1 0x20 DUP2 LT ISZERO PUSH2 0x2C4 JUMPI PUSH1 0x0 DUP1 REVERT JUMPDEST POP CALLDATALOAD PUSH2 0xBF6 JUMP JUMPDEST PUSH2 0x18D PUSH1 0x4 DUP1 CALLDATASIZE SUB PUSH1 0x40 DUP2 LT ISZERO PUSH2 0x2E1 JUMPI PUSH1 0x0 DUP1 REVERT JUMPDEST POP DUP1 CALLDATALOAD SWAP1 PUSH1 0x20 ADD CALLDATALOAD PUSH1 0x1 PUSH1 0x1 PUSH1 0xA0 SHL SUB AND PUSH2 0xC0A JUMP JUMPDEST PUSH2 0x323 PUSH1 0x4 DUP1 CALLDATASIZE SUB PUSH1 0x40 DUP2 LT ISZERO PUSH2 0x30D JUMPI PUSH1 0x0 DUP1 REVERT JUMPDEST POP DUP1 CALLDATALOAD SWAP1 PUSH1 0x20 ADD CALLDATALOAD PUSH1 0x1 PUSH1 0x1 PUSH1 0xA0 SHL SUB AND PUSH2 0xD66 JUMP JUMPDEST PUSH1 0x40 DUP1 MLOAD SWAP3 DUP4 MSTORE PUSH1 0x20 DUP4 ADD SWAP2 SWAP1 SWAP2 MSTORE DUP1 MLOAD SWAP2 DUP3 SWAP1 SUB ADD SWAP1 RETURN JUMPDEST PUSH2 0x1C2 PUSH1 0x4 DUP1 CALLDATASIZE SUB PUSH1 0x80 DUP2 LT ISZERO PUSH2 0x352 JUMPI PUSH1 0x0 DUP1 REVERT JUMPDEST POP DUP1 CALLDATALOAD SWAP1 PUSH1 0x1 PUSH1 0x1 PUSH1 0xA0 SHL SUB PUSH1 0x20 DUP3 ADD CALLDATALOAD AND SWAP1 PUSH1 0x40 DUP2 ADD CALLDATALOAD ISZERO ISZERO SWAP1 PUSH1 0x60 ADD CALLDATALOAD PUSH2 0xD8A JUMP JUMPDEST PUSH2 0x18D PUSH1 0x4 DUP1 CALLDATASIZE SUB PUSH1 0x20 DUP2 LT ISZERO PUSH2 0x38C JUMPI PUSH1 0x0 DUP1 REVERT JUMPDEST POP CALLDATALOAD PUSH2 0xF87 JUMP JUMPDEST PUSH2 0x1C2 PUSH1 0x4 DUP1 CALLDATASIZE SUB PUSH1 0x20 DUP2 LT ISZERO PUSH2 0x3A9 JUMPI PUSH1 0x0 DUP1 REVERT JUMPDEST POP CALLDATALOAD PUSH1 0x1 PUSH1 0x1 PUSH1 0xA0 SHL SUB AND PUSH2 0xFA5 JUMP JUMPDEST PUSH2 0x18D PUSH1 0x4 DUP1 CALLDATASIZE SUB PUSH1 0x20 DUP2 LT ISZERO PUSH2 0x3CF JUMPI PUSH1 0x0 DUP1 REVERT JUMPDEST POP CALLDATALOAD PUSH2 0x1010 JUMP JUMPDEST PUSH2 0x282 PUSH2 0x101D JUMP JUMPDEST PUSH2 0x1C2 PUSH1 0x4 DUP1 CALLDATASIZE SUB PUSH1 0x40 DUP2 LT ISZERO PUSH2 0x3F4 JUMPI PUSH1 0x0 DUP1 REVERT JUMPDEST POP DUP1 CALLDATALOAD SWAP1 PUSH1 0x20 ADD CALLDATALOAD PUSH2 0x102C JUMP JUMPDEST PUSH1 0x2 DUP2 DUP2 SLOAD DUP2 LT PUSH2 0x40E JUMPI INVALID JUMPDEST PUSH1 0x0 SWAP2 DUP3 MSTORE PUSH1 0x20 SWAP1 SWAP2 KECCAK256 PUSH1 0x5 SWAP1 SWAP2 MUL ADD DUP1 SLOAD PUSH1 0x1 DUP3 ADD SLOAD PUSH1 0x2 DUP4 ADD SLOAD PUSH1 0x3 DUP5 ADD SLOAD PUSH1 0x4 SWAP1 SWAP5 ADD SLOAD PUSH1 0x1 PUSH1 0x1 PUSH1 0xA0 SHL SUB SWAP1 SWAP4 AND SWAP5 POP SWAP1 SWAP3 SWAP1 SWAP2 PUSH1 0xFF AND DUP6 JUMP JUMPDEST PUSH1 0x4 SLOAD DUP2 JUMP JUMPDEST PUSH1 0x0 SLOAD PUSH1 0x1 PUSH1 0x1 PUSH1 0xA0 SHL SUB AND CALLER EQ PUSH2 0x49B JUMPI PUSH1 0x40 MLOAD PUSH3 0x461BCD PUSH1 0xE5 SHL DUP2 MSTORE PUSH1 0x4 ADD DUP1 DUP1 PUSH1 0x20 ADD DUP3 DUP2 SUB DUP3 MSTORE PUSH1 0x2A DUP2 MSTORE PUSH1 0x20 ADD DUP1 PUSH2 0x17DB PUSH1 0x2A SWAP2 CODECOPY PUSH1 0x40 ADD SWAP2 POP POP PUSH1 0x40 MLOAD DUP1 SWAP2 SUB SWAP1 REVERT JUMPDEST PUSH2 0x4A3 PUSH2 0xBD3 JUMP JUMPDEST PUSH1 0x0 PUSH1 0x2 DUP4 DUP2 SLOAD DUP2 LT PUSH2 0x4B2 JUMPI INVALID JUMPDEST PUSH1 0x0 SWAP2 DUP3 MSTORE PUSH1 0x20 SWAP1 SWAP2 KECCAK256 PUSH1 0x5 SWAP1 SWAP2 MUL ADD PUSH1 0x4 DUP2 ADD SLOAD SWAP1 SWAP2 POP PUSH1 0xFF AND ISZERO PUSH2 0x4F9 JUMPI PUSH2 0x4F5 DUP3 PUSH2 0x4EF DUP4 PUSH1 0x1 ADD SLOAD PUSH1 0x4 SLOAD PUSH2 0x1203 SWAP1 SWAP2 SWAP1 PUSH4 0xFFFFFFFF AND JUMP JUMPDEST SWAP1 PUSH2 0x1260 JUMP JUMPDEST PUSH1 0x4 SSTORE JUMPDEST PUSH1 0x1 ADD SSTORE POP JUMP JUMPDEST PUSH1 0x0 PUSH1 0x2 JUMPDEST PUSH1 0x1 DUP2 PUSH1 0xFF AND LT PUSH2 0x6A4 JUMPI PUSH1 0x7 PUSH1 0x1 DUP3 SUB PUSH1 0xFF AND PUSH1 0x3 DUP2 LT PUSH2 0x523 JUMPI INVALID JUMPDEST ADD SLOAD DUP4 LT PUSH2 0x69B JUMPI PUSH1 0x7 PUSH1 0x1 DUP3 SUB PUSH1 0xFF AND PUSH1 0x3 DUP2 LT PUSH2 0x53E JUMPI INVALID JUMPDEST ADD SLOAD DUP5 LT PUSH2 0x573 JUMPI PUSH2 0x56B PUSH1 0xA DUP3 PUSH1 0xFF AND PUSH1 0x3 DUP2 LT PUSH2 0x559 JUMPI INVALID JUMPDEST ADD SLOAD PUSH2 0x565 DUP6 DUP8 PUSH2 0x1203 JUMP JUMPDEST SWAP1 PUSH2 0x12BA JUMP JUMPDEST SWAP2 POP POP PUSH2 0x6B9 JUMP JUMPDEST PUSH1 0x0 PUSH2 0x5A9 PUSH1 0xA DUP4 PUSH1 0xFF AND PUSH1 0x3 DUP2 LT PUSH2 0x588 JUMPI INVALID JUMPDEST ADD SLOAD PUSH2 0x565 PUSH1 0x7 PUSH1 0x1 DUP7 SUB PUSH1 0xFF AND PUSH1 0x3 DUP2 LT PUSH2 0x5A0 JUMPI INVALID JUMPDEST ADD SLOAD DUP8 SWAP1 PUSH2 0x1203 JUMP JUMPDEST SWAP1 POP DUP2 PUSH1 0xFF AND PUSH1 0x1 EQ ISZERO PUSH2 0x5E5 JUMPI PUSH2 0x5DC PUSH2 0x5D5 PUSH1 0xA PUSH1 0x0 JUMPDEST ADD SLOAD PUSH2 0x565 DUP9 PUSH1 0x7 PUSH1 0x0 JUMPDEST ADD SLOAD SWAP1 PUSH2 0x1203 JUMP JUMPDEST DUP3 SWAP1 PUSH2 0x1260 JUMP JUMPDEST SWAP3 POP POP POP PUSH2 0x6B9 JUMP JUMPDEST PUSH1 0x1 DUP3 SUB SWAP2 POP JUMPDEST PUSH1 0x1 DUP3 PUSH1 0xFF AND LT PUSH2 0x68C JUMPI PUSH1 0x7 PUSH1 0x1 DUP4 SUB PUSH1 0xFF AND PUSH1 0x3 DUP2 LT PUSH2 0x60A JUMPI INVALID JUMPDEST ADD SLOAD DUP6 LT PUSH2 0x63E JUMPI PUSH2 0x5DC PUSH2 0x5D5 PUSH1 0xA DUP5 PUSH1 0xFF AND PUSH1 0x3 DUP2 LT PUSH2 0x628 JUMPI INVALID JUMPDEST ADD SLOAD PUSH2 0x565 DUP9 PUSH1 0x7 DUP8 PUSH1 0xFF AND PUSH1 0x3 DUP2 LT PUSH2 0x5CD JUMPI INVALID JUMPDEST PUSH2 0x67E PUSH2 0x5D5 PUSH1 0xA DUP5 PUSH1 0xFF AND PUSH1 0x3 DUP2 LT PUSH2 0x654 JUMPI INVALID JUMPDEST ADD SLOAD PUSH2 0x565 PUSH1 0x7 PUSH1 0x1 DUP8 SUB PUSH1 0xFF AND PUSH1 0x3 DUP2 LT PUSH2 0x66C JUMPI INVALID JUMPDEST ADD SLOAD PUSH1 0x7 DUP8 PUSH1 0xFF AND PUSH1 0x3 DUP2 LT PUSH2 0x5CD JUMPI INVALID JUMPDEST PUSH1 0x0 NOT SWAP1 SWAP3 ADD SWAP2 SWAP1 POP PUSH2 0x5EC JUMP JUMPDEST PUSH2 0x5DC PUSH2 0x5D5 PUSH1 0xA PUSH1 0x0 PUSH2 0x5C2 JUMP JUMPDEST PUSH1 0x0 NOT ADD PUSH2 0x505 JUMP JUMPDEST POP PUSH1 0xA SLOAD PUSH2 0x6B6 SWAP1 PUSH2 0x565 DUP5 DUP7 PUSH2 0x1203 JUMP JUMPDEST SWAP1 POP JUMPDEST SWAP3 SWAP2 POP POP JUMP JUMPDEST PUSH1 0x0 CALLER SWAP1 POP PUSH1 0x0 PUSH1 0x2 DUP5 DUP2 SLOAD DUP2 LT PUSH2 0x6D3 JUMPI INVALID JUMPDEST PUSH1 0x0 SWAP2 DUP3 MSTORE PUSH1 0x20 DUP1 DUP4 KECCAK256 DUP8 DUP5 MSTORE PUSH1 0x3 DUP3 MSTORE PUSH1 0x40 DUP1 DUP6 KECCAK256 PUSH1 0x1 PUSH1 0x1 PUSH1 0xA0 SHL SUB DUP9 AND DUP7 MSTORE SWAP1 SWAP3 MSTORE SWAP3 KECCAK256 DUP1 SLOAD PUSH1 0x5 SWAP1 SWAP3 MUL SWAP1 SWAP3 ADD SWAP3 POP DUP5 GT ISZERO PUSH2 0x74F JUMPI PUSH1 0x40 DUP1 MLOAD PUSH3 0x461BCD PUSH1 0xE5 SHL DUP2 MSTORE PUSH1 0x20 PUSH1 0x4 DUP3 ADD MSTORE PUSH1 0x12 PUSH1 0x24 DUP3 ADD MSTORE PUSH18 0x1DDA5D1A191C985DCE881B9BDD0819DBDBD9 PUSH1 0x72 SHL PUSH1 0x44 DUP3 ADD MSTORE SWAP1 MLOAD SWAP1 DUP2 SWAP1 SUB PUSH1 0x64 ADD SWAP1 REVERT JUMPDEST PUSH2 0x758 DUP6 PUSH2 0x87C JUMP JUMPDEST PUSH1 0x0 PUSH2 0x795 DUP3 PUSH1 0x1 ADD SLOAD PUSH2 0x78F PUSH8 0xDE0B6B3A7640000 PUSH2 0x789 DUP8 PUSH1 0x3 ADD SLOAD DUP8 PUSH1 0x0 ADD SLOAD PUSH2 0x12BA SWAP1 SWAP2 SWAP1 PUSH4 0xFFFFFFFF AND JUMP JUMPDEST SWAP1 PUSH2 0x119C JUMP JUMPDEST SWAP1 PUSH2 0x1203 JUMP JUMPDEST SWAP1 POP DUP1 ISZERO PUSH2 0x7E7 JUMPI PUSH2 0x7A7 DUP5 DUP3 PUSH2 0x1313 JUMP JUMPDEST PUSH1 0x40 DUP1 MLOAD DUP3 DUP2 MSTORE SWAP1 MLOAD PUSH1 0x1 PUSH1 0x1 PUSH1 0xA0 SHL SUB DUP7 AND SWAP2 PUSH32 0xE2403640BA68FED3A2F88B7557551D1993F84B99BB10FF833F0CF8DB0C5E0486 SWAP2 SWAP1 DUP2 SWAP1 SUB PUSH1 0x20 ADD SWAP1 LOG2 JUMPDEST DUP5 ISZERO PUSH2 0x811 JUMPI DUP2 SLOAD PUSH2 0x7F9 SWAP1 DUP7 PUSH2 0x1203 JUMP JUMPDEST DUP3 SSTORE DUP3 SLOAD PUSH2 0x811 SWAP1 PUSH1 0x1 PUSH1 0x1 PUSH1 0xA0 SHL SUB AND DUP6 DUP8 PUSH2 0x13C9 JUMP JUMPDEST PUSH1 0x3 DUP4 ADD SLOAD DUP3 SLOAD PUSH2 0x82F SWAP2 PUSH8 0xDE0B6B3A7640000 SWAP2 PUSH2 0x789 SWAP2 PUSH2 0x12BA JUMP JUMPDEST PUSH1 0x1 DUP4 ADD SSTORE PUSH1 0x40 DUP1 MLOAD DUP7 DUP2 MSTORE SWAP1 MLOAD DUP8 SWAP2 PUSH1 0x1 PUSH1 0x1 PUSH1 0xA0 SHL SUB DUP8 AND SWAP2 PUSH32 0xF279E6A1F5E320CCA91135676D9CB6E44CA8A08C0B88342BCDB1144F6511B568 SWAP2 DUP2 SWAP1 SUB PUSH1 0x20 ADD SWAP1 LOG3 POP POP POP POP POP POP JUMP JUMPDEST PUSH1 0x0 PUSH1 0x2 DUP3 DUP2 SLOAD DUP2 LT PUSH2 0x88B JUMPI INVALID JUMPDEST SWAP1 PUSH1 0x0 MSTORE PUSH1 0x20 PUSH1 0x0 KECCAK256 SWAP1 PUSH1 0x5 MUL ADD SWAP1 POP DUP1 PUSH1 0x2 ADD SLOAD TIMESTAMP GT PUSH2 0x8AC JUMPI POP PUSH2 0x9D7 JUMP JUMPDEST DUP1 SLOAD PUSH1 0x40 DUP1 MLOAD PUSH4 0x70A08231 PUSH1 0xE0 SHL DUP2 MSTORE ADDRESS PUSH1 0x4 DUP3 ADD MSTORE SWAP1 MLOAD PUSH1 0x0 SWAP3 PUSH1 0x1 PUSH1 0x1 PUSH1 0xA0 SHL SUB AND SWAP2 PUSH4 0x70A08231 SWAP2 PUSH1 0x24 DUP1 DUP4 ADD SWAP3 PUSH1 0x20 SWAP3 SWAP2 SWAP1 DUP3 SWAP1 SUB ADD DUP2 DUP7 DUP1 EXTCODESIZE ISZERO DUP1 ISZERO PUSH2 0x8F6 JUMPI PUSH1 0x0 DUP1 REVERT JUMPDEST POP GAS STATICCALL ISZERO DUP1 ISZERO PUSH2 0x90A JUMPI RETURNDATASIZE PUSH1 0x0 DUP1 RETURNDATACOPY RETURNDATASIZE PUSH1 0x0 REVERT JUMPDEST POP POP POP POP PUSH1 0x40 MLOAD RETURNDATASIZE PUSH1 0x20 DUP2 LT ISZERO PUSH2 0x920 JUMPI PUSH1 0x0 DUP1 REVERT JUMPDEST POP MLOAD SWAP1 POP DUP1 PUSH2 0x936 JUMPI POP TIMESTAMP PUSH1 0x2 SWAP1 SWAP2 ADD SSTORE PUSH2 0x9D7 JUMP JUMPDEST PUSH1 0x4 DUP3 ADD SLOAD PUSH1 0xFF AND PUSH2 0x967 JUMPI PUSH1 0x4 DUP1 DUP4 ADD DUP1 SLOAD PUSH1 0xFF NOT AND PUSH1 0x1 SWAP1 DUP2 OR SWAP1 SWAP2 SSTORE DUP4 ADD SLOAD SWAP1 SLOAD PUSH2 0x963 SWAP2 PUSH2 0x1260 JUMP JUMPDEST PUSH1 0x4 SSTORE JUMPDEST PUSH1 0x4 SLOAD ISZERO PUSH2 0x9CE JUMPI PUSH1 0x0 PUSH2 0x97F DUP4 PUSH1 0x2 ADD SLOAD TIMESTAMP PUSH2 0x500 JUMP JUMPDEST SWAP1 POP PUSH1 0x0 PUSH2 0x9A0 PUSH1 0x4 SLOAD PUSH2 0x789 DUP7 PUSH1 0x1 ADD SLOAD DUP6 PUSH2 0x12BA SWAP1 SWAP2 SWAP1 PUSH4 0xFFFFFFFF AND JUMP JUMPDEST SWAP1 POP PUSH2 0x9C6 PUSH2 0x9BB DUP5 PUSH2 0x789 DUP5 PUSH8 0xDE0B6B3A7640000 PUSH2 0x12BA JUMP JUMPDEST PUSH1 0x3 DUP7 ADD SLOAD SWAP1 PUSH2 0x1260 JUMP JUMPDEST PUSH1 0x3 DUP6 ADD SSTORE POP POP JUMPDEST POP TIMESTAMP PUSH1 0x2 SWAP1 SWAP2 ADD SSTORE JUMPDEST POP JUMP JUMPDEST PUSH1 0x0 PUSH1 0x2 DUP3 DUP2 SLOAD DUP2 LT PUSH2 0x9E9 JUMPI INVALID JUMPDEST PUSH1 0x0 SWAP2 DUP3 MSTORE PUSH1 0x20 DUP1 DUP4 KECCAK256 DUP6 DUP5 MSTORE PUSH1 0x3 DUP3 MSTORE PUSH1 0x40 DUP1 DUP6 KECCAK256 CALLER DUP1 DUP8 MSTORE SWAP4 MSTORE DUP5 KECCAK256 DUP1 SLOAD DUP6 DUP3 SSTORE PUSH1 0x1 DUP3 ADD SWAP6 SWAP1 SWAP6 SSTORE PUSH1 0x5 SWAP1 SWAP4 MUL ADD DUP1 SLOAD SWAP1 SWAP5 POP SWAP2 SWAP3 SWAP2 PUSH2 0xA39 SWAP2 PUSH1 0x1 PUSH1 0x1 PUSH1 0xA0 SHL SUB SWAP2 SWAP1 SWAP2 AND SWAP1 DUP4 PUSH2 0x13C9 JUMP JUMPDEST PUSH1 0x40 DUP1 MLOAD DUP3 DUP2 MSTORE SWAP1 MLOAD DUP6 SWAP2 CALLER SWAP2 PUSH32 0xBB757047C2B5F3974FE26B7C10F732E7BCE710B0952A71082702781E62AE0595 SWAP2 DUP2 SWAP1 SUB PUSH1 0x20 ADD SWAP1 LOG3 POP POP POP POP JUMP JUMPDEST PUSH1 0x0 SLOAD PUSH1 0x1 PUSH1 0x1 PUSH1 0xA0 SHL SUB AND CALLER EQ PUSH2 0xABF JUMPI PUSH1 0x40 MLOAD PUSH3 0x461BCD PUSH1 0xE5 SHL DUP2 MSTORE PUSH1 0x4 ADD DUP1 DUP1 PUSH1 0x20 ADD DUP3 DUP2 SUB DUP3 MSTORE PUSH1 0x2A DUP2 MSTORE PUSH1 0x20 ADD DUP1 PUSH2 0x17DB PUSH1 0x2A SWAP2 CODECOPY PUSH1 0x40 ADD SWAP2 POP POP PUSH1 0x40 MLOAD DUP1 SWAP2 SUB SWAP1 REVERT JUMPDEST PUSH1 0x8 SLOAD PUSH3 0x278D00 ADD TIMESTAMP LT ISZERO PUSH2 0xBA5 JUMPI PUSH1 0x1 SLOAD PUSH1 0x1 PUSH1 0x1 PUSH1 0xA0 SHL SUB DUP5 DUP2 AND SWAP2 AND EQ ISZERO PUSH2 0xB19 JUMPI PUSH1 0x40 DUP1 MLOAD PUSH3 0x461BCD PUSH1 0xE5 SHL DUP2 MSTORE PUSH1 0x20 PUSH1 0x4 DUP3 ADD MSTORE PUSH1 0x5 PUSH1 0x24 DUP3 ADD MSTORE PUSH5 0x10BA37B6B1 PUSH1 0xD9 SHL PUSH1 0x44 DUP3 ADD MSTORE SWAP1 MLOAD SWAP1 DUP2 SWAP1 SUB PUSH1 0x64 ADD SWAP1 REVERT JUMPDEST PUSH1 0x2 SLOAD PUSH1 0x0 JUMPDEST DUP2 DUP2 LT ISZERO PUSH2 0xBA2 JUMPI PUSH1 0x0 PUSH1 0x2 DUP3 DUP2 SLOAD DUP2 LT PUSH2 0xB36 JUMPI INVALID JUMPDEST PUSH1 0x0 SWAP2 DUP3 MSTORE PUSH1 0x20 SWAP1 SWAP2 KECCAK256 PUSH1 0x5 SWAP1 SWAP2 MUL ADD DUP1 SLOAD SWAP1 SWAP2 POP PUSH1 0x1 PUSH1 0x1 PUSH1 0xA0 SHL SUB DUP8 DUP2 AND SWAP2 AND EQ ISZERO PUSH2 0xB99 JUMPI PUSH1 0x40 DUP1 MLOAD PUSH3 0x461BCD PUSH1 0xE5 SHL DUP2 MSTORE PUSH1 0x20 PUSH1 0x4 DUP3 ADD MSTORE PUSH1 0xB PUSH1 0x24 DUP3 ADD MSTORE PUSH11 0x10B837B7B6173A37B5B2B7 PUSH1 0xA9 SHL PUSH1 0x44 DUP3 ADD MSTORE SWAP1 MLOAD SWAP1 DUP2 SWAP1 SUB PUSH1 0x64 ADD SWAP1 REVERT JUMPDEST POP PUSH1 0x1 ADD PUSH2 0xB1F JUMP JUMPDEST POP POP JUMPDEST PUSH2 0xBB9 PUSH1 0x1 PUSH1 0x1 PUSH1 0xA0 SHL SUB DUP5 AND DUP3 DUP5 PUSH2 0x13C9 JUMP JUMPDEST POP POP POP JUMP JUMPDEST PUSH1 0x0 SLOAD PUSH1 0x1 PUSH1 0x1 PUSH1 0xA0 SHL SUB AND DUP2 JUMP JUMPDEST PUSH1 0x5 SLOAD DUP2 JUMP JUMPDEST PUSH1 0x2 SLOAD PUSH1 0x0 JUMPDEST DUP2 DUP2 LT ISZERO PUSH2 0xBF2 JUMPI PUSH2 0xBEA DUP2 PUSH2 0x87C JUMP JUMPDEST PUSH1 0x1 ADD PUSH2 0xBD9 JUMP JUMPDEST POP POP JUMP JUMPDEST PUSH1 0xA DUP2 PUSH1 0x3 DUP2 LT PUSH2 0xC03 JUMPI INVALID JUMPDEST ADD SLOAD SWAP1 POP DUP2 JUMP JUMPDEST PUSH1 0x0 DUP1 PUSH1 0x2 DUP5 DUP2 SLOAD DUP2 LT PUSH2 0xC1A JUMPI INVALID JUMPDEST PUSH1 0x0 SWAP2 DUP3 MSTORE PUSH1 0x20 DUP1 DUP4 KECCAK256 DUP8 DUP5 MSTORE PUSH1 0x3 DUP1 DUP4 MSTORE PUSH1 0x40 DUP1 DUP7 KECCAK256 PUSH1 0x1 PUSH1 0x1 PUSH1 0xA0 SHL SUB DUP1 DUP12 AND DUP9 MSTORE SWAP1 DUP6 MSTORE DUP2 DUP8 KECCAK256 PUSH1 0x5 SWAP1 SWAP7 MUL SWAP1 SWAP4 ADD SWAP2 DUP3 ADD SLOAD DUP3 SLOAD DUP3 MLOAD PUSH4 0x70A08231 PUSH1 0xE0 SHL DUP2 MSTORE ADDRESS PUSH1 0x4 DUP3 ADD MSTORE SWAP3 MLOAD SWAP4 SWAP9 POP SWAP6 SWAP7 SWAP1 SWAP6 SWAP1 SWAP5 SWAP4 AND SWAP3 PUSH4 0x70A08231 SWAP3 PUSH1 0x24 DUP1 DUP5 ADD SWAP4 DUP3 SWAP1 SUB ADD DUP2 DUP7 DUP1 EXTCODESIZE ISZERO DUP1 ISZERO PUSH2 0xC92 JUMPI PUSH1 0x0 DUP1 REVERT JUMPDEST POP GAS STATICCALL ISZERO DUP1 ISZERO PUSH2 0xCA6 JUMPI RETURNDATASIZE PUSH1 0x0 DUP1 RETURNDATACOPY RETURNDATASIZE PUSH1 0x0 REVERT JUMPDEST POP POP POP POP PUSH1 0x40 MLOAD RETURNDATASIZE PUSH1 0x20 DUP2 LT ISZERO PUSH2 0xCBC JUMPI PUSH1 0x0 DUP1 REVERT JUMPDEST POP MLOAD PUSH1 0x2 DUP6 ADD SLOAD SWAP1 SWAP2 POP TIMESTAMP GT DUP1 ISZERO PUSH2 0xCD3 JUMPI POP DUP1 ISZERO ISZERO JUMPDEST ISZERO PUSH2 0xD30 JUMPI PUSH1 0x0 PUSH2 0xCE8 DUP6 PUSH1 0x2 ADD SLOAD TIMESTAMP PUSH2 0x500 JUMP JUMPDEST SWAP1 POP PUSH1 0x0 PUSH2 0xD09 PUSH1 0x4 SLOAD PUSH2 0x789 DUP9 PUSH1 0x1 ADD SLOAD DUP6 PUSH2 0x12BA SWAP1 SWAP2 SWAP1 PUSH4 0xFFFFFFFF AND JUMP JUMPDEST SWAP1 POP PUSH2 0xD2B PUSH2 0xD24 DUP5 PUSH2 0x789 DUP5 PUSH8 0xDE0B6B3A7640000 PUSH2 0x12BA JUMP JUMPDEST DUP6 SWAP1 PUSH2 0x1260 JUMP JUMPDEST SWAP4 POP POP POP JUMPDEST PUSH2 0xD5B DUP4 PUSH1 0x1 ADD SLOAD PUSH2 0x78F PUSH8 0xDE0B6B3A7640000 PUSH2 0x789 DUP7 DUP9 PUSH1 0x0 ADD SLOAD PUSH2 0x12BA SWAP1 SWAP2 SWAP1 PUSH4 0xFFFFFFFF AND JUMP JUMPDEST SWAP8 SWAP7 POP POP POP POP POP POP POP JUMP JUMPDEST PUSH1 0x3 PUSH1 0x20 SWAP1 DUP2 MSTORE PUSH1 0x0 SWAP3 DUP4 MSTORE PUSH1 0x40 DUP1 DUP5 KECCAK256 SWAP1 SWAP2 MSTORE SWAP1 DUP3 MSTORE SWAP1 KECCAK256 DUP1 SLOAD PUSH1 0x1 SWAP1 SWAP2 ADD SLOAD DUP3 JUMP JUMPDEST PUSH1 0x0 SLOAD PUSH1 0x1 PUSH1 0x1 PUSH1 0xA0 SHL SUB AND CALLER EQ PUSH2 0xDD3 JUMPI PUSH1 0x40 MLOAD PUSH3 0x461BCD PUSH1 0xE5 SHL DUP2 MSTORE PUSH1 0x4 ADD DUP1 DUP1 PUSH1 0x20 ADD DUP3 DUP2 SUB DUP3 MSTORE PUSH1 0x2A DUP2 MSTORE PUSH1 0x20 ADD DUP1 PUSH2 0x17DB PUSH1 0x2A SWAP2 CODECOPY PUSH1 0x40 ADD SWAP2 POP POP PUSH1 0x40 MLOAD DUP1 SWAP2 SUB SWAP1 REVERT JUMPDEST PUSH2 0xDDC DUP4 PUSH2 0x141B JUMP JUMPDEST DUP2 ISZERO PUSH2 0xDEA JUMPI PUSH2 0xDEA PUSH2 0xBD3 JUMP JUMPDEST PUSH1 0x5 SLOAD TIMESTAMP LT ISZERO PUSH2 0xE16 JUMPI DUP1 PUSH2 0xE02 JUMPI POP PUSH1 0x5 SLOAD PUSH2 0xE11 JUMP JUMPDEST PUSH1 0x5 SLOAD DUP2 LT ISZERO PUSH2 0xE11 JUMPI POP PUSH1 0x5 SLOAD JUMPDEST PUSH2 0xE2A JUMP JUMPDEST DUP1 ISZERO DUP1 PUSH2 0xE22 JUMPI POP TIMESTAMP DUP2 LT JUMPDEST ISZERO PUSH2 0xE2A JUMPI POP TIMESTAMP JUMPDEST PUSH1 0x0 PUSH1 0x5 SLOAD DUP3 GT ISZERO DUP1 PUSH2 0xE3D JUMPI POP TIMESTAMP DUP3 GT ISZERO JUMPDEST PUSH1 0x40 DUP1 MLOAD PUSH1 0xA0 DUP2 ADD DUP3 MSTORE PUSH1 0x1 PUSH1 0x1 PUSH1 0xA0 SHL SUB DUP8 DUP2 AND DUP3 MSTORE PUSH1 0x20 DUP3 ADD DUP10 DUP2 MSTORE SWAP3 DUP3 ADD DUP7 DUP2 MSTORE PUSH1 0x0 PUSH1 0x60 DUP5 ADD DUP2 DUP2 MSTORE DUP7 ISZERO DUP1 ISZERO PUSH1 0x80 DUP8 ADD SWAP1 DUP2 MSTORE PUSH1 0x2 DUP1 SLOAD PUSH1 0x1 DUP2 ADD DUP3 SSTORE SWAP5 MSTORE SWAP6 MLOAD PUSH32 0x405787FA12A823E0F2B7631CC41B3BA8828B3321CA811111FA75CD3AA3BB5ACE PUSH1 0x5 SWAP1 SWAP5 MUL SWAP4 DUP5 ADD DUP1 SLOAD PUSH1 0x1 PUSH1 0x1 PUSH1 0xA0 SHL SUB NOT AND SWAP2 SWAP1 SWAP7 AND OR SWAP1 SWAP5 SSTORE SWAP5 MLOAD PUSH32 0x405787FA12A823E0F2B7631CC41B3BA8828B3321CA811111FA75CD3AA3BB5ACF DUP3 ADD SSTORE SWAP1 MLOAD PUSH32 0x405787FA12A823E0F2B7631CC41B3BA8828B3321CA811111FA75CD3AA3BB5AD0 DUP3 ADD SSTORE SWAP3 MLOAD PUSH32 0x405787FA12A823E0F2B7631CC41B3BA8828B3321CA811111FA75CD3AA3BB5AD1 DUP5 ADD SSTORE SWAP1 MLOAD PUSH32 0x405787FA12A823E0F2B7631CC41B3BA8828B3321CA811111FA75CD3AA3BB5AD2 SWAP1 SWAP3 ADD DUP1 SLOAD PUSH1 0xFF NOT AND SWAP3 ISZERO ISZERO SWAP3 SWAP1 SWAP3 OR SWAP1 SWAP2 SSTORE SWAP1 SWAP2 POP PUSH2 0xF80 JUMPI PUSH1 0x4 SLOAD PUSH2 0xF7C SWAP1 DUP7 PUSH2 0x1260 JUMP JUMPDEST PUSH1 0x4 SSTORE JUMPDEST POP POP POP POP POP JUMP JUMPDEST PUSH1 0x6 DUP2 DUP2 SLOAD DUP2 LT PUSH2 0xF94 JUMPI INVALID JUMPDEST PUSH1 0x0 SWAP2 DUP3 MSTORE PUSH1 0x20 SWAP1 SWAP2 KECCAK256 ADD SLOAD SWAP1 POP DUP2 JUMP JUMPDEST PUSH1 0x0 SLOAD PUSH1 0x1 PUSH1 0x1 PUSH1 0xA0 SHL SUB AND CALLER EQ PUSH2 0xFEE JUMPI PUSH1 0x40 MLOAD PUSH3 0x461BCD PUSH1 0xE5 SHL DUP2 MSTORE PUSH1 0x4 ADD DUP1 DUP1 PUSH1 0x20 ADD DUP3 DUP2 SUB DUP3 MSTORE PUSH1 0x2A DUP2 MSTORE PUSH1 0x20 ADD DUP1 PUSH2 0x17DB PUSH1 0x2A SWAP2 CODECOPY PUSH1 0x40 ADD SWAP2 POP POP PUSH1 0x40 MLOAD DUP1 SWAP2 SUB SWAP1 REVERT JUMPDEST PUSH1 0x0 DUP1 SLOAD PUSH1 0x1 PUSH1 0x1 PUSH1 0xA0 SHL SUB NOT AND PUSH1 0x1 PUSH1 0x1 PUSH1 0xA0 SHL SUB SWAP3 SWAP1 SWAP3 AND SWAP2 SWAP1 SWAP2 OR SWAP1 SSTORE JUMP JUMPDEST PUSH1 0x7 DUP2 PUSH1 0x3 DUP2 LT PUSH2 0xC03 JUMPI INVALID JUMPDEST PUSH1 0x1 SLOAD PUSH1 0x1 PUSH1 0x1 PUSH1 0xA0 SHL SUB AND DUP2 JUMP JUMPDEST PUSH1 0x0 CALLER SWAP1 POP PUSH1 0x0 PUSH1 0x2 DUP5 DUP2 SLOAD DUP2 LT PUSH2 0x1040 JUMPI INVALID JUMPDEST PUSH1 0x0 SWAP2 DUP3 MSTORE PUSH1 0x20 DUP1 DUP4 KECCAK256 DUP8 DUP5 MSTORE PUSH1 0x3 DUP3 MSTORE PUSH1 0x40 DUP1 DUP6 KECCAK256 PUSH1 0x1 PUSH1 0x1 PUSH1 0xA0 SHL SUB DUP9 AND DUP7 MSTORE SWAP1 SWAP3 MSTORE SWAP3 KECCAK256 PUSH1 0x5 SWAP1 SWAP2 MUL SWAP1 SWAP2 ADD SWAP2 POP PUSH2 0x107A DUP6 PUSH2 0x87C JUMP JUMPDEST DUP1 SLOAD ISZERO PUSH2 0x1106 JUMPI PUSH1 0x0 PUSH2 0x10B2 DUP3 PUSH1 0x1 ADD SLOAD PUSH2 0x78F PUSH8 0xDE0B6B3A7640000 PUSH2 0x789 DUP8 PUSH1 0x3 ADD SLOAD DUP8 PUSH1 0x0 ADD SLOAD PUSH2 0x12BA SWAP1 SWAP2 SWAP1 PUSH4 0xFFFFFFFF AND JUMP JUMPDEST SWAP1 POP DUP1 ISZERO PUSH2 0x1104 JUMPI PUSH2 0x10C4 DUP5 DUP3 PUSH2 0x1313 JUMP JUMPDEST PUSH1 0x40 DUP1 MLOAD DUP3 DUP2 MSTORE SWAP1 MLOAD PUSH1 0x1 PUSH1 0x1 PUSH1 0xA0 SHL SUB DUP7 AND SWAP2 PUSH32 0xE2403640BA68FED3A2F88B7557551D1993F84B99BB10FF833F0CF8DB0C5E0486 SWAP2 SWAP1 DUP2 SWAP1 SUB PUSH1 0x20 ADD SWAP1 LOG2 JUMPDEST POP JUMPDEST DUP4 ISZERO PUSH2 0x1132 JUMPI DUP2 SLOAD PUSH2 0x1123 SWAP1 PUSH1 0x1 PUSH1 0x1 PUSH1 0xA0 SHL SUB AND DUP5 ADDRESS DUP8 PUSH2 0x14B5 JUMP JUMPDEST DUP1 SLOAD PUSH2 0x112F SWAP1 DUP6 PUSH2 0x1260 JUMP JUMPDEST DUP2 SSTORE JUMPDEST PUSH1 0x3 DUP3 ADD SLOAD DUP2 SLOAD PUSH2 0x1150 SWAP2 PUSH8 0xDE0B6B3A7640000 SWAP2 PUSH2 0x789 SWAP2 PUSH2 0x12BA JUMP JUMPDEST PUSH1 0x1 DUP3 ADD SSTORE PUSH1 0x40 DUP1 MLOAD DUP6 DUP2 MSTORE SWAP1 MLOAD DUP7 SWAP2 PUSH1 0x1 PUSH1 0x1 PUSH1 0xA0 SHL SUB DUP7 AND SWAP2 PUSH32 0x90890809C654F11D6E72A28FA60149770A0D11EC6C92319D6CEB2BB0A4EA1A15 SWAP2 DUP2 SWAP1 SUB PUSH1 0x20 ADD SWAP1 LOG3 POP POP POP POP POP JUMP JUMPDEST PUSH1 0x0 DUP1 DUP3 GT PUSH2 0x11F2 JUMPI PUSH1 0x40 DUP1 MLOAD PUSH3 0x461BCD PUSH1 0xE5 SHL DUP2 MSTORE PUSH1 0x20 PUSH1 0x4 DUP3 ADD MSTORE PUSH1 0x1A PUSH1 0x24 DUP3 ADD MSTORE PUSH32 0x536166654D6174683A206469766973696F6E206279207A65726F000000000000 PUSH1 0x44 DUP3 ADD MSTORE SWAP1 MLOAD SWAP1 DUP2 SWAP1 SUB PUSH1 0x64 ADD SWAP1 REVERT JUMPDEST DUP2 DUP4 DUP2 PUSH2 0x11FB JUMPI INVALID JUMPDEST DIV SWAP4 SWAP3 POP POP POP JUMP JUMPDEST PUSH1 0x0 DUP3 DUP3 GT ISZERO PUSH2 0x125A JUMPI PUSH1 0x40 DUP1 MLOAD PUSH3 0x461BCD PUSH1 0xE5 SHL DUP2 MSTORE PUSH1 0x20 PUSH1 0x4 DUP3 ADD MSTORE PUSH1 0x1E PUSH1 0x24 DUP3 ADD MSTORE PUSH32 0x536166654D6174683A207375627472616374696F6E206F766572666C6F770000 PUSH1 0x44 DUP3 ADD MSTORE SWAP1 MLOAD SWAP1 DUP2 SWAP1 SUB PUSH1 0x64 ADD SWAP1 REVERT JUMPDEST POP SWAP1 SUB SWAP1 JUMP JUMPDEST PUSH1 0x0 DUP3 DUP3 ADD DUP4 DUP2 LT ISZERO PUSH2 0x6B6 JUMPI PUSH1 0x40 DUP1 MLOAD PUSH3 0x461BCD PUSH1 0xE5 SHL DUP2 MSTORE PUSH1 0x20 PUSH1 0x4 DUP3 ADD MSTORE PUSH1 0x1B PUSH1 0x24 DUP3 ADD MSTORE PUSH32 0x536166654D6174683A206164646974696F6E206F766572666C6F770000000000 PUSH1 0x44 DUP3 ADD MSTORE SWAP1 MLOAD SWAP1 DUP2 SWAP1 SUB PUSH1 0x64 ADD SWAP1 REVERT JUMPDEST PUSH1 0x0 DUP3 PUSH2 0x12C9 JUMPI POP PUSH1 0x0 PUSH2 0x6B9 JUMP JUMPDEST DUP3 DUP3 MUL DUP3 DUP5 DUP3 DUP2 PUSH2 0x12D6 JUMPI INVALID JUMPDEST DIV EQ PUSH2 0x6B6 JUMPI PUSH1 0x40 MLOAD PUSH3 0x461BCD PUSH1 0xE5 SHL DUP2 MSTORE PUSH1 0x4 ADD DUP1 DUP1 PUSH1 0x20 ADD DUP3 DUP2 SUB DUP3 MSTORE PUSH1 0x21 DUP2 MSTORE PUSH1 0x20 ADD DUP1 PUSH2 0x182B PUSH1 0x21 SWAP2 CODECOPY PUSH1 0x40 ADD SWAP2 POP POP PUSH1 0x40 MLOAD DUP1 SWAP2 SUB SWAP1 REVERT JUMPDEST PUSH1 0x1 SLOAD PUSH1 0x40 DUP1 MLOAD PUSH4 0x70A08231 PUSH1 0xE0 SHL DUP2 MSTORE ADDRESS PUSH1 0x4 DUP3 ADD MSTORE SWAP1 MLOAD PUSH1 0x0 SWAP3 PUSH1 0x1 PUSH1 0x1 PUSH1 0xA0 SHL SUB AND SWAP2 PUSH4 0x70A08231 SWAP2 PUSH1 0x24 DUP1 DUP4 ADD SWAP3 PUSH1 0x20 SWAP3 SWAP2 SWAP1 DUP3 SWAP1 SUB ADD DUP2 DUP7 DUP1 EXTCODESIZE ISZERO DUP1 ISZERO PUSH2 0x135E JUMPI PUSH1 0x0 DUP1 REVERT JUMPDEST POP GAS STATICCALL ISZERO DUP1 ISZERO PUSH2 0x1372 JUMPI RETURNDATASIZE PUSH1 0x0 DUP1 RETURNDATACOPY RETURNDATASIZE PUSH1 0x0 REVERT JUMPDEST POP POP POP POP PUSH1 0x40 MLOAD RETURNDATASIZE PUSH1 0x20 DUP2 LT ISZERO PUSH2 0x1388 JUMPI PUSH1 0x0 DUP1 REVERT JUMPDEST POP MLOAD SWAP1 POP DUP1 ISZERO PUSH2 0xBB9 JUMPI DUP1 DUP3 GT ISZERO PUSH2 0x13B6 JUMPI PUSH1 0x1 SLOAD PUSH2 0x13B1 SWAP1 PUSH1 0x1 PUSH1 0x1 PUSH1 0xA0 SHL SUB AND DUP5 DUP4 PUSH2 0x13C9 JUMP JUMPDEST PUSH2 0xBB9 JUMP JUMPDEST PUSH1 0x1 SLOAD PUSH2 0xBB9 SWAP1 PUSH1 0x1 PUSH1 0x1 PUSH1 0xA0 SHL SUB AND DUP5 DUP5 JUMPDEST PUSH1 0x40 DUP1 MLOAD PUSH1 0x1 PUSH1 0x1 PUSH1 0xA0 SHL SUB DUP5 AND PUSH1 0x24 DUP3 ADD MSTORE PUSH1 0x44 DUP1 DUP3 ADD DUP5 SWAP1 MSTORE DUP3 MLOAD DUP1 DUP4 SUB SWAP1 SWAP2 ADD DUP2 MSTORE PUSH1 0x64 SWAP1 SWAP2 ADD SWAP1 SWAP2 MSTORE PUSH1 0x20 DUP2 ADD DUP1 MLOAD PUSH1 0x1 PUSH1 0x1 PUSH1 0xE0 SHL SUB AND PUSH4 0xA9059CBB PUSH1 0xE0 SHL OR SWAP1 MSTORE PUSH2 0xBB9 SWAP1 DUP5 SWAP1 PUSH2 0x1515 JUMP JUMPDEST PUSH1 0x2 SLOAD PUSH1 0x0 JUMPDEST DUP2 DUP2 LT ISZERO PUSH2 0xBB9 JUMPI DUP3 PUSH1 0x1 PUSH1 0x1 PUSH1 0xA0 SHL SUB AND PUSH1 0x2 DUP3 DUP2 SLOAD DUP2 LT PUSH2 0x1440 JUMPI INVALID JUMPDEST PUSH1 0x0 SWAP2 DUP3 MSTORE PUSH1 0x20 SWAP1 SWAP2 KECCAK256 PUSH1 0x5 SWAP1 SWAP2 MUL ADD SLOAD PUSH1 0x1 PUSH1 0x1 PUSH1 0xA0 SHL SUB AND EQ ISZERO PUSH2 0x14AD JUMPI PUSH1 0x40 DUP1 MLOAD PUSH3 0x461BCD PUSH1 0xE5 SHL DUP2 MSTORE PUSH1 0x20 PUSH1 0x4 DUP3 ADD MSTORE PUSH1 0x1E PUSH1 0x24 DUP3 ADD MSTORE PUSH32 0x546F6D62526577617264506F6F6C3A206578697374696E6720706F6F6C3F0000 PUSH1 0x44 DUP3 ADD MSTORE SWAP1 MLOAD SWAP1 DUP2 SWAP1 SUB PUSH1 0x64 ADD SWAP1 REVERT JUMPDEST PUSH1 0x1 ADD PUSH2 0x1421 JUMP JUMPDEST PUSH1 0x40 DUP1 MLOAD PUSH1 0x1 PUSH1 0x1 PUSH1 0xA0 SHL SUB DUP1 DUP7 AND PUSH1 0x24 DUP4 ADD MSTORE DUP5 AND PUSH1 0x44 DUP3 ADD MSTORE PUSH1 0x64 DUP1 DUP3 ADD DUP5 SWAP1 MSTORE DUP3 MLOAD DUP1 DUP4 SUB SWAP1 SWAP2 ADD DUP2 MSTORE PUSH1 0x84 SWAP1 SWAP2 ADD SWAP1 SWAP2 MSTORE PUSH1 0x20 DUP2 ADD DUP1 MLOAD PUSH1 0x1 PUSH1 0x1 PUSH1 0xE0 SHL SUB AND PUSH4 0x23B872DD PUSH1 0xE0 SHL OR SWAP1 MSTORE PUSH2 0x150F SWAP1 DUP6 SWAP1 PUSH2 0x1515 JUMP JUMPDEST POP POP POP POP JUMP JUMPDEST PUSH1 0x60 PUSH2 0x156A DUP3 PUSH1 0x40 MLOAD DUP1 PUSH1 0x40 ADD PUSH1 0x40 MSTORE DUP1 PUSH1 0x20 DUP2 MSTORE PUSH1 0x20 ADD PUSH32 0x5361666545524332303A206C6F772D6C6576656C2063616C6C206661696C6564 DUP2 MSTORE POP DUP6 PUSH1 0x1 PUSH1 0x1 PUSH1 0xA0 SHL SUB AND PUSH2 0x15C6 SWAP1 SWAP3 SWAP2 SWAP1 PUSH4 0xFFFFFFFF AND JUMP JUMPDEST DUP1 MLOAD SWAP1 SWAP2 POP ISZERO PUSH2 0xBB9 JUMPI DUP1 DUP1 PUSH1 0x20 ADD SWAP1 MLOAD PUSH1 0x20 DUP2 LT ISZERO PUSH2 0x1589 JUMPI PUSH1 0x0 DUP1 REVERT JUMPDEST POP MLOAD PUSH2 0xBB9 JUMPI PUSH1 0x40 MLOAD PUSH3 0x461BCD PUSH1 0xE5 SHL DUP2 MSTORE PUSH1 0x4 ADD DUP1 DUP1 PUSH1 0x20 ADD DUP3 DUP2 SUB DUP3 MSTORE PUSH1 0x2A DUP2 MSTORE PUSH1 0x20 ADD DUP1 PUSH2 0x184C PUSH1 0x2A SWAP2 CODECOPY PUSH1 0x40 ADD SWAP2 POP POP PUSH1 0x40 MLOAD DUP1 SWAP2 SUB SWAP1 REVERT JUMPDEST PUSH1 0x60 PUSH2 0x15D5 DUP5 DUP5 PUSH1 0x0 DUP6 PUSH2 0x15DF JUMP JUMPDEST SWAP1 POP JUMPDEST SWAP4 SWAP3 POP POP POP JUMP JUMPDEST PUSH1 0x60 DUP3 SELFBALANCE LT ISZERO PUSH2 0x1620 JUMPI PUSH1 0x40 MLOAD PUSH3 0x461BCD PUSH1 0xE5 SHL DUP2 MSTORE PUSH1 0x4 ADD DUP1 DUP1 PUSH1 0x20 ADD DUP3 DUP2 SUB DUP3 MSTORE PUSH1 0x26 DUP2 MSTORE PUSH1 0x20 ADD DUP1 PUSH2 0x1805 PUSH1 0x26 SWAP2 CODECOPY PUSH1 0x40 ADD SWAP2 POP POP PUSH1 0x40 MLOAD DUP1 SWAP2 SUB SWAP1 REVERT JUMPDEST PUSH2 0x1629 DUP6 PUSH2 0x1730 JUMP JUMPDEST PUSH2 0x167A JUMPI PUSH1 0x40 DUP1 MLOAD PUSH3 0x461BCD PUSH1 0xE5 SHL DUP2 MSTORE PUSH1 0x20 PUSH1 0x4 DUP3 ADD MSTORE PUSH1 0x1D PUSH1 0x24 DUP3 ADD MSTORE PUSH32 0x416464726573733A2063616C6C20746F206E6F6E2D636F6E7472616374000000 PUSH1 0x44 DUP3 ADD MSTORE SWAP1 MLOAD SWAP1 DUP2 SWAP1 SUB PUSH1 0x64 ADD SWAP1 REVERT JUMPDEST PUSH1 0x0 PUSH1 0x60 DUP7 PUSH1 0x1 PUSH1 0x1 PUSH1 0xA0 SHL SUB AND DUP6 DUP8 PUSH1 0x40 MLOAD DUP1 DUP3 DUP1 MLOAD SWAP1 PUSH1 0x20 ADD SWAP1 DUP1 DUP4 DUP4 JUMPDEST PUSH1 0x20 DUP4 LT PUSH2 0x16B9 JUMPI DUP1 MLOAD DUP3 MSTORE PUSH1 0x1F NOT SWAP1 SWAP3 ADD SWAP2 PUSH1 0x20 SWAP2 DUP3 ADD SWAP2 ADD PUSH2 0x169A JUMP JUMPDEST PUSH1 0x1 DUP4 PUSH1 0x20 SUB PUSH2 0x100 EXP SUB DUP1 NOT DUP3 MLOAD AND DUP2 DUP5 MLOAD AND DUP1 DUP3 OR DUP6 MSTORE POP POP POP POP POP POP SWAP1 POP ADD SWAP2 POP POP PUSH1 0x0 PUSH1 0x40 MLOAD DUP1 DUP4 SUB DUP2 DUP6 DUP8 GAS CALL SWAP3 POP POP POP RETURNDATASIZE DUP1 PUSH1 0x0 DUP2 EQ PUSH2 0x171B JUMPI PUSH1 0x40 MLOAD SWAP2 POP PUSH1 0x1F NOT PUSH1 0x3F RETURNDATASIZE ADD AND DUP3 ADD PUSH1 0x40 MSTORE RETURNDATASIZE DUP3 MSTORE RETURNDATASIZE PUSH1 0x0 PUSH1 0x20 DUP5 ADD RETURNDATACOPY PUSH2 0x1720 JUMP JUMPDEST PUSH1 0x60 SWAP2 POP JUMPDEST POP SWAP2 POP SWAP2 POP PUSH2 0xD5B DUP3 DUP3 DUP7 PUSH2 0x1736 JUMP JUMPDEST EXTCODESIZE ISZERO ISZERO SWAP1 JUMP JUMPDEST PUSH1 0x60 DUP4 ISZERO PUSH2 0x1745 JUMPI POP DUP2 PUSH2 0x15D8 JUMP JUMPDEST DUP3 MLOAD ISZERO PUSH2 0x1755 JUMPI DUP3 MLOAD DUP1 DUP5 PUSH1 0x20 ADD REVERT JUMPDEST DUP2 PUSH1 0x40 MLOAD PUSH3 0x461BCD PUSH1 0xE5 SHL DUP2 MSTORE PUSH1 0x4 ADD DUP1 DUP1 PUSH1 0x20 ADD DUP3 DUP2 SUB DUP3 MSTORE DUP4 DUP2 DUP2 MLOAD DUP2 MSTORE PUSH1 0x20 ADD SWAP2 POP DUP1 MLOAD SWAP1 PUSH1 0x20 ADD SWAP1 DUP1 DUP4 DUP4 PUSH1 0x0 JUMPDEST DUP4 DUP2 LT ISZERO PUSH2 0x179F JUMPI DUP2 DUP2 ADD MLOAD DUP4 DUP3 ADD MSTORE PUSH1 0x20 ADD PUSH2 0x1787 JUMP JUMPDEST POP POP POP POP SWAP1 POP SWAP1 DUP2 ADD SWAP1 PUSH1 0x1F AND DUP1 ISZERO PUSH2 0x17CC JUMPI DUP1 DUP3 SUB DUP1 MLOAD PUSH1 0x1 DUP4 PUSH1 0x20 SUB PUSH2 0x100 EXP SUB NOT AND DUP2 MSTORE PUSH1 0x20 ADD SWAP2 POP JUMPDEST POP SWAP3 POP POP POP PUSH1 0x40 MLOAD DUP1 SWAP2 SUB SWAP1 REVERT INVALID SLOAD PUSH16 0x6D62526577617264506F6F6C3A206361 PUSH13 0x6C6572206973206E6F74207468 PUSH6 0x206F70657261 PUSH21 0x6F72416464726573733A20696E7375666669636965 PUSH15 0x742062616C616E636520666F722063 PUSH2 0x6C6C MSTORE8 PUSH2 0x6665 0x4D PUSH2 0x7468 GASPRICE KECCAK256 PUSH14 0x756C7469706C69636174696F6E20 PUSH16 0x766572666C6F77536166654552433230 GASPRICE KECCAK256 GASLIMIT MSTORE NUMBER ORIGIN ADDRESS KECCAK256 PUSH16 0x7065726174696F6E20646964206E6F74 KECCAK256 PUSH20 0x756363656564A2646970667358221220BBB8D0C4 EQ DUP14 0x23 0x4A 0xB6 EXP DUP2 PUSH17 0x4FC77639B49FF849021A392E19460BD4FF PUSH6 0x4FA164736F6C PUSH4 0x4300060C STOP CALLER "
				},
				"gasEstimates": {
					"creation": {
						"codeDepositCost": "1263000",
						"executionCost": "infinite",
						"totalCost": "infinite"
					},
					"external": {
						"add(uint256,address,bool,uint256)": "infinite",
						"deposit(uint256,uint256)": "infinite",
						"emergencyWithdraw(uint256)": "infinite",
						"epochEndTimes(uint256)": "1140",
						"epochTombPerSecond(uint256)": "1119",
						"epochTotalRewards(uint256)": "1953",
						"getGeneratedReward(uint256,uint256)": "infinite",
						"governanceRecoverUnsupported(address,uint256,address)": "infinite",
						"massUpdatePools()": "infinite",
						"operator()": "1126",
						"pendingTOMB(uint256,address)": "infinite",
						"poolInfo(uint256)": "5358",
						"poolStartTime()": "1109",
						"set(uint256,uint256)": "infinite",
						"setOperator(address)": "infinite",
						"tomb()": "1125",
						"totalAllocPoint()": "1044",
						"updatePool(uint256)": "infinite",
						"userInfo(uint256,address)": "2139",
						"withdraw(uint256,uint256)": "infinite"
					},
					"internal": {
						"checkPoolDuplicate(contract IERC20)": "infinite",
						"safeTombTransfer(address,uint256)": "infinite"
					}
				},
				"methodIdentifiers": {
					"add(uint256,address,bool,uint256)": "96805e54",
					"deposit(uint256,uint256)": "e2bbb158",
					"emergencyWithdraw(uint256)": "5312ea8e",
					"epochEndTimes(uint256)": "b89e73c1",
					"epochTombPerSecond(uint256)": "7704d44e",
					"epochTotalRewards(uint256)": "9a25cefc",
					"getGeneratedReward(uint256,uint256)": "231f0c6a",
					"governanceRecoverUnsupported(address,uint256,address)": "54575af4",
					"massUpdatePools()": "630b5ba1",
					"operator()": "570ca735",
					"pendingTOMB(uint256,address)": "89744bb4",
					"poolInfo(uint256)": "1526fe27",
					"poolStartTime()": "5f96dc11",
					"set(uint256,uint256)": "1ab06ee5",
					"setOperator(address)": "b3ab15fb",
					"tomb()": "c040f23a",
					"totalAllocPoint()": "17caf6f1",
					"updatePool(uint256)": "51eb05a6",
					"userInfo(uint256,address)": "93f1a40b",
					"withdraw(uint256,uint256)": "441a3e70"
				}
			},
			"storageLayout": {
				"storage": [
					{
						"astId": 987,
						"contract": "contracts/distribution/TombRewardPool.sol:TombRewardPool",
						"label": "operator",
						"offset": 0,
						"slot": "0",
						"type": "t_address"
					},
					{
						"astId": 1005,
						"contract": "contracts/distribution/TombRewardPool.sol:TombRewardPool",
						"label": "tomb",
						"offset": 0,
						"slot": "1",
						"type": "t_contract(IERC20)77"
					},
					{
						"astId": 1008,
						"contract": "contracts/distribution/TombRewardPool.sol:TombRewardPool",
						"label": "poolInfo",
						"offset": 0,
						"slot": "2",
						"type": "t_array(t_struct(PoolInfo)1003_storage)dyn_storage"
					},
					{
						"astId": 1014,
						"contract": "contracts/distribution/TombRewardPool.sol:TombRewardPool",
						"label": "userInfo",
						"offset": 0,
						"slot": "3",
						"type": "t_mapping(t_uint256,t_mapping(t_address,t_struct(UserInfo)992_storage))"
					},
					{
						"astId": 1017,
						"contract": "contracts/distribution/TombRewardPool.sol:TombRewardPool",
						"label": "totalAllocPoint",
						"offset": 0,
						"slot": "4",
						"type": "t_uint256"
					},
					{
						"astId": 1019,
						"contract": "contracts/distribution/TombRewardPool.sol:TombRewardPool",
						"label": "poolStartTime",
						"offset": 0,
						"slot": "5",
						"type": "t_uint256"
					},
					{
						"astId": 1025,
						"contract": "contracts/distribution/TombRewardPool.sol:TombRewardPool",
						"label": "epochTotalRewards",
						"offset": 0,
						"slot": "6",
						"type": "t_array(t_uint256)dyn_storage"
					},
					{
						"astId": 1029,
						"contract": "contracts/distribution/TombRewardPool.sol:TombRewardPool",
						"label": "epochEndTimes",
						"offset": 0,
						"slot": "7",
						"type": "t_array(t_uint256)3_storage"
					},
					{
						"astId": 1033,
						"contract": "contracts/distribution/TombRewardPool.sol:TombRewardPool",
						"label": "epochTombPerSecond",
						"offset": 0,
						"slot": "10",
						"type": "t_array(t_uint256)3_storage"
					}
				],
				"types": {
					"t_address": {
						"encoding": "inplace",
						"label": "address",
						"numberOfBytes": "20"
					},
					"t_array(t_struct(PoolInfo)1003_storage)dyn_storage": {
						"base": "t_struct(PoolInfo)1003_storage",
						"encoding": "dynamic_array",
						"label": "struct TombRewardPool.PoolInfo[]",
						"numberOfBytes": "32"
					},
					"t_array(t_uint256)3_storage": {
						"base": "t_uint256",
						"encoding": "inplace",
						"label": "uint256[3]",
						"numberOfBytes": "96"
					},
					"t_array(t_uint256)dyn_storage": {
						"base": "t_uint256",
						"encoding": "dynamic_array",
						"label": "uint256[]",
						"numberOfBytes": "32"
					},
					"t_bool": {
						"encoding": "inplace",
						"label": "bool",
						"numberOfBytes": "1"
					},
					"t_contract(IERC20)77": {
						"encoding": "inplace",
						"label": "contract IERC20",
						"numberOfBytes": "20"
					},
					"t_mapping(t_address,t_struct(UserInfo)992_storage)": {
						"encoding": "mapping",
						"key": "t_address",
						"label": "mapping(address => struct TombRewardPool.UserInfo)",
						"numberOfBytes": "32",
						"value": "t_struct(UserInfo)992_storage"
					},
					"t_mapping(t_uint256,t_mapping(t_address,t_struct(UserInfo)992_storage))": {
						"encoding": "mapping",
						"key": "t_uint256",
						"label": "mapping(uint256 => mapping(address => struct TombRewardPool.UserInfo))",
						"numberOfBytes": "32",
						"value": "t_mapping(t_address,t_struct(UserInfo)992_storage)"
					},
					"t_struct(PoolInfo)1003_storage": {
						"encoding": "inplace",
						"label": "struct TombRewardPool.PoolInfo",
						"members": [
							{
								"astId": 994,
								"contract": "contracts/distribution/TombRewardPool.sol:TombRewardPool",
								"label": "token",
								"offset": 0,
								"slot": "0",
								"type": "t_contract(IERC20)77"
							},
							{
								"astId": 996,
								"contract": "contracts/distribution/TombRewardPool.sol:TombRewardPool",
								"label": "allocPoint",
								"offset": 0,
								"slot": "1",
								"type": "t_uint256"
							},
							{
								"astId": 998,
								"contract": "contracts/distribution/TombRewardPool.sol:TombRewardPool",
								"label": "lastRewardTime",
								"offset": 0,
								"slot": "2",
								"type": "t_uint256"
							},
							{
								"astId": 1000,
								"contract": "contracts/distribution/TombRewardPool.sol:TombRewardPool",
								"label": "accTombPerShare",
								"offset": 0,
								"slot": "3",
								"type": "t_uint256"
							},
							{
								"astId": 1002,
								"contract": "contracts/distribution/TombRewardPool.sol:TombRewardPool",
								"label": "isStarted",
								"offset": 0,
								"slot": "4",
								"type": "t_bool"
							}
						],
						"numberOfBytes": "160"
					},
					"t_struct(UserInfo)992_storage": {
						"encoding": "inplace",
						"label": "struct TombRewardPool.UserInfo",
						"members": [
							{
								"astId": 989,
								"contract": "contracts/distribution/TombRewardPool.sol:TombRewardPool",
								"label": "amount",
								"offset": 0,
								"slot": "0",
								"type": "t_uint256"
							},
							{
								"astId": 991,
								"contract": "contracts/distribution/TombRewardPool.sol:TombRewardPool",
								"label": "rewardDebt",
								"offset": 0,
								"slot": "1",
								"type": "t_uint256"
							}
						],
						"numberOfBytes": "64"
					},
					"t_uint256": {
						"encoding": "inplace",
						"label": "uint256",
						"numberOfBytes": "32"
					}
				}
			},
			"userdoc": {
				"kind": "user",
				"methods": {},
				"version": 1
			}
		}
	}
}